{
	"contracts/RestaurantManager.sol": {
		"RestaurantManager": {
			"abi": [
				{
					"inputs": [],
					"name": "InvalidInitialization",
					"type": "error"
				},
				{
					"inputs": [],
					"name": "NotInitializing",
					"type": "error"
				},
				{
					"inputs": [
						{
							"internalType": "address",
							"name": "owner",
							"type": "address"
						}
					],
					"name": "OwnableInvalidOwner",
					"type": "error"
				},
				{
					"inputs": [
						{
							"internalType": "address",
							"name": "account",
							"type": "address"
						}
					],
					"name": "OwnableUnauthorizedAccount",
					"type": "error"
				},
				{
					"inputs": [],
					"name": "RestaurantManager__InvalidAddress",
					"type": "error"
				},
				{
					"inputs": [],
					"name": "RestaurantManager__NotFoodApp",
					"type": "error"
				},
				{
					"inputs": [],
					"name": "RestaurantManager__RestaurantNotFound",
					"type": "error"
				},
				{
					"anonymous": false,
					"inputs": [
						{
							"indexed": false,
							"internalType": "uint64",
							"name": "version",
							"type": "uint64"
						}
					],
					"name": "Initialized",
					"type": "event"
				},
				{
					"anonymous": false,
					"inputs": [
						{
							"indexed": true,
							"internalType": "address",
							"name": "previousOwner",
							"type": "address"
						},
						{
							"indexed": true,
							"internalType": "address",
							"name": "newOwner",
							"type": "address"
						}
					],
					"name": "OwnershipTransferred",
					"type": "event"
				},
				{
					"anonymous": false,
					"inputs": [
						{
							"indexed": true,
							"internalType": "uint128",
							"name": "restaurantId",
							"type": "uint128"
						},
						{
							"indexed": true,
							"internalType": "address",
							"name": "owner",
							"type": "address"
						},
						{
							"indexed": false,
							"internalType": "string",
							"name": "name",
							"type": "string"
						}
					],
					"name": "RestaurantRegistered",
					"type": "event"
				},
				{
					"inputs": [],
					"name": "foodAppContractAddress",
					"outputs": [
						{
							"internalType": "address",
							"name": "",
							"type": "address"
						}
					],
					"stateMutability": "view",
					"type": "function"
				},
				{
					"inputs": [
						{
							"internalType": "uint128",
							"name": "restaurantId",
							"type": "uint128"
						}
					],
					"name": "getRestaurantOwner",
					"outputs": [
						{
							"internalType": "address",
							"name": "",
							"type": "address"
						}
					],
					"stateMutability": "view",
					"type": "function"
				},
				{
					"inputs": [
						{
							"internalType": "address",
							"name": "_foodAppContract",
							"type": "address"
						},
						{
							"internalType": "address",
							"name": "_factoryOwner",
							"type": "address"
						}
					],
					"name": "initialize",
					"outputs": [],
					"stateMutability": "nonpayable",
					"type": "function"
				},
				{
					"inputs": [],
					"name": "nextRestaurantId",
					"outputs": [
						{
							"internalType": "uint128",
							"name": "",
							"type": "uint128"
						}
					],
					"stateMutability": "view",
					"type": "function"
				},
				{
					"inputs": [],
					"name": "owner",
					"outputs": [
						{
							"internalType": "address",
							"name": "",
							"type": "address"
						}
					],
					"stateMutability": "view",
					"type": "function"
				},
				{
					"inputs": [
						{
							"internalType": "address",
							"name": "restaurantActualOwner",
							"type": "address"
						}
					],
					"name": "registerRestaurant",
					"outputs": [
						{
							"internalType": "uint128",
							"name": "",
							"type": "uint128"
						}
					],
					"stateMutability": "nonpayable",
					"type": "function"
				},
				{
					"inputs": [],
					"name": "renounceOwnership",
					"outputs": [],
					"stateMutability": "nonpayable",
					"type": "function"
				},
				{
					"inputs": [
						{
							"internalType": "uint128",
							"name": "restaurantId",
							"type": "uint128"
						}
					],
					"name": "restaurantExists",
					"outputs": [
						{
							"internalType": "bool",
							"name": "",
							"type": "bool"
						}
					],
					"stateMutability": "view",
					"type": "function"
				},
				{
					"inputs": [
						{
							"internalType": "uint128",
							"name": "",
							"type": "uint128"
						}
					],
					"name": "restaurants",
					"outputs": [
						{
							"internalType": "uint128",
							"name": "id",
							"type": "uint128"
						},
						{
							"internalType": "address",
							"name": "owner",
							"type": "address"
						},
						{
							"internalType": "string",
							"name": "name",
							"type": "string"
						}
					],
					"stateMutability": "view",
					"type": "function"
				},
				{
					"inputs": [
						{
							"internalType": "address",
							"name": "",
							"type": "address"
						},
						{
							"internalType": "uint256",
							"name": "",
							"type": "uint256"
						}
					],
					"name": "restaurantsByOwner",
					"outputs": [
						{
							"internalType": "uint128",
							"name": "",
							"type": "uint128"
						}
					],
					"stateMutability": "view",
					"type": "function"
				},
				{
					"inputs": [
						{
							"internalType": "address",
							"name": "newOwner",
							"type": "address"
						}
					],
					"name": "transferOwnership",
					"outputs": [],
					"stateMutability": "nonpayable",
					"type": "function"
				}
			],
			"devdoc": {
				"errors": {
					"InvalidInitialization()": [
						{
							"details": "The contract is already initialized."
						}
					],
					"NotInitializing()": [
						{
							"details": "The contract is not initializing."
						}
					],
					"OwnableInvalidOwner(address)": [
						{
							"details": "The owner is not a valid owner account. (eg. `address(0)`)"
						}
					],
					"OwnableUnauthorizedAccount(address)": [
						{
							"details": "The caller account is not authorized to perform an operation."
						}
					]
				},
				"events": {
					"Initialized(uint64)": {
						"details": "Triggered when the contract has been initialized or reinitialized."
					}
				},
				"kind": "dev",
				"methods": {
					"owner()": {
						"details": "Returns the address of the current owner."
					},
					"renounceOwnership()": {
						"details": "Leaves the contract without owner. It will not be possible to call `onlyOwner` functions. Can only be called by the current owner. NOTE: Renouncing ownership will leave the contract without an owner, thereby disabling any functionality that is only available to the owner."
					},
					"transferOwnership(address)": {
						"details": "Transfers ownership of the contract to a new account (`newOwner`). Can only be called by the current owner."
					}
				},
				"version": 1
			},
			"evm": {
				"assembly": "    /* \"contracts/RestaurantManager.sol\":224:2823  contract RestaurantManager is OwnableUpgradeable, IRestaurantManager {... */\n  mstore(0x40, 0x80)\n  callvalue\n  dup1\n  iszero\n  tag_1\n  jumpi\n  revert(0x00, 0x00)\ntag_1:\n  pop\n  dataSize(sub_0)\n  dup1\n  dataOffset(sub_0)\n  0x00\n  codecopy\n  0x00\n  return\nstop\n\nsub_0: assembly {\n        /* \"contracts/RestaurantManager.sol\":224:2823  contract RestaurantManager is OwnableUpgradeable, IRestaurantManager {... */\n      mstore(0x40, 0x80)\n      callvalue\n      dup1\n      iszero\n      tag_1\n      jumpi\n      revert(0x00, 0x00)\n    tag_1:\n      pop\n      jumpi(tag_2, lt(calldatasize, 0x04))\n      shr(0xe0, calldataload(0x00))\n      dup1\n      0x011eaad2\n      eq\n      tag_3\n      jumpi\n      dup1\n      0x36744f45\n      eq\n      tag_4\n      jumpi\n      dup1\n      0x46bd8077\n      eq\n      tag_5\n      jumpi\n      dup1\n      0x485cc955\n      eq\n      tag_6\n      jumpi\n      dup1\n      0x715018a6\n      eq\n      tag_7\n      jumpi\n      dup1\n      0x832dbdd9\n      eq\n      tag_8\n      jumpi\n      dup1\n      0x8da5cb5b\n      eq\n      tag_9\n      jumpi\n      dup1\n      0xb2a6cb63\n      eq\n      tag_10\n      jumpi\n      dup1\n      0xb9588327\n      eq\n      tag_11\n      jumpi\n      dup1\n      0xbc5dd530\n      eq\n      tag_12\n      jumpi\n      dup1\n      0xf2fde38b\n      eq\n      tag_13\n      jumpi\n    tag_2:\n      revert(0x00, 0x00)\n        /* \"contracts/RestaurantManager.sol\":338:387  mapping(uint128 => Restaurant) public restaurants */\n    tag_3:\n      tag_14\n      tag_15\n      calldatasize\n      0x04\n      tag_16\n      jump\t// in\n    tag_15:\n      tag_17\n      jump\t// in\n    tag_14:\n      mload(0x40)\n      tag_18\n      swap4\n      swap3\n      swap2\n      swap1\n      tag_19\n      jump\t// in\n    tag_18:\n      mload(0x40)\n      dup1\n      swap2\n      sub\n      swap1\n      return\n        /* \"contracts/RestaurantManager.sol\":395:450  mapping(address => uint128[]) public restaurantsByOwner */\n    tag_4:\n      tag_20\n      tag_21\n      calldatasize\n      0x04\n      tag_22\n      jump\t// in\n    tag_21:\n      tag_23\n      jump\t// in\n    tag_20:\n      mload(0x40)\n      sub(shl(0x80, 0x01), 0x01)\n        /* \"#utility.yul\":1526:1558   */\n      swap1\n      swap2\n      and\n        /* \"#utility.yul\":1508:1559   */\n      dup2\n      mstore\n        /* \"#utility.yul\":1496:1498   */\n      0x20\n        /* \"#utility.yul\":1481:1499   */\n      add\n        /* \"contracts/RestaurantManager.sol\":395:450  mapping(address => uint128[]) public restaurantsByOwner */\n      tag_18\n        /* \"#utility.yul\":1362:1565   */\n      jump\n        /* \"contracts/RestaurantManager.sol\":300:331  uint128 public nextRestaurantId */\n    tag_5:\n      sload(0x00)\n      tag_20\n      swap1\n      sub(shl(0x80, 0x01), 0x01)\n      and\n      dup2\n      jump\n        /* \"contracts/RestaurantManager.sol\":902:1403  function initialize(address _foodAppContract, address _factoryOwner) public initializer {... */\n    tag_6:\n      tag_29\n      tag_30\n      calldatasize\n      0x04\n      tag_31\n      jump\t// in\n    tag_30:\n      tag_32\n      jump\t// in\n    tag_29:\n      stop\n        /* \"@openzeppelin/contracts-upgradeable/access/OwnableUpgradeable.sol\":3155:3256  function renounceOwnership() public virtual onlyOwner {... */\n    tag_7:\n      tag_29\n      tag_34\n      jump\t// in\n        /* \"contracts/RestaurantManager.sol\":459:496  address public foodAppContractAddress */\n    tag_8:\n      sload(0x03)\n      tag_35\n      swap1\n      sub(shl(0xa0, 0x01), 0x01)\n      and\n      dup2\n      jump\n    tag_35:\n      mload(0x40)\n      tag_18\n      swap2\n      swap1\n      tag_38\n      jump\t// in\n        /* \"@openzeppelin/contracts-upgradeable/access/OwnableUpgradeable.sol\":2441:2585  function owner() public view virtual returns (address) {... */\n    tag_9:\n      tag_35\n      tag_40\n      jump\t// in\n        /* \"contracts/RestaurantManager.sol\":2209:2354  function restaurantExists(uint128 restaurantId) external view override returns (bool) {... */\n    tag_10:\n      tag_42\n      tag_43\n      calldatasize\n      0x04\n      tag_16\n      jump\t// in\n    tag_43:\n      sub(shl(0x80, 0x01), 0x01)\n        /* \"contracts/RestaurantManager.sol\":2313:2338  restaurants[restaurantId] */\n      swap1\n      dup2\n      and\n        /* \"contracts/RestaurantManager.sol\":2289:2293  bool */\n      0x00\n        /* \"contracts/RestaurantManager.sol\":2313:2338  restaurants[restaurantId] */\n      swap1\n      dup2\n      mstore\n        /* \"contracts/RestaurantManager.sol\":2313:2324  restaurants */\n      0x01\n        /* \"contracts/RestaurantManager.sol\":2313:2338  restaurants[restaurantId] */\n      0x20\n      mstore\n      0x40\n      swap1\n      keccak256\n        /* \"contracts/RestaurantManager.sol\":2313:2341  restaurants[restaurantId].id */\n      sload\n      and\n        /* \"contracts/RestaurantManager.sol\":2313:2346  restaurants[restaurantId].id != 0 */\n      iszero\n      iszero\n      swap1\n        /* \"contracts/RestaurantManager.sol\":2209:2354  function restaurantExists(uint128 restaurantId) external view override returns (bool) {... */\n      jump\n    tag_42:\n      mload(0x40)\n        /* \"#utility.yul\":2208:2222   */\n      swap1\n      iszero\n        /* \"#utility.yul\":2201:2223   */\n      iszero\n        /* \"#utility.yul\":2183:2224   */\n      dup2\n      mstore\n        /* \"#utility.yul\":2171:2173   */\n      0x20\n        /* \"#utility.yul\":2156:2174   */\n      add\n        /* \"contracts/RestaurantManager.sol\":2209:2354  function restaurantExists(uint128 restaurantId) external view override returns (bool) {... */\n      tag_18\n        /* \"#utility.yul\":2043:2230   */\n      jump\n        /* \"contracts/RestaurantManager.sol\":2362:2606  function getRestaurantOwner(uint128 restaurantId) external view override returns (address) {... */\n    tag_11:\n      tag_35\n      tag_48\n      calldatasize\n      0x04\n      tag_16\n      jump\t// in\n    tag_48:\n      tag_49\n      jump\t// in\n        /* \"contracts/RestaurantManager.sol\":1496:2201  function registerRestaurant(address restaurantActualOwner) external override onlyFoodAppContract returns (uint128) {... */\n    tag_12:\n      tag_20\n      tag_52\n      calldatasize\n      0x04\n      tag_53\n      jump\t// in\n    tag_52:\n      tag_54\n      jump\t// in\n        /* \"@openzeppelin/contracts-upgradeable/access/OwnableUpgradeable.sol\":3405:3620  function transferOwnership(address newOwner) public virtual onlyOwner {... */\n    tag_13:\n      tag_29\n      tag_57\n      calldatasize\n      0x04\n      tag_53\n      jump\t// in\n    tag_57:\n      tag_58\n      jump\t// in\n        /* \"contracts/RestaurantManager.sol\":338:387  mapping(uint128 => Restaurant) public restaurants */\n    tag_17:\n      0x01\n      0x20\n      dup2\n      swap1\n      mstore\n      0x00\n      swap2\n      dup3\n      mstore\n      0x40\n      swap1\n      swap2\n      keccak256\n      dup1\n      sload\n      swap2\n      dup2\n      add\n      sload\n      0x02\n      dup3\n      add\n      dup1\n      sload\n      sub(shl(0x80, 0x01), 0x01)\n      swap1\n      swap5\n      and\n      swap4\n      sub(shl(0xa0, 0x01), 0x01)\n      swap1\n      swap3\n      and\n      swap3\n      swap2\n      tag_59\n      swap1\n      tag_60\n      jump\t// in\n    tag_59:\n      dup1\n      0x1f\n      add\n      0x20\n      dup1\n      swap2\n      div\n      mul\n      0x20\n      add\n      mload(0x40)\n      swap1\n      dup2\n      add\n      0x40\n      mstore\n      dup1\n      swap3\n      swap2\n      swap1\n      dup2\n      dup2\n      mstore\n      0x20\n      add\n      dup3\n      dup1\n      sload\n      tag_61\n      swap1\n      tag_60\n      jump\t// in\n    tag_61:\n      dup1\n      iszero\n      tag_62\n      jumpi\n      dup1\n      0x1f\n      lt\n      tag_63\n      jumpi\n      0x0100\n      dup1\n      dup4\n      sload\n      div\n      mul\n      dup4\n      mstore\n      swap2\n      0x20\n      add\n      swap2\n      jump(tag_62)\n    tag_63:\n      dup3\n      add\n      swap2\n      swap1\n      0x00\n      mstore\n      keccak256(0x00, 0x20)\n      swap1\n    tag_64:\n      dup2\n      sload\n      dup2\n      mstore\n      swap1\n      0x01\n      add\n      swap1\n      0x20\n      add\n      dup1\n      dup4\n      gt\n      tag_64\n      jumpi\n      dup3\n      swap1\n      sub\n      0x1f\n      and\n      dup3\n      add\n      swap2\n    tag_62:\n      pop\n      pop\n      pop\n      pop\n      pop\n      swap1\n      pop\n      dup4\n      jump\t// out\n        /* \"contracts/RestaurantManager.sol\":395:450  mapping(address => uint128[]) public restaurantsByOwner */\n    tag_23:\n      mstore(0x20, 0x02)\n      dup2\n      0x00\n      mstore\n      keccak256(0x00, 0x40)\n      dup2\n      dup2\n      sload\n      dup2\n      lt\n      tag_65\n      jumpi\n      0x00\n      dup1\n      revert\n    tag_65:\n      swap1\n      0x00\n      mstore\n      keccak256(0x00, 0x20)\n      swap1\n      0x02\n      swap2\n      dup3\n      dup3\n      div\n      add\n      swap2\n      swap1\n      mod\n      0x10\n      mul\n      swap2\n      pop\n      swap2\n      pop\n      swap1\n      sload\n      swap1\n      0x0100\n      exp\n      swap1\n      div\n      sub(shl(0x80, 0x01), 0x01)\n      and\n      dup2\n      jump\t// out\n        /* \"contracts/RestaurantManager.sol\":902:1403  function initialize(address _foodAppContract, address _factoryOwner) public initializer {... */\n    tag_32:\n        /* \"@openzeppelin/contracts-upgradeable/proxy/utils/Initializable.sol\":4158:4188  InitializableStorage storage $ */\n      0x00\n        /* \"@openzeppelin/contracts-upgradeable/proxy/utils/Initializable.sol\":4191:4217  _getInitializableStorage() */\n      tag_68\n        /* \"@openzeppelin/contracts-upgradeable/proxy/utils/Initializable.sol\":4191:4215  _getInitializableStorage */\n      tag_69\n        /* \"@openzeppelin/contracts-upgradeable/proxy/utils/Initializable.sol\":4191:4217  _getInitializableStorage() */\n      jump\t// in\n    tag_68:\n        /* \"@openzeppelin/contracts-upgradeable/proxy/utils/Initializable.sol\":4302:4317  $._initializing */\n      dup1\n      sload\n        /* \"@openzeppelin/contracts-upgradeable/proxy/utils/Initializable.sol\":4158:4217  InitializableStorage storage $ = _getInitializableStorage() */\n      swap1\n      swap2\n      pop\n        /* \"@openzeppelin/contracts-upgradeable/proxy/utils/Initializable.sol\":4302:4317  $._initializing */\n      0xff\n      shl(0x40, 0x01)\n      dup3\n      div\n      and\n        /* \"@openzeppelin/contracts-upgradeable/proxy/utils/Initializable.sol\":4301:4317  !$._initializing */\n      iszero\n      swap1\n      sub(shl(0x40, 0x01), 0x01)\n        /* \"@openzeppelin/contracts-upgradeable/proxy/utils/Initializable.sol\":4348:4362  $._initialized */\n      and\n        /* \"@openzeppelin/contracts-upgradeable/proxy/utils/Initializable.sol\":4279:4298  bool isTopLevelCall */\n      0x00\n        /* \"@openzeppelin/contracts-upgradeable/proxy/utils/Initializable.sol\":4724:4740  initialized == 0 */\n      dup2\n      iszero\n        /* \"@openzeppelin/contracts-upgradeable/proxy/utils/Initializable.sol\":4724:4758  initialized == 0 && isTopLevelCall */\n      dup1\n      iszero\n      tag_70\n      jumpi\n      pop\n        /* \"@openzeppelin/contracts-upgradeable/proxy/utils/Initializable.sol\":4744:4758  isTopLevelCall */\n      dup3\n        /* \"@openzeppelin/contracts-upgradeable/proxy/utils/Initializable.sol\":4724:4758  initialized == 0 && isTopLevelCall */\n    tag_70:\n        /* \"@openzeppelin/contracts-upgradeable/proxy/utils/Initializable.sol\":4704:4758  bool initialSetup = initialized == 0 && isTopLevelCall */\n      swap1\n      pop\n        /* \"@openzeppelin/contracts-upgradeable/proxy/utils/Initializable.sol\":4768:4785  bool construction */\n      0x00\n        /* \"@openzeppelin/contracts-upgradeable/proxy/utils/Initializable.sol\":4788:4799  initialized */\n      dup3\n      sub(shl(0x40, 0x01), 0x01)\n        /* \"@openzeppelin/contracts-upgradeable/proxy/utils/Initializable.sol\":4788:4804  initialized == 1 */\n      and\n        /* \"@openzeppelin/contracts-upgradeable/proxy/utils/Initializable.sol\":4803:4804  1 */\n      0x01\n        /* \"@openzeppelin/contracts-upgradeable/proxy/utils/Initializable.sol\":4788:4804  initialized == 1 */\n      eq\n        /* \"@openzeppelin/contracts-upgradeable/proxy/utils/Initializable.sol\":4788:4838  initialized == 1 && address(this).code.length == 0 */\n      dup1\n      iszero\n      tag_71\n      jumpi\n      pop\n        /* \"@openzeppelin/contracts-upgradeable/proxy/utils/Initializable.sol\":4816:4820  this */\n      address\n        /* \"@openzeppelin/contracts-upgradeable/proxy/utils/Initializable.sol\":4808:4833  address(this).code.length */\n      extcodesize\n        /* \"@openzeppelin/contracts-upgradeable/proxy/utils/Initializable.sol\":4808:4838  address(this).code.length == 0 */\n      iszero\n        /* \"@openzeppelin/contracts-upgradeable/proxy/utils/Initializable.sol\":4788:4838  initialized == 1 && address(this).code.length == 0 */\n    tag_71:\n        /* \"@openzeppelin/contracts-upgradeable/proxy/utils/Initializable.sol\":4768:4838  bool construction = initialized == 1 && address(this).code.length == 0 */\n      swap1\n      pop\n        /* \"@openzeppelin/contracts-upgradeable/proxy/utils/Initializable.sol\":4854:4866  initialSetup */\n      dup2\n        /* \"@openzeppelin/contracts-upgradeable/proxy/utils/Initializable.sol\":4853:4866  !initialSetup */\n      iszero\n        /* \"@openzeppelin/contracts-upgradeable/proxy/utils/Initializable.sol\":4853:4883  !initialSetup && !construction */\n      dup1\n      iszero\n      tag_72\n      jumpi\n      pop\n        /* \"@openzeppelin/contracts-upgradeable/proxy/utils/Initializable.sol\":4871:4883  construction */\n      dup1\n        /* \"@openzeppelin/contracts-upgradeable/proxy/utils/Initializable.sol\":4870:4883  !construction */\n      iszero\n        /* \"@openzeppelin/contracts-upgradeable/proxy/utils/Initializable.sol\":4853:4883  !initialSetup && !construction */\n    tag_72:\n        /* \"@openzeppelin/contracts-upgradeable/proxy/utils/Initializable.sol\":4849:4940  if (!initialSetup && !construction) {... */\n      iszero\n      tag_73\n      jumpi\n        /* \"@openzeppelin/contracts-upgradeable/proxy/utils/Initializable.sol\":4906:4929  InvalidInitialization() */\n      mload(0x40)\n      shl(0xe0, 0xf92ee8a9)\n      dup2\n      mstore\n      0x04\n      add\n      mload(0x40)\n      dup1\n      swap2\n      sub\n      swap1\n      revert\n        /* \"@openzeppelin/contracts-upgradeable/proxy/utils/Initializable.sol\":4849:4940  if (!initialSetup && !construction) {... */\n    tag_73:\n        /* \"@openzeppelin/contracts-upgradeable/proxy/utils/Initializable.sol\":4949:4967  $._initialized = 1 */\n      dup5\n      sload\n      not(sub(shl(0x40, 0x01), 0x01))\n      and\n        /* \"@openzeppelin/contracts-upgradeable/proxy/utils/Initializable.sol\":4966:4967  1 */\n      0x01\n        /* \"@openzeppelin/contracts-upgradeable/proxy/utils/Initializable.sol\":4949:4967  $._initialized = 1 */\n      or\n      dup6\n      sstore\n        /* \"@openzeppelin/contracts-upgradeable/proxy/utils/Initializable.sol\":4977:5044  if (isTopLevelCall) {... */\n      dup4\n      iszero\n      tag_74\n      jumpi\n        /* \"@openzeppelin/contracts-upgradeable/proxy/utils/Initializable.sol\":5011:5033  $._initializing = true */\n      dup5\n      sload\n      not(shl(0x40, 0xff))\n      and\n      shl(0x40, 0x01)\n      or\n      dup6\n      sstore\n        /* \"@openzeppelin/contracts-upgradeable/proxy/utils/Initializable.sol\":4977:5044  if (isTopLevelCall) {... */\n    tag_74:\n      sub(shl(0xa0, 0x01), 0x01)\n        /* \"contracts/RestaurantManager.sol\":1005:1035  _foodAppContract == address(0) */\n      dup8\n      and\n        /* \"contracts/RestaurantManager.sol\":1001:1079  if (_foodAppContract == address(0)) revert RestaurantManager__InvalidAddress() */\n      tag_76\n      jumpi\n        /* \"contracts/RestaurantManager.sol\":1044:1079  RestaurantManager__InvalidAddress() */\n      mload(0x40)\n      shl(0xe0, 0xbfbbae8d)\n      dup2\n      mstore\n      0x04\n      add\n      mload(0x40)\n      dup1\n      swap2\n      sub\n      swap1\n      revert\n        /* \"contracts/RestaurantManager.sol\":1001:1079  if (_foodAppContract == address(0)) revert RestaurantManager__InvalidAddress() */\n    tag_76:\n      sub(shl(0xa0, 0x01), 0x01)\n        /* \"contracts/RestaurantManager.sol\":1173:1200  _factoryOwner == address(0) */\n      dup7\n      and\n        /* \"contracts/RestaurantManager.sol\":1169:1244  if (_factoryOwner == address(0)) revert RestaurantManager__InvalidAddress() */\n      tag_77\n      jumpi\n        /* \"contracts/RestaurantManager.sol\":1209:1244  RestaurantManager__InvalidAddress() */\n      mload(0x40)\n      shl(0xe0, 0xbfbbae8d)\n      dup2\n      mstore\n      0x04\n      add\n      mload(0x40)\n      dup1\n      swap2\n      sub\n      swap1\n      revert\n        /* \"contracts/RestaurantManager.sol\":1169:1244  if (_factoryOwner == address(0)) revert RestaurantManager__InvalidAddress() */\n    tag_77:\n        /* \"contracts/RestaurantManager.sol\":1255:1284  __Ownable_init(_factoryOwner) */\n      tag_78\n        /* \"contracts/RestaurantManager.sol\":1270:1283  _factoryOwner */\n      dup7\n        /* \"contracts/RestaurantManager.sol\":1255:1269  __Ownable_init */\n      tag_79\n        /* \"contracts/RestaurantManager.sol\":1255:1284  __Ownable_init(_factoryOwner) */\n      jump\t// in\n    tag_78:\n        /* \"contracts/RestaurantManager.sol\":1323:1345  foodAppContractAddress */\n      0x03\n        /* \"contracts/RestaurantManager.sol\":1323:1364  foodAppContractAddress = _foodAppContract */\n      dup1\n      sload\n      not(sub(shl(0xa0, 0x01), 0x01))\n      and\n      sub(shl(0xa0, 0x01), 0x01)\n      dup10\n      and\n      or\n      swap1\n      sstore\n      0x00\n        /* \"contracts/RestaurantManager.sol\":1375:1395  nextRestaurantId = 1 */\n      dup1\n      sload\n      not(sub(shl(0x80, 0x01), 0x01))\n      and\n      0x01\n      or\n      swap1\n      sstore\n        /* \"@openzeppelin/contracts-upgradeable/proxy/utils/Initializable.sol\":5064:5165  if (isTopLevelCall) {... */\n      dup4\n      iszero\n      tag_80\n      jumpi\n        /* \"@openzeppelin/contracts-upgradeable/proxy/utils/Initializable.sol\":5098:5121  $._initializing = false */\n      dup5\n      sload\n      not(shl(0x40, 0xff))\n      and\n      dup6\n      sstore\n        /* \"@openzeppelin/contracts-upgradeable/proxy/utils/Initializable.sol\":5140:5154  Initialized(1) */\n      mload(0x40)\n      0x01\n        /* \"#utility.yul\":2964:3014   */\n      dup2\n      mstore\n        /* \"@openzeppelin/contracts-upgradeable/proxy/utils/Initializable.sol\":5140:5154  Initialized(1) */\n      0xc7f505b2f371ae2175ee4913f4499e1f2633a7b5936321eed1cdaeb6115181d2\n      swap1\n        /* \"#utility.yul\":2952:2954   */\n      0x20\n        /* \"#utility.yul\":2937:2955   */\n      add\n        /* \"@openzeppelin/contracts-upgradeable/proxy/utils/Initializable.sol\":5140:5154  Initialized(1) */\n      mload(0x40)\n      dup1\n      swap2\n      sub\n      swap1\n      log1\n        /* \"@openzeppelin/contracts-upgradeable/proxy/utils/Initializable.sol\":5064:5165  if (isTopLevelCall) {... */\n    tag_80:\n        /* \"@openzeppelin/contracts-upgradeable/proxy/utils/Initializable.sol\":4092:5171  {... */\n      pop\n      pop\n      pop\n      pop\n      pop\n        /* \"contracts/RestaurantManager.sol\":902:1403  function initialize(address _foodAppContract, address _factoryOwner) public initializer {... */\n      pop\n      pop\n      jump\t// out\n        /* \"@openzeppelin/contracts-upgradeable/access/OwnableUpgradeable.sol\":3155:3256  function renounceOwnership() public virtual onlyOwner {... */\n    tag_34:\n        /* \"@openzeppelin/contracts-upgradeable/access/OwnableUpgradeable.sol\":2334:2347  _checkOwner() */\n      tag_84\n        /* \"@openzeppelin/contracts-upgradeable/access/OwnableUpgradeable.sol\":2334:2345  _checkOwner */\n      tag_85\n        /* \"@openzeppelin/contracts-upgradeable/access/OwnableUpgradeable.sol\":2334:2347  _checkOwner() */\n      jump\t// in\n    tag_84:\n        /* \"@openzeppelin/contracts-upgradeable/access/OwnableUpgradeable.sol\":3219:3249  _transferOwnership(address(0)) */\n      tag_87\n        /* \"@openzeppelin/contracts-upgradeable/access/OwnableUpgradeable.sol\":3246:3247  0 */\n      0x00\n        /* \"@openzeppelin/contracts-upgradeable/access/OwnableUpgradeable.sol\":3219:3237  _transferOwnership */\n      tag_88\n        /* \"@openzeppelin/contracts-upgradeable/access/OwnableUpgradeable.sol\":3219:3249  _transferOwnership(address(0)) */\n      jump\t// in\n    tag_87:\n        /* \"@openzeppelin/contracts-upgradeable/access/OwnableUpgradeable.sol\":3155:3256  function renounceOwnership() public virtual onlyOwner {... */\n      jump\t// out\n        /* \"@openzeppelin/contracts-upgradeable/access/OwnableUpgradeable.sol\":2441:2585  function owner() public view virtual returns (address) {... */\n    tag_40:\n        /* \"@openzeppelin/contracts-upgradeable/access/OwnableUpgradeable.sol\":2487:2494  address */\n      0x00\n        /* \"@openzeppelin/contracts-upgradeable/access/OwnableUpgradeable.sol\":2506:2530  OwnableStorage storage $ */\n      0x00\n        /* \"@openzeppelin/contracts-upgradeable/access/OwnableUpgradeable.sol\":2533:2553  _getOwnableStorage() */\n      tag_90\n        /* \"@openzeppelin/contracts-upgradeable/access/OwnableUpgradeable.sol\":2533:2551  _getOwnableStorage */\n      tag_91\n        /* \"@openzeppelin/contracts-upgradeable/access/OwnableUpgradeable.sol\":2533:2553  _getOwnableStorage() */\n      jump\t// in\n    tag_90:\n        /* \"@openzeppelin/contracts-upgradeable/access/OwnableUpgradeable.sol\":2570:2578  $._owner */\n      sload\n      sub(shl(0xa0, 0x01), 0x01)\n      and\n      swap3\n        /* \"@openzeppelin/contracts-upgradeable/access/OwnableUpgradeable.sol\":2441:2585  function owner() public view virtual returns (address) {... */\n      swap2\n      pop\n      pop\n      jump\t// out\n        /* \"contracts/RestaurantManager.sol\":2362:2606  function getRestaurantOwner(uint128 restaurantId) external view override returns (address) {... */\n    tag_49:\n      sub(shl(0x80, 0x01), 0x01)\n        /* \"contracts/RestaurantManager.sol\":2468:2493  restaurants[restaurantId] */\n      dup1\n      dup3\n      and\n        /* \"contracts/RestaurantManager.sol\":2444:2451  address */\n      0x00\n        /* \"contracts/RestaurantManager.sol\":2468:2493  restaurants[restaurantId] */\n      swap1\n      dup2\n      mstore\n        /* \"contracts/RestaurantManager.sol\":2468:2479  restaurants */\n      0x01\n        /* \"contracts/RestaurantManager.sol\":2468:2493  restaurants[restaurantId] */\n      0x20\n      mstore\n      0x40\n      dup2\n      keccak256\n        /* \"contracts/RestaurantManager.sol\":2468:2496  restaurants[restaurantId].id */\n      sload\n        /* \"contracts/RestaurantManager.sol\":2444:2451  address */\n      swap1\n      swap2\n        /* \"contracts/RestaurantManager.sol\":2468:2496  restaurants[restaurantId].id */\n      and\n        /* \"contracts/RestaurantManager.sol\":2468:2501  restaurants[restaurantId].id == 0 */\n      dup2\n      sub\n        /* \"contracts/RestaurantManager.sol\":2464:2549  if (restaurants[restaurantId].id == 0) revert RestaurantManager__RestaurantNotFound() */\n      tag_94\n      jumpi\n        /* \"contracts/RestaurantManager.sol\":2510:2549  RestaurantManager__RestaurantNotFound() */\n      mload(0x40)\n      shl(0xe0, 0x8763070b)\n      dup2\n      mstore\n      0x04\n      add\n      mload(0x40)\n      dup1\n      swap2\n      sub\n      swap1\n      revert\n        /* \"contracts/RestaurantManager.sol\":2464:2549  if (restaurants[restaurantId].id == 0) revert RestaurantManager__RestaurantNotFound() */\n    tag_94:\n      pop\n      sub(shl(0x80, 0x01), 0x01)\n        /* \"contracts/RestaurantManager.sol\":2567:2592  restaurants[restaurantId] */\n      and\n      0x00\n      swap1\n      dup2\n      mstore\n        /* \"contracts/RestaurantManager.sol\":2567:2578  restaurants */\n      0x01\n        /* \"contracts/RestaurantManager.sol\":2567:2592  restaurants[restaurantId] */\n      0x20\n      dup2\n      swap1\n      mstore\n      0x40\n      swap1\n      swap2\n      keccak256\n        /* \"contracts/RestaurantManager.sol\":2567:2598  restaurants[restaurantId].owner */\n      add\n      sload\n      sub(shl(0xa0, 0x01), 0x01)\n      and\n      swap1\n        /* \"contracts/RestaurantManager.sol\":2362:2606  function getRestaurantOwner(uint128 restaurantId) external view override returns (address) {... */\n      jump\t// out\n        /* \"contracts/RestaurantManager.sol\":1496:2201  function registerRestaurant(address restaurantActualOwner) external override onlyFoodAppContract returns (uint128) {... */\n    tag_54:\n        /* \"contracts/RestaurantManager.sol\":812:834  foodAppContractAddress */\n      sload(0x03)\n        /* \"contracts/RestaurantManager.sol\":1602:1609  uint128 */\n      0x00\n      swap1\n      sub(shl(0xa0, 0x01), 0x01)\n        /* \"contracts/RestaurantManager.sol\":812:834  foodAppContractAddress */\n      and\n        /* \"contracts/RestaurantManager.sol\":798:808  msg.sender */\n      caller\n        /* \"contracts/RestaurantManager.sol\":798:834  msg.sender != foodAppContractAddress */\n      eq\n        /* \"contracts/RestaurantManager.sol\":794:874  if (msg.sender != foodAppContractAddress) revert RestaurantManager__NotFoodApp() */\n      tag_96\n      jumpi\n        /* \"contracts/RestaurantManager.sol\":843:874  RestaurantManager__NotFoodApp() */\n      mload(0x40)\n      shl(0xe0, 0x2fa1780d)\n      dup2\n      mstore\n      0x04\n      add\n      mload(0x40)\n      dup1\n      swap2\n      sub\n      swap1\n      revert\n        /* \"contracts/RestaurantManager.sol\":794:874  if (msg.sender != foodAppContractAddress) revert RestaurantManager__NotFoodApp() */\n    tag_96:\n      sub(shl(0xa0, 0x01), 0x01)\n        /* \"contracts/RestaurantManager.sol\":1626:1661  restaurantActualOwner == address(0) */\n      dup3\n      and\n        /* \"contracts/RestaurantManager.sol\":1622:1705  if (restaurantActualOwner == address(0)) revert RestaurantManager__InvalidAddress() */\n      tag_98\n      jumpi\n        /* \"contracts/RestaurantManager.sol\":1670:1705  RestaurantManager__InvalidAddress() */\n      mload(0x40)\n      shl(0xe0, 0xbfbbae8d)\n      dup2\n      mstore\n      0x04\n      add\n      mload(0x40)\n      dup1\n      swap2\n      sub\n      swap1\n      revert\n        /* \"contracts/RestaurantManager.sol\":1622:1705  if (restaurantActualOwner == address(0)) revert RestaurantManager__InvalidAddress() */\n    tag_98:\n        /* \"contracts/RestaurantManager.sol\":1718:1738  uint128 restaurantId */\n      0x00\n        /* \"contracts/RestaurantManager.sol\":1741:1757  nextRestaurantId */\n      dup1\n      sload\n        /* \"contracts/RestaurantManager.sol\":1796:1984  Restaurant({... */\n      0x40\n      dup1\n      mload\n      0x60\n      dup2\n      add\n      dup3\n      mstore\n      sub(shl(0x80, 0x01), 0x01)\n        /* \"contracts/RestaurantManager.sol\":1741:1757  nextRestaurantId */\n      swap3\n      dup4\n      and\n        /* \"contracts/RestaurantManager.sol\":1796:1984  Restaurant({... */\n      dup1\n      dup3\n      mstore\n      sub(shl(0xa0, 0x01), 0x01)\n      dup8\n      dup2\n      and\n      0x20\n      dup1\n      dup6\n      add\n      swap2\n      dup3\n      mstore\n      dup6\n      mload\n      dup1\n      dup3\n      add\n      dup8\n      mstore\n      dup9\n      dup2\n      mstore\n      dup6\n      dup8\n      add\n      swap1\n      dup2\n      mstore\n        /* \"contracts/RestaurantManager.sol\":1768:1793  restaurants[restaurantId] */\n      dup5\n      dup10\n      mstore\n        /* \"contracts/RestaurantManager.sol\":1741:1757  nextRestaurantId */\n      0x01\n        /* \"contracts/RestaurantManager.sol\":1768:1793  restaurants[restaurantId] */\n      swap2\n      dup3\n      swap1\n      mstore\n      swap6\n      swap1\n      swap8\n      keccak256\n        /* \"contracts/RestaurantManager.sol\":1768:1984  restaurants[restaurantId] = Restaurant({... */\n      dup5\n      mload\n      dup2\n      sload\n      not(sub(shl(0x80, 0x01), 0x01))\n      and\n      swap8\n      and\n      swap7\n      swap1\n      swap7\n      or\n      dup7\n      sstore\n      mload\n      swap6\n      dup6\n      add\n      dup1\n      sload\n      not(sub(shl(0xa0, 0x01), 0x01))\n      and\n      swap7\n      swap1\n      swap2\n      and\n      swap6\n      swap1\n      swap6\n      or\n      swap1\n      swap5\n      sstore\n      swap1\n      mload\n        /* \"contracts/RestaurantManager.sol\":1796:1984  Restaurant({... */\n      swap1\n      swap2\n        /* \"contracts/RestaurantManager.sol\":1768:1793  restaurants[restaurantId] */\n      swap1\n        /* \"contracts/RestaurantManager.sol\":1768:1984  restaurants[restaurantId] = Restaurant({... */\n      0x02\n      dup3\n      add\n      swap1\n      tag_99\n      swap1\n      dup3\n      tag_100\n      jump\t// in\n    tag_99:\n      pop\n      pop\n      pop\n      sub(shl(0xa0, 0x01), 0x01)\n        /* \"contracts/RestaurantManager.sol\":1995:2036  restaurantsByOwner[restaurantActualOwner] */\n      dup4\n      and\n      0x00\n      dup2\n      dup2\n      mstore\n        /* \"contracts/RestaurantManager.sol\":1995:2013  restaurantsByOwner */\n      0x02\n        /* \"contracts/RestaurantManager.sol\":1995:2036  restaurantsByOwner[restaurantActualOwner] */\n      0x20\n      dup2\n      dup2\n      mstore\n      0x40\n      dup1\n      dup5\n      keccak256\n        /* \"contracts/RestaurantManager.sol\":1995:2055  restaurantsByOwner[restaurantActualOwner].push(restaurantId) */\n      dup1\n      sload\n      0x01\n      dup2\n      dup2\n      add\n      dup4\n      sstore\n      swap2\n      dup7\n      mstore\n      swap3\n      swap1\n      swap5\n      keccak256\n      swap3\n      dup3\n      div\n      swap1\n      swap3\n      add\n      dup1\n      sload\n      sub(shl(0x80, 0x01), 0x01)\n      dup1\n      dup9\n      and\n      0x10\n      swap5\n      swap1\n      swap7\n      and\n      swap4\n      swap1\n      swap4\n      mul\n      0x0100\n      exp\n      dup6\n      dup2\n      mul\n      swap4\n      mul\n      not\n      and\n      swap2\n      swap1\n      swap2\n      or\n      swap1\n      sstore\n        /* \"contracts/RestaurantManager.sol\":2073:2134  RestaurantRegistered(restaurantId, restaurantActualOwner, \"\") */\n      mload\n      0xf46a6bac04f25a61ebd7973da97ee1e0727e75123d284bc1e1383ae8082133b6\n      swap1\n      tag_102\n      swap1\n        /* \"#utility.yul\":5483:5485   */\n      0x20\n        /* \"#utility.yul\":5465:5486   */\n      dup1\n      dup3\n      mstore\n        /* \"#utility.yul\":5522:5523   */\n      0x00\n        /* \"#utility.yul\":5502:5520   */\n      swap1\n      dup3\n      add\n        /* \"#utility.yul\":5495:5524   */\n      mstore\n        /* \"#utility.yul\":5556:5558   */\n      0x40\n        /* \"#utility.yul\":5541:5559   */\n      add\n      swap1\n        /* \"#utility.yul\":5281:5565   */\n      jump\n        /* \"contracts/RestaurantManager.sol\":2073:2134  RestaurantRegistered(restaurantId, restaurantActualOwner, \"\") */\n    tag_102:\n      mload(0x40)\n      dup1\n      swap2\n      sub\n      swap1\n      log3\n        /* \"contracts/RestaurantManager.sol\":2145:2161  nextRestaurantId */\n      0x00\n        /* \"contracts/RestaurantManager.sol\":2145:2163  nextRestaurantId++ */\n      dup1\n      sload\n      sub(shl(0x80, 0x01), 0x01)\n      and\n      swap1\n        /* \"contracts/RestaurantManager.sol\":2145:2161  nextRestaurantId */\n      dup1\n        /* \"contracts/RestaurantManager.sol\":2145:2163  nextRestaurantId++ */\n      tag_104\n      dup4\n      tag_105\n      jump\t// in\n    tag_104:\n      swap2\n      swap1\n      0x0100\n      exp\n      dup2\n      sload\n      dup2\n      sub(shl(0x80, 0x01), 0x01)\n      mul\n      not\n      and\n      swap1\n      dup4\n      sub(shl(0x80, 0x01), 0x01)\n      and\n      mul\n      or\n      swap1\n      sstore\n      pop\n      pop\n        /* \"contracts/RestaurantManager.sol\":2181:2193  restaurantId */\n      dup1\n        /* \"contracts/RestaurantManager.sol\":2174:2193  return restaurantId */\n      swap2\n      pop\n      pop\n        /* \"contracts/RestaurantManager.sol\":885:886  _ */\n    tag_97:\n        /* \"contracts/RestaurantManager.sol\":1496:2201  function registerRestaurant(address restaurantActualOwner) external override onlyFoodAppContract returns (uint128) {... */\n      swap2\n      swap1\n      pop\n      jump\t// out\n        /* \"@openzeppelin/contracts-upgradeable/access/OwnableUpgradeable.sol\":3405:3620  function transferOwnership(address newOwner) public virtual onlyOwner {... */\n    tag_58:\n        /* \"@openzeppelin/contracts-upgradeable/access/OwnableUpgradeable.sol\":2334:2347  _checkOwner() */\n      tag_107\n        /* \"@openzeppelin/contracts-upgradeable/access/OwnableUpgradeable.sol\":2334:2345  _checkOwner */\n      tag_85\n        /* \"@openzeppelin/contracts-upgradeable/access/OwnableUpgradeable.sol\":2334:2347  _checkOwner() */\n      jump\t// in\n    tag_107:\n      sub(shl(0xa0, 0x01), 0x01)\n        /* \"@openzeppelin/contracts-upgradeable/access/OwnableUpgradeable.sol\":3489:3511  newOwner == address(0) */\n      dup2\n      and\n        /* \"@openzeppelin/contracts-upgradeable/access/OwnableUpgradeable.sol\":3485:3576  if (newOwner == address(0)) {... */\n      tag_109\n      jumpi\n        /* \"@openzeppelin/contracts-upgradeable/access/OwnableUpgradeable.sol\":3562:3563  0 */\n      0x00\n        /* \"@openzeppelin/contracts-upgradeable/access/OwnableUpgradeable.sol\":3534:3565  OwnableInvalidOwner(address(0)) */\n      mload(0x40)\n      shl(0xe0, 0x1e4fbdf7)\n      dup2\n      mstore\n      0x04\n      add\n      tag_110\n      swap2\n      swap1\n      tag_38\n      jump\t// in\n    tag_110:\n      mload(0x40)\n      dup1\n      swap2\n      sub\n      swap1\n      revert\n        /* \"@openzeppelin/contracts-upgradeable/access/OwnableUpgradeable.sol\":3485:3576  if (newOwner == address(0)) {... */\n    tag_109:\n        /* \"@openzeppelin/contracts-upgradeable/access/OwnableUpgradeable.sol\":3585:3613  _transferOwnership(newOwner) */\n      tag_111\n        /* \"@openzeppelin/contracts-upgradeable/access/OwnableUpgradeable.sol\":3604:3612  newOwner */\n      dup2\n        /* \"@openzeppelin/contracts-upgradeable/access/OwnableUpgradeable.sol\":3585:3603  _transferOwnership */\n      tag_88\n        /* \"@openzeppelin/contracts-upgradeable/access/OwnableUpgradeable.sol\":3585:3613  _transferOwnership(newOwner) */\n      jump\t// in\n    tag_111:\n        /* \"@openzeppelin/contracts-upgradeable/access/OwnableUpgradeable.sol\":3405:3620  function transferOwnership(address newOwner) public virtual onlyOwner {... */\n      pop\n      jump\t// out\n        /* \"@openzeppelin/contracts-upgradeable/proxy/utils/Initializable.sol\":9071:9276  function _getInitializableStorage() private pure returns (InitializableStorage storage $) {... */\n    tag_69:\n        /* \"@openzeppelin/contracts-upgradeable/proxy/utils/Initializable.sol\":3147:3213  0xf0c57e16840df040f15088dc2f81fe391c3923bec73e23a9662efc9c229c6a00 */\n      0xf0c57e16840df040f15088dc2f81fe391c3923bec73e23a9662efc9c229c6a00\n      swap1\n        /* \"@openzeppelin/contracts-upgradeable/proxy/utils/Initializable.sol\":9071:9276  function _getInitializableStorage() private pure returns (InitializableStorage storage $) {... */\n      jump\t// out\n        /* \"@openzeppelin/contracts-upgradeable/access/OwnableUpgradeable.sol\":1847:1974  function __Ownable_init(address initialOwner) internal onlyInitializing {... */\n    tag_79:\n        /* \"@openzeppelin/contracts-upgradeable/proxy/utils/Initializable.sol\":6929:6949  _checkInitializing() */\n      tag_116\n        /* \"@openzeppelin/contracts-upgradeable/proxy/utils/Initializable.sol\":6929:6947  _checkInitializing */\n      tag_117\n        /* \"@openzeppelin/contracts-upgradeable/proxy/utils/Initializable.sol\":6929:6949  _checkInitializing() */\n      jump\t// in\n    tag_116:\n        /* \"@openzeppelin/contracts-upgradeable/access/OwnableUpgradeable.sol\":1929:1967  __Ownable_init_unchained(initialOwner) */\n      tag_111\n        /* \"@openzeppelin/contracts-upgradeable/access/OwnableUpgradeable.sol\":1954:1966  initialOwner */\n      dup2\n        /* \"@openzeppelin/contracts-upgradeable/access/OwnableUpgradeable.sol\":1929:1953  __Ownable_init_unchained */\n      tag_120\n        /* \"@openzeppelin/contracts-upgradeable/access/OwnableUpgradeable.sol\":1929:1967  __Ownable_init_unchained(initialOwner) */\n      jump\t// in\n        /* \"@openzeppelin/contracts-upgradeable/access/OwnableUpgradeable.sol\":2658:2820  function _checkOwner() internal view virtual {... */\n    tag_85:\n        /* \"@openzeppelin/contracts-upgradeable/utils/ContextUpgradeable.sol\":966:976  msg.sender */\n      caller\n        /* \"@openzeppelin/contracts-upgradeable/access/OwnableUpgradeable.sol\":2717:2724  owner() */\n      tag_124\n        /* \"@openzeppelin/contracts-upgradeable/access/OwnableUpgradeable.sol\":2717:2722  owner */\n      tag_40\n        /* \"@openzeppelin/contracts-upgradeable/access/OwnableUpgradeable.sol\":2717:2724  owner() */\n      jump\t// in\n    tag_124:\n      sub(shl(0xa0, 0x01), 0x01)\n        /* \"@openzeppelin/contracts-upgradeable/access/OwnableUpgradeable.sol\":2717:2740  owner() != _msgSender() */\n      and\n      eq\n        /* \"@openzeppelin/contracts-upgradeable/access/OwnableUpgradeable.sol\":2713:2814  if (owner() != _msgSender()) {... */\n      tag_87\n      jumpi\n        /* \"@openzeppelin/contracts-upgradeable/utils/ContextUpgradeable.sol\":966:976  msg.sender */\n      caller\n        /* \"@openzeppelin/contracts-upgradeable/access/OwnableUpgradeable.sol\":2763:2803  OwnableUnauthorizedAccount(_msgSender()) */\n      mload(0x40)\n      shl(0xe0, 0x118cdaa7)\n      dup2\n      mstore\n      0x04\n      add\n      tag_110\n      swap2\n      swap1\n      tag_38\n      jump\t// in\n        /* \"@openzeppelin/contracts-upgradeable/access/OwnableUpgradeable.sol\":3774:4022  function _transferOwnership(address newOwner) internal virtual {... */\n    tag_88:\n        /* \"@openzeppelin/contracts-upgradeable/access/OwnableUpgradeable.sol\":3847:3871  OwnableStorage storage $ */\n      0x00\n        /* \"@openzeppelin/contracts-upgradeable/access/OwnableUpgradeable.sol\":3874:3894  _getOwnableStorage() */\n      tag_129\n        /* \"@openzeppelin/contracts-upgradeable/access/OwnableUpgradeable.sol\":3874:3892  _getOwnableStorage */\n      tag_91\n        /* \"@openzeppelin/contracts-upgradeable/access/OwnableUpgradeable.sol\":3874:3894  _getOwnableStorage() */\n      jump\t// in\n    tag_129:\n        /* \"@openzeppelin/contracts-upgradeable/access/OwnableUpgradeable.sol\":3923:3931  $._owner */\n      dup1\n      sload\n      sub(shl(0xa0, 0x01), 0x01)\n        /* \"@openzeppelin/contracts-upgradeable/access/OwnableUpgradeable.sol\":3941:3960  $._owner = newOwner */\n      dup5\n      dup2\n      and\n      not(sub(shl(0xa0, 0x01), 0x01))\n      dup4\n      and\n      dup2\n      or\n      dup5\n      sstore\n        /* \"@openzeppelin/contracts-upgradeable/access/OwnableUpgradeable.sol\":3975:4015  OwnershipTransferred(oldOwner, newOwner) */\n      mload(0x40)\n        /* \"@openzeppelin/contracts-upgradeable/access/OwnableUpgradeable.sol\":3847:3894  OwnableStorage storage $ = _getOwnableStorage() */\n      swap4\n      swap5\n      pop\n        /* \"@openzeppelin/contracts-upgradeable/access/OwnableUpgradeable.sol\":3923:3931  $._owner */\n      swap2\n      and\n      swap2\n      dup3\n      swap1\n        /* \"@openzeppelin/contracts-upgradeable/access/OwnableUpgradeable.sol\":3975:4015  OwnershipTransferred(oldOwner, newOwner) */\n      0x8be0079c531659141344cd1fd0a4f28419497f9722a3daafe3b4186f6b6457e0\n      swap1\n        /* \"@openzeppelin/contracts-upgradeable/access/OwnableUpgradeable.sol\":3904:3920  address oldOwner */\n      0x00\n      swap1\n        /* \"@openzeppelin/contracts-upgradeable/access/OwnableUpgradeable.sol\":3975:4015  OwnershipTransferred(oldOwner, newOwner) */\n      log3\n        /* \"@openzeppelin/contracts-upgradeable/access/OwnableUpgradeable.sol\":3837:4022  {... */\n      pop\n      pop\n        /* \"@openzeppelin/contracts-upgradeable/access/OwnableUpgradeable.sol\":3774:4022  function _transferOwnership(address newOwner) internal virtual {... */\n      pop\n      jump\t// out\n        /* \"@openzeppelin/contracts-upgradeable/access/OwnableUpgradeable.sol\":1192:1351  function _getOwnableStorage() private pure returns (OwnableStorage storage $) {... */\n    tag_91:\n        /* \"@openzeppelin/contracts-upgradeable/access/OwnableUpgradeable.sol\":1313:1335  OwnableStorageLocation */\n      0x9016d09d72d40fdae2fd8ceac6b6234c7706214fd39c1cd1e609a0528c199300\n      swap1\n        /* \"@openzeppelin/contracts-upgradeable/access/OwnableUpgradeable.sol\":1192:1351  function _getOwnableStorage() private pure returns (OwnableStorage storage $) {... */\n      jump\t// out\n        /* \"@openzeppelin/contracts-upgradeable/proxy/utils/Initializable.sol\":7082:7223  function _checkInitializing() internal view virtual {... */\n    tag_117:\n        /* \"@openzeppelin/contracts-upgradeable/proxy/utils/Initializable.sol\":7149:7166  _isInitializing() */\n      tag_133\n        /* \"@openzeppelin/contracts-upgradeable/proxy/utils/Initializable.sol\":7149:7164  _isInitializing */\n      tag_134\n        /* \"@openzeppelin/contracts-upgradeable/proxy/utils/Initializable.sol\":7149:7166  _isInitializing() */\n      jump\t// in\n    tag_133:\n        /* \"@openzeppelin/contracts-upgradeable/proxy/utils/Initializable.sol\":7144:7217  if (!_isInitializing()) {... */\n      tag_87\n      jumpi\n        /* \"@openzeppelin/contracts-upgradeable/proxy/utils/Initializable.sol\":7189:7206  NotInitializing() */\n      mload(0x40)\n      shl(0xe3, 0x1afcd79f)\n      dup2\n      mstore\n      0x04\n      add\n      mload(0x40)\n      dup1\n      swap2\n      sub\n      swap1\n      revert\n        /* \"@openzeppelin/contracts-upgradeable/access/OwnableUpgradeable.sol\":1980:2215  function __Ownable_init_unchained(address initialOwner) internal onlyInitializing {... */\n    tag_120:\n        /* \"@openzeppelin/contracts-upgradeable/proxy/utils/Initializable.sol\":6929:6949  _checkInitializing() */\n      tag_107\n        /* \"@openzeppelin/contracts-upgradeable/proxy/utils/Initializable.sol\":6929:6947  _checkInitializing */\n      tag_117\n        /* \"@openzeppelin/contracts-upgradeable/proxy/utils/Initializable.sol\":6929:6949  _checkInitializing() */\n      jump\t// in\n        /* \"@openzeppelin/contracts-upgradeable/proxy/utils/Initializable.sol\":8485:8605  function _isInitializing() internal view returns (bool) {... */\n    tag_134:\n        /* \"@openzeppelin/contracts-upgradeable/proxy/utils/Initializable.sol\":8535:8539  bool */\n      0x00\n        /* \"@openzeppelin/contracts-upgradeable/proxy/utils/Initializable.sol\":8558:8584  _getInitializableStorage() */\n      tag_144\n        /* \"@openzeppelin/contracts-upgradeable/proxy/utils/Initializable.sol\":8558:8582  _getInitializableStorage */\n      tag_69\n        /* \"@openzeppelin/contracts-upgradeable/proxy/utils/Initializable.sol\":8558:8584  _getInitializableStorage() */\n      jump\t// in\n    tag_144:\n        /* \"@openzeppelin/contracts-upgradeable/proxy/utils/Initializable.sol\":8558:8598  _getInitializableStorage()._initializing */\n      sload\n      shl(0x40, 0x01)\n      swap1\n      div\n      0xff\n      and\n      swap2\n      swap1\n      pop\n        /* \"@openzeppelin/contracts-upgradeable/proxy/utils/Initializable.sol\":8485:8605  function _isInitializing() internal view returns (bool) {... */\n      jump\t// out\n        /* \"#utility.yul\":14:300   */\n    tag_16:\n        /* \"#utility.yul\":73:79   */\n      0x00\n        /* \"#utility.yul\":126:128   */\n      0x20\n        /* \"#utility.yul\":114:123   */\n      dup3\n        /* \"#utility.yul\":105:112   */\n      dup5\n        /* \"#utility.yul\":101:124   */\n      sub\n        /* \"#utility.yul\":97:129   */\n      slt\n        /* \"#utility.yul\":94:146   */\n      iszero\n      tag_152\n      jumpi\n        /* \"#utility.yul\":142:143   */\n      0x00\n        /* \"#utility.yul\":139:140   */\n      0x00\n        /* \"#utility.yul\":132:144   */\n      revert\n        /* \"#utility.yul\":94:146   */\n    tag_152:\n        /* \"#utility.yul\":168:191   */\n      dup2\n      calldataload\n      sub(shl(0x80, 0x01), 0x01)\n        /* \"#utility.yul\":220:251   */\n      dup2\n      and\n        /* \"#utility.yul\":210:252   */\n      dup2\n      eq\n        /* \"#utility.yul\":200:270   */\n      tag_153\n      jumpi\n        /* \"#utility.yul\":266:267   */\n      0x00\n        /* \"#utility.yul\":263:264   */\n      0x00\n        /* \"#utility.yul\":256:268   */\n      revert\n        /* \"#utility.yul\":200:270   */\n    tag_153:\n        /* \"#utility.yul\":289:294   */\n      swap4\n        /* \"#utility.yul\":14:300   */\n      swap3\n      pop\n      pop\n      pop\n      jump\t// out\n        /* \"#utility.yul\":305:920   */\n    tag_19:\n        /* \"#utility.yul\":539:540   */\n      0x01\n        /* \"#utility.yul\":535:536   */\n      dup1\n        /* \"#utility.yul\":530:533   */\n      0x80\n        /* \"#utility.yul\":526:537   */\n      shl\n        /* \"#utility.yul\":522:541   */\n      sub\n        /* \"#utility.yul\":514:520   */\n      dup5\n        /* \"#utility.yul\":510:542   */\n      and\n        /* \"#utility.yul\":499:508   */\n      dup2\n        /* \"#utility.yul\":492:543   */\n      mstore\n        /* \"#utility.yul\":608:609   */\n      0x01\n        /* \"#utility.yul\":604:605   */\n      dup1\n        /* \"#utility.yul\":599:602   */\n      0xa0\n        /* \"#utility.yul\":595:606   */\n      shl\n        /* \"#utility.yul\":591:610   */\n      sub\n        /* \"#utility.yul\":583:589   */\n      dup4\n        /* \"#utility.yul\":579:611   */\n      and\n        /* \"#utility.yul\":574:576   */\n      0x20\n        /* \"#utility.yul\":563:572   */\n      dup3\n        /* \"#utility.yul\":559:577   */\n      add\n        /* \"#utility.yul\":552:612   */\n      mstore\n        /* \"#utility.yul\":648:650   */\n      0x60\n        /* \"#utility.yul\":643:645   */\n      0x40\n        /* \"#utility.yul\":632:641   */\n      dup3\n        /* \"#utility.yul\":628:646   */\n      add\n        /* \"#utility.yul\":621:651   */\n      mstore\n        /* \"#utility.yul\":473:477   */\n      0x00\n        /* \"#utility.yul\":680:686   */\n      dup3\n        /* \"#utility.yul\":674:687   */\n      mload\n        /* \"#utility.yul\":723:729   */\n      dup1\n        /* \"#utility.yul\":718:720   */\n      0x60\n        /* \"#utility.yul\":707:716   */\n      dup5\n        /* \"#utility.yul\":703:721   */\n      add\n        /* \"#utility.yul\":696:730   */\n      mstore\n        /* \"#utility.yul\":783:789   */\n      dup1\n        /* \"#utility.yul\":778:780   */\n      0x20\n        /* \"#utility.yul\":770:776   */\n      dup6\n        /* \"#utility.yul\":766:781   */\n      add\n        /* \"#utility.yul\":760:763   */\n      0x80\n        /* \"#utility.yul\":749:758   */\n      dup6\n        /* \"#utility.yul\":745:764   */\n      add\n        /* \"#utility.yul\":739:790   */\n      mcopy\n        /* \"#utility.yul\":840:841   */\n      0x00\n        /* \"#utility.yul\":834:837   */\n      0x80\n        /* \"#utility.yul\":825:831   */\n      dup3\n        /* \"#utility.yul\":814:823   */\n      dup6\n        /* \"#utility.yul\":810:832   */\n      add\n        /* \"#utility.yul\":806:838   */\n      add\n        /* \"#utility.yul\":799:842   */\n      mstore\n        /* \"#utility.yul\":910:913   */\n      0x80\n        /* \"#utility.yul\":903:905   */\n      0x1f\n        /* \"#utility.yul\":899:906   */\n      not\n        /* \"#utility.yul\":894:896   */\n      0x1f\n        /* \"#utility.yul\":886:892   */\n      dup4\n        /* \"#utility.yul\":882:897   */\n      add\n        /* \"#utility.yul\":878:907   */\n      and\n        /* \"#utility.yul\":867:876   */\n      dup5\n        /* \"#utility.yul\":863:908   */\n      add\n        /* \"#utility.yul\":859:914   */\n      add\n        /* \"#utility.yul\":851:914   */\n      swap2\n      pop\n      pop\n        /* \"#utility.yul\":305:920   */\n      swap5\n      swap4\n      pop\n      pop\n      pop\n      pop\n      jump\t// out\n        /* \"#utility.yul\":925:1098   */\n    tag_145:\n        /* \"#utility.yul\":993:1013   */\n      dup1\n      calldataload\n      sub(shl(0xa0, 0x01), 0x01)\n        /* \"#utility.yul\":1042:1073   */\n      dup2\n      and\n        /* \"#utility.yul\":1032:1074   */\n      dup2\n      eq\n        /* \"#utility.yul\":1022:1092   */\n      tag_97\n      jumpi\n        /* \"#utility.yul\":1088:1089   */\n      0x00\n        /* \"#utility.yul\":1085:1086   */\n      0x00\n        /* \"#utility.yul\":1078:1090   */\n      revert\n        /* \"#utility.yul\":1103:1357   */\n    tag_22:\n        /* \"#utility.yul\":1171:1177   */\n      0x00\n        /* \"#utility.yul\":1179:1185   */\n      0x00\n        /* \"#utility.yul\":1232:1234   */\n      0x40\n        /* \"#utility.yul\":1220:1229   */\n      dup4\n        /* \"#utility.yul\":1211:1218   */\n      dup6\n        /* \"#utility.yul\":1207:1230   */\n      sub\n        /* \"#utility.yul\":1203:1235   */\n      slt\n        /* \"#utility.yul\":1200:1252   */\n      iszero\n      tag_158\n      jumpi\n        /* \"#utility.yul\":1248:1249   */\n      0x00\n        /* \"#utility.yul\":1245:1246   */\n      0x00\n        /* \"#utility.yul\":1238:1250   */\n      revert\n        /* \"#utility.yul\":1200:1252   */\n    tag_158:\n        /* \"#utility.yul\":1271:1300   */\n      tag_159\n        /* \"#utility.yul\":1290:1299   */\n      dup4\n        /* \"#utility.yul\":1271:1300   */\n      tag_145\n      jump\t// in\n    tag_159:\n        /* \"#utility.yul\":1261:1300   */\n      swap5\n        /* \"#utility.yul\":1347:1349   */\n      0x20\n        /* \"#utility.yul\":1332:1350   */\n      swap4\n      swap1\n      swap4\n      add\n        /* \"#utility.yul\":1319:1351   */\n      calldataload\n      swap4\n      pop\n      pop\n      pop\n        /* \"#utility.yul\":1103:1357   */\n      jump\t// out\n        /* \"#utility.yul\":1570:1830   */\n    tag_31:\n        /* \"#utility.yul\":1638:1644   */\n      0x00\n        /* \"#utility.yul\":1646:1652   */\n      0x00\n        /* \"#utility.yul\":1699:1701   */\n      0x40\n        /* \"#utility.yul\":1687:1696   */\n      dup4\n        /* \"#utility.yul\":1678:1685   */\n      dup6\n        /* \"#utility.yul\":1674:1697   */\n      sub\n        /* \"#utility.yul\":1670:1702   */\n      slt\n        /* \"#utility.yul\":1667:1719   */\n      iszero\n      tag_162\n      jumpi\n        /* \"#utility.yul\":1715:1716   */\n      0x00\n        /* \"#utility.yul\":1712:1713   */\n      0x00\n        /* \"#utility.yul\":1705:1717   */\n      revert\n        /* \"#utility.yul\":1667:1719   */\n    tag_162:\n        /* \"#utility.yul\":1738:1767   */\n      tag_163\n        /* \"#utility.yul\":1757:1766   */\n      dup4\n        /* \"#utility.yul\":1738:1767   */\n      tag_145\n      jump\t// in\n    tag_163:\n        /* \"#utility.yul\":1728:1767   */\n      swap2\n      pop\n        /* \"#utility.yul\":1786:1824   */\n      tag_164\n        /* \"#utility.yul\":1820:1822   */\n      0x20\n        /* \"#utility.yul\":1809:1818   */\n      dup5\n        /* \"#utility.yul\":1805:1823   */\n      add\n        /* \"#utility.yul\":1786:1824   */\n      tag_145\n      jump\t// in\n    tag_164:\n        /* \"#utility.yul\":1776:1824   */\n      swap1\n      pop\n        /* \"#utility.yul\":1570:1830   */\n      swap3\n      pop\n      swap3\n      swap1\n      pop\n      jump\t// out\n        /* \"#utility.yul\":1835:2038   */\n    tag_38:\n      sub(shl(0xa0, 0x01), 0x01)\n        /* \"#utility.yul\":1999:2031   */\n      swap2\n      swap1\n      swap2\n      and\n        /* \"#utility.yul\":1981:2032   */\n      dup2\n      mstore\n        /* \"#utility.yul\":1969:1971   */\n      0x20\n        /* \"#utility.yul\":1954:1972   */\n      add\n      swap1\n        /* \"#utility.yul\":1835:2038   */\n      jump\t// out\n        /* \"#utility.yul\":2235:2421   */\n    tag_53:\n        /* \"#utility.yul\":2294:2300   */\n      0x00\n        /* \"#utility.yul\":2347:2349   */\n      0x20\n        /* \"#utility.yul\":2335:2344   */\n      dup3\n        /* \"#utility.yul\":2326:2333   */\n      dup5\n        /* \"#utility.yul\":2322:2345   */\n      sub\n        /* \"#utility.yul\":2318:2350   */\n      slt\n        /* \"#utility.yul\":2315:2367   */\n      iszero\n      tag_168\n      jumpi\n        /* \"#utility.yul\":2363:2364   */\n      0x00\n        /* \"#utility.yul\":2360:2361   */\n      0x00\n        /* \"#utility.yul\":2353:2365   */\n      revert\n        /* \"#utility.yul\":2315:2367   */\n    tag_168:\n        /* \"#utility.yul\":2386:2415   */\n      tag_153\n        /* \"#utility.yul\":2405:2414   */\n      dup3\n        /* \"#utility.yul\":2386:2415   */\n      tag_145\n      jump\t// in\n        /* \"#utility.yul\":2426:2806   */\n    tag_60:\n        /* \"#utility.yul\":2505:2506   */\n      0x01\n        /* \"#utility.yul\":2501:2513   */\n      dup2\n      dup2\n      shr\n      swap1\n        /* \"#utility.yul\":2548:2560   */\n      dup3\n      and\n      dup1\n        /* \"#utility.yul\":2569:2630   */\n      tag_171\n      jumpi\n        /* \"#utility.yul\":2623:2627   */\n      0x7f\n        /* \"#utility.yul\":2615:2621   */\n      dup3\n        /* \"#utility.yul\":2611:2628   */\n      and\n        /* \"#utility.yul\":2601:2628   */\n      swap2\n      pop\n        /* \"#utility.yul\":2569:2630   */\n    tag_171:\n        /* \"#utility.yul\":2676:2678   */\n      0x20\n        /* \"#utility.yul\":2668:2674   */\n      dup3\n        /* \"#utility.yul\":2665:2679   */\n      lt\n        /* \"#utility.yul\":2645:2663   */\n      dup2\n        /* \"#utility.yul\":2642:2680   */\n      sub\n        /* \"#utility.yul\":2639:2800   */\n      tag_172\n      jumpi\n        /* \"#utility.yul\":2722:2732   */\n      0x4e487b71\n        /* \"#utility.yul\":2717:2720   */\n      0xe0\n        /* \"#utility.yul\":2713:2733   */\n      shl\n        /* \"#utility.yul\":2710:2711   */\n      0x00\n        /* \"#utility.yul\":2703:2734   */\n      mstore\n        /* \"#utility.yul\":2757:2761   */\n      0x22\n        /* \"#utility.yul\":2754:2755   */\n      0x04\n        /* \"#utility.yul\":2747:2762   */\n      mstore\n        /* \"#utility.yul\":2785:2789   */\n      0x24\n        /* \"#utility.yul\":2782:2783   */\n      0x00\n        /* \"#utility.yul\":2775:2790   */\n      revert\n        /* \"#utility.yul\":2639:2800   */\n    tag_172:\n      pop\n        /* \"#utility.yul\":2426:2806   */\n      swap2\n      swap1\n      pop\n      jump\t// out\n        /* \"#utility.yul\":3025:3152   */\n    tag_146:\n        /* \"#utility.yul\":3086:3096   */\n      0x4e487b71\n        /* \"#utility.yul\":3081:3084   */\n      0xe0\n        /* \"#utility.yul\":3077:3097   */\n      shl\n        /* \"#utility.yul\":3074:3075   */\n      0x00\n        /* \"#utility.yul\":3067:3098   */\n      mstore\n        /* \"#utility.yul\":3117:3121   */\n      0x41\n        /* \"#utility.yul\":3114:3115   */\n      0x04\n        /* \"#utility.yul\":3107:3122   */\n      mstore\n        /* \"#utility.yul\":3141:3145   */\n      0x24\n        /* \"#utility.yul\":3138:3139   */\n      0x00\n        /* \"#utility.yul\":3131:3146   */\n      revert\n        /* \"#utility.yul\":3283:3801   */\n    tag_148:\n        /* \"#utility.yul\":3385:3387   */\n      0x1f\n        /* \"#utility.yul\":3380:3383   */\n      dup3\n        /* \"#utility.yul\":3377:3388   */\n      gt\n        /* \"#utility.yul\":3374:3795   */\n      iszero\n      tag_177\n      jumpi\n        /* \"#utility.yul\":3421:3426   */\n      dup1\n        /* \"#utility.yul\":3418:3419   */\n      0x00\n        /* \"#utility.yul\":3411:3427   */\n      mstore\n        /* \"#utility.yul\":3465:3469   */\n      0x20\n        /* \"#utility.yul\":3462:3463   */\n      0x00\n        /* \"#utility.yul\":3452:3470   */\n      keccak256\n        /* \"#utility.yul\":3535:3537   */\n      0x1f\n        /* \"#utility.yul\":3523:3533   */\n      dup5\n        /* \"#utility.yul\":3519:3538   */\n      add\n        /* \"#utility.yul\":3516:3517   */\n      0x05\n        /* \"#utility.yul\":3512:3539   */\n      shr\n        /* \"#utility.yul\":3506:3510   */\n      dup2\n        /* \"#utility.yul\":3502:3540   */\n      add\n        /* \"#utility.yul\":3571:3575   */\n      0x20\n        /* \"#utility.yul\":3559:3569   */\n      dup6\n        /* \"#utility.yul\":3556:3576   */\n      lt\n        /* \"#utility.yul\":3553:3600   */\n      iszero\n      tag_178\n      jumpi\n      pop\n        /* \"#utility.yul\":3594:3598   */\n      dup1\n        /* \"#utility.yul\":3553:3600   */\n    tag_178:\n        /* \"#utility.yul\":3649:3651   */\n      0x1f\n        /* \"#utility.yul\":3644:3647   */\n      dup5\n        /* \"#utility.yul\":3640:3652   */\n      add\n        /* \"#utility.yul\":3637:3638   */\n      0x05\n        /* \"#utility.yul\":3633:3653   */\n      shr\n        /* \"#utility.yul\":3627:3631   */\n      dup3\n        /* \"#utility.yul\":3623:3654   */\n      add\n        /* \"#utility.yul\":3613:3654   */\n      swap2\n      pop\n        /* \"#utility.yul\":3704:3785   */\n    tag_179:\n        /* \"#utility.yul\":3722:3724   */\n      dup2\n        /* \"#utility.yul\":3715:3720   */\n      dup2\n        /* \"#utility.yul\":3712:3725   */\n      lt\n        /* \"#utility.yul\":3704:3785   */\n      iszero\n      tag_181\n      jumpi\n        /* \"#utility.yul\":3781:3782   */\n      0x00\n        /* \"#utility.yul\":3767:3783   */\n      dup2\n      sstore\n        /* \"#utility.yul\":3748:3749   */\n      0x01\n        /* \"#utility.yul\":3737:3750   */\n      add\n        /* \"#utility.yul\":3704:3785   */\n      jump(tag_179)\n    tag_181:\n        /* \"#utility.yul\":3708:3711   */\n      pop\n      pop\n        /* \"#utility.yul\":3374:3795   */\n    tag_177:\n        /* \"#utility.yul\":3283:3801   */\n      pop\n      pop\n      pop\n      jump\t// out\n        /* \"#utility.yul\":3977:5276   */\n    tag_100:\n        /* \"#utility.yul\":4097:4107   */\n      dup2\n      mload\n      sub(shl(0x40, 0x01), 0x01)\n        /* \"#utility.yul\":4119:4149   */\n      dup2\n      gt\n        /* \"#utility.yul\":4116:4172   */\n      iszero\n      tag_185\n      jumpi\n        /* \"#utility.yul\":4152:4170   */\n      tag_185\n      tag_146\n      jump\t// in\n    tag_185:\n        /* \"#utility.yul\":4181:4278   */\n      tag_186\n        /* \"#utility.yul\":4271:4277   */\n      dup2\n        /* \"#utility.yul\":4231:4269   */\n      tag_187\n        /* \"#utility.yul\":4263:4267   */\n      dup5\n        /* \"#utility.yul\":4257:4268   */\n      sload\n        /* \"#utility.yul\":4231:4269   */\n      tag_60\n      jump\t// in\n    tag_187:\n        /* \"#utility.yul\":4225:4229   */\n      dup5\n        /* \"#utility.yul\":4181:4278   */\n      tag_148\n      jump\t// in\n    tag_186:\n        /* \"#utility.yul\":4327:4331   */\n      0x20\n        /* \"#utility.yul\":4358:4360   */\n      0x1f\n        /* \"#utility.yul\":4347:4361   */\n      dup3\n      gt\n        /* \"#utility.yul\":4375:4376   */\n      0x01\n        /* \"#utility.yul\":4370:5019   */\n      dup2\n      eq\n      tag_189\n      jumpi\n        /* \"#utility.yul\":5063:5064   */\n      0x00\n        /* \"#utility.yul\":5080:5086   */\n      dup4\n        /* \"#utility.yul\":5077:5166   */\n      iszero\n      tag_190\n      jumpi\n      pop\n        /* \"#utility.yul\":5132:5151   */\n      dup5\n      dup3\n      add\n        /* \"#utility.yul\":5126:5152   */\n      mload\n        /* \"#utility.yul\":5077:5166   */\n    tag_190:\n      not(0x00)\n        /* \"#utility.yul\":3934:3935   */\n      0x03\n        /* \"#utility.yul\":3930:3941   */\n      dup6\n      swap1\n      shl\n        /* \"#utility.yul\":3926:3950   */\n      shr\n        /* \"#utility.yul\":3922:3951   */\n      not\n        /* \"#utility.yul\":3912:3952   */\n      and\n        /* \"#utility.yul\":3958:3959   */\n      0x01\n        /* \"#utility.yul\":3954:3965   */\n      dup5\n      swap1\n      shl\n        /* \"#utility.yul\":3909:3966   */\n      or\n        /* \"#utility.yul\":5179:5260   */\n      dup5\n      sstore\n        /* \"#utility.yul\":4340:5270   */\n      jump(tag_181)\n        /* \"#utility.yul\":4370:5019   */\n    tag_189:\n        /* \"#utility.yul\":3230:3231   */\n      0x00\n        /* \"#utility.yul\":3223:3237   */\n      dup5\n      dup2\n      mstore\n        /* \"#utility.yul\":3267:3271   */\n      0x20\n        /* \"#utility.yul\":3254:3272   */\n      dup2\n      keccak256\n      not(0x1f)\n        /* \"#utility.yul\":4406:4426   */\n      dup6\n      and\n      swap2\n        /* \"#utility.yul\":4524:4746   */\n    tag_193:\n        /* \"#utility.yul\":4538:4545   */\n      dup3\n        /* \"#utility.yul\":4535:4536   */\n      dup2\n        /* \"#utility.yul\":4532:4546   */\n      lt\n        /* \"#utility.yul\":4524:4746   */\n      iszero\n      tag_195\n      jumpi\n        /* \"#utility.yul\":4620:4639   */\n      dup8\n      dup6\n      add\n        /* \"#utility.yul\":4614:4640   */\n      mload\n        /* \"#utility.yul\":4599:4641   */\n      dup3\n      sstore\n        /* \"#utility.yul\":4727:4731   */\n      0x20\n        /* \"#utility.yul\":4712:4732   */\n      swap5\n      dup6\n      add\n      swap5\n        /* \"#utility.yul\":4680:4681   */\n      0x01\n        /* \"#utility.yul\":4668:4682   */\n      swap1\n      swap3\n      add\n      swap2\n        /* \"#utility.yul\":4554:4566   */\n      add\n        /* \"#utility.yul\":4524:4746   */\n      jump(tag_193)\n    tag_195:\n        /* \"#utility.yul\":4528:4531   */\n      pop\n        /* \"#utility.yul\":4774:4780   */\n      dup5\n        /* \"#utility.yul\":4765:4772   */\n      dup3\n        /* \"#utility.yul\":4762:4781   */\n      lt\n        /* \"#utility.yul\":4759:4960   */\n      iszero\n      tag_196\n      jumpi\n        /* \"#utility.yul\":4835:4854   */\n      dup7\n      dup5\n      add\n        /* \"#utility.yul\":4829:4855   */\n      mload\n      not(0x00)\n        /* \"#utility.yul\":4918:4919   */\n      0x03\n        /* \"#utility.yul\":4914:4928   */\n      dup8\n      swap1\n      shl\n        /* \"#utility.yul\":4930:4933   */\n      0xf8\n        /* \"#utility.yul\":4910:4934   */\n      and\n        /* \"#utility.yul\":4906:4943   */\n      shr\n        /* \"#utility.yul\":4902:4944   */\n      not\n        /* \"#utility.yul\":4887:4945   */\n      and\n        /* \"#utility.yul\":4872:4946   */\n      dup2\n      sstore\n        /* \"#utility.yul\":4759:4960   */\n    tag_196:\n      pop\n      pop\n      pop\n      pop\n        /* \"#utility.yul\":5006:5007   */\n      0x01\n        /* \"#utility.yul\":4990:5004   */\n      swap1\n      dup2\n      shl\n        /* \"#utility.yul\":4986:5008   */\n      add\n        /* \"#utility.yul\":4973:5009   */\n      swap1\n      sstore\n      pop\n        /* \"#utility.yul\":3977:5276   */\n      jump\t// out\n        /* \"#utility.yul\":5570:5874   */\n    tag_105:\n        /* \"#utility.yul\":5609:5612   */\n      0x00\n      sub(shl(0x80, 0x01), 0x01)\n        /* \"#utility.yul\":5642:5673   */\n      dup3\n      and\n      not(sub(shl(0x80, 0x01), 0x02))\n        /* \"#utility.yul\":5685:5717   */\n      dup2\n      add\n        /* \"#utility.yul\":5682:5837   */\n      tag_199\n      jumpi\n        /* \"#utility.yul\":5759:5769   */\n      0x4e487b71\n        /* \"#utility.yul\":5754:5757   */\n      0xe0\n        /* \"#utility.yul\":5750:5770   */\n      shl\n        /* \"#utility.yul\":5747:5748   */\n      0x00\n        /* \"#utility.yul\":5740:5771   */\n      mstore\n        /* \"#utility.yul\":5794:5798   */\n      0x11\n        /* \"#utility.yul\":5791:5792   */\n      0x04\n        /* \"#utility.yul\":5784:5799   */\n      mstore\n        /* \"#utility.yul\":5822:5826   */\n      0x24\n        /* \"#utility.yul\":5819:5820   */\n      0x00\n        /* \"#utility.yul\":5812:5827   */\n      revert\n        /* \"#utility.yul\":5682:5837   */\n    tag_199:\n        /* \"#utility.yul\":5866:5867   */\n      0x01\n        /* \"#utility.yul\":5853:5868   */\n      add\n      swap3\n        /* \"#utility.yul\":5570:5874   */\n      swap2\n      pop\n      pop\n      jump\t// out\n\n    auxdata: 0xa264697066735822122033a91fc86019b668cd35d0b3f6dfff19f090a6ea0b60a0bd4006b39ccc0807e264736f6c634300081e0033\n}\n",
				"bytecode": {
					"linkReferences": {},
					"object": "6080604052348015600e575f5ffd5b50610ad68061001c5f395ff3fe608060405234801561000f575f5ffd5b5060043610610097575f3560e01c8063011eaad21461009b57806336744f45146100c657806346bd8077146100f1578063485cc95514610103578063715018a614610118578063832dbdd9146101205780638da5cb5b14610140578063b2a6cb6314610148578063b958832714610185578063bc5dd53014610198578063f2fde38b146101ab575b5f5ffd5b6100ae6100a93660046107fb565b6101be565b6040516100bd93929190610828565b60405180910390f35b6100d96100d4366004610891565b61027d565b6040516001600160801b0390911681526020016100bd565b5f546100d9906001600160801b031681565b6101166101113660046108b9565b6102c4565b005b610116610436565b600354610133906001600160a01b031681565b6040516100bd91906108ea565b610133610449565b6101756101563660046107fb565b6001600160801b039081165f9081526001602052604090205416151590565b60405190151581526020016100bd565b6101336101933660046107fb565b610463565b6100d96101a63660046108fe565b6104c6565b6101166101b93660046108fe565b61068a565b600160208190525f91825260409091208054918101546002820180546001600160801b03909416936001600160a01b0390921692916101fc90610917565b80601f016020809104026020016040519081016040528092919081815260200182805461022890610917565b80156102735780601f1061024a57610100808354040283529160200191610273565b820191905f5260205f20905b81548152906001019060200180831161025657829003601f168201915b5050505050905083565b6002602052815f5260405f208181548110610296575f80fd5b905f5260205f209060029182820401919006601002915091509054906101000a90046001600160801b031681565b5f6102cd6106d0565b805490915060ff600160401b82041615906001600160401b03165f811580156102f35750825b90505f826001600160401b0316600114801561030e5750303b155b90508115801561031c575080155b1561033a5760405163f92ee8a960e01b815260040160405180910390fd5b84546001600160401b0319166001178555831561036357845460ff60401b1916600160401b1785555b6001600160a01b03871661038a5760405163bfbbae8d60e01b815260040160405180910390fd5b6001600160a01b0386166103b15760405163bfbbae8d60e01b815260040160405180910390fd5b6103ba866106f4565b600380546001600160a01b0319166001600160a01b0389161790555f80546001600160801b0319166001179055831561042d57845460ff60401b19168555604051600181527fc7f505b2f371ae2175ee4913f4499e1f2633a7b5936321eed1cdaeb6115181d29060200160405180910390a15b50505050505050565b61043e610705565b6104475f610737565b565b5f5f610453610791565b546001600160a01b031692915050565b6001600160801b038082165f90815260016020526040812054909116810361049e57604051638763070b60e01b815260040160405180910390fd5b506001600160801b03165f90815260016020819052604090912001546001600160a01b031690565b6003545f906001600160a01b031633146104f357604051632fa1780d60e01b815260040160405180910390fd5b6001600160a01b03821661051a5760405163bfbbae8d60e01b815260040160405180910390fd5b5f8054604080516060810182526001600160801b039283168082526001600160a01b0387811660208085019182528551808201875288815285870190815284895260019182905295909720845181546001600160801b03191697169690961786555195850180546001600160a01b0319169690911695909517909455905190919060028201906105aa90826109af565b5050506001600160a01b0383165f8181526002602081815260408084208054600181810183559186529290942092820490920180546001600160801b03808816601094909616939093026101000a85810293021916919091179055517ff46a6bac04f25a61ebd7973da97ee1e0727e75123d284bc1e1383ae8082133b69061063c9060208082525f9082015260400190565b60405180910390a35f80546001600160801b0316908061065b83610a69565b91906101000a8154816001600160801b0302191690836001600160801b0316021790555050809150505b919050565b610692610705565b6001600160a01b0381166106c4575f604051631e4fbdf760e01b81526004016106bb91906108ea565b60405180910390fd5b6106cd81610737565b50565b7ff0c57e16840df040f15088dc2f81fe391c3923bec73e23a9662efc9c229c6a0090565b6106fc6107b5565b6106cd816107da565b3361070e610449565b6001600160a01b031614610447573360405163118cdaa760e01b81526004016106bb91906108ea565b5f610740610791565b80546001600160a01b038481166001600160a01b031983168117845560405193945091169182907f8be0079c531659141344cd1fd0a4f28419497f9722a3daafe3b4186f6b6457e0905f90a3505050565b7f9016d09d72d40fdae2fd8ceac6b6234c7706214fd39c1cd1e609a0528c19930090565b6107bd6107e2565b61044757604051631afcd79f60e31b815260040160405180910390fd5b6106926107b5565b5f6107eb6106d0565b54600160401b900460ff16919050565b5f6020828403121561080b575f5ffd5b81356001600160801b0381168114610821575f5ffd5b9392505050565b60018060801b038416815260018060a01b0383166020820152606060408201525f82518060608401528060208501608085015e5f608082850101526080601f19601f830116840101915050949350505050565b80356001600160a01b0381168114610685575f5ffd5b5f5f604083850312156108a2575f5ffd5b6108ab8361087b565b946020939093013593505050565b5f5f604083850312156108ca575f5ffd5b6108d38361087b565b91506108e16020840161087b565b90509250929050565b6001600160a01b0391909116815260200190565b5f6020828403121561090e575f5ffd5b6108218261087b565b600181811c9082168061092b57607f821691505b60208210810361094957634e487b7160e01b5f52602260045260245ffd5b50919050565b634e487b7160e01b5f52604160045260245ffd5b601f8211156109aa57805f5260205f20601f840160051c810160208510156109885750805b601f840160051c820191505b818110156109a7575f8155600101610994565b50505b505050565b81516001600160401b038111156109c8576109c861094f565b6109dc816109d68454610917565b84610963565b6020601f821160018114610a0e575f83156109f75750848201515b5f19600385901b1c1916600184901b1784556109a7565b5f84815260208120601f198516915b82811015610a3d5787850151825560209485019460019092019101610a1d565b5084821015610a5a57868401515f19600387901b60f8161c191681555b50505050600190811b01905550565b5f6001600160801b0382166002600160801b03198101610a9757634e487b7160e01b5f52601160045260245ffd5b6001019291505056fea264697066735822122033a91fc86019b668cd35d0b3f6dfff19f090a6ea0b60a0bd4006b39ccc0807e264736f6c634300081e0033",
					"opcodes": "PUSH1 0x80 PUSH1 0x40 MSTORE CALLVALUE DUP1 ISZERO PUSH1 0xE JUMPI PUSH0 PUSH0 REVERT JUMPDEST POP PUSH2 0xAD6 DUP1 PUSH2 0x1C PUSH0 CODECOPY PUSH0 RETURN INVALID PUSH1 0x80 PUSH1 0x40 MSTORE CALLVALUE DUP1 ISZERO PUSH2 0xF JUMPI PUSH0 PUSH0 REVERT JUMPDEST POP PUSH1 0x4 CALLDATASIZE LT PUSH2 0x97 JUMPI PUSH0 CALLDATALOAD PUSH1 0xE0 SHR DUP1 PUSH4 0x11EAAD2 EQ PUSH2 0x9B JUMPI DUP1 PUSH4 0x36744F45 EQ PUSH2 0xC6 JUMPI DUP1 PUSH4 0x46BD8077 EQ PUSH2 0xF1 JUMPI DUP1 PUSH4 0x485CC955 EQ PUSH2 0x103 JUMPI DUP1 PUSH4 0x715018A6 EQ PUSH2 0x118 JUMPI DUP1 PUSH4 0x832DBDD9 EQ PUSH2 0x120 JUMPI DUP1 PUSH4 0x8DA5CB5B EQ PUSH2 0x140 JUMPI DUP1 PUSH4 0xB2A6CB63 EQ PUSH2 0x148 JUMPI DUP1 PUSH4 0xB9588327 EQ PUSH2 0x185 JUMPI DUP1 PUSH4 0xBC5DD530 EQ PUSH2 0x198 JUMPI DUP1 PUSH4 0xF2FDE38B EQ PUSH2 0x1AB JUMPI JUMPDEST PUSH0 PUSH0 REVERT JUMPDEST PUSH2 0xAE PUSH2 0xA9 CALLDATASIZE PUSH1 0x4 PUSH2 0x7FB JUMP JUMPDEST PUSH2 0x1BE JUMP JUMPDEST PUSH1 0x40 MLOAD PUSH2 0xBD SWAP4 SWAP3 SWAP2 SWAP1 PUSH2 0x828 JUMP JUMPDEST PUSH1 0x40 MLOAD DUP1 SWAP2 SUB SWAP1 RETURN JUMPDEST PUSH2 0xD9 PUSH2 0xD4 CALLDATASIZE PUSH1 0x4 PUSH2 0x891 JUMP JUMPDEST PUSH2 0x27D JUMP JUMPDEST PUSH1 0x40 MLOAD PUSH1 0x1 PUSH1 0x1 PUSH1 0x80 SHL SUB SWAP1 SWAP2 AND DUP2 MSTORE PUSH1 0x20 ADD PUSH2 0xBD JUMP JUMPDEST PUSH0 SLOAD PUSH2 0xD9 SWAP1 PUSH1 0x1 PUSH1 0x1 PUSH1 0x80 SHL SUB AND DUP2 JUMP JUMPDEST PUSH2 0x116 PUSH2 0x111 CALLDATASIZE PUSH1 0x4 PUSH2 0x8B9 JUMP JUMPDEST PUSH2 0x2C4 JUMP JUMPDEST STOP JUMPDEST PUSH2 0x116 PUSH2 0x436 JUMP JUMPDEST PUSH1 0x3 SLOAD PUSH2 0x133 SWAP1 PUSH1 0x1 PUSH1 0x1 PUSH1 0xA0 SHL SUB AND DUP2 JUMP JUMPDEST PUSH1 0x40 MLOAD PUSH2 0xBD SWAP2 SWAP1 PUSH2 0x8EA JUMP JUMPDEST PUSH2 0x133 PUSH2 0x449 JUMP JUMPDEST PUSH2 0x175 PUSH2 0x156 CALLDATASIZE PUSH1 0x4 PUSH2 0x7FB JUMP JUMPDEST PUSH1 0x1 PUSH1 0x1 PUSH1 0x80 SHL SUB SWAP1 DUP2 AND PUSH0 SWAP1 DUP2 MSTORE PUSH1 0x1 PUSH1 0x20 MSTORE PUSH1 0x40 SWAP1 KECCAK256 SLOAD AND ISZERO ISZERO SWAP1 JUMP JUMPDEST PUSH1 0x40 MLOAD SWAP1 ISZERO ISZERO DUP2 MSTORE PUSH1 0x20 ADD PUSH2 0xBD JUMP JUMPDEST PUSH2 0x133 PUSH2 0x193 CALLDATASIZE PUSH1 0x4 PUSH2 0x7FB JUMP JUMPDEST PUSH2 0x463 JUMP JUMPDEST PUSH2 0xD9 PUSH2 0x1A6 CALLDATASIZE PUSH1 0x4 PUSH2 0x8FE JUMP JUMPDEST PUSH2 0x4C6 JUMP JUMPDEST PUSH2 0x116 PUSH2 0x1B9 CALLDATASIZE PUSH1 0x4 PUSH2 0x8FE JUMP JUMPDEST PUSH2 0x68A JUMP JUMPDEST PUSH1 0x1 PUSH1 0x20 DUP2 SWAP1 MSTORE PUSH0 SWAP2 DUP3 MSTORE PUSH1 0x40 SWAP1 SWAP2 KECCAK256 DUP1 SLOAD SWAP2 DUP2 ADD SLOAD PUSH1 0x2 DUP3 ADD DUP1 SLOAD PUSH1 0x1 PUSH1 0x1 PUSH1 0x80 SHL SUB SWAP1 SWAP5 AND SWAP4 PUSH1 0x1 PUSH1 0x1 PUSH1 0xA0 SHL SUB SWAP1 SWAP3 AND SWAP3 SWAP2 PUSH2 0x1FC SWAP1 PUSH2 0x917 JUMP JUMPDEST DUP1 PUSH1 0x1F ADD PUSH1 0x20 DUP1 SWAP2 DIV MUL PUSH1 0x20 ADD PUSH1 0x40 MLOAD SWAP1 DUP2 ADD PUSH1 0x40 MSTORE DUP1 SWAP3 SWAP2 SWAP1 DUP2 DUP2 MSTORE PUSH1 0x20 ADD DUP3 DUP1 SLOAD PUSH2 0x228 SWAP1 PUSH2 0x917 JUMP JUMPDEST DUP1 ISZERO PUSH2 0x273 JUMPI DUP1 PUSH1 0x1F LT PUSH2 0x24A JUMPI PUSH2 0x100 DUP1 DUP4 SLOAD DIV MUL DUP4 MSTORE SWAP2 PUSH1 0x20 ADD SWAP2 PUSH2 0x273 JUMP JUMPDEST DUP3 ADD SWAP2 SWAP1 PUSH0 MSTORE PUSH1 0x20 PUSH0 KECCAK256 SWAP1 JUMPDEST DUP2 SLOAD DUP2 MSTORE SWAP1 PUSH1 0x1 ADD SWAP1 PUSH1 0x20 ADD DUP1 DUP4 GT PUSH2 0x256 JUMPI DUP3 SWAP1 SUB PUSH1 0x1F AND DUP3 ADD SWAP2 JUMPDEST POP POP POP POP POP SWAP1 POP DUP4 JUMP JUMPDEST PUSH1 0x2 PUSH1 0x20 MSTORE DUP2 PUSH0 MSTORE PUSH1 0x40 PUSH0 KECCAK256 DUP2 DUP2 SLOAD DUP2 LT PUSH2 0x296 JUMPI PUSH0 DUP1 REVERT JUMPDEST SWAP1 PUSH0 MSTORE PUSH1 0x20 PUSH0 KECCAK256 SWAP1 PUSH1 0x2 SWAP2 DUP3 DUP3 DIV ADD SWAP2 SWAP1 MOD PUSH1 0x10 MUL SWAP2 POP SWAP2 POP SWAP1 SLOAD SWAP1 PUSH2 0x100 EXP SWAP1 DIV PUSH1 0x1 PUSH1 0x1 PUSH1 0x80 SHL SUB AND DUP2 JUMP JUMPDEST PUSH0 PUSH2 0x2CD PUSH2 0x6D0 JUMP JUMPDEST DUP1 SLOAD SWAP1 SWAP2 POP PUSH1 0xFF PUSH1 0x1 PUSH1 0x40 SHL DUP3 DIV AND ISZERO SWAP1 PUSH1 0x1 PUSH1 0x1 PUSH1 0x40 SHL SUB AND PUSH0 DUP2 ISZERO DUP1 ISZERO PUSH2 0x2F3 JUMPI POP DUP3 JUMPDEST SWAP1 POP PUSH0 DUP3 PUSH1 0x1 PUSH1 0x1 PUSH1 0x40 SHL SUB AND PUSH1 0x1 EQ DUP1 ISZERO PUSH2 0x30E JUMPI POP ADDRESS EXTCODESIZE ISZERO JUMPDEST SWAP1 POP DUP2 ISZERO DUP1 ISZERO PUSH2 0x31C JUMPI POP DUP1 ISZERO JUMPDEST ISZERO PUSH2 0x33A JUMPI PUSH1 0x40 MLOAD PUSH4 0xF92EE8A9 PUSH1 0xE0 SHL DUP2 MSTORE PUSH1 0x4 ADD PUSH1 0x40 MLOAD DUP1 SWAP2 SUB SWAP1 REVERT JUMPDEST DUP5 SLOAD PUSH1 0x1 PUSH1 0x1 PUSH1 0x40 SHL SUB NOT AND PUSH1 0x1 OR DUP6 SSTORE DUP4 ISZERO PUSH2 0x363 JUMPI DUP5 SLOAD PUSH1 0xFF PUSH1 0x40 SHL NOT AND PUSH1 0x1 PUSH1 0x40 SHL OR DUP6 SSTORE JUMPDEST PUSH1 0x1 PUSH1 0x1 PUSH1 0xA0 SHL SUB DUP8 AND PUSH2 0x38A JUMPI PUSH1 0x40 MLOAD PUSH4 0xBFBBAE8D PUSH1 0xE0 SHL DUP2 MSTORE PUSH1 0x4 ADD PUSH1 0x40 MLOAD DUP1 SWAP2 SUB SWAP1 REVERT JUMPDEST PUSH1 0x1 PUSH1 0x1 PUSH1 0xA0 SHL SUB DUP7 AND PUSH2 0x3B1 JUMPI PUSH1 0x40 MLOAD PUSH4 0xBFBBAE8D PUSH1 0xE0 SHL DUP2 MSTORE PUSH1 0x4 ADD PUSH1 0x40 MLOAD DUP1 SWAP2 SUB SWAP1 REVERT JUMPDEST PUSH2 0x3BA DUP7 PUSH2 0x6F4 JUMP JUMPDEST PUSH1 0x3 DUP1 SLOAD PUSH1 0x1 PUSH1 0x1 PUSH1 0xA0 SHL SUB NOT AND PUSH1 0x1 PUSH1 0x1 PUSH1 0xA0 SHL SUB DUP10 AND OR SWAP1 SSTORE PUSH0 DUP1 SLOAD PUSH1 0x1 PUSH1 0x1 PUSH1 0x80 SHL SUB NOT AND PUSH1 0x1 OR SWAP1 SSTORE DUP4 ISZERO PUSH2 0x42D JUMPI DUP5 SLOAD PUSH1 0xFF PUSH1 0x40 SHL NOT AND DUP6 SSTORE PUSH1 0x40 MLOAD PUSH1 0x1 DUP2 MSTORE PUSH32 0xC7F505B2F371AE2175EE4913F4499E1F2633A7B5936321EED1CDAEB6115181D2 SWAP1 PUSH1 0x20 ADD PUSH1 0x40 MLOAD DUP1 SWAP2 SUB SWAP1 LOG1 JUMPDEST POP POP POP POP POP POP POP JUMP JUMPDEST PUSH2 0x43E PUSH2 0x705 JUMP JUMPDEST PUSH2 0x447 PUSH0 PUSH2 0x737 JUMP JUMPDEST JUMP JUMPDEST PUSH0 PUSH0 PUSH2 0x453 PUSH2 0x791 JUMP JUMPDEST SLOAD PUSH1 0x1 PUSH1 0x1 PUSH1 0xA0 SHL SUB AND SWAP3 SWAP2 POP POP JUMP JUMPDEST PUSH1 0x1 PUSH1 0x1 PUSH1 0x80 SHL SUB DUP1 DUP3 AND PUSH0 SWAP1 DUP2 MSTORE PUSH1 0x1 PUSH1 0x20 MSTORE PUSH1 0x40 DUP2 KECCAK256 SLOAD SWAP1 SWAP2 AND DUP2 SUB PUSH2 0x49E JUMPI PUSH1 0x40 MLOAD PUSH4 0x8763070B PUSH1 0xE0 SHL DUP2 MSTORE PUSH1 0x4 ADD PUSH1 0x40 MLOAD DUP1 SWAP2 SUB SWAP1 REVERT JUMPDEST POP PUSH1 0x1 PUSH1 0x1 PUSH1 0x80 SHL SUB AND PUSH0 SWAP1 DUP2 MSTORE PUSH1 0x1 PUSH1 0x20 DUP2 SWAP1 MSTORE PUSH1 0x40 SWAP1 SWAP2 KECCAK256 ADD SLOAD PUSH1 0x1 PUSH1 0x1 PUSH1 0xA0 SHL SUB AND SWAP1 JUMP JUMPDEST PUSH1 0x3 SLOAD PUSH0 SWAP1 PUSH1 0x1 PUSH1 0x1 PUSH1 0xA0 SHL SUB AND CALLER EQ PUSH2 0x4F3 JUMPI PUSH1 0x40 MLOAD PUSH4 0x2FA1780D PUSH1 0xE0 SHL DUP2 MSTORE PUSH1 0x4 ADD PUSH1 0x40 MLOAD DUP1 SWAP2 SUB SWAP1 REVERT JUMPDEST PUSH1 0x1 PUSH1 0x1 PUSH1 0xA0 SHL SUB DUP3 AND PUSH2 0x51A JUMPI PUSH1 0x40 MLOAD PUSH4 0xBFBBAE8D PUSH1 0xE0 SHL DUP2 MSTORE PUSH1 0x4 ADD PUSH1 0x40 MLOAD DUP1 SWAP2 SUB SWAP1 REVERT JUMPDEST PUSH0 DUP1 SLOAD PUSH1 0x40 DUP1 MLOAD PUSH1 0x60 DUP2 ADD DUP3 MSTORE PUSH1 0x1 PUSH1 0x1 PUSH1 0x80 SHL SUB SWAP3 DUP4 AND DUP1 DUP3 MSTORE PUSH1 0x1 PUSH1 0x1 PUSH1 0xA0 SHL SUB DUP8 DUP2 AND PUSH1 0x20 DUP1 DUP6 ADD SWAP2 DUP3 MSTORE DUP6 MLOAD DUP1 DUP3 ADD DUP8 MSTORE DUP9 DUP2 MSTORE DUP6 DUP8 ADD SWAP1 DUP2 MSTORE DUP5 DUP10 MSTORE PUSH1 0x1 SWAP2 DUP3 SWAP1 MSTORE SWAP6 SWAP1 SWAP8 KECCAK256 DUP5 MLOAD DUP2 SLOAD PUSH1 0x1 PUSH1 0x1 PUSH1 0x80 SHL SUB NOT AND SWAP8 AND SWAP7 SWAP1 SWAP7 OR DUP7 SSTORE MLOAD SWAP6 DUP6 ADD DUP1 SLOAD PUSH1 0x1 PUSH1 0x1 PUSH1 0xA0 SHL SUB NOT AND SWAP7 SWAP1 SWAP2 AND SWAP6 SWAP1 SWAP6 OR SWAP1 SWAP5 SSTORE SWAP1 MLOAD SWAP1 SWAP2 SWAP1 PUSH1 0x2 DUP3 ADD SWAP1 PUSH2 0x5AA SWAP1 DUP3 PUSH2 0x9AF JUMP JUMPDEST POP POP POP PUSH1 0x1 PUSH1 0x1 PUSH1 0xA0 SHL SUB DUP4 AND PUSH0 DUP2 DUP2 MSTORE PUSH1 0x2 PUSH1 0x20 DUP2 DUP2 MSTORE PUSH1 0x40 DUP1 DUP5 KECCAK256 DUP1 SLOAD PUSH1 0x1 DUP2 DUP2 ADD DUP4 SSTORE SWAP2 DUP7 MSTORE SWAP3 SWAP1 SWAP5 KECCAK256 SWAP3 DUP3 DIV SWAP1 SWAP3 ADD DUP1 SLOAD PUSH1 0x1 PUSH1 0x1 PUSH1 0x80 SHL SUB DUP1 DUP9 AND PUSH1 0x10 SWAP5 SWAP1 SWAP7 AND SWAP4 SWAP1 SWAP4 MUL PUSH2 0x100 EXP DUP6 DUP2 MUL SWAP4 MUL NOT AND SWAP2 SWAP1 SWAP2 OR SWAP1 SSTORE MLOAD PUSH32 0xF46A6BAC04F25A61EBD7973DA97EE1E0727E75123D284BC1E1383AE8082133B6 SWAP1 PUSH2 0x63C SWAP1 PUSH1 0x20 DUP1 DUP3 MSTORE PUSH0 SWAP1 DUP3 ADD MSTORE PUSH1 0x40 ADD SWAP1 JUMP JUMPDEST PUSH1 0x40 MLOAD DUP1 SWAP2 SUB SWAP1 LOG3 PUSH0 DUP1 SLOAD PUSH1 0x1 PUSH1 0x1 PUSH1 0x80 SHL SUB AND SWAP1 DUP1 PUSH2 0x65B DUP4 PUSH2 0xA69 JUMP JUMPDEST SWAP2 SWAP1 PUSH2 0x100 EXP DUP2 SLOAD DUP2 PUSH1 0x1 PUSH1 0x1 PUSH1 0x80 SHL SUB MUL NOT AND SWAP1 DUP4 PUSH1 0x1 PUSH1 0x1 PUSH1 0x80 SHL SUB AND MUL OR SWAP1 SSTORE POP POP DUP1 SWAP2 POP POP JUMPDEST SWAP2 SWAP1 POP JUMP JUMPDEST PUSH2 0x692 PUSH2 0x705 JUMP JUMPDEST PUSH1 0x1 PUSH1 0x1 PUSH1 0xA0 SHL SUB DUP2 AND PUSH2 0x6C4 JUMPI PUSH0 PUSH1 0x40 MLOAD PUSH4 0x1E4FBDF7 PUSH1 0xE0 SHL DUP2 MSTORE PUSH1 0x4 ADD PUSH2 0x6BB SWAP2 SWAP1 PUSH2 0x8EA JUMP JUMPDEST PUSH1 0x40 MLOAD DUP1 SWAP2 SUB SWAP1 REVERT JUMPDEST PUSH2 0x6CD DUP2 PUSH2 0x737 JUMP JUMPDEST POP JUMP JUMPDEST PUSH32 0xF0C57E16840DF040F15088DC2F81FE391C3923BEC73E23A9662EFC9C229C6A00 SWAP1 JUMP JUMPDEST PUSH2 0x6FC PUSH2 0x7B5 JUMP JUMPDEST PUSH2 0x6CD DUP2 PUSH2 0x7DA JUMP JUMPDEST CALLER PUSH2 0x70E PUSH2 0x449 JUMP JUMPDEST PUSH1 0x1 PUSH1 0x1 PUSH1 0xA0 SHL SUB AND EQ PUSH2 0x447 JUMPI CALLER PUSH1 0x40 MLOAD PUSH4 0x118CDAA7 PUSH1 0xE0 SHL DUP2 MSTORE PUSH1 0x4 ADD PUSH2 0x6BB SWAP2 SWAP1 PUSH2 0x8EA JUMP JUMPDEST PUSH0 PUSH2 0x740 PUSH2 0x791 JUMP JUMPDEST DUP1 SLOAD PUSH1 0x1 PUSH1 0x1 PUSH1 0xA0 SHL SUB DUP5 DUP2 AND PUSH1 0x1 PUSH1 0x1 PUSH1 0xA0 SHL SUB NOT DUP4 AND DUP2 OR DUP5 SSTORE PUSH1 0x40 MLOAD SWAP4 SWAP5 POP SWAP2 AND SWAP2 DUP3 SWAP1 PUSH32 0x8BE0079C531659141344CD1FD0A4F28419497F9722A3DAAFE3B4186F6B6457E0 SWAP1 PUSH0 SWAP1 LOG3 POP POP POP JUMP JUMPDEST PUSH32 0x9016D09D72D40FDAE2FD8CEAC6B6234C7706214FD39C1CD1E609A0528C199300 SWAP1 JUMP JUMPDEST PUSH2 0x7BD PUSH2 0x7E2 JUMP JUMPDEST PUSH2 0x447 JUMPI PUSH1 0x40 MLOAD PUSH4 0x1AFCD79F PUSH1 0xE3 SHL DUP2 MSTORE PUSH1 0x4 ADD PUSH1 0x40 MLOAD DUP1 SWAP2 SUB SWAP1 REVERT JUMPDEST PUSH2 0x692 PUSH2 0x7B5 JUMP JUMPDEST PUSH0 PUSH2 0x7EB PUSH2 0x6D0 JUMP JUMPDEST SLOAD PUSH1 0x1 PUSH1 0x40 SHL SWAP1 DIV PUSH1 0xFF AND SWAP2 SWAP1 POP JUMP JUMPDEST PUSH0 PUSH1 0x20 DUP3 DUP5 SUB SLT ISZERO PUSH2 0x80B JUMPI PUSH0 PUSH0 REVERT JUMPDEST DUP2 CALLDATALOAD PUSH1 0x1 PUSH1 0x1 PUSH1 0x80 SHL SUB DUP2 AND DUP2 EQ PUSH2 0x821 JUMPI PUSH0 PUSH0 REVERT JUMPDEST SWAP4 SWAP3 POP POP POP JUMP JUMPDEST PUSH1 0x1 DUP1 PUSH1 0x80 SHL SUB DUP5 AND DUP2 MSTORE PUSH1 0x1 DUP1 PUSH1 0xA0 SHL SUB DUP4 AND PUSH1 0x20 DUP3 ADD MSTORE PUSH1 0x60 PUSH1 0x40 DUP3 ADD MSTORE PUSH0 DUP3 MLOAD DUP1 PUSH1 0x60 DUP5 ADD MSTORE DUP1 PUSH1 0x20 DUP6 ADD PUSH1 0x80 DUP6 ADD MCOPY PUSH0 PUSH1 0x80 DUP3 DUP6 ADD ADD MSTORE PUSH1 0x80 PUSH1 0x1F NOT PUSH1 0x1F DUP4 ADD AND DUP5 ADD ADD SWAP2 POP POP SWAP5 SWAP4 POP POP POP POP JUMP JUMPDEST DUP1 CALLDATALOAD PUSH1 0x1 PUSH1 0x1 PUSH1 0xA0 SHL SUB DUP2 AND DUP2 EQ PUSH2 0x685 JUMPI PUSH0 PUSH0 REVERT JUMPDEST PUSH0 PUSH0 PUSH1 0x40 DUP4 DUP6 SUB SLT ISZERO PUSH2 0x8A2 JUMPI PUSH0 PUSH0 REVERT JUMPDEST PUSH2 0x8AB DUP4 PUSH2 0x87B JUMP JUMPDEST SWAP5 PUSH1 0x20 SWAP4 SWAP1 SWAP4 ADD CALLDATALOAD SWAP4 POP POP POP JUMP JUMPDEST PUSH0 PUSH0 PUSH1 0x40 DUP4 DUP6 SUB SLT ISZERO PUSH2 0x8CA JUMPI PUSH0 PUSH0 REVERT JUMPDEST PUSH2 0x8D3 DUP4 PUSH2 0x87B JUMP JUMPDEST SWAP2 POP PUSH2 0x8E1 PUSH1 0x20 DUP5 ADD PUSH2 0x87B JUMP JUMPDEST SWAP1 POP SWAP3 POP SWAP3 SWAP1 POP JUMP JUMPDEST PUSH1 0x1 PUSH1 0x1 PUSH1 0xA0 SHL SUB SWAP2 SWAP1 SWAP2 AND DUP2 MSTORE PUSH1 0x20 ADD SWAP1 JUMP JUMPDEST PUSH0 PUSH1 0x20 DUP3 DUP5 SUB SLT ISZERO PUSH2 0x90E JUMPI PUSH0 PUSH0 REVERT JUMPDEST PUSH2 0x821 DUP3 PUSH2 0x87B JUMP JUMPDEST PUSH1 0x1 DUP2 DUP2 SHR SWAP1 DUP3 AND DUP1 PUSH2 0x92B JUMPI PUSH1 0x7F DUP3 AND SWAP2 POP JUMPDEST PUSH1 0x20 DUP3 LT DUP2 SUB PUSH2 0x949 JUMPI PUSH4 0x4E487B71 PUSH1 0xE0 SHL PUSH0 MSTORE PUSH1 0x22 PUSH1 0x4 MSTORE PUSH1 0x24 PUSH0 REVERT JUMPDEST POP SWAP2 SWAP1 POP JUMP JUMPDEST PUSH4 0x4E487B71 PUSH1 0xE0 SHL PUSH0 MSTORE PUSH1 0x41 PUSH1 0x4 MSTORE PUSH1 0x24 PUSH0 REVERT JUMPDEST PUSH1 0x1F DUP3 GT ISZERO PUSH2 0x9AA JUMPI DUP1 PUSH0 MSTORE PUSH1 0x20 PUSH0 KECCAK256 PUSH1 0x1F DUP5 ADD PUSH1 0x5 SHR DUP2 ADD PUSH1 0x20 DUP6 LT ISZERO PUSH2 0x988 JUMPI POP DUP1 JUMPDEST PUSH1 0x1F DUP5 ADD PUSH1 0x5 SHR DUP3 ADD SWAP2 POP JUMPDEST DUP2 DUP2 LT ISZERO PUSH2 0x9A7 JUMPI PUSH0 DUP2 SSTORE PUSH1 0x1 ADD PUSH2 0x994 JUMP JUMPDEST POP POP JUMPDEST POP POP POP JUMP JUMPDEST DUP2 MLOAD PUSH1 0x1 PUSH1 0x1 PUSH1 0x40 SHL SUB DUP2 GT ISZERO PUSH2 0x9C8 JUMPI PUSH2 0x9C8 PUSH2 0x94F JUMP JUMPDEST PUSH2 0x9DC DUP2 PUSH2 0x9D6 DUP5 SLOAD PUSH2 0x917 JUMP JUMPDEST DUP5 PUSH2 0x963 JUMP JUMPDEST PUSH1 0x20 PUSH1 0x1F DUP3 GT PUSH1 0x1 DUP2 EQ PUSH2 0xA0E JUMPI PUSH0 DUP4 ISZERO PUSH2 0x9F7 JUMPI POP DUP5 DUP3 ADD MLOAD JUMPDEST PUSH0 NOT PUSH1 0x3 DUP6 SWAP1 SHL SHR NOT AND PUSH1 0x1 DUP5 SWAP1 SHL OR DUP5 SSTORE PUSH2 0x9A7 JUMP JUMPDEST PUSH0 DUP5 DUP2 MSTORE PUSH1 0x20 DUP2 KECCAK256 PUSH1 0x1F NOT DUP6 AND SWAP2 JUMPDEST DUP3 DUP2 LT ISZERO PUSH2 0xA3D JUMPI DUP8 DUP6 ADD MLOAD DUP3 SSTORE PUSH1 0x20 SWAP5 DUP6 ADD SWAP5 PUSH1 0x1 SWAP1 SWAP3 ADD SWAP2 ADD PUSH2 0xA1D JUMP JUMPDEST POP DUP5 DUP3 LT ISZERO PUSH2 0xA5A JUMPI DUP7 DUP5 ADD MLOAD PUSH0 NOT PUSH1 0x3 DUP8 SWAP1 SHL PUSH1 0xF8 AND SHR NOT AND DUP2 SSTORE JUMPDEST POP POP POP POP PUSH1 0x1 SWAP1 DUP2 SHL ADD SWAP1 SSTORE POP JUMP JUMPDEST PUSH0 PUSH1 0x1 PUSH1 0x1 PUSH1 0x80 SHL SUB DUP3 AND PUSH1 0x2 PUSH1 0x1 PUSH1 0x80 SHL SUB NOT DUP2 ADD PUSH2 0xA97 JUMPI PUSH4 0x4E487B71 PUSH1 0xE0 SHL PUSH0 MSTORE PUSH1 0x11 PUSH1 0x4 MSTORE PUSH1 0x24 PUSH0 REVERT JUMPDEST PUSH1 0x1 ADD SWAP3 SWAP2 POP POP JUMP INVALID LOG2 PUSH5 0x6970667358 0x22 SLT KECCAK256 CALLER 0xA9 0x1F 0xC8 PUSH1 0x19 0xB6 PUSH9 0xCD35D0B3F6DFFF19F0 SWAP1 0xA6 0xEA SIGNEXTEND PUSH1 0xA0 0xBD BLOCKHASH MOD 0xB3 SWAP13 0xCC ADDMOD SMOD 0xE2 PUSH5 0x736F6C6343 STOP ADDMOD 0x1E STOP CALLER "
				},
				"gasEstimates": {
					"creation": {
						"codeDepositCost": "554800",
						"executionCost": "585",
						"totalCost": "555385"
					},
					"external": {
						"foodAppContractAddress()": "2448",
						"getRestaurantOwner(uint128)": "4963",
						"initialize(address,address)": "infinite",
						"nextRestaurantId()": "2357",
						"owner()": "2517",
						"registerRestaurant(address)": "infinite",
						"renounceOwnership()": "infinite",
						"restaurantExists(uint128)": "2652",
						"restaurants(uint128)": "infinite",
						"restaurantsByOwner(address,uint256)": "6437",
						"transferOwnership(address)": "infinite"
					}
				},
				"methodIdentifiers": {
					"foodAppContractAddress()": "832dbdd9",
					"getRestaurantOwner(uint128)": "b9588327",
					"initialize(address,address)": "485cc955",
					"nextRestaurantId()": "46bd8077",
					"owner()": "8da5cb5b",
					"registerRestaurant(address)": "bc5dd530",
					"renounceOwnership()": "715018a6",
					"restaurantExists(uint128)": "b2a6cb63",
					"restaurants(uint128)": "011eaad2",
					"restaurantsByOwner(address,uint256)": "36744f45",
					"transferOwnership(address)": "f2fde38b"
				}
			},
			"storageLayout": {
				"storage": [
					{
						"astId": 519,
						"contract": "contracts/RestaurantManager.sol:RestaurantManager",
						"label": "nextRestaurantId",
						"offset": 0,
						"slot": "0",
						"type": "t_uint128"
					},
					{
						"astId": 524,
						"contract": "contracts/RestaurantManager.sol:RestaurantManager",
						"label": "restaurants",
						"offset": 0,
						"slot": "1",
						"type": "t_mapping(t_uint128,t_struct(Restaurant)799_storage)"
					},
					{
						"astId": 529,
						"contract": "contracts/RestaurantManager.sol:RestaurantManager",
						"label": "restaurantsByOwner",
						"offset": 0,
						"slot": "2",
						"type": "t_mapping(t_address,t_array(t_uint128)dyn_storage)"
					},
					{
						"astId": 531,
						"contract": "contracts/RestaurantManager.sol:RestaurantManager",
						"label": "foodAppContractAddress",
						"offset": 0,
						"slot": "3",
						"type": "t_address"
					}
				],
				"types": {
					"t_address": {
						"encoding": "inplace",
						"label": "address",
						"numberOfBytes": "20"
					},
					"t_array(t_uint128)dyn_storage": {
						"base": "t_uint128",
						"encoding": "dynamic_array",
						"label": "uint128[]",
						"numberOfBytes": "32"
					},
					"t_mapping(t_address,t_array(t_uint128)dyn_storage)": {
						"encoding": "mapping",
						"key": "t_address",
						"label": "mapping(address => uint128[])",
						"numberOfBytes": "32",
						"value": "t_array(t_uint128)dyn_storage"
					},
					"t_mapping(t_uint128,t_struct(Restaurant)799_storage)": {
						"encoding": "mapping",
						"key": "t_uint128",
						"label": "mapping(uint128 => struct Restaurant)",
						"numberOfBytes": "32",
						"value": "t_struct(Restaurant)799_storage"
					},
					"t_string_storage": {
						"encoding": "bytes",
						"label": "string",
						"numberOfBytes": "32"
					},
					"t_struct(Restaurant)799_storage": {
						"encoding": "inplace",
						"label": "struct Restaurant",
						"members": [
							{
								"astId": 794,
								"contract": "contracts/RestaurantManager.sol:RestaurantManager",
								"label": "id",
								"offset": 0,
								"slot": "0",
								"type": "t_uint128"
							},
							{
								"astId": 796,
								"contract": "contracts/RestaurantManager.sol:RestaurantManager",
								"label": "owner",
								"offset": 0,
								"slot": "1",
								"type": "t_address"
							},
							{
								"astId": 798,
								"contract": "contracts/RestaurantManager.sol:RestaurantManager",
								"label": "name",
								"offset": 0,
								"slot": "2",
								"type": "t_string_storage"
							}
						],
						"numberOfBytes": "96"
					},
					"t_uint128": {
						"encoding": "inplace",
						"label": "uint128",
						"numberOfBytes": "16"
					}
				}
			},
			"userdoc": {
				"kind": "user",
				"methods": {},
				"version": 1
			}
		}
	}
}