{
	"contracts/OrderManager.sol": {
		"OrderManager": {
			"abi": [
				{
					"inputs": [],
					"name": "InvalidInitialization",
					"type": "error"
				},
				{
					"inputs": [],
					"name": "NotInitializing",
					"type": "error"
				},
				{
					"inputs": [
						{
							"internalType": "address",
							"name": "caller",
							"type": "address"
						},
						{
							"internalType": "uint128",
							"name": "orderRestaurantId",
							"type": "uint128"
						},
						{
							"internalType": "uint128",
							"name": "staffRestaurantId",
							"type": "uint128"
						}
					],
					"name": "OrderManager__CallerNotRestaurantStaff",
					"type": "error"
				},
				{
					"inputs": [
						{
							"internalType": "uint256",
							"name": "required",
							"type": "uint256"
						},
						{
							"internalType": "uint256",
							"name": "sent",
							"type": "uint256"
						}
					],
					"name": "OrderManager__InsufficientPayment",
					"type": "error"
				},
				{
					"inputs": [],
					"name": "OrderManager__InvalidAddress",
					"type": "error"
				},
				{
					"inputs": [
						{
							"internalType": "string",
							"name": "dependencyName",
							"type": "string"
						}
					],
					"name": "OrderManager__InvalidDependencyAddress",
					"type": "error"
				},
				{
					"inputs": [],
					"name": "OrderManager__InvalidOrderData",
					"type": "error"
				},
				{
					"inputs": [
						{
							"internalType": "enum OrderStatus",
							"name": "currentStatus",
							"type": "uint8"
						},
						{
							"internalType": "string",
							"name": "action",
							"type": "string"
						}
					],
					"name": "OrderManager__InvalidOrderStatusForAction",
					"type": "error"
				},
				{
					"inputs": [
						{
							"internalType": "enum OrderStatus",
							"name": "from",
							"type": "uint8"
						},
						{
							"internalType": "enum OrderStatus",
							"name": "to",
							"type": "uint8"
						}
					],
					"name": "OrderManager__InvalidOrderStatusTransition",
					"type": "error"
				},
				{
					"inputs": [
						{
							"internalType": "uint128",
							"name": "menuItemId",
							"type": "uint128"
						}
					],
					"name": "OrderManager__MenuItemNotAvailable",
					"type": "error"
				},
				{
					"inputs": [
						{
							"internalType": "uint128",
							"name": "restaurantId",
							"type": "uint128"
						},
						{
							"internalType": "uint128",
							"name": "menuItemId",
							"type": "uint128"
						}
					],
					"name": "OrderManager__MenuItemNotFound",
					"type": "error"
				},
				{
					"inputs": [],
					"name": "OrderManager__NotFoodApp",
					"type": "error"
				},
				{
					"inputs": [
						{
							"internalType": "address",
							"name": "caller",
							"type": "address"
						},
						{
							"internalType": "uint128",
							"name": "orderId",
							"type": "uint128"
						}
					],
					"name": "OrderManager__NotOrderOwner",
					"type": "error"
				},
				{
					"inputs": [
						{
							"internalType": "uint128",
							"name": "orderId",
							"type": "uint128"
						}
					],
					"name": "OrderManager__OrderNotFound",
					"type": "error"
				},
				{
					"inputs": [
						{
							"internalType": "uint256",
							"name": "feePercent",
							"type": "uint256"
						}
					],
					"name": "OrderManager__PlatformFeeTooHigh",
					"type": "error"
				},
				{
					"inputs": [
						{
							"internalType": "uint128",
							"name": "restaurantId",
							"type": "uint128"
						}
					],
					"name": "OrderManager__RestaurantOwnerNotFound",
					"type": "error"
				},
				{
					"inputs": [],
					"name": "OrderManager__TransferFailed",
					"type": "error"
				},
				{
					"inputs": [
						{
							"internalType": "address",
							"name": "owner",
							"type": "address"
						}
					],
					"name": "OwnableInvalidOwner",
					"type": "error"
				},
				{
					"inputs": [
						{
							"internalType": "address",
							"name": "account",
							"type": "address"
						}
					],
					"name": "OwnableUnauthorizedAccount",
					"type": "error"
				},
				{
					"inputs": [],
					"name": "ReentrancyGuardReentrantCall",
					"type": "error"
				},
				{
					"anonymous": false,
					"inputs": [
						{
							"indexed": false,
							"internalType": "uint64",
							"name": "version",
							"type": "uint64"
						}
					],
					"name": "Initialized",
					"type": "event"
				},
				{
					"anonymous": false,
					"inputs": [
						{
							"indexed": true,
							"internalType": "uint128",
							"name": "orderId",
							"type": "uint128"
						},
						{
							"indexed": true,
							"internalType": "address",
							"name": "customerEoa",
							"type": "address"
						},
						{
							"indexed": false,
							"internalType": "uint256",
							"name": "refundAmount",
							"type": "uint256"
						}
					],
					"name": "OrderCancelled",
					"type": "event"
				},
				{
					"anonymous": false,
					"inputs": [
						{
							"indexed": true,
							"internalType": "uint128",
							"name": "orderId",
							"type": "uint128"
						},
						{
							"indexed": true,
							"internalType": "address",
							"name": "restaurantOwner",
							"type": "address"
						},
						{
							"indexed": false,
							"internalType": "uint256",
							"name": "amountToRestaurant",
							"type": "uint256"
						},
						{
							"indexed": false,
							"internalType": "uint256",
							"name": "platformFee",
							"type": "uint256"
						}
					],
					"name": "OrderCompleted",
					"type": "event"
				},
				{
					"anonymous": false,
					"inputs": [
						{
							"indexed": true,
							"internalType": "uint128",
							"name": "orderId",
							"type": "uint128"
						},
						{
							"indexed": true,
							"internalType": "address",
							"name": "customerEoa",
							"type": "address"
						},
						{
							"indexed": true,
							"internalType": "uint128",
							"name": "restaurantId",
							"type": "uint128"
						},
						{
							"indexed": false,
							"internalType": "uint256",
							"name": "totalPrice",
							"type": "uint256"
						}
					],
					"name": "OrderPlaced",
					"type": "event"
				},
				{
					"anonymous": false,
					"inputs": [
						{
							"indexed": true,
							"internalType": "uint128",
							"name": "orderId",
							"type": "uint128"
						},
						{
							"indexed": false,
							"internalType": "enum OrderStatus",
							"name": "oldStatus",
							"type": "uint8"
						},
						{
							"indexed": false,
							"internalType": "enum OrderStatus",
							"name": "newStatus",
							"type": "uint8"
						}
					],
					"name": "OrderStatusUpdated",
					"type": "event"
				},
				{
					"anonymous": false,
					"inputs": [
						{
							"indexed": true,
							"internalType": "address",
							"name": "previousOwner",
							"type": "address"
						},
						{
							"indexed": true,
							"internalType": "address",
							"name": "newOwner",
							"type": "address"
						}
					],
					"name": "OwnershipTransferred",
					"type": "event"
				},
				{
					"anonymous": false,
					"inputs": [
						{
							"indexed": false,
							"internalType": "uint256",
							"name": "oldFeePercent",
							"type": "uint256"
						},
						{
							"indexed": false,
							"internalType": "uint256",
							"name": "newFeePercent",
							"type": "uint256"
						}
					],
					"name": "PlatformFeeUpdated",
					"type": "event"
				},
				{
					"inputs": [
						{
							"internalType": "address",
							"name": "customerEoa",
							"type": "address"
						},
						{
							"internalType": "uint128",
							"name": "orderId",
							"type": "uint128"
						}
					],
					"name": "cancelOrder",
					"outputs": [],
					"stateMutability": "nonpayable",
					"type": "function"
				},
				{
					"inputs": [
						{
							"internalType": "address",
							"name": "staffEoa",
							"type": "address"
						},
						{
							"internalType": "uint128",
							"name": "orderId",
							"type": "uint128"
						},
						{
							"internalType": "uint128",
							"name": "staffRestaurantId",
							"type": "uint128"
						}
					],
					"name": "completeOrder",
					"outputs": [],
					"stateMutability": "nonpayable",
					"type": "function"
				},
				{
					"inputs": [],
					"name": "foodAppContractAddress",
					"outputs": [
						{
							"internalType": "address",
							"name": "",
							"type": "address"
						}
					],
					"stateMutability": "view",
					"type": "function"
				},
				{
					"inputs": [
						{
							"internalType": "uint128",
							"name": "orderId",
							"type": "uint128"
						}
					],
					"name": "getOrder",
					"outputs": [
						{
							"components": [
								{
									"internalType": "uint128",
									"name": "id",
									"type": "uint128"
								},
								{
									"internalType": "address",
									"name": "customer",
									"type": "address"
								},
								{
									"internalType": "uint128",
									"name": "restaurantId",
									"type": "uint128"
								},
								{
									"components": [
										{
											"internalType": "uint128",
											"name": "menuItemId",
											"type": "uint128"
										},
										{
											"internalType": "string",
											"name": "name",
											"type": "string"
										},
										{
											"internalType": "uint128",
											"name": "pricePerUnit",
											"type": "uint128"
										},
										{
											"internalType": "uint128",
											"name": "quantity",
											"type": "uint128"
										}
									],
									"internalType": "struct OrderItemDetail[]",
									"name": "itemsDetail",
									"type": "tuple[]"
								},
								{
									"internalType": "uint256",
									"name": "totalPrice",
									"type": "uint256"
								},
								{
									"internalType": "enum OrderStatus",
									"name": "status",
									"type": "uint8"
								},
								{
									"internalType": "uint128",
									"name": "timestamp",
									"type": "uint128"
								},
								{
									"internalType": "uint128",
									"name": "preparationTime",
									"type": "uint128"
								}
							],
							"internalType": "struct Order",
							"name": "",
							"type": "tuple"
						}
					],
					"stateMutability": "view",
					"type": "function"
				},
				{
					"inputs": [
						{
							"internalType": "address",
							"name": "_foodAppContract",
							"type": "address"
						},
						{
							"internalType": "address",
							"name": "_menuManagerAddress",
							"type": "address"
						},
						{
							"internalType": "address",
							"name": "_restaurantManagerAddress",
							"type": "address"
						},
						{
							"internalType": "address",
							"name": "_factoryOwner",
							"type": "address"
						}
					],
					"name": "initialize",
					"outputs": [],
					"stateMutability": "nonpayable",
					"type": "function"
				},
				{
					"inputs": [],
					"name": "menuManager",
					"outputs": [
						{
							"internalType": "contract IMenuManager",
							"name": "",
							"type": "address"
						}
					],
					"stateMutability": "view",
					"type": "function"
				},
				{
					"inputs": [],
					"name": "nextOrderId",
					"outputs": [
						{
							"internalType": "uint128",
							"name": "",
							"type": "uint128"
						}
					],
					"stateMutability": "view",
					"type": "function"
				},
				{
					"inputs": [
						{
							"internalType": "uint128",
							"name": "",
							"type": "uint128"
						}
					],
					"name": "orders",
					"outputs": [
						{
							"internalType": "uint128",
							"name": "id",
							"type": "uint128"
						},
						{
							"internalType": "address",
							"name": "customer",
							"type": "address"
						},
						{
							"internalType": "uint128",
							"name": "restaurantId",
							"type": "uint128"
						},
						{
							"internalType": "uint256",
							"name": "totalPrice",
							"type": "uint256"
						},
						{
							"internalType": "enum OrderStatus",
							"name": "status",
							"type": "uint8"
						},
						{
							"internalType": "uint128",
							"name": "timestamp",
							"type": "uint128"
						},
						{
							"internalType": "uint128",
							"name": "preparationTime",
							"type": "uint128"
						}
					],
					"stateMutability": "view",
					"type": "function"
				},
				{
					"inputs": [],
					"name": "owner",
					"outputs": [
						{
							"internalType": "address",
							"name": "",
							"type": "address"
						}
					],
					"stateMutability": "view",
					"type": "function"
				},
				{
					"inputs": [
						{
							"internalType": "address",
							"name": "customerEoa",
							"type": "address"
						},
						{
							"internalType": "uint128",
							"name": "restaurantId",
							"type": "uint128"
						},
						{
							"internalType": "uint128[]",
							"name": "itemIds",
							"type": "uint128[]"
						},
						{
							"internalType": "uint128[]",
							"name": "quantities",
							"type": "uint128[]"
						}
					],
					"name": "placeOrder",
					"outputs": [],
					"stateMutability": "payable",
					"type": "function"
				},
				{
					"inputs": [],
					"name": "platformFeePercent",
					"outputs": [
						{
							"internalType": "uint256",
							"name": "",
							"type": "uint256"
						}
					],
					"stateMutability": "view",
					"type": "function"
				},
				{
					"inputs": [],
					"name": "renounceOwnership",
					"outputs": [],
					"stateMutability": "nonpayable",
					"type": "function"
				},
				{
					"inputs": [],
					"name": "restaurantManager",
					"outputs": [
						{
							"internalType": "contract IRestaurantManager",
							"name": "",
							"type": "address"
						}
					],
					"stateMutability": "view",
					"type": "function"
				},
				{
					"inputs": [
						{
							"internalType": "uint256",
							"name": "_newFeePercent",
							"type": "uint256"
						}
					],
					"name": "setPlatformFee",
					"outputs": [],
					"stateMutability": "nonpayable",
					"type": "function"
				},
				{
					"inputs": [
						{
							"internalType": "address",
							"name": "newOwner",
							"type": "address"
						}
					],
					"name": "transferOwnership",
					"outputs": [],
					"stateMutability": "nonpayable",
					"type": "function"
				},
				{
					"inputs": [
						{
							"internalType": "address",
							"name": "staffEoa",
							"type": "address"
						},
						{
							"internalType": "uint128",
							"name": "orderId",
							"type": "uint128"
						},
						{
							"internalType": "enum OrderStatus",
							"name": "newStatus",
							"type": "uint8"
						},
						{
							"internalType": "uint128",
							"name": "staffRestaurantId",
							"type": "uint128"
						}
					],
					"name": "updateOrderStatus",
					"outputs": [],
					"stateMutability": "nonpayable",
					"type": "function"
				}
			],
			"devdoc": {
				"errors": {
					"InvalidInitialization()": [
						{
							"details": "The contract is already initialized."
						}
					],
					"NotInitializing()": [
						{
							"details": "The contract is not initializing."
						}
					],
					"OwnableInvalidOwner(address)": [
						{
							"details": "The owner is not a valid owner account. (eg. `address(0)`)"
						}
					],
					"OwnableUnauthorizedAccount(address)": [
						{
							"details": "The caller account is not authorized to perform an operation."
						}
					],
					"ReentrancyGuardReentrantCall()": [
						{
							"details": "Unauthorized reentrant call."
						}
					]
				},
				"events": {
					"Initialized(uint64)": {
						"details": "Triggered when the contract has been initialized or reinitialized."
					}
				},
				"kind": "dev",
				"methods": {
					"owner()": {
						"details": "Returns the address of the current owner."
					},
					"renounceOwnership()": {
						"details": "Leaves the contract without owner. It will not be possible to call `onlyOwner` functions. Can only be called by the current owner. NOTE: Renouncing ownership will leave the contract without an owner, thereby disabling any functionality that is only available to the owner."
					},
					"transferOwnership(address)": {
						"details": "Transfers ownership of the contract to a new account (`newOwner`). Can only be called by the current owner."
					}
				},
				"version": 1
			},
			"evm": {
				"assembly": "    /* \"contracts/OrderManager.sol\":370:11021  contract OrderManager is OwnableUpgradeable, IOrderManager, ReentrancyGuard {... */\n  mstore(0x40, 0x80)\n  callvalue\n  dup1\n  iszero\n  tag_1\n  jumpi\n  revert(0x00, 0x00)\ntag_1:\n  pop\n    /* \"@openzeppelin/contracts/utils/ReentrancyGuard.sol\":1857:1858  1 */\n  0x01\n    /* \"@openzeppelin/contracts/utils/ReentrancyGuard.sol\":2061:2068  _status */\n  0x00\n    /* \"@openzeppelin/contracts/utils/ReentrancyGuard.sol\":2061:2082  _status = NOT_ENTERED */\n  sstore\n    /* \"contracts/OrderManager.sol\":370:11021  contract OrderManager is OwnableUpgradeable, IOrderManager, ReentrancyGuard {... */\n  dataSize(sub_0)\n  dup1\n  dataOffset(sub_0)\n  0x00\n  codecopy\n  0x00\n  return\nstop\n\nsub_0: assembly {\n        /* \"contracts/OrderManager.sol\":370:11021  contract OrderManager is OwnableUpgradeable, IOrderManager, ReentrancyGuard {... */\n      mstore(0x40, 0x80)\n      jumpi(tag_1, lt(calldatasize, 0x04))\n      shr(0xe0, calldataload(0x00))\n      dup1\n      0x117d4128\n      eq\n      tag_2\n      jumpi\n      dup1\n      0x12e8e2c3\n      eq\n      tag_3\n      jumpi\n      dup1\n      0x19c8ccef\n      eq\n      tag_4\n      jumpi\n      dup1\n      0x1b4257f6\n      eq\n      tag_5\n      jumpi\n      dup1\n      0x2134b6f6\n      eq\n      tag_6\n      jumpi\n      dup1\n      0x2a58b330\n      eq\n      tag_7\n      jumpi\n      dup1\n      0x5059e95b\n      eq\n      tag_8\n      jumpi\n      dup1\n      0x715018a6\n      eq\n      tag_9\n      jumpi\n      dup1\n      0x832dbdd9\n      eq\n      tag_10\n      jumpi\n      dup1\n      0x8c639a85\n      eq\n      tag_11\n      jumpi\n      dup1\n      0x8da5cb5b\n      eq\n      tag_12\n      jumpi\n      dup1\n      0xc60c14d9\n      eq\n      tag_13\n      jumpi\n      dup1\n      0xcf31fb46\n      eq\n      tag_14\n      jumpi\n      dup1\n      0xf2fde38b\n      eq\n      tag_15\n      jumpi\n      dup1\n      0xf8c8765e\n      eq\n      tag_16\n      jumpi\n      dup1\n      0xff8ddee3\n      eq\n      tag_17\n      jumpi\n    tag_1:\n      revert(0x00, 0x00)\n        /* \"contracts/OrderManager.sol\":10786:11018  function getOrder(uint128 orderId) external view override returns (Order memory) {... */\n    tag_2:\n      callvalue\n      dup1\n      iszero\n      tag_18\n      jumpi\n      revert(0x00, 0x00)\n    tag_18:\n      pop\n      tag_19\n      tag_20\n      calldatasize\n      0x04\n      tag_21\n      jump\t// in\n    tag_20:\n      tag_22\n      jump\t// in\n    tag_19:\n      mload(0x40)\n      tag_23\n      swap2\n      swap1\n      tag_24\n      jump\t// in\n    tag_23:\n      mload(0x40)\n      dup1\n      swap2\n      sub\n      swap1\n      return\n        /* \"contracts/OrderManager.sol\":3260:3542  function setPlatformFee(uint256 _newFeePercent) external onlyOwner {... */\n    tag_3:\n      callvalue\n      dup1\n      iszero\n      tag_25\n      jumpi\n      revert(0x00, 0x00)\n    tag_25:\n      pop\n      tag_26\n      tag_27\n      calldatasize\n      0x04\n      tag_28\n      jump\t// in\n    tag_27:\n      tag_29\n      jump\t// in\n    tag_26:\n      stop\n        /* \"contracts/OrderManager.sol\":9735:10778  function updateOrderStatus(address staffEoa, uint128 orderId, OrderStatus newStatus, uint128 staffRestaurantId) external override onlyFoodAppContract {... */\n    tag_4:\n      callvalue\n      dup1\n      iszero\n      tag_30\n      jumpi\n      revert(0x00, 0x00)\n    tag_30:\n      pop\n      tag_26\n      tag_32\n      calldatasize\n      0x04\n      tag_33\n      jump\t// in\n    tag_32:\n      tag_34\n      jump\t// in\n        /* \"contracts/OrderManager.sol\":6868:7948  function cancelOrder(address customerEoa, uint128 orderId) external override onlyFoodAppContract nonReentrant {... */\n    tag_5:\n      callvalue\n      dup1\n      iszero\n      tag_35\n      jumpi\n      revert(0x00, 0x00)\n    tag_35:\n      pop\n      tag_26\n      tag_37\n      calldatasize\n      0x04\n      tag_38\n      jump\t// in\n    tag_37:\n      tag_39\n      jump\t// in\n        /* \"contracts/OrderManager.sol\":572:615  IRestaurantManager public restaurantManager */\n    tag_6:\n      callvalue\n      dup1\n      iszero\n      tag_40\n      jumpi\n      revert(0x00, 0x00)\n    tag_40:\n      pop\n      sload(0x04)\n      tag_41\n      swap1\n      sub(shl(0xa0, 0x01), 0x01)\n      and\n      dup2\n      jump\n    tag_41:\n      mload(0x40)\n      tag_23\n      swap2\n      swap1\n      tag_44\n      jump\t// in\n        /* \"contracts/OrderManager.sol\":453:479  uint128 public nextOrderId */\n    tag_7:\n      callvalue\n      dup1\n      iszero\n      tag_45\n      jumpi\n      revert(0x00, 0x00)\n    tag_45:\n      pop\n      sload(0x01)\n      tag_46\n      swap1\n      sub(shl(0x80, 0x01), 0x01)\n      and\n      dup2\n      jump\n    tag_46:\n      mload(0x40)\n      tag_23\n      swap2\n      swap1\n      tag_49\n      jump\t// in\n        /* \"contracts/OrderManager.sol\":534:565  IMenuManager public menuManager */\n    tag_8:\n      callvalue\n      dup1\n      iszero\n      tag_50\n      jumpi\n      revert(0x00, 0x00)\n    tag_50:\n      pop\n      sload(0x03)\n      tag_41\n      swap1\n      sub(shl(0xa0, 0x01), 0x01)\n      and\n      dup2\n      jump\n        /* \"@openzeppelin/contracts-upgradeable/access/OwnableUpgradeable.sol\":3155:3256  function renounceOwnership() public virtual onlyOwner {... */\n    tag_9:\n      callvalue\n      dup1\n      iszero\n      tag_55\n      jumpi\n      revert(0x00, 0x00)\n    tag_55:\n      pop\n      tag_26\n      tag_57\n      jump\t// in\n        /* \"contracts/OrderManager.sol\":622:659  address public foodAppContractAddress */\n    tag_10:\n      callvalue\n      dup1\n      iszero\n      tag_58\n      jumpi\n      revert(0x00, 0x00)\n    tag_58:\n      pop\n      sload(0x05)\n      tag_41\n      swap1\n      sub(shl(0xa0, 0x01), 0x01)\n      and\n      dup2\n      jump\n        /* \"contracts/OrderManager.sol\":666:699  uint256 public platformFeePercent */\n    tag_11:\n      callvalue\n      dup1\n      iszero\n      tag_63\n      jumpi\n      revert(0x00, 0x00)\n    tag_63:\n      pop\n      tag_64\n      sload(0x06)\n      dup2\n      jump\n    tag_64:\n      mload(0x40)\n        /* \"#utility.yul\":5631:5656   */\n      swap1\n      dup2\n      mstore\n        /* \"#utility.yul\":5619:5621   */\n      0x20\n        /* \"#utility.yul\":5604:5622   */\n      add\n        /* \"contracts/OrderManager.sol\":666:699  uint256 public platformFeePercent */\n      tag_23\n        /* \"#utility.yul\":5485:5662   */\n      jump\n        /* \"@openzeppelin/contracts-upgradeable/access/OwnableUpgradeable.sol\":2441:2585  function owner() public view virtual returns (address) {... */\n    tag_12:\n      callvalue\n      dup1\n      iszero\n      tag_68\n      jumpi\n      revert(0x00, 0x00)\n    tag_68:\n      pop\n      tag_41\n      tag_70\n      jump\t// in\n        /* \"contracts/OrderManager.sol\":3550:6410  function placeOrder(... */\n    tag_13:\n      tag_26\n      tag_73\n      calldatasize\n      0x04\n      tag_74\n      jump\t// in\n    tag_73:\n      tag_75\n      jump\t// in\n        /* \"contracts/OrderManager.sol\":7956:9727  function completeOrder(address staffEoa, uint128 orderId, uint128 staffRestaurantId) external override onlyFoodAppContract nonReentrant {... */\n    tag_14:\n      callvalue\n      dup1\n      iszero\n      tag_76\n      jumpi\n      revert(0x00, 0x00)\n    tag_76:\n      pop\n      tag_26\n      tag_78\n      calldatasize\n      0x04\n      tag_79\n      jump\t// in\n    tag_78:\n      tag_80\n      jump\t// in\n        /* \"@openzeppelin/contracts-upgradeable/access/OwnableUpgradeable.sol\":3405:3620  function transferOwnership(address newOwner) public virtual onlyOwner {... */\n    tag_15:\n      callvalue\n      dup1\n      iszero\n      tag_81\n      jumpi\n      revert(0x00, 0x00)\n    tag_81:\n      pop\n      tag_26\n      tag_83\n      calldatasize\n      0x04\n      tag_84\n      jump\t// in\n    tag_83:\n      tag_85\n      jump\t// in\n        /* \"contracts/OrderManager.sol\":2448:3252  function initialize(... */\n    tag_16:\n      callvalue\n      dup1\n      iszero\n      tag_86\n      jumpi\n      revert(0x00, 0x00)\n    tag_86:\n      pop\n      tag_26\n      tag_88\n      calldatasize\n      0x04\n      tag_89\n      jump\t// in\n    tag_88:\n      tag_90\n      jump\t// in\n        /* \"contracts/OrderManager.sol\":486:525  mapping(uint128 => Order) public orders */\n    tag_17:\n      callvalue\n      dup1\n      iszero\n      tag_91\n      jumpi\n      revert(0x00, 0x00)\n    tag_91:\n      pop\n      tag_92\n      tag_93\n      calldatasize\n      0x04\n      tag_21\n      jump\t// in\n    tag_93:\n      0x02\n      0x20\n      dup2\n      swap1\n      mstore\n      0x00\n      swap2\n      dup3\n      mstore\n      0x40\n      swap1\n      swap2\n      keccak256\n      dup1\n      sload\n      0x01\n      dup3\n      add\n      sload\n      swap3\n      dup3\n      add\n      sload\n      0x04\n      dup4\n      add\n      sload\n      0x05\n      dup5\n      add\n      sload\n      0x06\n      swap1\n      swap5\n      add\n      sload\n      sub(shl(0x80, 0x01), 0x01)\n      swap4\n      dup5\n      and\n      swap6\n      sub(shl(0xa0, 0x01), 0x01)\n      and\n      swap5\n      swap3\n      dup5\n      and\n      swap4\n      swap2\n      swap3\n      0xff\n      dup2\n      and\n      swap3\n      0x0100\n      swap1\n      swap2\n      div\n      dup2\n      and\n      swap2\n      and\n      dup8\n      jump\n    tag_92:\n      mload(0x40)\n      tag_23\n      swap8\n      swap7\n      swap6\n      swap5\n      swap4\n      swap3\n      swap2\n      swap1\n      tag_96\n      jump\t// in\n        /* \"contracts/OrderManager.sol\":10786:11018  function getOrder(uint128 orderId) external view override returns (Order memory) {... */\n    tag_22:\n      0x40\n      dup1\n      mload\n      0x0100\n      dup2\n      add\n      dup3\n      mstore\n      0x00\n      dup1\n      dup3\n      mstore\n      0x20\n      dup3\n      add\n      dup2\n      swap1\n      mstore\n      swap2\n      dup2\n      add\n      dup3\n      swap1\n      mstore\n      0x60\n      dup1\n      dup3\n      add\n      mstore\n      0x80\n      dup2\n      add\n      dup3\n      swap1\n      mstore\n      0xa0\n      dup2\n      add\n      dup3\n      swap1\n      mstore\n      0xc0\n      dup2\n      add\n      dup3\n      swap1\n      mstore\n      0xe0\n      dup2\n      add\n      swap2\n      swap1\n      swap2\n      mstore\n      sub(shl(0x80, 0x01), 0x01)\n        /* \"contracts/OrderManager.sol\":10899:10914  orders[orderId] */\n      dup1\n      dup4\n      and\n        /* \"contracts/OrderManager.sol\":10878:10896  Order memory order */\n      0x00\n        /* \"contracts/OrderManager.sol\":10899:10914  orders[orderId] */\n      swap1\n      dup2\n      mstore\n        /* \"contracts/OrderManager.sol\":10899:10905  orders */\n      0x02\n        /* \"contracts/OrderManager.sol\":10899:10914  orders[orderId] */\n      0x20\n      dup2\n      dup2\n      mstore\n      0x40\n      dup1\n      dup5\n      keccak256\n        /* \"contracts/OrderManager.sol\":10878:10914  Order memory order = orders[orderId] */\n      dup2\n      mload\n      0x0100\n      dup2\n      add\n      dup4\n      mstore\n      dup2\n      sload\n      dup8\n      and\n      dup2\n      mstore\n      0x01\n      dup3\n      add\n      sload\n      sub(shl(0xa0, 0x01), 0x01)\n      and\n      dup2\n      dup6\n      add\n      mstore\n      swap4\n      dup2\n      add\n      sload\n      swap1\n      swap6\n      and\n      dup4\n      dup3\n      add\n      mstore\n      0x03\n      dup6\n      add\n      dup1\n      sload\n      dup3\n      mload\n      dup2\n      dup6\n      mul\n      dup2\n      add\n      dup6\n      add\n      swap1\n      swap4\n      mstore\n      dup1\n      dup4\n      mstore\n        /* \"contracts/OrderManager.sol\":10878:10896  Order memory order */\n      swap5\n      swap6\n        /* \"contracts/OrderManager.sol\":10878:10914  Order memory order = orders[orderId] */\n      swap4\n      swap5\n      0x60\n      dup7\n      add\n      swap4\n        /* \"contracts/OrderManager.sol\":10878:10896  Order memory order */\n      dup8\n      swap1\n        /* \"contracts/OrderManager.sol\":10878:10914  Order memory order = orders[orderId] */\n      dup5\n      add\n    tag_100:\n      dup3\n      dup3\n      lt\n      iszero\n      tag_101\n      jumpi\n      0x00\n      dup5\n      dup2\n      mstore\n      0x20\n      swap1\n      dup2\n      swap1\n      keccak256\n      0x40\n      dup1\n      mload\n      0x80\n      dup2\n      add\n      swap1\n      swap2\n      mstore\n      0x03\n      dup6\n      mul\n      swap1\n      swap2\n      add\n      dup1\n      sload\n      sub(shl(0x80, 0x01), 0x01)\n      and\n      dup3\n      mstore\n      0x01\n      dup2\n      add\n      dup1\n      sload\n      swap3\n      swap4\n      swap2\n      swap3\n      swap2\n      dup5\n      add\n      swap2\n      tag_103\n      swap1\n      tag_104\n      jump\t// in\n    tag_103:\n      dup1\n      0x1f\n      add\n      0x20\n      dup1\n      swap2\n      div\n      mul\n      0x20\n      add\n      mload(0x40)\n      swap1\n      dup2\n      add\n      0x40\n      mstore\n      dup1\n      swap3\n      swap2\n      swap1\n      dup2\n      dup2\n      mstore\n      0x20\n      add\n      dup3\n      dup1\n      sload\n      tag_105\n      swap1\n      tag_104\n      jump\t// in\n    tag_105:\n      dup1\n      iszero\n      tag_106\n      jumpi\n      dup1\n      0x1f\n      lt\n      tag_107\n      jumpi\n      0x0100\n      dup1\n      dup4\n      sload\n      div\n      mul\n      dup4\n      mstore\n      swap2\n      0x20\n      add\n      swap2\n      jump(tag_106)\n    tag_107:\n      dup3\n      add\n      swap2\n      swap1\n      0x00\n      mstore\n      keccak256(0x00, 0x20)\n      swap1\n    tag_108:\n      dup2\n      sload\n      dup2\n      mstore\n      swap1\n      0x01\n      add\n      swap1\n      0x20\n      add\n      dup1\n      dup4\n      gt\n      tag_108\n      jumpi\n      dup3\n      swap1\n      sub\n      0x1f\n      and\n      dup3\n      add\n      swap2\n    tag_106:\n      pop\n      pop\n      pop\n      swap2\n      dup4\n      mstore\n      pop\n      pop\n      0x02\n      swap2\n      swap1\n      swap2\n      add\n      sload\n      sub(shl(0x80, 0x01), 0x01)\n      dup1\n      dup3\n      and\n      0x20\n      dup1\n      dup6\n      add\n      swap2\n      swap1\n      swap2\n      mstore\n      shl(0x80, 0x01)\n      swap1\n      swap3\n      div\n      and\n      0x40\n      swap1\n      swap3\n      add\n      swap2\n      swap1\n      swap2\n      mstore\n      swap1\n      dup3\n      mstore\n      0x01\n      swap3\n      swap1\n      swap3\n      add\n      swap2\n      add\n      jump(tag_100)\n    tag_101:\n      pop\n      pop\n      pop\n      swap1\n      dup3\n      mstore\n      pop\n      0x04\n      dup3\n      add\n      sload\n      0x20\n      dup3\n      add\n      mstore\n      0x05\n      dup3\n      add\n      sload\n      0x40\n      swap1\n      swap2\n      add\n      swap1\n      0xff\n      and\n      0x06\n      dup2\n      gt\n      iszero\n      tag_110\n      jumpi\n      tag_110\n      tag_111\n      jump\t// in\n    tag_110:\n      0x06\n      dup2\n      gt\n      iszero\n      tag_113\n      jumpi\n      tag_113\n      tag_111\n      jump\t// in\n    tag_113:\n      dup2\n      mstore\n      0x05\n      dup3\n      add\n      sload\n      sub(shl(0x80, 0x01), 0x01)\n      0x0100\n      swap1\n      swap2\n      div\n      dup2\n      and\n      0x20\n      dup4\n      add\n      mstore\n      0x06\n      swap1\n      swap3\n      add\n      sload\n      dup3\n      and\n      0x40\n      swap1\n      swap2\n      add\n      mstore\n        /* \"contracts/OrderManager.sol\":10929:10937  order.id */\n      dup2\n      mload\n        /* \"contracts/OrderManager.sol\":10878:10914  Order memory order = orders[orderId] */\n      swap2\n      swap3\n      pop\n        /* \"contracts/OrderManager.sol\":10929:10942  order.id == 0 */\n      and\n      0x00\n      sub\n        /* \"contracts/OrderManager.sol\":10925:10987  if (order.id == 0) revert OrderManager__OrderNotFound(orderId) */\n      tag_114\n      jumpi\n        /* \"contracts/OrderManager.sol\":10979:10986  orderId */\n      dup3\n        /* \"contracts/OrderManager.sol\":10951:10987  OrderManager__OrderNotFound(orderId) */\n      mload(0x40)\n      shl(0xe4, 0x05e8f385)\n      dup2\n      mstore\n      0x04\n      add\n      tag_115\n      swap2\n      swap1\n      tag_49\n      jump\t// in\n    tag_115:\n      mload(0x40)\n      dup1\n      swap2\n      sub\n      swap1\n      revert\n        /* \"contracts/OrderManager.sol\":10925:10987  if (order.id == 0) revert OrderManager__OrderNotFound(orderId) */\n    tag_114:\n        /* \"contracts/OrderManager.sol\":11005:11010  order */\n      swap3\n        /* \"contracts/OrderManager.sol\":10786:11018  function getOrder(uint128 orderId) external view override returns (Order memory) {... */\n      swap2\n      pop\n      pop\n      jump\t// out\n        /* \"contracts/OrderManager.sol\":3260:3542  function setPlatformFee(uint256 _newFeePercent) external onlyOwner {... */\n    tag_29:\n        /* \"@openzeppelin/contracts-upgradeable/access/OwnableUpgradeable.sol\":2334:2347  _checkOwner() */\n      tag_117\n        /* \"@openzeppelin/contracts-upgradeable/access/OwnableUpgradeable.sol\":2334:2345  _checkOwner */\n      tag_118\n        /* \"@openzeppelin/contracts-upgradeable/access/OwnableUpgradeable.sol\":2334:2347  _checkOwner() */\n      jump\t// in\n    tag_117:\n        /* \"contracts/OrderManager.sol\":3359:3361  50 */\n      0x32\n        /* \"contracts/OrderManager.sol\":3342:3356  _newFeePercent */\n      dup2\n        /* \"contracts/OrderManager.sol\":3342:3361  _newFeePercent > 50 */\n      gt\n        /* \"contracts/OrderManager.sol\":3338:3418  if (_newFeePercent > 50) revert OrderManager__PlatformFeeTooHigh(_newFeePercent) */\n      iszero\n      tag_120\n      jumpi\n        /* \"contracts/OrderManager.sol\":3370:3418  OrderManager__PlatformFeeTooHigh(_newFeePercent) */\n      mload(0x40)\n      shl(0xe2, 0x2be52f15)\n      dup2\n      mstore\n      0x04\n      dup2\n      add\n        /* \"#utility.yul\":5631:5656   */\n      dup3\n      swap1\n      mstore\n        /* \"#utility.yul\":5604:5622   */\n      0x24\n      add\n        /* \"contracts/OrderManager.sol\":3370:3418  OrderManager__PlatformFeeTooHigh(_newFeePercent) */\n      tag_115\n        /* \"#utility.yul\":5485:5662   */\n      jump\n        /* \"contracts/OrderManager.sol\":3338:3418  if (_newFeePercent > 50) revert OrderManager__PlatformFeeTooHigh(_newFeePercent) */\n    tag_120:\n        /* \"contracts/OrderManager.sol\":3453:3471  platformFeePercent */\n      sload(0x06)\n        /* \"contracts/OrderManager.sol\":3434:3488  PlatformFeeUpdated(platformFeePercent, _newFeePercent) */\n      0x40\n      dup1\n      mload\n        /* \"#utility.yul\":10810:10835   */\n      swap2\n      dup3\n      mstore\n        /* \"#utility.yul\":10866:10868   */\n      0x20\n        /* \"#utility.yul\":10851:10869   */\n      dup3\n      add\n        /* \"#utility.yul\":10844:10878   */\n      dup4\n      swap1\n      mstore\n        /* \"contracts/OrderManager.sol\":3434:3488  PlatformFeeUpdated(platformFeePercent, _newFeePercent) */\n      0xd347e206f25a89b917fc9482f1a2d294d749baa4dc9bde7fb495ee11fe491643\n      swap2\n        /* \"#utility.yul\":10783:10801   */\n      add\n        /* \"contracts/OrderManager.sol\":3434:3488  PlatformFeeUpdated(platformFeePercent, _newFeePercent) */\n      mload(0x40)\n      dup1\n      swap2\n      sub\n      swap1\n      log1\n        /* \"contracts/OrderManager.sol\":3499:3517  platformFeePercent */\n      0x06\n        /* \"contracts/OrderManager.sol\":3499:3534  platformFeePercent = _newFeePercent */\n      sstore\n        /* \"contracts/OrderManager.sol\":3260:3542  function setPlatformFee(uint256 _newFeePercent) external onlyOwner {... */\n      jump\t// out\n        /* \"contracts/OrderManager.sol\":9735:10778  function updateOrderStatus(address staffEoa, uint128 orderId, OrderStatus newStatus, uint128 staffRestaurantId) external override onlyFoodAppContract {... */\n    tag_34:\n        /* \"contracts/OrderManager.sol\":2363:2385  foodAppContractAddress */\n      and(sub(shl(0xa0, 0x01), 0x01), sload(0x05))\n        /* \"contracts/OrderManager.sol\":2349:2359  msg.sender */\n      caller\n        /* \"contracts/OrderManager.sol\":2349:2385  msg.sender != foodAppContractAddress */\n      eq\n        /* \"contracts/OrderManager.sol\":2345:2420  if (msg.sender != foodAppContractAddress) revert OrderManager__NotFoodApp() */\n      tag_125\n      jumpi\n        /* \"contracts/OrderManager.sol\":2394:2420  OrderManager__NotFoodApp() */\n      mload(0x40)\n      shl(0xe0, 0x92b2f959)\n      dup2\n      mstore\n      0x04\n      add\n      mload(0x40)\n      dup1\n      swap2\n      sub\n      swap1\n      revert\n        /* \"contracts/OrderManager.sol\":2345:2420  if (msg.sender != foodAppContractAddress) revert OrderManager__NotFoodApp() */\n    tag_125:\n      sub(shl(0x80, 0x01), 0x01)\n        /* \"contracts/OrderManager.sol\":9926:9941  orders[orderId] */\n      dup1\n      dup5\n      and\n        /* \"contracts/OrderManager.sol\":9896:9923  Order storage orderToUpdate */\n      0x00\n        /* \"contracts/OrderManager.sol\":9926:9941  orders[orderId] */\n      swap1\n      dup2\n      mstore\n        /* \"contracts/OrderManager.sol\":9926:9932  orders */\n      0x02\n        /* \"contracts/OrderManager.sol\":9926:9941  orders[orderId] */\n      0x20\n      mstore\n      0x40\n      dup2\n      keccak256\n        /* \"contracts/OrderManager.sol\":9956:9972  orderToUpdate.id */\n      dup1\n      sload\n        /* \"contracts/OrderManager.sol\":9926:9941  orders[orderId] */\n      swap1\n      swap3\n        /* \"contracts/OrderManager.sol\":9956:9972  orderToUpdate.id */\n      and\n        /* \"contracts/OrderManager.sol\":9956:9977  orderToUpdate.id == 0 */\n      swap1\n      sub\n        /* \"contracts/OrderManager.sol\":9952:10022  if (orderToUpdate.id == 0) revert OrderManager__OrderNotFound(orderId) */\n      tag_127\n      jumpi\n        /* \"contracts/OrderManager.sol\":10014:10021  orderId */\n      dup4\n        /* \"contracts/OrderManager.sol\":9986:10022  OrderManager__OrderNotFound(orderId) */\n      mload(0x40)\n      shl(0xe4, 0x05e8f385)\n      dup2\n      mstore\n      0x04\n      add\n      tag_115\n      swap2\n      swap1\n      tag_49\n      jump\t// in\n        /* \"contracts/OrderManager.sol\":9952:10022  if (orderToUpdate.id == 0) revert OrderManager__OrderNotFound(orderId) */\n    tag_127:\n        /* \"contracts/OrderManager.sol\":10037:10063  orderToUpdate.restaurantId */\n      0x02\n      dup2\n      add\n      sload\n      sub(shl(0x80, 0x01), 0x01)\n        /* \"contracts/OrderManager.sol\":10037:10084  orderToUpdate.restaurantId != staffRestaurantId */\n      dup4\n      dup2\n      and\n        /* \"contracts/OrderManager.sol\":10037:10063  orderToUpdate.restaurantId */\n      swap2\n      and\n        /* \"contracts/OrderManager.sol\":10037:10084  orderToUpdate.restaurantId != staffRestaurantId */\n      eq\n        /* \"contracts/OrderManager.sol\":10033:10215  if (orderToUpdate.restaurantId != staffRestaurantId) {... */\n      tag_129\n      jumpi\n        /* \"contracts/OrderManager.sol\":10157:10183  orderToUpdate.restaurantId */\n      0x02\n      dup2\n      add\n      sload\n        /* \"contracts/OrderManager.sol\":10108:10203  OrderManager__CallerNotRestaurantStaff(staffEoa, orderToUpdate.restaurantId, staffRestaurantId) */\n      mload(0x40)\n      shl(0xe0, 0xd52781e9)\n      dup2\n      mstore\n      tag_115\n      swap2\n        /* \"contracts/OrderManager.sol\":10147:10155  staffEoa */\n      dup8\n      swap2\n      sub(shl(0x80, 0x01), 0x01)\n        /* \"contracts/OrderManager.sol\":10157:10183  orderToUpdate.restaurantId */\n      swap1\n      swap2\n      and\n      swap1\n        /* \"contracts/OrderManager.sol\":10185:10202  staffRestaurantId */\n      dup6\n      swap1\n        /* \"contracts/OrderManager.sol\":10108:10203  OrderManager__CallerNotRestaurantStaff(staffEoa, orderToUpdate.restaurantId, staffRestaurantId) */\n      0x04\n      add\n      tag_131\n      jump\t// in\n        /* \"contracts/OrderManager.sol\":10033:10215  if (orderToUpdate.restaurantId != staffRestaurantId) {... */\n    tag_129:\n        /* \"contracts/OrderManager.sol\":10255:10276  OrderStatus.Completed */\n      0x05\n        /* \"contracts/OrderManager.sol\":10231:10251  orderToUpdate.status */\n      dup1\n      dup3\n      add\n      sload\n      0xff\n      and\n        /* \"contracts/OrderManager.sol\":10231:10276  orderToUpdate.status == OrderStatus.Completed */\n      0x06\n      dup2\n      gt\n      iszero\n      tag_135\n      jumpi\n      tag_135\n      tag_111\n      jump\t// in\n    tag_135:\n      eq\n        /* \"contracts/OrderManager.sol\":10231:10325  orderToUpdate.status == OrderStatus.Completed || orderToUpdate.status == OrderStatus.Cancelled */\n      dup1\n      tag_136\n      jumpi\n      pop\n        /* \"contracts/OrderManager.sol\":10304:10325  OrderStatus.Cancelled */\n      0x06\n        /* \"contracts/OrderManager.sol\":10280:10300  orderToUpdate.status */\n      0x05\n      dup3\n      add\n      sload\n      0xff\n      and\n        /* \"contracts/OrderManager.sol\":10280:10325  orderToUpdate.status == OrderStatus.Cancelled */\n      0x06\n      dup2\n      gt\n      iszero\n      tag_140\n      jumpi\n      tag_140\n      tag_111\n      jump\t// in\n    tag_140:\n      eq\n        /* \"contracts/OrderManager.sol\":10231:10325  orderToUpdate.status == OrderStatus.Completed || orderToUpdate.status == OrderStatus.Cancelled */\n    tag_136:\n        /* \"contracts/OrderManager.sol\":10227:10450  if (orderToUpdate.status == OrderStatus.Completed || orderToUpdate.status == OrderStatus.Cancelled) {... */\n      iszero\n      tag_141\n      jumpi\n        /* \"contracts/OrderManager.sol\":10391:10411  orderToUpdate.status */\n      0x05\n      dup2\n      add\n      sload\n        /* \"contracts/OrderManager.sol\":10349:10438  OrderManager__InvalidOrderStatusForAction(orderToUpdate.status, \"update (already final)\") */\n      mload(0x40)\n      shl(0xe0, 0x388a923d)\n      dup2\n      mstore\n      tag_115\n      swap2\n        /* \"contracts/OrderManager.sol\":10391:10411  orderToUpdate.status */\n      0xff\n      and\n      swap1\n        /* \"contracts/OrderManager.sol\":10349:10438  OrderManager__InvalidOrderStatusForAction(orderToUpdate.status, \"update (already final)\") */\n      0x04\n      add\n      tag_143\n      jump\t// in\n        /* \"contracts/OrderManager.sol\":10227:10450  if (orderToUpdate.status == OrderStatus.Completed || orderToUpdate.status == OrderStatus.Cancelled) {... */\n    tag_141:\n        /* \"contracts/OrderManager.sol\":10477:10495  OrderStatus.Placed */\n      0x00\n        /* \"contracts/OrderManager.sol\":10464:10473  newStatus */\n      dup4\n        /* \"contracts/OrderManager.sol\":10464:10495  newStatus == OrderStatus.Placed */\n      0x06\n      dup2\n      gt\n      iszero\n      tag_147\n      jumpi\n      tag_147\n      tag_111\n      jump\t// in\n    tag_147:\n      sub\n        /* \"contracts/OrderManager.sol\":10460:10606  if (newStatus == OrderStatus.Placed) {... */\n      tag_148\n      jumpi\n        /* \"contracts/OrderManager.sol\":10562:10582  orderToUpdate.status */\n      0x05\n      dup2\n      add\n      sload\n        /* \"contracts/OrderManager.sol\":10519:10594  OrderManager__InvalidOrderStatusTransition(orderToUpdate.status, newStatus) */\n      mload(0x40)\n      shl(0xe1, 0x14fdbd5f)\n      dup2\n      mstore\n      tag_115\n      swap2\n        /* \"contracts/OrderManager.sol\":10562:10582  orderToUpdate.status */\n      0xff\n      and\n      swap1\n        /* \"contracts/OrderManager.sol\":10584:10593  newStatus */\n      dup6\n      swap1\n        /* \"contracts/OrderManager.sol\":10519:10594  OrderManager__InvalidOrderStatusTransition(orderToUpdate.status, newStatus) */\n      0x04\n      add\n      tag_150\n      jump\t// in\n        /* \"contracts/OrderManager.sol\":10460:10606  if (newStatus == OrderStatus.Placed) {... */\n    tag_148:\n        /* \"contracts/OrderManager.sol\":10642:10662  orderToUpdate.status */\n      0x05\n      dup2\n      add\n      dup1\n      sload\n      0xff\n      dup2\n      and\n      swap2\n        /* \"contracts/OrderManager.sol\":10696:10705  newStatus */\n      dup6\n      swap2\n      not(0xff)\n        /* \"contracts/OrderManager.sol\":10673:10705  orderToUpdate.status = newStatus */\n      and\n        /* \"contracts/OrderManager.sol\":10642:10662  orderToUpdate.status */\n      0x01\n        /* \"contracts/OrderManager.sol\":10696:10705  newStatus */\n      dup4\n        /* \"contracts/OrderManager.sol\":10673:10705  orderToUpdate.status = newStatus */\n      0x06\n      dup2\n      gt\n      iszero\n      tag_152\n      jumpi\n      tag_152\n      tag_111\n      jump\t// in\n    tag_152:\n      mul\n      or\n      swap1\n      sstore\n      pop\n        /* \"contracts/OrderManager.sol\":10740:10747  orderId */\n      dup5\n      sub(shl(0x80, 0x01), 0x01)\n        /* \"contracts/OrderManager.sol\":10721:10770  OrderStatusUpdated(orderId, oldStatus, newStatus) */\n      and\n      mload(0x00)\n      codecopy(0x00, data_b22b5ea25ab82ed46b90e610bede48fc5006dae7981915a9ddac0680f2d4071f, 0x20)\n      mload(0x00)\n      swap1\n      0x00\n      mstore\n        /* \"contracts/OrderManager.sol\":10749:10758  oldStatus */\n      dup3\n        /* \"contracts/OrderManager.sol\":10760:10769  newStatus */\n      dup7\n        /* \"contracts/OrderManager.sol\":10721:10770  OrderStatusUpdated(orderId, oldStatus, newStatus) */\n      mload(0x40)\n      tag_153\n      swap3\n      swap2\n      swap1\n      tag_150\n      jump\t// in\n    tag_153:\n      mload(0x40)\n      dup1\n      swap2\n      sub\n      swap1\n      log2\n        /* \"contracts/OrderManager.sol\":9885:10778  {... */\n      pop\n      pop\n        /* \"contracts/OrderManager.sol\":9735:10778  function updateOrderStatus(address staffEoa, uint128 orderId, OrderStatus newStatus, uint128 staffRestaurantId) external override onlyFoodAppContract {... */\n      pop\n      pop\n      pop\n      pop\n      jump\t// out\n        /* \"contracts/OrderManager.sol\":6868:7948  function cancelOrder(address customerEoa, uint128 orderId) external override onlyFoodAppContract nonReentrant {... */\n    tag_39:\n        /* \"contracts/OrderManager.sol\":2363:2385  foodAppContractAddress */\n      and(sub(shl(0xa0, 0x01), 0x01), sload(0x05))\n        /* \"contracts/OrderManager.sol\":2349:2359  msg.sender */\n      caller\n        /* \"contracts/OrderManager.sol\":2349:2385  msg.sender != foodAppContractAddress */\n      eq\n        /* \"contracts/OrderManager.sol\":2345:2420  if (msg.sender != foodAppContractAddress) revert OrderManager__NotFoodApp() */\n      tag_155\n      jumpi\n        /* \"contracts/OrderManager.sol\":2394:2420  OrderManager__NotFoodApp() */\n      mload(0x40)\n      shl(0xe0, 0x92b2f959)\n      dup2\n      mstore\n      0x04\n      add\n      mload(0x40)\n      dup1\n      swap2\n      sub\n      swap1\n      revert\n        /* \"contracts/OrderManager.sol\":2345:2420  if (msg.sender != foodAppContractAddress) revert OrderManager__NotFoodApp() */\n    tag_155:\n        /* \"@openzeppelin/contracts/utils/ReentrancyGuard.sol\":2500:2521  _nonReentrantBefore() */\n      tag_157\n        /* \"@openzeppelin/contracts/utils/ReentrancyGuard.sol\":2500:2519  _nonReentrantBefore */\n      tag_158\n        /* \"@openzeppelin/contracts/utils/ReentrancyGuard.sol\":2500:2521  _nonReentrantBefore() */\n      jump\t// in\n    tag_157:\n      sub(shl(0x80, 0x01), 0x01)\n        /* \"contracts/OrderManager.sol\":7019:7034  orders[orderId] */\n      dup1\n      dup3\n      and\n        /* \"contracts/OrderManager.sol\":6989:7016  Order storage orderToCancel */\n      0x00\n        /* \"contracts/OrderManager.sol\":7019:7034  orders[orderId] */\n      swap1\n      dup2\n      mstore\n        /* \"contracts/OrderManager.sol\":7019:7025  orders */\n      0x02\n        /* \"contracts/OrderManager.sol\":7019:7034  orders[orderId] */\n      0x20\n      mstore\n      0x40\n      dup2\n      keccak256\n        /* \"contracts/OrderManager.sol\":7049:7065  orderToCancel.id */\n      dup1\n      sload\n        /* \"contracts/OrderManager.sol\":7019:7034  orders[orderId] */\n      swap1\n      swap3\n        /* \"contracts/OrderManager.sol\":7049:7065  orderToCancel.id */\n      and\n        /* \"contracts/OrderManager.sol\":7049:7070  orderToCancel.id == 0 */\n      swap1\n      sub\n        /* \"contracts/OrderManager.sol\":7045:7115  if (orderToCancel.id == 0) revert OrderManager__OrderNotFound(orderId) */\n      tag_160\n      jumpi\n        /* \"contracts/OrderManager.sol\":7107:7114  orderId */\n      dup2\n        /* \"contracts/OrderManager.sol\":7079:7115  OrderManager__OrderNotFound(orderId) */\n      mload(0x40)\n      shl(0xe4, 0x05e8f385)\n      dup2\n      mstore\n      0x04\n      add\n      tag_115\n      swap2\n      swap1\n      tag_49\n      jump\t// in\n        /* \"contracts/OrderManager.sol\":7045:7115  if (orderToCancel.id == 0) revert OrderManager__OrderNotFound(orderId) */\n    tag_160:\n        /* \"contracts/OrderManager.sol\":7130:7152  orderToCancel.customer */\n      0x01\n      dup2\n      add\n      sload\n      sub(shl(0xa0, 0x01), 0x01)\n        /* \"contracts/OrderManager.sol\":7130:7167  orderToCancel.customer != customerEoa */\n      dup5\n      dup2\n      and\n        /* \"contracts/OrderManager.sol\":7130:7152  orderToCancel.customer */\n      swap2\n      and\n        /* \"contracts/OrderManager.sol\":7130:7167  orderToCancel.customer != customerEoa */\n      eq\n        /* \"contracts/OrderManager.sol\":7126:7225  if (orderToCancel.customer != customerEoa) revert OrderManager__NotOrderOwner(customerEoa, orderId) */\n      tag_162\n      jumpi\n        /* \"contracts/OrderManager.sol\":7176:7225  OrderManager__NotOrderOwner(customerEoa, orderId) */\n      mload(0x40)\n      shl(0xe0, 0x71c4943f)\n      dup2\n      mstore\n      sub(shl(0xa0, 0x01), 0x01)\n        /* \"#utility.yul\":12264:12296   */\n      dup5\n      and\n        /* \"contracts/OrderManager.sol\":7176:7225  OrderManager__NotOrderOwner(customerEoa, orderId) */\n      0x04\n      dup3\n      add\n        /* \"#utility.yul\":12246:12297   */\n      mstore\n      sub(shl(0x80, 0x01), 0x01)\n        /* \"#utility.yul\":12333:12365   */\n      dup4\n      and\n        /* \"#utility.yul\":12313:12331   */\n      0x24\n      dup3\n      add\n        /* \"#utility.yul\":12306:12366   */\n      mstore\n        /* \"#utility.yul\":12219:12237   */\n      0x44\n      add\n        /* \"contracts/OrderManager.sol\":7176:7225  OrderManager__NotOrderOwner(customerEoa, orderId) */\n      tag_115\n        /* \"#utility.yul\":12072:12372   */\n      jump\n        /* \"contracts/OrderManager.sol\":7126:7225  if (orderToCancel.customer != customerEoa) revert OrderManager__NotOrderOwner(customerEoa, orderId) */\n    tag_162:\n        /* \"contracts/OrderManager.sol\":7266:7284  OrderStatus.Placed */\n      0x00\n        /* \"contracts/OrderManager.sol\":7242:7262  orderToCancel.status */\n      0x05\n      dup3\n      add\n      sload\n      0xff\n      and\n        /* \"contracts/OrderManager.sol\":7242:7284  orderToCancel.status != OrderStatus.Placed */\n      0x06\n      dup2\n      gt\n      iszero\n      tag_168\n      jumpi\n      tag_168\n      tag_111\n      jump\t// in\n    tag_168:\n      eq\n      iszero\n        /* \"contracts/OrderManager.sol\":7242:7333  orderToCancel.status != OrderStatus.Placed && orderToCancel.status != OrderStatus.Confirmed */\n      dup1\n      iszero\n      tag_169\n      jumpi\n      pop\n        /* \"contracts/OrderManager.sol\":7312:7333  OrderStatus.Confirmed */\n      0x01\n        /* \"contracts/OrderManager.sol\":7288:7308  orderToCancel.status */\n      0x05\n      dup3\n      add\n      sload\n      0xff\n      and\n        /* \"contracts/OrderManager.sol\":7288:7333  orderToCancel.status != OrderStatus.Confirmed */\n      0x06\n      dup2\n      gt\n      iszero\n      tag_173\n      jumpi\n      tag_173\n      tag_111\n      jump\t// in\n    tag_173:\n      eq\n      iszero\n        /* \"contracts/OrderManager.sol\":7242:7333  orderToCancel.status != OrderStatus.Placed && orderToCancel.status != OrderStatus.Confirmed */\n    tag_169:\n        /* \"contracts/OrderManager.sol\":7238:7442  if (orderToCancel.status != OrderStatus.Placed && orderToCancel.status != OrderStatus.Confirmed) {... */\n      iszero\n      tag_174\n      jumpi\n        /* \"contracts/OrderManager.sol\":7399:7419  orderToCancel.status */\n      0x05\n      dup2\n      add\n      sload\n        /* \"contracts/OrderManager.sol\":7357:7430  OrderManager__InvalidOrderStatusForAction(orderToCancel.status, \"cancel\") */\n      mload(0x40)\n      shl(0xe0, 0x388a923d)\n      dup2\n      mstore\n      tag_115\n      swap2\n        /* \"contracts/OrderManager.sol\":7399:7419  orderToCancel.status */\n      0xff\n      and\n      swap1\n        /* \"contracts/OrderManager.sol\":7357:7430  OrderManager__InvalidOrderStatusForAction(orderToCancel.status, \"cancel\") */\n      0x04\n      add\n      tag_176\n      jump\t// in\n        /* \"contracts/OrderManager.sol\":7238:7442  if (orderToCancel.status != OrderStatus.Placed && orderToCancel.status != OrderStatus.Confirmed) {... */\n    tag_174:\n        /* \"contracts/OrderManager.sol\":7478:7498  orderToCancel.status */\n      0x05\n      dup2\n      add\n      dup1\n      sload\n      not(0xff)\n        /* \"contracts/OrderManager.sol\":7509:7553  orderToCancel.status = OrderStatus.Cancelled */\n      dup2\n      and\n        /* \"contracts/OrderManager.sol\":7532:7553  OrderStatus.Cancelled */\n      0x06\n        /* \"contracts/OrderManager.sol\":7509:7553  orderToCancel.status = OrderStatus.Cancelled */\n      or\n      swap1\n      swap2\n      sstore\n        /* \"contracts/OrderManager.sol\":7570:7594  orderToCancel.totalPrice */\n      0x04\n      dup3\n      add\n      sload\n        /* \"contracts/OrderManager.sol\":7478:7498  orderToCancel.status */\n      0xff\n      swap1\n      swap2\n      and\n      swap1\n        /* \"contracts/OrderManager.sol\":7570:7598  orderToCancel.totalPrice > 0 */\n      iszero\n        /* \"contracts/OrderManager.sol\":7566:7784  if (orderToCancel.totalPrice > 0) {... */\n      tag_179\n      jumpi\n        /* \"contracts/OrderManager.sol\":7641:7663  orderToCancel.customer */\n      0x01\n      dup3\n      add\n      sload\n        /* \"contracts/OrderManager.sol\":7677:7701  orderToCancel.totalPrice */\n      0x04\n      dup4\n      add\n      sload\n        /* \"contracts/OrderManager.sol\":7633:7706  payable(orderToCancel.customer).call{value: orderToCancel.totalPrice}(\"\") */\n      mload(0x40)\n        /* \"contracts/OrderManager.sol\":7616:7628  bool success */\n      0x00\n      swap3\n      sub(shl(0xa0, 0x01), 0x01)\n        /* \"contracts/OrderManager.sol\":7641:7663  orderToCancel.customer */\n      and\n      swap2\n        /* \"contracts/OrderManager.sol\":7677:7701  orderToCancel.totalPrice */\n      swap1\n        /* \"contracts/OrderManager.sol\":7616:7628  bool success */\n      dup4\n        /* \"contracts/OrderManager.sol\":7633:7706  payable(orderToCancel.customer).call{value: orderToCancel.totalPrice}(\"\") */\n      dup2\n        /* \"contracts/OrderManager.sol\":7616:7628  bool success */\n      dup2\n        /* \"contracts/OrderManager.sol\":7633:7706  payable(orderToCancel.customer).call{value: orderToCancel.totalPrice}(\"\") */\n      dup2\n        /* \"contracts/OrderManager.sol\":7677:7701  orderToCancel.totalPrice */\n      dup6\n        /* \"contracts/OrderManager.sol\":7641:7663  orderToCancel.customer */\n      dup8\n        /* \"contracts/OrderManager.sol\":7633:7706  payable(orderToCancel.customer).call{value: orderToCancel.totalPrice}(\"\") */\n      gas\n      call\n      swap3\n      pop\n      pop\n      pop\n      returndatasize\n      dup1\n      0x00\n      dup2\n      eq\n      tag_184\n      jumpi\n      mload(0x40)\n      swap2\n      pop\n      and(add(returndatasize, 0x3f), not(0x1f))\n      dup3\n      add\n      0x40\n      mstore\n      returndatasize\n      dup3\n      mstore\n      returndatasize\n      0x00\n      0x20\n      dup5\n      add\n      returndatacopy\n      jump(tag_183)\n    tag_184:\n      0x60\n      swap2\n      pop\n    tag_183:\n      pop\n        /* \"contracts/OrderManager.sol\":7615:7706  (bool success,) = payable(orderToCancel.customer).call{value: orderToCancel.totalPrice}(\"\") */\n      pop\n      swap1\n      pop\n        /* \"contracts/OrderManager.sol\":7726:7733  success */\n      dup1\n        /* \"contracts/OrderManager.sol\":7721:7772  if (!success) revert OrderManager__TransferFailed() */\n      tag_185\n      jumpi\n        /* \"contracts/OrderManager.sol\":7742:7772  OrderManager__TransferFailed() */\n      mload(0x40)\n      shl(0xe1, 0x4239e21d)\n      dup2\n      mstore\n      0x04\n      add\n      mload(0x40)\n      dup1\n      swap2\n      sub\n      swap1\n      revert\n        /* \"contracts/OrderManager.sol\":7721:7772  if (!success) revert OrderManager__TransferFailed() */\n    tag_185:\n        /* \"contracts/OrderManager.sol\":7600:7784  {... */\n      pop\n        /* \"contracts/OrderManager.sol\":7566:7784  if (orderToCancel.totalPrice > 0) {... */\n    tag_179:\n        /* \"contracts/OrderManager.sol\":7825:7836  customerEoa */\n      dup4\n      sub(shl(0xa0, 0x01), 0x01)\n        /* \"contracts/OrderManager.sol\":7801:7863  OrderCancelled(orderId, customerEoa, orderToCancel.totalPrice) */\n      and\n        /* \"contracts/OrderManager.sol\":7816:7823  orderId */\n      dup4\n      sub(shl(0x80, 0x01), 0x01)\n        /* \"contracts/OrderManager.sol\":7801:7863  OrderCancelled(orderId, customerEoa, orderToCancel.totalPrice) */\n      and\n      0x70af4296e6226c6ef4207be3522ff55647a797b6dc909d2d31f67551e9adac5d\n        /* \"contracts/OrderManager.sol\":7838:7851  orderToCancel */\n      dup5\n        /* \"contracts/OrderManager.sol\":7838:7862  orderToCancel.totalPrice */\n      0x04\n      add\n      sload\n        /* \"contracts/OrderManager.sol\":7801:7863  OrderCancelled(orderId, customerEoa, orderToCancel.totalPrice) */\n      mload(0x40)\n      tag_186\n      swap2\n        /* \"#utility.yul\":5631:5656   */\n      dup2\n      mstore\n        /* \"#utility.yul\":5619:5621   */\n      0x20\n        /* \"#utility.yul\":5604:5622   */\n      add\n      swap1\n        /* \"#utility.yul\":5485:5662   */\n      jump\n        /* \"contracts/OrderManager.sol\":7801:7863  OrderCancelled(orderId, customerEoa, orderToCancel.totalPrice) */\n    tag_186:\n      mload(0x40)\n      dup1\n      swap2\n      sub\n      swap1\n      log3\n        /* \"contracts/OrderManager.sol\":7898:7905  orderId */\n      dup3\n      sub(shl(0x80, 0x01), 0x01)\n        /* \"contracts/OrderManager.sol\":7879:7940  OrderStatusUpdated(orderId, oldStatus, OrderStatus.Cancelled) */\n      and\n      mload(0x00)\n      codecopy(0x00, data_b22b5ea25ab82ed46b90e610bede48fc5006dae7981915a9ddac0680f2d4071f, 0x20)\n      mload(0x00)\n      swap1\n      0x00\n      mstore\n        /* \"contracts/OrderManager.sol\":7907:7916  oldStatus */\n      dup3\n        /* \"contracts/OrderManager.sol\":7918:7939  OrderStatus.Cancelled */\n      0x06\n        /* \"contracts/OrderManager.sol\":7879:7940  OrderStatusUpdated(orderId, oldStatus, OrderStatus.Cancelled) */\n      mload(0x40)\n      tag_187\n      swap3\n      swap2\n      swap1\n      tag_150\n      jump\t// in\n    tag_187:\n      mload(0x40)\n      dup1\n      swap2\n      sub\n      swap1\n      log2\n        /* \"contracts/OrderManager.sol\":6978:7948  {... */\n      pop\n      pop\n        /* \"@openzeppelin/contracts/utils/ReentrancyGuard.sol\":2542:2562  _nonReentrantAfter() */\n      tag_188\n        /* \"@openzeppelin/contracts/utils/ReentrancyGuard.sol\":1857:1858  1 */\n      0x01\n        /* \"@openzeppelin/contracts/utils/ReentrancyGuard.sol\":3068:3075  _status */\n      0x00\n        /* \"@openzeppelin/contracts/utils/ReentrancyGuard.sol\":3068:3089  _status = NOT_ENTERED */\n      sstore\n        /* \"@openzeppelin/contracts/utils/ReentrancyGuard.sol\":2888:3096  function _nonReentrantAfter() private {... */\n      jump\n        /* \"@openzeppelin/contracts/utils/ReentrancyGuard.sol\":2542:2562  _nonReentrantAfter() */\n    tag_188:\n        /* \"contracts/OrderManager.sol\":6868:7948  function cancelOrder(address customerEoa, uint128 orderId) external override onlyFoodAppContract nonReentrant {... */\n      pop\n      pop\n      jump\t// out\n        /* \"@openzeppelin/contracts-upgradeable/access/OwnableUpgradeable.sol\":3155:3256  function renounceOwnership() public virtual onlyOwner {... */\n    tag_57:\n        /* \"@openzeppelin/contracts-upgradeable/access/OwnableUpgradeable.sol\":2334:2347  _checkOwner() */\n      tag_191\n        /* \"@openzeppelin/contracts-upgradeable/access/OwnableUpgradeable.sol\":2334:2345  _checkOwner */\n      tag_118\n        /* \"@openzeppelin/contracts-upgradeable/access/OwnableUpgradeable.sol\":2334:2347  _checkOwner() */\n      jump\t// in\n    tag_191:\n        /* \"@openzeppelin/contracts-upgradeable/access/OwnableUpgradeable.sol\":3219:3249  _transferOwnership(address(0)) */\n      tag_193\n        /* \"@openzeppelin/contracts-upgradeable/access/OwnableUpgradeable.sol\":3246:3247  0 */\n      0x00\n        /* \"@openzeppelin/contracts-upgradeable/access/OwnableUpgradeable.sol\":3219:3237  _transferOwnership */\n      tag_194\n        /* \"@openzeppelin/contracts-upgradeable/access/OwnableUpgradeable.sol\":3219:3249  _transferOwnership(address(0)) */\n      jump\t// in\n    tag_193:\n        /* \"@openzeppelin/contracts-upgradeable/access/OwnableUpgradeable.sol\":3155:3256  function renounceOwnership() public virtual onlyOwner {... */\n      jump\t// out\n        /* \"@openzeppelin/contracts-upgradeable/access/OwnableUpgradeable.sol\":2441:2585  function owner() public view virtual returns (address) {... */\n    tag_70:\n        /* \"@openzeppelin/contracts-upgradeable/access/OwnableUpgradeable.sol\":2487:2494  address */\n      0x00\n        /* \"@openzeppelin/contracts-upgradeable/access/OwnableUpgradeable.sol\":2506:2530  OwnableStorage storage $ */\n      0x00\n        /* \"@openzeppelin/contracts-upgradeable/access/OwnableUpgradeable.sol\":2533:2553  _getOwnableStorage() */\n      tag_196\n        /* \"@openzeppelin/contracts-upgradeable/access/OwnableUpgradeable.sol\":2533:2551  _getOwnableStorage */\n      tag_197\n        /* \"@openzeppelin/contracts-upgradeable/access/OwnableUpgradeable.sol\":2533:2553  _getOwnableStorage() */\n      jump\t// in\n    tag_196:\n        /* \"@openzeppelin/contracts-upgradeable/access/OwnableUpgradeable.sol\":2570:2578  $._owner */\n      sload\n      sub(shl(0xa0, 0x01), 0x01)\n      and\n      swap3\n        /* \"@openzeppelin/contracts-upgradeable/access/OwnableUpgradeable.sol\":2441:2585  function owner() public view virtual returns (address) {... */\n      swap2\n      pop\n      pop\n      jump\t// out\n        /* \"contracts/OrderManager.sol\":3550:6410  function placeOrder(... */\n    tag_75:\n        /* \"contracts/OrderManager.sol\":2363:2385  foodAppContractAddress */\n      and(sub(shl(0xa0, 0x01), 0x01), sload(0x05))\n        /* \"contracts/OrderManager.sol\":2349:2359  msg.sender */\n      caller\n        /* \"contracts/OrderManager.sol\":2349:2385  msg.sender != foodAppContractAddress */\n      eq\n        /* \"contracts/OrderManager.sol\":2345:2420  if (msg.sender != foodAppContractAddress) revert OrderManager__NotFoodApp() */\n      tag_199\n      jumpi\n        /* \"contracts/OrderManager.sol\":2394:2420  OrderManager__NotFoodApp() */\n      mload(0x40)\n      shl(0xe0, 0x92b2f959)\n      dup2\n      mstore\n      0x04\n      add\n      mload(0x40)\n      dup1\n      swap2\n      sub\n      swap1\n      revert\n        /* \"contracts/OrderManager.sol\":2345:2420  if (msg.sender != foodAppContractAddress) revert OrderManager__NotFoodApp() */\n    tag_199:\n        /* \"@openzeppelin/contracts/utils/ReentrancyGuard.sol\":2500:2521  _nonReentrantBefore() */\n      tag_201\n        /* \"@openzeppelin/contracts/utils/ReentrancyGuard.sol\":2500:2519  _nonReentrantBefore */\n      tag_158\n        /* \"@openzeppelin/contracts/utils/ReentrancyGuard.sol\":2500:2521  _nonReentrantBefore() */\n      jump\t// in\n    tag_201:\n        /* \"contracts/OrderManager.sol\":3803:3813  quantities */\n      dup1\n        /* \"contracts/OrderManager.sol\":3803:3820  quantities.length */\n      mload\n        /* \"contracts/OrderManager.sol\":3785:3792  itemIds */\n      dup3\n        /* \"contracts/OrderManager.sol\":3785:3799  itemIds.length */\n      mload\n        /* \"contracts/OrderManager.sol\":3785:3820  itemIds.length != quantities.length */\n      eq\n      iszero\n        /* \"contracts/OrderManager.sol\":3785:3843  itemIds.length != quantities.length || itemIds.length == 0 */\n      dup1\n      tag_203\n      jumpi\n      pop\n        /* \"contracts/OrderManager.sol\":3824:3838  itemIds.length */\n      dup2\n      mload\n        /* \"contracts/OrderManager.sol\":3824:3843  itemIds.length == 0 */\n      iszero\n        /* \"contracts/OrderManager.sol\":3785:3843  itemIds.length != quantities.length || itemIds.length == 0 */\n    tag_203:\n        /* \"contracts/OrderManager.sol\":3781:3884  if (itemIds.length != quantities.length || itemIds.length == 0) revert OrderManager__InvalidOrderData() */\n      iszero\n      tag_204\n      jumpi\n        /* \"contracts/OrderManager.sol\":3852:3884  OrderManager__InvalidOrderData() */\n      mload(0x40)\n      shl(0xe1, 0x4482f209)\n      dup2\n      mstore\n      0x04\n      add\n      mload(0x40)\n      dup1\n      swap2\n      sub\n      swap1\n      revert\n        /* \"contracts/OrderManager.sol\":3781:3884  if (itemIds.length != quantities.length || itemIds.length == 0) revert OrderManager__InvalidOrderData() */\n    tag_204:\n      sub(shl(0xa0, 0x01), 0x01)\n        /* \"contracts/OrderManager.sol\":3899:3924  customerEoa == address(0) */\n      dup5\n      and\n        /* \"contracts/OrderManager.sol\":3895:3963  if (customerEoa == address(0)) revert OrderManager__InvalidAddress() */\n      tag_205\n      jumpi\n        /* \"contracts/OrderManager.sol\":3933:3963  OrderManager__InvalidAddress() */\n      mload(0x40)\n      shl(0xe1, 0x2b840735)\n      dup2\n      mstore\n      0x04\n      add\n      mload(0x40)\n      dup1\n      swap2\n      sub\n      swap1\n      revert\n        /* \"contracts/OrderManager.sol\":3895:3963  if (customerEoa == address(0)) revert OrderManager__InvalidAddress() */\n    tag_205:\n        /* \"contracts/OrderManager.sol\":4126:4140  itemIds.length */\n      dup2\n      mload\n        /* \"contracts/OrderManager.sol\":3976:4004  uint256 calculatedTotalPrice */\n      0x00\n      swap1\n      dup2\n      swap1\n      dup2\n      swap1\n      sub(shl(0x40, 0x01), 0x01)\n        /* \"contracts/OrderManager.sol\":4104:4141  new OrderItemDetail[](itemIds.length) */\n      dup2\n      gt\n      iszero\n      tag_207\n      jumpi\n      tag_207\n      tag_208\n      jump\t// in\n    tag_207:\n      mload(0x40)\n      swap1\n      dup1\n      dup3\n      mstore\n      dup1\n      0x20\n      mul\n      0x20\n      add\n      dup3\n      add\n      0x40\n      mstore\n      dup1\n      iszero\n      tag_209\n      jumpi\n      dup2\n      0x20\n      add\n    tag_210:\n      0x40\n      dup1\n      mload\n      0x80\n      dup2\n      add\n      dup3\n      mstore\n      0x00\n      dup1\n      dup3\n      mstore\n      0x60\n      0x20\n      dup1\n      dup5\n      add\n      dup3\n      swap1\n      mstore\n      swap4\n      dup4\n      add\n      dup3\n      swap1\n      mstore\n      dup3\n      add\n      mstore\n      dup3\n      mstore\n      not(0x00)\n      swap1\n      swap3\n      add\n      swap2\n      add\n      dup2\n      tag_210\n      jumpi\n      swap1\n      pop\n    tag_209:\n      pop\n        /* \"contracts/OrderManager.sol\":4060:4141  OrderItemDetail[] memory orderItemsMemory = new OrderItemDetail[](itemIds.length) */\n      swap1\n      pop\n        /* \"contracts/OrderManager.sol\":4176:4185  uint128 i */\n      0x00\n        /* \"contracts/OrderManager.sol\":4171:5044  for (uint128 i = 0; i < itemIds.length; i++) {... */\n    tag_213:\n        /* \"contracts/OrderManager.sol\":4195:4202  itemIds */\n      dup6\n        /* \"contracts/OrderManager.sol\":4195:4209  itemIds.length */\n      mload\n        /* \"contracts/OrderManager.sol\":4191:4192  i */\n      dup2\n      sub(shl(0x80, 0x01), 0x01)\n        /* \"contracts/OrderManager.sol\":4191:4209  i < itemIds.length */\n      and\n      lt\n        /* \"contracts/OrderManager.sol\":4171:5044  for (uint128 i = 0; i < itemIds.length; i++) {... */\n      iszero\n      tag_214\n      jumpi\n        /* \"contracts/OrderManager.sol\":4254:4265  menuManager */\n      sload(0x03)\n        /* \"contracts/OrderManager.sol\":4292:4302  itemIds[i] */\n      dup7\n      mload\n        /* \"contracts/OrderManager.sol\":4231:4251  MenuItem memory item */\n      0x00\n      swap2\n      sub(shl(0xa0, 0x01), 0x01)\n        /* \"contracts/OrderManager.sol\":4254:4265  menuManager */\n      and\n      swap1\n        /* \"contracts/OrderManager.sol\":4254:4277  menuManager.getMenuItem */\n      0x0c528968\n      swap1\n        /* \"contracts/OrderManager.sol\":4278:4290  restaurantId */\n      dup11\n      swap1\n        /* \"contracts/OrderManager.sol\":4292:4299  itemIds */\n      dup11\n      swap1\n      sub(shl(0x80, 0x01), 0x01)\n        /* \"contracts/OrderManager.sol\":4292:4302  itemIds[i] */\n      dup8\n      and\n      swap1\n      dup2\n      lt\n      tag_217\n      jumpi\n      tag_217\n      tag_218\n      jump\t// in\n    tag_217:\n      0x20\n      mul\n      0x20\n      add\n      add\n      mload\n        /* \"contracts/OrderManager.sol\":4254:4303  menuManager.getMenuItem(restaurantId, itemIds[i]) */\n      mload(0x40)\n      dup4\n      0xffffffff\n      and\n      0xe0\n      shl\n      dup2\n      mstore\n      0x04\n      add\n      tag_219\n      swap3\n      swap2\n      swap1\n      tag_220\n      jump\t// in\n    tag_219:\n      0x00\n      mload(0x40)\n      dup1\n      dup4\n      sub\n      dup2\n      dup7\n      gas\n      staticcall\n      iszero\n      dup1\n      iszero\n      tag_222\n      jumpi\n      returndatacopy(0x00, 0x00, returndatasize)\n      revert(0x00, returndatasize)\n    tag_222:\n      pop\n      pop\n      pop\n      pop\n      mload(0x40)\n      returndatasize\n      0x00\n      dup3\n      returndatacopy\n      0x1f\n      returndatasize\n      swap1\n      dup2\n      add\n      not(0x1f)\n      and\n      dup3\n      add\n      0x40\n      mstore\n      tag_223\n      swap2\n      swap1\n      dup2\n      add\n      swap1\n      tag_224\n      jump\t// in\n    tag_223:\n        /* \"contracts/OrderManager.sol\":4322:4329  item.id */\n      dup1\n      mload\n        /* \"contracts/OrderManager.sol\":4231:4303  MenuItem memory item = menuManager.getMenuItem(restaurantId, itemIds[i]) */\n      swap1\n      swap2\n      pop\n      sub(shl(0x80, 0x01), 0x01)\n        /* \"contracts/OrderManager.sol\":4322:4334  item.id == 0 */\n      and\n        /* \"contracts/OrderManager.sol\":4322:4329  item.id */\n      0x00\n        /* \"contracts/OrderManager.sol\":4322:4334  item.id == 0 */\n      sub\n        /* \"contracts/OrderManager.sol\":4318:4399  if (item.id == 0) revert OrderManager__MenuItemNotFound(restaurantId, itemIds[i]) */\n      tag_225\n      jumpi\n        /* \"contracts/OrderManager.sol\":4374:4386  restaurantId */\n      dup8\n        /* \"contracts/OrderManager.sol\":4388:4395  itemIds */\n      dup8\n        /* \"contracts/OrderManager.sol\":4396:4397  i */\n      dup4\n      sub(shl(0x80, 0x01), 0x01)\n        /* \"contracts/OrderManager.sol\":4388:4398  itemIds[i] */\n      and\n      dup2\n      mload\n      dup2\n      lt\n      tag_227\n      jumpi\n      tag_227\n      tag_218\n      jump\t// in\n    tag_227:\n      0x20\n      mul\n      0x20\n      add\n      add\n      mload\n        /* \"contracts/OrderManager.sol\":4343:4399  OrderManager__MenuItemNotFound(restaurantId, itemIds[i]) */\n      mload(0x40)\n      shl(0xe0, 0x2489e14f)\n      dup2\n      mstore\n      0x04\n      add\n      tag_115\n      swap3\n      swap2\n      swap1\n      tag_220\n      jump\t// in\n        /* \"contracts/OrderManager.sol\":4318:4399  if (item.id == 0) revert OrderManager__MenuItemNotFound(restaurantId, itemIds[i]) */\n    tag_225:\n        /* \"contracts/OrderManager.sol\":4419:4423  item */\n      dup1\n        /* \"contracts/OrderManager.sol\":4419:4433  item.available */\n      0xa0\n      add\n      mload\n        /* \"contracts/OrderManager.sol\":4414:4488  if (!item.available) revert OrderManager__MenuItemNotAvailable(itemIds[i]) */\n      tag_229\n      jumpi\n        /* \"contracts/OrderManager.sol\":4477:4484  itemIds */\n      dup7\n        /* \"contracts/OrderManager.sol\":4485:4486  i */\n      dup3\n      sub(shl(0x80, 0x01), 0x01)\n        /* \"contracts/OrderManager.sol\":4477:4487  itemIds[i] */\n      and\n      dup2\n      mload\n      dup2\n      lt\n      tag_231\n      jumpi\n      tag_231\n      tag_218\n      jump\t// in\n    tag_231:\n      0x20\n      mul\n      0x20\n      add\n      add\n      mload\n        /* \"contracts/OrderManager.sol\":4442:4488  OrderManager__MenuItemNotAvailable(itemIds[i]) */\n      mload(0x40)\n      shl(0xe5, 0x03c719bb)\n      dup2\n      mstore\n      0x04\n      add\n      tag_115\n      swap2\n      swap1\n      tag_49\n      jump\t// in\n        /* \"contracts/OrderManager.sol\":4414:4488  if (!item.available) revert OrderManager__MenuItemNotAvailable(itemIds[i]) */\n    tag_229:\n        /* \"contracts/OrderManager.sol\":4507:4517  quantities */\n      dup6\n        /* \"contracts/OrderManager.sol\":4518:4519  i */\n      dup3\n      sub(shl(0x80, 0x01), 0x01)\n        /* \"contracts/OrderManager.sol\":4507:4520  quantities[i] */\n      and\n      dup2\n      mload\n      dup2\n      lt\n      tag_234\n      jumpi\n      tag_234\n      tag_218\n      jump\t// in\n    tag_234:\n      0x20\n      mul\n      0x20\n      add\n      add\n      mload\n      sub(shl(0x80, 0x01), 0x01)\n        /* \"contracts/OrderManager.sol\":4507:4525  quantities[i] == 0 */\n      and\n        /* \"contracts/OrderManager.sol\":4524:4525  0 */\n      0x00\n        /* \"contracts/OrderManager.sol\":4507:4525  quantities[i] == 0 */\n      sub\n        /* \"contracts/OrderManager.sol\":4503:4566  if (quantities[i] == 0) revert OrderManager__InvalidOrderData() */\n      tag_235\n      jumpi\n        /* \"contracts/OrderManager.sol\":4534:4566  OrderManager__InvalidOrderData() */\n      mload(0x40)\n      shl(0xe1, 0x4482f209)\n      dup2\n      mstore\n      0x04\n      add\n      mload(0x40)\n      dup1\n      swap2\n      sub\n      swap1\n      revert\n        /* \"contracts/OrderManager.sol\":4503:4566  if (quantities[i] == 0) revert OrderManager__InvalidOrderData() */\n    tag_235:\n        /* \"contracts/OrderManager.sol\":4629:4639  quantities */\n      dup6\n        /* \"contracts/OrderManager.sol\":4640:4641  i */\n      dup3\n      sub(shl(0x80, 0x01), 0x01)\n        /* \"contracts/OrderManager.sol\":4629:4642  quantities[i] */\n      and\n      dup2\n      mload\n      dup2\n      lt\n      tag_237\n      jumpi\n      tag_237\n      tag_218\n      jump\t// in\n    tag_237:\n      0x20\n      mul\n      0x20\n      add\n      add\n      mload\n      sub(shl(0x80, 0x01), 0x01)\n        /* \"contracts/OrderManager.sol\":4607:4642  uint256(item.price) * quantities[i] */\n      and\n        /* \"contracts/OrderManager.sol\":4615:4619  item */\n      dup2\n        /* \"contracts/OrderManager.sol\":4615:4625  item.price */\n      0x80\n      add\n      mload\n      sub(shl(0x80, 0x01), 0x01)\n        /* \"contracts/OrderManager.sol\":4607:4626  uint256(item.price) */\n      and\n        /* \"contracts/OrderManager.sol\":4607:4642  uint256(item.price) * quantities[i] */\n      tag_238\n      swap2\n      swap1\n      tag_239\n      jump\t// in\n    tag_238:\n        /* \"contracts/OrderManager.sol\":4583:4642  calculatedTotalPrice += uint256(item.price) * quantities[i] */\n      tag_240\n      swap1\n      dup7\n      tag_241\n      jump\t// in\n    tag_240:\n      swap5\n      pop\n        /* \"contracts/OrderManager.sol\":4684:4702  maxPreparationTime */\n      dup4\n      sub(shl(0x80, 0x01), 0x01)\n        /* \"contracts/OrderManager.sol\":4661:4702  item.preparationTime > maxPreparationTime */\n      and\n        /* \"contracts/OrderManager.sol\":4661:4665  item */\n      dup2\n        /* \"contracts/OrderManager.sol\":4661:4681  item.preparationTime */\n      0x0140\n      add\n      mload\n      sub(shl(0x80, 0x01), 0x01)\n        /* \"contracts/OrderManager.sol\":4661:4702  item.preparationTime > maxPreparationTime */\n      and\n      gt\n        /* \"contracts/OrderManager.sol\":4657:4780  if (item.preparationTime > maxPreparationTime) {... */\n      iszero\n      tag_242\n      jumpi\n        /* \"contracts/OrderManager.sol\":4744:4748  item */\n      dup1\n        /* \"contracts/OrderManager.sol\":4744:4764  item.preparationTime */\n      0x0140\n      add\n      mload\n        /* \"contracts/OrderManager.sol\":4723:4764  maxPreparationTime = item.preparationTime */\n      swap4\n      pop\n        /* \"contracts/OrderManager.sol\":4657:4780  if (item.preparationTime > maxPreparationTime) {... */\n    tag_242:\n        /* \"contracts/OrderManager.sol\":4816:5032  OrderItemDetail({ // Gán vào mảng memory... */\n      mload(0x40)\n      dup1\n      0x80\n      add\n      0x40\n      mstore\n      dup1\n        /* \"contracts/OrderManager.sol\":4890:4894  item */\n      dup3\n        /* \"contracts/OrderManager.sol\":4890:4897  item.id */\n      0x00\n      add\n      mload\n      sub(shl(0x80, 0x01), 0x01)\n        /* \"contracts/OrderManager.sol\":4816:5032  OrderItemDetail({ // Gán vào mảng memory... */\n      and\n      dup2\n      mstore\n      0x20\n      add\n        /* \"contracts/OrderManager.sol\":4922:4926  item */\n      dup3\n        /* \"contracts/OrderManager.sol\":4922:4931  item.name */\n      0x40\n      add\n      mload\n        /* \"contracts/OrderManager.sol\":4816:5032  OrderItemDetail({ // Gán vào mảng memory... */\n      dup2\n      mstore\n      0x20\n      add\n        /* \"contracts/OrderManager.sol\":4964:4968  item */\n      dup3\n        /* \"contracts/OrderManager.sol\":4964:4974  item.price */\n      0x80\n      add\n      mload\n      sub(shl(0x80, 0x01), 0x01)\n        /* \"contracts/OrderManager.sol\":4816:5032  OrderItemDetail({ // Gán vào mảng memory... */\n      and\n      dup2\n      mstore\n      0x20\n      add\n        /* \"contracts/OrderManager.sol\":5003:5013  quantities */\n      dup8\n        /* \"contracts/OrderManager.sol\":5014:5015  i */\n      dup5\n      sub(shl(0x80, 0x01), 0x01)\n        /* \"contracts/OrderManager.sol\":5003:5016  quantities[i] */\n      and\n      dup2\n      mload\n      dup2\n      lt\n      tag_244\n      jumpi\n      tag_244\n      tag_218\n      jump\t// in\n    tag_244:\n      0x20\n      mul\n      0x20\n      add\n      add\n      mload\n      sub(shl(0x80, 0x01), 0x01)\n        /* \"contracts/OrderManager.sol\":4816:5032  OrderItemDetail({ // Gán vào mảng memory... */\n      and\n      dup2\n      mstore\n      pop\n        /* \"contracts/OrderManager.sol\":4794:4810  orderItemsMemory */\n      dup4\n        /* \"contracts/OrderManager.sol\":4811:4812  i */\n      dup4\n      sub(shl(0x80, 0x01), 0x01)\n        /* \"contracts/OrderManager.sol\":4794:4813  orderItemsMemory[i] */\n      and\n      dup2\n      mload\n      dup2\n      lt\n      tag_246\n      jumpi\n      tag_246\n      tag_218\n      jump\t// in\n    tag_246:\n      0x20\n      mul\n      0x20\n      add\n      add\n        /* \"contracts/OrderManager.sol\":4794:5032  orderItemsMemory[i] = OrderItemDetail({ // Gán vào mảng memory... */\n      dup2\n      swap1\n      mstore\n      pop\n        /* \"contracts/OrderManager.sol\":4216:5044  {... */\n      pop\n        /* \"contracts/OrderManager.sol\":4211:4214  i++ */\n      dup1\n      dup1\n      tag_247\n      swap1\n      tag_248\n      jump\t// in\n    tag_247:\n      swap2\n      pop\n      pop\n        /* \"contracts/OrderManager.sol\":4171:5044  for (uint128 i = 0; i < itemIds.length; i++) {... */\n      jump(tag_213)\n    tag_214:\n      pop\n        /* \"contracts/OrderManager.sol\":5072:5092  calculatedTotalPrice */\n      dup3\n        /* \"contracts/OrderManager.sol\":5060:5069  msg.value */\n      callvalue\n        /* \"contracts/OrderManager.sol\":5060:5092  msg.value < calculatedTotalPrice */\n      lt\n        /* \"contracts/OrderManager.sol\":5056:5167  if (msg.value < calculatedTotalPrice) revert OrderManager__InsufficientPayment(calculatedTotalPrice, msg.value) */\n      iszero\n      tag_249\n      jumpi\n        /* \"contracts/OrderManager.sol\":5101:5167  OrderManager__InsufficientPayment(calculatedTotalPrice, msg.value) */\n      mload(0x40)\n      shl(0xe1, 0x5bb47931)\n      dup2\n      mstore\n      0x04\n      dup2\n      add\n        /* \"#utility.yul\":10810:10835   */\n      dup5\n      swap1\n      mstore\n        /* \"contracts/OrderManager.sol\":5157:5166  msg.value */\n      callvalue\n        /* \"#utility.yul\":10851:10869   */\n      0x24\n      dup3\n      add\n        /* \"#utility.yul\":10844:10878   */\n      mstore\n        /* \"#utility.yul\":10783:10801   */\n      0x44\n      add\n        /* \"contracts/OrderManager.sol\":5101:5167  OrderManager__InsufficientPayment(calculatedTotalPrice, msg.value) */\n      tag_115\n        /* \"#utility.yul\":10636:10884   */\n      jump\n        /* \"contracts/OrderManager.sol\":5056:5167  if (msg.value < calculatedTotalPrice) revert OrderManager__InsufficientPayment(calculatedTotalPrice, msg.value) */\n    tag_249:\n        /* \"contracts/OrderManager.sol\":5196:5216  calculatedTotalPrice */\n      dup3\n        /* \"contracts/OrderManager.sol\":5184:5193  msg.value */\n      callvalue\n        /* \"contracts/OrderManager.sol\":5184:5216  msg.value > calculatedTotalPrice */\n      gt\n        /* \"contracts/OrderManager.sol\":5180:5399  if (msg.value > calculatedTotalPrice) {... */\n      iszero\n      tag_251\n      jumpi\n        /* \"contracts/OrderManager.sol\":5234:5246  bool success */\n      0x00\n      sub(shl(0xa0, 0x01), 0x01)\n        /* \"contracts/OrderManager.sol\":5251:5276  payable(customerEoa).call */\n      dup9\n      and\n        /* \"contracts/OrderManager.sol\":5284:5316  msg.value - calculatedTotalPrice */\n      tag_252\n        /* \"contracts/OrderManager.sol\":5296:5316  calculatedTotalPrice */\n      dup6\n        /* \"contracts/OrderManager.sol\":5284:5293  msg.value */\n      callvalue\n        /* \"contracts/OrderManager.sol\":5284:5316  msg.value - calculatedTotalPrice */\n      tag_253\n      jump\t// in\n    tag_252:\n        /* \"contracts/OrderManager.sol\":5251:5321  payable(customerEoa).call{value: msg.value - calculatedTotalPrice}(\"\") */\n      mload(0x40)\n      0x00\n      dup2\n      dup2\n      dup2\n      dup6\n      dup8\n      gas\n      call\n      swap3\n      pop\n      pop\n      pop\n      returndatasize\n      dup1\n      0x00\n      dup2\n      eq\n      tag_257\n      jumpi\n      mload(0x40)\n      swap2\n      pop\n      and(add(returndatasize, 0x3f), not(0x1f))\n      dup3\n      add\n      0x40\n      mstore\n      returndatasize\n      dup3\n      mstore\n      returndatasize\n      0x00\n      0x20\n      dup5\n      add\n      returndatacopy\n      jump(tag_256)\n    tag_257:\n      0x60\n      swap2\n      pop\n    tag_256:\n      pop\n        /* \"contracts/OrderManager.sol\":5233:5321  (bool success,) = payable(customerEoa).call{value: msg.value - calculatedTotalPrice}(\"\") */\n      pop\n      swap1\n      pop\n        /* \"contracts/OrderManager.sol\":5341:5348  success */\n      dup1\n        /* \"contracts/OrderManager.sol\":5336:5387  if (!success) revert OrderManager__TransferFailed() */\n      tag_258\n      jumpi\n        /* \"contracts/OrderManager.sol\":5357:5387  OrderManager__TransferFailed() */\n      mload(0x40)\n      shl(0xe1, 0x4239e21d)\n      dup2\n      mstore\n      0x04\n      add\n      mload(0x40)\n      dup1\n      swap2\n      sub\n      swap1\n      revert\n        /* \"contracts/OrderManager.sol\":5336:5387  if (!success) revert OrderManager__TransferFailed() */\n    tag_258:\n        /* \"contracts/OrderManager.sol\":5218:5399  {... */\n      pop\n        /* \"contracts/OrderManager.sol\":5180:5399  if (msg.value > calculatedTotalPrice) {... */\n    tag_251:\n        /* \"contracts/OrderManager.sol\":5411:5433  uint128 currentOrderId */\n      0x00\n        /* \"contracts/OrderManager.sol\":5436:5447  nextOrderId */\n      0x01\n      0x00\n      swap1\n      sload\n      swap1\n      0x0100\n      exp\n      swap1\n      div\n      sub(shl(0x80, 0x01), 0x01)\n      and\n        /* \"contracts/OrderManager.sol\":5411:5447  uint128 currentOrderId = nextOrderId */\n      swap1\n      pop\n        /* \"contracts/OrderManager.sol\":5566:5588  Order storage newOrder */\n      0x00\n        /* \"contracts/OrderManager.sol\":5591:5597  orders */\n      0x02\n        /* \"contracts/OrderManager.sol\":5591:5613  orders[currentOrderId] */\n      0x00\n        /* \"contracts/OrderManager.sol\":5598:5612  currentOrderId */\n      dup4\n      sub(shl(0x80, 0x01), 0x01)\n        /* \"contracts/OrderManager.sol\":5591:5613  orders[currentOrderId] */\n      and\n      sub(shl(0x80, 0x01), 0x01)\n      and\n      dup2\n      mstore\n      0x20\n      add\n      swap1\n      dup2\n      mstore\n      0x20\n      add\n      0x00\n      keccak256\n        /* \"contracts/OrderManager.sol\":5566:5613  Order storage newOrder = orders[currentOrderId] */\n      swap1\n      pop\n        /* \"contracts/OrderManager.sol\":5668:5682  currentOrderId */\n      dup2\n        /* \"contracts/OrderManager.sol\":5654:5662  newOrder */\n      dup2\n        /* \"contracts/OrderManager.sol\":5654:5665  newOrder.id */\n      0x00\n      add\n      0x00\n        /* \"contracts/OrderManager.sol\":5654:5682  newOrder.id = currentOrderId */\n      0x0100\n      exp\n      dup2\n      sload\n      dup2\n      sub(shl(0x80, 0x01), 0x01)\n      mul\n      not\n      and\n      swap1\n      dup4\n      sub(shl(0x80, 0x01), 0x01)\n      and\n      mul\n      or\n      swap1\n      sstore\n      pop\n        /* \"contracts/OrderManager.sol\":5713:5724  customerEoa */\n      dup9\n        /* \"contracts/OrderManager.sol\":5693:5701  newOrder */\n      dup2\n        /* \"contracts/OrderManager.sol\":5693:5710  newOrder.customer */\n      0x01\n      add\n      0x00\n        /* \"contracts/OrderManager.sol\":5693:5724  newOrder.customer = customerEoa */\n      0x0100\n      exp\n      dup2\n      sload\n      dup2\n      sub(shl(0xa0, 0x01), 0x01)\n      mul\n      not\n      and\n      swap1\n      dup4\n      sub(shl(0xa0, 0x01), 0x01)\n      and\n      mul\n      or\n      swap1\n      sstore\n      pop\n        /* \"contracts/OrderManager.sol\":5759:5771  restaurantId */\n      dup8\n        /* \"contracts/OrderManager.sol\":5735:5743  newOrder */\n      dup2\n        /* \"contracts/OrderManager.sol\":5735:5756  newOrder.restaurantId */\n      0x02\n      add\n      0x00\n        /* \"contracts/OrderManager.sol\":5735:5771  newOrder.restaurantId = restaurantId */\n      0x0100\n      exp\n      dup2\n      sload\n      dup2\n      sub(shl(0x80, 0x01), 0x01)\n      mul\n      not\n      and\n      swap1\n      dup4\n      sub(shl(0x80, 0x01), 0x01)\n      and\n      mul\n      or\n      swap1\n      sstore\n      pop\n        /* \"contracts/OrderManager.sol\":5804:5824  calculatedTotalPrice */\n      dup5\n        /* \"contracts/OrderManager.sol\":5782:5790  newOrder */\n      dup2\n        /* \"contracts/OrderManager.sol\":5782:5801  newOrder.totalPrice */\n      0x04\n      add\n        /* \"contracts/OrderManager.sol\":5782:5824  newOrder.totalPrice = calculatedTotalPrice */\n      dup2\n      swap1\n      sstore\n      pop\n        /* \"contracts/OrderManager.sol\":5853:5871  OrderStatus.Placed */\n      0x00\n        /* \"contracts/OrderManager.sol\":5835:5843  newOrder */\n      dup2\n        /* \"contracts/OrderManager.sol\":5835:5850  newOrder.status */\n      0x05\n      add\n      0x00\n        /* \"contracts/OrderManager.sol\":5835:5871  newOrder.status = OrderStatus.Placed */\n      0x0100\n      exp\n      dup2\n      sload\n      dup2\n      0xff\n      mul\n      not\n      and\n      swap1\n      dup4\n      0x06\n      dup2\n      gt\n      iszero\n      tag_260\n      jumpi\n      tag_260\n      tag_111\n      jump\t// in\n    tag_260:\n      mul\n      or\n      swap1\n      sstore\n      pop\n        /* \"contracts/OrderManager.sol\":5882:5900  newOrder.timestamp */\n      0x05\n      dup2\n      add\n        /* \"contracts/OrderManager.sol\":5882:5927  newOrder.timestamp = uint128(block.timestamp) */\n      dup1\n      sload\n      sub(shl(0x80, 0x01), 0x01)\n        /* \"contracts/OrderManager.sol\":5911:5926  block.timestamp */\n      timestamp\n        /* \"contracts/OrderManager.sol\":5882:5927  newOrder.timestamp = uint128(block.timestamp) */\n      dup2\n      and\n      0x0100\n      mul\n      not(sub(shl(0x88, 0x01), 0x0100))\n      swap1\n      swap3\n      and\n      swap2\n      swap1\n      swap2\n      or\n      swap1\n      swap2\n      sstore\n        /* \"contracts/OrderManager.sol\":5938:5962  newOrder.preparationTime */\n      0x06\n      dup3\n      add\n        /* \"contracts/OrderManager.sol\":5938:5983  newOrder.preparationTime = maxPreparationTime */\n      dup1\n      sload\n      swap2\n      dup7\n      and\n      not(sub(shl(0x80, 0x01), 0x01))\n      swap1\n      swap3\n      and\n      swap2\n      swap1\n      swap2\n      or\n      swap1\n      sstore\n      0x00\n        /* \"contracts/OrderManager.sol\":6098:6285  for (uint i = 0; i < orderItemsMemory.length; i++) {... */\n    tag_261:\n        /* \"contracts/OrderManager.sol\":6119:6135  orderItemsMemory */\n      dup4\n        /* \"contracts/OrderManager.sol\":6119:6142  orderItemsMemory.length */\n      mload\n        /* \"contracts/OrderManager.sol\":6115:6116  i */\n      dup2\n        /* \"contracts/OrderManager.sol\":6115:6142  i < orderItemsMemory.length */\n      lt\n        /* \"contracts/OrderManager.sol\":6098:6285  for (uint i = 0; i < orderItemsMemory.length; i++) {... */\n      iszero\n      tag_262\n      jumpi\n        /* \"contracts/OrderManager.sol\":6164:6172  newOrder */\n      dup2\n        /* \"contracts/OrderManager.sol\":6164:6184  newOrder.itemsDetail */\n      0x03\n      add\n        /* \"contracts/OrderManager.sol\":6190:6206  orderItemsMemory */\n      dup5\n        /* \"contracts/OrderManager.sol\":6207:6208  i */\n      dup3\n        /* \"contracts/OrderManager.sol\":6190:6209  orderItemsMemory[i] */\n      dup2\n      mload\n      dup2\n      lt\n      tag_265\n      jumpi\n      tag_265\n      tag_218\n      jump\t// in\n    tag_265:\n      0x20\n      swap1\n      dup2\n      mul\n      swap2\n      swap1\n      swap2\n      add\n      dup2\n      add\n      mload\n        /* \"contracts/OrderManager.sol\":6164:6210  newOrder.itemsDetail.push(orderItemsMemory[i]) */\n      dup3\n      sload\n      0x01\n      dup1\n      dup3\n      add\n      dup6\n      sstore\n      0x00\n      swap5\n      dup6\n      mstore\n      swap4\n      dup4\n      swap1\n      keccak256\n      dup3\n      mload\n      0x03\n      swap1\n      swap3\n      mul\n      add\n      dup1\n      sload\n      not(sub(shl(0x80, 0x01), 0x01))\n      and\n      sub(shl(0x80, 0x01), 0x01)\n      swap1\n      swap3\n      and\n      swap2\n      swap1\n      swap2\n      or\n      dup2\n      sstore\n      swap2\n      dup2\n      add\n      mload\n        /* \"contracts/OrderManager.sol\":6190:6209  orderItemsMemory[i] */\n      swap1\n      swap3\n        /* \"contracts/OrderManager.sol\":6164:6210  newOrder.itemsDetail.push(orderItemsMemory[i]) */\n      dup3\n      add\n      swap1\n      tag_267\n      swap1\n      dup3\n      tag_268\n      jump\t// in\n    tag_267:\n      pop\n      0x40\n      dup3\n      add\n      mload\n      0x60\n      swap1\n      swap3\n      add\n      mload\n      sub(shl(0x80, 0x01), 0x01)\n      swap1\n      dup2\n      and\n      shl(0x80, 0x01)\n      mul\n      swap3\n      and\n      swap2\n      swap1\n      swap2\n      or\n      0x02\n      swap1\n      swap2\n      add\n      sstore\n      0x01\n        /* \"contracts/OrderManager.sol\":6144:6147  i++ */\n      add\n        /* \"contracts/OrderManager.sol\":6098:6285  for (uint i = 0; i < orderItemsMemory.length; i++) {... */\n      jump(tag_261)\n    tag_262:\n      pop\n        /* \"contracts/OrderManager.sol\":6343:6355  restaurantId */\n      dup8\n      sub(shl(0x80, 0x01), 0x01)\n        /* \"contracts/OrderManager.sol\":6302:6378  OrderPlaced(currentOrderId, customerEoa, restaurantId, calculatedTotalPrice) */\n      and\n        /* \"contracts/OrderManager.sol\":6330:6341  customerEoa */\n      dup10\n      sub(shl(0xa0, 0x01), 0x01)\n        /* \"contracts/OrderManager.sol\":6302:6378  OrderPlaced(currentOrderId, customerEoa, restaurantId, calculatedTotalPrice) */\n      and\n        /* \"contracts/OrderManager.sol\":6314:6328  currentOrderId */\n      dup4\n      sub(shl(0x80, 0x01), 0x01)\n        /* \"contracts/OrderManager.sol\":6302:6378  OrderPlaced(currentOrderId, customerEoa, restaurantId, calculatedTotalPrice) */\n      and\n      0x6ce2bb89bf47987f896a72756397a4441f5be463c46b39a4102f8108d5ade5e0\n        /* \"contracts/OrderManager.sol\":6357:6377  calculatedTotalPrice */\n      dup9\n        /* \"contracts/OrderManager.sol\":6302:6378  OrderPlaced(currentOrderId, customerEoa, restaurantId, calculatedTotalPrice) */\n      mload(0x40)\n      tag_269\n      swap2\n        /* \"#utility.yul\":5631:5656   */\n      dup2\n      mstore\n        /* \"#utility.yul\":5619:5621   */\n      0x20\n        /* \"#utility.yul\":5604:5622   */\n      add\n      swap1\n        /* \"#utility.yul\":5485:5662   */\n      jump\n        /* \"contracts/OrderManager.sol\":6302:6378  OrderPlaced(currentOrderId, customerEoa, restaurantId, calculatedTotalPrice) */\n    tag_269:\n      mload(0x40)\n      dup1\n      swap2\n      sub\n      swap1\n      log4\n        /* \"contracts/OrderManager.sol\":6389:6400  nextOrderId */\n      0x01\n        /* \"contracts/OrderManager.sol\":6389:6402  nextOrderId++ */\n      dup1\n      sload\n      sub(shl(0x80, 0x01), 0x01)\n      and\n      swap1\n        /* \"contracts/OrderManager.sol\":6389:6400  nextOrderId */\n      0x00\n        /* \"contracts/OrderManager.sol\":6389:6402  nextOrderId++ */\n      tag_270\n      dup4\n      tag_248\n      jump\t// in\n    tag_270:\n      swap2\n      swap1\n      0x0100\n      exp\n      dup2\n      sload\n      dup2\n      sub(shl(0x80, 0x01), 0x01)\n      mul\n      not\n      and\n      swap1\n      dup4\n      sub(shl(0x80, 0x01), 0x01)\n      and\n      mul\n      or\n      swap1\n      sstore\n      pop\n      pop\n        /* \"contracts/OrderManager.sol\":3770:6410  {... */\n      pop\n      pop\n      pop\n      pop\n      pop\n        /* \"@openzeppelin/contracts/utils/ReentrancyGuard.sol\":2542:2562  _nonReentrantAfter() */\n      tag_271\n        /* \"@openzeppelin/contracts/utils/ReentrancyGuard.sol\":1857:1858  1 */\n      0x01\n        /* \"@openzeppelin/contracts/utils/ReentrancyGuard.sol\":3068:3075  _status */\n      0x00\n        /* \"@openzeppelin/contracts/utils/ReentrancyGuard.sol\":3068:3089  _status = NOT_ENTERED */\n      sstore\n        /* \"@openzeppelin/contracts/utils/ReentrancyGuard.sol\":2888:3096  function _nonReentrantAfter() private {... */\n      jump\n        /* \"@openzeppelin/contracts/utils/ReentrancyGuard.sol\":2542:2562  _nonReentrantAfter() */\n    tag_271:\n        /* \"contracts/OrderManager.sol\":3550:6410  function placeOrder(... */\n      pop\n      pop\n      pop\n      pop\n      jump\t// out\n        /* \"contracts/OrderManager.sol\":7956:9727  function completeOrder(address staffEoa, uint128 orderId, uint128 staffRestaurantId) external override onlyFoodAppContract nonReentrant {... */\n    tag_80:\n        /* \"contracts/OrderManager.sol\":2363:2385  foodAppContractAddress */\n      and(sub(shl(0xa0, 0x01), 0x01), sload(0x05))\n        /* \"contracts/OrderManager.sol\":2349:2359  msg.sender */\n      caller\n        /* \"contracts/OrderManager.sol\":2349:2385  msg.sender != foodAppContractAddress */\n      eq\n        /* \"contracts/OrderManager.sol\":2345:2420  if (msg.sender != foodAppContractAddress) revert OrderManager__NotFoodApp() */\n      tag_273\n      jumpi\n        /* \"contracts/OrderManager.sol\":2394:2420  OrderManager__NotFoodApp() */\n      mload(0x40)\n      shl(0xe0, 0x92b2f959)\n      dup2\n      mstore\n      0x04\n      add\n      mload(0x40)\n      dup1\n      swap2\n      sub\n      swap1\n      revert\n        /* \"contracts/OrderManager.sol\":2345:2420  if (msg.sender != foodAppContractAddress) revert OrderManager__NotFoodApp() */\n    tag_273:\n        /* \"@openzeppelin/contracts/utils/ReentrancyGuard.sol\":2500:2521  _nonReentrantBefore() */\n      tag_275\n        /* \"@openzeppelin/contracts/utils/ReentrancyGuard.sol\":2500:2519  _nonReentrantBefore */\n      tag_158\n        /* \"@openzeppelin/contracts/utils/ReentrancyGuard.sol\":2500:2521  _nonReentrantBefore() */\n      jump\t// in\n    tag_275:\n      sub(shl(0x80, 0x01), 0x01)\n        /* \"contracts/OrderManager.sol\":8135:8150  orders[orderId] */\n      dup1\n      dup4\n      and\n        /* \"contracts/OrderManager.sol\":8103:8132  Order storage orderToComplete */\n      0x00\n        /* \"contracts/OrderManager.sol\":8135:8150  orders[orderId] */\n      swap1\n      dup2\n      mstore\n        /* \"contracts/OrderManager.sol\":8135:8141  orders */\n      0x02\n        /* \"contracts/OrderManager.sol\":8135:8150  orders[orderId] */\n      0x20\n      mstore\n      0x40\n      dup2\n      keccak256\n        /* \"contracts/OrderManager.sol\":8165:8183  orderToComplete.id */\n      dup1\n      sload\n        /* \"contracts/OrderManager.sol\":8135:8150  orders[orderId] */\n      swap1\n      swap3\n        /* \"contracts/OrderManager.sol\":8165:8183  orderToComplete.id */\n      and\n        /* \"contracts/OrderManager.sol\":8165:8188  orderToComplete.id == 0 */\n      swap1\n      sub\n        /* \"contracts/OrderManager.sol\":8161:8233  if (orderToComplete.id == 0) revert OrderManager__OrderNotFound(orderId) */\n      tag_277\n      jumpi\n        /* \"contracts/OrderManager.sol\":8225:8232  orderId */\n      dup3\n        /* \"contracts/OrderManager.sol\":8197:8233  OrderManager__OrderNotFound(orderId) */\n      mload(0x40)\n      shl(0xe4, 0x05e8f385)\n      dup2\n      mstore\n      0x04\n      add\n      tag_115\n      swap2\n      swap1\n      tag_49\n      jump\t// in\n        /* \"contracts/OrderManager.sol\":8161:8233  if (orderToComplete.id == 0) revert OrderManager__OrderNotFound(orderId) */\n    tag_277:\n        /* \"contracts/OrderManager.sol\":8248:8276  orderToComplete.restaurantId */\n      0x02\n      dup2\n      add\n      sload\n      sub(shl(0x80, 0x01), 0x01)\n        /* \"contracts/OrderManager.sol\":8248:8297  orderToComplete.restaurantId != staffRestaurantId */\n      dup4\n      dup2\n      and\n        /* \"contracts/OrderManager.sol\":8248:8276  orderToComplete.restaurantId */\n      swap2\n      and\n        /* \"contracts/OrderManager.sol\":8248:8297  orderToComplete.restaurantId != staffRestaurantId */\n      eq\n        /* \"contracts/OrderManager.sol\":8244:8430  if (orderToComplete.restaurantId != staffRestaurantId) {... */\n      tag_279\n      jumpi\n        /* \"contracts/OrderManager.sol\":8370:8398  orderToComplete.restaurantId */\n      0x02\n      dup2\n      add\n      sload\n        /* \"contracts/OrderManager.sol\":8321:8418  OrderManager__CallerNotRestaurantStaff(staffEoa, orderToComplete.restaurantId, staffRestaurantId) */\n      mload(0x40)\n      shl(0xe0, 0xd52781e9)\n      dup2\n      mstore\n      tag_115\n      swap2\n        /* \"contracts/OrderManager.sol\":8360:8368  staffEoa */\n      dup7\n      swap2\n      sub(shl(0x80, 0x01), 0x01)\n        /* \"contracts/OrderManager.sol\":8370:8398  orderToComplete.restaurantId */\n      swap1\n      swap2\n      and\n      swap1\n        /* \"contracts/OrderManager.sol\":8400:8417  staffRestaurantId */\n      dup6\n      swap1\n        /* \"contracts/OrderManager.sol\":8321:8418  OrderManager__CallerNotRestaurantStaff(staffEoa, orderToComplete.restaurantId, staffRestaurantId) */\n      0x04\n      add\n      tag_131\n      jump\t// in\n        /* \"contracts/OrderManager.sol\":8244:8430  if (orderToComplete.restaurantId != staffRestaurantId) {... */\n    tag_279:\n        /* \"contracts/OrderManager.sol\":8472:8489  OrderStatus.Ready */\n      0x03\n        /* \"contracts/OrderManager.sol\":8446:8468  orderToComplete.status */\n      0x05\n      dup3\n      add\n      sload\n      0xff\n      and\n        /* \"contracts/OrderManager.sol\":8446:8489  orderToComplete.status != OrderStatus.Ready */\n      0x06\n      dup2\n      gt\n      iszero\n      tag_284\n      jumpi\n      tag_284\n      tag_111\n      jump\t// in\n    tag_284:\n      eq\n      iszero\n        /* \"contracts/OrderManager.sol\":8446:8540  orderToComplete.status != OrderStatus.Ready && orderToComplete.status != OrderStatus.Delivered */\n      dup1\n      iszero\n      tag_285\n      jumpi\n      pop\n        /* \"contracts/OrderManager.sol\":8519:8540  OrderStatus.Delivered */\n      0x04\n        /* \"contracts/OrderManager.sol\":8493:8515  orderToComplete.status */\n      0x05\n      dup3\n      add\n      sload\n      0xff\n      and\n        /* \"contracts/OrderManager.sol\":8493:8540  orderToComplete.status != OrderStatus.Delivered */\n      0x06\n      dup2\n      gt\n      iszero\n      tag_289\n      jumpi\n      tag_289\n      tag_111\n      jump\t// in\n    tag_289:\n      eq\n      iszero\n        /* \"contracts/OrderManager.sol\":8446:8540  orderToComplete.status != OrderStatus.Ready && orderToComplete.status != OrderStatus.Delivered */\n    tag_285:\n        /* \"contracts/OrderManager.sol\":8442:8653  if (orderToComplete.status != OrderStatus.Ready && orderToComplete.status != OrderStatus.Delivered) {... */\n      iszero\n      tag_290\n      jumpi\n        /* \"contracts/OrderManager.sol\":8606:8628  orderToComplete.status */\n      0x05\n      dup2\n      add\n      sload\n        /* \"contracts/OrderManager.sol\":8564:8641  OrderManager__InvalidOrderStatusForAction(orderToComplete.status, \"complete\") */\n      mload(0x40)\n      shl(0xe0, 0x388a923d)\n      dup2\n      mstore\n      tag_115\n      swap2\n        /* \"contracts/OrderManager.sol\":8606:8628  orderToComplete.status */\n      0xff\n      and\n      swap1\n        /* \"contracts/OrderManager.sol\":8564:8641  OrderManager__InvalidOrderStatusForAction(orderToComplete.status, \"complete\") */\n      0x04\n      add\n      tag_292\n      jump\t// in\n        /* \"contracts/OrderManager.sol\":8442:8653  if (orderToComplete.status != OrderStatus.Ready && orderToComplete.status != OrderStatus.Delivered) {... */\n    tag_290:\n        /* \"contracts/OrderManager.sol\":8689:8711  orderToComplete.status */\n      0x05\n      dup2\n      dup2\n      add\n      dup1\n      sload\n      not(0xff)\n        /* \"contracts/OrderManager.sol\":8722:8768  orderToComplete.status = OrderStatus.Completed */\n      dup2\n      and\n      swap1\n      swap3\n      or\n      swap1\n      sstore\n        /* \"contracts/OrderManager.sol\":8810:8827  restaurantManager */\n      0x04\n      dup1\n      sload\n        /* \"contracts/OrderManager.sol\":8847:8875  orderToComplete.restaurantId */\n      0x02\n      dup5\n      add\n      sload\n        /* \"contracts/OrderManager.sol\":8810:8876  restaurantManager.getRestaurantOwner(orderToComplete.restaurantId) */\n      mload(0x40)\n      shl(0xe0, 0xb9588327)\n      dup2\n      mstore\n        /* \"contracts/OrderManager.sol\":8689:8711  orderToComplete.status */\n      0xff\n      swap1\n      swap5\n      and\n      swap4\n      0x00\n      swap4\n      sub(shl(0xa0, 0x01), 0x01)\n        /* \"contracts/OrderManager.sol\":8810:8827  restaurantManager */\n      swap1\n      swap4\n      and\n      swap3\n        /* \"contracts/OrderManager.sol\":8810:8846  restaurantManager.getRestaurantOwner */\n      0xb9588327\n      swap3\n        /* \"contracts/OrderManager.sol\":8810:8876  restaurantManager.getRestaurantOwner(orderToComplete.restaurantId) */\n      tag_295\n      swap3\n      sub(shl(0x80, 0x01), 0x01)\n        /* \"contracts/OrderManager.sol\":8847:8875  orderToComplete.restaurantId */\n      swap1\n      swap2\n      and\n      swap2\n        /* \"contracts/OrderManager.sol\":8810:8876  restaurantManager.getRestaurantOwner(orderToComplete.restaurantId) */\n      add\n      tag_49\n      jump\t// in\n    tag_295:\n      0x20\n      mload(0x40)\n      dup1\n      dup4\n      sub\n      dup2\n      dup7\n      gas\n      staticcall\n      iszero\n      dup1\n      iszero\n      tag_297\n      jumpi\n      returndatacopy(0x00, 0x00, returndatasize)\n      revert(0x00, returndatasize)\n    tag_297:\n      pop\n      pop\n      pop\n      pop\n      mload(0x40)\n      returndatasize\n      not(0x1f)\n      0x1f\n      dup3\n      add\n      and\n      dup3\n      add\n      dup1\n      0x40\n      mstore\n      pop\n      dup2\n      add\n      swap1\n      tag_298\n      swap2\n      swap1\n      tag_299\n      jump\t// in\n    tag_298:\n        /* \"contracts/OrderManager.sol\":8781:8876  address restaurantOwnerEoa = restaurantManager.getRestaurantOwner(orderToComplete.restaurantId) */\n      swap1\n      pop\n      sub(shl(0xa0, 0x01), 0x01)\n        /* \"contracts/OrderManager.sol\":8891:8923  restaurantOwnerEoa == address(0) */\n      dup2\n      and\n        /* \"contracts/OrderManager.sol\":8887:8999  if (restaurantOwnerEoa == address(0)) revert OrderManager__RestaurantOwnerNotFound(orderToComplete.restaurantId) */\n      tag_300\n      jumpi\n        /* \"contracts/OrderManager.sol\":8970:8998  orderToComplete.restaurantId */\n      0x02\n      dup4\n      add\n      sload\n        /* \"contracts/OrderManager.sol\":8932:8999  OrderManager__RestaurantOwnerNotFound(orderToComplete.restaurantId) */\n      mload(0x40)\n      shl(0xe3, 0x10de8dc5)\n      dup2\n      mstore\n      tag_115\n      swap2\n      sub(shl(0x80, 0x01), 0x01)\n        /* \"contracts/OrderManager.sol\":8970:8998  orderToComplete.restaurantId */\n      and\n      swap1\n        /* \"contracts/OrderManager.sol\":8932:8999  OrderManager__RestaurantOwnerNotFound(orderToComplete.restaurantId) */\n      0x04\n      add\n      tag_49\n      jump\t// in\n        /* \"contracts/OrderManager.sol\":8887:8999  if (restaurantOwnerEoa == address(0)) revert OrderManager__RestaurantOwnerNotFound(orderToComplete.restaurantId) */\n    tag_300:\n        /* \"contracts/OrderManager.sol\":9041:9067  orderToComplete.totalPrice */\n      0x04\n      dup4\n      add\n      sload\n        /* \"contracts/OrderManager.sol\":9114:9132  platformFeePercent */\n      sload(0x06)\n        /* \"contracts/OrderManager.sol\":9012:9038  uint256 amountToRestaurant */\n      0x00\n      swap1\n        /* \"contracts/OrderManager.sol\":9114:9136  platformFeePercent > 0 */\n      iszero\n      dup1\n      iszero\n      swap1\n        /* \"contracts/OrderManager.sol\":9114:9165  platformFeePercent > 0 && platformFeePercent <= 100 */\n      tag_302\n      jumpi\n      pop\n        /* \"contracts/OrderManager.sol\":9162:9165  100 */\n      0x64\n        /* \"contracts/OrderManager.sol\":9140:9158  platformFeePercent */\n      sload(0x06)\n        /* \"contracts/OrderManager.sol\":9140:9165  platformFeePercent <= 100 */\n      gt\n      iszero\n        /* \"contracts/OrderManager.sol\":9114:9165  platformFeePercent > 0 && platformFeePercent <= 100 */\n    tag_302:\n        /* \"contracts/OrderManager.sol\":9110:9337  if (platformFeePercent > 0 && platformFeePercent <= 100) {... */\n      iszero\n      tag_303\n      jumpi\n        /* \"contracts/OrderManager.sol\":9247:9250  100 */\n      0x64\n        /* \"contracts/OrderManager.sol\":9225:9243  platformFeePercent */\n      sload(0x06)\n        /* \"contracts/OrderManager.sol\":9196:9211  orderToComplete */\n      dup7\n        /* \"contracts/OrderManager.sol\":9196:9222  orderToComplete.totalPrice */\n      0x04\n      add\n      sload\n        /* \"contracts/OrderManager.sol\":9196:9243  orderToComplete.totalPrice * platformFeePercent */\n      tag_304\n      swap2\n      swap1\n      tag_239\n      jump\t// in\n    tag_304:\n        /* \"contracts/OrderManager.sol\":9195:9250  (orderToComplete.totalPrice * platformFeePercent) / 100 */\n      tag_305\n      swap2\n      swap1\n      tag_306\n      jump\t// in\n    tag_305:\n        /* \"contracts/OrderManager.sol\":9183:9250  feeAmount = (orderToComplete.totalPrice * platformFeePercent) / 100 */\n      swap1\n      pop\n        /* \"contracts/OrderManager.sol\":9316:9325  feeAmount */\n      dup1\n        /* \"contracts/OrderManager.sol\":9287:9302  orderToComplete */\n      dup6\n        /* \"contracts/OrderManager.sol\":9287:9313  orderToComplete.totalPrice */\n      0x04\n      add\n      sload\n        /* \"contracts/OrderManager.sol\":9287:9325  orderToComplete.totalPrice - feeAmount */\n      tag_307\n      swap2\n      swap1\n      tag_253\n      jump\t// in\n    tag_307:\n        /* \"contracts/OrderManager.sol\":9266:9325  amountToRestaurant = orderToComplete.totalPrice - feeAmount */\n      swap2\n      pop\n        /* \"contracts/OrderManager.sol\":9110:9337  if (platformFeePercent > 0 && platformFeePercent <= 100) {... */\n    tag_303:\n        /* \"contracts/OrderManager.sol\":9353:9375  amountToRestaurant > 0 */\n      dup2\n      iszero\n        /* \"contracts/OrderManager.sol\":9349:9551  if (amountToRestaurant > 0) {... */\n      tag_308\n      jumpi\n        /* \"contracts/OrderManager.sol\":9393:9405  bool success */\n      0x00\n        /* \"contracts/OrderManager.sol\":9418:9436  restaurantOwnerEoa */\n      dup4\n      sub(shl(0xa0, 0x01), 0x01)\n        /* \"contracts/OrderManager.sol\":9410:9442  payable(restaurantOwnerEoa).call */\n      and\n        /* \"contracts/OrderManager.sol\":9450:9468  amountToRestaurant */\n      dup4\n        /* \"contracts/OrderManager.sol\":9410:9473  payable(restaurantOwnerEoa).call{value: amountToRestaurant}(\"\") */\n      mload(0x40)\n      0x00\n      mload(0x40)\n      dup1\n      dup4\n      sub\n      dup2\n      dup6\n      dup8\n      gas\n      call\n      swap3\n      pop\n      pop\n      pop\n      returndatasize\n      dup1\n      0x00\n      dup2\n      eq\n      tag_312\n      jumpi\n      mload(0x40)\n      swap2\n      pop\n      and(add(returndatasize, 0x3f), not(0x1f))\n      dup3\n      add\n      0x40\n      mstore\n      returndatasize\n      dup3\n      mstore\n      returndatasize\n      0x00\n      0x20\n      dup5\n      add\n      returndatacopy\n      jump(tag_311)\n    tag_312:\n      0x60\n      swap2\n      pop\n    tag_311:\n      pop\n        /* \"contracts/OrderManager.sol\":9392:9473  (bool success,) = payable(restaurantOwnerEoa).call{value: amountToRestaurant}(\"\") */\n      pop\n      swap1\n      pop\n        /* \"contracts/OrderManager.sol\":9493:9500  success */\n      dup1\n        /* \"contracts/OrderManager.sol\":9488:9539  if (!success) revert OrderManager__TransferFailed() */\n      tag_313\n      jumpi\n        /* \"contracts/OrderManager.sol\":9509:9539  OrderManager__TransferFailed() */\n      mload(0x40)\n      shl(0xe1, 0x4239e21d)\n      dup2\n      mstore\n      0x04\n      add\n      mload(0x40)\n      dup1\n      swap2\n      sub\n      swap1\n      revert\n        /* \"contracts/OrderManager.sol\":9488:9539  if (!success) revert OrderManager__TransferFailed() */\n    tag_313:\n        /* \"contracts/OrderManager.sol\":9377:9551  {... */\n      pop\n        /* \"contracts/OrderManager.sol\":9349:9551  if (amountToRestaurant > 0) {... */\n    tag_308:\n        /* \"contracts/OrderManager.sol\":9568:9642  OrderCompleted(orderId, restaurantOwnerEoa, amountToRestaurant, feeAmount) */\n      0x40\n      dup1\n      mload\n        /* \"#utility.yul\":10810:10835   */\n      dup4\n      dup2\n      mstore\n        /* \"#utility.yul\":10866:10868   */\n      0x20\n        /* \"#utility.yul\":10851:10869   */\n      dup2\n      add\n        /* \"#utility.yul\":10844:10878   */\n      dup4\n      swap1\n      mstore\n      sub(shl(0xa0, 0x01), 0x01)\n        /* \"contracts/OrderManager.sol\":9568:9642  OrderCompleted(orderId, restaurantOwnerEoa, amountToRestaurant, feeAmount) */\n      dup6\n      and\n      swap2\n      sub(shl(0x80, 0x01), 0x01)\n      dup11\n      and\n      swap2\n      0xd2a6aee9265d7e28b871c25501abe610595eecb7dd2f5dde2d7c55a5ce7f644f\n      swap2\n        /* \"#utility.yul\":10783:10801   */\n      add\n        /* \"contracts/OrderManager.sol\":9568:9642  OrderCompleted(orderId, restaurantOwnerEoa, amountToRestaurant, feeAmount) */\n      mload(0x40)\n      dup1\n      swap2\n      sub\n      swap1\n      log3\n        /* \"contracts/OrderManager.sol\":9677:9684  orderId */\n      dup7\n      sub(shl(0x80, 0x01), 0x01)\n        /* \"contracts/OrderManager.sol\":9658:9719  OrderStatusUpdated(orderId, oldStatus, OrderStatus.Completed) */\n      and\n      mload(0x00)\n      codecopy(0x00, data_b22b5ea25ab82ed46b90e610bede48fc5006dae7981915a9ddac0680f2d4071f, 0x20)\n      mload(0x00)\n      swap1\n      0x00\n      mstore\n        /* \"contracts/OrderManager.sol\":9686:9695  oldStatus */\n      dup6\n        /* \"contracts/OrderManager.sol\":9697:9718  OrderStatus.Completed */\n      0x05\n        /* \"contracts/OrderManager.sol\":9658:9719  OrderStatusUpdated(orderId, oldStatus, OrderStatus.Completed) */\n      mload(0x40)\n      tag_315\n      swap3\n      swap2\n      swap1\n      tag_150\n      jump\t// in\n    tag_315:\n      mload(0x40)\n      dup1\n      swap2\n      sub\n      swap1\n      log2\n        /* \"contracts/OrderManager.sol\":8092:9727  {... */\n      pop\n      pop\n      pop\n      pop\n      pop\n        /* \"@openzeppelin/contracts/utils/ReentrancyGuard.sol\":2542:2562  _nonReentrantAfter() */\n      tag_316\n        /* \"@openzeppelin/contracts/utils/ReentrancyGuard.sol\":1857:1858  1 */\n      0x01\n        /* \"@openzeppelin/contracts/utils/ReentrancyGuard.sol\":3068:3075  _status */\n      0x00\n        /* \"@openzeppelin/contracts/utils/ReentrancyGuard.sol\":3068:3089  _status = NOT_ENTERED */\n      sstore\n        /* \"@openzeppelin/contracts/utils/ReentrancyGuard.sol\":2888:3096  function _nonReentrantAfter() private {... */\n      jump\n        /* \"@openzeppelin/contracts/utils/ReentrancyGuard.sol\":2542:2562  _nonReentrantAfter() */\n    tag_316:\n        /* \"contracts/OrderManager.sol\":7956:9727  function completeOrder(address staffEoa, uint128 orderId, uint128 staffRestaurantId) external override onlyFoodAppContract nonReentrant {... */\n      pop\n      pop\n      pop\n      jump\t// out\n        /* \"@openzeppelin/contracts-upgradeable/access/OwnableUpgradeable.sol\":3405:3620  function transferOwnership(address newOwner) public virtual onlyOwner {... */\n    tag_85:\n        /* \"@openzeppelin/contracts-upgradeable/access/OwnableUpgradeable.sol\":2334:2347  _checkOwner() */\n      tag_318\n        /* \"@openzeppelin/contracts-upgradeable/access/OwnableUpgradeable.sol\":2334:2345  _checkOwner */\n      tag_118\n        /* \"@openzeppelin/contracts-upgradeable/access/OwnableUpgradeable.sol\":2334:2347  _checkOwner() */\n      jump\t// in\n    tag_318:\n      sub(shl(0xa0, 0x01), 0x01)\n        /* \"@openzeppelin/contracts-upgradeable/access/OwnableUpgradeable.sol\":3489:3511  newOwner == address(0) */\n      dup2\n      and\n        /* \"@openzeppelin/contracts-upgradeable/access/OwnableUpgradeable.sol\":3485:3576  if (newOwner == address(0)) {... */\n      tag_320\n      jumpi\n        /* \"@openzeppelin/contracts-upgradeable/access/OwnableUpgradeable.sol\":3562:3563  0 */\n      0x00\n        /* \"@openzeppelin/contracts-upgradeable/access/OwnableUpgradeable.sol\":3534:3565  OwnableInvalidOwner(address(0)) */\n      mload(0x40)\n      shl(0xe0, 0x1e4fbdf7)\n      dup2\n      mstore\n      0x04\n      add\n      tag_115\n      swap2\n      swap1\n      tag_44\n      jump\t// in\n        /* \"@openzeppelin/contracts-upgradeable/access/OwnableUpgradeable.sol\":3485:3576  if (newOwner == address(0)) {... */\n    tag_320:\n        /* \"@openzeppelin/contracts-upgradeable/access/OwnableUpgradeable.sol\":3585:3613  _transferOwnership(newOwner) */\n      tag_322\n        /* \"@openzeppelin/contracts-upgradeable/access/OwnableUpgradeable.sol\":3604:3612  newOwner */\n      dup2\n        /* \"@openzeppelin/contracts-upgradeable/access/OwnableUpgradeable.sol\":3585:3603  _transferOwnership */\n      tag_194\n        /* \"@openzeppelin/contracts-upgradeable/access/OwnableUpgradeable.sol\":3585:3613  _transferOwnership(newOwner) */\n      jump\t// in\n    tag_322:\n        /* \"@openzeppelin/contracts-upgradeable/access/OwnableUpgradeable.sol\":3405:3620  function transferOwnership(address newOwner) public virtual onlyOwner {... */\n      pop\n      jump\t// out\n        /* \"contracts/OrderManager.sol\":2448:3252  function initialize(... */\n    tag_90:\n        /* \"@openzeppelin/contracts-upgradeable/proxy/utils/Initializable.sol\":4158:4188  InitializableStorage storage $ */\n      0x00\n        /* \"@openzeppelin/contracts-upgradeable/proxy/utils/Initializable.sol\":4191:4217  _getInitializableStorage() */\n      tag_324\n        /* \"@openzeppelin/contracts-upgradeable/proxy/utils/Initializable.sol\":4191:4215  _getInitializableStorage */\n      tag_325\n        /* \"@openzeppelin/contracts-upgradeable/proxy/utils/Initializable.sol\":4191:4217  _getInitializableStorage() */\n      jump\t// in\n    tag_324:\n        /* \"@openzeppelin/contracts-upgradeable/proxy/utils/Initializable.sol\":4302:4317  $._initializing */\n      dup1\n      sload\n        /* \"@openzeppelin/contracts-upgradeable/proxy/utils/Initializable.sol\":4158:4217  InitializableStorage storage $ = _getInitializableStorage() */\n      swap1\n      swap2\n      pop\n        /* \"@openzeppelin/contracts-upgradeable/proxy/utils/Initializable.sol\":4302:4317  $._initializing */\n      0xff\n      shl(0x40, 0x01)\n      dup3\n      div\n      and\n        /* \"@openzeppelin/contracts-upgradeable/proxy/utils/Initializable.sol\":4301:4317  !$._initializing */\n      iszero\n      swap1\n      sub(shl(0x40, 0x01), 0x01)\n        /* \"@openzeppelin/contracts-upgradeable/proxy/utils/Initializable.sol\":4348:4362  $._initialized */\n      and\n        /* \"@openzeppelin/contracts-upgradeable/proxy/utils/Initializable.sol\":4279:4298  bool isTopLevelCall */\n      0x00\n        /* \"@openzeppelin/contracts-upgradeable/proxy/utils/Initializable.sol\":4724:4740  initialized == 0 */\n      dup2\n      iszero\n        /* \"@openzeppelin/contracts-upgradeable/proxy/utils/Initializable.sol\":4724:4758  initialized == 0 && isTopLevelCall */\n      dup1\n      iszero\n      tag_326\n      jumpi\n      pop\n        /* \"@openzeppelin/contracts-upgradeable/proxy/utils/Initializable.sol\":4744:4758  isTopLevelCall */\n      dup3\n        /* \"@openzeppelin/contracts-upgradeable/proxy/utils/Initializable.sol\":4724:4758  initialized == 0 && isTopLevelCall */\n    tag_326:\n        /* \"@openzeppelin/contracts-upgradeable/proxy/utils/Initializable.sol\":4704:4758  bool initialSetup = initialized == 0 && isTopLevelCall */\n      swap1\n      pop\n        /* \"@openzeppelin/contracts-upgradeable/proxy/utils/Initializable.sol\":4768:4785  bool construction */\n      0x00\n        /* \"@openzeppelin/contracts-upgradeable/proxy/utils/Initializable.sol\":4788:4799  initialized */\n      dup3\n      sub(shl(0x40, 0x01), 0x01)\n        /* \"@openzeppelin/contracts-upgradeable/proxy/utils/Initializable.sol\":4788:4804  initialized == 1 */\n      and\n        /* \"@openzeppelin/contracts-upgradeable/proxy/utils/Initializable.sol\":4803:4804  1 */\n      0x01\n        /* \"@openzeppelin/contracts-upgradeable/proxy/utils/Initializable.sol\":4788:4804  initialized == 1 */\n      eq\n        /* \"@openzeppelin/contracts-upgradeable/proxy/utils/Initializable.sol\":4788:4838  initialized == 1 && address(this).code.length == 0 */\n      dup1\n      iszero\n      tag_327\n      jumpi\n      pop\n        /* \"@openzeppelin/contracts-upgradeable/proxy/utils/Initializable.sol\":4816:4820  this */\n      address\n        /* \"@openzeppelin/contracts-upgradeable/proxy/utils/Initializable.sol\":4808:4833  address(this).code.length */\n      extcodesize\n        /* \"@openzeppelin/contracts-upgradeable/proxy/utils/Initializable.sol\":4808:4838  address(this).code.length == 0 */\n      iszero\n        /* \"@openzeppelin/contracts-upgradeable/proxy/utils/Initializable.sol\":4788:4838  initialized == 1 && address(this).code.length == 0 */\n    tag_327:\n        /* \"@openzeppelin/contracts-upgradeable/proxy/utils/Initializable.sol\":4768:4838  bool construction = initialized == 1 && address(this).code.length == 0 */\n      swap1\n      pop\n        /* \"@openzeppelin/contracts-upgradeable/proxy/utils/Initializable.sol\":4854:4866  initialSetup */\n      dup2\n        /* \"@openzeppelin/contracts-upgradeable/proxy/utils/Initializable.sol\":4853:4866  !initialSetup */\n      iszero\n        /* \"@openzeppelin/contracts-upgradeable/proxy/utils/Initializable.sol\":4853:4883  !initialSetup && !construction */\n      dup1\n      iszero\n      tag_328\n      jumpi\n      pop\n        /* \"@openzeppelin/contracts-upgradeable/proxy/utils/Initializable.sol\":4871:4883  construction */\n      dup1\n        /* \"@openzeppelin/contracts-upgradeable/proxy/utils/Initializable.sol\":4870:4883  !construction */\n      iszero\n        /* \"@openzeppelin/contracts-upgradeable/proxy/utils/Initializable.sol\":4853:4883  !initialSetup && !construction */\n    tag_328:\n        /* \"@openzeppelin/contracts-upgradeable/proxy/utils/Initializable.sol\":4849:4940  if (!initialSetup && !construction) {... */\n      iszero\n      tag_329\n      jumpi\n        /* \"@openzeppelin/contracts-upgradeable/proxy/utils/Initializable.sol\":4906:4929  InvalidInitialization() */\n      mload(0x40)\n      shl(0xe0, 0xf92ee8a9)\n      dup2\n      mstore\n      0x04\n      add\n      mload(0x40)\n      dup1\n      swap2\n      sub\n      swap1\n      revert\n        /* \"@openzeppelin/contracts-upgradeable/proxy/utils/Initializable.sol\":4849:4940  if (!initialSetup && !construction) {... */\n    tag_329:\n        /* \"@openzeppelin/contracts-upgradeable/proxy/utils/Initializable.sol\":4949:4967  $._initialized = 1 */\n      dup5\n      sload\n      not(sub(shl(0x40, 0x01), 0x01))\n      and\n        /* \"@openzeppelin/contracts-upgradeable/proxy/utils/Initializable.sol\":4966:4967  1 */\n      0x01\n        /* \"@openzeppelin/contracts-upgradeable/proxy/utils/Initializable.sol\":4949:4967  $._initialized = 1 */\n      or\n      dup6\n      sstore\n        /* \"@openzeppelin/contracts-upgradeable/proxy/utils/Initializable.sol\":4977:5044  if (isTopLevelCall) {... */\n      dup4\n      iszero\n      tag_330\n      jumpi\n        /* \"@openzeppelin/contracts-upgradeable/proxy/utils/Initializable.sol\":5011:5033  $._initializing = true */\n      dup5\n      sload\n      not(shl(0x40, 0xff))\n      and\n      shl(0x40, 0x01)\n      or\n      dup6\n      sstore\n        /* \"@openzeppelin/contracts-upgradeable/proxy/utils/Initializable.sol\":4977:5044  if (isTopLevelCall) {... */\n    tag_330:\n      sub(shl(0xa0, 0x01), 0x01)\n        /* \"contracts/OrderManager.sol\":2658:2688  _foodAppContract == address(0) */\n      dup10\n      and\n        /* \"contracts/OrderManager.sol\":2654:2727  if (_foodAppContract == address(0)) revert OrderManager__InvalidAddress() */\n      tag_332\n      jumpi\n        /* \"contracts/OrderManager.sol\":2697:2727  OrderManager__InvalidAddress() */\n      mload(0x40)\n      shl(0xe1, 0x2b840735)\n      dup2\n      mstore\n      0x04\n      add\n      mload(0x40)\n      dup1\n      swap2\n      sub\n      swap1\n      revert\n        /* \"contracts/OrderManager.sol\":2654:2727  if (_foodAppContract == address(0)) revert OrderManager__InvalidAddress() */\n    tag_332:\n      sub(shl(0xa0, 0x01), 0x01)\n        /* \"contracts/OrderManager.sol\":2742:2775  _menuManagerAddress == address(0) */\n      dup9\n      and\n        /* \"contracts/OrderManager.sol\":2738:2837  if (_menuManagerAddress == address(0)) revert OrderManager__InvalidDependencyAddress(\"MenuManager\") */\n      tag_333\n      jumpi\n        /* \"contracts/OrderManager.sol\":2784:2837  OrderManager__InvalidDependencyAddress(\"MenuManager\") */\n      mload(0x40)\n      shl(0xe3, 0x1f7ecdff)\n      dup2\n      mstore\n        /* \"#utility.yul\":20100:20102   */\n      0x20\n        /* \"contracts/OrderManager.sol\":2784:2837  OrderManager__InvalidDependencyAddress(\"MenuManager\") */\n      0x04\n      dup3\n      add\n        /* \"#utility.yul\":20082:20103   */\n      mstore\n        /* \"#utility.yul\":20139:20141   */\n      0x0b\n        /* \"#utility.yul\":20119:20137   */\n      0x24\n      dup3\n      add\n        /* \"#utility.yul\":20112:20142   */\n      mstore\n      shl(0xa9, 0x26b2b73aa6b0b730b3b2b9)\n        /* \"#utility.yul\":20158:20176   */\n      0x44\n      dup3\n      add\n        /* \"#utility.yul\":20151:20192   */\n      mstore\n        /* \"#utility.yul\":20209:20227   */\n      0x64\n      add\n        /* \"contracts/OrderManager.sol\":2784:2837  OrderManager__InvalidDependencyAddress(\"MenuManager\") */\n      tag_115\n        /* \"#utility.yul\":19898:20233   */\n      jump\n        /* \"contracts/OrderManager.sol\":2738:2837  if (_menuManagerAddress == address(0)) revert OrderManager__InvalidDependencyAddress(\"MenuManager\") */\n    tag_333:\n      sub(shl(0xa0, 0x01), 0x01)\n        /* \"contracts/OrderManager.sol\":2852:2891  _restaurantManagerAddress == address(0) */\n      dup8\n      and\n        /* \"contracts/OrderManager.sol\":2848:2959  if (_restaurantManagerAddress == address(0)) revert OrderManager__InvalidDependencyAddress(\"RestaurantManager\") */\n      tag_336\n      jumpi\n        /* \"contracts/OrderManager.sol\":2900:2959  OrderManager__InvalidDependencyAddress(\"RestaurantManager\") */\n      mload(0x40)\n      shl(0xe3, 0x1f7ecdff)\n      dup2\n      mstore\n        /* \"#utility.yul\":20440:20442   */\n      0x20\n        /* \"contracts/OrderManager.sol\":2900:2959  OrderManager__InvalidDependencyAddress(\"RestaurantManager\") */\n      0x04\n      dup3\n      add\n        /* \"#utility.yul\":20422:20443   */\n      mstore\n        /* \"#utility.yul\":20479:20481   */\n      0x11\n        /* \"#utility.yul\":20459:20477   */\n      0x24\n      dup3\n      add\n        /* \"#utility.yul\":20452:20482   */\n      mstore\n      shl(0x79, 0x2932b9ba30bab930b73a26b0b730b3b2b9)\n        /* \"#utility.yul\":20498:20516   */\n      0x44\n      dup3\n      add\n        /* \"#utility.yul\":20491:20538   */\n      mstore\n        /* \"#utility.yul\":20555:20573   */\n      0x64\n      add\n        /* \"contracts/OrderManager.sol\":2900:2959  OrderManager__InvalidDependencyAddress(\"RestaurantManager\") */\n      tag_115\n        /* \"#utility.yul\":20238:20579   */\n      jump\n        /* \"contracts/OrderManager.sol\":2848:2959  if (_restaurantManagerAddress == address(0)) revert OrderManager__InvalidDependencyAddress(\"RestaurantManager\") */\n    tag_336:\n        /* \"contracts/OrderManager.sol\":2970:2999  __Ownable_init(_factoryOwner) */\n      tag_339\n        /* \"contracts/OrderManager.sol\":2985:2998  _factoryOwner */\n      dup7\n        /* \"contracts/OrderManager.sol\":2970:2984  __Ownable_init */\n      tag_340\n        /* \"contracts/OrderManager.sol\":2970:2999  __Ownable_init(_factoryOwner) */\n      jump\t// in\n    tag_339:\n        /* \"contracts/OrderManager.sol\":3010:3032  foodAppContractAddress */\n      0x05\n        /* \"contracts/OrderManager.sol\":3010:3051  foodAppContractAddress = _foodAppContract */\n      dup1\n      sload\n      sub(shl(0xa0, 0x01), 0x01)\n      dup1\n      dup13\n      and\n      not(sub(shl(0xa0, 0x01), 0x01))\n      swap3\n      dup4\n      and\n      or\n      dup4\n      sstore\n        /* \"contracts/OrderManager.sol\":3062:3073  menuManager */\n      0x03\n        /* \"contracts/OrderManager.sol\":3062:3109  menuManager = IMenuManager(_menuManagerAddress) */\n      dup1\n      sload\n      dup13\n      dup4\n      and\n      swap1\n      dup5\n      and\n      or\n      swap1\n      sstore\n        /* \"contracts/OrderManager.sol\":3120:3137  restaurantManager */\n      0x04\n        /* \"contracts/OrderManager.sol\":3120:3185  restaurantManager = IRestaurantManager(_restaurantManagerAddress) */\n      dup1\n      sload\n      swap2\n      dup12\n      and\n      swap2\n      swap1\n      swap3\n      and\n      or\n      swap1\n      sstore\n        /* \"contracts/OrderManager.sol\":3010:3051  foodAppContractAddress = _foodAppContract */\n      0x01\n        /* \"contracts/OrderManager.sol\":3196:3211  nextOrderId = 1 */\n      dup1\n      sload\n      not(sub(shl(0x80, 0x01), 0x01))\n      and\n      dup2\n      or\n      swap1\n      sstore\n        /* \"contracts/OrderManager.sol\":3222:3240  platformFeePercent */\n      0x06\n        /* \"contracts/OrderManager.sol\":3222:3244  platformFeePercent = 5 */\n      sstore\n        /* \"@openzeppelin/contracts-upgradeable/proxy/utils/Initializable.sol\":5064:5165  if (isTopLevelCall) {... */\n      dup4\n      iszero\n      tag_341\n      jumpi\n        /* \"@openzeppelin/contracts-upgradeable/proxy/utils/Initializable.sol\":5098:5121  $._initializing = false */\n      dup5\n      sload\n      not(shl(0x40, 0xff))\n      and\n      dup6\n      sstore\n        /* \"@openzeppelin/contracts-upgradeable/proxy/utils/Initializable.sol\":5140:5154  Initialized(1) */\n      mload(0x40)\n      0x01\n        /* \"#utility.yul\":20737:20787   */\n      dup2\n      mstore\n        /* \"@openzeppelin/contracts-upgradeable/proxy/utils/Initializable.sol\":5140:5154  Initialized(1) */\n      0xc7f505b2f371ae2175ee4913f4499e1f2633a7b5936321eed1cdaeb6115181d2\n      swap1\n        /* \"#utility.yul\":20725:20727   */\n      0x20\n        /* \"#utility.yul\":20710:20728   */\n      add\n        /* \"@openzeppelin/contracts-upgradeable/proxy/utils/Initializable.sol\":5140:5154  Initialized(1) */\n      mload(0x40)\n      dup1\n      swap2\n      sub\n      swap1\n      log1\n        /* \"@openzeppelin/contracts-upgradeable/proxy/utils/Initializable.sol\":5064:5165  if (isTopLevelCall) {... */\n    tag_341:\n        /* \"@openzeppelin/contracts-upgradeable/proxy/utils/Initializable.sol\":4092:5171  {... */\n      pop\n      pop\n      pop\n      pop\n      pop\n        /* \"contracts/OrderManager.sol\":2448:3252  function initialize(... */\n      pop\n      pop\n      pop\n      pop\n      jump\t// out\n        /* \"@openzeppelin/contracts-upgradeable/access/OwnableUpgradeable.sol\":2658:2820  function _checkOwner() internal view virtual {... */\n    tag_118:\n        /* \"@openzeppelin/contracts-upgradeable/utils/ContextUpgradeable.sol\":966:976  msg.sender */\n      caller\n        /* \"@openzeppelin/contracts-upgradeable/access/OwnableUpgradeable.sol\":2717:2724  owner() */\n      tag_347\n        /* \"@openzeppelin/contracts-upgradeable/access/OwnableUpgradeable.sol\":2717:2722  owner */\n      tag_70\n        /* \"@openzeppelin/contracts-upgradeable/access/OwnableUpgradeable.sol\":2717:2724  owner() */\n      jump\t// in\n    tag_347:\n      sub(shl(0xa0, 0x01), 0x01)\n        /* \"@openzeppelin/contracts-upgradeable/access/OwnableUpgradeable.sol\":2717:2740  owner() != _msgSender() */\n      and\n      eq\n        /* \"@openzeppelin/contracts-upgradeable/access/OwnableUpgradeable.sol\":2713:2814  if (owner() != _msgSender()) {... */\n      tag_193\n      jumpi\n        /* \"@openzeppelin/contracts-upgradeable/utils/ContextUpgradeable.sol\":966:976  msg.sender */\n      caller\n        /* \"@openzeppelin/contracts-upgradeable/access/OwnableUpgradeable.sol\":2763:2803  OwnableUnauthorizedAccount(_msgSender()) */\n      mload(0x40)\n      shl(0xe0, 0x118cdaa7)\n      dup2\n      mstore\n      0x04\n      add\n      tag_115\n      swap2\n      swap1\n      tag_44\n      jump\t// in\n        /* \"@openzeppelin/contracts/utils/ReentrancyGuard.sol\":2575:2882  function _nonReentrantBefore() private {... */\n    tag_158:\n        /* \"@openzeppelin/contracts/utils/ReentrancyGuard.sol\":1899:1900  2 */\n      0x02\n        /* \"@openzeppelin/contracts/utils/ReentrancyGuard.sol\":2702:2709  _status */\n      sload(0x00)\n        /* \"@openzeppelin/contracts/utils/ReentrancyGuard.sol\":2702:2720  _status == ENTERED */\n      sub\n        /* \"@openzeppelin/contracts/utils/ReentrancyGuard.sol\":2698:2784  if (_status == ENTERED) {... */\n      tag_352\n      jumpi\n        /* \"@openzeppelin/contracts/utils/ReentrancyGuard.sol\":2743:2773  ReentrancyGuardReentrantCall() */\n      mload(0x40)\n      shl(0xe0, 0x3ee5aeb5)\n      dup2\n      mstore\n      0x04\n      add\n      mload(0x40)\n      dup1\n      swap2\n      sub\n      swap1\n      revert\n        /* \"@openzeppelin/contracts/utils/ReentrancyGuard.sol\":2698:2784  if (_status == ENTERED) {... */\n    tag_352:\n        /* \"@openzeppelin/contracts/utils/ReentrancyGuard.sol\":1899:1900  2 */\n      0x02\n        /* \"@openzeppelin/contracts/utils/ReentrancyGuard.sol\":2858:2865  _status */\n      0x00\n        /* \"@openzeppelin/contracts/utils/ReentrancyGuard.sol\":2858:2875  _status = ENTERED */\n      sstore\n        /* \"@openzeppelin/contracts/utils/ReentrancyGuard.sol\":2575:2882  function _nonReentrantBefore() private {... */\n      jump\t// out\n        /* \"@openzeppelin/contracts-upgradeable/access/OwnableUpgradeable.sol\":3774:4022  function _transferOwnership(address newOwner) internal virtual {... */\n    tag_194:\n        /* \"@openzeppelin/contracts-upgradeable/access/OwnableUpgradeable.sol\":3847:3871  OwnableStorage storage $ */\n      0x00\n        /* \"@openzeppelin/contracts-upgradeable/access/OwnableUpgradeable.sol\":3874:3894  _getOwnableStorage() */\n      tag_355\n        /* \"@openzeppelin/contracts-upgradeable/access/OwnableUpgradeable.sol\":3874:3892  _getOwnableStorage */\n      tag_197\n        /* \"@openzeppelin/contracts-upgradeable/access/OwnableUpgradeable.sol\":3874:3894  _getOwnableStorage() */\n      jump\t// in\n    tag_355:\n        /* \"@openzeppelin/contracts-upgradeable/access/OwnableUpgradeable.sol\":3923:3931  $._owner */\n      dup1\n      sload\n      sub(shl(0xa0, 0x01), 0x01)\n        /* \"@openzeppelin/contracts-upgradeable/access/OwnableUpgradeable.sol\":3941:3960  $._owner = newOwner */\n      dup5\n      dup2\n      and\n      not(sub(shl(0xa0, 0x01), 0x01))\n      dup4\n      and\n      dup2\n      or\n      dup5\n      sstore\n        /* \"@openzeppelin/contracts-upgradeable/access/OwnableUpgradeable.sol\":3975:4015  OwnershipTransferred(oldOwner, newOwner) */\n      mload(0x40)\n        /* \"@openzeppelin/contracts-upgradeable/access/OwnableUpgradeable.sol\":3847:3894  OwnableStorage storage $ = _getOwnableStorage() */\n      swap4\n      swap5\n      pop\n        /* \"@openzeppelin/contracts-upgradeable/access/OwnableUpgradeable.sol\":3923:3931  $._owner */\n      swap2\n      and\n      swap2\n      dup3\n      swap1\n        /* \"@openzeppelin/contracts-upgradeable/access/OwnableUpgradeable.sol\":3975:4015  OwnershipTransferred(oldOwner, newOwner) */\n      0x8be0079c531659141344cd1fd0a4f28419497f9722a3daafe3b4186f6b6457e0\n      swap1\n        /* \"@openzeppelin/contracts-upgradeable/access/OwnableUpgradeable.sol\":3904:3920  address oldOwner */\n      0x00\n      swap1\n        /* \"@openzeppelin/contracts-upgradeable/access/OwnableUpgradeable.sol\":3975:4015  OwnershipTransferred(oldOwner, newOwner) */\n      log3\n        /* \"@openzeppelin/contracts-upgradeable/access/OwnableUpgradeable.sol\":3837:4022  {... */\n      pop\n      pop\n        /* \"@openzeppelin/contracts-upgradeable/access/OwnableUpgradeable.sol\":3774:4022  function _transferOwnership(address newOwner) internal virtual {... */\n      pop\n      jump\t// out\n        /* \"@openzeppelin/contracts-upgradeable/access/OwnableUpgradeable.sol\":1192:1351  function _getOwnableStorage() private pure returns (OwnableStorage storage $) {... */\n    tag_197:\n        /* \"@openzeppelin/contracts-upgradeable/access/OwnableUpgradeable.sol\":1313:1335  OwnableStorageLocation */\n      0x9016d09d72d40fdae2fd8ceac6b6234c7706214fd39c1cd1e609a0528c199300\n      swap1\n        /* \"@openzeppelin/contracts-upgradeable/access/OwnableUpgradeable.sol\":1192:1351  function _getOwnableStorage() private pure returns (OwnableStorage storage $) {... */\n      jump\t// out\n        /* \"@openzeppelin/contracts-upgradeable/proxy/utils/Initializable.sol\":9071:9276  function _getInitializableStorage() private pure returns (InitializableStorage storage $) {... */\n    tag_325:\n        /* \"@openzeppelin/contracts-upgradeable/proxy/utils/Initializable.sol\":9129:9159  InitializableStorage storage $ */\n      0x00\n      dup1\n        /* \"@openzeppelin/contracts-upgradeable/proxy/utils/Initializable.sol\":3147:3213  0xf0c57e16840df040f15088dc2f81fe391c3923bec73e23a9662efc9c229c6a00 */\n      0xf0c57e16840df040f15088dc2f81fe391c3923bec73e23a9662efc9c229c6a00\n        /* \"@openzeppelin/contracts-upgradeable/proxy/utils/Initializable.sol\":9186:9213  _initializableStorageSlot() */\n      tag_114\n        /* \"@openzeppelin/contracts-upgradeable/proxy/utils/Initializable.sol\":8819:8941  function _initializableStorageSlot() internal pure virtual returns (bytes32) {... */\n      jump\n        /* \"@openzeppelin/contracts-upgradeable/access/OwnableUpgradeable.sol\":1847:1974  function __Ownable_init(address initialOwner) internal onlyInitializing {... */\n    tag_340:\n        /* \"@openzeppelin/contracts-upgradeable/proxy/utils/Initializable.sol\":6929:6949  _checkInitializing() */\n      tag_361\n        /* \"@openzeppelin/contracts-upgradeable/proxy/utils/Initializable.sol\":6929:6947  _checkInitializing */\n      tag_362\n        /* \"@openzeppelin/contracts-upgradeable/proxy/utils/Initializable.sol\":6929:6949  _checkInitializing() */\n      jump\t// in\n    tag_361:\n        /* \"@openzeppelin/contracts-upgradeable/access/OwnableUpgradeable.sol\":1929:1967  __Ownable_init_unchained(initialOwner) */\n      tag_322\n        /* \"@openzeppelin/contracts-upgradeable/access/OwnableUpgradeable.sol\":1954:1966  initialOwner */\n      dup2\n        /* \"@openzeppelin/contracts-upgradeable/access/OwnableUpgradeable.sol\":1929:1953  __Ownable_init_unchained */\n      tag_365\n        /* \"@openzeppelin/contracts-upgradeable/access/OwnableUpgradeable.sol\":1929:1967  __Ownable_init_unchained(initialOwner) */\n      jump\t// in\n        /* \"@openzeppelin/contracts-upgradeable/proxy/utils/Initializable.sol\":7082:7223  function _checkInitializing() internal view virtual {... */\n    tag_362:\n        /* \"@openzeppelin/contracts-upgradeable/proxy/utils/Initializable.sol\":7149:7166  _isInitializing() */\n      tag_369\n        /* \"@openzeppelin/contracts-upgradeable/proxy/utils/Initializable.sol\":7149:7164  _isInitializing */\n      tag_370\n        /* \"@openzeppelin/contracts-upgradeable/proxy/utils/Initializable.sol\":7149:7166  _isInitializing() */\n      jump\t// in\n    tag_369:\n        /* \"@openzeppelin/contracts-upgradeable/proxy/utils/Initializable.sol\":7144:7217  if (!_isInitializing()) {... */\n      tag_193\n      jumpi\n        /* \"@openzeppelin/contracts-upgradeable/proxy/utils/Initializable.sol\":7189:7206  NotInitializing() */\n      mload(0x40)\n      shl(0xe3, 0x1afcd79f)\n      dup2\n      mstore\n      0x04\n      add\n      mload(0x40)\n      dup1\n      swap2\n      sub\n      swap1\n      revert\n        /* \"@openzeppelin/contracts-upgradeable/access/OwnableUpgradeable.sol\":1980:2215  function __Ownable_init_unchained(address initialOwner) internal onlyInitializing {... */\n    tag_365:\n        /* \"@openzeppelin/contracts-upgradeable/proxy/utils/Initializable.sol\":6929:6949  _checkInitializing() */\n      tag_318\n        /* \"@openzeppelin/contracts-upgradeable/proxy/utils/Initializable.sol\":6929:6947  _checkInitializing */\n      tag_362\n        /* \"@openzeppelin/contracts-upgradeable/proxy/utils/Initializable.sol\":6929:6949  _checkInitializing() */\n      jump\t// in\n        /* \"@openzeppelin/contracts-upgradeable/proxy/utils/Initializable.sol\":8485:8605  function _isInitializing() internal view returns (bool) {... */\n    tag_370:\n        /* \"@openzeppelin/contracts-upgradeable/proxy/utils/Initializable.sol\":8535:8539  bool */\n      0x00\n        /* \"@openzeppelin/contracts-upgradeable/proxy/utils/Initializable.sol\":8558:8584  _getInitializableStorage() */\n      tag_379\n        /* \"@openzeppelin/contracts-upgradeable/proxy/utils/Initializable.sol\":8558:8582  _getInitializableStorage */\n      tag_325\n        /* \"@openzeppelin/contracts-upgradeable/proxy/utils/Initializable.sol\":8558:8584  _getInitializableStorage() */\n      jump\t// in\n    tag_379:\n        /* \"@openzeppelin/contracts-upgradeable/proxy/utils/Initializable.sol\":8558:8598  _getInitializableStorage()._initializing */\n      sload\n      shl(0x40, 0x01)\n      swap1\n      div\n      0xff\n      and\n      swap2\n      swap1\n      pop\n        /* \"@openzeppelin/contracts-upgradeable/proxy/utils/Initializable.sol\":8485:8605  function _isInitializing() internal view returns (bool) {... */\n      jump\t// out\n        /* \"#utility.yul\":14:145   */\n    tag_382:\n      sub(shl(0x80, 0x01), 0x01)\n        /* \"#utility.yul\":89:120   */\n      dup2\n      and\n        /* \"#utility.yul\":79:121   */\n      dup2\n      eq\n        /* \"#utility.yul\":69:139   */\n      tag_322\n      jumpi\n        /* \"#utility.yul\":135:136   */\n      0x00\n        /* \"#utility.yul\":132:133   */\n      0x00\n        /* \"#utility.yul\":125:137   */\n      revert\n        /* \"#utility.yul\":150:397   */\n    tag_21:\n        /* \"#utility.yul\":209:215   */\n      0x00\n        /* \"#utility.yul\":262:264   */\n      0x20\n        /* \"#utility.yul\":250:259   */\n      dup3\n        /* \"#utility.yul\":241:248   */\n      dup5\n        /* \"#utility.yul\":237:260   */\n      sub\n        /* \"#utility.yul\":233:265   */\n      slt\n        /* \"#utility.yul\":230:282   */\n      iszero\n      tag_401\n      jumpi\n        /* \"#utility.yul\":278:279   */\n      0x00\n        /* \"#utility.yul\":275:276   */\n      0x00\n        /* \"#utility.yul\":268:280   */\n      revert\n        /* \"#utility.yul\":230:282   */\n    tag_401:\n        /* \"#utility.yul\":317:326   */\n      dup2\n        /* \"#utility.yul\":304:327   */\n      calldataload\n        /* \"#utility.yul\":336:367   */\n      tag_402\n        /* \"#utility.yul\":361:366   */\n      dup2\n        /* \"#utility.yul\":336:367   */\n      tag_382\n      jump\t// in\n    tag_402:\n        /* \"#utility.yul\":386:391   */\n      swap4\n        /* \"#utility.yul\":150:397   */\n      swap3\n      pop\n      pop\n      pop\n      jump\t// out\n        /* \"#utility.yul\":402:506   */\n    tag_383:\n      sub(shl(0x80, 0x01), 0x01)\n        /* \"#utility.yul\":468:499   */\n      and\n        /* \"#utility.yul\":456:500   */\n      swap1\n      mstore\n        /* \"#utility.yul\":402:506   */\n      jump\t// out\n        /* \"#utility.yul\":511:1697   */\n    tag_384:\n        /* \"#utility.yul\":579:582   */\n      0x00\n        /* \"#utility.yul\":610:613   */\n      dup3\n        /* \"#utility.yul\":642:647   */\n      dup3\n        /* \"#utility.yul\":636:648   */\n      mload\n        /* \"#utility.yul\":669:675   */\n      dup1\n        /* \"#utility.yul\":664:667   */\n      dup6\n        /* \"#utility.yul\":657:676   */\n      mstore\n        /* \"#utility.yul\":701:705   */\n      0x20\n        /* \"#utility.yul\":696:699   */\n      dup6\n        /* \"#utility.yul\":692:706   */\n      add\n        /* \"#utility.yul\":685:706   */\n      swap5\n      pop\n        /* \"#utility.yul\":759:763   */\n      0x20\n        /* \"#utility.yul\":749:755   */\n      dup2\n        /* \"#utility.yul\":746:747   */\n      0x05\n        /* \"#utility.yul\":742:756   */\n      shl\n        /* \"#utility.yul\":735:740   */\n      dup4\n        /* \"#utility.yul\":731:757   */\n      add\n        /* \"#utility.yul\":727:764   */\n      add\n        /* \"#utility.yul\":798:802   */\n      0x20\n        /* \"#utility.yul\":791:796   */\n      dup6\n        /* \"#utility.yul\":787:803   */\n      add\n        /* \"#utility.yul\":821:822   */\n      0x00\n        /* \"#utility.yul\":831:1671   */\n    tag_405:\n        /* \"#utility.yul\":845:851   */\n      dup4\n        /* \"#utility.yul\":842:843   */\n      dup2\n        /* \"#utility.yul\":839:852   */\n      lt\n        /* \"#utility.yul\":831:1671   */\n      iszero\n      tag_407\n      jumpi\n        /* \"#utility.yul\":932:934   */\n      0x1f\n        /* \"#utility.yul\":928:935   */\n      not\n        /* \"#utility.yul\":920:925   */\n      dup6\n        /* \"#utility.yul\":914:918   */\n      dup5\n        /* \"#utility.yul\":910:926   */\n      sub\n        /* \"#utility.yul\":906:936   */\n      add\n        /* \"#utility.yul\":901:904   */\n      dup9\n        /* \"#utility.yul\":894:937   */\n      mstore\n        /* \"#utility.yul\":966:972   */\n      dup2\n        /* \"#utility.yul\":960:973   */\n      mload\n        /* \"#utility.yul\":1031:1032   */\n      0x01\n        /* \"#utility.yul\":1027:1028   */\n      dup1\n        /* \"#utility.yul\":1022:1025   */\n      0x80\n        /* \"#utility.yul\":1018:1029   */\n      shl\n        /* \"#utility.yul\":1014:1033   */\n      sub\n        /* \"#utility.yul\":1009:1011   */\n      dup2\n        /* \"#utility.yul\":1003:1012   */\n      mload\n        /* \"#utility.yul\":999:1034   */\n      and\n        /* \"#utility.yul\":993:997   */\n      dup5\n        /* \"#utility.yul\":986:1035   */\n      mstore\n        /* \"#utility.yul\":1082:1086   */\n      0x20\n        /* \"#utility.yul\":1078:1080   */\n      dup2\n        /* \"#utility.yul\":1074:1087   */\n      add\n        /* \"#utility.yul\":1068:1088   */\n      mload\n        /* \"#utility.yul\":1125:1129   */\n      0x80\n        /* \"#utility.yul\":1118:1122   */\n      0x20\n        /* \"#utility.yul\":1112:1116   */\n      dup7\n        /* \"#utility.yul\":1108:1123   */\n      add\n        /* \"#utility.yul\":1101:1130   */\n      mstore\n        /* \"#utility.yul\":1165:1177   */\n      dup1\n        /* \"#utility.yul\":1159:1178   */\n      mload\n        /* \"#utility.yul\":1215:1223   */\n      dup1\n        /* \"#utility.yul\":1208:1212   */\n      0x80\n        /* \"#utility.yul\":1202:1206   */\n      dup8\n        /* \"#utility.yul\":1198:1213   */\n      add\n        /* \"#utility.yul\":1191:1224   */\n      mstore\n        /* \"#utility.yul\":1284:1292   */\n      dup1\n        /* \"#utility.yul\":1277:1281   */\n      0x20\n        /* \"#utility.yul\":1263:1275   */\n      dup4\n        /* \"#utility.yul\":1259:1282   */\n      add\n        /* \"#utility.yul\":1253:1256   */\n      0xa0\n        /* \"#utility.yul\":1247:1251   */\n      dup9\n        /* \"#utility.yul\":1243:1257   */\n      add\n        /* \"#utility.yul\":1237:1293   */\n      mcopy\n        /* \"#utility.yul\":1344:1345   */\n      0x00\n        /* \"#utility.yul\":1338:1341   */\n      0xa0\n        /* \"#utility.yul\":1327:1335   */\n      dup3\n        /* \"#utility.yul\":1321:1325   */\n      dup9\n        /* \"#utility.yul\":1317:1336   */\n      add\n        /* \"#utility.yul\":1313:1342   */\n      add\n        /* \"#utility.yul\":1306:1346   */\n      mstore\n        /* \"#utility.yul\":1426:1427   */\n      0x01\n        /* \"#utility.yul\":1422:1423   */\n      dup1\n        /* \"#utility.yul\":1417:1420   */\n      0x80\n        /* \"#utility.yul\":1413:1424   */\n      shl\n        /* \"#utility.yul\":1409:1428   */\n      sub\n        /* \"#utility.yul\":1401:1405   */\n      0x40\n        /* \"#utility.yul\":1397:1399   */\n      dup5\n        /* \"#utility.yul\":1393:1406   */\n      add\n        /* \"#utility.yul\":1387:1407   */\n      mload\n        /* \"#utility.yul\":1383:1429   */\n      and\n        /* \"#utility.yul\":1376:1380   */\n      0x40\n        /* \"#utility.yul\":1370:1374   */\n      dup8\n        /* \"#utility.yul\":1366:1381   */\n      add\n        /* \"#utility.yul\":1359:1430   */\n      mstore\n        /* \"#utility.yul\":1510:1511   */\n      0x01\n        /* \"#utility.yul\":1506:1507   */\n      dup1\n        /* \"#utility.yul\":1501:1504   */\n      0x80\n        /* \"#utility.yul\":1497:1508   */\n      shl\n        /* \"#utility.yul\":1493:1512   */\n      sub\n        /* \"#utility.yul\":1485:1489   */\n      0x60\n        /* \"#utility.yul\":1481:1483   */\n      dup5\n        /* \"#utility.yul\":1477:1490   */\n      add\n        /* \"#utility.yul\":1471:1491   */\n      mload\n        /* \"#utility.yul\":1467:1513   */\n      and\n        /* \"#utility.yul\":1460:1464   */\n      0x60\n        /* \"#utility.yul\":1454:1458   */\n      dup8\n        /* \"#utility.yul\":1450:1465   */\n      add\n        /* \"#utility.yul\":1443:1514   */\n      mstore\n        /* \"#utility.yul\":1583:1586   */\n      0xa0\n        /* \"#utility.yul\":1576:1578   */\n      0x1f\n        /* \"#utility.yul\":1572:1579   */\n      not\n        /* \"#utility.yul\":1567:1569   */\n      0x1f\n        /* \"#utility.yul\":1557:1565   */\n      dup4\n        /* \"#utility.yul\":1553:1570   */\n      add\n        /* \"#utility.yul\":1549:1580   */\n      and\n        /* \"#utility.yul\":1543:1547   */\n      dup8\n        /* \"#utility.yul\":1539:1581   */\n      add\n        /* \"#utility.yul\":1535:1587   */\n      add\n        /* \"#utility.yul\":1527:1587   */\n      swap6\n      pop\n      pop\n      pop\n      pop\n        /* \"#utility.yul\":1622:1626   */\n      0x20\n        /* \"#utility.yul\":1614:1620   */\n      dup3\n        /* \"#utility.yul\":1610:1627   */\n      add\n        /* \"#utility.yul\":1600:1627   */\n      swap2\n      pop\n        /* \"#utility.yul\":1656:1660   */\n      0x20\n        /* \"#utility.yul\":1651:1654   */\n      dup9\n        /* \"#utility.yul\":1647:1661   */\n      add\n        /* \"#utility.yul\":1640:1661   */\n      swap8\n      pop\n        /* \"#utility.yul\":867:868   */\n      0x01\n        /* \"#utility.yul\":864:865   */\n      dup2\n        /* \"#utility.yul\":860:869   */\n      add\n        /* \"#utility.yul\":855:869   */\n      swap1\n      pop\n        /* \"#utility.yul\":831:1671   */\n      jump(tag_405)\n    tag_407:\n      pop\n        /* \"#utility.yul\":1687:1691   */\n      swap1\n      swap7\n        /* \"#utility.yul\":511:1697   */\n      swap6\n      pop\n      pop\n      pop\n      pop\n      pop\n      pop\n      jump\t// out\n        /* \"#utility.yul\":1702:1829   */\n    tag_111:\n        /* \"#utility.yul\":1763:1773   */\n      0x4e487b71\n        /* \"#utility.yul\":1758:1761   */\n      0xe0\n        /* \"#utility.yul\":1754:1774   */\n      shl\n        /* \"#utility.yul\":1751:1752   */\n      0x00\n        /* \"#utility.yul\":1744:1775   */\n      mstore\n        /* \"#utility.yul\":1794:1798   */\n      0x21\n        /* \"#utility.yul\":1791:1792   */\n      0x04\n        /* \"#utility.yul\":1784:1799   */\n      mstore\n        /* \"#utility.yul\":1818:1822   */\n      0x24\n        /* \"#utility.yul\":1815:1816   */\n      0x00\n        /* \"#utility.yul\":1808:1823   */\n      revert\n        /* \"#utility.yul\":1834:2073   */\n    tag_385:\n        /* \"#utility.yul\":1917:1918   */\n      0x07\n        /* \"#utility.yul\":1910:1915   */\n      dup2\n        /* \"#utility.yul\":1907:1919   */\n      lt\n        /* \"#utility.yul\":1897:2040   */\n      tag_410\n      jumpi\n        /* \"#utility.yul\":1962:1972   */\n      0x4e487b71\n        /* \"#utility.yul\":1957:1960   */\n      0xe0\n        /* \"#utility.yul\":1953:1973   */\n      shl\n        /* \"#utility.yul\":1950:1951   */\n      0x00\n        /* \"#utility.yul\":1943:1974   */\n      mstore\n        /* \"#utility.yul\":1997:2001   */\n      0x21\n        /* \"#utility.yul\":1994:1995   */\n      0x04\n        /* \"#utility.yul\":1987:2002   */\n      mstore\n        /* \"#utility.yul\":2025:2029   */\n      0x24\n        /* \"#utility.yul\":2022:2023   */\n      0x00\n        /* \"#utility.yul\":2015:2030   */\n      revert\n        /* \"#utility.yul\":1897:2040   */\n    tag_410:\n        /* \"#utility.yul\":2049:2067   */\n      swap1\n      mstore\n        /* \"#utility.yul\":1834:2073   */\n      jump\t// out\n        /* \"#utility.yul\":2078:3185   */\n    tag_24:\n        /* \"#utility.yul\":2253:2255   */\n      0x20\n        /* \"#utility.yul\":2235:2256   */\n      dup1\n      dup3\n      mstore\n        /* \"#utility.yul\":2296:2309   */\n      dup3\n      mload\n      sub(shl(0x80, 0x01), 0x01)\n        /* \"#utility.yul\":2292:2331   */\n      and\n        /* \"#utility.yul\":2272:2290   */\n      dup3\n      dup3\n      add\n        /* \"#utility.yul\":2265:2332   */\n      mstore\n        /* \"#utility.yul\":2378:2393   */\n      dup3\n      add\n        /* \"#utility.yul\":2372:2394   */\n      mload\n      sub(shl(0xa0, 0x01), 0x01)\n        /* \"#utility.yul\":2368:2416   */\n      and\n        /* \"#utility.yul\":2363:2365   */\n      0x40\n        /* \"#utility.yul\":2348:2366   */\n      dup1\n      dup4\n      add\n        /* \"#utility.yul\":2341:2417   */\n      swap2\n      swap1\n      swap2\n      mstore\n        /* \"#utility.yul\":2452:2467   */\n      dup3\n      add\n        /* \"#utility.yul\":2446:2468   */\n      mload\n      0x00\n      swap1\n        /* \"#utility.yul\":2477:2529   */\n      tag_412\n        /* \"#utility.yul\":2525:2527   */\n      0x60\n        /* \"#utility.yul\":2510:2528   */\n      dup5\n      add\n        /* \"#utility.yul\":2446:2468   */\n      dup3\n        /* \"#utility.yul\":2477:2529   */\n      tag_383\n      jump\t// in\n    tag_412:\n      pop\n        /* \"#utility.yul\":2578:2580   */\n      0x60\n        /* \"#utility.yul\":2570:2576   */\n      dup4\n        /* \"#utility.yul\":2566:2581   */\n      add\n        /* \"#utility.yul\":2560:2582   */\n      mload\n        /* \"#utility.yul\":2619:2625   */\n      0x0100\n        /* \"#utility.yul\":2613:2616   */\n      0x80\n        /* \"#utility.yul\":2602:2611   */\n      dup5\n        /* \"#utility.yul\":2598:2617   */\n      add\n        /* \"#utility.yul\":2591:2626   */\n      mstore\n        /* \"#utility.yul\":2649:2729   */\n      tag_413\n        /* \"#utility.yul\":2724:2727   */\n      0x0120\n        /* \"#utility.yul\":2713:2722   */\n      dup5\n        /* \"#utility.yul\":2709:2728   */\n      add\n        /* \"#utility.yul\":2693:2707   */\n      dup3\n        /* \"#utility.yul\":2649:2729   */\n      tag_384\n      jump\t// in\n    tag_413:\n        /* \"#utility.yul\":2635:2729   */\n      swap1\n      pop\n        /* \"#utility.yul\":2784:2787   */\n      0x80\n        /* \"#utility.yul\":2776:2782   */\n      dup5\n        /* \"#utility.yul\":2772:2788   */\n      add\n        /* \"#utility.yul\":2766:2789   */\n      mload\n        /* \"#utility.yul\":2760:2763   */\n      0xa0\n        /* \"#utility.yul\":2749:2758   */\n      dup5\n        /* \"#utility.yul\":2745:2764   */\n      add\n        /* \"#utility.yul\":2738:2790   */\n      mstore\n        /* \"#utility.yul\":2839:2842   */\n      0xa0\n        /* \"#utility.yul\":2831:2837   */\n      dup5\n        /* \"#utility.yul\":2827:2843   */\n      add\n        /* \"#utility.yul\":2821:2844   */\n      mload\n        /* \"#utility.yul\":2853:2917   */\n      tag_414\n        /* \"#utility.yul\":2912:2915   */\n      0xc0\n        /* \"#utility.yul\":2901:2910   */\n      dup6\n        /* \"#utility.yul\":2897:2916   */\n      add\n        /* \"#utility.yul\":2881:2895   */\n      dup3\n        /* \"#utility.yul\":2853:2917   */\n      tag_385\n      jump\t// in\n    tag_414:\n      pop\n        /* \"#utility.yul\":2966:2969   */\n      0xc0\n        /* \"#utility.yul\":2958:2964   */\n      dup5\n        /* \"#utility.yul\":2954:2970   */\n      add\n        /* \"#utility.yul\":2948:2971   */\n      mload\n        /* \"#utility.yul\":2980:3035   */\n      tag_415\n        /* \"#utility.yul\":3030:3033   */\n      0xe0\n        /* \"#utility.yul\":3019:3028   */\n      dup6\n        /* \"#utility.yul\":3015:3034   */\n      add\n        /* \"#utility.yul\":2999:3013   */\n      dup3\n        /* \"#utility.yul\":2980:3035   */\n      tag_383\n      jump\t// in\n    tag_415:\n      pop\n        /* \"#utility.yul\":3084:3087   */\n      0xe0\n        /* \"#utility.yul\":3076:3082   */\n      dup5\n        /* \"#utility.yul\":3072:3088   */\n      add\n        /* \"#utility.yul\":3066:3089   */\n      mload\n        /* \"#utility.yul\":3098:3156   */\n      tag_416\n        /* \"#utility.yul\":3148:3154   */\n      0x0100\n        /* \"#utility.yul\":3137:3146   */\n      dup6\n        /* \"#utility.yul\":3133:3155   */\n      add\n        /* \"#utility.yul\":3117:3131   */\n      dup3\n        /* \"#utility.yul\":3098:3156   */\n      tag_383\n      jump\t// in\n    tag_416:\n      pop\n        /* \"#utility.yul\":3173:3179   */\n      swap4\n        /* \"#utility.yul\":2078:3185   */\n      swap3\n      pop\n      pop\n      pop\n      jump\t// out\n        /* \"#utility.yul\":3190:3370   */\n    tag_28:\n        /* \"#utility.yul\":3249:3255   */\n      0x00\n        /* \"#utility.yul\":3302:3304   */\n      0x20\n        /* \"#utility.yul\":3290:3299   */\n      dup3\n        /* \"#utility.yul\":3281:3288   */\n      dup5\n        /* \"#utility.yul\":3277:3300   */\n      sub\n        /* \"#utility.yul\":3273:3305   */\n      slt\n        /* \"#utility.yul\":3270:3322   */\n      iszero\n      tag_418\n      jumpi\n        /* \"#utility.yul\":3318:3319   */\n      0x00\n        /* \"#utility.yul\":3315:3316   */\n      0x00\n        /* \"#utility.yul\":3308:3320   */\n      revert\n        /* \"#utility.yul\":3270:3322   */\n    tag_418:\n      pop\n        /* \"#utility.yul\":3341:3364   */\n      calldataload\n      swap2\n        /* \"#utility.yul\":3190:3370   */\n      swap1\n      pop\n      jump\t// out\n        /* \"#utility.yul\":3375:3506   */\n    tag_386:\n      sub(shl(0xa0, 0x01), 0x01)\n        /* \"#utility.yul\":3450:3481   */\n      dup2\n      and\n        /* \"#utility.yul\":3440:3482   */\n      dup2\n      eq\n        /* \"#utility.yul\":3430:3500   */\n      tag_322\n      jumpi\n        /* \"#utility.yul\":3496:3497   */\n      0x00\n        /* \"#utility.yul\":3493:3494   */\n      0x00\n        /* \"#utility.yul\":3486:3498   */\n      revert\n        /* \"#utility.yul\":3511:4207   */\n    tag_33:\n        /* \"#utility.yul\":3613:3619   */\n      0x00\n        /* \"#utility.yul\":3621:3627   */\n      0x00\n        /* \"#utility.yul\":3629:3635   */\n      0x00\n        /* \"#utility.yul\":3637:3643   */\n      0x00\n        /* \"#utility.yul\":3690:3693   */\n      0x80\n        /* \"#utility.yul\":3678:3687   */\n      dup6\n        /* \"#utility.yul\":3669:3676   */\n      dup8\n        /* \"#utility.yul\":3665:3688   */\n      sub\n        /* \"#utility.yul\":3661:3694   */\n      slt\n        /* \"#utility.yul\":3658:3711   */\n      iszero\n      tag_422\n      jumpi\n        /* \"#utility.yul\":3707:3708   */\n      0x00\n        /* \"#utility.yul\":3704:3705   */\n      0x00\n        /* \"#utility.yul\":3697:3709   */\n      revert\n        /* \"#utility.yul\":3658:3711   */\n    tag_422:\n        /* \"#utility.yul\":3746:3755   */\n      dup5\n        /* \"#utility.yul\":3733:3756   */\n      calldataload\n        /* \"#utility.yul\":3765:3796   */\n      tag_423\n        /* \"#utility.yul\":3790:3795   */\n      dup2\n        /* \"#utility.yul\":3765:3796   */\n      tag_386\n      jump\t// in\n    tag_423:\n        /* \"#utility.yul\":3815:3820   */\n      swap4\n      pop\n        /* \"#utility.yul\":3872:3874   */\n      0x20\n        /* \"#utility.yul\":3857:3875   */\n      dup6\n      add\n        /* \"#utility.yul\":3844:3876   */\n      calldataload\n        /* \"#utility.yul\":3885:3918   */\n      tag_424\n        /* \"#utility.yul\":3844:3876   */\n      dup2\n        /* \"#utility.yul\":3885:3918   */\n      tag_382\n      jump\t// in\n    tag_424:\n        /* \"#utility.yul\":3937:3944   */\n      swap3\n      pop\n        /* \"#utility.yul\":3996:3998   */\n      0x40\n        /* \"#utility.yul\":3981:3999   */\n      dup6\n      add\n        /* \"#utility.yul\":3968:4000   */\n      calldataload\n        /* \"#utility.yul\":4031:4032   */\n      0x07\n        /* \"#utility.yul\":4019:4033   */\n      dup2\n      lt\n        /* \"#utility.yul\":4009:4051   */\n      tag_425\n      jumpi\n        /* \"#utility.yul\":4047:4048   */\n      0x00\n        /* \"#utility.yul\":4044:4045   */\n      0x00\n        /* \"#utility.yul\":4037:4049   */\n      revert\n        /* \"#utility.yul\":4009:4051   */\n    tag_425:\n        /* \"#utility.yul\":4070:4077   */\n      swap2\n      pop\n        /* \"#utility.yul\":4129:4131   */\n      0x60\n        /* \"#utility.yul\":4114:4132   */\n      dup6\n      add\n        /* \"#utility.yul\":4101:4133   */\n      calldataload\n        /* \"#utility.yul\":4142:4175   */\n      tag_426\n        /* \"#utility.yul\":4101:4133   */\n      dup2\n        /* \"#utility.yul\":4142:4175   */\n      tag_382\n      jump\t// in\n    tag_426:\n        /* \"#utility.yul\":3511:4207   */\n      swap4\n      swap7\n      swap3\n      swap6\n      pop\n      swap1\n      swap4\n      pop\n      pop\n      jump\t// out\n        /* \"#utility.yul\":4212:4600   */\n    tag_38:\n        /* \"#utility.yul\":4280:4286   */\n      0x00\n        /* \"#utility.yul\":4288:4294   */\n      0x00\n        /* \"#utility.yul\":4341:4343   */\n      0x40\n        /* \"#utility.yul\":4329:4338   */\n      dup4\n        /* \"#utility.yul\":4320:4327   */\n      dup6\n        /* \"#utility.yul\":4316:4339   */\n      sub\n        /* \"#utility.yul\":4312:4344   */\n      slt\n        /* \"#utility.yul\":4309:4361   */\n      iszero\n      tag_428\n      jumpi\n        /* \"#utility.yul\":4357:4358   */\n      0x00\n        /* \"#utility.yul\":4354:4355   */\n      0x00\n        /* \"#utility.yul\":4347:4359   */\n      revert\n        /* \"#utility.yul\":4309:4361   */\n    tag_428:\n        /* \"#utility.yul\":4396:4405   */\n      dup3\n        /* \"#utility.yul\":4383:4406   */\n      calldataload\n        /* \"#utility.yul\":4415:4446   */\n      tag_429\n        /* \"#utility.yul\":4440:4445   */\n      dup2\n        /* \"#utility.yul\":4415:4446   */\n      tag_386\n      jump\t// in\n    tag_429:\n        /* \"#utility.yul\":4465:4470   */\n      swap2\n      pop\n        /* \"#utility.yul\":4522:4524   */\n      0x20\n        /* \"#utility.yul\":4507:4525   */\n      dup4\n      add\n        /* \"#utility.yul\":4494:4526   */\n      calldataload\n        /* \"#utility.yul\":4535:4568   */\n      tag_430\n        /* \"#utility.yul\":4494:4526   */\n      dup2\n        /* \"#utility.yul\":4535:4568   */\n      tag_382\n      jump\t// in\n    tag_430:\n        /* \"#utility.yul\":4587:4594   */\n      dup1\n        /* \"#utility.yul\":4577:4594   */\n      swap2\n      pop\n      pop\n        /* \"#utility.yul\":4212:4600   */\n      swap3\n      pop\n      swap3\n      swap1\n      pop\n      jump\t// out\n        /* \"#utility.yul\":4605:4835   */\n    tag_44:\n      sub(shl(0xa0, 0x01), 0x01)\n        /* \"#utility.yul\":4796:4828   */\n      swap2\n      swap1\n      swap2\n      and\n        /* \"#utility.yul\":4778:4829   */\n      dup2\n      mstore\n        /* \"#utility.yul\":4766:4768   */\n      0x20\n        /* \"#utility.yul\":4751:4769   */\n      add\n      swap1\n        /* \"#utility.yul\":4605:4835   */\n      jump\t// out\n        /* \"#utility.yul\":4840:5043   */\n    tag_49:\n      sub(shl(0x80, 0x01), 0x01)\n        /* \"#utility.yul\":5004:5036   */\n      swap2\n      swap1\n      swap2\n      and\n        /* \"#utility.yul\":4986:5037   */\n      dup2\n      mstore\n        /* \"#utility.yul\":4974:4976   */\n      0x20\n        /* \"#utility.yul\":4959:4977   */\n      add\n      swap1\n        /* \"#utility.yul\":4840:5043   */\n      jump\t// out\n        /* \"#utility.yul\":5667:5794   */\n    tag_208:\n        /* \"#utility.yul\":5728:5738   */\n      0x4e487b71\n        /* \"#utility.yul\":5723:5726   */\n      0xe0\n        /* \"#utility.yul\":5719:5739   */\n      shl\n        /* \"#utility.yul\":5716:5717   */\n      0x00\n        /* \"#utility.yul\":5709:5740   */\n      mstore\n        /* \"#utility.yul\":5759:5763   */\n      0x41\n        /* \"#utility.yul\":5756:5757   */\n      0x04\n        /* \"#utility.yul\":5749:5764   */\n      mstore\n        /* \"#utility.yul\":5783:5787   */\n      0x24\n        /* \"#utility.yul\":5780:5781   */\n      0x00\n        /* \"#utility.yul\":5773:5788   */\n      revert\n        /* \"#utility.yul\":5799:6054   */\n    tag_387:\n        /* \"#utility.yul\":5871:5873   */\n      0x40\n        /* \"#utility.yul\":5865:5874   */\n      mload\n        /* \"#utility.yul\":5913:5919   */\n      0x0160\n        /* \"#utility.yul\":5901:5920   */\n      dup2\n      add\n      sub(shl(0x40, 0x01), 0x01)\n        /* \"#utility.yul\":5935:5969   */\n      dup2\n      gt\n        /* \"#utility.yul\":5971:5993   */\n      dup3\n      dup3\n      lt\n        /* \"#utility.yul\":5932:5994   */\n      or\n        /* \"#utility.yul\":5929:6017   */\n      iszero\n      tag_439\n      jumpi\n        /* \"#utility.yul\":5997:6015   */\n      tag_439\n      tag_208\n      jump\t// in\n    tag_439:\n        /* \"#utility.yul\":6033:6035   */\n      0x40\n        /* \"#utility.yul\":6026:6048   */\n      mstore\n        /* \"#utility.yul\":5799:6054   */\n      swap1\n      jump\t// out\n        /* \"#utility.yul\":6059:6334   */\n    tag_388:\n        /* \"#utility.yul\":6130:6132   */\n      0x40\n        /* \"#utility.yul\":6124:6133   */\n      mload\n        /* \"#utility.yul\":6195:6197   */\n      0x1f\n        /* \"#utility.yul\":6176:6189   */\n      dup3\n      add\n      not(0x1f)\n        /* \"#utility.yul\":6172:6199   */\n      and\n        /* \"#utility.yul\":6160:6200   */\n      dup2\n      add\n      sub(shl(0x40, 0x01), 0x01)\n        /* \"#utility.yul\":6215:6249   */\n      dup2\n      gt\n        /* \"#utility.yul\":6251:6273   */\n      dup3\n      dup3\n      lt\n        /* \"#utility.yul\":6212:6274   */\n      or\n        /* \"#utility.yul\":6209:6297   */\n      iszero\n      tag_442\n      jumpi\n        /* \"#utility.yul\":6277:6295   */\n      tag_442\n      tag_208\n      jump\t// in\n    tag_442:\n        /* \"#utility.yul\":6313:6315   */\n      0x40\n        /* \"#utility.yul\":6306:6328   */\n      mstore\n        /* \"#utility.yul\":6059:6334   */\n      swap2\n      swap1\n      pop\n      jump\t// out\n        /* \"#utility.yul\":6339:7135   */\n    tag_389:\n        /* \"#utility.yul\":6393:6398   */\n      0x00\n        /* \"#utility.yul\":6446:6449   */\n      dup3\n        /* \"#utility.yul\":6439:6443   */\n      0x1f\n        /* \"#utility.yul\":6431:6437   */\n      dup4\n        /* \"#utility.yul\":6427:6444   */\n      add\n        /* \"#utility.yul\":6423:6450   */\n      slt\n        /* \"#utility.yul\":6413:6468   */\n      tag_444\n      jumpi\n        /* \"#utility.yul\":6464:6465   */\n      0x00\n        /* \"#utility.yul\":6461:6462   */\n      0x00\n        /* \"#utility.yul\":6454:6466   */\n      revert\n        /* \"#utility.yul\":6413:6468   */\n    tag_444:\n        /* \"#utility.yul\":6491:6511   */\n      dup2\n      calldataload\n      sub(shl(0x40, 0x01), 0x01)\n        /* \"#utility.yul\":6523:6553   */\n      dup2\n      gt\n        /* \"#utility.yul\":6520:6576   */\n      iszero\n      tag_446\n      jumpi\n        /* \"#utility.yul\":6556:6574   */\n      tag_446\n      tag_208\n      jump\t// in\n    tag_446:\n        /* \"#utility.yul\":6602:6608   */\n      dup1\n        /* \"#utility.yul\":6599:6600   */\n      0x05\n        /* \"#utility.yul\":6595:6609   */\n      shl\n        /* \"#utility.yul\":6629:6659   */\n      tag_447\n        /* \"#utility.yul\":6653:6657   */\n      0x20\n        /* \"#utility.yul\":6649:6651   */\n      dup3\n        /* \"#utility.yul\":6645:6658   */\n      add\n        /* \"#utility.yul\":6629:6659   */\n      tag_388\n      jump\t// in\n    tag_447:\n        /* \"#utility.yul\":6695:6714   */\n      swap2\n      dup3\n      mstore\n        /* \"#utility.yul\":6739:6743   */\n      0x20\n        /* \"#utility.yul\":6771:6786   */\n      dup2\n      dup6\n      add\n        /* \"#utility.yul\":6767:6793   */\n      dup2\n      add\n      swap3\n        /* \"#utility.yul\":6730:6744   */\n      swap1\n      dup2\n      add\n      swap1\n        /* \"#utility.yul\":6805:6820   */\n      dup7\n      dup5\n      gt\n        /* \"#utility.yul\":6802:6837   */\n      iszero\n      tag_448\n      jumpi\n        /* \"#utility.yul\":6833:6834   */\n      0x00\n        /* \"#utility.yul\":6830:6831   */\n      0x00\n        /* \"#utility.yul\":6823:6835   */\n      revert\n        /* \"#utility.yul\":6802:6837   */\n    tag_448:\n        /* \"#utility.yul\":6869:6873   */\n      0x20\n        /* \"#utility.yul\":6861:6867   */\n      dup7\n        /* \"#utility.yul\":6857:6874   */\n      add\n        /* \"#utility.yul\":6846:6874   */\n      swap3\n      pop\n        /* \"#utility.yul\":6883:7104   */\n    tag_449:\n        /* \"#utility.yul\":6899:6905   */\n      dup4\n        /* \"#utility.yul\":6894:6897   */\n      dup4\n        /* \"#utility.yul\":6891:6906   */\n      lt\n        /* \"#utility.yul\":6883:7104   */\n      iszero\n      tag_451\n      jumpi\n        /* \"#utility.yul\":6981:6984   */\n      dup3\n        /* \"#utility.yul\":6968:6985   */\n      calldataload\n        /* \"#utility.yul\":6998:7029   */\n      tag_452\n        /* \"#utility.yul\":7023:7028   */\n      dup2\n        /* \"#utility.yul\":6998:7029   */\n      tag_382\n      jump\t// in\n    tag_452:\n        /* \"#utility.yul\":7042:7060   */\n      dup3\n      mstore\n        /* \"#utility.yul\":7089:7093   */\n      0x20\n        /* \"#utility.yul\":6916:6930   */\n      swap3\n      dup4\n      add\n      swap3\n        /* \"#utility.yul\":7080:7094   */\n      swap1\n      swap2\n      add\n      swap1\n        /* \"#utility.yul\":6883:7104   */\n      jump(tag_449)\n    tag_451:\n        /* \"#utility.yul\":7122:7129   */\n      swap7\n        /* \"#utility.yul\":6339:7135   */\n      swap6\n      pop\n      pop\n      pop\n      pop\n      pop\n      pop\n      jump\t// out\n        /* \"#utility.yul\":7140:8007   */\n    tag_74:\n        /* \"#utility.yul\":7276:7282   */\n      0x00\n        /* \"#utility.yul\":7284:7290   */\n      0x00\n        /* \"#utility.yul\":7292:7298   */\n      0x00\n        /* \"#utility.yul\":7300:7306   */\n      0x00\n        /* \"#utility.yul\":7353:7356   */\n      0x80\n        /* \"#utility.yul\":7341:7350   */\n      dup6\n        /* \"#utility.yul\":7332:7339   */\n      dup8\n        /* \"#utility.yul\":7328:7351   */\n      sub\n        /* \"#utility.yul\":7324:7357   */\n      slt\n        /* \"#utility.yul\":7321:7374   */\n      iszero\n      tag_454\n      jumpi\n        /* \"#utility.yul\":7370:7371   */\n      0x00\n        /* \"#utility.yul\":7367:7368   */\n      0x00\n        /* \"#utility.yul\":7360:7372   */\n      revert\n        /* \"#utility.yul\":7321:7374   */\n    tag_454:\n        /* \"#utility.yul\":7409:7418   */\n      dup5\n        /* \"#utility.yul\":7396:7419   */\n      calldataload\n        /* \"#utility.yul\":7428:7459   */\n      tag_455\n        /* \"#utility.yul\":7453:7458   */\n      dup2\n        /* \"#utility.yul\":7428:7459   */\n      tag_386\n      jump\t// in\n    tag_455:\n        /* \"#utility.yul\":7478:7483   */\n      swap4\n      pop\n        /* \"#utility.yul\":7535:7537   */\n      0x20\n        /* \"#utility.yul\":7520:7538   */\n      dup6\n      add\n        /* \"#utility.yul\":7507:7539   */\n      calldataload\n        /* \"#utility.yul\":7548:7581   */\n      tag_456\n        /* \"#utility.yul\":7507:7539   */\n      dup2\n        /* \"#utility.yul\":7548:7581   */\n      tag_382\n      jump\t// in\n    tag_456:\n        /* \"#utility.yul\":7600:7607   */\n      swap3\n      pop\n        /* \"#utility.yul\":7658:7660   */\n      0x40\n        /* \"#utility.yul\":7643:7661   */\n      dup6\n      add\n        /* \"#utility.yul\":7630:7662   */\n      calldataload\n      sub(shl(0x40, 0x01), 0x01)\n        /* \"#utility.yul\":7674:7704   */\n      dup2\n      gt\n        /* \"#utility.yul\":7671:7721   */\n      iszero\n      tag_457\n      jumpi\n        /* \"#utility.yul\":7717:7718   */\n      0x00\n        /* \"#utility.yul\":7714:7715   */\n      0x00\n        /* \"#utility.yul\":7707:7719   */\n      revert\n        /* \"#utility.yul\":7671:7721   */\n    tag_457:\n        /* \"#utility.yul\":7740:7801   */\n      tag_458\n        /* \"#utility.yul\":7793:7800   */\n      dup8\n        /* \"#utility.yul\":7784:7790   */\n      dup3\n        /* \"#utility.yul\":7773:7782   */\n      dup9\n        /* \"#utility.yul\":7769:7791   */\n      add\n        /* \"#utility.yul\":7740:7801   */\n      tag_389\n      jump\t// in\n    tag_458:\n        /* \"#utility.yul\":7730:7801   */\n      swap3\n      pop\n      pop\n        /* \"#utility.yul\":7854:7856   */\n      0x60\n        /* \"#utility.yul\":7839:7857   */\n      dup6\n      add\n        /* \"#utility.yul\":7826:7858   */\n      calldataload\n      sub(shl(0x40, 0x01), 0x01)\n        /* \"#utility.yul\":7870:7902   */\n      dup2\n      gt\n        /* \"#utility.yul\":7867:7919   */\n      iszero\n      tag_459\n      jumpi\n        /* \"#utility.yul\":7915:7916   */\n      0x00\n        /* \"#utility.yul\":7912:7913   */\n      0x00\n        /* \"#utility.yul\":7905:7917   */\n      revert\n        /* \"#utility.yul\":7867:7919   */\n    tag_459:\n        /* \"#utility.yul\":7938:8001   */\n      tag_460\n        /* \"#utility.yul\":7993:8000   */\n      dup8\n        /* \"#utility.yul\":7982:7990   */\n      dup3\n        /* \"#utility.yul\":7971:7980   */\n      dup9\n        /* \"#utility.yul\":7967:7991   */\n      add\n        /* \"#utility.yul\":7938:8001   */\n      tag_389\n      jump\t// in\n    tag_460:\n        /* \"#utility.yul\":7928:8001   */\n      swap2\n      pop\n      pop\n        /* \"#utility.yul\":7140:8007   */\n      swap3\n      swap6\n      swap2\n      swap5\n      pop\n      swap3\n      pop\n      jump\t// out\n        /* \"#utility.yul\":8012:8541   */\n    tag_79:\n        /* \"#utility.yul\":8089:8095   */\n      0x00\n        /* \"#utility.yul\":8097:8103   */\n      0x00\n        /* \"#utility.yul\":8105:8111   */\n      0x00\n        /* \"#utility.yul\":8158:8160   */\n      0x60\n        /* \"#utility.yul\":8146:8155   */\n      dup5\n        /* \"#utility.yul\":8137:8144   */\n      dup7\n        /* \"#utility.yul\":8133:8156   */\n      sub\n        /* \"#utility.yul\":8129:8161   */\n      slt\n        /* \"#utility.yul\":8126:8178   */\n      iszero\n      tag_462\n      jumpi\n        /* \"#utility.yul\":8174:8175   */\n      0x00\n        /* \"#utility.yul\":8171:8172   */\n      0x00\n        /* \"#utility.yul\":8164:8176   */\n      revert\n        /* \"#utility.yul\":8126:8178   */\n    tag_462:\n        /* \"#utility.yul\":8213:8222   */\n      dup4\n        /* \"#utility.yul\":8200:8223   */\n      calldataload\n        /* \"#utility.yul\":8232:8263   */\n      tag_463\n        /* \"#utility.yul\":8257:8262   */\n      dup2\n        /* \"#utility.yul\":8232:8263   */\n      tag_386\n      jump\t// in\n    tag_463:\n        /* \"#utility.yul\":8282:8287   */\n      swap3\n      pop\n        /* \"#utility.yul\":8339:8341   */\n      0x20\n        /* \"#utility.yul\":8324:8342   */\n      dup5\n      add\n        /* \"#utility.yul\":8311:8343   */\n      calldataload\n        /* \"#utility.yul\":8352:8385   */\n      tag_464\n        /* \"#utility.yul\":8311:8343   */\n      dup2\n        /* \"#utility.yul\":8352:8385   */\n      tag_382\n      jump\t// in\n    tag_464:\n        /* \"#utility.yul\":8404:8411   */\n      swap2\n      pop\n        /* \"#utility.yul\":8463:8465   */\n      0x40\n        /* \"#utility.yul\":8448:8466   */\n      dup5\n      add\n        /* \"#utility.yul\":8435:8467   */\n      calldataload\n        /* \"#utility.yul\":8476:8509   */\n      tag_465\n        /* \"#utility.yul\":8435:8467   */\n      dup2\n        /* \"#utility.yul\":8476:8509   */\n      tag_382\n      jump\t// in\n    tag_465:\n        /* \"#utility.yul\":8528:8535   */\n      dup1\n        /* \"#utility.yul\":8518:8535   */\n      swap2\n      pop\n      pop\n        /* \"#utility.yul\":8012:8541   */\n      swap3\n      pop\n      swap3\n      pop\n      swap3\n      jump\t// out\n        /* \"#utility.yul\":8546:8793   */\n    tag_84:\n        /* \"#utility.yul\":8605:8611   */\n      0x00\n        /* \"#utility.yul\":8658:8660   */\n      0x20\n        /* \"#utility.yul\":8646:8655   */\n      dup3\n        /* \"#utility.yul\":8637:8644   */\n      dup5\n        /* \"#utility.yul\":8633:8656   */\n      sub\n        /* \"#utility.yul\":8629:8661   */\n      slt\n        /* \"#utility.yul\":8626:8678   */\n      iszero\n      tag_467\n      jumpi\n        /* \"#utility.yul\":8674:8675   */\n      0x00\n        /* \"#utility.yul\":8671:8672   */\n      0x00\n        /* \"#utility.yul\":8664:8676   */\n      revert\n        /* \"#utility.yul\":8626:8678   */\n    tag_467:\n        /* \"#utility.yul\":8713:8722   */\n      dup2\n        /* \"#utility.yul\":8700:8723   */\n      calldataload\n        /* \"#utility.yul\":8732:8763   */\n      tag_402\n        /* \"#utility.yul\":8757:8762   */\n      dup2\n        /* \"#utility.yul\":8732:8763   */\n      tag_386\n      jump\t// in\n        /* \"#utility.yul\":8798:9469   */\n    tag_89:\n        /* \"#utility.yul\":8884:8890   */\n      0x00\n        /* \"#utility.yul\":8892:8898   */\n      0x00\n        /* \"#utility.yul\":8900:8906   */\n      0x00\n        /* \"#utility.yul\":8908:8914   */\n      0x00\n        /* \"#utility.yul\":8961:8964   */\n      0x80\n        /* \"#utility.yul\":8949:8958   */\n      dup6\n        /* \"#utility.yul\":8940:8947   */\n      dup8\n        /* \"#utility.yul\":8936:8959   */\n      sub\n        /* \"#utility.yul\":8932:8965   */\n      slt\n        /* \"#utility.yul\":8929:8982   */\n      iszero\n      tag_470\n      jumpi\n        /* \"#utility.yul\":8978:8979   */\n      0x00\n        /* \"#utility.yul\":8975:8976   */\n      0x00\n        /* \"#utility.yul\":8968:8980   */\n      revert\n        /* \"#utility.yul\":8929:8982   */\n    tag_470:\n        /* \"#utility.yul\":9017:9026   */\n      dup5\n        /* \"#utility.yul\":9004:9027   */\n      calldataload\n        /* \"#utility.yul\":9036:9067   */\n      tag_471\n        /* \"#utility.yul\":9061:9066   */\n      dup2\n        /* \"#utility.yul\":9036:9067   */\n      tag_386\n      jump\t// in\n    tag_471:\n        /* \"#utility.yul\":9086:9091   */\n      swap4\n      pop\n        /* \"#utility.yul\":9143:9145   */\n      0x20\n        /* \"#utility.yul\":9128:9146   */\n      dup6\n      add\n        /* \"#utility.yul\":9115:9147   */\n      calldataload\n        /* \"#utility.yul\":9156:9189   */\n      tag_472\n        /* \"#utility.yul\":9115:9147   */\n      dup2\n        /* \"#utility.yul\":9156:9189   */\n      tag_386\n      jump\t// in\n    tag_472:\n        /* \"#utility.yul\":9208:9215   */\n      swap3\n      pop\n        /* \"#utility.yul\":9267:9269   */\n      0x40\n        /* \"#utility.yul\":9252:9270   */\n      dup6\n      add\n        /* \"#utility.yul\":9239:9271   */\n      calldataload\n        /* \"#utility.yul\":9280:9313   */\n      tag_473\n        /* \"#utility.yul\":9239:9271   */\n      dup2\n        /* \"#utility.yul\":9280:9313   */\n      tag_386\n      jump\t// in\n    tag_473:\n        /* \"#utility.yul\":9332:9339   */\n      swap2\n      pop\n        /* \"#utility.yul\":9391:9393   */\n      0x60\n        /* \"#utility.yul\":9376:9394   */\n      dup6\n      add\n        /* \"#utility.yul\":9363:9395   */\n      calldataload\n        /* \"#utility.yul\":9404:9437   */\n      tag_426\n        /* \"#utility.yul\":9363:9395   */\n      dup2\n        /* \"#utility.yul\":9404:9437   */\n      tag_386\n      jump\t// in\n        /* \"#utility.yul\":9474:10246   */\n    tag_96:\n      sub(shl(0x80, 0x01), 0x01)\n        /* \"#utility.yul\":9821:9853   */\n      dup9\n      dup2\n      and\n        /* \"#utility.yul\":9803:9854   */\n      dup3\n      mstore\n      sub(shl(0xa0, 0x01), 0x01)\n        /* \"#utility.yul\":9890:9922   */\n      dup9\n      and\n        /* \"#utility.yul\":9885:9887   */\n      0x20\n        /* \"#utility.yul\":9870:9888   */\n      dup4\n      add\n        /* \"#utility.yul\":9863:9923   */\n      mstore\n        /* \"#utility.yul\":9959:9991   */\n      dup7\n      and\n        /* \"#utility.yul\":9954:9956   */\n      0x40\n        /* \"#utility.yul\":9939:9957   */\n      dup3\n      add\n        /* \"#utility.yul\":9932:9992   */\n      mstore\n        /* \"#utility.yul\":10023:10025   */\n      0x60\n        /* \"#utility.yul\":10008:10026   */\n      dup2\n      add\n        /* \"#utility.yul\":10001:10035   */\n      dup6\n      swap1\n      mstore\n        /* \"#utility.yul\":9790:9793   */\n      0xe0\n        /* \"#utility.yul\":9775:9794   */\n      dup2\n      add\n        /* \"#utility.yul\":10044:10100   */\n      tag_476\n        /* \"#utility.yul\":9841:9844   */\n      0x80\n        /* \"#utility.yul\":10080:10099   */\n      dup4\n      add\n        /* \"#utility.yul\":10072:10078   */\n      dup7\n        /* \"#utility.yul\":10044:10100   */\n      tag_385\n      jump\t// in\n    tag_476:\n      sub(shl(0x80, 0x01), 0x01)\n        /* \"#utility.yul\":10137:10169   */\n      swap4\n      dup5\n      and\n        /* \"#utility.yul\":10131:10134   */\n      0xa0\n        /* \"#utility.yul\":10116:10135   */\n      dup4\n      add\n        /* \"#utility.yul\":10109:10170   */\n      mstore\n        /* \"#utility.yul\":10207:10239   */\n      swap2\n      swap1\n      swap3\n      and\n        /* \"#utility.yul\":10201:10204   */\n      0xc0\n        /* \"#utility.yul\":10186:10205   */\n      swap1\n      swap3\n      add\n        /* \"#utility.yul\":10179:10240   */\n      swap2\n      swap1\n      swap2\n      mstore\n        /* \"#utility.yul\":9474:10246   */\n      swap6\n      swap5\n      pop\n      pop\n      pop\n      pop\n      pop\n      jump\t// out\n        /* \"#utility.yul\":10251:10631   */\n    tag_104:\n        /* \"#utility.yul\":10330:10331   */\n      0x01\n        /* \"#utility.yul\":10326:10338   */\n      dup2\n      dup2\n      shr\n      swap1\n        /* \"#utility.yul\":10373:10385   */\n      dup3\n      and\n      dup1\n        /* \"#utility.yul\":10394:10455   */\n      tag_478\n      jumpi\n        /* \"#utility.yul\":10448:10452   */\n      0x7f\n        /* \"#utility.yul\":10440:10446   */\n      dup3\n        /* \"#utility.yul\":10436:10453   */\n      and\n        /* \"#utility.yul\":10426:10453   */\n      swap2\n      pop\n        /* \"#utility.yul\":10394:10455   */\n    tag_478:\n        /* \"#utility.yul\":10501:10503   */\n      0x20\n        /* \"#utility.yul\":10493:10499   */\n      dup3\n        /* \"#utility.yul\":10490:10504   */\n      lt\n        /* \"#utility.yul\":10470:10488   */\n      dup2\n        /* \"#utility.yul\":10467:10505   */\n      sub\n        /* \"#utility.yul\":10464:10625   */\n      tag_479\n      jumpi\n        /* \"#utility.yul\":10547:10557   */\n      0x4e487b71\n        /* \"#utility.yul\":10542:10545   */\n      0xe0\n        /* \"#utility.yul\":10538:10558   */\n      shl\n        /* \"#utility.yul\":10535:10536   */\n      0x00\n        /* \"#utility.yul\":10528:10559   */\n      mstore\n        /* \"#utility.yul\":10582:10586   */\n      0x22\n        /* \"#utility.yul\":10579:10580   */\n      0x04\n        /* \"#utility.yul\":10572:10587   */\n      mstore\n        /* \"#utility.yul\":10610:10614   */\n      0x24\n        /* \"#utility.yul\":10607:10608   */\n      0x00\n        /* \"#utility.yul\":10600:10615   */\n      revert\n        /* \"#utility.yul\":10464:10625   */\n    tag_479:\n      pop\n        /* \"#utility.yul\":10251:10631   */\n      swap2\n      swap1\n      pop\n      jump\t// out\n        /* \"#utility.yul\":10889:11286   */\n    tag_131:\n      sub(shl(0xa0, 0x01), 0x01)\n        /* \"#utility.yul\":11109:11141   */\n      swap4\n      swap1\n      swap4\n      and\n        /* \"#utility.yul\":11091:11142   */\n      dup4\n      mstore\n      sub(shl(0x80, 0x01), 0x01)\n        /* \"#utility.yul\":11178:11210   */\n      swap2\n      dup3\n      and\n        /* \"#utility.yul\":11173:11175   */\n      0x20\n        /* \"#utility.yul\":11158:11176   */\n      dup5\n      add\n        /* \"#utility.yul\":11151:11211   */\n      mstore\n        /* \"#utility.yul\":11247:11279   */\n      and\n        /* \"#utility.yul\":11242:11244   */\n      0x40\n        /* \"#utility.yul\":11227:11245   */\n      dup3\n      add\n        /* \"#utility.yul\":11220:11280   */\n      mstore\n        /* \"#utility.yul\":11079:11081   */\n      0x60\n        /* \"#utility.yul\":11064:11082   */\n      add\n      swap1\n        /* \"#utility.yul\":10889:11286   */\n      jump\t// out\n        /* \"#utility.yul\":11291:11744   */\n    tag_143:\n        /* \"#utility.yul\":11517:11563   */\n      tag_483\n        /* \"#utility.yul\":11553:11562   */\n      dup2\n        /* \"#utility.yul\":11545:11551   */\n      dup4\n        /* \"#utility.yul\":11517:11563   */\n      tag_385\n      jump\t// in\n    tag_483:\n        /* \"#utility.yul\":11599:11601   */\n      0x40\n        /* \"#utility.yul\":11594:11596   */\n      0x20\n        /* \"#utility.yul\":11579:11597   */\n      dup3\n      add\n        /* \"#utility.yul\":11572:11602   */\n      dup2\n      swap1\n      mstore\n        /* \"#utility.yul\":11638:11640   */\n      0x16\n        /* \"#utility.yul\":11618:11636   */\n      swap1\n      dup3\n      add\n        /* \"#utility.yul\":11611:11641   */\n      mstore\n      shl(0x50, 0x7570646174652028616c72656164792066696e616c29)\n        /* \"#utility.yul\":11672:11674   */\n      0x60\n        /* \"#utility.yul\":11657:11675   */\n      dup3\n      add\n        /* \"#utility.yul\":11650:11702   */\n      mstore\n        /* \"#utility.yul\":11734:11737   */\n      0x80\n        /* \"#utility.yul\":11719:11738   */\n      add\n      swap2\n        /* \"#utility.yul\":11291:11744   */\n      swap1\n      pop\n      jump\t// out\n        /* \"#utility.yul\":11749:12067   */\n    tag_150:\n        /* \"#utility.yul\":11939:11941   */\n      0x40\n        /* \"#utility.yul\":11924:11942   */\n      dup2\n      add\n        /* \"#utility.yul\":11951:11997   */\n      tag_485\n        /* \"#utility.yul\":11928:11937   */\n      dup3\n        /* \"#utility.yul\":11979:11985   */\n      dup6\n        /* \"#utility.yul\":11951:11997   */\n      tag_385\n      jump\t// in\n    tag_485:\n        /* \"#utility.yul\":12006:12061   */\n      tag_402\n        /* \"#utility.yul\":12057:12059   */\n      0x20\n        /* \"#utility.yul\":12046:12055   */\n      dup4\n        /* \"#utility.yul\":12042:12060   */\n      add\n        /* \"#utility.yul\":12034:12040   */\n      dup5\n        /* \"#utility.yul\":12006:12061   */\n      tag_385\n      jump\t// in\n        /* \"#utility.yul\":12377:12813   */\n    tag_176:\n        /* \"#utility.yul\":12603:12649   */\n      tag_489\n        /* \"#utility.yul\":12639:12648   */\n      dup2\n        /* \"#utility.yul\":12631:12637   */\n      dup4\n        /* \"#utility.yul\":12603:12649   */\n      tag_385\n      jump\t// in\n    tag_489:\n        /* \"#utility.yul\":12685:12687   */\n      0x40\n        /* \"#utility.yul\":12680:12682   */\n      0x20\n        /* \"#utility.yul\":12665:12683   */\n      dup3\n      add\n        /* \"#utility.yul\":12658:12688   */\n      dup2\n      swap1\n      mstore\n        /* \"#utility.yul\":12724:12725   */\n      0x06\n        /* \"#utility.yul\":12704:12722   */\n      swap1\n      dup3\n      add\n        /* \"#utility.yul\":12697:12726   */\n      mstore\n      shl(0xd2, 0x18d85b98d95b)\n        /* \"#utility.yul\":12757:12759   */\n      0x60\n        /* \"#utility.yul\":12742:12760   */\n      dup3\n      add\n        /* \"#utility.yul\":12735:12771   */\n      mstore\n        /* \"#utility.yul\":12803:12806   */\n      0x80\n        /* \"#utility.yul\":12788:12807   */\n      add\n      swap2\n        /* \"#utility.yul\":12377:12813   */\n      swap1\n      pop\n      jump\t// out\n        /* \"#utility.yul\":13028:13155   */\n    tag_218:\n        /* \"#utility.yul\":13089:13099   */\n      0x4e487b71\n        /* \"#utility.yul\":13084:13087   */\n      0xe0\n        /* \"#utility.yul\":13080:13100   */\n      shl\n        /* \"#utility.yul\":13077:13078   */\n      0x00\n        /* \"#utility.yul\":13070:13101   */\n      mstore\n        /* \"#utility.yul\":13120:13124   */\n      0x32\n        /* \"#utility.yul\":13117:13118   */\n      0x04\n        /* \"#utility.yul\":13110:13125   */\n      mstore\n        /* \"#utility.yul\":13144:13148   */\n      0x24\n        /* \"#utility.yul\":13141:13142   */\n      0x00\n        /* \"#utility.yul\":13134:13149   */\n      revert\n        /* \"#utility.yul\":13160:13460   */\n    tag_220:\n      sub(shl(0x80, 0x01), 0x01)\n        /* \"#utility.yul\":13352:13384   */\n      swap3\n      dup4\n      and\n        /* \"#utility.yul\":13334:13385   */\n      dup2\n      mstore\n        /* \"#utility.yul\":13421:13453   */\n      swap2\n      and\n        /* \"#utility.yul\":13416:13418   */\n      0x20\n        /* \"#utility.yul\":13401:13419   */\n      dup3\n      add\n        /* \"#utility.yul\":13394:13454   */\n      mstore\n        /* \"#utility.yul\":13322:13324   */\n      0x40\n        /* \"#utility.yul\":13307:13325   */\n      add\n      swap1\n        /* \"#utility.yul\":13160:13460   */\n      jump\t// out\n        /* \"#utility.yul\":13465:13603   */\n    tag_390:\n        /* \"#utility.yul\":13544:13557   */\n      dup1\n      mload\n        /* \"#utility.yul\":13566:13597   */\n      tag_494\n        /* \"#utility.yul\":13544:13557   */\n      dup2\n        /* \"#utility.yul\":13566:13597   */\n      tag_382\n      jump\t// in\n    tag_494:\n        /* \"#utility.yul\":13465:13603   */\n      swap2\n      swap1\n      pop\n      jump\t// out\n        /* \"#utility.yul\":13608:14164   */\n    tag_391:\n        /* \"#utility.yul\":13662:13667   */\n      0x00\n        /* \"#utility.yul\":13715:13718   */\n      dup3\n        /* \"#utility.yul\":13708:13712   */\n      0x1f\n        /* \"#utility.yul\":13700:13706   */\n      dup4\n        /* \"#utility.yul\":13696:13713   */\n      add\n        /* \"#utility.yul\":13692:13719   */\n      slt\n        /* \"#utility.yul\":13682:13737   */\n      tag_496\n      jumpi\n        /* \"#utility.yul\":13733:13734   */\n      0x00\n        /* \"#utility.yul\":13730:13731   */\n      0x00\n        /* \"#utility.yul\":13723:13735   */\n      revert\n        /* \"#utility.yul\":13682:13737   */\n    tag_496:\n        /* \"#utility.yul\":13760:13773   */\n      dup2\n      mload\n      sub(shl(0x40, 0x01), 0x01)\n        /* \"#utility.yul\":13785:13815   */\n      dup2\n      gt\n        /* \"#utility.yul\":13782:13838   */\n      iszero\n      tag_498\n      jumpi\n        /* \"#utility.yul\":13818:13836   */\n      tag_498\n      tag_208\n      jump\t// in\n    tag_498:\n        /* \"#utility.yul\":13862:13921   */\n      tag_499\n        /* \"#utility.yul\":13909:13911   */\n      0x1f\n        /* \"#utility.yul\":13886:13903   */\n      dup3\n      add\n      not(0x1f)\n        /* \"#utility.yul\":13882:13913   */\n      and\n        /* \"#utility.yul\":13915:13919   */\n      0x20\n        /* \"#utility.yul\":13878:13920   */\n      add\n        /* \"#utility.yul\":13862:13921   */\n      tag_388\n      jump\t// in\n    tag_499:\n        /* \"#utility.yul\":13946:13952   */\n      dup2\n        /* \"#utility.yul\":13937:13944   */\n      dup2\n        /* \"#utility.yul\":13930:13953   */\n      mstore\n        /* \"#utility.yul\":14000:14003   */\n      dup5\n        /* \"#utility.yul\":13993:13997   */\n      0x20\n        /* \"#utility.yul\":13984:13990   */\n      dup4\n        /* \"#utility.yul\":13976:13982   */\n      dup7\n        /* \"#utility.yul\":13972:13991   */\n      add\n        /* \"#utility.yul\":13968:13998   */\n      add\n        /* \"#utility.yul\":13965:14004   */\n      gt\n        /* \"#utility.yul\":13962:14021   */\n      iszero\n      tag_500\n      jumpi\n        /* \"#utility.yul\":14017:14018   */\n      0x00\n        /* \"#utility.yul\":14014:14015   */\n      0x00\n        /* \"#utility.yul\":14007:14019   */\n      revert\n        /* \"#utility.yul\":13962:14021   */\n    tag_500:\n        /* \"#utility.yul\":14075:14081   */\n      dup2\n        /* \"#utility.yul\":14068:14072   */\n      0x20\n        /* \"#utility.yul\":14060:14066   */\n      dup6\n        /* \"#utility.yul\":14056:14073   */\n      add\n        /* \"#utility.yul\":14049:14053   */\n      0x20\n        /* \"#utility.yul\":14040:14047   */\n      dup4\n        /* \"#utility.yul\":14036:14054   */\n      add\n        /* \"#utility.yul\":14030:14082   */\n      mcopy\n        /* \"#utility.yul\":14131:14132   */\n      0x00\n        /* \"#utility.yul\":14102:14122   */\n      swap2\n      dup2\n      add\n        /* \"#utility.yul\":14124:14128   */\n      0x20\n        /* \"#utility.yul\":14098:14129   */\n      add\n        /* \"#utility.yul\":14091:14133   */\n      swap2\n      swap1\n      swap2\n      mstore\n        /* \"#utility.yul\":14106:14113   */\n      swap4\n        /* \"#utility.yul\":13608:14164   */\n      swap3\n      pop\n      pop\n      pop\n      jump\t// out\n        /* \"#utility.yul\":14169:14333   */\n    tag_392:\n        /* \"#utility.yul\":14245:14258   */\n      dup1\n      mload\n        /* \"#utility.yul\":14294:14307   */\n      dup1\n      iszero\n        /* \"#utility.yul\":14287:14308   */\n      iszero\n        /* \"#utility.yul\":14277:14309   */\n      dup2\n      eq\n        /* \"#utility.yul\":14267:14327   */\n      tag_494\n      jumpi\n        /* \"#utility.yul\":14323:14324   */\n      0x00\n        /* \"#utility.yul\":14320:14321   */\n      0x00\n        /* \"#utility.yul\":14313:14325   */\n      revert\n        /* \"#utility.yul\":14338:16068   */\n    tag_224:\n        /* \"#utility.yul\":14434:14440   */\n      0x00\n        /* \"#utility.yul\":14487:14489   */\n      0x20\n        /* \"#utility.yul\":14475:14484   */\n      dup3\n        /* \"#utility.yul\":14466:14473   */\n      dup5\n        /* \"#utility.yul\":14462:14485   */\n      sub\n        /* \"#utility.yul\":14458:14490   */\n      slt\n        /* \"#utility.yul\":14455:14507   */\n      iszero\n      tag_504\n      jumpi\n        /* \"#utility.yul\":14503:14504   */\n      0x00\n        /* \"#utility.yul\":14500:14501   */\n      0x00\n        /* \"#utility.yul\":14493:14505   */\n      revert\n        /* \"#utility.yul\":14455:14507   */\n    tag_504:\n        /* \"#utility.yul\":14530:14546   */\n      dup2\n      mload\n      sub(shl(0x40, 0x01), 0x01)\n        /* \"#utility.yul\":14558:14588   */\n      dup2\n      gt\n        /* \"#utility.yul\":14555:14605   */\n      iszero\n      tag_505\n      jumpi\n        /* \"#utility.yul\":14601:14602   */\n      0x00\n        /* \"#utility.yul\":14598:14599   */\n      0x00\n        /* \"#utility.yul\":14591:14603   */\n      revert\n        /* \"#utility.yul\":14555:14605   */\n    tag_505:\n        /* \"#utility.yul\":14624:14646   */\n      dup3\n      add\n        /* \"#utility.yul\":14680:14686   */\n      0x0160\n        /* \"#utility.yul\":14662:14678   */\n      dup2\n      dup6\n      sub\n        /* \"#utility.yul\":14658:14687   */\n      slt\n        /* \"#utility.yul\":14655:14704   */\n      iszero\n      tag_506\n      jumpi\n        /* \"#utility.yul\":14700:14701   */\n      0x00\n        /* \"#utility.yul\":14697:14698   */\n      0x00\n        /* \"#utility.yul\":14690:14702   */\n      revert\n        /* \"#utility.yul\":14655:14704   */\n    tag_506:\n        /* \"#utility.yul\":14726:14748   */\n      tag_507\n      tag_387\n      jump\t// in\n    tag_507:\n        /* \"#utility.yul\":14771:14804   */\n      tag_508\n        /* \"#utility.yul\":14801:14803   */\n      dup3\n        /* \"#utility.yul\":14771:14804   */\n      tag_390\n      jump\t// in\n    tag_508:\n        /* \"#utility.yul\":14764:14769   */\n      dup2\n        /* \"#utility.yul\":14757:14805   */\n      mstore\n        /* \"#utility.yul\":14837:14879   */\n      tag_509\n        /* \"#utility.yul\":14875:14877   */\n      0x20\n        /* \"#utility.yul\":14871:14873   */\n      dup4\n        /* \"#utility.yul\":14867:14878   */\n      add\n        /* \"#utility.yul\":14837:14879   */\n      tag_390\n      jump\t// in\n    tag_509:\n        /* \"#utility.yul\":14832:14834   */\n      0x20\n        /* \"#utility.yul\":14821:14835   */\n      dup3\n      add\n        /* \"#utility.yul\":14814:14880   */\n      mstore\n        /* \"#utility.yul\":14919:14921   */\n      0x40\n        /* \"#utility.yul\":14911:14922   */\n      dup3\n      add\n        /* \"#utility.yul\":14905:14923   */\n      mload\n      sub(shl(0x40, 0x01), 0x01)\n        /* \"#utility.yul\":14935:14967   */\n      dup2\n      gt\n        /* \"#utility.yul\":14932:14984   */\n      iszero\n      tag_510\n      jumpi\n        /* \"#utility.yul\":14980:14981   */\n      0x00\n        /* \"#utility.yul\":14977:14978   */\n      0x00\n        /* \"#utility.yul\":14970:14982   */\n      revert\n        /* \"#utility.yul\":14932:14984   */\n    tag_510:\n        /* \"#utility.yul\":15016:15072   */\n      tag_511\n        /* \"#utility.yul\":15064:15071   */\n      dup7\n        /* \"#utility.yul\":15053:15061   */\n      dup3\n        /* \"#utility.yul\":15049:15051   */\n      dup6\n        /* \"#utility.yul\":15045:15062   */\n      add\n        /* \"#utility.yul\":15016:15072   */\n      tag_391\n      jump\t// in\n    tag_511:\n        /* \"#utility.yul\":15011:15013   */\n      0x40\n        /* \"#utility.yul\":15000:15014   */\n      dup4\n      add\n        /* \"#utility.yul\":14993:15073   */\n      mstore\n      pop\n        /* \"#utility.yul\":15112:15114   */\n      0x60\n        /* \"#utility.yul\":15104:15115   */\n      dup3\n      add\n        /* \"#utility.yul\":15098:15116   */\n      mload\n      sub(shl(0x40, 0x01), 0x01)\n        /* \"#utility.yul\":15128:15160   */\n      dup2\n      gt\n        /* \"#utility.yul\":15125:15177   */\n      iszero\n      tag_512\n      jumpi\n        /* \"#utility.yul\":15173:15174   */\n      0x00\n        /* \"#utility.yul\":15170:15171   */\n      0x00\n        /* \"#utility.yul\":15163:15175   */\n      revert\n        /* \"#utility.yul\":15125:15177   */\n    tag_512:\n        /* \"#utility.yul\":15209:15265   */\n      tag_513\n        /* \"#utility.yul\":15257:15264   */\n      dup7\n        /* \"#utility.yul\":15246:15254   */\n      dup3\n        /* \"#utility.yul\":15242:15244   */\n      dup6\n        /* \"#utility.yul\":15238:15255   */\n      add\n        /* \"#utility.yul\":15209:15265   */\n      tag_391\n      jump\t// in\n    tag_513:\n        /* \"#utility.yul\":15204:15206   */\n      0x60\n        /* \"#utility.yul\":15197:15202   */\n      dup4\n        /* \"#utility.yul\":15193:15207   */\n      add\n        /* \"#utility.yul\":15186:15266   */\n      mstore\n      pop\n        /* \"#utility.yul\":15299:15342   */\n      tag_514\n        /* \"#utility.yul\":15337:15340   */\n      0x80\n        /* \"#utility.yul\":15333:15335   */\n      dup4\n        /* \"#utility.yul\":15329:15341   */\n      add\n        /* \"#utility.yul\":15299:15342   */\n      tag_390\n      jump\t// in\n    tag_514:\n        /* \"#utility.yul\":15293:15296   */\n      0x80\n        /* \"#utility.yul\":15286:15291   */\n      dup3\n        /* \"#utility.yul\":15282:15297   */\n      add\n        /* \"#utility.yul\":15275:15343   */\n      mstore\n        /* \"#utility.yul\":15376:15416   */\n      tag_515\n        /* \"#utility.yul\":15411:15414   */\n      0xa0\n        /* \"#utility.yul\":15407:15409   */\n      dup4\n        /* \"#utility.yul\":15403:15415   */\n      add\n        /* \"#utility.yul\":15376:15416   */\n      tag_392\n      jump\t// in\n    tag_515:\n        /* \"#utility.yul\":15370:15373   */\n      0xa0\n        /* \"#utility.yul\":15359:15374   */\n      dup3\n      add\n        /* \"#utility.yul\":15352:15417   */\n      mstore\n        /* \"#utility.yul\":15456:15459   */\n      0xc0\n        /* \"#utility.yul\":15448:15460   */\n      dup3\n      add\n        /* \"#utility.yul\":15442:15461   */\n      mload\n      sub(shl(0x40, 0x01), 0x01)\n        /* \"#utility.yul\":15473:15505   */\n      dup2\n      gt\n        /* \"#utility.yul\":15470:15522   */\n      iszero\n      tag_516\n      jumpi\n        /* \"#utility.yul\":15518:15519   */\n      0x00\n        /* \"#utility.yul\":15515:15516   */\n      0x00\n        /* \"#utility.yul\":15508:15520   */\n      revert\n        /* \"#utility.yul\":15470:15522   */\n    tag_516:\n        /* \"#utility.yul\":15555:15611   */\n      tag_517\n        /* \"#utility.yul\":15603:15610   */\n      dup7\n        /* \"#utility.yul\":15592:15600   */\n      dup3\n        /* \"#utility.yul\":15588:15590   */\n      dup6\n        /* \"#utility.yul\":15584:15601   */\n      add\n        /* \"#utility.yul\":15555:15611   */\n      tag_391\n      jump\t// in\n    tag_517:\n        /* \"#utility.yul\":15549:15552   */\n      0xc0\n        /* \"#utility.yul\":15538:15553   */\n      dup4\n      add\n        /* \"#utility.yul\":15531:15612   */\n      mstore\n      pop\n        /* \"#utility.yul\":15651:15654   */\n      0xe0\n        /* \"#utility.yul\":15643:15655   */\n      dup3\n      add\n        /* \"#utility.yul\":15637:15656   */\n      mload\n      sub(shl(0x40, 0x01), 0x01)\n        /* \"#utility.yul\":15668:15700   */\n      dup2\n      gt\n        /* \"#utility.yul\":15665:15717   */\n      iszero\n      tag_518\n      jumpi\n        /* \"#utility.yul\":15713:15714   */\n      0x00\n        /* \"#utility.yul\":15710:15711   */\n      0x00\n        /* \"#utility.yul\":15703:15715   */\n      revert\n        /* \"#utility.yul\":15665:15717   */\n    tag_518:\n        /* \"#utility.yul\":15750:15806   */\n      tag_519\n        /* \"#utility.yul\":15798:15805   */\n      dup7\n        /* \"#utility.yul\":15787:15795   */\n      dup3\n        /* \"#utility.yul\":15783:15785   */\n      dup6\n        /* \"#utility.yul\":15779:15796   */\n      add\n        /* \"#utility.yul\":15750:15806   */\n      tag_391\n      jump\t// in\n    tag_519:\n        /* \"#utility.yul\":15744:15747   */\n      0xe0\n        /* \"#utility.yul\":15737:15742   */\n      dup4\n        /* \"#utility.yul\":15733:15748   */\n      add\n        /* \"#utility.yul\":15726:15807   */\n      mstore\n      pop\n        /* \"#utility.yul\":15840:15883   */\n      tag_520\n        /* \"#utility.yul\":15878:15881   */\n      0x0100\n        /* \"#utility.yul\":15874:15876   */\n      dup4\n        /* \"#utility.yul\":15870:15882   */\n      add\n        /* \"#utility.yul\":15840:15883   */\n      tag_390\n      jump\t// in\n    tag_520:\n        /* \"#utility.yul\":15834:15837   */\n      0x0100\n        /* \"#utility.yul\":15827:15832   */\n      dup3\n        /* \"#utility.yul\":15823:15838   */\n      add\n        /* \"#utility.yul\":15816:15884   */\n      mstore\n        /* \"#utility.yul\":15917:15960   */\n      tag_521\n        /* \"#utility.yul\":15955:15958   */\n      0x0120\n        /* \"#utility.yul\":15951:15953   */\n      dup4\n        /* \"#utility.yul\":15947:15959   */\n      add\n        /* \"#utility.yul\":15917:15960   */\n      tag_390\n      jump\t// in\n    tag_521:\n        /* \"#utility.yul\":15911:15914   */\n      0x0120\n        /* \"#utility.yul\":15904:15909   */\n      dup3\n        /* \"#utility.yul\":15900:15915   */\n      add\n        /* \"#utility.yul\":15893:15961   */\n      mstore\n        /* \"#utility.yul\":15994:16037   */\n      tag_522\n        /* \"#utility.yul\":16032:16035   */\n      0x0140\n        /* \"#utility.yul\":16028:16030   */\n      dup4\n        /* \"#utility.yul\":16024:16036   */\n      add\n        /* \"#utility.yul\":15994:16037   */\n      tag_390\n      jump\t// in\n    tag_522:\n        /* \"#utility.yul\":15988:15991   */\n      0x0140\n        /* \"#utility.yul\":15977:15992   */\n      dup3\n      add\n        /* \"#utility.yul\":15970:16038   */\n      mstore\n        /* \"#utility.yul\":15981:15986   */\n      swap5\n        /* \"#utility.yul\":14338:16068   */\n      swap4\n      pop\n      pop\n      pop\n      pop\n      jump\t// out\n        /* \"#utility.yul\":16073:16200   */\n    tag_393:\n        /* \"#utility.yul\":16134:16144   */\n      0x4e487b71\n        /* \"#utility.yul\":16129:16132   */\n      0xe0\n        /* \"#utility.yul\":16125:16145   */\n      shl\n        /* \"#utility.yul\":16122:16123   */\n      0x00\n        /* \"#utility.yul\":16115:16146   */\n      mstore\n        /* \"#utility.yul\":16165:16169   */\n      0x11\n        /* \"#utility.yul\":16162:16163   */\n      0x04\n        /* \"#utility.yul\":16155:16170   */\n      mstore\n        /* \"#utility.yul\":16189:16193   */\n      0x24\n        /* \"#utility.yul\":16186:16187   */\n      0x00\n        /* \"#utility.yul\":16179:16194   */\n      revert\n        /* \"#utility.yul\":16205:16373   */\n    tag_239:\n        /* \"#utility.yul\":16278:16287   */\n      dup1\n      dup3\n      mul\n        /* \"#utility.yul\":16309:16318   */\n      dup2\n      iszero\n        /* \"#utility.yul\":16326:16341   */\n      dup3\n      dup3\n      div\n        /* \"#utility.yul\":16320:16342   */\n      dup5\n      eq\n        /* \"#utility.yul\":16306:16343   */\n      or\n        /* \"#utility.yul\":16296:16367   */\n      tag_114\n      jumpi\n        /* \"#utility.yul\":16347:16365   */\n      tag_114\n      tag_393\n      jump\t// in\n        /* \"#utility.yul\":16378:16503   */\n    tag_241:\n        /* \"#utility.yul\":16443:16452   */\n      dup1\n      dup3\n      add\n        /* \"#utility.yul\":16464:16474   */\n      dup1\n      dup3\n      gt\n        /* \"#utility.yul\":16461:16497   */\n      iszero\n      tag_114\n      jumpi\n        /* \"#utility.yul\":16477:16495   */\n      tag_114\n      tag_393\n      jump\t// in\n        /* \"#utility.yul\":16508:16715   */\n    tag_248:\n        /* \"#utility.yul\":16547:16550   */\n      0x00\n      sub(shl(0x80, 0x01), 0x01)\n        /* \"#utility.yul\":16580:16611   */\n      dup3\n      and\n      not(sub(shl(0x80, 0x01), 0x02))\n        /* \"#utility.yul\":16623:16655   */\n      dup2\n      add\n        /* \"#utility.yul\":16620:16678   */\n      tag_532\n      jumpi\n        /* \"#utility.yul\":16658:16676   */\n      tag_532\n      tag_393\n      jump\t// in\n    tag_532:\n        /* \"#utility.yul\":16707:16708   */\n      0x01\n        /* \"#utility.yul\":16694:16709   */\n      add\n      swap3\n        /* \"#utility.yul\":16508:16715   */\n      swap2\n      pop\n      pop\n      jump\t// out\n        /* \"#utility.yul\":16720:16848   */\n    tag_253:\n        /* \"#utility.yul\":16787:16796   */\n      dup2\n      dup2\n      sub\n        /* \"#utility.yul\":16808:16819   */\n      dup2\n      dup2\n      gt\n        /* \"#utility.yul\":16805:16842   */\n      iszero\n      tag_114\n      jumpi\n        /* \"#utility.yul\":16822:16840   */\n      tag_114\n      tag_393\n      jump\t// in\n        /* \"#utility.yul\":16979:17497   */\n    tag_395:\n        /* \"#utility.yul\":17081:17083   */\n      0x1f\n        /* \"#utility.yul\":17076:17079   */\n      dup3\n        /* \"#utility.yul\":17073:17084   */\n      gt\n        /* \"#utility.yul\":17070:17491   */\n      iszero\n      tag_316\n      jumpi\n        /* \"#utility.yul\":17117:17122   */\n      dup1\n        /* \"#utility.yul\":17114:17115   */\n      0x00\n        /* \"#utility.yul\":17107:17123   */\n      mstore\n        /* \"#utility.yul\":17161:17165   */\n      0x20\n        /* \"#utility.yul\":17158:17159   */\n      0x00\n        /* \"#utility.yul\":17148:17166   */\n      keccak256\n        /* \"#utility.yul\":17231:17233   */\n      0x1f\n        /* \"#utility.yul\":17219:17229   */\n      dup5\n        /* \"#utility.yul\":17215:17234   */\n      add\n        /* \"#utility.yul\":17212:17213   */\n      0x05\n        /* \"#utility.yul\":17208:17235   */\n      shr\n        /* \"#utility.yul\":17202:17206   */\n      dup2\n        /* \"#utility.yul\":17198:17236   */\n      add\n        /* \"#utility.yul\":17267:17271   */\n      0x20\n        /* \"#utility.yul\":17255:17265   */\n      dup6\n        /* \"#utility.yul\":17252:17272   */\n      lt\n        /* \"#utility.yul\":17249:17296   */\n      iszero\n      tag_539\n      jumpi\n      pop\n        /* \"#utility.yul\":17290:17294   */\n      dup1\n        /* \"#utility.yul\":17249:17296   */\n    tag_539:\n        /* \"#utility.yul\":17345:17347   */\n      0x1f\n        /* \"#utility.yul\":17340:17343   */\n      dup5\n        /* \"#utility.yul\":17336:17348   */\n      add\n        /* \"#utility.yul\":17333:17334   */\n      0x05\n        /* \"#utility.yul\":17329:17349   */\n      shr\n        /* \"#utility.yul\":17323:17327   */\n      dup3\n        /* \"#utility.yul\":17319:17350   */\n      add\n        /* \"#utility.yul\":17309:17350   */\n      swap2\n      pop\n        /* \"#utility.yul\":17400:17481   */\n    tag_540:\n        /* \"#utility.yul\":17418:17420   */\n      dup2\n        /* \"#utility.yul\":17411:17416   */\n      dup2\n        /* \"#utility.yul\":17408:17421   */\n      lt\n        /* \"#utility.yul\":17400:17481   */\n      iszero\n      tag_542\n      jumpi\n        /* \"#utility.yul\":17477:17478   */\n      0x00\n        /* \"#utility.yul\":17463:17479   */\n      dup2\n      sstore\n        /* \"#utility.yul\":17444:17445   */\n      0x01\n        /* \"#utility.yul\":17433:17446   */\n      add\n        /* \"#utility.yul\":17400:17481   */\n      jump(tag_540)\n    tag_542:\n        /* \"#utility.yul\":17404:17407   */\n      pop\n      pop\n        /* \"#utility.yul\":16979:17497   */\n      pop\n      pop\n      pop\n      jump\t// out\n        /* \"#utility.yul\":17673:18972   */\n    tag_268:\n        /* \"#utility.yul\":17793:17803   */\n      dup2\n      mload\n      sub(shl(0x40, 0x01), 0x01)\n        /* \"#utility.yul\":17815:17845   */\n      dup2\n      gt\n        /* \"#utility.yul\":17812:17868   */\n      iszero\n      tag_546\n      jumpi\n        /* \"#utility.yul\":17848:17866   */\n      tag_546\n      tag_208\n      jump\t// in\n    tag_546:\n        /* \"#utility.yul\":17877:17974   */\n      tag_547\n        /* \"#utility.yul\":17967:17973   */\n      dup2\n        /* \"#utility.yul\":17927:17965   */\n      tag_548\n        /* \"#utility.yul\":17959:17963   */\n      dup5\n        /* \"#utility.yul\":17953:17964   */\n      sload\n        /* \"#utility.yul\":17927:17965   */\n      tag_104\n      jump\t// in\n    tag_548:\n        /* \"#utility.yul\":17921:17925   */\n      dup5\n        /* \"#utility.yul\":17877:17974   */\n      tag_395\n      jump\t// in\n    tag_547:\n        /* \"#utility.yul\":18023:18027   */\n      0x20\n        /* \"#utility.yul\":18054:18056   */\n      0x1f\n        /* \"#utility.yul\":18043:18057   */\n      dup3\n      gt\n        /* \"#utility.yul\":18071:18072   */\n      0x01\n        /* \"#utility.yul\":18066:18715   */\n      dup2\n      eq\n      tag_550\n      jumpi\n        /* \"#utility.yul\":18759:18760   */\n      0x00\n        /* \"#utility.yul\":18776:18782   */\n      dup4\n        /* \"#utility.yul\":18773:18862   */\n      iszero\n      tag_551\n      jumpi\n      pop\n        /* \"#utility.yul\":18828:18847   */\n      dup5\n      dup3\n      add\n        /* \"#utility.yul\":18822:18848   */\n      mload\n        /* \"#utility.yul\":18773:18862   */\n    tag_551:\n      not(0x00)\n        /* \"#utility.yul\":17630:17631   */\n      0x03\n        /* \"#utility.yul\":17626:17637   */\n      dup6\n      swap1\n      shl\n        /* \"#utility.yul\":17622:17646   */\n      shr\n        /* \"#utility.yul\":17618:17647   */\n      not\n        /* \"#utility.yul\":17608:17648   */\n      and\n        /* \"#utility.yul\":17654:17655   */\n      0x01\n        /* \"#utility.yul\":17650:17661   */\n      dup5\n      swap1\n      shl\n        /* \"#utility.yul\":17605:17662   */\n      or\n        /* \"#utility.yul\":18875:18956   */\n      dup5\n      sstore\n        /* \"#utility.yul\":18036:18966   */\n      jump(tag_542)\n        /* \"#utility.yul\":18066:18715   */\n    tag_550:\n        /* \"#utility.yul\":16926:16927   */\n      0x00\n        /* \"#utility.yul\":16919:16933   */\n      dup5\n      dup2\n      mstore\n        /* \"#utility.yul\":16963:16967   */\n      0x20\n        /* \"#utility.yul\":16950:16968   */\n      dup2\n      keccak256\n      not(0x1f)\n        /* \"#utility.yul\":18102:18122   */\n      dup6\n      and\n      swap2\n        /* \"#utility.yul\":18220:18442   */\n    tag_554:\n        /* \"#utility.yul\":18234:18241   */\n      dup3\n        /* \"#utility.yul\":18231:18232   */\n      dup2\n        /* \"#utility.yul\":18228:18242   */\n      lt\n        /* \"#utility.yul\":18220:18442   */\n      iszero\n      tag_556\n      jumpi\n        /* \"#utility.yul\":18316:18335   */\n      dup8\n      dup6\n      add\n        /* \"#utility.yul\":18310:18336   */\n      mload\n        /* \"#utility.yul\":18295:18337   */\n      dup3\n      sstore\n        /* \"#utility.yul\":18423:18427   */\n      0x20\n        /* \"#utility.yul\":18408:18428   */\n      swap5\n      dup6\n      add\n      swap5\n        /* \"#utility.yul\":18376:18377   */\n      0x01\n        /* \"#utility.yul\":18364:18378   */\n      swap1\n      swap3\n      add\n      swap2\n        /* \"#utility.yul\":18250:18262   */\n      add\n        /* \"#utility.yul\":18220:18442   */\n      jump(tag_554)\n    tag_556:\n        /* \"#utility.yul\":18224:18227   */\n      pop\n        /* \"#utility.yul\":18470:18476   */\n      dup5\n        /* \"#utility.yul\":18461:18468   */\n      dup3\n        /* \"#utility.yul\":18458:18477   */\n      lt\n        /* \"#utility.yul\":18455:18656   */\n      iszero\n      tag_557\n      jumpi\n        /* \"#utility.yul\":18531:18550   */\n      dup7\n      dup5\n      add\n        /* \"#utility.yul\":18525:18551   */\n      mload\n      not(0x00)\n        /* \"#utility.yul\":18614:18615   */\n      0x03\n        /* \"#utility.yul\":18610:18624   */\n      dup8\n      swap1\n      shl\n        /* \"#utility.yul\":18626:18629   */\n      0xf8\n        /* \"#utility.yul\":18606:18630   */\n      and\n        /* \"#utility.yul\":18602:18639   */\n      shr\n        /* \"#utility.yul\":18598:18640   */\n      not\n        /* \"#utility.yul\":18583:18641   */\n      and\n        /* \"#utility.yul\":18568:18642   */\n      dup2\n      sstore\n        /* \"#utility.yul\":18455:18656   */\n    tag_557:\n      pop\n      pop\n      pop\n      pop\n        /* \"#utility.yul\":18702:18703   */\n      0x01\n        /* \"#utility.yul\":18686:18700   */\n      swap1\n      dup2\n      shl\n        /* \"#utility.yul\":18682:18704   */\n      add\n        /* \"#utility.yul\":18669:18705   */\n      swap1\n      sstore\n      pop\n        /* \"#utility.yul\":17673:18972   */\n      jump\t// out\n        /* \"#utility.yul\":18977:19415   */\n    tag_292:\n        /* \"#utility.yul\":19203:19249   */\n      tag_559\n        /* \"#utility.yul\":19239:19248   */\n      dup2\n        /* \"#utility.yul\":19231:19237   */\n      dup4\n        /* \"#utility.yul\":19203:19249   */\n      tag_385\n      jump\t// in\n    tag_559:\n        /* \"#utility.yul\":19285:19287   */\n      0x40\n        /* \"#utility.yul\":19280:19282   */\n      0x20\n        /* \"#utility.yul\":19265:19283   */\n      dup3\n      add\n        /* \"#utility.yul\":19258:19288   */\n      dup2\n      swap1\n      mstore\n        /* \"#utility.yul\":19324:19325   */\n      0x08\n        /* \"#utility.yul\":19304:19322   */\n      swap1\n      dup3\n      add\n        /* \"#utility.yul\":19297:19326   */\n      mstore\n      shl(0xc0, 0x636f6d706c657465)\n        /* \"#utility.yul\":19357:19359   */\n      0x60\n        /* \"#utility.yul\":19342:19360   */\n      dup3\n      add\n        /* \"#utility.yul\":19335:19373   */\n      mstore\n        /* \"#utility.yul\":19405:19408   */\n      0x80\n        /* \"#utility.yul\":19390:19409   */\n      add\n      swap2\n        /* \"#utility.yul\":18977:19415   */\n      swap1\n      pop\n      jump\t// out\n        /* \"#utility.yul\":19420:19671   */\n    tag_299:\n        /* \"#utility.yul\":19490:19496   */\n      0x00\n        /* \"#utility.yul\":19543:19545   */\n      0x20\n        /* \"#utility.yul\":19531:19540   */\n      dup3\n        /* \"#utility.yul\":19522:19529   */\n      dup5\n        /* \"#utility.yul\":19518:19541   */\n      sub\n        /* \"#utility.yul\":19514:19546   */\n      slt\n        /* \"#utility.yul\":19511:19563   */\n      iszero\n      tag_561\n      jumpi\n        /* \"#utility.yul\":19559:19560   */\n      0x00\n        /* \"#utility.yul\":19556:19557   */\n      0x00\n        /* \"#utility.yul\":19549:19561   */\n      revert\n        /* \"#utility.yul\":19511:19563   */\n    tag_561:\n        /* \"#utility.yul\":19591:19600   */\n      dup2\n        /* \"#utility.yul\":19585:19601   */\n      mload\n        /* \"#utility.yul\":19610:19641   */\n      tag_402\n        /* \"#utility.yul\":19635:19640   */\n      dup2\n        /* \"#utility.yul\":19610:19641   */\n      tag_386\n      jump\t// in\n        /* \"#utility.yul\":19676:19893   */\n    tag_306:\n        /* \"#utility.yul\":19716:19717   */\n      0x00\n        /* \"#utility.yul\":19742:19743   */\n      dup3\n        /* \"#utility.yul\":19732:19864   */\n      tag_564\n      jumpi\n        /* \"#utility.yul\":19786:19796   */\n      0x4e487b71\n        /* \"#utility.yul\":19781:19784   */\n      0xe0\n        /* \"#utility.yul\":19777:19797   */\n      shl\n        /* \"#utility.yul\":19774:19775   */\n      0x00\n        /* \"#utility.yul\":19767:19798   */\n      mstore\n        /* \"#utility.yul\":19821:19825   */\n      0x12\n        /* \"#utility.yul\":19818:19819   */\n      0x04\n        /* \"#utility.yul\":19811:19826   */\n      mstore\n        /* \"#utility.yul\":19849:19853   */\n      0x24\n        /* \"#utility.yul\":19846:19847   */\n      0x00\n        /* \"#utility.yul\":19839:19854   */\n      revert\n        /* \"#utility.yul\":19732:19864   */\n    tag_564:\n      pop\n        /* \"#utility.yul\":19878:19887   */\n      div\n      swap1\n        /* \"#utility.yul\":19676:19893   */\n      jump\t// out\n    stop\n    data_b22b5ea25ab82ed46b90e610bede48fc5006dae7981915a9ddac0680f2d4071f 8c649b2ad43b6449bbeee9487a5efe9f7fcded9570a17906d76f159a34713011\n\n    auxdata: 0xa26469706673582212208fc8ef6955f925c9216853481e7ef0d7826fc7b06d6377e948d38b5845d1f4b464736f6c634300081e0033\n}\n",
				"bytecode": {
					"linkReferences": {},
					"object": "6080604052348015600e575f5ffd5b5060015f5561225a806100205f395ff3fe6080604052600436106100c2575f3560e01c8063117d4128146100c657806312e8e2c3146100fb57806319c8ccef1461011c5780631b4257f61461013b5780632134b6f61461015a5780632a58b330146101865780635059e95b146101b2578063715018a6146101d1578063832dbdd9146101e55780638c639a85146102045780638da5cb5b14610227578063c60c14d91461023b578063cf31fb461461024e578063f2fde38b1461026d578063f8c8765e1461028c578063ff8ddee3146102ab575b5f5ffd5b3480156100d1575f5ffd5b506100e56100e03660046117d7565b610331565b6040516100f291906118f4565b60405180910390f35b348015610106575f5ffd5b5061011a610115366004611998565b61057f565b005b348015610127575f5ffd5b5061011a6101363660046119c3565b6105ed565b348015610146575f5ffd5b5061011a610155366004611a1f565b61079e565b348015610165575f5ffd5b50600454610179906001600160a01b031681565b6040516100f29190611a56565b348015610191575f5ffd5b506001546101a5906001600160801b031681565b6040516100f29190611a6a565b3480156101bd575f5ffd5b50600354610179906001600160a01b031681565b3480156101dc575f5ffd5b5061011a6109ec565b3480156101f0575f5ffd5b50600554610179906001600160a01b031681565b34801561020f575f5ffd5b5061021960065481565b6040519081526020016100f2565b348015610232575f5ffd5b506101796109ff565b61011a610249366004611b73565b610a19565b348015610259575f5ffd5b5061011a610268366004611bfa565b6110e6565b348015610278575f5ffd5b5061011a610287366004611c42565b611431565b348015610297575f5ffd5b5061011a6102a6366004611c5d565b61146e565b3480156102b6575f5ffd5b5061031e6102c53660046117d7565b600260208190525f91825260409091208054600182015492820154600483015460058401546006909401546001600160801b03938416956001600160a01b03169492841693919260ff8116926101009091048116911687565b6040516100f29796959493929190611cab565b60408051610100810182525f808252602082018190529181018290526060808201526080810182905260a0810182905260c0810182905260e08101919091526001600160801b038083165f90815260026020818152604080842081516101008101835281548716815260018201546001600160a01b0316818501529381015490951683820152600385018054825181850281018501909352808352949593946060860193879084015b828210156104de575f84815260209081902060408051608081019091526003850290910180546001600160801b03168252600181018054929391929184019161042290611d0c565b80601f016020809104026020016040519081016040528092919081815260200182805461044e90611d0c565b80156104995780601f1061047057610100808354040283529160200191610499565b820191905f5260205f20905b81548152906001019060200180831161047c57829003601f168201915b5050509183525050600291909101546001600160801b03808216602080850191909152600160801b9092041660409092019190915290825260019290920191016103da565b5050509082525060048201546020820152600582015460409091019060ff16600681111561050e5761050e6118c0565b600681111561051f5761051f6118c0565b815260058201546001600160801b036101009091048116602083015260069092015482166040909101528151919250165f0361057957826040516305e8f38560e41b81526004016105709190611a6a565b60405180910390fd5b92915050565b61058761166c565b60328111156105ac57604051632be52f1560e21b815260048101829052602401610570565b60065460408051918252602082018390527fd347e206f25a89b917fc9482f1a2d294d749baa4dc9bde7fb495ee11fe491643910160405180910390a1600655565b6005546001600160a01b03163314610618576040516392b2f95960e01b815260040160405180910390fd5b6001600160801b038084165f9081526002602052604081208054909216900361065657836040516305e8f38560e41b81526004016105709190611a6a565b60028101546001600160801b0383811691161461069b57600281015460405163d52781e960e01b81526105709187916001600160801b03909116908590600401611d44565b60058082015460ff1660068111156106b5576106b56118c0565b14806106d957506006600582015460ff1660068111156106d7576106d76118c0565b145b1561070057600581015460405163388a923d60e01b81526105709160ff1690600401611d6e565b5f836006811115610713576107136118c0565b0361073c5760058101546040516314fdbd5f60e11b81526105709160ff16908590600401611dae565b60058101805460ff811691859160ff19166001836006811115610761576107616118c0565b0217905550846001600160801b03165f5160206122055f395f51905f52828660405161078e929190611dae565b60405180910390a2505050505050565b6005546001600160a01b031633146107c9576040516392b2f95960e01b815260040160405180910390fd5b6107d161169e565b6001600160801b038082165f9081526002602052604081208054909216900361080f57816040516305e8f38560e41b81526004016105709190611a6a565b60018101546001600160a01b03848116911614610859576040516371c4943f60e01b81526001600160a01b03841660048201526001600160801b0383166024820152604401610570565b5f600582015460ff166006811115610873576108736118c0565b1415801561089a57506001600582015460ff166006811115610897576108976118c0565b14155b156108c157600581015460405163388a923d60e01b81526105709160ff1690600401611dc9565b60058101805460ff198116600617909155600482015460ff909116901561095b57600182015460048301546040515f926001600160a01b031691908381818185875af1925050503d805f8114610932576040519150601f19603f3d011682016040523d82523d5f602084013e610937565b606091505b505090508061095957604051634239e21d60e11b815260040160405180910390fd5b505b836001600160a01b0316836001600160801b03167f70af4296e6226c6ef4207be3522ff55647a797b6dc909d2d31f67551e9adac5d84600401546040516109a491815260200190565b60405180910390a3826001600160801b03165f5160206122055f395f51905f528260066040516109d5929190611dae565b60405180910390a250506109e860015f55565b5050565b6109f461166c565b6109fd5f6116c6565b565b5f5f610a09611720565b546001600160a01b031692915050565b6005546001600160a01b03163314610a44576040516392b2f95960e01b815260040160405180910390fd5b610a4c61169e565b80518251141580610a5c57508151155b15610a7a57604051634482f20960e11b815260040160405180910390fd5b6001600160a01b038416610aa157604051632b84073560e11b815260040160405180910390fd5b81515f90819081906001600160401b03811115610ac057610ac0611a7e565b604051908082528060200260200182016040528015610b1057816020015b604080516080810182525f8082526060602080840182905293830182905282015282525f19909201910181610ade5790505b5090505f5b8551816001600160801b03161015610dc05760035486515f916001600160a01b031690630c528968908a908a906001600160801b038716908110610b5b57610b5b611df9565b60200260200101516040518363ffffffff1660e01b8152600401610b80929190611e0d565b5f60405180830381865afa158015610b9a573d5f5f3e3d5ffd5b505050506040513d5f823e601f3d908101601f19168201604052610bc19190810190611eb1565b80519091506001600160801b03165f03610c14578787836001600160801b031681518110610bf157610bf1611df9565b6020026020010151604051632489e14f60e01b8152600401610570929190611e0d565b8060a00151610c5a5786826001600160801b031681518110610c3857610c38611df9565b60200260200101516040516303c719bb60e51b81526004016105709190611a6a565b85826001600160801b031681518110610c7557610c75611df9565b60200260200101516001600160801b03165f03610ca557604051634482f20960e11b815260040160405180910390fd5b85826001600160801b031681518110610cc057610cc0611df9565b60200260200101516001600160801b031681608001516001600160801b0316610ce9919061202b565b610cf39086612042565b9450836001600160801b03168161014001516001600160801b03161115610d1d5780610140015193505b6040518060800160405280825f01516001600160801b031681526020018260400151815260200182608001516001600160801b0316815260200187846001600160801b031681518110610d7257610d72611df9565b60200260200101516001600160801b031681525083836001600160801b031681518110610da157610da1611df9565b6020026020010181905250508080610db890612055565b915050610b15565b5082341015610deb57604051635bb4793160e11b815260048101849052346024820152604401610570565b82341115610e6a575f6001600160a01b038816610e088534612080565b6040515f81818185875af1925050503d805f8114610e41576040519150601f19603f3d011682016040523d82523d5f602084013e610e46565b606091505b5050905080610e6857604051634239e21d60e11b815260040160405180910390fd5b505b5f60015f9054906101000a90046001600160801b031690505f60025f836001600160801b03166001600160801b031681526020019081526020015f20905081815f015f6101000a8154816001600160801b0302191690836001600160801b0316021790555088816001015f6101000a8154816001600160a01b0302191690836001600160a01b0316021790555087816002015f6101000a8154816001600160801b0302191690836001600160801b031602179055508481600401819055505f816005015f6101000a81548160ff02191690836006811115610f4d57610f4d6118c0565b02179055506005810180546001600160801b0342811661010002610100600160881b0319909216919091179091556006820180549186166001600160801b03199092169190911790555f5b835181101561103d5781600301848281518110610fb757610fb7611df9565b6020908102919091018101518254600180820185555f94855293839020825160039092020180546001600160801b0319166001600160801b0390921691909117815591810151909282019061100c90826120de565b5060408201516060909201516001600160801b03908116600160801b02921691909117600290910155600101610f98565b50876001600160801b0316896001600160a01b0316836001600160801b03167f6ce2bb89bf47987f896a72756397a4441f5be463c46b39a4102f8108d5ade5e08860405161108d91815260200190565b60405180910390a4600180546001600160801b0316905f6110ad83612055565b91906101000a8154816001600160801b0302191690836001600160801b031602179055505050505050506110e060015f55565b50505050565b6005546001600160a01b03163314611111576040516392b2f95960e01b815260040160405180910390fd5b61111961169e565b6001600160801b038083165f9081526002602052604081208054909216900361115757826040516305e8f38560e41b81526004016105709190611a6a565b60028101546001600160801b0383811691161461119c57600281015460405163d52781e960e01b81526105709186916001600160801b03909116908590600401611d44565b6003600582015460ff1660068111156111b7576111b76118c0565b141580156111de57506004600582015460ff1660068111156111db576111db6118c0565b14155b1561120557600581015460405163388a923d60e01b81526105709160ff1690600401612198565b6005818101805460ff198116909217905560048054600284015460405163b958832760e01b815260ff909416935f936001600160a01b039093169263b95883279261125c926001600160801b039091169101611a6a565b602060405180830381865afa158015611277573d5f5f3e3d5ffd5b505050506040513d601f19601f8201168201806040525081019061129b91906121ca565b90506001600160a01b0381166112d35760028301546040516310de8dc560e31b8152610570916001600160801b031690600401611a6a565b60048301546006545f90158015906112ee5750606460065411155b156113265760646006548660040154611307919061202b565b61131191906121e5565b90508085600401546113239190612080565b91505b811561139e575f836001600160a01b0316836040515f6040518083038185875af1925050503d805f8114611375576040519150601f19603f3d011682016040523d82523d5f602084013e61137a565b606091505b505090508061139c57604051634239e21d60e11b815260040160405180910390fd5b505b60408051838152602081018390526001600160a01b038516916001600160801b038a16917fd2a6aee9265d7e28b871c25501abe610595eecb7dd2f5dde2d7c55a5ce7f644f910160405180910390a3866001600160801b03165f5160206122055f395f51905f52856005604051611416929190611dae565b60405180910390a2505050505061142c60015f55565b505050565b61143961166c565b6001600160a01b038116611462575f604051631e4fbdf760e01b81526004016105709190611a56565b61146b816116c6565b50565b5f611477611744565b805490915060ff600160401b82041615906001600160401b03165f8115801561149d5750825b90505f826001600160401b031660011480156114b85750303b155b9050811580156114c6575080155b156114e45760405163f92ee8a960e01b815260040160405180910390fd5b84546001600160401b0319166001178555831561150d57845460ff60401b1916600160401b1785555b6001600160a01b03891661153457604051632b84073560e11b815260040160405180910390fd5b6001600160a01b03881661157957604051631f7ecdff60e31b815260206004820152600b60248201526a26b2b73aa6b0b730b3b2b960a91b6044820152606401610570565b6001600160a01b0387166115c457604051631f7ecdff60e31b81526020600482015260116024820152702932b9ba30bab930b73a26b0b730b3b2b960791b6044820152606401610570565b6115cd8661176c565b600580546001600160a01b03808c166001600160a01b0319928316178355600380548c831690841617905560048054918b1691909216179055600180546001600160801b03191681179055600655831561166157845460ff60401b19168555604051600181527fc7f505b2f371ae2175ee4913f4499e1f2633a7b5936321eed1cdaeb6115181d29060200160405180910390a15b505050505050505050565b336116756109ff565b6001600160a01b0316146109fd573360405163118cdaa760e01b81526004016105709190611a56565b60025f54036116c057604051633ee5aeb560e01b815260040160405180910390fd5b60025f55565b5f6116cf611720565b80546001600160a01b038481166001600160a01b031983168117845560405193945091169182907f8be0079c531659141344cd1fd0a4f28419497f9722a3daafe3b4186f6b6457e0905f90a3505050565b7f9016d09d72d40fdae2fd8ceac6b6234c7706214fd39c1cd1e609a0528c19930090565b5f807ff0c57e16840df040f15088dc2f81fe391c3923bec73e23a9662efc9c229c6a00610579565b61177461177d565b61146b816117a2565b6117856117aa565b6109fd57604051631afcd79f60e31b815260040160405180910390fd5b61143961177d565b5f6117b3611744565b54600160401b900460ff16919050565b6001600160801b038116811461146b575f5ffd5b5f602082840312156117e7575f5ffd5b81356117f2816117c3565b9392505050565b6001600160801b03169052565b5f82825180855260208501945060208160051b830101602085015f5b838110156118b457601f19858403018852815160018060801b0381511684526020810151608060208601528051806080870152806020830160a088015e5f60a0828801015260018060801b03604084015116604087015260018060801b03606084015116606087015260a0601f19601f8301168701019550505050602082019150602088019750600181019050611822565b50909695505050505050565b634e487b7160e01b5f52602160045260245ffd5b600781106118f057634e487b7160e01b5f52602160045260245ffd5b9052565b602080825282516001600160801b0316828201528201516001600160a01b03166040808301919091528201515f9061192f60608401826117f9565b506060830151610100608084015261194b610120840182611806565b9050608084015160a084015260a084015161196960c08501826118d4565b5060c084015161197c60e08501826117f9565b5060e08401516119906101008501826117f9565b509392505050565b5f602082840312156119a8575f5ffd5b5035919050565b6001600160a01b038116811461146b575f5ffd5b5f5f5f5f608085870312156119d6575f5ffd5b84356119e1816119af565b935060208501356119f1816117c3565b9250604085013560078110611a04575f5ffd5b91506060850135611a14816117c3565b939692955090935050565b5f5f60408385031215611a30575f5ffd5b8235611a3b816119af565b91506020830135611a4b816117c3565b809150509250929050565b6001600160a01b0391909116815260200190565b6001600160801b0391909116815260200190565b634e487b7160e01b5f52604160045260245ffd5b60405161016081016001600160401b0381118282101715611ab557611ab5611a7e565b60405290565b604051601f8201601f191681016001600160401b0381118282101715611ae357611ae3611a7e565b604052919050565b5f82601f830112611afa575f5ffd5b81356001600160401b03811115611b1357611b13611a7e565b8060051b611b2360208201611abb565b91825260208185018101929081019086841115611b3e575f5ffd5b6020860192505b83831015611b69578235611b58816117c3565b825260209283019290910190611b45565b9695505050505050565b5f5f5f5f60808587031215611b86575f5ffd5b8435611b91816119af565b93506020850135611ba1816117c3565b925060408501356001600160401b03811115611bbb575f5ffd5b611bc787828801611aeb565b92505060608501356001600160401b03811115611be2575f5ffd5b611bee87828801611aeb565b91505092959194509250565b5f5f5f60608486031215611c0c575f5ffd5b8335611c17816119af565b92506020840135611c27816117c3565b91506040840135611c37816117c3565b809150509250925092565b5f60208284031215611c52575f5ffd5b81356117f2816119af565b5f5f5f5f60808587031215611c70575f5ffd5b8435611c7b816119af565b93506020850135611c8b816119af565b92506040850135611c9b816119af565b91506060850135611a14816119af565b6001600160801b0388811682526001600160a01b0388166020830152861660408201526060810185905260e08101611ce660808301866118d4565b6001600160801b0393841660a08301529190921660c09092019190915295945050505050565b600181811c90821680611d2057607f821691505b602082108103611d3e57634e487b7160e01b5f52602260045260245ffd5b50919050565b6001600160a01b039390931683526001600160801b03918216602084015216604082015260600190565b611d7881836118d4565b604060208201819052601690820152757570646174652028616c72656164792066696e616c2960501b6060820152608001919050565b60408101611dbc82856118d4565b6117f260208301846118d4565b611dd381836118d4565b6040602082018190526006908201526518d85b98d95b60d21b6060820152608001919050565b634e487b7160e01b5f52603260045260245ffd5b6001600160801b0392831681529116602082015260400190565b8051611e32816117c3565b919050565b5f82601f830112611e46575f5ffd5b81516001600160401b03811115611e5f57611e5f611a7e565b611e72601f8201601f1916602001611abb565b818152846020838601011115611e86575f5ffd5b8160208501602083015e5f918101602001919091529392505050565b80518015158114611e32575f5ffd5b5f60208284031215611ec1575f5ffd5b81516001600160401b03811115611ed6575f5ffd5b82016101608185031215611ee8575f5ffd5b611ef0611a92565b611ef982611e27565b8152611f0760208301611e27565b602082015260408201516001600160401b03811115611f24575f5ffd5b611f3086828501611e37565b60408301525060608201516001600160401b03811115611f4e575f5ffd5b611f5a86828501611e37565b606083015250611f6c60808301611e27565b6080820152611f7d60a08301611ea2565b60a082015260c08201516001600160401b03811115611f9a575f5ffd5b611fa686828501611e37565b60c08301525060e08201516001600160401b03811115611fc4575f5ffd5b611fd086828501611e37565b60e083015250611fe36101008301611e27565b610100820152611ff66101208301611e27565b6101208201526120096101408301611e27565b610140820152949350505050565b634e487b7160e01b5f52601160045260245ffd5b808202811582820484141761057957610579612017565b8082018082111561057957610579612017565b5f6001600160801b0382166002600160801b0319810161207757612077612017565b60010192915050565b8181038181111561057957610579612017565b601f82111561142c57805f5260205f20601f840160051c810160208510156120b85750805b601f840160051c820191505b818110156120d7575f81556001016120c4565b5050505050565b81516001600160401b038111156120f7576120f7611a7e565b61210b816121058454611d0c565b84612093565b6020601f82116001811461213d575f83156121265750848201515b5f19600385901b1c1916600184901b1784556120d7565b5f84815260208120601f198516915b8281101561216c578785015182556020948501946001909201910161214c565b508482101561218957868401515f19600387901b60f8161c191681555b50505050600190811b01905550565b6121a281836118d4565b60406020820181905260089082015267636f6d706c65746560c01b6060820152608001919050565b5f602082840312156121da575f5ffd5b81516117f2816119af565b5f826121ff57634e487b7160e01b5f52601260045260245ffd5b50049056fe8c649b2ad43b6449bbeee9487a5efe9f7fcded9570a17906d76f159a34713011a26469706673582212208fc8ef6955f925c9216853481e7ef0d7826fc7b06d6377e948d38b5845d1f4b464736f6c634300081e0033",
					"opcodes": "PUSH1 0x80 PUSH1 0x40 MSTORE CALLVALUE DUP1 ISZERO PUSH1 0xE JUMPI PUSH0 PUSH0 REVERT JUMPDEST POP PUSH1 0x1 PUSH0 SSTORE PUSH2 0x225A DUP1 PUSH2 0x20 PUSH0 CODECOPY PUSH0 RETURN INVALID PUSH1 0x80 PUSH1 0x40 MSTORE PUSH1 0x4 CALLDATASIZE LT PUSH2 0xC2 JUMPI PUSH0 CALLDATALOAD PUSH1 0xE0 SHR DUP1 PUSH4 0x117D4128 EQ PUSH2 0xC6 JUMPI DUP1 PUSH4 0x12E8E2C3 EQ PUSH2 0xFB JUMPI DUP1 PUSH4 0x19C8CCEF EQ PUSH2 0x11C JUMPI DUP1 PUSH4 0x1B4257F6 EQ PUSH2 0x13B JUMPI DUP1 PUSH4 0x2134B6F6 EQ PUSH2 0x15A JUMPI DUP1 PUSH4 0x2A58B330 EQ PUSH2 0x186 JUMPI DUP1 PUSH4 0x5059E95B EQ PUSH2 0x1B2 JUMPI DUP1 PUSH4 0x715018A6 EQ PUSH2 0x1D1 JUMPI DUP1 PUSH4 0x832DBDD9 EQ PUSH2 0x1E5 JUMPI DUP1 PUSH4 0x8C639A85 EQ PUSH2 0x204 JUMPI DUP1 PUSH4 0x8DA5CB5B EQ PUSH2 0x227 JUMPI DUP1 PUSH4 0xC60C14D9 EQ PUSH2 0x23B JUMPI DUP1 PUSH4 0xCF31FB46 EQ PUSH2 0x24E JUMPI DUP1 PUSH4 0xF2FDE38B EQ PUSH2 0x26D JUMPI DUP1 PUSH4 0xF8C8765E EQ PUSH2 0x28C JUMPI DUP1 PUSH4 0xFF8DDEE3 EQ PUSH2 0x2AB JUMPI JUMPDEST PUSH0 PUSH0 REVERT JUMPDEST CALLVALUE DUP1 ISZERO PUSH2 0xD1 JUMPI PUSH0 PUSH0 REVERT JUMPDEST POP PUSH2 0xE5 PUSH2 0xE0 CALLDATASIZE PUSH1 0x4 PUSH2 0x17D7 JUMP JUMPDEST PUSH2 0x331 JUMP JUMPDEST PUSH1 0x40 MLOAD PUSH2 0xF2 SWAP2 SWAP1 PUSH2 0x18F4 JUMP JUMPDEST PUSH1 0x40 MLOAD DUP1 SWAP2 SUB SWAP1 RETURN JUMPDEST CALLVALUE DUP1 ISZERO PUSH2 0x106 JUMPI PUSH0 PUSH0 REVERT JUMPDEST POP PUSH2 0x11A PUSH2 0x115 CALLDATASIZE PUSH1 0x4 PUSH2 0x1998 JUMP JUMPDEST PUSH2 0x57F JUMP JUMPDEST STOP JUMPDEST CALLVALUE DUP1 ISZERO PUSH2 0x127 JUMPI PUSH0 PUSH0 REVERT JUMPDEST POP PUSH2 0x11A PUSH2 0x136 CALLDATASIZE PUSH1 0x4 PUSH2 0x19C3 JUMP JUMPDEST PUSH2 0x5ED JUMP JUMPDEST CALLVALUE DUP1 ISZERO PUSH2 0x146 JUMPI PUSH0 PUSH0 REVERT JUMPDEST POP PUSH2 0x11A PUSH2 0x155 CALLDATASIZE PUSH1 0x4 PUSH2 0x1A1F JUMP JUMPDEST PUSH2 0x79E JUMP JUMPDEST CALLVALUE DUP1 ISZERO PUSH2 0x165 JUMPI PUSH0 PUSH0 REVERT JUMPDEST POP PUSH1 0x4 SLOAD PUSH2 0x179 SWAP1 PUSH1 0x1 PUSH1 0x1 PUSH1 0xA0 SHL SUB AND DUP2 JUMP JUMPDEST PUSH1 0x40 MLOAD PUSH2 0xF2 SWAP2 SWAP1 PUSH2 0x1A56 JUMP JUMPDEST CALLVALUE DUP1 ISZERO PUSH2 0x191 JUMPI PUSH0 PUSH0 REVERT JUMPDEST POP PUSH1 0x1 SLOAD PUSH2 0x1A5 SWAP1 PUSH1 0x1 PUSH1 0x1 PUSH1 0x80 SHL SUB AND DUP2 JUMP JUMPDEST PUSH1 0x40 MLOAD PUSH2 0xF2 SWAP2 SWAP1 PUSH2 0x1A6A JUMP JUMPDEST CALLVALUE DUP1 ISZERO PUSH2 0x1BD JUMPI PUSH0 PUSH0 REVERT JUMPDEST POP PUSH1 0x3 SLOAD PUSH2 0x179 SWAP1 PUSH1 0x1 PUSH1 0x1 PUSH1 0xA0 SHL SUB AND DUP2 JUMP JUMPDEST CALLVALUE DUP1 ISZERO PUSH2 0x1DC JUMPI PUSH0 PUSH0 REVERT JUMPDEST POP PUSH2 0x11A PUSH2 0x9EC JUMP JUMPDEST CALLVALUE DUP1 ISZERO PUSH2 0x1F0 JUMPI PUSH0 PUSH0 REVERT JUMPDEST POP PUSH1 0x5 SLOAD PUSH2 0x179 SWAP1 PUSH1 0x1 PUSH1 0x1 PUSH1 0xA0 SHL SUB AND DUP2 JUMP JUMPDEST CALLVALUE DUP1 ISZERO PUSH2 0x20F JUMPI PUSH0 PUSH0 REVERT JUMPDEST POP PUSH2 0x219 PUSH1 0x6 SLOAD DUP2 JUMP JUMPDEST PUSH1 0x40 MLOAD SWAP1 DUP2 MSTORE PUSH1 0x20 ADD PUSH2 0xF2 JUMP JUMPDEST CALLVALUE DUP1 ISZERO PUSH2 0x232 JUMPI PUSH0 PUSH0 REVERT JUMPDEST POP PUSH2 0x179 PUSH2 0x9FF JUMP JUMPDEST PUSH2 0x11A PUSH2 0x249 CALLDATASIZE PUSH1 0x4 PUSH2 0x1B73 JUMP JUMPDEST PUSH2 0xA19 JUMP JUMPDEST CALLVALUE DUP1 ISZERO PUSH2 0x259 JUMPI PUSH0 PUSH0 REVERT JUMPDEST POP PUSH2 0x11A PUSH2 0x268 CALLDATASIZE PUSH1 0x4 PUSH2 0x1BFA JUMP JUMPDEST PUSH2 0x10E6 JUMP JUMPDEST CALLVALUE DUP1 ISZERO PUSH2 0x278 JUMPI PUSH0 PUSH0 REVERT JUMPDEST POP PUSH2 0x11A PUSH2 0x287 CALLDATASIZE PUSH1 0x4 PUSH2 0x1C42 JUMP JUMPDEST PUSH2 0x1431 JUMP JUMPDEST CALLVALUE DUP1 ISZERO PUSH2 0x297 JUMPI PUSH0 PUSH0 REVERT JUMPDEST POP PUSH2 0x11A PUSH2 0x2A6 CALLDATASIZE PUSH1 0x4 PUSH2 0x1C5D JUMP JUMPDEST PUSH2 0x146E JUMP JUMPDEST CALLVALUE DUP1 ISZERO PUSH2 0x2B6 JUMPI PUSH0 PUSH0 REVERT JUMPDEST POP PUSH2 0x31E PUSH2 0x2C5 CALLDATASIZE PUSH1 0x4 PUSH2 0x17D7 JUMP JUMPDEST PUSH1 0x2 PUSH1 0x20 DUP2 SWAP1 MSTORE PUSH0 SWAP2 DUP3 MSTORE PUSH1 0x40 SWAP1 SWAP2 KECCAK256 DUP1 SLOAD PUSH1 0x1 DUP3 ADD SLOAD SWAP3 DUP3 ADD SLOAD PUSH1 0x4 DUP4 ADD SLOAD PUSH1 0x5 DUP5 ADD SLOAD PUSH1 0x6 SWAP1 SWAP5 ADD SLOAD PUSH1 0x1 PUSH1 0x1 PUSH1 0x80 SHL SUB SWAP4 DUP5 AND SWAP6 PUSH1 0x1 PUSH1 0x1 PUSH1 0xA0 SHL SUB AND SWAP5 SWAP3 DUP5 AND SWAP4 SWAP2 SWAP3 PUSH1 0xFF DUP2 AND SWAP3 PUSH2 0x100 SWAP1 SWAP2 DIV DUP2 AND SWAP2 AND DUP8 JUMP JUMPDEST PUSH1 0x40 MLOAD PUSH2 0xF2 SWAP8 SWAP7 SWAP6 SWAP5 SWAP4 SWAP3 SWAP2 SWAP1 PUSH2 0x1CAB JUMP JUMPDEST PUSH1 0x40 DUP1 MLOAD PUSH2 0x100 DUP2 ADD DUP3 MSTORE PUSH0 DUP1 DUP3 MSTORE PUSH1 0x20 DUP3 ADD DUP2 SWAP1 MSTORE SWAP2 DUP2 ADD DUP3 SWAP1 MSTORE PUSH1 0x60 DUP1 DUP3 ADD MSTORE PUSH1 0x80 DUP2 ADD DUP3 SWAP1 MSTORE PUSH1 0xA0 DUP2 ADD DUP3 SWAP1 MSTORE PUSH1 0xC0 DUP2 ADD DUP3 SWAP1 MSTORE PUSH1 0xE0 DUP2 ADD SWAP2 SWAP1 SWAP2 MSTORE PUSH1 0x1 PUSH1 0x1 PUSH1 0x80 SHL SUB DUP1 DUP4 AND PUSH0 SWAP1 DUP2 MSTORE PUSH1 0x2 PUSH1 0x20 DUP2 DUP2 MSTORE PUSH1 0x40 DUP1 DUP5 KECCAK256 DUP2 MLOAD PUSH2 0x100 DUP2 ADD DUP4 MSTORE DUP2 SLOAD DUP8 AND DUP2 MSTORE PUSH1 0x1 DUP3 ADD SLOAD PUSH1 0x1 PUSH1 0x1 PUSH1 0xA0 SHL SUB AND DUP2 DUP6 ADD MSTORE SWAP4 DUP2 ADD SLOAD SWAP1 SWAP6 AND DUP4 DUP3 ADD MSTORE PUSH1 0x3 DUP6 ADD DUP1 SLOAD DUP3 MLOAD DUP2 DUP6 MUL DUP2 ADD DUP6 ADD SWAP1 SWAP4 MSTORE DUP1 DUP4 MSTORE SWAP5 SWAP6 SWAP4 SWAP5 PUSH1 0x60 DUP7 ADD SWAP4 DUP8 SWAP1 DUP5 ADD JUMPDEST DUP3 DUP3 LT ISZERO PUSH2 0x4DE JUMPI PUSH0 DUP5 DUP2 MSTORE PUSH1 0x20 SWAP1 DUP2 SWAP1 KECCAK256 PUSH1 0x40 DUP1 MLOAD PUSH1 0x80 DUP2 ADD SWAP1 SWAP2 MSTORE PUSH1 0x3 DUP6 MUL SWAP1 SWAP2 ADD DUP1 SLOAD PUSH1 0x1 PUSH1 0x1 PUSH1 0x80 SHL SUB AND DUP3 MSTORE PUSH1 0x1 DUP2 ADD DUP1 SLOAD SWAP3 SWAP4 SWAP2 SWAP3 SWAP2 DUP5 ADD SWAP2 PUSH2 0x422 SWAP1 PUSH2 0x1D0C JUMP JUMPDEST DUP1 PUSH1 0x1F ADD PUSH1 0x20 DUP1 SWAP2 DIV MUL PUSH1 0x20 ADD PUSH1 0x40 MLOAD SWAP1 DUP2 ADD PUSH1 0x40 MSTORE DUP1 SWAP3 SWAP2 SWAP1 DUP2 DUP2 MSTORE PUSH1 0x20 ADD DUP3 DUP1 SLOAD PUSH2 0x44E SWAP1 PUSH2 0x1D0C JUMP JUMPDEST DUP1 ISZERO PUSH2 0x499 JUMPI DUP1 PUSH1 0x1F LT PUSH2 0x470 JUMPI PUSH2 0x100 DUP1 DUP4 SLOAD DIV MUL DUP4 MSTORE SWAP2 PUSH1 0x20 ADD SWAP2 PUSH2 0x499 JUMP JUMPDEST DUP3 ADD SWAP2 SWAP1 PUSH0 MSTORE PUSH1 0x20 PUSH0 KECCAK256 SWAP1 JUMPDEST DUP2 SLOAD DUP2 MSTORE SWAP1 PUSH1 0x1 ADD SWAP1 PUSH1 0x20 ADD DUP1 DUP4 GT PUSH2 0x47C JUMPI DUP3 SWAP1 SUB PUSH1 0x1F AND DUP3 ADD SWAP2 JUMPDEST POP POP POP SWAP2 DUP4 MSTORE POP POP PUSH1 0x2 SWAP2 SWAP1 SWAP2 ADD SLOAD PUSH1 0x1 PUSH1 0x1 PUSH1 0x80 SHL SUB DUP1 DUP3 AND PUSH1 0x20 DUP1 DUP6 ADD SWAP2 SWAP1 SWAP2 MSTORE PUSH1 0x1 PUSH1 0x80 SHL SWAP1 SWAP3 DIV AND PUSH1 0x40 SWAP1 SWAP3 ADD SWAP2 SWAP1 SWAP2 MSTORE SWAP1 DUP3 MSTORE PUSH1 0x1 SWAP3 SWAP1 SWAP3 ADD SWAP2 ADD PUSH2 0x3DA JUMP JUMPDEST POP POP POP SWAP1 DUP3 MSTORE POP PUSH1 0x4 DUP3 ADD SLOAD PUSH1 0x20 DUP3 ADD MSTORE PUSH1 0x5 DUP3 ADD SLOAD PUSH1 0x40 SWAP1 SWAP2 ADD SWAP1 PUSH1 0xFF AND PUSH1 0x6 DUP2 GT ISZERO PUSH2 0x50E JUMPI PUSH2 0x50E PUSH2 0x18C0 JUMP JUMPDEST PUSH1 0x6 DUP2 GT ISZERO PUSH2 0x51F JUMPI PUSH2 0x51F PUSH2 0x18C0 JUMP JUMPDEST DUP2 MSTORE PUSH1 0x5 DUP3 ADD SLOAD PUSH1 0x1 PUSH1 0x1 PUSH1 0x80 SHL SUB PUSH2 0x100 SWAP1 SWAP2 DIV DUP2 AND PUSH1 0x20 DUP4 ADD MSTORE PUSH1 0x6 SWAP1 SWAP3 ADD SLOAD DUP3 AND PUSH1 0x40 SWAP1 SWAP2 ADD MSTORE DUP2 MLOAD SWAP2 SWAP3 POP AND PUSH0 SUB PUSH2 0x579 JUMPI DUP3 PUSH1 0x40 MLOAD PUSH4 0x5E8F385 PUSH1 0xE4 SHL DUP2 MSTORE PUSH1 0x4 ADD PUSH2 0x570 SWAP2 SWAP1 PUSH2 0x1A6A JUMP JUMPDEST PUSH1 0x40 MLOAD DUP1 SWAP2 SUB SWAP1 REVERT JUMPDEST SWAP3 SWAP2 POP POP JUMP JUMPDEST PUSH2 0x587 PUSH2 0x166C JUMP JUMPDEST PUSH1 0x32 DUP2 GT ISZERO PUSH2 0x5AC JUMPI PUSH1 0x40 MLOAD PUSH4 0x2BE52F15 PUSH1 0xE2 SHL DUP2 MSTORE PUSH1 0x4 DUP2 ADD DUP3 SWAP1 MSTORE PUSH1 0x24 ADD PUSH2 0x570 JUMP JUMPDEST PUSH1 0x6 SLOAD PUSH1 0x40 DUP1 MLOAD SWAP2 DUP3 MSTORE PUSH1 0x20 DUP3 ADD DUP4 SWAP1 MSTORE PUSH32 0xD347E206F25A89B917FC9482F1A2D294D749BAA4DC9BDE7FB495EE11FE491643 SWAP2 ADD PUSH1 0x40 MLOAD DUP1 SWAP2 SUB SWAP1 LOG1 PUSH1 0x6 SSTORE JUMP JUMPDEST PUSH1 0x5 SLOAD PUSH1 0x1 PUSH1 0x1 PUSH1 0xA0 SHL SUB AND CALLER EQ PUSH2 0x618 JUMPI PUSH1 0x40 MLOAD PUSH4 0x92B2F959 PUSH1 0xE0 SHL DUP2 MSTORE PUSH1 0x4 ADD PUSH1 0x40 MLOAD DUP1 SWAP2 SUB SWAP1 REVERT JUMPDEST PUSH1 0x1 PUSH1 0x1 PUSH1 0x80 SHL SUB DUP1 DUP5 AND PUSH0 SWAP1 DUP2 MSTORE PUSH1 0x2 PUSH1 0x20 MSTORE PUSH1 0x40 DUP2 KECCAK256 DUP1 SLOAD SWAP1 SWAP3 AND SWAP1 SUB PUSH2 0x656 JUMPI DUP4 PUSH1 0x40 MLOAD PUSH4 0x5E8F385 PUSH1 0xE4 SHL DUP2 MSTORE PUSH1 0x4 ADD PUSH2 0x570 SWAP2 SWAP1 PUSH2 0x1A6A JUMP JUMPDEST PUSH1 0x2 DUP2 ADD SLOAD PUSH1 0x1 PUSH1 0x1 PUSH1 0x80 SHL SUB DUP4 DUP2 AND SWAP2 AND EQ PUSH2 0x69B JUMPI PUSH1 0x2 DUP2 ADD SLOAD PUSH1 0x40 MLOAD PUSH4 0xD52781E9 PUSH1 0xE0 SHL DUP2 MSTORE PUSH2 0x570 SWAP2 DUP8 SWAP2 PUSH1 0x1 PUSH1 0x1 PUSH1 0x80 SHL SUB SWAP1 SWAP2 AND SWAP1 DUP6 SWAP1 PUSH1 0x4 ADD PUSH2 0x1D44 JUMP JUMPDEST PUSH1 0x5 DUP1 DUP3 ADD SLOAD PUSH1 0xFF AND PUSH1 0x6 DUP2 GT ISZERO PUSH2 0x6B5 JUMPI PUSH2 0x6B5 PUSH2 0x18C0 JUMP JUMPDEST EQ DUP1 PUSH2 0x6D9 JUMPI POP PUSH1 0x6 PUSH1 0x5 DUP3 ADD SLOAD PUSH1 0xFF AND PUSH1 0x6 DUP2 GT ISZERO PUSH2 0x6D7 JUMPI PUSH2 0x6D7 PUSH2 0x18C0 JUMP JUMPDEST EQ JUMPDEST ISZERO PUSH2 0x700 JUMPI PUSH1 0x5 DUP2 ADD SLOAD PUSH1 0x40 MLOAD PUSH4 0x388A923D PUSH1 0xE0 SHL DUP2 MSTORE PUSH2 0x570 SWAP2 PUSH1 0xFF AND SWAP1 PUSH1 0x4 ADD PUSH2 0x1D6E JUMP JUMPDEST PUSH0 DUP4 PUSH1 0x6 DUP2 GT ISZERO PUSH2 0x713 JUMPI PUSH2 0x713 PUSH2 0x18C0 JUMP JUMPDEST SUB PUSH2 0x73C JUMPI PUSH1 0x5 DUP2 ADD SLOAD PUSH1 0x40 MLOAD PUSH4 0x14FDBD5F PUSH1 0xE1 SHL DUP2 MSTORE PUSH2 0x570 SWAP2 PUSH1 0xFF AND SWAP1 DUP6 SWAP1 PUSH1 0x4 ADD PUSH2 0x1DAE JUMP JUMPDEST PUSH1 0x5 DUP2 ADD DUP1 SLOAD PUSH1 0xFF DUP2 AND SWAP2 DUP6 SWAP2 PUSH1 0xFF NOT AND PUSH1 0x1 DUP4 PUSH1 0x6 DUP2 GT ISZERO PUSH2 0x761 JUMPI PUSH2 0x761 PUSH2 0x18C0 JUMP JUMPDEST MUL OR SWAP1 SSTORE POP DUP5 PUSH1 0x1 PUSH1 0x1 PUSH1 0x80 SHL SUB AND PUSH0 MLOAD PUSH1 0x20 PUSH2 0x2205 PUSH0 CODECOPY PUSH0 MLOAD SWAP1 PUSH0 MSTORE DUP3 DUP7 PUSH1 0x40 MLOAD PUSH2 0x78E SWAP3 SWAP2 SWAP1 PUSH2 0x1DAE JUMP JUMPDEST PUSH1 0x40 MLOAD DUP1 SWAP2 SUB SWAP1 LOG2 POP POP POP POP POP POP JUMP JUMPDEST PUSH1 0x5 SLOAD PUSH1 0x1 PUSH1 0x1 PUSH1 0xA0 SHL SUB AND CALLER EQ PUSH2 0x7C9 JUMPI PUSH1 0x40 MLOAD PUSH4 0x92B2F959 PUSH1 0xE0 SHL DUP2 MSTORE PUSH1 0x4 ADD PUSH1 0x40 MLOAD DUP1 SWAP2 SUB SWAP1 REVERT JUMPDEST PUSH2 0x7D1 PUSH2 0x169E JUMP JUMPDEST PUSH1 0x1 PUSH1 0x1 PUSH1 0x80 SHL SUB DUP1 DUP3 AND PUSH0 SWAP1 DUP2 MSTORE PUSH1 0x2 PUSH1 0x20 MSTORE PUSH1 0x40 DUP2 KECCAK256 DUP1 SLOAD SWAP1 SWAP3 AND SWAP1 SUB PUSH2 0x80F JUMPI DUP2 PUSH1 0x40 MLOAD PUSH4 0x5E8F385 PUSH1 0xE4 SHL DUP2 MSTORE PUSH1 0x4 ADD PUSH2 0x570 SWAP2 SWAP1 PUSH2 0x1A6A JUMP JUMPDEST PUSH1 0x1 DUP2 ADD SLOAD PUSH1 0x1 PUSH1 0x1 PUSH1 0xA0 SHL SUB DUP5 DUP2 AND SWAP2 AND EQ PUSH2 0x859 JUMPI PUSH1 0x40 MLOAD PUSH4 0x71C4943F PUSH1 0xE0 SHL DUP2 MSTORE PUSH1 0x1 PUSH1 0x1 PUSH1 0xA0 SHL SUB DUP5 AND PUSH1 0x4 DUP3 ADD MSTORE PUSH1 0x1 PUSH1 0x1 PUSH1 0x80 SHL SUB DUP4 AND PUSH1 0x24 DUP3 ADD MSTORE PUSH1 0x44 ADD PUSH2 0x570 JUMP JUMPDEST PUSH0 PUSH1 0x5 DUP3 ADD SLOAD PUSH1 0xFF AND PUSH1 0x6 DUP2 GT ISZERO PUSH2 0x873 JUMPI PUSH2 0x873 PUSH2 0x18C0 JUMP JUMPDEST EQ ISZERO DUP1 ISZERO PUSH2 0x89A JUMPI POP PUSH1 0x1 PUSH1 0x5 DUP3 ADD SLOAD PUSH1 0xFF AND PUSH1 0x6 DUP2 GT ISZERO PUSH2 0x897 JUMPI PUSH2 0x897 PUSH2 0x18C0 JUMP JUMPDEST EQ ISZERO JUMPDEST ISZERO PUSH2 0x8C1 JUMPI PUSH1 0x5 DUP2 ADD SLOAD PUSH1 0x40 MLOAD PUSH4 0x388A923D PUSH1 0xE0 SHL DUP2 MSTORE PUSH2 0x570 SWAP2 PUSH1 0xFF AND SWAP1 PUSH1 0x4 ADD PUSH2 0x1DC9 JUMP JUMPDEST PUSH1 0x5 DUP2 ADD DUP1 SLOAD PUSH1 0xFF NOT DUP2 AND PUSH1 0x6 OR SWAP1 SWAP2 SSTORE PUSH1 0x4 DUP3 ADD SLOAD PUSH1 0xFF SWAP1 SWAP2 AND SWAP1 ISZERO PUSH2 0x95B JUMPI PUSH1 0x1 DUP3 ADD SLOAD PUSH1 0x4 DUP4 ADD SLOAD PUSH1 0x40 MLOAD PUSH0 SWAP3 PUSH1 0x1 PUSH1 0x1 PUSH1 0xA0 SHL SUB AND SWAP2 SWAP1 DUP4 DUP2 DUP2 DUP2 DUP6 DUP8 GAS CALL SWAP3 POP POP POP RETURNDATASIZE DUP1 PUSH0 DUP2 EQ PUSH2 0x932 JUMPI PUSH1 0x40 MLOAD SWAP2 POP PUSH1 0x1F NOT PUSH1 0x3F RETURNDATASIZE ADD AND DUP3 ADD PUSH1 0x40 MSTORE RETURNDATASIZE DUP3 MSTORE RETURNDATASIZE PUSH0 PUSH1 0x20 DUP5 ADD RETURNDATACOPY PUSH2 0x937 JUMP JUMPDEST PUSH1 0x60 SWAP2 POP JUMPDEST POP POP SWAP1 POP DUP1 PUSH2 0x959 JUMPI PUSH1 0x40 MLOAD PUSH4 0x4239E21D PUSH1 0xE1 SHL DUP2 MSTORE PUSH1 0x4 ADD PUSH1 0x40 MLOAD DUP1 SWAP2 SUB SWAP1 REVERT JUMPDEST POP JUMPDEST DUP4 PUSH1 0x1 PUSH1 0x1 PUSH1 0xA0 SHL SUB AND DUP4 PUSH1 0x1 PUSH1 0x1 PUSH1 0x80 SHL SUB AND PUSH32 0x70AF4296E6226C6EF4207BE3522FF55647A797B6DC909D2D31F67551E9ADAC5D DUP5 PUSH1 0x4 ADD SLOAD PUSH1 0x40 MLOAD PUSH2 0x9A4 SWAP2 DUP2 MSTORE PUSH1 0x20 ADD SWAP1 JUMP JUMPDEST PUSH1 0x40 MLOAD DUP1 SWAP2 SUB SWAP1 LOG3 DUP3 PUSH1 0x1 PUSH1 0x1 PUSH1 0x80 SHL SUB AND PUSH0 MLOAD PUSH1 0x20 PUSH2 0x2205 PUSH0 CODECOPY PUSH0 MLOAD SWAP1 PUSH0 MSTORE DUP3 PUSH1 0x6 PUSH1 0x40 MLOAD PUSH2 0x9D5 SWAP3 SWAP2 SWAP1 PUSH2 0x1DAE JUMP JUMPDEST PUSH1 0x40 MLOAD DUP1 SWAP2 SUB SWAP1 LOG2 POP POP PUSH2 0x9E8 PUSH1 0x1 PUSH0 SSTORE JUMP JUMPDEST POP POP JUMP JUMPDEST PUSH2 0x9F4 PUSH2 0x166C JUMP JUMPDEST PUSH2 0x9FD PUSH0 PUSH2 0x16C6 JUMP JUMPDEST JUMP JUMPDEST PUSH0 PUSH0 PUSH2 0xA09 PUSH2 0x1720 JUMP JUMPDEST SLOAD PUSH1 0x1 PUSH1 0x1 PUSH1 0xA0 SHL SUB AND SWAP3 SWAP2 POP POP JUMP JUMPDEST PUSH1 0x5 SLOAD PUSH1 0x1 PUSH1 0x1 PUSH1 0xA0 SHL SUB AND CALLER EQ PUSH2 0xA44 JUMPI PUSH1 0x40 MLOAD PUSH4 0x92B2F959 PUSH1 0xE0 SHL DUP2 MSTORE PUSH1 0x4 ADD PUSH1 0x40 MLOAD DUP1 SWAP2 SUB SWAP1 REVERT JUMPDEST PUSH2 0xA4C PUSH2 0x169E JUMP JUMPDEST DUP1 MLOAD DUP3 MLOAD EQ ISZERO DUP1 PUSH2 0xA5C JUMPI POP DUP2 MLOAD ISZERO JUMPDEST ISZERO PUSH2 0xA7A JUMPI PUSH1 0x40 MLOAD PUSH4 0x4482F209 PUSH1 0xE1 SHL DUP2 MSTORE PUSH1 0x4 ADD PUSH1 0x40 MLOAD DUP1 SWAP2 SUB SWAP1 REVERT JUMPDEST PUSH1 0x1 PUSH1 0x1 PUSH1 0xA0 SHL SUB DUP5 AND PUSH2 0xAA1 JUMPI PUSH1 0x40 MLOAD PUSH4 0x2B840735 PUSH1 0xE1 SHL DUP2 MSTORE PUSH1 0x4 ADD PUSH1 0x40 MLOAD DUP1 SWAP2 SUB SWAP1 REVERT JUMPDEST DUP2 MLOAD PUSH0 SWAP1 DUP2 SWAP1 DUP2 SWAP1 PUSH1 0x1 PUSH1 0x1 PUSH1 0x40 SHL SUB DUP2 GT ISZERO PUSH2 0xAC0 JUMPI PUSH2 0xAC0 PUSH2 0x1A7E JUMP JUMPDEST PUSH1 0x40 MLOAD SWAP1 DUP1 DUP3 MSTORE DUP1 PUSH1 0x20 MUL PUSH1 0x20 ADD DUP3 ADD PUSH1 0x40 MSTORE DUP1 ISZERO PUSH2 0xB10 JUMPI DUP2 PUSH1 0x20 ADD JUMPDEST PUSH1 0x40 DUP1 MLOAD PUSH1 0x80 DUP2 ADD DUP3 MSTORE PUSH0 DUP1 DUP3 MSTORE PUSH1 0x60 PUSH1 0x20 DUP1 DUP5 ADD DUP3 SWAP1 MSTORE SWAP4 DUP4 ADD DUP3 SWAP1 MSTORE DUP3 ADD MSTORE DUP3 MSTORE PUSH0 NOT SWAP1 SWAP3 ADD SWAP2 ADD DUP2 PUSH2 0xADE JUMPI SWAP1 POP JUMPDEST POP SWAP1 POP PUSH0 JUMPDEST DUP6 MLOAD DUP2 PUSH1 0x1 PUSH1 0x1 PUSH1 0x80 SHL SUB AND LT ISZERO PUSH2 0xDC0 JUMPI PUSH1 0x3 SLOAD DUP7 MLOAD PUSH0 SWAP2 PUSH1 0x1 PUSH1 0x1 PUSH1 0xA0 SHL SUB AND SWAP1 PUSH4 0xC528968 SWAP1 DUP11 SWAP1 DUP11 SWAP1 PUSH1 0x1 PUSH1 0x1 PUSH1 0x80 SHL SUB DUP8 AND SWAP1 DUP2 LT PUSH2 0xB5B JUMPI PUSH2 0xB5B PUSH2 0x1DF9 JUMP JUMPDEST PUSH1 0x20 MUL PUSH1 0x20 ADD ADD MLOAD PUSH1 0x40 MLOAD DUP4 PUSH4 0xFFFFFFFF AND PUSH1 0xE0 SHL DUP2 MSTORE PUSH1 0x4 ADD PUSH2 0xB80 SWAP3 SWAP2 SWAP1 PUSH2 0x1E0D JUMP JUMPDEST PUSH0 PUSH1 0x40 MLOAD DUP1 DUP4 SUB DUP2 DUP7 GAS STATICCALL ISZERO DUP1 ISZERO PUSH2 0xB9A JUMPI RETURNDATASIZE PUSH0 PUSH0 RETURNDATACOPY RETURNDATASIZE PUSH0 REVERT JUMPDEST POP POP POP POP PUSH1 0x40 MLOAD RETURNDATASIZE PUSH0 DUP3 RETURNDATACOPY PUSH1 0x1F RETURNDATASIZE SWAP1 DUP2 ADD PUSH1 0x1F NOT AND DUP3 ADD PUSH1 0x40 MSTORE PUSH2 0xBC1 SWAP2 SWAP1 DUP2 ADD SWAP1 PUSH2 0x1EB1 JUMP JUMPDEST DUP1 MLOAD SWAP1 SWAP2 POP PUSH1 0x1 PUSH1 0x1 PUSH1 0x80 SHL SUB AND PUSH0 SUB PUSH2 0xC14 JUMPI DUP8 DUP8 DUP4 PUSH1 0x1 PUSH1 0x1 PUSH1 0x80 SHL SUB AND DUP2 MLOAD DUP2 LT PUSH2 0xBF1 JUMPI PUSH2 0xBF1 PUSH2 0x1DF9 JUMP JUMPDEST PUSH1 0x20 MUL PUSH1 0x20 ADD ADD MLOAD PUSH1 0x40 MLOAD PUSH4 0x2489E14F PUSH1 0xE0 SHL DUP2 MSTORE PUSH1 0x4 ADD PUSH2 0x570 SWAP3 SWAP2 SWAP1 PUSH2 0x1E0D JUMP JUMPDEST DUP1 PUSH1 0xA0 ADD MLOAD PUSH2 0xC5A JUMPI DUP7 DUP3 PUSH1 0x1 PUSH1 0x1 PUSH1 0x80 SHL SUB AND DUP2 MLOAD DUP2 LT PUSH2 0xC38 JUMPI PUSH2 0xC38 PUSH2 0x1DF9 JUMP JUMPDEST PUSH1 0x20 MUL PUSH1 0x20 ADD ADD MLOAD PUSH1 0x40 MLOAD PUSH4 0x3C719BB PUSH1 0xE5 SHL DUP2 MSTORE PUSH1 0x4 ADD PUSH2 0x570 SWAP2 SWAP1 PUSH2 0x1A6A JUMP JUMPDEST DUP6 DUP3 PUSH1 0x1 PUSH1 0x1 PUSH1 0x80 SHL SUB AND DUP2 MLOAD DUP2 LT PUSH2 0xC75 JUMPI PUSH2 0xC75 PUSH2 0x1DF9 JUMP JUMPDEST PUSH1 0x20 MUL PUSH1 0x20 ADD ADD MLOAD PUSH1 0x1 PUSH1 0x1 PUSH1 0x80 SHL SUB AND PUSH0 SUB PUSH2 0xCA5 JUMPI PUSH1 0x40 MLOAD PUSH4 0x4482F209 PUSH1 0xE1 SHL DUP2 MSTORE PUSH1 0x4 ADD PUSH1 0x40 MLOAD DUP1 SWAP2 SUB SWAP1 REVERT JUMPDEST DUP6 DUP3 PUSH1 0x1 PUSH1 0x1 PUSH1 0x80 SHL SUB AND DUP2 MLOAD DUP2 LT PUSH2 0xCC0 JUMPI PUSH2 0xCC0 PUSH2 0x1DF9 JUMP JUMPDEST PUSH1 0x20 MUL PUSH1 0x20 ADD ADD MLOAD PUSH1 0x1 PUSH1 0x1 PUSH1 0x80 SHL SUB AND DUP2 PUSH1 0x80 ADD MLOAD PUSH1 0x1 PUSH1 0x1 PUSH1 0x80 SHL SUB AND PUSH2 0xCE9 SWAP2 SWAP1 PUSH2 0x202B JUMP JUMPDEST PUSH2 0xCF3 SWAP1 DUP7 PUSH2 0x2042 JUMP JUMPDEST SWAP5 POP DUP4 PUSH1 0x1 PUSH1 0x1 PUSH1 0x80 SHL SUB AND DUP2 PUSH2 0x140 ADD MLOAD PUSH1 0x1 PUSH1 0x1 PUSH1 0x80 SHL SUB AND GT ISZERO PUSH2 0xD1D JUMPI DUP1 PUSH2 0x140 ADD MLOAD SWAP4 POP JUMPDEST PUSH1 0x40 MLOAD DUP1 PUSH1 0x80 ADD PUSH1 0x40 MSTORE DUP1 DUP3 PUSH0 ADD MLOAD PUSH1 0x1 PUSH1 0x1 PUSH1 0x80 SHL SUB AND DUP2 MSTORE PUSH1 0x20 ADD DUP3 PUSH1 0x40 ADD MLOAD DUP2 MSTORE PUSH1 0x20 ADD DUP3 PUSH1 0x80 ADD MLOAD PUSH1 0x1 PUSH1 0x1 PUSH1 0x80 SHL SUB AND DUP2 MSTORE PUSH1 0x20 ADD DUP8 DUP5 PUSH1 0x1 PUSH1 0x1 PUSH1 0x80 SHL SUB AND DUP2 MLOAD DUP2 LT PUSH2 0xD72 JUMPI PUSH2 0xD72 PUSH2 0x1DF9 JUMP JUMPDEST PUSH1 0x20 MUL PUSH1 0x20 ADD ADD MLOAD PUSH1 0x1 PUSH1 0x1 PUSH1 0x80 SHL SUB AND DUP2 MSTORE POP DUP4 DUP4 PUSH1 0x1 PUSH1 0x1 PUSH1 0x80 SHL SUB AND DUP2 MLOAD DUP2 LT PUSH2 0xDA1 JUMPI PUSH2 0xDA1 PUSH2 0x1DF9 JUMP JUMPDEST PUSH1 0x20 MUL PUSH1 0x20 ADD ADD DUP2 SWAP1 MSTORE POP POP DUP1 DUP1 PUSH2 0xDB8 SWAP1 PUSH2 0x2055 JUMP JUMPDEST SWAP2 POP POP PUSH2 0xB15 JUMP JUMPDEST POP DUP3 CALLVALUE LT ISZERO PUSH2 0xDEB JUMPI PUSH1 0x40 MLOAD PUSH4 0x5BB47931 PUSH1 0xE1 SHL DUP2 MSTORE PUSH1 0x4 DUP2 ADD DUP5 SWAP1 MSTORE CALLVALUE PUSH1 0x24 DUP3 ADD MSTORE PUSH1 0x44 ADD PUSH2 0x570 JUMP JUMPDEST DUP3 CALLVALUE GT ISZERO PUSH2 0xE6A JUMPI PUSH0 PUSH1 0x1 PUSH1 0x1 PUSH1 0xA0 SHL SUB DUP9 AND PUSH2 0xE08 DUP6 CALLVALUE PUSH2 0x2080 JUMP JUMPDEST PUSH1 0x40 MLOAD PUSH0 DUP2 DUP2 DUP2 DUP6 DUP8 GAS CALL SWAP3 POP POP POP RETURNDATASIZE DUP1 PUSH0 DUP2 EQ PUSH2 0xE41 JUMPI PUSH1 0x40 MLOAD SWAP2 POP PUSH1 0x1F NOT PUSH1 0x3F RETURNDATASIZE ADD AND DUP3 ADD PUSH1 0x40 MSTORE RETURNDATASIZE DUP3 MSTORE RETURNDATASIZE PUSH0 PUSH1 0x20 DUP5 ADD RETURNDATACOPY PUSH2 0xE46 JUMP JUMPDEST PUSH1 0x60 SWAP2 POP JUMPDEST POP POP SWAP1 POP DUP1 PUSH2 0xE68 JUMPI PUSH1 0x40 MLOAD PUSH4 0x4239E21D PUSH1 0xE1 SHL DUP2 MSTORE PUSH1 0x4 ADD PUSH1 0x40 MLOAD DUP1 SWAP2 SUB SWAP1 REVERT JUMPDEST POP JUMPDEST PUSH0 PUSH1 0x1 PUSH0 SWAP1 SLOAD SWAP1 PUSH2 0x100 EXP SWAP1 DIV PUSH1 0x1 PUSH1 0x1 PUSH1 0x80 SHL SUB AND SWAP1 POP PUSH0 PUSH1 0x2 PUSH0 DUP4 PUSH1 0x1 PUSH1 0x1 PUSH1 0x80 SHL SUB AND PUSH1 0x1 PUSH1 0x1 PUSH1 0x80 SHL SUB AND DUP2 MSTORE PUSH1 0x20 ADD SWAP1 DUP2 MSTORE PUSH1 0x20 ADD PUSH0 KECCAK256 SWAP1 POP DUP2 DUP2 PUSH0 ADD PUSH0 PUSH2 0x100 EXP DUP2 SLOAD DUP2 PUSH1 0x1 PUSH1 0x1 PUSH1 0x80 SHL SUB MUL NOT AND SWAP1 DUP4 PUSH1 0x1 PUSH1 0x1 PUSH1 0x80 SHL SUB AND MUL OR SWAP1 SSTORE POP DUP9 DUP2 PUSH1 0x1 ADD PUSH0 PUSH2 0x100 EXP DUP2 SLOAD DUP2 PUSH1 0x1 PUSH1 0x1 PUSH1 0xA0 SHL SUB MUL NOT AND SWAP1 DUP4 PUSH1 0x1 PUSH1 0x1 PUSH1 0xA0 SHL SUB AND MUL OR SWAP1 SSTORE POP DUP8 DUP2 PUSH1 0x2 ADD PUSH0 PUSH2 0x100 EXP DUP2 SLOAD DUP2 PUSH1 0x1 PUSH1 0x1 PUSH1 0x80 SHL SUB MUL NOT AND SWAP1 DUP4 PUSH1 0x1 PUSH1 0x1 PUSH1 0x80 SHL SUB AND MUL OR SWAP1 SSTORE POP DUP5 DUP2 PUSH1 0x4 ADD DUP2 SWAP1 SSTORE POP PUSH0 DUP2 PUSH1 0x5 ADD PUSH0 PUSH2 0x100 EXP DUP2 SLOAD DUP2 PUSH1 0xFF MUL NOT AND SWAP1 DUP4 PUSH1 0x6 DUP2 GT ISZERO PUSH2 0xF4D JUMPI PUSH2 0xF4D PUSH2 0x18C0 JUMP JUMPDEST MUL OR SWAP1 SSTORE POP PUSH1 0x5 DUP2 ADD DUP1 SLOAD PUSH1 0x1 PUSH1 0x1 PUSH1 0x80 SHL SUB TIMESTAMP DUP2 AND PUSH2 0x100 MUL PUSH2 0x100 PUSH1 0x1 PUSH1 0x88 SHL SUB NOT SWAP1 SWAP3 AND SWAP2 SWAP1 SWAP2 OR SWAP1 SWAP2 SSTORE PUSH1 0x6 DUP3 ADD DUP1 SLOAD SWAP2 DUP7 AND PUSH1 0x1 PUSH1 0x1 PUSH1 0x80 SHL SUB NOT SWAP1 SWAP3 AND SWAP2 SWAP1 SWAP2 OR SWAP1 SSTORE PUSH0 JUMPDEST DUP4 MLOAD DUP2 LT ISZERO PUSH2 0x103D JUMPI DUP2 PUSH1 0x3 ADD DUP5 DUP3 DUP2 MLOAD DUP2 LT PUSH2 0xFB7 JUMPI PUSH2 0xFB7 PUSH2 0x1DF9 JUMP JUMPDEST PUSH1 0x20 SWAP1 DUP2 MUL SWAP2 SWAP1 SWAP2 ADD DUP2 ADD MLOAD DUP3 SLOAD PUSH1 0x1 DUP1 DUP3 ADD DUP6 SSTORE PUSH0 SWAP5 DUP6 MSTORE SWAP4 DUP4 SWAP1 KECCAK256 DUP3 MLOAD PUSH1 0x3 SWAP1 SWAP3 MUL ADD DUP1 SLOAD PUSH1 0x1 PUSH1 0x1 PUSH1 0x80 SHL SUB NOT AND PUSH1 0x1 PUSH1 0x1 PUSH1 0x80 SHL SUB SWAP1 SWAP3 AND SWAP2 SWAP1 SWAP2 OR DUP2 SSTORE SWAP2 DUP2 ADD MLOAD SWAP1 SWAP3 DUP3 ADD SWAP1 PUSH2 0x100C SWAP1 DUP3 PUSH2 0x20DE JUMP JUMPDEST POP PUSH1 0x40 DUP3 ADD MLOAD PUSH1 0x60 SWAP1 SWAP3 ADD MLOAD PUSH1 0x1 PUSH1 0x1 PUSH1 0x80 SHL SUB SWAP1 DUP2 AND PUSH1 0x1 PUSH1 0x80 SHL MUL SWAP3 AND SWAP2 SWAP1 SWAP2 OR PUSH1 0x2 SWAP1 SWAP2 ADD SSTORE PUSH1 0x1 ADD PUSH2 0xF98 JUMP JUMPDEST POP DUP8 PUSH1 0x1 PUSH1 0x1 PUSH1 0x80 SHL SUB AND DUP10 PUSH1 0x1 PUSH1 0x1 PUSH1 0xA0 SHL SUB AND DUP4 PUSH1 0x1 PUSH1 0x1 PUSH1 0x80 SHL SUB AND PUSH32 0x6CE2BB89BF47987F896A72756397A4441F5BE463C46B39A4102F8108D5ADE5E0 DUP9 PUSH1 0x40 MLOAD PUSH2 0x108D SWAP2 DUP2 MSTORE PUSH1 0x20 ADD SWAP1 JUMP JUMPDEST PUSH1 0x40 MLOAD DUP1 SWAP2 SUB SWAP1 LOG4 PUSH1 0x1 DUP1 SLOAD PUSH1 0x1 PUSH1 0x1 PUSH1 0x80 SHL SUB AND SWAP1 PUSH0 PUSH2 0x10AD DUP4 PUSH2 0x2055 JUMP JUMPDEST SWAP2 SWAP1 PUSH2 0x100 EXP DUP2 SLOAD DUP2 PUSH1 0x1 PUSH1 0x1 PUSH1 0x80 SHL SUB MUL NOT AND SWAP1 DUP4 PUSH1 0x1 PUSH1 0x1 PUSH1 0x80 SHL SUB AND MUL OR SWAP1 SSTORE POP POP POP POP POP POP POP PUSH2 0x10E0 PUSH1 0x1 PUSH0 SSTORE JUMP JUMPDEST POP POP POP POP JUMP JUMPDEST PUSH1 0x5 SLOAD PUSH1 0x1 PUSH1 0x1 PUSH1 0xA0 SHL SUB AND CALLER EQ PUSH2 0x1111 JUMPI PUSH1 0x40 MLOAD PUSH4 0x92B2F959 PUSH1 0xE0 SHL DUP2 MSTORE PUSH1 0x4 ADD PUSH1 0x40 MLOAD DUP1 SWAP2 SUB SWAP1 REVERT JUMPDEST PUSH2 0x1119 PUSH2 0x169E JUMP JUMPDEST PUSH1 0x1 PUSH1 0x1 PUSH1 0x80 SHL SUB DUP1 DUP4 AND PUSH0 SWAP1 DUP2 MSTORE PUSH1 0x2 PUSH1 0x20 MSTORE PUSH1 0x40 DUP2 KECCAK256 DUP1 SLOAD SWAP1 SWAP3 AND SWAP1 SUB PUSH2 0x1157 JUMPI DUP3 PUSH1 0x40 MLOAD PUSH4 0x5E8F385 PUSH1 0xE4 SHL DUP2 MSTORE PUSH1 0x4 ADD PUSH2 0x570 SWAP2 SWAP1 PUSH2 0x1A6A JUMP JUMPDEST PUSH1 0x2 DUP2 ADD SLOAD PUSH1 0x1 PUSH1 0x1 PUSH1 0x80 SHL SUB DUP4 DUP2 AND SWAP2 AND EQ PUSH2 0x119C JUMPI PUSH1 0x2 DUP2 ADD SLOAD PUSH1 0x40 MLOAD PUSH4 0xD52781E9 PUSH1 0xE0 SHL DUP2 MSTORE PUSH2 0x570 SWAP2 DUP7 SWAP2 PUSH1 0x1 PUSH1 0x1 PUSH1 0x80 SHL SUB SWAP1 SWAP2 AND SWAP1 DUP6 SWAP1 PUSH1 0x4 ADD PUSH2 0x1D44 JUMP JUMPDEST PUSH1 0x3 PUSH1 0x5 DUP3 ADD SLOAD PUSH1 0xFF AND PUSH1 0x6 DUP2 GT ISZERO PUSH2 0x11B7 JUMPI PUSH2 0x11B7 PUSH2 0x18C0 JUMP JUMPDEST EQ ISZERO DUP1 ISZERO PUSH2 0x11DE JUMPI POP PUSH1 0x4 PUSH1 0x5 DUP3 ADD SLOAD PUSH1 0xFF AND PUSH1 0x6 DUP2 GT ISZERO PUSH2 0x11DB JUMPI PUSH2 0x11DB PUSH2 0x18C0 JUMP JUMPDEST EQ ISZERO JUMPDEST ISZERO PUSH2 0x1205 JUMPI PUSH1 0x5 DUP2 ADD SLOAD PUSH1 0x40 MLOAD PUSH4 0x388A923D PUSH1 0xE0 SHL DUP2 MSTORE PUSH2 0x570 SWAP2 PUSH1 0xFF AND SWAP1 PUSH1 0x4 ADD PUSH2 0x2198 JUMP JUMPDEST PUSH1 0x5 DUP2 DUP2 ADD DUP1 SLOAD PUSH1 0xFF NOT DUP2 AND SWAP1 SWAP3 OR SWAP1 SSTORE PUSH1 0x4 DUP1 SLOAD PUSH1 0x2 DUP5 ADD SLOAD PUSH1 0x40 MLOAD PUSH4 0xB9588327 PUSH1 0xE0 SHL DUP2 MSTORE PUSH1 0xFF SWAP1 SWAP5 AND SWAP4 PUSH0 SWAP4 PUSH1 0x1 PUSH1 0x1 PUSH1 0xA0 SHL SUB SWAP1 SWAP4 AND SWAP3 PUSH4 0xB9588327 SWAP3 PUSH2 0x125C SWAP3 PUSH1 0x1 PUSH1 0x1 PUSH1 0x80 SHL SUB SWAP1 SWAP2 AND SWAP2 ADD PUSH2 0x1A6A JUMP JUMPDEST PUSH1 0x20 PUSH1 0x40 MLOAD DUP1 DUP4 SUB DUP2 DUP7 GAS STATICCALL ISZERO DUP1 ISZERO PUSH2 0x1277 JUMPI RETURNDATASIZE PUSH0 PUSH0 RETURNDATACOPY RETURNDATASIZE PUSH0 REVERT JUMPDEST POP POP POP POP PUSH1 0x40 MLOAD RETURNDATASIZE PUSH1 0x1F NOT PUSH1 0x1F DUP3 ADD AND DUP3 ADD DUP1 PUSH1 0x40 MSTORE POP DUP2 ADD SWAP1 PUSH2 0x129B SWAP2 SWAP1 PUSH2 0x21CA JUMP JUMPDEST SWAP1 POP PUSH1 0x1 PUSH1 0x1 PUSH1 0xA0 SHL SUB DUP2 AND PUSH2 0x12D3 JUMPI PUSH1 0x2 DUP4 ADD SLOAD PUSH1 0x40 MLOAD PUSH4 0x10DE8DC5 PUSH1 0xE3 SHL DUP2 MSTORE PUSH2 0x570 SWAP2 PUSH1 0x1 PUSH1 0x1 PUSH1 0x80 SHL SUB AND SWAP1 PUSH1 0x4 ADD PUSH2 0x1A6A JUMP JUMPDEST PUSH1 0x4 DUP4 ADD SLOAD PUSH1 0x6 SLOAD PUSH0 SWAP1 ISZERO DUP1 ISZERO SWAP1 PUSH2 0x12EE JUMPI POP PUSH1 0x64 PUSH1 0x6 SLOAD GT ISZERO JUMPDEST ISZERO PUSH2 0x1326 JUMPI PUSH1 0x64 PUSH1 0x6 SLOAD DUP7 PUSH1 0x4 ADD SLOAD PUSH2 0x1307 SWAP2 SWAP1 PUSH2 0x202B JUMP JUMPDEST PUSH2 0x1311 SWAP2 SWAP1 PUSH2 0x21E5 JUMP JUMPDEST SWAP1 POP DUP1 DUP6 PUSH1 0x4 ADD SLOAD PUSH2 0x1323 SWAP2 SWAP1 PUSH2 0x2080 JUMP JUMPDEST SWAP2 POP JUMPDEST DUP2 ISZERO PUSH2 0x139E JUMPI PUSH0 DUP4 PUSH1 0x1 PUSH1 0x1 PUSH1 0xA0 SHL SUB AND DUP4 PUSH1 0x40 MLOAD PUSH0 PUSH1 0x40 MLOAD DUP1 DUP4 SUB DUP2 DUP6 DUP8 GAS CALL SWAP3 POP POP POP RETURNDATASIZE DUP1 PUSH0 DUP2 EQ PUSH2 0x1375 JUMPI PUSH1 0x40 MLOAD SWAP2 POP PUSH1 0x1F NOT PUSH1 0x3F RETURNDATASIZE ADD AND DUP3 ADD PUSH1 0x40 MSTORE RETURNDATASIZE DUP3 MSTORE RETURNDATASIZE PUSH0 PUSH1 0x20 DUP5 ADD RETURNDATACOPY PUSH2 0x137A JUMP JUMPDEST PUSH1 0x60 SWAP2 POP JUMPDEST POP POP SWAP1 POP DUP1 PUSH2 0x139C JUMPI PUSH1 0x40 MLOAD PUSH4 0x4239E21D PUSH1 0xE1 SHL DUP2 MSTORE PUSH1 0x4 ADD PUSH1 0x40 MLOAD DUP1 SWAP2 SUB SWAP1 REVERT JUMPDEST POP JUMPDEST PUSH1 0x40 DUP1 MLOAD DUP4 DUP2 MSTORE PUSH1 0x20 DUP2 ADD DUP4 SWAP1 MSTORE PUSH1 0x1 PUSH1 0x1 PUSH1 0xA0 SHL SUB DUP6 AND SWAP2 PUSH1 0x1 PUSH1 0x1 PUSH1 0x80 SHL SUB DUP11 AND SWAP2 PUSH32 0xD2A6AEE9265D7E28B871C25501ABE610595EECB7DD2F5DDE2D7C55A5CE7F644F SWAP2 ADD PUSH1 0x40 MLOAD DUP1 SWAP2 SUB SWAP1 LOG3 DUP7 PUSH1 0x1 PUSH1 0x1 PUSH1 0x80 SHL SUB AND PUSH0 MLOAD PUSH1 0x20 PUSH2 0x2205 PUSH0 CODECOPY PUSH0 MLOAD SWAP1 PUSH0 MSTORE DUP6 PUSH1 0x5 PUSH1 0x40 MLOAD PUSH2 0x1416 SWAP3 SWAP2 SWAP1 PUSH2 0x1DAE JUMP JUMPDEST PUSH1 0x40 MLOAD DUP1 SWAP2 SUB SWAP1 LOG2 POP POP POP POP POP PUSH2 0x142C PUSH1 0x1 PUSH0 SSTORE JUMP JUMPDEST POP POP POP JUMP JUMPDEST PUSH2 0x1439 PUSH2 0x166C JUMP JUMPDEST PUSH1 0x1 PUSH1 0x1 PUSH1 0xA0 SHL SUB DUP2 AND PUSH2 0x1462 JUMPI PUSH0 PUSH1 0x40 MLOAD PUSH4 0x1E4FBDF7 PUSH1 0xE0 SHL DUP2 MSTORE PUSH1 0x4 ADD PUSH2 0x570 SWAP2 SWAP1 PUSH2 0x1A56 JUMP JUMPDEST PUSH2 0x146B DUP2 PUSH2 0x16C6 JUMP JUMPDEST POP JUMP JUMPDEST PUSH0 PUSH2 0x1477 PUSH2 0x1744 JUMP JUMPDEST DUP1 SLOAD SWAP1 SWAP2 POP PUSH1 0xFF PUSH1 0x1 PUSH1 0x40 SHL DUP3 DIV AND ISZERO SWAP1 PUSH1 0x1 PUSH1 0x1 PUSH1 0x40 SHL SUB AND PUSH0 DUP2 ISZERO DUP1 ISZERO PUSH2 0x149D JUMPI POP DUP3 JUMPDEST SWAP1 POP PUSH0 DUP3 PUSH1 0x1 PUSH1 0x1 PUSH1 0x40 SHL SUB AND PUSH1 0x1 EQ DUP1 ISZERO PUSH2 0x14B8 JUMPI POP ADDRESS EXTCODESIZE ISZERO JUMPDEST SWAP1 POP DUP2 ISZERO DUP1 ISZERO PUSH2 0x14C6 JUMPI POP DUP1 ISZERO JUMPDEST ISZERO PUSH2 0x14E4 JUMPI PUSH1 0x40 MLOAD PUSH4 0xF92EE8A9 PUSH1 0xE0 SHL DUP2 MSTORE PUSH1 0x4 ADD PUSH1 0x40 MLOAD DUP1 SWAP2 SUB SWAP1 REVERT JUMPDEST DUP5 SLOAD PUSH1 0x1 PUSH1 0x1 PUSH1 0x40 SHL SUB NOT AND PUSH1 0x1 OR DUP6 SSTORE DUP4 ISZERO PUSH2 0x150D JUMPI DUP5 SLOAD PUSH1 0xFF PUSH1 0x40 SHL NOT AND PUSH1 0x1 PUSH1 0x40 SHL OR DUP6 SSTORE JUMPDEST PUSH1 0x1 PUSH1 0x1 PUSH1 0xA0 SHL SUB DUP10 AND PUSH2 0x1534 JUMPI PUSH1 0x40 MLOAD PUSH4 0x2B840735 PUSH1 0xE1 SHL DUP2 MSTORE PUSH1 0x4 ADD PUSH1 0x40 MLOAD DUP1 SWAP2 SUB SWAP1 REVERT JUMPDEST PUSH1 0x1 PUSH1 0x1 PUSH1 0xA0 SHL SUB DUP9 AND PUSH2 0x1579 JUMPI PUSH1 0x40 MLOAD PUSH4 0x1F7ECDFF PUSH1 0xE3 SHL DUP2 MSTORE PUSH1 0x20 PUSH1 0x4 DUP3 ADD MSTORE PUSH1 0xB PUSH1 0x24 DUP3 ADD MSTORE PUSH11 0x26B2B73AA6B0B730B3B2B9 PUSH1 0xA9 SHL PUSH1 0x44 DUP3 ADD MSTORE PUSH1 0x64 ADD PUSH2 0x570 JUMP JUMPDEST PUSH1 0x1 PUSH1 0x1 PUSH1 0xA0 SHL SUB DUP8 AND PUSH2 0x15C4 JUMPI PUSH1 0x40 MLOAD PUSH4 0x1F7ECDFF PUSH1 0xE3 SHL DUP2 MSTORE PUSH1 0x20 PUSH1 0x4 DUP3 ADD MSTORE PUSH1 0x11 PUSH1 0x24 DUP3 ADD MSTORE PUSH17 0x2932B9BA30BAB930B73A26B0B730B3B2B9 PUSH1 0x79 SHL PUSH1 0x44 DUP3 ADD MSTORE PUSH1 0x64 ADD PUSH2 0x570 JUMP JUMPDEST PUSH2 0x15CD DUP7 PUSH2 0x176C JUMP JUMPDEST PUSH1 0x5 DUP1 SLOAD PUSH1 0x1 PUSH1 0x1 PUSH1 0xA0 SHL SUB DUP1 DUP13 AND PUSH1 0x1 PUSH1 0x1 PUSH1 0xA0 SHL SUB NOT SWAP3 DUP4 AND OR DUP4 SSTORE PUSH1 0x3 DUP1 SLOAD DUP13 DUP4 AND SWAP1 DUP5 AND OR SWAP1 SSTORE PUSH1 0x4 DUP1 SLOAD SWAP2 DUP12 AND SWAP2 SWAP1 SWAP3 AND OR SWAP1 SSTORE PUSH1 0x1 DUP1 SLOAD PUSH1 0x1 PUSH1 0x1 PUSH1 0x80 SHL SUB NOT AND DUP2 OR SWAP1 SSTORE PUSH1 0x6 SSTORE DUP4 ISZERO PUSH2 0x1661 JUMPI DUP5 SLOAD PUSH1 0xFF PUSH1 0x40 SHL NOT AND DUP6 SSTORE PUSH1 0x40 MLOAD PUSH1 0x1 DUP2 MSTORE PUSH32 0xC7F505B2F371AE2175EE4913F4499E1F2633A7B5936321EED1CDAEB6115181D2 SWAP1 PUSH1 0x20 ADD PUSH1 0x40 MLOAD DUP1 SWAP2 SUB SWAP1 LOG1 JUMPDEST POP POP POP POP POP POP POP POP POP JUMP JUMPDEST CALLER PUSH2 0x1675 PUSH2 0x9FF JUMP JUMPDEST PUSH1 0x1 PUSH1 0x1 PUSH1 0xA0 SHL SUB AND EQ PUSH2 0x9FD JUMPI CALLER PUSH1 0x40 MLOAD PUSH4 0x118CDAA7 PUSH1 0xE0 SHL DUP2 MSTORE PUSH1 0x4 ADD PUSH2 0x570 SWAP2 SWAP1 PUSH2 0x1A56 JUMP JUMPDEST PUSH1 0x2 PUSH0 SLOAD SUB PUSH2 0x16C0 JUMPI PUSH1 0x40 MLOAD PUSH4 0x3EE5AEB5 PUSH1 0xE0 SHL DUP2 MSTORE PUSH1 0x4 ADD PUSH1 0x40 MLOAD DUP1 SWAP2 SUB SWAP1 REVERT JUMPDEST PUSH1 0x2 PUSH0 SSTORE JUMP JUMPDEST PUSH0 PUSH2 0x16CF PUSH2 0x1720 JUMP JUMPDEST DUP1 SLOAD PUSH1 0x1 PUSH1 0x1 PUSH1 0xA0 SHL SUB DUP5 DUP2 AND PUSH1 0x1 PUSH1 0x1 PUSH1 0xA0 SHL SUB NOT DUP4 AND DUP2 OR DUP5 SSTORE PUSH1 0x40 MLOAD SWAP4 SWAP5 POP SWAP2 AND SWAP2 DUP3 SWAP1 PUSH32 0x8BE0079C531659141344CD1FD0A4F28419497F9722A3DAAFE3B4186F6B6457E0 SWAP1 PUSH0 SWAP1 LOG3 POP POP POP JUMP JUMPDEST PUSH32 0x9016D09D72D40FDAE2FD8CEAC6B6234C7706214FD39C1CD1E609A0528C199300 SWAP1 JUMP JUMPDEST PUSH0 DUP1 PUSH32 0xF0C57E16840DF040F15088DC2F81FE391C3923BEC73E23A9662EFC9C229C6A00 PUSH2 0x579 JUMP JUMPDEST PUSH2 0x1774 PUSH2 0x177D JUMP JUMPDEST PUSH2 0x146B DUP2 PUSH2 0x17A2 JUMP JUMPDEST PUSH2 0x1785 PUSH2 0x17AA JUMP JUMPDEST PUSH2 0x9FD JUMPI PUSH1 0x40 MLOAD PUSH4 0x1AFCD79F PUSH1 0xE3 SHL DUP2 MSTORE PUSH1 0x4 ADD PUSH1 0x40 MLOAD DUP1 SWAP2 SUB SWAP1 REVERT JUMPDEST PUSH2 0x1439 PUSH2 0x177D JUMP JUMPDEST PUSH0 PUSH2 0x17B3 PUSH2 0x1744 JUMP JUMPDEST SLOAD PUSH1 0x1 PUSH1 0x40 SHL SWAP1 DIV PUSH1 0xFF AND SWAP2 SWAP1 POP JUMP JUMPDEST PUSH1 0x1 PUSH1 0x1 PUSH1 0x80 SHL SUB DUP2 AND DUP2 EQ PUSH2 0x146B JUMPI PUSH0 PUSH0 REVERT JUMPDEST PUSH0 PUSH1 0x20 DUP3 DUP5 SUB SLT ISZERO PUSH2 0x17E7 JUMPI PUSH0 PUSH0 REVERT JUMPDEST DUP2 CALLDATALOAD PUSH2 0x17F2 DUP2 PUSH2 0x17C3 JUMP JUMPDEST SWAP4 SWAP3 POP POP POP JUMP JUMPDEST PUSH1 0x1 PUSH1 0x1 PUSH1 0x80 SHL SUB AND SWAP1 MSTORE JUMP JUMPDEST PUSH0 DUP3 DUP3 MLOAD DUP1 DUP6 MSTORE PUSH1 0x20 DUP6 ADD SWAP5 POP PUSH1 0x20 DUP2 PUSH1 0x5 SHL DUP4 ADD ADD PUSH1 0x20 DUP6 ADD PUSH0 JUMPDEST DUP4 DUP2 LT ISZERO PUSH2 0x18B4 JUMPI PUSH1 0x1F NOT DUP6 DUP5 SUB ADD DUP9 MSTORE DUP2 MLOAD PUSH1 0x1 DUP1 PUSH1 0x80 SHL SUB DUP2 MLOAD AND DUP5 MSTORE PUSH1 0x20 DUP2 ADD MLOAD PUSH1 0x80 PUSH1 0x20 DUP7 ADD MSTORE DUP1 MLOAD DUP1 PUSH1 0x80 DUP8 ADD MSTORE DUP1 PUSH1 0x20 DUP4 ADD PUSH1 0xA0 DUP9 ADD MCOPY PUSH0 PUSH1 0xA0 DUP3 DUP9 ADD ADD MSTORE PUSH1 0x1 DUP1 PUSH1 0x80 SHL SUB PUSH1 0x40 DUP5 ADD MLOAD AND PUSH1 0x40 DUP8 ADD MSTORE PUSH1 0x1 DUP1 PUSH1 0x80 SHL SUB PUSH1 0x60 DUP5 ADD MLOAD AND PUSH1 0x60 DUP8 ADD MSTORE PUSH1 0xA0 PUSH1 0x1F NOT PUSH1 0x1F DUP4 ADD AND DUP8 ADD ADD SWAP6 POP POP POP POP PUSH1 0x20 DUP3 ADD SWAP2 POP PUSH1 0x20 DUP9 ADD SWAP8 POP PUSH1 0x1 DUP2 ADD SWAP1 POP PUSH2 0x1822 JUMP JUMPDEST POP SWAP1 SWAP7 SWAP6 POP POP POP POP POP POP JUMP JUMPDEST PUSH4 0x4E487B71 PUSH1 0xE0 SHL PUSH0 MSTORE PUSH1 0x21 PUSH1 0x4 MSTORE PUSH1 0x24 PUSH0 REVERT JUMPDEST PUSH1 0x7 DUP2 LT PUSH2 0x18F0 JUMPI PUSH4 0x4E487B71 PUSH1 0xE0 SHL PUSH0 MSTORE PUSH1 0x21 PUSH1 0x4 MSTORE PUSH1 0x24 PUSH0 REVERT JUMPDEST SWAP1 MSTORE JUMP JUMPDEST PUSH1 0x20 DUP1 DUP3 MSTORE DUP3 MLOAD PUSH1 0x1 PUSH1 0x1 PUSH1 0x80 SHL SUB AND DUP3 DUP3 ADD MSTORE DUP3 ADD MLOAD PUSH1 0x1 PUSH1 0x1 PUSH1 0xA0 SHL SUB AND PUSH1 0x40 DUP1 DUP4 ADD SWAP2 SWAP1 SWAP2 MSTORE DUP3 ADD MLOAD PUSH0 SWAP1 PUSH2 0x192F PUSH1 0x60 DUP5 ADD DUP3 PUSH2 0x17F9 JUMP JUMPDEST POP PUSH1 0x60 DUP4 ADD MLOAD PUSH2 0x100 PUSH1 0x80 DUP5 ADD MSTORE PUSH2 0x194B PUSH2 0x120 DUP5 ADD DUP3 PUSH2 0x1806 JUMP JUMPDEST SWAP1 POP PUSH1 0x80 DUP5 ADD MLOAD PUSH1 0xA0 DUP5 ADD MSTORE PUSH1 0xA0 DUP5 ADD MLOAD PUSH2 0x1969 PUSH1 0xC0 DUP6 ADD DUP3 PUSH2 0x18D4 JUMP JUMPDEST POP PUSH1 0xC0 DUP5 ADD MLOAD PUSH2 0x197C PUSH1 0xE0 DUP6 ADD DUP3 PUSH2 0x17F9 JUMP JUMPDEST POP PUSH1 0xE0 DUP5 ADD MLOAD PUSH2 0x1990 PUSH2 0x100 DUP6 ADD DUP3 PUSH2 0x17F9 JUMP JUMPDEST POP SWAP4 SWAP3 POP POP POP JUMP JUMPDEST PUSH0 PUSH1 0x20 DUP3 DUP5 SUB SLT ISZERO PUSH2 0x19A8 JUMPI PUSH0 PUSH0 REVERT JUMPDEST POP CALLDATALOAD SWAP2 SWAP1 POP JUMP JUMPDEST PUSH1 0x1 PUSH1 0x1 PUSH1 0xA0 SHL SUB DUP2 AND DUP2 EQ PUSH2 0x146B JUMPI PUSH0 PUSH0 REVERT JUMPDEST PUSH0 PUSH0 PUSH0 PUSH0 PUSH1 0x80 DUP6 DUP8 SUB SLT ISZERO PUSH2 0x19D6 JUMPI PUSH0 PUSH0 REVERT JUMPDEST DUP5 CALLDATALOAD PUSH2 0x19E1 DUP2 PUSH2 0x19AF JUMP JUMPDEST SWAP4 POP PUSH1 0x20 DUP6 ADD CALLDATALOAD PUSH2 0x19F1 DUP2 PUSH2 0x17C3 JUMP JUMPDEST SWAP3 POP PUSH1 0x40 DUP6 ADD CALLDATALOAD PUSH1 0x7 DUP2 LT PUSH2 0x1A04 JUMPI PUSH0 PUSH0 REVERT JUMPDEST SWAP2 POP PUSH1 0x60 DUP6 ADD CALLDATALOAD PUSH2 0x1A14 DUP2 PUSH2 0x17C3 JUMP JUMPDEST SWAP4 SWAP7 SWAP3 SWAP6 POP SWAP1 SWAP4 POP POP JUMP JUMPDEST PUSH0 PUSH0 PUSH1 0x40 DUP4 DUP6 SUB SLT ISZERO PUSH2 0x1A30 JUMPI PUSH0 PUSH0 REVERT JUMPDEST DUP3 CALLDATALOAD PUSH2 0x1A3B DUP2 PUSH2 0x19AF JUMP JUMPDEST SWAP2 POP PUSH1 0x20 DUP4 ADD CALLDATALOAD PUSH2 0x1A4B DUP2 PUSH2 0x17C3 JUMP JUMPDEST DUP1 SWAP2 POP POP SWAP3 POP SWAP3 SWAP1 POP JUMP JUMPDEST PUSH1 0x1 PUSH1 0x1 PUSH1 0xA0 SHL SUB SWAP2 SWAP1 SWAP2 AND DUP2 MSTORE PUSH1 0x20 ADD SWAP1 JUMP JUMPDEST PUSH1 0x1 PUSH1 0x1 PUSH1 0x80 SHL SUB SWAP2 SWAP1 SWAP2 AND DUP2 MSTORE PUSH1 0x20 ADD SWAP1 JUMP JUMPDEST PUSH4 0x4E487B71 PUSH1 0xE0 SHL PUSH0 MSTORE PUSH1 0x41 PUSH1 0x4 MSTORE PUSH1 0x24 PUSH0 REVERT JUMPDEST PUSH1 0x40 MLOAD PUSH2 0x160 DUP2 ADD PUSH1 0x1 PUSH1 0x1 PUSH1 0x40 SHL SUB DUP2 GT DUP3 DUP3 LT OR ISZERO PUSH2 0x1AB5 JUMPI PUSH2 0x1AB5 PUSH2 0x1A7E JUMP JUMPDEST PUSH1 0x40 MSTORE SWAP1 JUMP JUMPDEST PUSH1 0x40 MLOAD PUSH1 0x1F DUP3 ADD PUSH1 0x1F NOT AND DUP2 ADD PUSH1 0x1 PUSH1 0x1 PUSH1 0x40 SHL SUB DUP2 GT DUP3 DUP3 LT OR ISZERO PUSH2 0x1AE3 JUMPI PUSH2 0x1AE3 PUSH2 0x1A7E JUMP JUMPDEST PUSH1 0x40 MSTORE SWAP2 SWAP1 POP JUMP JUMPDEST PUSH0 DUP3 PUSH1 0x1F DUP4 ADD SLT PUSH2 0x1AFA JUMPI PUSH0 PUSH0 REVERT JUMPDEST DUP2 CALLDATALOAD PUSH1 0x1 PUSH1 0x1 PUSH1 0x40 SHL SUB DUP2 GT ISZERO PUSH2 0x1B13 JUMPI PUSH2 0x1B13 PUSH2 0x1A7E JUMP JUMPDEST DUP1 PUSH1 0x5 SHL PUSH2 0x1B23 PUSH1 0x20 DUP3 ADD PUSH2 0x1ABB JUMP JUMPDEST SWAP2 DUP3 MSTORE PUSH1 0x20 DUP2 DUP6 ADD DUP2 ADD SWAP3 SWAP1 DUP2 ADD SWAP1 DUP7 DUP5 GT ISZERO PUSH2 0x1B3E JUMPI PUSH0 PUSH0 REVERT JUMPDEST PUSH1 0x20 DUP7 ADD SWAP3 POP JUMPDEST DUP4 DUP4 LT ISZERO PUSH2 0x1B69 JUMPI DUP3 CALLDATALOAD PUSH2 0x1B58 DUP2 PUSH2 0x17C3 JUMP JUMPDEST DUP3 MSTORE PUSH1 0x20 SWAP3 DUP4 ADD SWAP3 SWAP1 SWAP2 ADD SWAP1 PUSH2 0x1B45 JUMP JUMPDEST SWAP7 SWAP6 POP POP POP POP POP POP JUMP JUMPDEST PUSH0 PUSH0 PUSH0 PUSH0 PUSH1 0x80 DUP6 DUP8 SUB SLT ISZERO PUSH2 0x1B86 JUMPI PUSH0 PUSH0 REVERT JUMPDEST DUP5 CALLDATALOAD PUSH2 0x1B91 DUP2 PUSH2 0x19AF JUMP JUMPDEST SWAP4 POP PUSH1 0x20 DUP6 ADD CALLDATALOAD PUSH2 0x1BA1 DUP2 PUSH2 0x17C3 JUMP JUMPDEST SWAP3 POP PUSH1 0x40 DUP6 ADD CALLDATALOAD PUSH1 0x1 PUSH1 0x1 PUSH1 0x40 SHL SUB DUP2 GT ISZERO PUSH2 0x1BBB JUMPI PUSH0 PUSH0 REVERT JUMPDEST PUSH2 0x1BC7 DUP8 DUP3 DUP9 ADD PUSH2 0x1AEB JUMP JUMPDEST SWAP3 POP POP PUSH1 0x60 DUP6 ADD CALLDATALOAD PUSH1 0x1 PUSH1 0x1 PUSH1 0x40 SHL SUB DUP2 GT ISZERO PUSH2 0x1BE2 JUMPI PUSH0 PUSH0 REVERT JUMPDEST PUSH2 0x1BEE DUP8 DUP3 DUP9 ADD PUSH2 0x1AEB JUMP JUMPDEST SWAP2 POP POP SWAP3 SWAP6 SWAP2 SWAP5 POP SWAP3 POP JUMP JUMPDEST PUSH0 PUSH0 PUSH0 PUSH1 0x60 DUP5 DUP7 SUB SLT ISZERO PUSH2 0x1C0C JUMPI PUSH0 PUSH0 REVERT JUMPDEST DUP4 CALLDATALOAD PUSH2 0x1C17 DUP2 PUSH2 0x19AF JUMP JUMPDEST SWAP3 POP PUSH1 0x20 DUP5 ADD CALLDATALOAD PUSH2 0x1C27 DUP2 PUSH2 0x17C3 JUMP JUMPDEST SWAP2 POP PUSH1 0x40 DUP5 ADD CALLDATALOAD PUSH2 0x1C37 DUP2 PUSH2 0x17C3 JUMP JUMPDEST DUP1 SWAP2 POP POP SWAP3 POP SWAP3 POP SWAP3 JUMP JUMPDEST PUSH0 PUSH1 0x20 DUP3 DUP5 SUB SLT ISZERO PUSH2 0x1C52 JUMPI PUSH0 PUSH0 REVERT JUMPDEST DUP2 CALLDATALOAD PUSH2 0x17F2 DUP2 PUSH2 0x19AF JUMP JUMPDEST PUSH0 PUSH0 PUSH0 PUSH0 PUSH1 0x80 DUP6 DUP8 SUB SLT ISZERO PUSH2 0x1C70 JUMPI PUSH0 PUSH0 REVERT JUMPDEST DUP5 CALLDATALOAD PUSH2 0x1C7B DUP2 PUSH2 0x19AF JUMP JUMPDEST SWAP4 POP PUSH1 0x20 DUP6 ADD CALLDATALOAD PUSH2 0x1C8B DUP2 PUSH2 0x19AF JUMP JUMPDEST SWAP3 POP PUSH1 0x40 DUP6 ADD CALLDATALOAD PUSH2 0x1C9B DUP2 PUSH2 0x19AF JUMP JUMPDEST SWAP2 POP PUSH1 0x60 DUP6 ADD CALLDATALOAD PUSH2 0x1A14 DUP2 PUSH2 0x19AF JUMP JUMPDEST PUSH1 0x1 PUSH1 0x1 PUSH1 0x80 SHL SUB DUP9 DUP2 AND DUP3 MSTORE PUSH1 0x1 PUSH1 0x1 PUSH1 0xA0 SHL SUB DUP9 AND PUSH1 0x20 DUP4 ADD MSTORE DUP7 AND PUSH1 0x40 DUP3 ADD MSTORE PUSH1 0x60 DUP2 ADD DUP6 SWAP1 MSTORE PUSH1 0xE0 DUP2 ADD PUSH2 0x1CE6 PUSH1 0x80 DUP4 ADD DUP7 PUSH2 0x18D4 JUMP JUMPDEST PUSH1 0x1 PUSH1 0x1 PUSH1 0x80 SHL SUB SWAP4 DUP5 AND PUSH1 0xA0 DUP4 ADD MSTORE SWAP2 SWAP1 SWAP3 AND PUSH1 0xC0 SWAP1 SWAP3 ADD SWAP2 SWAP1 SWAP2 MSTORE SWAP6 SWAP5 POP POP POP POP POP JUMP JUMPDEST PUSH1 0x1 DUP2 DUP2 SHR SWAP1 DUP3 AND DUP1 PUSH2 0x1D20 JUMPI PUSH1 0x7F DUP3 AND SWAP2 POP JUMPDEST PUSH1 0x20 DUP3 LT DUP2 SUB PUSH2 0x1D3E JUMPI PUSH4 0x4E487B71 PUSH1 0xE0 SHL PUSH0 MSTORE PUSH1 0x22 PUSH1 0x4 MSTORE PUSH1 0x24 PUSH0 REVERT JUMPDEST POP SWAP2 SWAP1 POP JUMP JUMPDEST PUSH1 0x1 PUSH1 0x1 PUSH1 0xA0 SHL SUB SWAP4 SWAP1 SWAP4 AND DUP4 MSTORE PUSH1 0x1 PUSH1 0x1 PUSH1 0x80 SHL SUB SWAP2 DUP3 AND PUSH1 0x20 DUP5 ADD MSTORE AND PUSH1 0x40 DUP3 ADD MSTORE PUSH1 0x60 ADD SWAP1 JUMP JUMPDEST PUSH2 0x1D78 DUP2 DUP4 PUSH2 0x18D4 JUMP JUMPDEST PUSH1 0x40 PUSH1 0x20 DUP3 ADD DUP2 SWAP1 MSTORE PUSH1 0x16 SWAP1 DUP3 ADD MSTORE PUSH22 0x7570646174652028616C72656164792066696E616C29 PUSH1 0x50 SHL PUSH1 0x60 DUP3 ADD MSTORE PUSH1 0x80 ADD SWAP2 SWAP1 POP JUMP JUMPDEST PUSH1 0x40 DUP2 ADD PUSH2 0x1DBC DUP3 DUP6 PUSH2 0x18D4 JUMP JUMPDEST PUSH2 0x17F2 PUSH1 0x20 DUP4 ADD DUP5 PUSH2 0x18D4 JUMP JUMPDEST PUSH2 0x1DD3 DUP2 DUP4 PUSH2 0x18D4 JUMP JUMPDEST PUSH1 0x40 PUSH1 0x20 DUP3 ADD DUP2 SWAP1 MSTORE PUSH1 0x6 SWAP1 DUP3 ADD MSTORE PUSH6 0x18D85B98D95B PUSH1 0xD2 SHL PUSH1 0x60 DUP3 ADD MSTORE PUSH1 0x80 ADD SWAP2 SWAP1 POP JUMP JUMPDEST PUSH4 0x4E487B71 PUSH1 0xE0 SHL PUSH0 MSTORE PUSH1 0x32 PUSH1 0x4 MSTORE PUSH1 0x24 PUSH0 REVERT JUMPDEST PUSH1 0x1 PUSH1 0x1 PUSH1 0x80 SHL SUB SWAP3 DUP4 AND DUP2 MSTORE SWAP2 AND PUSH1 0x20 DUP3 ADD MSTORE PUSH1 0x40 ADD SWAP1 JUMP JUMPDEST DUP1 MLOAD PUSH2 0x1E32 DUP2 PUSH2 0x17C3 JUMP JUMPDEST SWAP2 SWAP1 POP JUMP JUMPDEST PUSH0 DUP3 PUSH1 0x1F DUP4 ADD SLT PUSH2 0x1E46 JUMPI PUSH0 PUSH0 REVERT JUMPDEST DUP2 MLOAD PUSH1 0x1 PUSH1 0x1 PUSH1 0x40 SHL SUB DUP2 GT ISZERO PUSH2 0x1E5F JUMPI PUSH2 0x1E5F PUSH2 0x1A7E JUMP JUMPDEST PUSH2 0x1E72 PUSH1 0x1F DUP3 ADD PUSH1 0x1F NOT AND PUSH1 0x20 ADD PUSH2 0x1ABB JUMP JUMPDEST DUP2 DUP2 MSTORE DUP5 PUSH1 0x20 DUP4 DUP7 ADD ADD GT ISZERO PUSH2 0x1E86 JUMPI PUSH0 PUSH0 REVERT JUMPDEST DUP2 PUSH1 0x20 DUP6 ADD PUSH1 0x20 DUP4 ADD MCOPY PUSH0 SWAP2 DUP2 ADD PUSH1 0x20 ADD SWAP2 SWAP1 SWAP2 MSTORE SWAP4 SWAP3 POP POP POP JUMP JUMPDEST DUP1 MLOAD DUP1 ISZERO ISZERO DUP2 EQ PUSH2 0x1E32 JUMPI PUSH0 PUSH0 REVERT JUMPDEST PUSH0 PUSH1 0x20 DUP3 DUP5 SUB SLT ISZERO PUSH2 0x1EC1 JUMPI PUSH0 PUSH0 REVERT JUMPDEST DUP2 MLOAD PUSH1 0x1 PUSH1 0x1 PUSH1 0x40 SHL SUB DUP2 GT ISZERO PUSH2 0x1ED6 JUMPI PUSH0 PUSH0 REVERT JUMPDEST DUP3 ADD PUSH2 0x160 DUP2 DUP6 SUB SLT ISZERO PUSH2 0x1EE8 JUMPI PUSH0 PUSH0 REVERT JUMPDEST PUSH2 0x1EF0 PUSH2 0x1A92 JUMP JUMPDEST PUSH2 0x1EF9 DUP3 PUSH2 0x1E27 JUMP JUMPDEST DUP2 MSTORE PUSH2 0x1F07 PUSH1 0x20 DUP4 ADD PUSH2 0x1E27 JUMP JUMPDEST PUSH1 0x20 DUP3 ADD MSTORE PUSH1 0x40 DUP3 ADD MLOAD PUSH1 0x1 PUSH1 0x1 PUSH1 0x40 SHL SUB DUP2 GT ISZERO PUSH2 0x1F24 JUMPI PUSH0 PUSH0 REVERT JUMPDEST PUSH2 0x1F30 DUP7 DUP3 DUP6 ADD PUSH2 0x1E37 JUMP JUMPDEST PUSH1 0x40 DUP4 ADD MSTORE POP PUSH1 0x60 DUP3 ADD MLOAD PUSH1 0x1 PUSH1 0x1 PUSH1 0x40 SHL SUB DUP2 GT ISZERO PUSH2 0x1F4E JUMPI PUSH0 PUSH0 REVERT JUMPDEST PUSH2 0x1F5A DUP7 DUP3 DUP6 ADD PUSH2 0x1E37 JUMP JUMPDEST PUSH1 0x60 DUP4 ADD MSTORE POP PUSH2 0x1F6C PUSH1 0x80 DUP4 ADD PUSH2 0x1E27 JUMP JUMPDEST PUSH1 0x80 DUP3 ADD MSTORE PUSH2 0x1F7D PUSH1 0xA0 DUP4 ADD PUSH2 0x1EA2 JUMP JUMPDEST PUSH1 0xA0 DUP3 ADD MSTORE PUSH1 0xC0 DUP3 ADD MLOAD PUSH1 0x1 PUSH1 0x1 PUSH1 0x40 SHL SUB DUP2 GT ISZERO PUSH2 0x1F9A JUMPI PUSH0 PUSH0 REVERT JUMPDEST PUSH2 0x1FA6 DUP7 DUP3 DUP6 ADD PUSH2 0x1E37 JUMP JUMPDEST PUSH1 0xC0 DUP4 ADD MSTORE POP PUSH1 0xE0 DUP3 ADD MLOAD PUSH1 0x1 PUSH1 0x1 PUSH1 0x40 SHL SUB DUP2 GT ISZERO PUSH2 0x1FC4 JUMPI PUSH0 PUSH0 REVERT JUMPDEST PUSH2 0x1FD0 DUP7 DUP3 DUP6 ADD PUSH2 0x1E37 JUMP JUMPDEST PUSH1 0xE0 DUP4 ADD MSTORE POP PUSH2 0x1FE3 PUSH2 0x100 DUP4 ADD PUSH2 0x1E27 JUMP JUMPDEST PUSH2 0x100 DUP3 ADD MSTORE PUSH2 0x1FF6 PUSH2 0x120 DUP4 ADD PUSH2 0x1E27 JUMP JUMPDEST PUSH2 0x120 DUP3 ADD MSTORE PUSH2 0x2009 PUSH2 0x140 DUP4 ADD PUSH2 0x1E27 JUMP JUMPDEST PUSH2 0x140 DUP3 ADD MSTORE SWAP5 SWAP4 POP POP POP POP JUMP JUMPDEST PUSH4 0x4E487B71 PUSH1 0xE0 SHL PUSH0 MSTORE PUSH1 0x11 PUSH1 0x4 MSTORE PUSH1 0x24 PUSH0 REVERT JUMPDEST DUP1 DUP3 MUL DUP2 ISZERO DUP3 DUP3 DIV DUP5 EQ OR PUSH2 0x579 JUMPI PUSH2 0x579 PUSH2 0x2017 JUMP JUMPDEST DUP1 DUP3 ADD DUP1 DUP3 GT ISZERO PUSH2 0x579 JUMPI PUSH2 0x579 PUSH2 0x2017 JUMP JUMPDEST PUSH0 PUSH1 0x1 PUSH1 0x1 PUSH1 0x80 SHL SUB DUP3 AND PUSH1 0x2 PUSH1 0x1 PUSH1 0x80 SHL SUB NOT DUP2 ADD PUSH2 0x2077 JUMPI PUSH2 0x2077 PUSH2 0x2017 JUMP JUMPDEST PUSH1 0x1 ADD SWAP3 SWAP2 POP POP JUMP JUMPDEST DUP2 DUP2 SUB DUP2 DUP2 GT ISZERO PUSH2 0x579 JUMPI PUSH2 0x579 PUSH2 0x2017 JUMP JUMPDEST PUSH1 0x1F DUP3 GT ISZERO PUSH2 0x142C JUMPI DUP1 PUSH0 MSTORE PUSH1 0x20 PUSH0 KECCAK256 PUSH1 0x1F DUP5 ADD PUSH1 0x5 SHR DUP2 ADD PUSH1 0x20 DUP6 LT ISZERO PUSH2 0x20B8 JUMPI POP DUP1 JUMPDEST PUSH1 0x1F DUP5 ADD PUSH1 0x5 SHR DUP3 ADD SWAP2 POP JUMPDEST DUP2 DUP2 LT ISZERO PUSH2 0x20D7 JUMPI PUSH0 DUP2 SSTORE PUSH1 0x1 ADD PUSH2 0x20C4 JUMP JUMPDEST POP POP POP POP POP JUMP JUMPDEST DUP2 MLOAD PUSH1 0x1 PUSH1 0x1 PUSH1 0x40 SHL SUB DUP2 GT ISZERO PUSH2 0x20F7 JUMPI PUSH2 0x20F7 PUSH2 0x1A7E JUMP JUMPDEST PUSH2 0x210B DUP2 PUSH2 0x2105 DUP5 SLOAD PUSH2 0x1D0C JUMP JUMPDEST DUP5 PUSH2 0x2093 JUMP JUMPDEST PUSH1 0x20 PUSH1 0x1F DUP3 GT PUSH1 0x1 DUP2 EQ PUSH2 0x213D JUMPI PUSH0 DUP4 ISZERO PUSH2 0x2126 JUMPI POP DUP5 DUP3 ADD MLOAD JUMPDEST PUSH0 NOT PUSH1 0x3 DUP6 SWAP1 SHL SHR NOT AND PUSH1 0x1 DUP5 SWAP1 SHL OR DUP5 SSTORE PUSH2 0x20D7 JUMP JUMPDEST PUSH0 DUP5 DUP2 MSTORE PUSH1 0x20 DUP2 KECCAK256 PUSH1 0x1F NOT DUP6 AND SWAP2 JUMPDEST DUP3 DUP2 LT ISZERO PUSH2 0x216C JUMPI DUP8 DUP6 ADD MLOAD DUP3 SSTORE PUSH1 0x20 SWAP5 DUP6 ADD SWAP5 PUSH1 0x1 SWAP1 SWAP3 ADD SWAP2 ADD PUSH2 0x214C JUMP JUMPDEST POP DUP5 DUP3 LT ISZERO PUSH2 0x2189 JUMPI DUP7 DUP5 ADD MLOAD PUSH0 NOT PUSH1 0x3 DUP8 SWAP1 SHL PUSH1 0xF8 AND SHR NOT AND DUP2 SSTORE JUMPDEST POP POP POP POP PUSH1 0x1 SWAP1 DUP2 SHL ADD SWAP1 SSTORE POP JUMP JUMPDEST PUSH2 0x21A2 DUP2 DUP4 PUSH2 0x18D4 JUMP JUMPDEST PUSH1 0x40 PUSH1 0x20 DUP3 ADD DUP2 SWAP1 MSTORE PUSH1 0x8 SWAP1 DUP3 ADD MSTORE PUSH8 0x636F6D706C657465 PUSH1 0xC0 SHL PUSH1 0x60 DUP3 ADD MSTORE PUSH1 0x80 ADD SWAP2 SWAP1 POP JUMP JUMPDEST PUSH0 PUSH1 0x20 DUP3 DUP5 SUB SLT ISZERO PUSH2 0x21DA JUMPI PUSH0 PUSH0 REVERT JUMPDEST DUP2 MLOAD PUSH2 0x17F2 DUP2 PUSH2 0x19AF JUMP JUMPDEST PUSH0 DUP3 PUSH2 0x21FF JUMPI PUSH4 0x4E487B71 PUSH1 0xE0 SHL PUSH0 MSTORE PUSH1 0x12 PUSH1 0x4 MSTORE PUSH1 0x24 PUSH0 REVERT JUMPDEST POP DIV SWAP1 JUMP INVALID DUP13 PUSH5 0x9B2AD43B64 BLOBHASH 0xBB RETURNCONTRACT 0xE9 BASEFEE PUSH27 0x5EFE9F7FCDED9570A17906D76F159A34713011A264697066735822 SLT KECCAK256 DUP16 0xC8 0xEF PUSH10 0x55F925C9216853481E7E CREATE 0xD7 DUP3 PUSH16 0xC7B06D6377E948D38B5845D1F4B46473 PUSH16 0x6C634300081E00330000000000000000 "
				},
				"gasEstimates": {
					"creation": {
						"codeDepositCost": "1758800",
						"executionCost": "23951",
						"totalCost": "1782751"
					},
					"external": {
						"cancelOrder(address,uint128)": "infinite",
						"completeOrder(address,uint128,uint128)": "infinite",
						"foodAppContractAddress()": "2514",
						"getOrder(uint128)": "infinite",
						"initialize(address,address,address,address)": "infinite",
						"menuManager()": "2470",
						"nextOrderId()": "2448",
						"orders(uint128)": "13782",
						"owner()": "2605",
						"placeOrder(address,uint128,uint128[],uint128[])": "infinite",
						"platformFeePercent()": "2470",
						"renounceOwnership()": "infinite",
						"restaurantManager()": "2426",
						"setPlatformFee(uint256)": "28032",
						"transferOwnership(address)": "infinite",
						"updateOrderStatus(address,uint128,uint8,uint128)": "infinite"
					}
				},
				"methodIdentifiers": {
					"cancelOrder(address,uint128)": "1b4257f6",
					"completeOrder(address,uint128,uint128)": "cf31fb46",
					"foodAppContractAddress()": "832dbdd9",
					"getOrder(uint128)": "117d4128",
					"initialize(address,address,address,address)": "f8c8765e",
					"menuManager()": "5059e95b",
					"nextOrderId()": "2a58b330",
					"orders(uint128)": "ff8ddee3",
					"owner()": "8da5cb5b",
					"placeOrder(address,uint128,uint128[],uint128[])": "c60c14d9",
					"platformFeePercent()": "8c639a85",
					"renounceOwnership()": "715018a6",
					"restaurantManager()": "2134b6f6",
					"setPlatformFee(uint256)": "12e8e2c3",
					"transferOwnership(address)": "f2fde38b",
					"updateOrderStatus(address,uint128,uint8,uint128)": "19c8ccef"
				}
			},
			"storageLayout": {
				"storage": [
					{
						"astId": 519,
						"contract": "contracts/OrderManager.sol:OrderManager",
						"label": "_status",
						"offset": 0,
						"slot": "0",
						"type": "t_uint256"
					},
					{
						"astId": 593,
						"contract": "contracts/OrderManager.sol:OrderManager",
						"label": "nextOrderId",
						"offset": 0,
						"slot": "1",
						"type": "t_uint128"
					},
					{
						"astId": 598,
						"contract": "contracts/OrderManager.sol:OrderManager",
						"label": "orders",
						"offset": 0,
						"slot": "2",
						"type": "t_mapping(t_uint128,t_struct(Order)1750_storage)"
					},
					{
						"astId": 601,
						"contract": "contracts/OrderManager.sol:OrderManager",
						"label": "menuManager",
						"offset": 0,
						"slot": "3",
						"type": "t_contract(IMenuManager)1587"
					},
					{
						"astId": 604,
						"contract": "contracts/OrderManager.sol:OrderManager",
						"label": "restaurantManager",
						"offset": 0,
						"slot": "4",
						"type": "t_contract(IRestaurantManager)1682"
					},
					{
						"astId": 606,
						"contract": "contracts/OrderManager.sol:OrderManager",
						"label": "foodAppContractAddress",
						"offset": 0,
						"slot": "5",
						"type": "t_address"
					},
					{
						"astId": 608,
						"contract": "contracts/OrderManager.sol:OrderManager",
						"label": "platformFeePercent",
						"offset": 0,
						"slot": "6",
						"type": "t_uint256"
					}
				],
				"types": {
					"t_address": {
						"encoding": "inplace",
						"label": "address",
						"numberOfBytes": "20"
					},
					"t_array(t_struct(OrderItemDetail)1730_storage)dyn_storage": {
						"base": "t_struct(OrderItemDetail)1730_storage",
						"encoding": "dynamic_array",
						"label": "struct OrderItemDetail[]",
						"numberOfBytes": "32"
					},
					"t_contract(IMenuManager)1587": {
						"encoding": "inplace",
						"label": "contract IMenuManager",
						"numberOfBytes": "20"
					},
					"t_contract(IRestaurantManager)1682": {
						"encoding": "inplace",
						"label": "contract IRestaurantManager",
						"numberOfBytes": "20"
					},
					"t_enum(OrderStatus)1698": {
						"encoding": "inplace",
						"label": "enum OrderStatus",
						"numberOfBytes": "1"
					},
					"t_mapping(t_uint128,t_struct(Order)1750_storage)": {
						"encoding": "mapping",
						"key": "t_uint128",
						"label": "mapping(uint128 => struct Order)",
						"numberOfBytes": "32",
						"value": "t_struct(Order)1750_storage"
					},
					"t_string_storage": {
						"encoding": "bytes",
						"label": "string",
						"numberOfBytes": "32"
					},
					"t_struct(Order)1750_storage": {
						"encoding": "inplace",
						"label": "struct Order",
						"members": [
							{
								"astId": 1732,
								"contract": "contracts/OrderManager.sol:OrderManager",
								"label": "id",
								"offset": 0,
								"slot": "0",
								"type": "t_uint128"
							},
							{
								"astId": 1734,
								"contract": "contracts/OrderManager.sol:OrderManager",
								"label": "customer",
								"offset": 0,
								"slot": "1",
								"type": "t_address"
							},
							{
								"astId": 1736,
								"contract": "contracts/OrderManager.sol:OrderManager",
								"label": "restaurantId",
								"offset": 0,
								"slot": "2",
								"type": "t_uint128"
							},
							{
								"astId": 1740,
								"contract": "contracts/OrderManager.sol:OrderManager",
								"label": "itemsDetail",
								"offset": 0,
								"slot": "3",
								"type": "t_array(t_struct(OrderItemDetail)1730_storage)dyn_storage"
							},
							{
								"astId": 1742,
								"contract": "contracts/OrderManager.sol:OrderManager",
								"label": "totalPrice",
								"offset": 0,
								"slot": "4",
								"type": "t_uint256"
							},
							{
								"astId": 1745,
								"contract": "contracts/OrderManager.sol:OrderManager",
								"label": "status",
								"offset": 0,
								"slot": "5",
								"type": "t_enum(OrderStatus)1698"
							},
							{
								"astId": 1747,
								"contract": "contracts/OrderManager.sol:OrderManager",
								"label": "timestamp",
								"offset": 1,
								"slot": "5",
								"type": "t_uint128"
							},
							{
								"astId": 1749,
								"contract": "contracts/OrderManager.sol:OrderManager",
								"label": "preparationTime",
								"offset": 0,
								"slot": "6",
								"type": "t_uint128"
							}
						],
						"numberOfBytes": "224"
					},
					"t_struct(OrderItemDetail)1730_storage": {
						"encoding": "inplace",
						"label": "struct OrderItemDetail",
						"members": [
							{
								"astId": 1723,
								"contract": "contracts/OrderManager.sol:OrderManager",
								"label": "menuItemId",
								"offset": 0,
								"slot": "0",
								"type": "t_uint128"
							},
							{
								"astId": 1725,
								"contract": "contracts/OrderManager.sol:OrderManager",
								"label": "name",
								"offset": 0,
								"slot": "1",
								"type": "t_string_storage"
							},
							{
								"astId": 1727,
								"contract": "contracts/OrderManager.sol:OrderManager",
								"label": "pricePerUnit",
								"offset": 0,
								"slot": "2",
								"type": "t_uint128"
							},
							{
								"astId": 1729,
								"contract": "contracts/OrderManager.sol:OrderManager",
								"label": "quantity",
								"offset": 16,
								"slot": "2",
								"type": "t_uint128"
							}
						],
						"numberOfBytes": "96"
					},
					"t_uint128": {
						"encoding": "inplace",
						"label": "uint128",
						"numberOfBytes": "16"
					},
					"t_uint256": {
						"encoding": "inplace",
						"label": "uint256",
						"numberOfBytes": "32"
					}
				}
			},
			"userdoc": {
				"kind": "user",
				"methods": {},
				"version": 1
			}
		}
	}
}