{
	"contracts/FoodAppFactory.sol": {
		"FoodAppFactory": {
			"abi": [
				{
					"inputs": [],
					"stateMutability": "nonpayable",
					"type": "constructor"
				},
				{
					"inputs": [],
					"name": "FoodAppFactory__AlreadyRegistered",
					"type": "error"
				},
				{
					"inputs": [
						{
							"internalType": "string",
							"name": "dependency",
							"type": "string"
						}
					],
					"name": "FoodAppFactory__DependencyNotDeployed",
					"type": "error"
				},
				{
					"inputs": [],
					"name": "FoodAppFactory__ImplementationNotSet",
					"type": "error"
				},
				{
					"inputs": [],
					"name": "FoodAppFactory__InvalidAddress",
					"type": "error"
				},
				{
					"inputs": [],
					"name": "FoodAppFactory__ManagerAlreadyDeployed",
					"type": "error"
				},
				{
					"inputs": [],
					"name": "FoodAppFactory__NotRegisteredFoodApp",
					"type": "error"
				},
				{
					"inputs": [],
					"name": "FoodAppFactory__OnlyAdmin",
					"type": "error"
				},
				{
					"inputs": [],
					"name": "FoodAppFactory__UnknownManagerType",
					"type": "error"
				},
				{
					"anonymous": false,
					"inputs": [
						{
							"indexed": true,
							"internalType": "address",
							"name": "foodApp",
							"type": "address"
						}
					],
					"name": "FoodAppRegistered",
					"type": "event"
				},
				{
					"anonymous": false,
					"inputs": [
						{
							"indexed": true,
							"internalType": "bytes32",
							"name": "managerTypeHash",
							"type": "bytes32"
						},
						{
							"indexed": true,
							"internalType": "address",
							"name": "implementationAddress",
							"type": "address"
						}
					],
					"name": "ImplementationSet",
					"type": "event"
				},
				{
					"anonymous": false,
					"inputs": [
						{
							"indexed": true,
							"internalType": "address",
							"name": "foodApp",
							"type": "address"
						},
						{
							"indexed": true,
							"internalType": "string",
							"name": "managerType",
							"type": "string"
						},
						{
							"indexed": false,
							"internalType": "address",
							"name": "manager",
							"type": "address"
						}
					],
					"name": "ManagerDeployed",
					"type": "event"
				},
				{
					"inputs": [],
					"name": "admin",
					"outputs": [
						{
							"internalType": "address",
							"name": "",
							"type": "address"
						}
					],
					"stateMutability": "view",
					"type": "function"
				},
				{
					"inputs": [
						{
							"internalType": "string",
							"name": "managerType",
							"type": "string"
						}
					],
					"name": "deployManager",
					"outputs": [
						{
							"internalType": "address",
							"name": "",
							"type": "address"
						}
					],
					"stateMutability": "nonpayable",
					"type": "function"
				},
				{
					"inputs": [
						{
							"internalType": "address",
							"name": "foodApp",
							"type": "address"
						},
						{
							"internalType": "string",
							"name": "managerType",
							"type": "string"
						}
					],
					"name": "getManager",
					"outputs": [
						{
							"internalType": "address",
							"name": "",
							"type": "address"
						}
					],
					"stateMutability": "view",
					"type": "function"
				},
				{
					"inputs": [
						{
							"internalType": "bytes32",
							"name": "",
							"type": "bytes32"
						}
					],
					"name": "implementations",
					"outputs": [
						{
							"internalType": "address",
							"name": "",
							"type": "address"
						}
					],
					"stateMutability": "view",
					"type": "function"
				},
				{
					"inputs": [
						{
							"internalType": "address",
							"name": "",
							"type": "address"
						}
					],
					"name": "isFoodApp",
					"outputs": [
						{
							"internalType": "bool",
							"name": "",
							"type": "bool"
						}
					],
					"stateMutability": "view",
					"type": "function"
				},
				{
					"inputs": [
						{
							"internalType": "address",
							"name": "",
							"type": "address"
						},
						{
							"internalType": "string",
							"name": "",
							"type": "string"
						}
					],
					"name": "managers",
					"outputs": [
						{
							"internalType": "address",
							"name": "",
							"type": "address"
						}
					],
					"stateMutability": "view",
					"type": "function"
				},
				{
					"inputs": [
						{
							"internalType": "address",
							"name": "_foodApp",
							"type": "address"
						}
					],
					"name": "registerFoodApp",
					"outputs": [],
					"stateMutability": "nonpayable",
					"type": "function"
				},
				{
					"inputs": [
						{
							"internalType": "string",
							"name": "managerType",
							"type": "string"
						},
						{
							"internalType": "address",
							"name": "implementationAddress",
							"type": "address"
						}
					],
					"name": "setImplementation",
					"outputs": [],
					"stateMutability": "nonpayable",
					"type": "function"
				}
			],
			"devdoc": {
				"kind": "dev",
				"methods": {},
				"version": 1
			},
			"evm": {
				"assembly": "    /* \"contracts/FoodAppFactory.sol\":763:5423  contract FoodAppFactory {... */\n  mstore(0x40, 0x80)\n    /* \"contracts/FoodAppFactory.sol\":1664:1715  constructor() {... */\n  callvalue\n  dup1\n  iszero\n  tag_1\n  jumpi\n  revert(0x00, 0x00)\ntag_1:\n  pop\n    /* \"contracts/FoodAppFactory.sol\":1689:1694  admin */\n  0x00\n    /* \"contracts/FoodAppFactory.sol\":1689:1707  admin = msg.sender */\n  dup1\n  sload\n  not(sub(shl(0xa0, 0x01), 0x01))\n  and\n    /* \"contracts/FoodAppFactory.sol\":1697:1707  msg.sender */\n  caller\n    /* \"contracts/FoodAppFactory.sol\":1689:1707  admin = msg.sender */\n  or\n  swap1\n  sstore\n    /* \"contracts/FoodAppFactory.sol\":763:5423  contract FoodAppFactory {... */\n  dataSize(sub_0)\n  dup1\n  dataOffset(sub_0)\n  0x00\n  codecopy\n  0x00\n  return\nstop\n\nsub_0: assembly {\n        /* \"contracts/FoodAppFactory.sol\":763:5423  contract FoodAppFactory {... */\n      mstore(0x40, 0x80)\n      callvalue\n      dup1\n      iszero\n      tag_1\n      jumpi\n      revert(0x00, 0x00)\n    tag_1:\n      pop\n      jumpi(tag_2, lt(calldatasize, 0x04))\n      shr(0xe0, calldataload(0x00))\n      dup1\n      0xa8511f5a\n      gt\n      tag_11\n      jumpi\n      dup1\n      0xa8511f5a\n      eq\n      tag_7\n      jumpi\n      dup1\n      0xdee893c2\n      eq\n      tag_8\n      jumpi\n      dup1\n      0xe03317e2\n      eq\n      tag_9\n      jumpi\n      dup1\n      0xf851a440\n      eq\n      tag_10\n      jumpi\n      revert(0x00, 0x00)\n    tag_11:\n      dup1\n      0x02cfeaca\n      eq\n      tag_3\n      jumpi\n      dup1\n      0x0471219c\n      eq\n      tag_4\n      jumpi\n      dup1\n      0x06419fe5\n      eq\n      tag_5\n      jumpi\n      dup1\n      0x698fb38c\n      eq\n      tag_6\n      jumpi\n    tag_2:\n      revert(0x00, 0x00)\n        /* \"contracts/FoodAppFactory.sol\":821:871  mapping(bytes32 => address) public implementations */\n    tag_3:\n      tag_12\n      tag_13\n      calldatasize\n      0x04\n      tag_14\n      jump\t// in\n    tag_13:\n      mstore(0x20, 0x01)\n      0x00\n      swap1\n      dup2\n      mstore\n      0x40\n      swap1\n      keccak256\n      sload\n      sub(shl(0xa0, 0x01), 0x01)\n      and\n      dup2\n      jump\n    tag_12:\n      mload(0x40)\n      sub(shl(0xa0, 0x01), 0x01)\n        /* \"#utility.yul\":363:395   */\n      swap1\n      swap2\n      and\n        /* \"#utility.yul\":345:396   */\n      dup2\n      mstore\n        /* \"#utility.yul\":333:335   */\n      0x20\n        /* \"#utility.yul\":318:336   */\n      add\n        /* \"contracts/FoodAppFactory.sol\":821:871  mapping(bytes32 => address) public implementations */\n    tag_16:\n      mload(0x40)\n      dup1\n      swap2\n      sub\n      swap1\n      return\n        /* \"contracts/FoodAppFactory.sol\":2251:2557  function registerFoodApp(address _foodApp) external onlyAdmin {... */\n    tag_4:\n      tag_18\n      tag_19\n      calldatasize\n      0x04\n      tag_20\n      jump\t// in\n    tag_19:\n      tag_21\n      jump\t// in\n    tag_18:\n      stop\n        /* \"contracts/FoodAppFactory.sol\":1842:2243  function setImplementation(string calldata managerType, address implementationAddress) external onlyAdmin {... */\n    tag_5:\n      tag_18\n      tag_23\n      calldatasize\n      0x04\n      tag_24\n      jump\t// in\n    tag_23:\n      tag_25\n      jump\t// in\n        /* \"contracts/FoodAppFactory.sol\":878:940  mapping(address => mapping(string => address)) public managers */\n    tag_6:\n      tag_12\n      tag_27\n      calldatasize\n      0x04\n      tag_28\n      jump\t// in\n    tag_27:\n      0x02\n      0x20\n      swap1\n      dup2\n      mstore\n      0x00\n      swap3\n      dup4\n      mstore\n      0x40\n      swap1\n      swap3\n      keccak256\n      dup2\n      mload\n      dup1\n      dup4\n      add\n      dup5\n      add\n      dup1\n      mload\n      swap3\n      dup2\n      mstore\n      swap1\n      dup5\n      add\n      swap3\n      swap1\n      swap4\n      add\n      swap2\n      swap1\n      swap2\n      keccak256\n      swap2\n      mstore\n      sload\n      sub(shl(0xa0, 0x01), 0x01)\n      and\n      dup2\n      jump\n        /* \"contracts/FoodAppFactory.sol\":2565:5258  function deployManager(string calldata managerType) external returns (address) {... */\n    tag_7:\n      tag_12\n      tag_32\n      calldatasize\n      0x04\n      tag_33\n      jump\t// in\n    tag_32:\n      tag_34\n      jump\t// in\n        /* \"contracts/FoodAppFactory.sol\":5266:5420  function getManager(address foodApp, string calldata managerType) external view returns (address) {... */\n    tag_8:\n      tag_12\n      tag_37\n      calldatasize\n      0x04\n      tag_38\n      jump\t// in\n    tag_37:\n      tag_39\n      jump\t// in\n        /* \"contracts/FoodAppFactory.sol\":947:988  mapping(address => bool) public isFoodApp */\n    tag_9:\n      tag_41\n      tag_42\n      calldatasize\n      0x04\n      tag_20\n      jump\t// in\n    tag_42:\n      mstore(0x20, 0x03)\n      0x00\n      swap1\n      dup2\n      mstore\n      0x40\n      swap1\n      keccak256\n      sload\n      0xff\n      and\n      dup2\n      jump\n    tag_41:\n      mload(0x40)\n        /* \"#utility.yul\":3846:3860   */\n      swap1\n      iszero\n        /* \"#utility.yul\":3839:3861   */\n      iszero\n        /* \"#utility.yul\":3821:3862   */\n      dup2\n      mstore\n        /* \"#utility.yul\":3809:3811   */\n      0x20\n        /* \"#utility.yul\":3794:3812   */\n      add\n        /* \"contracts/FoodAppFactory.sol\":947:988  mapping(address => bool) public isFoodApp */\n      tag_16\n        /* \"#utility.yul\":3681:3868   */\n      jump\n        /* \"contracts/FoodAppFactory.sol\":794:814  address public admin */\n    tag_10:\n      sload(0x00)\n      tag_12\n      swap1\n      sub(shl(0xa0, 0x01), 0x01)\n      and\n      dup2\n      jump\n        /* \"contracts/FoodAppFactory.sol\":2251:2557  function registerFoodApp(address _foodApp) external onlyAdmin {... */\n    tag_21:\n        /* \"contracts/FoodAppFactory.sol\":1773:1778  admin */\n      and(sub(shl(0xa0, 0x01), 0x01), sload(0x00))\n        /* \"contracts/FoodAppFactory.sol\":1759:1769  msg.sender */\n      caller\n        /* \"contracts/FoodAppFactory.sol\":1759:1778  msg.sender != admin */\n      eq\n        /* \"contracts/FoodAppFactory.sol\":1755:1814  if (msg.sender != admin) revert FoodAppFactory__OnlyAdmin() */\n      tag_50\n      jumpi\n        /* \"contracts/FoodAppFactory.sol\":1787:1814  FoodAppFactory__OnlyAdmin() */\n      mload(0x40)\n      shl(0xe1, 0x23338567)\n      dup2\n      mstore\n      0x04\n      add\n      mload(0x40)\n      dup1\n      swap2\n      sub\n      swap1\n      revert\n        /* \"contracts/FoodAppFactory.sol\":1755:1814  if (msg.sender != admin) revert FoodAppFactory__OnlyAdmin() */\n    tag_50:\n      sub(shl(0xa0, 0x01), 0x01)\n        /* \"contracts/FoodAppFactory.sol\":2328:2350  _foodApp == address(0) */\n      dup2\n      and\n        /* \"contracts/FoodAppFactory.sol\":2324:2391  if (_foodApp == address(0)) revert FoodAppFactory__InvalidAddress() */\n      tag_52\n      jumpi\n        /* \"contracts/FoodAppFactory.sol\":2359:2391  FoodAppFactory__InvalidAddress() */\n      mload(0x40)\n      shl(0xe0, 0xb92c6605)\n      dup2\n      mstore\n      0x04\n      add\n      mload(0x40)\n      dup1\n      swap2\n      sub\n      swap1\n      revert\n        /* \"contracts/FoodAppFactory.sol\":2324:2391  if (_foodApp == address(0)) revert FoodAppFactory__InvalidAddress() */\n    tag_52:\n      sub(shl(0xa0, 0x01), 0x01)\n        /* \"contracts/FoodAppFactory.sol\":2406:2425  isFoodApp[_foodApp] */\n      dup2\n      and\n      0x00\n      swap1\n      dup2\n      mstore\n        /* \"contracts/FoodAppFactory.sol\":2406:2415  isFoodApp */\n      0x03\n        /* \"contracts/FoodAppFactory.sol\":2406:2425  isFoodApp[_foodApp] */\n      0x20\n      mstore\n      0x40\n      swap1\n      keccak256\n      sload\n      0xff\n      and\n        /* \"contracts/FoodAppFactory.sol\":2402:2469  if (isFoodApp[_foodApp]) revert FoodAppFactory__AlreadyRegistered() */\n      iszero\n      tag_53\n      jumpi\n        /* \"contracts/FoodAppFactory.sol\":2434:2469  FoodAppFactory__AlreadyRegistered() */\n      mload(0x40)\n      shl(0xe5, 0x05e42d81)\n      dup2\n      mstore\n      0x04\n      add\n      mload(0x40)\n      dup1\n      swap2\n      sub\n      swap1\n      revert\n        /* \"contracts/FoodAppFactory.sol\":2402:2469  if (isFoodApp[_foodApp]) revert FoodAppFactory__AlreadyRegistered() */\n    tag_53:\n      sub(shl(0xa0, 0x01), 0x01)\n        /* \"contracts/FoodAppFactory.sol\":2480:2499  isFoodApp[_foodApp] */\n      dup2\n      and\n      0x00\n      dup2\n      dup2\n      mstore\n        /* \"contracts/FoodAppFactory.sol\":2480:2489  isFoodApp */\n      0x03\n        /* \"contracts/FoodAppFactory.sol\":2480:2499  isFoodApp[_foodApp] */\n      0x20\n      mstore\n      0x40\n      dup1\n      dup3\n      keccak256\n        /* \"contracts/FoodAppFactory.sol\":2480:2506  isFoodApp[_foodApp] = true */\n      dup1\n      sload\n      not(0xff)\n      and\n        /* \"contracts/FoodAppFactory.sol\":2502:2506  true */\n      0x01\n        /* \"contracts/FoodAppFactory.sol\":2480:2506  isFoodApp[_foodApp] = true */\n      or\n      swap1\n      sstore\n        /* \"contracts/FoodAppFactory.sol\":2522:2549  FoodAppRegistered(_foodApp) */\n      mload\n      0x40acd6a6e0976dabb14ff6b8b6ec06632812f9090d84b768d5c2a7bcda8539be\n      swap2\n        /* \"contracts/FoodAppFactory.sol\":2480:2499  isFoodApp[_foodApp] */\n      swap1\n        /* \"contracts/FoodAppFactory.sol\":2522:2549  FoodAppRegistered(_foodApp) */\n      log2\n        /* \"contracts/FoodAppFactory.sol\":2251:2557  function registerFoodApp(address _foodApp) external onlyAdmin {... */\n      pop\n      jump\t// out\n        /* \"contracts/FoodAppFactory.sol\":1842:2243  function setImplementation(string calldata managerType, address implementationAddress) external onlyAdmin {... */\n    tag_25:\n        /* \"contracts/FoodAppFactory.sol\":1773:1778  admin */\n      and(sub(shl(0xa0, 0x01), 0x01), sload(0x00))\n        /* \"contracts/FoodAppFactory.sol\":1759:1769  msg.sender */\n      caller\n        /* \"contracts/FoodAppFactory.sol\":1759:1778  msg.sender != admin */\n      eq\n        /* \"contracts/FoodAppFactory.sol\":1755:1814  if (msg.sender != admin) revert FoodAppFactory__OnlyAdmin() */\n      tag_55\n      jumpi\n        /* \"contracts/FoodAppFactory.sol\":1787:1814  FoodAppFactory__OnlyAdmin() */\n      mload(0x40)\n      shl(0xe1, 0x23338567)\n      dup2\n      mstore\n      0x04\n      add\n      mload(0x40)\n      dup1\n      swap2\n      sub\n      swap1\n      revert\n        /* \"contracts/FoodAppFactory.sol\":1755:1814  if (msg.sender != admin) revert FoodAppFactory__OnlyAdmin() */\n    tag_55:\n      sub(shl(0xa0, 0x01), 0x01)\n        /* \"contracts/FoodAppFactory.sol\":1963:1998  implementationAddress == address(0) */\n      dup2\n      and\n        /* \"contracts/FoodAppFactory.sol\":1959:2039  if (implementationAddress == address(0)) revert FoodAppFactory__InvalidAddress() */\n      tag_57\n      jumpi\n        /* \"contracts/FoodAppFactory.sol\":2007:2039  FoodAppFactory__InvalidAddress() */\n      mload(0x40)\n      shl(0xe0, 0xb92c6605)\n      dup2\n      mstore\n      0x04\n      add\n      mload(0x40)\n      dup1\n      swap2\n      sub\n      swap1\n      revert\n        /* \"contracts/FoodAppFactory.sol\":1959:2039  if (implementationAddress == address(0)) revert FoodAppFactory__InvalidAddress() */\n    tag_57:\n        /* \"contracts/FoodAppFactory.sol\":2050:2066  bytes32 typeHash */\n      0x00\n        /* \"contracts/FoodAppFactory.sol\":2096:2107  managerType */\n      dup4\n      dup4\n        /* \"contracts/FoodAppFactory.sol\":2079:2108  abi.encodePacked(managerType) */\n      add(0x20, mload(0x40))\n      tag_58\n      swap3\n      swap2\n      swap1\n      tag_59\n      jump\t// in\n    tag_58:\n      0x40\n      dup1\n      mload\n      dup1\n      dup4\n      sub\n      not(0x1f)\n      add\n      dup2\n      mstore\n      dup3\n      dup3\n      mstore\n        /* \"contracts/FoodAppFactory.sol\":2069:2109  keccak256(abi.encodePacked(managerType)) */\n      dup1\n      mload\n        /* \"contracts/FoodAppFactory.sol\":2079:2108  abi.encodePacked(managerType) */\n      0x20\n        /* \"contracts/FoodAppFactory.sol\":2069:2109  keccak256(abi.encodePacked(managerType)) */\n      swap2\n      dup3\n      add\n      keccak256\n        /* \"contracts/FoodAppFactory.sol\":2120:2145  implementations[typeHash] */\n      0x00\n      dup2\n      dup2\n      mstore\n        /* \"contracts/FoodAppFactory.sol\":2120:2135  implementations */\n      0x01\n        /* \"contracts/FoodAppFactory.sol\":2120:2145  implementations[typeHash] */\n      swap1\n      swap3\n      mstore\n      swap2\n      dup2\n      keccak256\n        /* \"contracts/FoodAppFactory.sol\":2120:2169  implementations[typeHash] = implementationAddress */\n      dup1\n      sload\n      not(sub(shl(0xa0, 0x01), 0x01))\n      and\n      sub(shl(0xa0, 0x01), 0x01)\n      dup8\n      and\n      swap1\n      dup2\n      or\n      swap1\n      swap2\n      sstore\n        /* \"contracts/FoodAppFactory.sol\":2069:2109  keccak256(abi.encodePacked(managerType)) */\n      swap2\n      swap4\n      pop\n        /* \"contracts/FoodAppFactory.sol\":2120:2169  implementations[typeHash] = implementationAddress */\n      swap1\n      swap2\n        /* \"contracts/FoodAppFactory.sol\":2069:2109  keccak256(abi.encodePacked(managerType)) */\n      dup4\n      swap2\n        /* \"contracts/FoodAppFactory.sol\":2185:2235  ImplementationSet(typeHash, implementationAddress) */\n      0x4b4ee1a8c5ce94bc0300190d8e5d93808c513dbac15879dc51c1b5a3f73ae6a8\n      swap2\n      log3\n        /* \"contracts/FoodAppFactory.sol\":1948:2243  {... */\n      pop\n        /* \"contracts/FoodAppFactory.sol\":1842:2243  function setImplementation(string calldata managerType, address implementationAddress) external onlyAdmin {... */\n      pop\n      pop\n      pop\n      jump\t// out\n        /* \"contracts/FoodAppFactory.sol\":2565:5258  function deployManager(string calldata managerType) external returns (address) {... */\n    tag_34:\n        /* \"contracts/FoodAppFactory.sol\":2681:2691  msg.sender */\n      caller\n        /* \"contracts/FoodAppFactory.sol\":2635:2642  address */\n      0x00\n        /* \"contracts/FoodAppFactory.sol\":2707:2733  isFoodApp[foodAppContract] */\n      dup2\n      dup2\n      mstore\n        /* \"contracts/FoodAppFactory.sol\":2707:2716  isFoodApp */\n      0x03\n        /* \"contracts/FoodAppFactory.sol\":2707:2733  isFoodApp[foodAppContract] */\n      0x20\n      mstore\n      0x40\n      dup2\n      keccak256\n      sload\n        /* \"contracts/FoodAppFactory.sol\":2635:2642  address */\n      swap1\n      swap2\n        /* \"contracts/FoodAppFactory.sol\":2681:2691  msg.sender */\n      swap1\n        /* \"contracts/FoodAppFactory.sol\":2707:2733  isFoodApp[foodAppContract] */\n      0xff\n      and\n        /* \"contracts/FoodAppFactory.sol\":2702:2780  if (!isFoodApp[foodAppContract]) revert FoodAppFactory__NotRegisteredFoodApp() */\n      tag_61\n      jumpi\n        /* \"contracts/FoodAppFactory.sol\":2742:2780  FoodAppFactory__NotRegisteredFoodApp() */\n      mload(0x40)\n      shl(0xe0, 0x577d4b85)\n      dup2\n      mstore\n      0x04\n      add\n      mload(0x40)\n      dup1\n      swap2\n      sub\n      swap1\n      revert\n        /* \"contracts/FoodAppFactory.sol\":2702:2780  if (!isFoodApp[foodAppContract]) revert FoodAppFactory__NotRegisteredFoodApp() */\n    tag_61:\n        /* \"contracts/FoodAppFactory.sol\":2793:2809  bytes32 typeHash */\n      0x00\n        /* \"contracts/FoodAppFactory.sol\":2839:2850  managerType */\n      dup5\n      dup5\n        /* \"contracts/FoodAppFactory.sol\":2822:2851  abi.encodePacked(managerType) */\n      add(0x20, mload(0x40))\n      tag_62\n      swap3\n      swap2\n      swap1\n      tag_59\n      jump\t// in\n    tag_62:\n      0x40\n      dup1\n      mload\n      not(0x1f)\n      dup2\n      dup5\n      sub\n      add\n      dup2\n      mstore\n      dup3\n      dup3\n      mstore\n        /* \"contracts/FoodAppFactory.sol\":2812:2852  keccak256(abi.encodePacked(managerType)) */\n      dup1\n      mload\n        /* \"contracts/FoodAppFactory.sol\":2822:2851  abi.encodePacked(managerType) */\n      0x20\n        /* \"contracts/FoodAppFactory.sol\":2812:2852  keccak256(abi.encodePacked(managerType)) */\n      swap2\n      dup3\n      add\n      keccak256\n      sub(shl(0xa0, 0x01), 0x01)\n        /* \"contracts/FoodAppFactory.sol\":2867:2892  managers[foodAppContract] */\n      dup7\n      and\n        /* \"contracts/FoodAppFactory.sol\":2917:2918  0 */\n      0x00\n        /* \"contracts/FoodAppFactory.sol\":2867:2892  managers[foodAppContract] */\n      swap1\n      dup2\n      mstore\n        /* \"contracts/FoodAppFactory.sol\":2867:2875  managers */\n      0x02\n        /* \"contracts/FoodAppFactory.sol\":2867:2892  managers[foodAppContract] */\n      swap1\n      swap3\n      mstore\n      swap2\n      dup2\n      keccak256\n        /* \"contracts/FoodAppFactory.sol\":2812:2852  keccak256(abi.encodePacked(managerType)) */\n      swap2\n      swap4\n      pop\n        /* \"contracts/FoodAppFactory.sol\":2917:2918  0 */\n      swap2\n        /* \"contracts/FoodAppFactory.sol\":2867:2905  managers[foodAppContract][managerType] */\n      tag_63\n      swap1\n        /* \"contracts/FoodAppFactory.sol\":2893:2904  managerType */\n      dup9\n      swap1\n      dup9\n      swap1\n        /* \"contracts/FoodAppFactory.sol\":2867:2905  managers[foodAppContract][managerType] */\n      tag_59\n      jump\t// in\n    tag_63:\n      swap1\n      dup2\n      mstore\n      mload(0x40)\n      swap1\n      dup2\n      swap1\n      sub\n      0x20\n      add\n      swap1\n      keccak256\n      sload\n      sub(shl(0xa0, 0x01), 0x01)\n      and\n        /* \"contracts/FoodAppFactory.sol\":2867:2919  managers[foodAppContract][managerType] != address(0) */\n      eq\n        /* \"contracts/FoodAppFactory.sol\":2863:2968  if (managers[foodAppContract][managerType] != address(0)) revert FoodAppFactory__ManagerAlreadyDeployed() */\n      tag_64\n      jumpi\n        /* \"contracts/FoodAppFactory.sol\":2928:2968  FoodAppFactory__ManagerAlreadyDeployed() */\n      mload(0x40)\n      shl(0xe1, 0x51a4ffef)\n      dup2\n      mstore\n      0x04\n      add\n      mload(0x40)\n      dup1\n      swap2\n      sub\n      swap1\n      revert\n        /* \"contracts/FoodAppFactory.sol\":2863:2968  if (managers[foodAppContract][managerType] != address(0)) revert FoodAppFactory__ManagerAlreadyDeployed() */\n    tag_64:\n        /* \"contracts/FoodAppFactory.sol\":2981:3003  address implementation */\n      0x00\n        /* \"contracts/FoodAppFactory.sol\":3006:3031  implementations[typeHash] */\n      dup2\n      dup2\n      mstore\n        /* \"contracts/FoodAppFactory.sol\":3006:3021  implementations */\n      0x01\n        /* \"contracts/FoodAppFactory.sol\":3006:3031  implementations[typeHash] */\n      0x20\n      mstore\n      0x40\n      swap1\n      keccak256\n      sload\n      sub(shl(0xa0, 0x01), 0x01)\n      and\n      dup1\n        /* \"contracts/FoodAppFactory.sol\":3042:3121  if (implementation == address(0)) revert FoodAppFactory__ImplementationNotSet() */\n      tag_65\n      jumpi\n        /* \"contracts/FoodAppFactory.sol\":3083:3121  FoodAppFactory__ImplementationNotSet() */\n      mload(0x40)\n      shl(0xe0, 0x820ee9e3)\n      dup2\n      mstore\n      0x04\n      add\n      mload(0x40)\n      dup1\n      swap2\n      sub\n      swap1\n      revert\n        /* \"contracts/FoodAppFactory.sol\":3042:3121  if (implementation == address(0)) revert FoodAppFactory__ImplementationNotSet() */\n    tag_65:\n        /* \"contracts/FoodAppFactory.sol\":3134:3154  address managerProxy */\n      0x00\n        /* \"contracts/FoodAppFactory.sol\":3157:3200  ProxyLib.deployMinimalProxy(implementation) */\n      tag_66\n        /* \"contracts/FoodAppFactory.sol\":3185:3199  implementation */\n      dup3\n        /* \"contracts/FoodAppFactory.sol\":3157:3184  ProxyLib.deployMinimalProxy */\n      tag_67\n        /* \"contracts/FoodAppFactory.sol\":3157:3200  ProxyLib.deployMinimalProxy(implementation) */\n      jump\t// in\n    tag_66:\n        /* \"contracts/FoodAppFactory.sol\":3134:3200  address managerProxy = ProxyLib.deployMinimalProxy(implementation) */\n      swap1\n      pop\n        /* \"contracts/FoodAppFactory.sol\":3242:3246  this */\n      address\n        /* \"contracts/FoodAppFactory.sol\":3324:3366  typeHash == keccak256(\"RestaurantManager\") */\n      0xf094f37b69fb531c65b81278199f5c0867e4e81326f9caff6417f5dc86a7ee39\n      dup5\n      add\n        /* \"contracts/FoodAppFactory.sol\":3320:5080  if (typeHash == keccak256(\"RestaurantManager\")) {... */\n      tag_68\n      jumpi\n        /* \"contracts/FoodAppFactory.sol\":3383:3457  IRestaurantManager(managerProxy).initialize(foodAppContract, factoryOwner) */\n      mload(0x40)\n      shl(0xe0, 0x485cc955)\n      dup2\n      mstore\n      sub(shl(0xa0, 0x01), 0x01)\n        /* \"#utility.yul\":4343:4375   */\n      dup7\n      dup2\n      and\n        /* \"contracts/FoodAppFactory.sol\":3383:3457  IRestaurantManager(managerProxy).initialize(foodAppContract, factoryOwner) */\n      0x04\n      dup4\n      add\n        /* \"#utility.yul\":4325:4376   */\n      mstore\n        /* \"#utility.yul\":4412:4444   */\n      dup3\n      dup2\n      and\n        /* \"#utility.yul\":4392:4410   */\n      0x24\n      dup4\n      add\n        /* \"#utility.yul\":4385:4445   */\n      mstore\n        /* \"contracts/FoodAppFactory.sol\":3383:3426  IRestaurantManager(managerProxy).initialize */\n      dup4\n      and\n      swap1\n      0x485cc955\n      swap1\n        /* \"#utility.yul\":4298:4316   */\n      0x44\n      add\n        /* \"contracts/FoodAppFactory.sol\":3383:3457  IRestaurantManager(managerProxy).initialize(foodAppContract, factoryOwner) */\n    tag_69:\n      0x00\n      mload(0x40)\n      dup1\n      dup4\n      sub\n      dup2\n      0x00\n      dup8\n      dup1\n      extcodesize\n      iszero\n      dup1\n      iszero\n      tag_71\n      jumpi\n      revert(0x00, 0x00)\n    tag_71:\n      pop\n      gas\n      call\n      iszero\n      dup1\n      iszero\n      tag_73\n      jumpi\n      returndatacopy(0x00, 0x00, returndatasize)\n      revert(0x00, returndatasize)\n    tag_73:\n      pop\n      pop\n      pop\n      pop\n        /* \"contracts/FoodAppFactory.sol\":3320:5080  if (typeHash == keccak256(\"RestaurantManager\")) {... */\n      jump(tag_117)\n    tag_68:\n        /* \"contracts/FoodAppFactory.sol\":3491:3515  keccak256(\"MenuManager\") */\n      0xf1e0aeb668bac4fc558624925de4edc3dfb7e138b35fbf1274918a9e51223e58\n        /* \"contracts/FoodAppFactory.sol\":3479:3487  typeHash */\n      dup5\n        /* \"contracts/FoodAppFactory.sol\":3479:3515  typeHash == keccak256(\"MenuManager\") */\n      sub\n        /* \"contracts/FoodAppFactory.sol\":3475:5080  if (typeHash == keccak256(\"MenuManager\")) {... */\n      tag_75\n      jumpi\n        /* \"contracts/FoodAppFactory.sol\":3532:3600  IMenuManager(managerProxy).initialize(foodAppContract, factoryOwner) */\n      mload(0x40)\n      shl(0xe0, 0x485cc955)\n      dup2\n      mstore\n      sub(shl(0xa0, 0x01), 0x01)\n        /* \"#utility.yul\":4343:4375   */\n      dup7\n      dup2\n      and\n        /* \"contracts/FoodAppFactory.sol\":3532:3600  IMenuManager(managerProxy).initialize(foodAppContract, factoryOwner) */\n      0x04\n      dup4\n      add\n        /* \"#utility.yul\":4325:4376   */\n      mstore\n        /* \"#utility.yul\":4412:4444   */\n      dup3\n      dup2\n      and\n        /* \"#utility.yul\":4392:4410   */\n      0x24\n      dup4\n      add\n        /* \"#utility.yul\":4385:4445   */\n      mstore\n        /* \"contracts/FoodAppFactory.sol\":3532:3569  IMenuManager(managerProxy).initialize */\n      dup4\n      and\n      swap1\n      0x485cc955\n      swap1\n        /* \"#utility.yul\":4298:4316   */\n      0x44\n      add\n        /* \"contracts/FoodAppFactory.sol\":3532:3600  IMenuManager(managerProxy).initialize(foodAppContract, factoryOwner) */\n      tag_69\n        /* \"#utility.yul\":4151:4451   */\n      jump\n        /* \"contracts/FoodAppFactory.sol\":3475:5080  if (typeHash == keccak256(\"MenuManager\")) {... */\n    tag_75:\n        /* \"contracts/FoodAppFactory.sol\":3634:3659  keccak256(\"OrderManager\") */\n      0x2335b578f972333fd9ef2743a6722bf46f16c3f49a604e771a495dce08428edc\n        /* \"contracts/FoodAppFactory.sol\":3622:3630  typeHash */\n      dup5\n        /* \"contracts/FoodAppFactory.sol\":3622:3659  typeHash == keccak256(\"OrderManager\") */\n      sub\n        /* \"contracts/FoodAppFactory.sol\":3618:5080  if (typeHash == keccak256(\"OrderManager\")) {... */\n      tag_81\n      jumpi\n      sub(shl(0xa0, 0x01), 0x01)\n        /* \"contracts/FoodAppFactory.sol\":3705:3730  managers[foodAppContract] */\n      dup6\n      dup2\n      and\n        /* \"contracts/FoodAppFactory.sol\":3676:3702  address menuManagerAddress */\n      0x00\n        /* \"contracts/FoodAppFactory.sol\":3705:3730  managers[foodAppContract] */\n      dup2\n      dup2\n      mstore\n        /* \"contracts/FoodAppFactory.sol\":3705:3713  managers */\n      0x02\n        /* \"contracts/FoodAppFactory.sol\":3705:3730  managers[foodAppContract] */\n      0x20\n      dup2\n      dup2\n      mstore\n      0x40\n      dup1\n      dup5\n      keccak256\n        /* \"contracts/FoodAppFactory.sol\":3705:3745  managers[foodAppContract][\"MenuManager\"] */\n      dup2\n      mload\n      shl(0xa9, 0x26b2b73aa6b0b730b3b2b9)\n        /* \"#utility.yul\":4658:4684   */\n      dup2\n      mstore\n        /* \"#utility.yul\":4709:4711   */\n      0x0b\n        /* \"#utility.yul\":4700:4712   */\n      dup2\n      add\n        /* \"contracts/FoodAppFactory.sol\":3705:3745  managers[foodAppContract][\"MenuManager\"] */\n      dup3\n      swap1\n      mstore\n      dup3\n      mload\n      swap1\n      dup2\n      swap1\n      sub\n      0x2b\n      add\n      dup2\n      keccak256\n      sload\n        /* \"contracts/FoodAppFactory.sol\":3795:3820  managers[foodAppContract] */\n      swap7\n      swap1\n      swap6\n      mstore\n      swap3\n      swap1\n      swap2\n      mstore\n      shl(0x79, 0x2932b9ba30bab930b73a26b0b730b3b2b9)\n        /* \"#utility.yul\":4925:4957   */\n      dup4\n      mstore\n        /* \"#utility.yul\":4982:4984   */\n      0x11\n        /* \"#utility.yul\":4973:4985   */\n      dup4\n      add\n        /* \"contracts/FoodAppFactory.sol\":3795:3841  managers[foodAppContract][\"RestaurantManager\"] */\n      swap2\n      swap1\n      swap2\n      mstore\n      mload\n      swap1\n      dup2\n      swap1\n      sub\n      0x31\n      add\n      swap1\n      keccak256\n      sload\n        /* \"contracts/FoodAppFactory.sol\":3705:3745  managers[foodAppContract][\"MenuManager\"] */\n      swap1\n      dup3\n      and\n      swap2\n        /* \"contracts/FoodAppFactory.sol\":3795:3841  managers[foodAppContract][\"RestaurantManager\"] */\n      and\n        /* \"contracts/FoodAppFactory.sol\":3705:3745  managers[foodAppContract][\"MenuManager\"] */\n      dup2\n        /* \"contracts/FoodAppFactory.sol\":3856:3953  if (menuManagerAddress == address(0)) revert FoodAppFactory__DependencyNotDeployed(\"MenuManager\") */\n      tag_86\n      jumpi\n        /* \"contracts/FoodAppFactory.sol\":3901:3953  FoodAppFactory__DependencyNotDeployed(\"MenuManager\") */\n      mload(0x40)\n      shl(0xe4, 0x0adc4dc7)\n      dup2\n      mstore\n        /* \"#utility.yul\":5198:5200   */\n      0x20\n        /* \"contracts/FoodAppFactory.sol\":3901:3953  FoodAppFactory__DependencyNotDeployed(\"MenuManager\") */\n      0x04\n      dup3\n      add\n        /* \"#utility.yul\":5180:5201   */\n      mstore\n        /* \"#utility.yul\":5237:5239   */\n      0x0b\n        /* \"#utility.yul\":5217:5235   */\n      0x24\n      dup3\n      add\n        /* \"#utility.yul\":5210:5240   */\n      mstore\n      shl(0xa9, 0x26b2b73aa6b0b730b3b2b9)\n        /* \"#utility.yul\":5256:5274   */\n      0x44\n      dup3\n      add\n        /* \"#utility.yul\":5249:5290   */\n      mstore\n        /* \"#utility.yul\":5307:5325   */\n      0x64\n      add\n        /* \"contracts/FoodAppFactory.sol\":3901:3953  FoodAppFactory__DependencyNotDeployed(\"MenuManager\") */\n    tag_87:\n      mload(0x40)\n      dup1\n      swap2\n      sub\n      swap1\n      revert\n        /* \"contracts/FoodAppFactory.sol\":3856:3953  if (menuManagerAddress == address(0)) revert FoodAppFactory__DependencyNotDeployed(\"MenuManager\") */\n    tag_86:\n      sub(shl(0xa0, 0x01), 0x01)\n        /* \"contracts/FoodAppFactory.sol\":3972:4010  restaurantManagerAddress == address(0) */\n      dup2\n      and\n        /* \"contracts/FoodAppFactory.sol\":3968:4077  if (restaurantManagerAddress == address(0)) revert FoodAppFactory__DependencyNotDeployed(\"RestaurantManager\") */\n      tag_89\n      jumpi\n        /* \"contracts/FoodAppFactory.sol\":4019:4077  FoodAppFactory__DependencyNotDeployed(\"RestaurantManager\") */\n      mload(0x40)\n      shl(0xe4, 0x0adc4dc7)\n      dup2\n      mstore\n        /* \"#utility.yul\":5538:5540   */\n      0x20\n        /* \"contracts/FoodAppFactory.sol\":4019:4077  FoodAppFactory__DependencyNotDeployed(\"RestaurantManager\") */\n      0x04\n      dup3\n      add\n        /* \"#utility.yul\":5520:5541   */\n      mstore\n        /* \"#utility.yul\":5577:5579   */\n      0x11\n        /* \"#utility.yul\":5557:5575   */\n      0x24\n      dup3\n      add\n        /* \"#utility.yul\":5550:5580   */\n      mstore\n      shl(0x79, 0x2932b9ba30bab930b73a26b0b730b3b2b9)\n        /* \"#utility.yul\":5596:5614   */\n      0x44\n      dup3\n      add\n        /* \"#utility.yul\":5589:5636   */\n      mstore\n        /* \"#utility.yul\":5653:5671   */\n      0x64\n      add\n        /* \"contracts/FoodAppFactory.sol\":4019:4077  FoodAppFactory__DependencyNotDeployed(\"RestaurantManager\") */\n      tag_87\n        /* \"#utility.yul\":5336:5677   */\n      jump\n        /* \"contracts/FoodAppFactory.sol\":3968:4077  if (restaurantManagerAddress == address(0)) revert FoodAppFactory__DependencyNotDeployed(\"RestaurantManager\") */\n    tag_89:\n        /* \"contracts/FoodAppFactory.sol\":4092:4207  IOrderManager(managerProxy).initialize(foodAppContract, menuManagerAddress, restaurantManagerAddress, factoryOwner) */\n      mload(0x40)\n      shl(0xe1, 0x7c643b2f)\n      dup2\n      mstore\n      sub(shl(0xa0, 0x01), 0x01)\n        /* \"#utility.yul\":5931:5963   */\n      dup9\n      dup2\n      and\n        /* \"contracts/FoodAppFactory.sol\":4092:4207  IOrderManager(managerProxy).initialize(foodAppContract, menuManagerAddress, restaurantManagerAddress, factoryOwner) */\n      0x04\n      dup4\n      add\n        /* \"#utility.yul\":5913:5964   */\n      mstore\n        /* \"#utility.yul\":6000:6032   */\n      dup4\n      dup2\n      and\n        /* \"#utility.yul\":5980:5998   */\n      0x24\n      dup4\n      add\n        /* \"#utility.yul\":5973:6033   */\n      mstore\n        /* \"#utility.yul\":6069:6101   */\n      dup3\n      dup2\n      and\n        /* \"#utility.yul\":6049:6067   */\n      0x44\n      dup4\n      add\n        /* \"#utility.yul\":6042:6102   */\n      mstore\n        /* \"#utility.yul\":6138:6170   */\n      dup5\n      dup2\n      and\n        /* \"#utility.yul\":6118:6136   */\n      0x64\n      dup4\n      add\n        /* \"#utility.yul\":6111:6171   */\n      mstore\n        /* \"contracts/FoodAppFactory.sol\":4092:4130  IOrderManager(managerProxy).initialize */\n      dup6\n      and\n      swap1\n      0xf8c8765e\n      swap1\n        /* \"#utility.yul\":5885:5904   */\n      0x84\n      add\n        /* \"contracts/FoodAppFactory.sol\":4092:4207  IOrderManager(managerProxy).initialize(foodAppContract, menuManagerAddress, restaurantManagerAddress, factoryOwner) */\n      0x00\n      mload(0x40)\n      dup1\n      dup4\n      sub\n      dup2\n      0x00\n      dup8\n      dup1\n      extcodesize\n      iszero\n      dup1\n      iszero\n      tag_94\n      jumpi\n      revert(0x00, 0x00)\n    tag_94:\n      pop\n      gas\n      call\n      iszero\n      dup1\n      iszero\n      tag_96\n      jumpi\n      returndatacopy(0x00, 0x00, returndatasize)\n      revert(0x00, returndatasize)\n    tag_96:\n      pop\n      pop\n      pop\n      pop\n        /* \"contracts/FoodAppFactory.sol\":3661:4219  {... */\n      pop\n      pop\n        /* \"contracts/FoodAppFactory.sol\":3618:5080  if (typeHash == keccak256(\"OrderManager\")) {... */\n      jump(tag_117)\n    tag_81:\n        /* \"contracts/FoodAppFactory.sol\":4241:4267  keccak256(\"ReviewManager\") */\n      0x8bbf664581ba9b490e4c7bc54dcab50600ac9f4ea500db4ccfa4a065d91bb92e\n        /* \"contracts/FoodAppFactory.sol\":4229:4237  typeHash */\n      dup5\n        /* \"contracts/FoodAppFactory.sol\":4229:4267  typeHash == keccak256(\"ReviewManager\") */\n      sub\n        /* \"contracts/FoodAppFactory.sol\":4225:5080  if (typeHash == keccak256(\"ReviewManager\")) {... */\n      tag_98\n      jumpi\n      sub(shl(0xa0, 0x01), 0x01)\n        /* \"contracts/FoodAppFactory.sol\":4319:4344  managers[foodAppContract] */\n      dup6\n      dup2\n      and\n        /* \"contracts/FoodAppFactory.sol\":4284:4316  address restaurantManagerAddress */\n      0x00\n        /* \"contracts/FoodAppFactory.sol\":4319:4344  managers[foodAppContract] */\n      dup2\n      dup2\n      mstore\n        /* \"contracts/FoodAppFactory.sol\":4319:4327  managers */\n      0x02\n        /* \"contracts/FoodAppFactory.sol\":4319:4344  managers[foodAppContract] */\n      0x20\n      dup2\n      dup2\n      mstore\n      0x40\n      dup1\n      dup5\n      keccak256\n        /* \"contracts/FoodAppFactory.sol\":4319:4365  managers[foodAppContract][\"RestaurantManager\"] */\n      dup2\n      mload\n      shl(0x79, 0x2932b9ba30bab930b73a26b0b730b3b2b9)\n        /* \"#utility.yul\":4925:4957   */\n      dup2\n      mstore\n        /* \"#utility.yul\":4982:4984   */\n      0x11\n        /* \"#utility.yul\":4973:4985   */\n      dup2\n      add\n        /* \"contracts/FoodAppFactory.sol\":4319:4365  managers[foodAppContract][\"RestaurantManager\"] */\n      dup3\n      swap1\n      mstore\n      dup3\n      mload\n      swap1\n      dup2\n      swap1\n      sub\n      0x31\n      add\n      dup2\n      keccak256\n      sload\n        /* \"contracts/FoodAppFactory.sol\":4409:4434  managers[foodAppContract] */\n      swap7\n      swap1\n      swap6\n      mstore\n      swap3\n      swap1\n      swap2\n      mstore\n      shl(0xa9, 0x26b2b73aa6b0b730b3b2b9)\n        /* \"#utility.yul\":4658:4684   */\n      dup4\n      mstore\n        /* \"#utility.yul\":4709:4711   */\n      0x0b\n        /* \"#utility.yul\":4700:4712   */\n      dup4\n      add\n        /* \"contracts/FoodAppFactory.sol\":4409:4449  managers[foodAppContract][\"MenuManager\"] */\n      swap2\n      swap1\n      swap2\n      mstore\n      mload\n      swap1\n      dup2\n      swap1\n      sub\n      0x2b\n      add\n      swap1\n      keccak256\n      sload\n        /* \"contracts/FoodAppFactory.sol\":4319:4365  managers[foodAppContract][\"RestaurantManager\"] */\n      swap1\n      dup3\n      and\n      swap2\n        /* \"contracts/FoodAppFactory.sol\":4409:4449  managers[foodAppContract][\"MenuManager\"] */\n      and\n        /* \"contracts/FoodAppFactory.sol\":4319:4365  managers[foodAppContract][\"RestaurantManager\"] */\n      dup2\n        /* \"contracts/FoodAppFactory.sol\":4464:4573  if (restaurantManagerAddress == address(0)) revert FoodAppFactory__DependencyNotDeployed(\"RestaurantManager\") */\n      tag_101\n      jumpi\n        /* \"contracts/FoodAppFactory.sol\":4515:4573  FoodAppFactory__DependencyNotDeployed(\"RestaurantManager\") */\n      mload(0x40)\n      shl(0xe4, 0x0adc4dc7)\n      dup2\n      mstore\n        /* \"#utility.yul\":5538:5540   */\n      0x20\n        /* \"contracts/FoodAppFactory.sol\":4515:4573  FoodAppFactory__DependencyNotDeployed(\"RestaurantManager\") */\n      0x04\n      dup3\n      add\n        /* \"#utility.yul\":5520:5541   */\n      mstore\n        /* \"#utility.yul\":5577:5579   */\n      0x11\n        /* \"#utility.yul\":5557:5575   */\n      0x24\n      dup3\n      add\n        /* \"#utility.yul\":5550:5580   */\n      mstore\n      shl(0x79, 0x2932b9ba30bab930b73a26b0b730b3b2b9)\n        /* \"#utility.yul\":5596:5614   */\n      0x44\n      dup3\n      add\n        /* \"#utility.yul\":5589:5636   */\n      mstore\n        /* \"#utility.yul\":5653:5671   */\n      0x64\n      add\n        /* \"contracts/FoodAppFactory.sol\":4515:4573  FoodAppFactory__DependencyNotDeployed(\"RestaurantManager\") */\n      tag_87\n        /* \"#utility.yul\":5336:5677   */\n      jump\n        /* \"contracts/FoodAppFactory.sol\":4464:4573  if (restaurantManagerAddress == address(0)) revert FoodAppFactory__DependencyNotDeployed(\"RestaurantManager\") */\n    tag_101:\n      sub(shl(0xa0, 0x01), 0x01)\n        /* \"contracts/FoodAppFactory.sol\":4592:4624  menuManagerAddress == address(0) */\n      dup2\n      and\n        /* \"contracts/FoodAppFactory.sol\":4588:4685  if (menuManagerAddress == address(0)) revert FoodAppFactory__DependencyNotDeployed(\"MenuManager\") */\n      tag_89\n      jumpi\n        /* \"contracts/FoodAppFactory.sol\":4633:4685  FoodAppFactory__DependencyNotDeployed(\"MenuManager\") */\n      mload(0x40)\n      shl(0xe4, 0x0adc4dc7)\n      dup2\n      mstore\n        /* \"#utility.yul\":5198:5200   */\n      0x20\n        /* \"contracts/FoodAppFactory.sol\":4633:4685  FoodAppFactory__DependencyNotDeployed(\"MenuManager\") */\n      0x04\n      dup3\n      add\n        /* \"#utility.yul\":5180:5201   */\n      mstore\n        /* \"#utility.yul\":5237:5239   */\n      0x0b\n        /* \"#utility.yul\":5217:5235   */\n      0x24\n      dup3\n      add\n        /* \"#utility.yul\":5210:5240   */\n      mstore\n      shl(0xa9, 0x26b2b73aa6b0b730b3b2b9)\n        /* \"#utility.yul\":5256:5274   */\n      0x44\n      dup3\n      add\n        /* \"#utility.yul\":5249:5290   */\n      mstore\n        /* \"#utility.yul\":5307:5325   */\n      0x64\n      add\n        /* \"contracts/FoodAppFactory.sol\":4633:4685  FoodAppFactory__DependencyNotDeployed(\"MenuManager\") */\n      tag_87\n        /* \"#utility.yul\":4996:5331   */\n      jump\n        /* \"contracts/FoodAppFactory.sol\":4225:5080  if (typeHash == keccak256(\"ReviewManager\")) {... */\n    tag_98:\n        /* \"contracts/FoodAppFactory.sol\":4860:4898  abi.encodePacked(\"UserProfileManager\") */\n      mload(0x40)\n      shl(0x71, 0x2ab9b2b9283937b334b632a6b0b730b3b2b9)\n      0x20\n      dup3\n      add\n        /* \"#utility.yul\":6384:6417   */\n      mstore\n        /* \"#utility.yul\":6433:6445   */\n      0x32\n      add\n        /* \"contracts/FoodAppFactory.sol\":4860:4898  abi.encodePacked(\"UserProfileManager\") */\n      mload(0x40)\n      0x20\n      dup2\n      dup4\n      sub\n      sub\n      dup2\n      mstore\n      swap1\n      0x40\n      mstore\n        /* \"contracts/FoodAppFactory.sol\":4850:4899  keccak256(abi.encodePacked(\"UserProfileManager\")) */\n      dup1\n      mload\n      swap1\n      0x20\n      add\n      keccak256\n        /* \"contracts/FoodAppFactory.sol\":4838:4846  typeHash */\n      dup5\n        /* \"contracts/FoodAppFactory.sol\":4838:4899  typeHash == keccak256(abi.encodePacked(\"UserProfileManager\")) */\n      sub\n        /* \"contracts/FoodAppFactory.sol\":4834:5080  if (typeHash == keccak256(abi.encodePacked(\"UserProfileManager\"))) { ... */\n      tag_112\n      jumpi\n        /* \"contracts/FoodAppFactory.sol\":4917:4992  IUserProfileManager(managerProxy).initialize(foodAppContract, factoryOwner) */\n      mload(0x40)\n      shl(0xe0, 0x485cc955)\n      dup2\n      mstore\n      sub(shl(0xa0, 0x01), 0x01)\n        /* \"#utility.yul\":4343:4375   */\n      dup7\n      dup2\n      and\n        /* \"contracts/FoodAppFactory.sol\":4917:4992  IUserProfileManager(managerProxy).initialize(foodAppContract, factoryOwner) */\n      0x04\n      dup4\n      add\n        /* \"#utility.yul\":4325:4376   */\n      mstore\n        /* \"#utility.yul\":4412:4444   */\n      dup3\n      dup2\n      and\n        /* \"#utility.yul\":4392:4410   */\n      0x24\n      dup4\n      add\n        /* \"#utility.yul\":4385:4445   */\n      mstore\n        /* \"contracts/FoodAppFactory.sol\":4917:4961  IUserProfileManager(managerProxy).initialize */\n      dup4\n      and\n      swap1\n      0x485cc955\n      swap1\n        /* \"#utility.yul\":4298:4316   */\n      0x44\n      add\n        /* \"contracts/FoodAppFactory.sol\":4917:4992  IUserProfileManager(managerProxy).initialize(foodAppContract, factoryOwner) */\n      tag_69\n        /* \"#utility.yul\":4151:4451   */\n      jump\n        /* \"contracts/FoodAppFactory.sol\":4834:5080  if (typeHash == keccak256(abi.encodePacked(\"UserProfileManager\"))) { ... */\n    tag_112:\n        /* \"contracts/FoodAppFactory.sol\":5032:5068  FoodAppFactory__UnknownManagerType() */\n      mload(0x40)\n      shl(0xe1, 0x38b87c43)\n      dup2\n      mstore\n      0x04\n      add\n      mload(0x40)\n      dup1\n      swap2\n      sub\n      swap1\n      revert\n        /* \"contracts/FoodAppFactory.sol\":4834:5080  if (typeHash == keccak256(abi.encodePacked(\"UserProfileManager\"))) { ... */\n    tag_117:\n      sub(shl(0xa0, 0x01), 0x01)\n        /* \"contracts/FoodAppFactory.sol\":5092:5117  managers[foodAppContract] */\n      dup6\n      and\n      0x00\n      swap1\n      dup2\n      mstore\n        /* \"contracts/FoodAppFactory.sol\":5092:5100  managers */\n      0x02\n        /* \"contracts/FoodAppFactory.sol\":5092:5117  managers[foodAppContract] */\n      0x20\n      mstore\n      0x40\n      swap1\n      dup2\n      swap1\n      keccak256\n        /* \"contracts/FoodAppFactory.sol\":5092:5130  managers[foodAppContract][managerType] */\n      swap1\n      mload\n        /* \"contracts/FoodAppFactory.sol\":5133:5145  managerProxy */\n      dup4\n      swap2\n        /* \"contracts/FoodAppFactory.sol\":5092:5117  managers[foodAppContract] */\n      swap1\n        /* \"contracts/FoodAppFactory.sol\":5092:5130  managers[foodAppContract][managerType] */\n      tag_118\n      swap1\n        /* \"contracts/FoodAppFactory.sol\":5118:5129  managerType */\n      dup12\n      swap1\n      dup12\n      swap1\n        /* \"contracts/FoodAppFactory.sol\":5092:5130  managers[foodAppContract][managerType] */\n      tag_59\n      jump\t// in\n    tag_118:\n      swap1\n      dup2\n      mstore\n      mload(0x40)\n      swap1\n      dup2\n      swap1\n      sub\n      0x20\n      add\n      dup2\n      keccak256\n        /* \"contracts/FoodAppFactory.sol\":5092:5145  managers[foodAppContract][managerType] = managerProxy */\n      dup1\n      sload\n      sub(shl(0xa0, 0x01), 0x01)\n      swap4\n      swap1\n      swap4\n      and\n      not(sub(shl(0xa0, 0x01), 0x01))\n      swap1\n      swap4\n      and\n      swap3\n      swap1\n      swap3\n      or\n      swap1\n      swap2\n      sstore\n        /* \"contracts/FoodAppFactory.sol\":5161:5220  ManagerDeployed(foodAppContract, managerType, managerProxy) */\n      tag_119\n      swap1\n        /* \"contracts/FoodAppFactory.sol\":5194:5205  managerType */\n      dup10\n      swap1\n      dup10\n      swap1\n        /* \"contracts/FoodAppFactory.sol\":5161:5220  ManagerDeployed(foodAppContract, managerType, managerProxy) */\n      tag_59\n      jump\t// in\n    tag_119:\n      mload(0x40)\n      swap1\n      dup2\n      swap1\n      sub\n      dup2\n      keccak256\n      sub(shl(0xa0, 0x01), 0x01)\n        /* \"#utility.yul\":363:395   */\n      dup5\n      dup2\n      and\n        /* \"#utility.yul\":345:396   */\n      dup4\n      mstore\n        /* \"contracts/FoodAppFactory.sol\":5161:5220  ManagerDeployed(foodAppContract, managerType, managerProxy) */\n      swap1\n      swap2\n      swap1\n      dup8\n      and\n      swap1\n      0xc5dce3b4e11c1d8d79fdcfdc67f11ff335c6e47140ec01ee655b4f18ac399075\n      swap1\n        /* \"#utility.yul\":333:335   */\n      0x20\n        /* \"#utility.yul\":318:336   */\n      add\n        /* \"contracts/FoodAppFactory.sol\":5161:5220  ManagerDeployed(foodAppContract, managerType, managerProxy) */\n      mload(0x40)\n      dup1\n      swap2\n      sub\n      swap1\n      log3\n      pop\n        /* \"contracts/FoodAppFactory.sol\":5238:5250  managerProxy */\n      swap7\n        /* \"contracts/FoodAppFactory.sol\":2565:5258  function deployManager(string calldata managerType) external returns (address) {... */\n      swap6\n      pop\n      pop\n      pop\n      pop\n      pop\n      pop\n      jump\t// out\n        /* \"contracts/FoodAppFactory.sol\":5266:5420  function getManager(address foodApp, string calldata managerType) external view returns (address) {... */\n    tag_39:\n      sub(shl(0xa0, 0x01), 0x01)\n        /* \"contracts/FoodAppFactory.sol\":5382:5399  managers[foodApp] */\n      dup4\n      and\n        /* \"contracts/FoodAppFactory.sol\":5355:5362  address */\n      0x00\n        /* \"contracts/FoodAppFactory.sol\":5382:5399  managers[foodApp] */\n      swap1\n      dup2\n      mstore\n        /* \"contracts/FoodAppFactory.sol\":5382:5390  managers */\n      0x02\n        /* \"contracts/FoodAppFactory.sol\":5382:5399  managers[foodApp] */\n      0x20\n      mstore\n      0x40\n      dup1\n      dup3\n      keccak256\n        /* \"contracts/FoodAppFactory.sol\":5382:5412  managers[foodApp][managerType] */\n      swap1\n      mload\n      tag_122\n      swap1\n        /* \"contracts/FoodAppFactory.sol\":5400:5411  managerType */\n      dup6\n      swap1\n      dup6\n      swap1\n        /* \"contracts/FoodAppFactory.sol\":5382:5412  managers[foodApp][managerType] */\n      tag_59\n      jump\t// in\n    tag_122:\n      swap1\n      dup2\n      mstore\n      mload(0x40)\n      swap1\n      dup2\n      swap1\n      sub\n      0x20\n      add\n      swap1\n      keccak256\n      sload\n      sub(shl(0xa0, 0x01), 0x01)\n      and\n      swap1\n      pop\n        /* \"contracts/FoodAppFactory.sol\":5266:5420  function getManager(address foodApp, string calldata managerType) external view returns (address) {... */\n      swap4\n      swap3\n      pop\n      pop\n      pop\n      jump\t// out\n        /* \"contracts/FoodAppFactory.sol\":313:756  function deployMinimalProxy(address implementation) internal returns (address proxy) {... */\n    tag_67:\n        /* \"contracts/FoodAppFactory.sol\":429:595  abi.encodePacked(... */\n      mload(0x40)\n      shl(0x60, 0x3d602d80600a3d3981f3363d3d373d3d3d363d73)\n      0x20\n      dup3\n      add\n        /* \"#utility.yul\":6787:6851   */\n      mstore\n      not(0xffffffffffffffffffffffff)\n        /* \"#utility.yul\":6803:6805   */\n      0x60\n        /* \"#utility.yul\":6885:6900   */\n      dup4\n      swap1\n      shl\n        /* \"#utility.yul\":6881:6934   */\n      and\n        /* \"#utility.yul\":6867:6879   */\n      0x34\n      dup3\n      add\n        /* \"#utility.yul\":6860:6935   */\n      mstore\n      shl(0x88, 0x5af43d82803e903d91602b57fd5bf3)\n        /* \"#utility.yul\":6951:6963   */\n      0x48\n      dup3\n      add\n        /* \"#utility.yul\":6944:7008   */\n      mstore\n        /* \"contracts/FoodAppFactory.sol\":383:396  address proxy */\n      0x00\n      swap1\n      dup2\n      swap1\n        /* \"#utility.yul\":7024:7036   */\n      0x57\n      add\n        /* \"contracts/FoodAppFactory.sol\":429:595  abi.encodePacked(... */\n      mload(0x40)\n      0x20\n      dup2\n      dup4\n      sub\n      sub\n      dup2\n      mstore\n      swap1\n      0x40\n      mstore\n        /* \"contracts/FoodAppFactory.sol\":409:595  bytes memory code = abi.encodePacked(... */\n      swap1\n      pop\n        /* \"contracts/FoodAppFactory.sol\":672:676  code */\n      dup1\n        /* \"contracts/FoodAppFactory.sol\":666:677  mload(code) */\n      mload\n        /* \"contracts/FoodAppFactory.sol\":659:663  0x20 */\n      0x20\n        /* \"contracts/FoodAppFactory.sol\":653:657  code */\n      dup3\n        /* \"contracts/FoodAppFactory.sol\":649:664  add(code, 0x20) */\n      add\n        /* \"contracts/FoodAppFactory.sol\":646:647  0 */\n      0x00\n        /* \"contracts/FoodAppFactory.sol\":639:678  create(0, add(code, 0x20), mload(code)) */\n      create\n        /* \"contracts/FoodAppFactory.sol\":630:678  proxy := create(0, add(code, 0x20), mload(code)) */\n      swap2\n      pop\n      sub(shl(0xa0, 0x01), 0x01)\n        /* \"contracts/FoodAppFactory.sol\":707:726  proxy != address(0) */\n      dup3\n      and\n        /* \"contracts/FoodAppFactory.sol\":699:748  require(proxy != address(0), \"Deployment failed\") */\n      tag_126\n      jumpi\n      mload(0x40)\n      shl(0xe5, 0x461bcd)\n      dup2\n      mstore\n        /* \"#utility.yul\":7249:7251   */\n      0x20\n        /* \"contracts/FoodAppFactory.sol\":699:748  require(proxy != address(0), \"Deployment failed\") */\n      0x04\n      dup3\n      add\n        /* \"#utility.yul\":7231:7252   */\n      mstore\n        /* \"#utility.yul\":7288:7290   */\n      0x11\n        /* \"#utility.yul\":7268:7286   */\n      0x24\n      dup3\n      add\n        /* \"#utility.yul\":7261:7291   */\n      mstore\n      shl(0x7a, 0x11195c1b1bde5b595b9d0819985a5b1959)\n        /* \"#utility.yul\":7307:7325   */\n      0x44\n      dup3\n      add\n        /* \"#utility.yul\":7300:7347   */\n      mstore\n        /* \"#utility.yul\":7364:7382   */\n      0x64\n      add\n        /* \"contracts/FoodAppFactory.sol\":699:748  require(proxy != address(0), \"Deployment failed\") */\n      tag_87\n        /* \"#utility.yul\":7047:7388   */\n      jump\n        /* \"contracts/FoodAppFactory.sol\":699:748  require(proxy != address(0), \"Deployment failed\") */\n    tag_126:\n        /* \"contracts/FoodAppFactory.sol\":398:756  {... */\n      pop\n        /* \"contracts/FoodAppFactory.sol\":313:756  function deployMinimalProxy(address implementation) internal returns (address proxy) {... */\n      swap2\n      swap1\n      pop\n      jump\t// out\n        /* \"#utility.yul\":14:194   */\n    tag_14:\n        /* \"#utility.yul\":73:79   */\n      0x00\n        /* \"#utility.yul\":126:128   */\n      0x20\n        /* \"#utility.yul\":114:123   */\n      dup3\n        /* \"#utility.yul\":105:112   */\n      dup5\n        /* \"#utility.yul\":101:124   */\n      sub\n        /* \"#utility.yul\":97:129   */\n      slt\n        /* \"#utility.yul\":94:146   */\n      iszero\n      tag_134\n      jumpi\n        /* \"#utility.yul\":142:143   */\n      0x00\n        /* \"#utility.yul\":139:140   */\n      0x00\n        /* \"#utility.yul\":132:144   */\n      revert\n        /* \"#utility.yul\":94:146   */\n    tag_134:\n      pop\n        /* \"#utility.yul\":165:188   */\n      calldataload\n      swap2\n        /* \"#utility.yul\":14:194   */\n      swap1\n      pop\n      jump\t// out\n        /* \"#utility.yul\":407:580   */\n    tag_129:\n        /* \"#utility.yul\":475:495   */\n      dup1\n      calldataload\n      sub(shl(0xa0, 0x01), 0x01)\n        /* \"#utility.yul\":524:555   */\n      dup2\n      and\n        /* \"#utility.yul\":514:556   */\n      dup2\n      eq\n        /* \"#utility.yul\":504:574   */\n      tag_137\n      jumpi\n        /* \"#utility.yul\":570:571   */\n      0x00\n        /* \"#utility.yul\":567:568   */\n      0x00\n        /* \"#utility.yul\":560:572   */\n      revert\n        /* \"#utility.yul\":504:574   */\n    tag_137:\n        /* \"#utility.yul\":407:580   */\n      swap2\n      swap1\n      pop\n      jump\t// out\n        /* \"#utility.yul\":585:771   */\n    tag_20:\n        /* \"#utility.yul\":644:650   */\n      0x00\n        /* \"#utility.yul\":697:699   */\n      0x20\n        /* \"#utility.yul\":685:694   */\n      dup3\n        /* \"#utility.yul\":676:683   */\n      dup5\n        /* \"#utility.yul\":672:695   */\n      sub\n        /* \"#utility.yul\":668:700   */\n      slt\n        /* \"#utility.yul\":665:717   */\n      iszero\n      tag_139\n      jumpi\n        /* \"#utility.yul\":713:714   */\n      0x00\n        /* \"#utility.yul\":710:711   */\n      0x00\n        /* \"#utility.yul\":703:715   */\n      revert\n        /* \"#utility.yul\":665:717   */\n    tag_139:\n        /* \"#utility.yul\":736:765   */\n      tag_140\n        /* \"#utility.yul\":755:764   */\n      dup3\n        /* \"#utility.yul\":736:765   */\n      tag_129\n      jump\t// in\n    tag_140:\n        /* \"#utility.yul\":726:765   */\n      swap4\n        /* \"#utility.yul\":585:771   */\n      swap3\n      pop\n      pop\n      pop\n      jump\t// out\n        /* \"#utility.yul\":776:1124   */\n    tag_130:\n        /* \"#utility.yul\":828:836   */\n      0x00\n        /* \"#utility.yul\":838:844   */\n      0x00\n        /* \"#utility.yul\":892:895   */\n      dup4\n        /* \"#utility.yul\":885:889   */\n      0x1f\n        /* \"#utility.yul\":877:883   */\n      dup5\n        /* \"#utility.yul\":873:890   */\n      add\n        /* \"#utility.yul\":869:896   */\n      slt\n        /* \"#utility.yul\":859:914   */\n      tag_142\n      jumpi\n        /* \"#utility.yul\":910:911   */\n      0x00\n        /* \"#utility.yul\":907:908   */\n      0x00\n        /* \"#utility.yul\":900:912   */\n      revert\n        /* \"#utility.yul\":859:914   */\n    tag_142:\n      pop\n        /* \"#utility.yul\":933:953   */\n      dup2\n      calldataload\n        /* \"#utility.yul\":976:994   */\n      0xffffffffffffffff\n        /* \"#utility.yul\":965:995   */\n      dup2\n      gt\n        /* \"#utility.yul\":962:1012   */\n      iszero\n      tag_143\n      jumpi\n        /* \"#utility.yul\":1008:1009   */\n      0x00\n        /* \"#utility.yul\":1005:1006   */\n      0x00\n        /* \"#utility.yul\":998:1010   */\n      revert\n        /* \"#utility.yul\":962:1012   */\n    tag_143:\n        /* \"#utility.yul\":1045:1049   */\n      0x20\n        /* \"#utility.yul\":1037:1043   */\n      dup4\n        /* \"#utility.yul\":1033:1050   */\n      add\n        /* \"#utility.yul\":1021:1050   */\n      swap2\n      pop\n        /* \"#utility.yul\":1097:1100   */\n      dup4\n        /* \"#utility.yul\":1090:1094   */\n      0x20\n        /* \"#utility.yul\":1081:1087   */\n      dup3\n        /* \"#utility.yul\":1073:1079   */\n      dup6\n        /* \"#utility.yul\":1069:1088   */\n      add\n        /* \"#utility.yul\":1065:1095   */\n      add\n        /* \"#utility.yul\":1062:1101   */\n      gt\n        /* \"#utility.yul\":1059:1118   */\n      iszero\n      tag_144\n      jumpi\n        /* \"#utility.yul\":1114:1115   */\n      0x00\n        /* \"#utility.yul\":1111:1112   */\n      0x00\n        /* \"#utility.yul\":1104:1116   */\n      revert\n        /* \"#utility.yul\":1059:1118   */\n    tag_144:\n        /* \"#utility.yul\":776:1124   */\n      swap3\n      pop\n      swap3\n      swap1\n      pop\n      jump\t// out\n        /* \"#utility.yul\":1129:1614   */\n    tag_24:\n        /* \"#utility.yul\":1209:1215   */\n      0x00\n        /* \"#utility.yul\":1217:1223   */\n      0x00\n        /* \"#utility.yul\":1225:1231   */\n      0x00\n        /* \"#utility.yul\":1278:1280   */\n      0x40\n        /* \"#utility.yul\":1266:1275   */\n      dup5\n        /* \"#utility.yul\":1257:1264   */\n      dup7\n        /* \"#utility.yul\":1253:1276   */\n      sub\n        /* \"#utility.yul\":1249:1281   */\n      slt\n        /* \"#utility.yul\":1246:1298   */\n      iszero\n      tag_146\n      jumpi\n        /* \"#utility.yul\":1294:1295   */\n      0x00\n        /* \"#utility.yul\":1291:1292   */\n      0x00\n        /* \"#utility.yul\":1284:1296   */\n      revert\n        /* \"#utility.yul\":1246:1298   */\n    tag_146:\n        /* \"#utility.yul\":1334:1343   */\n      dup4\n        /* \"#utility.yul\":1321:1344   */\n      calldataload\n        /* \"#utility.yul\":1367:1385   */\n      0xffffffffffffffff\n        /* \"#utility.yul\":1359:1365   */\n      dup2\n        /* \"#utility.yul\":1356:1386   */\n      gt\n        /* \"#utility.yul\":1353:1403   */\n      iszero\n      tag_147\n      jumpi\n        /* \"#utility.yul\":1399:1400   */\n      0x00\n        /* \"#utility.yul\":1396:1397   */\n      0x00\n        /* \"#utility.yul\":1389:1401   */\n      revert\n        /* \"#utility.yul\":1353:1403   */\n    tag_147:\n        /* \"#utility.yul\":1438:1497   */\n      tag_148\n        /* \"#utility.yul\":1489:1496   */\n      dup7\n        /* \"#utility.yul\":1480:1486   */\n      dup3\n        /* \"#utility.yul\":1469:1478   */\n      dup8\n        /* \"#utility.yul\":1465:1487   */\n      add\n        /* \"#utility.yul\":1438:1497   */\n      tag_130\n      jump\t// in\n    tag_148:\n        /* \"#utility.yul\":1516:1524   */\n      swap1\n      swap5\n      pop\n        /* \"#utility.yul\":1412:1497   */\n      swap3\n      pop\n        /* \"#utility.yul\":1570:1608   */\n      tag_149\n      swap1\n      pop\n        /* \"#utility.yul\":1604:1606   */\n      0x20\n        /* \"#utility.yul\":1589:1607   */\n      dup6\n      add\n        /* \"#utility.yul\":1570:1608   */\n      tag_129\n      jump\t// in\n    tag_149:\n        /* \"#utility.yul\":1560:1608   */\n      swap1\n      pop\n        /* \"#utility.yul\":1129:1614   */\n      swap3\n      pop\n      swap3\n      pop\n      swap3\n      jump\t// out\n        /* \"#utility.yul\":1619:1746   */\n    tag_131:\n        /* \"#utility.yul\":1680:1690   */\n      0x4e487b71\n        /* \"#utility.yul\":1675:1678   */\n      0xe0\n        /* \"#utility.yul\":1671:1691   */\n      shl\n        /* \"#utility.yul\":1668:1669   */\n      0x00\n        /* \"#utility.yul\":1661:1692   */\n      mstore\n        /* \"#utility.yul\":1711:1715   */\n      0x41\n        /* \"#utility.yul\":1708:1709   */\n      0x04\n        /* \"#utility.yul\":1701:1716   */\n      mstore\n        /* \"#utility.yul\":1735:1739   */\n      0x24\n        /* \"#utility.yul\":1732:1733   */\n      0x00\n        /* \"#utility.yul\":1725:1740   */\n      revert\n        /* \"#utility.yul\":1751:2770   */\n    tag_28:\n        /* \"#utility.yul\":1829:1835   */\n      0x00\n        /* \"#utility.yul\":1837:1843   */\n      0x00\n        /* \"#utility.yul\":1890:1892   */\n      0x40\n        /* \"#utility.yul\":1878:1887   */\n      dup4\n        /* \"#utility.yul\":1869:1876   */\n      dup6\n        /* \"#utility.yul\":1865:1888   */\n      sub\n        /* \"#utility.yul\":1861:1893   */\n      slt\n        /* \"#utility.yul\":1858:1910   */\n      iszero\n      tag_152\n      jumpi\n        /* \"#utility.yul\":1906:1907   */\n      0x00\n        /* \"#utility.yul\":1903:1904   */\n      0x00\n        /* \"#utility.yul\":1896:1908   */\n      revert\n        /* \"#utility.yul\":1858:1910   */\n    tag_152:\n        /* \"#utility.yul\":1929:1958   */\n      tag_153\n        /* \"#utility.yul\":1948:1957   */\n      dup4\n        /* \"#utility.yul\":1929:1958   */\n      tag_129\n      jump\t// in\n    tag_153:\n        /* \"#utility.yul\":1919:1958   */\n      swap2\n      pop\n        /* \"#utility.yul\":2009:2011   */\n      0x20\n        /* \"#utility.yul\":1998:2007   */\n      dup4\n        /* \"#utility.yul\":1994:2012   */\n      add\n        /* \"#utility.yul\":1981:2013   */\n      calldataload\n        /* \"#utility.yul\":2036:2054   */\n      0xffffffffffffffff\n        /* \"#utility.yul\":2028:2034   */\n      dup2\n        /* \"#utility.yul\":2025:2055   */\n      gt\n        /* \"#utility.yul\":2022:2072   */\n      iszero\n      tag_154\n      jumpi\n        /* \"#utility.yul\":2068:2069   */\n      0x00\n        /* \"#utility.yul\":2065:2066   */\n      0x00\n        /* \"#utility.yul\":2058:2070   */\n      revert\n        /* \"#utility.yul\":2022:2072   */\n    tag_154:\n        /* \"#utility.yul\":2091:2113   */\n      dup4\n      add\n        /* \"#utility.yul\":2144:2148   */\n      0x1f\n        /* \"#utility.yul\":2136:2149   */\n      dup2\n      add\n        /* \"#utility.yul\":2132:2159   */\n      dup6\n      sgt\n        /* \"#utility.yul\":2122:2177   */\n      tag_155\n      jumpi\n        /* \"#utility.yul\":2173:2174   */\n      0x00\n        /* \"#utility.yul\":2170:2171   */\n      0x00\n        /* \"#utility.yul\":2163:2175   */\n      revert\n        /* \"#utility.yul\":2122:2177   */\n    tag_155:\n        /* \"#utility.yul\":2213:2215   */\n      dup1\n        /* \"#utility.yul\":2200:2216   */\n      calldataload\n        /* \"#utility.yul\":2239:2257   */\n      0xffffffffffffffff\n        /* \"#utility.yul\":2231:2237   */\n      dup2\n        /* \"#utility.yul\":2228:2258   */\n      gt\n        /* \"#utility.yul\":2225:2281   */\n      iszero\n      tag_157\n      jumpi\n        /* \"#utility.yul\":2261:2279   */\n      tag_157\n      tag_131\n      jump\t// in\n    tag_157:\n        /* \"#utility.yul\":2310:2312   */\n      0x40\n        /* \"#utility.yul\":2304:2313   */\n      mload\n        /* \"#utility.yul\":2402:2404   */\n      0x1f\n        /* \"#utility.yul\":2364:2381   */\n      dup3\n      add\n      not(0x1f)\n        /* \"#utility.yul\":2360:2391   */\n      swap1\n      dup2\n      and\n        /* \"#utility.yul\":2393:2395   */\n      0x3f\n        /* \"#utility.yul\":2356:2396   */\n      add\n        /* \"#utility.yul\":2352:2406   */\n      and\n        /* \"#utility.yul\":2340:2407   */\n      dup2\n      add\n        /* \"#utility.yul\":2437:2455   */\n      0xffffffffffffffff\n        /* \"#utility.yul\":2422:2456   */\n      dup2\n      gt\n        /* \"#utility.yul\":2458:2480   */\n      dup3\n      dup3\n      lt\n        /* \"#utility.yul\":2419:2481   */\n      or\n        /* \"#utility.yul\":2416:2504   */\n      iszero\n      tag_159\n      jumpi\n        /* \"#utility.yul\":2484:2502   */\n      tag_159\n      tag_131\n      jump\t// in\n    tag_159:\n        /* \"#utility.yul\":2520:2522   */\n      0x40\n        /* \"#utility.yul\":2513:2535   */\n      mstore\n        /* \"#utility.yul\":2544:2566   */\n      dup2\n      dup2\n      mstore\n        /* \"#utility.yul\":2585:2600   */\n      dup3\n      dup3\n      add\n        /* \"#utility.yul\":2602:2604   */\n      0x20\n        /* \"#utility.yul\":2581:2605   */\n      add\n        /* \"#utility.yul\":2578:2615   */\n      dup8\n      lt\n        /* \"#utility.yul\":2575:2632   */\n      iszero\n      tag_160\n      jumpi\n        /* \"#utility.yul\":2628:2629   */\n      0x00\n        /* \"#utility.yul\":2625:2626   */\n      0x00\n        /* \"#utility.yul\":2618:2630   */\n      revert\n        /* \"#utility.yul\":2575:2632   */\n    tag_160:\n        /* \"#utility.yul\":2684:2690   */\n      dup2\n        /* \"#utility.yul\":2679:2681   */\n      0x20\n        /* \"#utility.yul\":2675:2677   */\n      dup5\n        /* \"#utility.yul\":2671:2682   */\n      add\n        /* \"#utility.yul\":2666:2668   */\n      0x20\n        /* \"#utility.yul\":2658:2664   */\n      dup4\n        /* \"#utility.yul\":2654:2669   */\n      add\n        /* \"#utility.yul\":2641:2691   */\n      calldatacopy\n        /* \"#utility.yul\":2737:2738   */\n      0x00\n        /* \"#utility.yul\":2732:2734   */\n      0x20\n        /* \"#utility.yul\":2723:2729   */\n      dup4\n        /* \"#utility.yul\":2715:2721   */\n      dup4\n        /* \"#utility.yul\":2711:2730   */\n      add\n        /* \"#utility.yul\":2707:2735   */\n      add\n        /* \"#utility.yul\":2700:2739   */\n      mstore\n        /* \"#utility.yul\":2758:2764   */\n      dup1\n        /* \"#utility.yul\":2748:2764   */\n      swap4\n      pop\n      pop\n      pop\n      pop\n        /* \"#utility.yul\":1751:2770   */\n      swap3\n      pop\n      swap3\n      swap1\n      pop\n      jump\t// out\n        /* \"#utility.yul\":2775:3186   */\n    tag_33:\n        /* \"#utility.yul\":2846:2852   */\n      0x00\n        /* \"#utility.yul\":2854:2860   */\n      0x00\n        /* \"#utility.yul\":2907:2909   */\n      0x20\n        /* \"#utility.yul\":2895:2904   */\n      dup4\n        /* \"#utility.yul\":2886:2893   */\n      dup6\n        /* \"#utility.yul\":2882:2905   */\n      sub\n        /* \"#utility.yul\":2878:2910   */\n      slt\n        /* \"#utility.yul\":2875:2927   */\n      iszero\n      tag_162\n      jumpi\n        /* \"#utility.yul\":2923:2924   */\n      0x00\n        /* \"#utility.yul\":2920:2921   */\n      0x00\n        /* \"#utility.yul\":2913:2925   */\n      revert\n        /* \"#utility.yul\":2875:2927   */\n    tag_162:\n        /* \"#utility.yul\":2963:2972   */\n      dup3\n        /* \"#utility.yul\":2950:2973   */\n      calldataload\n        /* \"#utility.yul\":2996:3014   */\n      0xffffffffffffffff\n        /* \"#utility.yul\":2988:2994   */\n      dup2\n        /* \"#utility.yul\":2985:3015   */\n      gt\n        /* \"#utility.yul\":2982:3032   */\n      iszero\n      tag_163\n      jumpi\n        /* \"#utility.yul\":3028:3029   */\n      0x00\n        /* \"#utility.yul\":3025:3026   */\n      0x00\n        /* \"#utility.yul\":3018:3030   */\n      revert\n        /* \"#utility.yul\":2982:3032   */\n    tag_163:\n        /* \"#utility.yul\":3067:3126   */\n      tag_164\n        /* \"#utility.yul\":3118:3125   */\n      dup6\n        /* \"#utility.yul\":3109:3115   */\n      dup3\n        /* \"#utility.yul\":3098:3107   */\n      dup7\n        /* \"#utility.yul\":3094:3116   */\n      add\n        /* \"#utility.yul\":3067:3126   */\n      tag_130\n      jump\t// in\n    tag_164:\n        /* \"#utility.yul\":3145:3153   */\n      swap1\n      swap7\n        /* \"#utility.yul\":3041:3126   */\n      swap1\n      swap6\n      pop\n        /* \"#utility.yul\":2775:3186   */\n      swap4\n      pop\n      pop\n      pop\n      pop\n      jump\t// out\n        /* \"#utility.yul\":3191:3676   */\n    tag_38:\n        /* \"#utility.yul\":3271:3277   */\n      0x00\n        /* \"#utility.yul\":3279:3285   */\n      0x00\n        /* \"#utility.yul\":3287:3293   */\n      0x00\n        /* \"#utility.yul\":3340:3342   */\n      0x40\n        /* \"#utility.yul\":3328:3337   */\n      dup5\n        /* \"#utility.yul\":3319:3326   */\n      dup7\n        /* \"#utility.yul\":3315:3338   */\n      sub\n        /* \"#utility.yul\":3311:3343   */\n      slt\n        /* \"#utility.yul\":3308:3360   */\n      iszero\n      tag_166\n      jumpi\n        /* \"#utility.yul\":3356:3357   */\n      0x00\n        /* \"#utility.yul\":3353:3354   */\n      0x00\n        /* \"#utility.yul\":3346:3358   */\n      revert\n        /* \"#utility.yul\":3308:3360   */\n    tag_166:\n        /* \"#utility.yul\":3379:3408   */\n      tag_167\n        /* \"#utility.yul\":3398:3407   */\n      dup5\n        /* \"#utility.yul\":3379:3408   */\n      tag_129\n      jump\t// in\n    tag_167:\n        /* \"#utility.yul\":3369:3408   */\n      swap3\n      pop\n        /* \"#utility.yul\":3459:3461   */\n      0x20\n        /* \"#utility.yul\":3448:3457   */\n      dup5\n        /* \"#utility.yul\":3444:3462   */\n      add\n        /* \"#utility.yul\":3431:3463   */\n      calldataload\n        /* \"#utility.yul\":3486:3504   */\n      0xffffffffffffffff\n        /* \"#utility.yul\":3478:3484   */\n      dup2\n        /* \"#utility.yul\":3475:3505   */\n      gt\n        /* \"#utility.yul\":3472:3522   */\n      iszero\n      tag_168\n      jumpi\n        /* \"#utility.yul\":3518:3519   */\n      0x00\n        /* \"#utility.yul\":3515:3516   */\n      0x00\n        /* \"#utility.yul\":3508:3520   */\n      revert\n        /* \"#utility.yul\":3472:3522   */\n    tag_168:\n        /* \"#utility.yul\":3557:3616   */\n      tag_169\n        /* \"#utility.yul\":3608:3615   */\n      dup7\n        /* \"#utility.yul\":3599:3605   */\n      dup3\n        /* \"#utility.yul\":3588:3597   */\n      dup8\n        /* \"#utility.yul\":3584:3606   */\n      add\n        /* \"#utility.yul\":3557:3616   */\n      tag_130\n      jump\t// in\n    tag_169:\n        /* \"#utility.yul\":3191:3676   */\n      swap5\n      swap8\n        /* \"#utility.yul\":3635:3643   */\n      swap1\n      swap7\n      pop\n        /* \"#utility.yul\":3531:3616   */\n      swap4\n      swap5\n      pop\n      pop\n      pop\n      pop\n        /* \"#utility.yul\":3191:3676   */\n      jump\t// out\n        /* \"#utility.yul\":3873:4146   */\n    tag_59:\n        /* \"#utility.yul\":4058:4064   */\n      dup2\n        /* \"#utility.yul\":4050:4056   */\n      dup4\n        /* \"#utility.yul\":4045:4048   */\n      dup3\n        /* \"#utility.yul\":4032:4065   */\n      calldatacopy\n        /* \"#utility.yul\":4014:4017   */\n      0x00\n        /* \"#utility.yul\":4084:4100   */\n      swap2\n      add\n        /* \"#utility.yul\":4109:4122   */\n      swap1\n      dup2\n      mstore\n        /* \"#utility.yul\":4084:4100   */\n      swap2\n        /* \"#utility.yul\":3873:4146   */\n      swap1\n      pop\n      jump\t// out\n\n    auxdata: 0xa26469706673582212208098c72e025f2ccdb3e3a05635ca4918fa8b2e4dfd7ec9171ff11b3eae8873ee64736f6c634300081e0033\n}\n",
				"bytecode": {
					"linkReferences": {},
					"object": "6080604052348015600e575f5ffd5b505f80546001600160a01b03191633179055610ce08061002d5f395ff3fe608060405234801561000f575f5ffd5b5060043610610085575f3560e01c8063a8511f5a11610058578063a8511f5a1461013a578063dee893c21461014d578063e03317e214610160578063f851a44014610192575f5ffd5b806302cfeaca146100895780630471219c146100ce57806306419fe5146100e3578063698fb38c146100f6575b5f5ffd5b6100b1610097366004610a4e565b60016020525f90815260409020546001600160a01b031681565b6040516001600160a01b0390911681526020015b60405180910390f35b6100e16100dc366004610a80565b6101a4565b005b6100e16100f1366004610ae5565b610279565b6100b1610104366004610b49565b600260209081525f928352604090922081518083018401805192815290840192909301919091209152546001600160a01b031681565b6100b1610148366004610c0d565b61034e565b6100b161015b366004610c4c565b610942565b61018261016e366004610a80565b60036020525f908152604090205460ff1681565b60405190151581526020016100c5565b5f546100b1906001600160a01b031681565b5f546001600160a01b031633146101ce57604051632333856760e11b815260040160405180910390fd5b6001600160a01b0381166101f55760405163b92c660560e01b815260040160405180910390fd5b6001600160a01b0381165f9081526003602052604090205460ff161561022e576040516305e42d8160e51b815260040160405180910390fd5b6001600160a01b0381165f81815260036020526040808220805460ff19166001179055517f40acd6a6e0976dabb14ff6b8b6ec06632812f9090d84b768d5c2a7bcda8539be9190a250565b5f546001600160a01b031633146102a357604051632333856760e11b815260040160405180910390fd5b6001600160a01b0381166102ca5760405163b92c660560e01b815260040160405180910390fd5b5f83836040516020016102de929190610c9b565b60408051808303601f1901815282825280516020918201205f818152600190925291812080546001600160a01b0319166001600160a01b038716908117909155919350909183917f4b4ee1a8c5ce94bc0300190d8e5d93808c513dbac15879dc51c1b5a3f73ae6a891a350505050565b335f8181526003602052604081205490919060ff166103805760405163577d4b8560e01b815260040160405180910390fd5b5f8484604051602001610394929190610c9b565b60408051601f1981840301815282825280516020918201206001600160a01b0386165f9081526002909252918120919350916103d39088908890610c9b565b908152604051908190036020019020546001600160a01b03161461040a576040516351a4ffef60e11b815260040160405180910390fd5b5f818152600160205260409020546001600160a01b03168061043f5760405163820ee9e360e01b815260040160405180910390fd5b5f6104498261098b565b9050307ff094f37b69fb531c65b81278199f5c0867e4e81326f9caff6417f5dc86a7ee3984016104d75760405163485cc95560e01b81526001600160a01b038681166004830152828116602483015283169063485cc955906044015b5f604051808303815f87803b1580156104bc575f5ffd5b505af11580156104ce573d5f5f3e3d5ffd5b50505050610886565b7ff1e0aeb668bac4fc558624925de4edc3dfb7e138b35fbf1274918a9e51223e5884036105345760405163485cc95560e01b81526001600160a01b038681166004830152828116602483015283169063485cc955906044016104a5565b7f2335b578f972333fd9ef2743a6722bf46f16c3f49a604e771a495dce08428edc84036106d4576001600160a01b038581165f81815260026020818152604080842081516a26b2b73aa6b0b730b3b2b960a91b8152600b8101829052825190819003602b018120549690955292909152702932b9ba30bab930b73a26b0b730b3b2b960791b83526011830191909152519081900360310190205490821691168161061457604051630adc4dc760e41b815260206004820152600b60248201526a26b2b73aa6b0b730b3b2b960a91b60448201526064015b60405180910390fd5b6001600160a01b03811661065f57604051630adc4dc760e41b81526020600482015260116024820152702932b9ba30bab930b73a26b0b730b3b2b960791b604482015260640161060b565b604051637c643b2f60e11b81526001600160a01b03888116600483015283811660248301528281166044830152848116606483015285169063f8c8765e906084015f604051808303815f87803b1580156106b7575f5ffd5b505af11580156106c9573d5f5f3e3d5ffd5b505050505050610886565b7f8bbf664581ba9b490e4c7bc54dcab50600ac9f4ea500db4ccfa4a065d91bb92e84036107fa576001600160a01b038581165f8181526002602081815260408084208151702932b9ba30bab930b73a26b0b730b3b2b960791b81526011810182905282519081900360310181205496909552929091526a26b2b73aa6b0b730b3b2b960a91b8352600b8301919091525190819003602b019020549082169116816107b557604051630adc4dc760e41b81526020600482015260116024820152702932b9ba30bab930b73a26b0b730b3b2b960791b604482015260640161060b565b6001600160a01b03811661065f57604051630adc4dc760e41b815260206004820152600b60248201526a26b2b73aa6b0b730b3b2b960a91b604482015260640161060b565b604051712ab9b2b9283937b334b632a6b0b730b3b2b960711b602082015260320160405160208183030381529060405280519060200120840361086d5760405163485cc95560e01b81526001600160a01b038681166004830152828116602483015283169063485cc955906044016104a5565b6040516338b87c4360e11b815260040160405180910390fd5b6001600160a01b0385165f908152600260205260409081902090518391906108b1908b908b90610c9b565b90815260405190819003602001812080546001600160a01b03939093166001600160a01b0319909316929092179091556108ee9089908990610c9b565b6040519081900381206001600160a01b0384811683529091908716907fc5dce3b4e11c1d8d79fdcfdc67f11ff335c6e47140ec01ee655b4f18ac3990759060200160405180910390a3509695505050505050565b6001600160a01b0383165f9081526002602052604080822090516109699085908590610c9b565b908152604051908190036020019020546001600160a01b031690509392505050565b604051733d602d80600a3d3981f3363d3d373d3d3d363d7360601b60208201526bffffffffffffffffffffffff19606083901b1660348201526e5af43d82803e903d91602b57fd5bf360881b60488201525f90819060570160405160208183030381529060405290508051602082015ff091506001600160a01b038216610a485760405162461bcd60e51b815260206004820152601160248201527011195c1b1bde5b595b9d0819985a5b1959607a1b604482015260640161060b565b50919050565b5f60208284031215610a5e575f5ffd5b5035919050565b80356001600160a01b0381168114610a7b575f5ffd5b919050565b5f60208284031215610a90575f5ffd5b610a9982610a65565b9392505050565b5f5f83601f840112610ab0575f5ffd5b50813567ffffffffffffffff811115610ac7575f5ffd5b602083019150836020828501011115610ade575f5ffd5b9250929050565b5f5f5f60408486031215610af7575f5ffd5b833567ffffffffffffffff811115610b0d575f5ffd5b610b1986828701610aa0565b9094509250610b2c905060208501610a65565b90509250925092565b634e487b7160e01b5f52604160045260245ffd5b5f5f60408385031215610b5a575f5ffd5b610b6383610a65565b9150602083013567ffffffffffffffff811115610b7e575f5ffd5b8301601f81018513610b8e575f5ffd5b803567ffffffffffffffff811115610ba857610ba8610b35565b604051601f8201601f19908116603f0116810167ffffffffffffffff81118282101715610bd757610bd7610b35565b604052818152828201602001871015610bee575f5ffd5b816020840160208301375f602083830101528093505050509250929050565b5f5f60208385031215610c1e575f5ffd5b823567ffffffffffffffff811115610c34575f5ffd5b610c4085828601610aa0565b90969095509350505050565b5f5f5f60408486031215610c5e575f5ffd5b610c6784610a65565b9250602084013567ffffffffffffffff811115610c82575f5ffd5b610c8e86828701610aa0565b9497909650939450505050565b818382375f910190815291905056fea26469706673582212208098c72e025f2ccdb3e3a05635ca4918fa8b2e4dfd7ec9171ff11b3eae8873ee64736f6c634300081e0033",
					"opcodes": "PUSH1 0x80 PUSH1 0x40 MSTORE CALLVALUE DUP1 ISZERO PUSH1 0xE JUMPI PUSH0 PUSH0 REVERT JUMPDEST POP PUSH0 DUP1 SLOAD PUSH1 0x1 PUSH1 0x1 PUSH1 0xA0 SHL SUB NOT AND CALLER OR SWAP1 SSTORE PUSH2 0xCE0 DUP1 PUSH2 0x2D PUSH0 CODECOPY PUSH0 RETURN INVALID PUSH1 0x80 PUSH1 0x40 MSTORE CALLVALUE DUP1 ISZERO PUSH2 0xF JUMPI PUSH0 PUSH0 REVERT JUMPDEST POP PUSH1 0x4 CALLDATASIZE LT PUSH2 0x85 JUMPI PUSH0 CALLDATALOAD PUSH1 0xE0 SHR DUP1 PUSH4 0xA8511F5A GT PUSH2 0x58 JUMPI DUP1 PUSH4 0xA8511F5A EQ PUSH2 0x13A JUMPI DUP1 PUSH4 0xDEE893C2 EQ PUSH2 0x14D JUMPI DUP1 PUSH4 0xE03317E2 EQ PUSH2 0x160 JUMPI DUP1 PUSH4 0xF851A440 EQ PUSH2 0x192 JUMPI PUSH0 PUSH0 REVERT JUMPDEST DUP1 PUSH4 0x2CFEACA EQ PUSH2 0x89 JUMPI DUP1 PUSH4 0x471219C EQ PUSH2 0xCE JUMPI DUP1 PUSH4 0x6419FE5 EQ PUSH2 0xE3 JUMPI DUP1 PUSH4 0x698FB38C EQ PUSH2 0xF6 JUMPI JUMPDEST PUSH0 PUSH0 REVERT JUMPDEST PUSH2 0xB1 PUSH2 0x97 CALLDATASIZE PUSH1 0x4 PUSH2 0xA4E JUMP JUMPDEST PUSH1 0x1 PUSH1 0x20 MSTORE PUSH0 SWAP1 DUP2 MSTORE PUSH1 0x40 SWAP1 KECCAK256 SLOAD PUSH1 0x1 PUSH1 0x1 PUSH1 0xA0 SHL SUB AND DUP2 JUMP JUMPDEST PUSH1 0x40 MLOAD PUSH1 0x1 PUSH1 0x1 PUSH1 0xA0 SHL SUB SWAP1 SWAP2 AND DUP2 MSTORE PUSH1 0x20 ADD JUMPDEST PUSH1 0x40 MLOAD DUP1 SWAP2 SUB SWAP1 RETURN JUMPDEST PUSH2 0xE1 PUSH2 0xDC CALLDATASIZE PUSH1 0x4 PUSH2 0xA80 JUMP JUMPDEST PUSH2 0x1A4 JUMP JUMPDEST STOP JUMPDEST PUSH2 0xE1 PUSH2 0xF1 CALLDATASIZE PUSH1 0x4 PUSH2 0xAE5 JUMP JUMPDEST PUSH2 0x279 JUMP JUMPDEST PUSH2 0xB1 PUSH2 0x104 CALLDATASIZE PUSH1 0x4 PUSH2 0xB49 JUMP JUMPDEST PUSH1 0x2 PUSH1 0x20 SWAP1 DUP2 MSTORE PUSH0 SWAP3 DUP4 MSTORE PUSH1 0x40 SWAP1 SWAP3 KECCAK256 DUP2 MLOAD DUP1 DUP4 ADD DUP5 ADD DUP1 MLOAD SWAP3 DUP2 MSTORE SWAP1 DUP5 ADD SWAP3 SWAP1 SWAP4 ADD SWAP2 SWAP1 SWAP2 KECCAK256 SWAP2 MSTORE SLOAD PUSH1 0x1 PUSH1 0x1 PUSH1 0xA0 SHL SUB AND DUP2 JUMP JUMPDEST PUSH2 0xB1 PUSH2 0x148 CALLDATASIZE PUSH1 0x4 PUSH2 0xC0D JUMP JUMPDEST PUSH2 0x34E JUMP JUMPDEST PUSH2 0xB1 PUSH2 0x15B CALLDATASIZE PUSH1 0x4 PUSH2 0xC4C JUMP JUMPDEST PUSH2 0x942 JUMP JUMPDEST PUSH2 0x182 PUSH2 0x16E CALLDATASIZE PUSH1 0x4 PUSH2 0xA80 JUMP JUMPDEST PUSH1 0x3 PUSH1 0x20 MSTORE PUSH0 SWAP1 DUP2 MSTORE PUSH1 0x40 SWAP1 KECCAK256 SLOAD PUSH1 0xFF AND DUP2 JUMP JUMPDEST PUSH1 0x40 MLOAD SWAP1 ISZERO ISZERO DUP2 MSTORE PUSH1 0x20 ADD PUSH2 0xC5 JUMP JUMPDEST PUSH0 SLOAD PUSH2 0xB1 SWAP1 PUSH1 0x1 PUSH1 0x1 PUSH1 0xA0 SHL SUB AND DUP2 JUMP JUMPDEST PUSH0 SLOAD PUSH1 0x1 PUSH1 0x1 PUSH1 0xA0 SHL SUB AND CALLER EQ PUSH2 0x1CE JUMPI PUSH1 0x40 MLOAD PUSH4 0x23338567 PUSH1 0xE1 SHL DUP2 MSTORE PUSH1 0x4 ADD PUSH1 0x40 MLOAD DUP1 SWAP2 SUB SWAP1 REVERT JUMPDEST PUSH1 0x1 PUSH1 0x1 PUSH1 0xA0 SHL SUB DUP2 AND PUSH2 0x1F5 JUMPI PUSH1 0x40 MLOAD PUSH4 0xB92C6605 PUSH1 0xE0 SHL DUP2 MSTORE PUSH1 0x4 ADD PUSH1 0x40 MLOAD DUP1 SWAP2 SUB SWAP1 REVERT JUMPDEST PUSH1 0x1 PUSH1 0x1 PUSH1 0xA0 SHL SUB DUP2 AND PUSH0 SWAP1 DUP2 MSTORE PUSH1 0x3 PUSH1 0x20 MSTORE PUSH1 0x40 SWAP1 KECCAK256 SLOAD PUSH1 0xFF AND ISZERO PUSH2 0x22E JUMPI PUSH1 0x40 MLOAD PUSH4 0x5E42D81 PUSH1 0xE5 SHL DUP2 MSTORE PUSH1 0x4 ADD PUSH1 0x40 MLOAD DUP1 SWAP2 SUB SWAP1 REVERT JUMPDEST PUSH1 0x1 PUSH1 0x1 PUSH1 0xA0 SHL SUB DUP2 AND PUSH0 DUP2 DUP2 MSTORE PUSH1 0x3 PUSH1 0x20 MSTORE PUSH1 0x40 DUP1 DUP3 KECCAK256 DUP1 SLOAD PUSH1 0xFF NOT AND PUSH1 0x1 OR SWAP1 SSTORE MLOAD PUSH32 0x40ACD6A6E0976DABB14FF6B8B6EC06632812F9090D84B768D5C2A7BCDA8539BE SWAP2 SWAP1 LOG2 POP JUMP JUMPDEST PUSH0 SLOAD PUSH1 0x1 PUSH1 0x1 PUSH1 0xA0 SHL SUB AND CALLER EQ PUSH2 0x2A3 JUMPI PUSH1 0x40 MLOAD PUSH4 0x23338567 PUSH1 0xE1 SHL DUP2 MSTORE PUSH1 0x4 ADD PUSH1 0x40 MLOAD DUP1 SWAP2 SUB SWAP1 REVERT JUMPDEST PUSH1 0x1 PUSH1 0x1 PUSH1 0xA0 SHL SUB DUP2 AND PUSH2 0x2CA JUMPI PUSH1 0x40 MLOAD PUSH4 0xB92C6605 PUSH1 0xE0 SHL DUP2 MSTORE PUSH1 0x4 ADD PUSH1 0x40 MLOAD DUP1 SWAP2 SUB SWAP1 REVERT JUMPDEST PUSH0 DUP4 DUP4 PUSH1 0x40 MLOAD PUSH1 0x20 ADD PUSH2 0x2DE SWAP3 SWAP2 SWAP1 PUSH2 0xC9B JUMP JUMPDEST PUSH1 0x40 DUP1 MLOAD DUP1 DUP4 SUB PUSH1 0x1F NOT ADD DUP2 MSTORE DUP3 DUP3 MSTORE DUP1 MLOAD PUSH1 0x20 SWAP2 DUP3 ADD KECCAK256 PUSH0 DUP2 DUP2 MSTORE PUSH1 0x1 SWAP1 SWAP3 MSTORE SWAP2 DUP2 KECCAK256 DUP1 SLOAD PUSH1 0x1 PUSH1 0x1 PUSH1 0xA0 SHL SUB NOT AND PUSH1 0x1 PUSH1 0x1 PUSH1 0xA0 SHL SUB DUP8 AND SWAP1 DUP2 OR SWAP1 SWAP2 SSTORE SWAP2 SWAP4 POP SWAP1 SWAP2 DUP4 SWAP2 PUSH32 0x4B4EE1A8C5CE94BC0300190D8E5D93808C513DBAC15879DC51C1B5A3F73AE6A8 SWAP2 LOG3 POP POP POP POP JUMP JUMPDEST CALLER PUSH0 DUP2 DUP2 MSTORE PUSH1 0x3 PUSH1 0x20 MSTORE PUSH1 0x40 DUP2 KECCAK256 SLOAD SWAP1 SWAP2 SWAP1 PUSH1 0xFF AND PUSH2 0x380 JUMPI PUSH1 0x40 MLOAD PUSH4 0x577D4B85 PUSH1 0xE0 SHL DUP2 MSTORE PUSH1 0x4 ADD PUSH1 0x40 MLOAD DUP1 SWAP2 SUB SWAP1 REVERT JUMPDEST PUSH0 DUP5 DUP5 PUSH1 0x40 MLOAD PUSH1 0x20 ADD PUSH2 0x394 SWAP3 SWAP2 SWAP1 PUSH2 0xC9B JUMP JUMPDEST PUSH1 0x40 DUP1 MLOAD PUSH1 0x1F NOT DUP2 DUP5 SUB ADD DUP2 MSTORE DUP3 DUP3 MSTORE DUP1 MLOAD PUSH1 0x20 SWAP2 DUP3 ADD KECCAK256 PUSH1 0x1 PUSH1 0x1 PUSH1 0xA0 SHL SUB DUP7 AND PUSH0 SWAP1 DUP2 MSTORE PUSH1 0x2 SWAP1 SWAP3 MSTORE SWAP2 DUP2 KECCAK256 SWAP2 SWAP4 POP SWAP2 PUSH2 0x3D3 SWAP1 DUP9 SWAP1 DUP9 SWAP1 PUSH2 0xC9B JUMP JUMPDEST SWAP1 DUP2 MSTORE PUSH1 0x40 MLOAD SWAP1 DUP2 SWAP1 SUB PUSH1 0x20 ADD SWAP1 KECCAK256 SLOAD PUSH1 0x1 PUSH1 0x1 PUSH1 0xA0 SHL SUB AND EQ PUSH2 0x40A JUMPI PUSH1 0x40 MLOAD PUSH4 0x51A4FFEF PUSH1 0xE1 SHL DUP2 MSTORE PUSH1 0x4 ADD PUSH1 0x40 MLOAD DUP1 SWAP2 SUB SWAP1 REVERT JUMPDEST PUSH0 DUP2 DUP2 MSTORE PUSH1 0x1 PUSH1 0x20 MSTORE PUSH1 0x40 SWAP1 KECCAK256 SLOAD PUSH1 0x1 PUSH1 0x1 PUSH1 0xA0 SHL SUB AND DUP1 PUSH2 0x43F JUMPI PUSH1 0x40 MLOAD PUSH4 0x820EE9E3 PUSH1 0xE0 SHL DUP2 MSTORE PUSH1 0x4 ADD PUSH1 0x40 MLOAD DUP1 SWAP2 SUB SWAP1 REVERT JUMPDEST PUSH0 PUSH2 0x449 DUP3 PUSH2 0x98B JUMP JUMPDEST SWAP1 POP ADDRESS PUSH32 0xF094F37B69FB531C65B81278199F5C0867E4E81326F9CAFF6417F5DC86A7EE39 DUP5 ADD PUSH2 0x4D7 JUMPI PUSH1 0x40 MLOAD PUSH4 0x485CC955 PUSH1 0xE0 SHL DUP2 MSTORE PUSH1 0x1 PUSH1 0x1 PUSH1 0xA0 SHL SUB DUP7 DUP2 AND PUSH1 0x4 DUP4 ADD MSTORE DUP3 DUP2 AND PUSH1 0x24 DUP4 ADD MSTORE DUP4 AND SWAP1 PUSH4 0x485CC955 SWAP1 PUSH1 0x44 ADD JUMPDEST PUSH0 PUSH1 0x40 MLOAD DUP1 DUP4 SUB DUP2 PUSH0 DUP8 DUP1 EXTCODESIZE ISZERO DUP1 ISZERO PUSH2 0x4BC JUMPI PUSH0 PUSH0 REVERT JUMPDEST POP GAS CALL ISZERO DUP1 ISZERO PUSH2 0x4CE JUMPI RETURNDATASIZE PUSH0 PUSH0 RETURNDATACOPY RETURNDATASIZE PUSH0 REVERT JUMPDEST POP POP POP POP PUSH2 0x886 JUMP JUMPDEST PUSH32 0xF1E0AEB668BAC4FC558624925DE4EDC3DFB7E138B35FBF1274918A9E51223E58 DUP5 SUB PUSH2 0x534 JUMPI PUSH1 0x40 MLOAD PUSH4 0x485CC955 PUSH1 0xE0 SHL DUP2 MSTORE PUSH1 0x1 PUSH1 0x1 PUSH1 0xA0 SHL SUB DUP7 DUP2 AND PUSH1 0x4 DUP4 ADD MSTORE DUP3 DUP2 AND PUSH1 0x24 DUP4 ADD MSTORE DUP4 AND SWAP1 PUSH4 0x485CC955 SWAP1 PUSH1 0x44 ADD PUSH2 0x4A5 JUMP JUMPDEST PUSH32 0x2335B578F972333FD9EF2743A6722BF46F16C3F49A604E771A495DCE08428EDC DUP5 SUB PUSH2 0x6D4 JUMPI PUSH1 0x1 PUSH1 0x1 PUSH1 0xA0 SHL SUB DUP6 DUP2 AND PUSH0 DUP2 DUP2 MSTORE PUSH1 0x2 PUSH1 0x20 DUP2 DUP2 MSTORE PUSH1 0x40 DUP1 DUP5 KECCAK256 DUP2 MLOAD PUSH11 0x26B2B73AA6B0B730B3B2B9 PUSH1 0xA9 SHL DUP2 MSTORE PUSH1 0xB DUP2 ADD DUP3 SWAP1 MSTORE DUP3 MLOAD SWAP1 DUP2 SWAP1 SUB PUSH1 0x2B ADD DUP2 KECCAK256 SLOAD SWAP7 SWAP1 SWAP6 MSTORE SWAP3 SWAP1 SWAP2 MSTORE PUSH17 0x2932B9BA30BAB930B73A26B0B730B3B2B9 PUSH1 0x79 SHL DUP4 MSTORE PUSH1 0x11 DUP4 ADD SWAP2 SWAP1 SWAP2 MSTORE MLOAD SWAP1 DUP2 SWAP1 SUB PUSH1 0x31 ADD SWAP1 KECCAK256 SLOAD SWAP1 DUP3 AND SWAP2 AND DUP2 PUSH2 0x614 JUMPI PUSH1 0x40 MLOAD PUSH4 0xADC4DC7 PUSH1 0xE4 SHL DUP2 MSTORE PUSH1 0x20 PUSH1 0x4 DUP3 ADD MSTORE PUSH1 0xB PUSH1 0x24 DUP3 ADD MSTORE PUSH11 0x26B2B73AA6B0B730B3B2B9 PUSH1 0xA9 SHL PUSH1 0x44 DUP3 ADD MSTORE PUSH1 0x64 ADD JUMPDEST PUSH1 0x40 MLOAD DUP1 SWAP2 SUB SWAP1 REVERT JUMPDEST PUSH1 0x1 PUSH1 0x1 PUSH1 0xA0 SHL SUB DUP2 AND PUSH2 0x65F JUMPI PUSH1 0x40 MLOAD PUSH4 0xADC4DC7 PUSH1 0xE4 SHL DUP2 MSTORE PUSH1 0x20 PUSH1 0x4 DUP3 ADD MSTORE PUSH1 0x11 PUSH1 0x24 DUP3 ADD MSTORE PUSH17 0x2932B9BA30BAB930B73A26B0B730B3B2B9 PUSH1 0x79 SHL PUSH1 0x44 DUP3 ADD MSTORE PUSH1 0x64 ADD PUSH2 0x60B JUMP JUMPDEST PUSH1 0x40 MLOAD PUSH4 0x7C643B2F PUSH1 0xE1 SHL DUP2 MSTORE PUSH1 0x1 PUSH1 0x1 PUSH1 0xA0 SHL SUB DUP9 DUP2 AND PUSH1 0x4 DUP4 ADD MSTORE DUP4 DUP2 AND PUSH1 0x24 DUP4 ADD MSTORE DUP3 DUP2 AND PUSH1 0x44 DUP4 ADD MSTORE DUP5 DUP2 AND PUSH1 0x64 DUP4 ADD MSTORE DUP6 AND SWAP1 PUSH4 0xF8C8765E SWAP1 PUSH1 0x84 ADD PUSH0 PUSH1 0x40 MLOAD DUP1 DUP4 SUB DUP2 PUSH0 DUP8 DUP1 EXTCODESIZE ISZERO DUP1 ISZERO PUSH2 0x6B7 JUMPI PUSH0 PUSH0 REVERT JUMPDEST POP GAS CALL ISZERO DUP1 ISZERO PUSH2 0x6C9 JUMPI RETURNDATASIZE PUSH0 PUSH0 RETURNDATACOPY RETURNDATASIZE PUSH0 REVERT JUMPDEST POP POP POP POP POP POP PUSH2 0x886 JUMP JUMPDEST PUSH32 0x8BBF664581BA9B490E4C7BC54DCAB50600AC9F4EA500DB4CCFA4A065D91BB92E DUP5 SUB PUSH2 0x7FA JUMPI PUSH1 0x1 PUSH1 0x1 PUSH1 0xA0 SHL SUB DUP6 DUP2 AND PUSH0 DUP2 DUP2 MSTORE PUSH1 0x2 PUSH1 0x20 DUP2 DUP2 MSTORE PUSH1 0x40 DUP1 DUP5 KECCAK256 DUP2 MLOAD PUSH17 0x2932B9BA30BAB930B73A26B0B730B3B2B9 PUSH1 0x79 SHL DUP2 MSTORE PUSH1 0x11 DUP2 ADD DUP3 SWAP1 MSTORE DUP3 MLOAD SWAP1 DUP2 SWAP1 SUB PUSH1 0x31 ADD DUP2 KECCAK256 SLOAD SWAP7 SWAP1 SWAP6 MSTORE SWAP3 SWAP1 SWAP2 MSTORE PUSH11 0x26B2B73AA6B0B730B3B2B9 PUSH1 0xA9 SHL DUP4 MSTORE PUSH1 0xB DUP4 ADD SWAP2 SWAP1 SWAP2 MSTORE MLOAD SWAP1 DUP2 SWAP1 SUB PUSH1 0x2B ADD SWAP1 KECCAK256 SLOAD SWAP1 DUP3 AND SWAP2 AND DUP2 PUSH2 0x7B5 JUMPI PUSH1 0x40 MLOAD PUSH4 0xADC4DC7 PUSH1 0xE4 SHL DUP2 MSTORE PUSH1 0x20 PUSH1 0x4 DUP3 ADD MSTORE PUSH1 0x11 PUSH1 0x24 DUP3 ADD MSTORE PUSH17 0x2932B9BA30BAB930B73A26B0B730B3B2B9 PUSH1 0x79 SHL PUSH1 0x44 DUP3 ADD MSTORE PUSH1 0x64 ADD PUSH2 0x60B JUMP JUMPDEST PUSH1 0x1 PUSH1 0x1 PUSH1 0xA0 SHL SUB DUP2 AND PUSH2 0x65F JUMPI PUSH1 0x40 MLOAD PUSH4 0xADC4DC7 PUSH1 0xE4 SHL DUP2 MSTORE PUSH1 0x20 PUSH1 0x4 DUP3 ADD MSTORE PUSH1 0xB PUSH1 0x24 DUP3 ADD MSTORE PUSH11 0x26B2B73AA6B0B730B3B2B9 PUSH1 0xA9 SHL PUSH1 0x44 DUP3 ADD MSTORE PUSH1 0x64 ADD PUSH2 0x60B JUMP JUMPDEST PUSH1 0x40 MLOAD PUSH18 0x2AB9B2B9283937B334B632A6B0B730B3B2B9 PUSH1 0x71 SHL PUSH1 0x20 DUP3 ADD MSTORE PUSH1 0x32 ADD PUSH1 0x40 MLOAD PUSH1 0x20 DUP2 DUP4 SUB SUB DUP2 MSTORE SWAP1 PUSH1 0x40 MSTORE DUP1 MLOAD SWAP1 PUSH1 0x20 ADD KECCAK256 DUP5 SUB PUSH2 0x86D JUMPI PUSH1 0x40 MLOAD PUSH4 0x485CC955 PUSH1 0xE0 SHL DUP2 MSTORE PUSH1 0x1 PUSH1 0x1 PUSH1 0xA0 SHL SUB DUP7 DUP2 AND PUSH1 0x4 DUP4 ADD MSTORE DUP3 DUP2 AND PUSH1 0x24 DUP4 ADD MSTORE DUP4 AND SWAP1 PUSH4 0x485CC955 SWAP1 PUSH1 0x44 ADD PUSH2 0x4A5 JUMP JUMPDEST PUSH1 0x40 MLOAD PUSH4 0x38B87C43 PUSH1 0xE1 SHL DUP2 MSTORE PUSH1 0x4 ADD PUSH1 0x40 MLOAD DUP1 SWAP2 SUB SWAP1 REVERT JUMPDEST PUSH1 0x1 PUSH1 0x1 PUSH1 0xA0 SHL SUB DUP6 AND PUSH0 SWAP1 DUP2 MSTORE PUSH1 0x2 PUSH1 0x20 MSTORE PUSH1 0x40 SWAP1 DUP2 SWAP1 KECCAK256 SWAP1 MLOAD DUP4 SWAP2 SWAP1 PUSH2 0x8B1 SWAP1 DUP12 SWAP1 DUP12 SWAP1 PUSH2 0xC9B JUMP JUMPDEST SWAP1 DUP2 MSTORE PUSH1 0x40 MLOAD SWAP1 DUP2 SWAP1 SUB PUSH1 0x20 ADD DUP2 KECCAK256 DUP1 SLOAD PUSH1 0x1 PUSH1 0x1 PUSH1 0xA0 SHL SUB SWAP4 SWAP1 SWAP4 AND PUSH1 0x1 PUSH1 0x1 PUSH1 0xA0 SHL SUB NOT SWAP1 SWAP4 AND SWAP3 SWAP1 SWAP3 OR SWAP1 SWAP2 SSTORE PUSH2 0x8EE SWAP1 DUP10 SWAP1 DUP10 SWAP1 PUSH2 0xC9B JUMP JUMPDEST PUSH1 0x40 MLOAD SWAP1 DUP2 SWAP1 SUB DUP2 KECCAK256 PUSH1 0x1 PUSH1 0x1 PUSH1 0xA0 SHL SUB DUP5 DUP2 AND DUP4 MSTORE SWAP1 SWAP2 SWAP1 DUP8 AND SWAP1 PUSH32 0xC5DCE3B4E11C1D8D79FDCFDC67F11FF335C6E47140EC01EE655B4F18AC399075 SWAP1 PUSH1 0x20 ADD PUSH1 0x40 MLOAD DUP1 SWAP2 SUB SWAP1 LOG3 POP SWAP7 SWAP6 POP POP POP POP POP POP JUMP JUMPDEST PUSH1 0x1 PUSH1 0x1 PUSH1 0xA0 SHL SUB DUP4 AND PUSH0 SWAP1 DUP2 MSTORE PUSH1 0x2 PUSH1 0x20 MSTORE PUSH1 0x40 DUP1 DUP3 KECCAK256 SWAP1 MLOAD PUSH2 0x969 SWAP1 DUP6 SWAP1 DUP6 SWAP1 PUSH2 0xC9B JUMP JUMPDEST SWAP1 DUP2 MSTORE PUSH1 0x40 MLOAD SWAP1 DUP2 SWAP1 SUB PUSH1 0x20 ADD SWAP1 KECCAK256 SLOAD PUSH1 0x1 PUSH1 0x1 PUSH1 0xA0 SHL SUB AND SWAP1 POP SWAP4 SWAP3 POP POP POP JUMP JUMPDEST PUSH1 0x40 MLOAD PUSH20 0x3D602D80600A3D3981F3363D3D373D3D3D363D73 PUSH1 0x60 SHL PUSH1 0x20 DUP3 ADD MSTORE PUSH12 0xFFFFFFFFFFFFFFFFFFFFFFFF NOT PUSH1 0x60 DUP4 SWAP1 SHL AND PUSH1 0x34 DUP3 ADD MSTORE PUSH15 0x5AF43D82803E903D91602B57FD5BF3 PUSH1 0x88 SHL PUSH1 0x48 DUP3 ADD MSTORE PUSH0 SWAP1 DUP2 SWAP1 PUSH1 0x57 ADD PUSH1 0x40 MLOAD PUSH1 0x20 DUP2 DUP4 SUB SUB DUP2 MSTORE SWAP1 PUSH1 0x40 MSTORE SWAP1 POP DUP1 MLOAD PUSH1 0x20 DUP3 ADD PUSH0 CREATE SWAP2 POP PUSH1 0x1 PUSH1 0x1 PUSH1 0xA0 SHL SUB DUP3 AND PUSH2 0xA48 JUMPI PUSH1 0x40 MLOAD PUSH3 0x461BCD PUSH1 0xE5 SHL DUP2 MSTORE PUSH1 0x20 PUSH1 0x4 DUP3 ADD MSTORE PUSH1 0x11 PUSH1 0x24 DUP3 ADD MSTORE PUSH17 0x11195C1B1BDE5B595B9D0819985A5B1959 PUSH1 0x7A SHL PUSH1 0x44 DUP3 ADD MSTORE PUSH1 0x64 ADD PUSH2 0x60B JUMP JUMPDEST POP SWAP2 SWAP1 POP JUMP JUMPDEST PUSH0 PUSH1 0x20 DUP3 DUP5 SUB SLT ISZERO PUSH2 0xA5E JUMPI PUSH0 PUSH0 REVERT JUMPDEST POP CALLDATALOAD SWAP2 SWAP1 POP JUMP JUMPDEST DUP1 CALLDATALOAD PUSH1 0x1 PUSH1 0x1 PUSH1 0xA0 SHL SUB DUP2 AND DUP2 EQ PUSH2 0xA7B JUMPI PUSH0 PUSH0 REVERT JUMPDEST SWAP2 SWAP1 POP JUMP JUMPDEST PUSH0 PUSH1 0x20 DUP3 DUP5 SUB SLT ISZERO PUSH2 0xA90 JUMPI PUSH0 PUSH0 REVERT JUMPDEST PUSH2 0xA99 DUP3 PUSH2 0xA65 JUMP JUMPDEST SWAP4 SWAP3 POP POP POP JUMP JUMPDEST PUSH0 PUSH0 DUP4 PUSH1 0x1F DUP5 ADD SLT PUSH2 0xAB0 JUMPI PUSH0 PUSH0 REVERT JUMPDEST POP DUP2 CALLDATALOAD PUSH8 0xFFFFFFFFFFFFFFFF DUP2 GT ISZERO PUSH2 0xAC7 JUMPI PUSH0 PUSH0 REVERT JUMPDEST PUSH1 0x20 DUP4 ADD SWAP2 POP DUP4 PUSH1 0x20 DUP3 DUP6 ADD ADD GT ISZERO PUSH2 0xADE JUMPI PUSH0 PUSH0 REVERT JUMPDEST SWAP3 POP SWAP3 SWAP1 POP JUMP JUMPDEST PUSH0 PUSH0 PUSH0 PUSH1 0x40 DUP5 DUP7 SUB SLT ISZERO PUSH2 0xAF7 JUMPI PUSH0 PUSH0 REVERT JUMPDEST DUP4 CALLDATALOAD PUSH8 0xFFFFFFFFFFFFFFFF DUP2 GT ISZERO PUSH2 0xB0D JUMPI PUSH0 PUSH0 REVERT JUMPDEST PUSH2 0xB19 DUP7 DUP3 DUP8 ADD PUSH2 0xAA0 JUMP JUMPDEST SWAP1 SWAP5 POP SWAP3 POP PUSH2 0xB2C SWAP1 POP PUSH1 0x20 DUP6 ADD PUSH2 0xA65 JUMP JUMPDEST SWAP1 POP SWAP3 POP SWAP3 POP SWAP3 JUMP JUMPDEST PUSH4 0x4E487B71 PUSH1 0xE0 SHL PUSH0 MSTORE PUSH1 0x41 PUSH1 0x4 MSTORE PUSH1 0x24 PUSH0 REVERT JUMPDEST PUSH0 PUSH0 PUSH1 0x40 DUP4 DUP6 SUB SLT ISZERO PUSH2 0xB5A JUMPI PUSH0 PUSH0 REVERT JUMPDEST PUSH2 0xB63 DUP4 PUSH2 0xA65 JUMP JUMPDEST SWAP2 POP PUSH1 0x20 DUP4 ADD CALLDATALOAD PUSH8 0xFFFFFFFFFFFFFFFF DUP2 GT ISZERO PUSH2 0xB7E JUMPI PUSH0 PUSH0 REVERT JUMPDEST DUP4 ADD PUSH1 0x1F DUP2 ADD DUP6 SGT PUSH2 0xB8E JUMPI PUSH0 PUSH0 REVERT JUMPDEST DUP1 CALLDATALOAD PUSH8 0xFFFFFFFFFFFFFFFF DUP2 GT ISZERO PUSH2 0xBA8 JUMPI PUSH2 0xBA8 PUSH2 0xB35 JUMP JUMPDEST PUSH1 0x40 MLOAD PUSH1 0x1F DUP3 ADD PUSH1 0x1F NOT SWAP1 DUP2 AND PUSH1 0x3F ADD AND DUP2 ADD PUSH8 0xFFFFFFFFFFFFFFFF DUP2 GT DUP3 DUP3 LT OR ISZERO PUSH2 0xBD7 JUMPI PUSH2 0xBD7 PUSH2 0xB35 JUMP JUMPDEST PUSH1 0x40 MSTORE DUP2 DUP2 MSTORE DUP3 DUP3 ADD PUSH1 0x20 ADD DUP8 LT ISZERO PUSH2 0xBEE JUMPI PUSH0 PUSH0 REVERT JUMPDEST DUP2 PUSH1 0x20 DUP5 ADD PUSH1 0x20 DUP4 ADD CALLDATACOPY PUSH0 PUSH1 0x20 DUP4 DUP4 ADD ADD MSTORE DUP1 SWAP4 POP POP POP POP SWAP3 POP SWAP3 SWAP1 POP JUMP JUMPDEST PUSH0 PUSH0 PUSH1 0x20 DUP4 DUP6 SUB SLT ISZERO PUSH2 0xC1E JUMPI PUSH0 PUSH0 REVERT JUMPDEST DUP3 CALLDATALOAD PUSH8 0xFFFFFFFFFFFFFFFF DUP2 GT ISZERO PUSH2 0xC34 JUMPI PUSH0 PUSH0 REVERT JUMPDEST PUSH2 0xC40 DUP6 DUP3 DUP7 ADD PUSH2 0xAA0 JUMP JUMPDEST SWAP1 SWAP7 SWAP1 SWAP6 POP SWAP4 POP POP POP POP JUMP JUMPDEST PUSH0 PUSH0 PUSH0 PUSH1 0x40 DUP5 DUP7 SUB SLT ISZERO PUSH2 0xC5E JUMPI PUSH0 PUSH0 REVERT JUMPDEST PUSH2 0xC67 DUP5 PUSH2 0xA65 JUMP JUMPDEST SWAP3 POP PUSH1 0x20 DUP5 ADD CALLDATALOAD PUSH8 0xFFFFFFFFFFFFFFFF DUP2 GT ISZERO PUSH2 0xC82 JUMPI PUSH0 PUSH0 REVERT JUMPDEST PUSH2 0xC8E DUP7 DUP3 DUP8 ADD PUSH2 0xAA0 JUMP JUMPDEST SWAP5 SWAP8 SWAP1 SWAP7 POP SWAP4 SWAP5 POP POP POP POP JUMP JUMPDEST DUP2 DUP4 DUP3 CALLDATACOPY PUSH0 SWAP2 ADD SWAP1 DUP2 MSTORE SWAP2 SWAP1 POP JUMP INVALID LOG2 PUSH5 0x6970667358 0x22 SLT KECCAK256 DUP1 SWAP9 0xC7 0x2E MUL PUSH0 0x2C 0xCD 0xB3 CALLF 0xA056 CALLDATALOAD 0xCA BLOBHASH XOR STATICCALL DUP12 0x2E 0x4D REVERT PUSH31 0xC9171FF11B3EAE8873EE64736F6C634300081E003300000000000000000000 "
				},
				"gasEstimates": {
					"creation": {
						"codeDepositCost": "659200",
						"executionCost": "24921",
						"totalCost": "684121"
					},
					"external": {
						"admin()": "2390",
						"deployManager(string)": "infinite",
						"getManager(address,string)": "infinite",
						"implementations(bytes32)": "2464",
						"isFoodApp(address)": "2572",
						"managers(address,string)": "infinite",
						"registerFoodApp(address)": "30161",
						"setImplementation(string,address)": "infinite"
					}
				},
				"methodIdentifiers": {
					"admin()": "f851a440",
					"deployManager(string)": "a8511f5a",
					"getManager(address,string)": "dee893c2",
					"implementations(bytes32)": "02cfeaca",
					"isFoodApp(address)": "e03317e2",
					"managers(address,string)": "698fb38c",
					"registerFoodApp(address)": "0471219c",
					"setImplementation(string,address)": "06419fe5"
				}
			},
			"storageLayout": {
				"storage": [
					{
						"astId": 37,
						"contract": "contracts/FoodAppFactory.sol:FoodAppFactory",
						"label": "admin",
						"offset": 0,
						"slot": "0",
						"type": "t_address"
					},
					{
						"astId": 41,
						"contract": "contracts/FoodAppFactory.sol:FoodAppFactory",
						"label": "implementations",
						"offset": 0,
						"slot": "1",
						"type": "t_mapping(t_bytes32,t_address)"
					},
					{
						"astId": 47,
						"contract": "contracts/FoodAppFactory.sol:FoodAppFactory",
						"label": "managers",
						"offset": 0,
						"slot": "2",
						"type": "t_mapping(t_address,t_mapping(t_string_memory_ptr,t_address))"
					},
					{
						"astId": 51,
						"contract": "contracts/FoodAppFactory.sol:FoodAppFactory",
						"label": "isFoodApp",
						"offset": 0,
						"slot": "3",
						"type": "t_mapping(t_address,t_bool)"
					}
				],
				"types": {
					"t_address": {
						"encoding": "inplace",
						"label": "address",
						"numberOfBytes": "20"
					},
					"t_bool": {
						"encoding": "inplace",
						"label": "bool",
						"numberOfBytes": "1"
					},
					"t_bytes32": {
						"encoding": "inplace",
						"label": "bytes32",
						"numberOfBytes": "32"
					},
					"t_mapping(t_address,t_bool)": {
						"encoding": "mapping",
						"key": "t_address",
						"label": "mapping(address => bool)",
						"numberOfBytes": "32",
						"value": "t_bool"
					},
					"t_mapping(t_address,t_mapping(t_string_memory_ptr,t_address))": {
						"encoding": "mapping",
						"key": "t_address",
						"label": "mapping(address => mapping(string => address))",
						"numberOfBytes": "32",
						"value": "t_mapping(t_string_memory_ptr,t_address)"
					},
					"t_mapping(t_bytes32,t_address)": {
						"encoding": "mapping",
						"key": "t_bytes32",
						"label": "mapping(bytes32 => address)",
						"numberOfBytes": "32",
						"value": "t_address"
					},
					"t_mapping(t_string_memory_ptr,t_address)": {
						"encoding": "mapping",
						"key": "t_string_memory_ptr",
						"label": "mapping(string => address)",
						"numberOfBytes": "32",
						"value": "t_address"
					},
					"t_string_memory_ptr": {
						"encoding": "bytes",
						"label": "string",
						"numberOfBytes": "32"
					}
				}
			},
			"userdoc": {
				"kind": "user",
				"methods": {},
				"version": 1
			}
		}
	}
}