{
	"contracts/MenuManager.sol": {
		"MenuManager": {
			"abi": [
				{
					"inputs": [],
					"name": "InvalidInitialization",
					"type": "error"
				},
				{
					"inputs": [
						{
							"internalType": "uint128",
							"name": "menuItemId",
							"type": "uint128"
						},
						{
							"internalType": "uint128",
							"name": "requestedQuantity",
							"type": "uint128"
						},
						{
							"internalType": "uint128",
							"name": "availableQuantity",
							"type": "uint128"
						}
					],
					"name": "MenuManager__InsufficientQuantity",
					"type": "error"
				},
				{
					"inputs": [],
					"name": "MenuManager__InvalidAddress",
					"type": "error"
				},
				{
					"inputs": [],
					"name": "MenuManager__InvalidPrice",
					"type": "error"
				},
				{
					"inputs": [],
					"name": "MenuManager__MenuItemNotFound",
					"type": "error"
				},
				{
					"inputs": [],
					"name": "MenuManager__NameRequired",
					"type": "error"
				},
				{
					"inputs": [],
					"name": "MenuManager__NotFoodApp",
					"type": "error"
				},
				{
					"inputs": [],
					"name": "MenuManager__RestaurantHasNoMenuYet",
					"type": "error"
				},
				{
					"inputs": [],
					"name": "NotInitializing",
					"type": "error"
				},
				{
					"inputs": [
						{
							"internalType": "address",
							"name": "owner",
							"type": "address"
						}
					],
					"name": "OwnableInvalidOwner",
					"type": "error"
				},
				{
					"inputs": [
						{
							"internalType": "address",
							"name": "account",
							"type": "address"
						}
					],
					"name": "OwnableUnauthorizedAccount",
					"type": "error"
				},
				{
					"anonymous": false,
					"inputs": [
						{
							"indexed": false,
							"internalType": "uint64",
							"name": "version",
							"type": "uint64"
						}
					],
					"name": "Initialized",
					"type": "event"
				},
				{
					"anonymous": false,
					"inputs": [
						{
							"indexed": true,
							"internalType": "uint128",
							"name": "restaurantId",
							"type": "uint128"
						},
						{
							"indexed": true,
							"internalType": "uint128",
							"name": "menuId",
							"type": "uint128"
						},
						{
							"indexed": false,
							"internalType": "string",
							"name": "name",
							"type": "string"
						},
						{
							"indexed": false,
							"internalType": "uint128",
							"name": "price",
							"type": "uint128"
						}
					],
					"name": "MenuItemAdded",
					"type": "event"
				},
				{
					"anonymous": false,
					"inputs": [
						{
							"indexed": true,
							"internalType": "uint128",
							"name": "restaurantId",
							"type": "uint128"
						},
						{
							"indexed": true,
							"internalType": "uint128",
							"name": "menuId",
							"type": "uint128"
						},
						{
							"indexed": false,
							"internalType": "uint128",
							"name": "removedIndex",
							"type": "uint128"
						}
					],
					"name": "MenuItemRemoved",
					"type": "event"
				},
				{
					"anonymous": false,
					"inputs": [
						{
							"indexed": true,
							"internalType": "uint128",
							"name": "restaurantId",
							"type": "uint128"
						},
						{
							"indexed": true,
							"internalType": "uint128",
							"name": "menuId",
							"type": "uint128"
						},
						{
							"indexed": false,
							"internalType": "string",
							"name": "name",
							"type": "string"
						},
						{
							"indexed": false,
							"internalType": "uint128",
							"name": "price",
							"type": "uint128"
						},
						{
							"indexed": false,
							"internalType": "bool",
							"name": "available",
							"type": "bool"
						}
					],
					"name": "MenuItemUpdated",
					"type": "event"
				},
				{
					"anonymous": false,
					"inputs": [
						{
							"indexed": true,
							"internalType": "address",
							"name": "previousOwner",
							"type": "address"
						},
						{
							"indexed": true,
							"internalType": "address",
							"name": "newOwner",
							"type": "address"
						}
					],
					"name": "OwnershipTransferred",
					"type": "event"
				},
				{
					"inputs": [
						{
							"internalType": "uint128",
							"name": "restaurantId",
							"type": "uint128"
						},
						{
							"internalType": "string",
							"name": "name",
							"type": "string"
						},
						{
							"internalType": "string",
							"name": "menuTitle",
							"type": "string"
						},
						{
							"internalType": "string",
							"name": "imageUrl",
							"type": "string"
						},
						{
							"internalType": "uint128",
							"name": "price",
							"type": "uint128"
						},
						{
							"internalType": "string",
							"name": "description",
							"type": "string"
						},
						{
							"internalType": "string",
							"name": "category",
							"type": "string"
						},
						{
							"internalType": "uint128",
							"name": "preparationTime",
							"type": "uint128"
						}
					],
					"name": "addMenuItem",
					"outputs": [],
					"stateMutability": "nonpayable",
					"type": "function"
				},
				{
					"inputs": [],
					"name": "foodAppContractAddress",
					"outputs": [
						{
							"internalType": "address",
							"name": "",
							"type": "address"
						}
					],
					"stateMutability": "view",
					"type": "function"
				},
				{
					"inputs": [
						{
							"internalType": "uint128",
							"name": "restaurantId",
							"type": "uint128"
						},
						{
							"internalType": "uint128",
							"name": "menuId",
							"type": "uint128"
						}
					],
					"name": "getMenuItem",
					"outputs": [
						{
							"components": [
								{
									"internalType": "uint128",
									"name": "id",
									"type": "uint128"
								},
								{
									"internalType": "uint128",
									"name": "restaurantId",
									"type": "uint128"
								},
								{
									"internalType": "string",
									"name": "name",
									"type": "string"
								},
								{
									"internalType": "string",
									"name": "menuTitle",
									"type": "string"
								},
								{
									"internalType": "string",
									"name": "imageUrl",
									"type": "string"
								},
								{
									"internalType": "uint128",
									"name": "price",
									"type": "uint128"
								},
								{
									"internalType": "bool",
									"name": "available",
									"type": "bool"
								},
								{
									"internalType": "string",
									"name": "description",
									"type": "string"
								},
								{
									"internalType": "string",
									"name": "category",
									"type": "string"
								},
								{
									"internalType": "uint128",
									"name": "totalRating",
									"type": "uint128"
								},
								{
									"internalType": "uint128",
									"name": "ratingCount",
									"type": "uint128"
								},
								{
									"internalType": "uint128",
									"name": "preparationTime",
									"type": "uint128"
								}
							],
							"internalType": "struct MenuItem",
							"name": "",
							"type": "tuple"
						}
					],
					"stateMutability": "view",
					"type": "function"
				},
				{
					"inputs": [
						{
							"internalType": "uint128",
							"name": "restaurantId",
							"type": "uint128"
						}
					],
					"name": "getMenuItemIdsByRestaurant",
					"outputs": [
						{
							"internalType": "uint128[]",
							"name": "",
							"type": "uint128[]"
						}
					],
					"stateMutability": "view",
					"type": "function"
				},
				{
					"inputs": [
						{
							"internalType": "uint128",
							"name": "restaurantId",
							"type": "uint128"
						}
					],
					"name": "getMenuItemsByRestaurant",
					"outputs": [
						{
							"components": [
								{
									"internalType": "uint128",
									"name": "id",
									"type": "uint128"
								},
								{
									"internalType": "uint128",
									"name": "restaurantId",
									"type": "uint128"
								},
								{
									"internalType": "string",
									"name": "name",
									"type": "string"
								},
								{
									"internalType": "string",
									"name": "menuTitle",
									"type": "string"
								},
								{
									"internalType": "string",
									"name": "imageUrl",
									"type": "string"
								},
								{
									"internalType": "uint128",
									"name": "price",
									"type": "uint128"
								},
								{
									"internalType": "bool",
									"name": "available",
									"type": "bool"
								},
								{
									"internalType": "string",
									"name": "description",
									"type": "string"
								},
								{
									"internalType": "string",
									"name": "category",
									"type": "string"
								},
								{
									"internalType": "uint128",
									"name": "totalRating",
									"type": "uint128"
								},
								{
									"internalType": "uint128",
									"name": "ratingCount",
									"type": "uint128"
								},
								{
									"internalType": "uint128",
									"name": "preparationTime",
									"type": "uint128"
								}
							],
							"internalType": "struct MenuItem[]",
							"name": "",
							"type": "tuple[]"
						}
					],
					"stateMutability": "view",
					"type": "function"
				},
				{
					"inputs": [
						{
							"internalType": "address",
							"name": "_foodAppContract",
							"type": "address"
						},
						{
							"internalType": "address",
							"name": "_owner",
							"type": "address"
						}
					],
					"name": "initialize",
					"outputs": [],
					"stateMutability": "nonpayable",
					"type": "function"
				},
				{
					"inputs": [
						{
							"internalType": "uint128",
							"name": "",
							"type": "uint128"
						},
						{
							"internalType": "uint128",
							"name": "",
							"type": "uint128"
						}
					],
					"name": "menuItems",
					"outputs": [
						{
							"internalType": "uint128",
							"name": "id",
							"type": "uint128"
						},
						{
							"internalType": "uint128",
							"name": "restaurantId",
							"type": "uint128"
						},
						{
							"internalType": "string",
							"name": "name",
							"type": "string"
						},
						{
							"internalType": "string",
							"name": "menuTitle",
							"type": "string"
						},
						{
							"internalType": "string",
							"name": "imageUrl",
							"type": "string"
						},
						{
							"internalType": "uint128",
							"name": "price",
							"type": "uint128"
						},
						{
							"internalType": "bool",
							"name": "available",
							"type": "bool"
						},
						{
							"internalType": "string",
							"name": "description",
							"type": "string"
						},
						{
							"internalType": "string",
							"name": "category",
							"type": "string"
						},
						{
							"internalType": "uint128",
							"name": "totalRating",
							"type": "uint128"
						},
						{
							"internalType": "uint128",
							"name": "ratingCount",
							"type": "uint128"
						},
						{
							"internalType": "uint128",
							"name": "preparationTime",
							"type": "uint128"
						}
					],
					"stateMutability": "view",
					"type": "function"
				},
				{
					"inputs": [
						{
							"internalType": "uint128",
							"name": "",
							"type": "uint128"
						}
					],
					"name": "nextMenuIds",
					"outputs": [
						{
							"internalType": "uint128",
							"name": "",
							"type": "uint128"
						}
					],
					"stateMutability": "view",
					"type": "function"
				},
				{
					"inputs": [],
					"name": "owner",
					"outputs": [
						{
							"internalType": "address",
							"name": "",
							"type": "address"
						}
					],
					"stateMutability": "view",
					"type": "function"
				},
				{
					"inputs": [
						{
							"internalType": "uint128",
							"name": "restaurantId",
							"type": "uint128"
						},
						{
							"internalType": "uint128",
							"name": "menuId",
							"type": "uint128"
						}
					],
					"name": "removeMenuItem",
					"outputs": [],
					"stateMutability": "nonpayable",
					"type": "function"
				},
				{
					"inputs": [],
					"name": "renounceOwnership",
					"outputs": [],
					"stateMutability": "nonpayable",
					"type": "function"
				},
				{
					"inputs": [
						{
							"internalType": "address",
							"name": "newOwner",
							"type": "address"
						}
					],
					"name": "transferOwnership",
					"outputs": [],
					"stateMutability": "nonpayable",
					"type": "function"
				},
				{
					"inputs": [
						{
							"components": [
								{
									"internalType": "uint128",
									"name": "restaurantId",
									"type": "uint128"
								},
								{
									"internalType": "uint128",
									"name": "menuId",
									"type": "uint128"
								},
								{
									"internalType": "string",
									"name": "name",
									"type": "string"
								},
								{
									"internalType": "string",
									"name": "menuTitle",
									"type": "string"
								},
								{
									"internalType": "string",
									"name": "imageUrl",
									"type": "string"
								},
								{
									"internalType": "uint128",
									"name": "price",
									"type": "uint128"
								},
								{
									"internalType": "bool",
									"name": "available",
									"type": "bool"
								},
								{
									"internalType": "string",
									"name": "description",
									"type": "string"
								},
								{
									"internalType": "string",
									"name": "category",
									"type": "string"
								},
								{
									"internalType": "uint128",
									"name": "preparationTime",
									"type": "uint128"
								},
								{
									"internalType": "uint128",
									"name": "totalRating",
									"type": "uint128"
								},
								{
									"internalType": "uint128",
									"name": "ratingCount",
									"type": "uint128"
								}
							],
							"internalType": "struct UpdateMenuItemParams",
							"name": "params",
							"type": "tuple"
						}
					],
					"name": "updateMenuItem",
					"outputs": [],
					"stateMutability": "nonpayable",
					"type": "function"
				}
			],
			"devdoc": {
				"errors": {
					"InvalidInitialization()": [
						{
							"details": "The contract is already initialized."
						}
					],
					"NotInitializing()": [
						{
							"details": "The contract is not initializing."
						}
					],
					"OwnableInvalidOwner(address)": [
						{
							"details": "The owner is not a valid owner account. (eg. `address(0)`)"
						}
					],
					"OwnableUnauthorizedAccount(address)": [
						{
							"details": "The caller account is not authorized to perform an operation."
						}
					]
				},
				"events": {
					"Initialized(uint64)": {
						"details": "Triggered when the contract has been initialized or reinitialized."
					}
				},
				"kind": "dev",
				"methods": {
					"owner()": {
						"details": "Returns the address of the current owner."
					},
					"renounceOwnership()": {
						"details": "Leaves the contract without owner. It will not be possible to call `onlyOwner` functions. Can only be called by the current owner. NOTE: Renouncing ownership will leave the contract without an owner, thereby disabling any functionality that is only available to the owner."
					},
					"transferOwnership(address)": {
						"details": "Transfers ownership of the contract to a new account (`newOwner`). Can only be called by the current owner."
					}
				},
				"version": 1
			},
			"evm": {
				"assembly": "    /* \"contracts/MenuManager.sol\":218:8238  contract MenuManager is OwnableUpgradeable, IMenuManager {... */\n  mstore(0x40, 0x80)\n  callvalue\n  dup1\n  iszero\n  tag_1\n  jumpi\n  revert(0x00, 0x00)\ntag_1:\n  pop\n  dataSize(sub_0)\n  dup1\n  dataOffset(sub_0)\n  0x00\n  codecopy\n  0x00\n  return\nstop\n\nsub_0: assembly {\n        /* \"contracts/MenuManager.sol\":218:8238  contract MenuManager is OwnableUpgradeable, IMenuManager {... */\n      mstore(0x40, 0x80)\n      callvalue\n      dup1\n      iszero\n      tag_1\n      jumpi\n      revert(0x00, 0x00)\n    tag_1:\n      pop\n      jumpi(tag_2, lt(calldatasize, 0x04))\n      shr(0xe0, calldataload(0x00))\n      dup1\n      0x6b88cde5\n      gt\n      tag_16\n      jumpi\n      dup1\n      0x832dbdd9\n      gt\n      tag_17\n      jumpi\n      dup1\n      0x832dbdd9\n      eq\n      tag_12\n      jumpi\n      dup1\n      0x8da5cb5b\n      eq\n      tag_13\n      jumpi\n      dup1\n      0xd5d2768b\n      eq\n      tag_14\n      jumpi\n      dup1\n      0xf2fde38b\n      eq\n      tag_15\n      jumpi\n      revert(0x00, 0x00)\n    tag_17:\n      dup1\n      0x6b88cde5\n      eq\n      tag_9\n      jumpi\n      dup1\n      0x715018a6\n      eq\n      tag_10\n      jumpi\n      dup1\n      0x75fab3e0\n      eq\n      tag_11\n      jumpi\n      revert(0x00, 0x00)\n    tag_16:\n      dup1\n      0x0c528968\n      eq\n      tag_3\n      jumpi\n      dup1\n      0x21bc7543\n      eq\n      tag_4\n      jumpi\n      dup1\n      0x25147e4f\n      eq\n      tag_5\n      jumpi\n      dup1\n      0x485cc955\n      eq\n      tag_6\n      jumpi\n      dup1\n      0x5b94ea5d\n      eq\n      tag_7\n      jumpi\n      dup1\n      0x61dcddda\n      eq\n      tag_8\n      jumpi\n    tag_2:\n      revert(0x00, 0x00)\n        /* \"contracts/MenuManager.sol\":6457:6945  function getMenuItem(uint128 restaurantId, uint128 menuId) external view override returns (MenuItem memory) {... */\n    tag_3:\n      tag_18\n      tag_19\n      calldatasize\n      0x04\n      tag_20\n      jump\t// in\n    tag_19:\n      tag_21\n      jump\t// in\n    tag_18:\n      mload(0x40)\n      tag_22\n      swap2\n      swap1\n      tag_23\n      jump\t// in\n    tag_22:\n      mload(0x40)\n      dup1\n      swap2\n      sub\n      swap1\n      return\n        /* \"contracts/MenuManager.sol\":354:400  mapping(uint128 => uint128) public nextMenuIds */\n    tag_4:\n      tag_24\n      tag_25\n      calldatasize\n      0x04\n      tag_26\n      jump\t// in\n    tag_25:\n      mstore(0x20, 0x01)\n      0x00\n      swap1\n      dup2\n      mstore\n      0x40\n      swap1\n      keccak256\n      sload\n      sub(shl(0x80, 0x01), 0x01)\n      and\n      dup2\n      jump\n    tag_24:\n      mload(0x40)\n      sub(shl(0x80, 0x01), 0x01)\n        /* \"#utility.yul\":3264:3311   */\n      swap1\n      swap2\n      and\n        /* \"#utility.yul\":3246:3312   */\n      dup2\n      mstore\n        /* \"#utility.yul\":3234:3236   */\n      0x20\n        /* \"#utility.yul\":3219:3237   */\n      add\n        /* \"contracts/MenuManager.sol\":354:400  mapping(uint128 => uint128) public nextMenuIds */\n      tag_22\n        /* \"#utility.yul\":3100:3318   */\n      jump\n        /* \"contracts/MenuManager.sol\":3454:4579  function updateMenuItem(... */\n    tag_5:\n      tag_30\n      tag_31\n      calldatasize\n      0x04\n      tag_32\n      jump\t// in\n    tag_31:\n      tag_33\n      jump\t// in\n    tag_30:\n      stop\n        /* \"contracts/MenuManager.sol\":1684:2015  function initialize(address _foodAppContract, address _owner) public initializer {... */\n    tag_6:\n      tag_30\n      tag_35\n      calldatasize\n      0x04\n      tag_36\n      jump\t// in\n    tag_35:\n      tag_37\n      jump\t// in\n        /* \"contracts/MenuManager.sol\":4587:5413  function removeMenuItem(... */\n    tag_7:\n      tag_30\n      tag_39\n      calldatasize\n      0x04\n      tag_20\n      jump\t// in\n    tag_39:\n      tag_40\n      jump\t// in\n        /* \"contracts/MenuManager.sol\":6953:7649  function getMenuItemsByRestaurant(uint128 restaurantId) external view override returns (MenuItem[] memory) {... */\n    tag_8:\n      tag_41\n      tag_42\n      calldatasize\n      0x04\n      tag_26\n      jump\t// in\n    tag_42:\n      tag_43\n      jump\t// in\n    tag_41:\n      mload(0x40)\n      tag_22\n      swap2\n      swap1\n      tag_45\n      jump\t// in\n        /* \"contracts/MenuManager.sol\":7657:8059  function getMenuItemIdsByRestaurant(uint128 restaurantId) external view override returns (uint128[] memory) {... */\n    tag_9:\n      tag_46\n      tag_47\n      calldatasize\n      0x04\n      tag_26\n      jump\t// in\n    tag_47:\n      tag_48\n      jump\t// in\n    tag_46:\n      mload(0x40)\n      tag_22\n      swap2\n      swap1\n      tag_50\n      jump\t// in\n        /* \"@openzeppelin/contracts-upgradeable/access/OwnableUpgradeable.sol\":3155:3256  function renounceOwnership() public virtual onlyOwner {... */\n    tag_10:\n      tag_30\n      tag_52\n      jump\t// in\n        /* \"contracts/MenuManager.sol\":282:347  mapping(uint128 => mapping(uint128 => MenuItem)) public menuItems */\n    tag_11:\n      tag_53\n      tag_54\n      calldatasize\n      0x04\n      tag_20\n      jump\t// in\n    tag_54:\n      tag_55\n      jump\t// in\n    tag_53:\n      mload(0x40)\n      tag_22\n      swap13\n      swap12\n      swap11\n      swap10\n      swap9\n      swap8\n      swap7\n      swap6\n      swap5\n      swap4\n      swap3\n      swap2\n      swap1\n      tag_57\n      jump\t// in\n        /* \"contracts/MenuManager.sol\":530:567  address public foodAppContractAddress */\n    tag_12:\n      sload(0x03)\n      tag_58\n      swap1\n      sub(shl(0xa0, 0x01), 0x01)\n      and\n      dup2\n      jump\n    tag_58:\n      mload(0x40)\n      sub(shl(0xa0, 0x01), 0x01)\n        /* \"#utility.yul\":10017:10049   */\n      swap1\n      swap2\n      and\n        /* \"#utility.yul\":9999:10050   */\n      dup2\n      mstore\n        /* \"#utility.yul\":9987:9989   */\n      0x20\n        /* \"#utility.yul\":9972:9990   */\n      add\n        /* \"contracts/MenuManager.sol\":530:567  address public foodAppContractAddress */\n      tag_22\n        /* \"#utility.yul\":9853:10056   */\n      jump\n        /* \"@openzeppelin/contracts-upgradeable/access/OwnableUpgradeable.sol\":2441:2585  function owner() public view virtual returns (address) {... */\n    tag_13:\n        /* \"@openzeppelin/contracts-upgradeable/access/OwnableUpgradeable.sol\":1313:1335  OwnableStorageLocation */\n      0x9016d09d72d40fdae2fd8ceac6b6234c7706214fd39c1cd1e609a0528c199300\n        /* \"@openzeppelin/contracts-upgradeable/access/OwnableUpgradeable.sol\":2570:2578  $._owner */\n      sload\n      sub(shl(0xa0, 0x01), 0x01)\n      and\n        /* \"@openzeppelin/contracts-upgradeable/access/OwnableUpgradeable.sol\":2441:2585  function owner() public view virtual returns (address) {... */\n      jump(tag_58)\n        /* \"contracts/MenuManager.sol\":2025:3446  function addMenuItem(... */\n    tag_14:\n      tag_30\n      tag_66\n      calldatasize\n      0x04\n      tag_67\n      jump\t// in\n    tag_66:\n      tag_68\n      jump\t// in\n        /* \"@openzeppelin/contracts-upgradeable/access/OwnableUpgradeable.sol\":3405:3620  function transferOwnership(address newOwner) public virtual onlyOwner {... */\n    tag_15:\n      tag_30\n      tag_70\n      calldatasize\n      0x04\n      tag_71\n      jump\t// in\n    tag_70:\n      tag_72\n      jump\t// in\n        /* \"contracts/MenuManager.sol\":6457:6945  function getMenuItem(uint128 restaurantId, uint128 menuId) external view override returns (MenuItem memory) {... */\n    tag_21:\n        /* \"contracts/MenuManager.sol\":6548:6563  MenuItem memory */\n      tag_73\n      tag_74\n      jump\t// in\n    tag_73:\n      sub(shl(0x80, 0x01), 0x01)\n        /* \"contracts/MenuManager.sol\":6595:6618  menuItems[restaurantId] */\n      dup1\n      dup5\n      and\n        /* \"contracts/MenuManager.sol\":6572:6592  MenuItem memory item */\n      0x00\n        /* \"contracts/MenuManager.sol\":6595:6618  menuItems[restaurantId] */\n      swap1\n      dup2\n      mstore\n      0x20\n      dup2\n      dup2\n      mstore\n      0x40\n      dup1\n      dup4\n      keccak256\n        /* \"contracts/MenuManager.sol\":6595:6626  menuItems[restaurantId][menuId] */\n      dup7\n      dup6\n      and\n      dup5\n      mstore\n      dup3\n      mstore\n      dup1\n      dup4\n      keccak256\n        /* \"contracts/MenuManager.sol\":6572:6626  MenuItem memory item = menuItems[restaurantId][menuId] */\n      dup2\n      mload\n      0x0180\n      dup2\n      add\n      dup4\n      mstore\n      dup2\n      sload\n      dup1\n      dup8\n      and\n      dup3\n      mstore\n      shl(0x80, 0x01)\n      swap1\n      div\n      swap1\n      swap6\n      and\n      swap3\n      dup6\n      add\n      swap3\n      swap1\n      swap3\n      mstore\n      0x01\n      dup3\n      add\n      dup1\n      sload\n        /* \"contracts/MenuManager.sol\":6572:6592  MenuItem memory item */\n      swap4\n      swap5\n        /* \"contracts/MenuManager.sol\":6572:6626  MenuItem memory item = menuItems[restaurantId][menuId] */\n      swap4\n      swap2\n      dup5\n      add\n      swap2\n      tag_76\n      swap1\n      tag_77\n      jump\t// in\n    tag_76:\n      dup1\n      0x1f\n      add\n      0x20\n      dup1\n      swap2\n      div\n      mul\n      0x20\n      add\n      mload(0x40)\n      swap1\n      dup2\n      add\n      0x40\n      mstore\n      dup1\n      swap3\n      swap2\n      swap1\n      dup2\n      dup2\n      mstore\n      0x20\n      add\n      dup3\n      dup1\n      sload\n      tag_78\n      swap1\n      tag_77\n      jump\t// in\n    tag_78:\n      dup1\n      iszero\n      tag_79\n      jumpi\n      dup1\n      0x1f\n      lt\n      tag_80\n      jumpi\n      0x0100\n      dup1\n      dup4\n      sload\n      div\n      mul\n      dup4\n      mstore\n      swap2\n      0x20\n      add\n      swap2\n      jump(tag_79)\n    tag_80:\n      dup3\n      add\n      swap2\n      swap1\n      0x00\n      mstore\n      keccak256(0x00, 0x20)\n      swap1\n    tag_81:\n      dup2\n      sload\n      dup2\n      mstore\n      swap1\n      0x01\n      add\n      swap1\n      0x20\n      add\n      dup1\n      dup4\n      gt\n      tag_81\n      jumpi\n      dup3\n      swap1\n      sub\n      0x1f\n      and\n      dup3\n      add\n      swap2\n    tag_79:\n      pop\n      pop\n      pop\n      pop\n      pop\n      dup2\n      mstore\n      0x20\n      add\n      0x02\n      dup3\n      add\n      dup1\n      sload\n      tag_82\n      swap1\n      tag_77\n      jump\t// in\n    tag_82:\n      dup1\n      0x1f\n      add\n      0x20\n      dup1\n      swap2\n      div\n      mul\n      0x20\n      add\n      mload(0x40)\n      swap1\n      dup2\n      add\n      0x40\n      mstore\n      dup1\n      swap3\n      swap2\n      swap1\n      dup2\n      dup2\n      mstore\n      0x20\n      add\n      dup3\n      dup1\n      sload\n      tag_83\n      swap1\n      tag_77\n      jump\t// in\n    tag_83:\n      dup1\n      iszero\n      tag_84\n      jumpi\n      dup1\n      0x1f\n      lt\n      tag_85\n      jumpi\n      0x0100\n      dup1\n      dup4\n      sload\n      div\n      mul\n      dup4\n      mstore\n      swap2\n      0x20\n      add\n      swap2\n      jump(tag_84)\n    tag_85:\n      dup3\n      add\n      swap2\n      swap1\n      0x00\n      mstore\n      keccak256(0x00, 0x20)\n      swap1\n    tag_86:\n      dup2\n      sload\n      dup2\n      mstore\n      swap1\n      0x01\n      add\n      swap1\n      0x20\n      add\n      dup1\n      dup4\n      gt\n      tag_86\n      jumpi\n      dup3\n      swap1\n      sub\n      0x1f\n      and\n      dup3\n      add\n      swap2\n    tag_84:\n      pop\n      pop\n      pop\n      pop\n      pop\n      dup2\n      mstore\n      0x20\n      add\n      0x03\n      dup3\n      add\n      dup1\n      sload\n      tag_87\n      swap1\n      tag_77\n      jump\t// in\n    tag_87:\n      dup1\n      0x1f\n      add\n      0x20\n      dup1\n      swap2\n      div\n      mul\n      0x20\n      add\n      mload(0x40)\n      swap1\n      dup2\n      add\n      0x40\n      mstore\n      dup1\n      swap3\n      swap2\n      swap1\n      dup2\n      dup2\n      mstore\n      0x20\n      add\n      dup3\n      dup1\n      sload\n      tag_88\n      swap1\n      tag_77\n      jump\t// in\n    tag_88:\n      dup1\n      iszero\n      tag_89\n      jumpi\n      dup1\n      0x1f\n      lt\n      tag_90\n      jumpi\n      0x0100\n      dup1\n      dup4\n      sload\n      div\n      mul\n      dup4\n      mstore\n      swap2\n      0x20\n      add\n      swap2\n      jump(tag_89)\n    tag_90:\n      dup3\n      add\n      swap2\n      swap1\n      0x00\n      mstore\n      keccak256(0x00, 0x20)\n      swap1\n    tag_91:\n      dup2\n      sload\n      dup2\n      mstore\n      swap1\n      0x01\n      add\n      swap1\n      0x20\n      add\n      dup1\n      dup4\n      gt\n      tag_91\n      jumpi\n      dup3\n      swap1\n      sub\n      0x1f\n      and\n      dup3\n      add\n      swap2\n    tag_89:\n      pop\n      pop\n      pop\n      swap2\n      dup4\n      mstore\n      pop\n      pop\n      0x04\n      dup3\n      add\n      sload\n      sub(shl(0x80, 0x01), 0x01)\n      dup2\n      and\n      0x20\n      dup4\n      add\n      mstore\n      shl(0x80, 0x01)\n      swap1\n      div\n      0xff\n      and\n      iszero\n      iszero\n      0x40\n      dup3\n      add\n      mstore\n      0x05\n      dup3\n      add\n      dup1\n      sload\n      0x60\n      swap1\n      swap3\n      add\n      swap2\n      tag_92\n      swap1\n      tag_77\n      jump\t// in\n    tag_92:\n      dup1\n      0x1f\n      add\n      0x20\n      dup1\n      swap2\n      div\n      mul\n      0x20\n      add\n      mload(0x40)\n      swap1\n      dup2\n      add\n      0x40\n      mstore\n      dup1\n      swap3\n      swap2\n      swap1\n      dup2\n      dup2\n      mstore\n      0x20\n      add\n      dup3\n      dup1\n      sload\n      tag_93\n      swap1\n      tag_77\n      jump\t// in\n    tag_93:\n      dup1\n      iszero\n      tag_94\n      jumpi\n      dup1\n      0x1f\n      lt\n      tag_95\n      jumpi\n      0x0100\n      dup1\n      dup4\n      sload\n      div\n      mul\n      dup4\n      mstore\n      swap2\n      0x20\n      add\n      swap2\n      jump(tag_94)\n    tag_95:\n      dup3\n      add\n      swap2\n      swap1\n      0x00\n      mstore\n      keccak256(0x00, 0x20)\n      swap1\n    tag_96:\n      dup2\n      sload\n      dup2\n      mstore\n      swap1\n      0x01\n      add\n      swap1\n      0x20\n      add\n      dup1\n      dup4\n      gt\n      tag_96\n      jumpi\n      dup3\n      swap1\n      sub\n      0x1f\n      and\n      dup3\n      add\n      swap2\n    tag_94:\n      pop\n      pop\n      pop\n      pop\n      pop\n      dup2\n      mstore\n      0x20\n      add\n      0x06\n      dup3\n      add\n      dup1\n      sload\n      tag_97\n      swap1\n      tag_77\n      jump\t// in\n    tag_97:\n      dup1\n      0x1f\n      add\n      0x20\n      dup1\n      swap2\n      div\n      mul\n      0x20\n      add\n      mload(0x40)\n      swap1\n      dup2\n      add\n      0x40\n      mstore\n      dup1\n      swap3\n      swap2\n      swap1\n      dup2\n      dup2\n      mstore\n      0x20\n      add\n      dup3\n      dup1\n      sload\n      tag_98\n      swap1\n      tag_77\n      jump\t// in\n    tag_98:\n      dup1\n      iszero\n      tag_99\n      jumpi\n      dup1\n      0x1f\n      lt\n      tag_100\n      jumpi\n      0x0100\n      dup1\n      dup4\n      sload\n      div\n      mul\n      dup4\n      mstore\n      swap2\n      0x20\n      add\n      swap2\n      jump(tag_99)\n    tag_100:\n      dup3\n      add\n      swap2\n      swap1\n      0x00\n      mstore\n      keccak256(0x00, 0x20)\n      swap1\n    tag_101:\n      dup2\n      sload\n      dup2\n      mstore\n      swap1\n      0x01\n      add\n      swap1\n      0x20\n      add\n      dup1\n      dup4\n      gt\n      tag_101\n      jumpi\n      dup3\n      swap1\n      sub\n      0x1f\n      and\n      dup3\n      add\n      swap2\n    tag_99:\n      pop\n      pop\n      pop\n      swap2\n      dup4\n      mstore\n      pop\n      pop\n      0x07\n      dup3\n      add\n      sload\n      sub(shl(0x80, 0x01), 0x01)\n      dup1\n      dup3\n      and\n      0x20\n      dup5\n      add\n      mstore\n      shl(0x80, 0x01)\n      swap1\n      swap2\n      div\n      dup2\n      and\n      0x40\n      dup4\n      add\n      mstore\n      0x08\n      swap1\n      swap3\n      add\n      sload\n      dup3\n      and\n      0x60\n      swap1\n      swap2\n      add\n      mstore\n        /* \"contracts/MenuManager.sol\":6639:6646  item.id */\n      dup2\n      mload\n        /* \"contracts/MenuManager.sol\":6572:6626  MenuItem memory item = menuItems[restaurantId][menuId] */\n      swap2\n      swap3\n      pop\n        /* \"contracts/MenuManager.sol\":6639:6651  item.id == 0 */\n      and\n        /* \"contracts/MenuManager.sol\":6572:6626  MenuItem memory item = menuItems[restaurantId][menuId] */\n      0x00\n        /* \"contracts/MenuManager.sol\":6639:6651  item.id == 0 */\n      sub\n        /* \"contracts/MenuManager.sol\":6635:6924  if (item.id == 0) { ... */\n      tag_102\n      jumpi\n      sub(shl(0x80, 0x01), 0x01)\n        /* \"contracts/MenuManager.sol\":6669:6704  restaurantMenuItemIds[restaurantId] */\n      dup5\n      and\n      0x00\n      swap1\n      dup2\n      mstore\n        /* \"contracts/MenuManager.sol\":6669:6690  restaurantMenuItemIds */\n      0x02\n        /* \"contracts/MenuManager.sol\":6669:6704  restaurantMenuItemIds[restaurantId] */\n      0x20\n      mstore\n      0x40\n      swap1\n      keccak256\n        /* \"contracts/MenuManager.sol\":6669:6711  restaurantMenuItemIds[restaurantId].length */\n      sload\n        /* \"contracts/MenuManager.sol\":6669:6716  restaurantMenuItemIds[restaurantId].length == 0 */\n      iszero\n        /* \"contracts/MenuManager.sol\":6669:6786  restaurantMenuItemIds[restaurantId].length == 0 && (nextMenuIds[restaurantId] == 0 || nextMenuIds[restaurantId] == 1) */\n      dup1\n      iszero\n      tag_104\n      jumpi\n      pop\n      sub(shl(0x80, 0x01), 0x01)\n        /* \"contracts/MenuManager.sol\":6721:6746  nextMenuIds[restaurantId] */\n      dup1\n      dup6\n      and\n      0x00\n      swap1\n      dup2\n      mstore\n        /* \"contracts/MenuManager.sol\":6721:6732  nextMenuIds */\n      0x01\n        /* \"contracts/MenuManager.sol\":6721:6746  nextMenuIds[restaurantId] */\n      0x20\n      mstore\n      0x40\n      swap1\n      keccak256\n      sload\n      and\n        /* \"contracts/MenuManager.sol\":6721:6751  nextMenuIds[restaurantId] == 0 */\n      iszero\n      dup1\n        /* \"contracts/MenuManager.sol\":6721:6785  nextMenuIds[restaurantId] == 0 || nextMenuIds[restaurantId] == 1 */\n      tag_104\n      jumpi\n      pop\n      sub(shl(0x80, 0x01), 0x01)\n        /* \"contracts/MenuManager.sol\":6755:6780  nextMenuIds[restaurantId] */\n      dup1\n      dup6\n      and\n      0x00\n      swap1\n      dup2\n      mstore\n        /* \"contracts/MenuManager.sol\":6755:6766  nextMenuIds */\n      0x01\n        /* \"contracts/MenuManager.sol\":6755:6780  nextMenuIds[restaurantId] */\n      0x20\n      dup2\n      swap1\n      mstore\n      0x40\n      swap1\n      swap2\n      keccak256\n      sload\n      swap1\n      swap2\n      and\n        /* \"contracts/MenuManager.sol\":6755:6785  nextMenuIds[restaurantId] == 1 */\n      eq\n        /* \"contracts/MenuManager.sol\":6721:6785  nextMenuIds[restaurantId] == 0 || nextMenuIds[restaurantId] == 1 */\n    tag_104:\n        /* \"contracts/MenuManager.sol\":6665:6868  if (restaurantMenuItemIds[restaurantId].length == 0 && (nextMenuIds[restaurantId] == 0 || nextMenuIds[restaurantId] == 1) ) {... */\n      iszero\n      tag_105\n      jumpi\n        /* \"contracts/MenuManager.sol\":6815:6852  MenuManager__RestaurantHasNoMenuYet() */\n      mload(0x40)\n      shl(0xe1, 0x4d8a9ce5)\n      dup2\n      mstore\n      0x04\n      add\n      mload(0x40)\n      dup1\n      swap2\n      sub\n      swap1\n      revert\n        /* \"contracts/MenuManager.sol\":6665:6868  if (restaurantMenuItemIds[restaurantId].length == 0 && (nextMenuIds[restaurantId] == 0 || nextMenuIds[restaurantId] == 1) ) {... */\n    tag_105:\n        /* \"contracts/MenuManager.sol\":6885:6916  MenuManager__MenuItemNotFound() */\n      mload(0x40)\n      shl(0xe2, 0x0b464e29)\n      dup2\n      mstore\n      0x04\n      add\n      mload(0x40)\n      dup1\n      swap2\n      sub\n      swap1\n      revert\n        /* \"contracts/MenuManager.sol\":6635:6924  if (item.id == 0) { ... */\n    tag_102:\n        /* \"contracts/MenuManager.sol\":6937:6941  item */\n      swap1\n      pop\n        /* \"contracts/MenuManager.sol\":6457:6945  function getMenuItem(uint128 restaurantId, uint128 menuId) external view override returns (MenuItem memory) {... */\n    tag_75:\n      swap3\n      swap2\n      pop\n      pop\n      jump\t// out\n        /* \"contracts/MenuManager.sol\":3454:4579  function updateMenuItem(... */\n    tag_33:\n        /* \"contracts/MenuManager.sol\":1600:1622  foodAppContractAddress */\n      and(sub(shl(0xa0, 0x01), 0x01), sload(0x03))\n        /* \"contracts/MenuManager.sol\":1586:1596  msg.sender */\n      caller\n        /* \"contracts/MenuManager.sol\":1586:1622  msg.sender != foodAppContractAddress */\n      eq\n        /* \"contracts/MenuManager.sol\":1582:1656  if (msg.sender != foodAppContractAddress) revert MenuManager__NotFoodApp() */\n      tag_107\n      jumpi\n        /* \"contracts/MenuManager.sol\":1631:1656  MenuManager__NotFoodApp() */\n      mload(0x40)\n      shl(0xe4, 0x0a8784c1)\n      dup2\n      mstore\n      0x04\n      add\n      mload(0x40)\n      dup1\n      swap2\n      sub\n      swap1\n      revert\n        /* \"contracts/MenuManager.sol\":1582:1656  if (msg.sender != foodAppContractAddress) revert MenuManager__NotFoodApp() */\n    tag_107:\n        /* \"contracts/MenuManager.sol\":3621:3640  params.restaurantId */\n      dup1\n      mload\n      sub(shl(0x80, 0x01), 0x01)\n        /* \"contracts/MenuManager.sol\":3611:3641  menuItems[params.restaurantId] */\n      swap1\n      dup2\n      and\n        /* \"contracts/MenuManager.sol\":3579:3608  MenuItem storage itemToUpdate */\n      0x00\n        /* \"contracts/MenuManager.sol\":3611:3641  menuItems[params.restaurantId] */\n      swap1\n      dup2\n      mstore\n      0x20\n      dup2\n      dup2\n      mstore\n      0x40\n      dup1\n      dup4\n      keccak256\n        /* \"contracts/MenuManager.sol\":3642:3655  params.menuId */\n      dup3\n      dup7\n      add\n      mload\n        /* \"contracts/MenuManager.sol\":3611:3656  menuItems[params.restaurantId][params.menuId] */\n      dup6\n      and\n      dup5\n      mstore\n      swap1\n      swap2\n      mstore\n      dup2\n      keccak256\n        /* \"contracts/MenuManager.sol\":3671:3686  itemToUpdate.id */\n      dup1\n      sload\n        /* \"contracts/MenuManager.sol\":3611:3656  menuItems[params.restaurantId][params.menuId] */\n      swap1\n      swap3\n        /* \"contracts/MenuManager.sol\":3671:3686  itemToUpdate.id */\n      and\n        /* \"contracts/MenuManager.sol\":3671:3691  itemToUpdate.id == 0 */\n      swap1\n      sub\n        /* \"contracts/MenuManager.sol\":3667:3731  if (itemToUpdate.id == 0) revert MenuManager__MenuItemNotFound() */\n      tag_109\n      jumpi\n        /* \"contracts/MenuManager.sol\":3700:3731  MenuManager__MenuItemNotFound() */\n      mload(0x40)\n      shl(0xe2, 0x0b464e29)\n      dup2\n      mstore\n      0x04\n      add\n      mload(0x40)\n      dup1\n      swap2\n      sub\n      swap1\n      revert\n        /* \"contracts/MenuManager.sol\":3667:3731  if (itemToUpdate.id == 0) revert MenuManager__MenuItemNotFound() */\n    tag_109:\n        /* \"contracts/MenuManager.sol\":3754:3760  params */\n      dup2\n        /* \"contracts/MenuManager.sol\":3754:3765  params.name */\n      0x40\n      add\n      mload\n        /* \"contracts/MenuManager.sol\":3748:3773  bytes(params.name).length */\n      mload\n        /* \"contracts/MenuManager.sol\":3777:3778  0 */\n      0x00\n        /* \"contracts/MenuManager.sol\":3748:3778  bytes(params.name).length == 0 */\n      sub\n        /* \"contracts/MenuManager.sol\":3744:3814  if (bytes(params.name).length == 0) revert MenuManager__NameRequired() */\n      tag_110\n      jumpi\n        /* \"contracts/MenuManager.sol\":3787:3814  MenuManager__NameRequired() */\n      mload(0x40)\n      shl(0xe4, 0x0dc35617)\n      dup2\n      mstore\n      0x04\n      add\n      mload(0x40)\n      dup1\n      swap2\n      sub\n      swap1\n      revert\n        /* \"contracts/MenuManager.sol\":3744:3814  if (bytes(params.name).length == 0) revert MenuManager__NameRequired() */\n    tag_110:\n        /* \"contracts/MenuManager.sol\":3829:3835  params */\n      dup2\n        /* \"contracts/MenuManager.sol\":3829:3841  params.price */\n      0xa0\n      add\n      mload\n      sub(shl(0x80, 0x01), 0x01)\n        /* \"contracts/MenuManager.sol\":3829:3846  params.price == 0 */\n      and\n        /* \"contracts/MenuManager.sol\":3845:3846  0 */\n      0x00\n        /* \"contracts/MenuManager.sol\":3829:3846  params.price == 0 */\n      sub\n        /* \"contracts/MenuManager.sol\":3825:3882  if (params.price == 0) revert MenuManager__InvalidPrice() */\n      tag_111\n      jumpi\n        /* \"contracts/MenuManager.sol\":3855:3882  MenuManager__InvalidPrice() */\n      mload(0x40)\n      shl(0xe2, 0x14315ecf)\n      dup2\n      mstore\n      0x04\n      add\n      mload(0x40)\n      dup1\n      swap2\n      sub\n      swap1\n      revert\n        /* \"contracts/MenuManager.sol\":3825:3882  if (params.price == 0) revert MenuManager__InvalidPrice() */\n    tag_111:\n        /* \"contracts/MenuManager.sol\":3915:3926  params.name */\n      0x40\n      dup3\n      add\n      mload\n        /* \"contracts/MenuManager.sol\":3895:3912  itemToUpdate.name */\n      0x01\n      dup3\n      add\n      swap1\n        /* \"contracts/MenuManager.sol\":3895:3926  itemToUpdate.name = params.name */\n      tag_112\n      swap1\n        /* \"contracts/MenuManager.sol\":3895:3912  itemToUpdate.name */\n      dup3\n        /* \"contracts/MenuManager.sol\":3895:3926  itemToUpdate.name = params.name */\n      tag_113\n      jump\t// in\n    tag_112:\n      pop\n        /* \"contracts/MenuManager.sol\":3962:3978  params.menuTitle */\n      0x60\n      dup3\n      add\n      mload\n        /* \"contracts/MenuManager.sol\":3937:3959  itemToUpdate.menuTitle */\n      0x02\n      dup3\n      add\n      swap1\n        /* \"contracts/MenuManager.sol\":3937:3978  itemToUpdate.menuTitle = params.menuTitle */\n      tag_114\n      swap1\n        /* \"contracts/MenuManager.sol\":3937:3959  itemToUpdate.menuTitle */\n      dup3\n        /* \"contracts/MenuManager.sol\":3937:3978  itemToUpdate.menuTitle = params.menuTitle */\n      tag_113\n      jump\t// in\n    tag_114:\n      pop\n        /* \"contracts/MenuManager.sol\":4013:4028  params.imageUrl */\n      0x80\n      dup3\n      add\n      mload\n        /* \"contracts/MenuManager.sol\":3989:4010  itemToUpdate.imageUrl */\n      0x03\n      dup3\n      add\n      swap1\n        /* \"contracts/MenuManager.sol\":3989:4028  itemToUpdate.imageUrl = params.imageUrl */\n      tag_115\n      swap1\n        /* \"contracts/MenuManager.sol\":3989:4010  itemToUpdate.imageUrl */\n      dup3\n        /* \"contracts/MenuManager.sol\":3989:4028  itemToUpdate.imageUrl = params.imageUrl */\n      tag_113\n      jump\t// in\n    tag_115:\n      pop\n        /* \"contracts/MenuManager.sol\":4060:4072  params.price */\n      0xa0\n      dup3\n      add\n      mload\n        /* \"contracts/MenuManager.sol\":4039:4057  itemToUpdate.price */\n      0x04\n      dup3\n      add\n        /* \"contracts/MenuManager.sol\":4039:4072  itemToUpdate.price = params.price */\n      dup1\n      sload\n        /* \"contracts/MenuManager.sol\":4108:4124  params.available */\n      0xc0\n      dup6\n      add\n      mload\n        /* \"contracts/MenuManager.sol\":4083:4124  itemToUpdate.available = params.available */\n      iszero\n      iszero\n      shl(0x80, 0x01)\n      mul\n      not(sub(shl(0x88, 0x01), 0x01))\n      swap1\n      swap2\n      and\n      sub(shl(0x80, 0x01), 0x01)\n        /* \"contracts/MenuManager.sol\":4039:4072  itemToUpdate.price = params.price */\n      swap1\n      swap4\n      and\n        /* \"contracts/MenuManager.sol\":4083:4124  itemToUpdate.available = params.available */\n      swap3\n      swap1\n      swap3\n      or\n      swap2\n      swap1\n      swap2\n      or\n      swap1\n      sstore\n        /* \"contracts/MenuManager.sol\":4162:4180  params.description */\n      0xe0\n      dup3\n      add\n      mload\n        /* \"contracts/MenuManager.sol\":4135:4159  itemToUpdate.description */\n      0x05\n      dup3\n      add\n      swap1\n        /* \"contracts/MenuManager.sol\":4135:4180  itemToUpdate.description = params.description */\n      tag_116\n      swap1\n        /* \"contracts/MenuManager.sol\":4135:4159  itemToUpdate.description */\n      dup3\n        /* \"contracts/MenuManager.sol\":4135:4180  itemToUpdate.description = params.description */\n      tag_113\n      jump\t// in\n    tag_116:\n      pop\n        /* \"contracts/MenuManager.sol\":4215:4230  params.category */\n      0x0100\n      dup3\n      add\n      mload\n        /* \"contracts/MenuManager.sol\":4191:4212  itemToUpdate.category */\n      0x06\n      dup3\n      add\n      swap1\n        /* \"contracts/MenuManager.sol\":4191:4230  itemToUpdate.category = params.category */\n      tag_117\n      swap1\n        /* \"contracts/MenuManager.sol\":4191:4212  itemToUpdate.category */\n      dup3\n        /* \"contracts/MenuManager.sol\":4191:4230  itemToUpdate.category = params.category */\n      tag_113\n      jump\t// in\n    tag_117:\n      pop\n        /* \"contracts/MenuManager.sol\":4272:4294  params.preparationTime */\n      0x0120\n      dup3\n      add\n      mload\n        /* \"contracts/MenuManager.sol\":4241:4269  itemToUpdate.preparationTime */\n      0x08\n      dup3\n      add\n        /* \"contracts/MenuManager.sol\":4241:4294  itemToUpdate.preparationTime = params.preparationTime */\n      dup1\n      sload\n      not(sub(shl(0x80, 0x01), 0x01))\n      and\n      sub(shl(0x80, 0x01), 0x01)\n      swap3\n      dup4\n      and\n      or\n      swap1\n      sstore\n        /* \"contracts/MenuManager.sol\":4414:4427  params.menuId */\n      0x20\n      dup4\n      add\n      mload\n        /* \"contracts/MenuManager.sol\":4393:4412  params.restaurantId */\n      dup4\n      mload\n        /* \"contracts/MenuManager.sol\":4429:4440  params.name */\n      0x40\n      dup1\n      dup7\n      add\n      mload\n        /* \"contracts/MenuManager.sol\":4442:4454  params.price */\n      0xa0\n      dup8\n      add\n      mload\n        /* \"contracts/MenuManager.sol\":4456:4472  params.available */\n      0xc0\n      dup9\n      add\n      mload\n        /* \"contracts/MenuManager.sol\":4377:4473  MenuItemUpdated(params.restaurantId, params.menuId, params.name, params.price, params.available) */\n      swap3\n      mload\n      swap5\n      dup7\n      and\n      swap6\n      swap4\n      swap1\n      swap4\n      and\n      swap4\n      0xfe3a76e2715db6f604f640adbbb5bd6dc99b7720b1d7a3fd9ed73c16a4d7ba74\n      swap4\n      tag_118\n      swap4\n        /* \"contracts/MenuManager.sol\":4442:4454  params.price */\n      swap1\n      swap2\n        /* \"contracts/MenuManager.sol\":4377:4473  MenuItemUpdated(params.restaurantId, params.menuId, params.name, params.price, params.available) */\n      tag_119\n      jump\t// in\n    tag_118:\n      mload(0x40)\n      dup1\n      swap2\n      sub\n      swap1\n      log3\n        /* \"contracts/MenuManager.sol\":3568:4579  {... */\n      pop\n        /* \"contracts/MenuManager.sol\":3454:4579  function updateMenuItem(... */\n      pop\n      jump\t// out\n        /* \"contracts/MenuManager.sol\":1684:2015  function initialize(address _foodAppContract, address _owner) public initializer {... */\n    tag_37:\n        /* \"@openzeppelin/contracts-upgradeable/proxy/utils/Initializable.sol\":4158:4188  InitializableStorage storage $ */\n      0x00\n        /* \"@openzeppelin/contracts-upgradeable/proxy/utils/Initializable.sol\":4191:4217  _getInitializableStorage() */\n      tag_121\n        /* \"@openzeppelin/contracts-upgradeable/proxy/utils/Initializable.sol\":4191:4215  _getInitializableStorage */\n      tag_122\n        /* \"@openzeppelin/contracts-upgradeable/proxy/utils/Initializable.sol\":4191:4217  _getInitializableStorage() */\n      jump\t// in\n    tag_121:\n        /* \"@openzeppelin/contracts-upgradeable/proxy/utils/Initializable.sol\":4302:4317  $._initializing */\n      dup1\n      sload\n        /* \"@openzeppelin/contracts-upgradeable/proxy/utils/Initializable.sol\":4158:4217  InitializableStorage storage $ = _getInitializableStorage() */\n      swap1\n      swap2\n      pop\n        /* \"@openzeppelin/contracts-upgradeable/proxy/utils/Initializable.sol\":4302:4317  $._initializing */\n      0xff\n      shl(0x40, 0x01)\n      dup3\n      div\n      and\n        /* \"@openzeppelin/contracts-upgradeable/proxy/utils/Initializable.sol\":4301:4317  !$._initializing */\n      iszero\n      swap1\n      sub(shl(0x40, 0x01), 0x01)\n        /* \"@openzeppelin/contracts-upgradeable/proxy/utils/Initializable.sol\":4348:4362  $._initialized */\n      and\n        /* \"@openzeppelin/contracts-upgradeable/proxy/utils/Initializable.sol\":4279:4298  bool isTopLevelCall */\n      0x00\n        /* \"@openzeppelin/contracts-upgradeable/proxy/utils/Initializable.sol\":4724:4740  initialized == 0 */\n      dup2\n      iszero\n        /* \"@openzeppelin/contracts-upgradeable/proxy/utils/Initializable.sol\":4724:4758  initialized == 0 && isTopLevelCall */\n      dup1\n      iszero\n      tag_123\n      jumpi\n      pop\n        /* \"@openzeppelin/contracts-upgradeable/proxy/utils/Initializable.sol\":4744:4758  isTopLevelCall */\n      dup3\n        /* \"@openzeppelin/contracts-upgradeable/proxy/utils/Initializable.sol\":4724:4758  initialized == 0 && isTopLevelCall */\n    tag_123:\n        /* \"@openzeppelin/contracts-upgradeable/proxy/utils/Initializable.sol\":4704:4758  bool initialSetup = initialized == 0 && isTopLevelCall */\n      swap1\n      pop\n        /* \"@openzeppelin/contracts-upgradeable/proxy/utils/Initializable.sol\":4768:4785  bool construction */\n      0x00\n        /* \"@openzeppelin/contracts-upgradeable/proxy/utils/Initializable.sol\":4788:4799  initialized */\n      dup3\n      sub(shl(0x40, 0x01), 0x01)\n        /* \"@openzeppelin/contracts-upgradeable/proxy/utils/Initializable.sol\":4788:4804  initialized == 1 */\n      and\n        /* \"@openzeppelin/contracts-upgradeable/proxy/utils/Initializable.sol\":4803:4804  1 */\n      0x01\n        /* \"@openzeppelin/contracts-upgradeable/proxy/utils/Initializable.sol\":4788:4804  initialized == 1 */\n      eq\n        /* \"@openzeppelin/contracts-upgradeable/proxy/utils/Initializable.sol\":4788:4838  initialized == 1 && address(this).code.length == 0 */\n      dup1\n      iszero\n      tag_124\n      jumpi\n      pop\n        /* \"@openzeppelin/contracts-upgradeable/proxy/utils/Initializable.sol\":4816:4820  this */\n      address\n        /* \"@openzeppelin/contracts-upgradeable/proxy/utils/Initializable.sol\":4808:4833  address(this).code.length */\n      extcodesize\n        /* \"@openzeppelin/contracts-upgradeable/proxy/utils/Initializable.sol\":4808:4838  address(this).code.length == 0 */\n      iszero\n        /* \"@openzeppelin/contracts-upgradeable/proxy/utils/Initializable.sol\":4788:4838  initialized == 1 && address(this).code.length == 0 */\n    tag_124:\n        /* \"@openzeppelin/contracts-upgradeable/proxy/utils/Initializable.sol\":4768:4838  bool construction = initialized == 1 && address(this).code.length == 0 */\n      swap1\n      pop\n        /* \"@openzeppelin/contracts-upgradeable/proxy/utils/Initializable.sol\":4854:4866  initialSetup */\n      dup2\n        /* \"@openzeppelin/contracts-upgradeable/proxy/utils/Initializable.sol\":4853:4866  !initialSetup */\n      iszero\n        /* \"@openzeppelin/contracts-upgradeable/proxy/utils/Initializable.sol\":4853:4883  !initialSetup && !construction */\n      dup1\n      iszero\n      tag_125\n      jumpi\n      pop\n        /* \"@openzeppelin/contracts-upgradeable/proxy/utils/Initializable.sol\":4871:4883  construction */\n      dup1\n        /* \"@openzeppelin/contracts-upgradeable/proxy/utils/Initializable.sol\":4870:4883  !construction */\n      iszero\n        /* \"@openzeppelin/contracts-upgradeable/proxy/utils/Initializable.sol\":4853:4883  !initialSetup && !construction */\n    tag_125:\n        /* \"@openzeppelin/contracts-upgradeable/proxy/utils/Initializable.sol\":4849:4940  if (!initialSetup && !construction) {... */\n      iszero\n      tag_126\n      jumpi\n        /* \"@openzeppelin/contracts-upgradeable/proxy/utils/Initializable.sol\":4906:4929  InvalidInitialization() */\n      mload(0x40)\n      shl(0xe0, 0xf92ee8a9)\n      dup2\n      mstore\n      0x04\n      add\n      mload(0x40)\n      dup1\n      swap2\n      sub\n      swap1\n      revert\n        /* \"@openzeppelin/contracts-upgradeable/proxy/utils/Initializable.sol\":4849:4940  if (!initialSetup && !construction) {... */\n    tag_126:\n        /* \"@openzeppelin/contracts-upgradeable/proxy/utils/Initializable.sol\":4949:4967  $._initialized = 1 */\n      dup5\n      sload\n      not(0xffffffffffffffff)\n      and\n        /* \"@openzeppelin/contracts-upgradeable/proxy/utils/Initializable.sol\":4966:4967  1 */\n      0x01\n        /* \"@openzeppelin/contracts-upgradeable/proxy/utils/Initializable.sol\":4949:4967  $._initialized = 1 */\n      or\n      dup6\n      sstore\n        /* \"@openzeppelin/contracts-upgradeable/proxy/utils/Initializable.sol\":4977:5044  if (isTopLevelCall) {... */\n      dup4\n      iszero\n      tag_127\n      jumpi\n        /* \"@openzeppelin/contracts-upgradeable/proxy/utils/Initializable.sol\":5011:5033  $._initializing = true */\n      dup5\n      sload\n      not(shl(0x40, 0xff))\n      and\n      shl(0x40, 0x01)\n      or\n      dup6\n      sstore\n        /* \"@openzeppelin/contracts-upgradeable/proxy/utils/Initializable.sol\":4977:5044  if (isTopLevelCall) {... */\n    tag_127:\n      sub(shl(0xa0, 0x01), 0x01)\n        /* \"contracts/MenuManager.sol\":1780:1810  _foodAppContract == address(0) */\n      dup8\n      and\n        /* \"contracts/MenuManager.sol\":1776:1848  if (_foodAppContract == address(0)) revert MenuManager__InvalidAddress() */\n      tag_129\n      jumpi\n        /* \"contracts/MenuManager.sol\":1819:1848  MenuManager__InvalidAddress() */\n      mload(0x40)\n      shl(0xe2, 0x1d46ecc3)\n      dup2\n      mstore\n      0x04\n      add\n      mload(0x40)\n      dup1\n      swap2\n      sub\n      swap1\n      revert\n        /* \"contracts/MenuManager.sol\":1776:1848  if (_foodAppContract == address(0)) revert MenuManager__InvalidAddress() */\n    tag_129:\n      sub(shl(0xa0, 0x01), 0x01)\n        /* \"contracts/MenuManager.sol\":1864:1884  _owner == address(0) */\n      dup7\n      and\n        /* \"contracts/MenuManager.sol\":1860:1922  if (_owner == address(0)) revert MenuManager__InvalidAddress() */\n      tag_130\n      jumpi\n        /* \"contracts/MenuManager.sol\":1893:1922  MenuManager__InvalidAddress() */\n      mload(0x40)\n      shl(0xe2, 0x1d46ecc3)\n      dup2\n      mstore\n      0x04\n      add\n      mload(0x40)\n      dup1\n      swap2\n      sub\n      swap1\n      revert\n        /* \"contracts/MenuManager.sol\":1860:1922  if (_owner == address(0)) revert MenuManager__InvalidAddress() */\n    tag_130:\n        /* \"contracts/MenuManager.sol\":1933:1955  __Ownable_init(_owner) */\n      tag_131\n        /* \"contracts/MenuManager.sol\":1948:1954  _owner */\n      dup7\n        /* \"contracts/MenuManager.sol\":1933:1947  __Ownable_init */\n      tag_132\n        /* \"contracts/MenuManager.sol\":1933:1955  __Ownable_init(_owner) */\n      jump\t// in\n    tag_131:\n        /* \"contracts/MenuManager.sol\":1966:1988  foodAppContractAddress */\n      0x03\n        /* \"contracts/MenuManager.sol\":1966:2007  foodAppContractAddress = _foodAppContract */\n      dup1\n      sload\n      not(sub(shl(0xa0, 0x01), 0x01))\n      and\n      sub(shl(0xa0, 0x01), 0x01)\n      dup10\n      and\n      or\n      swap1\n      sstore\n        /* \"@openzeppelin/contracts-upgradeable/proxy/utils/Initializable.sol\":5064:5165  if (isTopLevelCall) {... */\n      dup4\n      iszero\n      tag_133\n      jumpi\n        /* \"@openzeppelin/contracts-upgradeable/proxy/utils/Initializable.sol\":5098:5121  $._initializing = false */\n      dup5\n      sload\n      not(shl(0x40, 0xff))\n      and\n      dup6\n      sstore\n        /* \"@openzeppelin/contracts-upgradeable/proxy/utils/Initializable.sol\":5140:5154  Initialized(1) */\n      mload(0x40)\n      0x01\n        /* \"#utility.yul\":14750:14800   */\n      dup2\n      mstore\n        /* \"@openzeppelin/contracts-upgradeable/proxy/utils/Initializable.sol\":5140:5154  Initialized(1) */\n      0xc7f505b2f371ae2175ee4913f4499e1f2633a7b5936321eed1cdaeb6115181d2\n      swap1\n        /* \"#utility.yul\":14738:14740   */\n      0x20\n        /* \"#utility.yul\":14723:14741   */\n      add\n        /* \"@openzeppelin/contracts-upgradeable/proxy/utils/Initializable.sol\":5140:5154  Initialized(1) */\n      mload(0x40)\n      dup1\n      swap2\n      sub\n      swap1\n      log1\n        /* \"@openzeppelin/contracts-upgradeable/proxy/utils/Initializable.sol\":5064:5165  if (isTopLevelCall) {... */\n    tag_133:\n        /* \"@openzeppelin/contracts-upgradeable/proxy/utils/Initializable.sol\":4092:5171  {... */\n      pop\n      pop\n      pop\n      pop\n      pop\n        /* \"contracts/MenuManager.sol\":1684:2015  function initialize(address _foodAppContract, address _owner) public initializer {... */\n      pop\n      pop\n      jump\t// out\n        /* \"contracts/MenuManager.sol\":4587:5413  function removeMenuItem(... */\n    tag_40:\n        /* \"contracts/MenuManager.sol\":1600:1622  foodAppContractAddress */\n      and(sub(shl(0xa0, 0x01), 0x01), sload(0x03))\n        /* \"contracts/MenuManager.sol\":1586:1596  msg.sender */\n      caller\n        /* \"contracts/MenuManager.sol\":1586:1622  msg.sender != foodAppContractAddress */\n      eq\n        /* \"contracts/MenuManager.sol\":1582:1656  if (msg.sender != foodAppContractAddress) revert MenuManager__NotFoodApp() */\n      tag_137\n      jumpi\n        /* \"contracts/MenuManager.sol\":1631:1656  MenuManager__NotFoodApp() */\n      mload(0x40)\n      shl(0xe4, 0x0a8784c1)\n      dup2\n      mstore\n      0x04\n      add\n      mload(0x40)\n      dup1\n      swap2\n      sub\n      swap1\n      revert\n        /* \"contracts/MenuManager.sol\":1582:1656  if (msg.sender != foodAppContractAddress) revert MenuManager__NotFoodApp() */\n    tag_137:\n      sub(shl(0x80, 0x01), 0x01)\n        /* \"contracts/MenuManager.sol\":4727:4750  menuItems[restaurantId] */\n      dup1\n      dup4\n      and\n        /* \"contracts/MenuManager.sol\":4727:4736  menuItems */\n      0x00\n        /* \"contracts/MenuManager.sol\":4727:4750  menuItems[restaurantId] */\n      swap1\n      dup2\n      mstore\n      0x20\n      dup2\n      dup2\n      mstore\n      0x40\n      dup1\n      dup4\n      keccak256\n        /* \"contracts/MenuManager.sol\":4727:4758  menuItems[restaurantId][menuId] */\n      dup6\n      dup6\n      and\n      dup5\n      mstore\n      swap1\n      swap2\n      mstore\n      dup2\n      keccak256\n        /* \"contracts/MenuManager.sol\":4727:4761  menuItems[restaurantId][menuId].id */\n      sload\n      swap1\n      swap2\n      and\n        /* \"contracts/MenuManager.sol\":4727:4766  menuItems[restaurantId][menuId].id == 0 */\n      swap1\n      sub\n        /* \"contracts/MenuManager.sol\":4723:4806  if (menuItems[restaurantId][menuId].id == 0) revert MenuManager__MenuItemNotFound() */\n      tag_139\n      jumpi\n        /* \"contracts/MenuManager.sol\":4775:4806  MenuManager__MenuItemNotFound() */\n      mload(0x40)\n      shl(0xe2, 0x0b464e29)\n      dup2\n      mstore\n      0x04\n      add\n      mload(0x40)\n      dup1\n      swap2\n      sub\n      swap1\n      revert\n        /* \"contracts/MenuManager.sol\":4723:4806  if (menuItems[restaurantId][menuId].id == 0) revert MenuManager__MenuItemNotFound() */\n    tag_139:\n      sub(shl(0x80, 0x01), 0x01)\n        /* \"contracts/MenuManager.sol\":4824:4847  menuItems[restaurantId] */\n      dup1\n      dup4\n      and\n        /* \"contracts/MenuManager.sol\":4824:4833  menuItems */\n      0x00\n        /* \"contracts/MenuManager.sol\":4824:4847  menuItems[restaurantId] */\n      swap1\n      dup2\n      mstore\n      0x20\n      dup2\n      dup2\n      mstore\n      0x40\n      dup1\n      dup4\n      keccak256\n        /* \"contracts/MenuManager.sol\":4824:4855  menuItems[restaurantId][menuId] */\n      swap4\n      dup6\n      and\n      dup4\n      mstore\n      swap3\n      swap1\n      mstore\n      swap1\n      dup2\n      keccak256\n        /* \"contracts/MenuManager.sol\":4817:4855  delete menuItems[restaurantId][menuId] */\n      dup2\n      dup2\n      sstore\n        /* \"contracts/MenuManager.sol\":4824:4855  menuItems[restaurantId][menuId] */\n      swap1\n        /* \"contracts/MenuManager.sol\":4817:4855  delete menuItems[restaurantId][menuId] */\n      tag_140\n      0x01\n      dup4\n      add\n        /* \"contracts/MenuManager.sol\":4824:4833  menuItems */\n      dup3\n        /* \"contracts/MenuManager.sol\":4817:4855  delete menuItems[restaurantId][menuId] */\n      tag_141\n      jump\t// in\n    tag_140:\n      tag_142\n      0x02\n      dup4\n      add\n      0x00\n      tag_141\n      jump\t// in\n    tag_142:\n      tag_143\n      0x03\n      dup4\n      add\n      0x00\n      tag_141\n      jump\t// in\n    tag_143:\n      0x04\n      dup3\n      add\n      dup1\n      sload\n      not(sub(shl(0x88, 0x01), 0x01))\n      and\n      swap1\n      sstore\n      tag_144\n      0x05\n      dup4\n      add\n      0x00\n      tag_141\n      jump\t// in\n    tag_144:\n      tag_145\n      0x06\n      dup4\n      add\n      0x00\n      tag_141\n      jump\t// in\n    tag_145:\n      pop\n      0x00\n      0x07\n      dup3\n      add\n      dup2\n      swap1\n      sstore\n      0x08\n      swap1\n      swap2\n      add\n      dup1\n      sload\n      not(sub(shl(0x80, 0x01), 0x01))\n      and\n      swap1\n      sstore\n      sub(shl(0x80, 0x01), 0x01)\n        /* \"contracts/MenuManager.sol\":4895:4930  restaurantMenuItemIds[restaurantId] */\n      dup4\n      and\n      dup2\n      mstore\n        /* \"contracts/MenuManager.sol\":4895:4916  restaurantMenuItemIds */\n      0x02\n        /* \"contracts/MenuManager.sol\":4895:4930  restaurantMenuItemIds[restaurantId] */\n      0x20\n      mstore\n      0x40\n      dup2\n      keccak256\n      swap1\n      not(0x00)\n      swap1\n        /* \"contracts/MenuManager.sol\":4986:5246  for (uint i = 0; i < itemIds.length; i++) {... */\n    tag_146:\n        /* \"contracts/MenuManager.sol\":5007:5021  itemIds.length */\n      dup3\n      sload\n        /* \"contracts/MenuManager.sol\":5003:5021  i < itemIds.length */\n      dup2\n      lt\n        /* \"contracts/MenuManager.sol\":4986:5246  for (uint i = 0; i < itemIds.length; i++) {... */\n      iszero\n      tag_147\n      jumpi\n        /* \"contracts/MenuManager.sol\":5061:5067  menuId */\n      dup4\n      sub(shl(0x80, 0x01), 0x01)\n        /* \"contracts/MenuManager.sol\":5047:5067  itemIds[i] == menuId */\n      and\n        /* \"contracts/MenuManager.sol\":5047:5054  itemIds */\n      dup4\n        /* \"contracts/MenuManager.sol\":5055:5056  i */\n      dup3\n        /* \"contracts/MenuManager.sol\":5047:5057  itemIds[i] */\n      dup2\n      sload\n      dup2\n      lt\n      tag_150\n      jumpi\n      tag_150\n      tag_151\n      jump\t// in\n    tag_150:\n      0x00\n      swap2\n      dup3\n      mstore\n      0x20\n      swap1\n      swap2\n      keccak256\n      0x02\n      dup3\n      div\n      add\n      sload\n      0x01\n      swap1\n      swap2\n      and\n      0x10\n      mul\n      0x0100\n      exp\n      swap1\n      div\n      sub(shl(0x80, 0x01), 0x01)\n      and\n        /* \"contracts/MenuManager.sol\":5047:5067  itemIds[i] == menuId */\n      sub\n        /* \"contracts/MenuManager.sol\":5043:5235  if (itemIds[i] == menuId) {... */\n      tag_153\n      jumpi\n        /* \"contracts/MenuManager.sol\":5109:5123  itemIds.length */\n      dup3\n      sload\n        /* \"contracts/MenuManager.sol\":5101:5108  itemIds */\n      dup4\n      swap1\n        /* \"contracts/MenuManager.sol\":5109:5127  itemIds.length - 1 */\n      tag_154\n      swap1\n        /* \"contracts/MenuManager.sol\":5126:5127  1 */\n      0x01\n      swap1\n        /* \"contracts/MenuManager.sol\":5109:5127  itemIds.length - 1 */\n      tag_155\n      jump\t// in\n    tag_154:\n        /* \"contracts/MenuManager.sol\":5101:5128  itemIds[itemIds.length - 1] */\n      dup2\n      sload\n      dup2\n      lt\n      tag_157\n      jumpi\n      tag_157\n      tag_151\n      jump\t// in\n    tag_157:\n      swap1\n      0x00\n      mstore\n      keccak256(0x00, 0x20)\n      swap1\n      0x02\n      swap2\n      dup3\n      dup3\n      div\n      add\n      swap2\n      swap1\n      mod\n      0x10\n      mul\n      swap1\n      sload\n      swap1\n      0x0100\n      exp\n      swap1\n      div\n      sub(shl(0x80, 0x01), 0x01)\n      and\n        /* \"contracts/MenuManager.sol\":5088:5095  itemIds */\n      dup4\n        /* \"contracts/MenuManager.sol\":5096:5097  i */\n      dup3\n        /* \"contracts/MenuManager.sol\":5088:5098  itemIds[i] */\n      dup2\n      sload\n      dup2\n      lt\n      tag_160\n      jumpi\n      tag_160\n      tag_151\n      jump\t// in\n    tag_160:\n      swap1\n      0x00\n      mstore\n      keccak256(0x00, 0x20)\n      swap1\n      0x02\n      swap2\n      dup3\n      dup3\n      div\n      add\n      swap2\n      swap1\n      mod\n      0x10\n      mul\n        /* \"contracts/MenuManager.sol\":5088:5128  itemIds[i] = itemIds[itemIds.length - 1] */\n      0x0100\n      exp\n      dup2\n      sload\n      dup2\n      sub(shl(0x80, 0x01), 0x01)\n      mul\n      not\n      and\n      swap1\n      dup4\n      sub(shl(0x80, 0x01), 0x01)\n      and\n      mul\n      or\n      swap1\n      sstore\n      pop\n        /* \"contracts/MenuManager.sol\":5147:5154  itemIds */\n      dup3\n        /* \"contracts/MenuManager.sol\":5147:5160  itemIds.pop() */\n      dup1\n      sload\n      dup1\n      tag_163\n      jumpi\n      tag_163\n      tag_164\n      jump\t// in\n    tag_163:\n      0x00\n      dup3\n      dup2\n      mstore\n      0x20\n      swap1\n      keccak256\n      0x02\n      not(0x00)\n      swap1\n      swap3\n      add\n      swap2\n      dup3\n      div\n      add\n      dup1\n      sload\n      sub(shl(0x80, 0x01), 0x01)\n      0x10\n      0x01\n      dup6\n      and\n      mul\n      0x0100\n      exp\n      mul\n      not\n      and\n      swap1\n      sstore\n      swap1\n      sstore\n        /* \"contracts/MenuManager.sol\":5194:5195  i */\n      swap1\n      pop\n      dup1\n        /* \"contracts/MenuManager.sol\":5214:5219  break */\n      jump(tag_147)\n        /* \"contracts/MenuManager.sol\":5043:5235  if (itemIds[i] == menuId) {... */\n    tag_153:\n        /* \"contracts/MenuManager.sol\":5023:5026  i++ */\n      0x01\n      add\n        /* \"contracts/MenuManager.sol\":4986:5246  for (uint i = 0; i < itemIds.length; i++) {... */\n      jump(tag_146)\n    tag_147:\n      pop\n      not(0x00)\n        /* \"contracts/MenuManager.sol\":5259:5271  removedIndex */\n      dup2\n        /* \"contracts/MenuManager.sol\":5259:5289  removedIndex == type(uint).max */\n      sub\n        /* \"contracts/MenuManager.sol\":5256:5329  if(removedIndex == type(uint).max) revert MenuManager__MenuItemNotFound() */\n      tag_166\n      jumpi\n        /* \"contracts/MenuManager.sol\":5298:5329  MenuManager__MenuItemNotFound() */\n      mload(0x40)\n      shl(0xe2, 0x0b464e29)\n      dup2\n      mstore\n      0x04\n      add\n      mload(0x40)\n      dup1\n      swap2\n      sub\n      swap1\n      revert\n        /* \"contracts/MenuManager.sol\":5256:5329  if(removedIndex == type(uint).max) revert MenuManager__MenuItemNotFound() */\n    tag_166:\n        /* \"contracts/MenuManager.sol\":5345:5405  MenuItemRemoved(restaurantId, menuId, uint128(removedIndex)) */\n      mload(0x40)\n      sub(shl(0x80, 0x01), 0x01)\n        /* \"#utility.yul\":3264:3311   */\n      dup3\n      dup2\n      and\n        /* \"#utility.yul\":3246:3312   */\n      dup3\n      mstore\n        /* \"contracts/MenuManager.sol\":5345:5405  MenuItemRemoved(restaurantId, menuId, uint128(removedIndex)) */\n      dup1\n      dup6\n      and\n      swap2\n      swap1\n      dup7\n      and\n      swap1\n      0x8d71c5afd7a0f7fbd09e9dfd0bf5b47e59048f35cc2e712e78f7ce3e15ee71f6\n      swap1\n        /* \"#utility.yul\":3234:3236   */\n      0x20\n        /* \"#utility.yul\":3219:3237   */\n      add\n        /* \"contracts/MenuManager.sol\":5345:5405  MenuItemRemoved(restaurantId, menuId, uint128(removedIndex)) */\n      mload(0x40)\n      dup1\n      swap2\n      sub\n      swap1\n      log3\n        /* \"contracts/MenuManager.sol\":4712:5413  {... */\n      pop\n      pop\n        /* \"contracts/MenuManager.sol\":4587:5413  function removeMenuItem(... */\n      pop\n      pop\n      jump\t// out\n        /* \"contracts/MenuManager.sol\":6953:7649  function getMenuItemsByRestaurant(uint128 restaurantId) external view override returns (MenuItem[] memory) {... */\n    tag_43:\n      sub(shl(0x80, 0x01), 0x01)\n        /* \"contracts/MenuManager.sol\":7106:7141  restaurantMenuItemIds[restaurantId] */\n      dup2\n      and\n        /* \"contracts/MenuManager.sol\":7071:7103  uint128[] storage menuItemIdList */\n      0x00\n        /* \"contracts/MenuManager.sol\":7106:7141  restaurantMenuItemIds[restaurantId] */\n      swap1\n      dup2\n      mstore\n        /* \"contracts/MenuManager.sol\":7106:7127  restaurantMenuItemIds */\n      0x02\n        /* \"contracts/MenuManager.sol\":7106:7141  restaurantMenuItemIds[restaurantId] */\n      0x20\n      mstore\n      0x40\n      dup2\n      keccak256\n        /* \"contracts/MenuManager.sol\":7169:7190  menuItemIdList.length */\n      dup1\n      sload\n        /* \"contracts/MenuManager.sol\":7041:7058  MenuItem[] memory */\n      0x60\n      swap3\n        /* \"contracts/MenuManager.sol\":7207:7217  count == 0 */\n      dup2\n      swap1\n      sub\n        /* \"contracts/MenuManager.sol\":7203:7271  if (count == 0) {... */\n      tag_169\n      jumpi\n        /* \"contracts/MenuManager.sol\":7241:7258  new MenuItem[](0) */\n      0x40\n      dup1\n      mload\n        /* \"contracts/MenuManager.sol\":7256:7257  0 */\n      0x00\n        /* \"contracts/MenuManager.sol\":7241:7258  new MenuItem[](0) */\n      dup1\n      dup3\n      mstore\n      0x20\n      dup3\n      add\n      swap1\n      swap3\n      mstore\n      swap1\n      jump(tag_173)\n    tag_174:\n      tag_175\n      tag_74\n      jump\t// in\n    tag_175:\n      dup2\n      mstore\n      0x20\n      add\n      swap1\n      0x01\n      swap1\n      sub\n      swap1\n      dup2\n      tag_174\n      jumpi\n      swap1\n      pop\n    tag_173:\n      pop\n        /* \"contracts/MenuManager.sol\":7234:7258  return new MenuItem[](0) */\n      swap5\n        /* \"contracts/MenuManager.sol\":6953:7649  function getMenuItemsByRestaurant(uint128 restaurantId) external view override returns (MenuItem[] memory) {... */\n      swap4\n      pop\n      pop\n      pop\n      pop\n      jump\t// out\n        /* \"contracts/MenuManager.sol\":7203:7271  if (count == 0) {... */\n    tag_169:\n        /* \"contracts/MenuManager.sol\":7283:7306  MenuItem[] memory items */\n      0x00\n        /* \"contracts/MenuManager.sol\":7324:7329  count */\n      dup2\n      sub(shl(0x40, 0x01), 0x01)\n        /* \"contracts/MenuManager.sol\":7309:7330  new MenuItem[](count) */\n      dup2\n      gt\n      iszero\n      tag_177\n      jumpi\n      tag_177\n      tag_172\n      jump\t// in\n    tag_177:\n      mload(0x40)\n      swap1\n      dup1\n      dup3\n      mstore\n      dup1\n      0x20\n      mul\n      0x20\n      add\n      dup3\n      add\n      0x40\n      mstore\n      dup1\n      iszero\n      tag_178\n      jumpi\n      dup2\n      0x20\n      add\n    tag_179:\n      tag_180\n      tag_74\n      jump\t// in\n    tag_180:\n      dup2\n      mstore\n      0x20\n      add\n      swap1\n      0x01\n      swap1\n      sub\n      swap1\n      dup2\n      tag_179\n      jumpi\n      swap1\n      pop\n    tag_178:\n      pop\n        /* \"contracts/MenuManager.sol\":7283:7330  MenuItem[] memory items = new MenuItem[](count) */\n      swap1\n      pop\n        /* \"contracts/MenuManager.sol\":7346:7355  uint128 i */\n      0x00\n        /* \"contracts/MenuManager.sol\":7341:7619  for (uint128 i = 0; i < count; i++) {... */\n    tag_181:\n        /* \"contracts/MenuManager.sol\":7365:7370  count */\n      dup3\n        /* \"contracts/MenuManager.sol\":7361:7362  i */\n      dup2\n      sub(shl(0x80, 0x01), 0x01)\n        /* \"contracts/MenuManager.sol\":7361:7370  i < count */\n      and\n      lt\n        /* \"contracts/MenuManager.sol\":7341:7619  for (uint128 i = 0; i < count; i++) {... */\n      iszero\n      tag_173\n      jumpi\n        /* \"contracts/MenuManager.sol\":7392:7413  uint128 currentMenuId */\n      0x00\n        /* \"contracts/MenuManager.sol\":7416:7430  menuItemIdList */\n      dup5\n        /* \"contracts/MenuManager.sol\":7431:7432  i */\n      dup3\n      sub(shl(0x80, 0x01), 0x01)\n        /* \"contracts/MenuManager.sol\":7416:7433  menuItemIdList[i] */\n      and\n      dup2\n      sload\n      dup2\n      lt\n      tag_185\n      jumpi\n      tag_185\n      tag_151\n      jump\t// in\n    tag_185:\n      0x00\n      swap2\n      dup3\n      mstore\n      0x20\n      dup1\n      dup4\n      keccak256\n      0x02\n      dup4\n      div\n      add\n      sload\n      sub(shl(0x80, 0x01), 0x01)\n        /* \"contracts/MenuManager.sol\":7454:7477  menuItems[restaurantId] */\n      dup12\n      dup2\n      and\n      dup6\n      mstore\n      dup5\n      dup4\n      mstore\n      0x40\n      dup1\n      dup7\n      keccak256\n        /* \"contracts/MenuManager.sol\":7416:7433  menuItemIdList[i] */\n      0x01\n      swap1\n      swap6\n      and\n      0x10\n      mul\n      0x0100\n      exp\n      swap1\n      swap3\n      div\n      dup2\n      and\n        /* \"contracts/MenuManager.sol\":7454:7492  menuItems[restaurantId][currentMenuId] */\n      dup1\n      dup7\n      mstore\n      swap4\n      swap1\n      swap3\n      mstore\n      swap1\n      swap3\n      keccak256\n        /* \"contracts/MenuManager.sol\":7454:7495  menuItems[restaurantId][currentMenuId].id */\n      sload\n        /* \"contracts/MenuManager.sol\":7416:7433  menuItemIdList[i] */\n      swap1\n      swap3\n      pop\n        /* \"contracts/MenuManager.sol\":7454:7495  menuItems[restaurantId][currentMenuId].id */\n      and\n        /* \"contracts/MenuManager.sol\":7454:7500  menuItems[restaurantId][currentMenuId].id != 0 */\n      iszero\n        /* \"contracts/MenuManager.sol\":7450:7608  if (menuItems[restaurantId][currentMenuId].id != 0) {... */\n      tag_187\n      jumpi\n      sub(shl(0x80, 0x01), 0x01)\n        /* \"contracts/MenuManager.sol\":7532:7555  menuItems[restaurantId] */\n      dup1\n      dup9\n      and\n        /* \"contracts/MenuManager.sol\":7532:7541  menuItems */\n      0x00\n        /* \"contracts/MenuManager.sol\":7532:7555  menuItems[restaurantId] */\n      swap1\n      dup2\n      mstore\n      0x20\n      dup2\n      dup2\n      mstore\n      0x40\n      dup1\n      dup4\n      keccak256\n        /* \"contracts/MenuManager.sol\":7532:7570  menuItems[restaurantId][currentMenuId] */\n      dup6\n      dup6\n      and\n      dup5\n      mstore\n      dup3\n      mstore\n      swap2\n      dup3\n      swap1\n      keccak256\n        /* \"contracts/MenuManager.sol\":7521:7570  items[i] = menuItems[restaurantId][currentMenuId] */\n      dup3\n      mload\n      0x0180\n      dup2\n      add\n      dup5\n      mstore\n      dup2\n      sload\n      dup1\n      dup7\n      and\n      dup3\n      mstore\n      shl(0x80, 0x01)\n      swap1\n      div\n      swap1\n      swap5\n      and\n      swap2\n      dup5\n      add\n      swap2\n      swap1\n      swap2\n      mstore\n      0x01\n      dup2\n      add\n      dup1\n      sload\n        /* \"contracts/MenuManager.sol\":7532:7570  menuItems[restaurantId][currentMenuId] */\n      swap2\n      swap3\n        /* \"contracts/MenuManager.sol\":7521:7570  items[i] = menuItems[restaurantId][currentMenuId] */\n      dup5\n      add\n      swap2\n      tag_188\n      swap1\n      tag_77\n      jump\t// in\n    tag_188:\n      dup1\n      0x1f\n      add\n      0x20\n      dup1\n      swap2\n      div\n      mul\n      0x20\n      add\n      mload(0x40)\n      swap1\n      dup2\n      add\n      0x40\n      mstore\n      dup1\n      swap3\n      swap2\n      swap1\n      dup2\n      dup2\n      mstore\n      0x20\n      add\n      dup3\n      dup1\n      sload\n      tag_189\n      swap1\n      tag_77\n      jump\t// in\n    tag_189:\n      dup1\n      iszero\n      tag_190\n      jumpi\n      dup1\n      0x1f\n      lt\n      tag_191\n      jumpi\n      0x0100\n      dup1\n      dup4\n      sload\n      div\n      mul\n      dup4\n      mstore\n      swap2\n      0x20\n      add\n      swap2\n      jump(tag_190)\n    tag_191:\n      dup3\n      add\n      swap2\n      swap1\n      0x00\n      mstore\n      keccak256(0x00, 0x20)\n      swap1\n    tag_192:\n      dup2\n      sload\n      dup2\n      mstore\n      swap1\n      0x01\n      add\n      swap1\n      0x20\n      add\n      dup1\n      dup4\n      gt\n      tag_192\n      jumpi\n      dup3\n      swap1\n      sub\n      0x1f\n      and\n      dup3\n      add\n      swap2\n    tag_190:\n      pop\n      pop\n      pop\n      pop\n      pop\n      dup2\n      mstore\n      0x20\n      add\n      0x02\n      dup3\n      add\n      dup1\n      sload\n      tag_193\n      swap1\n      tag_77\n      jump\t// in\n    tag_193:\n      dup1\n      0x1f\n      add\n      0x20\n      dup1\n      swap2\n      div\n      mul\n      0x20\n      add\n      mload(0x40)\n      swap1\n      dup2\n      add\n      0x40\n      mstore\n      dup1\n      swap3\n      swap2\n      swap1\n      dup2\n      dup2\n      mstore\n      0x20\n      add\n      dup3\n      dup1\n      sload\n      tag_194\n      swap1\n      tag_77\n      jump\t// in\n    tag_194:\n      dup1\n      iszero\n      tag_195\n      jumpi\n      dup1\n      0x1f\n      lt\n      tag_196\n      jumpi\n      0x0100\n      dup1\n      dup4\n      sload\n      div\n      mul\n      dup4\n      mstore\n      swap2\n      0x20\n      add\n      swap2\n      jump(tag_195)\n    tag_196:\n      dup3\n      add\n      swap2\n      swap1\n      0x00\n      mstore\n      keccak256(0x00, 0x20)\n      swap1\n    tag_197:\n      dup2\n      sload\n      dup2\n      mstore\n      swap1\n      0x01\n      add\n      swap1\n      0x20\n      add\n      dup1\n      dup4\n      gt\n      tag_197\n      jumpi\n      dup3\n      swap1\n      sub\n      0x1f\n      and\n      dup3\n      add\n      swap2\n    tag_195:\n      pop\n      pop\n      pop\n      pop\n      pop\n      dup2\n      mstore\n      0x20\n      add\n      0x03\n      dup3\n      add\n      dup1\n      sload\n      tag_198\n      swap1\n      tag_77\n      jump\t// in\n    tag_198:\n      dup1\n      0x1f\n      add\n      0x20\n      dup1\n      swap2\n      div\n      mul\n      0x20\n      add\n      mload(0x40)\n      swap1\n      dup2\n      add\n      0x40\n      mstore\n      dup1\n      swap3\n      swap2\n      swap1\n      dup2\n      dup2\n      mstore\n      0x20\n      add\n      dup3\n      dup1\n      sload\n      tag_199\n      swap1\n      tag_77\n      jump\t// in\n    tag_199:\n      dup1\n      iszero\n      tag_200\n      jumpi\n      dup1\n      0x1f\n      lt\n      tag_201\n      jumpi\n      0x0100\n      dup1\n      dup4\n      sload\n      div\n      mul\n      dup4\n      mstore\n      swap2\n      0x20\n      add\n      swap2\n      jump(tag_200)\n    tag_201:\n      dup3\n      add\n      swap2\n      swap1\n      0x00\n      mstore\n      keccak256(0x00, 0x20)\n      swap1\n    tag_202:\n      dup2\n      sload\n      dup2\n      mstore\n      swap1\n      0x01\n      add\n      swap1\n      0x20\n      add\n      dup1\n      dup4\n      gt\n      tag_202\n      jumpi\n      dup3\n      swap1\n      sub\n      0x1f\n      and\n      dup3\n      add\n      swap2\n    tag_200:\n      pop\n      pop\n      pop\n      swap2\n      dup4\n      mstore\n      pop\n      pop\n      0x04\n      dup3\n      add\n      sload\n      sub(shl(0x80, 0x01), 0x01)\n      dup2\n      and\n      0x20\n      dup4\n      add\n      mstore\n      shl(0x80, 0x01)\n      swap1\n      div\n      0xff\n      and\n      iszero\n      iszero\n      0x40\n      dup3\n      add\n      mstore\n      0x05\n      dup3\n      add\n      dup1\n      sload\n      0x60\n      swap1\n      swap3\n      add\n      swap2\n      tag_203\n      swap1\n      tag_77\n      jump\t// in\n    tag_203:\n      dup1\n      0x1f\n      add\n      0x20\n      dup1\n      swap2\n      div\n      mul\n      0x20\n      add\n      mload(0x40)\n      swap1\n      dup2\n      add\n      0x40\n      mstore\n      dup1\n      swap3\n      swap2\n      swap1\n      dup2\n      dup2\n      mstore\n      0x20\n      add\n      dup3\n      dup1\n      sload\n      tag_204\n      swap1\n      tag_77\n      jump\t// in\n    tag_204:\n      dup1\n      iszero\n      tag_205\n      jumpi\n      dup1\n      0x1f\n      lt\n      tag_206\n      jumpi\n      0x0100\n      dup1\n      dup4\n      sload\n      div\n      mul\n      dup4\n      mstore\n      swap2\n      0x20\n      add\n      swap2\n      jump(tag_205)\n    tag_206:\n      dup3\n      add\n      swap2\n      swap1\n      0x00\n      mstore\n      keccak256(0x00, 0x20)\n      swap1\n    tag_207:\n      dup2\n      sload\n      dup2\n      mstore\n      swap1\n      0x01\n      add\n      swap1\n      0x20\n      add\n      dup1\n      dup4\n      gt\n      tag_207\n      jumpi\n      dup3\n      swap1\n      sub\n      0x1f\n      and\n      dup3\n      add\n      swap2\n    tag_205:\n      pop\n      pop\n      pop\n      pop\n      pop\n      dup2\n      mstore\n      0x20\n      add\n      0x06\n      dup3\n      add\n      dup1\n      sload\n      tag_208\n      swap1\n      tag_77\n      jump\t// in\n    tag_208:\n      dup1\n      0x1f\n      add\n      0x20\n      dup1\n      swap2\n      div\n      mul\n      0x20\n      add\n      mload(0x40)\n      swap1\n      dup2\n      add\n      0x40\n      mstore\n      dup1\n      swap3\n      swap2\n      swap1\n      dup2\n      dup2\n      mstore\n      0x20\n      add\n      dup3\n      dup1\n      sload\n      tag_209\n      swap1\n      tag_77\n      jump\t// in\n    tag_209:\n      dup1\n      iszero\n      tag_210\n      jumpi\n      dup1\n      0x1f\n      lt\n      tag_211\n      jumpi\n      0x0100\n      dup1\n      dup4\n      sload\n      div\n      mul\n      dup4\n      mstore\n      swap2\n      0x20\n      add\n      swap2\n      jump(tag_210)\n    tag_211:\n      dup3\n      add\n      swap2\n      swap1\n      0x00\n      mstore\n      keccak256(0x00, 0x20)\n      swap1\n    tag_212:\n      dup2\n      sload\n      dup2\n      mstore\n      swap1\n      0x01\n      add\n      swap1\n      0x20\n      add\n      dup1\n      dup4\n      gt\n      tag_212\n      jumpi\n      dup3\n      swap1\n      sub\n      0x1f\n      and\n      dup3\n      add\n      swap2\n    tag_210:\n      pop\n      pop\n      pop\n      swap2\n      dup4\n      mstore\n      pop\n      pop\n      0x07\n      dup3\n      add\n      sload\n      sub(shl(0x80, 0x01), 0x01)\n      dup1\n      dup3\n      and\n      0x20\n      dup5\n      add\n      mstore\n      shl(0x80, 0x01)\n      swap1\n      swap2\n      div\n      dup2\n      and\n      0x40\n      dup4\n      add\n      mstore\n      0x08\n      swap1\n      swap3\n      add\n      sload\n      dup3\n      and\n      0x60\n      swap1\n      swap2\n      add\n      mstore\n        /* \"contracts/MenuManager.sol\":7521:7529  items[i] */\n      dup5\n      mload\n        /* \"contracts/MenuManager.sol\":7521:7526  items */\n      dup6\n      swap2\n        /* \"contracts/MenuManager.sol\":7521:7529  items[i] */\n      dup6\n      and\n      swap1\n      dup2\n      lt\n      tag_214\n      jumpi\n      tag_214\n      tag_151\n      jump\t// in\n    tag_214:\n      0x20\n      mul\n      0x20\n      add\n      add\n        /* \"contracts/MenuManager.sol\":7521:7570  items[i] = menuItems[restaurantId][currentMenuId] */\n      dup2\n      swap1\n      mstore\n      pop\n        /* \"contracts/MenuManager.sol\":7450:7608  if (menuItems[restaurantId][currentMenuId].id != 0) {... */\n    tag_187:\n      pop\n        /* \"contracts/MenuManager.sol\":7372:7375  i++ */\n      dup1\n      tag_216\n      dup2\n      tag_217\n      jump\t// in\n    tag_216:\n      swap2\n      pop\n      pop\n        /* \"contracts/MenuManager.sol\":7341:7619  for (uint128 i = 0; i < count; i++) {... */\n      jump(tag_181)\n        /* \"contracts/MenuManager.sol\":7657:8059  function getMenuItemIdsByRestaurant(uint128 restaurantId) external view override returns (uint128[] memory) {... */\n    tag_48:\n      sub(shl(0x80, 0x01), 0x01)\n        /* \"contracts/MenuManager.sol\":7807:7842  restaurantMenuItemIds[restaurantId] */\n      dup2\n      and\n        /* \"contracts/MenuManager.sol\":7776:7804  uint128[] storage idsStorage */\n      0x00\n        /* \"contracts/MenuManager.sol\":7807:7842  restaurantMenuItemIds[restaurantId] */\n      swap1\n      dup2\n      mstore\n        /* \"contracts/MenuManager.sol\":7807:7828  restaurantMenuItemIds */\n      0x02\n        /* \"contracts/MenuManager.sol\":7807:7842  restaurantMenuItemIds[restaurantId] */\n      0x20\n      mstore\n      0x40\n      dup2\n      keccak256\n        /* \"contracts/MenuManager.sol\":7896:7913  idsStorage.length */\n      dup1\n      sload\n        /* \"contracts/MenuManager.sol\":7747:7763  uint128[] memory */\n      0x60\n      swap3\n        /* \"contracts/MenuManager.sol\":7776:7804  uint128[] storage idsStorage */\n      swap1\n      sub(shl(0x40, 0x01), 0x01)\n        /* \"contracts/MenuManager.sol\":7882:7914  new uint128[](idsStorage.length) */\n      dup2\n      gt\n      iszero\n      tag_220\n      jumpi\n      tag_220\n      tag_172\n      jump\t// in\n    tag_220:\n      mload(0x40)\n      swap1\n      dup1\n      dup3\n      mstore\n      dup1\n      0x20\n      mul\n      0x20\n      add\n      dup3\n      add\n      0x40\n      mstore\n      dup1\n      iszero\n      tag_221\n      jumpi\n      dup2\n      0x20\n      add\n      0x20\n      dup3\n      mul\n      dup1\n      calldatasize\n      dup4\n      calldatacopy\n      add\n      swap1\n      pop\n    tag_221:\n      pop\n        /* \"contracts/MenuManager.sol\":7853:7914  uint128[] memory idsMemory = new uint128[](idsStorage.length) */\n      swap1\n      pop\n        /* \"contracts/MenuManager.sol\":7930:7936  uint i */\n      0x00\n        /* \"contracts/MenuManager.sol\":7925:8025  for (uint i = 0; i < idsStorage.length; i++) {... */\n    tag_222:\n        /* \"contracts/MenuManager.sol\":7946:7963  idsStorage.length */\n      dup3\n      sload\n        /* \"contracts/MenuManager.sol\":7942:7963  i < idsStorage.length */\n      dup2\n      lt\n        /* \"contracts/MenuManager.sol\":7925:8025  for (uint i = 0; i < idsStorage.length; i++) {... */\n      iszero\n      tag_223\n      jumpi\n        /* \"contracts/MenuManager.sol\":8000:8010  idsStorage */\n      dup3\n        /* \"contracts/MenuManager.sol\":8011:8012  i */\n      dup2\n        /* \"contracts/MenuManager.sol\":8000:8013  idsStorage[i] */\n      dup2\n      sload\n      dup2\n      lt\n      tag_226\n      jumpi\n      tag_226\n      tag_151\n      jump\t// in\n    tag_226:\n      swap1\n      0x00\n      mstore\n      keccak256(0x00, 0x20)\n      swap1\n      0x02\n      swap2\n      dup3\n      dup3\n      div\n      add\n      swap2\n      swap1\n      mod\n      0x10\n      mul\n      swap1\n      sload\n      swap1\n      0x0100\n      exp\n      swap1\n      div\n      sub(shl(0x80, 0x01), 0x01)\n      and\n        /* \"contracts/MenuManager.sol\":7985:7994  idsMemory */\n      dup3\n        /* \"contracts/MenuManager.sol\":7995:7996  i */\n      dup3\n        /* \"contracts/MenuManager.sol\":7985:7997  idsMemory[i] */\n      dup2\n      mload\n      dup2\n      lt\n      tag_229\n      jumpi\n      tag_229\n      tag_151\n      jump\t// in\n    tag_229:\n      sub(shl(0x80, 0x01), 0x01)\n        /* \"contracts/MenuManager.sol\":7985:8013  idsMemory[i] = idsStorage[i] */\n      swap1\n      swap3\n      and\n        /* \"contracts/MenuManager.sol\":7985:7997  idsMemory[i] */\n      0x20\n      swap3\n      dup4\n      mul\n      swap2\n      swap1\n      swap2\n      add\n      swap1\n      swap2\n      add\n        /* \"contracts/MenuManager.sol\":7985:8013  idsMemory[i] = idsStorage[i] */\n      mstore\n        /* \"contracts/MenuManager.sol\":7965:7968  i++ */\n      0x01\n      add\n        /* \"contracts/MenuManager.sol\":7925:8025  for (uint i = 0; i < idsStorage.length; i++) {... */\n      jump(tag_222)\n    tag_223:\n      pop\n        /* \"contracts/MenuManager.sol\":8042:8051  idsMemory */\n      swap4\n        /* \"contracts/MenuManager.sol\":7657:8059  function getMenuItemIdsByRestaurant(uint128 restaurantId) external view override returns (uint128[] memory) {... */\n      swap3\n      pop\n      pop\n      pop\n      jump\t// out\n        /* \"@openzeppelin/contracts-upgradeable/access/OwnableUpgradeable.sol\":3155:3256  function renounceOwnership() public virtual onlyOwner {... */\n    tag_52:\n        /* \"@openzeppelin/contracts-upgradeable/access/OwnableUpgradeable.sol\":2334:2347  _checkOwner() */\n      tag_231\n        /* \"@openzeppelin/contracts-upgradeable/access/OwnableUpgradeable.sol\":2334:2345  _checkOwner */\n      tag_232\n        /* \"@openzeppelin/contracts-upgradeable/access/OwnableUpgradeable.sol\":2334:2347  _checkOwner() */\n      jump\t// in\n    tag_231:\n        /* \"@openzeppelin/contracts-upgradeable/access/OwnableUpgradeable.sol\":3219:3249  _transferOwnership(address(0)) */\n      tag_234\n        /* \"@openzeppelin/contracts-upgradeable/access/OwnableUpgradeable.sol\":3246:3247  0 */\n      0x00\n        /* \"@openzeppelin/contracts-upgradeable/access/OwnableUpgradeable.sol\":3219:3237  _transferOwnership */\n      tag_235\n        /* \"@openzeppelin/contracts-upgradeable/access/OwnableUpgradeable.sol\":3219:3249  _transferOwnership(address(0)) */\n      jump\t// in\n    tag_234:\n        /* \"@openzeppelin/contracts-upgradeable/access/OwnableUpgradeable.sol\":3155:3256  function renounceOwnership() public virtual onlyOwner {... */\n      jump\t// out\n        /* \"contracts/MenuManager.sol\":282:347  mapping(uint128 => mapping(uint128 => MenuItem)) public menuItems */\n    tag_55:\n      0x00\n      0x20\n      dup2\n      dup2\n      mstore\n      swap3\n      dup2\n      mstore\n      0x40\n      dup1\n      dup3\n      keccak256\n      swap1\n      swap4\n      mstore\n      swap1\n      dup2\n      mstore\n      keccak256\n      dup1\n      sload\n      0x01\n      dup3\n      add\n      dup1\n      sload\n      sub(shl(0x80, 0x01), 0x01)\n      dup1\n      dup5\n      and\n      swap5\n      shl(0x80, 0x01)\n      swap1\n      swap5\n      div\n      and\n      swap3\n      swap2\n      swap1\n      tag_236\n      swap1\n      tag_77\n      jump\t// in\n    tag_236:\n      dup1\n      0x1f\n      add\n      0x20\n      dup1\n      swap2\n      div\n      mul\n      0x20\n      add\n      mload(0x40)\n      swap1\n      dup2\n      add\n      0x40\n      mstore\n      dup1\n      swap3\n      swap2\n      swap1\n      dup2\n      dup2\n      mstore\n      0x20\n      add\n      dup3\n      dup1\n      sload\n      tag_237\n      swap1\n      tag_77\n      jump\t// in\n    tag_237:\n      dup1\n      iszero\n      tag_238\n      jumpi\n      dup1\n      0x1f\n      lt\n      tag_239\n      jumpi\n      0x0100\n      dup1\n      dup4\n      sload\n      div\n      mul\n      dup4\n      mstore\n      swap2\n      0x20\n      add\n      swap2\n      jump(tag_238)\n    tag_239:\n      dup3\n      add\n      swap2\n      swap1\n      0x00\n      mstore\n      keccak256(0x00, 0x20)\n      swap1\n    tag_240:\n      dup2\n      sload\n      dup2\n      mstore\n      swap1\n      0x01\n      add\n      swap1\n      0x20\n      add\n      dup1\n      dup4\n      gt\n      tag_240\n      jumpi\n      dup3\n      swap1\n      sub\n      0x1f\n      and\n      dup3\n      add\n      swap2\n    tag_238:\n      pop\n      pop\n      pop\n      pop\n      pop\n      swap1\n      dup1\n      0x02\n      add\n      dup1\n      sload\n      tag_241\n      swap1\n      tag_77\n      jump\t// in\n    tag_241:\n      dup1\n      0x1f\n      add\n      0x20\n      dup1\n      swap2\n      div\n      mul\n      0x20\n      add\n      mload(0x40)\n      swap1\n      dup2\n      add\n      0x40\n      mstore\n      dup1\n      swap3\n      swap2\n      swap1\n      dup2\n      dup2\n      mstore\n      0x20\n      add\n      dup3\n      dup1\n      sload\n      tag_242\n      swap1\n      tag_77\n      jump\t// in\n    tag_242:\n      dup1\n      iszero\n      tag_243\n      jumpi\n      dup1\n      0x1f\n      lt\n      tag_244\n      jumpi\n      0x0100\n      dup1\n      dup4\n      sload\n      div\n      mul\n      dup4\n      mstore\n      swap2\n      0x20\n      add\n      swap2\n      jump(tag_243)\n    tag_244:\n      dup3\n      add\n      swap2\n      swap1\n      0x00\n      mstore\n      keccak256(0x00, 0x20)\n      swap1\n    tag_245:\n      dup2\n      sload\n      dup2\n      mstore\n      swap1\n      0x01\n      add\n      swap1\n      0x20\n      add\n      dup1\n      dup4\n      gt\n      tag_245\n      jumpi\n      dup3\n      swap1\n      sub\n      0x1f\n      and\n      dup3\n      add\n      swap2\n    tag_243:\n      pop\n      pop\n      pop\n      pop\n      pop\n      swap1\n      dup1\n      0x03\n      add\n      dup1\n      sload\n      tag_246\n      swap1\n      tag_77\n      jump\t// in\n    tag_246:\n      dup1\n      0x1f\n      add\n      0x20\n      dup1\n      swap2\n      div\n      mul\n      0x20\n      add\n      mload(0x40)\n      swap1\n      dup2\n      add\n      0x40\n      mstore\n      dup1\n      swap3\n      swap2\n      swap1\n      dup2\n      dup2\n      mstore\n      0x20\n      add\n      dup3\n      dup1\n      sload\n      tag_247\n      swap1\n      tag_77\n      jump\t// in\n    tag_247:\n      dup1\n      iszero\n      tag_248\n      jumpi\n      dup1\n      0x1f\n      lt\n      tag_249\n      jumpi\n      0x0100\n      dup1\n      dup4\n      sload\n      div\n      mul\n      dup4\n      mstore\n      swap2\n      0x20\n      add\n      swap2\n      jump(tag_248)\n    tag_249:\n      dup3\n      add\n      swap2\n      swap1\n      0x00\n      mstore\n      keccak256(0x00, 0x20)\n      swap1\n    tag_250:\n      dup2\n      sload\n      dup2\n      mstore\n      swap1\n      0x01\n      add\n      swap1\n      0x20\n      add\n      dup1\n      dup4\n      gt\n      tag_250\n      jumpi\n      dup3\n      swap1\n      sub\n      0x1f\n      and\n      dup3\n      add\n      swap2\n    tag_248:\n      pop\n      pop\n      pop\n      pop\n      0x04\n      dup4\n      add\n      sload\n      0x05\n      dup5\n      add\n      dup1\n      sload\n      swap4\n      swap5\n      sub(shl(0x80, 0x01), 0x01)\n      dup4\n      and\n      swap5\n      shl(0x80, 0x01)\n      swap1\n      swap4\n      div\n      0xff\n      and\n      swap4\n      pop\n      swap2\n      tag_251\n      swap1\n      tag_77\n      jump\t// in\n    tag_251:\n      dup1\n      0x1f\n      add\n      0x20\n      dup1\n      swap2\n      div\n      mul\n      0x20\n      add\n      mload(0x40)\n      swap1\n      dup2\n      add\n      0x40\n      mstore\n      dup1\n      swap3\n      swap2\n      swap1\n      dup2\n      dup2\n      mstore\n      0x20\n      add\n      dup3\n      dup1\n      sload\n      tag_252\n      swap1\n      tag_77\n      jump\t// in\n    tag_252:\n      dup1\n      iszero\n      tag_253\n      jumpi\n      dup1\n      0x1f\n      lt\n      tag_254\n      jumpi\n      0x0100\n      dup1\n      dup4\n      sload\n      div\n      mul\n      dup4\n      mstore\n      swap2\n      0x20\n      add\n      swap2\n      jump(tag_253)\n    tag_254:\n      dup3\n      add\n      swap2\n      swap1\n      0x00\n      mstore\n      keccak256(0x00, 0x20)\n      swap1\n    tag_255:\n      dup2\n      sload\n      dup2\n      mstore\n      swap1\n      0x01\n      add\n      swap1\n      0x20\n      add\n      dup1\n      dup4\n      gt\n      tag_255\n      jumpi\n      dup3\n      swap1\n      sub\n      0x1f\n      and\n      dup3\n      add\n      swap2\n    tag_253:\n      pop\n      pop\n      pop\n      pop\n      pop\n      swap1\n      dup1\n      0x06\n      add\n      dup1\n      sload\n      tag_256\n      swap1\n      tag_77\n      jump\t// in\n    tag_256:\n      dup1\n      0x1f\n      add\n      0x20\n      dup1\n      swap2\n      div\n      mul\n      0x20\n      add\n      mload(0x40)\n      swap1\n      dup2\n      add\n      0x40\n      mstore\n      dup1\n      swap3\n      swap2\n      swap1\n      dup2\n      dup2\n      mstore\n      0x20\n      add\n      dup3\n      dup1\n      sload\n      tag_257\n      swap1\n      tag_77\n      jump\t// in\n    tag_257:\n      dup1\n      iszero\n      tag_258\n      jumpi\n      dup1\n      0x1f\n      lt\n      tag_259\n      jumpi\n      0x0100\n      dup1\n      dup4\n      sload\n      div\n      mul\n      dup4\n      mstore\n      swap2\n      0x20\n      add\n      swap2\n      jump(tag_258)\n    tag_259:\n      dup3\n      add\n      swap2\n      swap1\n      0x00\n      mstore\n      keccak256(0x00, 0x20)\n      swap1\n    tag_260:\n      dup2\n      sload\n      dup2\n      mstore\n      swap1\n      0x01\n      add\n      swap1\n      0x20\n      add\n      dup1\n      dup4\n      gt\n      tag_260\n      jumpi\n      dup3\n      swap1\n      sub\n      0x1f\n      and\n      dup3\n      add\n      swap2\n    tag_258:\n      pop\n      pop\n      pop\n      pop\n      0x07\n      dup4\n      add\n      sload\n      0x08\n      swap1\n      swap4\n      add\n      sload\n      swap2\n      swap3\n      sub(shl(0x80, 0x01), 0x01)\n      dup1\n      dup3\n      and\n      swap4\n      shl(0x80, 0x01)\n      swap1\n      swap3\n      div\n      dup2\n      and\n      swap3\n      pop\n      and\n      dup13\n      jump\t// out\n        /* \"contracts/MenuManager.sol\":2025:3446  function addMenuItem(... */\n    tag_68:\n        /* \"contracts/MenuManager.sol\":1600:1622  foodAppContractAddress */\n      and(sub(shl(0xa0, 0x01), 0x01), sload(0x03))\n        /* \"contracts/MenuManager.sol\":1586:1596  msg.sender */\n      caller\n        /* \"contracts/MenuManager.sol\":1586:1622  msg.sender != foodAppContractAddress */\n      eq\n        /* \"contracts/MenuManager.sol\":1582:1656  if (msg.sender != foodAppContractAddress) revert MenuManager__NotFoodApp() */\n      tag_265\n      jumpi\n        /* \"contracts/MenuManager.sol\":1631:1656  MenuManager__NotFoodApp() */\n      mload(0x40)\n      shl(0xe4, 0x0a8784c1)\n      dup2\n      mstore\n      0x04\n      add\n      mload(0x40)\n      dup1\n      swap2\n      sub\n      swap1\n      revert\n        /* \"contracts/MenuManager.sol\":1582:1656  if (msg.sender != foodAppContractAddress) revert MenuManager__NotFoodApp() */\n    tag_265:\n        /* \"contracts/MenuManager.sol\":2403:2407  name */\n      dup7\n        /* \"contracts/MenuManager.sol\":2397:2415  bytes(name).length */\n      mload\n        /* \"contracts/MenuManager.sol\":2419:2420  0 */\n      0x00\n        /* \"contracts/MenuManager.sol\":2397:2420  bytes(name).length == 0 */\n      sub\n        /* \"contracts/MenuManager.sol\":2393:2456  if (bytes(name).length == 0) revert MenuManager__NameRequired() */\n      tag_267\n      jumpi\n        /* \"contracts/MenuManager.sol\":2429:2456  MenuManager__NameRequired() */\n      mload(0x40)\n      shl(0xe4, 0x0dc35617)\n      dup2\n      mstore\n      0x04\n      add\n      mload(0x40)\n      dup1\n      swap2\n      sub\n      swap1\n      revert\n        /* \"contracts/MenuManager.sol\":2393:2456  if (bytes(name).length == 0) revert MenuManager__NameRequired() */\n    tag_267:\n        /* \"contracts/MenuManager.sol\":2471:2476  price */\n      dup4\n      sub(shl(0x80, 0x01), 0x01)\n        /* \"contracts/MenuManager.sol\":2471:2481  price == 0 */\n      and\n        /* \"contracts/MenuManager.sol\":2480:2481  0 */\n      0x00\n        /* \"contracts/MenuManager.sol\":2471:2481  price == 0 */\n      sub\n        /* \"contracts/MenuManager.sol\":2467:2517  if (price == 0) revert MenuManager__InvalidPrice() */\n      tag_268\n      jumpi\n        /* \"contracts/MenuManager.sol\":2490:2517  MenuManager__InvalidPrice() */\n      mload(0x40)\n      shl(0xe2, 0x14315ecf)\n      dup2\n      mstore\n      0x04\n      add\n      mload(0x40)\n      dup1\n      swap2\n      sub\n      swap1\n      revert\n        /* \"contracts/MenuManager.sol\":2467:2517  if (price == 0) revert MenuManager__InvalidPrice() */\n    tag_268:\n      sub(shl(0x80, 0x01), 0x01)\n        /* \"contracts/MenuManager.sol\":2622:2647  nextMenuIds[restaurantId] */\n      dup1\n      dup10\n      and\n      0x00\n      swap1\n      dup2\n      mstore\n        /* \"contracts/MenuManager.sol\":2622:2633  nextMenuIds */\n      0x01\n        /* \"contracts/MenuManager.sol\":2622:2647  nextMenuIds[restaurantId] */\n      0x20\n      mstore\n      0x40\n      dup2\n      keccak256\n      sload\n      swap1\n      swap2\n      and\n        /* \"contracts/MenuManager.sol\":2622:2652  nextMenuIds[restaurantId] == 0 */\n      swap1\n      sub\n        /* \"contracts/MenuManager.sol\":2618:2711  if (nextMenuIds[restaurantId] == 0) { ... */\n      tag_269\n      jumpi\n      sub(shl(0x80, 0x01), 0x01)\n        /* \"contracts/MenuManager.sol\":2670:2695  nextMenuIds[restaurantId] */\n      dup9\n      and\n      0x00\n      swap1\n      dup2\n      mstore\n        /* \"contracts/MenuManager.sol\":2698:2699  1 */\n      0x01\n        /* \"contracts/MenuManager.sol\":2670:2695  nextMenuIds[restaurantId] */\n      0x20\n      dup2\n      swap1\n      mstore\n      0x40\n      swap1\n      swap2\n      keccak256\n        /* \"contracts/MenuManager.sol\":2670:2699  nextMenuIds[restaurantId] = 1 */\n      dup1\n      sload\n      not(sub(shl(0x80, 0x01), 0x01))\n      and\n      swap1\n      swap2\n      or\n      swap1\n      sstore\n        /* \"contracts/MenuManager.sol\":2618:2711  if (nextMenuIds[restaurantId] == 0) { ... */\n    tag_269:\n      sub(shl(0x80, 0x01), 0x01)\n        /* \"contracts/MenuManager.sol\":2738:2763  nextMenuIds[restaurantId] */\n      dup1\n      dup10\n      and\n        /* \"contracts/MenuManager.sol\":2721:2735  uint128 menuId */\n      0x00\n        /* \"contracts/MenuManager.sol\":2738:2763  nextMenuIds[restaurantId] */\n      swap1\n      dup2\n      mstore\n        /* \"contracts/MenuManager.sol\":2738:2749  nextMenuIds */\n      0x01\n        /* \"contracts/MenuManager.sol\":2738:2763  nextMenuIds[restaurantId] */\n      0x20\n      mstore\n      0x40\n      dup2\n      keccak256\n      dup1\n      sload\n      swap1\n      swap3\n      and\n      swap2\n      dup3\n      swap2\n        /* \"contracts/MenuManager.sol\":2774:2801  nextMenuIds[restaurantId]++ */\n      tag_270\n        /* \"contracts/MenuManager.sol\":2738:2763  nextMenuIds[restaurantId] */\n      dup4\n        /* \"contracts/MenuManager.sol\":2774:2801  nextMenuIds[restaurantId]++ */\n      tag_217\n      jump\t// in\n    tag_270:\n      swap2\n      swap1\n      0x0100\n      exp\n      dup2\n      sload\n      dup2\n      sub(shl(0x80, 0x01), 0x01)\n      mul\n      not\n      and\n      swap1\n      dup4\n      sub(shl(0x80, 0x01), 0x01)\n      and\n      mul\n      or\n      swap1\n      sstore\n      pop\n      pop\n        /* \"contracts/MenuManager.sol\":2848:3313  MenuItem({... */\n      mload(0x40)\n      dup1\n      0x0180\n      add\n      0x40\n      mstore\n      dup1\n        /* \"contracts/MenuManager.sol\":2876:2882  menuId */\n      dup3\n      sub(shl(0x80, 0x01), 0x01)\n        /* \"contracts/MenuManager.sol\":2848:3313  MenuItem({... */\n      and\n      dup2\n      mstore\n      0x20\n      add\n        /* \"contracts/MenuManager.sol\":2911:2923  restaurantId */\n      dup11\n      sub(shl(0x80, 0x01), 0x01)\n        /* \"contracts/MenuManager.sol\":2848:3313  MenuItem({... */\n      and\n      dup2\n      mstore\n      0x20\n      add\n        /* \"contracts/MenuManager.sol\":2944:2948  name */\n      dup10\n        /* \"contracts/MenuManager.sol\":2848:3313  MenuItem({... */\n      dup2\n      mstore\n      0x20\n      add\n        /* \"contracts/MenuManager.sol\":2974:2983  menuTitle */\n      dup9\n        /* \"contracts/MenuManager.sol\":2848:3313  MenuItem({... */\n      dup2\n      mstore\n      0x20\n      add\n        /* \"contracts/MenuManager.sol\":3008:3016  imageUrl */\n      dup8\n        /* \"contracts/MenuManager.sol\":2848:3313  MenuItem({... */\n      dup2\n      mstore\n      0x20\n      add\n        /* \"contracts/MenuManager.sol\":3038:3043  price */\n      dup7\n      sub(shl(0x80, 0x01), 0x01)\n        /* \"contracts/MenuManager.sol\":2848:3313  MenuItem({... */\n      and\n      dup2\n      mstore\n      0x20\n      add\n        /* \"contracts/MenuManager.sol\":3069:3073  true */\n      0x01\n        /* \"contracts/MenuManager.sol\":2848:3313  MenuItem({... */\n      iszero\n      iszero\n      dup2\n      mstore\n      0x20\n      add\n        /* \"contracts/MenuManager.sol\":3101:3112  description */\n      dup6\n        /* \"contracts/MenuManager.sol\":2848:3313  MenuItem({... */\n      dup2\n      mstore\n      0x20\n      add\n        /* \"contracts/MenuManager.sol\":3137:3145  category */\n      dup5\n        /* \"contracts/MenuManager.sol\":2848:3313  MenuItem({... */\n      dup2\n      mstore\n      0x20\n      add\n        /* \"contracts/MenuManager.sol\":3173:3174  0 */\n      0x00\n      sub(shl(0x80, 0x01), 0x01)\n        /* \"contracts/MenuManager.sol\":2848:3313  MenuItem({... */\n      and\n      dup2\n      mstore\n      0x20\n      add\n        /* \"contracts/MenuManager.sol\":3202:3203  0 */\n      0x00\n      sub(shl(0x80, 0x01), 0x01)\n        /* \"contracts/MenuManager.sol\":2848:3313  MenuItem({... */\n      and\n      dup2\n      mstore\n      0x20\n      add\n        /* \"contracts/MenuManager.sol\":3235:3250  preparationTime */\n      dup4\n      sub(shl(0x80, 0x01), 0x01)\n        /* \"contracts/MenuManager.sol\":2848:3313  MenuItem({... */\n      and\n      dup2\n      mstore\n      pop\n        /* \"contracts/MenuManager.sol\":2814:2823  menuItems */\n      0x00\n        /* \"contracts/MenuManager.sol\":2814:2837  menuItems[restaurantId] */\n      0x00\n        /* \"contracts/MenuManager.sol\":2824:2836  restaurantId */\n      dup12\n      sub(shl(0x80, 0x01), 0x01)\n        /* \"contracts/MenuManager.sol\":2814:2837  menuItems[restaurantId] */\n      and\n      sub(shl(0x80, 0x01), 0x01)\n      and\n      dup2\n      mstore\n      0x20\n      add\n      swap1\n      dup2\n      mstore\n      0x20\n      add\n      0x00\n      keccak256\n        /* \"contracts/MenuManager.sol\":2814:2845  menuItems[restaurantId][menuId] */\n      0x00\n        /* \"contracts/MenuManager.sol\":2838:2844  menuId */\n      dup4\n      sub(shl(0x80, 0x01), 0x01)\n        /* \"contracts/MenuManager.sol\":2814:2845  menuItems[restaurantId][menuId] */\n      and\n      sub(shl(0x80, 0x01), 0x01)\n      and\n      dup2\n      mstore\n      0x20\n      add\n      swap1\n      dup2\n      mstore\n      0x20\n      add\n      0x00\n      keccak256\n        /* \"contracts/MenuManager.sol\":2814:3313  menuItems[restaurantId][menuId] = MenuItem({... */\n      0x00\n      dup3\n      add\n      mload\n      dup2\n      0x00\n      add\n      exp(0x0100, 0x00)\n      dup2\n      sload\n      dup2\n      sub(shl(0x80, 0x01), 0x01)\n      mul\n      not\n      and\n      swap1\n      dup4\n      sub(shl(0x80, 0x01), 0x01)\n      and\n      mul\n      or\n      swap1\n      sstore\n      pop\n      0x20\n      dup3\n      add\n      mload\n      dup2\n      0x00\n      add\n      exp(0x0100, 0x10)\n      dup2\n      sload\n      dup2\n      sub(shl(0x80, 0x01), 0x01)\n      mul\n      not\n      and\n      swap1\n      dup4\n      sub(shl(0x80, 0x01), 0x01)\n      and\n      mul\n      or\n      swap1\n      sstore\n      pop\n      0x40\n      dup3\n      add\n      mload\n      dup2\n      0x01\n      add\n      swap1\n      dup2\n      tag_271\n      swap2\n      swap1\n      tag_113\n      jump\t// in\n    tag_271:\n      pop\n      0x60\n      dup3\n      add\n      mload\n      0x02\n      dup3\n      add\n      swap1\n      tag_272\n      swap1\n      dup3\n      tag_113\n      jump\t// in\n    tag_272:\n      pop\n      0x80\n      dup3\n      add\n      mload\n      0x03\n      dup3\n      add\n      swap1\n      tag_273\n      swap1\n      dup3\n      tag_113\n      jump\t// in\n    tag_273:\n      pop\n      0xa0\n      dup3\n      add\n      mload\n      0x04\n      dup3\n      add\n      dup1\n      sload\n      0xc0\n      dup6\n      add\n      mload\n      iszero\n      iszero\n      shl(0x80, 0x01)\n      mul\n      not(sub(shl(0x88, 0x01), 0x01))\n      swap1\n      swap2\n      and\n      sub(shl(0x80, 0x01), 0x01)\n      swap1\n      swap4\n      and\n      swap3\n      swap1\n      swap3\n      or\n      swap2\n      swap1\n      swap2\n      or\n      swap1\n      sstore\n      0xe0\n      dup3\n      add\n      mload\n      0x05\n      dup3\n      add\n      swap1\n      tag_274\n      swap1\n      dup3\n      tag_113\n      jump\t// in\n    tag_274:\n      pop\n      0x0100\n      dup3\n      add\n      mload\n      0x06\n      dup3\n      add\n      swap1\n      tag_275\n      swap1\n      dup3\n      tag_113\n      jump\t// in\n    tag_275:\n      pop\n      0x0120\n      dup3\n      add\n      mload\n      0x0140\n      dup4\n      add\n      mload\n      sub(shl(0x80, 0x01), 0x01)\n      swap1\n      dup2\n      and\n      shl(0x80, 0x01)\n      mul\n      swap2\n      dup2\n      and\n      swap2\n      swap1\n      swap2\n      or\n      0x07\n      dup4\n      add\n      sstore\n      0x0160\n      swap1\n      swap3\n      add\n      mload\n      0x08\n      swap1\n      swap2\n      add\n      dup1\n      sload\n      swap2\n      dup4\n      and\n      not(sub(shl(0x80, 0x01), 0x01))\n      swap3\n      swap1\n      swap3\n      and\n      swap2\n      swap1\n      swap2\n      or\n      swap1\n      sstore\n        /* \"contracts/MenuManager.sol\":3326:3361  restaurantMenuItemIds[restaurantId] */\n      dup10\n      dup2\n      and\n        /* \"contracts/MenuManager.sol\":2814:3313  menuItems[restaurantId][menuId] = MenuItem({... */\n      0x00\n        /* \"contracts/MenuManager.sol\":3326:3361  restaurantMenuItemIds[restaurantId] */\n      dup2\n      dup2\n      mstore\n        /* \"contracts/MenuManager.sol\":3326:3347  restaurantMenuItemIds */\n      0x02\n        /* \"contracts/MenuManager.sol\":3326:3361  restaurantMenuItemIds[restaurantId] */\n      0x20\n      dup2\n      dup2\n      mstore\n      0x40\n      dup1\n      dup5\n      keccak256\n        /* \"contracts/MenuManager.sol\":3326:3374  restaurantMenuItemIds[restaurantId].push(menuId) */\n      dup1\n      sload\n        /* \"contracts/MenuManager.sol\":2814:3313  menuItems[restaurantId][menuId] = MenuItem({... */\n      0x01\n        /* \"contracts/MenuManager.sol\":3326:3374  restaurantMenuItemIds[restaurantId].push(menuId) */\n      dup2\n      dup2\n      add\n      dup4\n      sstore\n      swap2\n      dup7\n      mstore\n      swap3\n      swap1\n      swap5\n      keccak256\n      swap3\n      dup3\n      div\n      swap1\n      swap3\n      add\n      dup1\n      sload\n      dup8\n      dup8\n      and\n      swap3\n      swap1\n      swap5\n      and\n        /* \"contracts/MenuManager.sol\":2814:3313  menuItems[restaurantId][menuId] = MenuItem({... */\n      0x10\n        /* \"contracts/MenuManager.sol\":3326:3374  restaurantMenuItemIds[restaurantId].push(menuId) */\n      mul\n        /* \"contracts/MenuManager.sol\":2814:3313  menuItems[restaurantId][menuId] = MenuItem({... */\n      0x0100\n        /* \"contracts/MenuManager.sol\":3326:3374  restaurantMenuItemIds[restaurantId].push(menuId) */\n      exp\n      dup3\n      dup2\n      mul\n      swap7\n      mul\n      not\n      swap1\n      swap4\n      and\n      swap5\n      swap1\n      swap5\n      or\n      swap1\n      swap2\n      sstore\n        /* \"contracts/MenuManager.sol\":3390:3438  MenuItemAdded(restaurantId, menuId, name, price) */\n      mload\n      0x4b78e675e6619216a7d91d2dc26de2461bd1ffe2788087eb2ee126924517a00f\n      swap1\n      tag_277\n      swap1\n        /* \"contracts/MenuManager.sol\":3426:3430  name */\n      dup13\n      swap1\n        /* \"contracts/MenuManager.sol\":3432:3437  price */\n      dup11\n      swap1\n        /* \"contracts/MenuManager.sol\":3390:3438  MenuItemAdded(restaurantId, menuId, name, price) */\n      tag_278\n      jump\t// in\n    tag_277:\n      mload(0x40)\n      dup1\n      swap2\n      sub\n      swap1\n      log3\n        /* \"contracts/MenuManager.sol\":2382:3446  {... */\n      pop\n        /* \"contracts/MenuManager.sol\":2025:3446  function addMenuItem(... */\n      pop\n      pop\n      pop\n      pop\n      pop\n      pop\n      pop\n      pop\n      jump\t// out\n        /* \"@openzeppelin/contracts-upgradeable/access/OwnableUpgradeable.sol\":3405:3620  function transferOwnership(address newOwner) public virtual onlyOwner {... */\n    tag_72:\n        /* \"@openzeppelin/contracts-upgradeable/access/OwnableUpgradeable.sol\":2334:2347  _checkOwner() */\n      tag_280\n        /* \"@openzeppelin/contracts-upgradeable/access/OwnableUpgradeable.sol\":2334:2345  _checkOwner */\n      tag_232\n        /* \"@openzeppelin/contracts-upgradeable/access/OwnableUpgradeable.sol\":2334:2347  _checkOwner() */\n      jump\t// in\n    tag_280:\n      sub(shl(0xa0, 0x01), 0x01)\n        /* \"@openzeppelin/contracts-upgradeable/access/OwnableUpgradeable.sol\":3489:3511  newOwner == address(0) */\n      dup2\n      and\n        /* \"@openzeppelin/contracts-upgradeable/access/OwnableUpgradeable.sol\":3485:3576  if (newOwner == address(0)) {... */\n      tag_282\n      jumpi\n        /* \"@openzeppelin/contracts-upgradeable/access/OwnableUpgradeable.sol\":3534:3565  OwnableInvalidOwner(address(0)) */\n      mload(0x40)\n      shl(0xe0, 0x1e4fbdf7)\n      dup2\n      mstore\n        /* \"@openzeppelin/contracts-upgradeable/access/OwnableUpgradeable.sol\":3562:3563  0 */\n      0x00\n        /* \"@openzeppelin/contracts-upgradeable/access/OwnableUpgradeable.sol\":3534:3565  OwnableInvalidOwner(address(0)) */\n      0x04\n      dup3\n      add\n        /* \"#utility.yul\":9999:10050   */\n      mstore\n        /* \"#utility.yul\":9972:9990   */\n      0x24\n      add\n        /* \"@openzeppelin/contracts-upgradeable/access/OwnableUpgradeable.sol\":3534:3565  OwnableInvalidOwner(address(0)) */\n    tag_283:\n      mload(0x40)\n      dup1\n      swap2\n      sub\n      swap1\n      revert\n        /* \"@openzeppelin/contracts-upgradeable/access/OwnableUpgradeable.sol\":3485:3576  if (newOwner == address(0)) {... */\n    tag_282:\n        /* \"@openzeppelin/contracts-upgradeable/access/OwnableUpgradeable.sol\":3585:3613  _transferOwnership(newOwner) */\n      tag_284\n        /* \"@openzeppelin/contracts-upgradeable/access/OwnableUpgradeable.sol\":3604:3612  newOwner */\n      dup2\n        /* \"@openzeppelin/contracts-upgradeable/access/OwnableUpgradeable.sol\":3585:3603  _transferOwnership */\n      tag_235\n        /* \"@openzeppelin/contracts-upgradeable/access/OwnableUpgradeable.sol\":3585:3613  _transferOwnership(newOwner) */\n      jump\t// in\n    tag_284:\n        /* \"@openzeppelin/contracts-upgradeable/access/OwnableUpgradeable.sol\":3405:3620  function transferOwnership(address newOwner) public virtual onlyOwner {... */\n      pop\n      jump\t// out\n        /* \"@openzeppelin/contracts-upgradeable/proxy/utils/Initializable.sol\":9071:9276  function _getInitializableStorage() private pure returns (InitializableStorage storage $) {... */\n    tag_122:\n        /* \"@openzeppelin/contracts-upgradeable/proxy/utils/Initializable.sol\":9129:9159  InitializableStorage storage $ */\n      0x00\n      dup1\n        /* \"@openzeppelin/contracts-upgradeable/proxy/utils/Initializable.sol\":3147:3213  0xf0c57e16840df040f15088dc2f81fe391c3923bec73e23a9662efc9c229c6a00 */\n      0xf0c57e16840df040f15088dc2f81fe391c3923bec73e23a9662efc9c229c6a00\n        /* \"@openzeppelin/contracts-upgradeable/proxy/utils/Initializable.sol\":9186:9213  _initializableStorageSlot() */\n      tag_75\n        /* \"@openzeppelin/contracts-upgradeable/proxy/utils/Initializable.sol\":8819:8941  function _initializableStorageSlot() internal pure virtual returns (bytes32) {... */\n      jump\n        /* \"@openzeppelin/contracts-upgradeable/access/OwnableUpgradeable.sol\":1847:1974  function __Ownable_init(address initialOwner) internal onlyInitializing {... */\n    tag_132:\n        /* \"@openzeppelin/contracts-upgradeable/proxy/utils/Initializable.sol\":6929:6949  _checkInitializing() */\n      tag_289\n        /* \"@openzeppelin/contracts-upgradeable/proxy/utils/Initializable.sol\":6929:6947  _checkInitializing */\n      tag_290\n        /* \"@openzeppelin/contracts-upgradeable/proxy/utils/Initializable.sol\":6929:6949  _checkInitializing() */\n      jump\t// in\n    tag_289:\n        /* \"@openzeppelin/contracts-upgradeable/access/OwnableUpgradeable.sol\":1929:1967  __Ownable_init_unchained(initialOwner) */\n      tag_284\n        /* \"@openzeppelin/contracts-upgradeable/access/OwnableUpgradeable.sol\":1954:1966  initialOwner */\n      dup2\n        /* \"@openzeppelin/contracts-upgradeable/access/OwnableUpgradeable.sol\":1929:1953  __Ownable_init_unchained */\n      tag_293\n        /* \"@openzeppelin/contracts-upgradeable/access/OwnableUpgradeable.sol\":1929:1967  __Ownable_init_unchained(initialOwner) */\n      jump\t// in\n        /* \"@openzeppelin/contracts-upgradeable/access/OwnableUpgradeable.sol\":2658:2820  function _checkOwner() internal view virtual {... */\n    tag_232:\n        /* \"@openzeppelin/contracts-upgradeable/utils/ContextUpgradeable.sol\":966:976  msg.sender */\n      caller\n        /* \"@openzeppelin/contracts-upgradeable/access/OwnableUpgradeable.sol\":2717:2724  owner() */\n      tag_297\n        /* \"@openzeppelin/contracts-upgradeable/access/OwnableUpgradeable.sol\":1313:1335  OwnableStorageLocation */\n      0x9016d09d72d40fdae2fd8ceac6b6234c7706214fd39c1cd1e609a0528c199300\n        /* \"@openzeppelin/contracts-upgradeable/access/OwnableUpgradeable.sol\":2570:2578  $._owner */\n      sload\n      sub(shl(0xa0, 0x01), 0x01)\n      and\n      swap1\n        /* \"@openzeppelin/contracts-upgradeable/access/OwnableUpgradeable.sol\":2441:2585  function owner() public view virtual returns (address) {... */\n      jump\n        /* \"@openzeppelin/contracts-upgradeable/access/OwnableUpgradeable.sol\":2717:2724  owner() */\n    tag_297:\n      sub(shl(0xa0, 0x01), 0x01)\n        /* \"@openzeppelin/contracts-upgradeable/access/OwnableUpgradeable.sol\":2717:2740  owner() != _msgSender() */\n      and\n      eq\n        /* \"@openzeppelin/contracts-upgradeable/access/OwnableUpgradeable.sol\":2713:2814  if (owner() != _msgSender()) {... */\n      tag_234\n      jumpi\n        /* \"@openzeppelin/contracts-upgradeable/access/OwnableUpgradeable.sol\":2763:2803  OwnableUnauthorizedAccount(_msgSender()) */\n      mload(0x40)\n      shl(0xe0, 0x118cdaa7)\n      dup2\n      mstore\n        /* \"@openzeppelin/contracts-upgradeable/utils/ContextUpgradeable.sol\":966:976  msg.sender */\n      caller\n        /* \"@openzeppelin/contracts-upgradeable/access/OwnableUpgradeable.sol\":2763:2803  OwnableUnauthorizedAccount(_msgSender()) */\n      0x04\n      dup3\n      add\n        /* \"#utility.yul\":9999:10050   */\n      mstore\n        /* \"#utility.yul\":9972:9990   */\n      0x24\n      add\n        /* \"@openzeppelin/contracts-upgradeable/access/OwnableUpgradeable.sol\":2763:2803  OwnableUnauthorizedAccount(_msgSender()) */\n      tag_283\n        /* \"#utility.yul\":9853:10056   */\n      jump\n        /* \"@openzeppelin/contracts-upgradeable/access/OwnableUpgradeable.sol\":3774:4022  function _transferOwnership(address newOwner) internal virtual {... */\n    tag_235:\n        /* \"@openzeppelin/contracts-upgradeable/access/OwnableUpgradeable.sol\":1313:1335  OwnableStorageLocation */\n      0x9016d09d72d40fdae2fd8ceac6b6234c7706214fd39c1cd1e609a0528c199300\n        /* \"@openzeppelin/contracts-upgradeable/access/OwnableUpgradeable.sol\":3923:3931  $._owner */\n      dup1\n      sload\n      not(sub(shl(0xa0, 0x01), 0x01))\n        /* \"@openzeppelin/contracts-upgradeable/access/OwnableUpgradeable.sol\":3941:3960  $._owner = newOwner */\n      dup2\n      and\n      sub(shl(0xa0, 0x01), 0x01)\n      dup5\n      dup2\n      and\n      swap2\n      dup3\n      or\n      dup5\n      sstore\n        /* \"@openzeppelin/contracts-upgradeable/access/OwnableUpgradeable.sol\":3975:4015  OwnershipTransferred(oldOwner, newOwner) */\n      mload(0x40)\n        /* \"@openzeppelin/contracts-upgradeable/access/OwnableUpgradeable.sol\":3923:3931  $._owner */\n      swap3\n      and\n      swap2\n      dup3\n      swap1\n        /* \"@openzeppelin/contracts-upgradeable/access/OwnableUpgradeable.sol\":3975:4015  OwnershipTransferred(oldOwner, newOwner) */\n      0x8be0079c531659141344cd1fd0a4f28419497f9722a3daafe3b4186f6b6457e0\n      swap1\n        /* \"@openzeppelin/contracts-upgradeable/access/OwnableUpgradeable.sol\":3847:3871  OwnableStorage storage $ */\n      0x00\n      swap1\n        /* \"@openzeppelin/contracts-upgradeable/access/OwnableUpgradeable.sol\":3975:4015  OwnershipTransferred(oldOwner, newOwner) */\n      log3\n        /* \"@openzeppelin/contracts-upgradeable/access/OwnableUpgradeable.sol\":3837:4022  {... */\n      pop\n      pop\n        /* \"@openzeppelin/contracts-upgradeable/access/OwnableUpgradeable.sol\":3774:4022  function _transferOwnership(address newOwner) internal virtual {... */\n      pop\n      jump\t// out\n        /* \"@openzeppelin/contracts-upgradeable/proxy/utils/Initializable.sol\":7082:7223  function _checkInitializing() internal view virtual {... */\n    tag_290:\n        /* \"@openzeppelin/contracts-upgradeable/proxy/utils/Initializable.sol\":7149:7166  _isInitializing() */\n      tag_306\n        /* \"@openzeppelin/contracts-upgradeable/proxy/utils/Initializable.sol\":7149:7164  _isInitializing */\n      tag_307\n        /* \"@openzeppelin/contracts-upgradeable/proxy/utils/Initializable.sol\":7149:7166  _isInitializing() */\n      jump\t// in\n    tag_306:\n        /* \"@openzeppelin/contracts-upgradeable/proxy/utils/Initializable.sol\":7144:7217  if (!_isInitializing()) {... */\n      tag_234\n      jumpi\n        /* \"@openzeppelin/contracts-upgradeable/proxy/utils/Initializable.sol\":7189:7206  NotInitializing() */\n      mload(0x40)\n      shl(0xe3, 0x1afcd79f)\n      dup2\n      mstore\n      0x04\n      add\n      mload(0x40)\n      dup1\n      swap2\n      sub\n      swap1\n      revert\n        /* \"@openzeppelin/contracts-upgradeable/access/OwnableUpgradeable.sol\":1980:2215  function __Ownable_init_unchained(address initialOwner) internal onlyInitializing {... */\n    tag_293:\n        /* \"@openzeppelin/contracts-upgradeable/proxy/utils/Initializable.sol\":6929:6949  _checkInitializing() */\n      tag_280\n        /* \"@openzeppelin/contracts-upgradeable/proxy/utils/Initializable.sol\":6929:6947  _checkInitializing */\n      tag_290\n        /* \"@openzeppelin/contracts-upgradeable/proxy/utils/Initializable.sol\":6929:6949  _checkInitializing() */\n      jump\t// in\n        /* \"@openzeppelin/contracts-upgradeable/proxy/utils/Initializable.sol\":8485:8605  function _isInitializing() internal view returns (bool) {... */\n    tag_307:\n        /* \"@openzeppelin/contracts-upgradeable/proxy/utils/Initializable.sol\":8535:8539  bool */\n      0x00\n        /* \"@openzeppelin/contracts-upgradeable/proxy/utils/Initializable.sol\":8558:8584  _getInitializableStorage() */\n      tag_317\n        /* \"@openzeppelin/contracts-upgradeable/proxy/utils/Initializable.sol\":8558:8582  _getInitializableStorage */\n      tag_122\n        /* \"@openzeppelin/contracts-upgradeable/proxy/utils/Initializable.sol\":8558:8584  _getInitializableStorage() */\n      jump\t// in\n    tag_317:\n        /* \"@openzeppelin/contracts-upgradeable/proxy/utils/Initializable.sol\":8558:8598  _getInitializableStorage()._initializing */\n      sload\n      shl(0x40, 0x01)\n      swap1\n      div\n      0xff\n      and\n      swap2\n      swap1\n      pop\n        /* \"@openzeppelin/contracts-upgradeable/proxy/utils/Initializable.sol\":8485:8605  function _isInitializing() internal view returns (bool) {... */\n      jump\t// out\n    tag_74:\n      mload(0x40)\n      dup1\n      0x0180\n      add\n      0x40\n      mstore\n      dup1\n      and(sub(shl(0x80, 0x01), 0x01), 0x00)\n      dup2\n      mstore\n      0x20\n      add\n      and(sub(shl(0x80, 0x01), 0x01), 0x00)\n      dup2\n      mstore\n      0x20\n      add\n      0x60\n      dup2\n      mstore\n      0x20\n      add\n      0x60\n      dup2\n      mstore\n      0x20\n      add\n      0x60\n      dup2\n      mstore\n      0x20\n      add\n      and(sub(shl(0x80, 0x01), 0x01), 0x00)\n      dup2\n      mstore\n      0x20\n      add\n      iszero(iszero(0x00))\n      dup2\n      mstore\n      0x20\n      add\n      0x60\n      dup2\n      mstore\n      0x20\n      add\n      0x60\n      dup2\n      mstore\n      0x20\n      add\n      and(sub(shl(0x80, 0x01), 0x01), 0x00)\n      dup2\n      mstore\n      0x20\n      add\n      and(sub(shl(0x80, 0x01), 0x01), 0x00)\n      dup2\n      mstore\n      0x20\n      add\n      and(sub(shl(0x80, 0x01), 0x01), 0x00)\n      dup2\n      mstore\n      pop\n      swap1\n      jump\t// out\n    tag_141:\n      pop\n      dup1\n      sload\n      tag_318\n      swap1\n      tag_77\n      jump\t// in\n    tag_318:\n      0x00\n      dup3\n      sstore\n      dup1\n      0x1f\n      lt\n      tag_320\n      jumpi\n      pop\n      pop\n      jump\t// out\n    tag_320:\n      0x1f\n      add\n      0x20\n      swap1\n      div\n      swap1\n      0x00\n      mstore\n      keccak256(0x00, 0x20)\n      swap1\n      dup2\n      add\n      swap1\n      tag_284\n      swap2\n      swap1\n    tag_323:\n      dup1\n      dup3\n      gt\n      iszero\n      tag_324\n      jumpi\n      0x00\n      dup2\n      sstore\n      0x01\n      add\n      jump(tag_323)\n    tag_324:\n      pop\n      swap1\n      jump\t// out\n        /* \"#utility.yul\":14:202   */\n    tag_325:\n        /* \"#utility.yul\":82:102   */\n      dup1\n      calldataload\n      sub(shl(0x80, 0x01), 0x01)\n        /* \"#utility.yul\":131:177   */\n      dup2\n      and\n        /* \"#utility.yul\":121:178   */\n      dup2\n      eq\n        /* \"#utility.yul\":111:196   */\n      tag_340\n      jumpi\n        /* \"#utility.yul\":192:193   */\n      0x00\n        /* \"#utility.yul\":189:190   */\n      0x00\n        /* \"#utility.yul\":182:194   */\n      revert\n        /* \"#utility.yul\":111:196   */\n    tag_340:\n        /* \"#utility.yul\":14:202   */\n      swap2\n      swap1\n      pop\n      jump\t// out\n        /* \"#utility.yul\":207:467   */\n    tag_20:\n        /* \"#utility.yul\":275:281   */\n      0x00\n        /* \"#utility.yul\":283:289   */\n      0x00\n        /* \"#utility.yul\":336:338   */\n      0x40\n        /* \"#utility.yul\":324:333   */\n      dup4\n        /* \"#utility.yul\":315:322   */\n      dup6\n        /* \"#utility.yul\":311:334   */\n      sub\n        /* \"#utility.yul\":307:339   */\n      slt\n        /* \"#utility.yul\":304:356   */\n      iszero\n      tag_342\n      jumpi\n        /* \"#utility.yul\":352:353   */\n      0x00\n        /* \"#utility.yul\":349:350   */\n      0x00\n        /* \"#utility.yul\":342:354   */\n      revert\n        /* \"#utility.yul\":304:356   */\n    tag_342:\n        /* \"#utility.yul\":375:404   */\n      tag_343\n        /* \"#utility.yul\":394:403   */\n      dup4\n        /* \"#utility.yul\":375:404   */\n      tag_325\n      jump\t// in\n    tag_343:\n        /* \"#utility.yul\":365:404   */\n      swap2\n      pop\n        /* \"#utility.yul\":423:461   */\n      tag_344\n        /* \"#utility.yul\":457:459   */\n      0x20\n        /* \"#utility.yul\":446:455   */\n      dup5\n        /* \"#utility.yul\":442:460   */\n      add\n        /* \"#utility.yul\":423:461   */\n      tag_325\n      jump\t// in\n    tag_344:\n        /* \"#utility.yul\":413:461   */\n      swap1\n      pop\n        /* \"#utility.yul\":207:467   */\n      swap3\n      pop\n      swap3\n      swap1\n      pop\n      jump\t// out\n        /* \"#utility.yul\":596:885   */\n    tag_327:\n        /* \"#utility.yul\":638:641   */\n      0x00\n        /* \"#utility.yul\":676:681   */\n      dup2\n        /* \"#utility.yul\":670:682   */\n      mload\n        /* \"#utility.yul\":703:709   */\n      dup1\n        /* \"#utility.yul\":698:701   */\n      dup5\n        /* \"#utility.yul\":691:710   */\n      mstore\n        /* \"#utility.yul\":759:765   */\n      dup1\n        /* \"#utility.yul\":752:756   */\n      0x20\n        /* \"#utility.yul\":745:750   */\n      dup5\n        /* \"#utility.yul\":741:757   */\n      add\n        /* \"#utility.yul\":734:738   */\n      0x20\n        /* \"#utility.yul\":729:732   */\n      dup7\n        /* \"#utility.yul\":725:739   */\n      add\n        /* \"#utility.yul\":719:766   */\n      mcopy\n        /* \"#utility.yul\":811:812   */\n      0x00\n        /* \"#utility.yul\":804:808   */\n      0x20\n        /* \"#utility.yul\":795:801   */\n      dup3\n        /* \"#utility.yul\":790:793   */\n      dup7\n        /* \"#utility.yul\":786:802   */\n      add\n        /* \"#utility.yul\":782:809   */\n      add\n        /* \"#utility.yul\":775:813   */\n      mstore\n        /* \"#utility.yul\":874:878   */\n      0x20\n        /* \"#utility.yul\":867:869   */\n      0x1f\n        /* \"#utility.yul\":863:870   */\n      not\n        /* \"#utility.yul\":858:860   */\n      0x1f\n        /* \"#utility.yul\":850:856   */\n      dup4\n        /* \"#utility.yul\":846:861   */\n      add\n        /* \"#utility.yul\":842:871   */\n      and\n        /* \"#utility.yul\":837:840   */\n      dup6\n        /* \"#utility.yul\":833:872   */\n      add\n        /* \"#utility.yul\":829:879   */\n      add\n        /* \"#utility.yul\":822:879   */\n      swap2\n      pop\n      pop\n        /* \"#utility.yul\":596:885   */\n      swap3\n      swap2\n      pop\n      pop\n      jump\t// out\n        /* \"#utility.yul\":986:2638   */\n    tag_329:\n        /* \"#utility.yul\":1074:1086   */\n      dup1\n      mload\n      sub(shl(0x80, 0x01), 0x01)\n        /* \"#utility.yul\":538:584   */\n      and\n        /* \"#utility.yul\":526:585   */\n      dup3\n      mstore\n        /* \"#utility.yul\":1037:1040   */\n      0x00\n        /* \"#utility.yul\":1138:1142   */\n      0x20\n        /* \"#utility.yul\":1131:1136   */\n      dup3\n        /* \"#utility.yul\":1127:1143   */\n      add\n        /* \"#utility.yul\":1121:1144   */\n      mload\n        /* \"#utility.yul\":1153:1201   */\n      tag_350\n        /* \"#utility.yul\":1195:1199   */\n      0x20\n        /* \"#utility.yul\":1190:1193   */\n      dup6\n        /* \"#utility.yul\":1186:1200   */\n      add\n        /* \"#utility.yul\":1172:1184   */\n      dup3\n      sub(shl(0x80, 0x01), 0x01)\n        /* \"#utility.yul\":538:584   */\n      and\n        /* \"#utility.yul\":526:585   */\n      swap1\n      mstore\n        /* \"#utility.yul\":472:591   */\n      jump\n        /* \"#utility.yul\":1153:1201   */\n    tag_350:\n      pop\n        /* \"#utility.yul\":1249:1253   */\n      0x40\n        /* \"#utility.yul\":1242:1247   */\n      dup3\n        /* \"#utility.yul\":1238:1254   */\n      add\n        /* \"#utility.yul\":1232:1255   */\n      mload\n        /* \"#utility.yul\":1287:1293   */\n      0x0180\n        /* \"#utility.yul\":1280:1284   */\n      0x40\n        /* \"#utility.yul\":1275:1278   */\n      dup6\n        /* \"#utility.yul\":1271:1285   */\n      add\n        /* \"#utility.yul\":1264:1294   */\n      mstore\n        /* \"#utility.yul\":1315:1366   */\n      tag_351\n        /* \"#utility.yul\":1358:1364   */\n      0x0180\n        /* \"#utility.yul\":1353:1356   */\n      dup6\n        /* \"#utility.yul\":1349:1365   */\n      add\n        /* \"#utility.yul\":1333:1347   */\n      dup3\n        /* \"#utility.yul\":1315:1366   */\n      tag_327\n      jump\t// in\n    tag_351:\n        /* \"#utility.yul\":1303:1366   */\n      swap1\n      pop\n        /* \"#utility.yul\":1414:1418   */\n      0x60\n        /* \"#utility.yul\":1407:1412   */\n      dup4\n        /* \"#utility.yul\":1403:1419   */\n      add\n        /* \"#utility.yul\":1397:1420   */\n      mload\n        /* \"#utility.yul\":1462:1465   */\n      dup5\n        /* \"#utility.yul\":1456:1460   */\n      dup3\n        /* \"#utility.yul\":1452:1466   */\n      sub\n        /* \"#utility.yul\":1445:1449   */\n      0x60\n        /* \"#utility.yul\":1440:1443   */\n      dup7\n        /* \"#utility.yul\":1436:1450   */\n      add\n        /* \"#utility.yul\":1429:1467   */\n      mstore\n        /* \"#utility.yul\":1490:1529   */\n      tag_352\n        /* \"#utility.yul\":1524:1528   */\n      dup3\n        /* \"#utility.yul\":1508:1522   */\n      dup3\n        /* \"#utility.yul\":1490:1529   */\n      tag_327\n      jump\t// in\n    tag_352:\n        /* \"#utility.yul\":1476:1529   */\n      swap2\n      pop\n      pop\n        /* \"#utility.yul\":1577:1581   */\n      0x80\n        /* \"#utility.yul\":1570:1575   */\n      dup4\n        /* \"#utility.yul\":1566:1582   */\n      add\n        /* \"#utility.yul\":1560:1583   */\n      mload\n        /* \"#utility.yul\":1627:1630   */\n      dup5\n        /* \"#utility.yul\":1619:1625   */\n      dup3\n        /* \"#utility.yul\":1615:1631   */\n      sub\n        /* \"#utility.yul\":1608:1612   */\n      0x80\n        /* \"#utility.yul\":1603:1606   */\n      dup7\n        /* \"#utility.yul\":1599:1613   */\n      add\n        /* \"#utility.yul\":1592:1632   */\n      mstore\n        /* \"#utility.yul\":1655:1696   */\n      tag_353\n        /* \"#utility.yul\":1689:1695   */\n      dup3\n        /* \"#utility.yul\":1673:1687   */\n      dup3\n        /* \"#utility.yul\":1655:1696   */\n      tag_327\n      jump\t// in\n    tag_353:\n        /* \"#utility.yul\":1641:1696   */\n      swap2\n      pop\n      pop\n        /* \"#utility.yul\":1744:1748   */\n      0xa0\n        /* \"#utility.yul\":1737:1742   */\n      dup4\n        /* \"#utility.yul\":1733:1749   */\n      add\n        /* \"#utility.yul\":1727:1750   */\n      mload\n        /* \"#utility.yul\":1759:1809   */\n      tag_354\n        /* \"#utility.yul\":1803:1807   */\n      0xa0\n        /* \"#utility.yul\":1798:1801   */\n      dup7\n        /* \"#utility.yul\":1794:1808   */\n      add\n        /* \"#utility.yul\":1778:1792   */\n      dup3\n      sub(shl(0x80, 0x01), 0x01)\n        /* \"#utility.yul\":538:584   */\n      and\n        /* \"#utility.yul\":526:585   */\n      swap1\n      mstore\n        /* \"#utility.yul\":472:591   */\n      jump\n        /* \"#utility.yul\":1759:1809   */\n    tag_354:\n      pop\n        /* \"#utility.yul\":1857:1861   */\n      0xc0\n        /* \"#utility.yul\":1850:1855   */\n      dup4\n        /* \"#utility.yul\":1846:1862   */\n      add\n        /* \"#utility.yul\":1840:1863   */\n      mload\n        /* \"#utility.yul\":1872:1919   */\n      tag_355\n        /* \"#utility.yul\":1913:1917   */\n      0xc0\n        /* \"#utility.yul\":1908:1911   */\n      dup7\n        /* \"#utility.yul\":1904:1918   */\n      add\n        /* \"#utility.yul\":1888:1902   */\n      dup3\n        /* \"#utility.yul\":960:973   */\n      iszero\n        /* \"#utility.yul\":953:974   */\n      iszero\n        /* \"#utility.yul\":941:975   */\n      swap1\n      mstore\n        /* \"#utility.yul\":890:981   */\n      jump\n        /* \"#utility.yul\":1872:1919   */\n    tag_355:\n      pop\n        /* \"#utility.yul\":1967:1971   */\n      0xe0\n        /* \"#utility.yul\":1960:1965   */\n      dup4\n        /* \"#utility.yul\":1956:1972   */\n      add\n        /* \"#utility.yul\":1950:1973   */\n      mload\n        /* \"#utility.yul\":2017:2020   */\n      dup5\n        /* \"#utility.yul\":2009:2015   */\n      dup3\n        /* \"#utility.yul\":2005:2021   */\n      sub\n        /* \"#utility.yul\":1998:2002   */\n      0xe0\n        /* \"#utility.yul\":1993:1996   */\n      dup7\n        /* \"#utility.yul\":1989:2003   */\n      add\n        /* \"#utility.yul\":1982:2022   */\n      mstore\n        /* \"#utility.yul\":2045:2086   */\n      tag_356\n        /* \"#utility.yul\":2079:2085   */\n      dup3\n        /* \"#utility.yul\":2063:2077   */\n      dup3\n        /* \"#utility.yul\":2045:2086   */\n      tag_327\n      jump\t// in\n    tag_356:\n        /* \"#utility.yul\":2031:2086   */\n      swap2\n      pop\n      pop\n        /* \"#utility.yul\":2134:2140   */\n      0x0100\n        /* \"#utility.yul\":2127:2132   */\n      dup4\n        /* \"#utility.yul\":2123:2141   */\n      add\n        /* \"#utility.yul\":2117:2142   */\n      mload\n        /* \"#utility.yul\":2188:2191   */\n      dup5\n        /* \"#utility.yul\":2180:2186   */\n      dup3\n        /* \"#utility.yul\":2176:2192   */\n      sub\n        /* \"#utility.yul\":2167:2173   */\n      0x0100\n        /* \"#utility.yul\":2162:2165   */\n      dup7\n        /* \"#utility.yul\":2158:2174   */\n      add\n        /* \"#utility.yul\":2151:2193   */\n      mstore\n        /* \"#utility.yul\":2216:2257   */\n      tag_357\n        /* \"#utility.yul\":2250:2256   */\n      dup3\n        /* \"#utility.yul\":2234:2248   */\n      dup3\n        /* \"#utility.yul\":2216:2257   */\n      tag_327\n      jump\t// in\n    tag_357:\n        /* \"#utility.yul\":2202:2257   */\n      swap2\n      pop\n      pop\n        /* \"#utility.yul\":2305:2311   */\n      0x0120\n        /* \"#utility.yul\":2298:2303   */\n      dup4\n        /* \"#utility.yul\":2294:2312   */\n      add\n        /* \"#utility.yul\":2288:2313   */\n      mload\n        /* \"#utility.yul\":2322:2374   */\n      tag_358\n        /* \"#utility.yul\":2366:2372   */\n      0x0120\n        /* \"#utility.yul\":2361:2364   */\n      dup7\n        /* \"#utility.yul\":2357:2373   */\n      add\n        /* \"#utility.yul\":2341:2355   */\n      dup3\n      sub(shl(0x80, 0x01), 0x01)\n        /* \"#utility.yul\":538:584   */\n      and\n        /* \"#utility.yul\":526:585   */\n      swap1\n      mstore\n        /* \"#utility.yul\":472:591   */\n      jump\n        /* \"#utility.yul\":2322:2374   */\n    tag_358:\n      pop\n        /* \"#utility.yul\":2422:2428   */\n      0x0140\n        /* \"#utility.yul\":2415:2420   */\n      dup4\n        /* \"#utility.yul\":2411:2429   */\n      add\n        /* \"#utility.yul\":2405:2430   */\n      mload\n        /* \"#utility.yul\":2439:2491   */\n      tag_359\n        /* \"#utility.yul\":2483:2489   */\n      0x0140\n        /* \"#utility.yul\":2478:2481   */\n      dup7\n        /* \"#utility.yul\":2474:2490   */\n      add\n        /* \"#utility.yul\":2458:2472   */\n      dup3\n      sub(shl(0x80, 0x01), 0x01)\n        /* \"#utility.yul\":538:584   */\n      and\n        /* \"#utility.yul\":526:585   */\n      swap1\n      mstore\n        /* \"#utility.yul\":472:591   */\n      jump\n        /* \"#utility.yul\":2439:2491   */\n    tag_359:\n      pop\n        /* \"#utility.yul\":2540:2546   */\n      0x0160\n        /* \"#utility.yul\":2533:2538   */\n      dup4\n        /* \"#utility.yul\":2529:2547   */\n      add\n        /* \"#utility.yul\":2523:2548   */\n      mload\n        /* \"#utility.yul\":2557:2610   */\n      tag_223\n        /* \"#utility.yul\":2602:2608   */\n      0x0160\n        /* \"#utility.yul\":2597:2600   */\n      dup7\n        /* \"#utility.yul\":2593:2609   */\n      add\n        /* \"#utility.yul\":2576:2591   */\n      dup3\n      sub(shl(0x80, 0x01), 0x01)\n        /* \"#utility.yul\":538:584   */\n      and\n        /* \"#utility.yul\":526:585   */\n      swap1\n      mstore\n        /* \"#utility.yul\":472:591   */\n      jump\n        /* \"#utility.yul\":2643:2904   */\n    tag_23:\n        /* \"#utility.yul\":2824:2826   */\n      0x20\n        /* \"#utility.yul\":2813:2822   */\n      dup2\n        /* \"#utility.yul\":2806:2827   */\n      mstore\n        /* \"#utility.yul\":2787:2791   */\n      0x00\n        /* \"#utility.yul\":2844:2898   */\n      tag_362\n        /* \"#utility.yul\":2894:2896   */\n      0x20\n        /* \"#utility.yul\":2883:2892   */\n      dup4\n        /* \"#utility.yul\":2879:2897   */\n      add\n        /* \"#utility.yul\":2871:2877   */\n      dup5\n        /* \"#utility.yul\":2844:2898   */\n      tag_329\n      jump\t// in\n    tag_362:\n        /* \"#utility.yul\":2836:2898   */\n      swap4\n        /* \"#utility.yul\":2643:2904   */\n      swap3\n      pop\n      pop\n      pop\n      jump\t// out\n        /* \"#utility.yul\":2909:3095   */\n    tag_26:\n        /* \"#utility.yul\":2968:2974   */\n      0x00\n        /* \"#utility.yul\":3021:3023   */\n      0x20\n        /* \"#utility.yul\":3009:3018   */\n      dup3\n        /* \"#utility.yul\":3000:3007   */\n      dup5\n        /* \"#utility.yul\":2996:3019   */\n      sub\n        /* \"#utility.yul\":2992:3024   */\n      slt\n        /* \"#utility.yul\":2989:3041   */\n      iszero\n      tag_364\n      jumpi\n        /* \"#utility.yul\":3037:3038   */\n      0x00\n        /* \"#utility.yul\":3034:3035   */\n      0x00\n        /* \"#utility.yul\":3027:3039   */\n      revert\n        /* \"#utility.yul\":2989:3041   */\n    tag_364:\n        /* \"#utility.yul\":3060:3089   */\n      tag_362\n        /* \"#utility.yul\":3079:3088   */\n      dup3\n        /* \"#utility.yul\":3060:3089   */\n      tag_325\n      jump\t// in\n        /* \"#utility.yul\":3323:3450   */\n    tag_172:\n        /* \"#utility.yul\":3384:3394   */\n      0x4e487b71\n        /* \"#utility.yul\":3379:3382   */\n      0xe0\n        /* \"#utility.yul\":3375:3395   */\n      shl\n        /* \"#utility.yul\":3372:3373   */\n      0x00\n        /* \"#utility.yul\":3365:3396   */\n      mstore\n        /* \"#utility.yul\":3415:3419   */\n      0x41\n        /* \"#utility.yul\":3412:3413   */\n      0x04\n        /* \"#utility.yul\":3405:3420   */\n      mstore\n        /* \"#utility.yul\":3439:3443   */\n      0x24\n        /* \"#utility.yul\":3436:3437   */\n      0x00\n        /* \"#utility.yul\":3429:3444   */\n      revert\n        /* \"#utility.yul\":3455:3705   */\n    tag_330:\n        /* \"#utility.yul\":3522:3524   */\n      0x40\n        /* \"#utility.yul\":3516:3525   */\n      mload\n        /* \"#utility.yul\":3564:3570   */\n      0x0180\n        /* \"#utility.yul\":3552:3571   */\n      dup2\n      add\n      sub(shl(0x40, 0x01), 0x01)\n        /* \"#utility.yul\":3586:3620   */\n      dup2\n      gt\n        /* \"#utility.yul\":3622:3644   */\n      dup3\n      dup3\n      lt\n        /* \"#utility.yul\":3583:3645   */\n      or\n        /* \"#utility.yul\":3580:3668   */\n      iszero\n      tag_370\n      jumpi\n        /* \"#utility.yul\":3648:3666   */\n      tag_370\n      tag_172\n      jump\t// in\n    tag_370:\n        /* \"#utility.yul\":3684:3686   */\n      0x40\n        /* \"#utility.yul\":3677:3699   */\n      mstore\n        /* \"#utility.yul\":3455:3705   */\n      swap1\n      jump\t// out\n        /* \"#utility.yul\":3710:4456   */\n    tag_331:\n        /* \"#utility.yul\":3753:3758   */\n      0x00\n        /* \"#utility.yul\":3806:3809   */\n      dup3\n        /* \"#utility.yul\":3799:3803   */\n      0x1f\n        /* \"#utility.yul\":3791:3797   */\n      dup4\n        /* \"#utility.yul\":3787:3804   */\n      add\n        /* \"#utility.yul\":3783:3810   */\n      slt\n        /* \"#utility.yul\":3773:3828   */\n      tag_372\n      jumpi\n        /* \"#utility.yul\":3824:3825   */\n      0x00\n        /* \"#utility.yul\":3821:3822   */\n      0x00\n        /* \"#utility.yul\":3814:3826   */\n      revert\n        /* \"#utility.yul\":3773:3828   */\n    tag_372:\n        /* \"#utility.yul\":3864:3870   */\n      dup2\n        /* \"#utility.yul\":3851:3871   */\n      calldataload\n      sub(shl(0x40, 0x01), 0x01)\n        /* \"#utility.yul\":3886:3892   */\n      dup2\n        /* \"#utility.yul\":3883:3913   */\n      gt\n        /* \"#utility.yul\":3880:3936   */\n      iszero\n      tag_374\n      jumpi\n        /* \"#utility.yul\":3916:3934   */\n      tag_374\n      tag_172\n      jump\t// in\n    tag_374:\n        /* \"#utility.yul\":3985:3987   */\n      0x40\n        /* \"#utility.yul\":3979:3988   */\n      mload\n        /* \"#utility.yul\":4077:4079   */\n      0x1f\n        /* \"#utility.yul\":4039:4056   */\n      dup3\n      add\n      not(0x1f)\n        /* \"#utility.yul\":4035:4066   */\n      swap1\n      dup2\n      and\n        /* \"#utility.yul\":4068:4070   */\n      0x3f\n        /* \"#utility.yul\":4031:4071   */\n      add\n        /* \"#utility.yul\":4027:4081   */\n      and\n        /* \"#utility.yul\":4015:4082   */\n      dup2\n      add\n      sub(shl(0x40, 0x01), 0x01)\n        /* \"#utility.yul\":4097:4131   */\n      dup2\n      gt\n        /* \"#utility.yul\":4133:4155   */\n      dup3\n      dup3\n      lt\n        /* \"#utility.yul\":4094:4156   */\n      or\n        /* \"#utility.yul\":4091:4179   */\n      iszero\n      tag_376\n      jumpi\n        /* \"#utility.yul\":4159:4177   */\n      tag_376\n      tag_172\n      jump\t// in\n    tag_376:\n        /* \"#utility.yul\":4195:4197   */\n      0x40\n        /* \"#utility.yul\":4188:4210   */\n      mstore\n        /* \"#utility.yul\":4219:4241   */\n      dup2\n      dup2\n      mstore\n        /* \"#utility.yul\":4260:4279   */\n      dup4\n      dup3\n      add\n        /* \"#utility.yul\":4281:4285   */\n      0x20\n        /* \"#utility.yul\":4256:4286   */\n      add\n        /* \"#utility.yul\":4253:4292   */\n      dup6\n      lt\n        /* \"#utility.yul\":4250:4309   */\n      iszero\n      tag_377\n      jumpi\n        /* \"#utility.yul\":4305:4306   */\n      0x00\n        /* \"#utility.yul\":4302:4303   */\n      0x00\n        /* \"#utility.yul\":4295:4307   */\n      revert\n        /* \"#utility.yul\":4250:4309   */\n    tag_377:\n        /* \"#utility.yul\":4369:4375   */\n      dup2\n        /* \"#utility.yul\":4362:4366   */\n      0x20\n        /* \"#utility.yul\":4354:4360   */\n      dup6\n        /* \"#utility.yul\":4350:4367   */\n      add\n        /* \"#utility.yul\":4343:4347   */\n      0x20\n        /* \"#utility.yul\":4335:4341   */\n      dup4\n        /* \"#utility.yul\":4331:4348   */\n      add\n        /* \"#utility.yul\":4318:4376   */\n      calldatacopy\n        /* \"#utility.yul\":4424:4425   */\n      0x00\n        /* \"#utility.yul\":4396:4415   */\n      swap2\n      dup2\n      add\n        /* \"#utility.yul\":4417:4421   */\n      0x20\n        /* \"#utility.yul\":4392:4422   */\n      add\n        /* \"#utility.yul\":4385:4426   */\n      swap2\n      swap1\n      swap2\n      mstore\n        /* \"#utility.yul\":4400:4406   */\n      swap4\n        /* \"#utility.yul\":3710:4456   */\n      swap3\n      pop\n      pop\n      pop\n      jump\t// out\n        /* \"#utility.yul\":4461:4621   */\n    tag_332:\n        /* \"#utility.yul\":4526:4546   */\n      dup1\n      calldataload\n        /* \"#utility.yul\":4582:4595   */\n      dup1\n      iszero\n        /* \"#utility.yul\":4575:4596   */\n      iszero\n        /* \"#utility.yul\":4565:4597   */\n      dup2\n      eq\n        /* \"#utility.yul\":4555:4615   */\n      tag_340\n      jumpi\n        /* \"#utility.yul\":4611:4612   */\n      0x00\n        /* \"#utility.yul\":4608:4609   */\n      0x00\n        /* \"#utility.yul\":4601:4613   */\n      revert\n        /* \"#utility.yul\":4626:6457   */\n    tag_32:\n        /* \"#utility.yul\":4723:4729   */\n      0x00\n        /* \"#utility.yul\":4776:4778   */\n      0x20\n        /* \"#utility.yul\":4764:4773   */\n      dup3\n        /* \"#utility.yul\":4755:4762   */\n      dup5\n        /* \"#utility.yul\":4751:4774   */\n      sub\n        /* \"#utility.yul\":4747:4779   */\n      slt\n        /* \"#utility.yul\":4744:4796   */\n      iszero\n      tag_381\n      jumpi\n        /* \"#utility.yul\":4792:4793   */\n      0x00\n        /* \"#utility.yul\":4789:4790   */\n      0x00\n        /* \"#utility.yul\":4782:4794   */\n      revert\n        /* \"#utility.yul\":4744:4796   */\n    tag_381:\n        /* \"#utility.yul\":4832:4841   */\n      dup2\n        /* \"#utility.yul\":4819:4842   */\n      calldataload\n      sub(shl(0x40, 0x01), 0x01)\n        /* \"#utility.yul\":4857:4863   */\n      dup2\n        /* \"#utility.yul\":4854:4884   */\n      gt\n        /* \"#utility.yul\":4851:4901   */\n      iszero\n      tag_382\n      jumpi\n        /* \"#utility.yul\":4897:4898   */\n      0x00\n        /* \"#utility.yul\":4894:4895   */\n      0x00\n        /* \"#utility.yul\":4887:4899   */\n      revert\n        /* \"#utility.yul\":4851:4901   */\n    tag_382:\n        /* \"#utility.yul\":4920:4942   */\n      dup3\n      add\n        /* \"#utility.yul\":4976:4982   */\n      0x0180\n        /* \"#utility.yul\":4958:4974   */\n      dup2\n      dup6\n      sub\n        /* \"#utility.yul\":4954:4983   */\n      slt\n        /* \"#utility.yul\":4951:5000   */\n      iszero\n      tag_383\n      jumpi\n        /* \"#utility.yul\":4996:4997   */\n      0x00\n        /* \"#utility.yul\":4993:4994   */\n      0x00\n        /* \"#utility.yul\":4986:4998   */\n      revert\n        /* \"#utility.yul\":4951:5000   */\n    tag_383:\n        /* \"#utility.yul\":5022:5039   */\n      tag_384\n      tag_330\n      jump\t// in\n    tag_384:\n        /* \"#utility.yul\":5062:5084   */\n      tag_385\n        /* \"#utility.yul\":5081:5083   */\n      dup3\n        /* \"#utility.yul\":5062:5084   */\n      tag_325\n      jump\t// in\n    tag_385:\n        /* \"#utility.yul\":5055:5060   */\n      dup2\n        /* \"#utility.yul\":5048:5085   */\n      mstore\n        /* \"#utility.yul\":5117:5148   */\n      tag_386\n        /* \"#utility.yul\":5144:5146   */\n      0x20\n        /* \"#utility.yul\":5140:5142   */\n      dup4\n        /* \"#utility.yul\":5136:5147   */\n      add\n        /* \"#utility.yul\":5117:5148   */\n      tag_325\n      jump\t// in\n    tag_386:\n        /* \"#utility.yul\":5112:5114   */\n      0x20\n        /* \"#utility.yul\":5105:5110   */\n      dup3\n        /* \"#utility.yul\":5101:5115   */\n      add\n        /* \"#utility.yul\":5094:5149   */\n      mstore\n        /* \"#utility.yul\":5195:5197   */\n      0x40\n        /* \"#utility.yul\":5191:5193   */\n      dup3\n        /* \"#utility.yul\":5187:5198   */\n      add\n        /* \"#utility.yul\":5174:5199   */\n      calldataload\n      sub(shl(0x40, 0x01), 0x01)\n        /* \"#utility.yul\":5214:5222   */\n      dup2\n        /* \"#utility.yul\":5211:5243   */\n      gt\n        /* \"#utility.yul\":5208:5260   */\n      iszero\n      tag_387\n      jumpi\n        /* \"#utility.yul\":5256:5257   */\n      0x00\n        /* \"#utility.yul\":5253:5254   */\n      0x00\n        /* \"#utility.yul\":5246:5258   */\n      revert\n        /* \"#utility.yul\":5208:5260   */\n    tag_387:\n        /* \"#utility.yul\":5292:5337   */\n      tag_388\n        /* \"#utility.yul\":5329:5336   */\n      dup7\n        /* \"#utility.yul\":5318:5326   */\n      dup3\n        /* \"#utility.yul\":5314:5316   */\n      dup6\n        /* \"#utility.yul\":5310:5327   */\n      add\n        /* \"#utility.yul\":5292:5337   */\n      tag_331\n      jump\t// in\n    tag_388:\n        /* \"#utility.yul\":5287:5289   */\n      0x40\n        /* \"#utility.yul\":5280:5285   */\n      dup4\n        /* \"#utility.yul\":5276:5290   */\n      add\n        /* \"#utility.yul\":5269:5338   */\n      mstore\n      pop\n        /* \"#utility.yul\":5384:5386   */\n      0x60\n        /* \"#utility.yul\":5380:5382   */\n      dup3\n        /* \"#utility.yul\":5376:5387   */\n      add\n        /* \"#utility.yul\":5363:5388   */\n      calldataload\n      sub(shl(0x40, 0x01), 0x01)\n        /* \"#utility.yul\":5403:5411   */\n      dup2\n        /* \"#utility.yul\":5400:5432   */\n      gt\n        /* \"#utility.yul\":5397:5449   */\n      iszero\n      tag_389\n      jumpi\n        /* \"#utility.yul\":5445:5446   */\n      0x00\n        /* \"#utility.yul\":5442:5443   */\n      0x00\n        /* \"#utility.yul\":5435:5447   */\n      revert\n        /* \"#utility.yul\":5397:5449   */\n    tag_389:\n        /* \"#utility.yul\":5481:5526   */\n      tag_390\n        /* \"#utility.yul\":5518:5525   */\n      dup7\n        /* \"#utility.yul\":5507:5515   */\n      dup3\n        /* \"#utility.yul\":5503:5505   */\n      dup6\n        /* \"#utility.yul\":5499:5516   */\n      add\n        /* \"#utility.yul\":5481:5526   */\n      tag_331\n      jump\t// in\n    tag_390:\n        /* \"#utility.yul\":5476:5478   */\n      0x60\n        /* \"#utility.yul\":5469:5474   */\n      dup4\n        /* \"#utility.yul\":5465:5479   */\n      add\n        /* \"#utility.yul\":5458:5527   */\n      mstore\n      pop\n        /* \"#utility.yul\":5573:5576   */\n      0x80\n        /* \"#utility.yul\":5569:5571   */\n      dup3\n        /* \"#utility.yul\":5565:5577   */\n      add\n        /* \"#utility.yul\":5552:5578   */\n      calldataload\n      sub(shl(0x40, 0x01), 0x01)\n        /* \"#utility.yul\":5593:5601   */\n      dup2\n        /* \"#utility.yul\":5590:5622   */\n      gt\n        /* \"#utility.yul\":5587:5639   */\n      iszero\n      tag_391\n      jumpi\n        /* \"#utility.yul\":5635:5636   */\n      0x00\n        /* \"#utility.yul\":5632:5633   */\n      0x00\n        /* \"#utility.yul\":5625:5637   */\n      revert\n        /* \"#utility.yul\":5587:5639   */\n    tag_391:\n        /* \"#utility.yul\":5672:5717   */\n      tag_392\n        /* \"#utility.yul\":5709:5716   */\n      dup7\n        /* \"#utility.yul\":5698:5706   */\n      dup3\n        /* \"#utility.yul\":5694:5696   */\n      dup6\n        /* \"#utility.yul\":5690:5707   */\n      add\n        /* \"#utility.yul\":5672:5717   */\n      tag_331\n      jump\t// in\n    tag_392:\n        /* \"#utility.yul\":5666:5669   */\n      0x80\n        /* \"#utility.yul\":5659:5664   */\n      dup4\n        /* \"#utility.yul\":5655:5670   */\n      add\n        /* \"#utility.yul\":5648:5718   */\n      mstore\n      pop\n        /* \"#utility.yul\":5751:5783   */\n      tag_393\n        /* \"#utility.yul\":5778:5781   */\n      0xa0\n        /* \"#utility.yul\":5774:5776   */\n      dup4\n        /* \"#utility.yul\":5770:5782   */\n      add\n        /* \"#utility.yul\":5751:5783   */\n      tag_325\n      jump\t// in\n    tag_393:\n        /* \"#utility.yul\":5745:5748   */\n      0xa0\n        /* \"#utility.yul\":5738:5743   */\n      dup3\n        /* \"#utility.yul\":5734:5749   */\n      add\n        /* \"#utility.yul\":5727:5784   */\n      mstore\n        /* \"#utility.yul\":5817:5846   */\n      tag_394\n        /* \"#utility.yul\":5841:5844   */\n      0xc0\n        /* \"#utility.yul\":5837:5839   */\n      dup4\n        /* \"#utility.yul\":5833:5845   */\n      add\n        /* \"#utility.yul\":5817:5846   */\n      tag_332\n      jump\t// in\n    tag_394:\n        /* \"#utility.yul\":5811:5814   */\n      0xc0\n        /* \"#utility.yul\":5804:5809   */\n      dup3\n        /* \"#utility.yul\":5800:5815   */\n      add\n        /* \"#utility.yul\":5793:5847   */\n      mstore\n        /* \"#utility.yul\":5893:5896   */\n      0xe0\n        /* \"#utility.yul\":5889:5891   */\n      dup3\n        /* \"#utility.yul\":5885:5897   */\n      add\n        /* \"#utility.yul\":5872:5898   */\n      calldataload\n      sub(shl(0x40, 0x01), 0x01)\n        /* \"#utility.yul\":5913:5921   */\n      dup2\n        /* \"#utility.yul\":5910:5942   */\n      gt\n        /* \"#utility.yul\":5907:5959   */\n      iszero\n      tag_395\n      jumpi\n        /* \"#utility.yul\":5955:5956   */\n      0x00\n        /* \"#utility.yul\":5952:5953   */\n      0x00\n        /* \"#utility.yul\":5945:5957   */\n      revert\n        /* \"#utility.yul\":5907:5959   */\n    tag_395:\n        /* \"#utility.yul\":5992:6037   */\n      tag_396\n        /* \"#utility.yul\":6029:6036   */\n      dup7\n        /* \"#utility.yul\":6018:6026   */\n      dup3\n        /* \"#utility.yul\":6014:6016   */\n      dup6\n        /* \"#utility.yul\":6010:6027   */\n      add\n        /* \"#utility.yul\":5992:6037   */\n      tag_331\n      jump\t// in\n    tag_396:\n        /* \"#utility.yul\":5986:5989   */\n      0xe0\n        /* \"#utility.yul\":5979:5984   */\n      dup4\n        /* \"#utility.yul\":5975:5990   */\n      add\n        /* \"#utility.yul\":5968:6038   */\n      mstore\n      pop\n        /* \"#utility.yul\":6084:6087   */\n      0x0100\n        /* \"#utility.yul\":6080:6082   */\n      dup3\n        /* \"#utility.yul\":6076:6088   */\n      add\n        /* \"#utility.yul\":6063:6089   */\n      calldataload\n      sub(shl(0x40, 0x01), 0x01)\n        /* \"#utility.yul\":6104:6112   */\n      dup2\n        /* \"#utility.yul\":6101:6133   */\n      gt\n        /* \"#utility.yul\":6098:6150   */\n      iszero\n      tag_397\n      jumpi\n        /* \"#utility.yul\":6146:6147   */\n      0x00\n        /* \"#utility.yul\":6143:6144   */\n      0x00\n        /* \"#utility.yul\":6136:6148   */\n      revert\n        /* \"#utility.yul\":6098:6150   */\n    tag_397:\n        /* \"#utility.yul\":6183:6228   */\n      tag_398\n        /* \"#utility.yul\":6220:6227   */\n      dup7\n        /* \"#utility.yul\":6209:6217   */\n      dup3\n        /* \"#utility.yul\":6205:6207   */\n      dup6\n        /* \"#utility.yul\":6201:6218   */\n      add\n        /* \"#utility.yul\":6183:6228   */\n      tag_331\n      jump\t// in\n    tag_398:\n        /* \"#utility.yul\":6177:6180   */\n      0x0100\n        /* \"#utility.yul\":6170:6175   */\n      dup4\n        /* \"#utility.yul\":6166:6181   */\n      add\n        /* \"#utility.yul\":6159:6229   */\n      mstore\n      pop\n        /* \"#utility.yul\":6262:6294   */\n      tag_399\n        /* \"#utility.yul\":6289:6292   */\n      0x0120\n        /* \"#utility.yul\":6285:6287   */\n      dup4\n        /* \"#utility.yul\":6281:6293   */\n      add\n        /* \"#utility.yul\":6262:6294   */\n      tag_325\n      jump\t// in\n    tag_399:\n        /* \"#utility.yul\":6256:6259   */\n      0x0120\n        /* \"#utility.yul\":6249:6254   */\n      dup3\n        /* \"#utility.yul\":6245:6260   */\n      add\n        /* \"#utility.yul\":6238:6295   */\n      mstore\n        /* \"#utility.yul\":6328:6360   */\n      tag_400\n        /* \"#utility.yul\":6355:6358   */\n      0x0140\n        /* \"#utility.yul\":6351:6353   */\n      dup4\n        /* \"#utility.yul\":6347:6359   */\n      add\n        /* \"#utility.yul\":6328:6360   */\n      tag_325\n      jump\t// in\n    tag_400:\n        /* \"#utility.yul\":6322:6325   */\n      0x0140\n        /* \"#utility.yul\":6315:6320   */\n      dup3\n        /* \"#utility.yul\":6311:6326   */\n      add\n        /* \"#utility.yul\":6304:6361   */\n      mstore\n        /* \"#utility.yul\":6394:6426   */\n      tag_401\n        /* \"#utility.yul\":6421:6424   */\n      0x0160\n        /* \"#utility.yul\":6417:6419   */\n      dup4\n        /* \"#utility.yul\":6413:6425   */\n      add\n        /* \"#utility.yul\":6394:6426   */\n      tag_325\n      jump\t// in\n    tag_401:\n        /* \"#utility.yul\":6388:6391   */\n      0x0160\n        /* \"#utility.yul\":6377:6392   */\n      dup3\n      add\n        /* \"#utility.yul\":6370:6427   */\n      mstore\n        /* \"#utility.yul\":6381:6386   */\n      swap5\n        /* \"#utility.yul\":4626:6457   */\n      swap4\n      pop\n      pop\n      pop\n      pop\n      jump\t// out\n        /* \"#utility.yul\":6462:6635   */\n    tag_333:\n        /* \"#utility.yul\":6530:6550   */\n      dup1\n      calldataload\n      sub(shl(0xa0, 0x01), 0x01)\n        /* \"#utility.yul\":6579:6610   */\n      dup2\n      and\n        /* \"#utility.yul\":6569:6611   */\n      dup2\n      eq\n        /* \"#utility.yul\":6559:6629   */\n      tag_340\n      jumpi\n        /* \"#utility.yul\":6625:6626   */\n      0x00\n        /* \"#utility.yul\":6622:6623   */\n      0x00\n        /* \"#utility.yul\":6615:6627   */\n      revert\n        /* \"#utility.yul\":6640:6900   */\n    tag_36:\n        /* \"#utility.yul\":6708:6714   */\n      0x00\n        /* \"#utility.yul\":6716:6722   */\n      0x00\n        /* \"#utility.yul\":6769:6771   */\n      0x40\n        /* \"#utility.yul\":6757:6766   */\n      dup4\n        /* \"#utility.yul\":6748:6755   */\n      dup6\n        /* \"#utility.yul\":6744:6767   */\n      sub\n        /* \"#utility.yul\":6740:6772   */\n      slt\n        /* \"#utility.yul\":6737:6789   */\n      iszero\n      tag_405\n      jumpi\n        /* \"#utility.yul\":6785:6786   */\n      0x00\n        /* \"#utility.yul\":6782:6783   */\n      0x00\n        /* \"#utility.yul\":6775:6787   */\n      revert\n        /* \"#utility.yul\":6737:6789   */\n    tag_405:\n        /* \"#utility.yul\":6808:6837   */\n      tag_406\n        /* \"#utility.yul\":6827:6836   */\n      dup4\n        /* \"#utility.yul\":6808:6837   */\n      tag_333\n      jump\t// in\n    tag_406:\n        /* \"#utility.yul\":6798:6837   */\n      swap2\n      pop\n        /* \"#utility.yul\":6856:6894   */\n      tag_344\n        /* \"#utility.yul\":6890:6892   */\n      0x20\n        /* \"#utility.yul\":6879:6888   */\n      dup5\n        /* \"#utility.yul\":6875:6893   */\n      add\n        /* \"#utility.yul\":6856:6894   */\n      tag_333\n      jump\t// in\n        /* \"#utility.yul\":6905:7728   */\n    tag_45:\n        /* \"#utility.yul\":7099:7103   */\n      0x00\n        /* \"#utility.yul\":7147:7149   */\n      0x20\n        /* \"#utility.yul\":7136:7145   */\n      dup3\n        /* \"#utility.yul\":7132:7150   */\n      add\n        /* \"#utility.yul\":7177:7179   */\n      0x20\n        /* \"#utility.yul\":7166:7175   */\n      dup4\n        /* \"#utility.yul\":7159:7180   */\n      mstore\n        /* \"#utility.yul\":7200:7206   */\n      dup1\n        /* \"#utility.yul\":7235:7241   */\n      dup5\n        /* \"#utility.yul\":7229:7242   */\n      mload\n        /* \"#utility.yul\":7266:7272   */\n      dup1\n        /* \"#utility.yul\":7258:7264   */\n      dup4\n        /* \"#utility.yul\":7251:7273   */\n      mstore\n        /* \"#utility.yul\":7304:7306   */\n      0x40\n        /* \"#utility.yul\":7293:7302   */\n      dup6\n        /* \"#utility.yul\":7289:7307   */\n      add\n        /* \"#utility.yul\":7282:7307   */\n      swap2\n      pop\n        /* \"#utility.yul\":7366:7368   */\n      0x40\n        /* \"#utility.yul\":7356:7362   */\n      dup2\n        /* \"#utility.yul\":7353:7354   */\n      0x05\n        /* \"#utility.yul\":7349:7363   */\n      shl\n        /* \"#utility.yul\":7338:7347   */\n      dup7\n        /* \"#utility.yul\":7334:7364   */\n      add\n        /* \"#utility.yul\":7330:7369   */\n      add\n        /* \"#utility.yul\":7316:7369   */\n      swap3\n      pop\n        /* \"#utility.yul\":7404:7406   */\n      0x20\n        /* \"#utility.yul\":7396:7402   */\n      dup7\n        /* \"#utility.yul\":7392:7407   */\n      add\n        /* \"#utility.yul\":7425:7426   */\n      0x00\n        /* \"#utility.yul\":7435:7699   */\n    tag_409:\n        /* \"#utility.yul\":7449:7455   */\n      dup3\n        /* \"#utility.yul\":7446:7447   */\n      dup2\n        /* \"#utility.yul\":7443:7456   */\n      lt\n        /* \"#utility.yul\":7435:7699   */\n      iszero\n      tag_411\n      jumpi\n        /* \"#utility.yul\":7542:7544   */\n      0x3f\n        /* \"#utility.yul\":7538:7545   */\n      not\n        /* \"#utility.yul\":7526:7535   */\n      dup8\n        /* \"#utility.yul\":7518:7524   */\n      dup7\n        /* \"#utility.yul\":7514:7536   */\n      sub\n        /* \"#utility.yul\":7510:7546   */\n      add\n        /* \"#utility.yul\":7505:7508   */\n      dup5\n        /* \"#utility.yul\":7498:7547   */\n      mstore\n        /* \"#utility.yul\":7570:7619   */\n      tag_412\n        /* \"#utility.yul\":7612:7618   */\n      dup6\n        /* \"#utility.yul\":7603:7609   */\n      dup4\n        /* \"#utility.yul\":7597:7610   */\n      mload\n        /* \"#utility.yul\":7570:7619   */\n      tag_329\n      jump\t// in\n    tag_412:\n        /* \"#utility.yul\":7560:7619   */\n      swap5\n      pop\n        /* \"#utility.yul\":7654:7656   */\n      0x20\n        /* \"#utility.yul\":7677:7689   */\n      swap4\n      dup5\n      add\n      swap4\n        /* \"#utility.yul\":7642:7657   */\n      swap2\n      swap1\n      swap2\n      add\n      swap1\n        /* \"#utility.yul\":7471:7472   */\n      0x01\n        /* \"#utility.yul\":7464:7473   */\n      add\n        /* \"#utility.yul\":7435:7699   */\n      jump(tag_409)\n    tag_411:\n      pop\n        /* \"#utility.yul\":7716:7722   */\n      swap3\n      swap7\n        /* \"#utility.yul\":6905:7728   */\n      swap6\n      pop\n      pop\n      pop\n      pop\n      pop\n      pop\n      jump\t// out\n        /* \"#utility.yul\":7733:8385   */\n    tag_50:\n        /* \"#utility.yul\":7923:7925   */\n      0x20\n        /* \"#utility.yul\":7935:7956   */\n      dup1\n      dup3\n      mstore\n        /* \"#utility.yul\":8005:8018   */\n      dup3\n      mload\n        /* \"#utility.yul\":7908:7926   */\n      dup3\n      dup3\n      add\n        /* \"#utility.yul\":8027:8049   */\n      dup2\n      swap1\n      mstore\n        /* \"#utility.yul\":7875:7879   */\n      0x00\n      swap2\n        /* \"#utility.yul\":8106:8121   */\n      dup5\n      add\n      swap1\n        /* \"#utility.yul\":8080:8082   */\n      0x40\n        /* \"#utility.yul\":8065:8083   */\n      dup5\n      add\n      swap1\n        /* \"#utility.yul\":7875:7879   */\n      dup4\n        /* \"#utility.yul\":8149:8359   */\n    tag_414:\n        /* \"#utility.yul\":8163:8169   */\n      dup2\n        /* \"#utility.yul\":8160:8161   */\n      dup2\n        /* \"#utility.yul\":8157:8170   */\n      lt\n        /* \"#utility.yul\":8149:8359   */\n      iszero\n      tag_416\n      jumpi\n        /* \"#utility.yul\":8228:8241   */\n      dup4\n      mload\n      sub(shl(0x80, 0x01), 0x01)\n        /* \"#utility.yul\":8224:8278   */\n      and\n        /* \"#utility.yul\":8212:8279   */\n      dup4\n      mstore\n        /* \"#utility.yul\":8308:8310   */\n      0x20\n        /* \"#utility.yul\":8334:8349   */\n      swap4\n      dup5\n      add\n      swap4\n        /* \"#utility.yul\":8299:8311   */\n      swap1\n      swap3\n      add\n      swap2\n        /* \"#utility.yul\":8185:8186   */\n      0x01\n        /* \"#utility.yul\":8178:8187   */\n      add\n        /* \"#utility.yul\":8149:8359   */\n      jump(tag_414)\n    tag_416:\n      pop\n        /* \"#utility.yul\":8376:8379   */\n      swap1\n      swap6\n        /* \"#utility.yul\":7733:8385   */\n      swap5\n      pop\n      pop\n      pop\n      pop\n      pop\n      jump\t// out\n        /* \"#utility.yul\":8390:9848   */\n    tag_57:\n      sub(shl(0x80, 0x01), 0x01)\n        /* \"#utility.yul\":538:584   */\n      dup14\n      and\n        /* \"#utility.yul\":526:585   */\n      dup2\n      mstore\n      sub(shl(0x80, 0x01), 0x01)\n        /* \"#utility.yul\":538:584   */\n      dup13\n      and\n        /* \"#utility.yul\":8993:8995   */\n      0x20\n        /* \"#utility.yul\":8978:8996   */\n      dup3\n      add\n        /* \"#utility.yul\":526:585   */\n      mstore\n        /* \"#utility.yul\":9033:9036   */\n      0x0180\n        /* \"#utility.yul\":9028:9030   */\n      0x40\n        /* \"#utility.yul\":9017:9026   */\n      dup3\n        /* \"#utility.yul\":9013:9031   */\n      add\n        /* \"#utility.yul\":9006:9037   */\n      mstore\n        /* \"#utility.yul\":8886:8890   */\n      0x00\n        /* \"#utility.yul\":9060:9106   */\n      tag_420\n        /* \"#utility.yul\":9101:9104   */\n      0x0180\n        /* \"#utility.yul\":9090:9099   */\n      dup4\n        /* \"#utility.yul\":9086:9105   */\n      add\n        /* \"#utility.yul\":9078:9084   */\n      dup14\n        /* \"#utility.yul\":9060:9106   */\n      tag_327\n      jump\t// in\n    tag_420:\n        /* \"#utility.yul\":9154:9163   */\n      dup3\n        /* \"#utility.yul\":9146:9152   */\n      dup2\n        /* \"#utility.yul\":9142:9164   */\n      sub\n        /* \"#utility.yul\":9137:9139   */\n      0x60\n        /* \"#utility.yul\":9126:9135   */\n      dup5\n        /* \"#utility.yul\":9122:9140   */\n      add\n        /* \"#utility.yul\":9115:9165   */\n      mstore\n        /* \"#utility.yul\":9188:9221   */\n      tag_421\n        /* \"#utility.yul\":9214:9220   */\n      dup2\n        /* \"#utility.yul\":9206:9212   */\n      dup14\n        /* \"#utility.yul\":9188:9221   */\n      tag_327\n      jump\t// in\n    tag_421:\n        /* \"#utility.yul\":9174:9221   */\n      swap1\n      pop\n        /* \"#utility.yul\":9270:9279   */\n      dup3\n        /* \"#utility.yul\":9262:9268   */\n      dup2\n        /* \"#utility.yul\":9258:9280   */\n      sub\n        /* \"#utility.yul\":9252:9255   */\n      0x80\n        /* \"#utility.yul\":9241:9250   */\n      dup5\n        /* \"#utility.yul\":9237:9256   */\n      add\n        /* \"#utility.yul\":9230:9281   */\n      mstore\n        /* \"#utility.yul\":9304:9337   */\n      tag_422\n        /* \"#utility.yul\":9330:9336   */\n      dup2\n        /* \"#utility.yul\":9322:9328   */\n      dup13\n        /* \"#utility.yul\":9304:9337   */\n      tag_327\n      jump\t// in\n    tag_422:\n      sub(shl(0x80, 0x01), 0x01)\n        /* \"#utility.yul\":538:584   */\n      dup12\n      and\n        /* \"#utility.yul\":9388:9391   */\n      0xa0\n        /* \"#utility.yul\":9373:9392   */\n      dup6\n      add\n        /* \"#utility.yul\":526:585   */\n      mstore\n        /* \"#utility.yul\":9290:9337   */\n      swap1\n      pop\n        /* \"#utility.yul\":960:973   */\n      dup9\n      iszero\n        /* \"#utility.yul\":953:974   */\n      iszero\n        /* \"#utility.yul\":9441:9444   */\n      0xc0\n        /* \"#utility.yul\":9426:9445   */\n      dup5\n      add\n        /* \"#utility.yul\":941:975   */\n      mstore\n        /* \"#utility.yul\":9495:9504   */\n      dup3\n        /* \"#utility.yul\":9487:9493   */\n      dup2\n        /* \"#utility.yul\":9483:9505   */\n      sub\n        /* \"#utility.yul\":9477:9480   */\n      0xe0\n        /* \"#utility.yul\":9466:9475   */\n      dup5\n        /* \"#utility.yul\":9462:9481   */\n      add\n        /* \"#utility.yul\":9455:9506   */\n      mstore\n        /* \"#utility.yul\":9529:9562   */\n      tag_425\n        /* \"#utility.yul\":9555:9561   */\n      dup2\n        /* \"#utility.yul\":9547:9553   */\n      dup10\n        /* \"#utility.yul\":9529:9562   */\n      tag_327\n      jump\t// in\n    tag_425:\n        /* \"#utility.yul\":9515:9562   */\n      swap1\n      pop\n        /* \"#utility.yul\":9611:9620   */\n      dup3\n        /* \"#utility.yul\":9603:9609   */\n      dup2\n        /* \"#utility.yul\":9599:9621   */\n      sub\n        /* \"#utility.yul\":9593:9596   */\n      0x0100\n        /* \"#utility.yul\":9582:9591   */\n      dup5\n        /* \"#utility.yul\":9578:9597   */\n      add\n        /* \"#utility.yul\":9571:9622   */\n      mstore\n        /* \"#utility.yul\":9639:9672   */\n      tag_426\n        /* \"#utility.yul\":9665:9671   */\n      dup2\n        /* \"#utility.yul\":9657:9663   */\n      dup9\n        /* \"#utility.yul\":9639:9672   */\n      tag_327\n      jump\t// in\n    tag_426:\n        /* \"#utility.yul\":9631:9672   */\n      swap2\n      pop\n      pop\n        /* \"#utility.yul\":9681:9728   */\n      tag_427\n        /* \"#utility.yul\":9723:9726   */\n      0x0120\n        /* \"#utility.yul\":9712:9721   */\n      dup4\n        /* \"#utility.yul\":9708:9727   */\n      add\n        /* \"#utility.yul\":9700:9706   */\n      dup7\n      sub(shl(0x80, 0x01), 0x01)\n        /* \"#utility.yul\":538:584   */\n      and\n        /* \"#utility.yul\":526:585   */\n      swap1\n      mstore\n        /* \"#utility.yul\":472:591   */\n      jump\n        /* \"#utility.yul\":9681:9728   */\n    tag_427:\n      sub(shl(0x80, 0x01), 0x01)\n        /* \"#utility.yul\":538:584   */\n      dup5\n      and\n        /* \"#utility.yul\":9780:9783   */\n      0x0140\n        /* \"#utility.yul\":9765:9784   */\n      dup4\n      add\n        /* \"#utility.yul\":526:585   */\n      mstore\n      sub(shl(0x80, 0x01), 0x01)\n        /* \"#utility.yul\":538:584   */\n      dup4\n      and\n        /* \"#utility.yul\":9837:9840   */\n      0x0160\n        /* \"#utility.yul\":9822:9841   */\n      dup4\n      add\n        /* \"#utility.yul\":526:585   */\n      mstore\n        /* \"#utility.yul\":8390:9848   */\n      swap14\n      swap13\n      pop\n      pop\n      pop\n      pop\n      pop\n      pop\n      pop\n      pop\n      pop\n      pop\n      pop\n      pop\n      pop\n      jump\t// out\n        /* \"#utility.yul\":10061:11474   */\n    tag_67:\n        /* \"#utility.yul\":10233:10239   */\n      0x00\n        /* \"#utility.yul\":10241:10247   */\n      0x00\n        /* \"#utility.yul\":10249:10255   */\n      0x00\n        /* \"#utility.yul\":10257:10263   */\n      0x00\n        /* \"#utility.yul\":10265:10271   */\n      0x00\n        /* \"#utility.yul\":10273:10279   */\n      0x00\n        /* \"#utility.yul\":10281:10287   */\n      0x00\n        /* \"#utility.yul\":10289:10295   */\n      0x00\n        /* \"#utility.yul\":10342:10345   */\n      0x0100\n        /* \"#utility.yul\":10330:10339   */\n      dup10\n        /* \"#utility.yul\":10321:10328   */\n      dup12\n        /* \"#utility.yul\":10317:10340   */\n      sub\n        /* \"#utility.yul\":10313:10346   */\n      slt\n        /* \"#utility.yul\":10310:10363   */\n      iszero\n      tag_432\n      jumpi\n        /* \"#utility.yul\":10359:10360   */\n      0x00\n        /* \"#utility.yul\":10356:10357   */\n      0x00\n        /* \"#utility.yul\":10349:10361   */\n      revert\n        /* \"#utility.yul\":10310:10363   */\n    tag_432:\n        /* \"#utility.yul\":10382:10411   */\n      tag_433\n        /* \"#utility.yul\":10401:10410   */\n      dup10\n        /* \"#utility.yul\":10382:10411   */\n      tag_325\n      jump\t// in\n    tag_433:\n        /* \"#utility.yul\":10372:10411   */\n      swap8\n      pop\n        /* \"#utility.yul\":10462:10464   */\n      0x20\n        /* \"#utility.yul\":10451:10460   */\n      dup10\n        /* \"#utility.yul\":10447:10465   */\n      add\n        /* \"#utility.yul\":10434:10466   */\n      calldataload\n      sub(shl(0x40, 0x01), 0x01)\n        /* \"#utility.yul\":10481:10487   */\n      dup2\n        /* \"#utility.yul\":10478:10508   */\n      gt\n        /* \"#utility.yul\":10475:10525   */\n      iszero\n      tag_434\n      jumpi\n        /* \"#utility.yul\":10521:10522   */\n      0x00\n        /* \"#utility.yul\":10518:10519   */\n      0x00\n        /* \"#utility.yul\":10511:10523   */\n      revert\n        /* \"#utility.yul\":10475:10525   */\n    tag_434:\n        /* \"#utility.yul\":10544:10594   */\n      tag_435\n        /* \"#utility.yul\":10586:10593   */\n      dup12\n        /* \"#utility.yul\":10577:10583   */\n      dup3\n        /* \"#utility.yul\":10566:10575   */\n      dup13\n        /* \"#utility.yul\":10562:10584   */\n      add\n        /* \"#utility.yul\":10544:10594   */\n      tag_331\n      jump\t// in\n    tag_435:\n        /* \"#utility.yul\":10534:10594   */\n      swap8\n      pop\n      pop\n        /* \"#utility.yul\":10647:10649   */\n      0x40\n        /* \"#utility.yul\":10636:10645   */\n      dup10\n        /* \"#utility.yul\":10632:10650   */\n      add\n        /* \"#utility.yul\":10619:10651   */\n      calldataload\n      sub(shl(0x40, 0x01), 0x01)\n        /* \"#utility.yul\":10666:10674   */\n      dup2\n        /* \"#utility.yul\":10663:10695   */\n      gt\n        /* \"#utility.yul\":10660:10712   */\n      iszero\n      tag_436\n      jumpi\n        /* \"#utility.yul\":10708:10709   */\n      0x00\n        /* \"#utility.yul\":10705:10706   */\n      0x00\n        /* \"#utility.yul\":10698:10710   */\n      revert\n        /* \"#utility.yul\":10660:10712   */\n    tag_436:\n        /* \"#utility.yul\":10731:10783   */\n      tag_437\n        /* \"#utility.yul\":10775:10782   */\n      dup12\n        /* \"#utility.yul\":10764:10772   */\n      dup3\n        /* \"#utility.yul\":10753:10762   */\n      dup13\n        /* \"#utility.yul\":10749:10773   */\n      add\n        /* \"#utility.yul\":10731:10783   */\n      tag_331\n      jump\t// in\n    tag_437:\n        /* \"#utility.yul\":10721:10783   */\n      swap7\n      pop\n      pop\n        /* \"#utility.yul\":10836:10838   */\n      0x60\n        /* \"#utility.yul\":10825:10834   */\n      dup10\n        /* \"#utility.yul\":10821:10839   */\n      add\n        /* \"#utility.yul\":10808:10840   */\n      calldataload\n      sub(shl(0x40, 0x01), 0x01)\n        /* \"#utility.yul\":10855:10863   */\n      dup2\n        /* \"#utility.yul\":10852:10884   */\n      gt\n        /* \"#utility.yul\":10849:10901   */\n      iszero\n      tag_438\n      jumpi\n        /* \"#utility.yul\":10897:10898   */\n      0x00\n        /* \"#utility.yul\":10894:10895   */\n      0x00\n        /* \"#utility.yul\":10887:10899   */\n      revert\n        /* \"#utility.yul\":10849:10901   */\n    tag_438:\n        /* \"#utility.yul\":10920:10972   */\n      tag_439\n        /* \"#utility.yul\":10964:10971   */\n      dup12\n        /* \"#utility.yul\":10953:10961   */\n      dup3\n        /* \"#utility.yul\":10942:10951   */\n      dup13\n        /* \"#utility.yul\":10938:10962   */\n      add\n        /* \"#utility.yul\":10920:10972   */\n      tag_331\n      jump\t// in\n    tag_439:\n        /* \"#utility.yul\":10910:10972   */\n      swap6\n      pop\n      pop\n        /* \"#utility.yul\":10991:11030   */\n      tag_440\n        /* \"#utility.yul\":11025:11028   */\n      0x80\n        /* \"#utility.yul\":11014:11023   */\n      dup11\n        /* \"#utility.yul\":11010:11029   */\n      add\n        /* \"#utility.yul\":10991:11030   */\n      tag_325\n      jump\t// in\n    tag_440:\n        /* \"#utility.yul\":10981:11030   */\n      swap4\n      pop\n        /* \"#utility.yul\":11083:11086   */\n      0xa0\n        /* \"#utility.yul\":11072:11081   */\n      dup10\n        /* \"#utility.yul\":11068:11087   */\n      add\n        /* \"#utility.yul\":11055:11088   */\n      calldataload\n      sub(shl(0x40, 0x01), 0x01)\n        /* \"#utility.yul\":11103:11111   */\n      dup2\n        /* \"#utility.yul\":11100:11132   */\n      gt\n        /* \"#utility.yul\":11097:11149   */\n      iszero\n      tag_441\n      jumpi\n        /* \"#utility.yul\":11145:11146   */\n      0x00\n        /* \"#utility.yul\":11142:11143   */\n      0x00\n        /* \"#utility.yul\":11135:11147   */\n      revert\n        /* \"#utility.yul\":11097:11149   */\n    tag_441:\n        /* \"#utility.yul\":11168:11220   */\n      tag_442\n        /* \"#utility.yul\":11212:11219   */\n      dup12\n        /* \"#utility.yul\":11201:11209   */\n      dup3\n        /* \"#utility.yul\":11190:11199   */\n      dup13\n        /* \"#utility.yul\":11186:11210   */\n      add\n        /* \"#utility.yul\":11168:11220   */\n      tag_331\n      jump\t// in\n    tag_442:\n        /* \"#utility.yul\":11158:11220   */\n      swap4\n      pop\n      pop\n        /* \"#utility.yul\":11273:11276   */\n      0xc0\n        /* \"#utility.yul\":11262:11271   */\n      dup10\n        /* \"#utility.yul\":11258:11277   */\n      add\n        /* \"#utility.yul\":11245:11278   */\n      calldataload\n      sub(shl(0x40, 0x01), 0x01)\n        /* \"#utility.yul\":11293:11301   */\n      dup2\n        /* \"#utility.yul\":11290:11322   */\n      gt\n        /* \"#utility.yul\":11287:11339   */\n      iszero\n      tag_443\n      jumpi\n        /* \"#utility.yul\":11335:11336   */\n      0x00\n        /* \"#utility.yul\":11332:11333   */\n      0x00\n        /* \"#utility.yul\":11325:11337   */\n      revert\n        /* \"#utility.yul\":11287:11339   */\n    tag_443:\n        /* \"#utility.yul\":11358:11410   */\n      tag_444\n        /* \"#utility.yul\":11402:11409   */\n      dup12\n        /* \"#utility.yul\":11391:11399   */\n      dup3\n        /* \"#utility.yul\":11380:11389   */\n      dup13\n        /* \"#utility.yul\":11376:11400   */\n      add\n        /* \"#utility.yul\":11358:11410   */\n      tag_331\n      jump\t// in\n    tag_444:\n        /* \"#utility.yul\":11348:11410   */\n      swap3\n      pop\n      pop\n        /* \"#utility.yul\":11429:11468   */\n      tag_445\n        /* \"#utility.yul\":11463:11466   */\n      0xe0\n        /* \"#utility.yul\":11452:11461   */\n      dup11\n        /* \"#utility.yul\":11448:11467   */\n      add\n        /* \"#utility.yul\":11429:11468   */\n      tag_325\n      jump\t// in\n    tag_445:\n        /* \"#utility.yul\":11419:11468   */\n      swap1\n      pop\n        /* \"#utility.yul\":10061:11474   */\n      swap3\n      swap6\n      swap9\n      pop\n      swap3\n      swap6\n      swap9\n      swap1\n      swap4\n      swap7\n      pop\n      jump\t// out\n        /* \"#utility.yul\":11479:11665   */\n    tag_71:\n        /* \"#utility.yul\":11538:11544   */\n      0x00\n        /* \"#utility.yul\":11591:11593   */\n      0x20\n        /* \"#utility.yul\":11579:11588   */\n      dup3\n        /* \"#utility.yul\":11570:11577   */\n      dup5\n        /* \"#utility.yul\":11566:11589   */\n      sub\n        /* \"#utility.yul\":11562:11594   */\n      slt\n        /* \"#utility.yul\":11559:11611   */\n      iszero\n      tag_447\n      jumpi\n        /* \"#utility.yul\":11607:11608   */\n      0x00\n        /* \"#utility.yul\":11604:11605   */\n      0x00\n        /* \"#utility.yul\":11597:11609   */\n      revert\n        /* \"#utility.yul\":11559:11611   */\n    tag_447:\n        /* \"#utility.yul\":11630:11659   */\n      tag_362\n        /* \"#utility.yul\":11649:11658   */\n      dup3\n        /* \"#utility.yul\":11630:11659   */\n      tag_333\n      jump\t// in\n        /* \"#utility.yul\":11670:12050   */\n    tag_77:\n        /* \"#utility.yul\":11749:11750   */\n      0x01\n        /* \"#utility.yul\":11745:11757   */\n      dup2\n      dup2\n      shr\n      swap1\n        /* \"#utility.yul\":11792:11804   */\n      dup3\n      and\n      dup1\n        /* \"#utility.yul\":11813:11874   */\n      tag_450\n      jumpi\n        /* \"#utility.yul\":11867:11871   */\n      0x7f\n        /* \"#utility.yul\":11859:11865   */\n      dup3\n        /* \"#utility.yul\":11855:11872   */\n      and\n        /* \"#utility.yul\":11845:11872   */\n      swap2\n      pop\n        /* \"#utility.yul\":11813:11874   */\n    tag_450:\n        /* \"#utility.yul\":11920:11922   */\n      0x20\n        /* \"#utility.yul\":11912:11918   */\n      dup3\n        /* \"#utility.yul\":11909:11923   */\n      lt\n        /* \"#utility.yul\":11889:11907   */\n      dup2\n        /* \"#utility.yul\":11886:11924   */\n      sub\n        /* \"#utility.yul\":11883:12044   */\n      tag_451\n      jumpi\n        /* \"#utility.yul\":11966:11976   */\n      0x4e487b71\n        /* \"#utility.yul\":11961:11964   */\n      0xe0\n        /* \"#utility.yul\":11957:11977   */\n      shl\n        /* \"#utility.yul\":11954:11955   */\n      0x00\n        /* \"#utility.yul\":11947:11978   */\n      mstore\n        /* \"#utility.yul\":12001:12005   */\n      0x22\n        /* \"#utility.yul\":11998:11999   */\n      0x04\n        /* \"#utility.yul\":11991:12006   */\n      mstore\n        /* \"#utility.yul\":12029:12033   */\n      0x24\n        /* \"#utility.yul\":12026:12027   */\n      0x00\n        /* \"#utility.yul\":12019:12034   */\n      revert\n        /* \"#utility.yul\":11883:12044   */\n    tag_451:\n      pop\n        /* \"#utility.yul\":11670:12050   */\n      swap2\n      swap1\n      pop\n      jump\t// out\n        /* \"#utility.yul\":12181:12699   */\n    tag_335:\n        /* \"#utility.yul\":12283:12285   */\n      0x1f\n        /* \"#utility.yul\":12278:12281   */\n      dup3\n        /* \"#utility.yul\":12275:12286   */\n      gt\n        /* \"#utility.yul\":12272:12693   */\n      iszero\n      tag_454\n      jumpi\n        /* \"#utility.yul\":12319:12324   */\n      dup1\n        /* \"#utility.yul\":12316:12317   */\n      0x00\n        /* \"#utility.yul\":12309:12325   */\n      mstore\n        /* \"#utility.yul\":12363:12367   */\n      0x20\n        /* \"#utility.yul\":12360:12361   */\n      0x00\n        /* \"#utility.yul\":12350:12368   */\n      keccak256\n        /* \"#utility.yul\":12433:12435   */\n      0x1f\n        /* \"#utility.yul\":12421:12431   */\n      dup5\n        /* \"#utility.yul\":12417:12436   */\n      add\n        /* \"#utility.yul\":12414:12415   */\n      0x05\n        /* \"#utility.yul\":12410:12437   */\n      shr\n        /* \"#utility.yul\":12404:12408   */\n      dup2\n        /* \"#utility.yul\":12400:12438   */\n      add\n        /* \"#utility.yul\":12469:12473   */\n      0x20\n        /* \"#utility.yul\":12457:12467   */\n      dup6\n        /* \"#utility.yul\":12454:12474   */\n      lt\n        /* \"#utility.yul\":12451:12498   */\n      iszero\n      tag_455\n      jumpi\n      pop\n        /* \"#utility.yul\":12492:12496   */\n      dup1\n        /* \"#utility.yul\":12451:12498   */\n    tag_455:\n        /* \"#utility.yul\":12547:12549   */\n      0x1f\n        /* \"#utility.yul\":12542:12545   */\n      dup5\n        /* \"#utility.yul\":12538:12550   */\n      add\n        /* \"#utility.yul\":12535:12536   */\n      0x05\n        /* \"#utility.yul\":12531:12551   */\n      shr\n        /* \"#utility.yul\":12525:12529   */\n      dup3\n        /* \"#utility.yul\":12521:12552   */\n      add\n        /* \"#utility.yul\":12511:12552   */\n      swap2\n      pop\n        /* \"#utility.yul\":12602:12683   */\n    tag_456:\n        /* \"#utility.yul\":12620:12622   */\n      dup2\n        /* \"#utility.yul\":12613:12618   */\n      dup2\n        /* \"#utility.yul\":12610:12623   */\n      lt\n        /* \"#utility.yul\":12602:12683   */\n      iszero\n      tag_458\n      jumpi\n        /* \"#utility.yul\":12679:12680   */\n      0x00\n        /* \"#utility.yul\":12665:12681   */\n      dup2\n      sstore\n        /* \"#utility.yul\":12646:12647   */\n      0x01\n        /* \"#utility.yul\":12635:12648   */\n      add\n        /* \"#utility.yul\":12602:12683   */\n      jump(tag_456)\n    tag_458:\n        /* \"#utility.yul\":12606:12609   */\n      pop\n      pop\n        /* \"#utility.yul\":12272:12693   */\n    tag_454:\n        /* \"#utility.yul\":12181:12699   */\n      pop\n      pop\n      pop\n      jump\t// out\n        /* \"#utility.yul\":12875:14174   */\n    tag_113:\n        /* \"#utility.yul\":13001:13004   */\n      dup2\n        /* \"#utility.yul\":12995:13005   */\n      mload\n      sub(shl(0x40, 0x01), 0x01)\n        /* \"#utility.yul\":13020:13026   */\n      dup2\n        /* \"#utility.yul\":13017:13047   */\n      gt\n        /* \"#utility.yul\":13014:13070   */\n      iszero\n      tag_462\n      jumpi\n        /* \"#utility.yul\":13050:13068   */\n      tag_462\n      tag_172\n      jump\t// in\n    tag_462:\n        /* \"#utility.yul\":13079:13176   */\n      tag_463\n        /* \"#utility.yul\":13169:13175   */\n      dup2\n        /* \"#utility.yul\":13129:13167   */\n      tag_464\n        /* \"#utility.yul\":13161:13165   */\n      dup5\n        /* \"#utility.yul\":13155:13166   */\n      sload\n        /* \"#utility.yul\":13129:13167   */\n      tag_77\n      jump\t// in\n    tag_464:\n        /* \"#utility.yul\":13123:13127   */\n      dup5\n        /* \"#utility.yul\":13079:13176   */\n      tag_335\n      jump\t// in\n    tag_463:\n        /* \"#utility.yul\":13225:13229   */\n      0x20\n        /* \"#utility.yul\":13256:13258   */\n      0x1f\n        /* \"#utility.yul\":13245:13259   */\n      dup3\n      gt\n        /* \"#utility.yul\":13273:13274   */\n      0x01\n        /* \"#utility.yul\":13268:13917   */\n      dup2\n      eq\n      tag_466\n      jumpi\n        /* \"#utility.yul\":13961:13962   */\n      0x00\n        /* \"#utility.yul\":13978:13984   */\n      dup4\n        /* \"#utility.yul\":13975:14064   */\n      iszero\n      tag_467\n      jumpi\n      pop\n        /* \"#utility.yul\":14030:14049   */\n      dup5\n      dup3\n      add\n        /* \"#utility.yul\":14024:14050   */\n      mload\n        /* \"#utility.yul\":13975:14064   */\n    tag_467:\n      not(0x00)\n        /* \"#utility.yul\":12832:12833   */\n      0x03\n        /* \"#utility.yul\":12828:12839   */\n      dup6\n      swap1\n      shl\n        /* \"#utility.yul\":12824:12848   */\n      shr\n        /* \"#utility.yul\":12820:12849   */\n      not\n        /* \"#utility.yul\":12810:12850   */\n      and\n        /* \"#utility.yul\":12856:12857   */\n      0x01\n        /* \"#utility.yul\":12852:12863   */\n      dup5\n      swap1\n      shl\n        /* \"#utility.yul\":12807:12864   */\n      or\n        /* \"#utility.yul\":14077:14158   */\n      dup5\n      sstore\n        /* \"#utility.yul\":13238:14168   */\n      jump(tag_458)\n        /* \"#utility.yul\":13268:13917   */\n    tag_466:\n        /* \"#utility.yul\":12128:12129   */\n      0x00\n        /* \"#utility.yul\":12121:12135   */\n      dup5\n      dup2\n      mstore\n        /* \"#utility.yul\":12165:12169   */\n      0x20\n        /* \"#utility.yul\":12152:12170   */\n      dup2\n      keccak256\n      not(0x1f)\n        /* \"#utility.yul\":13304:13324   */\n      dup6\n      and\n      swap2\n        /* \"#utility.yul\":13422:13644   */\n    tag_470:\n        /* \"#utility.yul\":13436:13443   */\n      dup3\n        /* \"#utility.yul\":13433:13434   */\n      dup2\n        /* \"#utility.yul\":13430:13444   */\n      lt\n        /* \"#utility.yul\":13422:13644   */\n      iszero\n      tag_472\n      jumpi\n        /* \"#utility.yul\":13518:13537   */\n      dup8\n      dup6\n      add\n        /* \"#utility.yul\":13512:13538   */\n      mload\n        /* \"#utility.yul\":13497:13539   */\n      dup3\n      sstore\n        /* \"#utility.yul\":13625:13629   */\n      0x20\n        /* \"#utility.yul\":13610:13630   */\n      swap5\n      dup6\n      add\n      swap5\n        /* \"#utility.yul\":13578:13579   */\n      0x01\n        /* \"#utility.yul\":13566:13580   */\n      swap1\n      swap3\n      add\n      swap2\n        /* \"#utility.yul\":13452:13464   */\n      add\n        /* \"#utility.yul\":13422:13644   */\n      jump(tag_470)\n    tag_472:\n        /* \"#utility.yul\":13426:13429   */\n      pop\n        /* \"#utility.yul\":13672:13678   */\n      dup5\n        /* \"#utility.yul\":13663:13670   */\n      dup3\n        /* \"#utility.yul\":13660:13679   */\n      lt\n        /* \"#utility.yul\":13657:13858   */\n      iszero\n      tag_473\n      jumpi\n        /* \"#utility.yul\":13733:13752   */\n      dup7\n      dup5\n      add\n        /* \"#utility.yul\":13727:13753   */\n      mload\n      not(0x00)\n        /* \"#utility.yul\":13816:13817   */\n      0x03\n        /* \"#utility.yul\":13812:13826   */\n      dup8\n      swap1\n      shl\n        /* \"#utility.yul\":13828:13831   */\n      0xf8\n        /* \"#utility.yul\":13808:13832   */\n      and\n        /* \"#utility.yul\":13804:13841   */\n      shr\n        /* \"#utility.yul\":13800:13842   */\n      not\n        /* \"#utility.yul\":13785:13843   */\n      and\n        /* \"#utility.yul\":13770:13844   */\n      dup2\n      sstore\n        /* \"#utility.yul\":13657:13858   */\n    tag_473:\n      pop\n      pop\n      pop\n      pop\n        /* \"#utility.yul\":13904:13905   */\n      0x01\n        /* \"#utility.yul\":13888:13902   */\n      swap1\n      dup2\n      shl\n        /* \"#utility.yul\":13884:13906   */\n      add\n        /* \"#utility.yul\":13871:13907   */\n      swap1\n      sstore\n      pop\n        /* \"#utility.yul\":12875:14174   */\n      jump\t// out\n        /* \"#utility.yul\":14179:14592   */\n    tag_119:\n        /* \"#utility.yul\":14378:14380   */\n      0x60\n        /* \"#utility.yul\":14367:14376   */\n      dup2\n        /* \"#utility.yul\":14360:14381   */\n      mstore\n        /* \"#utility.yul\":14341:14345   */\n      0x00\n        /* \"#utility.yul\":14398:14443   */\n      tag_475\n        /* \"#utility.yul\":14439:14441   */\n      0x60\n        /* \"#utility.yul\":14428:14437   */\n      dup4\n        /* \"#utility.yul\":14424:14442   */\n      add\n        /* \"#utility.yul\":14416:14422   */\n      dup7\n        /* \"#utility.yul\":14398:14443   */\n      tag_327\n      jump\t// in\n    tag_475:\n      sub(shl(0x80, 0x01), 0x01)\n        /* \"#utility.yul\":14479:14526   */\n      swap5\n      swap1\n      swap5\n      and\n        /* \"#utility.yul\":14474:14476   */\n      0x20\n        /* \"#utility.yul\":14459:14477   */\n      dup4\n      add\n        /* \"#utility.yul\":14452:14527   */\n      mstore\n      pop\n        /* \"#utility.yul\":14570:14584   */\n      swap1\n      iszero\n        /* \"#utility.yul\":14563:14585   */\n      iszero\n        /* \"#utility.yul\":14558:14560   */\n      0x40\n        /* \"#utility.yul\":14543:14561   */\n      swap1\n      swap2\n      add\n        /* \"#utility.yul\":14536:14586   */\n      mstore\n        /* \"#utility.yul\":14390:14443   */\n      swap2\n        /* \"#utility.yul\":14179:14592   */\n      swap1\n      pop\n      jump\t// out\n        /* \"#utility.yul\":14811:14938   */\n    tag_151:\n        /* \"#utility.yul\":14872:14882   */\n      0x4e487b71\n        /* \"#utility.yul\":14867:14870   */\n      0xe0\n        /* \"#utility.yul\":14863:14883   */\n      shl\n        /* \"#utility.yul\":14860:14861   */\n      0x00\n        /* \"#utility.yul\":14853:14884   */\n      mstore\n        /* \"#utility.yul\":14903:14907   */\n      0x32\n        /* \"#utility.yul\":14900:14901   */\n      0x04\n        /* \"#utility.yul\":14893:14908   */\n      mstore\n        /* \"#utility.yul\":14927:14931   */\n      0x24\n        /* \"#utility.yul\":14924:14925   */\n      0x00\n        /* \"#utility.yul\":14917:14932   */\n      revert\n        /* \"#utility.yul\":14943:15070   */\n    tag_337:\n        /* \"#utility.yul\":15004:15014   */\n      0x4e487b71\n        /* \"#utility.yul\":14999:15002   */\n      0xe0\n        /* \"#utility.yul\":14995:15015   */\n      shl\n        /* \"#utility.yul\":14992:14993   */\n      0x00\n        /* \"#utility.yul\":14985:15016   */\n      mstore\n        /* \"#utility.yul\":15035:15039   */\n      0x11\n        /* \"#utility.yul\":15032:15033   */\n      0x04\n        /* \"#utility.yul\":15025:15040   */\n      mstore\n        /* \"#utility.yul\":15059:15063   */\n      0x24\n        /* \"#utility.yul\":15056:15057   */\n      0x00\n        /* \"#utility.yul\":15049:15064   */\n      revert\n        /* \"#utility.yul\":15075:15203   */\n    tag_155:\n        /* \"#utility.yul\":15142:15151   */\n      dup2\n      dup2\n      sub\n        /* \"#utility.yul\":15163:15174   */\n      dup2\n      dup2\n      gt\n        /* \"#utility.yul\":15160:15197   */\n      iszero\n      tag_75\n      jumpi\n        /* \"#utility.yul\":15177:15195   */\n      tag_75\n      tag_337\n      jump\t// in\n        /* \"#utility.yul\":15208:15335   */\n    tag_164:\n        /* \"#utility.yul\":15269:15279   */\n      0x4e487b71\n        /* \"#utility.yul\":15264:15267   */\n      0xe0\n        /* \"#utility.yul\":15260:15280   */\n      shl\n        /* \"#utility.yul\":15257:15258   */\n      0x00\n        /* \"#utility.yul\":15250:15281   */\n      mstore\n        /* \"#utility.yul\":15300:15304   */\n      0x31\n        /* \"#utility.yul\":15297:15298   */\n      0x04\n        /* \"#utility.yul\":15290:15305   */\n      mstore\n        /* \"#utility.yul\":15324:15328   */\n      0x24\n        /* \"#utility.yul\":15321:15322   */\n      0x00\n        /* \"#utility.yul\":15314:15329   */\n      revert\n        /* \"#utility.yul\":15340:15577   */\n    tag_217:\n        /* \"#utility.yul\":15379:15382   */\n      0x00\n      sub(shl(0x80, 0x01), 0x01)\n        /* \"#utility.yul\":15416:15421   */\n      dup3\n        /* \"#utility.yul\":15412:15458   */\n      and\n      sub(shl(0x80, 0x01), 0x01)\n        /* \"#utility.yul\":15473:15480   */\n      dup2\n        /* \"#utility.yul\":15470:15517   */\n      sub\n        /* \"#utility.yul\":15467:15540   */\n      tag_485\n      jumpi\n        /* \"#utility.yul\":15520:15538   */\n      tag_485\n      tag_337\n      jump\t// in\n    tag_485:\n        /* \"#utility.yul\":15569:15570   */\n      0x01\n        /* \"#utility.yul\":15556:15571   */\n      add\n      swap3\n        /* \"#utility.yul\":15340:15577   */\n      swap2\n      pop\n      pop\n      jump\t// out\n        /* \"#utility.yul\":15582:15914   */\n    tag_278:\n        /* \"#utility.yul\":15759:15761   */\n      0x40\n        /* \"#utility.yul\":15748:15757   */\n      dup2\n        /* \"#utility.yul\":15741:15762   */\n      mstore\n        /* \"#utility.yul\":15722:15726   */\n      0x00\n        /* \"#utility.yul\":15779:15824   */\n      tag_487\n        /* \"#utility.yul\":15820:15822   */\n      0x40\n        /* \"#utility.yul\":15809:15818   */\n      dup4\n        /* \"#utility.yul\":15805:15823   */\n      add\n        /* \"#utility.yul\":15797:15803   */\n      dup6\n        /* \"#utility.yul\":15779:15824   */\n      tag_327\n      jump\t// in\n    tag_487:\n        /* \"#utility.yul\":15771:15824   */\n      swap1\n      pop\n      sub(shl(0x80, 0x01), 0x01)\n        /* \"#utility.yul\":15864:15870   */\n      dup4\n        /* \"#utility.yul\":15860:15907   */\n      and\n        /* \"#utility.yul\":15855:15857   */\n      0x20\n        /* \"#utility.yul\":15844:15853   */\n      dup4\n        /* \"#utility.yul\":15840:15858   */\n      add\n        /* \"#utility.yul\":15833:15908   */\n      mstore\n        /* \"#utility.yul\":15582:15914   */\n      swap4\n      swap3\n      pop\n      pop\n      pop\n      jump\t// out\n\n    auxdata: 0xa2646970667358221220a5994d2da9fa5ec9dec267cc6ec67944a2575bffb2f3929582692c84b5938d6364736f6c634300081e0033\n}\n",
				"bytecode": {
					"linkReferences": {},
					"object": "6080604052348015600e575f5ffd5b5061252d8061001c5f395ff3fe608060405234801561000f575f5ffd5b50600436106100cb575f3560e01c80636b88cde511610088578063832dbdd911610063578063832dbdd9146101e65780638da5cb5b14610211578063d5d2768b14610241578063f2fde38b14610254575f5ffd5b80636b88cde514610193578063715018a6146101b357806375fab3e0146101bb575f5ffd5b80630c528968146100cf57806321bc7543146100f857806325147e4f14610138578063485cc9551461014d5780635b94ea5d1461016057806361dcddda14610173575b5f5ffd5b6100e26100dd366004611bc1565b610267565b6040516100ef9190611d55565b60405180910390f35b610120610106366004611d6e565b60016020525f90815260409020546001600160801b031681565b6040516001600160801b0390911681526020016100ef565b61014b610146366004611e5c565b610691565b005b61014b61015b366004612004565b61087c565b61014b61016e366004611bc1565b6109dd565b610186610181366004611d6e565b610c9b565b6040516100ef919061202c565b6101a66101a1366004611d6e565b61116b565b6040516100ef919061208f565b61014b611249565b6101ce6101c9366004611bc1565b61125c565b6040516100ef9c9b9a999897969594939291906120da565b6003546101f9906001600160a01b031681565b6040516001600160a01b0390911681526020016100ef565b7f9016d09d72d40fdae2fd8ceac6b6234c7706214fd39c1cd1e609a0528c199300546001600160a01b03166101f9565b61014b61024f3660046121bc565b61158c565b61014b6102623660046122cb565b61193e565b61026f611aca565b6001600160801b038084165f908152602081815260408083208685168452825280832081516101808101835281548087168252600160801b900490951692850192909252600182018054939493918401916102c9906122e4565b80601f01602080910402602001604051908101604052809291908181526020018280546102f5906122e4565b80156103405780601f1061031757610100808354040283529160200191610340565b820191905f5260205f20905b81548152906001019060200180831161032357829003601f168201915b50505050508152602001600282018054610359906122e4565b80601f0160208091040260200160405190810160405280929190818152602001828054610385906122e4565b80156103d05780601f106103a7576101008083540402835291602001916103d0565b820191905f5260205f20905b8154815290600101906020018083116103b357829003601f168201915b505050505081526020016003820180546103e9906122e4565b80601f0160208091040260200160405190810160405280929190818152602001828054610415906122e4565b80156104605780601f1061043757610100808354040283529160200191610460565b820191905f5260205f20905b81548152906001019060200180831161044357829003601f168201915b505050918352505060048201546001600160801b0381166020830152600160801b900460ff16151560408201526005820180546060909201916104a2906122e4565b80601f01602080910402602001604051908101604052809291908181526020018280546104ce906122e4565b80156105195780601f106104f057610100808354040283529160200191610519565b820191905f5260205f20905b8154815290600101906020018083116104fc57829003601f168201915b50505050508152602001600682018054610532906122e4565b80601f016020809104026020016040519081016040528092919081815260200182805461055e906122e4565b80156105a95780601f10610580576101008083540402835291602001916105a9565b820191905f5260205f20905b81548152906001019060200180831161058c57829003601f168201915b505050918352505060078201546001600160801b038082166020840152600160801b9091048116604083015260089092015482166060909101528151919250165f03610688576001600160801b0384165f9081526002602052604090205415801561065157506001600160801b038085165f9081526001602052604090205416158061065157506001600160801b038085165f90815260016020819052604090912054909116145b1561066f57604051634d8a9ce560e11b815260040160405180910390fd5b604051630b464e2960e21b815260040160405180910390fd5b90505b92915050565b6003546001600160a01b031633146106bc57604051630a8784c160e41b815260040160405180910390fd5b80516001600160801b039081165f90815260208181526040808320828601518516845290915281208054909216900361070857604051630b464e2960e21b815260040160405180910390fd5b8160400151515f0361072d57604051630dc3561760e41b815260040160405180910390fd5b8160a001516001600160801b03165f0361075a576040516314315ecf60e21b815260040160405180910390fd5b6040820151600182019061076e9082612368565b50606082015160028201906107839082612368565b50608082015160038201906107989082612368565b5060a082015160048201805460c08501511515600160801b026001600160881b03199091166001600160801b039093169290921791909117905560e082015160058201906107e69082612368565b5061010082015160068201906107fc9082612368565b506101208201516008820180546001600160801b0319166001600160801b039283161790556020830151835160408086015160a087015160c088015192519486169593909316937ffe3a76e2715db6f604f640adbbb5bd6dc99b7720b1d7a3fd9ed73c16a4d7ba7493610870939091612422565b60405180910390a35050565b5f610885611980565b805490915060ff600160401b82041615906001600160401b03165f811580156108ab5750825b90505f826001600160401b031660011480156108c65750303b155b9050811580156108d4575080155b156108f25760405163f92ee8a960e01b815260040160405180910390fd5b845467ffffffffffffffff19166001178555831561091c57845460ff60401b1916600160401b1785555b6001600160a01b03871661094357604051631d46ecc360e21b815260040160405180910390fd5b6001600160a01b03861661096a57604051631d46ecc360e21b815260040160405180910390fd5b610973866119a8565b600380546001600160a01b0319166001600160a01b03891617905583156109d457845460ff60401b19168555604051600181527fc7f505b2f371ae2175ee4913f4499e1f2633a7b5936321eed1cdaeb6115181d29060200160405180910390a15b50505050505050565b6003546001600160a01b03163314610a0857604051630a8784c160e41b815260040160405180910390fd5b6001600160801b038083165f9081526020818152604080832085851684529091528120549091169003610a4e57604051630b464e2960e21b815260040160405180910390fd5b6001600160801b038083165f90815260208181526040808320938516835292905290812081815590610a836001830182611b5c565b610a90600283015f611b5c565b610a9d600383015f611b5c565b6004820180546001600160881b0319169055610abc600583015f611b5c565b610ac9600683015f611b5c565b505f60078201819055600890910180546001600160801b03191690556001600160801b0383168152600260205260408120905f19905b8254811015610c2e57836001600160801b0316838281548110610b2457610b24612454565b5f918252602090912060028204015460019091166010026101000a90046001600160801b031603610c265782548390610b5f9060019061247c565b81548110610b6f57610b6f612454565b905f5260205f2090600291828204019190066010029054906101000a90046001600160801b0316838281548110610ba857610ba8612454565b905f5260205f2090600291828204019190066010026101000a8154816001600160801b0302191690836001600160801b0316021790555082805480610bef57610bef61248f565b5f8281526020902060025f199092019182040180546001600160801b03601060018516026101000a02191690559055905080610c2e565b600101610aff565b505f198103610c5057604051630b464e2960e21b815260040160405180910390fd5b6040516001600160801b03828116825280851691908616907f8d71c5afd7a0f7fbd09e9dfd0bf5b47e59048f35cc2e712e78f7ce3e15ee71f69060200160405180910390a350505050565b6001600160801b0381165f9081526002602052604081208054606092819003610cf757604080515f8082526020820190925290610cee565b610cdb611aca565b815260200190600190039081610cd35790505b50949350505050565b5f816001600160401b03811115610d1057610d10611d87565b604051908082528060200260200182016040528015610d4957816020015b610d36611aca565b815260200190600190039081610d2e5790505b5090505f5b82816001600160801b03161015610cee575f84826001600160801b031681548110610d7b57610d7b612454565b5f91825260208083206002830401546001600160801b038b81168552848352604080862060019095166010026101000a909204811680865293909252909220549092501615611158576001600160801b038088165f90815260208181526040808320858516845282529182902082516101808101845281548086168252600160801b9004909416918401919091526001810180549192840191610e1d906122e4565b80601f0160208091040260200160405190810160405280929190818152602001828054610e49906122e4565b8015610e945780601f10610e6b57610100808354040283529160200191610e94565b820191905f5260205f20905b815481529060010190602001808311610e7757829003601f168201915b50505050508152602001600282018054610ead906122e4565b80601f0160208091040260200160405190810160405280929190818152602001828054610ed9906122e4565b8015610f245780601f10610efb57610100808354040283529160200191610f24565b820191905f5260205f20905b815481529060010190602001808311610f0757829003601f168201915b50505050508152602001600382018054610f3d906122e4565b80601f0160208091040260200160405190810160405280929190818152602001828054610f69906122e4565b8015610fb45780601f10610f8b57610100808354040283529160200191610fb4565b820191905f5260205f20905b815481529060010190602001808311610f9757829003601f168201915b505050918352505060048201546001600160801b0381166020830152600160801b900460ff1615156040820152600582018054606090920191610ff6906122e4565b80601f0160208091040260200160405190810160405280929190818152602001828054611022906122e4565b801561106d5780601f106110445761010080835404028352916020019161106d565b820191905f5260205f20905b81548152906001019060200180831161105057829003601f168201915b50505050508152602001600682018054611086906122e4565b80601f01602080910402602001604051908101604052809291908181526020018280546110b2906122e4565b80156110fd5780601f106110d4576101008083540402835291602001916110fd565b820191905f5260205f20905b8154815290600101906020018083116110e057829003601f168201915b505050918352505060078201546001600160801b038082166020840152600160801b90910481166040830152600890920154821660609091015284518591851690811061114c5761114c612454565b60200260200101819052505b5080611163816124a3565b915050610d4e565b6001600160801b0381165f9081526002602052604081208054606092906001600160401b0381111561119f5761119f611d87565b6040519080825280602002602001820160405280156111c8578160200160208202803683370190505b5090505f5b8254811015611241578281815481106111e8576111e8612454565b905f5260205f2090600291828204019190066010029054906101000a90046001600160801b031682828151811061122157611221612454565b6001600160801b03909216602092830291909101909101526001016111cd565b509392505050565b6112516119b9565b61125a5f611a14565b565b5f602081815292815260408082209093529081522080546001820180546001600160801b0380841694600160801b9094041692919061129a906122e4565b80601f01602080910402602001604051908101604052809291908181526020018280546112c6906122e4565b80156113115780601f106112e857610100808354040283529160200191611311565b820191905f5260205f20905b8154815290600101906020018083116112f457829003601f168201915b505050505090806002018054611326906122e4565b80601f0160208091040260200160405190810160405280929190818152602001828054611352906122e4565b801561139d5780601f106113745761010080835404028352916020019161139d565b820191905f5260205f20905b81548152906001019060200180831161138057829003601f168201915b5050505050908060030180546113b2906122e4565b80601f01602080910402602001604051908101604052809291908181526020018280546113de906122e4565b80156114295780601f1061140057610100808354040283529160200191611429565b820191905f5260205f20905b81548152906001019060200180831161140c57829003601f168201915b50505050600483015460058401805493946001600160801b03831694600160801b90930460ff1693509161145c906122e4565b80601f0160208091040260200160405190810160405280929190818152602001828054611488906122e4565b80156114d35780601f106114aa576101008083540402835291602001916114d3565b820191905f5260205f20905b8154815290600101906020018083116114b657829003601f168201915b5050505050908060060180546114e8906122e4565b80601f0160208091040260200160405190810160405280929190818152602001828054611514906122e4565b801561155f5780601f106115365761010080835404028352916020019161155f565b820191905f5260205f20905b81548152906001019060200180831161154257829003601f168201915b50505050600783015460089093015491926001600160801b0380821693600160801b90920481169250168c565b6003546001600160a01b031633146115b757604051630a8784c160e41b815260040160405180910390fd5b86515f036115d857604051630dc3561760e41b815260040160405180910390fd5b836001600160801b03165f03611601576040516314315ecf60e21b815260040160405180910390fd5b6001600160801b038089165f90815260016020526040812054909116900361164f576001600160801b0388165f90815260016020819052604090912080546001600160801b03191690911790555b6001600160801b038089165f9081526001602052604081208054909216918291611678836124a3565b91906101000a8154816001600160801b0302191690836001600160801b0316021790555050604051806101800160405280826001600160801b031681526020018a6001600160801b03168152602001898152602001888152602001878152602001866001600160801b031681526020016001151581526020018581526020018481526020015f6001600160801b031681526020015f6001600160801b03168152602001836001600160801b03168152505f5f8b6001600160801b03166001600160801b031681526020019081526020015f205f836001600160801b03166001600160801b031681526020019081526020015f205f820151815f015f6101000a8154816001600160801b0302191690836001600160801b031602179055506020820151815f0160106101000a8154816001600160801b0302191690836001600160801b0316021790555060408201518160010190816117d69190612368565b50606082015160028201906117eb9082612368565b50608082015160038201906118009082612368565b5060a082015160048201805460c08501511515600160801b026001600160881b03199091166001600160801b039093169290921791909117905560e0820151600582019061184e9082612368565b5061010082015160068201906118649082612368565b506101208201516101408301516001600160801b03908116600160801b0291811691909117600783015561016090920151600890910180549183166001600160801b0319929092169190911790558981165f818152600260208181526040808420805460018181018355918652929094209282049092018054878716929094166010026101000a82810296021990931694909417909155517f4b78e675e6619216a7d91d2dc26de2461bd1ffe2788087eb2ee126924517a00f9061192b908c908a906124cd565b60405180910390a3505050505050505050565b6119466119b9565b6001600160a01b03811661197457604051631e4fbdf760e01b81525f60048201526024015b60405180910390fd5b61197d81611a14565b50565b5f807ff0c57e16840df040f15088dc2f81fe391c3923bec73e23a9662efc9c229c6a0061068b565b6119b0611a84565b61197d81611aa9565b336119eb7f9016d09d72d40fdae2fd8ceac6b6234c7706214fd39c1cd1e609a0528c199300546001600160a01b031690565b6001600160a01b03161461125a5760405163118cdaa760e01b815233600482015260240161196b565b7f9016d09d72d40fdae2fd8ceac6b6234c7706214fd39c1cd1e609a0528c19930080546001600160a01b031981166001600160a01b03848116918217845560405192169182907f8be0079c531659141344cd1fd0a4f28419497f9722a3daafe3b4186f6b6457e0905f90a3505050565b611a8c611ab1565b61125a57604051631afcd79f60e31b815260040160405180910390fd5b611946611a84565b5f611aba611980565b54600160401b900460ff16919050565b6040518061018001604052805f6001600160801b031681526020015f6001600160801b031681526020016060815260200160608152602001606081526020015f6001600160801b031681526020015f1515815260200160608152602001606081526020015f6001600160801b031681526020015f6001600160801b031681526020015f6001600160801b031681525090565b508054611b68906122e4565b5f825580601f10611b77575050565b601f0160209004905f5260205f209081019061197d91905b80821115611ba2575f8155600101611b8f565b5090565b80356001600160801b0381168114611bbc575f5ffd5b919050565b5f5f60408385031215611bd2575f5ffd5b611bdb83611ba6565b9150611be960208401611ba6565b90509250929050565b5f81518084528060208401602086015e5f602082860101526020601f19601f83011685010191505092915050565b80516001600160801b031682525f6020820151611c4860208501826001600160801b03169052565b5060408201516101806040850152611c64610180850182611bf2565b905060608301518482036060860152611c7d8282611bf2565b91505060808301518482036080860152611c978282611bf2565b91505060a0830151611cb460a08601826001600160801b03169052565b5060c0830151611cc860c086018215159052565b5060e083015184820360e0860152611ce08282611bf2565b915050610100830151848203610100860152611cfc8282611bf2565b915050610120830151611d1b6101208601826001600160801b03169052565b50610140830151611d386101408601826001600160801b03169052565b506101608301516112416101608601826001600160801b03169052565b602081525f611d676020830184611c20565b9392505050565b5f60208284031215611d7e575f5ffd5b611d6782611ba6565b634e487b7160e01b5f52604160045260245ffd5b60405161018081016001600160401b0381118282101715611dbe57611dbe611d87565b60405290565b5f82601f830112611dd3575f5ffd5b81356001600160401b03811115611dec57611dec611d87565b604051601f8201601f19908116603f011681016001600160401b0381118282101715611e1a57611e1a611d87565b604052818152838201602001851015611e31575f5ffd5b816020850160208301375f918101602001919091529392505050565b80358015158114611bbc575f5ffd5b5f60208284031215611e6c575f5ffd5b81356001600160401b03811115611e81575f5ffd5b82016101808185031215611e93575f5ffd5b611e9b611d9b565b611ea482611ba6565b8152611eb260208301611ba6565b602082015260408201356001600160401b03811115611ecf575f5ffd5b611edb86828501611dc4565b60408301525060608201356001600160401b03811115611ef9575f5ffd5b611f0586828501611dc4565b60608301525060808201356001600160401b03811115611f23575f5ffd5b611f2f86828501611dc4565b608083015250611f4160a08301611ba6565b60a0820152611f5260c08301611e4d565b60c082015260e08201356001600160401b03811115611f6f575f5ffd5b611f7b86828501611dc4565b60e0830152506101008201356001600160401b03811115611f9a575f5ffd5b611fa686828501611dc4565b61010083015250611fba6101208301611ba6565b610120820152611fcd6101408301611ba6565b610140820152611fe06101608301611ba6565b610160820152949350505050565b80356001600160a01b0381168114611bbc575f5ffd5b5f5f60408385031215612015575f5ffd5b61201e83611fee565b9150611be960208401611fee565b5f602082016020835280845180835260408501915060408160051b8601019250602086015f5b8281101561208357603f1987860301845261206e858351611c20565b94506020938401939190910190600101612052565b50929695505050505050565b602080825282518282018190525f918401906040840190835b818110156120cf5783516001600160801b03168352602093840193909201916001016120a8565b509095945050505050565b6001600160801b038d1681526001600160801b038c16602082015261018060408201525f61210c61018083018d611bf2565b828103606084015261211e818d611bf2565b90508281036080840152612132818c611bf2565b6001600160801b038b1660a0850152905088151560c084015282810360e084015261215d8189611bf2565b90508281036101008401526121728188611bf2565b91505061218b6101208301866001600160801b03169052565b6001600160801b0384166101408301526001600160801b0383166101608301529d9c50505050505050505050505050565b5f5f5f5f5f5f5f5f610100898b0312156121d4575f5ffd5b6121dd89611ba6565b975060208901356001600160401b038111156121f7575f5ffd5b6122038b828c01611dc4565b97505060408901356001600160401b0381111561221e575f5ffd5b61222a8b828c01611dc4565b96505060608901356001600160401b03811115612245575f5ffd5b6122518b828c01611dc4565b95505061226060808a01611ba6565b935060a08901356001600160401b0381111561227a575f5ffd5b6122868b828c01611dc4565b93505060c08901356001600160401b038111156122a1575f5ffd5b6122ad8b828c01611dc4565b9250506122bc60e08a01611ba6565b90509295985092959890939650565b5f602082840312156122db575f5ffd5b611d6782611fee565b600181811c908216806122f857607f821691505b60208210810361231657634e487b7160e01b5f52602260045260245ffd5b50919050565b601f82111561236357805f5260205f20601f840160051c810160208510156123415750805b601f840160051c820191505b81811015612360575f815560010161234d565b50505b505050565b81516001600160401b0381111561238157612381611d87565b6123958161238f84546122e4565b8461231c565b6020601f8211600181146123c7575f83156123b05750848201515b5f19600385901b1c1916600184901b178455612360565b5f84815260208120601f198516915b828110156123f657878501518255602094850194600190920191016123d6565b508482101561241357868401515f19600387901b60f8161c191681555b50505050600190811b01905550565b606081525f6124346060830186611bf2565b6001600160801b0394909416602083015250901515604090910152919050565b634e487b7160e01b5f52603260045260245ffd5b634e487b7160e01b5f52601160045260245ffd5b8181038181111561068b5761068b612468565b634e487b7160e01b5f52603160045260245ffd5b5f6001600160801b0382166001600160801b0381036124c4576124c4612468565b60010192915050565b604081525f6124df6040830185611bf2565b90506001600160801b0383166020830152939250505056fea2646970667358221220a5994d2da9fa5ec9dec267cc6ec67944a2575bffb2f3929582692c84b5938d6364736f6c634300081e0033",
					"opcodes": "PUSH1 0x80 PUSH1 0x40 MSTORE CALLVALUE DUP1 ISZERO PUSH1 0xE JUMPI PUSH0 PUSH0 REVERT JUMPDEST POP PUSH2 0x252D DUP1 PUSH2 0x1C PUSH0 CODECOPY PUSH0 RETURN INVALID PUSH1 0x80 PUSH1 0x40 MSTORE CALLVALUE DUP1 ISZERO PUSH2 0xF JUMPI PUSH0 PUSH0 REVERT JUMPDEST POP PUSH1 0x4 CALLDATASIZE LT PUSH2 0xCB JUMPI PUSH0 CALLDATALOAD PUSH1 0xE0 SHR DUP1 PUSH4 0x6B88CDE5 GT PUSH2 0x88 JUMPI DUP1 PUSH4 0x832DBDD9 GT PUSH2 0x63 JUMPI DUP1 PUSH4 0x832DBDD9 EQ PUSH2 0x1E6 JUMPI DUP1 PUSH4 0x8DA5CB5B EQ PUSH2 0x211 JUMPI DUP1 PUSH4 0xD5D2768B EQ PUSH2 0x241 JUMPI DUP1 PUSH4 0xF2FDE38B EQ PUSH2 0x254 JUMPI PUSH0 PUSH0 REVERT JUMPDEST DUP1 PUSH4 0x6B88CDE5 EQ PUSH2 0x193 JUMPI DUP1 PUSH4 0x715018A6 EQ PUSH2 0x1B3 JUMPI DUP1 PUSH4 0x75FAB3E0 EQ PUSH2 0x1BB JUMPI PUSH0 PUSH0 REVERT JUMPDEST DUP1 PUSH4 0xC528968 EQ PUSH2 0xCF JUMPI DUP1 PUSH4 0x21BC7543 EQ PUSH2 0xF8 JUMPI DUP1 PUSH4 0x25147E4F EQ PUSH2 0x138 JUMPI DUP1 PUSH4 0x485CC955 EQ PUSH2 0x14D JUMPI DUP1 PUSH4 0x5B94EA5D EQ PUSH2 0x160 JUMPI DUP1 PUSH4 0x61DCDDDA EQ PUSH2 0x173 JUMPI JUMPDEST PUSH0 PUSH0 REVERT JUMPDEST PUSH2 0xE2 PUSH2 0xDD CALLDATASIZE PUSH1 0x4 PUSH2 0x1BC1 JUMP JUMPDEST PUSH2 0x267 JUMP JUMPDEST PUSH1 0x40 MLOAD PUSH2 0xEF SWAP2 SWAP1 PUSH2 0x1D55 JUMP JUMPDEST PUSH1 0x40 MLOAD DUP1 SWAP2 SUB SWAP1 RETURN JUMPDEST PUSH2 0x120 PUSH2 0x106 CALLDATASIZE PUSH1 0x4 PUSH2 0x1D6E JUMP JUMPDEST PUSH1 0x1 PUSH1 0x20 MSTORE PUSH0 SWAP1 DUP2 MSTORE PUSH1 0x40 SWAP1 KECCAK256 SLOAD PUSH1 0x1 PUSH1 0x1 PUSH1 0x80 SHL SUB AND DUP2 JUMP JUMPDEST PUSH1 0x40 MLOAD PUSH1 0x1 PUSH1 0x1 PUSH1 0x80 SHL SUB SWAP1 SWAP2 AND DUP2 MSTORE PUSH1 0x20 ADD PUSH2 0xEF JUMP JUMPDEST PUSH2 0x14B PUSH2 0x146 CALLDATASIZE PUSH1 0x4 PUSH2 0x1E5C JUMP JUMPDEST PUSH2 0x691 JUMP JUMPDEST STOP JUMPDEST PUSH2 0x14B PUSH2 0x15B CALLDATASIZE PUSH1 0x4 PUSH2 0x2004 JUMP JUMPDEST PUSH2 0x87C JUMP JUMPDEST PUSH2 0x14B PUSH2 0x16E CALLDATASIZE PUSH1 0x4 PUSH2 0x1BC1 JUMP JUMPDEST PUSH2 0x9DD JUMP JUMPDEST PUSH2 0x186 PUSH2 0x181 CALLDATASIZE PUSH1 0x4 PUSH2 0x1D6E JUMP JUMPDEST PUSH2 0xC9B JUMP JUMPDEST PUSH1 0x40 MLOAD PUSH2 0xEF SWAP2 SWAP1 PUSH2 0x202C JUMP JUMPDEST PUSH2 0x1A6 PUSH2 0x1A1 CALLDATASIZE PUSH1 0x4 PUSH2 0x1D6E JUMP JUMPDEST PUSH2 0x116B JUMP JUMPDEST PUSH1 0x40 MLOAD PUSH2 0xEF SWAP2 SWAP1 PUSH2 0x208F JUMP JUMPDEST PUSH2 0x14B PUSH2 0x1249 JUMP JUMPDEST PUSH2 0x1CE PUSH2 0x1C9 CALLDATASIZE PUSH1 0x4 PUSH2 0x1BC1 JUMP JUMPDEST PUSH2 0x125C JUMP JUMPDEST PUSH1 0x40 MLOAD PUSH2 0xEF SWAP13 SWAP12 SWAP11 SWAP10 SWAP9 SWAP8 SWAP7 SWAP6 SWAP5 SWAP4 SWAP3 SWAP2 SWAP1 PUSH2 0x20DA JUMP JUMPDEST PUSH1 0x3 SLOAD PUSH2 0x1F9 SWAP1 PUSH1 0x1 PUSH1 0x1 PUSH1 0xA0 SHL SUB AND DUP2 JUMP JUMPDEST PUSH1 0x40 MLOAD PUSH1 0x1 PUSH1 0x1 PUSH1 0xA0 SHL SUB SWAP1 SWAP2 AND DUP2 MSTORE PUSH1 0x20 ADD PUSH2 0xEF JUMP JUMPDEST PUSH32 0x9016D09D72D40FDAE2FD8CEAC6B6234C7706214FD39C1CD1E609A0528C199300 SLOAD PUSH1 0x1 PUSH1 0x1 PUSH1 0xA0 SHL SUB AND PUSH2 0x1F9 JUMP JUMPDEST PUSH2 0x14B PUSH2 0x24F CALLDATASIZE PUSH1 0x4 PUSH2 0x21BC JUMP JUMPDEST PUSH2 0x158C JUMP JUMPDEST PUSH2 0x14B PUSH2 0x262 CALLDATASIZE PUSH1 0x4 PUSH2 0x22CB JUMP JUMPDEST PUSH2 0x193E JUMP JUMPDEST PUSH2 0x26F PUSH2 0x1ACA JUMP JUMPDEST PUSH1 0x1 PUSH1 0x1 PUSH1 0x80 SHL SUB DUP1 DUP5 AND PUSH0 SWAP1 DUP2 MSTORE PUSH1 0x20 DUP2 DUP2 MSTORE PUSH1 0x40 DUP1 DUP4 KECCAK256 DUP7 DUP6 AND DUP5 MSTORE DUP3 MSTORE DUP1 DUP4 KECCAK256 DUP2 MLOAD PUSH2 0x180 DUP2 ADD DUP4 MSTORE DUP2 SLOAD DUP1 DUP8 AND DUP3 MSTORE PUSH1 0x1 PUSH1 0x80 SHL SWAP1 DIV SWAP1 SWAP6 AND SWAP3 DUP6 ADD SWAP3 SWAP1 SWAP3 MSTORE PUSH1 0x1 DUP3 ADD DUP1 SLOAD SWAP4 SWAP5 SWAP4 SWAP2 DUP5 ADD SWAP2 PUSH2 0x2C9 SWAP1 PUSH2 0x22E4 JUMP JUMPDEST DUP1 PUSH1 0x1F ADD PUSH1 0x20 DUP1 SWAP2 DIV MUL PUSH1 0x20 ADD PUSH1 0x40 MLOAD SWAP1 DUP2 ADD PUSH1 0x40 MSTORE DUP1 SWAP3 SWAP2 SWAP1 DUP2 DUP2 MSTORE PUSH1 0x20 ADD DUP3 DUP1 SLOAD PUSH2 0x2F5 SWAP1 PUSH2 0x22E4 JUMP JUMPDEST DUP1 ISZERO PUSH2 0x340 JUMPI DUP1 PUSH1 0x1F LT PUSH2 0x317 JUMPI PUSH2 0x100 DUP1 DUP4 SLOAD DIV MUL DUP4 MSTORE SWAP2 PUSH1 0x20 ADD SWAP2 PUSH2 0x340 JUMP JUMPDEST DUP3 ADD SWAP2 SWAP1 PUSH0 MSTORE PUSH1 0x20 PUSH0 KECCAK256 SWAP1 JUMPDEST DUP2 SLOAD DUP2 MSTORE SWAP1 PUSH1 0x1 ADD SWAP1 PUSH1 0x20 ADD DUP1 DUP4 GT PUSH2 0x323 JUMPI DUP3 SWAP1 SUB PUSH1 0x1F AND DUP3 ADD SWAP2 JUMPDEST POP POP POP POP POP DUP2 MSTORE PUSH1 0x20 ADD PUSH1 0x2 DUP3 ADD DUP1 SLOAD PUSH2 0x359 SWAP1 PUSH2 0x22E4 JUMP JUMPDEST DUP1 PUSH1 0x1F ADD PUSH1 0x20 DUP1 SWAP2 DIV MUL PUSH1 0x20 ADD PUSH1 0x40 MLOAD SWAP1 DUP2 ADD PUSH1 0x40 MSTORE DUP1 SWAP3 SWAP2 SWAP1 DUP2 DUP2 MSTORE PUSH1 0x20 ADD DUP3 DUP1 SLOAD PUSH2 0x385 SWAP1 PUSH2 0x22E4 JUMP JUMPDEST DUP1 ISZERO PUSH2 0x3D0 JUMPI DUP1 PUSH1 0x1F LT PUSH2 0x3A7 JUMPI PUSH2 0x100 DUP1 DUP4 SLOAD DIV MUL DUP4 MSTORE SWAP2 PUSH1 0x20 ADD SWAP2 PUSH2 0x3D0 JUMP JUMPDEST DUP3 ADD SWAP2 SWAP1 PUSH0 MSTORE PUSH1 0x20 PUSH0 KECCAK256 SWAP1 JUMPDEST DUP2 SLOAD DUP2 MSTORE SWAP1 PUSH1 0x1 ADD SWAP1 PUSH1 0x20 ADD DUP1 DUP4 GT PUSH2 0x3B3 JUMPI DUP3 SWAP1 SUB PUSH1 0x1F AND DUP3 ADD SWAP2 JUMPDEST POP POP POP POP POP DUP2 MSTORE PUSH1 0x20 ADD PUSH1 0x3 DUP3 ADD DUP1 SLOAD PUSH2 0x3E9 SWAP1 PUSH2 0x22E4 JUMP JUMPDEST DUP1 PUSH1 0x1F ADD PUSH1 0x20 DUP1 SWAP2 DIV MUL PUSH1 0x20 ADD PUSH1 0x40 MLOAD SWAP1 DUP2 ADD PUSH1 0x40 MSTORE DUP1 SWAP3 SWAP2 SWAP1 DUP2 DUP2 MSTORE PUSH1 0x20 ADD DUP3 DUP1 SLOAD PUSH2 0x415 SWAP1 PUSH2 0x22E4 JUMP JUMPDEST DUP1 ISZERO PUSH2 0x460 JUMPI DUP1 PUSH1 0x1F LT PUSH2 0x437 JUMPI PUSH2 0x100 DUP1 DUP4 SLOAD DIV MUL DUP4 MSTORE SWAP2 PUSH1 0x20 ADD SWAP2 PUSH2 0x460 JUMP JUMPDEST DUP3 ADD SWAP2 SWAP1 PUSH0 MSTORE PUSH1 0x20 PUSH0 KECCAK256 SWAP1 JUMPDEST DUP2 SLOAD DUP2 MSTORE SWAP1 PUSH1 0x1 ADD SWAP1 PUSH1 0x20 ADD DUP1 DUP4 GT PUSH2 0x443 JUMPI DUP3 SWAP1 SUB PUSH1 0x1F AND DUP3 ADD SWAP2 JUMPDEST POP POP POP SWAP2 DUP4 MSTORE POP POP PUSH1 0x4 DUP3 ADD SLOAD PUSH1 0x1 PUSH1 0x1 PUSH1 0x80 SHL SUB DUP2 AND PUSH1 0x20 DUP4 ADD MSTORE PUSH1 0x1 PUSH1 0x80 SHL SWAP1 DIV PUSH1 0xFF AND ISZERO ISZERO PUSH1 0x40 DUP3 ADD MSTORE PUSH1 0x5 DUP3 ADD DUP1 SLOAD PUSH1 0x60 SWAP1 SWAP3 ADD SWAP2 PUSH2 0x4A2 SWAP1 PUSH2 0x22E4 JUMP JUMPDEST DUP1 PUSH1 0x1F ADD PUSH1 0x20 DUP1 SWAP2 DIV MUL PUSH1 0x20 ADD PUSH1 0x40 MLOAD SWAP1 DUP2 ADD PUSH1 0x40 MSTORE DUP1 SWAP3 SWAP2 SWAP1 DUP2 DUP2 MSTORE PUSH1 0x20 ADD DUP3 DUP1 SLOAD PUSH2 0x4CE SWAP1 PUSH2 0x22E4 JUMP JUMPDEST DUP1 ISZERO PUSH2 0x519 JUMPI DUP1 PUSH1 0x1F LT PUSH2 0x4F0 JUMPI PUSH2 0x100 DUP1 DUP4 SLOAD DIV MUL DUP4 MSTORE SWAP2 PUSH1 0x20 ADD SWAP2 PUSH2 0x519 JUMP JUMPDEST DUP3 ADD SWAP2 SWAP1 PUSH0 MSTORE PUSH1 0x20 PUSH0 KECCAK256 SWAP1 JUMPDEST DUP2 SLOAD DUP2 MSTORE SWAP1 PUSH1 0x1 ADD SWAP1 PUSH1 0x20 ADD DUP1 DUP4 GT PUSH2 0x4FC JUMPI DUP3 SWAP1 SUB PUSH1 0x1F AND DUP3 ADD SWAP2 JUMPDEST POP POP POP POP POP DUP2 MSTORE PUSH1 0x20 ADD PUSH1 0x6 DUP3 ADD DUP1 SLOAD PUSH2 0x532 SWAP1 PUSH2 0x22E4 JUMP JUMPDEST DUP1 PUSH1 0x1F ADD PUSH1 0x20 DUP1 SWAP2 DIV MUL PUSH1 0x20 ADD PUSH1 0x40 MLOAD SWAP1 DUP2 ADD PUSH1 0x40 MSTORE DUP1 SWAP3 SWAP2 SWAP1 DUP2 DUP2 MSTORE PUSH1 0x20 ADD DUP3 DUP1 SLOAD PUSH2 0x55E SWAP1 PUSH2 0x22E4 JUMP JUMPDEST DUP1 ISZERO PUSH2 0x5A9 JUMPI DUP1 PUSH1 0x1F LT PUSH2 0x580 JUMPI PUSH2 0x100 DUP1 DUP4 SLOAD DIV MUL DUP4 MSTORE SWAP2 PUSH1 0x20 ADD SWAP2 PUSH2 0x5A9 JUMP JUMPDEST DUP3 ADD SWAP2 SWAP1 PUSH0 MSTORE PUSH1 0x20 PUSH0 KECCAK256 SWAP1 JUMPDEST DUP2 SLOAD DUP2 MSTORE SWAP1 PUSH1 0x1 ADD SWAP1 PUSH1 0x20 ADD DUP1 DUP4 GT PUSH2 0x58C JUMPI DUP3 SWAP1 SUB PUSH1 0x1F AND DUP3 ADD SWAP2 JUMPDEST POP POP POP SWAP2 DUP4 MSTORE POP POP PUSH1 0x7 DUP3 ADD SLOAD PUSH1 0x1 PUSH1 0x1 PUSH1 0x80 SHL SUB DUP1 DUP3 AND PUSH1 0x20 DUP5 ADD MSTORE PUSH1 0x1 PUSH1 0x80 SHL SWAP1 SWAP2 DIV DUP2 AND PUSH1 0x40 DUP4 ADD MSTORE PUSH1 0x8 SWAP1 SWAP3 ADD SLOAD DUP3 AND PUSH1 0x60 SWAP1 SWAP2 ADD MSTORE DUP2 MLOAD SWAP2 SWAP3 POP AND PUSH0 SUB PUSH2 0x688 JUMPI PUSH1 0x1 PUSH1 0x1 PUSH1 0x80 SHL SUB DUP5 AND PUSH0 SWAP1 DUP2 MSTORE PUSH1 0x2 PUSH1 0x20 MSTORE PUSH1 0x40 SWAP1 KECCAK256 SLOAD ISZERO DUP1 ISZERO PUSH2 0x651 JUMPI POP PUSH1 0x1 PUSH1 0x1 PUSH1 0x80 SHL SUB DUP1 DUP6 AND PUSH0 SWAP1 DUP2 MSTORE PUSH1 0x1 PUSH1 0x20 MSTORE PUSH1 0x40 SWAP1 KECCAK256 SLOAD AND ISZERO DUP1 PUSH2 0x651 JUMPI POP PUSH1 0x1 PUSH1 0x1 PUSH1 0x80 SHL SUB DUP1 DUP6 AND PUSH0 SWAP1 DUP2 MSTORE PUSH1 0x1 PUSH1 0x20 DUP2 SWAP1 MSTORE PUSH1 0x40 SWAP1 SWAP2 KECCAK256 SLOAD SWAP1 SWAP2 AND EQ JUMPDEST ISZERO PUSH2 0x66F JUMPI PUSH1 0x40 MLOAD PUSH4 0x4D8A9CE5 PUSH1 0xE1 SHL DUP2 MSTORE PUSH1 0x4 ADD PUSH1 0x40 MLOAD DUP1 SWAP2 SUB SWAP1 REVERT JUMPDEST PUSH1 0x40 MLOAD PUSH4 0xB464E29 PUSH1 0xE2 SHL DUP2 MSTORE PUSH1 0x4 ADD PUSH1 0x40 MLOAD DUP1 SWAP2 SUB SWAP1 REVERT JUMPDEST SWAP1 POP JUMPDEST SWAP3 SWAP2 POP POP JUMP JUMPDEST PUSH1 0x3 SLOAD PUSH1 0x1 PUSH1 0x1 PUSH1 0xA0 SHL SUB AND CALLER EQ PUSH2 0x6BC JUMPI PUSH1 0x40 MLOAD PUSH4 0xA8784C1 PUSH1 0xE4 SHL DUP2 MSTORE PUSH1 0x4 ADD PUSH1 0x40 MLOAD DUP1 SWAP2 SUB SWAP1 REVERT JUMPDEST DUP1 MLOAD PUSH1 0x1 PUSH1 0x1 PUSH1 0x80 SHL SUB SWAP1 DUP2 AND PUSH0 SWAP1 DUP2 MSTORE PUSH1 0x20 DUP2 DUP2 MSTORE PUSH1 0x40 DUP1 DUP4 KECCAK256 DUP3 DUP7 ADD MLOAD DUP6 AND DUP5 MSTORE SWAP1 SWAP2 MSTORE DUP2 KECCAK256 DUP1 SLOAD SWAP1 SWAP3 AND SWAP1 SUB PUSH2 0x708 JUMPI PUSH1 0x40 MLOAD PUSH4 0xB464E29 PUSH1 0xE2 SHL DUP2 MSTORE PUSH1 0x4 ADD PUSH1 0x40 MLOAD DUP1 SWAP2 SUB SWAP1 REVERT JUMPDEST DUP2 PUSH1 0x40 ADD MLOAD MLOAD PUSH0 SUB PUSH2 0x72D JUMPI PUSH1 0x40 MLOAD PUSH4 0xDC35617 PUSH1 0xE4 SHL DUP2 MSTORE PUSH1 0x4 ADD PUSH1 0x40 MLOAD DUP1 SWAP2 SUB SWAP1 REVERT JUMPDEST DUP2 PUSH1 0xA0 ADD MLOAD PUSH1 0x1 PUSH1 0x1 PUSH1 0x80 SHL SUB AND PUSH0 SUB PUSH2 0x75A JUMPI PUSH1 0x40 MLOAD PUSH4 0x14315ECF PUSH1 0xE2 SHL DUP2 MSTORE PUSH1 0x4 ADD PUSH1 0x40 MLOAD DUP1 SWAP2 SUB SWAP1 REVERT JUMPDEST PUSH1 0x40 DUP3 ADD MLOAD PUSH1 0x1 DUP3 ADD SWAP1 PUSH2 0x76E SWAP1 DUP3 PUSH2 0x2368 JUMP JUMPDEST POP PUSH1 0x60 DUP3 ADD MLOAD PUSH1 0x2 DUP3 ADD SWAP1 PUSH2 0x783 SWAP1 DUP3 PUSH2 0x2368 JUMP JUMPDEST POP PUSH1 0x80 DUP3 ADD MLOAD PUSH1 0x3 DUP3 ADD SWAP1 PUSH2 0x798 SWAP1 DUP3 PUSH2 0x2368 JUMP JUMPDEST POP PUSH1 0xA0 DUP3 ADD MLOAD PUSH1 0x4 DUP3 ADD DUP1 SLOAD PUSH1 0xC0 DUP6 ADD MLOAD ISZERO ISZERO PUSH1 0x1 PUSH1 0x80 SHL MUL PUSH1 0x1 PUSH1 0x1 PUSH1 0x88 SHL SUB NOT SWAP1 SWAP2 AND PUSH1 0x1 PUSH1 0x1 PUSH1 0x80 SHL SUB SWAP1 SWAP4 AND SWAP3 SWAP1 SWAP3 OR SWAP2 SWAP1 SWAP2 OR SWAP1 SSTORE PUSH1 0xE0 DUP3 ADD MLOAD PUSH1 0x5 DUP3 ADD SWAP1 PUSH2 0x7E6 SWAP1 DUP3 PUSH2 0x2368 JUMP JUMPDEST POP PUSH2 0x100 DUP3 ADD MLOAD PUSH1 0x6 DUP3 ADD SWAP1 PUSH2 0x7FC SWAP1 DUP3 PUSH2 0x2368 JUMP JUMPDEST POP PUSH2 0x120 DUP3 ADD MLOAD PUSH1 0x8 DUP3 ADD DUP1 SLOAD PUSH1 0x1 PUSH1 0x1 PUSH1 0x80 SHL SUB NOT AND PUSH1 0x1 PUSH1 0x1 PUSH1 0x80 SHL SUB SWAP3 DUP4 AND OR SWAP1 SSTORE PUSH1 0x20 DUP4 ADD MLOAD DUP4 MLOAD PUSH1 0x40 DUP1 DUP7 ADD MLOAD PUSH1 0xA0 DUP8 ADD MLOAD PUSH1 0xC0 DUP9 ADD MLOAD SWAP3 MLOAD SWAP5 DUP7 AND SWAP6 SWAP4 SWAP1 SWAP4 AND SWAP4 PUSH32 0xFE3A76E2715DB6F604F640ADBBB5BD6DC99B7720B1D7A3FD9ED73C16A4D7BA74 SWAP4 PUSH2 0x870 SWAP4 SWAP1 SWAP2 PUSH2 0x2422 JUMP JUMPDEST PUSH1 0x40 MLOAD DUP1 SWAP2 SUB SWAP1 LOG3 POP POP JUMP JUMPDEST PUSH0 PUSH2 0x885 PUSH2 0x1980 JUMP JUMPDEST DUP1 SLOAD SWAP1 SWAP2 POP PUSH1 0xFF PUSH1 0x1 PUSH1 0x40 SHL DUP3 DIV AND ISZERO SWAP1 PUSH1 0x1 PUSH1 0x1 PUSH1 0x40 SHL SUB AND PUSH0 DUP2 ISZERO DUP1 ISZERO PUSH2 0x8AB JUMPI POP DUP3 JUMPDEST SWAP1 POP PUSH0 DUP3 PUSH1 0x1 PUSH1 0x1 PUSH1 0x40 SHL SUB AND PUSH1 0x1 EQ DUP1 ISZERO PUSH2 0x8C6 JUMPI POP ADDRESS EXTCODESIZE ISZERO JUMPDEST SWAP1 POP DUP2 ISZERO DUP1 ISZERO PUSH2 0x8D4 JUMPI POP DUP1 ISZERO JUMPDEST ISZERO PUSH2 0x8F2 JUMPI PUSH1 0x40 MLOAD PUSH4 0xF92EE8A9 PUSH1 0xE0 SHL DUP2 MSTORE PUSH1 0x4 ADD PUSH1 0x40 MLOAD DUP1 SWAP2 SUB SWAP1 REVERT JUMPDEST DUP5 SLOAD PUSH8 0xFFFFFFFFFFFFFFFF NOT AND PUSH1 0x1 OR DUP6 SSTORE DUP4 ISZERO PUSH2 0x91C JUMPI DUP5 SLOAD PUSH1 0xFF PUSH1 0x40 SHL NOT AND PUSH1 0x1 PUSH1 0x40 SHL OR DUP6 SSTORE JUMPDEST PUSH1 0x1 PUSH1 0x1 PUSH1 0xA0 SHL SUB DUP8 AND PUSH2 0x943 JUMPI PUSH1 0x40 MLOAD PUSH4 0x1D46ECC3 PUSH1 0xE2 SHL DUP2 MSTORE PUSH1 0x4 ADD PUSH1 0x40 MLOAD DUP1 SWAP2 SUB SWAP1 REVERT JUMPDEST PUSH1 0x1 PUSH1 0x1 PUSH1 0xA0 SHL SUB DUP7 AND PUSH2 0x96A JUMPI PUSH1 0x40 MLOAD PUSH4 0x1D46ECC3 PUSH1 0xE2 SHL DUP2 MSTORE PUSH1 0x4 ADD PUSH1 0x40 MLOAD DUP1 SWAP2 SUB SWAP1 REVERT JUMPDEST PUSH2 0x973 DUP7 PUSH2 0x19A8 JUMP JUMPDEST PUSH1 0x3 DUP1 SLOAD PUSH1 0x1 PUSH1 0x1 PUSH1 0xA0 SHL SUB NOT AND PUSH1 0x1 PUSH1 0x1 PUSH1 0xA0 SHL SUB DUP10 AND OR SWAP1 SSTORE DUP4 ISZERO PUSH2 0x9D4 JUMPI DUP5 SLOAD PUSH1 0xFF PUSH1 0x40 SHL NOT AND DUP6 SSTORE PUSH1 0x40 MLOAD PUSH1 0x1 DUP2 MSTORE PUSH32 0xC7F505B2F371AE2175EE4913F4499E1F2633A7B5936321EED1CDAEB6115181D2 SWAP1 PUSH1 0x20 ADD PUSH1 0x40 MLOAD DUP1 SWAP2 SUB SWAP1 LOG1 JUMPDEST POP POP POP POP POP POP POP JUMP JUMPDEST PUSH1 0x3 SLOAD PUSH1 0x1 PUSH1 0x1 PUSH1 0xA0 SHL SUB AND CALLER EQ PUSH2 0xA08 JUMPI PUSH1 0x40 MLOAD PUSH4 0xA8784C1 PUSH1 0xE4 SHL DUP2 MSTORE PUSH1 0x4 ADD PUSH1 0x40 MLOAD DUP1 SWAP2 SUB SWAP1 REVERT JUMPDEST PUSH1 0x1 PUSH1 0x1 PUSH1 0x80 SHL SUB DUP1 DUP4 AND PUSH0 SWAP1 DUP2 MSTORE PUSH1 0x20 DUP2 DUP2 MSTORE PUSH1 0x40 DUP1 DUP4 KECCAK256 DUP6 DUP6 AND DUP5 MSTORE SWAP1 SWAP2 MSTORE DUP2 KECCAK256 SLOAD SWAP1 SWAP2 AND SWAP1 SUB PUSH2 0xA4E JUMPI PUSH1 0x40 MLOAD PUSH4 0xB464E29 PUSH1 0xE2 SHL DUP2 MSTORE PUSH1 0x4 ADD PUSH1 0x40 MLOAD DUP1 SWAP2 SUB SWAP1 REVERT JUMPDEST PUSH1 0x1 PUSH1 0x1 PUSH1 0x80 SHL SUB DUP1 DUP4 AND PUSH0 SWAP1 DUP2 MSTORE PUSH1 0x20 DUP2 DUP2 MSTORE PUSH1 0x40 DUP1 DUP4 KECCAK256 SWAP4 DUP6 AND DUP4 MSTORE SWAP3 SWAP1 MSTORE SWAP1 DUP2 KECCAK256 DUP2 DUP2 SSTORE SWAP1 PUSH2 0xA83 PUSH1 0x1 DUP4 ADD DUP3 PUSH2 0x1B5C JUMP JUMPDEST PUSH2 0xA90 PUSH1 0x2 DUP4 ADD PUSH0 PUSH2 0x1B5C JUMP JUMPDEST PUSH2 0xA9D PUSH1 0x3 DUP4 ADD PUSH0 PUSH2 0x1B5C JUMP JUMPDEST PUSH1 0x4 DUP3 ADD DUP1 SLOAD PUSH1 0x1 PUSH1 0x1 PUSH1 0x88 SHL SUB NOT AND SWAP1 SSTORE PUSH2 0xABC PUSH1 0x5 DUP4 ADD PUSH0 PUSH2 0x1B5C JUMP JUMPDEST PUSH2 0xAC9 PUSH1 0x6 DUP4 ADD PUSH0 PUSH2 0x1B5C JUMP JUMPDEST POP PUSH0 PUSH1 0x7 DUP3 ADD DUP2 SWAP1 SSTORE PUSH1 0x8 SWAP1 SWAP2 ADD DUP1 SLOAD PUSH1 0x1 PUSH1 0x1 PUSH1 0x80 SHL SUB NOT AND SWAP1 SSTORE PUSH1 0x1 PUSH1 0x1 PUSH1 0x80 SHL SUB DUP4 AND DUP2 MSTORE PUSH1 0x2 PUSH1 0x20 MSTORE PUSH1 0x40 DUP2 KECCAK256 SWAP1 PUSH0 NOT SWAP1 JUMPDEST DUP3 SLOAD DUP2 LT ISZERO PUSH2 0xC2E JUMPI DUP4 PUSH1 0x1 PUSH1 0x1 PUSH1 0x80 SHL SUB AND DUP4 DUP3 DUP2 SLOAD DUP2 LT PUSH2 0xB24 JUMPI PUSH2 0xB24 PUSH2 0x2454 JUMP JUMPDEST PUSH0 SWAP2 DUP3 MSTORE PUSH1 0x20 SWAP1 SWAP2 KECCAK256 PUSH1 0x2 DUP3 DIV ADD SLOAD PUSH1 0x1 SWAP1 SWAP2 AND PUSH1 0x10 MUL PUSH2 0x100 EXP SWAP1 DIV PUSH1 0x1 PUSH1 0x1 PUSH1 0x80 SHL SUB AND SUB PUSH2 0xC26 JUMPI DUP3 SLOAD DUP4 SWAP1 PUSH2 0xB5F SWAP1 PUSH1 0x1 SWAP1 PUSH2 0x247C JUMP JUMPDEST DUP2 SLOAD DUP2 LT PUSH2 0xB6F JUMPI PUSH2 0xB6F PUSH2 0x2454 JUMP JUMPDEST SWAP1 PUSH0 MSTORE PUSH1 0x20 PUSH0 KECCAK256 SWAP1 PUSH1 0x2 SWAP2 DUP3 DUP3 DIV ADD SWAP2 SWAP1 MOD PUSH1 0x10 MUL SWAP1 SLOAD SWAP1 PUSH2 0x100 EXP SWAP1 DIV PUSH1 0x1 PUSH1 0x1 PUSH1 0x80 SHL SUB AND DUP4 DUP3 DUP2 SLOAD DUP2 LT PUSH2 0xBA8 JUMPI PUSH2 0xBA8 PUSH2 0x2454 JUMP JUMPDEST SWAP1 PUSH0 MSTORE PUSH1 0x20 PUSH0 KECCAK256 SWAP1 PUSH1 0x2 SWAP2 DUP3 DUP3 DIV ADD SWAP2 SWAP1 MOD PUSH1 0x10 MUL PUSH2 0x100 EXP DUP2 SLOAD DUP2 PUSH1 0x1 PUSH1 0x1 PUSH1 0x80 SHL SUB MUL NOT AND SWAP1 DUP4 PUSH1 0x1 PUSH1 0x1 PUSH1 0x80 SHL SUB AND MUL OR SWAP1 SSTORE POP DUP3 DUP1 SLOAD DUP1 PUSH2 0xBEF JUMPI PUSH2 0xBEF PUSH2 0x248F JUMP JUMPDEST PUSH0 DUP3 DUP2 MSTORE PUSH1 0x20 SWAP1 KECCAK256 PUSH1 0x2 PUSH0 NOT SWAP1 SWAP3 ADD SWAP2 DUP3 DIV ADD DUP1 SLOAD PUSH1 0x1 PUSH1 0x1 PUSH1 0x80 SHL SUB PUSH1 0x10 PUSH1 0x1 DUP6 AND MUL PUSH2 0x100 EXP MUL NOT AND SWAP1 SSTORE SWAP1 SSTORE SWAP1 POP DUP1 PUSH2 0xC2E JUMP JUMPDEST PUSH1 0x1 ADD PUSH2 0xAFF JUMP JUMPDEST POP PUSH0 NOT DUP2 SUB PUSH2 0xC50 JUMPI PUSH1 0x40 MLOAD PUSH4 0xB464E29 PUSH1 0xE2 SHL DUP2 MSTORE PUSH1 0x4 ADD PUSH1 0x40 MLOAD DUP1 SWAP2 SUB SWAP1 REVERT JUMPDEST PUSH1 0x40 MLOAD PUSH1 0x1 PUSH1 0x1 PUSH1 0x80 SHL SUB DUP3 DUP2 AND DUP3 MSTORE DUP1 DUP6 AND SWAP2 SWAP1 DUP7 AND SWAP1 PUSH32 0x8D71C5AFD7A0F7FBD09E9DFD0BF5B47E59048F35CC2E712E78F7CE3E15EE71F6 SWAP1 PUSH1 0x20 ADD PUSH1 0x40 MLOAD DUP1 SWAP2 SUB SWAP1 LOG3 POP POP POP POP JUMP JUMPDEST PUSH1 0x1 PUSH1 0x1 PUSH1 0x80 SHL SUB DUP2 AND PUSH0 SWAP1 DUP2 MSTORE PUSH1 0x2 PUSH1 0x20 MSTORE PUSH1 0x40 DUP2 KECCAK256 DUP1 SLOAD PUSH1 0x60 SWAP3 DUP2 SWAP1 SUB PUSH2 0xCF7 JUMPI PUSH1 0x40 DUP1 MLOAD PUSH0 DUP1 DUP3 MSTORE PUSH1 0x20 DUP3 ADD SWAP1 SWAP3 MSTORE SWAP1 PUSH2 0xCEE JUMP JUMPDEST PUSH2 0xCDB PUSH2 0x1ACA JUMP JUMPDEST DUP2 MSTORE PUSH1 0x20 ADD SWAP1 PUSH1 0x1 SWAP1 SUB SWAP1 DUP2 PUSH2 0xCD3 JUMPI SWAP1 POP JUMPDEST POP SWAP5 SWAP4 POP POP POP POP JUMP JUMPDEST PUSH0 DUP2 PUSH1 0x1 PUSH1 0x1 PUSH1 0x40 SHL SUB DUP2 GT ISZERO PUSH2 0xD10 JUMPI PUSH2 0xD10 PUSH2 0x1D87 JUMP JUMPDEST PUSH1 0x40 MLOAD SWAP1 DUP1 DUP3 MSTORE DUP1 PUSH1 0x20 MUL PUSH1 0x20 ADD DUP3 ADD PUSH1 0x40 MSTORE DUP1 ISZERO PUSH2 0xD49 JUMPI DUP2 PUSH1 0x20 ADD JUMPDEST PUSH2 0xD36 PUSH2 0x1ACA JUMP JUMPDEST DUP2 MSTORE PUSH1 0x20 ADD SWAP1 PUSH1 0x1 SWAP1 SUB SWAP1 DUP2 PUSH2 0xD2E JUMPI SWAP1 POP JUMPDEST POP SWAP1 POP PUSH0 JUMPDEST DUP3 DUP2 PUSH1 0x1 PUSH1 0x1 PUSH1 0x80 SHL SUB AND LT ISZERO PUSH2 0xCEE JUMPI PUSH0 DUP5 DUP3 PUSH1 0x1 PUSH1 0x1 PUSH1 0x80 SHL SUB AND DUP2 SLOAD DUP2 LT PUSH2 0xD7B JUMPI PUSH2 0xD7B PUSH2 0x2454 JUMP JUMPDEST PUSH0 SWAP2 DUP3 MSTORE PUSH1 0x20 DUP1 DUP4 KECCAK256 PUSH1 0x2 DUP4 DIV ADD SLOAD PUSH1 0x1 PUSH1 0x1 PUSH1 0x80 SHL SUB DUP12 DUP2 AND DUP6 MSTORE DUP5 DUP4 MSTORE PUSH1 0x40 DUP1 DUP7 KECCAK256 PUSH1 0x1 SWAP1 SWAP6 AND PUSH1 0x10 MUL PUSH2 0x100 EXP SWAP1 SWAP3 DIV DUP2 AND DUP1 DUP7 MSTORE SWAP4 SWAP1 SWAP3 MSTORE SWAP1 SWAP3 KECCAK256 SLOAD SWAP1 SWAP3 POP AND ISZERO PUSH2 0x1158 JUMPI PUSH1 0x1 PUSH1 0x1 PUSH1 0x80 SHL SUB DUP1 DUP9 AND PUSH0 SWAP1 DUP2 MSTORE PUSH1 0x20 DUP2 DUP2 MSTORE PUSH1 0x40 DUP1 DUP4 KECCAK256 DUP6 DUP6 AND DUP5 MSTORE DUP3 MSTORE SWAP2 DUP3 SWAP1 KECCAK256 DUP3 MLOAD PUSH2 0x180 DUP2 ADD DUP5 MSTORE DUP2 SLOAD DUP1 DUP7 AND DUP3 MSTORE PUSH1 0x1 PUSH1 0x80 SHL SWAP1 DIV SWAP1 SWAP5 AND SWAP2 DUP5 ADD SWAP2 SWAP1 SWAP2 MSTORE PUSH1 0x1 DUP2 ADD DUP1 SLOAD SWAP2 SWAP3 DUP5 ADD SWAP2 PUSH2 0xE1D SWAP1 PUSH2 0x22E4 JUMP JUMPDEST DUP1 PUSH1 0x1F ADD PUSH1 0x20 DUP1 SWAP2 DIV MUL PUSH1 0x20 ADD PUSH1 0x40 MLOAD SWAP1 DUP2 ADD PUSH1 0x40 MSTORE DUP1 SWAP3 SWAP2 SWAP1 DUP2 DUP2 MSTORE PUSH1 0x20 ADD DUP3 DUP1 SLOAD PUSH2 0xE49 SWAP1 PUSH2 0x22E4 JUMP JUMPDEST DUP1 ISZERO PUSH2 0xE94 JUMPI DUP1 PUSH1 0x1F LT PUSH2 0xE6B JUMPI PUSH2 0x100 DUP1 DUP4 SLOAD DIV MUL DUP4 MSTORE SWAP2 PUSH1 0x20 ADD SWAP2 PUSH2 0xE94 JUMP JUMPDEST DUP3 ADD SWAP2 SWAP1 PUSH0 MSTORE PUSH1 0x20 PUSH0 KECCAK256 SWAP1 JUMPDEST DUP2 SLOAD DUP2 MSTORE SWAP1 PUSH1 0x1 ADD SWAP1 PUSH1 0x20 ADD DUP1 DUP4 GT PUSH2 0xE77 JUMPI DUP3 SWAP1 SUB PUSH1 0x1F AND DUP3 ADD SWAP2 JUMPDEST POP POP POP POP POP DUP2 MSTORE PUSH1 0x20 ADD PUSH1 0x2 DUP3 ADD DUP1 SLOAD PUSH2 0xEAD SWAP1 PUSH2 0x22E4 JUMP JUMPDEST DUP1 PUSH1 0x1F ADD PUSH1 0x20 DUP1 SWAP2 DIV MUL PUSH1 0x20 ADD PUSH1 0x40 MLOAD SWAP1 DUP2 ADD PUSH1 0x40 MSTORE DUP1 SWAP3 SWAP2 SWAP1 DUP2 DUP2 MSTORE PUSH1 0x20 ADD DUP3 DUP1 SLOAD PUSH2 0xED9 SWAP1 PUSH2 0x22E4 JUMP JUMPDEST DUP1 ISZERO PUSH2 0xF24 JUMPI DUP1 PUSH1 0x1F LT PUSH2 0xEFB JUMPI PUSH2 0x100 DUP1 DUP4 SLOAD DIV MUL DUP4 MSTORE SWAP2 PUSH1 0x20 ADD SWAP2 PUSH2 0xF24 JUMP JUMPDEST DUP3 ADD SWAP2 SWAP1 PUSH0 MSTORE PUSH1 0x20 PUSH0 KECCAK256 SWAP1 JUMPDEST DUP2 SLOAD DUP2 MSTORE SWAP1 PUSH1 0x1 ADD SWAP1 PUSH1 0x20 ADD DUP1 DUP4 GT PUSH2 0xF07 JUMPI DUP3 SWAP1 SUB PUSH1 0x1F AND DUP3 ADD SWAP2 JUMPDEST POP POP POP POP POP DUP2 MSTORE PUSH1 0x20 ADD PUSH1 0x3 DUP3 ADD DUP1 SLOAD PUSH2 0xF3D SWAP1 PUSH2 0x22E4 JUMP JUMPDEST DUP1 PUSH1 0x1F ADD PUSH1 0x20 DUP1 SWAP2 DIV MUL PUSH1 0x20 ADD PUSH1 0x40 MLOAD SWAP1 DUP2 ADD PUSH1 0x40 MSTORE DUP1 SWAP3 SWAP2 SWAP1 DUP2 DUP2 MSTORE PUSH1 0x20 ADD DUP3 DUP1 SLOAD PUSH2 0xF69 SWAP1 PUSH2 0x22E4 JUMP JUMPDEST DUP1 ISZERO PUSH2 0xFB4 JUMPI DUP1 PUSH1 0x1F LT PUSH2 0xF8B JUMPI PUSH2 0x100 DUP1 DUP4 SLOAD DIV MUL DUP4 MSTORE SWAP2 PUSH1 0x20 ADD SWAP2 PUSH2 0xFB4 JUMP JUMPDEST DUP3 ADD SWAP2 SWAP1 PUSH0 MSTORE PUSH1 0x20 PUSH0 KECCAK256 SWAP1 JUMPDEST DUP2 SLOAD DUP2 MSTORE SWAP1 PUSH1 0x1 ADD SWAP1 PUSH1 0x20 ADD DUP1 DUP4 GT PUSH2 0xF97 JUMPI DUP3 SWAP1 SUB PUSH1 0x1F AND DUP3 ADD SWAP2 JUMPDEST POP POP POP SWAP2 DUP4 MSTORE POP POP PUSH1 0x4 DUP3 ADD SLOAD PUSH1 0x1 PUSH1 0x1 PUSH1 0x80 SHL SUB DUP2 AND PUSH1 0x20 DUP4 ADD MSTORE PUSH1 0x1 PUSH1 0x80 SHL SWAP1 DIV PUSH1 0xFF AND ISZERO ISZERO PUSH1 0x40 DUP3 ADD MSTORE PUSH1 0x5 DUP3 ADD DUP1 SLOAD PUSH1 0x60 SWAP1 SWAP3 ADD SWAP2 PUSH2 0xFF6 SWAP1 PUSH2 0x22E4 JUMP JUMPDEST DUP1 PUSH1 0x1F ADD PUSH1 0x20 DUP1 SWAP2 DIV MUL PUSH1 0x20 ADD PUSH1 0x40 MLOAD SWAP1 DUP2 ADD PUSH1 0x40 MSTORE DUP1 SWAP3 SWAP2 SWAP1 DUP2 DUP2 MSTORE PUSH1 0x20 ADD DUP3 DUP1 SLOAD PUSH2 0x1022 SWAP1 PUSH2 0x22E4 JUMP JUMPDEST DUP1 ISZERO PUSH2 0x106D JUMPI DUP1 PUSH1 0x1F LT PUSH2 0x1044 JUMPI PUSH2 0x100 DUP1 DUP4 SLOAD DIV MUL DUP4 MSTORE SWAP2 PUSH1 0x20 ADD SWAP2 PUSH2 0x106D JUMP JUMPDEST DUP3 ADD SWAP2 SWAP1 PUSH0 MSTORE PUSH1 0x20 PUSH0 KECCAK256 SWAP1 JUMPDEST DUP2 SLOAD DUP2 MSTORE SWAP1 PUSH1 0x1 ADD SWAP1 PUSH1 0x20 ADD DUP1 DUP4 GT PUSH2 0x1050 JUMPI DUP3 SWAP1 SUB PUSH1 0x1F AND DUP3 ADD SWAP2 JUMPDEST POP POP POP POP POP DUP2 MSTORE PUSH1 0x20 ADD PUSH1 0x6 DUP3 ADD DUP1 SLOAD PUSH2 0x1086 SWAP1 PUSH2 0x22E4 JUMP JUMPDEST DUP1 PUSH1 0x1F ADD PUSH1 0x20 DUP1 SWAP2 DIV MUL PUSH1 0x20 ADD PUSH1 0x40 MLOAD SWAP1 DUP2 ADD PUSH1 0x40 MSTORE DUP1 SWAP3 SWAP2 SWAP1 DUP2 DUP2 MSTORE PUSH1 0x20 ADD DUP3 DUP1 SLOAD PUSH2 0x10B2 SWAP1 PUSH2 0x22E4 JUMP JUMPDEST DUP1 ISZERO PUSH2 0x10FD JUMPI DUP1 PUSH1 0x1F LT PUSH2 0x10D4 JUMPI PUSH2 0x100 DUP1 DUP4 SLOAD DIV MUL DUP4 MSTORE SWAP2 PUSH1 0x20 ADD SWAP2 PUSH2 0x10FD JUMP JUMPDEST DUP3 ADD SWAP2 SWAP1 PUSH0 MSTORE PUSH1 0x20 PUSH0 KECCAK256 SWAP1 JUMPDEST DUP2 SLOAD DUP2 MSTORE SWAP1 PUSH1 0x1 ADD SWAP1 PUSH1 0x20 ADD DUP1 DUP4 GT PUSH2 0x10E0 JUMPI DUP3 SWAP1 SUB PUSH1 0x1F AND DUP3 ADD SWAP2 JUMPDEST POP POP POP SWAP2 DUP4 MSTORE POP POP PUSH1 0x7 DUP3 ADD SLOAD PUSH1 0x1 PUSH1 0x1 PUSH1 0x80 SHL SUB DUP1 DUP3 AND PUSH1 0x20 DUP5 ADD MSTORE PUSH1 0x1 PUSH1 0x80 SHL SWAP1 SWAP2 DIV DUP2 AND PUSH1 0x40 DUP4 ADD MSTORE PUSH1 0x8 SWAP1 SWAP3 ADD SLOAD DUP3 AND PUSH1 0x60 SWAP1 SWAP2 ADD MSTORE DUP5 MLOAD DUP6 SWAP2 DUP6 AND SWAP1 DUP2 LT PUSH2 0x114C JUMPI PUSH2 0x114C PUSH2 0x2454 JUMP JUMPDEST PUSH1 0x20 MUL PUSH1 0x20 ADD ADD DUP2 SWAP1 MSTORE POP JUMPDEST POP DUP1 PUSH2 0x1163 DUP2 PUSH2 0x24A3 JUMP JUMPDEST SWAP2 POP POP PUSH2 0xD4E JUMP JUMPDEST PUSH1 0x1 PUSH1 0x1 PUSH1 0x80 SHL SUB DUP2 AND PUSH0 SWAP1 DUP2 MSTORE PUSH1 0x2 PUSH1 0x20 MSTORE PUSH1 0x40 DUP2 KECCAK256 DUP1 SLOAD PUSH1 0x60 SWAP3 SWAP1 PUSH1 0x1 PUSH1 0x1 PUSH1 0x40 SHL SUB DUP2 GT ISZERO PUSH2 0x119F JUMPI PUSH2 0x119F PUSH2 0x1D87 JUMP JUMPDEST PUSH1 0x40 MLOAD SWAP1 DUP1 DUP3 MSTORE DUP1 PUSH1 0x20 MUL PUSH1 0x20 ADD DUP3 ADD PUSH1 0x40 MSTORE DUP1 ISZERO PUSH2 0x11C8 JUMPI DUP2 PUSH1 0x20 ADD PUSH1 0x20 DUP3 MUL DUP1 CALLDATASIZE DUP4 CALLDATACOPY ADD SWAP1 POP JUMPDEST POP SWAP1 POP PUSH0 JUMPDEST DUP3 SLOAD DUP2 LT ISZERO PUSH2 0x1241 JUMPI DUP3 DUP2 DUP2 SLOAD DUP2 LT PUSH2 0x11E8 JUMPI PUSH2 0x11E8 PUSH2 0x2454 JUMP JUMPDEST SWAP1 PUSH0 MSTORE PUSH1 0x20 PUSH0 KECCAK256 SWAP1 PUSH1 0x2 SWAP2 DUP3 DUP3 DIV ADD SWAP2 SWAP1 MOD PUSH1 0x10 MUL SWAP1 SLOAD SWAP1 PUSH2 0x100 EXP SWAP1 DIV PUSH1 0x1 PUSH1 0x1 PUSH1 0x80 SHL SUB AND DUP3 DUP3 DUP2 MLOAD DUP2 LT PUSH2 0x1221 JUMPI PUSH2 0x1221 PUSH2 0x2454 JUMP JUMPDEST PUSH1 0x1 PUSH1 0x1 PUSH1 0x80 SHL SUB SWAP1 SWAP3 AND PUSH1 0x20 SWAP3 DUP4 MUL SWAP2 SWAP1 SWAP2 ADD SWAP1 SWAP2 ADD MSTORE PUSH1 0x1 ADD PUSH2 0x11CD JUMP JUMPDEST POP SWAP4 SWAP3 POP POP POP JUMP JUMPDEST PUSH2 0x1251 PUSH2 0x19B9 JUMP JUMPDEST PUSH2 0x125A PUSH0 PUSH2 0x1A14 JUMP JUMPDEST JUMP JUMPDEST PUSH0 PUSH1 0x20 DUP2 DUP2 MSTORE SWAP3 DUP2 MSTORE PUSH1 0x40 DUP1 DUP3 KECCAK256 SWAP1 SWAP4 MSTORE SWAP1 DUP2 MSTORE KECCAK256 DUP1 SLOAD PUSH1 0x1 DUP3 ADD DUP1 SLOAD PUSH1 0x1 PUSH1 0x1 PUSH1 0x80 SHL SUB DUP1 DUP5 AND SWAP5 PUSH1 0x1 PUSH1 0x80 SHL SWAP1 SWAP5 DIV AND SWAP3 SWAP2 SWAP1 PUSH2 0x129A SWAP1 PUSH2 0x22E4 JUMP JUMPDEST DUP1 PUSH1 0x1F ADD PUSH1 0x20 DUP1 SWAP2 DIV MUL PUSH1 0x20 ADD PUSH1 0x40 MLOAD SWAP1 DUP2 ADD PUSH1 0x40 MSTORE DUP1 SWAP3 SWAP2 SWAP1 DUP2 DUP2 MSTORE PUSH1 0x20 ADD DUP3 DUP1 SLOAD PUSH2 0x12C6 SWAP1 PUSH2 0x22E4 JUMP JUMPDEST DUP1 ISZERO PUSH2 0x1311 JUMPI DUP1 PUSH1 0x1F LT PUSH2 0x12E8 JUMPI PUSH2 0x100 DUP1 DUP4 SLOAD DIV MUL DUP4 MSTORE SWAP2 PUSH1 0x20 ADD SWAP2 PUSH2 0x1311 JUMP JUMPDEST DUP3 ADD SWAP2 SWAP1 PUSH0 MSTORE PUSH1 0x20 PUSH0 KECCAK256 SWAP1 JUMPDEST DUP2 SLOAD DUP2 MSTORE SWAP1 PUSH1 0x1 ADD SWAP1 PUSH1 0x20 ADD DUP1 DUP4 GT PUSH2 0x12F4 JUMPI DUP3 SWAP1 SUB PUSH1 0x1F AND DUP3 ADD SWAP2 JUMPDEST POP POP POP POP POP SWAP1 DUP1 PUSH1 0x2 ADD DUP1 SLOAD PUSH2 0x1326 SWAP1 PUSH2 0x22E4 JUMP JUMPDEST DUP1 PUSH1 0x1F ADD PUSH1 0x20 DUP1 SWAP2 DIV MUL PUSH1 0x20 ADD PUSH1 0x40 MLOAD SWAP1 DUP2 ADD PUSH1 0x40 MSTORE DUP1 SWAP3 SWAP2 SWAP1 DUP2 DUP2 MSTORE PUSH1 0x20 ADD DUP3 DUP1 SLOAD PUSH2 0x1352 SWAP1 PUSH2 0x22E4 JUMP JUMPDEST DUP1 ISZERO PUSH2 0x139D JUMPI DUP1 PUSH1 0x1F LT PUSH2 0x1374 JUMPI PUSH2 0x100 DUP1 DUP4 SLOAD DIV MUL DUP4 MSTORE SWAP2 PUSH1 0x20 ADD SWAP2 PUSH2 0x139D JUMP JUMPDEST DUP3 ADD SWAP2 SWAP1 PUSH0 MSTORE PUSH1 0x20 PUSH0 KECCAK256 SWAP1 JUMPDEST DUP2 SLOAD DUP2 MSTORE SWAP1 PUSH1 0x1 ADD SWAP1 PUSH1 0x20 ADD DUP1 DUP4 GT PUSH2 0x1380 JUMPI DUP3 SWAP1 SUB PUSH1 0x1F AND DUP3 ADD SWAP2 JUMPDEST POP POP POP POP POP SWAP1 DUP1 PUSH1 0x3 ADD DUP1 SLOAD PUSH2 0x13B2 SWAP1 PUSH2 0x22E4 JUMP JUMPDEST DUP1 PUSH1 0x1F ADD PUSH1 0x20 DUP1 SWAP2 DIV MUL PUSH1 0x20 ADD PUSH1 0x40 MLOAD SWAP1 DUP2 ADD PUSH1 0x40 MSTORE DUP1 SWAP3 SWAP2 SWAP1 DUP2 DUP2 MSTORE PUSH1 0x20 ADD DUP3 DUP1 SLOAD PUSH2 0x13DE SWAP1 PUSH2 0x22E4 JUMP JUMPDEST DUP1 ISZERO PUSH2 0x1429 JUMPI DUP1 PUSH1 0x1F LT PUSH2 0x1400 JUMPI PUSH2 0x100 DUP1 DUP4 SLOAD DIV MUL DUP4 MSTORE SWAP2 PUSH1 0x20 ADD SWAP2 PUSH2 0x1429 JUMP JUMPDEST DUP3 ADD SWAP2 SWAP1 PUSH0 MSTORE PUSH1 0x20 PUSH0 KECCAK256 SWAP1 JUMPDEST DUP2 SLOAD DUP2 MSTORE SWAP1 PUSH1 0x1 ADD SWAP1 PUSH1 0x20 ADD DUP1 DUP4 GT PUSH2 0x140C JUMPI DUP3 SWAP1 SUB PUSH1 0x1F AND DUP3 ADD SWAP2 JUMPDEST POP POP POP POP PUSH1 0x4 DUP4 ADD SLOAD PUSH1 0x5 DUP5 ADD DUP1 SLOAD SWAP4 SWAP5 PUSH1 0x1 PUSH1 0x1 PUSH1 0x80 SHL SUB DUP4 AND SWAP5 PUSH1 0x1 PUSH1 0x80 SHL SWAP1 SWAP4 DIV PUSH1 0xFF AND SWAP4 POP SWAP2 PUSH2 0x145C SWAP1 PUSH2 0x22E4 JUMP JUMPDEST DUP1 PUSH1 0x1F ADD PUSH1 0x20 DUP1 SWAP2 DIV MUL PUSH1 0x20 ADD PUSH1 0x40 MLOAD SWAP1 DUP2 ADD PUSH1 0x40 MSTORE DUP1 SWAP3 SWAP2 SWAP1 DUP2 DUP2 MSTORE PUSH1 0x20 ADD DUP3 DUP1 SLOAD PUSH2 0x1488 SWAP1 PUSH2 0x22E4 JUMP JUMPDEST DUP1 ISZERO PUSH2 0x14D3 JUMPI DUP1 PUSH1 0x1F LT PUSH2 0x14AA JUMPI PUSH2 0x100 DUP1 DUP4 SLOAD DIV MUL DUP4 MSTORE SWAP2 PUSH1 0x20 ADD SWAP2 PUSH2 0x14D3 JUMP JUMPDEST DUP3 ADD SWAP2 SWAP1 PUSH0 MSTORE PUSH1 0x20 PUSH0 KECCAK256 SWAP1 JUMPDEST DUP2 SLOAD DUP2 MSTORE SWAP1 PUSH1 0x1 ADD SWAP1 PUSH1 0x20 ADD DUP1 DUP4 GT PUSH2 0x14B6 JUMPI DUP3 SWAP1 SUB PUSH1 0x1F AND DUP3 ADD SWAP2 JUMPDEST POP POP POP POP POP SWAP1 DUP1 PUSH1 0x6 ADD DUP1 SLOAD PUSH2 0x14E8 SWAP1 PUSH2 0x22E4 JUMP JUMPDEST DUP1 PUSH1 0x1F ADD PUSH1 0x20 DUP1 SWAP2 DIV MUL PUSH1 0x20 ADD PUSH1 0x40 MLOAD SWAP1 DUP2 ADD PUSH1 0x40 MSTORE DUP1 SWAP3 SWAP2 SWAP1 DUP2 DUP2 MSTORE PUSH1 0x20 ADD DUP3 DUP1 SLOAD PUSH2 0x1514 SWAP1 PUSH2 0x22E4 JUMP JUMPDEST DUP1 ISZERO PUSH2 0x155F JUMPI DUP1 PUSH1 0x1F LT PUSH2 0x1536 JUMPI PUSH2 0x100 DUP1 DUP4 SLOAD DIV MUL DUP4 MSTORE SWAP2 PUSH1 0x20 ADD SWAP2 PUSH2 0x155F JUMP JUMPDEST DUP3 ADD SWAP2 SWAP1 PUSH0 MSTORE PUSH1 0x20 PUSH0 KECCAK256 SWAP1 JUMPDEST DUP2 SLOAD DUP2 MSTORE SWAP1 PUSH1 0x1 ADD SWAP1 PUSH1 0x20 ADD DUP1 DUP4 GT PUSH2 0x1542 JUMPI DUP3 SWAP1 SUB PUSH1 0x1F AND DUP3 ADD SWAP2 JUMPDEST POP POP POP POP PUSH1 0x7 DUP4 ADD SLOAD PUSH1 0x8 SWAP1 SWAP4 ADD SLOAD SWAP2 SWAP3 PUSH1 0x1 PUSH1 0x1 PUSH1 0x80 SHL SUB DUP1 DUP3 AND SWAP4 PUSH1 0x1 PUSH1 0x80 SHL SWAP1 SWAP3 DIV DUP2 AND SWAP3 POP AND DUP13 JUMP JUMPDEST PUSH1 0x3 SLOAD PUSH1 0x1 PUSH1 0x1 PUSH1 0xA0 SHL SUB AND CALLER EQ PUSH2 0x15B7 JUMPI PUSH1 0x40 MLOAD PUSH4 0xA8784C1 PUSH1 0xE4 SHL DUP2 MSTORE PUSH1 0x4 ADD PUSH1 0x40 MLOAD DUP1 SWAP2 SUB SWAP1 REVERT JUMPDEST DUP7 MLOAD PUSH0 SUB PUSH2 0x15D8 JUMPI PUSH1 0x40 MLOAD PUSH4 0xDC35617 PUSH1 0xE4 SHL DUP2 MSTORE PUSH1 0x4 ADD PUSH1 0x40 MLOAD DUP1 SWAP2 SUB SWAP1 REVERT JUMPDEST DUP4 PUSH1 0x1 PUSH1 0x1 PUSH1 0x80 SHL SUB AND PUSH0 SUB PUSH2 0x1601 JUMPI PUSH1 0x40 MLOAD PUSH4 0x14315ECF PUSH1 0xE2 SHL DUP2 MSTORE PUSH1 0x4 ADD PUSH1 0x40 MLOAD DUP1 SWAP2 SUB SWAP1 REVERT JUMPDEST PUSH1 0x1 PUSH1 0x1 PUSH1 0x80 SHL SUB DUP1 DUP10 AND PUSH0 SWAP1 DUP2 MSTORE PUSH1 0x1 PUSH1 0x20 MSTORE PUSH1 0x40 DUP2 KECCAK256 SLOAD SWAP1 SWAP2 AND SWAP1 SUB PUSH2 0x164F JUMPI PUSH1 0x1 PUSH1 0x1 PUSH1 0x80 SHL SUB DUP9 AND PUSH0 SWAP1 DUP2 MSTORE PUSH1 0x1 PUSH1 0x20 DUP2 SWAP1 MSTORE PUSH1 0x40 SWAP1 SWAP2 KECCAK256 DUP1 SLOAD PUSH1 0x1 PUSH1 0x1 PUSH1 0x80 SHL SUB NOT AND SWAP1 SWAP2 OR SWAP1 SSTORE JUMPDEST PUSH1 0x1 PUSH1 0x1 PUSH1 0x80 SHL SUB DUP1 DUP10 AND PUSH0 SWAP1 DUP2 MSTORE PUSH1 0x1 PUSH1 0x20 MSTORE PUSH1 0x40 DUP2 KECCAK256 DUP1 SLOAD SWAP1 SWAP3 AND SWAP2 DUP3 SWAP2 PUSH2 0x1678 DUP4 PUSH2 0x24A3 JUMP JUMPDEST SWAP2 SWAP1 PUSH2 0x100 EXP DUP2 SLOAD DUP2 PUSH1 0x1 PUSH1 0x1 PUSH1 0x80 SHL SUB MUL NOT AND SWAP1 DUP4 PUSH1 0x1 PUSH1 0x1 PUSH1 0x80 SHL SUB AND MUL OR SWAP1 SSTORE POP POP PUSH1 0x40 MLOAD DUP1 PUSH2 0x180 ADD PUSH1 0x40 MSTORE DUP1 DUP3 PUSH1 0x1 PUSH1 0x1 PUSH1 0x80 SHL SUB AND DUP2 MSTORE PUSH1 0x20 ADD DUP11 PUSH1 0x1 PUSH1 0x1 PUSH1 0x80 SHL SUB AND DUP2 MSTORE PUSH1 0x20 ADD DUP10 DUP2 MSTORE PUSH1 0x20 ADD DUP9 DUP2 MSTORE PUSH1 0x20 ADD DUP8 DUP2 MSTORE PUSH1 0x20 ADD DUP7 PUSH1 0x1 PUSH1 0x1 PUSH1 0x80 SHL SUB AND DUP2 MSTORE PUSH1 0x20 ADD PUSH1 0x1 ISZERO ISZERO DUP2 MSTORE PUSH1 0x20 ADD DUP6 DUP2 MSTORE PUSH1 0x20 ADD DUP5 DUP2 MSTORE PUSH1 0x20 ADD PUSH0 PUSH1 0x1 PUSH1 0x1 PUSH1 0x80 SHL SUB AND DUP2 MSTORE PUSH1 0x20 ADD PUSH0 PUSH1 0x1 PUSH1 0x1 PUSH1 0x80 SHL SUB AND DUP2 MSTORE PUSH1 0x20 ADD DUP4 PUSH1 0x1 PUSH1 0x1 PUSH1 0x80 SHL SUB AND DUP2 MSTORE POP PUSH0 PUSH0 DUP12 PUSH1 0x1 PUSH1 0x1 PUSH1 0x80 SHL SUB AND PUSH1 0x1 PUSH1 0x1 PUSH1 0x80 SHL SUB AND DUP2 MSTORE PUSH1 0x20 ADD SWAP1 DUP2 MSTORE PUSH1 0x20 ADD PUSH0 KECCAK256 PUSH0 DUP4 PUSH1 0x1 PUSH1 0x1 PUSH1 0x80 SHL SUB AND PUSH1 0x1 PUSH1 0x1 PUSH1 0x80 SHL SUB AND DUP2 MSTORE PUSH1 0x20 ADD SWAP1 DUP2 MSTORE PUSH1 0x20 ADD PUSH0 KECCAK256 PUSH0 DUP3 ADD MLOAD DUP2 PUSH0 ADD PUSH0 PUSH2 0x100 EXP DUP2 SLOAD DUP2 PUSH1 0x1 PUSH1 0x1 PUSH1 0x80 SHL SUB MUL NOT AND SWAP1 DUP4 PUSH1 0x1 PUSH1 0x1 PUSH1 0x80 SHL SUB AND MUL OR SWAP1 SSTORE POP PUSH1 0x20 DUP3 ADD MLOAD DUP2 PUSH0 ADD PUSH1 0x10 PUSH2 0x100 EXP DUP2 SLOAD DUP2 PUSH1 0x1 PUSH1 0x1 PUSH1 0x80 SHL SUB MUL NOT AND SWAP1 DUP4 PUSH1 0x1 PUSH1 0x1 PUSH1 0x80 SHL SUB AND MUL OR SWAP1 SSTORE POP PUSH1 0x40 DUP3 ADD MLOAD DUP2 PUSH1 0x1 ADD SWAP1 DUP2 PUSH2 0x17D6 SWAP2 SWAP1 PUSH2 0x2368 JUMP JUMPDEST POP PUSH1 0x60 DUP3 ADD MLOAD PUSH1 0x2 DUP3 ADD SWAP1 PUSH2 0x17EB SWAP1 DUP3 PUSH2 0x2368 JUMP JUMPDEST POP PUSH1 0x80 DUP3 ADD MLOAD PUSH1 0x3 DUP3 ADD SWAP1 PUSH2 0x1800 SWAP1 DUP3 PUSH2 0x2368 JUMP JUMPDEST POP PUSH1 0xA0 DUP3 ADD MLOAD PUSH1 0x4 DUP3 ADD DUP1 SLOAD PUSH1 0xC0 DUP6 ADD MLOAD ISZERO ISZERO PUSH1 0x1 PUSH1 0x80 SHL MUL PUSH1 0x1 PUSH1 0x1 PUSH1 0x88 SHL SUB NOT SWAP1 SWAP2 AND PUSH1 0x1 PUSH1 0x1 PUSH1 0x80 SHL SUB SWAP1 SWAP4 AND SWAP3 SWAP1 SWAP3 OR SWAP2 SWAP1 SWAP2 OR SWAP1 SSTORE PUSH1 0xE0 DUP3 ADD MLOAD PUSH1 0x5 DUP3 ADD SWAP1 PUSH2 0x184E SWAP1 DUP3 PUSH2 0x2368 JUMP JUMPDEST POP PUSH2 0x100 DUP3 ADD MLOAD PUSH1 0x6 DUP3 ADD SWAP1 PUSH2 0x1864 SWAP1 DUP3 PUSH2 0x2368 JUMP JUMPDEST POP PUSH2 0x120 DUP3 ADD MLOAD PUSH2 0x140 DUP4 ADD MLOAD PUSH1 0x1 PUSH1 0x1 PUSH1 0x80 SHL SUB SWAP1 DUP2 AND PUSH1 0x1 PUSH1 0x80 SHL MUL SWAP2 DUP2 AND SWAP2 SWAP1 SWAP2 OR PUSH1 0x7 DUP4 ADD SSTORE PUSH2 0x160 SWAP1 SWAP3 ADD MLOAD PUSH1 0x8 SWAP1 SWAP2 ADD DUP1 SLOAD SWAP2 DUP4 AND PUSH1 0x1 PUSH1 0x1 PUSH1 0x80 SHL SUB NOT SWAP3 SWAP1 SWAP3 AND SWAP2 SWAP1 SWAP2 OR SWAP1 SSTORE DUP10 DUP2 AND PUSH0 DUP2 DUP2 MSTORE PUSH1 0x2 PUSH1 0x20 DUP2 DUP2 MSTORE PUSH1 0x40 DUP1 DUP5 KECCAK256 DUP1 SLOAD PUSH1 0x1 DUP2 DUP2 ADD DUP4 SSTORE SWAP2 DUP7 MSTORE SWAP3 SWAP1 SWAP5 KECCAK256 SWAP3 DUP3 DIV SWAP1 SWAP3 ADD DUP1 SLOAD DUP8 DUP8 AND SWAP3 SWAP1 SWAP5 AND PUSH1 0x10 MUL PUSH2 0x100 EXP DUP3 DUP2 MUL SWAP7 MUL NOT SWAP1 SWAP4 AND SWAP5 SWAP1 SWAP5 OR SWAP1 SWAP2 SSTORE MLOAD PUSH32 0x4B78E675E6619216A7D91D2DC26DE2461BD1FFE2788087EB2EE126924517A00F SWAP1 PUSH2 0x192B SWAP1 DUP13 SWAP1 DUP11 SWAP1 PUSH2 0x24CD JUMP JUMPDEST PUSH1 0x40 MLOAD DUP1 SWAP2 SUB SWAP1 LOG3 POP POP POP POP POP POP POP POP POP JUMP JUMPDEST PUSH2 0x1946 PUSH2 0x19B9 JUMP JUMPDEST PUSH1 0x1 PUSH1 0x1 PUSH1 0xA0 SHL SUB DUP2 AND PUSH2 0x1974 JUMPI PUSH1 0x40 MLOAD PUSH4 0x1E4FBDF7 PUSH1 0xE0 SHL DUP2 MSTORE PUSH0 PUSH1 0x4 DUP3 ADD MSTORE PUSH1 0x24 ADD JUMPDEST PUSH1 0x40 MLOAD DUP1 SWAP2 SUB SWAP1 REVERT JUMPDEST PUSH2 0x197D DUP2 PUSH2 0x1A14 JUMP JUMPDEST POP JUMP JUMPDEST PUSH0 DUP1 PUSH32 0xF0C57E16840DF040F15088DC2F81FE391C3923BEC73E23A9662EFC9C229C6A00 PUSH2 0x68B JUMP JUMPDEST PUSH2 0x19B0 PUSH2 0x1A84 JUMP JUMPDEST PUSH2 0x197D DUP2 PUSH2 0x1AA9 JUMP JUMPDEST CALLER PUSH2 0x19EB PUSH32 0x9016D09D72D40FDAE2FD8CEAC6B6234C7706214FD39C1CD1E609A0528C199300 SLOAD PUSH1 0x1 PUSH1 0x1 PUSH1 0xA0 SHL SUB AND SWAP1 JUMP JUMPDEST PUSH1 0x1 PUSH1 0x1 PUSH1 0xA0 SHL SUB AND EQ PUSH2 0x125A JUMPI PUSH1 0x40 MLOAD PUSH4 0x118CDAA7 PUSH1 0xE0 SHL DUP2 MSTORE CALLER PUSH1 0x4 DUP3 ADD MSTORE PUSH1 0x24 ADD PUSH2 0x196B JUMP JUMPDEST PUSH32 0x9016D09D72D40FDAE2FD8CEAC6B6234C7706214FD39C1CD1E609A0528C199300 DUP1 SLOAD PUSH1 0x1 PUSH1 0x1 PUSH1 0xA0 SHL SUB NOT DUP2 AND PUSH1 0x1 PUSH1 0x1 PUSH1 0xA0 SHL SUB DUP5 DUP2 AND SWAP2 DUP3 OR DUP5 SSTORE PUSH1 0x40 MLOAD SWAP3 AND SWAP2 DUP3 SWAP1 PUSH32 0x8BE0079C531659141344CD1FD0A4F28419497F9722A3DAAFE3B4186F6B6457E0 SWAP1 PUSH0 SWAP1 LOG3 POP POP POP JUMP JUMPDEST PUSH2 0x1A8C PUSH2 0x1AB1 JUMP JUMPDEST PUSH2 0x125A JUMPI PUSH1 0x40 MLOAD PUSH4 0x1AFCD79F PUSH1 0xE3 SHL DUP2 MSTORE PUSH1 0x4 ADD PUSH1 0x40 MLOAD DUP1 SWAP2 SUB SWAP1 REVERT JUMPDEST PUSH2 0x1946 PUSH2 0x1A84 JUMP JUMPDEST PUSH0 PUSH2 0x1ABA PUSH2 0x1980 JUMP JUMPDEST SLOAD PUSH1 0x1 PUSH1 0x40 SHL SWAP1 DIV PUSH1 0xFF AND SWAP2 SWAP1 POP JUMP JUMPDEST PUSH1 0x40 MLOAD DUP1 PUSH2 0x180 ADD PUSH1 0x40 MSTORE DUP1 PUSH0 PUSH1 0x1 PUSH1 0x1 PUSH1 0x80 SHL SUB AND DUP2 MSTORE PUSH1 0x20 ADD PUSH0 PUSH1 0x1 PUSH1 0x1 PUSH1 0x80 SHL SUB AND DUP2 MSTORE PUSH1 0x20 ADD PUSH1 0x60 DUP2 MSTORE PUSH1 0x20 ADD PUSH1 0x60 DUP2 MSTORE PUSH1 0x20 ADD PUSH1 0x60 DUP2 MSTORE PUSH1 0x20 ADD PUSH0 PUSH1 0x1 PUSH1 0x1 PUSH1 0x80 SHL SUB AND DUP2 MSTORE PUSH1 0x20 ADD PUSH0 ISZERO ISZERO DUP2 MSTORE PUSH1 0x20 ADD PUSH1 0x60 DUP2 MSTORE PUSH1 0x20 ADD PUSH1 0x60 DUP2 MSTORE PUSH1 0x20 ADD PUSH0 PUSH1 0x1 PUSH1 0x1 PUSH1 0x80 SHL SUB AND DUP2 MSTORE PUSH1 0x20 ADD PUSH0 PUSH1 0x1 PUSH1 0x1 PUSH1 0x80 SHL SUB AND DUP2 MSTORE PUSH1 0x20 ADD PUSH0 PUSH1 0x1 PUSH1 0x1 PUSH1 0x80 SHL SUB AND DUP2 MSTORE POP SWAP1 JUMP JUMPDEST POP DUP1 SLOAD PUSH2 0x1B68 SWAP1 PUSH2 0x22E4 JUMP JUMPDEST PUSH0 DUP3 SSTORE DUP1 PUSH1 0x1F LT PUSH2 0x1B77 JUMPI POP POP JUMP JUMPDEST PUSH1 0x1F ADD PUSH1 0x20 SWAP1 DIV SWAP1 PUSH0 MSTORE PUSH1 0x20 PUSH0 KECCAK256 SWAP1 DUP2 ADD SWAP1 PUSH2 0x197D SWAP2 SWAP1 JUMPDEST DUP1 DUP3 GT ISZERO PUSH2 0x1BA2 JUMPI PUSH0 DUP2 SSTORE PUSH1 0x1 ADD PUSH2 0x1B8F JUMP JUMPDEST POP SWAP1 JUMP JUMPDEST DUP1 CALLDATALOAD PUSH1 0x1 PUSH1 0x1 PUSH1 0x80 SHL SUB DUP2 AND DUP2 EQ PUSH2 0x1BBC JUMPI PUSH0 PUSH0 REVERT JUMPDEST SWAP2 SWAP1 POP JUMP JUMPDEST PUSH0 PUSH0 PUSH1 0x40 DUP4 DUP6 SUB SLT ISZERO PUSH2 0x1BD2 JUMPI PUSH0 PUSH0 REVERT JUMPDEST PUSH2 0x1BDB DUP4 PUSH2 0x1BA6 JUMP JUMPDEST SWAP2 POP PUSH2 0x1BE9 PUSH1 0x20 DUP5 ADD PUSH2 0x1BA6 JUMP JUMPDEST SWAP1 POP SWAP3 POP SWAP3 SWAP1 POP JUMP JUMPDEST PUSH0 DUP2 MLOAD DUP1 DUP5 MSTORE DUP1 PUSH1 0x20 DUP5 ADD PUSH1 0x20 DUP7 ADD MCOPY PUSH0 PUSH1 0x20 DUP3 DUP7 ADD ADD MSTORE PUSH1 0x20 PUSH1 0x1F NOT PUSH1 0x1F DUP4 ADD AND DUP6 ADD ADD SWAP2 POP POP SWAP3 SWAP2 POP POP JUMP JUMPDEST DUP1 MLOAD PUSH1 0x1 PUSH1 0x1 PUSH1 0x80 SHL SUB AND DUP3 MSTORE PUSH0 PUSH1 0x20 DUP3 ADD MLOAD PUSH2 0x1C48 PUSH1 0x20 DUP6 ADD DUP3 PUSH1 0x1 PUSH1 0x1 PUSH1 0x80 SHL SUB AND SWAP1 MSTORE JUMP JUMPDEST POP PUSH1 0x40 DUP3 ADD MLOAD PUSH2 0x180 PUSH1 0x40 DUP6 ADD MSTORE PUSH2 0x1C64 PUSH2 0x180 DUP6 ADD DUP3 PUSH2 0x1BF2 JUMP JUMPDEST SWAP1 POP PUSH1 0x60 DUP4 ADD MLOAD DUP5 DUP3 SUB PUSH1 0x60 DUP7 ADD MSTORE PUSH2 0x1C7D DUP3 DUP3 PUSH2 0x1BF2 JUMP JUMPDEST SWAP2 POP POP PUSH1 0x80 DUP4 ADD MLOAD DUP5 DUP3 SUB PUSH1 0x80 DUP7 ADD MSTORE PUSH2 0x1C97 DUP3 DUP3 PUSH2 0x1BF2 JUMP JUMPDEST SWAP2 POP POP PUSH1 0xA0 DUP4 ADD MLOAD PUSH2 0x1CB4 PUSH1 0xA0 DUP7 ADD DUP3 PUSH1 0x1 PUSH1 0x1 PUSH1 0x80 SHL SUB AND SWAP1 MSTORE JUMP JUMPDEST POP PUSH1 0xC0 DUP4 ADD MLOAD PUSH2 0x1CC8 PUSH1 0xC0 DUP7 ADD DUP3 ISZERO ISZERO SWAP1 MSTORE JUMP JUMPDEST POP PUSH1 0xE0 DUP4 ADD MLOAD DUP5 DUP3 SUB PUSH1 0xE0 DUP7 ADD MSTORE PUSH2 0x1CE0 DUP3 DUP3 PUSH2 0x1BF2 JUMP JUMPDEST SWAP2 POP POP PUSH2 0x100 DUP4 ADD MLOAD DUP5 DUP3 SUB PUSH2 0x100 DUP7 ADD MSTORE PUSH2 0x1CFC DUP3 DUP3 PUSH2 0x1BF2 JUMP JUMPDEST SWAP2 POP POP PUSH2 0x120 DUP4 ADD MLOAD PUSH2 0x1D1B PUSH2 0x120 DUP7 ADD DUP3 PUSH1 0x1 PUSH1 0x1 PUSH1 0x80 SHL SUB AND SWAP1 MSTORE JUMP JUMPDEST POP PUSH2 0x140 DUP4 ADD MLOAD PUSH2 0x1D38 PUSH2 0x140 DUP7 ADD DUP3 PUSH1 0x1 PUSH1 0x1 PUSH1 0x80 SHL SUB AND SWAP1 MSTORE JUMP JUMPDEST POP PUSH2 0x160 DUP4 ADD MLOAD PUSH2 0x1241 PUSH2 0x160 DUP7 ADD DUP3 PUSH1 0x1 PUSH1 0x1 PUSH1 0x80 SHL SUB AND SWAP1 MSTORE JUMP JUMPDEST PUSH1 0x20 DUP2 MSTORE PUSH0 PUSH2 0x1D67 PUSH1 0x20 DUP4 ADD DUP5 PUSH2 0x1C20 JUMP JUMPDEST SWAP4 SWAP3 POP POP POP JUMP JUMPDEST PUSH0 PUSH1 0x20 DUP3 DUP5 SUB SLT ISZERO PUSH2 0x1D7E JUMPI PUSH0 PUSH0 REVERT JUMPDEST PUSH2 0x1D67 DUP3 PUSH2 0x1BA6 JUMP JUMPDEST PUSH4 0x4E487B71 PUSH1 0xE0 SHL PUSH0 MSTORE PUSH1 0x41 PUSH1 0x4 MSTORE PUSH1 0x24 PUSH0 REVERT JUMPDEST PUSH1 0x40 MLOAD PUSH2 0x180 DUP2 ADD PUSH1 0x1 PUSH1 0x1 PUSH1 0x40 SHL SUB DUP2 GT DUP3 DUP3 LT OR ISZERO PUSH2 0x1DBE JUMPI PUSH2 0x1DBE PUSH2 0x1D87 JUMP JUMPDEST PUSH1 0x40 MSTORE SWAP1 JUMP JUMPDEST PUSH0 DUP3 PUSH1 0x1F DUP4 ADD SLT PUSH2 0x1DD3 JUMPI PUSH0 PUSH0 REVERT JUMPDEST DUP2 CALLDATALOAD PUSH1 0x1 PUSH1 0x1 PUSH1 0x40 SHL SUB DUP2 GT ISZERO PUSH2 0x1DEC JUMPI PUSH2 0x1DEC PUSH2 0x1D87 JUMP JUMPDEST PUSH1 0x40 MLOAD PUSH1 0x1F DUP3 ADD PUSH1 0x1F NOT SWAP1 DUP2 AND PUSH1 0x3F ADD AND DUP2 ADD PUSH1 0x1 PUSH1 0x1 PUSH1 0x40 SHL SUB DUP2 GT DUP3 DUP3 LT OR ISZERO PUSH2 0x1E1A JUMPI PUSH2 0x1E1A PUSH2 0x1D87 JUMP JUMPDEST PUSH1 0x40 MSTORE DUP2 DUP2 MSTORE DUP4 DUP3 ADD PUSH1 0x20 ADD DUP6 LT ISZERO PUSH2 0x1E31 JUMPI PUSH0 PUSH0 REVERT JUMPDEST DUP2 PUSH1 0x20 DUP6 ADD PUSH1 0x20 DUP4 ADD CALLDATACOPY PUSH0 SWAP2 DUP2 ADD PUSH1 0x20 ADD SWAP2 SWAP1 SWAP2 MSTORE SWAP4 SWAP3 POP POP POP JUMP JUMPDEST DUP1 CALLDATALOAD DUP1 ISZERO ISZERO DUP2 EQ PUSH2 0x1BBC JUMPI PUSH0 PUSH0 REVERT JUMPDEST PUSH0 PUSH1 0x20 DUP3 DUP5 SUB SLT ISZERO PUSH2 0x1E6C JUMPI PUSH0 PUSH0 REVERT JUMPDEST DUP2 CALLDATALOAD PUSH1 0x1 PUSH1 0x1 PUSH1 0x40 SHL SUB DUP2 GT ISZERO PUSH2 0x1E81 JUMPI PUSH0 PUSH0 REVERT JUMPDEST DUP3 ADD PUSH2 0x180 DUP2 DUP6 SUB SLT ISZERO PUSH2 0x1E93 JUMPI PUSH0 PUSH0 REVERT JUMPDEST PUSH2 0x1E9B PUSH2 0x1D9B JUMP JUMPDEST PUSH2 0x1EA4 DUP3 PUSH2 0x1BA6 JUMP JUMPDEST DUP2 MSTORE PUSH2 0x1EB2 PUSH1 0x20 DUP4 ADD PUSH2 0x1BA6 JUMP JUMPDEST PUSH1 0x20 DUP3 ADD MSTORE PUSH1 0x40 DUP3 ADD CALLDATALOAD PUSH1 0x1 PUSH1 0x1 PUSH1 0x40 SHL SUB DUP2 GT ISZERO PUSH2 0x1ECF JUMPI PUSH0 PUSH0 REVERT JUMPDEST PUSH2 0x1EDB DUP7 DUP3 DUP6 ADD PUSH2 0x1DC4 JUMP JUMPDEST PUSH1 0x40 DUP4 ADD MSTORE POP PUSH1 0x60 DUP3 ADD CALLDATALOAD PUSH1 0x1 PUSH1 0x1 PUSH1 0x40 SHL SUB DUP2 GT ISZERO PUSH2 0x1EF9 JUMPI PUSH0 PUSH0 REVERT JUMPDEST PUSH2 0x1F05 DUP7 DUP3 DUP6 ADD PUSH2 0x1DC4 JUMP JUMPDEST PUSH1 0x60 DUP4 ADD MSTORE POP PUSH1 0x80 DUP3 ADD CALLDATALOAD PUSH1 0x1 PUSH1 0x1 PUSH1 0x40 SHL SUB DUP2 GT ISZERO PUSH2 0x1F23 JUMPI PUSH0 PUSH0 REVERT JUMPDEST PUSH2 0x1F2F DUP7 DUP3 DUP6 ADD PUSH2 0x1DC4 JUMP JUMPDEST PUSH1 0x80 DUP4 ADD MSTORE POP PUSH2 0x1F41 PUSH1 0xA0 DUP4 ADD PUSH2 0x1BA6 JUMP JUMPDEST PUSH1 0xA0 DUP3 ADD MSTORE PUSH2 0x1F52 PUSH1 0xC0 DUP4 ADD PUSH2 0x1E4D JUMP JUMPDEST PUSH1 0xC0 DUP3 ADD MSTORE PUSH1 0xE0 DUP3 ADD CALLDATALOAD PUSH1 0x1 PUSH1 0x1 PUSH1 0x40 SHL SUB DUP2 GT ISZERO PUSH2 0x1F6F JUMPI PUSH0 PUSH0 REVERT JUMPDEST PUSH2 0x1F7B DUP7 DUP3 DUP6 ADD PUSH2 0x1DC4 JUMP JUMPDEST PUSH1 0xE0 DUP4 ADD MSTORE POP PUSH2 0x100 DUP3 ADD CALLDATALOAD PUSH1 0x1 PUSH1 0x1 PUSH1 0x40 SHL SUB DUP2 GT ISZERO PUSH2 0x1F9A JUMPI PUSH0 PUSH0 REVERT JUMPDEST PUSH2 0x1FA6 DUP7 DUP3 DUP6 ADD PUSH2 0x1DC4 JUMP JUMPDEST PUSH2 0x100 DUP4 ADD MSTORE POP PUSH2 0x1FBA PUSH2 0x120 DUP4 ADD PUSH2 0x1BA6 JUMP JUMPDEST PUSH2 0x120 DUP3 ADD MSTORE PUSH2 0x1FCD PUSH2 0x140 DUP4 ADD PUSH2 0x1BA6 JUMP JUMPDEST PUSH2 0x140 DUP3 ADD MSTORE PUSH2 0x1FE0 PUSH2 0x160 DUP4 ADD PUSH2 0x1BA6 JUMP JUMPDEST PUSH2 0x160 DUP3 ADD MSTORE SWAP5 SWAP4 POP POP POP POP JUMP JUMPDEST DUP1 CALLDATALOAD PUSH1 0x1 PUSH1 0x1 PUSH1 0xA0 SHL SUB DUP2 AND DUP2 EQ PUSH2 0x1BBC JUMPI PUSH0 PUSH0 REVERT JUMPDEST PUSH0 PUSH0 PUSH1 0x40 DUP4 DUP6 SUB SLT ISZERO PUSH2 0x2015 JUMPI PUSH0 PUSH0 REVERT JUMPDEST PUSH2 0x201E DUP4 PUSH2 0x1FEE JUMP JUMPDEST SWAP2 POP PUSH2 0x1BE9 PUSH1 0x20 DUP5 ADD PUSH2 0x1FEE JUMP JUMPDEST PUSH0 PUSH1 0x20 DUP3 ADD PUSH1 0x20 DUP4 MSTORE DUP1 DUP5 MLOAD DUP1 DUP4 MSTORE PUSH1 0x40 DUP6 ADD SWAP2 POP PUSH1 0x40 DUP2 PUSH1 0x5 SHL DUP7 ADD ADD SWAP3 POP PUSH1 0x20 DUP7 ADD PUSH0 JUMPDEST DUP3 DUP2 LT ISZERO PUSH2 0x2083 JUMPI PUSH1 0x3F NOT DUP8 DUP7 SUB ADD DUP5 MSTORE PUSH2 0x206E DUP6 DUP4 MLOAD PUSH2 0x1C20 JUMP JUMPDEST SWAP5 POP PUSH1 0x20 SWAP4 DUP5 ADD SWAP4 SWAP2 SWAP1 SWAP2 ADD SWAP1 PUSH1 0x1 ADD PUSH2 0x2052 JUMP JUMPDEST POP SWAP3 SWAP7 SWAP6 POP POP POP POP POP POP JUMP JUMPDEST PUSH1 0x20 DUP1 DUP3 MSTORE DUP3 MLOAD DUP3 DUP3 ADD DUP2 SWAP1 MSTORE PUSH0 SWAP2 DUP5 ADD SWAP1 PUSH1 0x40 DUP5 ADD SWAP1 DUP4 JUMPDEST DUP2 DUP2 LT ISZERO PUSH2 0x20CF JUMPI DUP4 MLOAD PUSH1 0x1 PUSH1 0x1 PUSH1 0x80 SHL SUB AND DUP4 MSTORE PUSH1 0x20 SWAP4 DUP5 ADD SWAP4 SWAP1 SWAP3 ADD SWAP2 PUSH1 0x1 ADD PUSH2 0x20A8 JUMP JUMPDEST POP SWAP1 SWAP6 SWAP5 POP POP POP POP POP JUMP JUMPDEST PUSH1 0x1 PUSH1 0x1 PUSH1 0x80 SHL SUB DUP14 AND DUP2 MSTORE PUSH1 0x1 PUSH1 0x1 PUSH1 0x80 SHL SUB DUP13 AND PUSH1 0x20 DUP3 ADD MSTORE PUSH2 0x180 PUSH1 0x40 DUP3 ADD MSTORE PUSH0 PUSH2 0x210C PUSH2 0x180 DUP4 ADD DUP14 PUSH2 0x1BF2 JUMP JUMPDEST DUP3 DUP2 SUB PUSH1 0x60 DUP5 ADD MSTORE PUSH2 0x211E DUP2 DUP14 PUSH2 0x1BF2 JUMP JUMPDEST SWAP1 POP DUP3 DUP2 SUB PUSH1 0x80 DUP5 ADD MSTORE PUSH2 0x2132 DUP2 DUP13 PUSH2 0x1BF2 JUMP JUMPDEST PUSH1 0x1 PUSH1 0x1 PUSH1 0x80 SHL SUB DUP12 AND PUSH1 0xA0 DUP6 ADD MSTORE SWAP1 POP DUP9 ISZERO ISZERO PUSH1 0xC0 DUP5 ADD MSTORE DUP3 DUP2 SUB PUSH1 0xE0 DUP5 ADD MSTORE PUSH2 0x215D DUP2 DUP10 PUSH2 0x1BF2 JUMP JUMPDEST SWAP1 POP DUP3 DUP2 SUB PUSH2 0x100 DUP5 ADD MSTORE PUSH2 0x2172 DUP2 DUP9 PUSH2 0x1BF2 JUMP JUMPDEST SWAP2 POP POP PUSH2 0x218B PUSH2 0x120 DUP4 ADD DUP7 PUSH1 0x1 PUSH1 0x1 PUSH1 0x80 SHL SUB AND SWAP1 MSTORE JUMP JUMPDEST PUSH1 0x1 PUSH1 0x1 PUSH1 0x80 SHL SUB DUP5 AND PUSH2 0x140 DUP4 ADD MSTORE PUSH1 0x1 PUSH1 0x1 PUSH1 0x80 SHL SUB DUP4 AND PUSH2 0x160 DUP4 ADD MSTORE SWAP14 SWAP13 POP POP POP POP POP POP POP POP POP POP POP POP POP JUMP JUMPDEST PUSH0 PUSH0 PUSH0 PUSH0 PUSH0 PUSH0 PUSH0 PUSH0 PUSH2 0x100 DUP10 DUP12 SUB SLT ISZERO PUSH2 0x21D4 JUMPI PUSH0 PUSH0 REVERT JUMPDEST PUSH2 0x21DD DUP10 PUSH2 0x1BA6 JUMP JUMPDEST SWAP8 POP PUSH1 0x20 DUP10 ADD CALLDATALOAD PUSH1 0x1 PUSH1 0x1 PUSH1 0x40 SHL SUB DUP2 GT ISZERO PUSH2 0x21F7 JUMPI PUSH0 PUSH0 REVERT JUMPDEST PUSH2 0x2203 DUP12 DUP3 DUP13 ADD PUSH2 0x1DC4 JUMP JUMPDEST SWAP8 POP POP PUSH1 0x40 DUP10 ADD CALLDATALOAD PUSH1 0x1 PUSH1 0x1 PUSH1 0x40 SHL SUB DUP2 GT ISZERO PUSH2 0x221E JUMPI PUSH0 PUSH0 REVERT JUMPDEST PUSH2 0x222A DUP12 DUP3 DUP13 ADD PUSH2 0x1DC4 JUMP JUMPDEST SWAP7 POP POP PUSH1 0x60 DUP10 ADD CALLDATALOAD PUSH1 0x1 PUSH1 0x1 PUSH1 0x40 SHL SUB DUP2 GT ISZERO PUSH2 0x2245 JUMPI PUSH0 PUSH0 REVERT JUMPDEST PUSH2 0x2251 DUP12 DUP3 DUP13 ADD PUSH2 0x1DC4 JUMP JUMPDEST SWAP6 POP POP PUSH2 0x2260 PUSH1 0x80 DUP11 ADD PUSH2 0x1BA6 JUMP JUMPDEST SWAP4 POP PUSH1 0xA0 DUP10 ADD CALLDATALOAD PUSH1 0x1 PUSH1 0x1 PUSH1 0x40 SHL SUB DUP2 GT ISZERO PUSH2 0x227A JUMPI PUSH0 PUSH0 REVERT JUMPDEST PUSH2 0x2286 DUP12 DUP3 DUP13 ADD PUSH2 0x1DC4 JUMP JUMPDEST SWAP4 POP POP PUSH1 0xC0 DUP10 ADD CALLDATALOAD PUSH1 0x1 PUSH1 0x1 PUSH1 0x40 SHL SUB DUP2 GT ISZERO PUSH2 0x22A1 JUMPI PUSH0 PUSH0 REVERT JUMPDEST PUSH2 0x22AD DUP12 DUP3 DUP13 ADD PUSH2 0x1DC4 JUMP JUMPDEST SWAP3 POP POP PUSH2 0x22BC PUSH1 0xE0 DUP11 ADD PUSH2 0x1BA6 JUMP JUMPDEST SWAP1 POP SWAP3 SWAP6 SWAP9 POP SWAP3 SWAP6 SWAP9 SWAP1 SWAP4 SWAP7 POP JUMP JUMPDEST PUSH0 PUSH1 0x20 DUP3 DUP5 SUB SLT ISZERO PUSH2 0x22DB JUMPI PUSH0 PUSH0 REVERT JUMPDEST PUSH2 0x1D67 DUP3 PUSH2 0x1FEE JUMP JUMPDEST PUSH1 0x1 DUP2 DUP2 SHR SWAP1 DUP3 AND DUP1 PUSH2 0x22F8 JUMPI PUSH1 0x7F DUP3 AND SWAP2 POP JUMPDEST PUSH1 0x20 DUP3 LT DUP2 SUB PUSH2 0x2316 JUMPI PUSH4 0x4E487B71 PUSH1 0xE0 SHL PUSH0 MSTORE PUSH1 0x22 PUSH1 0x4 MSTORE PUSH1 0x24 PUSH0 REVERT JUMPDEST POP SWAP2 SWAP1 POP JUMP JUMPDEST PUSH1 0x1F DUP3 GT ISZERO PUSH2 0x2363 JUMPI DUP1 PUSH0 MSTORE PUSH1 0x20 PUSH0 KECCAK256 PUSH1 0x1F DUP5 ADD PUSH1 0x5 SHR DUP2 ADD PUSH1 0x20 DUP6 LT ISZERO PUSH2 0x2341 JUMPI POP DUP1 JUMPDEST PUSH1 0x1F DUP5 ADD PUSH1 0x5 SHR DUP3 ADD SWAP2 POP JUMPDEST DUP2 DUP2 LT ISZERO PUSH2 0x2360 JUMPI PUSH0 DUP2 SSTORE PUSH1 0x1 ADD PUSH2 0x234D JUMP JUMPDEST POP POP JUMPDEST POP POP POP JUMP JUMPDEST DUP2 MLOAD PUSH1 0x1 PUSH1 0x1 PUSH1 0x40 SHL SUB DUP2 GT ISZERO PUSH2 0x2381 JUMPI PUSH2 0x2381 PUSH2 0x1D87 JUMP JUMPDEST PUSH2 0x2395 DUP2 PUSH2 0x238F DUP5 SLOAD PUSH2 0x22E4 JUMP JUMPDEST DUP5 PUSH2 0x231C JUMP JUMPDEST PUSH1 0x20 PUSH1 0x1F DUP3 GT PUSH1 0x1 DUP2 EQ PUSH2 0x23C7 JUMPI PUSH0 DUP4 ISZERO PUSH2 0x23B0 JUMPI POP DUP5 DUP3 ADD MLOAD JUMPDEST PUSH0 NOT PUSH1 0x3 DUP6 SWAP1 SHL SHR NOT AND PUSH1 0x1 DUP5 SWAP1 SHL OR DUP5 SSTORE PUSH2 0x2360 JUMP JUMPDEST PUSH0 DUP5 DUP2 MSTORE PUSH1 0x20 DUP2 KECCAK256 PUSH1 0x1F NOT DUP6 AND SWAP2 JUMPDEST DUP3 DUP2 LT ISZERO PUSH2 0x23F6 JUMPI DUP8 DUP6 ADD MLOAD DUP3 SSTORE PUSH1 0x20 SWAP5 DUP6 ADD SWAP5 PUSH1 0x1 SWAP1 SWAP3 ADD SWAP2 ADD PUSH2 0x23D6 JUMP JUMPDEST POP DUP5 DUP3 LT ISZERO PUSH2 0x2413 JUMPI DUP7 DUP5 ADD MLOAD PUSH0 NOT PUSH1 0x3 DUP8 SWAP1 SHL PUSH1 0xF8 AND SHR NOT AND DUP2 SSTORE JUMPDEST POP POP POP POP PUSH1 0x1 SWAP1 DUP2 SHL ADD SWAP1 SSTORE POP JUMP JUMPDEST PUSH1 0x60 DUP2 MSTORE PUSH0 PUSH2 0x2434 PUSH1 0x60 DUP4 ADD DUP7 PUSH2 0x1BF2 JUMP JUMPDEST PUSH1 0x1 PUSH1 0x1 PUSH1 0x80 SHL SUB SWAP5 SWAP1 SWAP5 AND PUSH1 0x20 DUP4 ADD MSTORE POP SWAP1 ISZERO ISZERO PUSH1 0x40 SWAP1 SWAP2 ADD MSTORE SWAP2 SWAP1 POP JUMP JUMPDEST PUSH4 0x4E487B71 PUSH1 0xE0 SHL PUSH0 MSTORE PUSH1 0x32 PUSH1 0x4 MSTORE PUSH1 0x24 PUSH0 REVERT JUMPDEST PUSH4 0x4E487B71 PUSH1 0xE0 SHL PUSH0 MSTORE PUSH1 0x11 PUSH1 0x4 MSTORE PUSH1 0x24 PUSH0 REVERT JUMPDEST DUP2 DUP2 SUB DUP2 DUP2 GT ISZERO PUSH2 0x68B JUMPI PUSH2 0x68B PUSH2 0x2468 JUMP JUMPDEST PUSH4 0x4E487B71 PUSH1 0xE0 SHL PUSH0 MSTORE PUSH1 0x31 PUSH1 0x4 MSTORE PUSH1 0x24 PUSH0 REVERT JUMPDEST PUSH0 PUSH1 0x1 PUSH1 0x1 PUSH1 0x80 SHL SUB DUP3 AND PUSH1 0x1 PUSH1 0x1 PUSH1 0x80 SHL SUB DUP2 SUB PUSH2 0x24C4 JUMPI PUSH2 0x24C4 PUSH2 0x2468 JUMP JUMPDEST PUSH1 0x1 ADD SWAP3 SWAP2 POP POP JUMP JUMPDEST PUSH1 0x40 DUP2 MSTORE PUSH0 PUSH2 0x24DF PUSH1 0x40 DUP4 ADD DUP6 PUSH2 0x1BF2 JUMP JUMPDEST SWAP1 POP PUSH1 0x1 PUSH1 0x1 PUSH1 0x80 SHL SUB DUP4 AND PUSH1 0x20 DUP4 ADD MSTORE SWAP4 SWAP3 POP POP POP JUMP INVALID LOG2 PUSH5 0x6970667358 0x22 SLT KECCAK256 0xA5 SWAP10 0x4D 0x2D 0xA9 STATICCALL MCOPY 0xC9 0xDE 0xC2 PUSH8 0xCC6EC67944A2575B SELFDESTRUCT 0xB2 RETURN SWAP3 SWAP6 DUP3 PUSH10 0x2C84B5938D6364736F6C PUSH4 0x4300081E STOP CALLER "
				},
				"gasEstimates": {
					"creation": {
						"codeDepositCost": "1903400",
						"executionCost": "2010",
						"totalCost": "1905410"
					},
					"external": {
						"addMenuItem(uint128,string,string,string,uint128,string,string,uint128)": "infinite",
						"foodAppContractAddress()": "2358",
						"getMenuItem(uint128,uint128)": "infinite",
						"getMenuItemIdsByRestaurant(uint128)": "infinite",
						"getMenuItemsByRestaurant(uint128)": "infinite",
						"initialize(address,address)": "infinite",
						"menuItems(uint128,uint128)": "infinite",
						"nextMenuIds(uint128)": "2578",
						"owner()": "2374",
						"removeMenuItem(uint128,uint128)": "infinite",
						"renounceOwnership()": "infinite",
						"transferOwnership(address)": "28453",
						"updateMenuItem((uint128,uint128,string,string,string,uint128,bool,string,string,uint128,uint128,uint128))": "infinite"
					}
				},
				"methodIdentifiers": {
					"addMenuItem(uint128,string,string,string,uint128,string,string,uint128)": "d5d2768b",
					"foodAppContractAddress()": "832dbdd9",
					"getMenuItem(uint128,uint128)": "0c528968",
					"getMenuItemIdsByRestaurant(uint128)": "6b88cde5",
					"getMenuItemsByRestaurant(uint128)": "61dcddda",
					"initialize(address,address)": "485cc955",
					"menuItems(uint128,uint128)": "75fab3e0",
					"nextMenuIds(uint128)": "21bc7543",
					"owner()": "8da5cb5b",
					"removeMenuItem(uint128,uint128)": "5b94ea5d",
					"renounceOwnership()": "715018a6",
					"transferOwnership(address)": "f2fde38b",
					"updateMenuItem((uint128,uint128,string,string,string,uint128,bool,string,string,uint128,uint128,uint128))": "25147e4f"
				}
			},
			"storageLayout": {
				"storage": [
					{
						"astId": 524,
						"contract": "contracts/MenuManager.sol:MenuManager",
						"label": "menuItems",
						"offset": 0,
						"slot": "0",
						"type": "t_mapping(t_uint128,t_mapping(t_uint128,t_struct(MenuItem)1273_storage))"
					},
					{
						"astId": 528,
						"contract": "contracts/MenuManager.sol:MenuManager",
						"label": "nextMenuIds",
						"offset": 0,
						"slot": "1",
						"type": "t_mapping(t_uint128,t_uint128)"
					},
					{
						"astId": 533,
						"contract": "contracts/MenuManager.sol:MenuManager",
						"label": "restaurantMenuItemIds",
						"offset": 0,
						"slot": "2",
						"type": "t_mapping(t_uint128,t_array(t_uint128)dyn_storage)"
					},
					{
						"astId": 535,
						"contract": "contracts/MenuManager.sol:MenuManager",
						"label": "foodAppContractAddress",
						"offset": 0,
						"slot": "3",
						"type": "t_address"
					}
				],
				"types": {
					"t_address": {
						"encoding": "inplace",
						"label": "address",
						"numberOfBytes": "20"
					},
					"t_array(t_uint128)dyn_storage": {
						"base": "t_uint128",
						"encoding": "dynamic_array",
						"label": "uint128[]",
						"numberOfBytes": "32"
					},
					"t_bool": {
						"encoding": "inplace",
						"label": "bool",
						"numberOfBytes": "1"
					},
					"t_mapping(t_uint128,t_array(t_uint128)dyn_storage)": {
						"encoding": "mapping",
						"key": "t_uint128",
						"label": "mapping(uint128 => uint128[])",
						"numberOfBytes": "32",
						"value": "t_array(t_uint128)dyn_storage"
					},
					"t_mapping(t_uint128,t_mapping(t_uint128,t_struct(MenuItem)1273_storage))": {
						"encoding": "mapping",
						"key": "t_uint128",
						"label": "mapping(uint128 => mapping(uint128 => struct MenuItem))",
						"numberOfBytes": "32",
						"value": "t_mapping(t_uint128,t_struct(MenuItem)1273_storage)"
					},
					"t_mapping(t_uint128,t_struct(MenuItem)1273_storage)": {
						"encoding": "mapping",
						"key": "t_uint128",
						"label": "mapping(uint128 => struct MenuItem)",
						"numberOfBytes": "32",
						"value": "t_struct(MenuItem)1273_storage"
					},
					"t_mapping(t_uint128,t_uint128)": {
						"encoding": "mapping",
						"key": "t_uint128",
						"label": "mapping(uint128 => uint128)",
						"numberOfBytes": "32",
						"value": "t_uint128"
					},
					"t_string_storage": {
						"encoding": "bytes",
						"label": "string",
						"numberOfBytes": "32"
					},
					"t_struct(MenuItem)1273_storage": {
						"encoding": "inplace",
						"label": "struct MenuItem",
						"members": [
							{
								"astId": 1250,
								"contract": "contracts/MenuManager.sol:MenuManager",
								"label": "id",
								"offset": 0,
								"slot": "0",
								"type": "t_uint128"
							},
							{
								"astId": 1252,
								"contract": "contracts/MenuManager.sol:MenuManager",
								"label": "restaurantId",
								"offset": 16,
								"slot": "0",
								"type": "t_uint128"
							},
							{
								"astId": 1254,
								"contract": "contracts/MenuManager.sol:MenuManager",
								"label": "name",
								"offset": 0,
								"slot": "1",
								"type": "t_string_storage"
							},
							{
								"astId": 1256,
								"contract": "contracts/MenuManager.sol:MenuManager",
								"label": "menuTitle",
								"offset": 0,
								"slot": "2",
								"type": "t_string_storage"
							},
							{
								"astId": 1258,
								"contract": "contracts/MenuManager.sol:MenuManager",
								"label": "imageUrl",
								"offset": 0,
								"slot": "3",
								"type": "t_string_storage"
							},
							{
								"astId": 1260,
								"contract": "contracts/MenuManager.sol:MenuManager",
								"label": "price",
								"offset": 0,
								"slot": "4",
								"type": "t_uint128"
							},
							{
								"astId": 1262,
								"contract": "contracts/MenuManager.sol:MenuManager",
								"label": "available",
								"offset": 16,
								"slot": "4",
								"type": "t_bool"
							},
							{
								"astId": 1264,
								"contract": "contracts/MenuManager.sol:MenuManager",
								"label": "description",
								"offset": 0,
								"slot": "5",
								"type": "t_string_storage"
							},
							{
								"astId": 1266,
								"contract": "contracts/MenuManager.sol:MenuManager",
								"label": "category",
								"offset": 0,
								"slot": "6",
								"type": "t_string_storage"
							},
							{
								"astId": 1268,
								"contract": "contracts/MenuManager.sol:MenuManager",
								"label": "totalRating",
								"offset": 0,
								"slot": "7",
								"type": "t_uint128"
							},
							{
								"astId": 1270,
								"contract": "contracts/MenuManager.sol:MenuManager",
								"label": "ratingCount",
								"offset": 16,
								"slot": "7",
								"type": "t_uint128"
							},
							{
								"astId": 1272,
								"contract": "contracts/MenuManager.sol:MenuManager",
								"label": "preparationTime",
								"offset": 0,
								"slot": "8",
								"type": "t_uint128"
							}
						],
						"numberOfBytes": "288"
					},
					"t_uint128": {
						"encoding": "inplace",
						"label": "uint128",
						"numberOfBytes": "16"
					}
				}
			},
			"userdoc": {
				"kind": "user",
				"methods": {},
				"version": 1
			}
		}
	}
}