{
	"contracts/ReviewManager.sol": {
		"ReviewManager": {
			"abi": [
				{
					"inputs": [],
					"name": "InvalidInitialization",
					"type": "error"
				},
				{
					"inputs": [],
					"name": "NotInitializing",
					"type": "error"
				},
				{
					"inputs": [
						{
							"internalType": "address",
							"name": "owner",
							"type": "address"
						}
					],
					"name": "OwnableInvalidOwner",
					"type": "error"
				},
				{
					"inputs": [
						{
							"internalType": "address",
							"name": "account",
							"type": "address"
						}
					],
					"name": "OwnableUnauthorizedAccount",
					"type": "error"
				},
				{
					"anonymous": false,
					"inputs": [
						{
							"indexed": false,
							"internalType": "uint64",
							"name": "version",
							"type": "uint64"
						}
					],
					"name": "Initialized",
					"type": "event"
				},
				{
					"anonymous": false,
					"inputs": [
						{
							"indexed": true,
							"internalType": "address",
							"name": "previousOwner",
							"type": "address"
						},
						{
							"indexed": true,
							"internalType": "address",
							"name": "newOwner",
							"type": "address"
						}
					],
					"name": "OwnershipTransferred",
					"type": "event"
				},
				{
					"anonymous": false,
					"inputs": [
						{
							"indexed": true,
							"internalType": "uint128",
							"name": "restaurantId",
							"type": "uint128"
						},
						{
							"indexed": true,
							"internalType": "address",
							"name": "customer",
							"type": "address"
						},
						{
							"indexed": false,
							"internalType": "uint8",
							"name": "rating",
							"type": "uint8"
						},
						{
							"indexed": false,
							"internalType": "string",
							"name": "comment",
							"type": "string"
						}
					],
					"name": "RestaurantRated",
					"type": "event"
				},
				{
					"inputs": [],
					"name": "addMeAsCustomer",
					"outputs": [],
					"stateMutability": "nonpayable",
					"type": "function"
				},
				{
					"inputs": [
						{
							"internalType": "address",
							"name": "staff",
							"type": "address"
						},
						{
							"internalType": "enum RoleAccess.Role",
							"name": "role",
							"type": "uint8"
						},
						{
							"internalType": "uint128",
							"name": "restaurantId",
							"type": "uint128"
						}
					],
					"name": "addStaff",
					"outputs": [],
					"stateMutability": "nonpayable",
					"type": "function"
				},
				{
					"inputs": [],
					"name": "foodApp",
					"outputs": [
						{
							"internalType": "address",
							"name": "",
							"type": "address"
						}
					],
					"stateMutability": "view",
					"type": "function"
				},
				{
					"inputs": [
						{
							"internalType": "uint128",
							"name": "restaurantId",
							"type": "uint128"
						}
					],
					"name": "getReviews",
					"outputs": [
						{
							"components": [
								{
									"internalType": "address",
									"name": "customer",
									"type": "address"
								},
								{
									"internalType": "uint128",
									"name": "restaurantId",
									"type": "uint128"
								},
								{
									"internalType": "uint8",
									"name": "rating",
									"type": "uint8"
								},
								{
									"internalType": "string",
									"name": "comment",
									"type": "string"
								},
								{
									"internalType": "uint128",
									"name": "timestamp",
									"type": "uint128"
								}
							],
							"internalType": "struct Review[]",
							"name": "",
							"type": "tuple[]"
						}
					],
					"stateMutability": "view",
					"type": "function"
				},
				{
					"inputs": [
						{
							"internalType": "address",
							"name": "_foodApp",
							"type": "address"
						}
					],
					"name": "initialize",
					"outputs": [],
					"stateMutability": "nonpayable",
					"type": "function"
				},
				{
					"inputs": [],
					"name": "owner",
					"outputs": [
						{
							"internalType": "address",
							"name": "",
							"type": "address"
						}
					],
					"stateMutability": "view",
					"type": "function"
				},
				{
					"inputs": [
						{
							"internalType": "address",
							"name": "caller",
							"type": "address"
						},
						{
							"internalType": "uint128",
							"name": "restaurantId",
							"type": "uint128"
						},
						{
							"internalType": "uint8",
							"name": "rating",
							"type": "uint8"
						},
						{
							"internalType": "string",
							"name": "comment",
							"type": "string"
						}
					],
					"name": "rateRestaurant",
					"outputs": [],
					"stateMutability": "nonpayable",
					"type": "function"
				},
				{
					"inputs": [],
					"name": "renounceOwnership",
					"outputs": [],
					"stateMutability": "nonpayable",
					"type": "function"
				},
				{
					"inputs": [
						{
							"internalType": "uint128",
							"name": "",
							"type": "uint128"
						},
						{
							"internalType": "uint256",
							"name": "",
							"type": "uint256"
						}
					],
					"name": "restaurantReviews",
					"outputs": [
						{
							"internalType": "address",
							"name": "customer",
							"type": "address"
						},
						{
							"internalType": "uint128",
							"name": "restaurantId",
							"type": "uint128"
						},
						{
							"internalType": "uint8",
							"name": "rating",
							"type": "uint8"
						},
						{
							"internalType": "string",
							"name": "comment",
							"type": "string"
						},
						{
							"internalType": "uint128",
							"name": "timestamp",
							"type": "uint128"
						}
					],
					"stateMutability": "view",
					"type": "function"
				},
				{
					"inputs": [
						{
							"internalType": "address",
							"name": "",
							"type": "address"
						}
					],
					"name": "roles",
					"outputs": [
						{
							"internalType": "enum RoleAccess.Role",
							"name": "",
							"type": "uint8"
						}
					],
					"stateMutability": "view",
					"type": "function"
				},
				{
					"inputs": [
						{
							"internalType": "address",
							"name": "",
							"type": "address"
						}
					],
					"name": "staffRestaurants",
					"outputs": [
						{
							"internalType": "uint128",
							"name": "",
							"type": "uint128"
						}
					],
					"stateMutability": "view",
					"type": "function"
				},
				{
					"inputs": [
						{
							"internalType": "address",
							"name": "newOwner",
							"type": "address"
						}
					],
					"name": "transferOwnership",
					"outputs": [],
					"stateMutability": "nonpayable",
					"type": "function"
				}
			],
			"devdoc": {
				"errors": {
					"InvalidInitialization()": [
						{
							"details": "The contract is already initialized."
						}
					],
					"NotInitializing()": [
						{
							"details": "The contract is not initializing."
						}
					],
					"OwnableInvalidOwner(address)": [
						{
							"details": "The owner is not a valid owner account. (eg. `address(0)`)"
						}
					],
					"OwnableUnauthorizedAccount(address)": [
						{
							"details": "The caller account is not authorized to perform an operation."
						}
					]
				},
				"events": {
					"Initialized(uint64)": {
						"details": "Triggered when the contract has been initialized or reinitialized."
					}
				},
				"kind": "dev",
				"methods": {
					"owner()": {
						"details": "Returns the address of the current owner."
					},
					"renounceOwnership()": {
						"details": "Leaves the contract without owner. It will not be possible to call `onlyOwner` functions. Can only be called by the current owner. NOTE: Renouncing ownership will leave the contract without an owner, thereby disabling any functionality that is only available to the owner."
					},
					"transferOwnership(address)": {
						"details": "Transfers ownership of the contract to a new account (`newOwner`). Can only be called by the current owner."
					}
				},
				"version": 1
			},
			"evm": {
				"assembly": "    /* \"contracts/ReviewManager.sol\":304:1792  contract ReviewManager is OwnableUpgradeable, RoleAccess, IReviewManager {... */\n  mstore(0x40, 0x80)\n  callvalue\n  dup1\n  iszero\n  tag_1\n  jumpi\n  revert(0x00, 0x00)\ntag_1:\n  pop\n  dataSize(sub_0)\n  dup1\n  dataOffset(sub_0)\n  0x00\n  codecopy\n  0x00\n  return\nstop\n\nsub_0: assembly {\n        /* \"contracts/ReviewManager.sol\":304:1792  contract ReviewManager is OwnableUpgradeable, RoleAccess, IReviewManager {... */\n      mstore(0x40, 0x80)\n      callvalue\n      dup1\n      iszero\n      tag_1\n      jumpi\n      revert(0x00, 0x00)\n    tag_1:\n      pop\n      jumpi(tag_2, lt(calldatasize, 0x04))\n      shr(0xe0, calldataload(0x00))\n      dup1\n      0x99374642\n      gt\n      tag_15\n      jumpi\n      dup1\n      0x99374642\n      eq\n      tag_9\n      jumpi\n      dup1\n      0xbcc1367c\n      eq\n      tag_10\n      jumpi\n      dup1\n      0xc4d66de8\n      eq\n      tag_11\n      jumpi\n      dup1\n      0xcf120a5b\n      eq\n      tag_12\n      jumpi\n      dup1\n      0xdf808ac5\n      eq\n      tag_13\n      jumpi\n      dup1\n      0xf2fde38b\n      eq\n      tag_14\n      jumpi\n      revert(0x00, 0x00)\n    tag_15:\n      dup1\n      0x2d3238fe\n      eq\n      tag_3\n      jumpi\n      dup1\n      0x338974df\n      eq\n      tag_4\n      jumpi\n      dup1\n      0x4c9a4a06\n      eq\n      tag_5\n      jumpi\n      dup1\n      0x6e92ae52\n      eq\n      tag_6\n      jumpi\n      dup1\n      0x715018a6\n      eq\n      tag_7\n      jumpi\n      dup1\n      0x8da5cb5b\n      eq\n      tag_8\n      jumpi\n    tag_2:\n      revert(0x00, 0x00)\n        /* \"access/RoleAccess.sol\":185:236  mapping(address => uint128) public staffRestaurants */\n    tag_3:\n      tag_16\n      tag_17\n      calldatasize\n      0x04\n      tag_18\n      jump\t// in\n    tag_17:\n      mstore(0x20, 0x01)\n      0x00\n      swap1\n      dup2\n      mstore\n      0x40\n      swap1\n      keccak256\n      sload\n      sub(shl(0x80, 0x01), 0x01)\n      and\n      dup2\n      jump\n    tag_16:\n      mload(0x40)\n      sub(shl(0x80, 0x01), 0x01)\n        /* \"#utility.yul\":547:594   */\n      swap1\n      swap2\n      and\n        /* \"#utility.yul\":529:595   */\n      dup2\n      mstore\n        /* \"#utility.yul\":517:519   */\n      0x20\n        /* \"#utility.yul\":502:520   */\n      add\n        /* \"access/RoleAccess.sol\":185:236  mapping(address => uint128) public staffRestaurants */\n    tag_20:\n      mload(0x40)\n      dup1\n      swap2\n      sub\n      swap1\n      return\n        /* \"access/RoleAccess.sol\":988:1151  function addMeAsCustomer() external {... */\n    tag_4:\n      tag_22\n      tag_23\n      jump\t// in\n    tag_22:\n      stop\n        /* \"access/RoleAccess.sol\":1159:1526  function addStaff(address staff, Role role, uint128 restaurantId) external {... */\n    tag_5:\n      tag_22\n      tag_25\n      calldatasize\n      0x04\n      tag_26\n      jump\t// in\n    tag_25:\n      tag_27\n      jump\t// in\n        /* \"access/RoleAccess.sol\":245:267  address public foodApp */\n    tag_6:\n      sload(0x02)\n      tag_28\n      swap1\n      sub(shl(0xa0, 0x01), 0x01)\n      and\n      dup2\n      jump\n    tag_28:\n      mload(0x40)\n      sub(shl(0xa0, 0x01), 0x01)\n        /* \"#utility.yul\":1380:1412   */\n      swap1\n      swap2\n      and\n        /* \"#utility.yul\":1362:1413   */\n      dup2\n      mstore\n        /* \"#utility.yul\":1350:1352   */\n      0x20\n        /* \"#utility.yul\":1335:1353   */\n      add\n        /* \"access/RoleAccess.sol\":245:267  address public foodApp */\n      tag_20\n        /* \"#utility.yul\":1216:1419   */\n      jump\n        /* \"@openzeppelin/contracts-upgradeable/access/OwnableUpgradeable.sol\":3155:3256  function renounceOwnership() public virtual onlyOwner {... */\n    tag_7:\n      tag_22\n      tag_33\n      jump\t// in\n        /* \"@openzeppelin/contracts-upgradeable/access/OwnableUpgradeable.sol\":2441:2585  function owner() public view virtual returns (address) {... */\n    tag_8:\n        /* \"@openzeppelin/contracts-upgradeable/access/OwnableUpgradeable.sol\":1313:1335  OwnableStorageLocation */\n      0x9016d09d72d40fdae2fd8ceac6b6234c7706214fd39c1cd1e609a0528c199300\n        /* \"@openzeppelin/contracts-upgradeable/access/OwnableUpgradeable.sol\":2570:2578  $._owner */\n      sload\n      sub(shl(0xa0, 0x01), 0x01)\n      and\n        /* \"@openzeppelin/contracts-upgradeable/access/OwnableUpgradeable.sol\":2441:2585  function owner() public view virtual returns (address) {... */\n      jump(tag_28)\n        /* \"access/RoleAccess.sol\":141:178  mapping(address => Role) public roles */\n    tag_9:\n      tag_37\n      tag_38\n      calldatasize\n      0x04\n      tag_18\n      jump\t// in\n    tag_38:\n      0x00\n      0x20\n      dup2\n      swap1\n      mstore\n      swap1\n      dup2\n      mstore\n      0x40\n      swap1\n      keccak256\n      sload\n      0xff\n      and\n      dup2\n      jump\n    tag_37:\n      mload(0x40)\n      tag_20\n      swap2\n      swap1\n      tag_41\n      jump\t// in\n        /* \"contracts/ReviewManager.sol\":1641:1789  function getReviews(uint128 restaurantId) external view override returns (Review[] memory) {... */\n    tag_10:\n      tag_42\n      tag_43\n      calldatasize\n      0x04\n      tag_44\n      jump\t// in\n    tag_43:\n      tag_45\n      jump\t// in\n    tag_42:\n      mload(0x40)\n      tag_20\n      swap2\n      swap1\n      tag_47\n      jump\t// in\n        /* \"contracts/ReviewManager.sol\":679:884  function initialize(address _foodApp) public initializer {... */\n    tag_11:\n      tag_22\n      tag_49\n      calldatasize\n      0x04\n      tag_18\n      jump\t// in\n    tag_49:\n      tag_50\n      jump\t// in\n        /* \"contracts/ReviewManager.sol\":384:437  mapping(uint128 => Review[]) public restaurantReviews */\n    tag_12:\n      tag_51\n      tag_52\n      calldatasize\n      0x04\n      tag_53\n      jump\t// in\n    tag_52:\n      tag_54\n      jump\t// in\n    tag_51:\n      mload(0x40)\n      tag_20\n      swap6\n      swap5\n      swap4\n      swap3\n      swap2\n      swap1\n      tag_56\n      jump\t// in\n        /* \"contracts/ReviewManager.sol\":892:1633  function rateRestaurant(... */\n    tag_13:\n      tag_22\n      tag_58\n      calldatasize\n      0x04\n      tag_59\n      jump\t// in\n    tag_58:\n      tag_60\n      jump\t// in\n        /* \"@openzeppelin/contracts-upgradeable/access/OwnableUpgradeable.sol\":3405:3620  function transferOwnership(address newOwner) public virtual onlyOwner {... */\n    tag_14:\n      tag_22\n      tag_62\n      calldatasize\n      0x04\n      tag_18\n      jump\t// in\n    tag_62:\n      tag_63\n      jump\t// in\n        /* \"access/RoleAccess.sol\":988:1151  function addMeAsCustomer() external {... */\n    tag_23:\n        /* \"access/RoleAccess.sol\":1049:1059  msg.sender */\n      caller\n        /* \"access/RoleAccess.sol\":1064:1073  Role.None */\n      0x00\n        /* \"access/RoleAccess.sol\":1043:1060  roles[msg.sender] */\n      swap1\n      dup2\n      mstore\n      0x20\n      dup2\n      swap1\n      mstore\n      0x40\n      dup2\n      keccak256\n      sload\n      0xff\n      and\n        /* \"access/RoleAccess.sol\":1043:1073  roles[msg.sender] == Role.None */\n      0x04\n      dup2\n      gt\n      iszero\n      tag_69\n      jumpi\n      tag_69\n      tag_67\n      jump\t// in\n    tag_69:\n      eq\n        /* \"access/RoleAccess.sol\":1035:1099  require(roles[msg.sender] == Role.None, \"Role already assigned\") */\n      tag_70\n      jumpi\n      mload(0x40)\n      shl(0xe5, 0x461bcd)\n      dup2\n      mstore\n        /* \"#utility.yul\":6176:6178   */\n      0x20\n        /* \"access/RoleAccess.sol\":1035:1099  require(roles[msg.sender] == Role.None, \"Role already assigned\") */\n      0x04\n      dup3\n      add\n        /* \"#utility.yul\":6158:6179   */\n      mstore\n        /* \"#utility.yul\":6215:6217   */\n      0x15\n        /* \"#utility.yul\":6195:6213   */\n      0x24\n      dup3\n      add\n        /* \"#utility.yul\":6188:6218   */\n      mstore\n      shl(0x5a, 0x149bdb1948185b1c9958591e48185cdcda59db9959)\n        /* \"#utility.yul\":6234:6252   */\n      0x44\n      dup3\n      add\n        /* \"#utility.yul\":6227:6278   */\n      mstore\n        /* \"#utility.yul\":6295:6313   */\n      0x64\n      add\n        /* \"access/RoleAccess.sol\":1035:1099  require(roles[msg.sender] == Role.None, \"Role already assigned\") */\n    tag_71:\n      mload(0x40)\n      dup1\n      swap2\n      sub\n      swap1\n      revert\n    tag_70:\n        /* \"access/RoleAccess.sol\":1116:1126  msg.sender */\n      caller\n        /* \"access/RoleAccess.sol\":1110:1115  roles */\n      0x00\n        /* \"access/RoleAccess.sol\":1110:1127  roles[msg.sender] */\n      swap1\n      dup2\n      mstore\n      0x20\n      dup2\n      swap1\n      mstore\n      0x40\n      swap1\n      keccak256\n        /* \"access/RoleAccess.sol\":1110:1143  roles[msg.sender] = Role.Customer */\n      dup1\n      sload\n      not(0xff)\n      and\n        /* \"access/RoleAccess.sol\":1130:1143  Role.Customer */\n      0x02\n        /* \"access/RoleAccess.sol\":1110:1143  roles[msg.sender] = Role.Customer */\n      or\n      swap1\n      sstore\n        /* \"access/RoleAccess.sol\":988:1151  function addMeAsCustomer() external {... */\n      jump\t// out\n        /* \"access/RoleAccess.sol\":1159:1526  function addStaff(address staff, Role role, uint128 restaurantId) external {... */\n    tag_27:\n        /* \"access/RoleAccess.sol\":1267:1274  foodApp */\n      and(sub(shl(0xa0, 0x01), 0x01), sload(0x02))\n        /* \"access/RoleAccess.sol\":1253:1263  msg.sender */\n      caller\n        /* \"access/RoleAccess.sol\":1253:1274  msg.sender == foodApp */\n      eq\n        /* \"access/RoleAccess.sol\":1245:1291  require(msg.sender == foodApp, \"Only FoodApp\") */\n      tag_76\n      jumpi\n      mload(0x40)\n      shl(0xe5, 0x461bcd)\n      dup2\n      mstore\n        /* \"#utility.yul\":6526:6528   */\n      0x20\n        /* \"access/RoleAccess.sol\":1245:1291  require(msg.sender == foodApp, \"Only FoodApp\") */\n      0x04\n      dup3\n      add\n        /* \"#utility.yul\":6508:6529   */\n      mstore\n        /* \"#utility.yul\":6565:6567   */\n      0x0c\n        /* \"#utility.yul\":6545:6563   */\n      0x24\n      dup3\n      add\n        /* \"#utility.yul\":6538:6568   */\n      mstore\n      shl(0xa4, 0x04f6e6c7920466f6f6441707)\n        /* \"#utility.yul\":6584:6602   */\n      0x44\n      dup3\n      add\n        /* \"#utility.yul\":6577:6619   */\n      mstore\n        /* \"#utility.yul\":6636:6654   */\n      0x64\n      add\n        /* \"access/RoleAccess.sol\":1245:1291  require(msg.sender == foodApp, \"Only FoodApp\") */\n      tag_71\n        /* \"#utility.yul\":6324:6660   */\n      jump\n        /* \"access/RoleAccess.sol\":1245:1291  require(msg.sender == foodApp, \"Only FoodApp\") */\n    tag_76:\n        /* \"access/RoleAccess.sol\":1318:1326  Role.FOH */\n      0x03\n        /* \"access/RoleAccess.sol\":1310:1314  role */\n      dup3\n        /* \"access/RoleAccess.sol\":1310:1326  role == Role.FOH */\n      0x04\n      dup2\n      gt\n      iszero\n      tag_82\n      jumpi\n      tag_82\n      tag_67\n      jump\t// in\n    tag_82:\n      eq\n        /* \"access/RoleAccess.sol\":1310:1346  role == Role.FOH || role == Role.BOH */\n      dup1\n      tag_83\n      jumpi\n      pop\n        /* \"access/RoleAccess.sol\":1338:1346  Role.BOH */\n      0x04\n        /* \"access/RoleAccess.sol\":1330:1334  role */\n      dup3\n        /* \"access/RoleAccess.sol\":1330:1346  role == Role.BOH */\n      0x04\n      dup2\n      gt\n      iszero\n      tag_87\n      jumpi\n      tag_87\n      tag_67\n      jump\t// in\n    tag_87:\n      eq\n        /* \"access/RoleAccess.sol\":1310:1346  role == Role.FOH || role == Role.BOH */\n    tag_83:\n        /* \"access/RoleAccess.sol\":1302:1369  require(role == Role.FOH || role == Role.BOH, \"Invalid staff role\") */\n      tag_88\n      jumpi\n      mload(0x40)\n      shl(0xe5, 0x461bcd)\n      dup2\n      mstore\n        /* \"#utility.yul\":6867:6869   */\n      0x20\n        /* \"access/RoleAccess.sol\":1302:1369  require(role == Role.FOH || role == Role.BOH, \"Invalid staff role\") */\n      0x04\n      dup3\n      add\n        /* \"#utility.yul\":6849:6870   */\n      mstore\n        /* \"#utility.yul\":6906:6908   */\n      0x12\n        /* \"#utility.yul\":6886:6904   */\n      0x24\n      dup3\n      add\n        /* \"#utility.yul\":6879:6909   */\n      mstore\n      shl(0x70, 0x496e76616c696420737461666620726f6c65)\n        /* \"#utility.yul\":6925:6943   */\n      0x44\n      dup3\n      add\n        /* \"#utility.yul\":6918:6966   */\n      mstore\n        /* \"#utility.yul\":6983:7001   */\n      0x64\n      add\n        /* \"access/RoleAccess.sol\":1302:1369  require(role == Role.FOH || role == Role.BOH, \"Invalid staff role\") */\n      tag_71\n        /* \"#utility.yul\":6665:7007   */\n      jump\n        /* \"access/RoleAccess.sol\":1302:1369  require(role == Role.FOH || role == Role.BOH, \"Invalid staff role\") */\n    tag_88:\n      sub(shl(0xa0, 0x01), 0x01)\n        /* \"access/RoleAccess.sol\":1388:1400  roles[staff] */\n      dup4\n      and\n        /* \"access/RoleAccess.sol\":1404:1413  Role.None */\n      0x00\n        /* \"access/RoleAccess.sol\":1388:1400  roles[staff] */\n      swap1\n      dup2\n      mstore\n      0x20\n      dup2\n      swap1\n      mstore\n      0x40\n      dup2\n      keccak256\n      sload\n      0xff\n      and\n        /* \"access/RoleAccess.sol\":1388:1413  roles[staff] == Role.None */\n      0x04\n      dup2\n      gt\n      iszero\n      tag_94\n      jumpi\n      tag_94\n      tag_67\n      jump\t// in\n    tag_94:\n      eq\n        /* \"access/RoleAccess.sol\":1380:1439  require(roles[staff] == Role.None, \"Role already assigned\") */\n      tag_95\n      jumpi\n      mload(0x40)\n      shl(0xe5, 0x461bcd)\n      dup2\n      mstore\n        /* \"#utility.yul\":6176:6178   */\n      0x20\n        /* \"access/RoleAccess.sol\":1380:1439  require(roles[staff] == Role.None, \"Role already assigned\") */\n      0x04\n      dup3\n      add\n        /* \"#utility.yul\":6158:6179   */\n      mstore\n        /* \"#utility.yul\":6215:6217   */\n      0x15\n        /* \"#utility.yul\":6195:6213   */\n      0x24\n      dup3\n      add\n        /* \"#utility.yul\":6188:6218   */\n      mstore\n      shl(0x5a, 0x149bdb1948185b1c9958591e48185cdcda59db9959)\n        /* \"#utility.yul\":6234:6252   */\n      0x44\n      dup3\n      add\n        /* \"#utility.yul\":6227:6278   */\n      mstore\n        /* \"#utility.yul\":6295:6313   */\n      0x64\n      add\n        /* \"access/RoleAccess.sol\":1380:1439  require(roles[staff] == Role.None, \"Role already assigned\") */\n      tag_71\n        /* \"#utility.yul\":5974:6319   */\n      jump\n        /* \"access/RoleAccess.sol\":1380:1439  require(roles[staff] == Role.None, \"Role already assigned\") */\n    tag_95:\n      sub(shl(0xa0, 0x01), 0x01)\n        /* \"access/RoleAccess.sol\":1450:1462  roles[staff] */\n      dup4\n      and\n        /* \"access/RoleAccess.sol\":1450:1455  roles */\n      0x00\n        /* \"access/RoleAccess.sol\":1450:1462  roles[staff] */\n      swap1\n      dup2\n      mstore\n      0x20\n      dup2\n      swap1\n      mstore\n      0x40\n      swap1\n      keccak256\n        /* \"access/RoleAccess.sol\":1450:1469  roles[staff] = role */\n      dup1\n      sload\n        /* \"access/RoleAccess.sol\":1465:1469  role */\n      dup4\n      swap2\n        /* \"access/RoleAccess.sol\":1450:1462  roles[staff] */\n      swap1\n      not(0xff)\n        /* \"access/RoleAccess.sol\":1450:1469  roles[staff] = role */\n      and\n      0x01\n        /* \"access/RoleAccess.sol\":1465:1469  role */\n      dup4\n        /* \"access/RoleAccess.sol\":1450:1469  roles[staff] = role */\n      0x04\n      dup2\n      gt\n      iszero\n      tag_98\n      jumpi\n      tag_98\n      tag_67\n      jump\t// in\n    tag_98:\n      mul\n      or\n      swap1\n      sstore\n      pop\n      sub(shl(0xa0, 0x01), 0x01)\n        /* \"access/RoleAccess.sol\":1480:1503  staffRestaurants[staff] */\n      swap3\n      swap1\n      swap3\n      and\n      0x00\n      swap1\n      dup2\n      mstore\n        /* \"access/RoleAccess.sol\":1480:1496  staffRestaurants */\n      0x01\n        /* \"access/RoleAccess.sol\":1480:1503  staffRestaurants[staff] */\n      0x20\n      mstore\n      0x40\n      swap1\n      keccak256\n        /* \"access/RoleAccess.sol\":1480:1518  staffRestaurants[staff] = restaurantId */\n      dup1\n      sload\n      not(sub(shl(0x80, 0x01), 0x01))\n      and\n      sub(shl(0x80, 0x01), 0x01)\n      swap1\n      swap4\n      and\n      swap3\n      swap1\n      swap3\n      or\n      swap1\n      swap2\n      sstore\n      pop\n        /* \"access/RoleAccess.sol\":1159:1526  function addStaff(address staff, Role role, uint128 restaurantId) external {... */\n      jump\t// out\n        /* \"@openzeppelin/contracts-upgradeable/access/OwnableUpgradeable.sol\":3155:3256  function renounceOwnership() public virtual onlyOwner {... */\n    tag_33:\n        /* \"@openzeppelin/contracts-upgradeable/access/OwnableUpgradeable.sol\":2334:2347  _checkOwner() */\n      tag_100\n        /* \"@openzeppelin/contracts-upgradeable/access/OwnableUpgradeable.sol\":2334:2345  _checkOwner */\n      tag_101\n        /* \"@openzeppelin/contracts-upgradeable/access/OwnableUpgradeable.sol\":2334:2347  _checkOwner() */\n      jump\t// in\n    tag_100:\n        /* \"@openzeppelin/contracts-upgradeable/access/OwnableUpgradeable.sol\":3219:3249  _transferOwnership(address(0)) */\n      tag_103\n        /* \"@openzeppelin/contracts-upgradeable/access/OwnableUpgradeable.sol\":3246:3247  0 */\n      0x00\n        /* \"@openzeppelin/contracts-upgradeable/access/OwnableUpgradeable.sol\":3219:3237  _transferOwnership */\n      tag_104\n        /* \"@openzeppelin/contracts-upgradeable/access/OwnableUpgradeable.sol\":3219:3249  _transferOwnership(address(0)) */\n      jump\t// in\n    tag_103:\n        /* \"@openzeppelin/contracts-upgradeable/access/OwnableUpgradeable.sol\":3155:3256  function renounceOwnership() public virtual onlyOwner {... */\n      jump\t// out\n        /* \"contracts/ReviewManager.sol\":1641:1789  function getReviews(uint128 restaurantId) external view override returns (Review[] memory) {... */\n    tag_45:\n      sub(shl(0x80, 0x01), 0x01)\n        /* \"contracts/ReviewManager.sol\":1750:1781  restaurantReviews[restaurantId] */\n      dup2\n      and\n      0x00\n      swap1\n      dup2\n      mstore\n        /* \"contracts/ReviewManager.sol\":1750:1767  restaurantReviews */\n      0x03\n        /* \"contracts/ReviewManager.sol\":1750:1781  restaurantReviews[restaurantId] */\n      0x20\n      swap1\n      dup2\n      mstore\n      0x40\n      dup1\n      dup4\n      keccak256\n        /* \"contracts/ReviewManager.sol\":1743:1781  return restaurantReviews[restaurantId] */\n      dup1\n      sload\n      dup3\n      mload\n      dup2\n      dup6\n      mul\n      dup2\n      add\n      dup6\n      add\n      swap1\n      swap4\n      mstore\n      dup1\n      dup4\n      mstore\n        /* \"contracts/ReviewManager.sol\":1715:1730  Review[] memory */\n      0x60\n      swap5\n        /* \"contracts/ReviewManager.sol\":1743:1781  return restaurantReviews[restaurantId] */\n      swap3\n      swap4\n        /* \"contracts/ReviewManager.sol\":1750:1781  restaurantReviews[restaurantId] */\n      swap2\n      swap3\n        /* \"contracts/ReviewManager.sol\":1743:1781  return restaurantReviews[restaurantId] */\n      swap1\n      swap2\n      dup5\n      add\n    tag_109:\n      dup3\n      dup3\n      lt\n      iszero\n      tag_110\n      jumpi\n      0x00\n      dup5\n      dup2\n      mstore\n      0x20\n      swap1\n      dup2\n      swap1\n      keccak256\n      0x40\n      dup1\n      mload\n      0xa0\n      dup2\n      add\n      dup3\n      mstore\n      0x04\n      dup7\n      mul\n      swap1\n      swap3\n      add\n      dup1\n      sload\n      sub(shl(0xa0, 0x01), 0x01)\n      and\n      dup4\n      mstore\n      0x01\n      dup2\n      add\n      sload\n      sub(shl(0x80, 0x01), 0x01)\n      dup2\n      and\n      swap5\n      dup5\n      add\n      swap5\n      swap1\n      swap5\n      mstore\n      shl(0x80, 0x01)\n      swap1\n      swap4\n      div\n      0xff\n      and\n      swap1\n      dup3\n      add\n      mstore\n      0x02\n      dup3\n      add\n      dup1\n      sload\n      swap2\n      swap3\n      swap2\n      0x60\n      dup5\n      add\n      swap2\n      swap1\n      tag_112\n      swap1\n      tag_113\n      jump\t// in\n    tag_112:\n      dup1\n      0x1f\n      add\n      0x20\n      dup1\n      swap2\n      div\n      mul\n      0x20\n      add\n      mload(0x40)\n      swap1\n      dup2\n      add\n      0x40\n      mstore\n      dup1\n      swap3\n      swap2\n      swap1\n      dup2\n      dup2\n      mstore\n      0x20\n      add\n      dup3\n      dup1\n      sload\n      tag_114\n      swap1\n      tag_113\n      jump\t// in\n    tag_114:\n      dup1\n      iszero\n      tag_115\n      jumpi\n      dup1\n      0x1f\n      lt\n      tag_116\n      jumpi\n      0x0100\n      dup1\n      dup4\n      sload\n      div\n      mul\n      dup4\n      mstore\n      swap2\n      0x20\n      add\n      swap2\n      jump(tag_115)\n    tag_116:\n      dup3\n      add\n      swap2\n      swap1\n      0x00\n      mstore\n      keccak256(0x00, 0x20)\n      swap1\n    tag_117:\n      dup2\n      sload\n      dup2\n      mstore\n      swap1\n      0x01\n      add\n      swap1\n      0x20\n      add\n      dup1\n      dup4\n      gt\n      tag_117\n      jumpi\n      dup3\n      swap1\n      sub\n      0x1f\n      and\n      dup3\n      add\n      swap2\n    tag_115:\n      pop\n      pop\n      pop\n      swap2\n      dup4\n      mstore\n      pop\n      pop\n      0x03\n      swap2\n      swap1\n      swap2\n      add\n      sload\n      sub(shl(0x80, 0x01), 0x01)\n      and\n      0x20\n      swap2\n      dup3\n      add\n      mstore\n      swap1\n      dup3\n      mstore\n      0x01\n      swap3\n      swap1\n      swap3\n      add\n      swap2\n      add\n      jump(tag_109)\n    tag_110:\n      pop\n      pop\n      pop\n      pop\n      swap1\n      pop\n        /* \"contracts/ReviewManager.sol\":1641:1789  function getReviews(uint128 restaurantId) external view override returns (Review[] memory) {... */\n      swap2\n      swap1\n      pop\n      jump\t// out\n        /* \"contracts/ReviewManager.sol\":679:884  function initialize(address _foodApp) public initializer {... */\n    tag_50:\n        /* \"@openzeppelin/contracts-upgradeable/proxy/utils/Initializable.sol\":3147:3213  0xf0c57e16840df040f15088dc2f81fe391c3923bec73e23a9662efc9c229c6a00 */\n      0xf0c57e16840df040f15088dc2f81fe391c3923bec73e23a9662efc9c229c6a00\n        /* \"@openzeppelin/contracts-upgradeable/proxy/utils/Initializable.sol\":4302:4317  $._initializing */\n      dup1\n      sload\n      shl(0x40, 0x01)\n      dup2\n      div\n      0xff\n      and\n        /* \"@openzeppelin/contracts-upgradeable/proxy/utils/Initializable.sol\":4301:4317  !$._initializing */\n      iszero\n      swap1\n        /* \"@openzeppelin/contracts-upgradeable/proxy/utils/Initializable.sol\":4348:4362  $._initialized */\n      0xffffffffffffffff\n      and\n        /* \"@openzeppelin/contracts-upgradeable/proxy/utils/Initializable.sol\":4158:4188  InitializableStorage storage $ */\n      0x00\n        /* \"@openzeppelin/contracts-upgradeable/proxy/utils/Initializable.sol\":4724:4740  initialized == 0 */\n      dup2\n      iszero\n        /* \"@openzeppelin/contracts-upgradeable/proxy/utils/Initializable.sol\":4724:4758  initialized == 0 && isTopLevelCall */\n      dup1\n      iszero\n      tag_121\n      jumpi\n      pop\n        /* \"@openzeppelin/contracts-upgradeable/proxy/utils/Initializable.sol\":4744:4758  isTopLevelCall */\n      dup3\n        /* \"@openzeppelin/contracts-upgradeable/proxy/utils/Initializable.sol\":4724:4758  initialized == 0 && isTopLevelCall */\n    tag_121:\n        /* \"@openzeppelin/contracts-upgradeable/proxy/utils/Initializable.sol\":4704:4758  bool initialSetup = initialized == 0 && isTopLevelCall */\n      swap1\n      pop\n        /* \"@openzeppelin/contracts-upgradeable/proxy/utils/Initializable.sol\":4768:4785  bool construction */\n      0x00\n        /* \"@openzeppelin/contracts-upgradeable/proxy/utils/Initializable.sol\":4788:4799  initialized */\n      dup3\n        /* \"@openzeppelin/contracts-upgradeable/proxy/utils/Initializable.sol\":4788:4804  initialized == 1 */\n      0xffffffffffffffff\n      and\n        /* \"@openzeppelin/contracts-upgradeable/proxy/utils/Initializable.sol\":4803:4804  1 */\n      0x01\n        /* \"@openzeppelin/contracts-upgradeable/proxy/utils/Initializable.sol\":4788:4804  initialized == 1 */\n      eq\n        /* \"@openzeppelin/contracts-upgradeable/proxy/utils/Initializable.sol\":4788:4838  initialized == 1 && address(this).code.length == 0 */\n      dup1\n      iszero\n      tag_122\n      jumpi\n      pop\n        /* \"@openzeppelin/contracts-upgradeable/proxy/utils/Initializable.sol\":4816:4820  this */\n      address\n        /* \"@openzeppelin/contracts-upgradeable/proxy/utils/Initializable.sol\":4808:4833  address(this).code.length */\n      extcodesize\n        /* \"@openzeppelin/contracts-upgradeable/proxy/utils/Initializable.sol\":4808:4838  address(this).code.length == 0 */\n      iszero\n        /* \"@openzeppelin/contracts-upgradeable/proxy/utils/Initializable.sol\":4788:4838  initialized == 1 && address(this).code.length == 0 */\n    tag_122:\n        /* \"@openzeppelin/contracts-upgradeable/proxy/utils/Initializable.sol\":4768:4838  bool construction = initialized == 1 && address(this).code.length == 0 */\n      swap1\n      pop\n        /* \"@openzeppelin/contracts-upgradeable/proxy/utils/Initializable.sol\":4854:4866  initialSetup */\n      dup2\n        /* \"@openzeppelin/contracts-upgradeable/proxy/utils/Initializable.sol\":4853:4866  !initialSetup */\n      iszero\n        /* \"@openzeppelin/contracts-upgradeable/proxy/utils/Initializable.sol\":4853:4883  !initialSetup && !construction */\n      dup1\n      iszero\n      tag_123\n      jumpi\n      pop\n        /* \"@openzeppelin/contracts-upgradeable/proxy/utils/Initializable.sol\":4871:4883  construction */\n      dup1\n        /* \"@openzeppelin/contracts-upgradeable/proxy/utils/Initializable.sol\":4870:4883  !construction */\n      iszero\n        /* \"@openzeppelin/contracts-upgradeable/proxy/utils/Initializable.sol\":4853:4883  !initialSetup && !construction */\n    tag_123:\n        /* \"@openzeppelin/contracts-upgradeable/proxy/utils/Initializable.sol\":4849:4940  if (!initialSetup && !construction) {... */\n      iszero\n      tag_124\n      jumpi\n        /* \"@openzeppelin/contracts-upgradeable/proxy/utils/Initializable.sol\":4906:4929  InvalidInitialization() */\n      mload(0x40)\n      shl(0xe0, 0xf92ee8a9)\n      dup2\n      mstore\n      0x04\n      add\n      mload(0x40)\n      dup1\n      swap2\n      sub\n      swap1\n      revert\n        /* \"@openzeppelin/contracts-upgradeable/proxy/utils/Initializable.sol\":4849:4940  if (!initialSetup && !construction) {... */\n    tag_124:\n        /* \"@openzeppelin/contracts-upgradeable/proxy/utils/Initializable.sol\":4949:4967  $._initialized = 1 */\n      dup5\n      sload\n      not(0xffffffffffffffff)\n      and\n        /* \"@openzeppelin/contracts-upgradeable/proxy/utils/Initializable.sol\":4966:4967  1 */\n      0x01\n        /* \"@openzeppelin/contracts-upgradeable/proxy/utils/Initializable.sol\":4949:4967  $._initialized = 1 */\n      or\n      dup6\n      sstore\n        /* \"@openzeppelin/contracts-upgradeable/proxy/utils/Initializable.sol\":4977:5044  if (isTopLevelCall) {... */\n      dup4\n      iszero\n      tag_125\n      jumpi\n        /* \"@openzeppelin/contracts-upgradeable/proxy/utils/Initializable.sol\":5011:5033  $._initializing = true */\n      dup5\n      sload\n      not(shl(0x40, 0xff))\n      and\n      shl(0x40, 0x01)\n      or\n      dup6\n      sstore\n        /* \"@openzeppelin/contracts-upgradeable/proxy/utils/Initializable.sol\":4977:5044  if (isTopLevelCall) {... */\n    tag_125:\n      sub(shl(0xa0, 0x01), 0x01)\n        /* \"contracts/ReviewManager.sol\":755:777  _foodApp != address(0) */\n      dup7\n      and\n        /* \"contracts/ReviewManager.sol\":747:805  require(_foodApp != address(0), \"Invalid FoodApp address\") */\n      tag_127\n      jumpi\n      mload(0x40)\n      shl(0xe5, 0x461bcd)\n      dup2\n      mstore\n        /* \"#utility.yul\":7599:7601   */\n      0x20\n        /* \"contracts/ReviewManager.sol\":747:805  require(_foodApp != address(0), \"Invalid FoodApp address\") */\n      0x04\n      dup3\n      add\n        /* \"#utility.yul\":7581:7602   */\n      mstore\n        /* \"#utility.yul\":7638:7640   */\n      0x17\n        /* \"#utility.yul\":7618:7636   */\n      0x24\n      dup3\n      add\n        /* \"#utility.yul\":7611:7641   */\n      mstore\n        /* \"#utility.yul\":7677:7702   */\n      0x496e76616c696420466f6f644170702061646472657373000000000000000000\n        /* \"#utility.yul\":7657:7675   */\n      0x44\n      dup3\n      add\n        /* \"#utility.yul\":7650:7703   */\n      mstore\n        /* \"#utility.yul\":7720:7738   */\n      0x64\n      add\n        /* \"contracts/ReviewManager.sol\":747:805  require(_foodApp != address(0), \"Invalid FoodApp address\") */\n      tag_71\n        /* \"#utility.yul\":7397:7744   */\n      jump\n        /* \"contracts/ReviewManager.sol\":747:805  require(_foodApp != address(0), \"Invalid FoodApp address\") */\n    tag_127:\n        /* \"contracts/ReviewManager.sol\":816:840  __Ownable_init(_foodApp) */\n      tag_130\n        /* \"contracts/ReviewManager.sol\":831:839  _foodApp */\n      dup7\n        /* \"contracts/ReviewManager.sol\":816:830  __Ownable_init */\n      tag_131\n        /* \"contracts/ReviewManager.sol\":816:840  __Ownable_init(_foodApp) */\n      jump\t// in\n    tag_130:\n        /* \"access/RoleAccess.sol\":915:922  foodApp */\n      0x02\n        /* \"access/RoleAccess.sol\":915:933  foodApp = _foodApp */\n      dup1\n      sload\n      not(sub(shl(0xa0, 0x01), 0x01))\n      and\n      sub(shl(0xa0, 0x01), 0x01)\n      dup9\n      and\n      swap1\n      dup2\n      or\n      swap1\n      swap2\n      sstore\n      0x00\n        /* \"access/RoleAccess.sol\":944:959  roles[_foodApp] */\n      swap1\n      dup2\n      mstore\n      0x20\n      dup2\n      swap1\n      mstore\n      0x40\n      swap1\n      keccak256\n        /* \"access/RoleAccess.sol\":944:972  roles[_foodApp] = Role.Admin */\n      dup1\n      sload\n      not(0xff)\n      and\n      0x01\n      or\n      swap1\n      sstore\n        /* \"@openzeppelin/contracts-upgradeable/proxy/utils/Initializable.sol\":5068:5082  isTopLevelCall */\n      dup4\n        /* \"@openzeppelin/contracts-upgradeable/proxy/utils/Initializable.sol\":5064:5165  if (isTopLevelCall) {... */\n      iszero\n      tag_134\n      jumpi\n        /* \"@openzeppelin/contracts-upgradeable/proxy/utils/Initializable.sol\":5098:5121  $._initializing = false */\n      dup5\n      sload\n      not(shl(0x40, 0xff))\n      and\n      dup6\n      sstore\n        /* \"@openzeppelin/contracts-upgradeable/proxy/utils/Initializable.sol\":5140:5154  Initialized(1) */\n      mload(0x40)\n      0x01\n        /* \"#utility.yul\":7902:7952   */\n      dup2\n      mstore\n        /* \"@openzeppelin/contracts-upgradeable/proxy/utils/Initializable.sol\":5140:5154  Initialized(1) */\n      0xc7f505b2f371ae2175ee4913f4499e1f2633a7b5936321eed1cdaeb6115181d2\n      swap1\n        /* \"#utility.yul\":7890:7892   */\n      0x20\n        /* \"#utility.yul\":7875:7893   */\n      add\n        /* \"@openzeppelin/contracts-upgradeable/proxy/utils/Initializable.sol\":5140:5154  Initialized(1) */\n      mload(0x40)\n      dup1\n      swap2\n      sub\n      swap1\n      log1\n        /* \"@openzeppelin/contracts-upgradeable/proxy/utils/Initializable.sol\":5064:5165  if (isTopLevelCall) {... */\n    tag_134:\n        /* \"@openzeppelin/contracts-upgradeable/proxy/utils/Initializable.sol\":4092:5171  {... */\n      pop\n      pop\n      pop\n      pop\n      pop\n        /* \"contracts/ReviewManager.sol\":679:884  function initialize(address _foodApp) public initializer {... */\n      pop\n      jump\t// out\n        /* \"contracts/ReviewManager.sol\":384:437  mapping(uint128 => Review[]) public restaurantReviews */\n    tag_54:\n      mstore(0x20, 0x03)\n      dup2\n      0x00\n      mstore\n      keccak256(0x00, 0x40)\n      dup2\n      dup2\n      sload\n      dup2\n      lt\n      tag_137\n      jumpi\n      0x00\n      dup1\n      revert\n    tag_137:\n      0x00\n      swap2\n      dup3\n      mstore\n      0x20\n      swap1\n      swap2\n      keccak256\n      0x04\n      swap1\n      swap2\n      mul\n      add\n      dup1\n      sload\n      0x01\n      dup3\n      add\n      sload\n      0x02\n      dup4\n      add\n      dup1\n      sload\n      sub(shl(0xa0, 0x01), 0x01)\n      swap1\n      swap4\n      and\n      swap6\n      pop\n      sub(shl(0x80, 0x01), 0x01)\n      dup3\n      and\n      swap5\n      pop\n      shl(0x80, 0x01)\n      swap1\n      swap2\n      div\n      0xff\n      and\n      swap3\n      swap2\n      tag_139\n      swap1\n      tag_113\n      jump\t// in\n    tag_139:\n      dup1\n      0x1f\n      add\n      0x20\n      dup1\n      swap2\n      div\n      mul\n      0x20\n      add\n      mload(0x40)\n      swap1\n      dup2\n      add\n      0x40\n      mstore\n      dup1\n      swap3\n      swap2\n      swap1\n      dup2\n      dup2\n      mstore\n      0x20\n      add\n      dup3\n      dup1\n      sload\n      tag_140\n      swap1\n      tag_113\n      jump\t// in\n    tag_140:\n      dup1\n      iszero\n      tag_141\n      jumpi\n      dup1\n      0x1f\n      lt\n      tag_142\n      jumpi\n      0x0100\n      dup1\n      dup4\n      sload\n      div\n      mul\n      dup4\n      mstore\n      swap2\n      0x20\n      add\n      swap2\n      jump(tag_141)\n    tag_142:\n      dup3\n      add\n      swap2\n      swap1\n      0x00\n      mstore\n      keccak256(0x00, 0x20)\n      swap1\n    tag_143:\n      dup2\n      sload\n      dup2\n      mstore\n      swap1\n      0x01\n      add\n      swap1\n      0x20\n      add\n      dup1\n      dup4\n      gt\n      tag_143\n      jumpi\n      dup3\n      swap1\n      sub\n      0x1f\n      and\n      dup3\n      add\n      swap2\n    tag_141:\n      pop\n      pop\n      pop\n      0x03\n      swap1\n      swap4\n      add\n      sload\n      swap2\n      swap3\n      pop\n      pop\n      sub(shl(0x80, 0x01), 0x01)\n      and\n      dup6\n      jump\t// out\n        /* \"contracts/ReviewManager.sol\":892:1633  function rateRestaurant(... */\n    tag_60:\n        /* \"contracts/ReviewManager.sol\":618:625  foodApp */\n      and(sub(shl(0xa0, 0x01), 0x01), sload(0x02))\n        /* \"contracts/ReviewManager.sol\":604:614  msg.sender */\n      caller\n        /* \"contracts/ReviewManager.sol\":604:625  msg.sender == foodApp */\n      eq\n        /* \"contracts/ReviewManager.sol\":596:651  require(msg.sender == foodApp, \"Only FoodApp can call\") */\n      tag_145\n      jumpi\n      mload(0x40)\n      shl(0xe5, 0x461bcd)\n      dup2\n      mstore\n        /* \"#utility.yul\":8165:8167   */\n      0x20\n        /* \"contracts/ReviewManager.sol\":596:651  require(msg.sender == foodApp, \"Only FoodApp can call\") */\n      0x04\n      dup3\n      add\n        /* \"#utility.yul\":8147:8168   */\n      mstore\n        /* \"#utility.yul\":8204:8206   */\n      0x15\n        /* \"#utility.yul\":8184:8202   */\n      0x24\n      dup3\n      add\n        /* \"#utility.yul\":8177:8207   */\n      mstore\n      shl(0x5a, 0x13db9b1e48119bdbd9105c1c0818d85b8818d85b1b)\n        /* \"#utility.yul\":8223:8241   */\n      0x44\n      dup3\n      add\n        /* \"#utility.yul\":8216:8267   */\n      mstore\n        /* \"#utility.yul\":8284:8302   */\n      0x64\n      add\n        /* \"contracts/ReviewManager.sol\":596:651  require(msg.sender == foodApp, \"Only FoodApp can call\") */\n      tag_71\n        /* \"#utility.yul\":7963:8308   */\n      jump\n        /* \"contracts/ReviewManager.sol\":596:651  require(msg.sender == foodApp, \"Only FoodApp can call\") */\n    tag_145:\n        /* \"contracts/ReviewManager.sol\":1100:1113  Role.Customer */\n      0x02\n      sub(shl(0xa0, 0x01), 0x01)\n        /* \"contracts/ReviewManager.sol\":1083:1096  roles[caller] */\n      dup6\n      and\n        /* \"contracts/ReviewManager.sol\":1083:1088  roles */\n      0x00\n        /* \"contracts/ReviewManager.sol\":1083:1096  roles[caller] */\n      swap1\n      dup2\n      mstore\n      0x20\n      dup2\n      swap1\n      mstore\n      0x40\n      swap1\n      keccak256\n      sload\n      0xff\n      and\n        /* \"contracts/ReviewManager.sol\":1083:1113  roles[caller] == Role.Customer */\n      0x04\n      dup2\n      gt\n      iszero\n      tag_152\n      jumpi\n      tag_152\n      tag_67\n      jump\t// in\n    tag_152:\n      eq\n        /* \"contracts/ReviewManager.sol\":1075:1131  require(roles[caller] == Role.Customer, \"Only customer\") */\n      tag_153\n      jumpi\n      mload(0x40)\n      shl(0xe5, 0x461bcd)\n      dup2\n      mstore\n        /* \"#utility.yul\":8515:8517   */\n      0x20\n        /* \"contracts/ReviewManager.sol\":1075:1131  require(roles[caller] == Role.Customer, \"Only customer\") */\n      0x04\n      dup3\n      add\n        /* \"#utility.yul\":8497:8518   */\n      mstore\n        /* \"#utility.yul\":8554:8556   */\n      0x0d\n        /* \"#utility.yul\":8534:8552   */\n      0x24\n      dup3\n      add\n        /* \"#utility.yul\":8527:8557   */\n      mstore\n      shl(0x99, 0x27b7363c9031bab9ba37b6b2b9)\n        /* \"#utility.yul\":8573:8591   */\n      0x44\n      dup3\n      add\n        /* \"#utility.yul\":8566:8609   */\n      mstore\n        /* \"#utility.yul\":8626:8644   */\n      0x64\n      add\n        /* \"contracts/ReviewManager.sol\":1075:1131  require(roles[caller] == Role.Customer, \"Only customer\") */\n      tag_71\n        /* \"#utility.yul\":8313:8650   */\n      jump\n        /* \"contracts/ReviewManager.sol\":1075:1131  require(roles[caller] == Role.Customer, \"Only customer\") */\n    tag_153:\n        /* \"contracts/ReviewManager.sol\":1169:1176  foodApp */\n      sload(0x02)\n        /* \"contracts/ReviewManager.sol\":1150:1208  IRestaurantManager(foodApp).restaurantExists(restaurantId) */\n      mload(0x40)\n      shl(0xe0, 0xb2a6cb63)\n      dup2\n      mstore\n      sub(shl(0x80, 0x01), 0x01)\n        /* \"#utility.yul\":547:594   */\n      dup6\n      and\n        /* \"contracts/ReviewManager.sol\":1150:1208  IRestaurantManager(foodApp).restaurantExists(restaurantId) */\n      0x04\n      dup3\n      add\n        /* \"#utility.yul\":529:595   */\n      mstore\n      sub(shl(0xa0, 0x01), 0x01)\n        /* \"contracts/ReviewManager.sol\":1169:1176  foodApp */\n      swap1\n      swap2\n      and\n      swap1\n        /* \"contracts/ReviewManager.sol\":1150:1194  IRestaurantManager(foodApp).restaurantExists */\n      0xb2a6cb63\n      swap1\n        /* \"#utility.yul\":502:520   */\n      0x24\n      add\n        /* \"contracts/ReviewManager.sol\":1150:1208  IRestaurantManager(foodApp).restaurantExists(restaurantId) */\n      0x20\n      mload(0x40)\n      dup1\n      dup4\n      sub\n      dup2\n      dup7\n      gas\n      staticcall\n      iszero\n      dup1\n      iszero\n      tag_158\n      jumpi\n      returndatacopy(0x00, 0x00, returndatasize)\n      revert(0x00, returndatasize)\n    tag_158:\n      pop\n      pop\n      pop\n      pop\n      mload(0x40)\n      returndatasize\n      not(0x1f)\n      0x1f\n      dup3\n      add\n      and\n      dup3\n      add\n      dup1\n      0x40\n      mstore\n      pop\n      dup2\n      add\n      swap1\n      tag_159\n      swap2\n      swap1\n      tag_160\n      jump\t// in\n    tag_159:\n        /* \"contracts/ReviewManager.sol\":1142:1233  require(IRestaurantManager(foodApp).restaurantExists(restaurantId), \"Invalid restaurantId\") */\n      tag_161\n      jumpi\n      mload(0x40)\n      shl(0xe5, 0x461bcd)\n      dup2\n      mstore\n        /* \"#utility.yul\":9139:9141   */\n      0x20\n        /* \"contracts/ReviewManager.sol\":1142:1233  require(IRestaurantManager(foodApp).restaurantExists(restaurantId), \"Invalid restaurantId\") */\n      0x04\n      dup3\n      add\n        /* \"#utility.yul\":9121:9142   */\n      mstore\n        /* \"#utility.yul\":9178:9180   */\n      0x14\n        /* \"#utility.yul\":9158:9176   */\n      0x24\n      dup3\n      add\n        /* \"#utility.yul\":9151:9181   */\n      mstore\n      shl(0x62, 0x125b9d985b1a59081c995cdd185d5c985b9d1259)\n        /* \"#utility.yul\":9197:9215   */\n      0x44\n      dup3\n      add\n        /* \"#utility.yul\":9190:9240   */\n      mstore\n        /* \"#utility.yul\":9257:9275   */\n      0x64\n      add\n        /* \"contracts/ReviewManager.sol\":1142:1233  require(IRestaurantManager(foodApp).restaurantExists(restaurantId), \"Invalid restaurantId\") */\n      tag_71\n        /* \"#utility.yul\":8937:9281   */\n      jump\n        /* \"contracts/ReviewManager.sol\":1142:1233  require(IRestaurantManager(foodApp).restaurantExists(restaurantId), \"Invalid restaurantId\") */\n    tag_161:\n        /* \"contracts/ReviewManager.sol\":1262:1263  1 */\n      0x01\n        /* \"contracts/ReviewManager.sol\":1252:1258  rating */\n      dup3\n        /* \"contracts/ReviewManager.sol\":1252:1263  rating >= 1 */\n      0xff\n      and\n      lt\n      iszero\n        /* \"contracts/ReviewManager.sol\":1252:1278  rating >= 1 && rating <= 5 */\n      dup1\n      iszero\n      tag_164\n      jumpi\n      pop\n        /* \"contracts/ReviewManager.sol\":1277:1278  5 */\n      0x05\n        /* \"contracts/ReviewManager.sol\":1267:1273  rating */\n      dup3\n        /* \"contracts/ReviewManager.sol\":1267:1278  rating <= 5 */\n      0xff\n      and\n      gt\n      iszero\n        /* \"contracts/ReviewManager.sol\":1252:1278  rating >= 1 && rating <= 5 */\n    tag_164:\n        /* \"contracts/ReviewManager.sol\":1244:1301  require(rating >= 1 && rating <= 5, \"Rating must be 1-5\") */\n      tag_165\n      jumpi\n      mload(0x40)\n      shl(0xe5, 0x461bcd)\n      dup2\n      mstore\n        /* \"#utility.yul\":9488:9490   */\n      0x20\n        /* \"contracts/ReviewManager.sol\":1244:1301  require(rating >= 1 && rating <= 5, \"Rating must be 1-5\") */\n      0x04\n      dup3\n      add\n        /* \"#utility.yul\":9470:9491   */\n      mstore\n        /* \"#utility.yul\":9527:9529   */\n      0x12\n        /* \"#utility.yul\":9507:9525   */\n      0x24\n      dup3\n      add\n        /* \"#utility.yul\":9500:9530   */\n      mstore\n      shl(0x70, 0x526174696e67206d75737420626520312d35)\n        /* \"#utility.yul\":9546:9564   */\n      0x44\n      dup3\n      add\n        /* \"#utility.yul\":9539:9587   */\n      mstore\n        /* \"#utility.yul\":9604:9622   */\n      0x64\n      add\n        /* \"contracts/ReviewManager.sol\":1244:1301  require(rating >= 1 && rating <= 5, \"Rating must be 1-5\") */\n      tag_71\n        /* \"#utility.yul\":9286:9628   */\n      jump\n        /* \"contracts/ReviewManager.sol\":1244:1301  require(rating >= 1 && rating <= 5, \"Rating must be 1-5\") */\n    tag_165:\n      sub(shl(0x80, 0x01), 0x01)\n        /* \"contracts/ReviewManager.sol\":1314:1345  restaurantReviews[restaurantId] */\n      dup1\n      dup5\n      and\n      0x00\n      dup2\n      dup2\n      mstore\n        /* \"contracts/ReviewManager.sol\":1314:1331  restaurantReviews */\n      0x03\n        /* \"contracts/ReviewManager.sol\":1314:1345  restaurantReviews[restaurantId] */\n      0x20\n      swap1\n      dup2\n      mstore\n      0x40\n      dup1\n      dup4\n      keccak256\n        /* \"contracts/ReviewManager.sol\":1351:1552  Review({... */\n      dup2\n      mload\n      0xa0\n      dup2\n      add\n      dup4\n      mstore\n      sub(shl(0xa0, 0x01), 0x01)\n      dup1\n      dup13\n      and\n      dup3\n      mstore\n      dup2\n      dup6\n      add\n      swap7\n      dup8\n      mstore\n      0xff\n      dup1\n      dup12\n      and\n      swap5\n      dup4\n      add\n      swap5\n      dup6\n      mstore\n      0x60\n      dup4\n      add\n      dup11\n      dup2\n      mstore\n        /* \"contracts/ReviewManager.sol\":1524:1539  block.timestamp */\n      timestamp\n        /* \"contracts/ReviewManager.sol\":1351:1552  Review({... */\n      dup11\n      and\n      0x80\n      dup6\n      add\n      mstore\n        /* \"contracts/ReviewManager.sol\":1314:1553  restaurantReviews[restaurantId].push(Review({... */\n      dup5\n      sload\n      0x01\n      dup2\n      dup2\n      add\n      dup8\n      sstore\n      swap6\n      dup10\n      mstore\n      swap7\n      swap1\n      swap8\n      keccak256\n      dup4\n      mload\n      0x04\n      swap1\n      swap8\n      mul\n      add\n      dup1\n      sload\n      swap7\n      swap1\n      swap3\n      and\n      not(sub(shl(0xa0, 0x01), 0x01))\n      swap1\n      swap7\n      and\n      swap6\n      swap1\n      swap6\n      or\n      dup2\n      sstore\n      swap6\n      mload\n      swap2\n      dup7\n      add\n      dup1\n      sload\n      swap4\n      mload\n      swap1\n      swap5\n      and\n      shl(0x80, 0x01)\n      mul\n      not(0xffffffffffffffffffffffffffffffffff)\n      swap1\n      swap4\n      and\n      swap2\n      swap1\n      swap7\n      and\n      or\n      or\n      swap1\n      sstore\n      mload\n      0x02\n      dup3\n      add\n      swap1\n      tag_169\n      swap1\n      dup3\n      tag_170\n      jump\t// in\n    tag_169:\n      pop\n      0x80\n      swap2\n      swap1\n      swap2\n      add\n      mload\n      0x03\n      swap1\n      swap2\n      add\n      dup1\n      sload\n      not(sub(shl(0x80, 0x01), 0x01))\n      and\n      sub(shl(0x80, 0x01), 0x01)\n      swap3\n      dup4\n      and\n      or\n      swap1\n      sstore\n        /* \"contracts/ReviewManager.sol\":1571:1625  RestaurantRated(restaurantId, caller, rating, comment) */\n      mload(0x40)\n      sub(shl(0xa0, 0x01), 0x01)\n      dup7\n      and\n      swap2\n      dup6\n      and\n      swap1\n      0x8da348b329ec9cb5f933f377db6d8d5e57e2d8c1f3ba6f02ca2b1f147120da6a\n      swap1\n      tag_171\n      swap1\n        /* \"contracts/ReviewManager.sol\":1609:1615  rating */\n      dup7\n      swap1\n        /* \"contracts/ReviewManager.sol\":1617:1624  comment */\n      dup7\n      swap1\n        /* \"contracts/ReviewManager.sol\":1571:1625  RestaurantRated(restaurantId, caller, rating, comment) */\n      tag_172\n      jump\t// in\n    tag_171:\n      mload(0x40)\n      dup1\n      swap2\n      sub\n      swap1\n      log3\n        /* \"contracts/ReviewManager.sol\":892:1633  function rateRestaurant(... */\n      pop\n      pop\n      pop\n      pop\n      jump\t// out\n        /* \"@openzeppelin/contracts-upgradeable/access/OwnableUpgradeable.sol\":3405:3620  function transferOwnership(address newOwner) public virtual onlyOwner {... */\n    tag_63:\n        /* \"@openzeppelin/contracts-upgradeable/access/OwnableUpgradeable.sol\":2334:2347  _checkOwner() */\n      tag_174\n        /* \"@openzeppelin/contracts-upgradeable/access/OwnableUpgradeable.sol\":2334:2345  _checkOwner */\n      tag_101\n        /* \"@openzeppelin/contracts-upgradeable/access/OwnableUpgradeable.sol\":2334:2347  _checkOwner() */\n      jump\t// in\n    tag_174:\n      sub(shl(0xa0, 0x01), 0x01)\n        /* \"@openzeppelin/contracts-upgradeable/access/OwnableUpgradeable.sol\":3489:3511  newOwner == address(0) */\n      dup2\n      and\n        /* \"@openzeppelin/contracts-upgradeable/access/OwnableUpgradeable.sol\":3485:3576  if (newOwner == address(0)) {... */\n      tag_176\n      jumpi\n        /* \"@openzeppelin/contracts-upgradeable/access/OwnableUpgradeable.sol\":3534:3565  OwnableInvalidOwner(address(0)) */\n      mload(0x40)\n      shl(0xe0, 0x1e4fbdf7)\n      dup2\n      mstore\n        /* \"@openzeppelin/contracts-upgradeable/access/OwnableUpgradeable.sol\":3562:3563  0 */\n      0x00\n        /* \"@openzeppelin/contracts-upgradeable/access/OwnableUpgradeable.sol\":3534:3565  OwnableInvalidOwner(address(0)) */\n      0x04\n      dup3\n      add\n        /* \"#utility.yul\":1362:1413   */\n      mstore\n        /* \"#utility.yul\":1335:1353   */\n      0x24\n      add\n        /* \"@openzeppelin/contracts-upgradeable/access/OwnableUpgradeable.sol\":3534:3565  OwnableInvalidOwner(address(0)) */\n      tag_71\n        /* \"#utility.yul\":1216:1419   */\n      jump\n        /* \"@openzeppelin/contracts-upgradeable/access/OwnableUpgradeable.sol\":3485:3576  if (newOwner == address(0)) {... */\n    tag_176:\n        /* \"@openzeppelin/contracts-upgradeable/access/OwnableUpgradeable.sol\":3585:3613  _transferOwnership(newOwner) */\n      tag_178\n        /* \"@openzeppelin/contracts-upgradeable/access/OwnableUpgradeable.sol\":3604:3612  newOwner */\n      dup2\n        /* \"@openzeppelin/contracts-upgradeable/access/OwnableUpgradeable.sol\":3585:3603  _transferOwnership */\n      tag_104\n        /* \"@openzeppelin/contracts-upgradeable/access/OwnableUpgradeable.sol\":3585:3613  _transferOwnership(newOwner) */\n      jump\t// in\n    tag_178:\n        /* \"@openzeppelin/contracts-upgradeable/access/OwnableUpgradeable.sol\":3405:3620  function transferOwnership(address newOwner) public virtual onlyOwner {... */\n      pop\n      jump\t// out\n        /* \"@openzeppelin/contracts-upgradeable/access/OwnableUpgradeable.sol\":2658:2820  function _checkOwner() internal view virtual {... */\n    tag_101:\n        /* \"@openzeppelin/contracts-upgradeable/utils/ContextUpgradeable.sol\":966:976  msg.sender */\n      caller\n        /* \"@openzeppelin/contracts-upgradeable/access/OwnableUpgradeable.sol\":2717:2724  owner() */\n      tag_182\n        /* \"@openzeppelin/contracts-upgradeable/access/OwnableUpgradeable.sol\":1313:1335  OwnableStorageLocation */\n      0x9016d09d72d40fdae2fd8ceac6b6234c7706214fd39c1cd1e609a0528c199300\n        /* \"@openzeppelin/contracts-upgradeable/access/OwnableUpgradeable.sol\":2570:2578  $._owner */\n      sload\n      sub(shl(0xa0, 0x01), 0x01)\n      and\n      swap1\n        /* \"@openzeppelin/contracts-upgradeable/access/OwnableUpgradeable.sol\":2441:2585  function owner() public view virtual returns (address) {... */\n      jump\n        /* \"@openzeppelin/contracts-upgradeable/access/OwnableUpgradeable.sol\":2717:2724  owner() */\n    tag_182:\n      sub(shl(0xa0, 0x01), 0x01)\n        /* \"@openzeppelin/contracts-upgradeable/access/OwnableUpgradeable.sol\":2717:2740  owner() != _msgSender() */\n      and\n      eq\n        /* \"@openzeppelin/contracts-upgradeable/access/OwnableUpgradeable.sol\":2713:2814  if (owner() != _msgSender()) {... */\n      tag_103\n      jumpi\n        /* \"@openzeppelin/contracts-upgradeable/access/OwnableUpgradeable.sol\":2763:2803  OwnableUnauthorizedAccount(_msgSender()) */\n      mload(0x40)\n      shl(0xe0, 0x118cdaa7)\n      dup2\n      mstore\n        /* \"@openzeppelin/contracts-upgradeable/utils/ContextUpgradeable.sol\":966:976  msg.sender */\n      caller\n        /* \"@openzeppelin/contracts-upgradeable/access/OwnableUpgradeable.sol\":2763:2803  OwnableUnauthorizedAccount(_msgSender()) */\n      0x04\n      dup3\n      add\n        /* \"#utility.yul\":1362:1413   */\n      mstore\n        /* \"#utility.yul\":1335:1353   */\n      0x24\n      add\n        /* \"@openzeppelin/contracts-upgradeable/access/OwnableUpgradeable.sol\":2763:2803  OwnableUnauthorizedAccount(_msgSender()) */\n      tag_71\n        /* \"#utility.yul\":1216:1419   */\n      jump\n        /* \"@openzeppelin/contracts-upgradeable/access/OwnableUpgradeable.sol\":3774:4022  function _transferOwnership(address newOwner) internal virtual {... */\n    tag_104:\n        /* \"@openzeppelin/contracts-upgradeable/access/OwnableUpgradeable.sol\":1313:1335  OwnableStorageLocation */\n      0x9016d09d72d40fdae2fd8ceac6b6234c7706214fd39c1cd1e609a0528c199300\n        /* \"@openzeppelin/contracts-upgradeable/access/OwnableUpgradeable.sol\":3923:3931  $._owner */\n      dup1\n      sload\n      not(sub(shl(0xa0, 0x01), 0x01))\n        /* \"@openzeppelin/contracts-upgradeable/access/OwnableUpgradeable.sol\":3941:3960  $._owner = newOwner */\n      dup2\n      and\n      sub(shl(0xa0, 0x01), 0x01)\n      dup5\n      dup2\n      and\n      swap2\n      dup3\n      or\n      dup5\n      sstore\n        /* \"@openzeppelin/contracts-upgradeable/access/OwnableUpgradeable.sol\":3975:4015  OwnershipTransferred(oldOwner, newOwner) */\n      mload(0x40)\n        /* \"@openzeppelin/contracts-upgradeable/access/OwnableUpgradeable.sol\":3923:3931  $._owner */\n      swap3\n      and\n      swap2\n      dup3\n      swap1\n        /* \"@openzeppelin/contracts-upgradeable/access/OwnableUpgradeable.sol\":3975:4015  OwnershipTransferred(oldOwner, newOwner) */\n      0x8be0079c531659141344cd1fd0a4f28419497f9722a3daafe3b4186f6b6457e0\n      swap1\n        /* \"@openzeppelin/contracts-upgradeable/access/OwnableUpgradeable.sol\":3847:3871  OwnableStorage storage $ */\n      0x00\n      swap1\n        /* \"@openzeppelin/contracts-upgradeable/access/OwnableUpgradeable.sol\":3975:4015  OwnershipTransferred(oldOwner, newOwner) */\n      log3\n        /* \"@openzeppelin/contracts-upgradeable/access/OwnableUpgradeable.sol\":3837:4022  {... */\n      pop\n      pop\n        /* \"@openzeppelin/contracts-upgradeable/access/OwnableUpgradeable.sol\":3774:4022  function _transferOwnership(address newOwner) internal virtual {... */\n      pop\n      jump\t// out\n        /* \"@openzeppelin/contracts-upgradeable/access/OwnableUpgradeable.sol\":1847:1974  function __Ownable_init(address initialOwner) internal onlyInitializing {... */\n    tag_131:\n        /* \"@openzeppelin/contracts-upgradeable/proxy/utils/Initializable.sol\":6929:6949  _checkInitializing() */\n      tag_193\n        /* \"@openzeppelin/contracts-upgradeable/proxy/utils/Initializable.sol\":6929:6947  _checkInitializing */\n      tag_194\n        /* \"@openzeppelin/contracts-upgradeable/proxy/utils/Initializable.sol\":6929:6949  _checkInitializing() */\n      jump\t// in\n    tag_193:\n        /* \"@openzeppelin/contracts-upgradeable/access/OwnableUpgradeable.sol\":1929:1967  __Ownable_init_unchained(initialOwner) */\n      tag_178\n        /* \"@openzeppelin/contracts-upgradeable/access/OwnableUpgradeable.sol\":1954:1966  initialOwner */\n      dup2\n        /* \"@openzeppelin/contracts-upgradeable/access/OwnableUpgradeable.sol\":1929:1953  __Ownable_init_unchained */\n      tag_197\n        /* \"@openzeppelin/contracts-upgradeable/access/OwnableUpgradeable.sol\":1929:1967  __Ownable_init_unchained(initialOwner) */\n      jump\t// in\n        /* \"@openzeppelin/contracts-upgradeable/proxy/utils/Initializable.sol\":7082:7223  function _checkInitializing() internal view virtual {... */\n    tag_194:\n        /* \"@openzeppelin/contracts-upgradeable/proxy/utils/Initializable.sol\":3147:3213  0xf0c57e16840df040f15088dc2f81fe391c3923bec73e23a9662efc9c229c6a00 */\n      0xf0c57e16840df040f15088dc2f81fe391c3923bec73e23a9662efc9c229c6a00\n        /* \"@openzeppelin/contracts-upgradeable/proxy/utils/Initializable.sol\":8558:8598  _getInitializableStorage()._initializing */\n      sload\n      shl(0x40, 0x01)\n      swap1\n      div\n      0xff\n      and\n        /* \"@openzeppelin/contracts-upgradeable/proxy/utils/Initializable.sol\":7144:7217  if (!_isInitializing()) {... */\n      tag_103\n      jumpi\n        /* \"@openzeppelin/contracts-upgradeable/proxy/utils/Initializable.sol\":7189:7206  NotInitializing() */\n      mload(0x40)\n      shl(0xe3, 0x1afcd79f)\n      dup2\n      mstore\n      0x04\n      add\n      mload(0x40)\n      dup1\n      swap2\n      sub\n      swap1\n      revert\n        /* \"@openzeppelin/contracts-upgradeable/access/OwnableUpgradeable.sol\":1980:2215  function __Ownable_init_unchained(address initialOwner) internal onlyInitializing {... */\n    tag_197:\n        /* \"@openzeppelin/contracts-upgradeable/proxy/utils/Initializable.sol\":6929:6949  _checkInitializing() */\n      tag_174\n        /* \"@openzeppelin/contracts-upgradeable/proxy/utils/Initializable.sol\":6929:6947  _checkInitializing */\n      tag_194\n        /* \"@openzeppelin/contracts-upgradeable/proxy/utils/Initializable.sol\":6929:6949  _checkInitializing() */\n      jump\t// in\n        /* \"#utility.yul\":14:187   */\n    tag_215:\n        /* \"#utility.yul\":82:102   */\n      dup1\n      calldataload\n      sub(shl(0xa0, 0x01), 0x01)\n        /* \"#utility.yul\":131:162   */\n      dup2\n      and\n        /* \"#utility.yul\":121:163   */\n      dup2\n      eq\n        /* \"#utility.yul\":111:181   */\n      tag_224\n      jumpi\n        /* \"#utility.yul\":177:178   */\n      0x00\n        /* \"#utility.yul\":174:175   */\n      0x00\n        /* \"#utility.yul\":167:179   */\n      revert\n        /* \"#utility.yul\":111:181   */\n    tag_224:\n        /* \"#utility.yul\":14:187   */\n      swap2\n      swap1\n      pop\n      jump\t// out\n        /* \"#utility.yul\":192:378   */\n    tag_18:\n        /* \"#utility.yul\":251:257   */\n      0x00\n        /* \"#utility.yul\":304:306   */\n      0x20\n        /* \"#utility.yul\":292:301   */\n      dup3\n        /* \"#utility.yul\":283:290   */\n      dup5\n        /* \"#utility.yul\":279:302   */\n      sub\n        /* \"#utility.yul\":275:307   */\n      slt\n        /* \"#utility.yul\":272:324   */\n      iszero\n      tag_226\n      jumpi\n        /* \"#utility.yul\":320:321   */\n      0x00\n        /* \"#utility.yul\":317:318   */\n      0x00\n        /* \"#utility.yul\":310:322   */\n      revert\n        /* \"#utility.yul\":272:324   */\n    tag_226:\n        /* \"#utility.yul\":343:372   */\n      tag_227\n        /* \"#utility.yul\":362:371   */\n      dup3\n        /* \"#utility.yul\":343:372   */\n      tag_215\n      jump\t// in\n    tag_227:\n        /* \"#utility.yul\":333:372   */\n      swap4\n        /* \"#utility.yul\":192:378   */\n      swap3\n      pop\n      pop\n      pop\n      jump\t// out\n        /* \"#utility.yul\":606:794   */\n    tag_216:\n        /* \"#utility.yul\":674:694   */\n      dup1\n      calldataload\n      sub(shl(0x80, 0x01), 0x01)\n        /* \"#utility.yul\":723:769   */\n      dup2\n      and\n        /* \"#utility.yul\":713:770   */\n      dup2\n      eq\n        /* \"#utility.yul\":703:788   */\n      tag_224\n      jumpi\n        /* \"#utility.yul\":784:785   */\n      0x00\n        /* \"#utility.yul\":781:782   */\n      0x00\n        /* \"#utility.yul\":774:786   */\n      revert\n        /* \"#utility.yul\":799:1211   */\n    tag_26:\n        /* \"#utility.yul\":884:890   */\n      0x00\n        /* \"#utility.yul\":892:898   */\n      0x00\n        /* \"#utility.yul\":900:906   */\n      0x00\n        /* \"#utility.yul\":953:955   */\n      0x60\n        /* \"#utility.yul\":941:950   */\n      dup5\n        /* \"#utility.yul\":932:939   */\n      dup7\n        /* \"#utility.yul\":928:951   */\n      sub\n        /* \"#utility.yul\":924:956   */\n      slt\n        /* \"#utility.yul\":921:973   */\n      iszero\n      tag_232\n      jumpi\n        /* \"#utility.yul\":969:970   */\n      0x00\n        /* \"#utility.yul\":966:967   */\n      0x00\n        /* \"#utility.yul\":959:971   */\n      revert\n        /* \"#utility.yul\":921:973   */\n    tag_232:\n        /* \"#utility.yul\":992:1021   */\n      tag_233\n        /* \"#utility.yul\":1011:1020   */\n      dup5\n        /* \"#utility.yul\":992:1021   */\n      tag_215\n      jump\t// in\n    tag_233:\n        /* \"#utility.yul\":982:1021   */\n      swap3\n      pop\n        /* \"#utility.yul\":1071:1073   */\n      0x20\n        /* \"#utility.yul\":1060:1069   */\n      dup5\n        /* \"#utility.yul\":1056:1074   */\n      add\n        /* \"#utility.yul\":1043:1075   */\n      calldataload\n        /* \"#utility.yul\":1104:1105   */\n      0x05\n        /* \"#utility.yul\":1097:1102   */\n      dup2\n        /* \"#utility.yul\":1094:1106   */\n      lt\n        /* \"#utility.yul\":1084:1124   */\n      tag_234\n      jumpi\n        /* \"#utility.yul\":1120:1121   */\n      0x00\n        /* \"#utility.yul\":1117:1118   */\n      0x00\n        /* \"#utility.yul\":1110:1122   */\n      revert\n        /* \"#utility.yul\":1084:1124   */\n    tag_234:\n        /* \"#utility.yul\":1143:1148   */\n      swap2\n      pop\n        /* \"#utility.yul\":1167:1205   */\n      tag_235\n        /* \"#utility.yul\":1201:1203   */\n      0x40\n        /* \"#utility.yul\":1186:1204   */\n      dup6\n      add\n        /* \"#utility.yul\":1167:1205   */\n      tag_216\n      jump\t// in\n    tag_235:\n        /* \"#utility.yul\":1157:1205   */\n      swap1\n      pop\n        /* \"#utility.yul\":799:1211   */\n      swap3\n      pop\n      swap3\n      pop\n      swap3\n      jump\t// out\n        /* \"#utility.yul\":1424:1551   */\n    tag_67:\n        /* \"#utility.yul\":1485:1495   */\n      0x4e487b71\n        /* \"#utility.yul\":1480:1483   */\n      0xe0\n        /* \"#utility.yul\":1476:1496   */\n      shl\n        /* \"#utility.yul\":1473:1474   */\n      0x00\n        /* \"#utility.yul\":1466:1497   */\n      mstore\n        /* \"#utility.yul\":1516:1520   */\n      0x21\n        /* \"#utility.yul\":1513:1514   */\n      0x04\n        /* \"#utility.yul\":1506:1521   */\n      mstore\n        /* \"#utility.yul\":1540:1544   */\n      0x24\n        /* \"#utility.yul\":1537:1538   */\n      0x00\n        /* \"#utility.yul\":1530:1545   */\n      revert\n        /* \"#utility.yul\":1556:1892   */\n    tag_41:\n        /* \"#utility.yul\":1696:1698   */\n      0x20\n        /* \"#utility.yul\":1681:1699   */\n      dup2\n      add\n        /* \"#utility.yul\":1729:1730   */\n      0x05\n        /* \"#utility.yul\":1718:1731   */\n      dup4\n      lt\n        /* \"#utility.yul\":1708:1852   */\n      tag_239\n      jumpi\n        /* \"#utility.yul\":1774:1784   */\n      0x4e487b71\n        /* \"#utility.yul\":1769:1772   */\n      0xe0\n        /* \"#utility.yul\":1765:1785   */\n      shl\n        /* \"#utility.yul\":1762:1763   */\n      0x00\n        /* \"#utility.yul\":1755:1786   */\n      mstore\n        /* \"#utility.yul\":1809:1813   */\n      0x21\n        /* \"#utility.yul\":1806:1807   */\n      0x04\n        /* \"#utility.yul\":1799:1814   */\n      mstore\n        /* \"#utility.yul\":1837:1841   */\n      0x24\n        /* \"#utility.yul\":1834:1835   */\n      0x00\n        /* \"#utility.yul\":1827:1842   */\n      revert\n        /* \"#utility.yul\":1708:1852   */\n    tag_239:\n        /* \"#utility.yul\":1861:1886   */\n      swap2\n      swap1\n      mstore\n        /* \"#utility.yul\":1556:1892   */\n      swap1\n      jump\t// out\n        /* \"#utility.yul\":1897:2083   */\n    tag_44:\n        /* \"#utility.yul\":1956:1962   */\n      0x00\n        /* \"#utility.yul\":2009:2011   */\n      0x20\n        /* \"#utility.yul\":1997:2006   */\n      dup3\n        /* \"#utility.yul\":1988:1995   */\n      dup5\n        /* \"#utility.yul\":1984:2007   */\n      sub\n        /* \"#utility.yul\":1980:2012   */\n      slt\n        /* \"#utility.yul\":1977:2029   */\n      iszero\n      tag_241\n      jumpi\n        /* \"#utility.yul\":2025:2026   */\n      0x00\n        /* \"#utility.yul\":2022:2023   */\n      0x00\n        /* \"#utility.yul\":2015:2027   */\n      revert\n        /* \"#utility.yul\":1977:2029   */\n    tag_241:\n        /* \"#utility.yul\":2048:2077   */\n      tag_227\n        /* \"#utility.yul\":2067:2076   */\n      dup3\n        /* \"#utility.yul\":2048:2077   */\n      tag_216\n      jump\t// in\n        /* \"#utility.yul\":2088:2377   */\n    tag_217:\n        /* \"#utility.yul\":2130:2133   */\n      0x00\n        /* \"#utility.yul\":2168:2173   */\n      dup2\n        /* \"#utility.yul\":2162:2174   */\n      mload\n        /* \"#utility.yul\":2195:2201   */\n      dup1\n        /* \"#utility.yul\":2190:2193   */\n      dup5\n        /* \"#utility.yul\":2183:2202   */\n      mstore\n        /* \"#utility.yul\":2251:2257   */\n      dup1\n        /* \"#utility.yul\":2244:2248   */\n      0x20\n        /* \"#utility.yul\":2237:2242   */\n      dup5\n        /* \"#utility.yul\":2233:2249   */\n      add\n        /* \"#utility.yul\":2226:2230   */\n      0x20\n        /* \"#utility.yul\":2221:2224   */\n      dup7\n        /* \"#utility.yul\":2217:2231   */\n      add\n        /* \"#utility.yul\":2211:2258   */\n      mcopy\n        /* \"#utility.yul\":2303:2304   */\n      0x00\n        /* \"#utility.yul\":2296:2300   */\n      0x20\n        /* \"#utility.yul\":2287:2293   */\n      dup3\n        /* \"#utility.yul\":2282:2285   */\n      dup7\n        /* \"#utility.yul\":2278:2294   */\n      add\n        /* \"#utility.yul\":2274:2301   */\n      add\n        /* \"#utility.yul\":2267:2305   */\n      mstore\n        /* \"#utility.yul\":2366:2370   */\n      0x20\n        /* \"#utility.yul\":2359:2361   */\n      0x1f\n        /* \"#utility.yul\":2355:2362   */\n      not\n        /* \"#utility.yul\":2350:2352   */\n      0x1f\n        /* \"#utility.yul\":2342:2348   */\n      dup4\n        /* \"#utility.yul\":2338:2353   */\n      add\n        /* \"#utility.yul\":2334:2363   */\n      and\n        /* \"#utility.yul\":2329:2332   */\n      dup6\n        /* \"#utility.yul\":2325:2364   */\n      add\n        /* \"#utility.yul\":2321:2371   */\n      add\n        /* \"#utility.yul\":2314:2371   */\n      swap2\n      pop\n      pop\n        /* \"#utility.yul\":2088:2377   */\n      swap3\n      swap2\n      pop\n      pop\n      jump\t// out\n        /* \"#utility.yul\":2382:3695   */\n    tag_47:\n        /* \"#utility.yul\":2570:2574   */\n      0x00\n        /* \"#utility.yul\":2618:2620   */\n      0x20\n        /* \"#utility.yul\":2607:2616   */\n      dup3\n        /* \"#utility.yul\":2603:2621   */\n      add\n        /* \"#utility.yul\":2648:2650   */\n      0x20\n        /* \"#utility.yul\":2637:2646   */\n      dup4\n        /* \"#utility.yul\":2630:2651   */\n      mstore\n        /* \"#utility.yul\":2671:2677   */\n      dup1\n        /* \"#utility.yul\":2706:2712   */\n      dup5\n        /* \"#utility.yul\":2700:2713   */\n      mload\n        /* \"#utility.yul\":2737:2743   */\n      dup1\n        /* \"#utility.yul\":2729:2735   */\n      dup4\n        /* \"#utility.yul\":2722:2744   */\n      mstore\n        /* \"#utility.yul\":2775:2777   */\n      0x40\n        /* \"#utility.yul\":2764:2773   */\n      dup6\n        /* \"#utility.yul\":2760:2778   */\n      add\n        /* \"#utility.yul\":2753:2778   */\n      swap2\n      pop\n        /* \"#utility.yul\":2837:2839   */\n      0x40\n        /* \"#utility.yul\":2827:2833   */\n      dup2\n        /* \"#utility.yul\":2824:2825   */\n      0x05\n        /* \"#utility.yul\":2820:2834   */\n      shl\n        /* \"#utility.yul\":2809:2818   */\n      dup7\n        /* \"#utility.yul\":2805:2835   */\n      add\n        /* \"#utility.yul\":2801:2840   */\n      add\n        /* \"#utility.yul\":2787:2840   */\n      swap3\n      pop\n        /* \"#utility.yul\":2875:2877   */\n      0x20\n        /* \"#utility.yul\":2867:2873   */\n      dup7\n        /* \"#utility.yul\":2863:2878   */\n      add\n        /* \"#utility.yul\":2896:2897   */\n      0x00\n        /* \"#utility.yul\":2906:3666   */\n    tag_245:\n        /* \"#utility.yul\":2920:2926   */\n      dup3\n        /* \"#utility.yul\":2917:2918   */\n      dup2\n        /* \"#utility.yul\":2914:2927   */\n      lt\n        /* \"#utility.yul\":2906:3666   */\n      iszero\n      tag_247\n      jumpi\n        /* \"#utility.yul\":3013:3015   */\n      0x3f\n        /* \"#utility.yul\":3009:3016   */\n      not\n        /* \"#utility.yul\":2997:3006   */\n      dup8\n        /* \"#utility.yul\":2989:2995   */\n      dup7\n        /* \"#utility.yul\":2985:3007   */\n      sub\n        /* \"#utility.yul\":2981:3017   */\n      add\n        /* \"#utility.yul\":2976:2979   */\n      dup5\n        /* \"#utility.yul\":2969:3018   */\n      mstore\n        /* \"#utility.yul\":3047:3053   */\n      dup2\n        /* \"#utility.yul\":3041:3054   */\n      mload\n        /* \"#utility.yul\":3114:3115   */\n      0x01\n        /* \"#utility.yul\":3110:3111   */\n      dup1\n        /* \"#utility.yul\":3105:3108   */\n      0xa0\n        /* \"#utility.yul\":3101:3112   */\n      shl\n        /* \"#utility.yul\":3097:3116   */\n      sub\n        /* \"#utility.yul\":3092:3094   */\n      dup2\n        /* \"#utility.yul\":3086:3095   */\n      mload\n        /* \"#utility.yul\":3082:3117   */\n      and\n        /* \"#utility.yul\":3074:3080   */\n      dup7\n        /* \"#utility.yul\":3067:3118   */\n      mstore\n      sub(shl(0x80, 0x01), 0x01)\n        /* \"#utility.yul\":3173:3175   */\n      0x20\n        /* \"#utility.yul\":3169:3171   */\n      dup3\n        /* \"#utility.yul\":3165:3176   */\n      add\n        /* \"#utility.yul\":3159:3177   */\n      mload\n        /* \"#utility.yul\":3155:3214   */\n      and\n        /* \"#utility.yul\":3150:3152   */\n      0x20\n        /* \"#utility.yul\":3142:3148   */\n      dup8\n        /* \"#utility.yul\":3138:3153   */\n      add\n        /* \"#utility.yul\":3131:3215   */\n      mstore\n        /* \"#utility.yul\":3276:3280   */\n      0xff\n        /* \"#utility.yul\":3270:3272   */\n      0x40\n        /* \"#utility.yul\":3266:3268   */\n      dup3\n        /* \"#utility.yul\":3262:3273   */\n      add\n        /* \"#utility.yul\":3256:3274   */\n      mload\n        /* \"#utility.yul\":3252:3281   */\n      and\n        /* \"#utility.yul\":3247:3249   */\n      0x40\n        /* \"#utility.yul\":3239:3245   */\n      dup8\n        /* \"#utility.yul\":3235:3250   */\n      add\n        /* \"#utility.yul\":3228:3282   */\n      mstore\n        /* \"#utility.yul\":3329:3333   */\n      0x60\n        /* \"#utility.yul\":3325:3327   */\n      dup2\n        /* \"#utility.yul\":3321:3334   */\n      add\n        /* \"#utility.yul\":3315:3335   */\n      mload\n        /* \"#utility.yul\":3374:3378   */\n      0xa0\n        /* \"#utility.yul\":3367:3371   */\n      0x60\n        /* \"#utility.yul\":3359:3365   */\n      dup9\n        /* \"#utility.yul\":3355:3372   */\n      add\n        /* \"#utility.yul\":3348:3379   */\n      mstore\n        /* \"#utility.yul\":3406:3456   */\n      tag_248\n        /* \"#utility.yul\":3450:3454   */\n      0xa0\n        /* \"#utility.yul\":3442:3448   */\n      dup9\n        /* \"#utility.yul\":3438:3455   */\n      add\n        /* \"#utility.yul\":3424:3436   */\n      dup3\n        /* \"#utility.yul\":3406:3456   */\n      tag_217\n      jump\t// in\n    tag_248:\n        /* \"#utility.yul\":3513:3517   */\n      0x80\n        /* \"#utility.yul\":3505:3518   */\n      swap3\n      dup4\n      add\n        /* \"#utility.yul\":3499:3519   */\n      mload\n      sub(shl(0x80, 0x01), 0x01)\n        /* \"#utility.yul\":3495:3556   */\n      and\n        /* \"#utility.yul\":3476:3493   */\n      swap8\n      swap1\n      swap3\n      add\n        /* \"#utility.yul\":3469:3557   */\n      swap7\n      swap1\n      swap7\n      mstore\n        /* \"#utility.yul\":3392:3456   */\n      swap5\n      pop\n        /* \"#utility.yul\":3621:3623   */\n      0x20\n        /* \"#utility.yul\":3644:3656   */\n      swap4\n      dup5\n      add\n      swap4\n        /* \"#utility.yul\":3609:3624   */\n      swap2\n      swap1\n      swap2\n      add\n      swap1\n        /* \"#utility.yul\":2942:2943   */\n      0x01\n        /* \"#utility.yul\":2935:2944   */\n      add\n        /* \"#utility.yul\":2906:3666   */\n      jump(tag_245)\n    tag_247:\n      pop\n        /* \"#utility.yul\":3683:3689   */\n      swap3\n      swap7\n        /* \"#utility.yul\":2382:3695   */\n      swap6\n      pop\n      pop\n      pop\n      pop\n      pop\n      pop\n      jump\t// out\n        /* \"#utility.yul\":3700:3954   */\n    tag_53:\n        /* \"#utility.yul\":3768:3774   */\n      0x00\n        /* \"#utility.yul\":3776:3782   */\n      0x00\n        /* \"#utility.yul\":3829:3831   */\n      0x40\n        /* \"#utility.yul\":3817:3826   */\n      dup4\n        /* \"#utility.yul\":3808:3815   */\n      dup6\n        /* \"#utility.yul\":3804:3827   */\n      sub\n        /* \"#utility.yul\":3800:3832   */\n      slt\n        /* \"#utility.yul\":3797:3849   */\n      iszero\n      tag_250\n      jumpi\n        /* \"#utility.yul\":3845:3846   */\n      0x00\n        /* \"#utility.yul\":3842:3843   */\n      0x00\n        /* \"#utility.yul\":3835:3847   */\n      revert\n        /* \"#utility.yul\":3797:3849   */\n    tag_250:\n        /* \"#utility.yul\":3868:3897   */\n      tag_251\n        /* \"#utility.yul\":3887:3896   */\n      dup4\n        /* \"#utility.yul\":3868:3897   */\n      tag_216\n      jump\t// in\n    tag_251:\n        /* \"#utility.yul\":3858:3897   */\n      swap5\n        /* \"#utility.yul\":3944:3946   */\n      0x20\n        /* \"#utility.yul\":3929:3947   */\n      swap4\n      swap1\n      swap4\n      add\n        /* \"#utility.yul\":3916:3948   */\n      calldataload\n      swap4\n      pop\n      pop\n      pop\n        /* \"#utility.yul\":3700:3954   */\n      jump\t// out\n        /* \"#utility.yul\":3959:4581   */\n    tag_56:\n      sub(shl(0xa0, 0x01), 0x01)\n        /* \"#utility.yul\":4216:4248   */\n      dup7\n      and\n        /* \"#utility.yul\":4198:4249   */\n      dup2\n      mstore\n      sub(shl(0x80, 0x01), 0x01)\n        /* \"#utility.yul\":4285:4332   */\n      dup6\n      and\n        /* \"#utility.yul\":4280:4282   */\n      0x20\n        /* \"#utility.yul\":4265:4283   */\n      dup3\n      add\n        /* \"#utility.yul\":4258:4333   */\n      mstore\n        /* \"#utility.yul\":4381:4385   */\n      0xff\n        /* \"#utility.yul\":4369:4386   */\n      dup5\n      and\n        /* \"#utility.yul\":4364:4366   */\n      0x40\n        /* \"#utility.yul\":4349:4367   */\n      dup3\n      add\n        /* \"#utility.yul\":4342:4387   */\n      mstore\n        /* \"#utility.yul\":4236:4239   */\n      0xa0\n        /* \"#utility.yul\":4418:4420   */\n      0x60\n        /* \"#utility.yul\":4403:4421   */\n      dup3\n      add\n        /* \"#utility.yul\":4396:4427   */\n      dup2\n      swap1\n      mstore\n      0x00\n      swap1\n        /* \"#utility.yul\":4444:4490   */\n      tag_253\n      swap1\n        /* \"#utility.yul\":4470:4489   */\n      dup4\n      add\n        /* \"#utility.yul\":4462:4468   */\n      dup6\n        /* \"#utility.yul\":4444:4490   */\n      tag_217\n      jump\t// in\n    tag_253:\n        /* \"#utility.yul\":4436:4490   */\n      swap1\n      pop\n      sub(shl(0x80, 0x01), 0x01)\n        /* \"#utility.yul\":4531:4537   */\n      dup4\n        /* \"#utility.yul\":4527:4574   */\n      and\n        /* \"#utility.yul\":4521:4524   */\n      0x80\n        /* \"#utility.yul\":4510:4519   */\n      dup4\n        /* \"#utility.yul\":4506:4525   */\n      add\n        /* \"#utility.yul\":4499:4575   */\n      mstore\n        /* \"#utility.yul\":3959:4581   */\n      swap7\n      swap6\n      pop\n      pop\n      pop\n      pop\n      pop\n      pop\n      jump\t// out\n        /* \"#utility.yul\":4586:4713   */\n    tag_218:\n        /* \"#utility.yul\":4647:4657   */\n      0x4e487b71\n        /* \"#utility.yul\":4642:4645   */\n      0xe0\n        /* \"#utility.yul\":4638:4658   */\n      shl\n        /* \"#utility.yul\":4635:4636   */\n      0x00\n        /* \"#utility.yul\":4628:4659   */\n      mstore\n        /* \"#utility.yul\":4678:4682   */\n      0x41\n        /* \"#utility.yul\":4675:4676   */\n      0x04\n        /* \"#utility.yul\":4668:4683   */\n      mstore\n        /* \"#utility.yul\":4702:4706   */\n      0x24\n        /* \"#utility.yul\":4699:4700   */\n      0x00\n        /* \"#utility.yul\":4692:4707   */\n      revert\n        /* \"#utility.yul\":4718:5969   */\n    tag_59:\n        /* \"#utility.yul\":4812:4818   */\n      0x00\n        /* \"#utility.yul\":4820:4826   */\n      0x00\n        /* \"#utility.yul\":4828:4834   */\n      0x00\n        /* \"#utility.yul\":4836:4842   */\n      0x00\n        /* \"#utility.yul\":4889:4892   */\n      0x80\n        /* \"#utility.yul\":4877:4886   */\n      dup6\n        /* \"#utility.yul\":4868:4875   */\n      dup8\n        /* \"#utility.yul\":4864:4887   */\n      sub\n        /* \"#utility.yul\":4860:4893   */\n      slt\n        /* \"#utility.yul\":4857:4910   */\n      iszero\n      tag_256\n      jumpi\n        /* \"#utility.yul\":4906:4907   */\n      0x00\n        /* \"#utility.yul\":4903:4904   */\n      0x00\n        /* \"#utility.yul\":4896:4908   */\n      revert\n        /* \"#utility.yul\":4857:4910   */\n    tag_256:\n        /* \"#utility.yul\":4929:4958   */\n      tag_257\n        /* \"#utility.yul\":4948:4957   */\n      dup6\n        /* \"#utility.yul\":4929:4958   */\n      tag_215\n      jump\t// in\n    tag_257:\n        /* \"#utility.yul\":4919:4958   */\n      swap4\n      pop\n        /* \"#utility.yul\":4977:5015   */\n      tag_258\n        /* \"#utility.yul\":5011:5013   */\n      0x20\n        /* \"#utility.yul\":5000:5009   */\n      dup7\n        /* \"#utility.yul\":4996:5014   */\n      add\n        /* \"#utility.yul\":4977:5015   */\n      tag_216\n      jump\t// in\n    tag_258:\n        /* \"#utility.yul\":4967:5015   */\n      swap3\n      pop\n        /* \"#utility.yul\":5065:5067   */\n      0x40\n        /* \"#utility.yul\":5054:5063   */\n      dup6\n        /* \"#utility.yul\":5050:5068   */\n      add\n        /* \"#utility.yul\":5037:5069   */\n      calldataload\n        /* \"#utility.yul\":5109:5113   */\n      0xff\n        /* \"#utility.yul\":5102:5107   */\n      dup2\n        /* \"#utility.yul\":5098:5114   */\n      and\n        /* \"#utility.yul\":5091:5096   */\n      dup2\n        /* \"#utility.yul\":5088:5115   */\n      eq\n        /* \"#utility.yul\":5078:5133   */\n      tag_259\n      jumpi\n        /* \"#utility.yul\":5129:5130   */\n      0x00\n        /* \"#utility.yul\":5126:5127   */\n      0x00\n        /* \"#utility.yul\":5119:5131   */\n      revert\n        /* \"#utility.yul\":5078:5133   */\n    tag_259:\n        /* \"#utility.yul\":5152:5157   */\n      swap2\n      pop\n        /* \"#utility.yul\":5208:5210   */\n      0x60\n        /* \"#utility.yul\":5193:5211   */\n      dup6\n      add\n        /* \"#utility.yul\":5180:5212   */\n      calldataload\n        /* \"#utility.yul\":5235:5253   */\n      0xffffffffffffffff\n        /* \"#utility.yul\":5224:5254   */\n      dup2\n      gt\n        /* \"#utility.yul\":5221:5271   */\n      iszero\n      tag_260\n      jumpi\n        /* \"#utility.yul\":5267:5268   */\n      0x00\n        /* \"#utility.yul\":5264:5265   */\n      0x00\n        /* \"#utility.yul\":5257:5269   */\n      revert\n        /* \"#utility.yul\":5221:5271   */\n    tag_260:\n        /* \"#utility.yul\":5290:5312   */\n      dup6\n      add\n        /* \"#utility.yul\":5343:5347   */\n      0x1f\n        /* \"#utility.yul\":5335:5348   */\n      dup2\n      add\n        /* \"#utility.yul\":5331:5358   */\n      dup8\n      sgt\n        /* \"#utility.yul\":5321:5376   */\n      tag_261\n      jumpi\n        /* \"#utility.yul\":5372:5373   */\n      0x00\n        /* \"#utility.yul\":5369:5370   */\n      0x00\n        /* \"#utility.yul\":5362:5374   */\n      revert\n        /* \"#utility.yul\":5321:5376   */\n    tag_261:\n        /* \"#utility.yul\":5412:5414   */\n      dup1\n        /* \"#utility.yul\":5399:5415   */\n      calldataload\n        /* \"#utility.yul\":5438:5456   */\n      0xffffffffffffffff\n        /* \"#utility.yul\":5430:5436   */\n      dup2\n        /* \"#utility.yul\":5427:5457   */\n      gt\n        /* \"#utility.yul\":5424:5480   */\n      iszero\n      tag_263\n      jumpi\n        /* \"#utility.yul\":5460:5478   */\n      tag_263\n      tag_218\n      jump\t// in\n    tag_263:\n        /* \"#utility.yul\":5509:5511   */\n      0x40\n        /* \"#utility.yul\":5503:5512   */\n      mload\n        /* \"#utility.yul\":5601:5603   */\n      0x1f\n        /* \"#utility.yul\":5563:5580   */\n      dup3\n      add\n      not(0x1f)\n        /* \"#utility.yul\":5559:5590   */\n      swap1\n      dup2\n      and\n        /* \"#utility.yul\":5592:5594   */\n      0x3f\n        /* \"#utility.yul\":5555:5595   */\n      add\n        /* \"#utility.yul\":5551:5605   */\n      and\n        /* \"#utility.yul\":5539:5606   */\n      dup2\n      add\n        /* \"#utility.yul\":5636:5654   */\n      0xffffffffffffffff\n        /* \"#utility.yul\":5621:5655   */\n      dup2\n      gt\n        /* \"#utility.yul\":5657:5679   */\n      dup3\n      dup3\n      lt\n        /* \"#utility.yul\":5618:5680   */\n      or\n        /* \"#utility.yul\":5615:5703   */\n      iszero\n      tag_265\n      jumpi\n        /* \"#utility.yul\":5683:5701   */\n      tag_265\n      tag_218\n      jump\t// in\n    tag_265:\n        /* \"#utility.yul\":5719:5721   */\n      0x40\n        /* \"#utility.yul\":5712:5734   */\n      mstore\n        /* \"#utility.yul\":5743:5765   */\n      dup2\n      dup2\n      mstore\n        /* \"#utility.yul\":5784:5799   */\n      dup3\n      dup3\n      add\n        /* \"#utility.yul\":5801:5803   */\n      0x20\n        /* \"#utility.yul\":5780:5804   */\n      add\n        /* \"#utility.yul\":5777:5814   */\n      dup10\n      lt\n        /* \"#utility.yul\":5774:5831   */\n      iszero\n      tag_266\n      jumpi\n        /* \"#utility.yul\":5827:5828   */\n      0x00\n        /* \"#utility.yul\":5824:5825   */\n      0x00\n        /* \"#utility.yul\":5817:5829   */\n      revert\n        /* \"#utility.yul\":5774:5831   */\n    tag_266:\n        /* \"#utility.yul\":5883:5889   */\n      dup2\n        /* \"#utility.yul\":5878:5880   */\n      0x20\n        /* \"#utility.yul\":5874:5876   */\n      dup5\n        /* \"#utility.yul\":5870:5881   */\n      add\n        /* \"#utility.yul\":5865:5867   */\n      0x20\n        /* \"#utility.yul\":5857:5863   */\n      dup4\n        /* \"#utility.yul\":5853:5868   */\n      add\n        /* \"#utility.yul\":5840:5890   */\n      calldatacopy\n        /* \"#utility.yul\":5936:5937   */\n      0x00\n        /* \"#utility.yul\":5931:5933   */\n      0x20\n        /* \"#utility.yul\":5922:5928   */\n      dup4\n        /* \"#utility.yul\":5914:5920   */\n      dup4\n        /* \"#utility.yul\":5910:5929   */\n      add\n        /* \"#utility.yul\":5906:5934   */\n      add\n        /* \"#utility.yul\":5899:5938   */\n      mstore\n        /* \"#utility.yul\":5957:5963   */\n      dup1\n        /* \"#utility.yul\":5947:5963   */\n      swap4\n      pop\n      pop\n      pop\n      pop\n        /* \"#utility.yul\":4718:5969   */\n      swap3\n      swap6\n      swap2\n      swap5\n      pop\n      swap3\n      pop\n      jump\t// out\n        /* \"#utility.yul\":7012:7392   */\n    tag_113:\n        /* \"#utility.yul\":7091:7092   */\n      0x01\n        /* \"#utility.yul\":7087:7099   */\n      dup2\n      dup2\n      shr\n      swap1\n        /* \"#utility.yul\":7134:7146   */\n      dup3\n      and\n      dup1\n        /* \"#utility.yul\":7155:7216   */\n      tag_271\n      jumpi\n        /* \"#utility.yul\":7209:7213   */\n      0x7f\n        /* \"#utility.yul\":7201:7207   */\n      dup3\n        /* \"#utility.yul\":7197:7214   */\n      and\n        /* \"#utility.yul\":7187:7214   */\n      swap2\n      pop\n        /* \"#utility.yul\":7155:7216   */\n    tag_271:\n        /* \"#utility.yul\":7262:7264   */\n      0x20\n        /* \"#utility.yul\":7254:7260   */\n      dup3\n        /* \"#utility.yul\":7251:7265   */\n      lt\n        /* \"#utility.yul\":7231:7249   */\n      dup2\n        /* \"#utility.yul\":7228:7266   */\n      sub\n        /* \"#utility.yul\":7225:7386   */\n      tag_272\n      jumpi\n        /* \"#utility.yul\":7308:7318   */\n      0x4e487b71\n        /* \"#utility.yul\":7303:7306   */\n      0xe0\n        /* \"#utility.yul\":7299:7319   */\n      shl\n        /* \"#utility.yul\":7296:7297   */\n      0x00\n        /* \"#utility.yul\":7289:7320   */\n      mstore\n        /* \"#utility.yul\":7343:7347   */\n      0x22\n        /* \"#utility.yul\":7340:7341   */\n      0x04\n        /* \"#utility.yul\":7333:7348   */\n      mstore\n        /* \"#utility.yul\":7371:7375   */\n      0x24\n        /* \"#utility.yul\":7368:7369   */\n      0x00\n        /* \"#utility.yul\":7361:7376   */\n      revert\n        /* \"#utility.yul\":7225:7386   */\n    tag_272:\n      pop\n        /* \"#utility.yul\":7012:7392   */\n      swap2\n      swap1\n      pop\n      jump\t// out\n        /* \"#utility.yul\":8655:8932   */\n    tag_160:\n        /* \"#utility.yul\":8722:8728   */\n      0x00\n        /* \"#utility.yul\":8775:8777   */\n      0x20\n        /* \"#utility.yul\":8763:8772   */\n      dup3\n        /* \"#utility.yul\":8754:8761   */\n      dup5\n        /* \"#utility.yul\":8750:8773   */\n      sub\n        /* \"#utility.yul\":8746:8778   */\n      slt\n        /* \"#utility.yul\":8743:8795   */\n      iszero\n      tag_278\n      jumpi\n        /* \"#utility.yul\":8791:8792   */\n      0x00\n        /* \"#utility.yul\":8788:8789   */\n      0x00\n        /* \"#utility.yul\":8781:8793   */\n      revert\n        /* \"#utility.yul\":8743:8795   */\n    tag_278:\n        /* \"#utility.yul\":8823:8832   */\n      dup2\n        /* \"#utility.yul\":8817:8833   */\n      mload\n        /* \"#utility.yul\":8876:8881   */\n      dup1\n        /* \"#utility.yul\":8869:8882   */\n      iszero\n        /* \"#utility.yul\":8862:8883   */\n      iszero\n        /* \"#utility.yul\":8855:8860   */\n      dup2\n        /* \"#utility.yul\":8852:8884   */\n      eq\n        /* \"#utility.yul\":8842:8902   */\n      tag_227\n      jumpi\n        /* \"#utility.yul\":8898:8899   */\n      0x00\n        /* \"#utility.yul\":8895:8896   */\n      0x00\n        /* \"#utility.yul\":8888:8900   */\n      revert\n        /* \"#utility.yul\":9759:10277   */\n    tag_220:\n        /* \"#utility.yul\":9861:9863   */\n      0x1f\n        /* \"#utility.yul\":9856:9859   */\n      dup3\n        /* \"#utility.yul\":9853:9864   */\n      gt\n        /* \"#utility.yul\":9850:10271   */\n      iszero\n      tag_284\n      jumpi\n        /* \"#utility.yul\":9897:9902   */\n      dup1\n        /* \"#utility.yul\":9894:9895   */\n      0x00\n        /* \"#utility.yul\":9887:9903   */\n      mstore\n        /* \"#utility.yul\":9941:9945   */\n      0x20\n        /* \"#utility.yul\":9938:9939   */\n      0x00\n        /* \"#utility.yul\":9928:9946   */\n      keccak256\n        /* \"#utility.yul\":10011:10013   */\n      0x1f\n        /* \"#utility.yul\":9999:10009   */\n      dup5\n        /* \"#utility.yul\":9995:10014   */\n      add\n        /* \"#utility.yul\":9992:9993   */\n      0x05\n        /* \"#utility.yul\":9988:10015   */\n      shr\n        /* \"#utility.yul\":9982:9986   */\n      dup2\n        /* \"#utility.yul\":9978:10016   */\n      add\n        /* \"#utility.yul\":10047:10051   */\n      0x20\n        /* \"#utility.yul\":10035:10045   */\n      dup6\n        /* \"#utility.yul\":10032:10052   */\n      lt\n        /* \"#utility.yul\":10029:10076   */\n      iszero\n      tag_285\n      jumpi\n      pop\n        /* \"#utility.yul\":10070:10074   */\n      dup1\n        /* \"#utility.yul\":10029:10076   */\n    tag_285:\n        /* \"#utility.yul\":10125:10127   */\n      0x1f\n        /* \"#utility.yul\":10120:10123   */\n      dup5\n        /* \"#utility.yul\":10116:10128   */\n      add\n        /* \"#utility.yul\":10113:10114   */\n      0x05\n        /* \"#utility.yul\":10109:10129   */\n      shr\n        /* \"#utility.yul\":10103:10107   */\n      dup3\n        /* \"#utility.yul\":10099:10130   */\n      add\n        /* \"#utility.yul\":10089:10130   */\n      swap2\n      pop\n        /* \"#utility.yul\":10180:10261   */\n    tag_286:\n        /* \"#utility.yul\":10198:10200   */\n      dup2\n        /* \"#utility.yul\":10191:10196   */\n      dup2\n        /* \"#utility.yul\":10188:10201   */\n      lt\n        /* \"#utility.yul\":10180:10261   */\n      iszero\n      tag_288\n      jumpi\n        /* \"#utility.yul\":10257:10258   */\n      0x00\n        /* \"#utility.yul\":10243:10259   */\n      dup2\n      sstore\n        /* \"#utility.yul\":10224:10225   */\n      0x01\n        /* \"#utility.yul\":10213:10226   */\n      add\n        /* \"#utility.yul\":10180:10261   */\n      jump(tag_286)\n    tag_288:\n        /* \"#utility.yul\":10184:10187   */\n      pop\n      pop\n        /* \"#utility.yul\":9850:10271   */\n    tag_284:\n        /* \"#utility.yul\":9759:10277   */\n      pop\n      pop\n      pop\n      jump\t// out\n        /* \"#utility.yul\":10453:11752   */\n    tag_170:\n        /* \"#utility.yul\":10579:10582   */\n      dup2\n        /* \"#utility.yul\":10573:10583   */\n      mload\n        /* \"#utility.yul\":10606:10624   */\n      0xffffffffffffffff\n        /* \"#utility.yul\":10598:10604   */\n      dup2\n        /* \"#utility.yul\":10595:10625   */\n      gt\n        /* \"#utility.yul\":10592:10648   */\n      iszero\n      tag_292\n      jumpi\n        /* \"#utility.yul\":10628:10646   */\n      tag_292\n      tag_218\n      jump\t// in\n    tag_292:\n        /* \"#utility.yul\":10657:10754   */\n      tag_293\n        /* \"#utility.yul\":10747:10753   */\n      dup2\n        /* \"#utility.yul\":10707:10745   */\n      tag_294\n        /* \"#utility.yul\":10739:10743   */\n      dup5\n        /* \"#utility.yul\":10733:10744   */\n      sload\n        /* \"#utility.yul\":10707:10745   */\n      tag_113\n      jump\t// in\n    tag_294:\n        /* \"#utility.yul\":10701:10705   */\n      dup5\n        /* \"#utility.yul\":10657:10754   */\n      tag_220\n      jump\t// in\n    tag_293:\n        /* \"#utility.yul\":10803:10807   */\n      0x20\n        /* \"#utility.yul\":10834:10836   */\n      0x1f\n        /* \"#utility.yul\":10823:10837   */\n      dup3\n      gt\n        /* \"#utility.yul\":10851:10852   */\n      0x01\n        /* \"#utility.yul\":10846:11495   */\n      dup2\n      eq\n      tag_296\n      jumpi\n        /* \"#utility.yul\":11539:11540   */\n      0x00\n        /* \"#utility.yul\":11556:11562   */\n      dup4\n        /* \"#utility.yul\":11553:11642   */\n      iszero\n      tag_297\n      jumpi\n      pop\n        /* \"#utility.yul\":11608:11627   */\n      dup5\n      dup3\n      add\n        /* \"#utility.yul\":11602:11628   */\n      mload\n        /* \"#utility.yul\":11553:11642   */\n    tag_297:\n      not(0x00)\n        /* \"#utility.yul\":10410:10411   */\n      0x03\n        /* \"#utility.yul\":10406:10417   */\n      dup6\n      swap1\n      shl\n        /* \"#utility.yul\":10402:10426   */\n      shr\n        /* \"#utility.yul\":10398:10427   */\n      not\n        /* \"#utility.yul\":10388:10428   */\n      and\n        /* \"#utility.yul\":10434:10435   */\n      0x01\n        /* \"#utility.yul\":10430:10441   */\n      dup5\n      swap1\n      shl\n        /* \"#utility.yul\":10385:10442   */\n      or\n        /* \"#utility.yul\":11655:11736   */\n      dup5\n      sstore\n        /* \"#utility.yul\":10816:11746   */\n      jump(tag_288)\n        /* \"#utility.yul\":10846:11495   */\n    tag_296:\n        /* \"#utility.yul\":9706:9707   */\n      0x00\n        /* \"#utility.yul\":9699:9713   */\n      dup5\n      dup2\n      mstore\n        /* \"#utility.yul\":9743:9747   */\n      0x20\n        /* \"#utility.yul\":9730:9748   */\n      dup2\n      keccak256\n      not(0x1f)\n        /* \"#utility.yul\":10882:10902   */\n      dup6\n      and\n      swap2\n        /* \"#utility.yul\":11000:11222   */\n    tag_300:\n        /* \"#utility.yul\":11014:11021   */\n      dup3\n        /* \"#utility.yul\":11011:11012   */\n      dup2\n        /* \"#utility.yul\":11008:11022   */\n      lt\n        /* \"#utility.yul\":11000:11222   */\n      iszero\n      tag_302\n      jumpi\n        /* \"#utility.yul\":11096:11115   */\n      dup8\n      dup6\n      add\n        /* \"#utility.yul\":11090:11116   */\n      mload\n        /* \"#utility.yul\":11075:11117   */\n      dup3\n      sstore\n        /* \"#utility.yul\":11203:11207   */\n      0x20\n        /* \"#utility.yul\":11188:11208   */\n      swap5\n      dup6\n      add\n      swap5\n        /* \"#utility.yul\":11156:11157   */\n      0x01\n        /* \"#utility.yul\":11144:11158   */\n      swap1\n      swap3\n      add\n      swap2\n        /* \"#utility.yul\":11030:11042   */\n      add\n        /* \"#utility.yul\":11000:11222   */\n      jump(tag_300)\n    tag_302:\n        /* \"#utility.yul\":11004:11007   */\n      pop\n        /* \"#utility.yul\":11250:11256   */\n      dup5\n        /* \"#utility.yul\":11241:11248   */\n      dup3\n        /* \"#utility.yul\":11238:11257   */\n      lt\n        /* \"#utility.yul\":11235:11436   */\n      iszero\n      tag_303\n      jumpi\n        /* \"#utility.yul\":11311:11330   */\n      dup7\n      dup5\n      add\n        /* \"#utility.yul\":11305:11331   */\n      mload\n      not(0x00)\n        /* \"#utility.yul\":11394:11395   */\n      0x03\n        /* \"#utility.yul\":11390:11404   */\n      dup8\n      swap1\n      shl\n        /* \"#utility.yul\":11406:11409   */\n      0xf8\n        /* \"#utility.yul\":11386:11410   */\n      and\n        /* \"#utility.yul\":11382:11419   */\n      shr\n        /* \"#utility.yul\":11378:11420   */\n      not\n        /* \"#utility.yul\":11363:11421   */\n      and\n        /* \"#utility.yul\":11348:11422   */\n      dup2\n      sstore\n        /* \"#utility.yul\":11235:11436   */\n    tag_303:\n      pop\n      pop\n      pop\n      pop\n        /* \"#utility.yul\":11482:11483   */\n      0x01\n        /* \"#utility.yul\":11466:11480   */\n      swap1\n      dup2\n      shl\n        /* \"#utility.yul\":11462:11484   */\n      add\n        /* \"#utility.yul\":11449:11485   */\n      swap1\n      sstore\n      pop\n        /* \"#utility.yul\":10453:11752   */\n      jump\t// out\n        /* \"#utility.yul\":11757:12055   */\n    tag_172:\n        /* \"#utility.yul\":11942:11946   */\n      0xff\n        /* \"#utility.yul\":11934:11940   */\n      dup4\n        /* \"#utility.yul\":11930:11947   */\n      and\n        /* \"#utility.yul\":11919:11928   */\n      dup2\n        /* \"#utility.yul\":11912:11948   */\n      mstore\n        /* \"#utility.yul\":11984:11986   */\n      0x40\n        /* \"#utility.yul\":11979:11981   */\n      0x20\n        /* \"#utility.yul\":11968:11977   */\n      dup3\n        /* \"#utility.yul\":11964:11982   */\n      add\n        /* \"#utility.yul\":11957:11987   */\n      mstore\n        /* \"#utility.yul\":11893:11897   */\n      0x00\n        /* \"#utility.yul\":12004:12049   */\n      tag_305\n        /* \"#utility.yul\":12045:12047   */\n      0x40\n        /* \"#utility.yul\":12034:12043   */\n      dup4\n        /* \"#utility.yul\":12030:12048   */\n      add\n        /* \"#utility.yul\":12022:12028   */\n      dup5\n        /* \"#utility.yul\":12004:12049   */\n      tag_217\n      jump\t// in\n    tag_305:\n        /* \"#utility.yul\":11996:12049   */\n      swap5\n        /* \"#utility.yul\":11757:12055   */\n      swap4\n      pop\n      pop\n      pop\n      pop\n      jump\t// out\n\n    auxdata: 0xa26469706673582212207f76ac172563782b195a6656db87fd814274100ab357b1e38b5f6fb13aa5b10d64736f6c634300081e0033\n}\n",
				"bytecode": {
					"linkReferences": {},
					"object": "6080604052348015600e575f5ffd5b506111ae8061001c5f395ff3fe608060405234801561000f575f5ffd5b50600436106100b1575f3560e01c8063993746421161006e578063993746421461017a578063bcc1367c146101a9578063c4d66de8146101c9578063cf120a5b146101dc578063df808ac514610200578063f2fde38b14610213575f5ffd5b80632d3238fe146100b5578063338974df146100fa5780634c9a4a06146101045780636e92ae5214610117578063715018a6146101425780638da5cb5b1461014a575b5f5ffd5b6100dd6100c3366004610cc8565b60016020525f90815260409020546001600160801b031681565b6040516001600160801b0390911681526020015b60405180910390f35b610102610226565b005b610102610112366004610cfe565b6102ae565b60025461012a906001600160a01b031681565b6040516001600160a01b0390911681526020016100f1565b61010261044d565b7f9016d09d72d40fdae2fd8ceac6b6234c7706214fd39c1cd1e609a0528c199300546001600160a01b031661012a565b61019c610188366004610cc8565b5f6020819052908152604090205460ff1681565b6040516100f19190610d57565b6101bc6101b7366004610d7d565b610460565b6040516100f19190610dc4565b6101026101d7366004610cc8565b6105b4565b6101ef6101ea366004610e7a565b61074e565b6040516100f1959493929190610ea2565b61010261020e366004610f0c565b610842565b610102610221366004610cc8565b610b43565b335f9081526020819052604081205460ff16600481111561024957610249610d43565b146102935760405162461bcd60e51b8152602060048201526015602482015274149bdb1948185b1c9958591e48185cdcda59db9959605a1b60448201526064015b60405180910390fd5b335f908152602081905260409020805460ff19166002179055565b6002546001600160a01b031633146102f75760405162461bcd60e51b815260206004820152600c60248201526b04f6e6c7920466f6f644170760a41b604482015260640161028a565b600382600481111561030b5761030b610d43565b14806103285750600482600481111561032657610326610d43565b145b6103695760405162461bcd60e51b8152602060048201526012602482015271496e76616c696420737461666620726f6c6560701b604482015260640161028a565b6001600160a01b0383165f9081526020819052604081205460ff16600481111561039557610395610d43565b146103da5760405162461bcd60e51b8152602060048201526015602482015274149bdb1948185b1c9958591e48185cdcda59db9959605a1b604482015260640161028a565b6001600160a01b0383165f908152602081905260409020805483919060ff1916600183600481111561040e5761040e610d43565b02179055506001600160a01b03929092165f90815260016020526040902080546001600160801b0319166001600160801b039093169290921790915550565b610455610b80565b61045e5f610bdb565b565b6001600160801b0381165f908152600360209081526040808320805482518185028101850190935280835260609492939192909184015b828210156105a9575f8481526020908190206040805160a0810182526004860290920180546001600160a01b0316835260018101546001600160801b03811694840194909452600160801b90930460ff169082015260028201805491929160608401919061050490610ff7565b80601f016020809104026020016040519081016040528092919081815260200182805461053090610ff7565b801561057b5780601f106105525761010080835404028352916020019161057b565b820191905f5260205f20905b81548152906001019060200180831161055e57829003601f168201915b5050509183525050600391909101546001600160801b03166020918201529082526001929092019101610497565b505050509050919050565b7ff0c57e16840df040f15088dc2f81fe391c3923bec73e23a9662efc9c229c6a008054600160401b810460ff16159067ffffffffffffffff165f811580156105f95750825b90505f8267ffffffffffffffff1660011480156106155750303b155b905081158015610623575080155b156106415760405163f92ee8a960e01b815260040160405180910390fd5b845467ffffffffffffffff19166001178555831561066b57845460ff60401b1916600160401b1785555b6001600160a01b0386166106c15760405162461bcd60e51b815260206004820152601760248201527f496e76616c696420466f6f644170702061646472657373000000000000000000604482015260640161028a565b6106ca86610c4b565b600280546001600160a01b0319166001600160a01b0388169081179091555f908152602081905260409020805460ff19166001179055831561074657845460ff60401b19168555604051600181527fc7f505b2f371ae2175ee4913f4499e1f2633a7b5936321eed1cdaeb6115181d29060200160405180910390a15b505050505050565b6003602052815f5260405f208181548110610767575f80fd5b5f9182526020909120600490910201805460018201546002830180546001600160a01b0390931695506001600160801b0382169450600160801b90910460ff1692916107b290610ff7565b80601f01602080910402602001604051908101604052809291908181526020018280546107de90610ff7565b80156108295780601f1061080057610100808354040283529160200191610829565b820191905f5260205f20905b81548152906001019060200180831161080c57829003601f168201915b505050600390930154919250506001600160801b031685565b6002546001600160a01b031633146108945760405162461bcd60e51b815260206004820152601560248201527413db9b1e48119bdbd9105c1c0818d85b8818d85b1b605a1b604482015260640161028a565b60026001600160a01b0385165f9081526020819052604090205460ff1660048111156108c2576108c2610d43565b146108ff5760405162461bcd60e51b815260206004820152600d60248201526c27b7363c9031bab9ba37b6b2b960991b604482015260640161028a565b60025460405163b2a6cb6360e01b81526001600160801b03851660048201526001600160a01b039091169063b2a6cb6390602401602060405180830381865afa15801561094e573d5f5f3e3d5ffd5b505050506040513d601f19601f82011682018060405250810190610972919061102f565b6109b55760405162461bcd60e51b8152602060048201526014602482015273125b9d985b1a59081c995cdd185d5c985b9d125960621b604482015260640161028a565b60018260ff16101580156109cd575060058260ff1611155b610a0e5760405162461bcd60e51b8152602060048201526012602482015271526174696e67206d75737420626520312d3560701b604482015260640161028a565b6001600160801b038084165f818152600360209081526040808320815160a0810183526001600160a01b03808c16825281850196875260ff808b16948301948552606083018a8152428a1660808501528454600181810187559589529690972083516004909702018054969092166001600160a01b0319909616959095178155955191860180549351909416600160801b0270ffffffffffffffffffffffffffffffffff199093169190961617179055516002820190610ace908261109a565b5060809190910151600390910180546001600160801b0319166001600160801b039283161790556040516001600160a01b038616918516907f8da348b329ec9cb5f933f377db6d8d5e57e2d8c1f3ba6f02ca2b1f147120da6a90610b359086908690611155565b60405180910390a350505050565b610b4b610b80565b6001600160a01b038116610b7457604051631e4fbdf760e01b81525f600482015260240161028a565b610b7d81610bdb565b50565b33610bb27f9016d09d72d40fdae2fd8ceac6b6234c7706214fd39c1cd1e609a0528c199300546001600160a01b031690565b6001600160a01b03161461045e5760405163118cdaa760e01b815233600482015260240161028a565b7f9016d09d72d40fdae2fd8ceac6b6234c7706214fd39c1cd1e609a0528c19930080546001600160a01b031981166001600160a01b03848116918217845560405192169182907f8be0079c531659141344cd1fd0a4f28419497f9722a3daafe3b4186f6b6457e0905f90a3505050565b610c53610c5c565b610b7d81610ca5565b7ff0c57e16840df040f15088dc2f81fe391c3923bec73e23a9662efc9c229c6a0054600160401b900460ff1661045e57604051631afcd79f60e31b815260040160405180910390fd5b610b4b610c5c565b80356001600160a01b0381168114610cc3575f5ffd5b919050565b5f60208284031215610cd8575f5ffd5b610ce182610cad565b9392505050565b80356001600160801b0381168114610cc3575f5ffd5b5f5f5f60608486031215610d10575f5ffd5b610d1984610cad565b9250602084013560058110610d2c575f5ffd5b9150610d3a60408501610ce8565b90509250925092565b634e487b7160e01b5f52602160045260245ffd5b6020810160058310610d7757634e487b7160e01b5f52602160045260245ffd5b91905290565b5f60208284031215610d8d575f5ffd5b610ce182610ce8565b5f81518084528060208401602086015e5f602082860101526020601f19601f83011685010191505092915050565b5f602082016020835280845180835260408501915060408160051b8601019250602086015f5b82811015610e6e57603f19878603018452815160018060a01b0381511686526001600160801b03602082015116602087015260ff6040820151166040870152606081015160a06060880152610e4260a0880182610d96565b6080928301516001600160801b0316979092019690965294506020938401939190910190600101610dea565b50929695505050505050565b5f5f60408385031215610e8b575f5ffd5b610e9483610ce8565b946020939093013593505050565b6001600160a01b03861681526001600160801b038516602082015260ff8416604082015260a0606082018190525f90610edd90830185610d96565b90506001600160801b03831660808301529695505050505050565b634e487b7160e01b5f52604160045260245ffd5b5f5f5f5f60808587031215610f1f575f5ffd5b610f2885610cad565b9350610f3660208601610ce8565b9250604085013560ff81168114610f4b575f5ffd5b9150606085013567ffffffffffffffff811115610f66575f5ffd5b8501601f81018713610f76575f5ffd5b803567ffffffffffffffff811115610f9057610f90610ef8565b604051601f8201601f19908116603f0116810167ffffffffffffffff81118282101715610fbf57610fbf610ef8565b604052818152828201602001891015610fd6575f5ffd5b816020840160208301375f6020838301015280935050505092959194509250565b600181811c9082168061100b57607f821691505b60208210810361102957634e487b7160e01b5f52602260045260245ffd5b50919050565b5f6020828403121561103f575f5ffd5b81518015158114610ce1575f5ffd5b601f82111561109557805f5260205f20601f840160051c810160208510156110735750805b601f840160051c820191505b81811015611092575f815560010161107f565b50505b505050565b815167ffffffffffffffff8111156110b4576110b4610ef8565b6110c8816110c28454610ff7565b8461104e565b6020601f8211600181146110fa575f83156110e35750848201515b5f19600385901b1c1916600184901b178455611092565b5f84815260208120601f198516915b828110156111295787850151825560209485019460019092019101611109565b508482101561114657868401515f19600387901b60f8161c191681555b50505050600190811b01905550565b60ff83168152604060208201525f6111706040830184610d96565b94935050505056fea26469706673582212207f76ac172563782b195a6656db87fd814274100ab357b1e38b5f6fb13aa5b10d64736f6c634300081e0033",
					"opcodes": "PUSH1 0x80 PUSH1 0x40 MSTORE CALLVALUE DUP1 ISZERO PUSH1 0xE JUMPI PUSH0 PUSH0 REVERT JUMPDEST POP PUSH2 0x11AE DUP1 PUSH2 0x1C PUSH0 CODECOPY PUSH0 RETURN INVALID PUSH1 0x80 PUSH1 0x40 MSTORE CALLVALUE DUP1 ISZERO PUSH2 0xF JUMPI PUSH0 PUSH0 REVERT JUMPDEST POP PUSH1 0x4 CALLDATASIZE LT PUSH2 0xB1 JUMPI PUSH0 CALLDATALOAD PUSH1 0xE0 SHR DUP1 PUSH4 0x99374642 GT PUSH2 0x6E JUMPI DUP1 PUSH4 0x99374642 EQ PUSH2 0x17A JUMPI DUP1 PUSH4 0xBCC1367C EQ PUSH2 0x1A9 JUMPI DUP1 PUSH4 0xC4D66DE8 EQ PUSH2 0x1C9 JUMPI DUP1 PUSH4 0xCF120A5B EQ PUSH2 0x1DC JUMPI DUP1 PUSH4 0xDF808AC5 EQ PUSH2 0x200 JUMPI DUP1 PUSH4 0xF2FDE38B EQ PUSH2 0x213 JUMPI PUSH0 PUSH0 REVERT JUMPDEST DUP1 PUSH4 0x2D3238FE EQ PUSH2 0xB5 JUMPI DUP1 PUSH4 0x338974DF EQ PUSH2 0xFA JUMPI DUP1 PUSH4 0x4C9A4A06 EQ PUSH2 0x104 JUMPI DUP1 PUSH4 0x6E92AE52 EQ PUSH2 0x117 JUMPI DUP1 PUSH4 0x715018A6 EQ PUSH2 0x142 JUMPI DUP1 PUSH4 0x8DA5CB5B EQ PUSH2 0x14A JUMPI JUMPDEST PUSH0 PUSH0 REVERT JUMPDEST PUSH2 0xDD PUSH2 0xC3 CALLDATASIZE PUSH1 0x4 PUSH2 0xCC8 JUMP JUMPDEST PUSH1 0x1 PUSH1 0x20 MSTORE PUSH0 SWAP1 DUP2 MSTORE PUSH1 0x40 SWAP1 KECCAK256 SLOAD PUSH1 0x1 PUSH1 0x1 PUSH1 0x80 SHL SUB AND DUP2 JUMP JUMPDEST PUSH1 0x40 MLOAD PUSH1 0x1 PUSH1 0x1 PUSH1 0x80 SHL SUB SWAP1 SWAP2 AND DUP2 MSTORE PUSH1 0x20 ADD JUMPDEST PUSH1 0x40 MLOAD DUP1 SWAP2 SUB SWAP1 RETURN JUMPDEST PUSH2 0x102 PUSH2 0x226 JUMP JUMPDEST STOP JUMPDEST PUSH2 0x102 PUSH2 0x112 CALLDATASIZE PUSH1 0x4 PUSH2 0xCFE JUMP JUMPDEST PUSH2 0x2AE JUMP JUMPDEST PUSH1 0x2 SLOAD PUSH2 0x12A SWAP1 PUSH1 0x1 PUSH1 0x1 PUSH1 0xA0 SHL SUB AND DUP2 JUMP JUMPDEST PUSH1 0x40 MLOAD PUSH1 0x1 PUSH1 0x1 PUSH1 0xA0 SHL SUB SWAP1 SWAP2 AND DUP2 MSTORE PUSH1 0x20 ADD PUSH2 0xF1 JUMP JUMPDEST PUSH2 0x102 PUSH2 0x44D JUMP JUMPDEST PUSH32 0x9016D09D72D40FDAE2FD8CEAC6B6234C7706214FD39C1CD1E609A0528C199300 SLOAD PUSH1 0x1 PUSH1 0x1 PUSH1 0xA0 SHL SUB AND PUSH2 0x12A JUMP JUMPDEST PUSH2 0x19C PUSH2 0x188 CALLDATASIZE PUSH1 0x4 PUSH2 0xCC8 JUMP JUMPDEST PUSH0 PUSH1 0x20 DUP2 SWAP1 MSTORE SWAP1 DUP2 MSTORE PUSH1 0x40 SWAP1 KECCAK256 SLOAD PUSH1 0xFF AND DUP2 JUMP JUMPDEST PUSH1 0x40 MLOAD PUSH2 0xF1 SWAP2 SWAP1 PUSH2 0xD57 JUMP JUMPDEST PUSH2 0x1BC PUSH2 0x1B7 CALLDATASIZE PUSH1 0x4 PUSH2 0xD7D JUMP JUMPDEST PUSH2 0x460 JUMP JUMPDEST PUSH1 0x40 MLOAD PUSH2 0xF1 SWAP2 SWAP1 PUSH2 0xDC4 JUMP JUMPDEST PUSH2 0x102 PUSH2 0x1D7 CALLDATASIZE PUSH1 0x4 PUSH2 0xCC8 JUMP JUMPDEST PUSH2 0x5B4 JUMP JUMPDEST PUSH2 0x1EF PUSH2 0x1EA CALLDATASIZE PUSH1 0x4 PUSH2 0xE7A JUMP JUMPDEST PUSH2 0x74E JUMP JUMPDEST PUSH1 0x40 MLOAD PUSH2 0xF1 SWAP6 SWAP5 SWAP4 SWAP3 SWAP2 SWAP1 PUSH2 0xEA2 JUMP JUMPDEST PUSH2 0x102 PUSH2 0x20E CALLDATASIZE PUSH1 0x4 PUSH2 0xF0C JUMP JUMPDEST PUSH2 0x842 JUMP JUMPDEST PUSH2 0x102 PUSH2 0x221 CALLDATASIZE PUSH1 0x4 PUSH2 0xCC8 JUMP JUMPDEST PUSH2 0xB43 JUMP JUMPDEST CALLER PUSH0 SWAP1 DUP2 MSTORE PUSH1 0x20 DUP2 SWAP1 MSTORE PUSH1 0x40 DUP2 KECCAK256 SLOAD PUSH1 0xFF AND PUSH1 0x4 DUP2 GT ISZERO PUSH2 0x249 JUMPI PUSH2 0x249 PUSH2 0xD43 JUMP JUMPDEST EQ PUSH2 0x293 JUMPI PUSH1 0x40 MLOAD PUSH3 0x461BCD PUSH1 0xE5 SHL DUP2 MSTORE PUSH1 0x20 PUSH1 0x4 DUP3 ADD MSTORE PUSH1 0x15 PUSH1 0x24 DUP3 ADD MSTORE PUSH21 0x149BDB1948185B1C9958591E48185CDCDA59DB9959 PUSH1 0x5A SHL PUSH1 0x44 DUP3 ADD MSTORE PUSH1 0x64 ADD JUMPDEST PUSH1 0x40 MLOAD DUP1 SWAP2 SUB SWAP1 REVERT JUMPDEST CALLER PUSH0 SWAP1 DUP2 MSTORE PUSH1 0x20 DUP2 SWAP1 MSTORE PUSH1 0x40 SWAP1 KECCAK256 DUP1 SLOAD PUSH1 0xFF NOT AND PUSH1 0x2 OR SWAP1 SSTORE JUMP JUMPDEST PUSH1 0x2 SLOAD PUSH1 0x1 PUSH1 0x1 PUSH1 0xA0 SHL SUB AND CALLER EQ PUSH2 0x2F7 JUMPI PUSH1 0x40 MLOAD PUSH3 0x461BCD PUSH1 0xE5 SHL DUP2 MSTORE PUSH1 0x20 PUSH1 0x4 DUP3 ADD MSTORE PUSH1 0xC PUSH1 0x24 DUP3 ADD MSTORE PUSH12 0x4F6E6C7920466F6F6441707 PUSH1 0xA4 SHL PUSH1 0x44 DUP3 ADD MSTORE PUSH1 0x64 ADD PUSH2 0x28A JUMP JUMPDEST PUSH1 0x3 DUP3 PUSH1 0x4 DUP2 GT ISZERO PUSH2 0x30B JUMPI PUSH2 0x30B PUSH2 0xD43 JUMP JUMPDEST EQ DUP1 PUSH2 0x328 JUMPI POP PUSH1 0x4 DUP3 PUSH1 0x4 DUP2 GT ISZERO PUSH2 0x326 JUMPI PUSH2 0x326 PUSH2 0xD43 JUMP JUMPDEST EQ JUMPDEST PUSH2 0x369 JUMPI PUSH1 0x40 MLOAD PUSH3 0x461BCD PUSH1 0xE5 SHL DUP2 MSTORE PUSH1 0x20 PUSH1 0x4 DUP3 ADD MSTORE PUSH1 0x12 PUSH1 0x24 DUP3 ADD MSTORE PUSH18 0x496E76616C696420737461666620726F6C65 PUSH1 0x70 SHL PUSH1 0x44 DUP3 ADD MSTORE PUSH1 0x64 ADD PUSH2 0x28A JUMP JUMPDEST PUSH1 0x1 PUSH1 0x1 PUSH1 0xA0 SHL SUB DUP4 AND PUSH0 SWAP1 DUP2 MSTORE PUSH1 0x20 DUP2 SWAP1 MSTORE PUSH1 0x40 DUP2 KECCAK256 SLOAD PUSH1 0xFF AND PUSH1 0x4 DUP2 GT ISZERO PUSH2 0x395 JUMPI PUSH2 0x395 PUSH2 0xD43 JUMP JUMPDEST EQ PUSH2 0x3DA JUMPI PUSH1 0x40 MLOAD PUSH3 0x461BCD PUSH1 0xE5 SHL DUP2 MSTORE PUSH1 0x20 PUSH1 0x4 DUP3 ADD MSTORE PUSH1 0x15 PUSH1 0x24 DUP3 ADD MSTORE PUSH21 0x149BDB1948185B1C9958591E48185CDCDA59DB9959 PUSH1 0x5A SHL PUSH1 0x44 DUP3 ADD MSTORE PUSH1 0x64 ADD PUSH2 0x28A JUMP JUMPDEST PUSH1 0x1 PUSH1 0x1 PUSH1 0xA0 SHL SUB DUP4 AND PUSH0 SWAP1 DUP2 MSTORE PUSH1 0x20 DUP2 SWAP1 MSTORE PUSH1 0x40 SWAP1 KECCAK256 DUP1 SLOAD DUP4 SWAP2 SWAP1 PUSH1 0xFF NOT AND PUSH1 0x1 DUP4 PUSH1 0x4 DUP2 GT ISZERO PUSH2 0x40E JUMPI PUSH2 0x40E PUSH2 0xD43 JUMP JUMPDEST MUL OR SWAP1 SSTORE POP PUSH1 0x1 PUSH1 0x1 PUSH1 0xA0 SHL SUB SWAP3 SWAP1 SWAP3 AND PUSH0 SWAP1 DUP2 MSTORE PUSH1 0x1 PUSH1 0x20 MSTORE PUSH1 0x40 SWAP1 KECCAK256 DUP1 SLOAD PUSH1 0x1 PUSH1 0x1 PUSH1 0x80 SHL SUB NOT AND PUSH1 0x1 PUSH1 0x1 PUSH1 0x80 SHL SUB SWAP1 SWAP4 AND SWAP3 SWAP1 SWAP3 OR SWAP1 SWAP2 SSTORE POP JUMP JUMPDEST PUSH2 0x455 PUSH2 0xB80 JUMP JUMPDEST PUSH2 0x45E PUSH0 PUSH2 0xBDB JUMP JUMPDEST JUMP JUMPDEST PUSH1 0x1 PUSH1 0x1 PUSH1 0x80 SHL SUB DUP2 AND PUSH0 SWAP1 DUP2 MSTORE PUSH1 0x3 PUSH1 0x20 SWAP1 DUP2 MSTORE PUSH1 0x40 DUP1 DUP4 KECCAK256 DUP1 SLOAD DUP3 MLOAD DUP2 DUP6 MUL DUP2 ADD DUP6 ADD SWAP1 SWAP4 MSTORE DUP1 DUP4 MSTORE PUSH1 0x60 SWAP5 SWAP3 SWAP4 SWAP2 SWAP3 SWAP1 SWAP2 DUP5 ADD JUMPDEST DUP3 DUP3 LT ISZERO PUSH2 0x5A9 JUMPI PUSH0 DUP5 DUP2 MSTORE PUSH1 0x20 SWAP1 DUP2 SWAP1 KECCAK256 PUSH1 0x40 DUP1 MLOAD PUSH1 0xA0 DUP2 ADD DUP3 MSTORE PUSH1 0x4 DUP7 MUL SWAP1 SWAP3 ADD DUP1 SLOAD PUSH1 0x1 PUSH1 0x1 PUSH1 0xA0 SHL SUB AND DUP4 MSTORE PUSH1 0x1 DUP2 ADD SLOAD PUSH1 0x1 PUSH1 0x1 PUSH1 0x80 SHL SUB DUP2 AND SWAP5 DUP5 ADD SWAP5 SWAP1 SWAP5 MSTORE PUSH1 0x1 PUSH1 0x80 SHL SWAP1 SWAP4 DIV PUSH1 0xFF AND SWAP1 DUP3 ADD MSTORE PUSH1 0x2 DUP3 ADD DUP1 SLOAD SWAP2 SWAP3 SWAP2 PUSH1 0x60 DUP5 ADD SWAP2 SWAP1 PUSH2 0x504 SWAP1 PUSH2 0xFF7 JUMP JUMPDEST DUP1 PUSH1 0x1F ADD PUSH1 0x20 DUP1 SWAP2 DIV MUL PUSH1 0x20 ADD PUSH1 0x40 MLOAD SWAP1 DUP2 ADD PUSH1 0x40 MSTORE DUP1 SWAP3 SWAP2 SWAP1 DUP2 DUP2 MSTORE PUSH1 0x20 ADD DUP3 DUP1 SLOAD PUSH2 0x530 SWAP1 PUSH2 0xFF7 JUMP JUMPDEST DUP1 ISZERO PUSH2 0x57B JUMPI DUP1 PUSH1 0x1F LT PUSH2 0x552 JUMPI PUSH2 0x100 DUP1 DUP4 SLOAD DIV MUL DUP4 MSTORE SWAP2 PUSH1 0x20 ADD SWAP2 PUSH2 0x57B JUMP JUMPDEST DUP3 ADD SWAP2 SWAP1 PUSH0 MSTORE PUSH1 0x20 PUSH0 KECCAK256 SWAP1 JUMPDEST DUP2 SLOAD DUP2 MSTORE SWAP1 PUSH1 0x1 ADD SWAP1 PUSH1 0x20 ADD DUP1 DUP4 GT PUSH2 0x55E JUMPI DUP3 SWAP1 SUB PUSH1 0x1F AND DUP3 ADD SWAP2 JUMPDEST POP POP POP SWAP2 DUP4 MSTORE POP POP PUSH1 0x3 SWAP2 SWAP1 SWAP2 ADD SLOAD PUSH1 0x1 PUSH1 0x1 PUSH1 0x80 SHL SUB AND PUSH1 0x20 SWAP2 DUP3 ADD MSTORE SWAP1 DUP3 MSTORE PUSH1 0x1 SWAP3 SWAP1 SWAP3 ADD SWAP2 ADD PUSH2 0x497 JUMP JUMPDEST POP POP POP POP SWAP1 POP SWAP2 SWAP1 POP JUMP JUMPDEST PUSH32 0xF0C57E16840DF040F15088DC2F81FE391C3923BEC73E23A9662EFC9C229C6A00 DUP1 SLOAD PUSH1 0x1 PUSH1 0x40 SHL DUP2 DIV PUSH1 0xFF AND ISZERO SWAP1 PUSH8 0xFFFFFFFFFFFFFFFF AND PUSH0 DUP2 ISZERO DUP1 ISZERO PUSH2 0x5F9 JUMPI POP DUP3 JUMPDEST SWAP1 POP PUSH0 DUP3 PUSH8 0xFFFFFFFFFFFFFFFF AND PUSH1 0x1 EQ DUP1 ISZERO PUSH2 0x615 JUMPI POP ADDRESS EXTCODESIZE ISZERO JUMPDEST SWAP1 POP DUP2 ISZERO DUP1 ISZERO PUSH2 0x623 JUMPI POP DUP1 ISZERO JUMPDEST ISZERO PUSH2 0x641 JUMPI PUSH1 0x40 MLOAD PUSH4 0xF92EE8A9 PUSH1 0xE0 SHL DUP2 MSTORE PUSH1 0x4 ADD PUSH1 0x40 MLOAD DUP1 SWAP2 SUB SWAP1 REVERT JUMPDEST DUP5 SLOAD PUSH8 0xFFFFFFFFFFFFFFFF NOT AND PUSH1 0x1 OR DUP6 SSTORE DUP4 ISZERO PUSH2 0x66B JUMPI DUP5 SLOAD PUSH1 0xFF PUSH1 0x40 SHL NOT AND PUSH1 0x1 PUSH1 0x40 SHL OR DUP6 SSTORE JUMPDEST PUSH1 0x1 PUSH1 0x1 PUSH1 0xA0 SHL SUB DUP7 AND PUSH2 0x6C1 JUMPI PUSH1 0x40 MLOAD PUSH3 0x461BCD PUSH1 0xE5 SHL DUP2 MSTORE PUSH1 0x20 PUSH1 0x4 DUP3 ADD MSTORE PUSH1 0x17 PUSH1 0x24 DUP3 ADD MSTORE PUSH32 0x496E76616C696420466F6F644170702061646472657373000000000000000000 PUSH1 0x44 DUP3 ADD MSTORE PUSH1 0x64 ADD PUSH2 0x28A JUMP JUMPDEST PUSH2 0x6CA DUP7 PUSH2 0xC4B JUMP JUMPDEST PUSH1 0x2 DUP1 SLOAD PUSH1 0x1 PUSH1 0x1 PUSH1 0xA0 SHL SUB NOT AND PUSH1 0x1 PUSH1 0x1 PUSH1 0xA0 SHL SUB DUP9 AND SWAP1 DUP2 OR SWAP1 SWAP2 SSTORE PUSH0 SWAP1 DUP2 MSTORE PUSH1 0x20 DUP2 SWAP1 MSTORE PUSH1 0x40 SWAP1 KECCAK256 DUP1 SLOAD PUSH1 0xFF NOT AND PUSH1 0x1 OR SWAP1 SSTORE DUP4 ISZERO PUSH2 0x746 JUMPI DUP5 SLOAD PUSH1 0xFF PUSH1 0x40 SHL NOT AND DUP6 SSTORE PUSH1 0x40 MLOAD PUSH1 0x1 DUP2 MSTORE PUSH32 0xC7F505B2F371AE2175EE4913F4499E1F2633A7B5936321EED1CDAEB6115181D2 SWAP1 PUSH1 0x20 ADD PUSH1 0x40 MLOAD DUP1 SWAP2 SUB SWAP1 LOG1 JUMPDEST POP POP POP POP POP POP JUMP JUMPDEST PUSH1 0x3 PUSH1 0x20 MSTORE DUP2 PUSH0 MSTORE PUSH1 0x40 PUSH0 KECCAK256 DUP2 DUP2 SLOAD DUP2 LT PUSH2 0x767 JUMPI PUSH0 DUP1 REVERT JUMPDEST PUSH0 SWAP2 DUP3 MSTORE PUSH1 0x20 SWAP1 SWAP2 KECCAK256 PUSH1 0x4 SWAP1 SWAP2 MUL ADD DUP1 SLOAD PUSH1 0x1 DUP3 ADD SLOAD PUSH1 0x2 DUP4 ADD DUP1 SLOAD PUSH1 0x1 PUSH1 0x1 PUSH1 0xA0 SHL SUB SWAP1 SWAP4 AND SWAP6 POP PUSH1 0x1 PUSH1 0x1 PUSH1 0x80 SHL SUB DUP3 AND SWAP5 POP PUSH1 0x1 PUSH1 0x80 SHL SWAP1 SWAP2 DIV PUSH1 0xFF AND SWAP3 SWAP2 PUSH2 0x7B2 SWAP1 PUSH2 0xFF7 JUMP JUMPDEST DUP1 PUSH1 0x1F ADD PUSH1 0x20 DUP1 SWAP2 DIV MUL PUSH1 0x20 ADD PUSH1 0x40 MLOAD SWAP1 DUP2 ADD PUSH1 0x40 MSTORE DUP1 SWAP3 SWAP2 SWAP1 DUP2 DUP2 MSTORE PUSH1 0x20 ADD DUP3 DUP1 SLOAD PUSH2 0x7DE SWAP1 PUSH2 0xFF7 JUMP JUMPDEST DUP1 ISZERO PUSH2 0x829 JUMPI DUP1 PUSH1 0x1F LT PUSH2 0x800 JUMPI PUSH2 0x100 DUP1 DUP4 SLOAD DIV MUL DUP4 MSTORE SWAP2 PUSH1 0x20 ADD SWAP2 PUSH2 0x829 JUMP JUMPDEST DUP3 ADD SWAP2 SWAP1 PUSH0 MSTORE PUSH1 0x20 PUSH0 KECCAK256 SWAP1 JUMPDEST DUP2 SLOAD DUP2 MSTORE SWAP1 PUSH1 0x1 ADD SWAP1 PUSH1 0x20 ADD DUP1 DUP4 GT PUSH2 0x80C JUMPI DUP3 SWAP1 SUB PUSH1 0x1F AND DUP3 ADD SWAP2 JUMPDEST POP POP POP PUSH1 0x3 SWAP1 SWAP4 ADD SLOAD SWAP2 SWAP3 POP POP PUSH1 0x1 PUSH1 0x1 PUSH1 0x80 SHL SUB AND DUP6 JUMP JUMPDEST PUSH1 0x2 SLOAD PUSH1 0x1 PUSH1 0x1 PUSH1 0xA0 SHL SUB AND CALLER EQ PUSH2 0x894 JUMPI PUSH1 0x40 MLOAD PUSH3 0x461BCD PUSH1 0xE5 SHL DUP2 MSTORE PUSH1 0x20 PUSH1 0x4 DUP3 ADD MSTORE PUSH1 0x15 PUSH1 0x24 DUP3 ADD MSTORE PUSH21 0x13DB9B1E48119BDBD9105C1C0818D85B8818D85B1B PUSH1 0x5A SHL PUSH1 0x44 DUP3 ADD MSTORE PUSH1 0x64 ADD PUSH2 0x28A JUMP JUMPDEST PUSH1 0x2 PUSH1 0x1 PUSH1 0x1 PUSH1 0xA0 SHL SUB DUP6 AND PUSH0 SWAP1 DUP2 MSTORE PUSH1 0x20 DUP2 SWAP1 MSTORE PUSH1 0x40 SWAP1 KECCAK256 SLOAD PUSH1 0xFF AND PUSH1 0x4 DUP2 GT ISZERO PUSH2 0x8C2 JUMPI PUSH2 0x8C2 PUSH2 0xD43 JUMP JUMPDEST EQ PUSH2 0x8FF JUMPI PUSH1 0x40 MLOAD PUSH3 0x461BCD PUSH1 0xE5 SHL DUP2 MSTORE PUSH1 0x20 PUSH1 0x4 DUP3 ADD MSTORE PUSH1 0xD PUSH1 0x24 DUP3 ADD MSTORE PUSH13 0x27B7363C9031BAB9BA37B6B2B9 PUSH1 0x99 SHL PUSH1 0x44 DUP3 ADD MSTORE PUSH1 0x64 ADD PUSH2 0x28A JUMP JUMPDEST PUSH1 0x2 SLOAD PUSH1 0x40 MLOAD PUSH4 0xB2A6CB63 PUSH1 0xE0 SHL DUP2 MSTORE PUSH1 0x1 PUSH1 0x1 PUSH1 0x80 SHL SUB DUP6 AND PUSH1 0x4 DUP3 ADD MSTORE PUSH1 0x1 PUSH1 0x1 PUSH1 0xA0 SHL SUB SWAP1 SWAP2 AND SWAP1 PUSH4 0xB2A6CB63 SWAP1 PUSH1 0x24 ADD PUSH1 0x20 PUSH1 0x40 MLOAD DUP1 DUP4 SUB DUP2 DUP7 GAS STATICCALL ISZERO DUP1 ISZERO PUSH2 0x94E JUMPI RETURNDATASIZE PUSH0 PUSH0 RETURNDATACOPY RETURNDATASIZE PUSH0 REVERT JUMPDEST POP POP POP POP PUSH1 0x40 MLOAD RETURNDATASIZE PUSH1 0x1F NOT PUSH1 0x1F DUP3 ADD AND DUP3 ADD DUP1 PUSH1 0x40 MSTORE POP DUP2 ADD SWAP1 PUSH2 0x972 SWAP2 SWAP1 PUSH2 0x102F JUMP JUMPDEST PUSH2 0x9B5 JUMPI PUSH1 0x40 MLOAD PUSH3 0x461BCD PUSH1 0xE5 SHL DUP2 MSTORE PUSH1 0x20 PUSH1 0x4 DUP3 ADD MSTORE PUSH1 0x14 PUSH1 0x24 DUP3 ADD MSTORE PUSH20 0x125B9D985B1A59081C995CDD185D5C985B9D1259 PUSH1 0x62 SHL PUSH1 0x44 DUP3 ADD MSTORE PUSH1 0x64 ADD PUSH2 0x28A JUMP JUMPDEST PUSH1 0x1 DUP3 PUSH1 0xFF AND LT ISZERO DUP1 ISZERO PUSH2 0x9CD JUMPI POP PUSH1 0x5 DUP3 PUSH1 0xFF AND GT ISZERO JUMPDEST PUSH2 0xA0E JUMPI PUSH1 0x40 MLOAD PUSH3 0x461BCD PUSH1 0xE5 SHL DUP2 MSTORE PUSH1 0x20 PUSH1 0x4 DUP3 ADD MSTORE PUSH1 0x12 PUSH1 0x24 DUP3 ADD MSTORE PUSH18 0x526174696E67206D75737420626520312D35 PUSH1 0x70 SHL PUSH1 0x44 DUP3 ADD MSTORE PUSH1 0x64 ADD PUSH2 0x28A JUMP JUMPDEST PUSH1 0x1 PUSH1 0x1 PUSH1 0x80 SHL SUB DUP1 DUP5 AND PUSH0 DUP2 DUP2 MSTORE PUSH1 0x3 PUSH1 0x20 SWAP1 DUP2 MSTORE PUSH1 0x40 DUP1 DUP4 KECCAK256 DUP2 MLOAD PUSH1 0xA0 DUP2 ADD DUP4 MSTORE PUSH1 0x1 PUSH1 0x1 PUSH1 0xA0 SHL SUB DUP1 DUP13 AND DUP3 MSTORE DUP2 DUP6 ADD SWAP7 DUP8 MSTORE PUSH1 0xFF DUP1 DUP12 AND SWAP5 DUP4 ADD SWAP5 DUP6 MSTORE PUSH1 0x60 DUP4 ADD DUP11 DUP2 MSTORE TIMESTAMP DUP11 AND PUSH1 0x80 DUP6 ADD MSTORE DUP5 SLOAD PUSH1 0x1 DUP2 DUP2 ADD DUP8 SSTORE SWAP6 DUP10 MSTORE SWAP7 SWAP1 SWAP8 KECCAK256 DUP4 MLOAD PUSH1 0x4 SWAP1 SWAP8 MUL ADD DUP1 SLOAD SWAP7 SWAP1 SWAP3 AND PUSH1 0x1 PUSH1 0x1 PUSH1 0xA0 SHL SUB NOT SWAP1 SWAP7 AND SWAP6 SWAP1 SWAP6 OR DUP2 SSTORE SWAP6 MLOAD SWAP2 DUP7 ADD DUP1 SLOAD SWAP4 MLOAD SWAP1 SWAP5 AND PUSH1 0x1 PUSH1 0x80 SHL MUL PUSH17 0xFFFFFFFFFFFFFFFFFFFFFFFFFFFFFFFFFF NOT SWAP1 SWAP4 AND SWAP2 SWAP1 SWAP7 AND OR OR SWAP1 SSTORE MLOAD PUSH1 0x2 DUP3 ADD SWAP1 PUSH2 0xACE SWAP1 DUP3 PUSH2 0x109A JUMP JUMPDEST POP PUSH1 0x80 SWAP2 SWAP1 SWAP2 ADD MLOAD PUSH1 0x3 SWAP1 SWAP2 ADD DUP1 SLOAD PUSH1 0x1 PUSH1 0x1 PUSH1 0x80 SHL SUB NOT AND PUSH1 0x1 PUSH1 0x1 PUSH1 0x80 SHL SUB SWAP3 DUP4 AND OR SWAP1 SSTORE PUSH1 0x40 MLOAD PUSH1 0x1 PUSH1 0x1 PUSH1 0xA0 SHL SUB DUP7 AND SWAP2 DUP6 AND SWAP1 PUSH32 0x8DA348B329EC9CB5F933F377DB6D8D5E57E2D8C1F3BA6F02CA2B1F147120DA6A SWAP1 PUSH2 0xB35 SWAP1 DUP7 SWAP1 DUP7 SWAP1 PUSH2 0x1155 JUMP JUMPDEST PUSH1 0x40 MLOAD DUP1 SWAP2 SUB SWAP1 LOG3 POP POP POP POP JUMP JUMPDEST PUSH2 0xB4B PUSH2 0xB80 JUMP JUMPDEST PUSH1 0x1 PUSH1 0x1 PUSH1 0xA0 SHL SUB DUP2 AND PUSH2 0xB74 JUMPI PUSH1 0x40 MLOAD PUSH4 0x1E4FBDF7 PUSH1 0xE0 SHL DUP2 MSTORE PUSH0 PUSH1 0x4 DUP3 ADD MSTORE PUSH1 0x24 ADD PUSH2 0x28A JUMP JUMPDEST PUSH2 0xB7D DUP2 PUSH2 0xBDB JUMP JUMPDEST POP JUMP JUMPDEST CALLER PUSH2 0xBB2 PUSH32 0x9016D09D72D40FDAE2FD8CEAC6B6234C7706214FD39C1CD1E609A0528C199300 SLOAD PUSH1 0x1 PUSH1 0x1 PUSH1 0xA0 SHL SUB AND SWAP1 JUMP JUMPDEST PUSH1 0x1 PUSH1 0x1 PUSH1 0xA0 SHL SUB AND EQ PUSH2 0x45E JUMPI PUSH1 0x40 MLOAD PUSH4 0x118CDAA7 PUSH1 0xE0 SHL DUP2 MSTORE CALLER PUSH1 0x4 DUP3 ADD MSTORE PUSH1 0x24 ADD PUSH2 0x28A JUMP JUMPDEST PUSH32 0x9016D09D72D40FDAE2FD8CEAC6B6234C7706214FD39C1CD1E609A0528C199300 DUP1 SLOAD PUSH1 0x1 PUSH1 0x1 PUSH1 0xA0 SHL SUB NOT DUP2 AND PUSH1 0x1 PUSH1 0x1 PUSH1 0xA0 SHL SUB DUP5 DUP2 AND SWAP2 DUP3 OR DUP5 SSTORE PUSH1 0x40 MLOAD SWAP3 AND SWAP2 DUP3 SWAP1 PUSH32 0x8BE0079C531659141344CD1FD0A4F28419497F9722A3DAAFE3B4186F6B6457E0 SWAP1 PUSH0 SWAP1 LOG3 POP POP POP JUMP JUMPDEST PUSH2 0xC53 PUSH2 0xC5C JUMP JUMPDEST PUSH2 0xB7D DUP2 PUSH2 0xCA5 JUMP JUMPDEST PUSH32 0xF0C57E16840DF040F15088DC2F81FE391C3923BEC73E23A9662EFC9C229C6A00 SLOAD PUSH1 0x1 PUSH1 0x40 SHL SWAP1 DIV PUSH1 0xFF AND PUSH2 0x45E JUMPI PUSH1 0x40 MLOAD PUSH4 0x1AFCD79F PUSH1 0xE3 SHL DUP2 MSTORE PUSH1 0x4 ADD PUSH1 0x40 MLOAD DUP1 SWAP2 SUB SWAP1 REVERT JUMPDEST PUSH2 0xB4B PUSH2 0xC5C JUMP JUMPDEST DUP1 CALLDATALOAD PUSH1 0x1 PUSH1 0x1 PUSH1 0xA0 SHL SUB DUP2 AND DUP2 EQ PUSH2 0xCC3 JUMPI PUSH0 PUSH0 REVERT JUMPDEST SWAP2 SWAP1 POP JUMP JUMPDEST PUSH0 PUSH1 0x20 DUP3 DUP5 SUB SLT ISZERO PUSH2 0xCD8 JUMPI PUSH0 PUSH0 REVERT JUMPDEST PUSH2 0xCE1 DUP3 PUSH2 0xCAD JUMP JUMPDEST SWAP4 SWAP3 POP POP POP JUMP JUMPDEST DUP1 CALLDATALOAD PUSH1 0x1 PUSH1 0x1 PUSH1 0x80 SHL SUB DUP2 AND DUP2 EQ PUSH2 0xCC3 JUMPI PUSH0 PUSH0 REVERT JUMPDEST PUSH0 PUSH0 PUSH0 PUSH1 0x60 DUP5 DUP7 SUB SLT ISZERO PUSH2 0xD10 JUMPI PUSH0 PUSH0 REVERT JUMPDEST PUSH2 0xD19 DUP5 PUSH2 0xCAD JUMP JUMPDEST SWAP3 POP PUSH1 0x20 DUP5 ADD CALLDATALOAD PUSH1 0x5 DUP2 LT PUSH2 0xD2C JUMPI PUSH0 PUSH0 REVERT JUMPDEST SWAP2 POP PUSH2 0xD3A PUSH1 0x40 DUP6 ADD PUSH2 0xCE8 JUMP JUMPDEST SWAP1 POP SWAP3 POP SWAP3 POP SWAP3 JUMP JUMPDEST PUSH4 0x4E487B71 PUSH1 0xE0 SHL PUSH0 MSTORE PUSH1 0x21 PUSH1 0x4 MSTORE PUSH1 0x24 PUSH0 REVERT JUMPDEST PUSH1 0x20 DUP2 ADD PUSH1 0x5 DUP4 LT PUSH2 0xD77 JUMPI PUSH4 0x4E487B71 PUSH1 0xE0 SHL PUSH0 MSTORE PUSH1 0x21 PUSH1 0x4 MSTORE PUSH1 0x24 PUSH0 REVERT JUMPDEST SWAP2 SWAP1 MSTORE SWAP1 JUMP JUMPDEST PUSH0 PUSH1 0x20 DUP3 DUP5 SUB SLT ISZERO PUSH2 0xD8D JUMPI PUSH0 PUSH0 REVERT JUMPDEST PUSH2 0xCE1 DUP3 PUSH2 0xCE8 JUMP JUMPDEST PUSH0 DUP2 MLOAD DUP1 DUP5 MSTORE DUP1 PUSH1 0x20 DUP5 ADD PUSH1 0x20 DUP7 ADD MCOPY PUSH0 PUSH1 0x20 DUP3 DUP7 ADD ADD MSTORE PUSH1 0x20 PUSH1 0x1F NOT PUSH1 0x1F DUP4 ADD AND DUP6 ADD ADD SWAP2 POP POP SWAP3 SWAP2 POP POP JUMP JUMPDEST PUSH0 PUSH1 0x20 DUP3 ADD PUSH1 0x20 DUP4 MSTORE DUP1 DUP5 MLOAD DUP1 DUP4 MSTORE PUSH1 0x40 DUP6 ADD SWAP2 POP PUSH1 0x40 DUP2 PUSH1 0x5 SHL DUP7 ADD ADD SWAP3 POP PUSH1 0x20 DUP7 ADD PUSH0 JUMPDEST DUP3 DUP2 LT ISZERO PUSH2 0xE6E JUMPI PUSH1 0x3F NOT DUP8 DUP7 SUB ADD DUP5 MSTORE DUP2 MLOAD PUSH1 0x1 DUP1 PUSH1 0xA0 SHL SUB DUP2 MLOAD AND DUP7 MSTORE PUSH1 0x1 PUSH1 0x1 PUSH1 0x80 SHL SUB PUSH1 0x20 DUP3 ADD MLOAD AND PUSH1 0x20 DUP8 ADD MSTORE PUSH1 0xFF PUSH1 0x40 DUP3 ADD MLOAD AND PUSH1 0x40 DUP8 ADD MSTORE PUSH1 0x60 DUP2 ADD MLOAD PUSH1 0xA0 PUSH1 0x60 DUP9 ADD MSTORE PUSH2 0xE42 PUSH1 0xA0 DUP9 ADD DUP3 PUSH2 0xD96 JUMP JUMPDEST PUSH1 0x80 SWAP3 DUP4 ADD MLOAD PUSH1 0x1 PUSH1 0x1 PUSH1 0x80 SHL SUB AND SWAP8 SWAP1 SWAP3 ADD SWAP7 SWAP1 SWAP7 MSTORE SWAP5 POP PUSH1 0x20 SWAP4 DUP5 ADD SWAP4 SWAP2 SWAP1 SWAP2 ADD SWAP1 PUSH1 0x1 ADD PUSH2 0xDEA JUMP JUMPDEST POP SWAP3 SWAP7 SWAP6 POP POP POP POP POP POP JUMP JUMPDEST PUSH0 PUSH0 PUSH1 0x40 DUP4 DUP6 SUB SLT ISZERO PUSH2 0xE8B JUMPI PUSH0 PUSH0 REVERT JUMPDEST PUSH2 0xE94 DUP4 PUSH2 0xCE8 JUMP JUMPDEST SWAP5 PUSH1 0x20 SWAP4 SWAP1 SWAP4 ADD CALLDATALOAD SWAP4 POP POP POP JUMP JUMPDEST PUSH1 0x1 PUSH1 0x1 PUSH1 0xA0 SHL SUB DUP7 AND DUP2 MSTORE PUSH1 0x1 PUSH1 0x1 PUSH1 0x80 SHL SUB DUP6 AND PUSH1 0x20 DUP3 ADD MSTORE PUSH1 0xFF DUP5 AND PUSH1 0x40 DUP3 ADD MSTORE PUSH1 0xA0 PUSH1 0x60 DUP3 ADD DUP2 SWAP1 MSTORE PUSH0 SWAP1 PUSH2 0xEDD SWAP1 DUP4 ADD DUP6 PUSH2 0xD96 JUMP JUMPDEST SWAP1 POP PUSH1 0x1 PUSH1 0x1 PUSH1 0x80 SHL SUB DUP4 AND PUSH1 0x80 DUP4 ADD MSTORE SWAP7 SWAP6 POP POP POP POP POP POP JUMP JUMPDEST PUSH4 0x4E487B71 PUSH1 0xE0 SHL PUSH0 MSTORE PUSH1 0x41 PUSH1 0x4 MSTORE PUSH1 0x24 PUSH0 REVERT JUMPDEST PUSH0 PUSH0 PUSH0 PUSH0 PUSH1 0x80 DUP6 DUP8 SUB SLT ISZERO PUSH2 0xF1F JUMPI PUSH0 PUSH0 REVERT JUMPDEST PUSH2 0xF28 DUP6 PUSH2 0xCAD JUMP JUMPDEST SWAP4 POP PUSH2 0xF36 PUSH1 0x20 DUP7 ADD PUSH2 0xCE8 JUMP JUMPDEST SWAP3 POP PUSH1 0x40 DUP6 ADD CALLDATALOAD PUSH1 0xFF DUP2 AND DUP2 EQ PUSH2 0xF4B JUMPI PUSH0 PUSH0 REVERT JUMPDEST SWAP2 POP PUSH1 0x60 DUP6 ADD CALLDATALOAD PUSH8 0xFFFFFFFFFFFFFFFF DUP2 GT ISZERO PUSH2 0xF66 JUMPI PUSH0 PUSH0 REVERT JUMPDEST DUP6 ADD PUSH1 0x1F DUP2 ADD DUP8 SGT PUSH2 0xF76 JUMPI PUSH0 PUSH0 REVERT JUMPDEST DUP1 CALLDATALOAD PUSH8 0xFFFFFFFFFFFFFFFF DUP2 GT ISZERO PUSH2 0xF90 JUMPI PUSH2 0xF90 PUSH2 0xEF8 JUMP JUMPDEST PUSH1 0x40 MLOAD PUSH1 0x1F DUP3 ADD PUSH1 0x1F NOT SWAP1 DUP2 AND PUSH1 0x3F ADD AND DUP2 ADD PUSH8 0xFFFFFFFFFFFFFFFF DUP2 GT DUP3 DUP3 LT OR ISZERO PUSH2 0xFBF JUMPI PUSH2 0xFBF PUSH2 0xEF8 JUMP JUMPDEST PUSH1 0x40 MSTORE DUP2 DUP2 MSTORE DUP3 DUP3 ADD PUSH1 0x20 ADD DUP10 LT ISZERO PUSH2 0xFD6 JUMPI PUSH0 PUSH0 REVERT JUMPDEST DUP2 PUSH1 0x20 DUP5 ADD PUSH1 0x20 DUP4 ADD CALLDATACOPY PUSH0 PUSH1 0x20 DUP4 DUP4 ADD ADD MSTORE DUP1 SWAP4 POP POP POP POP SWAP3 SWAP6 SWAP2 SWAP5 POP SWAP3 POP JUMP JUMPDEST PUSH1 0x1 DUP2 DUP2 SHR SWAP1 DUP3 AND DUP1 PUSH2 0x100B JUMPI PUSH1 0x7F DUP3 AND SWAP2 POP JUMPDEST PUSH1 0x20 DUP3 LT DUP2 SUB PUSH2 0x1029 JUMPI PUSH4 0x4E487B71 PUSH1 0xE0 SHL PUSH0 MSTORE PUSH1 0x22 PUSH1 0x4 MSTORE PUSH1 0x24 PUSH0 REVERT JUMPDEST POP SWAP2 SWAP1 POP JUMP JUMPDEST PUSH0 PUSH1 0x20 DUP3 DUP5 SUB SLT ISZERO PUSH2 0x103F JUMPI PUSH0 PUSH0 REVERT JUMPDEST DUP2 MLOAD DUP1 ISZERO ISZERO DUP2 EQ PUSH2 0xCE1 JUMPI PUSH0 PUSH0 REVERT JUMPDEST PUSH1 0x1F DUP3 GT ISZERO PUSH2 0x1095 JUMPI DUP1 PUSH0 MSTORE PUSH1 0x20 PUSH0 KECCAK256 PUSH1 0x1F DUP5 ADD PUSH1 0x5 SHR DUP2 ADD PUSH1 0x20 DUP6 LT ISZERO PUSH2 0x1073 JUMPI POP DUP1 JUMPDEST PUSH1 0x1F DUP5 ADD PUSH1 0x5 SHR DUP3 ADD SWAP2 POP JUMPDEST DUP2 DUP2 LT ISZERO PUSH2 0x1092 JUMPI PUSH0 DUP2 SSTORE PUSH1 0x1 ADD PUSH2 0x107F JUMP JUMPDEST POP POP JUMPDEST POP POP POP JUMP JUMPDEST DUP2 MLOAD PUSH8 0xFFFFFFFFFFFFFFFF DUP2 GT ISZERO PUSH2 0x10B4 JUMPI PUSH2 0x10B4 PUSH2 0xEF8 JUMP JUMPDEST PUSH2 0x10C8 DUP2 PUSH2 0x10C2 DUP5 SLOAD PUSH2 0xFF7 JUMP JUMPDEST DUP5 PUSH2 0x104E JUMP JUMPDEST PUSH1 0x20 PUSH1 0x1F DUP3 GT PUSH1 0x1 DUP2 EQ PUSH2 0x10FA JUMPI PUSH0 DUP4 ISZERO PUSH2 0x10E3 JUMPI POP DUP5 DUP3 ADD MLOAD JUMPDEST PUSH0 NOT PUSH1 0x3 DUP6 SWAP1 SHL SHR NOT AND PUSH1 0x1 DUP5 SWAP1 SHL OR DUP5 SSTORE PUSH2 0x1092 JUMP JUMPDEST PUSH0 DUP5 DUP2 MSTORE PUSH1 0x20 DUP2 KECCAK256 PUSH1 0x1F NOT DUP6 AND SWAP2 JUMPDEST DUP3 DUP2 LT ISZERO PUSH2 0x1129 JUMPI DUP8 DUP6 ADD MLOAD DUP3 SSTORE PUSH1 0x20 SWAP5 DUP6 ADD SWAP5 PUSH1 0x1 SWAP1 SWAP3 ADD SWAP2 ADD PUSH2 0x1109 JUMP JUMPDEST POP DUP5 DUP3 LT ISZERO PUSH2 0x1146 JUMPI DUP7 DUP5 ADD MLOAD PUSH0 NOT PUSH1 0x3 DUP8 SWAP1 SHL PUSH1 0xF8 AND SHR NOT AND DUP2 SSTORE JUMPDEST POP POP POP POP PUSH1 0x1 SWAP1 DUP2 SHL ADD SWAP1 SSTORE POP JUMP JUMPDEST PUSH1 0xFF DUP4 AND DUP2 MSTORE PUSH1 0x40 PUSH1 0x20 DUP3 ADD MSTORE PUSH0 PUSH2 0x1170 PUSH1 0x40 DUP4 ADD DUP5 PUSH2 0xD96 JUMP JUMPDEST SWAP5 SWAP4 POP POP POP POP JUMP INVALID LOG2 PUSH5 0x6970667358 0x22 SLT KECCAK256 PUSH32 0x76AC172563782B195A6656DB87FD814274100AB357B1E38B5F6FB13AA5B10D64 PUSH20 0x6F6C634300081E00330000000000000000000000 "
				},
				"gasEstimates": {
					"creation": {
						"codeDepositCost": "905200",
						"executionCost": "940",
						"totalCost": "906140"
					},
					"external": {
						"addMeAsCustomer()": "26682",
						"addStaff(address,uint8,uint128)": "infinite",
						"foodApp()": "2403",
						"getReviews(uint128)": "infinite",
						"initialize(address)": "infinite",
						"owner()": "2441",
						"rateRestaurant(address,uint128,uint8,string)": "infinite",
						"renounceOwnership()": "infinite",
						"restaurantReviews(uint128,uint256)": "infinite",
						"roles(address)": "2572",
						"staffRestaurants(address)": "2545",
						"transferOwnership(address)": "28475"
					}
				},
				"methodIdentifiers": {
					"addMeAsCustomer()": "338974df",
					"addStaff(address,uint8,uint128)": "4c9a4a06",
					"foodApp()": "6e92ae52",
					"getReviews(uint128)": "bcc1367c",
					"initialize(address)": "c4d66de8",
					"owner()": "8da5cb5b",
					"rateRestaurant(address,uint128,uint8,string)": "df808ac5",
					"renounceOwnership()": "715018a6",
					"restaurantReviews(uint128,uint256)": "cf120a5b",
					"roles(address)": "99374642",
					"staffRestaurants(address)": "2d3238fe",
					"transferOwnership(address)": "f2fde38b"
				}
			},
			"storageLayout": {
				"storage": [
					{
						"astId": 521,
						"contract": "contracts/ReviewManager.sol:ReviewManager",
						"label": "roles",
						"offset": 0,
						"slot": "0",
						"type": "t_mapping(t_address,t_enum(Role)516)"
					},
					{
						"astId": 525,
						"contract": "contracts/ReviewManager.sol:ReviewManager",
						"label": "staffRestaurants",
						"offset": 0,
						"slot": "1",
						"type": "t_mapping(t_address,t_uint128)"
					},
					{
						"astId": 527,
						"contract": "contracts/ReviewManager.sol:ReviewManager",
						"label": "foodApp",
						"offset": 0,
						"slot": "2",
						"type": "t_address"
					},
					{
						"astId": 728,
						"contract": "contracts/ReviewManager.sol:ReviewManager",
						"label": "restaurantReviews",
						"offset": 0,
						"slot": "3",
						"type": "t_mapping(t_uint128,t_array(t_struct(Review)991_storage)dyn_storage)"
					}
				],
				"types": {
					"t_address": {
						"encoding": "inplace",
						"label": "address",
						"numberOfBytes": "20"
					},
					"t_array(t_struct(Review)991_storage)dyn_storage": {
						"base": "t_struct(Review)991_storage",
						"encoding": "dynamic_array",
						"label": "struct Review[]",
						"numberOfBytes": "32"
					},
					"t_enum(Role)516": {
						"encoding": "inplace",
						"label": "enum RoleAccess.Role",
						"numberOfBytes": "1"
					},
					"t_mapping(t_address,t_enum(Role)516)": {
						"encoding": "mapping",
						"key": "t_address",
						"label": "mapping(address => enum RoleAccess.Role)",
						"numberOfBytes": "32",
						"value": "t_enum(Role)516"
					},
					"t_mapping(t_address,t_uint128)": {
						"encoding": "mapping",
						"key": "t_address",
						"label": "mapping(address => uint128)",
						"numberOfBytes": "32",
						"value": "t_uint128"
					},
					"t_mapping(t_uint128,t_array(t_struct(Review)991_storage)dyn_storage)": {
						"encoding": "mapping",
						"key": "t_uint128",
						"label": "mapping(uint128 => struct Review[])",
						"numberOfBytes": "32",
						"value": "t_array(t_struct(Review)991_storage)dyn_storage"
					},
					"t_string_storage": {
						"encoding": "bytes",
						"label": "string",
						"numberOfBytes": "32"
					},
					"t_struct(Review)991_storage": {
						"encoding": "inplace",
						"label": "struct Review",
						"members": [
							{
								"astId": 982,
								"contract": "contracts/ReviewManager.sol:ReviewManager",
								"label": "customer",
								"offset": 0,
								"slot": "0",
								"type": "t_address"
							},
							{
								"astId": 984,
								"contract": "contracts/ReviewManager.sol:ReviewManager",
								"label": "restaurantId",
								"offset": 0,
								"slot": "1",
								"type": "t_uint128"
							},
							{
								"astId": 986,
								"contract": "contracts/ReviewManager.sol:ReviewManager",
								"label": "rating",
								"offset": 16,
								"slot": "1",
								"type": "t_uint8"
							},
							{
								"astId": 988,
								"contract": "contracts/ReviewManager.sol:ReviewManager",
								"label": "comment",
								"offset": 0,
								"slot": "2",
								"type": "t_string_storage"
							},
							{
								"astId": 990,
								"contract": "contracts/ReviewManager.sol:ReviewManager",
								"label": "timestamp",
								"offset": 0,
								"slot": "3",
								"type": "t_uint128"
							}
						],
						"numberOfBytes": "128"
					},
					"t_uint128": {
						"encoding": "inplace",
						"label": "uint128",
						"numberOfBytes": "16"
					},
					"t_uint8": {
						"encoding": "inplace",
						"label": "uint8",
						"numberOfBytes": "1"
					}
				}
			},
			"userdoc": {
				"kind": "user",
				"methods": {},
				"version": 1
			}
		}
	}
}