{
	"access/RoleAccess.sol": {
		"RoleAccess": {
			"abi": [
				{
					"inputs": [],
					"name": "addMeAsCustomer",
					"outputs": [],
					"stateMutability": "nonpayable",
					"type": "function"
				},
				{
					"inputs": [
						{
							"internalType": "address",
							"name": "staff",
							"type": "address"
						},
						{
							"internalType": "enum RoleAccess.Role",
							"name": "role",
							"type": "uint8"
						},
						{
							"internalType": "uint128",
							"name": "restaurantId",
							"type": "uint128"
						}
					],
					"name": "addStaff",
					"outputs": [],
					"stateMutability": "nonpayable",
					"type": "function"
				},
				{
					"inputs": [],
					"name": "foodApp",
					"outputs": [
						{
							"internalType": "address",
							"name": "",
							"type": "address"
						}
					],
					"stateMutability": "view",
					"type": "function"
				},
				{
					"inputs": [
						{
							"internalType": "address",
							"name": "",
							"type": "address"
						}
					],
					"name": "roles",
					"outputs": [
						{
							"internalType": "enum RoleAccess.Role",
							"name": "",
							"type": "uint8"
						}
					],
					"stateMutability": "view",
					"type": "function"
				},
				{
					"inputs": [
						{
							"internalType": "address",
							"name": "",
							"type": "address"
						}
					],
					"name": "staffRestaurants",
					"outputs": [
						{
							"internalType": "uint128",
							"name": "",
							"type": "uint128"
						}
					],
					"stateMutability": "view",
					"type": "function"
				}
			],
			"devdoc": {
				"kind": "dev",
				"methods": {},
				"version": 1
			},
			"evm": {
				"assembly": "    /* \"access/RoleAccess.sol\":61:1529  contract RoleAccess {... */\n  mstore(0x40, 0x80)\n  callvalue\n  dup1\n  iszero\n  tag_1\n  jumpi\n  revert(0x00, 0x00)\ntag_1:\n  pop\n  dataSize(sub_0)\n  dup1\n  dataOffset(sub_0)\n  0x00\n  codecopy\n  0x00\n  return\nstop\n\nsub_0: assembly {\n        /* \"access/RoleAccess.sol\":61:1529  contract RoleAccess {... */\n      mstore(0x40, 0x80)\n      callvalue\n      dup1\n      iszero\n      tag_1\n      jumpi\n      revert(0x00, 0x00)\n    tag_1:\n      pop\n      jumpi(tag_2, lt(calldatasize, 0x04))\n      shr(0xe0, calldataload(0x00))\n      dup1\n      0x2d3238fe\n      eq\n      tag_3\n      jumpi\n      dup1\n      0x338974df\n      eq\n      tag_4\n      jumpi\n      dup1\n      0x4c9a4a06\n      eq\n      tag_5\n      jumpi\n      dup1\n      0x6e92ae52\n      eq\n      tag_6\n      jumpi\n      dup1\n      0x99374642\n      eq\n      tag_7\n      jumpi\n    tag_2:\n      revert(0x00, 0x00)\n        /* \"access/RoleAccess.sol\":185:236  mapping(address => uint128) public staffRestaurants */\n    tag_3:\n      tag_8\n      tag_9\n      calldatasize\n      0x04\n      tag_10\n      jump\t// in\n    tag_9:\n      mstore(0x20, 0x01)\n      0x00\n      swap1\n      dup2\n      mstore\n      0x40\n      swap1\n      keccak256\n      sload\n      sub(shl(0x80, 0x01), 0x01)\n      and\n      dup2\n      jump\n    tag_8:\n      mload(0x40)\n      sub(shl(0x80, 0x01), 0x01)\n        /* \"#utility.yul\":547:594   */\n      swap1\n      swap2\n      and\n        /* \"#utility.yul\":529:595   */\n      dup2\n      mstore\n        /* \"#utility.yul\":517:519   */\n      0x20\n        /* \"#utility.yul\":502:520   */\n      add\n        /* \"access/RoleAccess.sol\":185:236  mapping(address => uint128) public staffRestaurants */\n    tag_12:\n      mload(0x40)\n      dup1\n      swap2\n      sub\n      swap1\n      return\n        /* \"access/RoleAccess.sol\":988:1151  function addMeAsCustomer() external {... */\n    tag_4:\n      tag_14\n      tag_15\n      jump\t// in\n    tag_14:\n      stop\n        /* \"access/RoleAccess.sol\":1159:1526  function addStaff(address staff, Role role, uint128 restaurantId) external {... */\n    tag_5:\n      tag_14\n      tag_17\n      calldatasize\n      0x04\n      tag_18\n      jump\t// in\n    tag_17:\n      tag_19\n      jump\t// in\n        /* \"access/RoleAccess.sol\":245:267  address public foodApp */\n    tag_6:\n      sload(0x02)\n      tag_20\n      swap1\n      sub(shl(0xa0, 0x01), 0x01)\n      and\n      dup2\n      jump\n    tag_20:\n      mload(0x40)\n      sub(shl(0xa0, 0x01), 0x01)\n        /* \"#utility.yul\":1310:1342   */\n      swap1\n      swap2\n      and\n        /* \"#utility.yul\":1292:1343   */\n      dup2\n      mstore\n        /* \"#utility.yul\":1280:1282   */\n      0x20\n        /* \"#utility.yul\":1265:1283   */\n      add\n        /* \"access/RoleAccess.sol\":245:267  address public foodApp */\n      tag_12\n        /* \"#utility.yul\":1146:1349   */\n      jump\n        /* \"access/RoleAccess.sol\":141:178  mapping(address => Role) public roles */\n    tag_7:\n      tag_24\n      tag_25\n      calldatasize\n      0x04\n      tag_10\n      jump\t// in\n    tag_25:\n      0x00\n      0x20\n      dup2\n      swap1\n      mstore\n      swap1\n      dup2\n      mstore\n      0x40\n      swap1\n      keccak256\n      sload\n      0xff\n      and\n      dup2\n      jump\n    tag_24:\n      mload(0x40)\n      tag_12\n      swap2\n      swap1\n      tag_28\n      jump\t// in\n        /* \"access/RoleAccess.sol\":988:1151  function addMeAsCustomer() external {... */\n    tag_15:\n        /* \"access/RoleAccess.sol\":1049:1059  msg.sender */\n      caller\n        /* \"access/RoleAccess.sol\":1064:1073  Role.None */\n      0x00\n        /* \"access/RoleAccess.sol\":1043:1060  roles[msg.sender] */\n      swap1\n      dup2\n      mstore\n      0x20\n      dup2\n      swap1\n      mstore\n      0x40\n      dup2\n      keccak256\n      sload\n      0xff\n      and\n        /* \"access/RoleAccess.sol\":1043:1073  roles[msg.sender] == Role.None */\n      0x04\n      dup2\n      gt\n      iszero\n      tag_34\n      jumpi\n      tag_34\n      tag_32\n      jump\t// in\n    tag_34:\n      eq\n        /* \"access/RoleAccess.sol\":1035:1099  require(roles[msg.sender] == Role.None, \"Role already assigned\") */\n      tag_35\n      jumpi\n      mload(0x40)\n      shl(0xe5, 0x461bcd)\n      dup2\n      mstore\n        /* \"#utility.yul\":2029:2031   */\n      0x20\n        /* \"access/RoleAccess.sol\":1035:1099  require(roles[msg.sender] == Role.None, \"Role already assigned\") */\n      0x04\n      dup3\n      add\n        /* \"#utility.yul\":2011:2032   */\n      mstore\n        /* \"#utility.yul\":2068:2070   */\n      0x15\n        /* \"#utility.yul\":2048:2066   */\n      0x24\n      dup3\n      add\n        /* \"#utility.yul\":2041:2071   */\n      mstore\n      shl(0x5a, 0x149bdb1948185b1c9958591e48185cdcda59db9959)\n        /* \"#utility.yul\":2087:2105   */\n      0x44\n      dup3\n      add\n        /* \"#utility.yul\":2080:2131   */\n      mstore\n        /* \"#utility.yul\":2148:2166   */\n      0x64\n      add\n        /* \"access/RoleAccess.sol\":1035:1099  require(roles[msg.sender] == Role.None, \"Role already assigned\") */\n    tag_36:\n      mload(0x40)\n      dup1\n      swap2\n      sub\n      swap1\n      revert\n    tag_35:\n        /* \"access/RoleAccess.sol\":1116:1126  msg.sender */\n      caller\n        /* \"access/RoleAccess.sol\":1110:1115  roles */\n      0x00\n        /* \"access/RoleAccess.sol\":1110:1127  roles[msg.sender] */\n      swap1\n      dup2\n      mstore\n      0x20\n      dup2\n      swap1\n      mstore\n      0x40\n      swap1\n      keccak256\n        /* \"access/RoleAccess.sol\":1110:1143  roles[msg.sender] = Role.Customer */\n      dup1\n      sload\n      not(0xff)\n      and\n        /* \"access/RoleAccess.sol\":1130:1143  Role.Customer */\n      0x02\n        /* \"access/RoleAccess.sol\":1110:1143  roles[msg.sender] = Role.Customer */\n      or\n      swap1\n      sstore\n        /* \"access/RoleAccess.sol\":988:1151  function addMeAsCustomer() external {... */\n      jump\t// out\n        /* \"access/RoleAccess.sol\":1159:1526  function addStaff(address staff, Role role, uint128 restaurantId) external {... */\n    tag_19:\n        /* \"access/RoleAccess.sol\":1267:1274  foodApp */\n      and(sub(shl(0xa0, 0x01), 0x01), sload(0x02))\n        /* \"access/RoleAccess.sol\":1253:1263  msg.sender */\n      caller\n        /* \"access/RoleAccess.sol\":1253:1274  msg.sender == foodApp */\n      eq\n        /* \"access/RoleAccess.sol\":1245:1291  require(msg.sender == foodApp, \"Only FoodApp\") */\n      tag_41\n      jumpi\n      mload(0x40)\n      shl(0xe5, 0x461bcd)\n      dup2\n      mstore\n        /* \"#utility.yul\":2379:2381   */\n      0x20\n        /* \"access/RoleAccess.sol\":1245:1291  require(msg.sender == foodApp, \"Only FoodApp\") */\n      0x04\n      dup3\n      add\n        /* \"#utility.yul\":2361:2382   */\n      mstore\n        /* \"#utility.yul\":2418:2420   */\n      0x0c\n        /* \"#utility.yul\":2398:2416   */\n      0x24\n      dup3\n      add\n        /* \"#utility.yul\":2391:2421   */\n      mstore\n      shl(0xa4, 0x04f6e6c7920466f6f6441707)\n        /* \"#utility.yul\":2437:2455   */\n      0x44\n      dup3\n      add\n        /* \"#utility.yul\":2430:2472   */\n      mstore\n        /* \"#utility.yul\":2489:2507   */\n      0x64\n      add\n        /* \"access/RoleAccess.sol\":1245:1291  require(msg.sender == foodApp, \"Only FoodApp\") */\n      tag_36\n        /* \"#utility.yul\":2177:2513   */\n      jump\n        /* \"access/RoleAccess.sol\":1245:1291  require(msg.sender == foodApp, \"Only FoodApp\") */\n    tag_41:\n        /* \"access/RoleAccess.sol\":1318:1326  Role.FOH */\n      0x03\n        /* \"access/RoleAccess.sol\":1310:1314  role */\n      dup3\n        /* \"access/RoleAccess.sol\":1310:1326  role == Role.FOH */\n      0x04\n      dup2\n      gt\n      iszero\n      tag_47\n      jumpi\n      tag_47\n      tag_32\n      jump\t// in\n    tag_47:\n      eq\n        /* \"access/RoleAccess.sol\":1310:1346  role == Role.FOH || role == Role.BOH */\n      dup1\n      tag_48\n      jumpi\n      pop\n        /* \"access/RoleAccess.sol\":1338:1346  Role.BOH */\n      0x04\n        /* \"access/RoleAccess.sol\":1330:1334  role */\n      dup3\n        /* \"access/RoleAccess.sol\":1330:1346  role == Role.BOH */\n      0x04\n      dup2\n      gt\n      iszero\n      tag_52\n      jumpi\n      tag_52\n      tag_32\n      jump\t// in\n    tag_52:\n      eq\n        /* \"access/RoleAccess.sol\":1310:1346  role == Role.FOH || role == Role.BOH */\n    tag_48:\n        /* \"access/RoleAccess.sol\":1302:1369  require(role == Role.FOH || role == Role.BOH, \"Invalid staff role\") */\n      tag_53\n      jumpi\n      mload(0x40)\n      shl(0xe5, 0x461bcd)\n      dup2\n      mstore\n        /* \"#utility.yul\":2720:2722   */\n      0x20\n        /* \"access/RoleAccess.sol\":1302:1369  require(role == Role.FOH || role == Role.BOH, \"Invalid staff role\") */\n      0x04\n      dup3\n      add\n        /* \"#utility.yul\":2702:2723   */\n      mstore\n        /* \"#utility.yul\":2759:2761   */\n      0x12\n        /* \"#utility.yul\":2739:2757   */\n      0x24\n      dup3\n      add\n        /* \"#utility.yul\":2732:2762   */\n      mstore\n      shl(0x70, 0x496e76616c696420737461666620726f6c65)\n        /* \"#utility.yul\":2778:2796   */\n      0x44\n      dup3\n      add\n        /* \"#utility.yul\":2771:2819   */\n      mstore\n        /* \"#utility.yul\":2836:2854   */\n      0x64\n      add\n        /* \"access/RoleAccess.sol\":1302:1369  require(role == Role.FOH || role == Role.BOH, \"Invalid staff role\") */\n      tag_36\n        /* \"#utility.yul\":2518:2860   */\n      jump\n        /* \"access/RoleAccess.sol\":1302:1369  require(role == Role.FOH || role == Role.BOH, \"Invalid staff role\") */\n    tag_53:\n      sub(shl(0xa0, 0x01), 0x01)\n        /* \"access/RoleAccess.sol\":1388:1400  roles[staff] */\n      dup4\n      and\n        /* \"access/RoleAccess.sol\":1404:1413  Role.None */\n      0x00\n        /* \"access/RoleAccess.sol\":1388:1400  roles[staff] */\n      swap1\n      dup2\n      mstore\n      0x20\n      dup2\n      swap1\n      mstore\n      0x40\n      dup2\n      keccak256\n      sload\n      0xff\n      and\n        /* \"access/RoleAccess.sol\":1388:1413  roles[staff] == Role.None */\n      0x04\n      dup2\n      gt\n      iszero\n      tag_59\n      jumpi\n      tag_59\n      tag_32\n      jump\t// in\n    tag_59:\n      eq\n        /* \"access/RoleAccess.sol\":1380:1439  require(roles[staff] == Role.None, \"Role already assigned\") */\n      tag_60\n      jumpi\n      mload(0x40)\n      shl(0xe5, 0x461bcd)\n      dup2\n      mstore\n        /* \"#utility.yul\":2029:2031   */\n      0x20\n        /* \"access/RoleAccess.sol\":1380:1439  require(roles[staff] == Role.None, \"Role already assigned\") */\n      0x04\n      dup3\n      add\n        /* \"#utility.yul\":2011:2032   */\n      mstore\n        /* \"#utility.yul\":2068:2070   */\n      0x15\n        /* \"#utility.yul\":2048:2066   */\n      0x24\n      dup3\n      add\n        /* \"#utility.yul\":2041:2071   */\n      mstore\n      shl(0x5a, 0x149bdb1948185b1c9958591e48185cdcda59db9959)\n        /* \"#utility.yul\":2087:2105   */\n      0x44\n      dup3\n      add\n        /* \"#utility.yul\":2080:2131   */\n      mstore\n        /* \"#utility.yul\":2148:2166   */\n      0x64\n      add\n        /* \"access/RoleAccess.sol\":1380:1439  require(roles[staff] == Role.None, \"Role already assigned\") */\n      tag_36\n        /* \"#utility.yul\":1827:2172   */\n      jump\n        /* \"access/RoleAccess.sol\":1380:1439  require(roles[staff] == Role.None, \"Role already assigned\") */\n    tag_60:\n      sub(shl(0xa0, 0x01), 0x01)\n        /* \"access/RoleAccess.sol\":1450:1462  roles[staff] */\n      dup4\n      and\n        /* \"access/RoleAccess.sol\":1450:1455  roles */\n      0x00\n        /* \"access/RoleAccess.sol\":1450:1462  roles[staff] */\n      swap1\n      dup2\n      mstore\n      0x20\n      dup2\n      swap1\n      mstore\n      0x40\n      swap1\n      keccak256\n        /* \"access/RoleAccess.sol\":1450:1469  roles[staff] = role */\n      dup1\n      sload\n        /* \"access/RoleAccess.sol\":1465:1469  role */\n      dup4\n      swap2\n        /* \"access/RoleAccess.sol\":1450:1462  roles[staff] */\n      swap1\n      not(0xff)\n        /* \"access/RoleAccess.sol\":1450:1469  roles[staff] = role */\n      and\n      0x01\n        /* \"access/RoleAccess.sol\":1465:1469  role */\n      dup4\n        /* \"access/RoleAccess.sol\":1450:1469  roles[staff] = role */\n      0x04\n      dup2\n      gt\n      iszero\n      tag_63\n      jumpi\n      tag_63\n      tag_32\n      jump\t// in\n    tag_63:\n      mul\n      or\n      swap1\n      sstore\n      pop\n      sub(shl(0xa0, 0x01), 0x01)\n        /* \"access/RoleAccess.sol\":1480:1503  staffRestaurants[staff] */\n      swap3\n      swap1\n      swap3\n      and\n      0x00\n      swap1\n      dup2\n      mstore\n        /* \"access/RoleAccess.sol\":1480:1496  staffRestaurants */\n      0x01\n        /* \"access/RoleAccess.sol\":1480:1503  staffRestaurants[staff] */\n      0x20\n      mstore\n      0x40\n      swap1\n      keccak256\n        /* \"access/RoleAccess.sol\":1480:1518  staffRestaurants[staff] = restaurantId */\n      dup1\n      sload\n      not(0xffffffffffffffffffffffffffffffff)\n      and\n      sub(shl(0x80, 0x01), 0x01)\n      swap1\n      swap4\n      and\n      swap3\n      swap1\n      swap3\n      or\n      swap1\n      swap2\n      sstore\n      pop\n        /* \"access/RoleAccess.sol\":1159:1526  function addStaff(address staff, Role role, uint128 restaurantId) external {... */\n      jump\t// out\n        /* \"#utility.yul\":14:187   */\n    tag_64:\n        /* \"#utility.yul\":82:102   */\n      dup1\n      calldataload\n      sub(shl(0xa0, 0x01), 0x01)\n        /* \"#utility.yul\":131:162   */\n      dup2\n      and\n        /* \"#utility.yul\":121:163   */\n      dup2\n      eq\n        /* \"#utility.yul\":111:181   */\n      tag_67\n      jumpi\n        /* \"#utility.yul\":177:178   */\n      0x00\n        /* \"#utility.yul\":174:175   */\n      0x00\n        /* \"#utility.yul\":167:179   */\n      revert\n        /* \"#utility.yul\":111:181   */\n    tag_67:\n        /* \"#utility.yul\":14:187   */\n      swap2\n      swap1\n      pop\n      jump\t// out\n        /* \"#utility.yul\":192:378   */\n    tag_10:\n        /* \"#utility.yul\":251:257   */\n      0x00\n        /* \"#utility.yul\":304:306   */\n      0x20\n        /* \"#utility.yul\":292:301   */\n      dup3\n        /* \"#utility.yul\":283:290   */\n      dup5\n        /* \"#utility.yul\":279:302   */\n      sub\n        /* \"#utility.yul\":275:307   */\n      slt\n        /* \"#utility.yul\":272:324   */\n      iszero\n      tag_69\n      jumpi\n        /* \"#utility.yul\":320:321   */\n      0x00\n        /* \"#utility.yul\":317:318   */\n      0x00\n        /* \"#utility.yul\":310:322   */\n      revert\n        /* \"#utility.yul\":272:324   */\n    tag_69:\n        /* \"#utility.yul\":343:372   */\n      tag_70\n        /* \"#utility.yul\":362:371   */\n      dup3\n        /* \"#utility.yul\":343:372   */\n      tag_64\n      jump\t// in\n    tag_70:\n        /* \"#utility.yul\":333:372   */\n      swap4\n        /* \"#utility.yul\":192:378   */\n      swap3\n      pop\n      pop\n      pop\n      jump\t// out\n        /* \"#utility.yul\":606:1141   */\n    tag_18:\n        /* \"#utility.yul\":691:697   */\n      0x00\n        /* \"#utility.yul\":699:705   */\n      0x00\n        /* \"#utility.yul\":707:713   */\n      0x00\n        /* \"#utility.yul\":760:762   */\n      0x60\n        /* \"#utility.yul\":748:757   */\n      dup5\n        /* \"#utility.yul\":739:746   */\n      dup7\n        /* \"#utility.yul\":735:758   */\n      sub\n        /* \"#utility.yul\":731:763   */\n      slt\n        /* \"#utility.yul\":728:780   */\n      iszero\n      tag_73\n      jumpi\n        /* \"#utility.yul\":776:777   */\n      0x00\n        /* \"#utility.yul\":773:774   */\n      0x00\n        /* \"#utility.yul\":766:778   */\n      revert\n        /* \"#utility.yul\":728:780   */\n    tag_73:\n        /* \"#utility.yul\":799:828   */\n      tag_74\n        /* \"#utility.yul\":818:827   */\n      dup5\n        /* \"#utility.yul\":799:828   */\n      tag_64\n      jump\t// in\n    tag_74:\n        /* \"#utility.yul\":789:828   */\n      swap3\n      pop\n        /* \"#utility.yul\":878:880   */\n      0x20\n        /* \"#utility.yul\":867:876   */\n      dup5\n        /* \"#utility.yul\":863:881   */\n      add\n        /* \"#utility.yul\":850:882   */\n      calldataload\n        /* \"#utility.yul\":911:912   */\n      0x05\n        /* \"#utility.yul\":904:909   */\n      dup2\n        /* \"#utility.yul\":901:913   */\n      lt\n        /* \"#utility.yul\":891:931   */\n      tag_75\n      jumpi\n        /* \"#utility.yul\":927:928   */\n      0x00\n        /* \"#utility.yul\":924:925   */\n      0x00\n        /* \"#utility.yul\":917:929   */\n      revert\n        /* \"#utility.yul\":891:931   */\n    tag_75:\n        /* \"#utility.yul\":950:955   */\n      swap2\n      pop\n        /* \"#utility.yul\":1007:1009   */\n      0x40\n        /* \"#utility.yul\":992:1010   */\n      dup5\n      add\n        /* \"#utility.yul\":979:1011   */\n      calldataload\n      sub(shl(0x80, 0x01), 0x01)\n        /* \"#utility.yul\":1042:1090   */\n      dup2\n      and\n        /* \"#utility.yul\":1030:1091   */\n      dup2\n      eq\n        /* \"#utility.yul\":1020:1109   */\n      tag_76\n      jumpi\n        /* \"#utility.yul\":1105:1106   */\n      0x00\n        /* \"#utility.yul\":1102:1103   */\n      0x00\n        /* \"#utility.yul\":1095:1107   */\n      revert\n        /* \"#utility.yul\":1020:1109   */\n    tag_76:\n        /* \"#utility.yul\":1128:1135   */\n      dup1\n        /* \"#utility.yul\":1118:1135   */\n      swap2\n      pop\n      pop\n        /* \"#utility.yul\":606:1141   */\n      swap3\n      pop\n      swap3\n      pop\n      swap3\n      jump\t// out\n        /* \"#utility.yul\":1354:1481   */\n    tag_32:\n        /* \"#utility.yul\":1415:1425   */\n      0x4e487b71\n        /* \"#utility.yul\":1410:1413   */\n      0xe0\n        /* \"#utility.yul\":1406:1426   */\n      shl\n        /* \"#utility.yul\":1403:1404   */\n      0x00\n        /* \"#utility.yul\":1396:1427   */\n      mstore\n        /* \"#utility.yul\":1446:1450   */\n      0x21\n        /* \"#utility.yul\":1443:1444   */\n      0x04\n        /* \"#utility.yul\":1436:1451   */\n      mstore\n        /* \"#utility.yul\":1470:1474   */\n      0x24\n        /* \"#utility.yul\":1467:1468   */\n      0x00\n        /* \"#utility.yul\":1460:1475   */\n      revert\n        /* \"#utility.yul\":1486:1822   */\n    tag_28:\n        /* \"#utility.yul\":1626:1628   */\n      0x20\n        /* \"#utility.yul\":1611:1629   */\n      dup2\n      add\n        /* \"#utility.yul\":1659:1660   */\n      0x05\n        /* \"#utility.yul\":1648:1661   */\n      dup4\n      lt\n        /* \"#utility.yul\":1638:1782   */\n      tag_80\n      jumpi\n        /* \"#utility.yul\":1704:1714   */\n      0x4e487b71\n        /* \"#utility.yul\":1699:1702   */\n      0xe0\n        /* \"#utility.yul\":1695:1715   */\n      shl\n        /* \"#utility.yul\":1692:1693   */\n      0x00\n        /* \"#utility.yul\":1685:1716   */\n      mstore\n        /* \"#utility.yul\":1739:1743   */\n      0x21\n        /* \"#utility.yul\":1736:1737   */\n      0x04\n        /* \"#utility.yul\":1729:1744   */\n      mstore\n        /* \"#utility.yul\":1767:1771   */\n      0x24\n        /* \"#utility.yul\":1764:1765   */\n      0x00\n        /* \"#utility.yul\":1757:1772   */\n      revert\n        /* \"#utility.yul\":1638:1782   */\n    tag_80:\n        /* \"#utility.yul\":1791:1816   */\n      swap2\n      swap1\n      mstore\n        /* \"#utility.yul\":1486:1822   */\n      swap1\n      jump\t// out\n\n    auxdata: 0xa2646970667358221220d0127e032aeb9efddb44f1f82dd0d7175209db74a45c889cc5ad6af97cf5b44964736f6c634300081e0033\n}\n",
				"bytecode": {
					"linkReferences": {},
					"object": "6080604052348015600e575f5ffd5b506104448061001c5f395ff3fe608060405234801561000f575f5ffd5b5060043610610055575f3560e01c80632d3238fe14610059578063338974df1461009e5780634c9a4a06146100a85780636e92ae52146100bb57806399374642146100e6575b5f5ffd5b610081610067366004610360565b60016020525f90815260409020546001600160801b031681565b6040516001600160801b0390911681526020015b60405180910390f35b6100a6610115565b005b6100a66100b6366004610380565b61019d565b6002546100ce906001600160a01b031681565b6040516001600160a01b039091168152602001610095565b6101086100f4366004610360565b5f6020819052908152604090205460ff1681565b60405161009591906103e8565b335f9081526020819052604081205460ff166004811115610138576101386103d4565b146101825760405162461bcd60e51b8152602060048201526015602482015274149bdb1948185b1c9958591e48185cdcda59db9959605a1b60448201526064015b60405180910390fd5b335f908152602081905260409020805460ff19166002179055565b6002546001600160a01b031633146101e65760405162461bcd60e51b815260206004820152600c60248201526b04f6e6c7920466f6f644170760a41b6044820152606401610179565b60038260048111156101fa576101fa6103d4565b148061021757506004826004811115610215576102156103d4565b145b6102585760405162461bcd60e51b8152602060048201526012602482015271496e76616c696420737461666620726f6c6560701b6044820152606401610179565b6001600160a01b0383165f9081526020819052604081205460ff166004811115610284576102846103d4565b146102c95760405162461bcd60e51b8152602060048201526015602482015274149bdb1948185b1c9958591e48185cdcda59db9959605a1b6044820152606401610179565b6001600160a01b0383165f908152602081905260409020805483919060ff191660018360048111156102fd576102fd6103d4565b02179055506001600160a01b03929092165f90815260016020526040902080546fffffffffffffffffffffffffffffffff19166001600160801b039093169290921790915550565b80356001600160a01b038116811461035b575f5ffd5b919050565b5f60208284031215610370575f5ffd5b61037982610345565b9392505050565b5f5f5f60608486031215610392575f5ffd5b61039b84610345565b92506020840135600581106103ae575f5ffd5b915060408401356001600160801b03811681146103c9575f5ffd5b809150509250925092565b634e487b7160e01b5f52602160045260245ffd5b602081016005831061040857634e487b7160e01b5f52602160045260245ffd5b9190529056fea2646970667358221220d0127e032aeb9efddb44f1f82dd0d7175209db74a45c889cc5ad6af97cf5b44964736f6c634300081e0033",
					"opcodes": "PUSH1 0x80 PUSH1 0x40 MSTORE CALLVALUE DUP1 ISZERO PUSH1 0xE JUMPI PUSH0 PUSH0 REVERT JUMPDEST POP PUSH2 0x444 DUP1 PUSH2 0x1C PUSH0 CODECOPY PUSH0 RETURN INVALID PUSH1 0x80 PUSH1 0x40 MSTORE CALLVALUE DUP1 ISZERO PUSH2 0xF JUMPI PUSH0 PUSH0 REVERT JUMPDEST POP PUSH1 0x4 CALLDATASIZE LT PUSH2 0x55 JUMPI PUSH0 CALLDATALOAD PUSH1 0xE0 SHR DUP1 PUSH4 0x2D3238FE EQ PUSH2 0x59 JUMPI DUP1 PUSH4 0x338974DF EQ PUSH2 0x9E JUMPI DUP1 PUSH4 0x4C9A4A06 EQ PUSH2 0xA8 JUMPI DUP1 PUSH4 0x6E92AE52 EQ PUSH2 0xBB JUMPI DUP1 PUSH4 0x99374642 EQ PUSH2 0xE6 JUMPI JUMPDEST PUSH0 PUSH0 REVERT JUMPDEST PUSH2 0x81 PUSH2 0x67 CALLDATASIZE PUSH1 0x4 PUSH2 0x360 JUMP JUMPDEST PUSH1 0x1 PUSH1 0x20 MSTORE PUSH0 SWAP1 DUP2 MSTORE PUSH1 0x40 SWAP1 KECCAK256 SLOAD PUSH1 0x1 PUSH1 0x1 PUSH1 0x80 SHL SUB AND DUP2 JUMP JUMPDEST PUSH1 0x40 MLOAD PUSH1 0x1 PUSH1 0x1 PUSH1 0x80 SHL SUB SWAP1 SWAP2 AND DUP2 MSTORE PUSH1 0x20 ADD JUMPDEST PUSH1 0x40 MLOAD DUP1 SWAP2 SUB SWAP1 RETURN JUMPDEST PUSH2 0xA6 PUSH2 0x115 JUMP JUMPDEST STOP JUMPDEST PUSH2 0xA6 PUSH2 0xB6 CALLDATASIZE PUSH1 0x4 PUSH2 0x380 JUMP JUMPDEST PUSH2 0x19D JUMP JUMPDEST PUSH1 0x2 SLOAD PUSH2 0xCE SWAP1 PUSH1 0x1 PUSH1 0x1 PUSH1 0xA0 SHL SUB AND DUP2 JUMP JUMPDEST PUSH1 0x40 MLOAD PUSH1 0x1 PUSH1 0x1 PUSH1 0xA0 SHL SUB SWAP1 SWAP2 AND DUP2 MSTORE PUSH1 0x20 ADD PUSH2 0x95 JUMP JUMPDEST PUSH2 0x108 PUSH2 0xF4 CALLDATASIZE PUSH1 0x4 PUSH2 0x360 JUMP JUMPDEST PUSH0 PUSH1 0x20 DUP2 SWAP1 MSTORE SWAP1 DUP2 MSTORE PUSH1 0x40 SWAP1 KECCAK256 SLOAD PUSH1 0xFF AND DUP2 JUMP JUMPDEST PUSH1 0x40 MLOAD PUSH2 0x95 SWAP2 SWAP1 PUSH2 0x3E8 JUMP JUMPDEST CALLER PUSH0 SWAP1 DUP2 MSTORE PUSH1 0x20 DUP2 SWAP1 MSTORE PUSH1 0x40 DUP2 KECCAK256 SLOAD PUSH1 0xFF AND PUSH1 0x4 DUP2 GT ISZERO PUSH2 0x138 JUMPI PUSH2 0x138 PUSH2 0x3D4 JUMP JUMPDEST EQ PUSH2 0x182 JUMPI PUSH1 0x40 MLOAD PUSH3 0x461BCD PUSH1 0xE5 SHL DUP2 MSTORE PUSH1 0x20 PUSH1 0x4 DUP3 ADD MSTORE PUSH1 0x15 PUSH1 0x24 DUP3 ADD MSTORE PUSH21 0x149BDB1948185B1C9958591E48185CDCDA59DB9959 PUSH1 0x5A SHL PUSH1 0x44 DUP3 ADD MSTORE PUSH1 0x64 ADD JUMPDEST PUSH1 0x40 MLOAD DUP1 SWAP2 SUB SWAP1 REVERT JUMPDEST CALLER PUSH0 SWAP1 DUP2 MSTORE PUSH1 0x20 DUP2 SWAP1 MSTORE PUSH1 0x40 SWAP1 KECCAK256 DUP1 SLOAD PUSH1 0xFF NOT AND PUSH1 0x2 OR SWAP1 SSTORE JUMP JUMPDEST PUSH1 0x2 SLOAD PUSH1 0x1 PUSH1 0x1 PUSH1 0xA0 SHL SUB AND CALLER EQ PUSH2 0x1E6 JUMPI PUSH1 0x40 MLOAD PUSH3 0x461BCD PUSH1 0xE5 SHL DUP2 MSTORE PUSH1 0x20 PUSH1 0x4 DUP3 ADD MSTORE PUSH1 0xC PUSH1 0x24 DUP3 ADD MSTORE PUSH12 0x4F6E6C7920466F6F6441707 PUSH1 0xA4 SHL PUSH1 0x44 DUP3 ADD MSTORE PUSH1 0x64 ADD PUSH2 0x179 JUMP JUMPDEST PUSH1 0x3 DUP3 PUSH1 0x4 DUP2 GT ISZERO PUSH2 0x1FA JUMPI PUSH2 0x1FA PUSH2 0x3D4 JUMP JUMPDEST EQ DUP1 PUSH2 0x217 JUMPI POP PUSH1 0x4 DUP3 PUSH1 0x4 DUP2 GT ISZERO PUSH2 0x215 JUMPI PUSH2 0x215 PUSH2 0x3D4 JUMP JUMPDEST EQ JUMPDEST PUSH2 0x258 JUMPI PUSH1 0x40 MLOAD PUSH3 0x461BCD PUSH1 0xE5 SHL DUP2 MSTORE PUSH1 0x20 PUSH1 0x4 DUP3 ADD MSTORE PUSH1 0x12 PUSH1 0x24 DUP3 ADD MSTORE PUSH18 0x496E76616C696420737461666620726F6C65 PUSH1 0x70 SHL PUSH1 0x44 DUP3 ADD MSTORE PUSH1 0x64 ADD PUSH2 0x179 JUMP JUMPDEST PUSH1 0x1 PUSH1 0x1 PUSH1 0xA0 SHL SUB DUP4 AND PUSH0 SWAP1 DUP2 MSTORE PUSH1 0x20 DUP2 SWAP1 MSTORE PUSH1 0x40 DUP2 KECCAK256 SLOAD PUSH1 0xFF AND PUSH1 0x4 DUP2 GT ISZERO PUSH2 0x284 JUMPI PUSH2 0x284 PUSH2 0x3D4 JUMP JUMPDEST EQ PUSH2 0x2C9 JUMPI PUSH1 0x40 MLOAD PUSH3 0x461BCD PUSH1 0xE5 SHL DUP2 MSTORE PUSH1 0x20 PUSH1 0x4 DUP3 ADD MSTORE PUSH1 0x15 PUSH1 0x24 DUP3 ADD MSTORE PUSH21 0x149BDB1948185B1C9958591E48185CDCDA59DB9959 PUSH1 0x5A SHL PUSH1 0x44 DUP3 ADD MSTORE PUSH1 0x64 ADD PUSH2 0x179 JUMP JUMPDEST PUSH1 0x1 PUSH1 0x1 PUSH1 0xA0 SHL SUB DUP4 AND PUSH0 SWAP1 DUP2 MSTORE PUSH1 0x20 DUP2 SWAP1 MSTORE PUSH1 0x40 SWAP1 KECCAK256 DUP1 SLOAD DUP4 SWAP2 SWAP1 PUSH1 0xFF NOT AND PUSH1 0x1 DUP4 PUSH1 0x4 DUP2 GT ISZERO PUSH2 0x2FD JUMPI PUSH2 0x2FD PUSH2 0x3D4 JUMP JUMPDEST MUL OR SWAP1 SSTORE POP PUSH1 0x1 PUSH1 0x1 PUSH1 0xA0 SHL SUB SWAP3 SWAP1 SWAP3 AND PUSH0 SWAP1 DUP2 MSTORE PUSH1 0x1 PUSH1 0x20 MSTORE PUSH1 0x40 SWAP1 KECCAK256 DUP1 SLOAD PUSH16 0xFFFFFFFFFFFFFFFFFFFFFFFFFFFFFFFF NOT AND PUSH1 0x1 PUSH1 0x1 PUSH1 0x80 SHL SUB SWAP1 SWAP4 AND SWAP3 SWAP1 SWAP3 OR SWAP1 SWAP2 SSTORE POP JUMP JUMPDEST DUP1 CALLDATALOAD PUSH1 0x1 PUSH1 0x1 PUSH1 0xA0 SHL SUB DUP2 AND DUP2 EQ PUSH2 0x35B JUMPI PUSH0 PUSH0 REVERT JUMPDEST SWAP2 SWAP1 POP JUMP JUMPDEST PUSH0 PUSH1 0x20 DUP3 DUP5 SUB SLT ISZERO PUSH2 0x370 JUMPI PUSH0 PUSH0 REVERT JUMPDEST PUSH2 0x379 DUP3 PUSH2 0x345 JUMP JUMPDEST SWAP4 SWAP3 POP POP POP JUMP JUMPDEST PUSH0 PUSH0 PUSH0 PUSH1 0x60 DUP5 DUP7 SUB SLT ISZERO PUSH2 0x392 JUMPI PUSH0 PUSH0 REVERT JUMPDEST PUSH2 0x39B DUP5 PUSH2 0x345 JUMP JUMPDEST SWAP3 POP PUSH1 0x20 DUP5 ADD CALLDATALOAD PUSH1 0x5 DUP2 LT PUSH2 0x3AE JUMPI PUSH0 PUSH0 REVERT JUMPDEST SWAP2 POP PUSH1 0x40 DUP5 ADD CALLDATALOAD PUSH1 0x1 PUSH1 0x1 PUSH1 0x80 SHL SUB DUP2 AND DUP2 EQ PUSH2 0x3C9 JUMPI PUSH0 PUSH0 REVERT JUMPDEST DUP1 SWAP2 POP POP SWAP3 POP SWAP3 POP SWAP3 JUMP JUMPDEST PUSH4 0x4E487B71 PUSH1 0xE0 SHL PUSH0 MSTORE PUSH1 0x21 PUSH1 0x4 MSTORE PUSH1 0x24 PUSH0 REVERT JUMPDEST PUSH1 0x20 DUP2 ADD PUSH1 0x5 DUP4 LT PUSH2 0x408 JUMPI PUSH4 0x4E487B71 PUSH1 0xE0 SHL PUSH0 MSTORE PUSH1 0x21 PUSH1 0x4 MSTORE PUSH1 0x24 PUSH0 REVERT JUMPDEST SWAP2 SWAP1 MSTORE SWAP1 JUMP INVALID LOG2 PUSH5 0x6970667358 0x22 SLT KECCAK256 0xD0 SLT PUSH31 0x32AEB9EFDDB44F1F82DD0D7175209DB74A45C889CC5AD6AF97CF5B4496473 PUSH16 0x6C634300081E00330000000000000000 "
				},
				"gasEstimates": {
					"creation": {
						"codeDepositCost": "218400",
						"executionCost": "261",
						"totalCost": "218661"
					},
					"external": {
						"addMeAsCustomer()": "26659",
						"addStaff(address,uint8,uint128)": "53628",
						"foodApp()": "2380",
						"roles(address)": "2638",
						"staffRestaurants(address)": "2522"
					},
					"internal": {
						"initializeRoles(address)": "infinite"
					}
				},
				"methodIdentifiers": {
					"addMeAsCustomer()": "338974df",
					"addStaff(address,uint8,uint128)": "4c9a4a06",
					"foodApp()": "6e92ae52",
					"roles(address)": "99374642",
					"staffRestaurants(address)": "2d3238fe"
				}
			},
			"storageLayout": {
				"storage": [
					{
						"astId": 521,
						"contract": "access/RoleAccess.sol:RoleAccess",
						"label": "roles",
						"offset": 0,
						"slot": "0",
						"type": "t_mapping(t_address,t_enum(Role)516)"
					},
					{
						"astId": 525,
						"contract": "access/RoleAccess.sol:RoleAccess",
						"label": "staffRestaurants",
						"offset": 0,
						"slot": "1",
						"type": "t_mapping(t_address,t_uint128)"
					},
					{
						"astId": 527,
						"contract": "access/RoleAccess.sol:RoleAccess",
						"label": "foodApp",
						"offset": 0,
						"slot": "2",
						"type": "t_address"
					}
				],
				"types": {
					"t_address": {
						"encoding": "inplace",
						"label": "address",
						"numberOfBytes": "20"
					},
					"t_enum(Role)516": {
						"encoding": "inplace",
						"label": "enum RoleAccess.Role",
						"numberOfBytes": "1"
					},
					"t_mapping(t_address,t_enum(Role)516)": {
						"encoding": "mapping",
						"key": "t_address",
						"label": "mapping(address => enum RoleAccess.Role)",
						"numberOfBytes": "32",
						"value": "t_enum(Role)516"
					},
					"t_mapping(t_address,t_uint128)": {
						"encoding": "mapping",
						"key": "t_address",
						"label": "mapping(address => uint128)",
						"numberOfBytes": "32",
						"value": "t_uint128"
					},
					"t_uint128": {
						"encoding": "inplace",
						"label": "uint128",
						"numberOfBytes": "16"
					}
				}
			},
			"userdoc": {
				"kind": "user",
				"methods": {},
				"version": 1
			}
		}
	}
}