{
	"contracts/ReviewManager.sol": {
		"ReviewManager": {
			"abi": [
				{
					"inputs": [],
					"name": "InvalidInitialization",
					"type": "error"
				},
				{
					"inputs": [],
					"name": "NotInitializing",
					"type": "error"
				},
				{
					"inputs": [
						{
							"internalType": "address",
							"name": "owner",
							"type": "address"
						}
					],
					"name": "OwnableInvalidOwner",
					"type": "error"
				},
				{
					"inputs": [
						{
							"internalType": "address",
							"name": "account",
							"type": "address"
						}
					],
					"name": "OwnableUnauthorizedAccount",
					"type": "error"
				},
				{
					"inputs": [],
					"name": "ReviewManager__InvalidAddress",
					"type": "error"
				},
				{
					"inputs": [],
					"name": "ReviewManager__InvalidRating",
					"type": "error"
				},
				{
					"inputs": [],
					"name": "ReviewManager__MenuItemNotFound",
					"type": "error"
				},
				{
					"inputs": [],
					"name": "ReviewManager__NotFoodApp",
					"type": "error"
				},
				{
					"inputs": [],
					"name": "ReviewManager__RestaurantNotFound",
					"type": "error"
				},
				{
					"anonymous": false,
					"inputs": [
						{
							"indexed": false,
							"internalType": "uint64",
							"name": "version",
							"type": "uint64"
						}
					],
					"name": "Initialized",
					"type": "event"
				},
				{
					"anonymous": false,
					"inputs": [
						{
							"indexed": true,
							"internalType": "uint128",
							"name": "reviewId",
							"type": "uint128"
						},
						{
							"indexed": true,
							"internalType": "address",
							"name": "customer",
							"type": "address"
						},
						{
							"indexed": true,
							"internalType": "uint128",
							"name": "menuItemId",
							"type": "uint128"
						},
						{
							"indexed": false,
							"internalType": "uint128",
							"name": "restaurantId",
							"type": "uint128"
						},
						{
							"indexed": false,
							"internalType": "uint8",
							"name": "rating",
							"type": "uint8"
						}
					],
					"name": "MenuItemRated",
					"type": "event"
				},
				{
					"anonymous": false,
					"inputs": [
						{
							"indexed": true,
							"internalType": "address",
							"name": "previousOwner",
							"type": "address"
						},
						{
							"indexed": true,
							"internalType": "address",
							"name": "newOwner",
							"type": "address"
						}
					],
					"name": "OwnershipTransferred",
					"type": "event"
				},
				{
					"anonymous": false,
					"inputs": [
						{
							"indexed": true,
							"internalType": "uint128",
							"name": "reviewId",
							"type": "uint128"
						},
						{
							"indexed": true,
							"internalType": "address",
							"name": "customer",
							"type": "address"
						},
						{
							"indexed": true,
							"internalType": "uint128",
							"name": "restaurantId",
							"type": "uint128"
						},
						{
							"indexed": false,
							"internalType": "uint8",
							"name": "rating",
							"type": "uint8"
						}
					],
					"name": "RestaurantRated",
					"type": "event"
				},
				{
					"anonymous": false,
					"inputs": [
						{
							"indexed": true,
							"internalType": "uint128",
							"name": "reviewId",
							"type": "uint128"
						},
						{
							"indexed": true,
							"internalType": "address",
							"name": "customer",
							"type": "address"
						},
						{
							"indexed": true,
							"internalType": "address",
							"name": "staff",
							"type": "address"
						},
						{
							"indexed": false,
							"internalType": "uint128",
							"name": "restaurantId",
							"type": "uint128"
						},
						{
							"indexed": false,
							"internalType": "uint8",
							"name": "rating",
							"type": "uint8"
						}
					],
					"name": "StaffRated",
					"type": "event"
				},
				{
					"inputs": [],
					"name": "foodAppContractAddress",
					"outputs": [
						{
							"internalType": "address",
							"name": "",
							"type": "address"
						}
					],
					"stateMutability": "view",
					"type": "function"
				},
				{
					"inputs": [
						{
							"internalType": "uint128",
							"name": "menuItemId",
							"type": "uint128"
						}
					],
					"name": "getAverageMenuItemRating",
					"outputs": [
						{
							"internalType": "uint128",
							"name": "averageRating",
							"type": "uint128"
						},
						{
							"internalType": "uint128",
							"name": "ratingCount",
							"type": "uint128"
						}
					],
					"stateMutability": "view",
					"type": "function"
				},
				{
					"inputs": [
						{
							"internalType": "address",
							"name": "staff",
							"type": "address"
						}
					],
					"name": "getAverageStaffRating",
					"outputs": [
						{
							"internalType": "uint128",
							"name": "averageRating",
							"type": "uint128"
						},
						{
							"internalType": "uint128",
							"name": "ratingCount",
							"type": "uint128"
						}
					],
					"stateMutability": "view",
					"type": "function"
				},
				{
					"inputs": [
						{
							"internalType": "uint128",
							"name": "menuItemId",
							"type": "uint128"
						}
					],
					"name": "getMenuItemReviews",
					"outputs": [
						{
							"components": [
								{
									"internalType": "uint128",
									"name": "id",
									"type": "uint128"
								},
								{
									"internalType": "address",
									"name": "customer",
									"type": "address"
								},
								{
									"internalType": "uint128",
									"name": "menuItemId",
									"type": "uint128"
								},
								{
									"internalType": "uint128",
									"name": "restaurantId",
									"type": "uint128"
								},
								{
									"internalType": "uint8",
									"name": "rating",
									"type": "uint8"
								},
								{
									"internalType": "string",
									"name": "comment",
									"type": "string"
								},
								{
									"internalType": "uint128",
									"name": "timestamp",
									"type": "uint128"
								}
							],
							"internalType": "struct MenuItemReview[]",
							"name": "",
							"type": "tuple[]"
						}
					],
					"stateMutability": "view",
					"type": "function"
				},
				{
					"inputs": [
						{
							"internalType": "address",
							"name": "staff",
							"type": "address"
						}
					],
					"name": "getStaffReviews",
					"outputs": [
						{
							"components": [
								{
									"internalType": "uint128",
									"name": "id",
									"type": "uint128"
								},
								{
									"internalType": "address",
									"name": "customer",
									"type": "address"
								},
								{
									"internalType": "address",
									"name": "staff",
									"type": "address"
								},
								{
									"internalType": "uint128",
									"name": "restaurantId",
									"type": "uint128"
								},
								{
									"internalType": "uint8",
									"name": "rating",
									"type": "uint8"
								},
								{
									"internalType": "string",
									"name": "comment",
									"type": "string"
								},
								{
									"internalType": "uint128",
									"name": "timestamp",
									"type": "uint128"
								}
							],
							"internalType": "struct StaffReview[]",
							"name": "",
							"type": "tuple[]"
						}
					],
					"stateMutability": "view",
					"type": "function"
				},
				{
					"inputs": [
						{
							"internalType": "address",
							"name": "_foodAppContract",
							"type": "address"
						},
						{
							"internalType": "address",
							"name": "_restaurantManagerAddress",
							"type": "address"
						},
						{
							"internalType": "address",
							"name": "_menuManagerAddress",
							"type": "address"
						},
						{
							"internalType": "address",
							"name": "_owner",
							"type": "address"
						}
					],
					"name": "initialize",
					"outputs": [],
					"stateMutability": "nonpayable",
					"type": "function"
				},
				{
					"inputs": [
						{
							"internalType": "uint128",
							"name": "",
							"type": "uint128"
						}
					],
					"name": "menuItemReviews",
					"outputs": [
						{
							"internalType": "uint128",
							"name": "id",
							"type": "uint128"
						},
						{
							"internalType": "address",
							"name": "customer",
							"type": "address"
						},
						{
							"internalType": "uint128",
							"name": "menuItemId",
							"type": "uint128"
						},
						{
							"internalType": "uint128",
							"name": "restaurantId",
							"type": "uint128"
						},
						{
							"internalType": "uint8",
							"name": "rating",
							"type": "uint8"
						},
						{
							"internalType": "string",
							"name": "comment",
							"type": "string"
						},
						{
							"internalType": "uint128",
							"name": "timestamp",
							"type": "uint128"
						}
					],
					"stateMutability": "view",
					"type": "function"
				},
				{
					"inputs": [],
					"name": "menuManager",
					"outputs": [
						{
							"internalType": "contract IMenuManager",
							"name": "",
							"type": "address"
						}
					],
					"stateMutability": "view",
					"type": "function"
				},
				{
					"inputs": [],
					"name": "nextReviewId",
					"outputs": [
						{
							"internalType": "uint128",
							"name": "",
							"type": "uint128"
						}
					],
					"stateMutability": "view",
					"type": "function"
				},
				{
					"inputs": [],
					"name": "owner",
					"outputs": [
						{
							"internalType": "address",
							"name": "",
							"type": "address"
						}
					],
					"stateMutability": "view",
					"type": "function"
				},
				{
					"inputs": [
						{
							"internalType": "address",
							"name": "customerEoa",
							"type": "address"
						},
						{
							"internalType": "uint128",
							"name": "restaurantId",
							"type": "uint128"
						},
						{
							"internalType": "uint128",
							"name": "menuItemId",
							"type": "uint128"
						},
						{
							"internalType": "uint8",
							"name": "rating",
							"type": "uint8"
						},
						{
							"internalType": "string",
							"name": "comment",
							"type": "string"
						}
					],
					"name": "rateMenuItem",
					"outputs": [
						{
							"internalType": "uint128",
							"name": "newTotalRating",
							"type": "uint128"
						},
						{
							"internalType": "uint128",
							"name": "newRatingCount",
							"type": "uint128"
						}
					],
					"stateMutability": "nonpayable",
					"type": "function"
				},
				{
					"inputs": [
						{
							"internalType": "address",
							"name": "customerEoa",
							"type": "address"
						},
						{
							"internalType": "uint128",
							"name": "restaurantId",
							"type": "uint128"
						},
						{
							"internalType": "uint8",
							"name": "rating",
							"type": "uint8"
						},
						{
							"internalType": "string",
							"name": "comment",
							"type": "string"
						}
					],
					"name": "rateRestaurant",
					"outputs": [],
					"stateMutability": "nonpayable",
					"type": "function"
				},
				{
					"inputs": [
						{
							"internalType": "address",
							"name": "customerEoa",
							"type": "address"
						},
						{
							"internalType": "address",
							"name": "staff",
							"type": "address"
						},
						{
							"internalType": "uint128",
							"name": "restaurantId",
							"type": "uint128"
						},
						{
							"internalType": "uint8",
							"name": "rating",
							"type": "uint8"
						},
						{
							"internalType": "string",
							"name": "comment",
							"type": "string"
						}
					],
					"name": "rateStaff",
					"outputs": [],
					"stateMutability": "nonpayable",
					"type": "function"
				},
				{
					"inputs": [],
					"name": "renounceOwnership",
					"outputs": [],
					"stateMutability": "nonpayable",
					"type": "function"
				},
				{
					"inputs": [],
					"name": "restaurantManager",
					"outputs": [
						{
							"internalType": "contract IRestaurantManager",
							"name": "",
							"type": "address"
						}
					],
					"stateMutability": "view",
					"type": "function"
				},
				{
					"inputs": [
						{
							"internalType": "uint128",
							"name": "",
							"type": "uint128"
						}
					],
					"name": "reviews",
					"outputs": [
						{
							"internalType": "uint128",
							"name": "id",
							"type": "uint128"
						},
						{
							"internalType": "address",
							"name": "customer",
							"type": "address"
						},
						{
							"internalType": "address",
							"name": "staff",
							"type": "address"
						},
						{
							"internalType": "uint128",
							"name": "restaurantId",
							"type": "uint128"
						},
						{
							"internalType": "uint8",
							"name": "rating",
							"type": "uint8"
						},
						{
							"internalType": "string",
							"name": "comment",
							"type": "string"
						},
						{
							"internalType": "uint128",
							"name": "timestamp",
							"type": "uint128"
						}
					],
					"stateMutability": "view",
					"type": "function"
				},
				{
					"inputs": [
						{
							"internalType": "uint128",
							"name": "",
							"type": "uint128"
						},
						{
							"internalType": "uint256",
							"name": "",
							"type": "uint256"
						}
					],
					"name": "reviewsByMenuItem",
					"outputs": [
						{
							"internalType": "uint128",
							"name": "",
							"type": "uint128"
						}
					],
					"stateMutability": "view",
					"type": "function"
				},
				{
					"inputs": [
						{
							"internalType": "uint128",
							"name": "",
							"type": "uint128"
						},
						{
							"internalType": "uint256",
							"name": "",
							"type": "uint256"
						}
					],
					"name": "reviewsByRestaurant",
					"outputs": [
						{
							"internalType": "uint128",
							"name": "",
							"type": "uint128"
						}
					],
					"stateMutability": "view",
					"type": "function"
				},
				{
					"inputs": [
						{
							"internalType": "address",
							"name": "",
							"type": "address"
						},
						{
							"internalType": "uint256",
							"name": "",
							"type": "uint256"
						}
					],
					"name": "reviewsByStaff",
					"outputs": [
						{
							"internalType": "uint128",
							"name": "",
							"type": "uint128"
						}
					],
					"stateMutability": "view",
					"type": "function"
				},
				{
					"inputs": [
						{
							"internalType": "uint128",
							"name": "",
							"type": "uint128"
						}
					],
					"name": "staffReviews",
					"outputs": [
						{
							"internalType": "uint128",
							"name": "id",
							"type": "uint128"
						},
						{
							"internalType": "address",
							"name": "customer",
							"type": "address"
						},
						{
							"internalType": "address",
							"name": "staff",
							"type": "address"
						},
						{
							"internalType": "uint128",
							"name": "restaurantId",
							"type": "uint128"
						},
						{
							"internalType": "uint8",
							"name": "rating",
							"type": "uint8"
						},
						{
							"internalType": "string",
							"name": "comment",
							"type": "string"
						},
						{
							"internalType": "uint128",
							"name": "timestamp",
							"type": "uint128"
						}
					],
					"stateMutability": "view",
					"type": "function"
				},
				{
					"inputs": [
						{
							"internalType": "address",
							"name": "newOwner",
							"type": "address"
						}
					],
					"name": "transferOwnership",
					"outputs": [],
					"stateMutability": "nonpayable",
					"type": "function"
				}
			],
			"devdoc": {
				"errors": {
					"InvalidInitialization()": [
						{
							"details": "The contract is already initialized."
						}
					],
					"NotInitializing()": [
						{
							"details": "The contract is not initializing."
						}
					],
					"OwnableInvalidOwner(address)": [
						{
							"details": "The owner is not a valid owner account. (eg. `address(0)`)"
						}
					],
					"OwnableUnauthorizedAccount(address)": [
						{
							"details": "The caller account is not authorized to perform an operation."
						}
					]
				},
				"events": {
					"Initialized(uint64)": {
						"details": "Triggered when the contract has been initialized or reinitialized."
					}
				},
				"kind": "dev",
				"methods": {
					"owner()": {
						"details": "Returns the address of the current owner."
					},
					"renounceOwnership()": {
						"details": "Leaves the contract without owner. It will not be possible to call `onlyOwner` functions. Can only be called by the current owner. NOTE: Renouncing ownership will leave the contract without an owner, thereby disabling any functionality that is only available to the owner."
					},
					"transferOwnership(address)": {
						"details": "Transfers ownership of the contract to a new account (`newOwner`). Can only be called by the current owner."
					}
				},
				"version": 1
			},
			"evm": {
				"assembly": "    /* \"contracts/ReviewManager.sol\":311:7416  contract ReviewManager is OwnableUpgradeable, IReviewManager {... */\n  mstore(0x40, 0x80)\n  callvalue\n  dup1\n  iszero\n  tag_1\n  jumpi\n  revert(0x00, 0x00)\ntag_1:\n  pop\n  dataSize(sub_0)\n  dup1\n  dataOffset(sub_0)\n  0x00\n  codecopy\n  0x00\n  return\nstop\n\nsub_0: assembly {\n        /* \"contracts/ReviewManager.sol\":311:7416  contract ReviewManager is OwnableUpgradeable, IReviewManager {... */\n      mstore(0x40, 0x80)\n      callvalue\n      dup1\n      iszero\n      tag_1\n      jumpi\n      revert(0x00, 0x00)\n    tag_1:\n      pop\n      jumpi(tag_2, lt(calldatasize, 0x04))\n      shr(0xe0, calldataload(0x00))\n      dup1\n      0x7cb9385e\n      gt\n      tag_24\n      jumpi\n      dup1\n      0x921a0238\n      gt\n      tag_25\n      jumpi\n      dup1\n      0x921a0238\n      eq\n      tag_18\n      jumpi\n      dup1\n      0x98e8d802\n      eq\n      tag_19\n      jumpi\n      dup1\n      0xdf808ac5\n      eq\n      tag_20\n      jumpi\n      dup1\n      0xe6853d8a\n      eq\n      tag_21\n      jumpi\n      dup1\n      0xf2fde38b\n      eq\n      tag_22\n      jumpi\n      dup1\n      0xf8c8765e\n      eq\n      tag_23\n      jumpi\n      revert(0x00, 0x00)\n    tag_25:\n      dup1\n      0x7cb9385e\n      eq\n      tag_13\n      jumpi\n      dup1\n      0x832dbdd9\n      eq\n      tag_14\n      jumpi\n      dup1\n      0x87f82bd3\n      eq\n      tag_15\n      jumpi\n      dup1\n      0x8da5cb5b\n      eq\n      tag_16\n      jumpi\n      dup1\n      0x8e5332c8\n      eq\n      tag_17\n      jumpi\n      revert(0x00, 0x00)\n    tag_24:\n      dup1\n      0x5059e95b\n      gt\n      tag_26\n      jumpi\n      dup1\n      0x5059e95b\n      eq\n      tag_8\n      jumpi\n      dup1\n      0x64dd1ee8\n      eq\n      tag_9\n      jumpi\n      dup1\n      0x6df37098\n      eq\n      tag_10\n      jumpi\n      dup1\n      0x715018a6\n      eq\n      tag_11\n      jumpi\n      dup1\n      0x7276d2d4\n      eq\n      tag_12\n      jumpi\n      revert(0x00, 0x00)\n    tag_26:\n      dup1\n      0x1f7f08e7\n      eq\n      tag_3\n      jumpi\n      dup1\n      0x2134b6f6\n      eq\n      tag_4\n      jumpi\n      dup1\n      0x36c38487\n      eq\n      tag_5\n      jumpi\n      dup1\n      0x396e77e7\n      eq\n      tag_6\n      jumpi\n      dup1\n      0x3f6c7347\n      eq\n      tag_7\n      jumpi\n    tag_2:\n      revert(0x00, 0x00)\n        /* \"contracts/ReviewManager.sol\":585:641  mapping(uint128 => uint128[]) public reviewsByRestaurant */\n    tag_3:\n      tag_27\n      tag_28\n      calldatasize\n      0x04\n      tag_29\n      jump\t// in\n    tag_28:\n      tag_30\n      jump\t// in\n    tag_27:\n      mload(0x40)\n      sub(shl(0x80, 0x01), 0x01)\n        /* \"#utility.yul\":825:872   */\n      swap1\n      swap2\n      and\n        /* \"#utility.yul\":807:873   */\n      dup2\n      mstore\n        /* \"#utility.yul\":795:797   */\n      0x20\n        /* \"#utility.yul\":780:798   */\n      add\n        /* \"contracts/ReviewManager.sol\":585:641  mapping(uint128 => uint128[]) public reviewsByRestaurant */\n    tag_31:\n      mload(0x40)\n      dup1\n      swap2\n      sub\n      swap1\n      return\n        /* \"contracts/ReviewManager.sol\":854:897  IRestaurantManager public restaurantManager */\n    tag_4:\n      sload(0x09)\n      tag_33\n      swap1\n      sub(shl(0xa0, 0x01), 0x01)\n      and\n      dup2\n      jump\n    tag_33:\n      mload(0x40)\n      sub(shl(0xa0, 0x01), 0x01)\n        /* \"#utility.yul\":1075:1107   */\n      swap1\n      swap2\n      and\n        /* \"#utility.yul\":1057:1108   */\n      dup2\n      mstore\n        /* \"#utility.yul\":1045:1047   */\n      0x20\n        /* \"#utility.yul\":1030:1048   */\n      add\n        /* \"contracts/ReviewManager.sol\":854:897  IRestaurantManager public restaurantManager */\n      tag_31\n        /* \"#utility.yul\":884:1114   */\n      jump\n        /* \"contracts/ReviewManager.sol\":648:699  mapping(address => uint128[]) public reviewsByStaff */\n    tag_5:\n      tag_27\n      tag_38\n      calldatasize\n      0x04\n      tag_39\n      jump\t// in\n    tag_38:\n      tag_40\n      jump\t// in\n        /* \"contracts/ReviewManager.sol\":379:406  uint128 public nextReviewId */\n    tag_6:\n      sload(0x00)\n      tag_27\n      swap1\n      sub(shl(0x80, 0x01), 0x01)\n      and\n      dup2\n      jump\n        /* \"contracts/ReviewManager.sol\":5618:6000  function getStaffReviews(address staff) external view override returns (StaffReview[] memory) {... */\n    tag_7:\n      tag_45\n      tag_46\n      calldatasize\n      0x04\n      tag_47\n      jump\t// in\n    tag_46:\n      tag_48\n      jump\t// in\n    tag_45:\n      mload(0x40)\n      tag_31\n      swap2\n      swap1\n      tag_50\n      jump\t// in\n        /* \"contracts/ReviewManager.sol\":770:801  IMenuManager public menuManager */\n    tag_8:\n      sload(0x07)\n      tag_33\n      swap1\n      sub(shl(0xa0, 0x01), 0x01)\n      and\n      dup2\n      jump\n        /* \"contracts/ReviewManager.sol\":520:577  mapping(uint128 => MenuItemReview) public menuItemReviews */\n    tag_9:\n      tag_55\n      tag_56\n      calldatasize\n      0x04\n      tag_57\n      jump\t// in\n    tag_56:\n      tag_58\n      jump\t// in\n    tag_55:\n      mload(0x40)\n      tag_31\n      swap8\n      swap7\n      swap6\n      swap5\n      swap4\n      swap3\n      swap2\n      swap1\n      tag_60\n      jump\t// in\n        /* \"contracts/ReviewManager.sol\":6957:7413  function getAverageMenuItemRating(uint128 menuItemId) external view override returns (uint128 averageRating, uint128 ratingCount) {... */\n    tag_10:\n      tag_61\n      tag_62\n      calldatasize\n      0x04\n      tag_57\n      jump\t// in\n    tag_62:\n      tag_63\n      jump\t// in\n    tag_61:\n      0x40\n      dup1\n      mload\n      sub(shl(0x80, 0x01), 0x01)\n        /* \"#utility.yul\":5298:5345   */\n      swap4\n      dup5\n      and\n        /* \"#utility.yul\":5280:5346   */\n      dup2\n      mstore\n        /* \"#utility.yul\":5382:5429   */\n      swap3\n      swap1\n      swap2\n      and\n        /* \"#utility.yul\":5377:5379   */\n      0x20\n        /* \"#utility.yul\":5362:5380   */\n      dup4\n      add\n        /* \"#utility.yul\":5355:5430   */\n      mstore\n        /* \"#utility.yul\":5253:5271   */\n      add\n        /* \"contracts/ReviewManager.sol\":6957:7413  function getAverageMenuItemRating(uint128 menuItemId) external view override returns (uint128 averageRating, uint128 ratingCount) {... */\n      tag_31\n        /* \"#utility.yul\":5106:5436   */\n      jump\n        /* \"@openzeppelin/contracts-upgradeable/access/OwnableUpgradeable.sol\":3155:3256  function renounceOwnership() public virtual onlyOwner {... */\n    tag_11:\n      tag_66\n      tag_67\n      jump\t// in\n    tag_66:\n      stop\n        /* \"contracts/ReviewManager.sol\":707:761  mapping(uint128 => uint128[]) public reviewsByMenuItem */\n    tag_12:\n      tag_27\n      tag_69\n      calldatasize\n      0x04\n      tag_29\n      jump\t// in\n    tag_69:\n      tag_70\n      jump\t// in\n        /* \"contracts/ReviewManager.sol\":3106:4069  function rateStaff(address customerEoa, address staff, uint128 restaurantId, uint8 rating, string memory comment) ... */\n    tag_13:\n      tag_66\n      tag_73\n      calldatasize\n      0x04\n      tag_74\n      jump\t// in\n    tag_73:\n      tag_75\n      jump\t// in\n        /* \"contracts/ReviewManager.sol\":810:847  address public foodAppContractAddress */\n    tag_14:\n      sload(0x08)\n      tag_33\n      swap1\n      sub(shl(0xa0, 0x01), 0x01)\n      and\n      dup2\n      jump\n        /* \"contracts/ReviewManager.sol\":461:512  mapping(uint128 => StaffReview) public staffReviews */\n    tag_15:\n      tag_80\n      tag_81\n      calldatasize\n      0x04\n      tag_57\n      jump\t// in\n    tag_81:\n      tag_82\n      jump\t// in\n    tag_80:\n      mload(0x40)\n      tag_31\n      swap8\n      swap7\n      swap6\n      swap5\n      swap4\n      swap3\n      swap2\n      swap1\n      tag_84\n      jump\t// in\n        /* \"@openzeppelin/contracts-upgradeable/access/OwnableUpgradeable.sol\":2441:2585  function owner() public view virtual returns (address) {... */\n    tag_16:\n        /* \"@openzeppelin/contracts-upgradeable/access/OwnableUpgradeable.sol\":1313:1335  OwnableStorageLocation */\n      0x9016d09d72d40fdae2fd8ceac6b6234c7706214fd39c1cd1e609a0528c199300\n        /* \"@openzeppelin/contracts-upgradeable/access/OwnableUpgradeable.sol\":2570:2578  $._owner */\n      sload\n      sub(shl(0xa0, 0x01), 0x01)\n      and\n        /* \"@openzeppelin/contracts-upgradeable/access/OwnableUpgradeable.sol\":2441:2585  function owner() public view virtual returns (address) {... */\n      jump(tag_33)\n        /* \"contracts/ReviewManager.sol\":6008:6418  function getMenuItemReviews(uint128 menuItemId) external view override returns (MenuItemReview[] memory) {... */\n    tag_17:\n      tag_88\n      tag_89\n      calldatasize\n      0x04\n      tag_57\n      jump\t// in\n    tag_89:\n      tag_90\n      jump\t// in\n    tag_88:\n      mload(0x40)\n      tag_31\n      swap2\n      swap1\n      tag_92\n      jump\t// in\n        /* \"contracts/ReviewManager.sol\":413:454  mapping(uint128 => Review) public reviews */\n    tag_18:\n      tag_80\n      tag_94\n      calldatasize\n      0x04\n      tag_57\n      jump\t// in\n    tag_94:\n      tag_95\n      jump\t// in\n        /* \"contracts/ReviewManager.sol\":6426:6949  function getAverageStaffRating(address staff) external view override returns (uint128 averageRating, uint128 ratingCount) {... */\n    tag_19:\n      tag_61\n      tag_98\n      calldatasize\n      0x04\n      tag_47\n      jump\t// in\n    tag_98:\n      tag_99\n      jump\t// in\n        /* \"contracts/ReviewManager.sol\":2273:3098  function rateRestaurant(address customerEoa, uint128 restaurantId, uint8 rating, string memory comment) ... */\n    tag_20:\n      tag_66\n      tag_102\n      calldatasize\n      0x04\n      tag_103\n      jump\t// in\n    tag_102:\n      tag_104\n      jump\t// in\n        /* \"contracts/ReviewManager.sol\":4077:5544  function rateMenuItem(address customerEoa, uint128 restaurantId, uint128 menuItemId, uint8 rating, string memory comment)... */\n    tag_21:\n      tag_61\n      tag_106\n      calldatasize\n      0x04\n      tag_107\n      jump\t// in\n    tag_106:\n      tag_108\n      jump\t// in\n        /* \"@openzeppelin/contracts-upgradeable/access/OwnableUpgradeable.sol\":3405:3620  function transferOwnership(address newOwner) public virtual onlyOwner {... */\n    tag_22:\n      tag_66\n      tag_111\n      calldatasize\n      0x04\n      tag_47\n      jump\t// in\n    tag_111:\n      tag_112\n      jump\t// in\n        /* \"contracts/ReviewManager.sol\":1677:2265  function initialize(address _foodAppContract, address _restaurantManagerAddress, address _menuManagerAddress, address _owner) ... */\n    tag_23:\n      tag_66\n      tag_114\n      calldatasize\n      0x04\n      tag_115\n      jump\t// in\n    tag_114:\n      tag_116\n      jump\t// in\n        /* \"contracts/ReviewManager.sol\":585:641  mapping(uint128 => uint128[]) public reviewsByRestaurant */\n    tag_30:\n      mstore(0x20, 0x04)\n      dup2\n      0x00\n      mstore\n      keccak256(0x00, 0x40)\n      dup2\n      dup2\n      sload\n      dup2\n      lt\n      tag_117\n      jumpi\n      0x00\n      dup1\n      revert\n    tag_117:\n      swap1\n      0x00\n      mstore\n      keccak256(0x00, 0x20)\n      swap1\n      0x02\n      swap2\n      dup3\n      dup3\n      div\n      add\n      swap2\n      swap1\n      mod\n      0x10\n      mul\n      swap2\n      pop\n      swap2\n      pop\n      swap1\n      sload\n      swap1\n      0x0100\n      exp\n      swap1\n      div\n      sub(shl(0x80, 0x01), 0x01)\n      and\n      dup2\n      jump\t// out\n        /* \"contracts/ReviewManager.sol\":648:699  mapping(address => uint128[]) public reviewsByStaff */\n    tag_40:\n      mstore(0x20, 0x05)\n      dup2\n      0x00\n      mstore\n      keccak256(0x00, 0x40)\n      dup2\n      dup2\n      sload\n      dup2\n      lt\n      tag_117\n      jumpi\n      0x00\n      dup1\n      revert\n        /* \"contracts/ReviewManager.sol\":5618:6000  function getStaffReviews(address staff) external view override returns (StaffReview[] memory) {... */\n    tag_48:\n      sub(shl(0xa0, 0x01), 0x01)\n        /* \"contracts/ReviewManager.sol\":5752:5773  reviewsByStaff[staff] */\n      dup2\n      and\n        /* \"contracts/ReviewManager.sol\":5723:5749  uint128[] memory reviewIds */\n      0x00\n        /* \"contracts/ReviewManager.sol\":5752:5773  reviewsByStaff[staff] */\n      swap1\n      dup2\n      mstore\n        /* \"contracts/ReviewManager.sol\":5752:5766  reviewsByStaff */\n      0x05\n        /* \"contracts/ReviewManager.sol\":5752:5773  reviewsByStaff[staff] */\n      0x20\n      swap1\n      dup2\n      mstore\n      0x40\n      dup1\n      dup4\n      keccak256\n        /* \"contracts/ReviewManager.sol\":5723:5773  uint128[] memory reviewIds = reviewsByStaff[staff] */\n      dup1\n      sload\n      dup3\n      mload\n      dup2\n      dup6\n      mul\n      dup2\n      add\n      dup6\n      add\n      swap1\n      swap4\n      mstore\n      dup1\n      dup4\n      mstore\n        /* \"contracts/ReviewManager.sol\":5690:5710  StaffReview[] memory */\n      0x60\n      swap5\n        /* \"contracts/ReviewManager.sol\":5723:5749  uint128[] memory reviewIds */\n      swap4\n        /* \"contracts/ReviewManager.sol\":5723:5773  uint128[] memory reviewIds = reviewsByStaff[staff] */\n      dup4\n      add\n        /* \"contracts/ReviewManager.sol\":5752:5773  reviewsByStaff[staff] */\n      dup3\n        /* \"contracts/ReviewManager.sol\":5723:5773  uint128[] memory reviewIds = reviewsByStaff[staff] */\n      dup3\n      dup1\n      iszero\n      tag_122\n      jumpi\n      0x20\n      mul\n      dup3\n      add\n      swap2\n      swap1\n      0x00\n      mstore\n      keccak256(0x00, 0x20)\n      swap1\n      0x00\n      swap1\n    tag_123:\n      dup3\n      dup3\n      swap1\n      sload\n      swap1\n      0x0100\n      exp\n      swap1\n      div\n      sub(shl(0x80, 0x01), 0x01)\n      and\n      sub(shl(0x80, 0x01), 0x01)\n      and\n      dup2\n      mstore\n      0x20\n      add\n      swap1\n      0x10\n      add\n      swap1\n      0x20\n      dup3\n      0x0f\n      add\n      div\n      swap3\n      dup4\n      add\n      swap3\n      0x01\n      sub\n      dup3\n      mul\n      swap2\n      pop\n      dup1\n      dup5\n      gt\n      tag_123\n      jumpi\n      swap1\n      pop\n    tag_122:\n      pop\n      pop\n      pop\n      pop\n      pop\n      swap1\n      pop\n        /* \"contracts/ReviewManager.sol\":5784:5811  StaffReview[] memory result */\n      0x00\n        /* \"contracts/ReviewManager.sol\":5832:5841  reviewIds */\n      dup2\n        /* \"contracts/ReviewManager.sol\":5832:5848  reviewIds.length */\n      mload\n      sub(shl(0x40, 0x01), 0x01)\n        /* \"contracts/ReviewManager.sol\":5814:5849  new StaffReview[](reviewIds.length) */\n      dup2\n      gt\n      iszero\n      tag_125\n      jumpi\n      tag_125\n      tag_126\n      jump\t// in\n    tag_125:\n      mload(0x40)\n      swap1\n      dup1\n      dup3\n      mstore\n      dup1\n      0x20\n      mul\n      0x20\n      add\n      dup3\n      add\n      0x40\n      mstore\n      dup1\n      iszero\n      tag_127\n      jumpi\n      dup2\n      0x20\n      add\n    tag_128:\n      0x40\n      dup1\n      mload\n      0xe0\n      dup2\n      add\n      dup3\n      mstore\n      0x00\n      dup1\n      dup3\n      mstore\n      0x20\n      dup1\n      dup4\n      add\n      dup3\n      swap1\n      mstore\n      swap3\n      dup3\n      add\n      dup2\n      swap1\n      mstore\n      0x60\n      dup1\n      dup4\n      add\n      dup3\n      swap1\n      mstore\n      0x80\n      dup4\n      add\n      dup3\n      swap1\n      mstore\n      0xa0\n      dup4\n      add\n      mstore\n      0xc0\n      dup3\n      add\n      mstore\n      dup3\n      mstore\n      not(0x00)\n      swap1\n      swap3\n      add\n      swap2\n      add\n      dup2\n      tag_128\n      jumpi\n      swap1\n      pop\n    tag_127:\n      pop\n        /* \"contracts/ReviewManager.sol\":5784:5849  StaffReview[] memory result = new StaffReview[](reviewIds.length) */\n      swap1\n      pop\n        /* \"contracts/ReviewManager.sol\":5865:5871  uint i */\n      0x00\n        /* \"contracts/ReviewManager.sol\":5860:5969  for (uint i = 0; i < reviewIds.length; i++) {... */\n    tag_131:\n        /* \"contracts/ReviewManager.sol\":5881:5890  reviewIds */\n      dup3\n        /* \"contracts/ReviewManager.sol\":5881:5897  reviewIds.length */\n      mload\n        /* \"contracts/ReviewManager.sol\":5877:5878  i */\n      dup2\n        /* \"contracts/ReviewManager.sol\":5877:5897  i < reviewIds.length */\n      lt\n        /* \"contracts/ReviewManager.sol\":5860:5969  for (uint i = 0; i < reviewIds.length; i++) {... */\n      iszero\n      tag_132\n      jumpi\n        /* \"contracts/ReviewManager.sol\":5931:5943  staffReviews */\n      0x02\n        /* \"contracts/ReviewManager.sol\":5931:5957  staffReviews[reviewIds[i]] */\n      0x00\n        /* \"contracts/ReviewManager.sol\":5944:5953  reviewIds */\n      dup5\n        /* \"contracts/ReviewManager.sol\":5954:5955  i */\n      dup4\n        /* \"contracts/ReviewManager.sol\":5944:5956  reviewIds[i] */\n      dup2\n      mload\n      dup2\n      lt\n      tag_135\n      jumpi\n      tag_135\n      tag_136\n      jump\t// in\n    tag_135:\n      0x20\n      swap1\n      dup2\n      mul\n      swap2\n      swap1\n      swap2\n      add\n      dup2\n      add\n      mload\n      sub(shl(0x80, 0x01), 0x01)\n        /* \"contracts/ReviewManager.sol\":5931:5957  staffReviews[reviewIds[i]] */\n      swap1\n      dup2\n      and\n      dup4\n      mstore\n      dup3\n      dup3\n      add\n      swap4\n      swap1\n      swap4\n      mstore\n      0x40\n      swap2\n      dup3\n      add\n      0x00\n      keccak256\n        /* \"contracts/ReviewManager.sol\":5919:5957  result[i] = staffReviews[reviewIds[i]] */\n      dup3\n      mload\n      0xe0\n      dup2\n      add\n      dup5\n      mstore\n      dup2\n      sload\n      dup6\n      and\n      dup2\n      mstore\n      0x01\n      dup3\n      add\n      sload\n      sub(shl(0xa0, 0x01), 0x01)\n      swap1\n      dup2\n      and\n      swap4\n      dup3\n      add\n      swap4\n      swap1\n      swap4\n      mstore\n      0x02\n      dup3\n      add\n      sload\n      swap1\n      swap3\n      and\n      swap3\n      dup3\n      add\n      swap3\n      swap1\n      swap3\n      mstore\n      0x03\n      dup3\n      add\n      sload\n      swap3\n      dup4\n      and\n      0x60\n      dup3\n      add\n      mstore\n      shl(0x80, 0x01)\n      swap1\n      swap3\n      div\n      0xff\n      and\n      0x80\n      dup4\n      add\n      mstore\n      0x04\n      dup2\n      add\n      dup1\n      sload\n      0xa0\n      dup5\n      add\n      swap2\n      swap1\n      tag_137\n      swap1\n      tag_138\n      jump\t// in\n    tag_137:\n      dup1\n      0x1f\n      add\n      0x20\n      dup1\n      swap2\n      div\n      mul\n      0x20\n      add\n      mload(0x40)\n      swap1\n      dup2\n      add\n      0x40\n      mstore\n      dup1\n      swap3\n      swap2\n      swap1\n      dup2\n      dup2\n      mstore\n      0x20\n      add\n      dup3\n      dup1\n      sload\n      tag_139\n      swap1\n      tag_138\n      jump\t// in\n    tag_139:\n      dup1\n      iszero\n      tag_140\n      jumpi\n      dup1\n      0x1f\n      lt\n      tag_141\n      jumpi\n      0x0100\n      dup1\n      dup4\n      sload\n      div\n      mul\n      dup4\n      mstore\n      swap2\n      0x20\n      add\n      swap2\n      jump(tag_140)\n    tag_141:\n      dup3\n      add\n      swap2\n      swap1\n      0x00\n      mstore\n      keccak256(0x00, 0x20)\n      swap1\n    tag_142:\n      dup2\n      sload\n      dup2\n      mstore\n      swap1\n      0x01\n      add\n      swap1\n      0x20\n      add\n      dup1\n      dup4\n      gt\n      tag_142\n      jumpi\n      dup3\n      swap1\n      sub\n      0x1f\n      and\n      dup3\n      add\n      swap2\n    tag_140:\n      pop\n      pop\n      pop\n      swap2\n      dup4\n      mstore\n      pop\n      pop\n      0x05\n      swap2\n      swap1\n      swap2\n      add\n      sload\n      sub(shl(0x80, 0x01), 0x01)\n      and\n      0x20\n      swap1\n      swap2\n      add\n      mstore\n        /* \"contracts/ReviewManager.sol\":5919:5928  result[i] */\n      dup3\n      mload\n        /* \"contracts/ReviewManager.sol\":5919:5925  result */\n      dup4\n      swap1\n        /* \"contracts/ReviewManager.sol\":5926:5927  i */\n      dup4\n      swap1\n        /* \"contracts/ReviewManager.sol\":5919:5928  result[i] */\n      dup2\n      lt\n      tag_144\n      jumpi\n      tag_144\n      tag_136\n      jump\t// in\n    tag_144:\n      0x20\n      swap1\n      dup2\n      mul\n      swap2\n      swap1\n      swap2\n      add\n      add\n        /* \"contracts/ReviewManager.sol\":5919:5957  result[i] = staffReviews[reviewIds[i]] */\n      mstore\n        /* \"contracts/ReviewManager.sol\":5899:5902  i++ */\n      0x01\n      add\n        /* \"contracts/ReviewManager.sol\":5860:5969  for (uint i = 0; i < reviewIds.length; i++) {... */\n      jump(tag_131)\n    tag_132:\n      pop\n        /* \"contracts/ReviewManager.sol\":5986:5992  result */\n      swap4\n        /* \"contracts/ReviewManager.sol\":5618:6000  function getStaffReviews(address staff) external view override returns (StaffReview[] memory) {... */\n      swap3\n      pop\n      pop\n      pop\n      jump\t// out\n        /* \"contracts/ReviewManager.sol\":520:577  mapping(uint128 => MenuItemReview) public menuItemReviews */\n    tag_58:\n      0x03\n      0x20\n      dup2\n      swap1\n      mstore\n      0x00\n      swap2\n      dup3\n      mstore\n      0x40\n      swap1\n      swap2\n      keccak256\n      dup1\n      sload\n      0x01\n      dup3\n      add\n      sload\n      0x02\n      dup4\n      add\n      sload\n      swap4\n      dup4\n      add\n      sload\n      0x04\n      dup5\n      add\n      dup1\n      sload\n      sub(shl(0x80, 0x01), 0x01)\n      swap5\n      dup6\n      and\n      swap7\n      sub(shl(0xa0, 0x01), 0x01)\n      swap1\n      swap5\n      and\n      swap6\n      dup5\n      dup7\n      and\n      swap6\n      shl(0x80, 0x01)\n      swap1\n      swap6\n      div\n      swap1\n      swap5\n      and\n      swap4\n      0xff\n      swap1\n      swap4\n      and\n      swap3\n      swap2\n      swap1\n      tag_145\n      swap1\n      tag_138\n      jump\t// in\n    tag_145:\n      dup1\n      0x1f\n      add\n      0x20\n      dup1\n      swap2\n      div\n      mul\n      0x20\n      add\n      mload(0x40)\n      swap1\n      dup2\n      add\n      0x40\n      mstore\n      dup1\n      swap3\n      swap2\n      swap1\n      dup2\n      dup2\n      mstore\n      0x20\n      add\n      dup3\n      dup1\n      sload\n      tag_146\n      swap1\n      tag_138\n      jump\t// in\n    tag_146:\n      dup1\n      iszero\n      tag_147\n      jumpi\n      dup1\n      0x1f\n      lt\n      tag_148\n      jumpi\n      0x0100\n      dup1\n      dup4\n      sload\n      div\n      mul\n      dup4\n      mstore\n      swap2\n      0x20\n      add\n      swap2\n      jump(tag_147)\n    tag_148:\n      dup3\n      add\n      swap2\n      swap1\n      0x00\n      mstore\n      keccak256(0x00, 0x20)\n      swap1\n    tag_149:\n      dup2\n      sload\n      dup2\n      mstore\n      swap1\n      0x01\n      add\n      swap1\n      0x20\n      add\n      dup1\n      dup4\n      gt\n      tag_149\n      jumpi\n      dup3\n      swap1\n      sub\n      0x1f\n      and\n      dup3\n      add\n      swap2\n    tag_147:\n      pop\n      pop\n      pop\n      0x05\n      swap1\n      swap4\n      add\n      sload\n      swap2\n      swap3\n      pop\n      pop\n      sub(shl(0x80, 0x01), 0x01)\n      and\n      dup8\n      jump\t// out\n        /* \"contracts/ReviewManager.sol\":6957:7413  function getAverageMenuItemRating(uint128 menuItemId) external view override returns (uint128 averageRating, uint128 ratingCount) {... */\n    tag_63:\n        /* \"contracts/ReviewManager.sol\":7102:7113  menuManager */\n      sload(0x07)\n        /* \"contracts/ReviewManager.sol\":7102:7140  menuManager.getMenuItem(0, menuItemId) */\n      mload(0x40)\n      shl(0xe3, 0x018a512d)\n      dup2\n      mstore\n        /* \"contracts/ReviewManager.sol\":7043:7064  uint128 averageRating */\n      0x00\n        /* \"contracts/ReviewManager.sol\":7102:7140  menuManager.getMenuItem(0, menuItemId) */\n      0x04\n      dup3\n      add\n        /* \"#utility.yul\":5280:5346   */\n      dup2\n      swap1\n      mstore\n      sub(shl(0x80, 0x01), 0x01)\n        /* \"#utility.yul\":5382:5429   */\n      dup5\n      and\n        /* \"#utility.yul\":5362:5380   */\n      0x24\n      dup4\n      add\n        /* \"#utility.yul\":5355:5430   */\n      mstore\n        /* \"contracts/ReviewManager.sol\":7043:7064  uint128 averageRating */\n      swap2\n      dup3\n      swap2\n      sub(shl(0xa0, 0x01), 0x01)\n        /* \"contracts/ReviewManager.sol\":7102:7113  menuManager */\n      swap1\n      swap2\n      and\n      swap1\n        /* \"contracts/ReviewManager.sol\":7102:7125  menuManager.getMenuItem */\n      0x0c528968\n      swap1\n        /* \"#utility.yul\":5253:5271   */\n      0x44\n      add\n        /* \"contracts/ReviewManager.sol\":7102:7140  menuManager.getMenuItem(0, menuItemId) */\n      0x00\n      mload(0x40)\n      dup1\n      dup4\n      sub\n      dup2\n      dup7\n      gas\n      staticcall\n      swap3\n      pop\n      pop\n      pop\n      dup1\n      iszero\n      tag_153\n      jumpi\n      pop\n      mload(0x40)\n      returndatasize\n      0x00\n      dup3\n      returndatacopy\n      0x1f\n      returndatasize\n      swap1\n      dup2\n      add\n      not(0x1f)\n      and\n      dup3\n      add\n      0x40\n      mstore\n      tag_154\n      swap2\n      swap1\n      dup2\n      add\n      swap1\n      tag_155\n      jump\t// in\n    tag_154:\n      0x01\n    tag_153:\n        /* \"contracts/ReviewManager.sol\":7098:7406  try menuManager.getMenuItem(0, menuItemId) returns (MenuItem memory item) {... */\n      tag_156\n      jumpi\n      pop\n        /* \"contracts/ReviewManager.sol\":7389:7390  0 */\n      0x00\n      swap3\n      dup4\n      swap3\n      pop\n        /* \"contracts/ReviewManager.sol\":6957:7413  function getAverageMenuItemRating(uint128 menuItemId) external view override returns (uint128 averageRating, uint128 ratingCount) {... */\n      swap1\n      pop\n      jump\t// out\n        /* \"contracts/ReviewManager.sol\":7098:7406  try menuManager.getMenuItem(0, menuItemId) returns (MenuItem memory item) {... */\n    tag_156:\n        /* \"contracts/ReviewManager.sol\":7191:7195  item */\n      dup1\n        /* \"contracts/ReviewManager.sol\":7191:7207  item.ratingCount */\n      0x0120\n      add\n      mload\n      sub(shl(0x80, 0x01), 0x01)\n        /* \"contracts/ReviewManager.sol\":7191:7212  item.ratingCount == 0 */\n      and\n        /* \"contracts/ReviewManager.sol\":7211:7212  0 */\n      0x00\n        /* \"contracts/ReviewManager.sol\":7191:7212  item.ratingCount == 0 */\n      sub\n        /* \"contracts/ReviewManager.sol\":7187:7227  if (item.ratingCount == 0) return (0, 0) */\n      tag_161\n      jumpi\n      pop\n        /* \"contracts/ReviewManager.sol\":7222:7223  0 */\n      0x00\n      swap4\n      dup5\n      swap4\n      pop\n        /* \"contracts/ReviewManager.sol\":6957:7413  function getAverageMenuItemRating(uint128 menuItemId) external view override returns (uint128 averageRating, uint128 ratingCount) {... */\n      swap2\n      pop\n      pop\n      jump\t// out\n        /* \"contracts/ReviewManager.sol\":7187:7227  if (item.ratingCount == 0) return (0, 0) */\n    tag_161:\n        /* \"contracts/ReviewManager.sol\":7285:7289  item */\n      dup1\n        /* \"contracts/ReviewManager.sol\":7285:7301  item.ratingCount */\n      0x0120\n      add\n      mload\n        /* \"contracts/ReviewManager.sol\":7266:7270  item */\n      dup2\n        /* \"contracts/ReviewManager.sol\":7266:7282  item.totalRating */\n      0x0100\n      add\n      mload\n        /* \"contracts/ReviewManager.sol\":7266:7301  item.totalRating / item.ratingCount */\n      tag_162\n      swap2\n      swap1\n      tag_163\n      jump\t// in\n    tag_162:\n        /* \"contracts/ReviewManager.sol\":7242:7302  averageRating = uint128(item.totalRating / item.ratingCount) */\n      swap3\n      pop\n        /* \"contracts/ReviewManager.sol\":7331:7335  item */\n      dup1\n        /* \"contracts/ReviewManager.sol\":7331:7347  item.ratingCount */\n      0x0120\n      add\n      mload\n        /* \"contracts/ReviewManager.sol\":7317:7347  ratingCount = item.ratingCount */\n      swap2\n      pop\n        /* \"contracts/ReviewManager.sol\":7141:7359  returns (MenuItem memory item) {... */\n      pop\n        /* \"contracts/ReviewManager.sol\":6957:7413  function getAverageMenuItemRating(uint128 menuItemId) external view override returns (uint128 averageRating, uint128 ratingCount) {... */\n      swap2\n      pop\n      swap2\n      jump\t// out\n        /* \"@openzeppelin/contracts-upgradeable/access/OwnableUpgradeable.sol\":3155:3256  function renounceOwnership() public virtual onlyOwner {... */\n    tag_67:\n        /* \"@openzeppelin/contracts-upgradeable/access/OwnableUpgradeable.sol\":2334:2347  _checkOwner() */\n      tag_165\n        /* \"@openzeppelin/contracts-upgradeable/access/OwnableUpgradeable.sol\":2334:2345  _checkOwner */\n      tag_166\n        /* \"@openzeppelin/contracts-upgradeable/access/OwnableUpgradeable.sol\":2334:2347  _checkOwner() */\n      jump\t// in\n    tag_165:\n        /* \"@openzeppelin/contracts-upgradeable/access/OwnableUpgradeable.sol\":3219:3249  _transferOwnership(address(0)) */\n      tag_168\n        /* \"@openzeppelin/contracts-upgradeable/access/OwnableUpgradeable.sol\":3246:3247  0 */\n      0x00\n        /* \"@openzeppelin/contracts-upgradeable/access/OwnableUpgradeable.sol\":3219:3237  _transferOwnership */\n      tag_169\n        /* \"@openzeppelin/contracts-upgradeable/access/OwnableUpgradeable.sol\":3219:3249  _transferOwnership(address(0)) */\n      jump\t// in\n    tag_168:\n        /* \"@openzeppelin/contracts-upgradeable/access/OwnableUpgradeable.sol\":3155:3256  function renounceOwnership() public virtual onlyOwner {... */\n      jump\t// out\n        /* \"contracts/ReviewManager.sol\":707:761  mapping(uint128 => uint128[]) public reviewsByMenuItem */\n    tag_70:\n      mstore(0x20, 0x06)\n      dup2\n      0x00\n      mstore\n      keccak256(0x00, 0x40)\n      dup2\n      dup2\n      sload\n      dup2\n      lt\n      tag_117\n      jumpi\n      0x00\n      dup1\n      revert\n        /* \"contracts/ReviewManager.sol\":3106:4069  function rateStaff(address customerEoa, address staff, uint128 restaurantId, uint8 rating, string memory comment) ... */\n    tag_75:\n        /* \"contracts/ReviewManager.sol\":1591:1613  foodAppContractAddress */\n      and(sub(shl(0xa0, 0x01), 0x01), sload(0x08))\n        /* \"contracts/ReviewManager.sol\":1577:1587  msg.sender */\n      caller\n        /* \"contracts/ReviewManager.sol\":1577:1613  msg.sender != foodAppContractAddress */\n      eq\n        /* \"contracts/ReviewManager.sol\":1573:1649  if (msg.sender != foodAppContractAddress) revert ReviewManager__NotFoodApp() */\n      tag_173\n      jumpi\n        /* \"contracts/ReviewManager.sol\":1622:1649  ReviewManager__NotFoodApp() */\n      mload(0x40)\n      shl(0xe1, 0x19c68547)\n      dup2\n      mstore\n      0x04\n      add\n      mload(0x40)\n      dup1\n      swap2\n      sub\n      swap1\n      revert\n        /* \"contracts/ReviewManager.sol\":1573:1649  if (msg.sender != foodAppContractAddress) revert ReviewManager__NotFoodApp() */\n    tag_173:\n        /* \"contracts/ReviewManager.sol\":3284:3301  restaurantManager */\n      sload(0x09)\n        /* \"contracts/ReviewManager.sol\":3284:3332  restaurantManager.restaurantExists(restaurantId) */\n      mload(0x40)\n      shl(0xe0, 0xb2a6cb63)\n      dup2\n      mstore\n      sub(shl(0x80, 0x01), 0x01)\n        /* \"#utility.yul\":825:872   */\n      dup6\n      and\n        /* \"contracts/ReviewManager.sol\":3284:3332  restaurantManager.restaurantExists(restaurantId) */\n      0x04\n      dup3\n      add\n        /* \"#utility.yul\":807:873   */\n      mstore\n      sub(shl(0xa0, 0x01), 0x01)\n        /* \"contracts/ReviewManager.sol\":3284:3301  restaurantManager */\n      swap1\n      swap2\n      and\n      swap1\n        /* \"contracts/ReviewManager.sol\":3284:3318  restaurantManager.restaurantExists */\n      0xb2a6cb63\n      swap1\n        /* \"#utility.yul\":780:798   */\n      0x24\n      add\n        /* \"contracts/ReviewManager.sol\":3284:3332  restaurantManager.restaurantExists(restaurantId) */\n      0x20\n      mload(0x40)\n      dup1\n      dup4\n      sub\n      dup2\n      dup7\n      gas\n      staticcall\n      iszero\n      dup1\n      iszero\n      tag_177\n      jumpi\n      returndatacopy(0x00, 0x00, returndatasize)\n      revert(0x00, returndatasize)\n    tag_177:\n      pop\n      pop\n      pop\n      pop\n      mload(0x40)\n      returndatasize\n      not(0x1f)\n      0x1f\n      dup3\n      add\n      and\n      dup3\n      add\n      dup1\n      0x40\n      mstore\n      pop\n      dup2\n      add\n      swap1\n      tag_178\n      swap2\n      swap1\n      tag_179\n      jump\t// in\n    tag_178:\n        /* \"contracts/ReviewManager.sol\":3279:3376  if (!restaurantManager.restaurantExists(restaurantId)) revert ReviewManager__RestaurantNotFound() */\n      tag_180\n      jumpi\n        /* \"contracts/ReviewManager.sol\":3341:3376  ReviewManager__RestaurantNotFound() */\n      mload(0x40)\n      shl(0xe0, 0x47b124fd)\n      dup2\n      mstore\n      0x04\n      add\n      mload(0x40)\n      dup1\n      swap2\n      sub\n      swap1\n      revert\n        /* \"contracts/ReviewManager.sol\":3279:3376  if (!restaurantManager.restaurantExists(restaurantId)) revert ReviewManager__RestaurantNotFound() */\n    tag_180:\n      sub(shl(0xa0, 0x01), 0x01)\n        /* \"contracts/ReviewManager.sol\":3391:3410  staff == address(0) */\n      dup5\n      and\n        /* \"contracts/ReviewManager.sol\":3387:3450  if (staff == address(0)) revert ReviewManager__InvalidAddress() */\n      tag_181\n      jumpi\n        /* \"contracts/ReviewManager.sol\":3419:3450  ReviewManager__InvalidAddress() */\n      mload(0x40)\n      shl(0xe0, 0x9e4f29a3)\n      dup2\n      mstore\n      0x04\n      add\n      mload(0x40)\n      dup1\n      swap2\n      sub\n      swap1\n      revert\n        /* \"contracts/ReviewManager.sol\":3387:3450  if (staff == address(0)) revert ReviewManager__InvalidAddress() */\n    tag_181:\n        /* \"contracts/ReviewManager.sol\":3474:3475  1 */\n      0x01\n        /* \"contracts/ReviewManager.sol\":3465:3471  rating */\n      dup3\n        /* \"contracts/ReviewManager.sol\":3465:3475  rating < 1 */\n      0xff\n      and\n      lt\n        /* \"contracts/ReviewManager.sol\":3465:3489  rating < 1 || rating > 5 */\n      dup1\n      tag_182\n      jumpi\n      pop\n        /* \"contracts/ReviewManager.sol\":3488:3489  5 */\n      0x05\n        /* \"contracts/ReviewManager.sol\":3479:3485  rating */\n      dup3\n        /* \"contracts/ReviewManager.sol\":3479:3489  rating > 5 */\n      0xff\n      and\n      gt\n        /* \"contracts/ReviewManager.sol\":3465:3489  rating < 1 || rating > 5 */\n    tag_182:\n        /* \"contracts/ReviewManager.sol\":3461:3528  if (rating < 1 || rating > 5) revert ReviewManager__InvalidRating() */\n      iszero\n      tag_183\n      jumpi\n        /* \"contracts/ReviewManager.sol\":3498:3528  ReviewManager__InvalidRating() */\n      mload(0x40)\n      shl(0xe0, 0xca20ea4b)\n      dup2\n      mstore\n      0x04\n      add\n      mload(0x40)\n      dup1\n      swap2\n      sub\n      swap1\n      revert\n        /* \"contracts/ReviewManager.sol\":3461:3528  if (rating < 1 || rating > 5) revert ReviewManager__InvalidRating() */\n    tag_183:\n        /* \"contracts/ReviewManager.sol\":3541:3557  uint128 reviewId */\n      0x00\n        /* \"contracts/ReviewManager.sol\":3560:3574  nextReviewId++ */\n      dup1\n      sload\n      sub(shl(0x80, 0x01), 0x01)\n      and\n        /* \"contracts/ReviewManager.sol\":3541:3557  uint128 reviewId */\n      dup2\n      dup1\n        /* \"contracts/ReviewManager.sol\":3560:3574  nextReviewId++ */\n      tag_184\n      dup4\n      tag_185\n      jump\t// in\n    tag_184:\n      dup3\n      sload\n      sub(shl(0x80, 0x01), 0x01)\n      swap2\n      dup3\n      and\n      0x0100\n      swap4\n      swap1\n      swap4\n      exp\n      swap3\n      dup4\n      mul\n      swap3\n      dup3\n      mul\n      not\n      and\n      swap2\n      swap1\n      swap2\n      or\n      swap1\n      swap2\n      sstore\n        /* \"contracts/ReviewManager.sol\":3610:3875  StaffReview({... */\n      0x40\n      dup1\n      mload\n      0xe0\n      dup2\n      add\n      dup3\n      mstore\n      dup4\n      dup4\n      and\n      dup1\n      dup3\n      mstore\n      sub(shl(0xa0, 0x01), 0x01)\n      dup1\n      dup13\n      and\n      0x20\n      dup1\n      dup6\n      add\n      swap2\n      dup3\n      mstore\n      dup13\n      dup4\n      and\n      dup6\n      dup8\n      add\n      swap1\n      dup2\n      mstore\n      dup13\n      dup9\n      and\n      0x60\n      dup8\n      add\n      swap1\n      dup2\n      mstore\n      0xff\n      dup1\n      dup15\n      and\n      0x80\n      dup10\n      add\n      swap1\n      dup2\n      mstore\n      0xa0\n      dup10\n      add\n      dup15\n      dup2\n      mstore\n        /* \"contracts/ReviewManager.sol\":3847:3862  block.timestamp */\n      timestamp\n        /* \"contracts/ReviewManager.sol\":3610:3875  StaffReview({... */\n      dup13\n      and\n      0xc0\n      dup12\n      add\n      mstore\n      0x00\n        /* \"contracts/ReviewManager.sol\":3585:3607  staffReviews[reviewId] */\n      swap9\n      dup10\n      mstore\n        /* \"contracts/ReviewManager.sol\":3585:3597  staffReviews */\n      0x02\n        /* \"contracts/ReviewManager.sol\":3585:3607  staffReviews[reviewId] */\n      swap6\n      dup7\n      swap1\n      mstore\n      swap10\n      swap1\n      swap8\n      keccak256\n        /* \"contracts/ReviewManager.sol\":3585:3875  staffReviews[reviewId] = StaffReview({... */\n      dup9\n      mload\n      dup2\n      sload\n      swap1\n      dup13\n      and\n      not(sub(shl(0x80, 0x01), 0x01))\n      swap1\n      swap2\n      and\n      or\n      dup2\n      sstore\n      swap5\n      mload\n      0x01\n      dup7\n      add\n      dup1\n      sload\n      swap2\n      dup9\n      and\n      not(sub(shl(0xa0, 0x01), 0x01))\n      swap3\n      dup4\n      and\n      or\n      swap1\n      sstore\n      swap3\n      mload\n      swap4\n      dup6\n      add\n      dup1\n      sload\n      swap5\n      swap1\n      swap7\n      and\n      swap4\n      swap1\n      swap3\n      and\n      swap3\n      swap1\n      swap3\n      or\n      swap1\n      swap4\n      sstore\n      mload\n      0x03\n      dup3\n      add\n      dup1\n      sload\n      swap5\n      mload\n      swap1\n      swap4\n      and\n      shl(0x80, 0x01)\n      mul\n      not(sub(shl(0x88, 0x01), 0x01))\n      swap1\n      swap5\n      and\n      swap7\n      and\n      swap6\n      swap1\n      swap6\n      or\n      swap2\n      swap1\n      swap2\n      or\n      swap1\n      sstore\n      swap1\n      mload\n        /* \"contracts/ReviewManager.sol\":3541:3574  uint128 reviewId = nextReviewId++ */\n      swap3\n      swap4\n      pop\n        /* \"contracts/ReviewManager.sol\":3610:3875  StaffReview({... */\n      swap2\n        /* \"contracts/ReviewManager.sol\":3585:3875  staffReviews[reviewId] = StaffReview({... */\n      0x04\n      dup3\n      add\n      swap1\n      tag_186\n      swap1\n      dup3\n      tag_187\n      jump\t// in\n    tag_186:\n      pop\n      0xc0\n      swap2\n      swap1\n      swap2\n      add\n      mload\n      0x05\n      swap2\n      dup3\n      add\n      dup1\n      sload\n      not(sub(shl(0x80, 0x01), 0x01))\n      and\n      sub(shl(0x80, 0x01), 0x01)\n      swap3\n      dup4\n      and\n      or\n      swap1\n      sstore\n      sub(shl(0xa0, 0x01), 0x01)\n        /* \"contracts/ReviewManager.sol\":3886:3907  reviewsByStaff[staff] */\n      dup8\n      dup2\n      and\n      0x00\n      dup2\n      dup2\n      mstore\n      0x20\n      swap5\n      dup6\n      mstore\n      0x40\n      dup1\n      dup3\n      keccak256\n        /* \"contracts/ReviewManager.sol\":3886:3922  reviewsByStaff[staff].push(reviewId) */\n      dup1\n      sload\n      0x01\n      dup2\n      dup2\n      add\n      dup4\n      sstore\n      swap2\n      dup5\n      mstore\n      dup8\n      dup5\n      keccak256\n      0x02\n      dup1\n      dup4\n      div\n      swap1\n      swap2\n      add\n      dup1\n      sload\n      swap3\n      dup5\n      and\n      0x10\n      swap1\n      dup2\n      mul\n        /* \"contracts/ReviewManager.sol\":3585:3875  staffReviews[reviewId] = StaffReview({... */\n      0x0100\n        /* \"contracts/ReviewManager.sol\":3886:3922  reviewsByStaff[staff].push(reviewId) */\n      swap1\n      dup2\n      exp\n      dup1\n      dup13\n      mul\n      not\n      swap1\n      swap6\n      and\n      dup14\n      dup13\n      and\n      swap6\n      dup7\n      mul\n      or\n      swap1\n      swap3\n      sstore\n        /* \"contracts/ReviewManager.sol\":3933:3966  reviewsByRestaurant[restaurantId] */\n      dup15\n      dup11\n      and\n      dup1\n      dup9\n      mstore\n        /* \"contracts/ReviewManager.sol\":3933:3952  reviewsByRestaurant */\n      0x04\n        /* \"contracts/ReviewManager.sol\":3933:3966  reviewsByRestaurant[restaurantId] */\n      dup13\n      mstore\n      dup7\n      dup9\n      keccak256\n        /* \"contracts/ReviewManager.sol\":3933:3981  reviewsByRestaurant[restaurantId].push(reviewId) */\n      dup1\n      sload\n      dup1\n      dup9\n      add\n      dup3\n      sstore\n      swap1\n      dup10\n      mstore\n      swap8\n      dup13\n      swap1\n      keccak256\n      swap4\n      dup9\n      div\n      swap1\n      swap4\n      add\n      dup1\n      sload\n      swap8\n      swap1\n      swap6\n      and\n      mul\n      swap1\n      exp\n      swap8\n      dup9\n      mul\n      not\n      swap1\n      swap5\n      and\n      swap7\n      dup2\n      mul\n      swap7\n      swap1\n      swap7\n      or\n      swap1\n      sstore\n        /* \"contracts/ReviewManager.sol\":3999:4061  StaffRated(reviewId, customerEoa, staff, restaurantId, rating) */\n      dup1\n      mload\n        /* \"#utility.yul\":18719:18785   */\n      swap2\n      dup3\n      mstore\n        /* \"#utility.yul\":18833:18837   */\n      0xff\n        /* \"#utility.yul\":18821:18838   */\n      dup10\n      and\n        /* \"#utility.yul\":18801:18819   */\n      swap6\n      dup3\n      add\n        /* \"#utility.yul\":18794:18839   */\n      swap6\n      swap1\n      swap6\n      mstore\n        /* \"contracts/ReviewManager.sol\":3886:3907  reviewsByStaff[staff] */\n      swap1\n      swap4\n        /* \"contracts/ReviewManager.sol\":3999:4061  StaffRated(reviewId, customerEoa, staff, restaurantId, rating) */\n      swap2\n      dup11\n      and\n      swap3\n        /* \"contracts/ReviewManager.sol\":3886:3922  reviewsByStaff[staff].push(reviewId) */\n      swap2\n        /* \"contracts/ReviewManager.sol\":3999:4061  StaffRated(reviewId, customerEoa, staff, restaurantId, rating) */\n      0x80266a32ce84d3a84ee0a516416c3687d2079c2bd74a5ac716f3827aa5ae6aa7\n      swap2\n        /* \"#utility.yul\":18692:18710   */\n      add\n        /* \"contracts/ReviewManager.sol\":3999:4061  StaffRated(reviewId, customerEoa, staff, restaurantId, rating) */\n      mload(0x40)\n      dup1\n      swap2\n      sub\n      swap1\n      log4\n        /* \"contracts/ReviewManager.sol\":3268:4069  {... */\n      pop\n        /* \"contracts/ReviewManager.sol\":3106:4069  function rateStaff(address customerEoa, address staff, uint128 restaurantId, uint8 rating, string memory comment) ... */\n      pop\n      pop\n      pop\n      pop\n      pop\n      jump\t// out\n        /* \"contracts/ReviewManager.sol\":461:512  mapping(uint128 => StaffReview) public staffReviews */\n    tag_82:\n      0x02\n      0x20\n      dup2\n      swap1\n      mstore\n      0x00\n      swap2\n      dup3\n      mstore\n      0x40\n      swap1\n      swap2\n      keccak256\n      dup1\n      sload\n      0x01\n      dup3\n      add\n      sload\n      swap3\n      dup3\n      add\n      sload\n      0x03\n      dup4\n      add\n      sload\n      0x04\n      dup5\n      add\n      dup1\n      sload\n      sub(shl(0x80, 0x01), 0x01)\n      swap5\n      dup6\n      and\n      swap7\n      sub(shl(0xa0, 0x01), 0x01)\n      swap1\n      dup2\n      and\n      swap7\n      swap5\n      and\n      swap5\n      dup4\n      and\n      swap4\n      shl(0x80, 0x01)\n      swap1\n      swap4\n      div\n      0xff\n      and\n      swap3\n      swap2\n      swap1\n      tag_145\n      swap1\n      tag_138\n      jump\t// in\n        /* \"contracts/ReviewManager.sol\":6008:6418  function getMenuItemReviews(uint128 menuItemId) external view override returns (MenuItemReview[] memory) {... */\n    tag_90:\n      sub(shl(0x80, 0x01), 0x01)\n        /* \"contracts/ReviewManager.sol\":6153:6182  reviewsByMenuItem[menuItemId] */\n      dup2\n      and\n        /* \"contracts/ReviewManager.sol\":6124:6150  uint128[] memory reviewIds */\n      0x00\n        /* \"contracts/ReviewManager.sol\":6153:6182  reviewsByMenuItem[menuItemId] */\n      swap1\n      dup2\n      mstore\n        /* \"contracts/ReviewManager.sol\":6153:6170  reviewsByMenuItem */\n      0x06\n        /* \"contracts/ReviewManager.sol\":6153:6182  reviewsByMenuItem[menuItemId] */\n      0x20\n      swap1\n      dup2\n      mstore\n      0x40\n      dup1\n      dup4\n      keccak256\n        /* \"contracts/ReviewManager.sol\":6124:6182  uint128[] memory reviewIds = reviewsByMenuItem[menuItemId] */\n      dup1\n      sload\n      dup3\n      mload\n      dup2\n      dup6\n      mul\n      dup2\n      add\n      dup6\n      add\n      swap1\n      swap4\n      mstore\n      dup1\n      dup4\n      mstore\n        /* \"contracts/ReviewManager.sol\":6088:6111  MenuItemReview[] memory */\n      0x60\n      swap5\n        /* \"contracts/ReviewManager.sol\":6124:6150  uint128[] memory reviewIds */\n      swap4\n        /* \"contracts/ReviewManager.sol\":6124:6182  uint128[] memory reviewIds = reviewsByMenuItem[menuItemId] */\n      dup4\n      add\n        /* \"contracts/ReviewManager.sol\":6153:6182  reviewsByMenuItem[menuItemId] */\n      dup3\n        /* \"contracts/ReviewManager.sol\":6124:6182  uint128[] memory reviewIds = reviewsByMenuItem[menuItemId] */\n      dup3\n      dup1\n      iszero\n      tag_201\n      jumpi\n      0x20\n      mul\n      dup3\n      add\n      swap2\n      swap1\n      0x00\n      mstore\n      keccak256(0x00, 0x20)\n      swap1\n      0x00\n      swap1\n    tag_202:\n      dup3\n      dup3\n      swap1\n      sload\n      swap1\n      0x0100\n      exp\n      swap1\n      div\n      sub(shl(0x80, 0x01), 0x01)\n      and\n      sub(shl(0x80, 0x01), 0x01)\n      and\n      dup2\n      mstore\n      0x20\n      add\n      swap1\n      0x10\n      add\n      swap1\n      0x20\n      dup3\n      0x0f\n      add\n      div\n      swap3\n      dup4\n      add\n      swap3\n      0x01\n      sub\n      dup3\n      mul\n      swap2\n      pop\n      dup1\n      dup5\n      gt\n      tag_202\n      jumpi\n      swap1\n      pop\n    tag_201:\n      pop\n      pop\n      pop\n      pop\n      pop\n      swap1\n      pop\n        /* \"contracts/ReviewManager.sol\":6193:6223  MenuItemReview[] memory result */\n      0x00\n        /* \"contracts/ReviewManager.sol\":6247:6256  reviewIds */\n      dup2\n        /* \"contracts/ReviewManager.sol\":6247:6263  reviewIds.length */\n      mload\n      sub(shl(0x40, 0x01), 0x01)\n        /* \"contracts/ReviewManager.sol\":6226:6264  new MenuItemReview[](reviewIds.length) */\n      dup2\n      gt\n      iszero\n      tag_204\n      jumpi\n      tag_204\n      tag_126\n      jump\t// in\n    tag_204:\n      mload(0x40)\n      swap1\n      dup1\n      dup3\n      mstore\n      dup1\n      0x20\n      mul\n      0x20\n      add\n      dup3\n      add\n      0x40\n      mstore\n      dup1\n      iszero\n      tag_205\n      jumpi\n      dup2\n      0x20\n      add\n    tag_206:\n      0x40\n      dup1\n      mload\n      0xe0\n      dup2\n      add\n      dup3\n      mstore\n      0x00\n      dup1\n      dup3\n      mstore\n      0x20\n      dup1\n      dup4\n      add\n      dup3\n      swap1\n      mstore\n      swap3\n      dup3\n      add\n      dup2\n      swap1\n      mstore\n      0x60\n      dup1\n      dup4\n      add\n      dup3\n      swap1\n      mstore\n      0x80\n      dup4\n      add\n      dup3\n      swap1\n      mstore\n      0xa0\n      dup4\n      add\n      mstore\n      0xc0\n      dup3\n      add\n      mstore\n      dup3\n      mstore\n      not(0x00)\n      swap1\n      swap3\n      add\n      swap2\n      add\n      dup2\n      tag_206\n      jumpi\n      swap1\n      pop\n    tag_205:\n      pop\n        /* \"contracts/ReviewManager.sol\":6193:6264  MenuItemReview[] memory result = new MenuItemReview[](reviewIds.length) */\n      swap1\n      pop\n        /* \"contracts/ReviewManager.sol\":6280:6286  uint i */\n      0x00\n        /* \"contracts/ReviewManager.sol\":6275:6387  for (uint i = 0; i < reviewIds.length; i++) {... */\n    tag_209:\n        /* \"contracts/ReviewManager.sol\":6296:6305  reviewIds */\n      dup3\n        /* \"contracts/ReviewManager.sol\":6296:6312  reviewIds.length */\n      mload\n        /* \"contracts/ReviewManager.sol\":6292:6293  i */\n      dup2\n        /* \"contracts/ReviewManager.sol\":6292:6312  i < reviewIds.length */\n      lt\n        /* \"contracts/ReviewManager.sol\":6275:6387  for (uint i = 0; i < reviewIds.length; i++) {... */\n      iszero\n      tag_132\n      jumpi\n        /* \"contracts/ReviewManager.sol\":6346:6361  menuItemReviews */\n      0x03\n        /* \"contracts/ReviewManager.sol\":6346:6375  menuItemReviews[reviewIds[i]] */\n      0x00\n        /* \"contracts/ReviewManager.sol\":6362:6371  reviewIds */\n      dup5\n        /* \"contracts/ReviewManager.sol\":6372:6373  i */\n      dup4\n        /* \"contracts/ReviewManager.sol\":6362:6374  reviewIds[i] */\n      dup2\n      mload\n      dup2\n      lt\n      tag_213\n      jumpi\n      tag_213\n      tag_136\n      jump\t// in\n    tag_213:\n      0x20\n      swap1\n      dup2\n      mul\n      swap2\n      swap1\n      swap2\n      add\n      dup2\n      add\n      mload\n      sub(shl(0x80, 0x01), 0x01)\n        /* \"contracts/ReviewManager.sol\":6346:6375  menuItemReviews[reviewIds[i]] */\n      swap1\n      dup2\n      and\n      dup4\n      mstore\n      dup3\n      dup3\n      add\n      swap4\n      swap1\n      swap4\n      mstore\n      0x40\n      swap2\n      dup3\n      add\n      0x00\n      keccak256\n        /* \"contracts/ReviewManager.sol\":6334:6375  result[i] = menuItemReviews[reviewIds[i]] */\n      dup3\n      mload\n      0xe0\n      dup2\n      add\n      dup5\n      mstore\n      dup2\n      sload\n      dup6\n      and\n      dup2\n      mstore\n      0x01\n      dup3\n      add\n      sload\n      sub(shl(0xa0, 0x01), 0x01)\n      and\n      swap3\n      dup2\n      add\n      swap3\n      swap1\n      swap3\n      mstore\n      0x02\n      dup2\n      add\n      sload\n      dup1\n      dup6\n      and\n      swap4\n      dup4\n      add\n      swap4\n      swap1\n      swap4\n      mstore\n      shl(0x80, 0x01)\n      swap1\n      swap3\n      div\n      swap1\n      swap3\n      and\n      0x60\n      dup4\n      add\n      mstore\n      0x03\n      dup2\n      add\n      sload\n      0xff\n      and\n      0x80\n      dup4\n      add\n      mstore\n      0x04\n      dup2\n      add\n      dup1\n      sload\n      0xa0\n      dup5\n      add\n      swap2\n      swap1\n      tag_214\n      swap1\n      tag_138\n      jump\t// in\n    tag_214:\n      dup1\n      0x1f\n      add\n      0x20\n      dup1\n      swap2\n      div\n      mul\n      0x20\n      add\n      mload(0x40)\n      swap1\n      dup2\n      add\n      0x40\n      mstore\n      dup1\n      swap3\n      swap2\n      swap1\n      dup2\n      dup2\n      mstore\n      0x20\n      add\n      dup3\n      dup1\n      sload\n      tag_215\n      swap1\n      tag_138\n      jump\t// in\n    tag_215:\n      dup1\n      iszero\n      tag_216\n      jumpi\n      dup1\n      0x1f\n      lt\n      tag_217\n      jumpi\n      0x0100\n      dup1\n      dup4\n      sload\n      div\n      mul\n      dup4\n      mstore\n      swap2\n      0x20\n      add\n      swap2\n      jump(tag_216)\n    tag_217:\n      dup3\n      add\n      swap2\n      swap1\n      0x00\n      mstore\n      keccak256(0x00, 0x20)\n      swap1\n    tag_218:\n      dup2\n      sload\n      dup2\n      mstore\n      swap1\n      0x01\n      add\n      swap1\n      0x20\n      add\n      dup1\n      dup4\n      gt\n      tag_218\n      jumpi\n      dup3\n      swap1\n      sub\n      0x1f\n      and\n      dup3\n      add\n      swap2\n    tag_216:\n      pop\n      pop\n      pop\n      swap2\n      dup4\n      mstore\n      pop\n      pop\n      0x05\n      swap2\n      swap1\n      swap2\n      add\n      sload\n      sub(shl(0x80, 0x01), 0x01)\n      and\n      0x20\n      swap1\n      swap2\n      add\n      mstore\n        /* \"contracts/ReviewManager.sol\":6334:6343  result[i] */\n      dup3\n      mload\n        /* \"contracts/ReviewManager.sol\":6334:6340  result */\n      dup4\n      swap1\n        /* \"contracts/ReviewManager.sol\":6341:6342  i */\n      dup4\n      swap1\n        /* \"contracts/ReviewManager.sol\":6334:6343  result[i] */\n      dup2\n      lt\n      tag_220\n      jumpi\n      tag_220\n      tag_136\n      jump\t// in\n    tag_220:\n      0x20\n      swap1\n      dup2\n      mul\n      swap2\n      swap1\n      swap2\n      add\n      add\n        /* \"contracts/ReviewManager.sol\":6334:6375  result[i] = menuItemReviews[reviewIds[i]] */\n      mstore\n        /* \"contracts/ReviewManager.sol\":6314:6317  i++ */\n      0x01\n      add\n        /* \"contracts/ReviewManager.sol\":6275:6387  for (uint i = 0; i < reviewIds.length; i++) {... */\n      jump(tag_209)\n        /* \"contracts/ReviewManager.sol\":413:454  mapping(uint128 => Review) public reviews */\n    tag_95:\n      0x01\n      0x20\n      dup2\n      swap1\n      mstore\n      0x00\n      swap2\n      dup3\n      mstore\n      0x40\n      swap1\n      swap2\n      keccak256\n      dup1\n      sload\n      swap2\n      dup2\n      add\n      sload\n      0x02\n      dup3\n      add\n      sload\n      0x03\n      dup4\n      add\n      sload\n      0x04\n      dup5\n      add\n      dup1\n      sload\n      sub(shl(0x80, 0x01), 0x01)\n      swap7\n      dup8\n      and\n      swap7\n      sub(shl(0xa0, 0x01), 0x01)\n      swap6\n      dup7\n      and\n      swap7\n      swap6\n      swap1\n      swap5\n      and\n      swap5\n      swap4\n      dup4\n      and\n      swap4\n      shl(0x80, 0x01)\n      swap1\n      swap4\n      div\n      0xff\n      and\n      swap3\n      swap2\n      swap1\n      tag_145\n      swap1\n      tag_138\n      jump\t// in\n        /* \"contracts/ReviewManager.sol\":6426:6949  function getAverageStaffRating(address staff) external view override returns (uint128 averageRating, uint128 ratingCount) {... */\n    tag_99:\n      sub(shl(0xa0, 0x01), 0x01)\n        /* \"contracts/ReviewManager.sol\":6588:6609  reviewsByStaff[staff] */\n      dup2\n      and\n        /* \"contracts/ReviewManager.sol\":6504:6525  uint128 averageRating */\n      0x00\n        /* \"contracts/ReviewManager.sol\":6588:6609  reviewsByStaff[staff] */\n      swap1\n      dup2\n      mstore\n        /* \"contracts/ReviewManager.sol\":6588:6602  reviewsByStaff */\n      0x05\n        /* \"contracts/ReviewManager.sol\":6588:6609  reviewsByStaff[staff] */\n      0x20\n      swap1\n      dup2\n      mstore\n      0x40\n      dup1\n      dup4\n      keccak256\n        /* \"contracts/ReviewManager.sol\":6559:6609  uint128[] memory reviewIds = reviewsByStaff[staff] */\n      dup1\n      sload\n      dup3\n      mload\n      dup2\n      dup6\n      mul\n      dup2\n      add\n      dup6\n      add\n      swap1\n      swap4\n      mstore\n      dup1\n      dup4\n      mstore\n        /* \"contracts/ReviewManager.sol\":6504:6525  uint128 averageRating */\n      dup5\n      swap4\n      dup5\n      swap4\n        /* \"contracts/ReviewManager.sol\":6559:6609  uint128[] memory reviewIds = reviewsByStaff[staff] */\n      swap3\n        /* \"contracts/ReviewManager.sol\":6588:6609  reviewsByStaff[staff] */\n      swap2\n        /* \"contracts/ReviewManager.sol\":6559:6609  uint128[] memory reviewIds = reviewsByStaff[staff] */\n      swap1\n      dup4\n      add\n        /* \"contracts/ReviewManager.sol\":6588:6609  reviewsByStaff[staff] */\n      dup3\n        /* \"contracts/ReviewManager.sol\":6559:6609  uint128[] memory reviewIds = reviewsByStaff[staff] */\n      dup3\n      dup1\n      iszero\n      tag_227\n      jumpi\n      0x20\n      mul\n      dup3\n      add\n      swap2\n      swap1\n      0x00\n      mstore\n      keccak256(0x00, 0x20)\n      swap1\n      0x00\n      swap1\n    tag_228:\n      dup3\n      dup3\n      swap1\n      sload\n      swap1\n      0x0100\n      exp\n      swap1\n      div\n      sub(shl(0x80, 0x01), 0x01)\n      and\n      sub(shl(0x80, 0x01), 0x01)\n      and\n      dup2\n      mstore\n      0x20\n      add\n      swap1\n      0x10\n      add\n      swap1\n      0x20\n      dup3\n      0x0f\n      add\n      div\n      swap3\n      dup4\n      add\n      swap3\n      0x01\n      sub\n      dup3\n      mul\n      swap2\n      pop\n      dup1\n      dup5\n      gt\n      tag_228\n      jumpi\n      swap1\n      pop\n    tag_227:\n      pop\n      pop\n      pop\n      pop\n      pop\n      swap1\n      pop\n        /* \"contracts/ReviewManager.sol\":6624:6633  reviewIds */\n      dup1\n        /* \"contracts/ReviewManager.sol\":6624:6640  reviewIds.length */\n      mload\n        /* \"contracts/ReviewManager.sol\":6644:6645  0 */\n      0x00\n        /* \"contracts/ReviewManager.sol\":6624:6645  reviewIds.length == 0 */\n      sub\n        /* \"contracts/ReviewManager.sol\":6620:6660  if (reviewIds.length == 0) return (0, 0) */\n      tag_229\n      jumpi\n      pop\n        /* \"contracts/ReviewManager.sol\":6655:6656  0 */\n      0x00\n      swap4\n      dup5\n      swap4\n      pop\n        /* \"contracts/ReviewManager.sol\":6426:6949  function getAverageStaffRating(address staff) external view override returns (uint128 averageRating, uint128 ratingCount) {... */\n      swap2\n      pop\n      pop\n      jump\t// out\n        /* \"contracts/ReviewManager.sol\":6620:6660  if (reviewIds.length == 0) return (0, 0) */\n    tag_229:\n        /* \"contracts/ReviewManager.sol\":6673:6692  uint256 totalRating */\n      0x00\n      dup1\n        /* \"contracts/ReviewManager.sol\":6707:6826  for (uint i = 0; i < reviewIds.length; i++) {... */\n    tag_230:\n        /* \"contracts/ReviewManager.sol\":6728:6737  reviewIds */\n      dup3\n        /* \"contracts/ReviewManager.sol\":6728:6744  reviewIds.length */\n      mload\n        /* \"contracts/ReviewManager.sol\":6724:6725  i */\n      dup2\n        /* \"contracts/ReviewManager.sol\":6724:6744  i < reviewIds.length */\n      lt\n        /* \"contracts/ReviewManager.sol\":6707:6826  for (uint i = 0; i < reviewIds.length; i++) {... */\n      iszero\n      tag_231\n      jumpi\n        /* \"contracts/ReviewManager.sol\":6781:6793  staffReviews */\n      0x02\n        /* \"contracts/ReviewManager.sol\":6781:6807  staffReviews[reviewIds[i]] */\n      0x00\n        /* \"contracts/ReviewManager.sol\":6794:6803  reviewIds */\n      dup5\n        /* \"contracts/ReviewManager.sol\":6804:6805  i */\n      dup4\n        /* \"contracts/ReviewManager.sol\":6794:6806  reviewIds[i] */\n      dup2\n      mload\n      dup2\n      lt\n      tag_234\n      jumpi\n      tag_234\n      tag_136\n      jump\t// in\n    tag_234:\n      0x20\n      swap1\n      dup2\n      mul\n      swap2\n      swap1\n      swap2\n      add\n      dup2\n      add\n      mload\n      sub(shl(0x80, 0x01), 0x01)\n        /* \"contracts/ReviewManager.sol\":6781:6807  staffReviews[reviewIds[i]] */\n      and\n      dup3\n      mstore\n      dup2\n      add\n      swap2\n      swap1\n      swap2\n      mstore\n      0x40\n      add\n      0x00\n      keccak256\n        /* \"contracts/ReviewManager.sol\":6781:6814  staffReviews[reviewIds[i]].rating */\n      0x03\n      add\n      sload\n        /* \"contracts/ReviewManager.sol\":6766:6814  totalRating += staffReviews[reviewIds[i]].rating */\n      tag_235\n      swap1\n      shl(0x80, 0x01)\n        /* \"contracts/ReviewManager.sol\":6781:6814  staffReviews[reviewIds[i]].rating */\n      swap1\n      div\n      0xff\n      and\n        /* \"contracts/ReviewManager.sol\":6766:6814  totalRating += staffReviews[reviewIds[i]].rating */\n      dup4\n      tag_236\n      jump\t// in\n    tag_235:\n      swap2\n      pop\n        /* \"contracts/ReviewManager.sol\":6746:6749  i++ */\n      0x01\n      add\n        /* \"contracts/ReviewManager.sol\":6707:6826  for (uint i = 0; i < reviewIds.length; i++) {... */\n      jump(tag_230)\n    tag_231:\n      pop\n        /* \"contracts/ReviewManager.sol\":6874:6890  reviewIds.length */\n      dup2\n      mload\n        /* \"contracts/ReviewManager.sol\":6860:6890  totalRating / reviewIds.length */\n      tag_237\n      swap1\n        /* \"contracts/ReviewManager.sol\":6860:6871  totalRating */\n      dup3\n        /* \"contracts/ReviewManager.sol\":6860:6890  totalRating / reviewIds.length */\n      tag_238\n      jump\t// in\n    tag_237:\n        /* \"contracts/ReviewManager.sol\":6836:6891  averageRating = uint128(totalRating / reviewIds.length) */\n      swap4\n      pop\n        /* \"contracts/ReviewManager.sol\":6924:6933  reviewIds */\n      dup2\n        /* \"contracts/ReviewManager.sol\":6924:6940  reviewIds.length */\n      mload\n        /* \"contracts/ReviewManager.sol\":6902:6941  ratingCount = uint128(reviewIds.length) */\n      swap3\n      pop\n        /* \"contracts/ReviewManager.sol\":6548:6949  {... */\n      pop\n      pop\n        /* \"contracts/ReviewManager.sol\":6426:6949  function getAverageStaffRating(address staff) external view override returns (uint128 averageRating, uint128 ratingCount) {... */\n      swap2\n      pop\n      swap2\n      jump\t// out\n        /* \"contracts/ReviewManager.sol\":2273:3098  function rateRestaurant(address customerEoa, uint128 restaurantId, uint8 rating, string memory comment) ... */\n    tag_104:\n        /* \"contracts/ReviewManager.sol\":1591:1613  foodAppContractAddress */\n      and(sub(shl(0xa0, 0x01), 0x01), sload(0x08))\n        /* \"contracts/ReviewManager.sol\":1577:1587  msg.sender */\n      caller\n        /* \"contracts/ReviewManager.sol\":1577:1613  msg.sender != foodAppContractAddress */\n      eq\n        /* \"contracts/ReviewManager.sol\":1573:1649  if (msg.sender != foodAppContractAddress) revert ReviewManager__NotFoodApp() */\n      tag_240\n      jumpi\n        /* \"contracts/ReviewManager.sol\":1622:1649  ReviewManager__NotFoodApp() */\n      mload(0x40)\n      shl(0xe1, 0x19c68547)\n      dup2\n      mstore\n      0x04\n      add\n      mload(0x40)\n      dup1\n      swap2\n      sub\n      swap1\n      revert\n        /* \"contracts/ReviewManager.sol\":1573:1649  if (msg.sender != foodAppContractAddress) revert ReviewManager__NotFoodApp() */\n    tag_240:\n        /* \"contracts/ReviewManager.sol\":2441:2458  restaurantManager */\n      sload(0x09)\n        /* \"contracts/ReviewManager.sol\":2441:2489  restaurantManager.restaurantExists(restaurantId) */\n      mload(0x40)\n      shl(0xe0, 0xb2a6cb63)\n      dup2\n      mstore\n      sub(shl(0x80, 0x01), 0x01)\n        /* \"#utility.yul\":825:872   */\n      dup6\n      and\n        /* \"contracts/ReviewManager.sol\":2441:2489  restaurantManager.restaurantExists(restaurantId) */\n      0x04\n      dup3\n      add\n        /* \"#utility.yul\":807:873   */\n      mstore\n      sub(shl(0xa0, 0x01), 0x01)\n        /* \"contracts/ReviewManager.sol\":2441:2458  restaurantManager */\n      swap1\n      swap2\n      and\n      swap1\n        /* \"contracts/ReviewManager.sol\":2441:2475  restaurantManager.restaurantExists */\n      0xb2a6cb63\n      swap1\n        /* \"#utility.yul\":780:798   */\n      0x24\n      add\n        /* \"contracts/ReviewManager.sol\":2441:2489  restaurantManager.restaurantExists(restaurantId) */\n      0x20\n      mload(0x40)\n      dup1\n      dup4\n      sub\n      dup2\n      dup7\n      gas\n      staticcall\n      iszero\n      dup1\n      iszero\n      tag_244\n      jumpi\n      returndatacopy(0x00, 0x00, returndatasize)\n      revert(0x00, returndatasize)\n    tag_244:\n      pop\n      pop\n      pop\n      pop\n      mload(0x40)\n      returndatasize\n      not(0x1f)\n      0x1f\n      dup3\n      add\n      and\n      dup3\n      add\n      dup1\n      0x40\n      mstore\n      pop\n      dup2\n      add\n      swap1\n      tag_245\n      swap2\n      swap1\n      tag_179\n      jump\t// in\n    tag_245:\n        /* \"contracts/ReviewManager.sol\":2436:2533  if (!restaurantManager.restaurantExists(restaurantId)) revert ReviewManager__RestaurantNotFound() */\n      tag_246\n      jumpi\n        /* \"contracts/ReviewManager.sol\":2498:2533  ReviewManager__RestaurantNotFound() */\n      mload(0x40)\n      shl(0xe0, 0x47b124fd)\n      dup2\n      mstore\n      0x04\n      add\n      mload(0x40)\n      dup1\n      swap2\n      sub\n      swap1\n      revert\n        /* \"contracts/ReviewManager.sol\":2436:2533  if (!restaurantManager.restaurantExists(restaurantId)) revert ReviewManager__RestaurantNotFound() */\n    tag_246:\n        /* \"contracts/ReviewManager.sol\":2557:2558  1 */\n      0x01\n        /* \"contracts/ReviewManager.sol\":2548:2554  rating */\n      dup3\n        /* \"contracts/ReviewManager.sol\":2548:2558  rating < 1 */\n      0xff\n      and\n      lt\n        /* \"contracts/ReviewManager.sol\":2548:2572  rating < 1 || rating > 5 */\n      dup1\n      tag_247\n      jumpi\n      pop\n        /* \"contracts/ReviewManager.sol\":2571:2572  5 */\n      0x05\n        /* \"contracts/ReviewManager.sol\":2562:2568  rating */\n      dup3\n        /* \"contracts/ReviewManager.sol\":2562:2572  rating > 5 */\n      0xff\n      and\n      gt\n        /* \"contracts/ReviewManager.sol\":2548:2572  rating < 1 || rating > 5 */\n    tag_247:\n        /* \"contracts/ReviewManager.sol\":2544:2611  if (rating < 1 || rating > 5) revert ReviewManager__InvalidRating() */\n      iszero\n      tag_248\n      jumpi\n        /* \"contracts/ReviewManager.sol\":2581:2611  ReviewManager__InvalidRating() */\n      mload(0x40)\n      shl(0xe0, 0xca20ea4b)\n      dup2\n      mstore\n      0x04\n      add\n      mload(0x40)\n      dup1\n      swap2\n      sub\n      swap1\n      revert\n        /* \"contracts/ReviewManager.sol\":2544:2611  if (rating < 1 || rating > 5) revert ReviewManager__InvalidRating() */\n    tag_248:\n        /* \"contracts/ReviewManager.sol\":2624:2640  uint128 reviewId */\n      0x00\n        /* \"contracts/ReviewManager.sol\":2643:2657  nextReviewId++ */\n      dup1\n      sload\n      sub(shl(0x80, 0x01), 0x01)\n      and\n        /* \"contracts/ReviewManager.sol\":2624:2640  uint128 reviewId */\n      dup2\n      dup1\n        /* \"contracts/ReviewManager.sol\":2643:2657  nextReviewId++ */\n      tag_249\n      dup4\n      tag_185\n      jump\t// in\n    tag_249:\n      dup3\n      sload\n      sub(shl(0x80, 0x01), 0x01)\n      swap2\n      dup3\n      and\n      0x0100\n      swap4\n      swap1\n      swap4\n      exp\n      swap3\n      dup4\n      mul\n      swap3\n      dup3\n      mul\n      not\n      and\n      swap2\n      swap1\n      swap2\n      or\n      swap1\n      swap2\n      sstore\n        /* \"contracts/ReviewManager.sol\":2688:2953  Review({... */\n      0x40\n      dup1\n      mload\n      0xe0\n      dup2\n      add\n      dup3\n      mstore\n      dup4\n      dup4\n      and\n      dup1\n      dup3\n      mstore\n      sub(shl(0xa0, 0x01), 0x01)\n      dup1\n      dup12\n      and\n      0x20\n      dup1\n      dup6\n      add\n      swap2\n      dup3\n      mstore\n      0x00\n      dup6\n      dup8\n      add\n      dup2\n      dup2\n      mstore\n      dup14\n      dup10\n      and\n      0x60\n      dup9\n      add\n      swap1\n      dup2\n      mstore\n      0xff\n      dup1\n      dup16\n      and\n      0x80\n      dup11\n      add\n      swap1\n      dup2\n      mstore\n      0xa0\n      dup11\n      add\n      dup16\n      dup2\n      mstore\n        /* \"contracts/ReviewManager.sol\":2925:2940  block.timestamp */\n      timestamp\n        /* \"contracts/ReviewManager.sol\":2688:2953  Review({... */\n      dup14\n      and\n      0xc0\n      dup13\n      add\n      mstore\n        /* \"contracts/ReviewManager.sol\":2668:2685  reviews[reviewId] */\n      swap9\n      dup6\n      mstore\n      0x01\n      swap6\n      dup7\n      swap1\n      mstore\n      swap10\n      swap1\n      swap4\n      keccak256\n        /* \"contracts/ReviewManager.sol\":2668:2953  reviews[reviewId] = Review({... */\n      dup9\n      mload\n      dup2\n      sload\n      swap1\n      dup13\n      and\n      not(sub(shl(0x80, 0x01), 0x01))\n      swap1\n      swap2\n      and\n      or\n      dup2\n      sstore\n      swap5\n      mload\n      swap4\n      dup6\n      add\n      dup1\n      sload\n      swap5\n      dup8\n      and\n      not(sub(shl(0xa0, 0x01), 0x01))\n      swap6\n      dup7\n      and\n      or\n      swap1\n      sstore\n      swap1\n      mload\n      0x02\n      dup6\n      add\n      dup1\n      sload\n      swap2\n      swap1\n      swap7\n      and\n      swap4\n      and\n      swap3\n      swap1\n      swap3\n      or\n      swap1\n      swap4\n      sstore\n      mload\n      0x03\n      dup3\n      add\n      dup1\n      sload\n      swap7\n      mload\n      swap1\n      swap4\n      and\n      shl(0x80, 0x01)\n      mul\n      not(sub(shl(0x88, 0x01), 0x01))\n      swap1\n      swap7\n      and\n      swap7\n      and\n      swap6\n      swap1\n      swap6\n      or\n      swap4\n      swap1\n      swap4\n      or\n      swap1\n      swap3\n      sstore\n      swap1\n      mload\n        /* \"contracts/ReviewManager.sol\":2624:2657  uint128 reviewId = nextReviewId++ */\n      swap3\n      swap4\n      pop\n        /* \"contracts/ReviewManager.sol\":2688:2953  Review({... */\n      swap2\n        /* \"contracts/ReviewManager.sol\":2668:2953  reviews[reviewId] = Review({... */\n      0x04\n      dup3\n      add\n      swap1\n      tag_250\n      swap1\n      dup3\n      tag_187\n      jump\t// in\n    tag_250:\n      pop\n      0xc0\n      swap2\n      swap1\n      swap2\n      add\n      mload\n      0x05\n      swap1\n      swap2\n      add\n      dup1\n      sload\n      not(sub(shl(0x80, 0x01), 0x01))\n      and\n      sub(shl(0x80, 0x01), 0x01)\n      swap3\n      dup4\n      and\n      or\n      swap1\n      sstore\n        /* \"contracts/ReviewManager.sol\":2964:2997  reviewsByRestaurant[restaurantId] */\n      dup5\n      dup2\n      and\n      0x00\n      dup2\n      dup2\n      mstore\n        /* \"contracts/ReviewManager.sol\":2964:2983  reviewsByRestaurant */\n      0x04\n        /* \"contracts/ReviewManager.sol\":2964:2997  reviewsByRestaurant[restaurantId] */\n      0x20\n      swap1\n      dup2\n      mstore\n      0x40\n      dup1\n      dup4\n      keccak256\n        /* \"contracts/ReviewManager.sol\":2964:3012  reviewsByRestaurant[restaurantId].push(reviewId) */\n      dup1\n      sload\n      0x01\n      dup2\n      dup2\n      add\n      dup4\n      sstore\n      swap2\n      dup6\n      mstore\n      swap4\n      dup4\n      swap1\n      keccak256\n      0x02\n      dup6\n      div\n      add\n      dup1\n      sload\n      swap5\n      swap1\n      swap2\n      and\n      0x10\n      mul\n        /* \"contracts/ReviewManager.sol\":2668:2953  reviews[reviewId] = Review({... */\n      0x0100\n        /* \"contracts/ReviewManager.sol\":2964:3012  reviewsByRestaurant[restaurantId].push(reviewId) */\n      exp\n      dup1\n      dup8\n      mul\n      not\n      swap1\n      swap5\n      and\n      swap6\n      dup8\n      and\n      swap4\n      dup5\n      mul\n      swap6\n      swap1\n      swap6\n      or\n      swap1\n      swap5\n      sstore\n        /* \"contracts/ReviewManager.sol\":3030:3090  RestaurantRated(reviewId, customerEoa, restaurantId, rating) */\n      swap3\n      mload\n        /* \"#utility.yul\":19277:19281   */\n      0xff\n        /* \"#utility.yul\":19265:19282   */\n      dup8\n      and\n        /* \"#utility.yul\":19247:19283   */\n      dup2\n      mstore\n        /* \"contracts/ReviewManager.sol\":2964:2997  reviewsByRestaurant[restaurantId] */\n      swap2\n      swap3\n      sub(shl(0xa0, 0x01), 0x01)\n        /* \"contracts/ReviewManager.sol\":3030:3090  RestaurantRated(reviewId, customerEoa, restaurantId, rating) */\n      dup10\n      and\n      swap3\n      0x3d07dd1482bc8670ed7c2cf1f89b16d2da31a3996e171620a09cf3fd4c8e4446\n      swap2\n        /* \"#utility.yul\":19220:19238   */\n      add\n        /* \"contracts/ReviewManager.sol\":3030:3090  RestaurantRated(reviewId, customerEoa, restaurantId, rating) */\n      mload(0x40)\n      dup1\n      swap2\n      sub\n      swap1\n      log4\n        /* \"contracts/ReviewManager.sol\":2425:3098  {... */\n      pop\n        /* \"contracts/ReviewManager.sol\":2273:3098  function rateRestaurant(address customerEoa, uint128 restaurantId, uint8 rating, string memory comment) ... */\n      pop\n      pop\n      pop\n      pop\n      jump\t// out\n        /* \"contracts/ReviewManager.sol\":4077:5544  function rateMenuItem(address customerEoa, uint128 restaurantId, uint128 menuItemId, uint8 rating, string memory comment)... */\n    tag_108:\n        /* \"contracts/ReviewManager.sol\":1591:1613  foodAppContractAddress */\n      sload(0x08)\n        /* \"contracts/ReviewManager.sol\":4255:4277  uint128 newTotalRating */\n      0x00\n      swap1\n      dup2\n      swap1\n      sub(shl(0xa0, 0x01), 0x01)\n        /* \"contracts/ReviewManager.sol\":1591:1613  foodAppContractAddress */\n      and\n        /* \"contracts/ReviewManager.sol\":1577:1587  msg.sender */\n      caller\n        /* \"contracts/ReviewManager.sol\":1577:1613  msg.sender != foodAppContractAddress */\n      eq\n        /* \"contracts/ReviewManager.sol\":1573:1649  if (msg.sender != foodAppContractAddress) revert ReviewManager__NotFoodApp() */\n      tag_255\n      jumpi\n        /* \"contracts/ReviewManager.sol\":1622:1649  ReviewManager__NotFoodApp() */\n      mload(0x40)\n      shl(0xe1, 0x19c68547)\n      dup2\n      mstore\n      0x04\n      add\n      mload(0x40)\n      dup1\n      swap2\n      sub\n      swap1\n      revert\n        /* \"contracts/ReviewManager.sol\":1573:1649  if (msg.sender != foodAppContractAddress) revert ReviewManager__NotFoodApp() */\n    tag_255:\n        /* \"contracts/ReviewManager.sol\":4320:4337  restaurantManager */\n      sload(0x09)\n        /* \"contracts/ReviewManager.sol\":4320:4368  restaurantManager.restaurantExists(restaurantId) */\n      mload(0x40)\n      shl(0xe0, 0xb2a6cb63)\n      dup2\n      mstore\n      sub(shl(0x80, 0x01), 0x01)\n        /* \"#utility.yul\":825:872   */\n      dup9\n      and\n        /* \"contracts/ReviewManager.sol\":4320:4368  restaurantManager.restaurantExists(restaurantId) */\n      0x04\n      dup3\n      add\n        /* \"#utility.yul\":807:873   */\n      mstore\n      sub(shl(0xa0, 0x01), 0x01)\n        /* \"contracts/ReviewManager.sol\":4320:4337  restaurantManager */\n      swap1\n      swap2\n      and\n      swap1\n        /* \"contracts/ReviewManager.sol\":4320:4354  restaurantManager.restaurantExists */\n      0xb2a6cb63\n      swap1\n        /* \"#utility.yul\":780:798   */\n      0x24\n      add\n        /* \"contracts/ReviewManager.sol\":4320:4368  restaurantManager.restaurantExists(restaurantId) */\n      0x20\n      mload(0x40)\n      dup1\n      dup4\n      sub\n      dup2\n      dup7\n      gas\n      staticcall\n      iszero\n      dup1\n      iszero\n      tag_259\n      jumpi\n      returndatacopy(0x00, 0x00, returndatasize)\n      revert(0x00, returndatasize)\n    tag_259:\n      pop\n      pop\n      pop\n      pop\n      mload(0x40)\n      returndatasize\n      not(0x1f)\n      0x1f\n      dup3\n      add\n      and\n      dup3\n      add\n      dup1\n      0x40\n      mstore\n      pop\n      dup2\n      add\n      swap1\n      tag_260\n      swap2\n      swap1\n      tag_179\n      jump\t// in\n    tag_260:\n        /* \"contracts/ReviewManager.sol\":4315:4412  if (!restaurantManager.restaurantExists(restaurantId)) revert ReviewManager__RestaurantNotFound() */\n      tag_261\n      jumpi\n        /* \"contracts/ReviewManager.sol\":4377:4412  ReviewManager__RestaurantNotFound() */\n      mload(0x40)\n      shl(0xe0, 0x47b124fd)\n      dup2\n      mstore\n      0x04\n      add\n      mload(0x40)\n      dup1\n      swap2\n      sub\n      swap1\n      revert\n        /* \"contracts/ReviewManager.sol\":4315:4412  if (!restaurantManager.restaurantExists(restaurantId)) revert ReviewManager__RestaurantNotFound() */\n    tag_261:\n        /* \"contracts/ReviewManager.sol\":4436:4437  1 */\n      0x01\n        /* \"contracts/ReviewManager.sol\":4427:4433  rating */\n      dup5\n        /* \"contracts/ReviewManager.sol\":4427:4437  rating < 1 */\n      0xff\n      and\n      lt\n        /* \"contracts/ReviewManager.sol\":4427:4451  rating < 1 || rating > 5 */\n      dup1\n      tag_262\n      jumpi\n      pop\n        /* \"contracts/ReviewManager.sol\":4450:4451  5 */\n      0x05\n        /* \"contracts/ReviewManager.sol\":4441:4447  rating */\n      dup5\n        /* \"contracts/ReviewManager.sol\":4441:4451  rating > 5 */\n      0xff\n      and\n      gt\n        /* \"contracts/ReviewManager.sol\":4427:4451  rating < 1 || rating > 5 */\n    tag_262:\n        /* \"contracts/ReviewManager.sol\":4423:4490  if (rating < 1 || rating > 5) revert ReviewManager__InvalidRating() */\n      iszero\n      tag_263\n      jumpi\n        /* \"contracts/ReviewManager.sol\":4460:4490  ReviewManager__InvalidRating() */\n      mload(0x40)\n      shl(0xe0, 0xca20ea4b)\n      dup2\n      mstore\n      0x04\n      add\n      mload(0x40)\n      dup1\n      swap2\n      sub\n      swap1\n      revert\n        /* \"contracts/ReviewManager.sol\":4423:4490  if (rating < 1 || rating > 5) revert ReviewManager__InvalidRating() */\n    tag_263:\n      0x40\n      dup1\n      mload\n      0x0160\n      dup2\n      add\n      dup3\n      mstore\n      0x00\n      dup1\n      dup3\n      mstore\n      0x20\n      dup3\n      add\n      dup2\n      swap1\n      mstore\n      0x60\n      dup3\n      dup5\n      add\n      dup2\n      swap1\n      mstore\n      dup1\n      dup4\n      add\n      dup2\n      swap1\n      mstore\n      0x80\n      dup4\n      add\n      dup3\n      swap1\n      mstore\n      0xa0\n      dup4\n      add\n      dup3\n      swap1\n      mstore\n      0xc0\n      dup4\n      add\n      dup2\n      swap1\n      mstore\n      0xe0\n      dup4\n      add\n      mstore\n      0x0100\n      dup3\n      add\n      dup2\n      swap1\n      mstore\n      0x0120\n      dup3\n      add\n      dup2\n      swap1\n      mstore\n      0x0140\n      dup3\n      add\n      mstore\n        /* \"contracts/ReviewManager.sol\":4539:4550  menuManager */\n      sload(0x07)\n        /* \"contracts/ReviewManager.sol\":4539:4588  menuManager.getMenuItem(restaurantId, menuItemId) */\n      swap2\n      mload\n      shl(0xe3, 0x018a512d)\n      dup2\n      mstore\n      sub(shl(0x80, 0x01), 0x01)\n        /* \"#utility.yul\":5298:5345   */\n      dup10\n      dup2\n      and\n        /* \"contracts/ReviewManager.sol\":4539:4588  menuManager.getMenuItem(restaurantId, menuItemId) */\n      0x04\n      dup4\n      add\n        /* \"#utility.yul\":5280:5346   */\n      mstore\n        /* \"#utility.yul\":5382:5429   */\n      dup9\n      and\n        /* \"#utility.yul\":5362:5380   */\n      0x24\n      dup3\n      add\n        /* \"#utility.yul\":5355:5430   */\n      mstore\n      swap1\n      swap2\n      sub(shl(0xa0, 0x01), 0x01)\n        /* \"contracts/ReviewManager.sol\":4539:4550  menuManager */\n      and\n      swap1\n        /* \"contracts/ReviewManager.sol\":4539:4562  menuManager.getMenuItem */\n      0x0c528968\n      swap1\n        /* \"#utility.yul\":5253:5271   */\n      0x44\n      add\n        /* \"contracts/ReviewManager.sol\":4539:4588  menuManager.getMenuItem(restaurantId, menuItemId) */\n      0x00\n      mload(0x40)\n      dup1\n      dup4\n      sub\n      dup2\n      dup7\n      gas\n      staticcall\n      swap3\n      pop\n      pop\n      pop\n      dup1\n      iszero\n      tag_267\n      jumpi\n      pop\n      mload(0x40)\n      returndatasize\n      0x00\n      dup3\n      returndatacopy\n      0x1f\n      returndatasize\n      swap1\n      dup2\n      add\n      not(0x1f)\n      and\n      dup3\n      add\n      0x40\n      mstore\n      tag_268\n      swap2\n      swap1\n      dup2\n      add\n      swap1\n      tag_155\n      jump\t// in\n    tag_268:\n      0x01\n    tag_267:\n        /* \"contracts/ReviewManager.sol\":4535:4747  try menuManager.getMenuItem(restaurantId, menuItemId) returns (MenuItem memory fetchedItem) {... */\n      tag_269\n      jumpi\n        /* \"contracts/ReviewManager.sol\":4702:4735  ReviewManager__MenuItemNotFound() */\n      mload(0x40)\n      shl(0xe1, 0x34b53423)\n      dup2\n      mstore\n      0x04\n      add\n      mload(0x40)\n      dup1\n      swap2\n      sub\n      swap1\n      revert\n        /* \"contracts/ReviewManager.sol\":4535:4747  try menuManager.getMenuItem(restaurantId, menuItemId) returns (MenuItem memory fetchedItem) {... */\n    tag_269:\n        /* \"contracts/ReviewManager.sol\":4649:4660  fetchedItem */\n      swap1\n      pop\n        /* \"contracts/ReviewManager.sol\":4762:4769  item.id */\n      dup1\n      mload\n      sub(shl(0x80, 0x01), 0x01)\n        /* \"contracts/ReviewManager.sol\":4762:4774  item.id == 0 */\n      and\n        /* \"contracts/ReviewManager.sol\":4762:4769  item.id */\n      0x00\n        /* \"contracts/ReviewManager.sol\":4762:4774  item.id == 0 */\n      sub\n        /* \"contracts/ReviewManager.sol\":4759:4816  if(item.id == 0) revert ReviewManager__MenuItemNotFound() */\n      tag_274\n      jumpi\n        /* \"contracts/ReviewManager.sol\":4783:4816  ReviewManager__MenuItemNotFound() */\n      mload(0x40)\n      shl(0xe1, 0x34b53423)\n      dup2\n      mstore\n      0x04\n      add\n      mload(0x40)\n      dup1\n      swap2\n      sub\n      swap1\n      revert\n        /* \"contracts/ReviewManager.sol\":4759:4816  if(item.id == 0) revert ReviewManager__MenuItemNotFound() */\n    tag_274:\n        /* \"contracts/ReviewManager.sol\":4831:4847  uint128 reviewId */\n      0x00\n        /* \"contracts/ReviewManager.sol\":4850:4864  nextReviewId++ */\n      dup1\n      sload\n      sub(shl(0x80, 0x01), 0x01)\n      and\n        /* \"contracts/ReviewManager.sol\":4831:4847  uint128 reviewId */\n      dup2\n      dup1\n        /* \"contracts/ReviewManager.sol\":4850:4864  nextReviewId++ */\n      tag_275\n      dup4\n      tag_185\n      jump\t// in\n    tag_275:\n      swap2\n      swap1\n      0x0100\n      exp\n      dup2\n      sload\n      dup2\n      sub(shl(0x80, 0x01), 0x01)\n      mul\n      not\n      and\n      swap1\n      dup4\n      sub(shl(0x80, 0x01), 0x01)\n      and\n      mul\n      or\n      swap1\n      sstore\n      pop\n        /* \"contracts/ReviewManager.sol\":4831:4864  uint128 reviewId = nextReviewId++ */\n      swap1\n      pop\n        /* \"contracts/ReviewManager.sol\":4903:5181  MenuItemReview({... */\n      mload(0x40)\n      dup1\n      0xe0\n      add\n      0x40\n      mstore\n      dup1\n        /* \"contracts/ReviewManager.sol\":4937:4945  reviewId */\n      dup3\n      sub(shl(0x80, 0x01), 0x01)\n        /* \"contracts/ReviewManager.sol\":4903:5181  MenuItemReview({... */\n      and\n      dup2\n      mstore\n      0x20\n      add\n        /* \"contracts/ReviewManager.sol\":4970:4981  customerEoa */\n      dup11\n      sub(shl(0xa0, 0x01), 0x01)\n        /* \"contracts/ReviewManager.sol\":4903:5181  MenuItemReview({... */\n      and\n      dup2\n      mstore\n      0x20\n      add\n        /* \"contracts/ReviewManager.sol\":5008:5018  menuItemId */\n      dup9\n      sub(shl(0x80, 0x01), 0x01)\n        /* \"contracts/ReviewManager.sol\":4903:5181  MenuItemReview({... */\n      and\n      dup2\n      mstore\n      0x20\n      add\n        /* \"contracts/ReviewManager.sol\":5047:5059  restaurantId */\n      dup10\n      sub(shl(0x80, 0x01), 0x01)\n        /* \"contracts/ReviewManager.sol\":4903:5181  MenuItemReview({... */\n      and\n      dup2\n      mstore\n      0x20\n      add\n        /* \"contracts/ReviewManager.sol\":5082:5088  rating */\n      dup8\n        /* \"contracts/ReviewManager.sol\":4903:5181  MenuItemReview({... */\n      0xff\n      and\n      dup2\n      mstore\n      0x20\n      add\n        /* \"contracts/ReviewManager.sol\":5112:5119  comment */\n      dup7\n        /* \"contracts/ReviewManager.sol\":4903:5181  MenuItemReview({... */\n      dup2\n      mstore\n      0x20\n      add\n        /* \"contracts/ReviewManager.sol\":5153:5168  block.timestamp */\n      timestamp\n      sub(shl(0x80, 0x01), 0x01)\n        /* \"contracts/ReviewManager.sol\":4903:5181  MenuItemReview({... */\n      and\n      dup2\n      mstore\n      pop\n        /* \"contracts/ReviewManager.sol\":4875:4890  menuItemReviews */\n      0x03\n        /* \"contracts/ReviewManager.sol\":4875:4900  menuItemReviews[reviewId] */\n      0x00\n        /* \"contracts/ReviewManager.sol\":4891:4899  reviewId */\n      dup4\n      sub(shl(0x80, 0x01), 0x01)\n        /* \"contracts/ReviewManager.sol\":4875:4900  menuItemReviews[reviewId] */\n      and\n      sub(shl(0x80, 0x01), 0x01)\n      and\n      dup2\n      mstore\n      0x20\n      add\n      swap1\n      dup2\n      mstore\n      0x20\n      add\n      0x00\n      keccak256\n        /* \"contracts/ReviewManager.sol\":4875:5181  menuItemReviews[reviewId] = MenuItemReview({... */\n      0x00\n      dup3\n      add\n      mload\n      dup2\n      0x00\n      add\n      exp(0x0100, 0x00)\n      dup2\n      sload\n      dup2\n      sub(shl(0x80, 0x01), 0x01)\n      mul\n      not\n      and\n      swap1\n      dup4\n      sub(shl(0x80, 0x01), 0x01)\n      and\n      mul\n      or\n      swap1\n      sstore\n      pop\n      0x20\n      dup3\n      add\n      mload\n      dup2\n      0x01\n      add\n      exp(0x0100, 0x00)\n      dup2\n      sload\n      dup2\n      sub(shl(0xa0, 0x01), 0x01)\n      mul\n      not\n      and\n      swap1\n      dup4\n      sub(shl(0xa0, 0x01), 0x01)\n      and\n      mul\n      or\n      swap1\n      sstore\n      pop\n      0x40\n      dup3\n      add\n      mload\n      dup2\n      0x02\n      add\n      exp(0x0100, 0x00)\n      dup2\n      sload\n      dup2\n      sub(shl(0x80, 0x01), 0x01)\n      mul\n      not\n      and\n      swap1\n      dup4\n      sub(shl(0x80, 0x01), 0x01)\n      and\n      mul\n      or\n      swap1\n      sstore\n      pop\n      0x60\n      dup3\n      add\n      mload\n      dup2\n      0x02\n      add\n      exp(0x0100, 0x10)\n      dup2\n      sload\n      dup2\n      sub(shl(0x80, 0x01), 0x01)\n      mul\n      not\n      and\n      swap1\n      dup4\n      sub(shl(0x80, 0x01), 0x01)\n      and\n      mul\n      or\n      swap1\n      sstore\n      pop\n      0x80\n      dup3\n      add\n      mload\n      dup2\n      0x03\n      add\n      exp(0x0100, 0x00)\n      dup2\n      sload\n      dup2\n      0xff\n      mul\n      not\n      and\n      swap1\n      dup4\n      0xff\n      and\n      mul\n      or\n      swap1\n      sstore\n      pop\n      0xa0\n      dup3\n      add\n      mload\n      dup2\n      0x04\n      add\n      swap1\n      dup2\n      tag_276\n      swap2\n      swap1\n      tag_187\n      jump\t// in\n    tag_276:\n      pop\n      0xc0\n      dup3\n      add\n      mload\n      dup2\n      0x05\n      add\n      exp(0x0100, 0x00)\n      dup2\n      sload\n      dup2\n      sub(shl(0x80, 0x01), 0x01)\n      mul\n      not\n      and\n      swap1\n      dup4\n      sub(shl(0x80, 0x01), 0x01)\n      and\n      mul\n      or\n      swap1\n      sstore\n      pop\n      swap1\n      pop\n      pop\n        /* \"contracts/ReviewManager.sol\":5192:5209  reviewsByMenuItem */\n      0x06\n        /* \"contracts/ReviewManager.sol\":5192:5221  reviewsByMenuItem[menuItemId] */\n      0x00\n        /* \"contracts/ReviewManager.sol\":5210:5220  menuItemId */\n      dup9\n      sub(shl(0x80, 0x01), 0x01)\n        /* \"contracts/ReviewManager.sol\":5192:5221  reviewsByMenuItem[menuItemId] */\n      and\n      sub(shl(0x80, 0x01), 0x01)\n      and\n      dup2\n      mstore\n      0x20\n      add\n      swap1\n      dup2\n      mstore\n      0x20\n      add\n      0x00\n      keccak256\n        /* \"contracts/ReviewManager.sol\":5227:5235  reviewId */\n      dup2\n        /* \"contracts/ReviewManager.sol\":5192:5236  reviewsByMenuItem[menuItemId].push(reviewId) */\n      swap1\n      dup1\n      0x01\n      dup2\n      sload\n      add\n      dup1\n      dup3\n      sstore\n      dup1\n      swap2\n      pop\n      pop\n      0x01\n      swap1\n      sub\n      swap1\n      0x00\n      mstore\n      keccak256(0x00, 0x20)\n      swap1\n      0x02\n      swap2\n      dup3\n      dup3\n      div\n      add\n      swap2\n      swap1\n      mod\n      0x10\n      mul\n      swap1\n      swap2\n      swap1\n      swap2\n      swap1\n      swap2\n      0x0100\n      exp\n      dup2\n      sload\n      dup2\n      sub(shl(0x80, 0x01), 0x01)\n      mul\n      not\n      and\n      swap1\n      dup4\n      sub(shl(0x80, 0x01), 0x01)\n      and\n      mul\n      or\n      swap1\n      sstore\n      pop\n        /* \"contracts/ReviewManager.sol\":5247:5266  reviewsByRestaurant */\n      0x04\n        /* \"contracts/ReviewManager.sol\":5247:5280  reviewsByRestaurant[restaurantId] */\n      0x00\n        /* \"contracts/ReviewManager.sol\":5267:5279  restaurantId */\n      dup10\n      sub(shl(0x80, 0x01), 0x01)\n        /* \"contracts/ReviewManager.sol\":5247:5280  reviewsByRestaurant[restaurantId] */\n      and\n      sub(shl(0x80, 0x01), 0x01)\n      and\n      dup2\n      mstore\n      0x20\n      add\n      swap1\n      dup2\n      mstore\n      0x20\n      add\n      0x00\n      keccak256\n        /* \"contracts/ReviewManager.sol\":5286:5294  reviewId */\n      dup2\n        /* \"contracts/ReviewManager.sol\":5247:5295  reviewsByRestaurant[restaurantId].push(reviewId) */\n      swap1\n      dup1\n      0x01\n      dup2\n      sload\n      add\n      dup1\n      dup3\n      sstore\n      dup1\n      swap2\n      pop\n      pop\n      0x01\n      swap1\n      sub\n      swap1\n      0x00\n      mstore\n      keccak256(0x00, 0x20)\n      swap1\n      0x02\n      swap2\n      dup3\n      dup3\n      div\n      add\n      swap2\n      swap1\n      mod\n      0x10\n      mul\n      swap1\n      swap2\n      swap1\n      swap2\n      swap1\n      swap2\n      0x0100\n      exp\n      dup2\n      sload\n      dup2\n      sub(shl(0x80, 0x01), 0x01)\n      mul\n      not\n      and\n      swap1\n      dup4\n      sub(shl(0x80, 0x01), 0x01)\n      and\n      mul\n      or\n      swap1\n      sstore\n      pop\n        /* \"contracts/ReviewManager.sol\":5350:5360  menuItemId */\n      dup7\n      sub(shl(0x80, 0x01), 0x01)\n        /* \"contracts/ReviewManager.sol\":5313:5383  MenuItemRated(reviewId, customerEoa, menuItemId, restaurantId, rating) */\n      and\n        /* \"contracts/ReviewManager.sol\":5337:5348  customerEoa */\n      dup10\n      sub(shl(0xa0, 0x01), 0x01)\n        /* \"contracts/ReviewManager.sol\":5313:5383  MenuItemRated(reviewId, customerEoa, menuItemId, restaurantId, rating) */\n      and\n        /* \"contracts/ReviewManager.sol\":5327:5335  reviewId */\n      dup3\n      sub(shl(0x80, 0x01), 0x01)\n        /* \"contracts/ReviewManager.sol\":5313:5383  MenuItemRated(reviewId, customerEoa, menuItemId, restaurantId, rating) */\n      and\n      0x0805c77f965e08373c35e9b3142f39fbfd23501af52856f2af0c40f446a236ed\n        /* \"contracts/ReviewManager.sol\":5362:5374  restaurantId */\n      dup12\n        /* \"contracts/ReviewManager.sol\":5376:5382  rating */\n      dup11\n        /* \"contracts/ReviewManager.sol\":5313:5383  MenuItemRated(reviewId, customerEoa, menuItemId, restaurantId, rating) */\n      mload(0x40)\n      tag_279\n      swap3\n      swap2\n      swap1\n      sub(shl(0x80, 0x01), 0x01)\n        /* \"#utility.yul\":18737:18784   */\n      swap3\n      swap1\n      swap3\n      and\n        /* \"#utility.yul\":18719:18785   */\n      dup3\n      mstore\n        /* \"#utility.yul\":18833:18837   */\n      0xff\n        /* \"#utility.yul\":18821:18838   */\n      and\n        /* \"#utility.yul\":18816:18818   */\n      0x20\n        /* \"#utility.yul\":18801:18819   */\n      dup3\n      add\n        /* \"#utility.yul\":18794:18839   */\n      mstore\n        /* \"#utility.yul\":18707:18709   */\n      0x40\n        /* \"#utility.yul\":18692:18710   */\n      add\n      swap1\n        /* \"#utility.yul\":18549:18845   */\n      jump\n        /* \"contracts/ReviewManager.sol\":5313:5383  MenuItemRated(reviewId, customerEoa, menuItemId, restaurantId, rating) */\n    tag_279:\n      mload(0x40)\n      dup1\n      swap2\n      sub\n      swap1\n      log4\n        /* \"contracts/ReviewManager.sol\":5432:5438  rating */\n      dup6\n        /* \"contracts/ReviewManager.sol\":5413:5438  item.totalRating + rating */\n      0xff\n      and\n        /* \"contracts/ReviewManager.sol\":5413:5417  item */\n      dup3\n        /* \"contracts/ReviewManager.sol\":5413:5429  item.totalRating */\n      0x0100\n      add\n      mload\n        /* \"contracts/ReviewManager.sol\":5413:5438  item.totalRating + rating */\n      tag_280\n      swap2\n      swap1\n      tag_281\n      jump\t// in\n    tag_280:\n        /* \"contracts/ReviewManager.sol\":5396:5438  newTotalRating = item.totalRating + rating */\n      swap4\n      pop\n        /* \"contracts/ReviewManager.sol\":5466:5470  item */\n      dup2\n        /* \"contracts/ReviewManager.sol\":5466:5482  item.ratingCount */\n      0x0120\n      add\n      mload\n        /* \"contracts/ReviewManager.sol\":5485:5486  1 */\n      0x01\n        /* \"contracts/ReviewManager.sol\":5466:5486  item.ratingCount + 1 */\n      tag_282\n      swap2\n      swap1\n      tag_281\n      jump\t// in\n    tag_282:\n        /* \"contracts/ReviewManager.sol\":5449:5486  newRatingCount = item.ratingCount + 1 */\n      swap3\n      pop\n        /* \"contracts/ReviewManager.sol\":5497:5536  return (newTotalRating, newRatingCount) */\n      pop\n      pop\n        /* \"contracts/ReviewManager.sol\":4077:5544  function rateMenuItem(address customerEoa, uint128 restaurantId, uint128 menuItemId, uint8 rating, string memory comment)... */\n      swap6\n      pop\n      swap6\n      swap4\n      pop\n      pop\n      pop\n      pop\n      jump\t// out\n        /* \"@openzeppelin/contracts-upgradeable/access/OwnableUpgradeable.sol\":3405:3620  function transferOwnership(address newOwner) public virtual onlyOwner {... */\n    tag_112:\n        /* \"@openzeppelin/contracts-upgradeable/access/OwnableUpgradeable.sol\":2334:2347  _checkOwner() */\n      tag_284\n        /* \"@openzeppelin/contracts-upgradeable/access/OwnableUpgradeable.sol\":2334:2345  _checkOwner */\n      tag_166\n        /* \"@openzeppelin/contracts-upgradeable/access/OwnableUpgradeable.sol\":2334:2347  _checkOwner() */\n      jump\t// in\n    tag_284:\n      sub(shl(0xa0, 0x01), 0x01)\n        /* \"@openzeppelin/contracts-upgradeable/access/OwnableUpgradeable.sol\":3489:3511  newOwner == address(0) */\n      dup2\n      and\n        /* \"@openzeppelin/contracts-upgradeable/access/OwnableUpgradeable.sol\":3485:3576  if (newOwner == address(0)) {... */\n      tag_286\n      jumpi\n        /* \"@openzeppelin/contracts-upgradeable/access/OwnableUpgradeable.sol\":3534:3565  OwnableInvalidOwner(address(0)) */\n      mload(0x40)\n      shl(0xe0, 0x1e4fbdf7)\n      dup2\n      mstore\n        /* \"@openzeppelin/contracts-upgradeable/access/OwnableUpgradeable.sol\":3562:3563  0 */\n      0x00\n        /* \"@openzeppelin/contracts-upgradeable/access/OwnableUpgradeable.sol\":3534:3565  OwnableInvalidOwner(address(0)) */\n      0x04\n      dup3\n      add\n        /* \"#utility.yul\":1057:1108   */\n      mstore\n        /* \"#utility.yul\":1030:1048   */\n      0x24\n      add\n        /* \"@openzeppelin/contracts-upgradeable/access/OwnableUpgradeable.sol\":3534:3565  OwnableInvalidOwner(address(0)) */\n    tag_287:\n      mload(0x40)\n      dup1\n      swap2\n      sub\n      swap1\n      revert\n        /* \"@openzeppelin/contracts-upgradeable/access/OwnableUpgradeable.sol\":3485:3576  if (newOwner == address(0)) {... */\n    tag_286:\n        /* \"@openzeppelin/contracts-upgradeable/access/OwnableUpgradeable.sol\":3585:3613  _transferOwnership(newOwner) */\n      tag_288\n        /* \"@openzeppelin/contracts-upgradeable/access/OwnableUpgradeable.sol\":3604:3612  newOwner */\n      dup2\n        /* \"@openzeppelin/contracts-upgradeable/access/OwnableUpgradeable.sol\":3585:3603  _transferOwnership */\n      tag_169\n        /* \"@openzeppelin/contracts-upgradeable/access/OwnableUpgradeable.sol\":3585:3613  _transferOwnership(newOwner) */\n      jump\t// in\n    tag_288:\n        /* \"@openzeppelin/contracts-upgradeable/access/OwnableUpgradeable.sol\":3405:3620  function transferOwnership(address newOwner) public virtual onlyOwner {... */\n      pop\n      jump\t// out\n        /* \"contracts/ReviewManager.sol\":1677:2265  function initialize(address _foodAppContract, address _restaurantManagerAddress, address _menuManagerAddress, address _owner) ... */\n    tag_116:\n        /* \"@openzeppelin/contracts-upgradeable/proxy/utils/Initializable.sol\":4158:4188  InitializableStorage storage $ */\n      0x00\n        /* \"@openzeppelin/contracts-upgradeable/proxy/utils/Initializable.sol\":4191:4217  _getInitializableStorage() */\n      tag_290\n        /* \"@openzeppelin/contracts-upgradeable/proxy/utils/Initializable.sol\":4191:4215  _getInitializableStorage */\n      tag_291\n        /* \"@openzeppelin/contracts-upgradeable/proxy/utils/Initializable.sol\":4191:4217  _getInitializableStorage() */\n      jump\t// in\n    tag_290:\n        /* \"@openzeppelin/contracts-upgradeable/proxy/utils/Initializable.sol\":4302:4317  $._initializing */\n      dup1\n      sload\n        /* \"@openzeppelin/contracts-upgradeable/proxy/utils/Initializable.sol\":4158:4217  InitializableStorage storage $ = _getInitializableStorage() */\n      swap1\n      swap2\n      pop\n        /* \"@openzeppelin/contracts-upgradeable/proxy/utils/Initializable.sol\":4302:4317  $._initializing */\n      0xff\n      shl(0x40, 0x01)\n      dup3\n      div\n      and\n        /* \"@openzeppelin/contracts-upgradeable/proxy/utils/Initializable.sol\":4301:4317  !$._initializing */\n      iszero\n      swap1\n      sub(shl(0x40, 0x01), 0x01)\n        /* \"@openzeppelin/contracts-upgradeable/proxy/utils/Initializable.sol\":4348:4362  $._initialized */\n      and\n        /* \"@openzeppelin/contracts-upgradeable/proxy/utils/Initializable.sol\":4279:4298  bool isTopLevelCall */\n      0x00\n        /* \"@openzeppelin/contracts-upgradeable/proxy/utils/Initializable.sol\":4724:4740  initialized == 0 */\n      dup2\n      iszero\n        /* \"@openzeppelin/contracts-upgradeable/proxy/utils/Initializable.sol\":4724:4758  initialized == 0 && isTopLevelCall */\n      dup1\n      iszero\n      tag_292\n      jumpi\n      pop\n        /* \"@openzeppelin/contracts-upgradeable/proxy/utils/Initializable.sol\":4744:4758  isTopLevelCall */\n      dup3\n        /* \"@openzeppelin/contracts-upgradeable/proxy/utils/Initializable.sol\":4724:4758  initialized == 0 && isTopLevelCall */\n    tag_292:\n        /* \"@openzeppelin/contracts-upgradeable/proxy/utils/Initializable.sol\":4704:4758  bool initialSetup = initialized == 0 && isTopLevelCall */\n      swap1\n      pop\n        /* \"@openzeppelin/contracts-upgradeable/proxy/utils/Initializable.sol\":4768:4785  bool construction */\n      0x00\n        /* \"@openzeppelin/contracts-upgradeable/proxy/utils/Initializable.sol\":4788:4799  initialized */\n      dup3\n      sub(shl(0x40, 0x01), 0x01)\n        /* \"@openzeppelin/contracts-upgradeable/proxy/utils/Initializable.sol\":4788:4804  initialized == 1 */\n      and\n        /* \"@openzeppelin/contracts-upgradeable/proxy/utils/Initializable.sol\":4803:4804  1 */\n      0x01\n        /* \"@openzeppelin/contracts-upgradeable/proxy/utils/Initializable.sol\":4788:4804  initialized == 1 */\n      eq\n        /* \"@openzeppelin/contracts-upgradeable/proxy/utils/Initializable.sol\":4788:4838  initialized == 1 && address(this).code.length == 0 */\n      dup1\n      iszero\n      tag_293\n      jumpi\n      pop\n        /* \"@openzeppelin/contracts-upgradeable/proxy/utils/Initializable.sol\":4816:4820  this */\n      address\n        /* \"@openzeppelin/contracts-upgradeable/proxy/utils/Initializable.sol\":4808:4833  address(this).code.length */\n      extcodesize\n        /* \"@openzeppelin/contracts-upgradeable/proxy/utils/Initializable.sol\":4808:4838  address(this).code.length == 0 */\n      iszero\n        /* \"@openzeppelin/contracts-upgradeable/proxy/utils/Initializable.sol\":4788:4838  initialized == 1 && address(this).code.length == 0 */\n    tag_293:\n        /* \"@openzeppelin/contracts-upgradeable/proxy/utils/Initializable.sol\":4768:4838  bool construction = initialized == 1 && address(this).code.length == 0 */\n      swap1\n      pop\n        /* \"@openzeppelin/contracts-upgradeable/proxy/utils/Initializable.sol\":4854:4866  initialSetup */\n      dup2\n        /* \"@openzeppelin/contracts-upgradeable/proxy/utils/Initializable.sol\":4853:4866  !initialSetup */\n      iszero\n        /* \"@openzeppelin/contracts-upgradeable/proxy/utils/Initializable.sol\":4853:4883  !initialSetup && !construction */\n      dup1\n      iszero\n      tag_294\n      jumpi\n      pop\n        /* \"@openzeppelin/contracts-upgradeable/proxy/utils/Initializable.sol\":4871:4883  construction */\n      dup1\n        /* \"@openzeppelin/contracts-upgradeable/proxy/utils/Initializable.sol\":4870:4883  !construction */\n      iszero\n        /* \"@openzeppelin/contracts-upgradeable/proxy/utils/Initializable.sol\":4853:4883  !initialSetup && !construction */\n    tag_294:\n        /* \"@openzeppelin/contracts-upgradeable/proxy/utils/Initializable.sol\":4849:4940  if (!initialSetup && !construction) {... */\n      iszero\n      tag_295\n      jumpi\n        /* \"@openzeppelin/contracts-upgradeable/proxy/utils/Initializable.sol\":4906:4929  InvalidInitialization() */\n      mload(0x40)\n      shl(0xe0, 0xf92ee8a9)\n      dup2\n      mstore\n      0x04\n      add\n      mload(0x40)\n      dup1\n      swap2\n      sub\n      swap1\n      revert\n        /* \"@openzeppelin/contracts-upgradeable/proxy/utils/Initializable.sol\":4849:4940  if (!initialSetup && !construction) {... */\n    tag_295:\n        /* \"@openzeppelin/contracts-upgradeable/proxy/utils/Initializable.sol\":4949:4967  $._initialized = 1 */\n      dup5\n      sload\n      not(0xffffffffffffffff)\n      and\n        /* \"@openzeppelin/contracts-upgradeable/proxy/utils/Initializable.sol\":4966:4967  1 */\n      0x01\n        /* \"@openzeppelin/contracts-upgradeable/proxy/utils/Initializable.sol\":4949:4967  $._initialized = 1 */\n      or\n      dup6\n      sstore\n        /* \"@openzeppelin/contracts-upgradeable/proxy/utils/Initializable.sol\":4977:5044  if (isTopLevelCall) {... */\n      dup4\n      iszero\n      tag_296\n      jumpi\n        /* \"@openzeppelin/contracts-upgradeable/proxy/utils/Initializable.sol\":5011:5033  $._initializing = true */\n      dup5\n      sload\n      not(shl(0x40, 0xff))\n      and\n      shl(0x40, 0x01)\n      or\n      dup6\n      sstore\n        /* \"@openzeppelin/contracts-upgradeable/proxy/utils/Initializable.sol\":4977:5044  if (isTopLevelCall) {... */\n    tag_296:\n      sub(shl(0xa0, 0x01), 0x01)\n        /* \"contracts/ReviewManager.sol\":1847:1877  _foodAppContract == address(0) */\n      dup10\n      and\n      iszero\n      dup1\n        /* \"contracts/ReviewManager.sol\":1847:1920  _foodAppContract == address(0) || _restaurantManagerAddress == address(0) */\n      tag_298\n      jumpi\n      pop\n      sub(shl(0xa0, 0x01), 0x01)\n        /* \"contracts/ReviewManager.sol\":1881:1920  _restaurantManagerAddress == address(0) */\n      dup9\n      and\n      iszero\n        /* \"contracts/ReviewManager.sol\":1847:1920  _foodAppContract == address(0) || _restaurantManagerAddress == address(0) */\n    tag_298:\n        /* \"contracts/ReviewManager.sol\":1847:1957  _foodAppContract == address(0) || _restaurantManagerAddress == address(0) || _menuManagerAddress == address(0) */\n      dup1\n      tag_299\n      jumpi\n      pop\n      sub(shl(0xa0, 0x01), 0x01)\n        /* \"contracts/ReviewManager.sol\":1924:1957  _menuManagerAddress == address(0) */\n      dup8\n      and\n      iszero\n        /* \"contracts/ReviewManager.sol\":1847:1957  _foodAppContract == address(0) || _restaurantManagerAddress == address(0) || _menuManagerAddress == address(0) */\n    tag_299:\n        /* \"contracts/ReviewManager.sol\":1843:2011  if (_foodAppContract == address(0) || _restaurantManagerAddress == address(0) || _menuManagerAddress == address(0)) ... */\n      iszero\n      tag_300\n      jumpi\n        /* \"contracts/ReviewManager.sol\":1980:2011  ReviewManager__InvalidAddress() */\n      mload(0x40)\n      shl(0xe0, 0x9e4f29a3)\n      dup2\n      mstore\n      0x04\n      add\n      mload(0x40)\n      dup1\n      swap2\n      sub\n      swap1\n      revert\n        /* \"contracts/ReviewManager.sol\":1843:2011  if (_foodAppContract == address(0) || _restaurantManagerAddress == address(0) || _menuManagerAddress == address(0)) ... */\n    tag_300:\n        /* \"contracts/ReviewManager.sol\":2022:2044  __Ownable_init(_owner) */\n      tag_301\n        /* \"contracts/ReviewManager.sol\":2037:2043  _owner */\n      dup7\n        /* \"contracts/ReviewManager.sol\":2022:2036  __Ownable_init */\n      tag_302\n        /* \"contracts/ReviewManager.sol\":2022:2044  __Ownable_init(_owner) */\n      jump\t// in\n    tag_301:\n        /* \"contracts/ReviewManager.sol\":2055:2077  foodAppContractAddress */\n      0x08\n        /* \"contracts/ReviewManager.sol\":2055:2096  foodAppContractAddress = _foodAppContract */\n      dup1\n      sload\n      sub(shl(0xa0, 0x01), 0x01)\n      dup1\n      dup13\n      and\n      not(sub(shl(0xa0, 0x01), 0x01))\n      swap3\n      dup4\n      and\n      or\n      swap1\n      swap3\n      sstore\n        /* \"contracts/ReviewManager.sol\":2107:2124  restaurantManager */\n      0x09\n        /* \"contracts/ReviewManager.sol\":2107:2172  restaurantManager = IRestaurantManager(_restaurantManagerAddress) */\n      dup1\n      sload\n      dup12\n      dup5\n      and\n      swap1\n      dup4\n      and\n      or\n      swap1\n      sstore\n        /* \"contracts/ReviewManager.sol\":2183:2194  menuManager */\n      0x07\n        /* \"contracts/ReviewManager.sol\":2183:2230  menuManager = IMenuManager(_menuManagerAddress) */\n      dup1\n      sload\n      swap3\n      dup11\n      and\n      swap3\n      swap1\n      swap2\n      and\n      swap2\n      swap1\n      swap2\n      or\n      swap1\n      sstore\n        /* \"contracts/ReviewManager.sol\":2055:2077  foodAppContractAddress */\n      0x00\n        /* \"contracts/ReviewManager.sol\":2241:2257  nextReviewId = 1 */\n      dup1\n      sload\n      not(sub(shl(0x80, 0x01), 0x01))\n      and\n        /* \"contracts/ReviewManager.sol\":2055:2096  foodAppContractAddress = _foodAppContract */\n      0x01\n        /* \"contracts/ReviewManager.sol\":2241:2257  nextReviewId = 1 */\n      or\n      swap1\n      sstore\n        /* \"@openzeppelin/contracts-upgradeable/proxy/utils/Initializable.sol\":5064:5165  if (isTopLevelCall) {... */\n      dup4\n      iszero\n      tag_303\n      jumpi\n        /* \"@openzeppelin/contracts-upgradeable/proxy/utils/Initializable.sol\":5098:5121  $._initializing = false */\n      dup5\n      sload\n      not(shl(0x40, 0xff))\n      and\n      dup6\n      sstore\n        /* \"@openzeppelin/contracts-upgradeable/proxy/utils/Initializable.sol\":5140:5154  Initialized(1) */\n      mload(0x40)\n      0x01\n        /* \"#utility.yul\":19692:19742   */\n      dup2\n      mstore\n        /* \"@openzeppelin/contracts-upgradeable/proxy/utils/Initializable.sol\":5140:5154  Initialized(1) */\n      0xc7f505b2f371ae2175ee4913f4499e1f2633a7b5936321eed1cdaeb6115181d2\n      swap1\n        /* \"#utility.yul\":19680:19682   */\n      0x20\n        /* \"#utility.yul\":19665:19683   */\n      add\n        /* \"@openzeppelin/contracts-upgradeable/proxy/utils/Initializable.sol\":5140:5154  Initialized(1) */\n      mload(0x40)\n      dup1\n      swap2\n      sub\n      swap1\n      log1\n        /* \"@openzeppelin/contracts-upgradeable/proxy/utils/Initializable.sol\":5064:5165  if (isTopLevelCall) {... */\n    tag_303:\n        /* \"@openzeppelin/contracts-upgradeable/proxy/utils/Initializable.sol\":4092:5171  {... */\n      pop\n      pop\n      pop\n      pop\n      pop\n        /* \"contracts/ReviewManager.sol\":1677:2265  function initialize(address _foodAppContract, address _restaurantManagerAddress, address _menuManagerAddress, address _owner) ... */\n      pop\n      pop\n      pop\n      pop\n      jump\t// out\n        /* \"@openzeppelin/contracts-upgradeable/access/OwnableUpgradeable.sol\":2658:2820  function _checkOwner() internal view virtual {... */\n    tag_166:\n        /* \"@openzeppelin/contracts-upgradeable/utils/ContextUpgradeable.sol\":966:976  msg.sender */\n      caller\n        /* \"@openzeppelin/contracts-upgradeable/access/OwnableUpgradeable.sol\":2717:2724  owner() */\n      tag_309\n        /* \"@openzeppelin/contracts-upgradeable/access/OwnableUpgradeable.sol\":1313:1335  OwnableStorageLocation */\n      0x9016d09d72d40fdae2fd8ceac6b6234c7706214fd39c1cd1e609a0528c199300\n        /* \"@openzeppelin/contracts-upgradeable/access/OwnableUpgradeable.sol\":2570:2578  $._owner */\n      sload\n      sub(shl(0xa0, 0x01), 0x01)\n      and\n      swap1\n        /* \"@openzeppelin/contracts-upgradeable/access/OwnableUpgradeable.sol\":2441:2585  function owner() public view virtual returns (address) {... */\n      jump\n        /* \"@openzeppelin/contracts-upgradeable/access/OwnableUpgradeable.sol\":2717:2724  owner() */\n    tag_309:\n      sub(shl(0xa0, 0x01), 0x01)\n        /* \"@openzeppelin/contracts-upgradeable/access/OwnableUpgradeable.sol\":2717:2740  owner() != _msgSender() */\n      and\n      eq\n        /* \"@openzeppelin/contracts-upgradeable/access/OwnableUpgradeable.sol\":2713:2814  if (owner() != _msgSender()) {... */\n      tag_168\n      jumpi\n        /* \"@openzeppelin/contracts-upgradeable/access/OwnableUpgradeable.sol\":2763:2803  OwnableUnauthorizedAccount(_msgSender()) */\n      mload(0x40)\n      shl(0xe0, 0x118cdaa7)\n      dup2\n      mstore\n        /* \"@openzeppelin/contracts-upgradeable/utils/ContextUpgradeable.sol\":966:976  msg.sender */\n      caller\n        /* \"@openzeppelin/contracts-upgradeable/access/OwnableUpgradeable.sol\":2763:2803  OwnableUnauthorizedAccount(_msgSender()) */\n      0x04\n      dup3\n      add\n        /* \"#utility.yul\":1057:1108   */\n      mstore\n        /* \"#utility.yul\":1030:1048   */\n      0x24\n      add\n        /* \"@openzeppelin/contracts-upgradeable/access/OwnableUpgradeable.sol\":2763:2803  OwnableUnauthorizedAccount(_msgSender()) */\n      tag_287\n        /* \"#utility.yul\":884:1114   */\n      jump\n        /* \"@openzeppelin/contracts-upgradeable/access/OwnableUpgradeable.sol\":3774:4022  function _transferOwnership(address newOwner) internal virtual {... */\n    tag_169:\n        /* \"@openzeppelin/contracts-upgradeable/access/OwnableUpgradeable.sol\":1313:1335  OwnableStorageLocation */\n      0x9016d09d72d40fdae2fd8ceac6b6234c7706214fd39c1cd1e609a0528c199300\n        /* \"@openzeppelin/contracts-upgradeable/access/OwnableUpgradeable.sol\":3923:3931  $._owner */\n      dup1\n      sload\n      not(sub(shl(0xa0, 0x01), 0x01))\n        /* \"@openzeppelin/contracts-upgradeable/access/OwnableUpgradeable.sol\":3941:3960  $._owner = newOwner */\n      dup2\n      and\n      sub(shl(0xa0, 0x01), 0x01)\n      dup5\n      dup2\n      and\n      swap2\n      dup3\n      or\n      dup5\n      sstore\n        /* \"@openzeppelin/contracts-upgradeable/access/OwnableUpgradeable.sol\":3975:4015  OwnershipTransferred(oldOwner, newOwner) */\n      mload(0x40)\n        /* \"@openzeppelin/contracts-upgradeable/access/OwnableUpgradeable.sol\":3923:3931  $._owner */\n      swap3\n      and\n      swap2\n      dup3\n      swap1\n        /* \"@openzeppelin/contracts-upgradeable/access/OwnableUpgradeable.sol\":3975:4015  OwnershipTransferred(oldOwner, newOwner) */\n      0x8be0079c531659141344cd1fd0a4f28419497f9722a3daafe3b4186f6b6457e0\n      swap1\n        /* \"@openzeppelin/contracts-upgradeable/access/OwnableUpgradeable.sol\":3847:3871  OwnableStorage storage $ */\n      0x00\n      swap1\n        /* \"@openzeppelin/contracts-upgradeable/access/OwnableUpgradeable.sol\":3975:4015  OwnershipTransferred(oldOwner, newOwner) */\n      log3\n        /* \"@openzeppelin/contracts-upgradeable/access/OwnableUpgradeable.sol\":3837:4022  {... */\n      pop\n      pop\n        /* \"@openzeppelin/contracts-upgradeable/access/OwnableUpgradeable.sol\":3774:4022  function _transferOwnership(address newOwner) internal virtual {... */\n      pop\n      jump\t// out\n        /* \"@openzeppelin/contracts-upgradeable/proxy/utils/Initializable.sol\":9071:9276  function _getInitializableStorage() private pure returns (InitializableStorage storage $) {... */\n    tag_291:\n        /* \"@openzeppelin/contracts-upgradeable/proxy/utils/Initializable.sol\":9129:9159  InitializableStorage storage $ */\n      0x00\n      dup1\n        /* \"@openzeppelin/contracts-upgradeable/proxy/utils/Initializable.sol\":3147:3213  0xf0c57e16840df040f15088dc2f81fe391c3923bec73e23a9662efc9c229c6a00 */\n      0xf0c57e16840df040f15088dc2f81fe391c3923bec73e23a9662efc9c229c6a00\n        /* \"@openzeppelin/contracts-upgradeable/proxy/utils/Initializable.sol\":9186:9213  _initializableStorageSlot() */\n    tag_317:\n        /* \"@openzeppelin/contracts-upgradeable/proxy/utils/Initializable.sol\":9171:9213  bytes32 slot = _initializableStorageSlot() */\n      swap3\n        /* \"@openzeppelin/contracts-upgradeable/proxy/utils/Initializable.sol\":9071:9276  function _getInitializableStorage() private pure returns (InitializableStorage storage $) {... */\n      swap2\n      pop\n      pop\n      jump\t// out\n        /* \"@openzeppelin/contracts-upgradeable/access/OwnableUpgradeable.sol\":1847:1974  function __Ownable_init(address initialOwner) internal onlyInitializing {... */\n    tag_302:\n        /* \"@openzeppelin/contracts-upgradeable/proxy/utils/Initializable.sol\":6929:6949  _checkInitializing() */\n      tag_320\n        /* \"@openzeppelin/contracts-upgradeable/proxy/utils/Initializable.sol\":6929:6947  _checkInitializing */\n      tag_321\n        /* \"@openzeppelin/contracts-upgradeable/proxy/utils/Initializable.sol\":6929:6949  _checkInitializing() */\n      jump\t// in\n    tag_320:\n        /* \"@openzeppelin/contracts-upgradeable/access/OwnableUpgradeable.sol\":1929:1967  __Ownable_init_unchained(initialOwner) */\n      tag_288\n        /* \"@openzeppelin/contracts-upgradeable/access/OwnableUpgradeable.sol\":1954:1966  initialOwner */\n      dup2\n        /* \"@openzeppelin/contracts-upgradeable/access/OwnableUpgradeable.sol\":1929:1953  __Ownable_init_unchained */\n      tag_324\n        /* \"@openzeppelin/contracts-upgradeable/access/OwnableUpgradeable.sol\":1929:1967  __Ownable_init_unchained(initialOwner) */\n      jump\t// in\n        /* \"@openzeppelin/contracts-upgradeable/proxy/utils/Initializable.sol\":7082:7223  function _checkInitializing() internal view virtual {... */\n    tag_321:\n        /* \"@openzeppelin/contracts-upgradeable/proxy/utils/Initializable.sol\":7149:7166  _isInitializing() */\n      tag_328\n        /* \"@openzeppelin/contracts-upgradeable/proxy/utils/Initializable.sol\":7149:7164  _isInitializing */\n      tag_329\n        /* \"@openzeppelin/contracts-upgradeable/proxy/utils/Initializable.sol\":7149:7166  _isInitializing() */\n      jump\t// in\n    tag_328:\n        /* \"@openzeppelin/contracts-upgradeable/proxy/utils/Initializable.sol\":7144:7217  if (!_isInitializing()) {... */\n      tag_168\n      jumpi\n        /* \"@openzeppelin/contracts-upgradeable/proxy/utils/Initializable.sol\":7189:7206  NotInitializing() */\n      mload(0x40)\n      shl(0xe3, 0x1afcd79f)\n      dup2\n      mstore\n      0x04\n      add\n      mload(0x40)\n      dup1\n      swap2\n      sub\n      swap1\n      revert\n        /* \"@openzeppelin/contracts-upgradeable/access/OwnableUpgradeable.sol\":1980:2215  function __Ownable_init_unchained(address initialOwner) internal onlyInitializing {... */\n    tag_324:\n        /* \"@openzeppelin/contracts-upgradeable/proxy/utils/Initializable.sol\":6929:6949  _checkInitializing() */\n      tag_284\n        /* \"@openzeppelin/contracts-upgradeable/proxy/utils/Initializable.sol\":6929:6947  _checkInitializing */\n      tag_321\n        /* \"@openzeppelin/contracts-upgradeable/proxy/utils/Initializable.sol\":6929:6949  _checkInitializing() */\n      jump\t// in\n        /* \"@openzeppelin/contracts-upgradeable/proxy/utils/Initializable.sol\":8485:8605  function _isInitializing() internal view returns (bool) {... */\n    tag_329:\n        /* \"@openzeppelin/contracts-upgradeable/proxy/utils/Initializable.sol\":8535:8539  bool */\n      0x00\n        /* \"@openzeppelin/contracts-upgradeable/proxy/utils/Initializable.sol\":8558:8584  _getInitializableStorage() */\n      tag_338\n        /* \"@openzeppelin/contracts-upgradeable/proxy/utils/Initializable.sol\":8558:8582  _getInitializableStorage */\n      tag_291\n        /* \"@openzeppelin/contracts-upgradeable/proxy/utils/Initializable.sol\":8558:8584  _getInitializableStorage() */\n      jump\t// in\n    tag_338:\n        /* \"@openzeppelin/contracts-upgradeable/proxy/utils/Initializable.sol\":8558:8598  _getInitializableStorage()._initializing */\n      sload\n      shl(0x40, 0x01)\n      swap1\n      div\n      0xff\n      and\n      swap2\n      swap1\n      pop\n        /* \"@openzeppelin/contracts-upgradeable/proxy/utils/Initializable.sol\":8485:8605  function _isInitializing() internal view returns (bool) {... */\n      jump\t// out\n        /* \"#utility.yul\":14:160   */\n    tag_339:\n      sub(shl(0x80, 0x01), 0x01)\n        /* \"#utility.yul\":93:98   */\n      dup2\n        /* \"#utility.yul\":89:135   */\n      and\n        /* \"#utility.yul\":82:87   */\n      dup2\n        /* \"#utility.yul\":79:136   */\n      eq\n        /* \"#utility.yul\":69:154   */\n      tag_288\n      jumpi\n        /* \"#utility.yul\":150:151   */\n      0x00\n        /* \"#utility.yul\":147:148   */\n      0x00\n        /* \"#utility.yul\":140:152   */\n      revert\n        /* \"#utility.yul\":165:532   */\n    tag_29:\n        /* \"#utility.yul\":233:239   */\n      0x00\n        /* \"#utility.yul\":241:247   */\n      0x00\n        /* \"#utility.yul\":294:296   */\n      0x40\n        /* \"#utility.yul\":282:291   */\n      dup4\n        /* \"#utility.yul\":273:280   */\n      dup6\n        /* \"#utility.yul\":269:292   */\n      sub\n        /* \"#utility.yul\":265:297   */\n      slt\n        /* \"#utility.yul\":262:314   */\n      iszero\n      tag_361\n      jumpi\n        /* \"#utility.yul\":310:311   */\n      0x00\n        /* \"#utility.yul\":307:308   */\n      0x00\n        /* \"#utility.yul\":300:312   */\n      revert\n        /* \"#utility.yul\":262:314   */\n    tag_361:\n        /* \"#utility.yul\":349:358   */\n      dup3\n        /* \"#utility.yul\":336:359   */\n      calldataload\n        /* \"#utility.yul\":368:399   */\n      tag_362\n        /* \"#utility.yul\":393:398   */\n      dup2\n        /* \"#utility.yul\":368:399   */\n      tag_339\n      jump\t// in\n    tag_362:\n        /* \"#utility.yul\":418:423   */\n      swap5\n        /* \"#utility.yul\":496:498   */\n      0x20\n        /* \"#utility.yul\":481:499   */\n      swap4\n      swap1\n      swap4\n      add\n        /* \"#utility.yul\":468:500   */\n      calldataload\n      swap4\n      pop\n      pop\n      pop\n        /* \"#utility.yul\":165:532   */\n      jump\t// out\n        /* \"#utility.yul\":1119:1292   */\n    tag_341:\n        /* \"#utility.yul\":1187:1207   */\n      dup1\n      calldataload\n      sub(shl(0xa0, 0x01), 0x01)\n        /* \"#utility.yul\":1236:1267   */\n      dup2\n      and\n        /* \"#utility.yul\":1226:1268   */\n      dup2\n      eq\n        /* \"#utility.yul\":1216:1286   */\n      tag_367\n      jumpi\n        /* \"#utility.yul\":1282:1283   */\n      0x00\n        /* \"#utility.yul\":1279:1280   */\n      0x00\n        /* \"#utility.yul\":1272:1284   */\n      revert\n        /* \"#utility.yul\":1216:1286   */\n    tag_367:\n        /* \"#utility.yul\":1119:1292   */\n      swap2\n      swap1\n      pop\n      jump\t// out\n        /* \"#utility.yul\":1297:1597   */\n    tag_39:\n        /* \"#utility.yul\":1365:1371   */\n      0x00\n        /* \"#utility.yul\":1373:1379   */\n      0x00\n        /* \"#utility.yul\":1426:1428   */\n      0x40\n        /* \"#utility.yul\":1414:1423   */\n      dup4\n        /* \"#utility.yul\":1405:1412   */\n      dup6\n        /* \"#utility.yul\":1401:1424   */\n      sub\n        /* \"#utility.yul\":1397:1429   */\n      slt\n        /* \"#utility.yul\":1394:1446   */\n      iszero\n      tag_369\n      jumpi\n        /* \"#utility.yul\":1442:1443   */\n      0x00\n        /* \"#utility.yul\":1439:1440   */\n      0x00\n        /* \"#utility.yul\":1432:1444   */\n      revert\n        /* \"#utility.yul\":1394:1446   */\n    tag_369:\n        /* \"#utility.yul\":1465:1494   */\n      tag_362\n        /* \"#utility.yul\":1484:1493   */\n      dup4\n        /* \"#utility.yul\":1465:1494   */\n      tag_341\n      jump\t// in\n        /* \"#utility.yul\":1602:1788   */\n    tag_47:\n        /* \"#utility.yul\":1661:1667   */\n      0x00\n        /* \"#utility.yul\":1714:1716   */\n      0x20\n        /* \"#utility.yul\":1702:1711   */\n      dup3\n        /* \"#utility.yul\":1693:1700   */\n      dup5\n        /* \"#utility.yul\":1689:1712   */\n      sub\n        /* \"#utility.yul\":1685:1717   */\n      slt\n        /* \"#utility.yul\":1682:1734   */\n      iszero\n      tag_372\n      jumpi\n        /* \"#utility.yul\":1730:1731   */\n      0x00\n        /* \"#utility.yul\":1727:1728   */\n      0x00\n        /* \"#utility.yul\":1720:1732   */\n      revert\n        /* \"#utility.yul\":1682:1734   */\n    tag_372:\n        /* \"#utility.yul\":1753:1782   */\n      tag_373\n        /* \"#utility.yul\":1772:1781   */\n      dup3\n        /* \"#utility.yul\":1753:1782   */\n      tag_341\n      jump\t// in\n    tag_373:\n        /* \"#utility.yul\":1743:1782   */\n      swap4\n        /* \"#utility.yul\":1602:1788   */\n      swap3\n      pop\n      pop\n      pop\n      jump\t// out\n        /* \"#utility.yul\":1873:2162   */\n    tag_343:\n        /* \"#utility.yul\":1915:1918   */\n      0x00\n        /* \"#utility.yul\":1953:1958   */\n      dup2\n        /* \"#utility.yul\":1947:1959   */\n      mload\n        /* \"#utility.yul\":1980:1986   */\n      dup1\n        /* \"#utility.yul\":1975:1978   */\n      dup5\n        /* \"#utility.yul\":1968:1987   */\n      mstore\n        /* \"#utility.yul\":2036:2042   */\n      dup1\n        /* \"#utility.yul\":2029:2033   */\n      0x20\n        /* \"#utility.yul\":2022:2027   */\n      dup5\n        /* \"#utility.yul\":2018:2034   */\n      add\n        /* \"#utility.yul\":2011:2015   */\n      0x20\n        /* \"#utility.yul\":2006:2009   */\n      dup7\n        /* \"#utility.yul\":2002:2016   */\n      add\n        /* \"#utility.yul\":1996:2043   */\n      mcopy\n        /* \"#utility.yul\":2088:2089   */\n      0x00\n        /* \"#utility.yul\":2081:2085   */\n      0x20\n        /* \"#utility.yul\":2072:2078   */\n      dup3\n        /* \"#utility.yul\":2067:2070   */\n      dup7\n        /* \"#utility.yul\":2063:2079   */\n      add\n        /* \"#utility.yul\":2059:2086   */\n      add\n        /* \"#utility.yul\":2052:2090   */\n      mstore\n        /* \"#utility.yul\":2151:2155   */\n      0x20\n        /* \"#utility.yul\":2144:2146   */\n      0x1f\n        /* \"#utility.yul\":2140:2147   */\n      not\n        /* \"#utility.yul\":2135:2137   */\n      0x1f\n        /* \"#utility.yul\":2127:2133   */\n      dup4\n        /* \"#utility.yul\":2123:2138   */\n      add\n        /* \"#utility.yul\":2119:2148   */\n      and\n        /* \"#utility.yul\":2114:2117   */\n      dup6\n        /* \"#utility.yul\":2110:2149   */\n      add\n        /* \"#utility.yul\":2106:2156   */\n      add\n        /* \"#utility.yul\":2099:2156   */\n      swap2\n      pop\n      pop\n        /* \"#utility.yul\":1873:2162   */\n      swap3\n      swap2\n      pop\n      pop\n      jump\t// out\n        /* \"#utility.yul\":2167:3767   */\n    tag_50:\n        /* \"#utility.yul\":2367:2371   */\n      0x00\n        /* \"#utility.yul\":2415:2417   */\n      0x20\n        /* \"#utility.yul\":2404:2413   */\n      dup3\n        /* \"#utility.yul\":2400:2418   */\n      add\n        /* \"#utility.yul\":2445:2447   */\n      0x20\n        /* \"#utility.yul\":2434:2443   */\n      dup4\n        /* \"#utility.yul\":2427:2448   */\n      mstore\n        /* \"#utility.yul\":2468:2474   */\n      dup1\n        /* \"#utility.yul\":2503:2509   */\n      dup5\n        /* \"#utility.yul\":2497:2510   */\n      mload\n        /* \"#utility.yul\":2534:2540   */\n      dup1\n        /* \"#utility.yul\":2526:2532   */\n      dup4\n        /* \"#utility.yul\":2519:2541   */\n      mstore\n        /* \"#utility.yul\":2572:2574   */\n      0x40\n        /* \"#utility.yul\":2561:2570   */\n      dup6\n        /* \"#utility.yul\":2557:2575   */\n      add\n        /* \"#utility.yul\":2550:2575   */\n      swap2\n      pop\n        /* \"#utility.yul\":2634:2636   */\n      0x40\n        /* \"#utility.yul\":2624:2630   */\n      dup2\n        /* \"#utility.yul\":2621:2622   */\n      0x05\n        /* \"#utility.yul\":2617:2631   */\n      shl\n        /* \"#utility.yul\":2606:2615   */\n      dup7\n        /* \"#utility.yul\":2602:2632   */\n      add\n        /* \"#utility.yul\":2598:2637   */\n      add\n        /* \"#utility.yul\":2584:2637   */\n      swap3\n      pop\n        /* \"#utility.yul\":2672:2674   */\n      0x20\n        /* \"#utility.yul\":2664:2670   */\n      dup7\n        /* \"#utility.yul\":2660:2675   */\n      add\n        /* \"#utility.yul\":2693:2694   */\n      0x00\n        /* \"#utility.yul\":2703:3738   */\n    tag_377:\n        /* \"#utility.yul\":2717:2723   */\n      dup3\n        /* \"#utility.yul\":2714:2715   */\n      dup2\n        /* \"#utility.yul\":2711:2724   */\n      lt\n        /* \"#utility.yul\":2703:3738   */\n      iszero\n      tag_379\n      jumpi\n        /* \"#utility.yul\":2810:2812   */\n      0x3f\n        /* \"#utility.yul\":2806:2813   */\n      not\n        /* \"#utility.yul\":2794:2803   */\n      dup8\n        /* \"#utility.yul\":2786:2792   */\n      dup7\n        /* \"#utility.yul\":2782:2804   */\n      sub\n        /* \"#utility.yul\":2778:2814   */\n      add\n        /* \"#utility.yul\":2773:2776   */\n      dup5\n        /* \"#utility.yul\":2766:2815   */\n      mstore\n        /* \"#utility.yul\":2844:2850   */\n      dup2\n        /* \"#utility.yul\":2838:2851   */\n      mload\n      sub(shl(0x80, 0x01), 0x01)\n        /* \"#utility.yul\":2889:2891   */\n      dup2\n        /* \"#utility.yul\":2883:2892   */\n      mload\n        /* \"#utility.yul\":2879:2929   */\n      and\n        /* \"#utility.yul\":2871:2877   */\n      dup7\n        /* \"#utility.yul\":2864:2930   */\n      mstore\n        /* \"#utility.yul\":3008:3009   */\n      0x01\n        /* \"#utility.yul\":3004:3005   */\n      dup1\n        /* \"#utility.yul\":2999:3002   */\n      0xa0\n        /* \"#utility.yul\":2995:3006   */\n      shl\n        /* \"#utility.yul\":2991:3010   */\n      sub\n        /* \"#utility.yul\":2985:2987   */\n      0x20\n        /* \"#utility.yul\":2981:2983   */\n      dup3\n        /* \"#utility.yul\":2977:2988   */\n      add\n        /* \"#utility.yul\":2971:2989   */\n      mload\n        /* \"#utility.yul\":2967:3011   */\n      and\n        /* \"#utility.yul\":2962:2964   */\n      0x20\n        /* \"#utility.yul\":2954:2960   */\n      dup8\n        /* \"#utility.yul\":2950:2965   */\n      add\n        /* \"#utility.yul\":2943:3012   */\n      mstore\n        /* \"#utility.yul\":3090:3091   */\n      0x01\n        /* \"#utility.yul\":3086:3087   */\n      dup1\n        /* \"#utility.yul\":3081:3084   */\n      0xa0\n        /* \"#utility.yul\":3077:3088   */\n      shl\n        /* \"#utility.yul\":3073:3092   */\n      sub\n        /* \"#utility.yul\":3067:3069   */\n      0x40\n        /* \"#utility.yul\":3063:3065   */\n      dup3\n        /* \"#utility.yul\":3059:3070   */\n      add\n        /* \"#utility.yul\":3053:3071   */\n      mload\n        /* \"#utility.yul\":3049:3093   */\n      and\n        /* \"#utility.yul\":3044:3046   */\n      0x40\n        /* \"#utility.yul\":3036:3042   */\n      dup8\n        /* \"#utility.yul\":3032:3047   */\n      add\n        /* \"#utility.yul\":3025:3094   */\n      mstore\n        /* \"#utility.yul\":3141:3145   */\n      0x60\n        /* \"#utility.yul\":3137:3139   */\n      dup2\n        /* \"#utility.yul\":3133:3146   */\n      add\n        /* \"#utility.yul\":3127:3147   */\n      mload\n        /* \"#utility.yul\":3160:3211   */\n      tag_380\n        /* \"#utility.yul\":3205:3209   */\n      0x60\n        /* \"#utility.yul\":3197:3203   */\n      dup9\n        /* \"#utility.yul\":3193:3210   */\n      add\n        /* \"#utility.yul\":3179:3191   */\n      dup3\n      sub(shl(0x80, 0x01), 0x01)\n        /* \"#utility.yul\":603:649   */\n      and\n        /* \"#utility.yul\":591:650   */\n      swap1\n      mstore\n        /* \"#utility.yul\":537:656   */\n      jump\n        /* \"#utility.yul\":3160:3211   */\n    tag_380:\n      pop\n        /* \"#utility.yul\":3260:3264   */\n      0x80\n        /* \"#utility.yul\":3256:3258   */\n      dup2\n        /* \"#utility.yul\":3252:3265   */\n      add\n        /* \"#utility.yul\":3246:3266   */\n      mload\n        /* \"#utility.yul\":3279:3330   */\n      tag_381\n        /* \"#utility.yul\":3324:3328   */\n      0x80\n        /* \"#utility.yul\":3316:3322   */\n      dup9\n        /* \"#utility.yul\":3312:3329   */\n      add\n        /* \"#utility.yul\":3296:3310   */\n      dup3\n        /* \"#utility.yul\":1860:1864   */\n      0xff\n        /* \"#utility.yul\":1849:1865   */\n      and\n        /* \"#utility.yul\":1837:1866   */\n      swap1\n      mstore\n        /* \"#utility.yul\":1793:1868   */\n      jump\n        /* \"#utility.yul\":3279:3330   */\n    tag_381:\n      pop\n        /* \"#utility.yul\":3379:3383   */\n      0xa0\n        /* \"#utility.yul\":3375:3377   */\n      dup2\n        /* \"#utility.yul\":3371:3384   */\n      add\n        /* \"#utility.yul\":3365:3385   */\n      mload\n        /* \"#utility.yul\":3424:3428   */\n      0xe0\n        /* \"#utility.yul\":3417:3421   */\n      0xa0\n        /* \"#utility.yul\":3409:3415   */\n      dup9\n        /* \"#utility.yul\":3405:3422   */\n      add\n        /* \"#utility.yul\":3398:3429   */\n      mstore\n        /* \"#utility.yul\":3456:3508   */\n      tag_382\n        /* \"#utility.yul\":3502:3506   */\n      0xe0\n        /* \"#utility.yul\":3494:3500   */\n      dup9\n        /* \"#utility.yul\":3490:3507   */\n      add\n        /* \"#utility.yul\":3474:3488   */\n      dup3\n        /* \"#utility.yul\":3456:3508   */\n      tag_343\n      jump\t// in\n    tag_382:\n        /* \"#utility.yul\":3442:3508   */\n      swap1\n      pop\n        /* \"#utility.yul\":3557:3561   */\n      0xc0\n        /* \"#utility.yul\":3553:3555   */\n      dup3\n        /* \"#utility.yul\":3549:3562   */\n      add\n        /* \"#utility.yul\":3543:3563   */\n      mload\n        /* \"#utility.yul\":3521:3563   */\n      swap2\n      pop\n        /* \"#utility.yul\":3576:3629   */\n      tag_383\n        /* \"#utility.yul\":3623:3627   */\n      0xc0\n        /* \"#utility.yul\":3615:3621   */\n      dup9\n        /* \"#utility.yul\":3611:3628   */\n      add\n        /* \"#utility.yul\":3595:3609   */\n      dup4\n      sub(shl(0x80, 0x01), 0x01)\n        /* \"#utility.yul\":603:649   */\n      and\n        /* \"#utility.yul\":591:650   */\n      swap1\n      mstore\n        /* \"#utility.yul\":537:656   */\n      jump\n        /* \"#utility.yul\":3576:3629   */\n    tag_383:\n        /* \"#utility.yul\":3652:3658   */\n      swap6\n      pop\n      pop\n        /* \"#utility.yul\":3693:3695   */\n      0x20\n        /* \"#utility.yul\":3716:3728   */\n      swap4\n      dup5\n      add\n      swap4\n        /* \"#utility.yul\":3681:3696   */\n      swap2\n      swap1\n      swap2\n      add\n      swap1\n        /* \"#utility.yul\":2739:2740   */\n      0x01\n        /* \"#utility.yul\":2732:2741   */\n      add\n        /* \"#utility.yul\":2703:3738   */\n      jump(tag_377)\n    tag_379:\n      pop\n        /* \"#utility.yul\":3755:3761   */\n      swap3\n      swap7\n        /* \"#utility.yul\":2167:3767   */\n      swap6\n      pop\n      pop\n      pop\n      pop\n      pop\n      pop\n      jump\t// out\n        /* \"#utility.yul\":4001:4248   */\n    tag_57:\n        /* \"#utility.yul\":4060:4066   */\n      0x00\n        /* \"#utility.yul\":4113:4115   */\n      0x20\n        /* \"#utility.yul\":4101:4110   */\n      dup3\n        /* \"#utility.yul\":4092:4099   */\n      dup5\n        /* \"#utility.yul\":4088:4111   */\n      sub\n        /* \"#utility.yul\":4084:4116   */\n      slt\n        /* \"#utility.yul\":4081:4133   */\n      iszero\n      tag_386\n      jumpi\n        /* \"#utility.yul\":4129:4130   */\n      0x00\n        /* \"#utility.yul\":4126:4127   */\n      0x00\n        /* \"#utility.yul\":4119:4131   */\n      revert\n        /* \"#utility.yul\":4081:4133   */\n    tag_386:\n        /* \"#utility.yul\":4168:4177   */\n      dup2\n        /* \"#utility.yul\":4155:4178   */\n      calldataload\n        /* \"#utility.yul\":4187:4218   */\n      tag_373\n        /* \"#utility.yul\":4212:4217   */\n      dup2\n        /* \"#utility.yul\":4187:4218   */\n      tag_339\n      jump\t// in\n        /* \"#utility.yul\":4253:5101   */\n    tag_60:\n      sub(shl(0x80, 0x01), 0x01)\n        /* \"#utility.yul\":4566:4613   */\n      dup9\n      dup2\n      and\n        /* \"#utility.yul\":4548:4614   */\n      dup3\n      mstore\n      sub(shl(0xa0, 0x01), 0x01)\n        /* \"#utility.yul\":4650:4682   */\n      dup9\n      and\n        /* \"#utility.yul\":4645:4647   */\n      0x20\n        /* \"#utility.yul\":4630:4648   */\n      dup4\n      add\n        /* \"#utility.yul\":4623:4683   */\n      mstore\n        /* \"#utility.yul\":4719:4766   */\n      dup7\n      dup2\n      and\n        /* \"#utility.yul\":4714:4716   */\n      0x40\n        /* \"#utility.yul\":4699:4717   */\n      dup4\n      add\n        /* \"#utility.yul\":4692:4767   */\n      mstore\n        /* \"#utility.yul\":4803:4850   */\n      dup6\n      and\n        /* \"#utility.yul\":4798:4800   */\n      0x60\n        /* \"#utility.yul\":4783:4801   */\n      dup3\n      add\n        /* \"#utility.yul\":4776:4851   */\n      mstore\n        /* \"#utility.yul\":4900:4904   */\n      0xff\n        /* \"#utility.yul\":4888:4905   */\n      dup5\n      and\n        /* \"#utility.yul\":4882:4885   */\n      0x80\n        /* \"#utility.yul\":4867:4886   */\n      dup3\n      add\n        /* \"#utility.yul\":4860:4906   */\n      mstore\n        /* \"#utility.yul\":4943:4946   */\n      0xe0\n        /* \"#utility.yul\":4670:4673   */\n      0xa0\n        /* \"#utility.yul\":4922:4941   */\n      dup3\n      add\n        /* \"#utility.yul\":4915:4947   */\n      dup2\n      swap1\n      mstore\n      0x00\n      swap1\n        /* \"#utility.yul\":4964:5010   */\n      tag_389\n      swap1\n        /* \"#utility.yul\":4990:5009   */\n      dup4\n      add\n        /* \"#utility.yul\":4982:4988   */\n      dup6\n        /* \"#utility.yul\":4964:5010   */\n      tag_343\n      jump\t// in\n    tag_389:\n        /* \"#utility.yul\":4956:5010   */\n      swap1\n      pop\n      sub(shl(0x80, 0x01), 0x01)\n        /* \"#utility.yul\":5051:5057   */\n      dup4\n        /* \"#utility.yul\":5047:5094   */\n      and\n        /* \"#utility.yul\":5041:5044   */\n      0xc0\n        /* \"#utility.yul\":5030:5039   */\n      dup4\n        /* \"#utility.yul\":5026:5045   */\n      add\n        /* \"#utility.yul\":5019:5095   */\n      mstore\n        /* \"#utility.yul\":4253:5101   */\n      swap9\n      swap8\n      pop\n      pop\n      pop\n      pop\n      pop\n      pop\n      pop\n      pop\n      jump\t// out\n        /* \"#utility.yul\":5441:5597   */\n    tag_344:\n        /* \"#utility.yul\":5507:5527   */\n      dup1\n      calldataload\n        /* \"#utility.yul\":5567:5571   */\n      0xff\n        /* \"#utility.yul\":5556:5572   */\n      dup2\n      and\n        /* \"#utility.yul\":5546:5573   */\n      dup2\n      eq\n        /* \"#utility.yul\":5536:5591   */\n      tag_367\n      jumpi\n        /* \"#utility.yul\":5587:5588   */\n      0x00\n        /* \"#utility.yul\":5584:5585   */\n      0x00\n        /* \"#utility.yul\":5577:5589   */\n      revert\n        /* \"#utility.yul\":5602:5729   */\n    tag_126:\n        /* \"#utility.yul\":5663:5673   */\n      0x4e487b71\n        /* \"#utility.yul\":5658:5661   */\n      0xe0\n        /* \"#utility.yul\":5654:5674   */\n      shl\n        /* \"#utility.yul\":5651:5652   */\n      0x00\n        /* \"#utility.yul\":5644:5675   */\n      mstore\n        /* \"#utility.yul\":5694:5698   */\n      0x41\n        /* \"#utility.yul\":5691:5692   */\n      0x04\n        /* \"#utility.yul\":5684:5699   */\n      mstore\n        /* \"#utility.yul\":5718:5722   */\n      0x24\n        /* \"#utility.yul\":5715:5716   */\n      0x00\n        /* \"#utility.yul\":5708:5723   */\n      revert\n        /* \"#utility.yul\":5734:5989   */\n    tag_345:\n        /* \"#utility.yul\":5806:5808   */\n      0x40\n        /* \"#utility.yul\":5800:5809   */\n      mload\n        /* \"#utility.yul\":5848:5854   */\n      0x0160\n        /* \"#utility.yul\":5836:5855   */\n      dup2\n      add\n      sub(shl(0x40, 0x01), 0x01)\n        /* \"#utility.yul\":5870:5904   */\n      dup2\n      gt\n        /* \"#utility.yul\":5906:5928   */\n      dup3\n      dup3\n      lt\n        /* \"#utility.yul\":5867:5929   */\n      or\n        /* \"#utility.yul\":5864:5952   */\n      iszero\n      tag_396\n      jumpi\n        /* \"#utility.yul\":5932:5950   */\n      tag_396\n      tag_126\n      jump\t// in\n    tag_396:\n        /* \"#utility.yul\":5968:5970   */\n      0x40\n        /* \"#utility.yul\":5961:5983   */\n      mstore\n        /* \"#utility.yul\":5734:5989   */\n      swap1\n      jump\t// out\n        /* \"#utility.yul\":5994:6269   */\n    tag_346:\n        /* \"#utility.yul\":6065:6067   */\n      0x40\n        /* \"#utility.yul\":6059:6068   */\n      mload\n        /* \"#utility.yul\":6130:6132   */\n      0x1f\n        /* \"#utility.yul\":6111:6124   */\n      dup3\n      add\n      not(0x1f)\n        /* \"#utility.yul\":6107:6134   */\n      and\n        /* \"#utility.yul\":6095:6135   */\n      dup2\n      add\n      sub(shl(0x40, 0x01), 0x01)\n        /* \"#utility.yul\":6150:6184   */\n      dup2\n      gt\n        /* \"#utility.yul\":6186:6208   */\n      dup3\n      dup3\n      lt\n        /* \"#utility.yul\":6147:6209   */\n      or\n        /* \"#utility.yul\":6144:6232   */\n      iszero\n      tag_399\n      jumpi\n        /* \"#utility.yul\":6212:6230   */\n      tag_399\n      tag_126\n      jump\t// in\n    tag_399:\n        /* \"#utility.yul\":6248:6250   */\n      0x40\n        /* \"#utility.yul\":6241:6263   */\n      mstore\n        /* \"#utility.yul\":5994:6269   */\n      swap2\n      swap1\n      pop\n      jump\t// out\n        /* \"#utility.yul\":6274:6461   */\n    tag_347:\n        /* \"#utility.yul\":6323:6327   */\n      0x00\n      sub(shl(0x40, 0x01), 0x01)\n        /* \"#utility.yul\":6348:6354   */\n      dup3\n        /* \"#utility.yul\":6345:6375   */\n      gt\n        /* \"#utility.yul\":6342:6398   */\n      iszero\n      tag_402\n      jumpi\n        /* \"#utility.yul\":6378:6396   */\n      tag_402\n      tag_126\n      jump\t// in\n    tag_402:\n      pop\n        /* \"#utility.yul\":6444:6446   */\n      0x1f\n        /* \"#utility.yul\":6423:6438   */\n      add\n      not(0x1f)\n        /* \"#utility.yul\":6419:6448   */\n      and\n        /* \"#utility.yul\":6450:6454   */\n      0x20\n        /* \"#utility.yul\":6415:6455   */\n      add\n      swap1\n        /* \"#utility.yul\":6274:6461   */\n      jump\t// out\n        /* \"#utility.yul\":6466:6954   */\n    tag_348:\n        /* \"#utility.yul\":6509:6514   */\n      0x00\n        /* \"#utility.yul\":6562:6565   */\n      dup3\n        /* \"#utility.yul\":6555:6559   */\n      0x1f\n        /* \"#utility.yul\":6547:6553   */\n      dup4\n        /* \"#utility.yul\":6543:6560   */\n      add\n        /* \"#utility.yul\":6539:6566   */\n      slt\n        /* \"#utility.yul\":6529:6584   */\n      tag_404\n      jumpi\n        /* \"#utility.yul\":6580:6581   */\n      0x00\n        /* \"#utility.yul\":6577:6578   */\n      0x00\n        /* \"#utility.yul\":6570:6582   */\n      revert\n        /* \"#utility.yul\":6529:6584   */\n    tag_404:\n        /* \"#utility.yul\":6620:6626   */\n      dup2\n        /* \"#utility.yul\":6607:6627   */\n      calldataload\n        /* \"#utility.yul\":6651:6704   */\n      tag_405\n        /* \"#utility.yul\":6667:6703   */\n      tag_406\n        /* \"#utility.yul\":6696:6702   */\n      dup3\n        /* \"#utility.yul\":6667:6703   */\n      tag_347\n      jump\t// in\n    tag_406:\n        /* \"#utility.yul\":6651:6704   */\n      tag_346\n      jump\t// in\n    tag_405:\n        /* \"#utility.yul\":6729:6735   */\n      dup2\n        /* \"#utility.yul\":6720:6727   */\n      dup2\n        /* \"#utility.yul\":6713:6736   */\n      mstore\n        /* \"#utility.yul\":6783:6786   */\n      dup5\n        /* \"#utility.yul\":6776:6780   */\n      0x20\n        /* \"#utility.yul\":6767:6773   */\n      dup4\n        /* \"#utility.yul\":6759:6765   */\n      dup7\n        /* \"#utility.yul\":6755:6774   */\n      add\n        /* \"#utility.yul\":6751:6781   */\n      add\n        /* \"#utility.yul\":6748:6787   */\n      gt\n        /* \"#utility.yul\":6745:6804   */\n      iszero\n      tag_407\n      jumpi\n        /* \"#utility.yul\":6800:6801   */\n      0x00\n        /* \"#utility.yul\":6797:6798   */\n      0x00\n        /* \"#utility.yul\":6790:6802   */\n      revert\n        /* \"#utility.yul\":6745:6804   */\n    tag_407:\n        /* \"#utility.yul\":6865:6871   */\n      dup2\n        /* \"#utility.yul\":6858:6862   */\n      0x20\n        /* \"#utility.yul\":6850:6856   */\n      dup6\n        /* \"#utility.yul\":6846:6863   */\n      add\n        /* \"#utility.yul\":6839:6843   */\n      0x20\n        /* \"#utility.yul\":6830:6837   */\n      dup4\n        /* \"#utility.yul\":6826:6844   */\n      add\n        /* \"#utility.yul\":6813:6872   */\n      calldatacopy\n        /* \"#utility.yul\":6921:6922   */\n      0x00\n        /* \"#utility.yul\":6892:6912   */\n      swap2\n      dup2\n      add\n        /* \"#utility.yul\":6914:6918   */\n      0x20\n        /* \"#utility.yul\":6888:6919   */\n      add\n        /* \"#utility.yul\":6881:6923   */\n      swap2\n      swap1\n      swap2\n      mstore\n        /* \"#utility.yul\":6896:6903   */\n      swap4\n        /* \"#utility.yul\":6466:6954   */\n      swap3\n      pop\n      pop\n      pop\n      jump\t// out\n        /* \"#utility.yul\":6959:7636   */\n    tag_74:\n        /* \"#utility.yul\":7062:7068   */\n      0x00\n        /* \"#utility.yul\":7070:7076   */\n      0x00\n        /* \"#utility.yul\":7078:7084   */\n      0x00\n        /* \"#utility.yul\":7086:7092   */\n      0x00\n        /* \"#utility.yul\":7094:7100   */\n      0x00\n        /* \"#utility.yul\":7147:7150   */\n      0xa0\n        /* \"#utility.yul\":7135:7144   */\n      dup7\n        /* \"#utility.yul\":7126:7133   */\n      dup9\n        /* \"#utility.yul\":7122:7145   */\n      sub\n        /* \"#utility.yul\":7118:7151   */\n      slt\n        /* \"#utility.yul\":7115:7168   */\n      iszero\n      tag_409\n      jumpi\n        /* \"#utility.yul\":7164:7165   */\n      0x00\n        /* \"#utility.yul\":7161:7162   */\n      0x00\n        /* \"#utility.yul\":7154:7166   */\n      revert\n        /* \"#utility.yul\":7115:7168   */\n    tag_409:\n        /* \"#utility.yul\":7187:7216   */\n      tag_410\n        /* \"#utility.yul\":7206:7215   */\n      dup7\n        /* \"#utility.yul\":7187:7216   */\n      tag_341\n      jump\t// in\n    tag_410:\n        /* \"#utility.yul\":7177:7216   */\n      swap5\n      pop\n        /* \"#utility.yul\":7235:7273   */\n      tag_411\n        /* \"#utility.yul\":7269:7271   */\n      0x20\n        /* \"#utility.yul\":7258:7267   */\n      dup8\n        /* \"#utility.yul\":7254:7272   */\n      add\n        /* \"#utility.yul\":7235:7273   */\n      tag_341\n      jump\t// in\n    tag_411:\n        /* \"#utility.yul\":7225:7273   */\n      swap4\n      pop\n        /* \"#utility.yul\":7323:7325   */\n      0x40\n        /* \"#utility.yul\":7312:7321   */\n      dup7\n        /* \"#utility.yul\":7308:7326   */\n      add\n        /* \"#utility.yul\":7295:7327   */\n      calldataload\n        /* \"#utility.yul\":7336:7367   */\n      tag_412\n        /* \"#utility.yul\":7361:7366   */\n      dup2\n        /* \"#utility.yul\":7336:7367   */\n      tag_339\n      jump\t// in\n    tag_412:\n        /* \"#utility.yul\":7386:7391   */\n      swap3\n      pop\n        /* \"#utility.yul\":7410:7446   */\n      tag_413\n        /* \"#utility.yul\":7442:7444   */\n      0x60\n        /* \"#utility.yul\":7427:7445   */\n      dup8\n      add\n        /* \"#utility.yul\":7410:7446   */\n      tag_344\n      jump\t// in\n    tag_413:\n        /* \"#utility.yul\":7400:7446   */\n      swap2\n      pop\n        /* \"#utility.yul\":7497:7500   */\n      0x80\n        /* \"#utility.yul\":7486:7495   */\n      dup7\n        /* \"#utility.yul\":7482:7501   */\n      add\n        /* \"#utility.yul\":7469:7502   */\n      calldataload\n      sub(shl(0x40, 0x01), 0x01)\n        /* \"#utility.yul\":7517:7523   */\n      dup2\n        /* \"#utility.yul\":7514:7544   */\n      gt\n        /* \"#utility.yul\":7511:7561   */\n      iszero\n      tag_414\n      jumpi\n        /* \"#utility.yul\":7557:7558   */\n      0x00\n        /* \"#utility.yul\":7554:7555   */\n      0x00\n        /* \"#utility.yul\":7547:7559   */\n      revert\n        /* \"#utility.yul\":7511:7561   */\n    tag_414:\n        /* \"#utility.yul\":7580:7630   */\n      tag_415\n        /* \"#utility.yul\":7622:7629   */\n      dup9\n        /* \"#utility.yul\":7613:7619   */\n      dup3\n        /* \"#utility.yul\":7602:7611   */\n      dup10\n        /* \"#utility.yul\":7598:7620   */\n      add\n        /* \"#utility.yul\":7580:7630   */\n      tag_348\n      jump\t// in\n    tag_415:\n        /* \"#utility.yul\":7570:7630   */\n      swap2\n      pop\n      pop\n        /* \"#utility.yul\":6959:7636   */\n      swap3\n      swap6\n      pop\n      swap3\n      swap6\n      swap1\n      swap4\n      pop\n      jump\t// out\n        /* \"#utility.yul\":7849:8682   */\n    tag_84:\n      sub(shl(0x80, 0x01), 0x01)\n        /* \"#utility.yul\":8162:8209   */\n      dup9\n      dup2\n      and\n        /* \"#utility.yul\":8144:8210   */\n      dup3\n      mstore\n      sub(shl(0xa0, 0x01), 0x01)\n        /* \"#utility.yul\":8246:8278   */\n      dup9\n      dup2\n      and\n        /* \"#utility.yul\":8241:8243   */\n      0x20\n        /* \"#utility.yul\":8226:8244   */\n      dup5\n      add\n        /* \"#utility.yul\":8219:8279   */\n      mstore\n        /* \"#utility.yul\":8315:8347   */\n      dup8\n      and\n        /* \"#utility.yul\":8310:8312   */\n      0x40\n        /* \"#utility.yul\":8295:8313   */\n      dup4\n      add\n        /* \"#utility.yul\":8288:8348   */\n      mstore\n        /* \"#utility.yul\":8384:8431   */\n      dup6\n      and\n        /* \"#utility.yul\":8379:8381   */\n      0x60\n        /* \"#utility.yul\":8364:8382   */\n      dup3\n      add\n        /* \"#utility.yul\":8357:8432   */\n      mstore\n        /* \"#utility.yul\":8481:8485   */\n      0xff\n        /* \"#utility.yul\":8469:8486   */\n      dup5\n      and\n        /* \"#utility.yul\":8463:8466   */\n      0x80\n        /* \"#utility.yul\":8448:8467   */\n      dup3\n      add\n        /* \"#utility.yul\":8441:8487   */\n      mstore\n        /* \"#utility.yul\":8524:8527   */\n      0xe0\n        /* \"#utility.yul\":8266:8269   */\n      0xa0\n        /* \"#utility.yul\":8503:8522   */\n      dup3\n      add\n        /* \"#utility.yul\":8496:8528   */\n      dup2\n      swap1\n      mstore\n      0x00\n      swap1\n        /* \"#utility.yul\":8545:8591   */\n      tag_389\n      swap1\n        /* \"#utility.yul\":8571:8590   */\n      dup4\n      add\n        /* \"#utility.yul\":8563:8569   */\n      dup6\n        /* \"#utility.yul\":8545:8591   */\n      tag_343\n      jump\t// in\n        /* \"#utility.yul\":8687:10308   */\n    tag_92:\n        /* \"#utility.yul\":8893:8897   */\n      0x00\n        /* \"#utility.yul\":8941:8943   */\n      0x20\n        /* \"#utility.yul\":8930:8939   */\n      dup3\n        /* \"#utility.yul\":8926:8944   */\n      add\n        /* \"#utility.yul\":8971:8973   */\n      0x20\n        /* \"#utility.yul\":8960:8969   */\n      dup4\n        /* \"#utility.yul\":8953:8974   */\n      mstore\n        /* \"#utility.yul\":8994:9000   */\n      dup1\n        /* \"#utility.yul\":9029:9035   */\n      dup5\n        /* \"#utility.yul\":9023:9036   */\n      mload\n        /* \"#utility.yul\":9060:9066   */\n      dup1\n        /* \"#utility.yul\":9052:9058   */\n      dup4\n        /* \"#utility.yul\":9045:9067   */\n      mstore\n        /* \"#utility.yul\":9098:9100   */\n      0x40\n        /* \"#utility.yul\":9087:9096   */\n      dup6\n        /* \"#utility.yul\":9083:9101   */\n      add\n        /* \"#utility.yul\":9076:9101   */\n      swap2\n      pop\n        /* \"#utility.yul\":9160:9162   */\n      0x40\n        /* \"#utility.yul\":9150:9156   */\n      dup2\n        /* \"#utility.yul\":9147:9148   */\n      0x05\n        /* \"#utility.yul\":9143:9157   */\n      shl\n        /* \"#utility.yul\":9132:9141   */\n      dup7\n        /* \"#utility.yul\":9128:9158   */\n      add\n        /* \"#utility.yul\":9124:9163   */\n      add\n        /* \"#utility.yul\":9110:9163   */\n      swap3\n      pop\n        /* \"#utility.yul\":9198:9200   */\n      0x20\n        /* \"#utility.yul\":9190:9196   */\n      dup7\n        /* \"#utility.yul\":9186:9201   */\n      add\n        /* \"#utility.yul\":9219:9220   */\n      0x00\n        /* \"#utility.yul\":9229:10279   */\n    tag_420:\n        /* \"#utility.yul\":9243:9249   */\n      dup3\n        /* \"#utility.yul\":9240:9241   */\n      dup2\n        /* \"#utility.yul\":9237:9250   */\n      lt\n        /* \"#utility.yul\":9229:10279   */\n      iszero\n      tag_379\n      jumpi\n        /* \"#utility.yul\":9308:9330   */\n      dup7\n      dup6\n      sub\n      not(0x3f)\n        /* \"#utility.yul\":9304:9340   */\n      add\n        /* \"#utility.yul\":9292:9341   */\n      dup5\n      mstore\n        /* \"#utility.yul\":9364:9377   */\n      dup2\n      mload\n        /* \"#utility.yul\":9409:9418   */\n      dup1\n      mload\n      sub(shl(0x80, 0x01), 0x01)\n        /* \"#utility.yul\":9405:9455   */\n      swap1\n      dup2\n      and\n        /* \"#utility.yul\":9390:9456   */\n      dup8\n      mstore\n        /* \"#utility.yul\":9511:9513   */\n      0x20\n        /* \"#utility.yul\":9503:9514   */\n      dup1\n      dup4\n      add\n        /* \"#utility.yul\":9497:9515   */\n      mload\n      sub(shl(0xa0, 0x01), 0x01)\n        /* \"#utility.yul\":9493:9537   */\n      and\n        /* \"#utility.yul\":9476:9491   */\n      swap1\n      dup9\n      add\n        /* \"#utility.yul\":9469:9538   */\n      mstore\n        /* \"#utility.yul\":9593:9595   */\n      0x40\n        /* \"#utility.yul\":9585:9596   */\n      dup1\n      dup4\n      add\n        /* \"#utility.yul\":9579:9597   */\n      mload\n        /* \"#utility.yul\":9575:9634   */\n      dup3\n      and\n        /* \"#utility.yul\":9558:9573   */\n      swap1\n      dup9\n      add\n        /* \"#utility.yul\":9551:9635   */\n      mstore\n        /* \"#utility.yul\":9682:9686   */\n      0x60\n        /* \"#utility.yul\":9674:9687   */\n      dup1\n      dup4\n      add\n        /* \"#utility.yul\":9668:9688   */\n      mload\n        /* \"#utility.yul\":603:649   */\n      swap2\n      dup3\n      and\n        /* \"#utility.yul\":9734:9751   */\n      swap1\n      dup9\n      add\n        /* \"#utility.yul\":591:650   */\n      mstore\n        /* \"#utility.yul\":9701:9752   */\n      pop\n        /* \"#utility.yul\":9801:9805   */\n      0x80\n        /* \"#utility.yul\":9797:9799   */\n      dup2\n        /* \"#utility.yul\":9793:9806   */\n      add\n        /* \"#utility.yul\":9787:9807   */\n      mload\n        /* \"#utility.yul\":9820:9871   */\n      tag_424\n        /* \"#utility.yul\":9865:9869   */\n      0x80\n        /* \"#utility.yul\":9857:9863   */\n      dup9\n        /* \"#utility.yul\":9853:9870   */\n      add\n        /* \"#utility.yul\":9837:9851   */\n      dup3\n        /* \"#utility.yul\":1860:1864   */\n      0xff\n        /* \"#utility.yul\":1849:1865   */\n      and\n        /* \"#utility.yul\":1837:1866   */\n      swap1\n      mstore\n        /* \"#utility.yul\":1793:1868   */\n      jump\n        /* \"#utility.yul\":9820:9871   */\n    tag_424:\n      pop\n        /* \"#utility.yul\":9920:9924   */\n      0xa0\n        /* \"#utility.yul\":9916:9918   */\n      dup2\n        /* \"#utility.yul\":9912:9925   */\n      add\n        /* \"#utility.yul\":9906:9926   */\n      mload\n        /* \"#utility.yul\":9965:9969   */\n      0xe0\n        /* \"#utility.yul\":9958:9962   */\n      0xa0\n        /* \"#utility.yul\":9950:9956   */\n      dup9\n        /* \"#utility.yul\":9946:9963   */\n      add\n        /* \"#utility.yul\":9939:9970   */\n      mstore\n        /* \"#utility.yul\":9997:10049   */\n      tag_425\n        /* \"#utility.yul\":10043:10047   */\n      0xe0\n        /* \"#utility.yul\":10035:10041   */\n      dup9\n        /* \"#utility.yul\":10031:10048   */\n      add\n        /* \"#utility.yul\":10015:10029   */\n      dup3\n        /* \"#utility.yul\":9997:10049   */\n      tag_343\n      jump\t// in\n    tag_425:\n        /* \"#utility.yul\":9983:10049   */\n      swap1\n      pop\n        /* \"#utility.yul\":10098:10102   */\n      0xc0\n        /* \"#utility.yul\":10094:10096   */\n      dup3\n        /* \"#utility.yul\":10090:10103   */\n      add\n        /* \"#utility.yul\":10084:10104   */\n      mload\n        /* \"#utility.yul\":10062:10104   */\n      swap2\n      pop\n        /* \"#utility.yul\":10117:10170   */\n      tag_426\n        /* \"#utility.yul\":10164:10168   */\n      0xc0\n        /* \"#utility.yul\":10156:10162   */\n      dup9\n        /* \"#utility.yul\":10152:10169   */\n      add\n        /* \"#utility.yul\":10136:10150   */\n      dup4\n      sub(shl(0x80, 0x01), 0x01)\n        /* \"#utility.yul\":603:649   */\n      and\n        /* \"#utility.yul\":591:650   */\n      swap1\n      mstore\n        /* \"#utility.yul\":537:656   */\n      jump\n        /* \"#utility.yul\":10117:10170   */\n    tag_426:\n        /* \"#utility.yul\":10193:10199   */\n      swap6\n      pop\n      pop\n        /* \"#utility.yul\":10234:10236   */\n      0x20\n        /* \"#utility.yul\":10257:10269   */\n      swap4\n      dup5\n      add\n      swap4\n        /* \"#utility.yul\":10222:10237   */\n      swap2\n      swap1\n      swap2\n      add\n      swap1\n        /* \"#utility.yul\":9265:9266   */\n      0x01\n        /* \"#utility.yul\":9258:9267   */\n      add\n        /* \"#utility.yul\":9229:10279   */\n      jump(tag_420)\n        /* \"#utility.yul\":10313:10915   */\n    tag_103:\n        /* \"#utility.yul\":10407:10413   */\n      0x00\n        /* \"#utility.yul\":10415:10421   */\n      0x00\n        /* \"#utility.yul\":10423:10429   */\n      0x00\n        /* \"#utility.yul\":10431:10437   */\n      0x00\n        /* \"#utility.yul\":10484:10487   */\n      0x80\n        /* \"#utility.yul\":10472:10481   */\n      dup6\n        /* \"#utility.yul\":10463:10470   */\n      dup8\n        /* \"#utility.yul\":10459:10482   */\n      sub\n        /* \"#utility.yul\":10455:10488   */\n      slt\n        /* \"#utility.yul\":10452:10505   */\n      iszero\n      tag_428\n      jumpi\n        /* \"#utility.yul\":10501:10502   */\n      0x00\n        /* \"#utility.yul\":10498:10499   */\n      0x00\n        /* \"#utility.yul\":10491:10503   */\n      revert\n        /* \"#utility.yul\":10452:10505   */\n    tag_428:\n        /* \"#utility.yul\":10524:10553   */\n      tag_429\n        /* \"#utility.yul\":10543:10552   */\n      dup6\n        /* \"#utility.yul\":10524:10553   */\n      tag_341\n      jump\t// in\n    tag_429:\n        /* \"#utility.yul\":10514:10553   */\n      swap4\n      pop\n        /* \"#utility.yul\":10603:10605   */\n      0x20\n        /* \"#utility.yul\":10592:10601   */\n      dup6\n        /* \"#utility.yul\":10588:10606   */\n      add\n        /* \"#utility.yul\":10575:10607   */\n      calldataload\n        /* \"#utility.yul\":10616:10647   */\n      tag_430\n        /* \"#utility.yul\":10641:10646   */\n      dup2\n        /* \"#utility.yul\":10616:10647   */\n      tag_339\n      jump\t// in\n    tag_430:\n        /* \"#utility.yul\":10666:10671   */\n      swap3\n      pop\n        /* \"#utility.yul\":10690:10726   */\n      tag_431\n        /* \"#utility.yul\":10722:10724   */\n      0x40\n        /* \"#utility.yul\":10707:10725   */\n      dup7\n      add\n        /* \"#utility.yul\":10690:10726   */\n      tag_344\n      jump\t// in\n    tag_431:\n        /* \"#utility.yul\":10680:10726   */\n      swap2\n      pop\n        /* \"#utility.yul\":10777:10779   */\n      0x60\n        /* \"#utility.yul\":10766:10775   */\n      dup6\n        /* \"#utility.yul\":10762:10780   */\n      add\n        /* \"#utility.yul\":10749:10781   */\n      calldataload\n      sub(shl(0x40, 0x01), 0x01)\n        /* \"#utility.yul\":10796:10802   */\n      dup2\n        /* \"#utility.yul\":10793:10823   */\n      gt\n        /* \"#utility.yul\":10790:10840   */\n      iszero\n      tag_432\n      jumpi\n        /* \"#utility.yul\":10836:10837   */\n      0x00\n        /* \"#utility.yul\":10833:10834   */\n      0x00\n        /* \"#utility.yul\":10826:10838   */\n      revert\n        /* \"#utility.yul\":10790:10840   */\n    tag_432:\n        /* \"#utility.yul\":10859:10909   */\n      tag_433\n        /* \"#utility.yul\":10901:10908   */\n      dup8\n        /* \"#utility.yul\":10892:10898   */\n      dup3\n        /* \"#utility.yul\":10881:10890   */\n      dup9\n        /* \"#utility.yul\":10877:10899   */\n      add\n        /* \"#utility.yul\":10859:10909   */\n      tag_348\n      jump\t// in\n    tag_433:\n        /* \"#utility.yul\":10849:10909   */\n      swap2\n      pop\n      pop\n        /* \"#utility.yul\":10313:10915   */\n      swap3\n      swap6\n      swap2\n      swap5\n      pop\n      swap3\n      pop\n      jump\t// out\n        /* \"#utility.yul\":10920:11664   */\n    tag_107:\n        /* \"#utility.yul\":11023:11029   */\n      0x00\n        /* \"#utility.yul\":11031:11037   */\n      0x00\n        /* \"#utility.yul\":11039:11045   */\n      0x00\n        /* \"#utility.yul\":11047:11053   */\n      0x00\n        /* \"#utility.yul\":11055:11061   */\n      0x00\n        /* \"#utility.yul\":11108:11111   */\n      0xa0\n        /* \"#utility.yul\":11096:11105   */\n      dup7\n        /* \"#utility.yul\":11087:11094   */\n      dup9\n        /* \"#utility.yul\":11083:11106   */\n      sub\n        /* \"#utility.yul\":11079:11112   */\n      slt\n        /* \"#utility.yul\":11076:11129   */\n      iszero\n      tag_435\n      jumpi\n        /* \"#utility.yul\":11125:11126   */\n      0x00\n        /* \"#utility.yul\":11122:11123   */\n      0x00\n        /* \"#utility.yul\":11115:11127   */\n      revert\n        /* \"#utility.yul\":11076:11129   */\n    tag_435:\n        /* \"#utility.yul\":11148:11177   */\n      tag_436\n        /* \"#utility.yul\":11167:11176   */\n      dup7\n        /* \"#utility.yul\":11148:11177   */\n      tag_341\n      jump\t// in\n    tag_436:\n        /* \"#utility.yul\":11138:11177   */\n      swap5\n      pop\n        /* \"#utility.yul\":11227:11229   */\n      0x20\n        /* \"#utility.yul\":11216:11225   */\n      dup7\n        /* \"#utility.yul\":11212:11230   */\n      add\n        /* \"#utility.yul\":11199:11231   */\n      calldataload\n        /* \"#utility.yul\":11240:11271   */\n      tag_411\n        /* \"#utility.yul\":11265:11270   */\n      dup2\n        /* \"#utility.yul\":11240:11271   */\n      tag_339\n      jump\t// in\n        /* \"#utility.yul\":11669:12078   */\n    tag_115:\n        /* \"#utility.yul\":11755:11761   */\n      0x00\n        /* \"#utility.yul\":11763:11769   */\n      0x00\n        /* \"#utility.yul\":11771:11777   */\n      0x00\n        /* \"#utility.yul\":11779:11785   */\n      0x00\n        /* \"#utility.yul\":11832:11835   */\n      0x80\n        /* \"#utility.yul\":11820:11829   */\n      dup6\n        /* \"#utility.yul\":11811:11818   */\n      dup8\n        /* \"#utility.yul\":11807:11830   */\n      sub\n        /* \"#utility.yul\":11803:11836   */\n      slt\n        /* \"#utility.yul\":11800:11853   */\n      iszero\n      tag_443\n      jumpi\n        /* \"#utility.yul\":11849:11850   */\n      0x00\n        /* \"#utility.yul\":11846:11847   */\n      0x00\n        /* \"#utility.yul\":11839:11851   */\n      revert\n        /* \"#utility.yul\":11800:11853   */\n    tag_443:\n        /* \"#utility.yul\":11872:11901   */\n      tag_444\n        /* \"#utility.yul\":11891:11900   */\n      dup6\n        /* \"#utility.yul\":11872:11901   */\n      tag_341\n      jump\t// in\n    tag_444:\n        /* \"#utility.yul\":11862:11901   */\n      swap4\n      pop\n        /* \"#utility.yul\":11920:11958   */\n      tag_445\n        /* \"#utility.yul\":11954:11956   */\n      0x20\n        /* \"#utility.yul\":11943:11952   */\n      dup7\n        /* \"#utility.yul\":11939:11957   */\n      add\n        /* \"#utility.yul\":11920:11958   */\n      tag_341\n      jump\t// in\n    tag_445:\n        /* \"#utility.yul\":11910:11958   */\n      swap3\n      pop\n        /* \"#utility.yul\":11977:12015   */\n      tag_446\n        /* \"#utility.yul\":12011:12013   */\n      0x40\n        /* \"#utility.yul\":12000:12009   */\n      dup7\n        /* \"#utility.yul\":11996:12014   */\n      add\n        /* \"#utility.yul\":11977:12015   */\n      tag_341\n      jump\t// in\n    tag_446:\n        /* \"#utility.yul\":11967:12015   */\n      swap2\n      pop\n        /* \"#utility.yul\":12034:12072   */\n      tag_447\n        /* \"#utility.yul\":12068:12070   */\n      0x60\n        /* \"#utility.yul\":12057:12066   */\n      dup7\n        /* \"#utility.yul\":12053:12071   */\n      add\n        /* \"#utility.yul\":12034:12072   */\n      tag_341\n      jump\t// in\n    tag_447:\n        /* \"#utility.yul\":12024:12072   */\n      swap1\n      pop\n        /* \"#utility.yul\":11669:12078   */\n      swap3\n      swap6\n      swap2\n      swap5\n      pop\n      swap3\n      pop\n      jump\t// out\n        /* \"#utility.yul\":12083:12210   */\n    tag_136:\n        /* \"#utility.yul\":12144:12154   */\n      0x4e487b71\n        /* \"#utility.yul\":12139:12142   */\n      0xe0\n        /* \"#utility.yul\":12135:12155   */\n      shl\n        /* \"#utility.yul\":12132:12133   */\n      0x00\n        /* \"#utility.yul\":12125:12156   */\n      mstore\n        /* \"#utility.yul\":12175:12179   */\n      0x32\n        /* \"#utility.yul\":12172:12173   */\n      0x04\n        /* \"#utility.yul\":12165:12180   */\n      mstore\n        /* \"#utility.yul\":12199:12203   */\n      0x24\n        /* \"#utility.yul\":12196:12197   */\n      0x00\n        /* \"#utility.yul\":12189:12204   */\n      revert\n        /* \"#utility.yul\":12215:12595   */\n    tag_138:\n        /* \"#utility.yul\":12294:12295   */\n      0x01\n        /* \"#utility.yul\":12290:12302   */\n      dup2\n      dup2\n      shr\n      swap1\n        /* \"#utility.yul\":12337:12349   */\n      dup3\n      and\n      dup1\n        /* \"#utility.yul\":12358:12419   */\n      tag_450\n      jumpi\n        /* \"#utility.yul\":12412:12416   */\n      0x7f\n        /* \"#utility.yul\":12404:12410   */\n      dup3\n        /* \"#utility.yul\":12400:12417   */\n      and\n        /* \"#utility.yul\":12390:12417   */\n      swap2\n      pop\n        /* \"#utility.yul\":12358:12419   */\n    tag_450:\n        /* \"#utility.yul\":12465:12467   */\n      0x20\n        /* \"#utility.yul\":12457:12463   */\n      dup3\n        /* \"#utility.yul\":12454:12468   */\n      lt\n        /* \"#utility.yul\":12434:12452   */\n      dup2\n        /* \"#utility.yul\":12431:12469   */\n      sub\n        /* \"#utility.yul\":12428:12589   */\n      tag_451\n      jumpi\n        /* \"#utility.yul\":12511:12521   */\n      0x4e487b71\n        /* \"#utility.yul\":12506:12509   */\n      0xe0\n        /* \"#utility.yul\":12502:12522   */\n      shl\n        /* \"#utility.yul\":12499:12500   */\n      0x00\n        /* \"#utility.yul\":12492:12523   */\n      mstore\n        /* \"#utility.yul\":12546:12550   */\n      0x22\n        /* \"#utility.yul\":12543:12544   */\n      0x04\n        /* \"#utility.yul\":12536:12551   */\n      mstore\n        /* \"#utility.yul\":12574:12578   */\n      0x24\n        /* \"#utility.yul\":12571:12572   */\n      0x00\n        /* \"#utility.yul\":12564:12579   */\n      revert\n        /* \"#utility.yul\":12428:12589   */\n    tag_451:\n      pop\n        /* \"#utility.yul\":12215:12595   */\n      swap2\n      swap1\n      pop\n      jump\t// out\n        /* \"#utility.yul\":12943:13081   */\n    tag_349:\n        /* \"#utility.yul\":13022:13035   */\n      dup1\n      mload\n        /* \"#utility.yul\":13044:13075   */\n      tag_367\n        /* \"#utility.yul\":13022:13035   */\n      dup2\n        /* \"#utility.yul\":13044:13075   */\n      tag_339\n      jump\t// in\n        /* \"#utility.yul\":13086:13571   */\n    tag_350:\n        /* \"#utility.yul\":13140:13145   */\n      0x00\n        /* \"#utility.yul\":13193:13196   */\n      dup3\n        /* \"#utility.yul\":13186:13190   */\n      0x1f\n        /* \"#utility.yul\":13178:13184   */\n      dup4\n        /* \"#utility.yul\":13174:13191   */\n      add\n        /* \"#utility.yul\":13170:13197   */\n      slt\n        /* \"#utility.yul\":13160:13215   */\n      tag_456\n      jumpi\n        /* \"#utility.yul\":13211:13212   */\n      0x00\n        /* \"#utility.yul\":13208:13209   */\n      0x00\n        /* \"#utility.yul\":13201:13213   */\n      revert\n        /* \"#utility.yul\":13160:13215   */\n    tag_456:\n        /* \"#utility.yul\":13244:13250   */\n      dup2\n        /* \"#utility.yul\":13238:13251   */\n      mload\n        /* \"#utility.yul\":13275:13328   */\n      tag_457\n        /* \"#utility.yul\":13291:13327   */\n      tag_406\n        /* \"#utility.yul\":13320:13326   */\n      dup3\n        /* \"#utility.yul\":13291:13327   */\n      tag_347\n      jump\t// in\n        /* \"#utility.yul\":13275:13328   */\n    tag_457:\n        /* \"#utility.yul\":13353:13359   */\n      dup2\n        /* \"#utility.yul\":13344:13351   */\n      dup2\n        /* \"#utility.yul\":13337:13360   */\n      mstore\n        /* \"#utility.yul\":13407:13410   */\n      dup5\n        /* \"#utility.yul\":13400:13404   */\n      0x20\n        /* \"#utility.yul\":13391:13397   */\n      dup4\n        /* \"#utility.yul\":13383:13389   */\n      dup7\n        /* \"#utility.yul\":13379:13398   */\n      add\n        /* \"#utility.yul\":13375:13405   */\n      add\n        /* \"#utility.yul\":13372:13411   */\n      gt\n        /* \"#utility.yul\":13369:13428   */\n      iszero\n      tag_459\n      jumpi\n        /* \"#utility.yul\":13424:13425   */\n      0x00\n        /* \"#utility.yul\":13421:13422   */\n      0x00\n        /* \"#utility.yul\":13414:13426   */\n      revert\n        /* \"#utility.yul\":13369:13428   */\n    tag_459:\n        /* \"#utility.yul\":13482:13488   */\n      dup2\n        /* \"#utility.yul\":13475:13479   */\n      0x20\n        /* \"#utility.yul\":13467:13473   */\n      dup6\n        /* \"#utility.yul\":13463:13480   */\n      add\n        /* \"#utility.yul\":13456:13460   */\n      0x20\n        /* \"#utility.yul\":13447:13454   */\n      dup4\n        /* \"#utility.yul\":13443:13461   */\n      add\n        /* \"#utility.yul\":13437:13489   */\n      mcopy\n        /* \"#utility.yul\":13538:13539   */\n      0x00\n        /* \"#utility.yul\":13509:13529   */\n      swap2\n      dup2\n      add\n        /* \"#utility.yul\":13531:13535   */\n      0x20\n        /* \"#utility.yul\":13505:13536   */\n      add\n        /* \"#utility.yul\":13498:13540   */\n      swap2\n      swap1\n      swap2\n      mstore\n        /* \"#utility.yul\":13513:13520   */\n      swap4\n        /* \"#utility.yul\":13086:13571   */\n      swap3\n      pop\n      pop\n      pop\n      jump\t// out\n        /* \"#utility.yul\":13576:13740   */\n    tag_351:\n        /* \"#utility.yul\":13652:13665   */\n      dup1\n      mload\n        /* \"#utility.yul\":13701:13714   */\n      dup1\n      iszero\n        /* \"#utility.yul\":13694:13715   */\n      iszero\n        /* \"#utility.yul\":13684:13716   */\n      dup2\n      eq\n        /* \"#utility.yul\":13674:13734   */\n      tag_367\n      jumpi\n        /* \"#utility.yul\":13730:13731   */\n      0x00\n        /* \"#utility.yul\":13727:13728   */\n      0x00\n        /* \"#utility.yul\":13720:13732   */\n      revert\n        /* \"#utility.yul\":13745:15475   */\n    tag_155:\n        /* \"#utility.yul\":13841:13847   */\n      0x00\n        /* \"#utility.yul\":13894:13896   */\n      0x20\n        /* \"#utility.yul\":13882:13891   */\n      dup3\n        /* \"#utility.yul\":13873:13880   */\n      dup5\n        /* \"#utility.yul\":13869:13892   */\n      sub\n        /* \"#utility.yul\":13865:13897   */\n      slt\n        /* \"#utility.yul\":13862:13914   */\n      iszero\n      tag_463\n      jumpi\n        /* \"#utility.yul\":13910:13911   */\n      0x00\n        /* \"#utility.yul\":13907:13908   */\n      0x00\n        /* \"#utility.yul\":13900:13912   */\n      revert\n        /* \"#utility.yul\":13862:13914   */\n    tag_463:\n        /* \"#utility.yul\":13943:13952   */\n      dup2\n        /* \"#utility.yul\":13937:13953   */\n      mload\n      sub(shl(0x40, 0x01), 0x01)\n        /* \"#utility.yul\":13968:13974   */\n      dup2\n        /* \"#utility.yul\":13965:13995   */\n      gt\n        /* \"#utility.yul\":13962:14012   */\n      iszero\n      tag_464\n      jumpi\n        /* \"#utility.yul\":14008:14009   */\n      0x00\n        /* \"#utility.yul\":14005:14006   */\n      0x00\n        /* \"#utility.yul\":13998:14010   */\n      revert\n        /* \"#utility.yul\":13962:14012   */\n    tag_464:\n        /* \"#utility.yul\":14031:14053   */\n      dup3\n      add\n        /* \"#utility.yul\":14087:14093   */\n      0x0160\n        /* \"#utility.yul\":14069:14085   */\n      dup2\n      dup6\n      sub\n        /* \"#utility.yul\":14065:14094   */\n      slt\n        /* \"#utility.yul\":14062:14111   */\n      iszero\n      tag_465\n      jumpi\n        /* \"#utility.yul\":14107:14108   */\n      0x00\n        /* \"#utility.yul\":14104:14105   */\n      0x00\n        /* \"#utility.yul\":14097:14109   */\n      revert\n        /* \"#utility.yul\":14062:14111   */\n    tag_465:\n        /* \"#utility.yul\":14133:14155   */\n      tag_466\n      tag_345\n      jump\t// in\n    tag_466:\n        /* \"#utility.yul\":14178:14211   */\n      tag_467\n        /* \"#utility.yul\":14208:14210   */\n      dup3\n        /* \"#utility.yul\":14178:14211   */\n      tag_349\n      jump\t// in\n    tag_467:\n        /* \"#utility.yul\":14171:14176   */\n      dup2\n        /* \"#utility.yul\":14164:14212   */\n      mstore\n        /* \"#utility.yul\":14244:14286   */\n      tag_468\n        /* \"#utility.yul\":14282:14284   */\n      0x20\n        /* \"#utility.yul\":14278:14280   */\n      dup4\n        /* \"#utility.yul\":14274:14285   */\n      add\n        /* \"#utility.yul\":14244:14286   */\n      tag_349\n      jump\t// in\n    tag_468:\n        /* \"#utility.yul\":14239:14241   */\n      0x20\n        /* \"#utility.yul\":14232:14237   */\n      dup3\n        /* \"#utility.yul\":14228:14242   */\n      add\n        /* \"#utility.yul\":14221:14287   */\n      mstore\n        /* \"#utility.yul\":14326:14328   */\n      0x40\n        /* \"#utility.yul\":14322:14324   */\n      dup3\n        /* \"#utility.yul\":14318:14329   */\n      add\n        /* \"#utility.yul\":14312:14330   */\n      mload\n      sub(shl(0x40, 0x01), 0x01)\n        /* \"#utility.yul\":14345:14353   */\n      dup2\n        /* \"#utility.yul\":14342:14374   */\n      gt\n        /* \"#utility.yul\":14339:14391   */\n      iszero\n      tag_469\n      jumpi\n        /* \"#utility.yul\":14387:14388   */\n      0x00\n        /* \"#utility.yul\":14384:14385   */\n      0x00\n        /* \"#utility.yul\":14377:14389   */\n      revert\n        /* \"#utility.yul\":14339:14391   */\n    tag_469:\n        /* \"#utility.yul\":14423:14479   */\n      tag_470\n        /* \"#utility.yul\":14471:14478   */\n      dup7\n        /* \"#utility.yul\":14460:14468   */\n      dup3\n        /* \"#utility.yul\":14456:14458   */\n      dup6\n        /* \"#utility.yul\":14452:14469   */\n      add\n        /* \"#utility.yul\":14423:14479   */\n      tag_350\n      jump\t// in\n    tag_470:\n        /* \"#utility.yul\":14418:14420   */\n      0x40\n        /* \"#utility.yul\":14411:14416   */\n      dup4\n        /* \"#utility.yul\":14407:14421   */\n      add\n        /* \"#utility.yul\":14400:14480   */\n      mstore\n      pop\n        /* \"#utility.yul\":14519:14521   */\n      0x60\n        /* \"#utility.yul\":14515:14517   */\n      dup3\n        /* \"#utility.yul\":14511:14522   */\n      add\n        /* \"#utility.yul\":14505:14523   */\n      mload\n      sub(shl(0x40, 0x01), 0x01)\n        /* \"#utility.yul\":14538:14546   */\n      dup2\n        /* \"#utility.yul\":14535:14567   */\n      gt\n        /* \"#utility.yul\":14532:14584   */\n      iszero\n      tag_471\n      jumpi\n        /* \"#utility.yul\":14580:14581   */\n      0x00\n        /* \"#utility.yul\":14577:14578   */\n      0x00\n        /* \"#utility.yul\":14570:14582   */\n      revert\n        /* \"#utility.yul\":14532:14584   */\n    tag_471:\n        /* \"#utility.yul\":14616:14672   */\n      tag_472\n        /* \"#utility.yul\":14664:14671   */\n      dup7\n        /* \"#utility.yul\":14653:14661   */\n      dup3\n        /* \"#utility.yul\":14649:14651   */\n      dup6\n        /* \"#utility.yul\":14645:14662   */\n      add\n        /* \"#utility.yul\":14616:14672   */\n      tag_350\n      jump\t// in\n    tag_472:\n        /* \"#utility.yul\":14611:14613   */\n      0x60\n        /* \"#utility.yul\":14604:14609   */\n      dup4\n        /* \"#utility.yul\":14600:14614   */\n      add\n        /* \"#utility.yul\":14593:14673   */\n      mstore\n      pop\n        /* \"#utility.yul\":14706:14749   */\n      tag_473\n        /* \"#utility.yul\":14744:14747   */\n      0x80\n        /* \"#utility.yul\":14740:14742   */\n      dup4\n        /* \"#utility.yul\":14736:14748   */\n      add\n        /* \"#utility.yul\":14706:14749   */\n      tag_349\n      jump\t// in\n    tag_473:\n        /* \"#utility.yul\":14700:14703   */\n      0x80\n        /* \"#utility.yul\":14693:14698   */\n      dup3\n        /* \"#utility.yul\":14689:14704   */\n      add\n        /* \"#utility.yul\":14682:14750   */\n      mstore\n        /* \"#utility.yul\":14783:14823   */\n      tag_474\n        /* \"#utility.yul\":14818:14821   */\n      0xa0\n        /* \"#utility.yul\":14814:14816   */\n      dup4\n        /* \"#utility.yul\":14810:14822   */\n      add\n        /* \"#utility.yul\":14783:14823   */\n      tag_351\n      jump\t// in\n    tag_474:\n        /* \"#utility.yul\":14777:14780   */\n      0xa0\n        /* \"#utility.yul\":14770:14775   */\n      dup3\n        /* \"#utility.yul\":14766:14781   */\n      add\n        /* \"#utility.yul\":14759:14824   */\n      mstore\n        /* \"#utility.yul\":14863:14866   */\n      0xc0\n        /* \"#utility.yul\":14859:14861   */\n      dup3\n        /* \"#utility.yul\":14855:14867   */\n      add\n        /* \"#utility.yul\":14849:14868   */\n      mload\n      sub(shl(0x40, 0x01), 0x01)\n        /* \"#utility.yul\":14883:14891   */\n      dup2\n        /* \"#utility.yul\":14880:14912   */\n      gt\n        /* \"#utility.yul\":14877:14929   */\n      iszero\n      tag_475\n      jumpi\n        /* \"#utility.yul\":14925:14926   */\n      0x00\n        /* \"#utility.yul\":14922:14923   */\n      0x00\n        /* \"#utility.yul\":14915:14927   */\n      revert\n        /* \"#utility.yul\":14877:14929   */\n    tag_475:\n        /* \"#utility.yul\":14962:15018   */\n      tag_476\n        /* \"#utility.yul\":15010:15017   */\n      dup7\n        /* \"#utility.yul\":14999:15007   */\n      dup3\n        /* \"#utility.yul\":14995:14997   */\n      dup6\n        /* \"#utility.yul\":14991:15008   */\n      add\n        /* \"#utility.yul\":14962:15018   */\n      tag_350\n      jump\t// in\n    tag_476:\n        /* \"#utility.yul\":14956:14959   */\n      0xc0\n        /* \"#utility.yul\":14949:14954   */\n      dup4\n        /* \"#utility.yul\":14945:14960   */\n      add\n        /* \"#utility.yul\":14938:15019   */\n      mstore\n      pop\n        /* \"#utility.yul\":15058:15061   */\n      0xe0\n        /* \"#utility.yul\":15054:15056   */\n      dup3\n        /* \"#utility.yul\":15050:15062   */\n      add\n        /* \"#utility.yul\":15044:15063   */\n      mload\n      sub(shl(0x40, 0x01), 0x01)\n        /* \"#utility.yul\":15078:15086   */\n      dup2\n        /* \"#utility.yul\":15075:15107   */\n      gt\n        /* \"#utility.yul\":15072:15124   */\n      iszero\n      tag_477\n      jumpi\n        /* \"#utility.yul\":15120:15121   */\n      0x00\n        /* \"#utility.yul\":15117:15118   */\n      0x00\n        /* \"#utility.yul\":15110:15122   */\n      revert\n        /* \"#utility.yul\":15072:15124   */\n    tag_477:\n        /* \"#utility.yul\":15157:15213   */\n      tag_478\n        /* \"#utility.yul\":15205:15212   */\n      dup7\n        /* \"#utility.yul\":15194:15202   */\n      dup3\n        /* \"#utility.yul\":15190:15192   */\n      dup6\n        /* \"#utility.yul\":15186:15203   */\n      add\n        /* \"#utility.yul\":15157:15213   */\n      tag_350\n      jump\t// in\n    tag_478:\n        /* \"#utility.yul\":15151:15154   */\n      0xe0\n        /* \"#utility.yul\":15144:15149   */\n      dup4\n        /* \"#utility.yul\":15140:15155   */\n      add\n        /* \"#utility.yul\":15133:15214   */\n      mstore\n      pop\n        /* \"#utility.yul\":15247:15290   */\n      tag_479\n        /* \"#utility.yul\":15285:15288   */\n      0x0100\n        /* \"#utility.yul\":15281:15283   */\n      dup4\n        /* \"#utility.yul\":15277:15289   */\n      add\n        /* \"#utility.yul\":15247:15290   */\n      tag_349\n      jump\t// in\n    tag_479:\n        /* \"#utility.yul\":15241:15244   */\n      0x0100\n        /* \"#utility.yul\":15234:15239   */\n      dup3\n        /* \"#utility.yul\":15230:15245   */\n      add\n        /* \"#utility.yul\":15223:15291   */\n      mstore\n        /* \"#utility.yul\":15324:15367   */\n      tag_480\n        /* \"#utility.yul\":15362:15365   */\n      0x0120\n        /* \"#utility.yul\":15358:15360   */\n      dup4\n        /* \"#utility.yul\":15354:15366   */\n      add\n        /* \"#utility.yul\":15324:15367   */\n      tag_349\n      jump\t// in\n    tag_480:\n        /* \"#utility.yul\":15318:15321   */\n      0x0120\n        /* \"#utility.yul\":15311:15316   */\n      dup3\n        /* \"#utility.yul\":15307:15322   */\n      add\n        /* \"#utility.yul\":15300:15368   */\n      mstore\n        /* \"#utility.yul\":15401:15444   */\n      tag_481\n        /* \"#utility.yul\":15439:15442   */\n      0x0140\n        /* \"#utility.yul\":15435:15437   */\n      dup4\n        /* \"#utility.yul\":15431:15443   */\n      add\n        /* \"#utility.yul\":15401:15444   */\n      tag_349\n      jump\t// in\n    tag_481:\n        /* \"#utility.yul\":15395:15398   */\n      0x0140\n        /* \"#utility.yul\":15384:15399   */\n      dup3\n      add\n        /* \"#utility.yul\":15377:15445   */\n      mstore\n        /* \"#utility.yul\":15388:15393   */\n      swap5\n        /* \"#utility.yul\":13745:15475   */\n      swap4\n      pop\n      pop\n      pop\n      pop\n      jump\t// out\n        /* \"#utility.yul\":15480:15607   */\n    tag_352:\n        /* \"#utility.yul\":15541:15551   */\n      0x4e487b71\n        /* \"#utility.yul\":15536:15539   */\n      0xe0\n        /* \"#utility.yul\":15532:15552   */\n      shl\n        /* \"#utility.yul\":15529:15530   */\n      0x00\n        /* \"#utility.yul\":15522:15553   */\n      mstore\n        /* \"#utility.yul\":15572:15576   */\n      0x12\n        /* \"#utility.yul\":15569:15570   */\n      0x04\n        /* \"#utility.yul\":15562:15577   */\n      mstore\n        /* \"#utility.yul\":15596:15600   */\n      0x24\n        /* \"#utility.yul\":15593:15594   */\n      0x00\n        /* \"#utility.yul\":15586:15601   */\n      revert\n        /* \"#utility.yul\":15612:15739   */\n    tag_353:\n        /* \"#utility.yul\":15673:15683   */\n      0x4e487b71\n        /* \"#utility.yul\":15668:15671   */\n      0xe0\n        /* \"#utility.yul\":15664:15684   */\n      shl\n        /* \"#utility.yul\":15661:15662   */\n      0x00\n        /* \"#utility.yul\":15654:15685   */\n      mstore\n        /* \"#utility.yul\":15704:15708   */\n      0x11\n        /* \"#utility.yul\":15701:15702   */\n      0x04\n        /* \"#utility.yul\":15694:15709   */\n      mstore\n        /* \"#utility.yul\":15728:15732   */\n      0x24\n        /* \"#utility.yul\":15725:15726   */\n      0x00\n        /* \"#utility.yul\":15718:15733   */\n      revert\n        /* \"#utility.yul\":15744:15971   */\n    tag_163:\n        /* \"#utility.yul\":15784:15785   */\n      0x00\n      sub(shl(0x80, 0x01), 0x01)\n        /* \"#utility.yul\":15815:15816   */\n      dup4\n        /* \"#utility.yul\":15811:15853   */\n      and\n        /* \"#utility.yul\":15872:15875   */\n      dup1\n        /* \"#utility.yul\":15862:15899   */\n      tag_486\n      jumpi\n        /* \"#utility.yul\":15879:15897   */\n      tag_486\n      tag_352\n      jump\t// in\n    tag_486:\n        /* \"#utility.yul\":15961:15964   */\n      dup1\n      sub(shl(0x80, 0x01), 0x01)\n        /* \"#utility.yul\":15921:15922   */\n      dup5\n        /* \"#utility.yul\":15917:15959   */\n      and\n        /* \"#utility.yul\":15913:15965   */\n      div\n        /* \"#utility.yul\":15908:15965   */\n      swap2\n      pop\n      pop\n        /* \"#utility.yul\":15744:15971   */\n      swap3\n      swap2\n      pop\n      pop\n      jump\t// out\n        /* \"#utility.yul\":15976:16178   */\n    tag_179:\n        /* \"#utility.yul\":16043:16049   */\n      0x00\n        /* \"#utility.yul\":16096:16098   */\n      0x20\n        /* \"#utility.yul\":16084:16093   */\n      dup3\n        /* \"#utility.yul\":16075:16082   */\n      dup5\n        /* \"#utility.yul\":16071:16094   */\n      sub\n        /* \"#utility.yul\":16067:16099   */\n      slt\n        /* \"#utility.yul\":16064:16116   */\n      iszero\n      tag_488\n      jumpi\n        /* \"#utility.yul\":16112:16113   */\n      0x00\n        /* \"#utility.yul\":16109:16110   */\n      0x00\n        /* \"#utility.yul\":16102:16114   */\n      revert\n        /* \"#utility.yul\":16064:16116   */\n    tag_488:\n        /* \"#utility.yul\":16135:16172   */\n      tag_373\n        /* \"#utility.yul\":16162:16171   */\n      dup3\n        /* \"#utility.yul\":16135:16172   */\n      tag_351\n      jump\t// in\n        /* \"#utility.yul\":16183:16420   */\n    tag_185:\n        /* \"#utility.yul\":16222:16225   */\n      0x00\n      sub(shl(0x80, 0x01), 0x01)\n        /* \"#utility.yul\":16259:16264   */\n      dup3\n        /* \"#utility.yul\":16255:16301   */\n      and\n      sub(shl(0x80, 0x01), 0x01)\n        /* \"#utility.yul\":16316:16323   */\n      dup2\n        /* \"#utility.yul\":16313:16360   */\n      sub\n        /* \"#utility.yul\":16310:16383   */\n      tag_492\n      jumpi\n        /* \"#utility.yul\":16363:16381   */\n      tag_492\n      tag_353\n      jump\t// in\n    tag_492:\n        /* \"#utility.yul\":16412:16413   */\n      0x01\n        /* \"#utility.yul\":16399:16414   */\n      add\n      swap3\n        /* \"#utility.yul\":16183:16420   */\n      swap2\n      pop\n      pop\n      jump\t// out\n        /* \"#utility.yul\":16551:17069   */\n    tag_355:\n        /* \"#utility.yul\":16653:16655   */\n      0x1f\n        /* \"#utility.yul\":16648:16651   */\n      dup3\n        /* \"#utility.yul\":16645:16656   */\n      gt\n        /* \"#utility.yul\":16642:17063   */\n      iszero\n      tag_495\n      jumpi\n        /* \"#utility.yul\":16689:16694   */\n      dup1\n        /* \"#utility.yul\":16686:16687   */\n      0x00\n        /* \"#utility.yul\":16679:16695   */\n      mstore\n        /* \"#utility.yul\":16733:16737   */\n      0x20\n        /* \"#utility.yul\":16730:16731   */\n      0x00\n        /* \"#utility.yul\":16720:16738   */\n      keccak256\n        /* \"#utility.yul\":16803:16805   */\n      0x1f\n        /* \"#utility.yul\":16791:16801   */\n      dup5\n        /* \"#utility.yul\":16787:16806   */\n      add\n        /* \"#utility.yul\":16784:16785   */\n      0x05\n        /* \"#utility.yul\":16780:16807   */\n      shr\n        /* \"#utility.yul\":16774:16778   */\n      dup2\n        /* \"#utility.yul\":16770:16808   */\n      add\n        /* \"#utility.yul\":16839:16843   */\n      0x20\n        /* \"#utility.yul\":16827:16837   */\n      dup6\n        /* \"#utility.yul\":16824:16844   */\n      lt\n        /* \"#utility.yul\":16821:16868   */\n      iszero\n      tag_496\n      jumpi\n      pop\n        /* \"#utility.yul\":16862:16866   */\n      dup1\n        /* \"#utility.yul\":16821:16868   */\n    tag_496:\n        /* \"#utility.yul\":16917:16919   */\n      0x1f\n        /* \"#utility.yul\":16912:16915   */\n      dup5\n        /* \"#utility.yul\":16908:16920   */\n      add\n        /* \"#utility.yul\":16905:16906   */\n      0x05\n        /* \"#utility.yul\":16901:16921   */\n      shr\n        /* \"#utility.yul\":16895:16899   */\n      dup3\n        /* \"#utility.yul\":16891:16922   */\n      add\n        /* \"#utility.yul\":16881:16922   */\n      swap2\n      pop\n        /* \"#utility.yul\":16972:17053   */\n    tag_497:\n        /* \"#utility.yul\":16990:16992   */\n      dup2\n        /* \"#utility.yul\":16983:16988   */\n      dup2\n        /* \"#utility.yul\":16980:16993   */\n      lt\n        /* \"#utility.yul\":16972:17053   */\n      iszero\n      tag_499\n      jumpi\n        /* \"#utility.yul\":17049:17050   */\n      0x00\n        /* \"#utility.yul\":17035:17051   */\n      dup2\n      sstore\n        /* \"#utility.yul\":17016:17017   */\n      0x01\n        /* \"#utility.yul\":17005:17018   */\n      add\n        /* \"#utility.yul\":16972:17053   */\n      jump(tag_497)\n    tag_499:\n        /* \"#utility.yul\":16976:16979   */\n      pop\n      pop\n        /* \"#utility.yul\":16642:17063   */\n    tag_495:\n        /* \"#utility.yul\":16551:17069   */\n      pop\n      pop\n      pop\n      jump\t// out\n        /* \"#utility.yul\":17245:18544   */\n    tag_187:\n        /* \"#utility.yul\":17371:17374   */\n      dup2\n        /* \"#utility.yul\":17365:17375   */\n      mload\n      sub(shl(0x40, 0x01), 0x01)\n        /* \"#utility.yul\":17390:17396   */\n      dup2\n        /* \"#utility.yul\":17387:17417   */\n      gt\n        /* \"#utility.yul\":17384:17440   */\n      iszero\n      tag_503\n      jumpi\n        /* \"#utility.yul\":17420:17438   */\n      tag_503\n      tag_126\n      jump\t// in\n    tag_503:\n        /* \"#utility.yul\":17449:17546   */\n      tag_504\n        /* \"#utility.yul\":17539:17545   */\n      dup2\n        /* \"#utility.yul\":17499:17537   */\n      tag_505\n        /* \"#utility.yul\":17531:17535   */\n      dup5\n        /* \"#utility.yul\":17525:17536   */\n      sload\n        /* \"#utility.yul\":17499:17537   */\n      tag_138\n      jump\t// in\n    tag_505:\n        /* \"#utility.yul\":17493:17497   */\n      dup5\n        /* \"#utility.yul\":17449:17546   */\n      tag_355\n      jump\t// in\n    tag_504:\n        /* \"#utility.yul\":17595:17599   */\n      0x20\n        /* \"#utility.yul\":17626:17628   */\n      0x1f\n        /* \"#utility.yul\":17615:17629   */\n      dup3\n      gt\n        /* \"#utility.yul\":17643:17644   */\n      0x01\n        /* \"#utility.yul\":17638:18287   */\n      dup2\n      eq\n      tag_507\n      jumpi\n        /* \"#utility.yul\":18331:18332   */\n      0x00\n        /* \"#utility.yul\":18348:18354   */\n      dup4\n        /* \"#utility.yul\":18345:18434   */\n      iszero\n      tag_508\n      jumpi\n      pop\n        /* \"#utility.yul\":18400:18419   */\n      dup5\n      dup3\n      add\n        /* \"#utility.yul\":18394:18420   */\n      mload\n        /* \"#utility.yul\":18345:18434   */\n    tag_508:\n      not(0x00)\n        /* \"#utility.yul\":17202:17203   */\n      0x03\n        /* \"#utility.yul\":17198:17209   */\n      dup6\n      swap1\n      shl\n        /* \"#utility.yul\":17194:17218   */\n      shr\n        /* \"#utility.yul\":17190:17219   */\n      not\n        /* \"#utility.yul\":17180:17220   */\n      and\n        /* \"#utility.yul\":17226:17227   */\n      0x01\n        /* \"#utility.yul\":17222:17233   */\n      dup5\n      swap1\n      shl\n        /* \"#utility.yul\":17177:17234   */\n      or\n        /* \"#utility.yul\":18447:18528   */\n      dup5\n      sstore\n        /* \"#utility.yul\":17608:18538   */\n      jump(tag_499)\n        /* \"#utility.yul\":17638:18287   */\n    tag_507:\n        /* \"#utility.yul\":16498:16499   */\n      0x00\n        /* \"#utility.yul\":16491:16505   */\n      dup5\n      dup2\n      mstore\n        /* \"#utility.yul\":16535:16539   */\n      0x20\n        /* \"#utility.yul\":16522:16540   */\n      dup2\n      keccak256\n      not(0x1f)\n        /* \"#utility.yul\":17674:17694   */\n      dup6\n      and\n      swap2\n        /* \"#utility.yul\":17792:18014   */\n    tag_511:\n        /* \"#utility.yul\":17806:17813   */\n      dup3\n        /* \"#utility.yul\":17803:17804   */\n      dup2\n        /* \"#utility.yul\":17800:17814   */\n      lt\n        /* \"#utility.yul\":17792:18014   */\n      iszero\n      tag_513\n      jumpi\n        /* \"#utility.yul\":17888:17907   */\n      dup8\n      dup6\n      add\n        /* \"#utility.yul\":17882:17908   */\n      mload\n        /* \"#utility.yul\":17867:17909   */\n      dup3\n      sstore\n        /* \"#utility.yul\":17995:17999   */\n      0x20\n        /* \"#utility.yul\":17980:18000   */\n      swap5\n      dup6\n      add\n      swap5\n        /* \"#utility.yul\":17948:17949   */\n      0x01\n        /* \"#utility.yul\":17936:17950   */\n      swap1\n      swap3\n      add\n      swap2\n        /* \"#utility.yul\":17822:17834   */\n      add\n        /* \"#utility.yul\":17792:18014   */\n      jump(tag_511)\n    tag_513:\n        /* \"#utility.yul\":17796:17799   */\n      pop\n        /* \"#utility.yul\":18042:18048   */\n      dup5\n        /* \"#utility.yul\":18033:18040   */\n      dup3\n        /* \"#utility.yul\":18030:18049   */\n      lt\n        /* \"#utility.yul\":18027:18228   */\n      iszero\n      tag_514\n      jumpi\n        /* \"#utility.yul\":18103:18122   */\n      dup7\n      dup5\n      add\n        /* \"#utility.yul\":18097:18123   */\n      mload\n      not(0x00)\n        /* \"#utility.yul\":18186:18187   */\n      0x03\n        /* \"#utility.yul\":18182:18196   */\n      dup8\n      swap1\n      shl\n        /* \"#utility.yul\":18198:18201   */\n      0xf8\n        /* \"#utility.yul\":18178:18202   */\n      and\n        /* \"#utility.yul\":18174:18211   */\n      shr\n        /* \"#utility.yul\":18170:18212   */\n      not\n        /* \"#utility.yul\":18155:18213   */\n      and\n        /* \"#utility.yul\":18140:18214   */\n      dup2\n      sstore\n        /* \"#utility.yul\":18027:18228   */\n    tag_514:\n      pop\n      pop\n      pop\n      pop\n        /* \"#utility.yul\":18274:18275   */\n      0x01\n        /* \"#utility.yul\":18258:18272   */\n      swap1\n      dup2\n      shl\n        /* \"#utility.yul\":18254:18276   */\n      add\n        /* \"#utility.yul\":18241:18277   */\n      swap1\n      sstore\n      pop\n        /* \"#utility.yul\":17245:18544   */\n      jump\t// out\n        /* \"#utility.yul\":18850:18975   */\n    tag_236:\n        /* \"#utility.yul\":18915:18924   */\n      dup1\n      dup3\n      add\n        /* \"#utility.yul\":18936:18946   */\n      dup1\n      dup3\n      gt\n        /* \"#utility.yul\":18933:18969   */\n      iszero\n      tag_317\n      jumpi\n        /* \"#utility.yul\":18949:18967   */\n      tag_317\n      tag_353\n      jump\t// in\n        /* \"#utility.yul\":18980:19100   */\n    tag_238:\n        /* \"#utility.yul\":19020:19021   */\n      0x00\n        /* \"#utility.yul\":19046:19047   */\n      dup3\n        /* \"#utility.yul\":19036:19071   */\n      tag_521\n      jumpi\n        /* \"#utility.yul\":19051:19069   */\n      tag_521\n      tag_352\n      jump\t// in\n    tag_521:\n      pop\n        /* \"#utility.yul\":19085:19094   */\n      div\n      swap1\n        /* \"#utility.yul\":18980:19100   */\n      jump\t// out\n        /* \"#utility.yul\":19294:19534   */\n    tag_281:\n      sub(shl(0x80, 0x01), 0x01)\n        /* \"#utility.yul\":19363:19405   */\n      dup2\n      dup2\n      and\n        /* \"#utility.yul\":19407:19449   */\n      dup4\n      dup3\n      and\n        /* \"#utility.yul\":19359:19450   */\n      add\n      swap1\n        /* \"#utility.yul\":19462:19505   */\n      dup2\n      gt\n        /* \"#utility.yul\":19459:19528   */\n      iszero\n      tag_317\n      jumpi\n        /* \"#utility.yul\":19508:19526   */\n      tag_317\n      tag_353\n      jump\t// in\n\n    auxdata: 0xa2646970667358221220aac731ad3fa43ef04f2de420bf58e61ad87935aaef7a9a8cca595799c0e15d3664736f6c634300081e0033\n}\n",
				"bytecode": {
					"linkReferences": {},
					"object": "6080604052348015600e575f5ffd5b506124fa8061001c5f395ff3fe608060405234801561000f575f5ffd5b5060043610610132575f3560e01c80637cb9385e116100b4578063921a023811610079578063921a0238146102fb57806398e8d8021461030e578063df808ac514610321578063e6853d8a14610334578063f2fde38b14610347578063f8c8765e1461035a575f5ffd5b80637cb9385e1461025f578063832dbdd91461027257806387f82bd3146102855780638da5cb5b146102ab5780638e5332c8146102db575f5ffd5b80635059e95b116100fa5780635059e95b146101d657806364dd1ee8146101e95780636df370981461020f578063715018a6146102425780637276d2d41461024c575f5ffd5b80631f7f08e7146101365780632134b6f61461016657806336c3848714610191578063396e77e7146101a45780633f6c7347146101b6575b5f5ffd5b610149610144366004611b28565b61036d565b6040516001600160801b0390911681526020015b60405180910390f35b600954610179906001600160a01b031681565b6040516001600160a01b03909116815260200161015d565b61014961019f366004611b6d565b6103b4565b5f54610149906001600160801b031681565b6101c96101c4366004611b87565b6103cd565b60405161015d9190611bd5565b600754610179906001600160a01b031681565b6101fc6101f7366004611cc8565b610653565b60405161015d9796959493929190611ce3565b61022261021d366004611cc8565b610742565b604080516001600160801b0393841681529290911660208301520161015d565b61024a610811565b005b61014961025a366004611b28565b610824565b61024a61026d366004611e40565b61083d565b600854610179906001600160a01b031681565b610298610293366004611cc8565b610b6c565b60405161015d9796959493929190611ebc565b7f9016d09d72d40fdae2fd8ceac6b6234c7706214fd39c1cd1e609a0528c199300546001600160a01b0316610179565b6102ee6102e9366004611cc8565b610bc7565b60405161015d9190611f07565b610298610309366004611cc8565b610e43565b61022261031c366004611b87565b610ea1565b61024a61032f366004611fde565b610fca565b61022261034236600461204a565b611289565b61024a610355366004611b87565b6117f0565b61024a610368366004612077565b611832565b6004602052815f5260405f208181548110610386575f80fd5b905f5260205f209060029182820401919006601002915091509054906101000a90046001600160801b031681565b6005602052815f5260405f208181548110610386575f80fd5b6001600160a01b0381165f90815260056020908152604080832080548251818502810185019093528083526060949383018282801561045a57602002820191905f5260205f20905f905b82829054906101000a90046001600160801b03166001600160801b031681526020019060100190602082600f010492830192600103820291508084116104175790505b505050505090505f81516001600160401b0381111561047b5761047b611d5b565b6040519080825280602002602001820160405280156104df57816020015b6040805160e0810182525f808252602080830182905292820181905260608083018290526080830182905260a083015260c082015282525f199092019101816104995790505b5090505f5b825181101561064b5760025f848381518110610502576105026120c8565b6020908102919091018101516001600160801b0390811683528282019390935260409182015f20825160e08101845281548516815260018201546001600160a01b039081169382019390935260028201549092169282019290925260038201549283166060820152600160801b90920460ff16608083015260048101805460a08401919061058f906120dc565b80601f01602080910402602001604051908101604052809291908181526020018280546105bb906120dc565b80156106065780601f106105dd57610100808354040283529160200191610606565b820191905f5260205f20905b8154815290600101906020018083116105e957829003601f168201915b5050509183525050600591909101546001600160801b03166020909101528251839083908110610638576106386120c8565b60209081029190910101526001016104e4565b509392505050565b600360208190525f9182526040909120805460018201546002830154938301546004840180546001600160801b03948516966001600160a01b039094169584861695600160801b9095049094169360ff9093169291906106b2906120dc565b80601f01602080910402602001604051908101604052809291908181526020018280546106de906120dc565b80156107295780601f1061070057610100808354040283529160200191610729565b820191905f5260205f20905b81548152906001019060200180831161070c57829003601f168201915b505050600590930154919250506001600160801b031687565b60075460405163018a512d60e31b81525f600482018190526001600160801b03841660248301529182916001600160a01b0390911690630c528968906044015f60405180830381865afa9250505080156107bd57506040513d5f823e601f3d908101601f191682016040526107ba919081019061217b565b60015b6107cb57505f928392509050565b8061012001516001600160801b03165f036107eb57505f93849350915050565b8061012001518161010001516108019190612309565b9250806101200151915050915091565b6108196119c8565b6108225f611a23565b565b6006602052815f5260405f208181548110610386575f80fd5b6008546001600160a01b03163314610868576040516319c6854760e11b815260040160405180910390fd5b60095460405163b2a6cb6360e01b81526001600160801b03851660048201526001600160a01b039091169063b2a6cb6390602401602060405180830381865afa1580156108b7573d5f5f3e3d5ffd5b505050506040513d601f19601f820116820180604052508101906108db9190612336565b6108f8576040516347b124fd60e01b815260040160405180910390fd5b6001600160a01b03841661091f57604051639e4f29a360e01b815260040160405180910390fd5b60018260ff161080610934575060058260ff16115b156109525760405163ca20ea4b60e01b815260040160405180910390fd5b5f80546001600160801b031681806109698361234f565b82546001600160801b039182166101009390930a9283029282021916919091179091556040805160e0810182528383168082526001600160a01b03808c1660208085019182528c83168587019081528c88166060870190815260ff808e166080890190815260a089018e8152428c1660c08b01525f9889526002958690529990972088518154908c166001600160801b031990911617815594516001860180549188166001600160a01b031992831617905592519385018054949096169390921692909217909355516003820180549451909316600160801b026001600160881b03199094169616959095179190911790559051929350916004820190610a7090826123c5565b5060c09190910151600591820180546001600160801b0319166001600160801b039283161790556001600160a01b038781165f8181526020948552604080822080546001818101835591845287842060028083049091018054928416601090810261010090810a808c02199095168d8c16958602179092558e8a1680885260048c5286882080548088018255908952978c902093880490930180549790951602900a97880219909416968102969096179055805191825260ff8916958201959095529093918a1692917f80266a32ce84d3a84ee0a516416c3687d2079c2bd74a5ac716f3827aa5ae6aa7910160405180910390a4505050505050565b600260208190525f9182526040909120805460018201549282015460038301546004840180546001600160801b03948516966001600160a01b0390811696941694831693600160801b90930460ff169291906106b2906120dc565b6001600160801b0381165f908152600660209081526040808320805482518185028101850190935280835260609493830182828015610c5457602002820191905f5260205f20905f905b82829054906101000a90046001600160801b03166001600160801b031681526020019060100190602082600f01049283019260010382029150808411610c115790505b505050505090505f81516001600160401b03811115610c7557610c75611d5b565b604051908082528060200260200182016040528015610cd957816020015b6040805160e0810182525f808252602080830182905292820181905260608083018290526080830182905260a083015260c082015282525f19909201910181610c935790505b5090505f5b825181101561064b5760035f848381518110610cfc57610cfc6120c8565b6020908102919091018101516001600160801b0390811683528282019390935260409182015f20825160e08101845281548516815260018201546001600160a01b031692810192909252600281015480851693830193909352600160801b9092049092166060830152600381015460ff16608083015260048101805460a084019190610d87906120dc565b80601f0160208091040260200160405190810160405280929190818152602001828054610db3906120dc565b8015610dfe5780601f10610dd557610100808354040283529160200191610dfe565b820191905f5260205f20905b815481529060010190602001808311610de157829003601f168201915b5050509183525050600591909101546001600160801b03166020909101528251839083908110610e3057610e306120c8565b6020908102919091010152600101610cde565b600160208190525f9182526040909120805491810154600282015460038301546004840180546001600160801b03968716966001600160a01b0395861696959094169493831693600160801b90930460ff169291906106b2906120dc565b6001600160a01b0381165f908152600560209081526040808320805482518185028101850190935280835284938493929190830182828015610f3157602002820191905f5260205f20905f905b82829054906101000a90046001600160801b03166001600160801b031681526020019060100190602082600f01049283019260010382029150808411610eee5790505b5050505050905080515f03610f4b57505f93849350915050565b5f805b8251811015610fb05760025f848381518110610f6c57610f6c6120c8565b6020908102919091018101516001600160801b031682528101919091526040015f2060030154610fa690600160801b900460ff168361247f565b9150600101610f4e565b508151610fbd9082612492565b9350815192505050915091565b6008546001600160a01b03163314610ff5576040516319c6854760e11b815260040160405180910390fd5b60095460405163b2a6cb6360e01b81526001600160801b03851660048201526001600160a01b039091169063b2a6cb6390602401602060405180830381865afa158015611044573d5f5f3e3d5ffd5b505050506040513d601f19601f820116820180604052508101906110689190612336565b611085576040516347b124fd60e01b815260040160405180910390fd5b60018260ff16108061109a575060058260ff16115b156110b85760405163ca20ea4b60e01b815260040160405180910390fd5b5f80546001600160801b031681806110cf8361234f565b82546001600160801b039182166101009390930a9283029282021916919091179091556040805160e0810182528383168082526001600160a01b03808b1660208085019182525f8587018181528d89166060880190815260ff808f1660808a0190815260a08a018f8152428d1660c08c01529885526001958690529990932088518154908c166001600160801b0319909116178155945193850180549487166001600160a01b0319958616179055905160028501805491909616931692909217909355516003820180549651909316600160801b026001600160881b03199096169616959095179390931790925590519293509160048201906111d290826123c5565b5060c09190910151600590910180546001600160801b0319166001600160801b039283161790558481165f8181526004602090815260408083208054600181810183559185529383902060028504018054949091166010026101000a8087021990941695871693840295909517909455925160ff8716815291926001600160a01b038916927f3d07dd1482bc8670ed7c2cf1f89b16d2da31a3996e171620a09cf3fd4c8e4446910160405180910390a45050505050565b6008545f9081906001600160a01b031633146112b8576040516319c6854760e11b815260040160405180910390fd5b60095460405163b2a6cb6360e01b81526001600160801b03881660048201526001600160a01b039091169063b2a6cb6390602401602060405180830381865afa158015611307573d5f5f3e3d5ffd5b505050506040513d601f19601f8201168201806040525081019061132b9190612336565b611348576040516347b124fd60e01b815260040160405180910390fd5b60018460ff16108061135d575060058460ff16115b1561137b5760405163ca20ea4b60e01b815260040160405180910390fd5b60408051610160810182525f8082526020820181905260608284018190528083018190526080830182905260a0830182905260c0830181905260e083015261010082018190526101208201819052610140820152600754915163018a512d60e31b81526001600160801b0389811660048301528816602482015290916001600160a01b031690630c528968906044015f60405180830381865afa92505050801561144657506040513d5f823e601f3d908101601f19168201604052611443919081019061217b565b60015b611463576040516334b5342360e11b815260040160405180910390fd5b905080516001600160801b03165f0361148f576040516334b5342360e11b815260040160405180910390fd5b5f80546001600160801b031681806114a68361234f565b91906101000a8154816001600160801b0302191690836001600160801b0316021790555090506040518060e00160405280826001600160801b031681526020018a6001600160a01b03168152602001886001600160801b03168152602001896001600160801b031681526020018760ff168152602001868152602001426001600160801b031681525060035f836001600160801b03166001600160801b031681526020019081526020015f205f820151815f015f6101000a8154816001600160801b0302191690836001600160801b031602179055506020820151816001015f6101000a8154816001600160a01b0302191690836001600160a01b031602179055506040820151816002015f6101000a8154816001600160801b0302191690836001600160801b0316021790555060608201518160020160106101000a8154816001600160801b0302191690836001600160801b031602179055506080820151816003015f6101000a81548160ff021916908360ff16021790555060a082015181600401908161163691906123c5565b5060c0820151816005015f6101000a8154816001600160801b0302191690836001600160801b0316021790555090505060065f886001600160801b03166001600160801b031681526020019081526020015f2081908060018154018082558091505060019003905f5260205f2090600291828204019190066010029091909190916101000a8154816001600160801b0302191690836001600160801b0316021790555060045f896001600160801b03166001600160801b031681526020019081526020015f2081908060018154018082558091505060019003905f5260205f2090600291828204019190066010029091909190916101000a8154816001600160801b0302191690836001600160801b03160217905550866001600160801b0316896001600160a01b0316826001600160801b03167f0805c77f965e08373c35e9b3142f39fbfd23501af52856f2af0c40f446a236ed8b8a6040516117b29291906001600160801b0392909216825260ff16602082015260400190565b60405180910390a48560ff168261010001516117ce91906124a5565b935081610120015160016117e291906124a5565b925050509550959350505050565b6117f86119c8565b6001600160a01b03811661182657604051631e4fbdf760e01b81525f60048201526024015b60405180910390fd5b61182f81611a23565b50565b5f61183b611a93565b805490915060ff600160401b82041615906001600160401b03165f811580156118615750825b90505f826001600160401b0316600114801561187c5750303b155b90508115801561188a575080155b156118a85760405163f92ee8a960e01b815260040160405180910390fd5b845467ffffffffffffffff1916600117855583156118d257845460ff60401b1916600160401b1785555b6001600160a01b03891615806118ef57506001600160a01b038816155b8061190157506001600160a01b038716155b1561191f57604051639e4f29a360e01b815260040160405180910390fd5b61192886611abd565b600880546001600160a01b03808c166001600160a01b031992831617909255600980548b841690831617905560078054928a16929091169190911790555f80546001600160801b031916600117905583156119bd57845460ff60401b19168555604051600181527fc7f505b2f371ae2175ee4913f4499e1f2633a7b5936321eed1cdaeb6115181d29060200160405180910390a15b505050505050505050565b336119fa7f9016d09d72d40fdae2fd8ceac6b6234c7706214fd39c1cd1e609a0528c199300546001600160a01b031690565b6001600160a01b0316146108225760405163118cdaa760e01b815233600482015260240161181d565b7f9016d09d72d40fdae2fd8ceac6b6234c7706214fd39c1cd1e609a0528c19930080546001600160a01b031981166001600160a01b03848116918217845560405192169182907f8be0079c531659141344cd1fd0a4f28419497f9722a3daafe3b4186f6b6457e0905f90a3505050565b5f807ff0c57e16840df040f15088dc2f81fe391c3923bec73e23a9662efc9c229c6a005b92915050565b611ac5611ace565b61182f81611af3565b611ad6611afb565b61082257604051631afcd79f60e31b815260040160405180910390fd5b6117f8611ace565b5f611b04611a93565b54600160401b900460ff16919050565b6001600160801b038116811461182f575f5ffd5b5f5f60408385031215611b39575f5ffd5b8235611b4481611b14565b946020939093013593505050565b80356001600160a01b0381168114611b68575f5ffd5b919050565b5f5f60408385031215611b7e575f5ffd5b611b4483611b52565b5f60208284031215611b97575f5ffd5b611ba082611b52565b9392505050565b5f81518084528060208401602086015e5f602082860101526020601f19601f83011685010191505092915050565b5f602082016020835280845180835260408501915060408160051b8601019250602086015f5b82811015611cbc57603f1987860301845281516001600160801b03815116865260018060a01b03602082015116602087015260018060a01b0360408201511660408701526060810151611c5960608801826001600160801b03169052565b506080810151611c6e608088018260ff169052565b5060a081015160e060a0880152611c8860e0880182611ba7565b905060c08201519150611ca660c08801836001600160801b03169052565b9550506020938401939190910190600101611bfb565b50929695505050505050565b5f60208284031215611cd8575f5ffd5b8135611ba081611b14565b6001600160801b0388811682526001600160a01b038816602083015286811660408301528516606082015260ff8416608082015260e060a082018190525f90611d2e90830185611ba7565b90506001600160801b03831660c083015298975050505050505050565b803560ff81168114611b68575f5ffd5b634e487b7160e01b5f52604160045260245ffd5b60405161016081016001600160401b0381118282101715611d9257611d92611d5b565b60405290565b604051601f8201601f191681016001600160401b0381118282101715611dc057611dc0611d5b565b604052919050565b5f6001600160401b03821115611de057611de0611d5b565b50601f01601f191660200190565b5f82601f830112611dfd575f5ffd5b8135611e10611e0b82611dc8565b611d98565b818152846020838601011115611e24575f5ffd5b816020850160208301375f918101602001919091529392505050565b5f5f5f5f5f60a08688031215611e54575f5ffd5b611e5d86611b52565b9450611e6b60208701611b52565b93506040860135611e7b81611b14565b9250611e8960608701611d4b565b915060808601356001600160401b03811115611ea3575f5ffd5b611eaf88828901611dee565b9150509295509295909350565b6001600160801b0388811682526001600160a01b038881166020840152871660408301528516606082015260ff8416608082015260e060a082018190525f90611d2e90830185611ba7565b5f602082016020835280845180835260408501915060408160051b8601019250602086015f5b82811015611cbc57868503603f19018452815180516001600160801b0390811687526020808301516001600160a01b03169088015260408083015182169088015260608083015191821690880152506080810151611f90608088018260ff169052565b5060a081015160e060a0880152611faa60e0880182611ba7565b905060c08201519150611fc860c08801836001600160801b03169052565b9550506020938401939190910190600101611f2d565b5f5f5f5f60808587031215611ff1575f5ffd5b611ffa85611b52565b9350602085013561200a81611b14565b925061201860408601611d4b565b915060608501356001600160401b03811115612032575f5ffd5b61203e87828801611dee565b91505092959194509250565b5f5f5f5f5f60a0868803121561205e575f5ffd5b61206786611b52565b94506020860135611e6b81611b14565b5f5f5f5f6080858703121561208a575f5ffd5b61209385611b52565b93506120a160208601611b52565b92506120af60408601611b52565b91506120bd60608601611b52565b905092959194509250565b634e487b7160e01b5f52603260045260245ffd5b600181811c908216806120f057607f821691505b60208210810361210e57634e487b7160e01b5f52602260045260245ffd5b50919050565b8051611b6881611b14565b5f82601f83011261212e575f5ffd5b815161213c611e0b82611dc8565b818152846020838601011115612150575f5ffd5b8160208501602083015e5f918101602001919091529392505050565b80518015158114611b68575f5ffd5b5f6020828403121561218b575f5ffd5b81516001600160401b038111156121a0575f5ffd5b820161016081850312156121b2575f5ffd5b6121ba611d6f565b6121c382612114565b81526121d160208301612114565b602082015260408201516001600160401b038111156121ee575f5ffd5b6121fa8682850161211f565b60408301525060608201516001600160401b03811115612218575f5ffd5b6122248682850161211f565b60608301525061223660808301612114565b608082015261224760a0830161216c565b60a082015260c08201516001600160401b03811115612264575f5ffd5b6122708682850161211f565b60c08301525060e08201516001600160401b0381111561228e575f5ffd5b61229a8682850161211f565b60e0830152506122ad6101008301612114565b6101008201526122c06101208301612114565b6101208201526122d36101408301612114565b610140820152949350505050565b634e487b7160e01b5f52601260045260245ffd5b634e487b7160e01b5f52601160045260245ffd5b5f6001600160801b03831680612321576123216122e1565b806001600160801b0384160491505092915050565b5f60208284031215612346575f5ffd5b611ba08261216c565b5f6001600160801b0382166001600160801b038103612370576123706122f5565b60010192915050565b601f8211156123c057805f5260205f20601f840160051c8101602085101561239e5750805b601f840160051c820191505b818110156123bd575f81556001016123aa565b50505b505050565b81516001600160401b038111156123de576123de611d5b565b6123f2816123ec84546120dc565b84612379565b6020601f821160018114612424575f831561240d5750848201515b5f19600385901b1c1916600184901b1784556123bd565b5f84815260208120601f198516915b828110156124535787850151825560209485019460019092019101612433565b508482101561247057868401515f19600387901b60f8161c191681555b50505050600190811b01905550565b80820180821115611ab757611ab76122f5565b5f826124a0576124a06122e1565b500490565b6001600160801b038181168382160190811115611ab757611ab76122f556fea2646970667358221220aac731ad3fa43ef04f2de420bf58e61ad87935aaef7a9a8cca595799c0e15d3664736f6c634300081e0033",
					"opcodes": "PUSH1 0x80 PUSH1 0x40 MSTORE CALLVALUE DUP1 ISZERO PUSH1 0xE JUMPI PUSH0 PUSH0 REVERT JUMPDEST POP PUSH2 0x24FA DUP1 PUSH2 0x1C PUSH0 CODECOPY PUSH0 RETURN INVALID PUSH1 0x80 PUSH1 0x40 MSTORE CALLVALUE DUP1 ISZERO PUSH2 0xF JUMPI PUSH0 PUSH0 REVERT JUMPDEST POP PUSH1 0x4 CALLDATASIZE LT PUSH2 0x132 JUMPI PUSH0 CALLDATALOAD PUSH1 0xE0 SHR DUP1 PUSH4 0x7CB9385E GT PUSH2 0xB4 JUMPI DUP1 PUSH4 0x921A0238 GT PUSH2 0x79 JUMPI DUP1 PUSH4 0x921A0238 EQ PUSH2 0x2FB JUMPI DUP1 PUSH4 0x98E8D802 EQ PUSH2 0x30E JUMPI DUP1 PUSH4 0xDF808AC5 EQ PUSH2 0x321 JUMPI DUP1 PUSH4 0xE6853D8A EQ PUSH2 0x334 JUMPI DUP1 PUSH4 0xF2FDE38B EQ PUSH2 0x347 JUMPI DUP1 PUSH4 0xF8C8765E EQ PUSH2 0x35A JUMPI PUSH0 PUSH0 REVERT JUMPDEST DUP1 PUSH4 0x7CB9385E EQ PUSH2 0x25F JUMPI DUP1 PUSH4 0x832DBDD9 EQ PUSH2 0x272 JUMPI DUP1 PUSH4 0x87F82BD3 EQ PUSH2 0x285 JUMPI DUP1 PUSH4 0x8DA5CB5B EQ PUSH2 0x2AB JUMPI DUP1 PUSH4 0x8E5332C8 EQ PUSH2 0x2DB JUMPI PUSH0 PUSH0 REVERT JUMPDEST DUP1 PUSH4 0x5059E95B GT PUSH2 0xFA JUMPI DUP1 PUSH4 0x5059E95B EQ PUSH2 0x1D6 JUMPI DUP1 PUSH4 0x64DD1EE8 EQ PUSH2 0x1E9 JUMPI DUP1 PUSH4 0x6DF37098 EQ PUSH2 0x20F JUMPI DUP1 PUSH4 0x715018A6 EQ PUSH2 0x242 JUMPI DUP1 PUSH4 0x7276D2D4 EQ PUSH2 0x24C JUMPI PUSH0 PUSH0 REVERT JUMPDEST DUP1 PUSH4 0x1F7F08E7 EQ PUSH2 0x136 JUMPI DUP1 PUSH4 0x2134B6F6 EQ PUSH2 0x166 JUMPI DUP1 PUSH4 0x36C38487 EQ PUSH2 0x191 JUMPI DUP1 PUSH4 0x396E77E7 EQ PUSH2 0x1A4 JUMPI DUP1 PUSH4 0x3F6C7347 EQ PUSH2 0x1B6 JUMPI JUMPDEST PUSH0 PUSH0 REVERT JUMPDEST PUSH2 0x149 PUSH2 0x144 CALLDATASIZE PUSH1 0x4 PUSH2 0x1B28 JUMP JUMPDEST PUSH2 0x36D JUMP JUMPDEST PUSH1 0x40 MLOAD PUSH1 0x1 PUSH1 0x1 PUSH1 0x80 SHL SUB SWAP1 SWAP2 AND DUP2 MSTORE PUSH1 0x20 ADD JUMPDEST PUSH1 0x40 MLOAD DUP1 SWAP2 SUB SWAP1 RETURN JUMPDEST PUSH1 0x9 SLOAD PUSH2 0x179 SWAP1 PUSH1 0x1 PUSH1 0x1 PUSH1 0xA0 SHL SUB AND DUP2 JUMP JUMPDEST PUSH1 0x40 MLOAD PUSH1 0x1 PUSH1 0x1 PUSH1 0xA0 SHL SUB SWAP1 SWAP2 AND DUP2 MSTORE PUSH1 0x20 ADD PUSH2 0x15D JUMP JUMPDEST PUSH2 0x149 PUSH2 0x19F CALLDATASIZE PUSH1 0x4 PUSH2 0x1B6D JUMP JUMPDEST PUSH2 0x3B4 JUMP JUMPDEST PUSH0 SLOAD PUSH2 0x149 SWAP1 PUSH1 0x1 PUSH1 0x1 PUSH1 0x80 SHL SUB AND DUP2 JUMP JUMPDEST PUSH2 0x1C9 PUSH2 0x1C4 CALLDATASIZE PUSH1 0x4 PUSH2 0x1B87 JUMP JUMPDEST PUSH2 0x3CD JUMP JUMPDEST PUSH1 0x40 MLOAD PUSH2 0x15D SWAP2 SWAP1 PUSH2 0x1BD5 JUMP JUMPDEST PUSH1 0x7 SLOAD PUSH2 0x179 SWAP1 PUSH1 0x1 PUSH1 0x1 PUSH1 0xA0 SHL SUB AND DUP2 JUMP JUMPDEST PUSH2 0x1FC PUSH2 0x1F7 CALLDATASIZE PUSH1 0x4 PUSH2 0x1CC8 JUMP JUMPDEST PUSH2 0x653 JUMP JUMPDEST PUSH1 0x40 MLOAD PUSH2 0x15D SWAP8 SWAP7 SWAP6 SWAP5 SWAP4 SWAP3 SWAP2 SWAP1 PUSH2 0x1CE3 JUMP JUMPDEST PUSH2 0x222 PUSH2 0x21D CALLDATASIZE PUSH1 0x4 PUSH2 0x1CC8 JUMP JUMPDEST PUSH2 0x742 JUMP JUMPDEST PUSH1 0x40 DUP1 MLOAD PUSH1 0x1 PUSH1 0x1 PUSH1 0x80 SHL SUB SWAP4 DUP5 AND DUP2 MSTORE SWAP3 SWAP1 SWAP2 AND PUSH1 0x20 DUP4 ADD MSTORE ADD PUSH2 0x15D JUMP JUMPDEST PUSH2 0x24A PUSH2 0x811 JUMP JUMPDEST STOP JUMPDEST PUSH2 0x149 PUSH2 0x25A CALLDATASIZE PUSH1 0x4 PUSH2 0x1B28 JUMP JUMPDEST PUSH2 0x824 JUMP JUMPDEST PUSH2 0x24A PUSH2 0x26D CALLDATASIZE PUSH1 0x4 PUSH2 0x1E40 JUMP JUMPDEST PUSH2 0x83D JUMP JUMPDEST PUSH1 0x8 SLOAD PUSH2 0x179 SWAP1 PUSH1 0x1 PUSH1 0x1 PUSH1 0xA0 SHL SUB AND DUP2 JUMP JUMPDEST PUSH2 0x298 PUSH2 0x293 CALLDATASIZE PUSH1 0x4 PUSH2 0x1CC8 JUMP JUMPDEST PUSH2 0xB6C JUMP JUMPDEST PUSH1 0x40 MLOAD PUSH2 0x15D SWAP8 SWAP7 SWAP6 SWAP5 SWAP4 SWAP3 SWAP2 SWAP1 PUSH2 0x1EBC JUMP JUMPDEST PUSH32 0x9016D09D72D40FDAE2FD8CEAC6B6234C7706214FD39C1CD1E609A0528C199300 SLOAD PUSH1 0x1 PUSH1 0x1 PUSH1 0xA0 SHL SUB AND PUSH2 0x179 JUMP JUMPDEST PUSH2 0x2EE PUSH2 0x2E9 CALLDATASIZE PUSH1 0x4 PUSH2 0x1CC8 JUMP JUMPDEST PUSH2 0xBC7 JUMP JUMPDEST PUSH1 0x40 MLOAD PUSH2 0x15D SWAP2 SWAP1 PUSH2 0x1F07 JUMP JUMPDEST PUSH2 0x298 PUSH2 0x309 CALLDATASIZE PUSH1 0x4 PUSH2 0x1CC8 JUMP JUMPDEST PUSH2 0xE43 JUMP JUMPDEST PUSH2 0x222 PUSH2 0x31C CALLDATASIZE PUSH1 0x4 PUSH2 0x1B87 JUMP JUMPDEST PUSH2 0xEA1 JUMP JUMPDEST PUSH2 0x24A PUSH2 0x32F CALLDATASIZE PUSH1 0x4 PUSH2 0x1FDE JUMP JUMPDEST PUSH2 0xFCA JUMP JUMPDEST PUSH2 0x222 PUSH2 0x342 CALLDATASIZE PUSH1 0x4 PUSH2 0x204A JUMP JUMPDEST PUSH2 0x1289 JUMP JUMPDEST PUSH2 0x24A PUSH2 0x355 CALLDATASIZE PUSH1 0x4 PUSH2 0x1B87 JUMP JUMPDEST PUSH2 0x17F0 JUMP JUMPDEST PUSH2 0x24A PUSH2 0x368 CALLDATASIZE PUSH1 0x4 PUSH2 0x2077 JUMP JUMPDEST PUSH2 0x1832 JUMP JUMPDEST PUSH1 0x4 PUSH1 0x20 MSTORE DUP2 PUSH0 MSTORE PUSH1 0x40 PUSH0 KECCAK256 DUP2 DUP2 SLOAD DUP2 LT PUSH2 0x386 JUMPI PUSH0 DUP1 REVERT JUMPDEST SWAP1 PUSH0 MSTORE PUSH1 0x20 PUSH0 KECCAK256 SWAP1 PUSH1 0x2 SWAP2 DUP3 DUP3 DIV ADD SWAP2 SWAP1 MOD PUSH1 0x10 MUL SWAP2 POP SWAP2 POP SWAP1 SLOAD SWAP1 PUSH2 0x100 EXP SWAP1 DIV PUSH1 0x1 PUSH1 0x1 PUSH1 0x80 SHL SUB AND DUP2 JUMP JUMPDEST PUSH1 0x5 PUSH1 0x20 MSTORE DUP2 PUSH0 MSTORE PUSH1 0x40 PUSH0 KECCAK256 DUP2 DUP2 SLOAD DUP2 LT PUSH2 0x386 JUMPI PUSH0 DUP1 REVERT JUMPDEST PUSH1 0x1 PUSH1 0x1 PUSH1 0xA0 SHL SUB DUP2 AND PUSH0 SWAP1 DUP2 MSTORE PUSH1 0x5 PUSH1 0x20 SWAP1 DUP2 MSTORE PUSH1 0x40 DUP1 DUP4 KECCAK256 DUP1 SLOAD DUP3 MLOAD DUP2 DUP6 MUL DUP2 ADD DUP6 ADD SWAP1 SWAP4 MSTORE DUP1 DUP4 MSTORE PUSH1 0x60 SWAP5 SWAP4 DUP4 ADD DUP3 DUP3 DUP1 ISZERO PUSH2 0x45A JUMPI PUSH1 0x20 MUL DUP3 ADD SWAP2 SWAP1 PUSH0 MSTORE PUSH1 0x20 PUSH0 KECCAK256 SWAP1 PUSH0 SWAP1 JUMPDEST DUP3 DUP3 SWAP1 SLOAD SWAP1 PUSH2 0x100 EXP SWAP1 DIV PUSH1 0x1 PUSH1 0x1 PUSH1 0x80 SHL SUB AND PUSH1 0x1 PUSH1 0x1 PUSH1 0x80 SHL SUB AND DUP2 MSTORE PUSH1 0x20 ADD SWAP1 PUSH1 0x10 ADD SWAP1 PUSH1 0x20 DUP3 PUSH1 0xF ADD DIV SWAP3 DUP4 ADD SWAP3 PUSH1 0x1 SUB DUP3 MUL SWAP2 POP DUP1 DUP5 GT PUSH2 0x417 JUMPI SWAP1 POP JUMPDEST POP POP POP POP POP SWAP1 POP PUSH0 DUP2 MLOAD PUSH1 0x1 PUSH1 0x1 PUSH1 0x40 SHL SUB DUP2 GT ISZERO PUSH2 0x47B JUMPI PUSH2 0x47B PUSH2 0x1D5B JUMP JUMPDEST PUSH1 0x40 MLOAD SWAP1 DUP1 DUP3 MSTORE DUP1 PUSH1 0x20 MUL PUSH1 0x20 ADD DUP3 ADD PUSH1 0x40 MSTORE DUP1 ISZERO PUSH2 0x4DF JUMPI DUP2 PUSH1 0x20 ADD JUMPDEST PUSH1 0x40 DUP1 MLOAD PUSH1 0xE0 DUP2 ADD DUP3 MSTORE PUSH0 DUP1 DUP3 MSTORE PUSH1 0x20 DUP1 DUP4 ADD DUP3 SWAP1 MSTORE SWAP3 DUP3 ADD DUP2 SWAP1 MSTORE PUSH1 0x60 DUP1 DUP4 ADD DUP3 SWAP1 MSTORE PUSH1 0x80 DUP4 ADD DUP3 SWAP1 MSTORE PUSH1 0xA0 DUP4 ADD MSTORE PUSH1 0xC0 DUP3 ADD MSTORE DUP3 MSTORE PUSH0 NOT SWAP1 SWAP3 ADD SWAP2 ADD DUP2 PUSH2 0x499 JUMPI SWAP1 POP JUMPDEST POP SWAP1 POP PUSH0 JUMPDEST DUP3 MLOAD DUP2 LT ISZERO PUSH2 0x64B JUMPI PUSH1 0x2 PUSH0 DUP5 DUP4 DUP2 MLOAD DUP2 LT PUSH2 0x502 JUMPI PUSH2 0x502 PUSH2 0x20C8 JUMP JUMPDEST PUSH1 0x20 SWAP1 DUP2 MUL SWAP2 SWAP1 SWAP2 ADD DUP2 ADD MLOAD PUSH1 0x1 PUSH1 0x1 PUSH1 0x80 SHL SUB SWAP1 DUP2 AND DUP4 MSTORE DUP3 DUP3 ADD SWAP4 SWAP1 SWAP4 MSTORE PUSH1 0x40 SWAP2 DUP3 ADD PUSH0 KECCAK256 DUP3 MLOAD PUSH1 0xE0 DUP2 ADD DUP5 MSTORE DUP2 SLOAD DUP6 AND DUP2 MSTORE PUSH1 0x1 DUP3 ADD SLOAD PUSH1 0x1 PUSH1 0x1 PUSH1 0xA0 SHL SUB SWAP1 DUP2 AND SWAP4 DUP3 ADD SWAP4 SWAP1 SWAP4 MSTORE PUSH1 0x2 DUP3 ADD SLOAD SWAP1 SWAP3 AND SWAP3 DUP3 ADD SWAP3 SWAP1 SWAP3 MSTORE PUSH1 0x3 DUP3 ADD SLOAD SWAP3 DUP4 AND PUSH1 0x60 DUP3 ADD MSTORE PUSH1 0x1 PUSH1 0x80 SHL SWAP1 SWAP3 DIV PUSH1 0xFF AND PUSH1 0x80 DUP4 ADD MSTORE PUSH1 0x4 DUP2 ADD DUP1 SLOAD PUSH1 0xA0 DUP5 ADD SWAP2 SWAP1 PUSH2 0x58F SWAP1 PUSH2 0x20DC JUMP JUMPDEST DUP1 PUSH1 0x1F ADD PUSH1 0x20 DUP1 SWAP2 DIV MUL PUSH1 0x20 ADD PUSH1 0x40 MLOAD SWAP1 DUP2 ADD PUSH1 0x40 MSTORE DUP1 SWAP3 SWAP2 SWAP1 DUP2 DUP2 MSTORE PUSH1 0x20 ADD DUP3 DUP1 SLOAD PUSH2 0x5BB SWAP1 PUSH2 0x20DC JUMP JUMPDEST DUP1 ISZERO PUSH2 0x606 JUMPI DUP1 PUSH1 0x1F LT PUSH2 0x5DD JUMPI PUSH2 0x100 DUP1 DUP4 SLOAD DIV MUL DUP4 MSTORE SWAP2 PUSH1 0x20 ADD SWAP2 PUSH2 0x606 JUMP JUMPDEST DUP3 ADD SWAP2 SWAP1 PUSH0 MSTORE PUSH1 0x20 PUSH0 KECCAK256 SWAP1 JUMPDEST DUP2 SLOAD DUP2 MSTORE SWAP1 PUSH1 0x1 ADD SWAP1 PUSH1 0x20 ADD DUP1 DUP4 GT PUSH2 0x5E9 JUMPI DUP3 SWAP1 SUB PUSH1 0x1F AND DUP3 ADD SWAP2 JUMPDEST POP POP POP SWAP2 DUP4 MSTORE POP POP PUSH1 0x5 SWAP2 SWAP1 SWAP2 ADD SLOAD PUSH1 0x1 PUSH1 0x1 PUSH1 0x80 SHL SUB AND PUSH1 0x20 SWAP1 SWAP2 ADD MSTORE DUP3 MLOAD DUP4 SWAP1 DUP4 SWAP1 DUP2 LT PUSH2 0x638 JUMPI PUSH2 0x638 PUSH2 0x20C8 JUMP JUMPDEST PUSH1 0x20 SWAP1 DUP2 MUL SWAP2 SWAP1 SWAP2 ADD ADD MSTORE PUSH1 0x1 ADD PUSH2 0x4E4 JUMP JUMPDEST POP SWAP4 SWAP3 POP POP POP JUMP JUMPDEST PUSH1 0x3 PUSH1 0x20 DUP2 SWAP1 MSTORE PUSH0 SWAP2 DUP3 MSTORE PUSH1 0x40 SWAP1 SWAP2 KECCAK256 DUP1 SLOAD PUSH1 0x1 DUP3 ADD SLOAD PUSH1 0x2 DUP4 ADD SLOAD SWAP4 DUP4 ADD SLOAD PUSH1 0x4 DUP5 ADD DUP1 SLOAD PUSH1 0x1 PUSH1 0x1 PUSH1 0x80 SHL SUB SWAP5 DUP6 AND SWAP7 PUSH1 0x1 PUSH1 0x1 PUSH1 0xA0 SHL SUB SWAP1 SWAP5 AND SWAP6 DUP5 DUP7 AND SWAP6 PUSH1 0x1 PUSH1 0x80 SHL SWAP1 SWAP6 DIV SWAP1 SWAP5 AND SWAP4 PUSH1 0xFF SWAP1 SWAP4 AND SWAP3 SWAP2 SWAP1 PUSH2 0x6B2 SWAP1 PUSH2 0x20DC JUMP JUMPDEST DUP1 PUSH1 0x1F ADD PUSH1 0x20 DUP1 SWAP2 DIV MUL PUSH1 0x20 ADD PUSH1 0x40 MLOAD SWAP1 DUP2 ADD PUSH1 0x40 MSTORE DUP1 SWAP3 SWAP2 SWAP1 DUP2 DUP2 MSTORE PUSH1 0x20 ADD DUP3 DUP1 SLOAD PUSH2 0x6DE SWAP1 PUSH2 0x20DC JUMP JUMPDEST DUP1 ISZERO PUSH2 0x729 JUMPI DUP1 PUSH1 0x1F LT PUSH2 0x700 JUMPI PUSH2 0x100 DUP1 DUP4 SLOAD DIV MUL DUP4 MSTORE SWAP2 PUSH1 0x20 ADD SWAP2 PUSH2 0x729 JUMP JUMPDEST DUP3 ADD SWAP2 SWAP1 PUSH0 MSTORE PUSH1 0x20 PUSH0 KECCAK256 SWAP1 JUMPDEST DUP2 SLOAD DUP2 MSTORE SWAP1 PUSH1 0x1 ADD SWAP1 PUSH1 0x20 ADD DUP1 DUP4 GT PUSH2 0x70C JUMPI DUP3 SWAP1 SUB PUSH1 0x1F AND DUP3 ADD SWAP2 JUMPDEST POP POP POP PUSH1 0x5 SWAP1 SWAP4 ADD SLOAD SWAP2 SWAP3 POP POP PUSH1 0x1 PUSH1 0x1 PUSH1 0x80 SHL SUB AND DUP8 JUMP JUMPDEST PUSH1 0x7 SLOAD PUSH1 0x40 MLOAD PUSH4 0x18A512D PUSH1 0xE3 SHL DUP2 MSTORE PUSH0 PUSH1 0x4 DUP3 ADD DUP2 SWAP1 MSTORE PUSH1 0x1 PUSH1 0x1 PUSH1 0x80 SHL SUB DUP5 AND PUSH1 0x24 DUP4 ADD MSTORE SWAP2 DUP3 SWAP2 PUSH1 0x1 PUSH1 0x1 PUSH1 0xA0 SHL SUB SWAP1 SWAP2 AND SWAP1 PUSH4 0xC528968 SWAP1 PUSH1 0x44 ADD PUSH0 PUSH1 0x40 MLOAD DUP1 DUP4 SUB DUP2 DUP7 GAS STATICCALL SWAP3 POP POP POP DUP1 ISZERO PUSH2 0x7BD JUMPI POP PUSH1 0x40 MLOAD RETURNDATASIZE PUSH0 DUP3 RETURNDATACOPY PUSH1 0x1F RETURNDATASIZE SWAP1 DUP2 ADD PUSH1 0x1F NOT AND DUP3 ADD PUSH1 0x40 MSTORE PUSH2 0x7BA SWAP2 SWAP1 DUP2 ADD SWAP1 PUSH2 0x217B JUMP JUMPDEST PUSH1 0x1 JUMPDEST PUSH2 0x7CB JUMPI POP PUSH0 SWAP3 DUP4 SWAP3 POP SWAP1 POP JUMP JUMPDEST DUP1 PUSH2 0x120 ADD MLOAD PUSH1 0x1 PUSH1 0x1 PUSH1 0x80 SHL SUB AND PUSH0 SUB PUSH2 0x7EB JUMPI POP PUSH0 SWAP4 DUP5 SWAP4 POP SWAP2 POP POP JUMP JUMPDEST DUP1 PUSH2 0x120 ADD MLOAD DUP2 PUSH2 0x100 ADD MLOAD PUSH2 0x801 SWAP2 SWAP1 PUSH2 0x2309 JUMP JUMPDEST SWAP3 POP DUP1 PUSH2 0x120 ADD MLOAD SWAP2 POP POP SWAP2 POP SWAP2 JUMP JUMPDEST PUSH2 0x819 PUSH2 0x19C8 JUMP JUMPDEST PUSH2 0x822 PUSH0 PUSH2 0x1A23 JUMP JUMPDEST JUMP JUMPDEST PUSH1 0x6 PUSH1 0x20 MSTORE DUP2 PUSH0 MSTORE PUSH1 0x40 PUSH0 KECCAK256 DUP2 DUP2 SLOAD DUP2 LT PUSH2 0x386 JUMPI PUSH0 DUP1 REVERT JUMPDEST PUSH1 0x8 SLOAD PUSH1 0x1 PUSH1 0x1 PUSH1 0xA0 SHL SUB AND CALLER EQ PUSH2 0x868 JUMPI PUSH1 0x40 MLOAD PUSH4 0x19C68547 PUSH1 0xE1 SHL DUP2 MSTORE PUSH1 0x4 ADD PUSH1 0x40 MLOAD DUP1 SWAP2 SUB SWAP1 REVERT JUMPDEST PUSH1 0x9 SLOAD PUSH1 0x40 MLOAD PUSH4 0xB2A6CB63 PUSH1 0xE0 SHL DUP2 MSTORE PUSH1 0x1 PUSH1 0x1 PUSH1 0x80 SHL SUB DUP6 AND PUSH1 0x4 DUP3 ADD MSTORE PUSH1 0x1 PUSH1 0x1 PUSH1 0xA0 SHL SUB SWAP1 SWAP2 AND SWAP1 PUSH4 0xB2A6CB63 SWAP1 PUSH1 0x24 ADD PUSH1 0x20 PUSH1 0x40 MLOAD DUP1 DUP4 SUB DUP2 DUP7 GAS STATICCALL ISZERO DUP1 ISZERO PUSH2 0x8B7 JUMPI RETURNDATASIZE PUSH0 PUSH0 RETURNDATACOPY RETURNDATASIZE PUSH0 REVERT JUMPDEST POP POP POP POP PUSH1 0x40 MLOAD RETURNDATASIZE PUSH1 0x1F NOT PUSH1 0x1F DUP3 ADD AND DUP3 ADD DUP1 PUSH1 0x40 MSTORE POP DUP2 ADD SWAP1 PUSH2 0x8DB SWAP2 SWAP1 PUSH2 0x2336 JUMP JUMPDEST PUSH2 0x8F8 JUMPI PUSH1 0x40 MLOAD PUSH4 0x47B124FD PUSH1 0xE0 SHL DUP2 MSTORE PUSH1 0x4 ADD PUSH1 0x40 MLOAD DUP1 SWAP2 SUB SWAP1 REVERT JUMPDEST PUSH1 0x1 PUSH1 0x1 PUSH1 0xA0 SHL SUB DUP5 AND PUSH2 0x91F JUMPI PUSH1 0x40 MLOAD PUSH4 0x9E4F29A3 PUSH1 0xE0 SHL DUP2 MSTORE PUSH1 0x4 ADD PUSH1 0x40 MLOAD DUP1 SWAP2 SUB SWAP1 REVERT JUMPDEST PUSH1 0x1 DUP3 PUSH1 0xFF AND LT DUP1 PUSH2 0x934 JUMPI POP PUSH1 0x5 DUP3 PUSH1 0xFF AND GT JUMPDEST ISZERO PUSH2 0x952 JUMPI PUSH1 0x40 MLOAD PUSH4 0xCA20EA4B PUSH1 0xE0 SHL DUP2 MSTORE PUSH1 0x4 ADD PUSH1 0x40 MLOAD DUP1 SWAP2 SUB SWAP1 REVERT JUMPDEST PUSH0 DUP1 SLOAD PUSH1 0x1 PUSH1 0x1 PUSH1 0x80 SHL SUB AND DUP2 DUP1 PUSH2 0x969 DUP4 PUSH2 0x234F JUMP JUMPDEST DUP3 SLOAD PUSH1 0x1 PUSH1 0x1 PUSH1 0x80 SHL SUB SWAP2 DUP3 AND PUSH2 0x100 SWAP4 SWAP1 SWAP4 EXP SWAP3 DUP4 MUL SWAP3 DUP3 MUL NOT AND SWAP2 SWAP1 SWAP2 OR SWAP1 SWAP2 SSTORE PUSH1 0x40 DUP1 MLOAD PUSH1 0xE0 DUP2 ADD DUP3 MSTORE DUP4 DUP4 AND DUP1 DUP3 MSTORE PUSH1 0x1 PUSH1 0x1 PUSH1 0xA0 SHL SUB DUP1 DUP13 AND PUSH1 0x20 DUP1 DUP6 ADD SWAP2 DUP3 MSTORE DUP13 DUP4 AND DUP6 DUP8 ADD SWAP1 DUP2 MSTORE DUP13 DUP9 AND PUSH1 0x60 DUP8 ADD SWAP1 DUP2 MSTORE PUSH1 0xFF DUP1 DUP15 AND PUSH1 0x80 DUP10 ADD SWAP1 DUP2 MSTORE PUSH1 0xA0 DUP10 ADD DUP15 DUP2 MSTORE TIMESTAMP DUP13 AND PUSH1 0xC0 DUP12 ADD MSTORE PUSH0 SWAP9 DUP10 MSTORE PUSH1 0x2 SWAP6 DUP7 SWAP1 MSTORE SWAP10 SWAP1 SWAP8 KECCAK256 DUP9 MLOAD DUP2 SLOAD SWAP1 DUP13 AND PUSH1 0x1 PUSH1 0x1 PUSH1 0x80 SHL SUB NOT SWAP1 SWAP2 AND OR DUP2 SSTORE SWAP5 MLOAD PUSH1 0x1 DUP7 ADD DUP1 SLOAD SWAP2 DUP9 AND PUSH1 0x1 PUSH1 0x1 PUSH1 0xA0 SHL SUB NOT SWAP3 DUP4 AND OR SWAP1 SSTORE SWAP3 MLOAD SWAP4 DUP6 ADD DUP1 SLOAD SWAP5 SWAP1 SWAP7 AND SWAP4 SWAP1 SWAP3 AND SWAP3 SWAP1 SWAP3 OR SWAP1 SWAP4 SSTORE MLOAD PUSH1 0x3 DUP3 ADD DUP1 SLOAD SWAP5 MLOAD SWAP1 SWAP4 AND PUSH1 0x1 PUSH1 0x80 SHL MUL PUSH1 0x1 PUSH1 0x1 PUSH1 0x88 SHL SUB NOT SWAP1 SWAP5 AND SWAP7 AND SWAP6 SWAP1 SWAP6 OR SWAP2 SWAP1 SWAP2 OR SWAP1 SSTORE SWAP1 MLOAD SWAP3 SWAP4 POP SWAP2 PUSH1 0x4 DUP3 ADD SWAP1 PUSH2 0xA70 SWAP1 DUP3 PUSH2 0x23C5 JUMP JUMPDEST POP PUSH1 0xC0 SWAP2 SWAP1 SWAP2 ADD MLOAD PUSH1 0x5 SWAP2 DUP3 ADD DUP1 SLOAD PUSH1 0x1 PUSH1 0x1 PUSH1 0x80 SHL SUB NOT AND PUSH1 0x1 PUSH1 0x1 PUSH1 0x80 SHL SUB SWAP3 DUP4 AND OR SWAP1 SSTORE PUSH1 0x1 PUSH1 0x1 PUSH1 0xA0 SHL SUB DUP8 DUP2 AND PUSH0 DUP2 DUP2 MSTORE PUSH1 0x20 SWAP5 DUP6 MSTORE PUSH1 0x40 DUP1 DUP3 KECCAK256 DUP1 SLOAD PUSH1 0x1 DUP2 DUP2 ADD DUP4 SSTORE SWAP2 DUP5 MSTORE DUP8 DUP5 KECCAK256 PUSH1 0x2 DUP1 DUP4 DIV SWAP1 SWAP2 ADD DUP1 SLOAD SWAP3 DUP5 AND PUSH1 0x10 SWAP1 DUP2 MUL PUSH2 0x100 SWAP1 DUP2 EXP DUP1 DUP13 MUL NOT SWAP1 SWAP6 AND DUP14 DUP13 AND SWAP6 DUP7 MUL OR SWAP1 SWAP3 SSTORE DUP15 DUP11 AND DUP1 DUP9 MSTORE PUSH1 0x4 DUP13 MSTORE DUP7 DUP9 KECCAK256 DUP1 SLOAD DUP1 DUP9 ADD DUP3 SSTORE SWAP1 DUP10 MSTORE SWAP8 DUP13 SWAP1 KECCAK256 SWAP4 DUP9 DIV SWAP1 SWAP4 ADD DUP1 SLOAD SWAP8 SWAP1 SWAP6 AND MUL SWAP1 EXP SWAP8 DUP9 MUL NOT SWAP1 SWAP5 AND SWAP7 DUP2 MUL SWAP7 SWAP1 SWAP7 OR SWAP1 SSTORE DUP1 MLOAD SWAP2 DUP3 MSTORE PUSH1 0xFF DUP10 AND SWAP6 DUP3 ADD SWAP6 SWAP1 SWAP6 MSTORE SWAP1 SWAP4 SWAP2 DUP11 AND SWAP3 SWAP2 PUSH32 0x80266A32CE84D3A84EE0A516416C3687D2079C2BD74A5AC716F3827AA5AE6AA7 SWAP2 ADD PUSH1 0x40 MLOAD DUP1 SWAP2 SUB SWAP1 LOG4 POP POP POP POP POP POP JUMP JUMPDEST PUSH1 0x2 PUSH1 0x20 DUP2 SWAP1 MSTORE PUSH0 SWAP2 DUP3 MSTORE PUSH1 0x40 SWAP1 SWAP2 KECCAK256 DUP1 SLOAD PUSH1 0x1 DUP3 ADD SLOAD SWAP3 DUP3 ADD SLOAD PUSH1 0x3 DUP4 ADD SLOAD PUSH1 0x4 DUP5 ADD DUP1 SLOAD PUSH1 0x1 PUSH1 0x1 PUSH1 0x80 SHL SUB SWAP5 DUP6 AND SWAP7 PUSH1 0x1 PUSH1 0x1 PUSH1 0xA0 SHL SUB SWAP1 DUP2 AND SWAP7 SWAP5 AND SWAP5 DUP4 AND SWAP4 PUSH1 0x1 PUSH1 0x80 SHL SWAP1 SWAP4 DIV PUSH1 0xFF AND SWAP3 SWAP2 SWAP1 PUSH2 0x6B2 SWAP1 PUSH2 0x20DC JUMP JUMPDEST PUSH1 0x1 PUSH1 0x1 PUSH1 0x80 SHL SUB DUP2 AND PUSH0 SWAP1 DUP2 MSTORE PUSH1 0x6 PUSH1 0x20 SWAP1 DUP2 MSTORE PUSH1 0x40 DUP1 DUP4 KECCAK256 DUP1 SLOAD DUP3 MLOAD DUP2 DUP6 MUL DUP2 ADD DUP6 ADD SWAP1 SWAP4 MSTORE DUP1 DUP4 MSTORE PUSH1 0x60 SWAP5 SWAP4 DUP4 ADD DUP3 DUP3 DUP1 ISZERO PUSH2 0xC54 JUMPI PUSH1 0x20 MUL DUP3 ADD SWAP2 SWAP1 PUSH0 MSTORE PUSH1 0x20 PUSH0 KECCAK256 SWAP1 PUSH0 SWAP1 JUMPDEST DUP3 DUP3 SWAP1 SLOAD SWAP1 PUSH2 0x100 EXP SWAP1 DIV PUSH1 0x1 PUSH1 0x1 PUSH1 0x80 SHL SUB AND PUSH1 0x1 PUSH1 0x1 PUSH1 0x80 SHL SUB AND DUP2 MSTORE PUSH1 0x20 ADD SWAP1 PUSH1 0x10 ADD SWAP1 PUSH1 0x20 DUP3 PUSH1 0xF ADD DIV SWAP3 DUP4 ADD SWAP3 PUSH1 0x1 SUB DUP3 MUL SWAP2 POP DUP1 DUP5 GT PUSH2 0xC11 JUMPI SWAP1 POP JUMPDEST POP POP POP POP POP SWAP1 POP PUSH0 DUP2 MLOAD PUSH1 0x1 PUSH1 0x1 PUSH1 0x40 SHL SUB DUP2 GT ISZERO PUSH2 0xC75 JUMPI PUSH2 0xC75 PUSH2 0x1D5B JUMP JUMPDEST PUSH1 0x40 MLOAD SWAP1 DUP1 DUP3 MSTORE DUP1 PUSH1 0x20 MUL PUSH1 0x20 ADD DUP3 ADD PUSH1 0x40 MSTORE DUP1 ISZERO PUSH2 0xCD9 JUMPI DUP2 PUSH1 0x20 ADD JUMPDEST PUSH1 0x40 DUP1 MLOAD PUSH1 0xE0 DUP2 ADD DUP3 MSTORE PUSH0 DUP1 DUP3 MSTORE PUSH1 0x20 DUP1 DUP4 ADD DUP3 SWAP1 MSTORE SWAP3 DUP3 ADD DUP2 SWAP1 MSTORE PUSH1 0x60 DUP1 DUP4 ADD DUP3 SWAP1 MSTORE PUSH1 0x80 DUP4 ADD DUP3 SWAP1 MSTORE PUSH1 0xA0 DUP4 ADD MSTORE PUSH1 0xC0 DUP3 ADD MSTORE DUP3 MSTORE PUSH0 NOT SWAP1 SWAP3 ADD SWAP2 ADD DUP2 PUSH2 0xC93 JUMPI SWAP1 POP JUMPDEST POP SWAP1 POP PUSH0 JUMPDEST DUP3 MLOAD DUP2 LT ISZERO PUSH2 0x64B JUMPI PUSH1 0x3 PUSH0 DUP5 DUP4 DUP2 MLOAD DUP2 LT PUSH2 0xCFC JUMPI PUSH2 0xCFC PUSH2 0x20C8 JUMP JUMPDEST PUSH1 0x20 SWAP1 DUP2 MUL SWAP2 SWAP1 SWAP2 ADD DUP2 ADD MLOAD PUSH1 0x1 PUSH1 0x1 PUSH1 0x80 SHL SUB SWAP1 DUP2 AND DUP4 MSTORE DUP3 DUP3 ADD SWAP4 SWAP1 SWAP4 MSTORE PUSH1 0x40 SWAP2 DUP3 ADD PUSH0 KECCAK256 DUP3 MLOAD PUSH1 0xE0 DUP2 ADD DUP5 MSTORE DUP2 SLOAD DUP6 AND DUP2 MSTORE PUSH1 0x1 DUP3 ADD SLOAD PUSH1 0x1 PUSH1 0x1 PUSH1 0xA0 SHL SUB AND SWAP3 DUP2 ADD SWAP3 SWAP1 SWAP3 MSTORE PUSH1 0x2 DUP2 ADD SLOAD DUP1 DUP6 AND SWAP4 DUP4 ADD SWAP4 SWAP1 SWAP4 MSTORE PUSH1 0x1 PUSH1 0x80 SHL SWAP1 SWAP3 DIV SWAP1 SWAP3 AND PUSH1 0x60 DUP4 ADD MSTORE PUSH1 0x3 DUP2 ADD SLOAD PUSH1 0xFF AND PUSH1 0x80 DUP4 ADD MSTORE PUSH1 0x4 DUP2 ADD DUP1 SLOAD PUSH1 0xA0 DUP5 ADD SWAP2 SWAP1 PUSH2 0xD87 SWAP1 PUSH2 0x20DC JUMP JUMPDEST DUP1 PUSH1 0x1F ADD PUSH1 0x20 DUP1 SWAP2 DIV MUL PUSH1 0x20 ADD PUSH1 0x40 MLOAD SWAP1 DUP2 ADD PUSH1 0x40 MSTORE DUP1 SWAP3 SWAP2 SWAP1 DUP2 DUP2 MSTORE PUSH1 0x20 ADD DUP3 DUP1 SLOAD PUSH2 0xDB3 SWAP1 PUSH2 0x20DC JUMP JUMPDEST DUP1 ISZERO PUSH2 0xDFE JUMPI DUP1 PUSH1 0x1F LT PUSH2 0xDD5 JUMPI PUSH2 0x100 DUP1 DUP4 SLOAD DIV MUL DUP4 MSTORE SWAP2 PUSH1 0x20 ADD SWAP2 PUSH2 0xDFE JUMP JUMPDEST DUP3 ADD SWAP2 SWAP1 PUSH0 MSTORE PUSH1 0x20 PUSH0 KECCAK256 SWAP1 JUMPDEST DUP2 SLOAD DUP2 MSTORE SWAP1 PUSH1 0x1 ADD SWAP1 PUSH1 0x20 ADD DUP1 DUP4 GT PUSH2 0xDE1 JUMPI DUP3 SWAP1 SUB PUSH1 0x1F AND DUP3 ADD SWAP2 JUMPDEST POP POP POP SWAP2 DUP4 MSTORE POP POP PUSH1 0x5 SWAP2 SWAP1 SWAP2 ADD SLOAD PUSH1 0x1 PUSH1 0x1 PUSH1 0x80 SHL SUB AND PUSH1 0x20 SWAP1 SWAP2 ADD MSTORE DUP3 MLOAD DUP4 SWAP1 DUP4 SWAP1 DUP2 LT PUSH2 0xE30 JUMPI PUSH2 0xE30 PUSH2 0x20C8 JUMP JUMPDEST PUSH1 0x20 SWAP1 DUP2 MUL SWAP2 SWAP1 SWAP2 ADD ADD MSTORE PUSH1 0x1 ADD PUSH2 0xCDE JUMP JUMPDEST PUSH1 0x1 PUSH1 0x20 DUP2 SWAP1 MSTORE PUSH0 SWAP2 DUP3 MSTORE PUSH1 0x40 SWAP1 SWAP2 KECCAK256 DUP1 SLOAD SWAP2 DUP2 ADD SLOAD PUSH1 0x2 DUP3 ADD SLOAD PUSH1 0x3 DUP4 ADD SLOAD PUSH1 0x4 DUP5 ADD DUP1 SLOAD PUSH1 0x1 PUSH1 0x1 PUSH1 0x80 SHL SUB SWAP7 DUP8 AND SWAP7 PUSH1 0x1 PUSH1 0x1 PUSH1 0xA0 SHL SUB SWAP6 DUP7 AND SWAP7 SWAP6 SWAP1 SWAP5 AND SWAP5 SWAP4 DUP4 AND SWAP4 PUSH1 0x1 PUSH1 0x80 SHL SWAP1 SWAP4 DIV PUSH1 0xFF AND SWAP3 SWAP2 SWAP1 PUSH2 0x6B2 SWAP1 PUSH2 0x20DC JUMP JUMPDEST PUSH1 0x1 PUSH1 0x1 PUSH1 0xA0 SHL SUB DUP2 AND PUSH0 SWAP1 DUP2 MSTORE PUSH1 0x5 PUSH1 0x20 SWAP1 DUP2 MSTORE PUSH1 0x40 DUP1 DUP4 KECCAK256 DUP1 SLOAD DUP3 MLOAD DUP2 DUP6 MUL DUP2 ADD DUP6 ADD SWAP1 SWAP4 MSTORE DUP1 DUP4 MSTORE DUP5 SWAP4 DUP5 SWAP4 SWAP3 SWAP2 SWAP1 DUP4 ADD DUP3 DUP3 DUP1 ISZERO PUSH2 0xF31 JUMPI PUSH1 0x20 MUL DUP3 ADD SWAP2 SWAP1 PUSH0 MSTORE PUSH1 0x20 PUSH0 KECCAK256 SWAP1 PUSH0 SWAP1 JUMPDEST DUP3 DUP3 SWAP1 SLOAD SWAP1 PUSH2 0x100 EXP SWAP1 DIV PUSH1 0x1 PUSH1 0x1 PUSH1 0x80 SHL SUB AND PUSH1 0x1 PUSH1 0x1 PUSH1 0x80 SHL SUB AND DUP2 MSTORE PUSH1 0x20 ADD SWAP1 PUSH1 0x10 ADD SWAP1 PUSH1 0x20 DUP3 PUSH1 0xF ADD DIV SWAP3 DUP4 ADD SWAP3 PUSH1 0x1 SUB DUP3 MUL SWAP2 POP DUP1 DUP5 GT PUSH2 0xEEE JUMPI SWAP1 POP JUMPDEST POP POP POP POP POP SWAP1 POP DUP1 MLOAD PUSH0 SUB PUSH2 0xF4B JUMPI POP PUSH0 SWAP4 DUP5 SWAP4 POP SWAP2 POP POP JUMP JUMPDEST PUSH0 DUP1 JUMPDEST DUP3 MLOAD DUP2 LT ISZERO PUSH2 0xFB0 JUMPI PUSH1 0x2 PUSH0 DUP5 DUP4 DUP2 MLOAD DUP2 LT PUSH2 0xF6C JUMPI PUSH2 0xF6C PUSH2 0x20C8 JUMP JUMPDEST PUSH1 0x20 SWAP1 DUP2 MUL SWAP2 SWAP1 SWAP2 ADD DUP2 ADD MLOAD PUSH1 0x1 PUSH1 0x1 PUSH1 0x80 SHL SUB AND DUP3 MSTORE DUP2 ADD SWAP2 SWAP1 SWAP2 MSTORE PUSH1 0x40 ADD PUSH0 KECCAK256 PUSH1 0x3 ADD SLOAD PUSH2 0xFA6 SWAP1 PUSH1 0x1 PUSH1 0x80 SHL SWAP1 DIV PUSH1 0xFF AND DUP4 PUSH2 0x247F JUMP JUMPDEST SWAP2 POP PUSH1 0x1 ADD PUSH2 0xF4E JUMP JUMPDEST POP DUP2 MLOAD PUSH2 0xFBD SWAP1 DUP3 PUSH2 0x2492 JUMP JUMPDEST SWAP4 POP DUP2 MLOAD SWAP3 POP POP POP SWAP2 POP SWAP2 JUMP JUMPDEST PUSH1 0x8 SLOAD PUSH1 0x1 PUSH1 0x1 PUSH1 0xA0 SHL SUB AND CALLER EQ PUSH2 0xFF5 JUMPI PUSH1 0x40 MLOAD PUSH4 0x19C68547 PUSH1 0xE1 SHL DUP2 MSTORE PUSH1 0x4 ADD PUSH1 0x40 MLOAD DUP1 SWAP2 SUB SWAP1 REVERT JUMPDEST PUSH1 0x9 SLOAD PUSH1 0x40 MLOAD PUSH4 0xB2A6CB63 PUSH1 0xE0 SHL DUP2 MSTORE PUSH1 0x1 PUSH1 0x1 PUSH1 0x80 SHL SUB DUP6 AND PUSH1 0x4 DUP3 ADD MSTORE PUSH1 0x1 PUSH1 0x1 PUSH1 0xA0 SHL SUB SWAP1 SWAP2 AND SWAP1 PUSH4 0xB2A6CB63 SWAP1 PUSH1 0x24 ADD PUSH1 0x20 PUSH1 0x40 MLOAD DUP1 DUP4 SUB DUP2 DUP7 GAS STATICCALL ISZERO DUP1 ISZERO PUSH2 0x1044 JUMPI RETURNDATASIZE PUSH0 PUSH0 RETURNDATACOPY RETURNDATASIZE PUSH0 REVERT JUMPDEST POP POP POP POP PUSH1 0x40 MLOAD RETURNDATASIZE PUSH1 0x1F NOT PUSH1 0x1F DUP3 ADD AND DUP3 ADD DUP1 PUSH1 0x40 MSTORE POP DUP2 ADD SWAP1 PUSH2 0x1068 SWAP2 SWAP1 PUSH2 0x2336 JUMP JUMPDEST PUSH2 0x1085 JUMPI PUSH1 0x40 MLOAD PUSH4 0x47B124FD PUSH1 0xE0 SHL DUP2 MSTORE PUSH1 0x4 ADD PUSH1 0x40 MLOAD DUP1 SWAP2 SUB SWAP1 REVERT JUMPDEST PUSH1 0x1 DUP3 PUSH1 0xFF AND LT DUP1 PUSH2 0x109A JUMPI POP PUSH1 0x5 DUP3 PUSH1 0xFF AND GT JUMPDEST ISZERO PUSH2 0x10B8 JUMPI PUSH1 0x40 MLOAD PUSH4 0xCA20EA4B PUSH1 0xE0 SHL DUP2 MSTORE PUSH1 0x4 ADD PUSH1 0x40 MLOAD DUP1 SWAP2 SUB SWAP1 REVERT JUMPDEST PUSH0 DUP1 SLOAD PUSH1 0x1 PUSH1 0x1 PUSH1 0x80 SHL SUB AND DUP2 DUP1 PUSH2 0x10CF DUP4 PUSH2 0x234F JUMP JUMPDEST DUP3 SLOAD PUSH1 0x1 PUSH1 0x1 PUSH1 0x80 SHL SUB SWAP2 DUP3 AND PUSH2 0x100 SWAP4 SWAP1 SWAP4 EXP SWAP3 DUP4 MUL SWAP3 DUP3 MUL NOT AND SWAP2 SWAP1 SWAP2 OR SWAP1 SWAP2 SSTORE PUSH1 0x40 DUP1 MLOAD PUSH1 0xE0 DUP2 ADD DUP3 MSTORE DUP4 DUP4 AND DUP1 DUP3 MSTORE PUSH1 0x1 PUSH1 0x1 PUSH1 0xA0 SHL SUB DUP1 DUP12 AND PUSH1 0x20 DUP1 DUP6 ADD SWAP2 DUP3 MSTORE PUSH0 DUP6 DUP8 ADD DUP2 DUP2 MSTORE DUP14 DUP10 AND PUSH1 0x60 DUP9 ADD SWAP1 DUP2 MSTORE PUSH1 0xFF DUP1 DUP16 AND PUSH1 0x80 DUP11 ADD SWAP1 DUP2 MSTORE PUSH1 0xA0 DUP11 ADD DUP16 DUP2 MSTORE TIMESTAMP DUP14 AND PUSH1 0xC0 DUP13 ADD MSTORE SWAP9 DUP6 MSTORE PUSH1 0x1 SWAP6 DUP7 SWAP1 MSTORE SWAP10 SWAP1 SWAP4 KECCAK256 DUP9 MLOAD DUP2 SLOAD SWAP1 DUP13 AND PUSH1 0x1 PUSH1 0x1 PUSH1 0x80 SHL SUB NOT SWAP1 SWAP2 AND OR DUP2 SSTORE SWAP5 MLOAD SWAP4 DUP6 ADD DUP1 SLOAD SWAP5 DUP8 AND PUSH1 0x1 PUSH1 0x1 PUSH1 0xA0 SHL SUB NOT SWAP6 DUP7 AND OR SWAP1 SSTORE SWAP1 MLOAD PUSH1 0x2 DUP6 ADD DUP1 SLOAD SWAP2 SWAP1 SWAP7 AND SWAP4 AND SWAP3 SWAP1 SWAP3 OR SWAP1 SWAP4 SSTORE MLOAD PUSH1 0x3 DUP3 ADD DUP1 SLOAD SWAP7 MLOAD SWAP1 SWAP4 AND PUSH1 0x1 PUSH1 0x80 SHL MUL PUSH1 0x1 PUSH1 0x1 PUSH1 0x88 SHL SUB NOT SWAP1 SWAP7 AND SWAP7 AND SWAP6 SWAP1 SWAP6 OR SWAP4 SWAP1 SWAP4 OR SWAP1 SWAP3 SSTORE SWAP1 MLOAD SWAP3 SWAP4 POP SWAP2 PUSH1 0x4 DUP3 ADD SWAP1 PUSH2 0x11D2 SWAP1 DUP3 PUSH2 0x23C5 JUMP JUMPDEST POP PUSH1 0xC0 SWAP2 SWAP1 SWAP2 ADD MLOAD PUSH1 0x5 SWAP1 SWAP2 ADD DUP1 SLOAD PUSH1 0x1 PUSH1 0x1 PUSH1 0x80 SHL SUB NOT AND PUSH1 0x1 PUSH1 0x1 PUSH1 0x80 SHL SUB SWAP3 DUP4 AND OR SWAP1 SSTORE DUP5 DUP2 AND PUSH0 DUP2 DUP2 MSTORE PUSH1 0x4 PUSH1 0x20 SWAP1 DUP2 MSTORE PUSH1 0x40 DUP1 DUP4 KECCAK256 DUP1 SLOAD PUSH1 0x1 DUP2 DUP2 ADD DUP4 SSTORE SWAP2 DUP6 MSTORE SWAP4 DUP4 SWAP1 KECCAK256 PUSH1 0x2 DUP6 DIV ADD DUP1 SLOAD SWAP5 SWAP1 SWAP2 AND PUSH1 0x10 MUL PUSH2 0x100 EXP DUP1 DUP8 MUL NOT SWAP1 SWAP5 AND SWAP6 DUP8 AND SWAP4 DUP5 MUL SWAP6 SWAP1 SWAP6 OR SWAP1 SWAP5 SSTORE SWAP3 MLOAD PUSH1 0xFF DUP8 AND DUP2 MSTORE SWAP2 SWAP3 PUSH1 0x1 PUSH1 0x1 PUSH1 0xA0 SHL SUB DUP10 AND SWAP3 PUSH32 0x3D07DD1482BC8670ED7C2CF1F89B16D2DA31A3996E171620A09CF3FD4C8E4446 SWAP2 ADD PUSH1 0x40 MLOAD DUP1 SWAP2 SUB SWAP1 LOG4 POP POP POP POP POP JUMP JUMPDEST PUSH1 0x8 SLOAD PUSH0 SWAP1 DUP2 SWAP1 PUSH1 0x1 PUSH1 0x1 PUSH1 0xA0 SHL SUB AND CALLER EQ PUSH2 0x12B8 JUMPI PUSH1 0x40 MLOAD PUSH4 0x19C68547 PUSH1 0xE1 SHL DUP2 MSTORE PUSH1 0x4 ADD PUSH1 0x40 MLOAD DUP1 SWAP2 SUB SWAP1 REVERT JUMPDEST PUSH1 0x9 SLOAD PUSH1 0x40 MLOAD PUSH4 0xB2A6CB63 PUSH1 0xE0 SHL DUP2 MSTORE PUSH1 0x1 PUSH1 0x1 PUSH1 0x80 SHL SUB DUP9 AND PUSH1 0x4 DUP3 ADD MSTORE PUSH1 0x1 PUSH1 0x1 PUSH1 0xA0 SHL SUB SWAP1 SWAP2 AND SWAP1 PUSH4 0xB2A6CB63 SWAP1 PUSH1 0x24 ADD PUSH1 0x20 PUSH1 0x40 MLOAD DUP1 DUP4 SUB DUP2 DUP7 GAS STATICCALL ISZERO DUP1 ISZERO PUSH2 0x1307 JUMPI RETURNDATASIZE PUSH0 PUSH0 RETURNDATACOPY RETURNDATASIZE PUSH0 REVERT JUMPDEST POP POP POP POP PUSH1 0x40 MLOAD RETURNDATASIZE PUSH1 0x1F NOT PUSH1 0x1F DUP3 ADD AND DUP3 ADD DUP1 PUSH1 0x40 MSTORE POP DUP2 ADD SWAP1 PUSH2 0x132B SWAP2 SWAP1 PUSH2 0x2336 JUMP JUMPDEST PUSH2 0x1348 JUMPI PUSH1 0x40 MLOAD PUSH4 0x47B124FD PUSH1 0xE0 SHL DUP2 MSTORE PUSH1 0x4 ADD PUSH1 0x40 MLOAD DUP1 SWAP2 SUB SWAP1 REVERT JUMPDEST PUSH1 0x1 DUP5 PUSH1 0xFF AND LT DUP1 PUSH2 0x135D JUMPI POP PUSH1 0x5 DUP5 PUSH1 0xFF AND GT JUMPDEST ISZERO PUSH2 0x137B JUMPI PUSH1 0x40 MLOAD PUSH4 0xCA20EA4B PUSH1 0xE0 SHL DUP2 MSTORE PUSH1 0x4 ADD PUSH1 0x40 MLOAD DUP1 SWAP2 SUB SWAP1 REVERT JUMPDEST PUSH1 0x40 DUP1 MLOAD PUSH2 0x160 DUP2 ADD DUP3 MSTORE PUSH0 DUP1 DUP3 MSTORE PUSH1 0x20 DUP3 ADD DUP2 SWAP1 MSTORE PUSH1 0x60 DUP3 DUP5 ADD DUP2 SWAP1 MSTORE DUP1 DUP4 ADD DUP2 SWAP1 MSTORE PUSH1 0x80 DUP4 ADD DUP3 SWAP1 MSTORE PUSH1 0xA0 DUP4 ADD DUP3 SWAP1 MSTORE PUSH1 0xC0 DUP4 ADD DUP2 SWAP1 MSTORE PUSH1 0xE0 DUP4 ADD MSTORE PUSH2 0x100 DUP3 ADD DUP2 SWAP1 MSTORE PUSH2 0x120 DUP3 ADD DUP2 SWAP1 MSTORE PUSH2 0x140 DUP3 ADD MSTORE PUSH1 0x7 SLOAD SWAP2 MLOAD PUSH4 0x18A512D PUSH1 0xE3 SHL DUP2 MSTORE PUSH1 0x1 PUSH1 0x1 PUSH1 0x80 SHL SUB DUP10 DUP2 AND PUSH1 0x4 DUP4 ADD MSTORE DUP9 AND PUSH1 0x24 DUP3 ADD MSTORE SWAP1 SWAP2 PUSH1 0x1 PUSH1 0x1 PUSH1 0xA0 SHL SUB AND SWAP1 PUSH4 0xC528968 SWAP1 PUSH1 0x44 ADD PUSH0 PUSH1 0x40 MLOAD DUP1 DUP4 SUB DUP2 DUP7 GAS STATICCALL SWAP3 POP POP POP DUP1 ISZERO PUSH2 0x1446 JUMPI POP PUSH1 0x40 MLOAD RETURNDATASIZE PUSH0 DUP3 RETURNDATACOPY PUSH1 0x1F RETURNDATASIZE SWAP1 DUP2 ADD PUSH1 0x1F NOT AND DUP3 ADD PUSH1 0x40 MSTORE PUSH2 0x1443 SWAP2 SWAP1 DUP2 ADD SWAP1 PUSH2 0x217B JUMP JUMPDEST PUSH1 0x1 JUMPDEST PUSH2 0x1463 JUMPI PUSH1 0x40 MLOAD PUSH4 0x34B53423 PUSH1 0xE1 SHL DUP2 MSTORE PUSH1 0x4 ADD PUSH1 0x40 MLOAD DUP1 SWAP2 SUB SWAP1 REVERT JUMPDEST SWAP1 POP DUP1 MLOAD PUSH1 0x1 PUSH1 0x1 PUSH1 0x80 SHL SUB AND PUSH0 SUB PUSH2 0x148F JUMPI PUSH1 0x40 MLOAD PUSH4 0x34B53423 PUSH1 0xE1 SHL DUP2 MSTORE PUSH1 0x4 ADD PUSH1 0x40 MLOAD DUP1 SWAP2 SUB SWAP1 REVERT JUMPDEST PUSH0 DUP1 SLOAD PUSH1 0x1 PUSH1 0x1 PUSH1 0x80 SHL SUB AND DUP2 DUP1 PUSH2 0x14A6 DUP4 PUSH2 0x234F JUMP JUMPDEST SWAP2 SWAP1 PUSH2 0x100 EXP DUP2 SLOAD DUP2 PUSH1 0x1 PUSH1 0x1 PUSH1 0x80 SHL SUB MUL NOT AND SWAP1 DUP4 PUSH1 0x1 PUSH1 0x1 PUSH1 0x80 SHL SUB AND MUL OR SWAP1 SSTORE POP SWAP1 POP PUSH1 0x40 MLOAD DUP1 PUSH1 0xE0 ADD PUSH1 0x40 MSTORE DUP1 DUP3 PUSH1 0x1 PUSH1 0x1 PUSH1 0x80 SHL SUB AND DUP2 MSTORE PUSH1 0x20 ADD DUP11 PUSH1 0x1 PUSH1 0x1 PUSH1 0xA0 SHL SUB AND DUP2 MSTORE PUSH1 0x20 ADD DUP9 PUSH1 0x1 PUSH1 0x1 PUSH1 0x80 SHL SUB AND DUP2 MSTORE PUSH1 0x20 ADD DUP10 PUSH1 0x1 PUSH1 0x1 PUSH1 0x80 SHL SUB AND DUP2 MSTORE PUSH1 0x20 ADD DUP8 PUSH1 0xFF AND DUP2 MSTORE PUSH1 0x20 ADD DUP7 DUP2 MSTORE PUSH1 0x20 ADD TIMESTAMP PUSH1 0x1 PUSH1 0x1 PUSH1 0x80 SHL SUB AND DUP2 MSTORE POP PUSH1 0x3 PUSH0 DUP4 PUSH1 0x1 PUSH1 0x1 PUSH1 0x80 SHL SUB AND PUSH1 0x1 PUSH1 0x1 PUSH1 0x80 SHL SUB AND DUP2 MSTORE PUSH1 0x20 ADD SWAP1 DUP2 MSTORE PUSH1 0x20 ADD PUSH0 KECCAK256 PUSH0 DUP3 ADD MLOAD DUP2 PUSH0 ADD PUSH0 PUSH2 0x100 EXP DUP2 SLOAD DUP2 PUSH1 0x1 PUSH1 0x1 PUSH1 0x80 SHL SUB MUL NOT AND SWAP1 DUP4 PUSH1 0x1 PUSH1 0x1 PUSH1 0x80 SHL SUB AND MUL OR SWAP1 SSTORE POP PUSH1 0x20 DUP3 ADD MLOAD DUP2 PUSH1 0x1 ADD PUSH0 PUSH2 0x100 EXP DUP2 SLOAD DUP2 PUSH1 0x1 PUSH1 0x1 PUSH1 0xA0 SHL SUB MUL NOT AND SWAP1 DUP4 PUSH1 0x1 PUSH1 0x1 PUSH1 0xA0 SHL SUB AND MUL OR SWAP1 SSTORE POP PUSH1 0x40 DUP3 ADD MLOAD DUP2 PUSH1 0x2 ADD PUSH0 PUSH2 0x100 EXP DUP2 SLOAD DUP2 PUSH1 0x1 PUSH1 0x1 PUSH1 0x80 SHL SUB MUL NOT AND SWAP1 DUP4 PUSH1 0x1 PUSH1 0x1 PUSH1 0x80 SHL SUB AND MUL OR SWAP1 SSTORE POP PUSH1 0x60 DUP3 ADD MLOAD DUP2 PUSH1 0x2 ADD PUSH1 0x10 PUSH2 0x100 EXP DUP2 SLOAD DUP2 PUSH1 0x1 PUSH1 0x1 PUSH1 0x80 SHL SUB MUL NOT AND SWAP1 DUP4 PUSH1 0x1 PUSH1 0x1 PUSH1 0x80 SHL SUB AND MUL OR SWAP1 SSTORE POP PUSH1 0x80 DUP3 ADD MLOAD DUP2 PUSH1 0x3 ADD PUSH0 PUSH2 0x100 EXP DUP2 SLOAD DUP2 PUSH1 0xFF MUL NOT AND SWAP1 DUP4 PUSH1 0xFF AND MUL OR SWAP1 SSTORE POP PUSH1 0xA0 DUP3 ADD MLOAD DUP2 PUSH1 0x4 ADD SWAP1 DUP2 PUSH2 0x1636 SWAP2 SWAP1 PUSH2 0x23C5 JUMP JUMPDEST POP PUSH1 0xC0 DUP3 ADD MLOAD DUP2 PUSH1 0x5 ADD PUSH0 PUSH2 0x100 EXP DUP2 SLOAD DUP2 PUSH1 0x1 PUSH1 0x1 PUSH1 0x80 SHL SUB MUL NOT AND SWAP1 DUP4 PUSH1 0x1 PUSH1 0x1 PUSH1 0x80 SHL SUB AND MUL OR SWAP1 SSTORE POP SWAP1 POP POP PUSH1 0x6 PUSH0 DUP9 PUSH1 0x1 PUSH1 0x1 PUSH1 0x80 SHL SUB AND PUSH1 0x1 PUSH1 0x1 PUSH1 0x80 SHL SUB AND DUP2 MSTORE PUSH1 0x20 ADD SWAP1 DUP2 MSTORE PUSH1 0x20 ADD PUSH0 KECCAK256 DUP2 SWAP1 DUP1 PUSH1 0x1 DUP2 SLOAD ADD DUP1 DUP3 SSTORE DUP1 SWAP2 POP POP PUSH1 0x1 SWAP1 SUB SWAP1 PUSH0 MSTORE PUSH1 0x20 PUSH0 KECCAK256 SWAP1 PUSH1 0x2 SWAP2 DUP3 DUP3 DIV ADD SWAP2 SWAP1 MOD PUSH1 0x10 MUL SWAP1 SWAP2 SWAP1 SWAP2 SWAP1 SWAP2 PUSH2 0x100 EXP DUP2 SLOAD DUP2 PUSH1 0x1 PUSH1 0x1 PUSH1 0x80 SHL SUB MUL NOT AND SWAP1 DUP4 PUSH1 0x1 PUSH1 0x1 PUSH1 0x80 SHL SUB AND MUL OR SWAP1 SSTORE POP PUSH1 0x4 PUSH0 DUP10 PUSH1 0x1 PUSH1 0x1 PUSH1 0x80 SHL SUB AND PUSH1 0x1 PUSH1 0x1 PUSH1 0x80 SHL SUB AND DUP2 MSTORE PUSH1 0x20 ADD SWAP1 DUP2 MSTORE PUSH1 0x20 ADD PUSH0 KECCAK256 DUP2 SWAP1 DUP1 PUSH1 0x1 DUP2 SLOAD ADD DUP1 DUP3 SSTORE DUP1 SWAP2 POP POP PUSH1 0x1 SWAP1 SUB SWAP1 PUSH0 MSTORE PUSH1 0x20 PUSH0 KECCAK256 SWAP1 PUSH1 0x2 SWAP2 DUP3 DUP3 DIV ADD SWAP2 SWAP1 MOD PUSH1 0x10 MUL SWAP1 SWAP2 SWAP1 SWAP2 SWAP1 SWAP2 PUSH2 0x100 EXP DUP2 SLOAD DUP2 PUSH1 0x1 PUSH1 0x1 PUSH1 0x80 SHL SUB MUL NOT AND SWAP1 DUP4 PUSH1 0x1 PUSH1 0x1 PUSH1 0x80 SHL SUB AND MUL OR SWAP1 SSTORE POP DUP7 PUSH1 0x1 PUSH1 0x1 PUSH1 0x80 SHL SUB AND DUP10 PUSH1 0x1 PUSH1 0x1 PUSH1 0xA0 SHL SUB AND DUP3 PUSH1 0x1 PUSH1 0x1 PUSH1 0x80 SHL SUB AND PUSH32 0x805C77F965E08373C35E9B3142F39FBFD23501AF52856F2AF0C40F446A236ED DUP12 DUP11 PUSH1 0x40 MLOAD PUSH2 0x17B2 SWAP3 SWAP2 SWAP1 PUSH1 0x1 PUSH1 0x1 PUSH1 0x80 SHL SUB SWAP3 SWAP1 SWAP3 AND DUP3 MSTORE PUSH1 0xFF AND PUSH1 0x20 DUP3 ADD MSTORE PUSH1 0x40 ADD SWAP1 JUMP JUMPDEST PUSH1 0x40 MLOAD DUP1 SWAP2 SUB SWAP1 LOG4 DUP6 PUSH1 0xFF AND DUP3 PUSH2 0x100 ADD MLOAD PUSH2 0x17CE SWAP2 SWAP1 PUSH2 0x24A5 JUMP JUMPDEST SWAP4 POP DUP2 PUSH2 0x120 ADD MLOAD PUSH1 0x1 PUSH2 0x17E2 SWAP2 SWAP1 PUSH2 0x24A5 JUMP JUMPDEST SWAP3 POP POP POP SWAP6 POP SWAP6 SWAP4 POP POP POP POP JUMP JUMPDEST PUSH2 0x17F8 PUSH2 0x19C8 JUMP JUMPDEST PUSH1 0x1 PUSH1 0x1 PUSH1 0xA0 SHL SUB DUP2 AND PUSH2 0x1826 JUMPI PUSH1 0x40 MLOAD PUSH4 0x1E4FBDF7 PUSH1 0xE0 SHL DUP2 MSTORE PUSH0 PUSH1 0x4 DUP3 ADD MSTORE PUSH1 0x24 ADD JUMPDEST PUSH1 0x40 MLOAD DUP1 SWAP2 SUB SWAP1 REVERT JUMPDEST PUSH2 0x182F DUP2 PUSH2 0x1A23 JUMP JUMPDEST POP JUMP JUMPDEST PUSH0 PUSH2 0x183B PUSH2 0x1A93 JUMP JUMPDEST DUP1 SLOAD SWAP1 SWAP2 POP PUSH1 0xFF PUSH1 0x1 PUSH1 0x40 SHL DUP3 DIV AND ISZERO SWAP1 PUSH1 0x1 PUSH1 0x1 PUSH1 0x40 SHL SUB AND PUSH0 DUP2 ISZERO DUP1 ISZERO PUSH2 0x1861 JUMPI POP DUP3 JUMPDEST SWAP1 POP PUSH0 DUP3 PUSH1 0x1 PUSH1 0x1 PUSH1 0x40 SHL SUB AND PUSH1 0x1 EQ DUP1 ISZERO PUSH2 0x187C JUMPI POP ADDRESS EXTCODESIZE ISZERO JUMPDEST SWAP1 POP DUP2 ISZERO DUP1 ISZERO PUSH2 0x188A JUMPI POP DUP1 ISZERO JUMPDEST ISZERO PUSH2 0x18A8 JUMPI PUSH1 0x40 MLOAD PUSH4 0xF92EE8A9 PUSH1 0xE0 SHL DUP2 MSTORE PUSH1 0x4 ADD PUSH1 0x40 MLOAD DUP1 SWAP2 SUB SWAP1 REVERT JUMPDEST DUP5 SLOAD PUSH8 0xFFFFFFFFFFFFFFFF NOT AND PUSH1 0x1 OR DUP6 SSTORE DUP4 ISZERO PUSH2 0x18D2 JUMPI DUP5 SLOAD PUSH1 0xFF PUSH1 0x40 SHL NOT AND PUSH1 0x1 PUSH1 0x40 SHL OR DUP6 SSTORE JUMPDEST PUSH1 0x1 PUSH1 0x1 PUSH1 0xA0 SHL SUB DUP10 AND ISZERO DUP1 PUSH2 0x18EF JUMPI POP PUSH1 0x1 PUSH1 0x1 PUSH1 0xA0 SHL SUB DUP9 AND ISZERO JUMPDEST DUP1 PUSH2 0x1901 JUMPI POP PUSH1 0x1 PUSH1 0x1 PUSH1 0xA0 SHL SUB DUP8 AND ISZERO JUMPDEST ISZERO PUSH2 0x191F JUMPI PUSH1 0x40 MLOAD PUSH4 0x9E4F29A3 PUSH1 0xE0 SHL DUP2 MSTORE PUSH1 0x4 ADD PUSH1 0x40 MLOAD DUP1 SWAP2 SUB SWAP1 REVERT JUMPDEST PUSH2 0x1928 DUP7 PUSH2 0x1ABD JUMP JUMPDEST PUSH1 0x8 DUP1 SLOAD PUSH1 0x1 PUSH1 0x1 PUSH1 0xA0 SHL SUB DUP1 DUP13 AND PUSH1 0x1 PUSH1 0x1 PUSH1 0xA0 SHL SUB NOT SWAP3 DUP4 AND OR SWAP1 SWAP3 SSTORE PUSH1 0x9 DUP1 SLOAD DUP12 DUP5 AND SWAP1 DUP4 AND OR SWAP1 SSTORE PUSH1 0x7 DUP1 SLOAD SWAP3 DUP11 AND SWAP3 SWAP1 SWAP2 AND SWAP2 SWAP1 SWAP2 OR SWAP1 SSTORE PUSH0 DUP1 SLOAD PUSH1 0x1 PUSH1 0x1 PUSH1 0x80 SHL SUB NOT AND PUSH1 0x1 OR SWAP1 SSTORE DUP4 ISZERO PUSH2 0x19BD JUMPI DUP5 SLOAD PUSH1 0xFF PUSH1 0x40 SHL NOT AND DUP6 SSTORE PUSH1 0x40 MLOAD PUSH1 0x1 DUP2 MSTORE PUSH32 0xC7F505B2F371AE2175EE4913F4499E1F2633A7B5936321EED1CDAEB6115181D2 SWAP1 PUSH1 0x20 ADD PUSH1 0x40 MLOAD DUP1 SWAP2 SUB SWAP1 LOG1 JUMPDEST POP POP POP POP POP POP POP POP POP JUMP JUMPDEST CALLER PUSH2 0x19FA PUSH32 0x9016D09D72D40FDAE2FD8CEAC6B6234C7706214FD39C1CD1E609A0528C199300 SLOAD PUSH1 0x1 PUSH1 0x1 PUSH1 0xA0 SHL SUB AND SWAP1 JUMP JUMPDEST PUSH1 0x1 PUSH1 0x1 PUSH1 0xA0 SHL SUB AND EQ PUSH2 0x822 JUMPI PUSH1 0x40 MLOAD PUSH4 0x118CDAA7 PUSH1 0xE0 SHL DUP2 MSTORE CALLER PUSH1 0x4 DUP3 ADD MSTORE PUSH1 0x24 ADD PUSH2 0x181D JUMP JUMPDEST PUSH32 0x9016D09D72D40FDAE2FD8CEAC6B6234C7706214FD39C1CD1E609A0528C199300 DUP1 SLOAD PUSH1 0x1 PUSH1 0x1 PUSH1 0xA0 SHL SUB NOT DUP2 AND PUSH1 0x1 PUSH1 0x1 PUSH1 0xA0 SHL SUB DUP5 DUP2 AND SWAP2 DUP3 OR DUP5 SSTORE PUSH1 0x40 MLOAD SWAP3 AND SWAP2 DUP3 SWAP1 PUSH32 0x8BE0079C531659141344CD1FD0A4F28419497F9722A3DAAFE3B4186F6B6457E0 SWAP1 PUSH0 SWAP1 LOG3 POP POP POP JUMP JUMPDEST PUSH0 DUP1 PUSH32 0xF0C57E16840DF040F15088DC2F81FE391C3923BEC73E23A9662EFC9C229C6A00 JUMPDEST SWAP3 SWAP2 POP POP JUMP JUMPDEST PUSH2 0x1AC5 PUSH2 0x1ACE JUMP JUMPDEST PUSH2 0x182F DUP2 PUSH2 0x1AF3 JUMP JUMPDEST PUSH2 0x1AD6 PUSH2 0x1AFB JUMP JUMPDEST PUSH2 0x822 JUMPI PUSH1 0x40 MLOAD PUSH4 0x1AFCD79F PUSH1 0xE3 SHL DUP2 MSTORE PUSH1 0x4 ADD PUSH1 0x40 MLOAD DUP1 SWAP2 SUB SWAP1 REVERT JUMPDEST PUSH2 0x17F8 PUSH2 0x1ACE JUMP JUMPDEST PUSH0 PUSH2 0x1B04 PUSH2 0x1A93 JUMP JUMPDEST SLOAD PUSH1 0x1 PUSH1 0x40 SHL SWAP1 DIV PUSH1 0xFF AND SWAP2 SWAP1 POP JUMP JUMPDEST PUSH1 0x1 PUSH1 0x1 PUSH1 0x80 SHL SUB DUP2 AND DUP2 EQ PUSH2 0x182F JUMPI PUSH0 PUSH0 REVERT JUMPDEST PUSH0 PUSH0 PUSH1 0x40 DUP4 DUP6 SUB SLT ISZERO PUSH2 0x1B39 JUMPI PUSH0 PUSH0 REVERT JUMPDEST DUP3 CALLDATALOAD PUSH2 0x1B44 DUP2 PUSH2 0x1B14 JUMP JUMPDEST SWAP5 PUSH1 0x20 SWAP4 SWAP1 SWAP4 ADD CALLDATALOAD SWAP4 POP POP POP JUMP JUMPDEST DUP1 CALLDATALOAD PUSH1 0x1 PUSH1 0x1 PUSH1 0xA0 SHL SUB DUP2 AND DUP2 EQ PUSH2 0x1B68 JUMPI PUSH0 PUSH0 REVERT JUMPDEST SWAP2 SWAP1 POP JUMP JUMPDEST PUSH0 PUSH0 PUSH1 0x40 DUP4 DUP6 SUB SLT ISZERO PUSH2 0x1B7E JUMPI PUSH0 PUSH0 REVERT JUMPDEST PUSH2 0x1B44 DUP4 PUSH2 0x1B52 JUMP JUMPDEST PUSH0 PUSH1 0x20 DUP3 DUP5 SUB SLT ISZERO PUSH2 0x1B97 JUMPI PUSH0 PUSH0 REVERT JUMPDEST PUSH2 0x1BA0 DUP3 PUSH2 0x1B52 JUMP JUMPDEST SWAP4 SWAP3 POP POP POP JUMP JUMPDEST PUSH0 DUP2 MLOAD DUP1 DUP5 MSTORE DUP1 PUSH1 0x20 DUP5 ADD PUSH1 0x20 DUP7 ADD MCOPY PUSH0 PUSH1 0x20 DUP3 DUP7 ADD ADD MSTORE PUSH1 0x20 PUSH1 0x1F NOT PUSH1 0x1F DUP4 ADD AND DUP6 ADD ADD SWAP2 POP POP SWAP3 SWAP2 POP POP JUMP JUMPDEST PUSH0 PUSH1 0x20 DUP3 ADD PUSH1 0x20 DUP4 MSTORE DUP1 DUP5 MLOAD DUP1 DUP4 MSTORE PUSH1 0x40 DUP6 ADD SWAP2 POP PUSH1 0x40 DUP2 PUSH1 0x5 SHL DUP7 ADD ADD SWAP3 POP PUSH1 0x20 DUP7 ADD PUSH0 JUMPDEST DUP3 DUP2 LT ISZERO PUSH2 0x1CBC JUMPI PUSH1 0x3F NOT DUP8 DUP7 SUB ADD DUP5 MSTORE DUP2 MLOAD PUSH1 0x1 PUSH1 0x1 PUSH1 0x80 SHL SUB DUP2 MLOAD AND DUP7 MSTORE PUSH1 0x1 DUP1 PUSH1 0xA0 SHL SUB PUSH1 0x20 DUP3 ADD MLOAD AND PUSH1 0x20 DUP8 ADD MSTORE PUSH1 0x1 DUP1 PUSH1 0xA0 SHL SUB PUSH1 0x40 DUP3 ADD MLOAD AND PUSH1 0x40 DUP8 ADD MSTORE PUSH1 0x60 DUP2 ADD MLOAD PUSH2 0x1C59 PUSH1 0x60 DUP9 ADD DUP3 PUSH1 0x1 PUSH1 0x1 PUSH1 0x80 SHL SUB AND SWAP1 MSTORE JUMP JUMPDEST POP PUSH1 0x80 DUP2 ADD MLOAD PUSH2 0x1C6E PUSH1 0x80 DUP9 ADD DUP3 PUSH1 0xFF AND SWAP1 MSTORE JUMP JUMPDEST POP PUSH1 0xA0 DUP2 ADD MLOAD PUSH1 0xE0 PUSH1 0xA0 DUP9 ADD MSTORE PUSH2 0x1C88 PUSH1 0xE0 DUP9 ADD DUP3 PUSH2 0x1BA7 JUMP JUMPDEST SWAP1 POP PUSH1 0xC0 DUP3 ADD MLOAD SWAP2 POP PUSH2 0x1CA6 PUSH1 0xC0 DUP9 ADD DUP4 PUSH1 0x1 PUSH1 0x1 PUSH1 0x80 SHL SUB AND SWAP1 MSTORE JUMP JUMPDEST SWAP6 POP POP PUSH1 0x20 SWAP4 DUP5 ADD SWAP4 SWAP2 SWAP1 SWAP2 ADD SWAP1 PUSH1 0x1 ADD PUSH2 0x1BFB JUMP JUMPDEST POP SWAP3 SWAP7 SWAP6 POP POP POP POP POP POP JUMP JUMPDEST PUSH0 PUSH1 0x20 DUP3 DUP5 SUB SLT ISZERO PUSH2 0x1CD8 JUMPI PUSH0 PUSH0 REVERT JUMPDEST DUP2 CALLDATALOAD PUSH2 0x1BA0 DUP2 PUSH2 0x1B14 JUMP JUMPDEST PUSH1 0x1 PUSH1 0x1 PUSH1 0x80 SHL SUB DUP9 DUP2 AND DUP3 MSTORE PUSH1 0x1 PUSH1 0x1 PUSH1 0xA0 SHL SUB DUP9 AND PUSH1 0x20 DUP4 ADD MSTORE DUP7 DUP2 AND PUSH1 0x40 DUP4 ADD MSTORE DUP6 AND PUSH1 0x60 DUP3 ADD MSTORE PUSH1 0xFF DUP5 AND PUSH1 0x80 DUP3 ADD MSTORE PUSH1 0xE0 PUSH1 0xA0 DUP3 ADD DUP2 SWAP1 MSTORE PUSH0 SWAP1 PUSH2 0x1D2E SWAP1 DUP4 ADD DUP6 PUSH2 0x1BA7 JUMP JUMPDEST SWAP1 POP PUSH1 0x1 PUSH1 0x1 PUSH1 0x80 SHL SUB DUP4 AND PUSH1 0xC0 DUP4 ADD MSTORE SWAP9 SWAP8 POP POP POP POP POP POP POP POP JUMP JUMPDEST DUP1 CALLDATALOAD PUSH1 0xFF DUP2 AND DUP2 EQ PUSH2 0x1B68 JUMPI PUSH0 PUSH0 REVERT JUMPDEST PUSH4 0x4E487B71 PUSH1 0xE0 SHL PUSH0 MSTORE PUSH1 0x41 PUSH1 0x4 MSTORE PUSH1 0x24 PUSH0 REVERT JUMPDEST PUSH1 0x40 MLOAD PUSH2 0x160 DUP2 ADD PUSH1 0x1 PUSH1 0x1 PUSH1 0x40 SHL SUB DUP2 GT DUP3 DUP3 LT OR ISZERO PUSH2 0x1D92 JUMPI PUSH2 0x1D92 PUSH2 0x1D5B JUMP JUMPDEST PUSH1 0x40 MSTORE SWAP1 JUMP JUMPDEST PUSH1 0x40 MLOAD PUSH1 0x1F DUP3 ADD PUSH1 0x1F NOT AND DUP2 ADD PUSH1 0x1 PUSH1 0x1 PUSH1 0x40 SHL SUB DUP2 GT DUP3 DUP3 LT OR ISZERO PUSH2 0x1DC0 JUMPI PUSH2 0x1DC0 PUSH2 0x1D5B JUMP JUMPDEST PUSH1 0x40 MSTORE SWAP2 SWAP1 POP JUMP JUMPDEST PUSH0 PUSH1 0x1 PUSH1 0x1 PUSH1 0x40 SHL SUB DUP3 GT ISZERO PUSH2 0x1DE0 JUMPI PUSH2 0x1DE0 PUSH2 0x1D5B JUMP JUMPDEST POP PUSH1 0x1F ADD PUSH1 0x1F NOT AND PUSH1 0x20 ADD SWAP1 JUMP JUMPDEST PUSH0 DUP3 PUSH1 0x1F DUP4 ADD SLT PUSH2 0x1DFD JUMPI PUSH0 PUSH0 REVERT JUMPDEST DUP2 CALLDATALOAD PUSH2 0x1E10 PUSH2 0x1E0B DUP3 PUSH2 0x1DC8 JUMP JUMPDEST PUSH2 0x1D98 JUMP JUMPDEST DUP2 DUP2 MSTORE DUP5 PUSH1 0x20 DUP4 DUP7 ADD ADD GT ISZERO PUSH2 0x1E24 JUMPI PUSH0 PUSH0 REVERT JUMPDEST DUP2 PUSH1 0x20 DUP6 ADD PUSH1 0x20 DUP4 ADD CALLDATACOPY PUSH0 SWAP2 DUP2 ADD PUSH1 0x20 ADD SWAP2 SWAP1 SWAP2 MSTORE SWAP4 SWAP3 POP POP POP JUMP JUMPDEST PUSH0 PUSH0 PUSH0 PUSH0 PUSH0 PUSH1 0xA0 DUP7 DUP9 SUB SLT ISZERO PUSH2 0x1E54 JUMPI PUSH0 PUSH0 REVERT JUMPDEST PUSH2 0x1E5D DUP7 PUSH2 0x1B52 JUMP JUMPDEST SWAP5 POP PUSH2 0x1E6B PUSH1 0x20 DUP8 ADD PUSH2 0x1B52 JUMP JUMPDEST SWAP4 POP PUSH1 0x40 DUP7 ADD CALLDATALOAD PUSH2 0x1E7B DUP2 PUSH2 0x1B14 JUMP JUMPDEST SWAP3 POP PUSH2 0x1E89 PUSH1 0x60 DUP8 ADD PUSH2 0x1D4B JUMP JUMPDEST SWAP2 POP PUSH1 0x80 DUP7 ADD CALLDATALOAD PUSH1 0x1 PUSH1 0x1 PUSH1 0x40 SHL SUB DUP2 GT ISZERO PUSH2 0x1EA3 JUMPI PUSH0 PUSH0 REVERT JUMPDEST PUSH2 0x1EAF DUP9 DUP3 DUP10 ADD PUSH2 0x1DEE JUMP JUMPDEST SWAP2 POP POP SWAP3 SWAP6 POP SWAP3 SWAP6 SWAP1 SWAP4 POP JUMP JUMPDEST PUSH1 0x1 PUSH1 0x1 PUSH1 0x80 SHL SUB DUP9 DUP2 AND DUP3 MSTORE PUSH1 0x1 PUSH1 0x1 PUSH1 0xA0 SHL SUB DUP9 DUP2 AND PUSH1 0x20 DUP5 ADD MSTORE DUP8 AND PUSH1 0x40 DUP4 ADD MSTORE DUP6 AND PUSH1 0x60 DUP3 ADD MSTORE PUSH1 0xFF DUP5 AND PUSH1 0x80 DUP3 ADD MSTORE PUSH1 0xE0 PUSH1 0xA0 DUP3 ADD DUP2 SWAP1 MSTORE PUSH0 SWAP1 PUSH2 0x1D2E SWAP1 DUP4 ADD DUP6 PUSH2 0x1BA7 JUMP JUMPDEST PUSH0 PUSH1 0x20 DUP3 ADD PUSH1 0x20 DUP4 MSTORE DUP1 DUP5 MLOAD DUP1 DUP4 MSTORE PUSH1 0x40 DUP6 ADD SWAP2 POP PUSH1 0x40 DUP2 PUSH1 0x5 SHL DUP7 ADD ADD SWAP3 POP PUSH1 0x20 DUP7 ADD PUSH0 JUMPDEST DUP3 DUP2 LT ISZERO PUSH2 0x1CBC JUMPI DUP7 DUP6 SUB PUSH1 0x3F NOT ADD DUP5 MSTORE DUP2 MLOAD DUP1 MLOAD PUSH1 0x1 PUSH1 0x1 PUSH1 0x80 SHL SUB SWAP1 DUP2 AND DUP8 MSTORE PUSH1 0x20 DUP1 DUP4 ADD MLOAD PUSH1 0x1 PUSH1 0x1 PUSH1 0xA0 SHL SUB AND SWAP1 DUP9 ADD MSTORE PUSH1 0x40 DUP1 DUP4 ADD MLOAD DUP3 AND SWAP1 DUP9 ADD MSTORE PUSH1 0x60 DUP1 DUP4 ADD MLOAD SWAP2 DUP3 AND SWAP1 DUP9 ADD MSTORE POP PUSH1 0x80 DUP2 ADD MLOAD PUSH2 0x1F90 PUSH1 0x80 DUP9 ADD DUP3 PUSH1 0xFF AND SWAP1 MSTORE JUMP JUMPDEST POP PUSH1 0xA0 DUP2 ADD MLOAD PUSH1 0xE0 PUSH1 0xA0 DUP9 ADD MSTORE PUSH2 0x1FAA PUSH1 0xE0 DUP9 ADD DUP3 PUSH2 0x1BA7 JUMP JUMPDEST SWAP1 POP PUSH1 0xC0 DUP3 ADD MLOAD SWAP2 POP PUSH2 0x1FC8 PUSH1 0xC0 DUP9 ADD DUP4 PUSH1 0x1 PUSH1 0x1 PUSH1 0x80 SHL SUB AND SWAP1 MSTORE JUMP JUMPDEST SWAP6 POP POP PUSH1 0x20 SWAP4 DUP5 ADD SWAP4 SWAP2 SWAP1 SWAP2 ADD SWAP1 PUSH1 0x1 ADD PUSH2 0x1F2D JUMP JUMPDEST PUSH0 PUSH0 PUSH0 PUSH0 PUSH1 0x80 DUP6 DUP8 SUB SLT ISZERO PUSH2 0x1FF1 JUMPI PUSH0 PUSH0 REVERT JUMPDEST PUSH2 0x1FFA DUP6 PUSH2 0x1B52 JUMP JUMPDEST SWAP4 POP PUSH1 0x20 DUP6 ADD CALLDATALOAD PUSH2 0x200A DUP2 PUSH2 0x1B14 JUMP JUMPDEST SWAP3 POP PUSH2 0x2018 PUSH1 0x40 DUP7 ADD PUSH2 0x1D4B JUMP JUMPDEST SWAP2 POP PUSH1 0x60 DUP6 ADD CALLDATALOAD PUSH1 0x1 PUSH1 0x1 PUSH1 0x40 SHL SUB DUP2 GT ISZERO PUSH2 0x2032 JUMPI PUSH0 PUSH0 REVERT JUMPDEST PUSH2 0x203E DUP8 DUP3 DUP9 ADD PUSH2 0x1DEE JUMP JUMPDEST SWAP2 POP POP SWAP3 SWAP6 SWAP2 SWAP5 POP SWAP3 POP JUMP JUMPDEST PUSH0 PUSH0 PUSH0 PUSH0 PUSH0 PUSH1 0xA0 DUP7 DUP9 SUB SLT ISZERO PUSH2 0x205E JUMPI PUSH0 PUSH0 REVERT JUMPDEST PUSH2 0x2067 DUP7 PUSH2 0x1B52 JUMP JUMPDEST SWAP5 POP PUSH1 0x20 DUP7 ADD CALLDATALOAD PUSH2 0x1E6B DUP2 PUSH2 0x1B14 JUMP JUMPDEST PUSH0 PUSH0 PUSH0 PUSH0 PUSH1 0x80 DUP6 DUP8 SUB SLT ISZERO PUSH2 0x208A JUMPI PUSH0 PUSH0 REVERT JUMPDEST PUSH2 0x2093 DUP6 PUSH2 0x1B52 JUMP JUMPDEST SWAP4 POP PUSH2 0x20A1 PUSH1 0x20 DUP7 ADD PUSH2 0x1B52 JUMP JUMPDEST SWAP3 POP PUSH2 0x20AF PUSH1 0x40 DUP7 ADD PUSH2 0x1B52 JUMP JUMPDEST SWAP2 POP PUSH2 0x20BD PUSH1 0x60 DUP7 ADD PUSH2 0x1B52 JUMP JUMPDEST SWAP1 POP SWAP3 SWAP6 SWAP2 SWAP5 POP SWAP3 POP JUMP JUMPDEST PUSH4 0x4E487B71 PUSH1 0xE0 SHL PUSH0 MSTORE PUSH1 0x32 PUSH1 0x4 MSTORE PUSH1 0x24 PUSH0 REVERT JUMPDEST PUSH1 0x1 DUP2 DUP2 SHR SWAP1 DUP3 AND DUP1 PUSH2 0x20F0 JUMPI PUSH1 0x7F DUP3 AND SWAP2 POP JUMPDEST PUSH1 0x20 DUP3 LT DUP2 SUB PUSH2 0x210E JUMPI PUSH4 0x4E487B71 PUSH1 0xE0 SHL PUSH0 MSTORE PUSH1 0x22 PUSH1 0x4 MSTORE PUSH1 0x24 PUSH0 REVERT JUMPDEST POP SWAP2 SWAP1 POP JUMP JUMPDEST DUP1 MLOAD PUSH2 0x1B68 DUP2 PUSH2 0x1B14 JUMP JUMPDEST PUSH0 DUP3 PUSH1 0x1F DUP4 ADD SLT PUSH2 0x212E JUMPI PUSH0 PUSH0 REVERT JUMPDEST DUP2 MLOAD PUSH2 0x213C PUSH2 0x1E0B DUP3 PUSH2 0x1DC8 JUMP JUMPDEST DUP2 DUP2 MSTORE DUP5 PUSH1 0x20 DUP4 DUP7 ADD ADD GT ISZERO PUSH2 0x2150 JUMPI PUSH0 PUSH0 REVERT JUMPDEST DUP2 PUSH1 0x20 DUP6 ADD PUSH1 0x20 DUP4 ADD MCOPY PUSH0 SWAP2 DUP2 ADD PUSH1 0x20 ADD SWAP2 SWAP1 SWAP2 MSTORE SWAP4 SWAP3 POP POP POP JUMP JUMPDEST DUP1 MLOAD DUP1 ISZERO ISZERO DUP2 EQ PUSH2 0x1B68 JUMPI PUSH0 PUSH0 REVERT JUMPDEST PUSH0 PUSH1 0x20 DUP3 DUP5 SUB SLT ISZERO PUSH2 0x218B JUMPI PUSH0 PUSH0 REVERT JUMPDEST DUP2 MLOAD PUSH1 0x1 PUSH1 0x1 PUSH1 0x40 SHL SUB DUP2 GT ISZERO PUSH2 0x21A0 JUMPI PUSH0 PUSH0 REVERT JUMPDEST DUP3 ADD PUSH2 0x160 DUP2 DUP6 SUB SLT ISZERO PUSH2 0x21B2 JUMPI PUSH0 PUSH0 REVERT JUMPDEST PUSH2 0x21BA PUSH2 0x1D6F JUMP JUMPDEST PUSH2 0x21C3 DUP3 PUSH2 0x2114 JUMP JUMPDEST DUP2 MSTORE PUSH2 0x21D1 PUSH1 0x20 DUP4 ADD PUSH2 0x2114 JUMP JUMPDEST PUSH1 0x20 DUP3 ADD MSTORE PUSH1 0x40 DUP3 ADD MLOAD PUSH1 0x1 PUSH1 0x1 PUSH1 0x40 SHL SUB DUP2 GT ISZERO PUSH2 0x21EE JUMPI PUSH0 PUSH0 REVERT JUMPDEST PUSH2 0x21FA DUP7 DUP3 DUP6 ADD PUSH2 0x211F JUMP JUMPDEST PUSH1 0x40 DUP4 ADD MSTORE POP PUSH1 0x60 DUP3 ADD MLOAD PUSH1 0x1 PUSH1 0x1 PUSH1 0x40 SHL SUB DUP2 GT ISZERO PUSH2 0x2218 JUMPI PUSH0 PUSH0 REVERT JUMPDEST PUSH2 0x2224 DUP7 DUP3 DUP6 ADD PUSH2 0x211F JUMP JUMPDEST PUSH1 0x60 DUP4 ADD MSTORE POP PUSH2 0x2236 PUSH1 0x80 DUP4 ADD PUSH2 0x2114 JUMP JUMPDEST PUSH1 0x80 DUP3 ADD MSTORE PUSH2 0x2247 PUSH1 0xA0 DUP4 ADD PUSH2 0x216C JUMP JUMPDEST PUSH1 0xA0 DUP3 ADD MSTORE PUSH1 0xC0 DUP3 ADD MLOAD PUSH1 0x1 PUSH1 0x1 PUSH1 0x40 SHL SUB DUP2 GT ISZERO PUSH2 0x2264 JUMPI PUSH0 PUSH0 REVERT JUMPDEST PUSH2 0x2270 DUP7 DUP3 DUP6 ADD PUSH2 0x211F JUMP JUMPDEST PUSH1 0xC0 DUP4 ADD MSTORE POP PUSH1 0xE0 DUP3 ADD MLOAD PUSH1 0x1 PUSH1 0x1 PUSH1 0x40 SHL SUB DUP2 GT ISZERO PUSH2 0x228E JUMPI PUSH0 PUSH0 REVERT JUMPDEST PUSH2 0x229A DUP7 DUP3 DUP6 ADD PUSH2 0x211F JUMP JUMPDEST PUSH1 0xE0 DUP4 ADD MSTORE POP PUSH2 0x22AD PUSH2 0x100 DUP4 ADD PUSH2 0x2114 JUMP JUMPDEST PUSH2 0x100 DUP3 ADD MSTORE PUSH2 0x22C0 PUSH2 0x120 DUP4 ADD PUSH2 0x2114 JUMP JUMPDEST PUSH2 0x120 DUP3 ADD MSTORE PUSH2 0x22D3 PUSH2 0x140 DUP4 ADD PUSH2 0x2114 JUMP JUMPDEST PUSH2 0x140 DUP3 ADD MSTORE SWAP5 SWAP4 POP POP POP POP JUMP JUMPDEST PUSH4 0x4E487B71 PUSH1 0xE0 SHL PUSH0 MSTORE PUSH1 0x12 PUSH1 0x4 MSTORE PUSH1 0x24 PUSH0 REVERT JUMPDEST PUSH4 0x4E487B71 PUSH1 0xE0 SHL PUSH0 MSTORE PUSH1 0x11 PUSH1 0x4 MSTORE PUSH1 0x24 PUSH0 REVERT JUMPDEST PUSH0 PUSH1 0x1 PUSH1 0x1 PUSH1 0x80 SHL SUB DUP4 AND DUP1 PUSH2 0x2321 JUMPI PUSH2 0x2321 PUSH2 0x22E1 JUMP JUMPDEST DUP1 PUSH1 0x1 PUSH1 0x1 PUSH1 0x80 SHL SUB DUP5 AND DIV SWAP2 POP POP SWAP3 SWAP2 POP POP JUMP JUMPDEST PUSH0 PUSH1 0x20 DUP3 DUP5 SUB SLT ISZERO PUSH2 0x2346 JUMPI PUSH0 PUSH0 REVERT JUMPDEST PUSH2 0x1BA0 DUP3 PUSH2 0x216C JUMP JUMPDEST PUSH0 PUSH1 0x1 PUSH1 0x1 PUSH1 0x80 SHL SUB DUP3 AND PUSH1 0x1 PUSH1 0x1 PUSH1 0x80 SHL SUB DUP2 SUB PUSH2 0x2370 JUMPI PUSH2 0x2370 PUSH2 0x22F5 JUMP JUMPDEST PUSH1 0x1 ADD SWAP3 SWAP2 POP POP JUMP JUMPDEST PUSH1 0x1F DUP3 GT ISZERO PUSH2 0x23C0 JUMPI DUP1 PUSH0 MSTORE PUSH1 0x20 PUSH0 KECCAK256 PUSH1 0x1F DUP5 ADD PUSH1 0x5 SHR DUP2 ADD PUSH1 0x20 DUP6 LT ISZERO PUSH2 0x239E JUMPI POP DUP1 JUMPDEST PUSH1 0x1F DUP5 ADD PUSH1 0x5 SHR DUP3 ADD SWAP2 POP JUMPDEST DUP2 DUP2 LT ISZERO PUSH2 0x23BD JUMPI PUSH0 DUP2 SSTORE PUSH1 0x1 ADD PUSH2 0x23AA JUMP JUMPDEST POP POP JUMPDEST POP POP POP JUMP JUMPDEST DUP2 MLOAD PUSH1 0x1 PUSH1 0x1 PUSH1 0x40 SHL SUB DUP2 GT ISZERO PUSH2 0x23DE JUMPI PUSH2 0x23DE PUSH2 0x1D5B JUMP JUMPDEST PUSH2 0x23F2 DUP2 PUSH2 0x23EC DUP5 SLOAD PUSH2 0x20DC JUMP JUMPDEST DUP5 PUSH2 0x2379 JUMP JUMPDEST PUSH1 0x20 PUSH1 0x1F DUP3 GT PUSH1 0x1 DUP2 EQ PUSH2 0x2424 JUMPI PUSH0 DUP4 ISZERO PUSH2 0x240D JUMPI POP DUP5 DUP3 ADD MLOAD JUMPDEST PUSH0 NOT PUSH1 0x3 DUP6 SWAP1 SHL SHR NOT AND PUSH1 0x1 DUP5 SWAP1 SHL OR DUP5 SSTORE PUSH2 0x23BD JUMP JUMPDEST PUSH0 DUP5 DUP2 MSTORE PUSH1 0x20 DUP2 KECCAK256 PUSH1 0x1F NOT DUP6 AND SWAP2 JUMPDEST DUP3 DUP2 LT ISZERO PUSH2 0x2453 JUMPI DUP8 DUP6 ADD MLOAD DUP3 SSTORE PUSH1 0x20 SWAP5 DUP6 ADD SWAP5 PUSH1 0x1 SWAP1 SWAP3 ADD SWAP2 ADD PUSH2 0x2433 JUMP JUMPDEST POP DUP5 DUP3 LT ISZERO PUSH2 0x2470 JUMPI DUP7 DUP5 ADD MLOAD PUSH0 NOT PUSH1 0x3 DUP8 SWAP1 SHL PUSH1 0xF8 AND SHR NOT AND DUP2 SSTORE JUMPDEST POP POP POP POP PUSH1 0x1 SWAP1 DUP2 SHL ADD SWAP1 SSTORE POP JUMP JUMPDEST DUP1 DUP3 ADD DUP1 DUP3 GT ISZERO PUSH2 0x1AB7 JUMPI PUSH2 0x1AB7 PUSH2 0x22F5 JUMP JUMPDEST PUSH0 DUP3 PUSH2 0x24A0 JUMPI PUSH2 0x24A0 PUSH2 0x22E1 JUMP JUMPDEST POP DIV SWAP1 JUMP JUMPDEST PUSH1 0x1 PUSH1 0x1 PUSH1 0x80 SHL SUB DUP2 DUP2 AND DUP4 DUP3 AND ADD SWAP1 DUP2 GT ISZERO PUSH2 0x1AB7 JUMPI PUSH2 0x1AB7 PUSH2 0x22F5 JUMP INVALID LOG2 PUSH5 0x6970667358 0x22 SLT KECCAK256 0xAA 0xC7 BALANCE 0xAD EXTCODEHASH LOG4 RETURNDATACOPY CREATE 0x4F 0x2D RETF KECCAK256 0xBF PC DUPN 0x1A 0xD8 PUSH26 0x35AAEF7A9A8CCA595799C0E15D3664736F6C634300081E003300 "
				},
				"gasEstimates": {
					"creation": {
						"codeDepositCost": "1893200",
						"executionCost": "1996",
						"totalCost": "1895196"
					},
					"external": {
						"foodAppContractAddress()": "2381",
						"getAverageMenuItemRating(uint128)": "infinite",
						"getAverageStaffRating(address)": "infinite",
						"getMenuItemReviews(uint128)": "infinite",
						"getStaffReviews(address)": "infinite",
						"initialize(address,address,address,address)": "infinite",
						"menuItemReviews(uint128)": "infinite",
						"menuManager()": "2359",
						"nextReviewId()": "2414",
						"owner()": "2419",
						"rateMenuItem(address,uint128,uint128,uint8,string)": "infinite",
						"rateRestaurant(address,uint128,uint8,string)": "infinite",
						"rateStaff(address,address,uint128,uint8,string)": "infinite",
						"renounceOwnership()": "infinite",
						"restaurantManager()": "2382",
						"reviews(uint128)": "infinite",
						"reviewsByMenuItem(uint128,uint256)": "6531",
						"reviewsByRestaurant(uint128,uint256)": "6444",
						"reviewsByStaff(address,uint256)": "6494",
						"staffReviews(uint128)": "infinite",
						"transferOwnership(address)": "28475"
					}
				},
				"methodIdentifiers": {
					"foodAppContractAddress()": "832dbdd9",
					"getAverageMenuItemRating(uint128)": "6df37098",
					"getAverageStaffRating(address)": "98e8d802",
					"getMenuItemReviews(uint128)": "8e5332c8",
					"getStaffReviews(address)": "3f6c7347",
					"initialize(address,address,address,address)": "f8c8765e",
					"menuItemReviews(uint128)": "64dd1ee8",
					"menuManager()": "5059e95b",
					"nextReviewId()": "396e77e7",
					"owner()": "8da5cb5b",
					"rateMenuItem(address,uint128,uint128,uint8,string)": "e6853d8a",
					"rateRestaurant(address,uint128,uint8,string)": "df808ac5",
					"rateStaff(address,address,uint128,uint8,string)": "7cb9385e",
					"renounceOwnership()": "715018a6",
					"restaurantManager()": "2134b6f6",
					"reviews(uint128)": "921a0238",
					"reviewsByMenuItem(uint128,uint256)": "7276d2d4",
					"reviewsByRestaurant(uint128,uint256)": "1f7f08e7",
					"reviewsByStaff(address,uint256)": "36c38487",
					"staffReviews(uint128)": "87f82bd3",
					"transferOwnership(address)": "f2fde38b"
				}
			},
			"storageLayout": {
				"storage": [
					{
						"astId": 521,
						"contract": "contracts/ReviewManager.sol:ReviewManager",
						"label": "nextReviewId",
						"offset": 0,
						"slot": "0",
						"type": "t_uint128"
					},
					{
						"astId": 526,
						"contract": "contracts/ReviewManager.sol:ReviewManager",
						"label": "reviews",
						"offset": 0,
						"slot": "1",
						"type": "t_mapping(t_uint128,t_struct(Review)1531_storage)"
					},
					{
						"astId": 531,
						"contract": "contracts/ReviewManager.sol:ReviewManager",
						"label": "staffReviews",
						"offset": 0,
						"slot": "2",
						"type": "t_mapping(t_uint128,t_struct(StaffReview)1546_storage)"
					},
					{
						"astId": 536,
						"contract": "contracts/ReviewManager.sol:ReviewManager",
						"label": "menuItemReviews",
						"offset": 0,
						"slot": "3",
						"type": "t_mapping(t_uint128,t_struct(MenuItemReview)1561_storage)"
					},
					{
						"astId": 541,
						"contract": "contracts/ReviewManager.sol:ReviewManager",
						"label": "reviewsByRestaurant",
						"offset": 0,
						"slot": "4",
						"type": "t_mapping(t_uint128,t_array(t_uint128)dyn_storage)"
					},
					{
						"astId": 546,
						"contract": "contracts/ReviewManager.sol:ReviewManager",
						"label": "reviewsByStaff",
						"offset": 0,
						"slot": "5",
						"type": "t_mapping(t_address,t_array(t_uint128)dyn_storage)"
					},
					{
						"astId": 551,
						"contract": "contracts/ReviewManager.sol:ReviewManager",
						"label": "reviewsByMenuItem",
						"offset": 0,
						"slot": "6",
						"type": "t_mapping(t_uint128,t_array(t_uint128)dyn_storage)"
					},
					{
						"astId": 554,
						"contract": "contracts/ReviewManager.sol:ReviewManager",
						"label": "menuManager",
						"offset": 0,
						"slot": "7",
						"type": "t_contract(IMenuManager)1293"
					},
					{
						"astId": 556,
						"contract": "contracts/ReviewManager.sol:ReviewManager",
						"label": "foodAppContractAddress",
						"offset": 0,
						"slot": "8",
						"type": "t_address"
					},
					{
						"astId": 559,
						"contract": "contracts/ReviewManager.sol:ReviewManager",
						"label": "restaurantManager",
						"offset": 0,
						"slot": "9",
						"type": "t_contract(IRestaurantManager)1324"
					}
				],
				"types": {
					"t_address": {
						"encoding": "inplace",
						"label": "address",
						"numberOfBytes": "20"
					},
					"t_array(t_uint128)dyn_storage": {
						"base": "t_uint128",
						"encoding": "dynamic_array",
						"label": "uint128[]",
						"numberOfBytes": "32"
					},
					"t_contract(IMenuManager)1293": {
						"encoding": "inplace",
						"label": "contract IMenuManager",
						"numberOfBytes": "20"
					},
					"t_contract(IRestaurantManager)1324": {
						"encoding": "inplace",
						"label": "contract IRestaurantManager",
						"numberOfBytes": "20"
					},
					"t_mapping(t_address,t_array(t_uint128)dyn_storage)": {
						"encoding": "mapping",
						"key": "t_address",
						"label": "mapping(address => uint128[])",
						"numberOfBytes": "32",
						"value": "t_array(t_uint128)dyn_storage"
					},
					"t_mapping(t_uint128,t_array(t_uint128)dyn_storage)": {
						"encoding": "mapping",
						"key": "t_uint128",
						"label": "mapping(uint128 => uint128[])",
						"numberOfBytes": "32",
						"value": "t_array(t_uint128)dyn_storage"
					},
					"t_mapping(t_uint128,t_struct(MenuItemReview)1561_storage)": {
						"encoding": "mapping",
						"key": "t_uint128",
						"label": "mapping(uint128 => struct MenuItemReview)",
						"numberOfBytes": "32",
						"value": "t_struct(MenuItemReview)1561_storage"
					},
					"t_mapping(t_uint128,t_struct(Review)1531_storage)": {
						"encoding": "mapping",
						"key": "t_uint128",
						"label": "mapping(uint128 => struct Review)",
						"numberOfBytes": "32",
						"value": "t_struct(Review)1531_storage"
					},
					"t_mapping(t_uint128,t_struct(StaffReview)1546_storage)": {
						"encoding": "mapping",
						"key": "t_uint128",
						"label": "mapping(uint128 => struct StaffReview)",
						"numberOfBytes": "32",
						"value": "t_struct(StaffReview)1546_storage"
					},
					"t_string_storage": {
						"encoding": "bytes",
						"label": "string",
						"numberOfBytes": "32"
					},
					"t_struct(MenuItemReview)1561_storage": {
						"encoding": "inplace",
						"label": "struct MenuItemReview",
						"members": [
							{
								"astId": 1548,
								"contract": "contracts/ReviewManager.sol:ReviewManager",
								"label": "id",
								"offset": 0,
								"slot": "0",
								"type": "t_uint128"
							},
							{
								"astId": 1550,
								"contract": "contracts/ReviewManager.sol:ReviewManager",
								"label": "customer",
								"offset": 0,
								"slot": "1",
								"type": "t_address"
							},
							{
								"astId": 1552,
								"contract": "contracts/ReviewManager.sol:ReviewManager",
								"label": "menuItemId",
								"offset": 0,
								"slot": "2",
								"type": "t_uint128"
							},
							{
								"astId": 1554,
								"contract": "contracts/ReviewManager.sol:ReviewManager",
								"label": "restaurantId",
								"offset": 16,
								"slot": "2",
								"type": "t_uint128"
							},
							{
								"astId": 1556,
								"contract": "contracts/ReviewManager.sol:ReviewManager",
								"label": "rating",
								"offset": 0,
								"slot": "3",
								"type": "t_uint8"
							},
							{
								"astId": 1558,
								"contract": "contracts/ReviewManager.sol:ReviewManager",
								"label": "comment",
								"offset": 0,
								"slot": "4",
								"type": "t_string_storage"
							},
							{
								"astId": 1560,
								"contract": "contracts/ReviewManager.sol:ReviewManager",
								"label": "timestamp",
								"offset": 0,
								"slot": "5",
								"type": "t_uint128"
							}
						],
						"numberOfBytes": "192"
					},
					"t_struct(Review)1531_storage": {
						"encoding": "inplace",
						"label": "struct Review",
						"members": [
							{
								"astId": 1518,
								"contract": "contracts/ReviewManager.sol:ReviewManager",
								"label": "id",
								"offset": 0,
								"slot": "0",
								"type": "t_uint128"
							},
							{
								"astId": 1520,
								"contract": "contracts/ReviewManager.sol:ReviewManager",
								"label": "customer",
								"offset": 0,
								"slot": "1",
								"type": "t_address"
							},
							{
								"astId": 1522,
								"contract": "contracts/ReviewManager.sol:ReviewManager",
								"label": "staff",
								"offset": 0,
								"slot": "2",
								"type": "t_address"
							},
							{
								"astId": 1524,
								"contract": "contracts/ReviewManager.sol:ReviewManager",
								"label": "restaurantId",
								"offset": 0,
								"slot": "3",
								"type": "t_uint128"
							},
							{
								"astId": 1526,
								"contract": "contracts/ReviewManager.sol:ReviewManager",
								"label": "rating",
								"offset": 16,
								"slot": "3",
								"type": "t_uint8"
							},
							{
								"astId": 1528,
								"contract": "contracts/ReviewManager.sol:ReviewManager",
								"label": "comment",
								"offset": 0,
								"slot": "4",
								"type": "t_string_storage"
							},
							{
								"astId": 1530,
								"contract": "contracts/ReviewManager.sol:ReviewManager",
								"label": "timestamp",
								"offset": 0,
								"slot": "5",
								"type": "t_uint128"
							}
						],
						"numberOfBytes": "192"
					},
					"t_struct(StaffReview)1546_storage": {
						"encoding": "inplace",
						"label": "struct StaffReview",
						"members": [
							{
								"astId": 1533,
								"contract": "contracts/ReviewManager.sol:ReviewManager",
								"label": "id",
								"offset": 0,
								"slot": "0",
								"type": "t_uint128"
							},
							{
								"astId": 1535,
								"contract": "contracts/ReviewManager.sol:ReviewManager",
								"label": "customer",
								"offset": 0,
								"slot": "1",
								"type": "t_address"
							},
							{
								"astId": 1537,
								"contract": "contracts/ReviewManager.sol:ReviewManager",
								"label": "staff",
								"offset": 0,
								"slot": "2",
								"type": "t_address"
							},
							{
								"astId": 1539,
								"contract": "contracts/ReviewManager.sol:ReviewManager",
								"label": "restaurantId",
								"offset": 0,
								"slot": "3",
								"type": "t_uint128"
							},
							{
								"astId": 1541,
								"contract": "contracts/ReviewManager.sol:ReviewManager",
								"label": "rating",
								"offset": 16,
								"slot": "3",
								"type": "t_uint8"
							},
							{
								"astId": 1543,
								"contract": "contracts/ReviewManager.sol:ReviewManager",
								"label": "comment",
								"offset": 0,
								"slot": "4",
								"type": "t_string_storage"
							},
							{
								"astId": 1545,
								"contract": "contracts/ReviewManager.sol:ReviewManager",
								"label": "timestamp",
								"offset": 0,
								"slot": "5",
								"type": "t_uint128"
							}
						],
						"numberOfBytes": "192"
					},
					"t_uint128": {
						"encoding": "inplace",
						"label": "uint128",
						"numberOfBytes": "16"
					},
					"t_uint8": {
						"encoding": "inplace",
						"label": "uint8",
						"numberOfBytes": "1"
					}
				}
			},
			"userdoc": {
				"kind": "user",
				"methods": {},
				"version": 1
			}
		}
	}
}