{
	"contracts/ReviewManager.sol": {
		"ReviewManager": {
			"abi": [
				{
					"inputs": [],
					"name": "InvalidInitialization",
					"type": "error"
				},
				{
					"inputs": [],
					"name": "NotInitializing",
					"type": "error"
				},
				{
					"inputs": [
						{
							"internalType": "address",
							"name": "owner",
							"type": "address"
						}
					],
					"name": "OwnableInvalidOwner",
					"type": "error"
				},
				{
					"inputs": [
						{
							"internalType": "address",
							"name": "account",
							"type": "address"
						}
					],
					"name": "OwnableUnauthorizedAccount",
					"type": "error"
				},
				{
					"inputs": [],
					"name": "ReviewManager__InvalidAddress",
					"type": "error"
				},
				{
					"inputs": [],
					"name": "ReviewManager__InvalidRating",
					"type": "error"
				},
				{
					"inputs": [],
					"name": "ReviewManager__NotFoodApp",
					"type": "error"
				},
				{
					"inputs": [],
					"name": "ReviewManager__RestaurantNotFound",
					"type": "error"
				},
				{
					"anonymous": false,
					"inputs": [
						{
							"indexed": false,
							"internalType": "uint64",
							"name": "version",
							"type": "uint64"
						}
					],
					"name": "Initialized",
					"type": "event"
				},
				{
					"anonymous": false,
					"inputs": [
						{
							"indexed": true,
							"internalType": "address",
							"name": "previousOwner",
							"type": "address"
						},
						{
							"indexed": true,
							"internalType": "address",
							"name": "newOwner",
							"type": "address"
						}
					],
					"name": "OwnershipTransferred",
					"type": "event"
				},
				{
					"anonymous": false,
					"inputs": [
						{
							"indexed": true,
							"internalType": "uint128",
							"name": "reviewId",
							"type": "uint128"
						},
						{
							"indexed": true,
							"internalType": "address",
							"name": "customer",
							"type": "address"
						},
						{
							"indexed": true,
							"internalType": "uint128",
							"name": "restaurantId",
							"type": "uint128"
						},
						{
							"indexed": false,
							"internalType": "uint8",
							"name": "rating",
							"type": "uint8"
						}
					],
					"name": "RestaurantRated",
					"type": "event"
				},
				{
					"inputs": [],
					"name": "foodAppContractAddress",
					"outputs": [
						{
							"internalType": "address",
							"name": "",
							"type": "address"
						}
					],
					"stateMutability": "view",
					"type": "function"
				},
				{
					"inputs": [
						{
							"internalType": "address",
							"name": "_foodAppContract",
							"type": "address"
						},
						{
							"internalType": "address",
							"name": "_restaurantManagerAddress",
							"type": "address"
						},
						{
							"internalType": "address",
							"name": "_owner",
							"type": "address"
						}
					],
					"name": "initialize",
					"outputs": [],
					"stateMutability": "nonpayable",
					"type": "function"
				},
				{
					"inputs": [],
					"name": "menuManager",
					"outputs": [
						{
							"internalType": "contract IMenuManager",
							"name": "",
							"type": "address"
						}
					],
					"stateMutability": "view",
					"type": "function"
				},
				{
					"inputs": [],
					"name": "nextReviewId",
					"outputs": [
						{
							"internalType": "uint128",
							"name": "",
							"type": "uint128"
						}
					],
					"stateMutability": "view",
					"type": "function"
				},
				{
					"inputs": [],
					"name": "owner",
					"outputs": [
						{
							"internalType": "address",
							"name": "",
							"type": "address"
						}
					],
					"stateMutability": "view",
					"type": "function"
				},
				{
					"inputs": [
						{
							"internalType": "address",
							"name": "customerEoa",
							"type": "address"
						},
						{
							"internalType": "uint128",
							"name": "restaurantId",
							"type": "uint128"
						},
						{
							"internalType": "uint8",
							"name": "rating",
							"type": "uint8"
						},
						{
							"internalType": "string",
							"name": "comment",
							"type": "string"
						}
					],
					"name": "rateRestaurant",
					"outputs": [],
					"stateMutability": "nonpayable",
					"type": "function"
				},
				{
					"inputs": [],
					"name": "renounceOwnership",
					"outputs": [],
					"stateMutability": "nonpayable",
					"type": "function"
				},
				{
					"inputs": [],
					"name": "restaurantManager",
					"outputs": [
						{
							"internalType": "contract IRestaurantManager",
							"name": "",
							"type": "address"
						}
					],
					"stateMutability": "view",
					"type": "function"
				},
				{
					"inputs": [
						{
							"internalType": "uint128",
							"name": "",
							"type": "uint128"
						}
					],
					"name": "reviews",
					"outputs": [
						{
							"internalType": "uint128",
							"name": "id",
							"type": "uint128"
						},
						{
							"internalType": "address",
							"name": "customer",
							"type": "address"
						},
						{
							"internalType": "uint128",
							"name": "restaurantId",
							"type": "uint128"
						},
						{
							"internalType": "uint8",
							"name": "rating",
							"type": "uint8"
						},
						{
							"internalType": "string",
							"name": "comment",
							"type": "string"
						},
						{
							"internalType": "uint128",
							"name": "timestamp",
							"type": "uint128"
						}
					],
					"stateMutability": "view",
					"type": "function"
				},
				{
					"inputs": [
						{
							"internalType": "uint128",
							"name": "",
							"type": "uint128"
						},
						{
							"internalType": "uint256",
							"name": "",
							"type": "uint256"
						}
					],
					"name": "reviewsByRestaurant",
					"outputs": [
						{
							"internalType": "uint128",
							"name": "",
							"type": "uint128"
						}
					],
					"stateMutability": "view",
					"type": "function"
				},
				{
					"inputs": [
						{
							"internalType": "address",
							"name": "newOwner",
							"type": "address"
						}
					],
					"name": "transferOwnership",
					"outputs": [],
					"stateMutability": "nonpayable",
					"type": "function"
				}
			],
			"devdoc": {
				"errors": {
					"InvalidInitialization()": [
						{
							"details": "The contract is already initialized."
						}
					],
					"NotInitializing()": [
						{
							"details": "The contract is not initializing."
						}
					],
					"OwnableInvalidOwner(address)": [
						{
							"details": "The owner is not a valid owner account. (eg. `address(0)`)"
						}
					],
					"OwnableUnauthorizedAccount(address)": [
						{
							"details": "The caller account is not authorized to perform an operation."
						}
					]
				},
				"events": {
					"Initialized(uint64)": {
						"details": "Triggered when the contract has been initialized or reinitialized."
					}
				},
				"kind": "dev",
				"methods": {
					"owner()": {
						"details": "Returns the address of the current owner."
					},
					"renounceOwnership()": {
						"details": "Leaves the contract without owner. It will not be possible to call `onlyOwner` functions. Can only be called by the current owner. NOTE: Renouncing ownership will leave the contract without an owner, thereby disabling any functionality that is only available to the owner."
					},
					"transferOwnership(address)": {
						"details": "Transfers ownership of the contract to a new account (`newOwner`). Can only be called by the current owner."
					}
				},
				"version": 1
			},
			"evm": {
				"assembly": "    /* \"contracts/ReviewManager.sol\":311:2899  contract ReviewManager is OwnableUpgradeable, IReviewManager {... */\n  mstore(0x40, 0x80)\n  callvalue\n  dup1\n  iszero\n  tag_1\n  jumpi\n  revert(0x00, 0x00)\ntag_1:\n  pop\n  dataSize(sub_0)\n  dup1\n  dataOffset(sub_0)\n  0x00\n  codecopy\n  0x00\n  return\nstop\n\nsub_0: assembly {\n        /* \"contracts/ReviewManager.sol\":311:2899  contract ReviewManager is OwnableUpgradeable, IReviewManager {... */\n      mstore(0x40, 0x80)\n      callvalue\n      dup1\n      iszero\n      tag_1\n      jumpi\n      revert(0x00, 0x00)\n    tag_1:\n      pop\n      jumpi(tag_2, lt(calldatasize, 0x04))\n      shr(0xe0, calldataload(0x00))\n      dup1\n      0x1f7f08e7\n      eq\n      tag_3\n      jumpi\n      dup1\n      0x2134b6f6\n      eq\n      tag_4\n      jumpi\n      dup1\n      0x396e77e7\n      eq\n      tag_5\n      jumpi\n      dup1\n      0x5059e95b\n      eq\n      tag_6\n      jumpi\n      dup1\n      0x715018a6\n      eq\n      tag_7\n      jumpi\n      dup1\n      0x832dbdd9\n      eq\n      tag_8\n      jumpi\n      dup1\n      0x8da5cb5b\n      eq\n      tag_9\n      jumpi\n      dup1\n      0x921a0238\n      eq\n      tag_10\n      jumpi\n      dup1\n      0xc0c53b8b\n      eq\n      tag_11\n      jumpi\n      dup1\n      0xdf808ac5\n      eq\n      tag_12\n      jumpi\n      dup1\n      0xf2fde38b\n      eq\n      tag_13\n      jumpi\n    tag_2:\n      revert(0x00, 0x00)\n        /* \"contracts/ReviewManager.sol\":461:517  mapping(uint128 => uint128[]) public reviewsByRestaurant */\n    tag_3:\n      tag_14\n      tag_15\n      calldatasize\n      0x04\n      tag_16\n      jump\t// in\n    tag_15:\n      tag_17\n      jump\t// in\n    tag_14:\n      mload(0x40)\n      tag_18\n      swap2\n      swap1\n      tag_19\n      jump\t// in\n    tag_18:\n      mload(0x40)\n      dup1\n      swap2\n      sub\n      swap1\n      return\n        /* \"contracts/ReviewManager.sol\":611:654  IRestaurantManager public restaurantManager */\n    tag_4:\n      sload(0x05)\n      tag_20\n      swap1\n      sub(shl(0xa0, 0x01), 0x01)\n      and\n      dup2\n      jump\n    tag_20:\n      mload(0x40)\n      tag_18\n      swap2\n      swap1\n      tag_23\n      jump\t// in\n        /* \"contracts/ReviewManager.sol\":379:406  uint128 public nextReviewId */\n    tag_5:\n      sload(0x00)\n      tag_14\n      swap1\n      sub(shl(0x80, 0x01), 0x01)\n      and\n      dup2\n      jump\n        /* \"contracts/ReviewManager.sol\":527:558  IMenuManager public menuManager */\n    tag_6:\n      sload(0x03)\n      tag_20\n      swap1\n      sub(shl(0xa0, 0x01), 0x01)\n      and\n      dup2\n      jump\n        /* \"@openzeppelin/contracts-upgradeable/access/OwnableUpgradeable.sol\":3155:3256  function renounceOwnership() public virtual onlyOwner {... */\n    tag_7:\n      tag_31\n      tag_32\n      jump\t// in\n    tag_31:\n      stop\n        /* \"contracts/ReviewManager.sol\":567:604  address public foodAppContractAddress */\n    tag_8:\n      sload(0x04)\n      tag_20\n      swap1\n      sub(shl(0xa0, 0x01), 0x01)\n      and\n      dup2\n      jump\n        /* \"@openzeppelin/contracts-upgradeable/access/OwnableUpgradeable.sol\":2441:2585  function owner() public view virtual returns (address) {... */\n    tag_9:\n      tag_20\n      tag_38\n      jump\t// in\n        /* \"contracts/ReviewManager.sol\":413:454  mapping(uint128 => Review) public reviews */\n    tag_10:\n      tag_40\n      tag_41\n      calldatasize\n      0x04\n      tag_42\n      jump\t// in\n    tag_41:\n      tag_43\n      jump\t// in\n    tag_40:\n      mload(0x40)\n      tag_18\n      swap7\n      swap6\n      swap5\n      swap4\n      swap3\n      swap2\n      swap1\n      tag_45\n      jump\t// in\n        /* \"contracts/ReviewManager.sol\":1112:1552  function initialize(address _foodAppContract, address _restaurantManagerAddress, address _owner) public initializer {... */\n    tag_11:\n      tag_31\n      tag_47\n      calldatasize\n      0x04\n      tag_48\n      jump\t// in\n    tag_47:\n      tag_49\n      jump\t// in\n        /* \"contracts/ReviewManager.sol\":1560:2896  function rateRestaurant(address customerEoa, uint128 restaurantId, uint8 rating, string memory comment) external override onlyFoodAppContract {... */\n    tag_12:\n      tag_31\n      tag_51\n      calldatasize\n      0x04\n      tag_52\n      jump\t// in\n    tag_51:\n      tag_53\n      jump\t// in\n        /* \"@openzeppelin/contracts-upgradeable/access/OwnableUpgradeable.sol\":3405:3620  function transferOwnership(address newOwner) public virtual onlyOwner {... */\n    tag_13:\n      tag_31\n      tag_55\n      calldatasize\n      0x04\n      tag_56\n      jump\t// in\n    tag_55:\n      tag_57\n      jump\t// in\n        /* \"contracts/ReviewManager.sol\":461:517  mapping(uint128 => uint128[]) public reviewsByRestaurant */\n    tag_17:\n      mstore(0x20, 0x02)\n      dup2\n      0x00\n      mstore\n      keccak256(0x00, 0x40)\n      dup2\n      dup2\n      sload\n      dup2\n      lt\n      tag_58\n      jumpi\n      0x00\n      dup1\n      revert\n    tag_58:\n      swap1\n      0x00\n      mstore\n      keccak256(0x00, 0x20)\n      swap1\n      0x02\n      swap2\n      dup3\n      dup3\n      div\n      add\n      swap2\n      swap1\n      mod\n      0x10\n      mul\n      swap2\n      pop\n      swap2\n      pop\n      swap1\n      sload\n      swap1\n      0x0100\n      exp\n      swap1\n      div\n      sub(shl(0x80, 0x01), 0x01)\n      and\n      dup2\n      jump\t// out\n        /* \"@openzeppelin/contracts-upgradeable/access/OwnableUpgradeable.sol\":3155:3256  function renounceOwnership() public virtual onlyOwner {... */\n    tag_32:\n        /* \"@openzeppelin/contracts-upgradeable/access/OwnableUpgradeable.sol\":2334:2347  _checkOwner() */\n      tag_61\n        /* \"@openzeppelin/contracts-upgradeable/access/OwnableUpgradeable.sol\":2334:2345  _checkOwner */\n      tag_62\n        /* \"@openzeppelin/contracts-upgradeable/access/OwnableUpgradeable.sol\":2334:2347  _checkOwner() */\n      jump\t// in\n    tag_61:\n        /* \"@openzeppelin/contracts-upgradeable/access/OwnableUpgradeable.sol\":3219:3249  _transferOwnership(address(0)) */\n      tag_64\n        /* \"@openzeppelin/contracts-upgradeable/access/OwnableUpgradeable.sol\":3246:3247  0 */\n      0x00\n        /* \"@openzeppelin/contracts-upgradeable/access/OwnableUpgradeable.sol\":3219:3237  _transferOwnership */\n      tag_65\n        /* \"@openzeppelin/contracts-upgradeable/access/OwnableUpgradeable.sol\":3219:3249  _transferOwnership(address(0)) */\n      jump\t// in\n    tag_64:\n        /* \"@openzeppelin/contracts-upgradeable/access/OwnableUpgradeable.sol\":3155:3256  function renounceOwnership() public virtual onlyOwner {... */\n      jump\t// out\n        /* \"@openzeppelin/contracts-upgradeable/access/OwnableUpgradeable.sol\":2441:2585  function owner() public view virtual returns (address) {... */\n    tag_38:\n        /* \"@openzeppelin/contracts-upgradeable/access/OwnableUpgradeable.sol\":2487:2494  address */\n      0x00\n        /* \"@openzeppelin/contracts-upgradeable/access/OwnableUpgradeable.sol\":2506:2530  OwnableStorage storage $ */\n      0x00\n        /* \"@openzeppelin/contracts-upgradeable/access/OwnableUpgradeable.sol\":2533:2553  _getOwnableStorage() */\n      tag_67\n        /* \"@openzeppelin/contracts-upgradeable/access/OwnableUpgradeable.sol\":2533:2551  _getOwnableStorage */\n      tag_68\n        /* \"@openzeppelin/contracts-upgradeable/access/OwnableUpgradeable.sol\":2533:2553  _getOwnableStorage() */\n      jump\t// in\n    tag_67:\n        /* \"@openzeppelin/contracts-upgradeable/access/OwnableUpgradeable.sol\":2570:2578  $._owner */\n      sload\n      sub(shl(0xa0, 0x01), 0x01)\n      and\n      swap3\n        /* \"@openzeppelin/contracts-upgradeable/access/OwnableUpgradeable.sol\":2441:2585  function owner() public view virtual returns (address) {... */\n      swap2\n      pop\n      pop\n      jump\t// out\n        /* \"contracts/ReviewManager.sol\":413:454  mapping(uint128 => Review) public reviews */\n    tag_43:\n      0x01\n      0x20\n      dup2\n      swap1\n      mstore\n      0x00\n      swap2\n      dup3\n      mstore\n      0x40\n      swap1\n      swap2\n      keccak256\n      dup1\n      sload\n      swap2\n      dup2\n      add\n      sload\n      0x02\n      dup3\n      add\n      sload\n      0x03\n      dup4\n      add\n      dup1\n      sload\n      sub(shl(0x80, 0x01), 0x01)\n      swap6\n      dup7\n      and\n      swap6\n      sub(shl(0xa0, 0x01), 0x01)\n      swap1\n      swap5\n      and\n      swap5\n      swap4\n      dup4\n      and\n      swap4\n      shl(0x80, 0x01)\n      swap1\n      swap4\n      div\n      0xff\n      and\n      swap3\n      swap2\n      swap1\n      tag_69\n      swap1\n      tag_70\n      jump\t// in\n    tag_69:\n      dup1\n      0x1f\n      add\n      0x20\n      dup1\n      swap2\n      div\n      mul\n      0x20\n      add\n      mload(0x40)\n      swap1\n      dup2\n      add\n      0x40\n      mstore\n      dup1\n      swap3\n      swap2\n      swap1\n      dup2\n      dup2\n      mstore\n      0x20\n      add\n      dup3\n      dup1\n      sload\n      tag_71\n      swap1\n      tag_70\n      jump\t// in\n    tag_71:\n      dup1\n      iszero\n      tag_72\n      jumpi\n      dup1\n      0x1f\n      lt\n      tag_73\n      jumpi\n      0x0100\n      dup1\n      dup4\n      sload\n      div\n      mul\n      dup4\n      mstore\n      swap2\n      0x20\n      add\n      swap2\n      jump(tag_72)\n    tag_73:\n      dup3\n      add\n      swap2\n      swap1\n      0x00\n      mstore\n      keccak256(0x00, 0x20)\n      swap1\n    tag_74:\n      dup2\n      sload\n      dup2\n      mstore\n      swap1\n      0x01\n      add\n      swap1\n      0x20\n      add\n      dup1\n      dup4\n      gt\n      tag_74\n      jumpi\n      dup3\n      swap1\n      sub\n      0x1f\n      and\n      dup3\n      add\n      swap2\n    tag_72:\n      pop\n      pop\n      pop\n      0x04\n      swap1\n      swap4\n      add\n      sload\n      swap2\n      swap3\n      pop\n      pop\n      sub(shl(0x80, 0x01), 0x01)\n      and\n      dup7\n      jump\t// out\n        /* \"contracts/ReviewManager.sol\":1112:1552  function initialize(address _foodAppContract, address _restaurantManagerAddress, address _owner) public initializer {... */\n    tag_49:\n        /* \"@openzeppelin/contracts-upgradeable/proxy/utils/Initializable.sol\":4158:4188  InitializableStorage storage $ */\n      0x00\n        /* \"@openzeppelin/contracts-upgradeable/proxy/utils/Initializable.sol\":4191:4217  _getInitializableStorage() */\n      tag_76\n        /* \"@openzeppelin/contracts-upgradeable/proxy/utils/Initializable.sol\":4191:4215  _getInitializableStorage */\n      tag_77\n        /* \"@openzeppelin/contracts-upgradeable/proxy/utils/Initializable.sol\":4191:4217  _getInitializableStorage() */\n      jump\t// in\n    tag_76:\n        /* \"@openzeppelin/contracts-upgradeable/proxy/utils/Initializable.sol\":4302:4317  $._initializing */\n      dup1\n      sload\n        /* \"@openzeppelin/contracts-upgradeable/proxy/utils/Initializable.sol\":4158:4217  InitializableStorage storage $ = _getInitializableStorage() */\n      swap1\n      swap2\n      pop\n        /* \"@openzeppelin/contracts-upgradeable/proxy/utils/Initializable.sol\":4302:4317  $._initializing */\n      0xff\n      shl(0x40, 0x01)\n      dup3\n      div\n      and\n        /* \"@openzeppelin/contracts-upgradeable/proxy/utils/Initializable.sol\":4301:4317  !$._initializing */\n      iszero\n      swap1\n      sub(shl(0x40, 0x01), 0x01)\n        /* \"@openzeppelin/contracts-upgradeable/proxy/utils/Initializable.sol\":4348:4362  $._initialized */\n      and\n        /* \"@openzeppelin/contracts-upgradeable/proxy/utils/Initializable.sol\":4279:4298  bool isTopLevelCall */\n      0x00\n        /* \"@openzeppelin/contracts-upgradeable/proxy/utils/Initializable.sol\":4724:4740  initialized == 0 */\n      dup2\n      iszero\n        /* \"@openzeppelin/contracts-upgradeable/proxy/utils/Initializable.sol\":4724:4758  initialized == 0 && isTopLevelCall */\n      dup1\n      iszero\n      tag_78\n      jumpi\n      pop\n        /* \"@openzeppelin/contracts-upgradeable/proxy/utils/Initializable.sol\":4744:4758  isTopLevelCall */\n      dup3\n        /* \"@openzeppelin/contracts-upgradeable/proxy/utils/Initializable.sol\":4724:4758  initialized == 0 && isTopLevelCall */\n    tag_78:\n        /* \"@openzeppelin/contracts-upgradeable/proxy/utils/Initializable.sol\":4704:4758  bool initialSetup = initialized == 0 && isTopLevelCall */\n      swap1\n      pop\n        /* \"@openzeppelin/contracts-upgradeable/proxy/utils/Initializable.sol\":4768:4785  bool construction */\n      0x00\n        /* \"@openzeppelin/contracts-upgradeable/proxy/utils/Initializable.sol\":4788:4799  initialized */\n      dup3\n      sub(shl(0x40, 0x01), 0x01)\n        /* \"@openzeppelin/contracts-upgradeable/proxy/utils/Initializable.sol\":4788:4804  initialized == 1 */\n      and\n        /* \"@openzeppelin/contracts-upgradeable/proxy/utils/Initializable.sol\":4803:4804  1 */\n      0x01\n        /* \"@openzeppelin/contracts-upgradeable/proxy/utils/Initializable.sol\":4788:4804  initialized == 1 */\n      eq\n        /* \"@openzeppelin/contracts-upgradeable/proxy/utils/Initializable.sol\":4788:4838  initialized == 1 && address(this).code.length == 0 */\n      dup1\n      iszero\n      tag_79\n      jumpi\n      pop\n        /* \"@openzeppelin/contracts-upgradeable/proxy/utils/Initializable.sol\":4816:4820  this */\n      address\n        /* \"@openzeppelin/contracts-upgradeable/proxy/utils/Initializable.sol\":4808:4833  address(this).code.length */\n      extcodesize\n        /* \"@openzeppelin/contracts-upgradeable/proxy/utils/Initializable.sol\":4808:4838  address(this).code.length == 0 */\n      iszero\n        /* \"@openzeppelin/contracts-upgradeable/proxy/utils/Initializable.sol\":4788:4838  initialized == 1 && address(this).code.length == 0 */\n    tag_79:\n        /* \"@openzeppelin/contracts-upgradeable/proxy/utils/Initializable.sol\":4768:4838  bool construction = initialized == 1 && address(this).code.length == 0 */\n      swap1\n      pop\n        /* \"@openzeppelin/contracts-upgradeable/proxy/utils/Initializable.sol\":4854:4866  initialSetup */\n      dup2\n        /* \"@openzeppelin/contracts-upgradeable/proxy/utils/Initializable.sol\":4853:4866  !initialSetup */\n      iszero\n        /* \"@openzeppelin/contracts-upgradeable/proxy/utils/Initializable.sol\":4853:4883  !initialSetup && !construction */\n      dup1\n      iszero\n      tag_80\n      jumpi\n      pop\n        /* \"@openzeppelin/contracts-upgradeable/proxy/utils/Initializable.sol\":4871:4883  construction */\n      dup1\n        /* \"@openzeppelin/contracts-upgradeable/proxy/utils/Initializable.sol\":4870:4883  !construction */\n      iszero\n        /* \"@openzeppelin/contracts-upgradeable/proxy/utils/Initializable.sol\":4853:4883  !initialSetup && !construction */\n    tag_80:\n        /* \"@openzeppelin/contracts-upgradeable/proxy/utils/Initializable.sol\":4849:4940  if (!initialSetup && !construction) {... */\n      iszero\n      tag_81\n      jumpi\n        /* \"@openzeppelin/contracts-upgradeable/proxy/utils/Initializable.sol\":4906:4929  InvalidInitialization() */\n      mload(0x40)\n      shl(0xe0, 0xf92ee8a9)\n      dup2\n      mstore\n      0x04\n      add\n      mload(0x40)\n      dup1\n      swap2\n      sub\n      swap1\n      revert\n        /* \"@openzeppelin/contracts-upgradeable/proxy/utils/Initializable.sol\":4849:4940  if (!initialSetup && !construction) {... */\n    tag_81:\n        /* \"@openzeppelin/contracts-upgradeable/proxy/utils/Initializable.sol\":4949:4967  $._initialized = 1 */\n      dup5\n      sload\n      not(sub(shl(0x40, 0x01), 0x01))\n      and\n        /* \"@openzeppelin/contracts-upgradeable/proxy/utils/Initializable.sol\":4966:4967  1 */\n      0x01\n        /* \"@openzeppelin/contracts-upgradeable/proxy/utils/Initializable.sol\":4949:4967  $._initialized = 1 */\n      or\n      dup6\n      sstore\n        /* \"@openzeppelin/contracts-upgradeable/proxy/utils/Initializable.sol\":4977:5044  if (isTopLevelCall) {... */\n      dup4\n      iszero\n      tag_82\n      jumpi\n        /* \"@openzeppelin/contracts-upgradeable/proxy/utils/Initializable.sol\":5011:5033  $._initializing = true */\n      dup5\n      sload\n      not(shl(0x40, 0xff))\n      and\n      shl(0x40, 0x01)\n      or\n      dup6\n      sstore\n        /* \"@openzeppelin/contracts-upgradeable/proxy/utils/Initializable.sol\":4977:5044  if (isTopLevelCall) {... */\n    tag_82:\n      sub(shl(0xa0, 0x01), 0x01)\n        /* \"contracts/ReviewManager.sol\":1243:1273  _foodAppContract == address(0) */\n      dup9\n      and\n      iszero\n      dup1\n        /* \"contracts/ReviewManager.sol\":1243:1316  _foodAppContract == address(0) || _restaurantManagerAddress == address(0) */\n      tag_84\n      jumpi\n      pop\n      sub(shl(0xa0, 0x01), 0x01)\n        /* \"contracts/ReviewManager.sol\":1277:1316  _restaurantManagerAddress == address(0) */\n      dup8\n      and\n      iszero\n        /* \"contracts/ReviewManager.sol\":1243:1316  _foodAppContract == address(0) || _restaurantManagerAddress == address(0) */\n    tag_84:\n        /* \"contracts/ReviewManager.sol\":1239:1356  if (_foodAppContract == address(0) || _restaurantManagerAddress == address(0)) revert ReviewManager__InvalidAddress() */\n      iszero\n      tag_85\n      jumpi\n        /* \"contracts/ReviewManager.sol\":1325:1356  ReviewManager__InvalidAddress() */\n      mload(0x40)\n      shl(0xe0, 0x9e4f29a3)\n      dup2\n      mstore\n      0x04\n      add\n      mload(0x40)\n      dup1\n      swap2\n      sub\n      swap1\n      revert\n        /* \"contracts/ReviewManager.sol\":1239:1356  if (_foodAppContract == address(0) || _restaurantManagerAddress == address(0)) revert ReviewManager__InvalidAddress() */\n    tag_85:\n        /* \"contracts/ReviewManager.sol\":1367:1389  __Ownable_init(_owner) */\n      tag_86\n        /* \"contracts/ReviewManager.sol\":1382:1388  _owner */\n      dup7\n        /* \"contracts/ReviewManager.sol\":1367:1381  __Ownable_init */\n      tag_87\n        /* \"contracts/ReviewManager.sol\":1367:1389  __Ownable_init(_owner) */\n      jump\t// in\n    tag_86:\n        /* \"contracts/ReviewManager.sol\":1400:1422  foodAppContractAddress */\n      0x04\n        /* \"contracts/ReviewManager.sol\":1400:1441  foodAppContractAddress = _foodAppContract */\n      dup1\n      sload\n      sub(shl(0xa0, 0x01), 0x01)\n      dup1\n      dup12\n      and\n      not(sub(shl(0xa0, 0x01), 0x01))\n      swap3\n      dup4\n      and\n      or\n      swap1\n      swap3\n      sstore\n        /* \"contracts/ReviewManager.sol\":1452:1469  restaurantManager */\n      0x05\n        /* \"contracts/ReviewManager.sol\":1452:1517  restaurantManager = IRestaurantManager(_restaurantManagerAddress) */\n      dup1\n      sload\n      swap3\n      dup11\n      and\n      swap3\n      swap1\n      swap2\n      and\n      swap2\n      swap1\n      swap2\n      or\n      swap1\n      sstore\n        /* \"contracts/ReviewManager.sol\":1400:1422  foodAppContractAddress */\n      0x00\n        /* \"contracts/ReviewManager.sol\":1528:1544  nextReviewId = 1 */\n      dup1\n      sload\n      not(sub(shl(0x80, 0x01), 0x01))\n      and\n        /* \"contracts/ReviewManager.sol\":1400:1441  foodAppContractAddress = _foodAppContract */\n      0x01\n        /* \"contracts/ReviewManager.sol\":1528:1544  nextReviewId = 1 */\n      or\n      swap1\n      sstore\n        /* \"@openzeppelin/contracts-upgradeable/proxy/utils/Initializable.sol\":5064:5165  if (isTopLevelCall) {... */\n      dup4\n      iszero\n      tag_88\n      jumpi\n        /* \"@openzeppelin/contracts-upgradeable/proxy/utils/Initializable.sol\":5098:5121  $._initializing = false */\n      dup5\n      sload\n      not(shl(0x40, 0xff))\n      and\n      dup6\n      sstore\n        /* \"@openzeppelin/contracts-upgradeable/proxy/utils/Initializable.sol\":5140:5154  Initialized(1) */\n      mload(0x40)\n      0x01\n        /* \"#utility.yul\":5050:5100   */\n      dup2\n      mstore\n        /* \"@openzeppelin/contracts-upgradeable/proxy/utils/Initializable.sol\":5140:5154  Initialized(1) */\n      0xc7f505b2f371ae2175ee4913f4499e1f2633a7b5936321eed1cdaeb6115181d2\n      swap1\n        /* \"#utility.yul\":5038:5040   */\n      0x20\n        /* \"#utility.yul\":5023:5041   */\n      add\n        /* \"@openzeppelin/contracts-upgradeable/proxy/utils/Initializable.sol\":5140:5154  Initialized(1) */\n      mload(0x40)\n      dup1\n      swap2\n      sub\n      swap1\n      log1\n        /* \"@openzeppelin/contracts-upgradeable/proxy/utils/Initializable.sol\":5064:5165  if (isTopLevelCall) {... */\n    tag_88:\n        /* \"@openzeppelin/contracts-upgradeable/proxy/utils/Initializable.sol\":4092:5171  {... */\n      pop\n      pop\n      pop\n      pop\n      pop\n        /* \"contracts/ReviewManager.sol\":1112:1552  function initialize(address _foodAppContract, address _restaurantManagerAddress, address _owner) public initializer {... */\n      pop\n      pop\n      pop\n      jump\t// out\n        /* \"contracts/ReviewManager.sol\":1560:2896  function rateRestaurant(address customerEoa, uint128 restaurantId, uint8 rating, string memory comment) external override onlyFoodAppContract {... */\n    tag_53:\n        /* \"contracts/ReviewManager.sol\":1026:1048  foodAppContractAddress */\n      and(sub(shl(0xa0, 0x01), 0x01), sload(0x04))\n        /* \"contracts/ReviewManager.sol\":1012:1022  msg.sender */\n      caller\n        /* \"contracts/ReviewManager.sol\":1012:1048  msg.sender != foodAppContractAddress */\n      eq\n        /* \"contracts/ReviewManager.sol\":1008:1084  if (msg.sender != foodAppContractAddress) revert ReviewManager__NotFoodApp() */\n      tag_92\n      jumpi\n        /* \"contracts/ReviewManager.sol\":1057:1084  ReviewManager__NotFoodApp() */\n      mload(0x40)\n      shl(0xe1, 0x19c68547)\n      dup2\n      mstore\n      0x04\n      add\n      mload(0x40)\n      dup1\n      swap2\n      sub\n      swap1\n      revert\n        /* \"contracts/ReviewManager.sol\":1008:1084  if (msg.sender != foodAppContractAddress) revert ReviewManager__NotFoodApp() */\n    tag_92:\n        /* \"contracts/ReviewManager.sol\":1718:1735  restaurantManager */\n      sload(0x05)\n        /* \"contracts/ReviewManager.sol\":1718:1766  restaurantManager.restaurantExists(restaurantId) */\n      mload(0x40)\n      shl(0xe0, 0xb2a6cb63)\n      dup2\n      mstore\n      sub(shl(0xa0, 0x01), 0x01)\n        /* \"contracts/ReviewManager.sol\":1718:1735  restaurantManager */\n      swap1\n      swap2\n      and\n      swap1\n        /* \"contracts/ReviewManager.sol\":1718:1752  restaurantManager.restaurantExists */\n      0xb2a6cb63\n      swap1\n        /* \"contracts/ReviewManager.sol\":1718:1766  restaurantManager.restaurantExists(restaurantId) */\n      tag_94\n      swap1\n        /* \"contracts/ReviewManager.sol\":1753:1765  restaurantId */\n      dup7\n      swap1\n        /* \"contracts/ReviewManager.sol\":1718:1766  restaurantManager.restaurantExists(restaurantId) */\n      0x04\n      add\n      tag_19\n      jump\t// in\n    tag_94:\n      0x20\n      mload(0x40)\n      dup1\n      dup4\n      sub\n      dup2\n      dup7\n      gas\n      staticcall\n      iszero\n      dup1\n      iszero\n      tag_96\n      jumpi\n      returndatacopy(0x00, 0x00, returndatasize)\n      revert(0x00, returndatasize)\n    tag_96:\n      pop\n      pop\n      pop\n      pop\n      mload(0x40)\n      returndatasize\n      not(0x1f)\n      0x1f\n      dup3\n      add\n      and\n      dup3\n      add\n      dup1\n      0x40\n      mstore\n      pop\n      dup2\n      add\n      swap1\n      tag_97\n      swap2\n      swap1\n      tag_98\n      jump\t// in\n    tag_97:\n        /* \"contracts/ReviewManager.sol\":1713:1810  if (!restaurantManager.restaurantExists(restaurantId)) revert ReviewManager__RestaurantNotFound() */\n      tag_99\n      jumpi\n        /* \"contracts/ReviewManager.sol\":1775:1810  ReviewManager__RestaurantNotFound() */\n      mload(0x40)\n      shl(0xe0, 0x47b124fd)\n      dup2\n      mstore\n      0x04\n      add\n      mload(0x40)\n      dup1\n      swap2\n      sub\n      swap1\n      revert\n        /* \"contracts/ReviewManager.sol\":1713:1810  if (!restaurantManager.restaurantExists(restaurantId)) revert ReviewManager__RestaurantNotFound() */\n    tag_99:\n        /* \"contracts/ReviewManager.sol\":1834:1835  1 */\n      0x01\n        /* \"contracts/ReviewManager.sol\":1825:1831  rating */\n      dup3\n        /* \"contracts/ReviewManager.sol\":1825:1835  rating < 1 */\n      0xff\n      and\n      lt\n        /* \"contracts/ReviewManager.sol\":1825:1849  rating < 1 || rating > 5 */\n      dup1\n      tag_100\n      jumpi\n      pop\n        /* \"contracts/ReviewManager.sol\":1848:1849  5 */\n      0x05\n        /* \"contracts/ReviewManager.sol\":1839:1845  rating */\n      dup3\n        /* \"contracts/ReviewManager.sol\":1839:1849  rating > 5 */\n      0xff\n      and\n      gt\n        /* \"contracts/ReviewManager.sol\":1825:1849  rating < 1 || rating > 5 */\n    tag_100:\n        /* \"contracts/ReviewManager.sol\":1821:1888  if (rating < 1 || rating > 5) revert ReviewManager__InvalidRating() */\n      iszero\n      tag_101\n      jumpi\n        /* \"contracts/ReviewManager.sol\":1858:1888  ReviewManager__InvalidRating() */\n      mload(0x40)\n      shl(0xe0, 0xca20ea4b)\n      dup2\n      mstore\n      0x04\n      add\n      mload(0x40)\n      dup1\n      swap2\n      sub\n      swap1\n      revert\n        /* \"contracts/ReviewManager.sol\":1821:1888  if (rating < 1 || rating > 5) revert ReviewManager__InvalidRating() */\n    tag_101:\n        /* \"contracts/ReviewManager.sol\":1901:1917  uint128 reviewId */\n      0x00\n        /* \"contracts/ReviewManager.sol\":1920:1934  nextReviewId++ */\n      dup1\n      sload\n      sub(shl(0x80, 0x01), 0x01)\n      and\n        /* \"contracts/ReviewManager.sol\":1901:1917  uint128 reviewId */\n      dup2\n      dup1\n        /* \"contracts/ReviewManager.sol\":1920:1934  nextReviewId++ */\n      tag_102\n      dup4\n      tag_103\n      jump\t// in\n    tag_102:\n      dup3\n      sload\n      0x0100\n      swap3\n      swap1\n      swap3\n      exp\n      sub(shl(0x80, 0x01), 0x01)\n      dup2\n      dup2\n      mul\n      not\n      swap1\n      swap4\n      and\n      swap2\n      dup4\n      and\n      mul\n      or\n      swap1\n      swap2\n      sstore\n        /* \"contracts/ReviewManager.sol\":1965:2198  Review({... */\n      0x40\n      dup1\n      mload\n      0xc0\n      dup2\n      add\n      dup3\n      mstore\n      dup4\n      dup4\n      and\n      dup1\n      dup3\n      mstore\n      sub(shl(0xa0, 0x01), 0x01)\n      dup11\n      dup2\n      and\n      0x20\n      dup1\n      dup6\n      add\n      swap2\n      dup3\n      mstore\n      dup12\n      dup8\n      and\n      dup6\n      dup8\n      add\n      swap1\n      dup2\n      mstore\n      0xff\n      dup13\n      dup2\n      and\n      0x60\n      dup9\n      add\n      swap1\n      dup2\n      mstore\n      0x80\n      dup9\n      add\n      dup14\n      dup2\n      mstore\n        /* \"contracts/ReviewManager.sol\":2170:2185  block.timestamp */\n      timestamp\n        /* \"contracts/ReviewManager.sol\":1965:2198  Review({... */\n      dup12\n      and\n      0xa0\n      dup11\n      add\n      mstore\n      0x00\n        /* \"contracts/ReviewManager.sol\":1945:1962  reviews[reviewId] */\n      swap8\n      dup9\n      mstore\n      0x01\n      swap5\n      dup6\n      swap1\n      mstore\n      swap9\n      swap1\n      swap7\n      keccak256\n        /* \"contracts/ReviewManager.sol\":1945:2198  reviews[reviewId] = Review({... */\n      dup8\n      mload\n      dup2\n      sload\n      not(sub(shl(0x80, 0x01), 0x01))\n      and\n      swap1\n      dup12\n      and\n      or\n      dup2\n      sstore\n      swap4\n      mload\n      swap3\n      dup5\n      add\n      dup1\n      sload\n      not(sub(shl(0xa0, 0x01), 0x01))\n      and\n      swap4\n      swap1\n      swap6\n      and\n      swap3\n      swap1\n      swap3\n      or\n      swap1\n      swap4\n      sstore\n      swap2\n      mload\n      0x02\n      dup3\n      add\n      dup1\n      sload\n      swap5\n      mload\n      swap2\n      swap1\n      swap8\n      and\n      not(sub(shl(0x88, 0x01), 0x01))\n      swap1\n      swap5\n      and\n      swap4\n      swap1\n      swap4\n      or\n      shl(0x80, 0x01)\n      swap4\n      swap1\n      swap3\n      and\n      swap3\n      swap1\n      swap3\n      mul\n      or\n      swap1\n      swap4\n      sstore\n      swap1\n      mload\n        /* \"contracts/ReviewManager.sol\":1965:2198  Review({... */\n      swap3\n      swap4\n      pop\n      swap2\n        /* \"contracts/ReviewManager.sol\":1945:2198  reviews[reviewId] = Review({... */\n      0x03\n      dup3\n      add\n      swap1\n      tag_104\n      swap1\n      dup3\n      tag_105\n      jump\t// in\n    tag_104:\n      pop\n      0xa0\n      swap2\n      swap1\n      swap2\n      add\n      mload\n      0x04\n      swap1\n      swap2\n      add\n      dup1\n      sload\n      not(sub(shl(0x80, 0x01), 0x01))\n      and\n      sub(shl(0x80, 0x01), 0x01)\n      swap3\n      dup4\n      and\n      or\n      swap1\n      sstore\n        /* \"contracts/ReviewManager.sol\":2209:2242  reviewsByRestaurant[restaurantId] */\n      dup5\n      dup2\n      and\n      0x00\n      dup2\n      dup2\n      mstore\n        /* \"contracts/ReviewManager.sol\":2209:2228  reviewsByRestaurant */\n      0x02\n        /* \"contracts/ReviewManager.sol\":2209:2242  reviewsByRestaurant[restaurantId] */\n      0x20\n      dup2\n      dup2\n      mstore\n      0x40\n      dup1\n      dup5\n      keccak256\n        /* \"contracts/ReviewManager.sol\":2209:2257  reviewsByRestaurant[restaurantId].push(reviewId) */\n      dup1\n      sload\n      0x01\n      dup2\n      dup2\n      add\n      dup4\n      sstore\n      swap2\n      dup7\n      mstore\n      swap5\n      dup4\n      swap1\n      keccak256\n      swap4\n      dup6\n      div\n      swap1\n      swap4\n      add\n      dup1\n      sload\n      swap5\n      swap1\n      swap4\n      and\n      0x10\n      mul\n        /* \"contracts/ReviewManager.sol\":1945:2198  reviews[reviewId] = Review({... */\n      0x0100\n        /* \"contracts/ReviewManager.sol\":2209:2257  reviewsByRestaurant[restaurantId].push(reviewId) */\n      exp\n      dup1\n      dup8\n      mul\n      not\n      swap1\n      swap5\n      and\n      swap6\n      dup8\n      and\n      swap4\n      dup5\n      mul\n      swap6\n      swap1\n      swap6\n      or\n      swap1\n      swap2\n      sstore\n        /* \"contracts/ReviewManager.sol\":2828:2888  RestaurantRated(reviewId, customerEoa, restaurantId, rating) */\n      swap3\n      mload\n        /* \"#utility.yul\":7998:8002   */\n      0xff\n        /* \"#utility.yul\":7986:8003   */\n      dup8\n      and\n        /* \"#utility.yul\":7968:8004   */\n      dup2\n      mstore\n        /* \"contracts/ReviewManager.sol\":2209:2242  reviewsByRestaurant[restaurantId] */\n      swap2\n      swap3\n      sub(shl(0xa0, 0x01), 0x01)\n        /* \"contracts/ReviewManager.sol\":2828:2888  RestaurantRated(reviewId, customerEoa, restaurantId, rating) */\n      dup10\n      and\n      swap3\n      0x3d07dd1482bc8670ed7c2cf1f89b16d2da31a3996e171620a09cf3fd4c8e4446\n      swap2\n        /* \"#utility.yul\":7941:7959   */\n      add\n        /* \"contracts/ReviewManager.sol\":2828:2888  RestaurantRated(reviewId, customerEoa, restaurantId, rating) */\n      mload(0x40)\n      dup1\n      swap2\n      sub\n      swap1\n      log4\n        /* \"contracts/ReviewManager.sol\":1702:2896  {... */\n      pop\n        /* \"contracts/ReviewManager.sol\":1560:2896  function rateRestaurant(address customerEoa, uint128 restaurantId, uint8 rating, string memory comment) external override onlyFoodAppContract {... */\n      pop\n      pop\n      pop\n      pop\n      jump\t// out\n        /* \"@openzeppelin/contracts-upgradeable/access/OwnableUpgradeable.sol\":3405:3620  function transferOwnership(address newOwner) public virtual onlyOwner {... */\n    tag_57:\n        /* \"@openzeppelin/contracts-upgradeable/access/OwnableUpgradeable.sol\":2334:2347  _checkOwner() */\n      tag_110\n        /* \"@openzeppelin/contracts-upgradeable/access/OwnableUpgradeable.sol\":2334:2345  _checkOwner */\n      tag_62\n        /* \"@openzeppelin/contracts-upgradeable/access/OwnableUpgradeable.sol\":2334:2347  _checkOwner() */\n      jump\t// in\n    tag_110:\n      sub(shl(0xa0, 0x01), 0x01)\n        /* \"@openzeppelin/contracts-upgradeable/access/OwnableUpgradeable.sol\":3489:3511  newOwner == address(0) */\n      dup2\n      and\n        /* \"@openzeppelin/contracts-upgradeable/access/OwnableUpgradeable.sol\":3485:3576  if (newOwner == address(0)) {... */\n      tag_112\n      jumpi\n        /* \"@openzeppelin/contracts-upgradeable/access/OwnableUpgradeable.sol\":3562:3563  0 */\n      0x00\n        /* \"@openzeppelin/contracts-upgradeable/access/OwnableUpgradeable.sol\":3534:3565  OwnableInvalidOwner(address(0)) */\n      mload(0x40)\n      shl(0xe0, 0x1e4fbdf7)\n      dup2\n      mstore\n      0x04\n      add\n      tag_113\n      swap2\n      swap1\n      tag_23\n      jump\t// in\n    tag_113:\n      mload(0x40)\n      dup1\n      swap2\n      sub\n      swap1\n      revert\n        /* \"@openzeppelin/contracts-upgradeable/access/OwnableUpgradeable.sol\":3485:3576  if (newOwner == address(0)) {... */\n    tag_112:\n        /* \"@openzeppelin/contracts-upgradeable/access/OwnableUpgradeable.sol\":3585:3613  _transferOwnership(newOwner) */\n      tag_114\n        /* \"@openzeppelin/contracts-upgradeable/access/OwnableUpgradeable.sol\":3604:3612  newOwner */\n      dup2\n        /* \"@openzeppelin/contracts-upgradeable/access/OwnableUpgradeable.sol\":3585:3603  _transferOwnership */\n      tag_65\n        /* \"@openzeppelin/contracts-upgradeable/access/OwnableUpgradeable.sol\":3585:3613  _transferOwnership(newOwner) */\n      jump\t// in\n    tag_114:\n        /* \"@openzeppelin/contracts-upgradeable/access/OwnableUpgradeable.sol\":3405:3620  function transferOwnership(address newOwner) public virtual onlyOwner {... */\n      pop\n      jump\t// out\n        /* \"@openzeppelin/contracts-upgradeable/access/OwnableUpgradeable.sol\":2658:2820  function _checkOwner() internal view virtual {... */\n    tag_62:\n        /* \"@openzeppelin/contracts-upgradeable/utils/ContextUpgradeable.sol\":966:976  msg.sender */\n      caller\n        /* \"@openzeppelin/contracts-upgradeable/access/OwnableUpgradeable.sol\":2717:2724  owner() */\n      tag_118\n        /* \"@openzeppelin/contracts-upgradeable/access/OwnableUpgradeable.sol\":2717:2722  owner */\n      tag_38\n        /* \"@openzeppelin/contracts-upgradeable/access/OwnableUpgradeable.sol\":2717:2724  owner() */\n      jump\t// in\n    tag_118:\n      sub(shl(0xa0, 0x01), 0x01)\n        /* \"@openzeppelin/contracts-upgradeable/access/OwnableUpgradeable.sol\":2717:2740  owner() != _msgSender() */\n      and\n      eq\n        /* \"@openzeppelin/contracts-upgradeable/access/OwnableUpgradeable.sol\":2713:2814  if (owner() != _msgSender()) {... */\n      tag_64\n      jumpi\n        /* \"@openzeppelin/contracts-upgradeable/utils/ContextUpgradeable.sol\":966:976  msg.sender */\n      caller\n        /* \"@openzeppelin/contracts-upgradeable/access/OwnableUpgradeable.sol\":2763:2803  OwnableUnauthorizedAccount(_msgSender()) */\n      mload(0x40)\n      shl(0xe0, 0x118cdaa7)\n      dup2\n      mstore\n      0x04\n      add\n      tag_113\n      swap2\n      swap1\n      tag_23\n      jump\t// in\n        /* \"@openzeppelin/contracts-upgradeable/access/OwnableUpgradeable.sol\":3774:4022  function _transferOwnership(address newOwner) internal virtual {... */\n    tag_65:\n        /* \"@openzeppelin/contracts-upgradeable/access/OwnableUpgradeable.sol\":3847:3871  OwnableStorage storage $ */\n      0x00\n        /* \"@openzeppelin/contracts-upgradeable/access/OwnableUpgradeable.sol\":3874:3894  _getOwnableStorage() */\n      tag_123\n        /* \"@openzeppelin/contracts-upgradeable/access/OwnableUpgradeable.sol\":3874:3892  _getOwnableStorage */\n      tag_68\n        /* \"@openzeppelin/contracts-upgradeable/access/OwnableUpgradeable.sol\":3874:3894  _getOwnableStorage() */\n      jump\t// in\n    tag_123:\n        /* \"@openzeppelin/contracts-upgradeable/access/OwnableUpgradeable.sol\":3923:3931  $._owner */\n      dup1\n      sload\n      sub(shl(0xa0, 0x01), 0x01)\n        /* \"@openzeppelin/contracts-upgradeable/access/OwnableUpgradeable.sol\":3941:3960  $._owner = newOwner */\n      dup5\n      dup2\n      and\n      not(sub(shl(0xa0, 0x01), 0x01))\n      dup4\n      and\n      dup2\n      or\n      dup5\n      sstore\n        /* \"@openzeppelin/contracts-upgradeable/access/OwnableUpgradeable.sol\":3975:4015  OwnershipTransferred(oldOwner, newOwner) */\n      mload(0x40)\n        /* \"@openzeppelin/contracts-upgradeable/access/OwnableUpgradeable.sol\":3847:3894  OwnableStorage storage $ = _getOwnableStorage() */\n      swap4\n      swap5\n      pop\n        /* \"@openzeppelin/contracts-upgradeable/access/OwnableUpgradeable.sol\":3923:3931  $._owner */\n      swap2\n      and\n      swap2\n      dup3\n      swap1\n        /* \"@openzeppelin/contracts-upgradeable/access/OwnableUpgradeable.sol\":3975:4015  OwnershipTransferred(oldOwner, newOwner) */\n      0x8be0079c531659141344cd1fd0a4f28419497f9722a3daafe3b4186f6b6457e0\n      swap1\n        /* \"@openzeppelin/contracts-upgradeable/access/OwnableUpgradeable.sol\":3904:3920  address oldOwner */\n      0x00\n      swap1\n        /* \"@openzeppelin/contracts-upgradeable/access/OwnableUpgradeable.sol\":3975:4015  OwnershipTransferred(oldOwner, newOwner) */\n      log3\n        /* \"@openzeppelin/contracts-upgradeable/access/OwnableUpgradeable.sol\":3837:4022  {... */\n      pop\n      pop\n        /* \"@openzeppelin/contracts-upgradeable/access/OwnableUpgradeable.sol\":3774:4022  function _transferOwnership(address newOwner) internal virtual {... */\n      pop\n      jump\t// out\n        /* \"@openzeppelin/contracts-upgradeable/access/OwnableUpgradeable.sol\":1192:1351  function _getOwnableStorage() private pure returns (OwnableStorage storage $) {... */\n    tag_68:\n        /* \"@openzeppelin/contracts-upgradeable/access/OwnableUpgradeable.sol\":1313:1335  OwnableStorageLocation */\n      0x9016d09d72d40fdae2fd8ceac6b6234c7706214fd39c1cd1e609a0528c199300\n      swap1\n        /* \"@openzeppelin/contracts-upgradeable/access/OwnableUpgradeable.sol\":1192:1351  function _getOwnableStorage() private pure returns (OwnableStorage storage $) {... */\n      jump\t// out\n        /* \"@openzeppelin/contracts-upgradeable/proxy/utils/Initializable.sol\":9071:9276  function _getInitializableStorage() private pure returns (InitializableStorage storage $) {... */\n    tag_77:\n        /* \"@openzeppelin/contracts-upgradeable/proxy/utils/Initializable.sol\":3147:3213  0xf0c57e16840df040f15088dc2f81fe391c3923bec73e23a9662efc9c229c6a00 */\n      0xf0c57e16840df040f15088dc2f81fe391c3923bec73e23a9662efc9c229c6a00\n      swap1\n        /* \"@openzeppelin/contracts-upgradeable/proxy/utils/Initializable.sol\":9071:9276  function _getInitializableStorage() private pure returns (InitializableStorage storage $) {... */\n      jump\t// out\n        /* \"@openzeppelin/contracts-upgradeable/access/OwnableUpgradeable.sol\":1847:1974  function __Ownable_init(address initialOwner) internal onlyInitializing {... */\n    tag_87:\n        /* \"@openzeppelin/contracts-upgradeable/proxy/utils/Initializable.sol\":6929:6949  _checkInitializing() */\n      tag_129\n        /* \"@openzeppelin/contracts-upgradeable/proxy/utils/Initializable.sol\":6929:6947  _checkInitializing */\n      tag_130\n        /* \"@openzeppelin/contracts-upgradeable/proxy/utils/Initializable.sol\":6929:6949  _checkInitializing() */\n      jump\t// in\n    tag_129:\n        /* \"@openzeppelin/contracts-upgradeable/access/OwnableUpgradeable.sol\":1929:1967  __Ownable_init_unchained(initialOwner) */\n      tag_114\n        /* \"@openzeppelin/contracts-upgradeable/access/OwnableUpgradeable.sol\":1954:1966  initialOwner */\n      dup2\n        /* \"@openzeppelin/contracts-upgradeable/access/OwnableUpgradeable.sol\":1929:1953  __Ownable_init_unchained */\n      tag_133\n        /* \"@openzeppelin/contracts-upgradeable/access/OwnableUpgradeable.sol\":1929:1967  __Ownable_init_unchained(initialOwner) */\n      jump\t// in\n        /* \"@openzeppelin/contracts-upgradeable/proxy/utils/Initializable.sol\":7082:7223  function _checkInitializing() internal view virtual {... */\n    tag_130:\n        /* \"@openzeppelin/contracts-upgradeable/proxy/utils/Initializable.sol\":7149:7166  _isInitializing() */\n      tag_137\n        /* \"@openzeppelin/contracts-upgradeable/proxy/utils/Initializable.sol\":7149:7164  _isInitializing */\n      tag_138\n        /* \"@openzeppelin/contracts-upgradeable/proxy/utils/Initializable.sol\":7149:7166  _isInitializing() */\n      jump\t// in\n    tag_137:\n        /* \"@openzeppelin/contracts-upgradeable/proxy/utils/Initializable.sol\":7144:7217  if (!_isInitializing()) {... */\n      tag_64\n      jumpi\n        /* \"@openzeppelin/contracts-upgradeable/proxy/utils/Initializable.sol\":7189:7206  NotInitializing() */\n      mload(0x40)\n      shl(0xe3, 0x1afcd79f)\n      dup2\n      mstore\n      0x04\n      add\n      mload(0x40)\n      dup1\n      swap2\n      sub\n      swap1\n      revert\n        /* \"@openzeppelin/contracts-upgradeable/access/OwnableUpgradeable.sol\":1980:2215  function __Ownable_init_unchained(address initialOwner) internal onlyInitializing {... */\n    tag_133:\n        /* \"@openzeppelin/contracts-upgradeable/proxy/utils/Initializable.sol\":6929:6949  _checkInitializing() */\n      tag_110\n        /* \"@openzeppelin/contracts-upgradeable/proxy/utils/Initializable.sol\":6929:6947  _checkInitializing */\n      tag_130\n        /* \"@openzeppelin/contracts-upgradeable/proxy/utils/Initializable.sol\":6929:6949  _checkInitializing() */\n      jump\t// in\n        /* \"@openzeppelin/contracts-upgradeable/proxy/utils/Initializable.sol\":8485:8605  function _isInitializing() internal view returns (bool) {... */\n    tag_138:\n        /* \"@openzeppelin/contracts-upgradeable/proxy/utils/Initializable.sol\":8535:8539  bool */\n      0x00\n        /* \"@openzeppelin/contracts-upgradeable/proxy/utils/Initializable.sol\":8558:8584  _getInitializableStorage() */\n      tag_147\n        /* \"@openzeppelin/contracts-upgradeable/proxy/utils/Initializable.sol\":8558:8582  _getInitializableStorage */\n      tag_77\n        /* \"@openzeppelin/contracts-upgradeable/proxy/utils/Initializable.sol\":8558:8584  _getInitializableStorage() */\n      jump\t// in\n    tag_147:\n        /* \"@openzeppelin/contracts-upgradeable/proxy/utils/Initializable.sol\":8558:8598  _getInitializableStorage()._initializing */\n      sload\n      shl(0x40, 0x01)\n      swap1\n      div\n      0xff\n      and\n      swap2\n      swap1\n      pop\n        /* \"@openzeppelin/contracts-upgradeable/proxy/utils/Initializable.sol\":8485:8605  function _isInitializing() internal view returns (bool) {... */\n      jump\t// out\n        /* \"#utility.yul\":14:187   */\n    tag_148:\n        /* \"#utility.yul\":82:102   */\n      dup1\n      calldataload\n      sub(shl(0x80, 0x01), 0x01)\n        /* \"#utility.yul\":131:162   */\n      dup2\n      and\n        /* \"#utility.yul\":121:163   */\n      dup2\n      eq\n        /* \"#utility.yul\":111:181   */\n      tag_156\n      jumpi\n        /* \"#utility.yul\":177:178   */\n      0x00\n        /* \"#utility.yul\":174:175   */\n      0x00\n        /* \"#utility.yul\":167:179   */\n      revert\n        /* \"#utility.yul\":111:181   */\n    tag_156:\n        /* \"#utility.yul\":14:187   */\n      swap2\n      swap1\n      pop\n      jump\t// out\n        /* \"#utility.yul\":192:446   */\n    tag_16:\n        /* \"#utility.yul\":260:266   */\n      0x00\n        /* \"#utility.yul\":268:274   */\n      0x00\n        /* \"#utility.yul\":321:323   */\n      0x40\n        /* \"#utility.yul\":309:318   */\n      dup4\n        /* \"#utility.yul\":300:307   */\n      dup6\n        /* \"#utility.yul\":296:319   */\n      sub\n        /* \"#utility.yul\":292:324   */\n      slt\n        /* \"#utility.yul\":289:341   */\n      iszero\n      tag_158\n      jumpi\n        /* \"#utility.yul\":337:338   */\n      0x00\n        /* \"#utility.yul\":334:335   */\n      0x00\n        /* \"#utility.yul\":327:339   */\n      revert\n        /* \"#utility.yul\":289:341   */\n    tag_158:\n        /* \"#utility.yul\":360:389   */\n      tag_159\n        /* \"#utility.yul\":379:388   */\n      dup4\n        /* \"#utility.yul\":360:389   */\n      tag_148\n      jump\t// in\n    tag_159:\n        /* \"#utility.yul\":350:389   */\n      swap5\n        /* \"#utility.yul\":436:438   */\n      0x20\n        /* \"#utility.yul\":421:439   */\n      swap4\n      swap1\n      swap4\n      add\n        /* \"#utility.yul\":408:440   */\n      calldataload\n      swap4\n      pop\n      pop\n      pop\n        /* \"#utility.yul\":192:446   */\n      jump\t// out\n        /* \"#utility.yul\":451:654   */\n    tag_19:\n      sub(shl(0x80, 0x01), 0x01)\n        /* \"#utility.yul\":615:647   */\n      swap2\n      swap1\n      swap2\n      and\n        /* \"#utility.yul\":597:648   */\n      dup2\n      mstore\n        /* \"#utility.yul\":585:587   */\n      0x20\n        /* \"#utility.yul\":570:588   */\n      add\n      swap1\n        /* \"#utility.yul\":451:654   */\n      jump\t// out\n        /* \"#utility.yul\":659:888   */\n    tag_23:\n      sub(shl(0xa0, 0x01), 0x01)\n        /* \"#utility.yul\":849:881   */\n      swap2\n      swap1\n      swap2\n      and\n        /* \"#utility.yul\":831:882   */\n      dup2\n      mstore\n        /* \"#utility.yul\":819:821   */\n      0x20\n        /* \"#utility.yul\":804:822   */\n      add\n      swap1\n        /* \"#utility.yul\":659:888   */\n      jump\t// out\n        /* \"#utility.yul\":1329:1515   */\n    tag_42:\n        /* \"#utility.yul\":1388:1394   */\n      0x00\n        /* \"#utility.yul\":1441:1443   */\n      0x20\n        /* \"#utility.yul\":1429:1438   */\n      dup3\n        /* \"#utility.yul\":1420:1427   */\n      dup5\n        /* \"#utility.yul\":1416:1439   */\n      sub\n        /* \"#utility.yul\":1412:1444   */\n      slt\n        /* \"#utility.yul\":1409:1461   */\n      iszero\n      tag_165\n      jumpi\n        /* \"#utility.yul\":1457:1458   */\n      0x00\n        /* \"#utility.yul\":1454:1455   */\n      0x00\n        /* \"#utility.yul\":1447:1459   */\n      revert\n        /* \"#utility.yul\":1409:1461   */\n    tag_165:\n        /* \"#utility.yul\":1480:1509   */\n      tag_166\n        /* \"#utility.yul\":1499:1508   */\n      dup3\n        /* \"#utility.yul\":1480:1509   */\n      tag_148\n      jump\t// in\n    tag_166:\n        /* \"#utility.yul\":1470:1509   */\n      swap4\n        /* \"#utility.yul\":1329:1515   */\n      swap3\n      pop\n      pop\n      pop\n      jump\t// out\n        /* \"#utility.yul\":1520:2411   */\n    tag_45:\n      sub(shl(0x80, 0x01), 0x01)\n        /* \"#utility.yul\":1805:1837   */\n      dup8\n      dup2\n      and\n        /* \"#utility.yul\":1787:1838   */\n      dup3\n      mstore\n      sub(shl(0xa0, 0x01), 0x01)\n        /* \"#utility.yul\":1874:1906   */\n      dup8\n      and\n        /* \"#utility.yul\":1869:1871   */\n      0x20\n        /* \"#utility.yul\":1854:1872   */\n      dup1\n      dup5\n      add\n        /* \"#utility.yul\":1847:1907   */\n      swap2\n      swap1\n      swap2\n      mstore\n        /* \"#utility.yul\":1943:1975   */\n      swap1\n      dup7\n      and\n        /* \"#utility.yul\":1938:1940   */\n      0x40\n        /* \"#utility.yul\":1923:1941   */\n      dup4\n      add\n        /* \"#utility.yul\":1916:1976   */\n      mstore\n        /* \"#utility.yul\":2024:2028   */\n      0xff\n        /* \"#utility.yul\":2012:2029   */\n      dup6\n      and\n        /* \"#utility.yul\":2007:2009   */\n      0x60\n        /* \"#utility.yul\":1992:2010   */\n      dup4\n      add\n        /* \"#utility.yul\":1985:2030   */\n      mstore\n        /* \"#utility.yul\":2067:2070   */\n      0xc0\n        /* \"#utility.yul\":1825:1828   */\n      0x80\n        /* \"#utility.yul\":2046:2065   */\n      dup4\n      add\n        /* \"#utility.yul\":2039:2071   */\n      dup2\n      swap1\n      mstore\n        /* \"#utility.yul\":2094:2107   */\n      dup5\n      mload\n        /* \"#utility.yul\":2123:2142   */\n      swap1\n      dup4\n      add\n        /* \"#utility.yul\":2116:2151   */\n      dup2\n      swap1\n      mstore\n      0x00\n      swap2\n        /* \"#utility.yul\":2094:2107   */\n      dup2\n      swap1\n        /* \"#utility.yul\":2187:2202   */\n      dup7\n      add\n        /* \"#utility.yul\":2181:2184   */\n      0xe0\n        /* \"#utility.yul\":2166:2185   */\n      dup6\n      add\n        /* \"#utility.yul\":2160:2211   */\n      mcopy\n        /* \"#utility.yul\":2261:2262   */\n      0x00\n        /* \"#utility.yul\":2231:2253   */\n      dup4\n      dup3\n      add\n        /* \"#utility.yul\":2255:2258   */\n      0xe0\n        /* \"#utility.yul\":2227:2259   */\n      swap1\n      dup2\n      add\n        /* \"#utility.yul\":2220:2263   */\n      swap2\n      swap1\n      swap2\n      mstore\n      sub(shl(0x80, 0x01), 0x01)\n        /* \"#utility.yul\":2372:2404   */\n      swap5\n      swap1\n      swap5\n      and\n        /* \"#utility.yul\":2366:2369   */\n      0xa0\n        /* \"#utility.yul\":2351:2370   */\n      dup5\n      add\n        /* \"#utility.yul\":2344:2405   */\n      mstore\n        /* \"#utility.yul\":2324:2326   */\n      0x1f\n        /* \"#utility.yul\":2303:2318   */\n      add\n      not(0x1f)\n        /* \"#utility.yul\":2299:2328   */\n      and\n        /* \"#utility.yul\":2284:2329   */\n      swap1\n      swap2\n      add\n        /* \"#utility.yul\":2280:2335   */\n      swap1\n      swap2\n      add\n      swap7\n        /* \"#utility.yul\":1520:2411   */\n      swap6\n      pop\n      pop\n      pop\n      pop\n      pop\n      pop\n      jump\t// out\n        /* \"#utility.yul\":2416:2589   */\n    tag_149:\n        /* \"#utility.yul\":2484:2504   */\n      dup1\n      calldataload\n      sub(shl(0xa0, 0x01), 0x01)\n        /* \"#utility.yul\":2533:2564   */\n      dup2\n      and\n        /* \"#utility.yul\":2523:2565   */\n      dup2\n      eq\n        /* \"#utility.yul\":2513:2583   */\n      tag_156\n      jumpi\n        /* \"#utility.yul\":2579:2580   */\n      0x00\n        /* \"#utility.yul\":2576:2577   */\n      0x00\n        /* \"#utility.yul\":2569:2581   */\n      revert\n        /* \"#utility.yul\":2594:2928   */\n    tag_48:\n        /* \"#utility.yul\":2671:2677   */\n      0x00\n        /* \"#utility.yul\":2679:2685   */\n      0x00\n        /* \"#utility.yul\":2687:2693   */\n      0x00\n        /* \"#utility.yul\":2740:2742   */\n      0x60\n        /* \"#utility.yul\":2728:2737   */\n      dup5\n        /* \"#utility.yul\":2719:2726   */\n      dup7\n        /* \"#utility.yul\":2715:2738   */\n      sub\n        /* \"#utility.yul\":2711:2743   */\n      slt\n        /* \"#utility.yul\":2708:2760   */\n      iszero\n      tag_171\n      jumpi\n        /* \"#utility.yul\":2756:2757   */\n      0x00\n        /* \"#utility.yul\":2753:2754   */\n      0x00\n        /* \"#utility.yul\":2746:2758   */\n      revert\n        /* \"#utility.yul\":2708:2760   */\n    tag_171:\n        /* \"#utility.yul\":2779:2808   */\n      tag_172\n        /* \"#utility.yul\":2798:2807   */\n      dup5\n        /* \"#utility.yul\":2779:2808   */\n      tag_149\n      jump\t// in\n    tag_172:\n        /* \"#utility.yul\":2769:2808   */\n      swap3\n      pop\n        /* \"#utility.yul\":2827:2865   */\n      tag_173\n        /* \"#utility.yul\":2861:2863   */\n      0x20\n        /* \"#utility.yul\":2850:2859   */\n      dup6\n        /* \"#utility.yul\":2846:2864   */\n      add\n        /* \"#utility.yul\":2827:2865   */\n      tag_149\n      jump\t// in\n    tag_173:\n        /* \"#utility.yul\":2817:2865   */\n      swap2\n      pop\n        /* \"#utility.yul\":2884:2922   */\n      tag_174\n        /* \"#utility.yul\":2918:2920   */\n      0x40\n        /* \"#utility.yul\":2907:2916   */\n      dup6\n        /* \"#utility.yul\":2903:2921   */\n      add\n        /* \"#utility.yul\":2884:2922   */\n      tag_149\n      jump\t// in\n    tag_174:\n        /* \"#utility.yul\":2874:2922   */\n      swap1\n      pop\n        /* \"#utility.yul\":2594:2928   */\n      swap3\n      pop\n      swap3\n      pop\n      swap3\n      jump\t// out\n        /* \"#utility.yul\":2933:3060   */\n    tag_150:\n        /* \"#utility.yul\":2994:3004   */\n      0x4e487b71\n        /* \"#utility.yul\":2989:2992   */\n      0xe0\n        /* \"#utility.yul\":2985:3005   */\n      shl\n        /* \"#utility.yul\":2982:2983   */\n      0x00\n        /* \"#utility.yul\":2975:3006   */\n      mstore\n        /* \"#utility.yul\":3025:3029   */\n      0x41\n        /* \"#utility.yul\":3022:3023   */\n      0x04\n        /* \"#utility.yul\":3015:3030   */\n      mstore\n        /* \"#utility.yul\":3049:3053   */\n      0x24\n        /* \"#utility.yul\":3046:3047   */\n      0x00\n        /* \"#utility.yul\":3039:3054   */\n      revert\n        /* \"#utility.yul\":3065:4316   */\n    tag_52:\n        /* \"#utility.yul\":3159:3165   */\n      0x00\n        /* \"#utility.yul\":3167:3173   */\n      0x00\n        /* \"#utility.yul\":3175:3181   */\n      0x00\n        /* \"#utility.yul\":3183:3189   */\n      0x00\n        /* \"#utility.yul\":3236:3239   */\n      0x80\n        /* \"#utility.yul\":3224:3233   */\n      dup6\n        /* \"#utility.yul\":3215:3222   */\n      dup8\n        /* \"#utility.yul\":3211:3234   */\n      sub\n        /* \"#utility.yul\":3207:3240   */\n      slt\n        /* \"#utility.yul\":3204:3257   */\n      iszero\n      tag_177\n      jumpi\n        /* \"#utility.yul\":3253:3254   */\n      0x00\n        /* \"#utility.yul\":3250:3251   */\n      0x00\n        /* \"#utility.yul\":3243:3255   */\n      revert\n        /* \"#utility.yul\":3204:3257   */\n    tag_177:\n        /* \"#utility.yul\":3276:3305   */\n      tag_178\n        /* \"#utility.yul\":3295:3304   */\n      dup6\n        /* \"#utility.yul\":3276:3305   */\n      tag_149\n      jump\t// in\n    tag_178:\n        /* \"#utility.yul\":3266:3305   */\n      swap4\n      pop\n        /* \"#utility.yul\":3324:3362   */\n      tag_179\n        /* \"#utility.yul\":3358:3360   */\n      0x20\n        /* \"#utility.yul\":3347:3356   */\n      dup7\n        /* \"#utility.yul\":3343:3361   */\n      add\n        /* \"#utility.yul\":3324:3362   */\n      tag_148\n      jump\t// in\n    tag_179:\n        /* \"#utility.yul\":3314:3362   */\n      swap3\n      pop\n        /* \"#utility.yul\":3412:3414   */\n      0x40\n        /* \"#utility.yul\":3401:3410   */\n      dup6\n        /* \"#utility.yul\":3397:3415   */\n      add\n        /* \"#utility.yul\":3384:3416   */\n      calldataload\n        /* \"#utility.yul\":3456:3460   */\n      0xff\n        /* \"#utility.yul\":3449:3454   */\n      dup2\n        /* \"#utility.yul\":3445:3461   */\n      and\n        /* \"#utility.yul\":3438:3443   */\n      dup2\n        /* \"#utility.yul\":3435:3462   */\n      eq\n        /* \"#utility.yul\":3425:3480   */\n      tag_180\n      jumpi\n        /* \"#utility.yul\":3476:3477   */\n      0x00\n        /* \"#utility.yul\":3473:3474   */\n      0x00\n        /* \"#utility.yul\":3466:3478   */\n      revert\n        /* \"#utility.yul\":3425:3480   */\n    tag_180:\n        /* \"#utility.yul\":3499:3504   */\n      swap2\n      pop\n        /* \"#utility.yul\":3555:3557   */\n      0x60\n        /* \"#utility.yul\":3540:3558   */\n      dup6\n      add\n        /* \"#utility.yul\":3527:3559   */\n      calldataload\n      sub(shl(0x40, 0x01), 0x01)\n        /* \"#utility.yul\":3571:3601   */\n      dup2\n      gt\n        /* \"#utility.yul\":3568:3618   */\n      iszero\n      tag_181\n      jumpi\n        /* \"#utility.yul\":3614:3615   */\n      0x00\n        /* \"#utility.yul\":3611:3612   */\n      0x00\n        /* \"#utility.yul\":3604:3616   */\n      revert\n        /* \"#utility.yul\":3568:3618   */\n    tag_181:\n        /* \"#utility.yul\":3637:3659   */\n      dup6\n      add\n        /* \"#utility.yul\":3690:3694   */\n      0x1f\n        /* \"#utility.yul\":3682:3695   */\n      dup2\n      add\n        /* \"#utility.yul\":3678:3705   */\n      dup8\n      sgt\n        /* \"#utility.yul\":3668:3723   */\n      tag_182\n      jumpi\n        /* \"#utility.yul\":3719:3720   */\n      0x00\n        /* \"#utility.yul\":3716:3717   */\n      0x00\n        /* \"#utility.yul\":3709:3721   */\n      revert\n        /* \"#utility.yul\":3668:3723   */\n    tag_182:\n        /* \"#utility.yul\":3746:3762   */\n      dup1\n      calldataload\n      sub(shl(0x40, 0x01), 0x01)\n        /* \"#utility.yul\":3774:3804   */\n      dup2\n      gt\n        /* \"#utility.yul\":3771:3827   */\n      iszero\n      tag_184\n      jumpi\n        /* \"#utility.yul\":3807:3825   */\n      tag_184\n      tag_150\n      jump\t// in\n    tag_184:\n        /* \"#utility.yul\":3856:3858   */\n      0x40\n        /* \"#utility.yul\":3850:3859   */\n      mload\n        /* \"#utility.yul\":3948:3950   */\n      0x1f\n        /* \"#utility.yul\":3910:3927   */\n      dup3\n      add\n      not(0x1f)\n        /* \"#utility.yul\":3906:3937   */\n      swap1\n      dup2\n      and\n        /* \"#utility.yul\":3939:3941   */\n      0x3f\n        /* \"#utility.yul\":3902:3942   */\n      add\n        /* \"#utility.yul\":3898:3952   */\n      and\n        /* \"#utility.yul\":3886:3953   */\n      dup2\n      add\n      sub(shl(0x40, 0x01), 0x01)\n        /* \"#utility.yul\":3968:4002   */\n      dup2\n      gt\n        /* \"#utility.yul\":4004:4026   */\n      dup3\n      dup3\n      lt\n        /* \"#utility.yul\":3965:4027   */\n      or\n        /* \"#utility.yul\":3962:4050   */\n      iszero\n      tag_186\n      jumpi\n        /* \"#utility.yul\":4030:4048   */\n      tag_186\n      tag_150\n      jump\t// in\n    tag_186:\n        /* \"#utility.yul\":4066:4068   */\n      0x40\n        /* \"#utility.yul\":4059:4081   */\n      mstore\n        /* \"#utility.yul\":4090:4112   */\n      dup2\n      dup2\n      mstore\n        /* \"#utility.yul\":4131:4146   */\n      dup3\n      dup3\n      add\n        /* \"#utility.yul\":4148:4150   */\n      0x20\n        /* \"#utility.yul\":4127:4151   */\n      add\n        /* \"#utility.yul\":4124:4161   */\n      dup10\n      lt\n        /* \"#utility.yul\":4121:4178   */\n      iszero\n      tag_187\n      jumpi\n        /* \"#utility.yul\":4174:4175   */\n      0x00\n        /* \"#utility.yul\":4171:4172   */\n      0x00\n        /* \"#utility.yul\":4164:4176   */\n      revert\n        /* \"#utility.yul\":4121:4178   */\n    tag_187:\n        /* \"#utility.yul\":4230:4236   */\n      dup2\n        /* \"#utility.yul\":4225:4227   */\n      0x20\n        /* \"#utility.yul\":4221:4223   */\n      dup5\n        /* \"#utility.yul\":4217:4228   */\n      add\n        /* \"#utility.yul\":4212:4214   */\n      0x20\n        /* \"#utility.yul\":4204:4210   */\n      dup4\n        /* \"#utility.yul\":4200:4215   */\n      add\n        /* \"#utility.yul\":4187:4237   */\n      calldatacopy\n        /* \"#utility.yul\":4283:4284   */\n      0x00\n        /* \"#utility.yul\":4278:4280   */\n      0x20\n        /* \"#utility.yul\":4269:4275   */\n      dup4\n        /* \"#utility.yul\":4261:4267   */\n      dup4\n        /* \"#utility.yul\":4257:4276   */\n      add\n        /* \"#utility.yul\":4253:4281   */\n      add\n        /* \"#utility.yul\":4246:4285   */\n      mstore\n        /* \"#utility.yul\":4304:4310   */\n      dup1\n        /* \"#utility.yul\":4294:4310   */\n      swap4\n      pop\n      pop\n      pop\n      pop\n        /* \"#utility.yul\":3065:4316   */\n      swap3\n      swap6\n      swap2\n      swap5\n      pop\n      swap3\n      pop\n      jump\t// out\n        /* \"#utility.yul\":4321:4507   */\n    tag_56:\n        /* \"#utility.yul\":4380:4386   */\n      0x00\n        /* \"#utility.yul\":4433:4435   */\n      0x20\n        /* \"#utility.yul\":4421:4430   */\n      dup3\n        /* \"#utility.yul\":4412:4419   */\n      dup5\n        /* \"#utility.yul\":4408:4431   */\n      sub\n        /* \"#utility.yul\":4404:4436   */\n      slt\n        /* \"#utility.yul\":4401:4453   */\n      iszero\n      tag_189\n      jumpi\n        /* \"#utility.yul\":4449:4450   */\n      0x00\n        /* \"#utility.yul\":4446:4447   */\n      0x00\n        /* \"#utility.yul\":4439:4451   */\n      revert\n        /* \"#utility.yul\":4401:4453   */\n    tag_189:\n        /* \"#utility.yul\":4472:4501   */\n      tag_166\n        /* \"#utility.yul\":4491:4500   */\n      dup3\n        /* \"#utility.yul\":4472:4501   */\n      tag_149\n      jump\t// in\n        /* \"#utility.yul\":4512:4892   */\n    tag_70:\n        /* \"#utility.yul\":4591:4592   */\n      0x01\n        /* \"#utility.yul\":4587:4599   */\n      dup2\n      dup2\n      shr\n      swap1\n        /* \"#utility.yul\":4634:4646   */\n      dup3\n      and\n      dup1\n        /* \"#utility.yul\":4655:4716   */\n      tag_192\n      jumpi\n        /* \"#utility.yul\":4709:4713   */\n      0x7f\n        /* \"#utility.yul\":4701:4707   */\n      dup3\n        /* \"#utility.yul\":4697:4714   */\n      and\n        /* \"#utility.yul\":4687:4714   */\n      swap2\n      pop\n        /* \"#utility.yul\":4655:4716   */\n    tag_192:\n        /* \"#utility.yul\":4762:4764   */\n      0x20\n        /* \"#utility.yul\":4754:4760   */\n      dup3\n        /* \"#utility.yul\":4751:4765   */\n      lt\n        /* \"#utility.yul\":4731:4749   */\n      dup2\n        /* \"#utility.yul\":4728:4766   */\n      sub\n        /* \"#utility.yul\":4725:4886   */\n      tag_193\n      jumpi\n        /* \"#utility.yul\":4808:4818   */\n      0x4e487b71\n        /* \"#utility.yul\":4803:4806   */\n      0xe0\n        /* \"#utility.yul\":4799:4819   */\n      shl\n        /* \"#utility.yul\":4796:4797   */\n      0x00\n        /* \"#utility.yul\":4789:4820   */\n      mstore\n        /* \"#utility.yul\":4843:4847   */\n      0x22\n        /* \"#utility.yul\":4840:4841   */\n      0x04\n        /* \"#utility.yul\":4833:4848   */\n      mstore\n        /* \"#utility.yul\":4871:4875   */\n      0x24\n        /* \"#utility.yul\":4868:4869   */\n      0x00\n        /* \"#utility.yul\":4861:4876   */\n      revert\n        /* \"#utility.yul\":4725:4886   */\n    tag_193:\n      pop\n        /* \"#utility.yul\":4512:4892   */\n      swap2\n      swap1\n      pop\n      jump\t// out\n        /* \"#utility.yul\":5111:5388   */\n    tag_98:\n        /* \"#utility.yul\":5178:5184   */\n      0x00\n        /* \"#utility.yul\":5231:5233   */\n      0x20\n        /* \"#utility.yul\":5219:5228   */\n      dup3\n        /* \"#utility.yul\":5210:5217   */\n      dup5\n        /* \"#utility.yul\":5206:5229   */\n      sub\n        /* \"#utility.yul\":5202:5234   */\n      slt\n        /* \"#utility.yul\":5199:5251   */\n      iszero\n      tag_196\n      jumpi\n        /* \"#utility.yul\":5247:5248   */\n      0x00\n        /* \"#utility.yul\":5244:5245   */\n      0x00\n        /* \"#utility.yul\":5237:5249   */\n      revert\n        /* \"#utility.yul\":5199:5251   */\n    tag_196:\n        /* \"#utility.yul\":5279:5288   */\n      dup2\n        /* \"#utility.yul\":5273:5289   */\n      mload\n        /* \"#utility.yul\":5332:5337   */\n      dup1\n        /* \"#utility.yul\":5325:5338   */\n      iszero\n        /* \"#utility.yul\":5318:5339   */\n      iszero\n        /* \"#utility.yul\":5311:5316   */\n      dup2\n        /* \"#utility.yul\":5308:5340   */\n      eq\n        /* \"#utility.yul\":5298:5358   */\n      tag_166\n      jumpi\n        /* \"#utility.yul\":5354:5355   */\n      0x00\n        /* \"#utility.yul\":5351:5352   */\n      0x00\n        /* \"#utility.yul\":5344:5356   */\n      revert\n        /* \"#utility.yul\":5393:5697   */\n    tag_103:\n        /* \"#utility.yul\":5432:5435   */\n      0x00\n      sub(shl(0x80, 0x01), 0x01)\n        /* \"#utility.yul\":5465:5496   */\n      dup3\n      and\n      not(sub(shl(0x80, 0x01), 0x02))\n        /* \"#utility.yul\":5508:5540   */\n      dup2\n      add\n        /* \"#utility.yul\":5505:5660   */\n      tag_199\n      jumpi\n        /* \"#utility.yul\":5582:5592   */\n      0x4e487b71\n        /* \"#utility.yul\":5577:5580   */\n      0xe0\n        /* \"#utility.yul\":5573:5593   */\n      shl\n        /* \"#utility.yul\":5570:5571   */\n      0x00\n        /* \"#utility.yul\":5563:5594   */\n      mstore\n        /* \"#utility.yul\":5617:5621   */\n      0x11\n        /* \"#utility.yul\":5614:5615   */\n      0x04\n        /* \"#utility.yul\":5607:5622   */\n      mstore\n        /* \"#utility.yul\":5645:5649   */\n      0x24\n        /* \"#utility.yul\":5642:5643   */\n      0x00\n        /* \"#utility.yul\":5635:5650   */\n      revert\n        /* \"#utility.yul\":5505:5660   */\n    tag_199:\n        /* \"#utility.yul\":5689:5690   */\n      0x01\n        /* \"#utility.yul\":5676:5691   */\n      add\n      swap3\n        /* \"#utility.yul\":5393:5697   */\n      swap2\n      pop\n      pop\n      jump\t// out\n        /* \"#utility.yul\":5828:6346   */\n    tag_152:\n        /* \"#utility.yul\":5930:5932   */\n      0x1f\n        /* \"#utility.yul\":5925:5928   */\n      dup3\n        /* \"#utility.yul\":5922:5933   */\n      gt\n        /* \"#utility.yul\":5919:6340   */\n      iszero\n      tag_202\n      jumpi\n        /* \"#utility.yul\":5966:5971   */\n      dup1\n        /* \"#utility.yul\":5963:5964   */\n      0x00\n        /* \"#utility.yul\":5956:5972   */\n      mstore\n        /* \"#utility.yul\":6010:6014   */\n      0x20\n        /* \"#utility.yul\":6007:6008   */\n      0x00\n        /* \"#utility.yul\":5997:6015   */\n      keccak256\n        /* \"#utility.yul\":6080:6082   */\n      0x1f\n        /* \"#utility.yul\":6068:6078   */\n      dup5\n        /* \"#utility.yul\":6064:6083   */\n      add\n        /* \"#utility.yul\":6061:6062   */\n      0x05\n        /* \"#utility.yul\":6057:6084   */\n      shr\n        /* \"#utility.yul\":6051:6055   */\n      dup2\n        /* \"#utility.yul\":6047:6085   */\n      add\n        /* \"#utility.yul\":6116:6120   */\n      0x20\n        /* \"#utility.yul\":6104:6114   */\n      dup6\n        /* \"#utility.yul\":6101:6121   */\n      lt\n        /* \"#utility.yul\":6098:6145   */\n      iszero\n      tag_203\n      jumpi\n      pop\n        /* \"#utility.yul\":6139:6143   */\n      dup1\n        /* \"#utility.yul\":6098:6145   */\n    tag_203:\n        /* \"#utility.yul\":6194:6196   */\n      0x1f\n        /* \"#utility.yul\":6189:6192   */\n      dup5\n        /* \"#utility.yul\":6185:6197   */\n      add\n        /* \"#utility.yul\":6182:6183   */\n      0x05\n        /* \"#utility.yul\":6178:6198   */\n      shr\n        /* \"#utility.yul\":6172:6176   */\n      dup3\n        /* \"#utility.yul\":6168:6199   */\n      add\n        /* \"#utility.yul\":6158:6199   */\n      swap2\n      pop\n        /* \"#utility.yul\":6249:6330   */\n    tag_204:\n        /* \"#utility.yul\":6267:6269   */\n      dup2\n        /* \"#utility.yul\":6260:6265   */\n      dup2\n        /* \"#utility.yul\":6257:6270   */\n      lt\n        /* \"#utility.yul\":6249:6330   */\n      iszero\n      tag_206\n      jumpi\n        /* \"#utility.yul\":6326:6327   */\n      0x00\n        /* \"#utility.yul\":6312:6328   */\n      dup2\n      sstore\n        /* \"#utility.yul\":6293:6294   */\n      0x01\n        /* \"#utility.yul\":6282:6295   */\n      add\n        /* \"#utility.yul\":6249:6330   */\n      jump(tag_204)\n    tag_206:\n        /* \"#utility.yul\":6253:6256   */\n      pop\n      pop\n        /* \"#utility.yul\":5919:6340   */\n    tag_202:\n        /* \"#utility.yul\":5828:6346   */\n      pop\n      pop\n      pop\n      jump\t// out\n        /* \"#utility.yul\":6522:7821   */\n    tag_105:\n        /* \"#utility.yul\":6642:6652   */\n      dup2\n      mload\n      sub(shl(0x40, 0x01), 0x01)\n        /* \"#utility.yul\":6664:6694   */\n      dup2\n      gt\n        /* \"#utility.yul\":6661:6717   */\n      iszero\n      tag_210\n      jumpi\n        /* \"#utility.yul\":6697:6715   */\n      tag_210\n      tag_150\n      jump\t// in\n    tag_210:\n        /* \"#utility.yul\":6726:6823   */\n      tag_211\n        /* \"#utility.yul\":6816:6822   */\n      dup2\n        /* \"#utility.yul\":6776:6814   */\n      tag_212\n        /* \"#utility.yul\":6808:6812   */\n      dup5\n        /* \"#utility.yul\":6802:6813   */\n      sload\n        /* \"#utility.yul\":6776:6814   */\n      tag_70\n      jump\t// in\n    tag_212:\n        /* \"#utility.yul\":6770:6774   */\n      dup5\n        /* \"#utility.yul\":6726:6823   */\n      tag_152\n      jump\t// in\n    tag_211:\n        /* \"#utility.yul\":6872:6876   */\n      0x20\n        /* \"#utility.yul\":6903:6905   */\n      0x1f\n        /* \"#utility.yul\":6892:6906   */\n      dup3\n      gt\n        /* \"#utility.yul\":6920:6921   */\n      0x01\n        /* \"#utility.yul\":6915:7564   */\n      dup2\n      eq\n      tag_214\n      jumpi\n        /* \"#utility.yul\":7608:7609   */\n      0x00\n        /* \"#utility.yul\":7625:7631   */\n      dup4\n        /* \"#utility.yul\":7622:7711   */\n      iszero\n      tag_215\n      jumpi\n      pop\n        /* \"#utility.yul\":7677:7696   */\n      dup5\n      dup3\n      add\n        /* \"#utility.yul\":7671:7697   */\n      mload\n        /* \"#utility.yul\":7622:7711   */\n    tag_215:\n      not(0x00)\n        /* \"#utility.yul\":6479:6480   */\n      0x03\n        /* \"#utility.yul\":6475:6486   */\n      dup6\n      swap1\n      shl\n        /* \"#utility.yul\":6471:6495   */\n      shr\n        /* \"#utility.yul\":6467:6496   */\n      not\n        /* \"#utility.yul\":6457:6497   */\n      and\n        /* \"#utility.yul\":6503:6504   */\n      0x01\n        /* \"#utility.yul\":6499:6510   */\n      dup5\n      swap1\n      shl\n        /* \"#utility.yul\":6454:6511   */\n      or\n        /* \"#utility.yul\":7724:7805   */\n      dup5\n      sstore\n        /* \"#utility.yul\":6885:7815   */\n      jump(tag_206)\n        /* \"#utility.yul\":6915:7564   */\n    tag_214:\n        /* \"#utility.yul\":5775:5776   */\n      0x00\n        /* \"#utility.yul\":5768:5782   */\n      dup5\n      dup2\n      mstore\n        /* \"#utility.yul\":5812:5816   */\n      0x20\n        /* \"#utility.yul\":5799:5817   */\n      dup2\n      keccak256\n      not(0x1f)\n        /* \"#utility.yul\":6951:6971   */\n      dup6\n      and\n      swap2\n        /* \"#utility.yul\":7069:7291   */\n    tag_218:\n        /* \"#utility.yul\":7083:7090   */\n      dup3\n        /* \"#utility.yul\":7080:7081   */\n      dup2\n        /* \"#utility.yul\":7077:7091   */\n      lt\n        /* \"#utility.yul\":7069:7291   */\n      iszero\n      tag_220\n      jumpi\n        /* \"#utility.yul\":7165:7184   */\n      dup8\n      dup6\n      add\n        /* \"#utility.yul\":7159:7185   */\n      mload\n        /* \"#utility.yul\":7144:7186   */\n      dup3\n      sstore\n        /* \"#utility.yul\":7272:7276   */\n      0x20\n        /* \"#utility.yul\":7257:7277   */\n      swap5\n      dup6\n      add\n      swap5\n        /* \"#utility.yul\":7225:7226   */\n      0x01\n        /* \"#utility.yul\":7213:7227   */\n      swap1\n      swap3\n      add\n      swap2\n        /* \"#utility.yul\":7099:7111   */\n      add\n        /* \"#utility.yul\":7069:7291   */\n      jump(tag_218)\n    tag_220:\n        /* \"#utility.yul\":7073:7076   */\n      pop\n        /* \"#utility.yul\":7319:7325   */\n      dup5\n        /* \"#utility.yul\":7310:7317   */\n      dup3\n        /* \"#utility.yul\":7307:7326   */\n      lt\n        /* \"#utility.yul\":7304:7505   */\n      iszero\n      tag_221\n      jumpi\n        /* \"#utility.yul\":7380:7399   */\n      dup7\n      dup5\n      add\n        /* \"#utility.yul\":7374:7400   */\n      mload\n      not(0x00)\n        /* \"#utility.yul\":7463:7464   */\n      0x03\n        /* \"#utility.yul\":7459:7473   */\n      dup8\n      swap1\n      shl\n        /* \"#utility.yul\":7475:7478   */\n      0xf8\n        /* \"#utility.yul\":7455:7479   */\n      and\n        /* \"#utility.yul\":7451:7488   */\n      shr\n        /* \"#utility.yul\":7447:7489   */\n      not\n        /* \"#utility.yul\":7432:7490   */\n      and\n        /* \"#utility.yul\":7417:7491   */\n      dup2\n      sstore\n        /* \"#utility.yul\":7304:7505   */\n    tag_221:\n      pop\n      pop\n      pop\n      pop\n        /* \"#utility.yul\":7551:7552   */\n      0x01\n        /* \"#utility.yul\":7535:7549   */\n      swap1\n      dup2\n      shl\n        /* \"#utility.yul\":7531:7553   */\n      add\n        /* \"#utility.yul\":7518:7554   */\n      swap1\n      sstore\n      pop\n        /* \"#utility.yul\":6522:7821   */\n      jump\t// out\n\n    auxdata: 0xa2646970667358221220376da3cdbcce7e30eb748d627f38e774ed241726c6c8a95c6a4a87e73aedff3364736f6c634300081e0033\n}\n",
				"bytecode": {
					"linkReferences": {},
					"object": "6080604052348015600e575f5ffd5b50610cae8061001c5f395ff3fe608060405234801561000f575f5ffd5b5060043610610097575f3560e01c80631f7f08e71461009b5780632134b6f6146100c4578063396e77e7146100e45780635059e95b146100f6578063715018a614610109578063832dbdd9146101135780638da5cb5b14610126578063921a02381461012e578063c0c53b8b14610153578063df808ac514610166578063f2fde38b14610179575b5f5ffd5b6100ae6100a9366004610887565b61018c565b6040516100bb91906108af565b60405180910390f35b6005546100d7906001600160a01b031681565b6040516100bb91906108c3565b5f546100ae906001600160801b031681565b6003546100d7906001600160a01b031681565b6101116101d3565b005b6004546100d7906001600160a01b031681565b6100d76101e6565b61014161013c3660046108d7565b610200565b6040516100bb969594939291906108f7565b61011161016136600461098f565b6102e4565b6101116101743660046109e3565b610459565b610111610187366004610acb565b6106fb565b6002602052815f5260405f2081815481106101a5575f80fd5b905f5260205f209060029182820401919006601002915091509054906101000a90046001600160801b031681565b6101db610741565b6101e45f610773565b565b5f5f6101f06107cd565b546001600160a01b031692915050565b600160208190525f918252604090912080549181015460028201546003830180546001600160801b03958616956001600160a01b039094169493831693600160801b90930460ff1692919061025490610ae4565b80601f016020809104026020016040519081016040528092919081815260200182805461028090610ae4565b80156102cb5780601f106102a2576101008083540402835291602001916102cb565b820191905f5260205f20905b8154815290600101906020018083116102ae57829003601f168201915b505050600490930154919250506001600160801b031686565b5f6102ed6107f1565b805490915060ff600160401b82041615906001600160401b03165f811580156103135750825b90505f826001600160401b0316600114801561032e5750303b155b90508115801561033c575080155b1561035a5760405163f92ee8a960e01b815260040160405180910390fd5b84546001600160401b0319166001178555831561038357845460ff60401b1916600160401b1785555b6001600160a01b03881615806103a057506001600160a01b038716155b156103be57604051639e4f29a360e01b815260040160405180910390fd5b6103c786610815565b600480546001600160a01b03808b166001600160a01b03199283161790925560058054928a16929091169190911790555f80546001600160801b0319166001179055831561044f57845460ff60401b19168555604051600181527fc7f505b2f371ae2175ee4913f4499e1f2633a7b5936321eed1cdaeb6115181d29060200160405180910390a15b5050505050505050565b6004546001600160a01b03163314610484576040516319c6854760e11b815260040160405180910390fd5b60055460405163b2a6cb6360e01b81526001600160a01b039091169063b2a6cb63906104b49086906004016108af565b602060405180830381865afa1580156104cf573d5f5f3e3d5ffd5b505050506040513d601f19601f820116820180604052508101906104f39190610b1c565b610510576040516347b124fd60e01b815260040160405180910390fd5b60018260ff161080610525575060058260ff16115b156105435760405163ca20ea4b60e01b815260040160405180910390fd5b5f80546001600160801b0316818061055a83610b3b565b82546101009290920a6001600160801b038181021990931691831602179091556040805160c0810182528383168082526001600160a01b038a811660208085019182528b871685870190815260ff8c811660608801908152608088018d8152428b1660a08a01525f97885260019485905298909620875181546001600160801b031916908b16178155935192840180546001600160a01b031916939095169290921790935591516002820180549451919097166001600160881b031990941693909317600160801b93909216929092021790935590519293509160038201906106439082610bbe565b5060a09190910151600490910180546001600160801b0319166001600160801b039283161790558481165f818152600260208181526040808420805460018181018355918652948390209385049093018054949093166010026101000a8087021990941695871693840295909517909155925160ff8716815291926001600160a01b038916927f3d07dd1482bc8670ed7c2cf1f89b16d2da31a3996e171620a09cf3fd4c8e4446910160405180910390a45050505050565b610703610741565b6001600160a01b038116610735575f604051631e4fbdf760e01b815260040161072c91906108c3565b60405180910390fd5b61073e81610773565b50565b3361074a6101e6565b6001600160a01b0316146101e4573360405163118cdaa760e01b815260040161072c91906108c3565b5f61077c6107cd565b80546001600160a01b038481166001600160a01b031983168117845560405193945091169182907f8be0079c531659141344cd1fd0a4f28419497f9722a3daafe3b4186f6b6457e0905f90a3505050565b7f9016d09d72d40fdae2fd8ceac6b6234c7706214fd39c1cd1e609a0528c19930090565b7ff0c57e16840df040f15088dc2f81fe391c3923bec73e23a9662efc9c229c6a0090565b61081d610826565b61073e8161084b565b61082e610853565b6101e457604051631afcd79f60e31b815260040160405180910390fd5b610703610826565b5f61085c6107f1565b54600160401b900460ff16919050565b80356001600160801b0381168114610882575f5ffd5b919050565b5f5f60408385031215610898575f5ffd5b6108a18361086c565b946020939093013593505050565b6001600160801b0391909116815260200190565b6001600160a01b0391909116815260200190565b5f602082840312156108e7575f5ffd5b6108f08261086c565b9392505050565b6001600160801b0387811682526001600160a01b038716602080840191909152908616604083015260ff8516606083015260c06080830181905284519083018190525f918190860160e085015e5f83820160e0908101919091526001600160801b039490941660a0840152601f01601f19169091019091019695505050505050565b80356001600160a01b0381168114610882575f5ffd5b5f5f5f606084860312156109a1575f5ffd5b6109aa84610979565b92506109b860208501610979565b91506109c660408501610979565b90509250925092565b634e487b7160e01b5f52604160045260245ffd5b5f5f5f5f608085870312156109f6575f5ffd5b6109ff85610979565b9350610a0d6020860161086c565b9250604085013560ff81168114610a22575f5ffd5b915060608501356001600160401b03811115610a3c575f5ffd5b8501601f81018713610a4c575f5ffd5b80356001600160401b03811115610a6557610a656109cf565b604051601f8201601f19908116603f011681016001600160401b0381118282101715610a9357610a936109cf565b604052818152828201602001891015610aaa575f5ffd5b816020840160208301375f6020838301015280935050505092959194509250565b5f60208284031215610adb575f5ffd5b6108f082610979565b600181811c90821680610af857607f821691505b602082108103610b1657634e487b7160e01b5f52602260045260245ffd5b50919050565b5f60208284031215610b2c575f5ffd5b815180151581146108f0575f5ffd5b5f6001600160801b0382166002600160801b03198101610b6957634e487b7160e01b5f52601160045260245ffd5b60010192915050565b601f821115610bb957805f5260205f20601f840160051c81016020851015610b975750805b601f840160051c820191505b81811015610bb6575f8155600101610ba3565b50505b505050565b81516001600160401b03811115610bd757610bd76109cf565b610beb81610be58454610ae4565b84610b72565b6020601f821160018114610c1d575f8315610c065750848201515b5f19600385901b1c1916600184901b178455610bb6565b5f84815260208120601f198516915b82811015610c4c5787850151825560209485019460019092019101610c2c565b5084821015610c6957868401515f19600387901b60f8161c191681555b50505050600190811b0190555056fea2646970667358221220376da3cdbcce7e30eb748d627f38e774ed241726c6c8a95c6a4a87e73aedff3364736f6c634300081e0033",
					"opcodes": "PUSH1 0x80 PUSH1 0x40 MSTORE CALLVALUE DUP1 ISZERO PUSH1 0xE JUMPI PUSH0 PUSH0 REVERT JUMPDEST POP PUSH2 0xCAE DUP1 PUSH2 0x1C PUSH0 CODECOPY PUSH0 RETURN INVALID PUSH1 0x80 PUSH1 0x40 MSTORE CALLVALUE DUP1 ISZERO PUSH2 0xF JUMPI PUSH0 PUSH0 REVERT JUMPDEST POP PUSH1 0x4 CALLDATASIZE LT PUSH2 0x97 JUMPI PUSH0 CALLDATALOAD PUSH1 0xE0 SHR DUP1 PUSH4 0x1F7F08E7 EQ PUSH2 0x9B JUMPI DUP1 PUSH4 0x2134B6F6 EQ PUSH2 0xC4 JUMPI DUP1 PUSH4 0x396E77E7 EQ PUSH2 0xE4 JUMPI DUP1 PUSH4 0x5059E95B EQ PUSH2 0xF6 JUMPI DUP1 PUSH4 0x715018A6 EQ PUSH2 0x109 JUMPI DUP1 PUSH4 0x832DBDD9 EQ PUSH2 0x113 JUMPI DUP1 PUSH4 0x8DA5CB5B EQ PUSH2 0x126 JUMPI DUP1 PUSH4 0x921A0238 EQ PUSH2 0x12E JUMPI DUP1 PUSH4 0xC0C53B8B EQ PUSH2 0x153 JUMPI DUP1 PUSH4 0xDF808AC5 EQ PUSH2 0x166 JUMPI DUP1 PUSH4 0xF2FDE38B EQ PUSH2 0x179 JUMPI JUMPDEST PUSH0 PUSH0 REVERT JUMPDEST PUSH2 0xAE PUSH2 0xA9 CALLDATASIZE PUSH1 0x4 PUSH2 0x887 JUMP JUMPDEST PUSH2 0x18C JUMP JUMPDEST PUSH1 0x40 MLOAD PUSH2 0xBB SWAP2 SWAP1 PUSH2 0x8AF JUMP JUMPDEST PUSH1 0x40 MLOAD DUP1 SWAP2 SUB SWAP1 RETURN JUMPDEST PUSH1 0x5 SLOAD PUSH2 0xD7 SWAP1 PUSH1 0x1 PUSH1 0x1 PUSH1 0xA0 SHL SUB AND DUP2 JUMP JUMPDEST PUSH1 0x40 MLOAD PUSH2 0xBB SWAP2 SWAP1 PUSH2 0x8C3 JUMP JUMPDEST PUSH0 SLOAD PUSH2 0xAE SWAP1 PUSH1 0x1 PUSH1 0x1 PUSH1 0x80 SHL SUB AND DUP2 JUMP JUMPDEST PUSH1 0x3 SLOAD PUSH2 0xD7 SWAP1 PUSH1 0x1 PUSH1 0x1 PUSH1 0xA0 SHL SUB AND DUP2 JUMP JUMPDEST PUSH2 0x111 PUSH2 0x1D3 JUMP JUMPDEST STOP JUMPDEST PUSH1 0x4 SLOAD PUSH2 0xD7 SWAP1 PUSH1 0x1 PUSH1 0x1 PUSH1 0xA0 SHL SUB AND DUP2 JUMP JUMPDEST PUSH2 0xD7 PUSH2 0x1E6 JUMP JUMPDEST PUSH2 0x141 PUSH2 0x13C CALLDATASIZE PUSH1 0x4 PUSH2 0x8D7 JUMP JUMPDEST PUSH2 0x200 JUMP JUMPDEST PUSH1 0x40 MLOAD PUSH2 0xBB SWAP7 SWAP6 SWAP5 SWAP4 SWAP3 SWAP2 SWAP1 PUSH2 0x8F7 JUMP JUMPDEST PUSH2 0x111 PUSH2 0x161 CALLDATASIZE PUSH1 0x4 PUSH2 0x98F JUMP JUMPDEST PUSH2 0x2E4 JUMP JUMPDEST PUSH2 0x111 PUSH2 0x174 CALLDATASIZE PUSH1 0x4 PUSH2 0x9E3 JUMP JUMPDEST PUSH2 0x459 JUMP JUMPDEST PUSH2 0x111 PUSH2 0x187 CALLDATASIZE PUSH1 0x4 PUSH2 0xACB JUMP JUMPDEST PUSH2 0x6FB JUMP JUMPDEST PUSH1 0x2 PUSH1 0x20 MSTORE DUP2 PUSH0 MSTORE PUSH1 0x40 PUSH0 KECCAK256 DUP2 DUP2 SLOAD DUP2 LT PUSH2 0x1A5 JUMPI PUSH0 DUP1 REVERT JUMPDEST SWAP1 PUSH0 MSTORE PUSH1 0x20 PUSH0 KECCAK256 SWAP1 PUSH1 0x2 SWAP2 DUP3 DUP3 DIV ADD SWAP2 SWAP1 MOD PUSH1 0x10 MUL SWAP2 POP SWAP2 POP SWAP1 SLOAD SWAP1 PUSH2 0x100 EXP SWAP1 DIV PUSH1 0x1 PUSH1 0x1 PUSH1 0x80 SHL SUB AND DUP2 JUMP JUMPDEST PUSH2 0x1DB PUSH2 0x741 JUMP JUMPDEST PUSH2 0x1E4 PUSH0 PUSH2 0x773 JUMP JUMPDEST JUMP JUMPDEST PUSH0 PUSH0 PUSH2 0x1F0 PUSH2 0x7CD JUMP JUMPDEST SLOAD PUSH1 0x1 PUSH1 0x1 PUSH1 0xA0 SHL SUB AND SWAP3 SWAP2 POP POP JUMP JUMPDEST PUSH1 0x1 PUSH1 0x20 DUP2 SWAP1 MSTORE PUSH0 SWAP2 DUP3 MSTORE PUSH1 0x40 SWAP1 SWAP2 KECCAK256 DUP1 SLOAD SWAP2 DUP2 ADD SLOAD PUSH1 0x2 DUP3 ADD SLOAD PUSH1 0x3 DUP4 ADD DUP1 SLOAD PUSH1 0x1 PUSH1 0x1 PUSH1 0x80 SHL SUB SWAP6 DUP7 AND SWAP6 PUSH1 0x1 PUSH1 0x1 PUSH1 0xA0 SHL SUB SWAP1 SWAP5 AND SWAP5 SWAP4 DUP4 AND SWAP4 PUSH1 0x1 PUSH1 0x80 SHL SWAP1 SWAP4 DIV PUSH1 0xFF AND SWAP3 SWAP2 SWAP1 PUSH2 0x254 SWAP1 PUSH2 0xAE4 JUMP JUMPDEST DUP1 PUSH1 0x1F ADD PUSH1 0x20 DUP1 SWAP2 DIV MUL PUSH1 0x20 ADD PUSH1 0x40 MLOAD SWAP1 DUP2 ADD PUSH1 0x40 MSTORE DUP1 SWAP3 SWAP2 SWAP1 DUP2 DUP2 MSTORE PUSH1 0x20 ADD DUP3 DUP1 SLOAD PUSH2 0x280 SWAP1 PUSH2 0xAE4 JUMP JUMPDEST DUP1 ISZERO PUSH2 0x2CB JUMPI DUP1 PUSH1 0x1F LT PUSH2 0x2A2 JUMPI PUSH2 0x100 DUP1 DUP4 SLOAD DIV MUL DUP4 MSTORE SWAP2 PUSH1 0x20 ADD SWAP2 PUSH2 0x2CB JUMP JUMPDEST DUP3 ADD SWAP2 SWAP1 PUSH0 MSTORE PUSH1 0x20 PUSH0 KECCAK256 SWAP1 JUMPDEST DUP2 SLOAD DUP2 MSTORE SWAP1 PUSH1 0x1 ADD SWAP1 PUSH1 0x20 ADD DUP1 DUP4 GT PUSH2 0x2AE JUMPI DUP3 SWAP1 SUB PUSH1 0x1F AND DUP3 ADD SWAP2 JUMPDEST POP POP POP PUSH1 0x4 SWAP1 SWAP4 ADD SLOAD SWAP2 SWAP3 POP POP PUSH1 0x1 PUSH1 0x1 PUSH1 0x80 SHL SUB AND DUP7 JUMP JUMPDEST PUSH0 PUSH2 0x2ED PUSH2 0x7F1 JUMP JUMPDEST DUP1 SLOAD SWAP1 SWAP2 POP PUSH1 0xFF PUSH1 0x1 PUSH1 0x40 SHL DUP3 DIV AND ISZERO SWAP1 PUSH1 0x1 PUSH1 0x1 PUSH1 0x40 SHL SUB AND PUSH0 DUP2 ISZERO DUP1 ISZERO PUSH2 0x313 JUMPI POP DUP3 JUMPDEST SWAP1 POP PUSH0 DUP3 PUSH1 0x1 PUSH1 0x1 PUSH1 0x40 SHL SUB AND PUSH1 0x1 EQ DUP1 ISZERO PUSH2 0x32E JUMPI POP ADDRESS EXTCODESIZE ISZERO JUMPDEST SWAP1 POP DUP2 ISZERO DUP1 ISZERO PUSH2 0x33C JUMPI POP DUP1 ISZERO JUMPDEST ISZERO PUSH2 0x35A JUMPI PUSH1 0x40 MLOAD PUSH4 0xF92EE8A9 PUSH1 0xE0 SHL DUP2 MSTORE PUSH1 0x4 ADD PUSH1 0x40 MLOAD DUP1 SWAP2 SUB SWAP1 REVERT JUMPDEST DUP5 SLOAD PUSH1 0x1 PUSH1 0x1 PUSH1 0x40 SHL SUB NOT AND PUSH1 0x1 OR DUP6 SSTORE DUP4 ISZERO PUSH2 0x383 JUMPI DUP5 SLOAD PUSH1 0xFF PUSH1 0x40 SHL NOT AND PUSH1 0x1 PUSH1 0x40 SHL OR DUP6 SSTORE JUMPDEST PUSH1 0x1 PUSH1 0x1 PUSH1 0xA0 SHL SUB DUP9 AND ISZERO DUP1 PUSH2 0x3A0 JUMPI POP PUSH1 0x1 PUSH1 0x1 PUSH1 0xA0 SHL SUB DUP8 AND ISZERO JUMPDEST ISZERO PUSH2 0x3BE JUMPI PUSH1 0x40 MLOAD PUSH4 0x9E4F29A3 PUSH1 0xE0 SHL DUP2 MSTORE PUSH1 0x4 ADD PUSH1 0x40 MLOAD DUP1 SWAP2 SUB SWAP1 REVERT JUMPDEST PUSH2 0x3C7 DUP7 PUSH2 0x815 JUMP JUMPDEST PUSH1 0x4 DUP1 SLOAD PUSH1 0x1 PUSH1 0x1 PUSH1 0xA0 SHL SUB DUP1 DUP12 AND PUSH1 0x1 PUSH1 0x1 PUSH1 0xA0 SHL SUB NOT SWAP3 DUP4 AND OR SWAP1 SWAP3 SSTORE PUSH1 0x5 DUP1 SLOAD SWAP3 DUP11 AND SWAP3 SWAP1 SWAP2 AND SWAP2 SWAP1 SWAP2 OR SWAP1 SSTORE PUSH0 DUP1 SLOAD PUSH1 0x1 PUSH1 0x1 PUSH1 0x80 SHL SUB NOT AND PUSH1 0x1 OR SWAP1 SSTORE DUP4 ISZERO PUSH2 0x44F JUMPI DUP5 SLOAD PUSH1 0xFF PUSH1 0x40 SHL NOT AND DUP6 SSTORE PUSH1 0x40 MLOAD PUSH1 0x1 DUP2 MSTORE PUSH32 0xC7F505B2F371AE2175EE4913F4499E1F2633A7B5936321EED1CDAEB6115181D2 SWAP1 PUSH1 0x20 ADD PUSH1 0x40 MLOAD DUP1 SWAP2 SUB SWAP1 LOG1 JUMPDEST POP POP POP POP POP POP POP POP JUMP JUMPDEST PUSH1 0x4 SLOAD PUSH1 0x1 PUSH1 0x1 PUSH1 0xA0 SHL SUB AND CALLER EQ PUSH2 0x484 JUMPI PUSH1 0x40 MLOAD PUSH4 0x19C68547 PUSH1 0xE1 SHL DUP2 MSTORE PUSH1 0x4 ADD PUSH1 0x40 MLOAD DUP1 SWAP2 SUB SWAP1 REVERT JUMPDEST PUSH1 0x5 SLOAD PUSH1 0x40 MLOAD PUSH4 0xB2A6CB63 PUSH1 0xE0 SHL DUP2 MSTORE PUSH1 0x1 PUSH1 0x1 PUSH1 0xA0 SHL SUB SWAP1 SWAP2 AND SWAP1 PUSH4 0xB2A6CB63 SWAP1 PUSH2 0x4B4 SWAP1 DUP7 SWAP1 PUSH1 0x4 ADD PUSH2 0x8AF JUMP JUMPDEST PUSH1 0x20 PUSH1 0x40 MLOAD DUP1 DUP4 SUB DUP2 DUP7 GAS STATICCALL ISZERO DUP1 ISZERO PUSH2 0x4CF JUMPI RETURNDATASIZE PUSH0 PUSH0 RETURNDATACOPY RETURNDATASIZE PUSH0 REVERT JUMPDEST POP POP POP POP PUSH1 0x40 MLOAD RETURNDATASIZE PUSH1 0x1F NOT PUSH1 0x1F DUP3 ADD AND DUP3 ADD DUP1 PUSH1 0x40 MSTORE POP DUP2 ADD SWAP1 PUSH2 0x4F3 SWAP2 SWAP1 PUSH2 0xB1C JUMP JUMPDEST PUSH2 0x510 JUMPI PUSH1 0x40 MLOAD PUSH4 0x47B124FD PUSH1 0xE0 SHL DUP2 MSTORE PUSH1 0x4 ADD PUSH1 0x40 MLOAD DUP1 SWAP2 SUB SWAP1 REVERT JUMPDEST PUSH1 0x1 DUP3 PUSH1 0xFF AND LT DUP1 PUSH2 0x525 JUMPI POP PUSH1 0x5 DUP3 PUSH1 0xFF AND GT JUMPDEST ISZERO PUSH2 0x543 JUMPI PUSH1 0x40 MLOAD PUSH4 0xCA20EA4B PUSH1 0xE0 SHL DUP2 MSTORE PUSH1 0x4 ADD PUSH1 0x40 MLOAD DUP1 SWAP2 SUB SWAP1 REVERT JUMPDEST PUSH0 DUP1 SLOAD PUSH1 0x1 PUSH1 0x1 PUSH1 0x80 SHL SUB AND DUP2 DUP1 PUSH2 0x55A DUP4 PUSH2 0xB3B JUMP JUMPDEST DUP3 SLOAD PUSH2 0x100 SWAP3 SWAP1 SWAP3 EXP PUSH1 0x1 PUSH1 0x1 PUSH1 0x80 SHL SUB DUP2 DUP2 MUL NOT SWAP1 SWAP4 AND SWAP2 DUP4 AND MUL OR SWAP1 SWAP2 SSTORE PUSH1 0x40 DUP1 MLOAD PUSH1 0xC0 DUP2 ADD DUP3 MSTORE DUP4 DUP4 AND DUP1 DUP3 MSTORE PUSH1 0x1 PUSH1 0x1 PUSH1 0xA0 SHL SUB DUP11 DUP2 AND PUSH1 0x20 DUP1 DUP6 ADD SWAP2 DUP3 MSTORE DUP12 DUP8 AND DUP6 DUP8 ADD SWAP1 DUP2 MSTORE PUSH1 0xFF DUP13 DUP2 AND PUSH1 0x60 DUP9 ADD SWAP1 DUP2 MSTORE PUSH1 0x80 DUP9 ADD DUP14 DUP2 MSTORE TIMESTAMP DUP12 AND PUSH1 0xA0 DUP11 ADD MSTORE PUSH0 SWAP8 DUP9 MSTORE PUSH1 0x1 SWAP5 DUP6 SWAP1 MSTORE SWAP9 SWAP1 SWAP7 KECCAK256 DUP8 MLOAD DUP2 SLOAD PUSH1 0x1 PUSH1 0x1 PUSH1 0x80 SHL SUB NOT AND SWAP1 DUP12 AND OR DUP2 SSTORE SWAP4 MLOAD SWAP3 DUP5 ADD DUP1 SLOAD PUSH1 0x1 PUSH1 0x1 PUSH1 0xA0 SHL SUB NOT AND SWAP4 SWAP1 SWAP6 AND SWAP3 SWAP1 SWAP3 OR SWAP1 SWAP4 SSTORE SWAP2 MLOAD PUSH1 0x2 DUP3 ADD DUP1 SLOAD SWAP5 MLOAD SWAP2 SWAP1 SWAP8 AND PUSH1 0x1 PUSH1 0x1 PUSH1 0x88 SHL SUB NOT SWAP1 SWAP5 AND SWAP4 SWAP1 SWAP4 OR PUSH1 0x1 PUSH1 0x80 SHL SWAP4 SWAP1 SWAP3 AND SWAP3 SWAP1 SWAP3 MUL OR SWAP1 SWAP4 SSTORE SWAP1 MLOAD SWAP3 SWAP4 POP SWAP2 PUSH1 0x3 DUP3 ADD SWAP1 PUSH2 0x643 SWAP1 DUP3 PUSH2 0xBBE JUMP JUMPDEST POP PUSH1 0xA0 SWAP2 SWAP1 SWAP2 ADD MLOAD PUSH1 0x4 SWAP1 SWAP2 ADD DUP1 SLOAD PUSH1 0x1 PUSH1 0x1 PUSH1 0x80 SHL SUB NOT AND PUSH1 0x1 PUSH1 0x1 PUSH1 0x80 SHL SUB SWAP3 DUP4 AND OR SWAP1 SSTORE DUP5 DUP2 AND PUSH0 DUP2 DUP2 MSTORE PUSH1 0x2 PUSH1 0x20 DUP2 DUP2 MSTORE PUSH1 0x40 DUP1 DUP5 KECCAK256 DUP1 SLOAD PUSH1 0x1 DUP2 DUP2 ADD DUP4 SSTORE SWAP2 DUP7 MSTORE SWAP5 DUP4 SWAP1 KECCAK256 SWAP4 DUP6 DIV SWAP1 SWAP4 ADD DUP1 SLOAD SWAP5 SWAP1 SWAP4 AND PUSH1 0x10 MUL PUSH2 0x100 EXP DUP1 DUP8 MUL NOT SWAP1 SWAP5 AND SWAP6 DUP8 AND SWAP4 DUP5 MUL SWAP6 SWAP1 SWAP6 OR SWAP1 SWAP2 SSTORE SWAP3 MLOAD PUSH1 0xFF DUP8 AND DUP2 MSTORE SWAP2 SWAP3 PUSH1 0x1 PUSH1 0x1 PUSH1 0xA0 SHL SUB DUP10 AND SWAP3 PUSH32 0x3D07DD1482BC8670ED7C2CF1F89B16D2DA31A3996E171620A09CF3FD4C8E4446 SWAP2 ADD PUSH1 0x40 MLOAD DUP1 SWAP2 SUB SWAP1 LOG4 POP POP POP POP POP JUMP JUMPDEST PUSH2 0x703 PUSH2 0x741 JUMP JUMPDEST PUSH1 0x1 PUSH1 0x1 PUSH1 0xA0 SHL SUB DUP2 AND PUSH2 0x735 JUMPI PUSH0 PUSH1 0x40 MLOAD PUSH4 0x1E4FBDF7 PUSH1 0xE0 SHL DUP2 MSTORE PUSH1 0x4 ADD PUSH2 0x72C SWAP2 SWAP1 PUSH2 0x8C3 JUMP JUMPDEST PUSH1 0x40 MLOAD DUP1 SWAP2 SUB SWAP1 REVERT JUMPDEST PUSH2 0x73E DUP2 PUSH2 0x773 JUMP JUMPDEST POP JUMP JUMPDEST CALLER PUSH2 0x74A PUSH2 0x1E6 JUMP JUMPDEST PUSH1 0x1 PUSH1 0x1 PUSH1 0xA0 SHL SUB AND EQ PUSH2 0x1E4 JUMPI CALLER PUSH1 0x40 MLOAD PUSH4 0x118CDAA7 PUSH1 0xE0 SHL DUP2 MSTORE PUSH1 0x4 ADD PUSH2 0x72C SWAP2 SWAP1 PUSH2 0x8C3 JUMP JUMPDEST PUSH0 PUSH2 0x77C PUSH2 0x7CD JUMP JUMPDEST DUP1 SLOAD PUSH1 0x1 PUSH1 0x1 PUSH1 0xA0 SHL SUB DUP5 DUP2 AND PUSH1 0x1 PUSH1 0x1 PUSH1 0xA0 SHL SUB NOT DUP4 AND DUP2 OR DUP5 SSTORE PUSH1 0x40 MLOAD SWAP4 SWAP5 POP SWAP2 AND SWAP2 DUP3 SWAP1 PUSH32 0x8BE0079C531659141344CD1FD0A4F28419497F9722A3DAAFE3B4186F6B6457E0 SWAP1 PUSH0 SWAP1 LOG3 POP POP POP JUMP JUMPDEST PUSH32 0x9016D09D72D40FDAE2FD8CEAC6B6234C7706214FD39C1CD1E609A0528C199300 SWAP1 JUMP JUMPDEST PUSH32 0xF0C57E16840DF040F15088DC2F81FE391C3923BEC73E23A9662EFC9C229C6A00 SWAP1 JUMP JUMPDEST PUSH2 0x81D PUSH2 0x826 JUMP JUMPDEST PUSH2 0x73E DUP2 PUSH2 0x84B JUMP JUMPDEST PUSH2 0x82E PUSH2 0x853 JUMP JUMPDEST PUSH2 0x1E4 JUMPI PUSH1 0x40 MLOAD PUSH4 0x1AFCD79F PUSH1 0xE3 SHL DUP2 MSTORE PUSH1 0x4 ADD PUSH1 0x40 MLOAD DUP1 SWAP2 SUB SWAP1 REVERT JUMPDEST PUSH2 0x703 PUSH2 0x826 JUMP JUMPDEST PUSH0 PUSH2 0x85C PUSH2 0x7F1 JUMP JUMPDEST SLOAD PUSH1 0x1 PUSH1 0x40 SHL SWAP1 DIV PUSH1 0xFF AND SWAP2 SWAP1 POP JUMP JUMPDEST DUP1 CALLDATALOAD PUSH1 0x1 PUSH1 0x1 PUSH1 0x80 SHL SUB DUP2 AND DUP2 EQ PUSH2 0x882 JUMPI PUSH0 PUSH0 REVERT JUMPDEST SWAP2 SWAP1 POP JUMP JUMPDEST PUSH0 PUSH0 PUSH1 0x40 DUP4 DUP6 SUB SLT ISZERO PUSH2 0x898 JUMPI PUSH0 PUSH0 REVERT JUMPDEST PUSH2 0x8A1 DUP4 PUSH2 0x86C JUMP JUMPDEST SWAP5 PUSH1 0x20 SWAP4 SWAP1 SWAP4 ADD CALLDATALOAD SWAP4 POP POP POP JUMP JUMPDEST PUSH1 0x1 PUSH1 0x1 PUSH1 0x80 SHL SUB SWAP2 SWAP1 SWAP2 AND DUP2 MSTORE PUSH1 0x20 ADD SWAP1 JUMP JUMPDEST PUSH1 0x1 PUSH1 0x1 PUSH1 0xA0 SHL SUB SWAP2 SWAP1 SWAP2 AND DUP2 MSTORE PUSH1 0x20 ADD SWAP1 JUMP JUMPDEST PUSH0 PUSH1 0x20 DUP3 DUP5 SUB SLT ISZERO PUSH2 0x8E7 JUMPI PUSH0 PUSH0 REVERT JUMPDEST PUSH2 0x8F0 DUP3 PUSH2 0x86C JUMP JUMPDEST SWAP4 SWAP3 POP POP POP JUMP JUMPDEST PUSH1 0x1 PUSH1 0x1 PUSH1 0x80 SHL SUB DUP8 DUP2 AND DUP3 MSTORE PUSH1 0x1 PUSH1 0x1 PUSH1 0xA0 SHL SUB DUP8 AND PUSH1 0x20 DUP1 DUP5 ADD SWAP2 SWAP1 SWAP2 MSTORE SWAP1 DUP7 AND PUSH1 0x40 DUP4 ADD MSTORE PUSH1 0xFF DUP6 AND PUSH1 0x60 DUP4 ADD MSTORE PUSH1 0xC0 PUSH1 0x80 DUP4 ADD DUP2 SWAP1 MSTORE DUP5 MLOAD SWAP1 DUP4 ADD DUP2 SWAP1 MSTORE PUSH0 SWAP2 DUP2 SWAP1 DUP7 ADD PUSH1 0xE0 DUP6 ADD MCOPY PUSH0 DUP4 DUP3 ADD PUSH1 0xE0 SWAP1 DUP2 ADD SWAP2 SWAP1 SWAP2 MSTORE PUSH1 0x1 PUSH1 0x1 PUSH1 0x80 SHL SUB SWAP5 SWAP1 SWAP5 AND PUSH1 0xA0 DUP5 ADD MSTORE PUSH1 0x1F ADD PUSH1 0x1F NOT AND SWAP1 SWAP2 ADD SWAP1 SWAP2 ADD SWAP7 SWAP6 POP POP POP POP POP POP JUMP JUMPDEST DUP1 CALLDATALOAD PUSH1 0x1 PUSH1 0x1 PUSH1 0xA0 SHL SUB DUP2 AND DUP2 EQ PUSH2 0x882 JUMPI PUSH0 PUSH0 REVERT JUMPDEST PUSH0 PUSH0 PUSH0 PUSH1 0x60 DUP5 DUP7 SUB SLT ISZERO PUSH2 0x9A1 JUMPI PUSH0 PUSH0 REVERT JUMPDEST PUSH2 0x9AA DUP5 PUSH2 0x979 JUMP JUMPDEST SWAP3 POP PUSH2 0x9B8 PUSH1 0x20 DUP6 ADD PUSH2 0x979 JUMP JUMPDEST SWAP2 POP PUSH2 0x9C6 PUSH1 0x40 DUP6 ADD PUSH2 0x979 JUMP JUMPDEST SWAP1 POP SWAP3 POP SWAP3 POP SWAP3 JUMP JUMPDEST PUSH4 0x4E487B71 PUSH1 0xE0 SHL PUSH0 MSTORE PUSH1 0x41 PUSH1 0x4 MSTORE PUSH1 0x24 PUSH0 REVERT JUMPDEST PUSH0 PUSH0 PUSH0 PUSH0 PUSH1 0x80 DUP6 DUP8 SUB SLT ISZERO PUSH2 0x9F6 JUMPI PUSH0 PUSH0 REVERT JUMPDEST PUSH2 0x9FF DUP6 PUSH2 0x979 JUMP JUMPDEST SWAP4 POP PUSH2 0xA0D PUSH1 0x20 DUP7 ADD PUSH2 0x86C JUMP JUMPDEST SWAP3 POP PUSH1 0x40 DUP6 ADD CALLDATALOAD PUSH1 0xFF DUP2 AND DUP2 EQ PUSH2 0xA22 JUMPI PUSH0 PUSH0 REVERT JUMPDEST SWAP2 POP PUSH1 0x60 DUP6 ADD CALLDATALOAD PUSH1 0x1 PUSH1 0x1 PUSH1 0x40 SHL SUB DUP2 GT ISZERO PUSH2 0xA3C JUMPI PUSH0 PUSH0 REVERT JUMPDEST DUP6 ADD PUSH1 0x1F DUP2 ADD DUP8 SGT PUSH2 0xA4C JUMPI PUSH0 PUSH0 REVERT JUMPDEST DUP1 CALLDATALOAD PUSH1 0x1 PUSH1 0x1 PUSH1 0x40 SHL SUB DUP2 GT ISZERO PUSH2 0xA65 JUMPI PUSH2 0xA65 PUSH2 0x9CF JUMP JUMPDEST PUSH1 0x40 MLOAD PUSH1 0x1F DUP3 ADD PUSH1 0x1F NOT SWAP1 DUP2 AND PUSH1 0x3F ADD AND DUP2 ADD PUSH1 0x1 PUSH1 0x1 PUSH1 0x40 SHL SUB DUP2 GT DUP3 DUP3 LT OR ISZERO PUSH2 0xA93 JUMPI PUSH2 0xA93 PUSH2 0x9CF JUMP JUMPDEST PUSH1 0x40 MSTORE DUP2 DUP2 MSTORE DUP3 DUP3 ADD PUSH1 0x20 ADD DUP10 LT ISZERO PUSH2 0xAAA JUMPI PUSH0 PUSH0 REVERT JUMPDEST DUP2 PUSH1 0x20 DUP5 ADD PUSH1 0x20 DUP4 ADD CALLDATACOPY PUSH0 PUSH1 0x20 DUP4 DUP4 ADD ADD MSTORE DUP1 SWAP4 POP POP POP POP SWAP3 SWAP6 SWAP2 SWAP5 POP SWAP3 POP JUMP JUMPDEST PUSH0 PUSH1 0x20 DUP3 DUP5 SUB SLT ISZERO PUSH2 0xADB JUMPI PUSH0 PUSH0 REVERT JUMPDEST PUSH2 0x8F0 DUP3 PUSH2 0x979 JUMP JUMPDEST PUSH1 0x1 DUP2 DUP2 SHR SWAP1 DUP3 AND DUP1 PUSH2 0xAF8 JUMPI PUSH1 0x7F DUP3 AND SWAP2 POP JUMPDEST PUSH1 0x20 DUP3 LT DUP2 SUB PUSH2 0xB16 JUMPI PUSH4 0x4E487B71 PUSH1 0xE0 SHL PUSH0 MSTORE PUSH1 0x22 PUSH1 0x4 MSTORE PUSH1 0x24 PUSH0 REVERT JUMPDEST POP SWAP2 SWAP1 POP JUMP JUMPDEST PUSH0 PUSH1 0x20 DUP3 DUP5 SUB SLT ISZERO PUSH2 0xB2C JUMPI PUSH0 PUSH0 REVERT JUMPDEST DUP2 MLOAD DUP1 ISZERO ISZERO DUP2 EQ PUSH2 0x8F0 JUMPI PUSH0 PUSH0 REVERT JUMPDEST PUSH0 PUSH1 0x1 PUSH1 0x1 PUSH1 0x80 SHL SUB DUP3 AND PUSH1 0x2 PUSH1 0x1 PUSH1 0x80 SHL SUB NOT DUP2 ADD PUSH2 0xB69 JUMPI PUSH4 0x4E487B71 PUSH1 0xE0 SHL PUSH0 MSTORE PUSH1 0x11 PUSH1 0x4 MSTORE PUSH1 0x24 PUSH0 REVERT JUMPDEST PUSH1 0x1 ADD SWAP3 SWAP2 POP POP JUMP JUMPDEST PUSH1 0x1F DUP3 GT ISZERO PUSH2 0xBB9 JUMPI DUP1 PUSH0 MSTORE PUSH1 0x20 PUSH0 KECCAK256 PUSH1 0x1F DUP5 ADD PUSH1 0x5 SHR DUP2 ADD PUSH1 0x20 DUP6 LT ISZERO PUSH2 0xB97 JUMPI POP DUP1 JUMPDEST PUSH1 0x1F DUP5 ADD PUSH1 0x5 SHR DUP3 ADD SWAP2 POP JUMPDEST DUP2 DUP2 LT ISZERO PUSH2 0xBB6 JUMPI PUSH0 DUP2 SSTORE PUSH1 0x1 ADD PUSH2 0xBA3 JUMP JUMPDEST POP POP JUMPDEST POP POP POP JUMP JUMPDEST DUP2 MLOAD PUSH1 0x1 PUSH1 0x1 PUSH1 0x40 SHL SUB DUP2 GT ISZERO PUSH2 0xBD7 JUMPI PUSH2 0xBD7 PUSH2 0x9CF JUMP JUMPDEST PUSH2 0xBEB DUP2 PUSH2 0xBE5 DUP5 SLOAD PUSH2 0xAE4 JUMP JUMPDEST DUP5 PUSH2 0xB72 JUMP JUMPDEST PUSH1 0x20 PUSH1 0x1F DUP3 GT PUSH1 0x1 DUP2 EQ PUSH2 0xC1D JUMPI PUSH0 DUP4 ISZERO PUSH2 0xC06 JUMPI POP DUP5 DUP3 ADD MLOAD JUMPDEST PUSH0 NOT PUSH1 0x3 DUP6 SWAP1 SHL SHR NOT AND PUSH1 0x1 DUP5 SWAP1 SHL OR DUP5 SSTORE PUSH2 0xBB6 JUMP JUMPDEST PUSH0 DUP5 DUP2 MSTORE PUSH1 0x20 DUP2 KECCAK256 PUSH1 0x1F NOT DUP6 AND SWAP2 JUMPDEST DUP3 DUP2 LT ISZERO PUSH2 0xC4C JUMPI DUP8 DUP6 ADD MLOAD DUP3 SSTORE PUSH1 0x20 SWAP5 DUP6 ADD SWAP5 PUSH1 0x1 SWAP1 SWAP3 ADD SWAP2 ADD PUSH2 0xC2C JUMP JUMPDEST POP DUP5 DUP3 LT ISZERO PUSH2 0xC69 JUMPI DUP7 DUP5 ADD MLOAD PUSH0 NOT PUSH1 0x3 DUP8 SWAP1 SHL PUSH1 0xF8 AND SHR NOT AND DUP2 SSTORE JUMPDEST POP POP POP POP PUSH1 0x1 SWAP1 DUP2 SHL ADD SWAP1 SSTORE POP JUMP INVALID LOG2 PUSH5 0x6970667358 0x22 SLT KECCAK256 CALLDATACOPY PUSH14 0xA3CDBCCE7E30EB748D627F38E774 0xED 0x24 OR 0x26 0xC6 0xC8 0xA9 TLOAD PUSH11 0x4A87E73AEDFF3364736F6C PUSH4 0x4300081E STOP CALLER "
				},
				"gasEstimates": {
					"creation": {
						"codeDepositCost": "649200",
						"executionCost": "681",
						"totalCost": "649881"
					},
					"external": {
						"foodAppContractAddress()": "2448",
						"initialize(address,address,address)": "infinite",
						"menuManager()": "2404",
						"nextReviewId()": "2381",
						"owner()": "2517",
						"rateRestaurant(address,uint128,uint8,string)": "infinite",
						"renounceOwnership()": "infinite",
						"restaurantManager()": "2360",
						"reviews(uint128)": "infinite",
						"reviewsByRestaurant(uint128,uint256)": "6439",
						"transferOwnership(address)": "infinite"
					}
				},
				"methodIdentifiers": {
					"foodAppContractAddress()": "832dbdd9",
					"initialize(address,address,address)": "c0c53b8b",
					"menuManager()": "5059e95b",
					"nextReviewId()": "396e77e7",
					"owner()": "8da5cb5b",
					"rateRestaurant(address,uint128,uint8,string)": "df808ac5",
					"renounceOwnership()": "715018a6",
					"restaurantManager()": "2134b6f6",
					"reviews(uint128)": "921a0238",
					"reviewsByRestaurant(uint128,uint256)": "1f7f08e7",
					"transferOwnership(address)": "f2fde38b"
				}
			},
			"storageLayout": {
				"storage": [
					{
						"astId": 521,
						"contract": "contracts/ReviewManager.sol:ReviewManager",
						"label": "nextReviewId",
						"offset": 0,
						"slot": "0",
						"type": "t_uint128"
					},
					{
						"astId": 526,
						"contract": "contracts/ReviewManager.sol:ReviewManager",
						"label": "reviews",
						"offset": 0,
						"slot": "1",
						"type": "t_mapping(t_uint128,t_struct(Review)896_storage)"
					},
					{
						"astId": 531,
						"contract": "contracts/ReviewManager.sol:ReviewManager",
						"label": "reviewsByRestaurant",
						"offset": 0,
						"slot": "2",
						"type": "t_mapping(t_uint128,t_array(t_uint128)dyn_storage)"
					},
					{
						"astId": 534,
						"contract": "contracts/ReviewManager.sol:ReviewManager",
						"label": "menuManager",
						"offset": 0,
						"slot": "3",
						"type": "t_contract(IMenuManager)754"
					},
					{
						"astId": 536,
						"contract": "contracts/ReviewManager.sol:ReviewManager",
						"label": "foodAppContractAddress",
						"offset": 0,
						"slot": "4",
						"type": "t_address"
					},
					{
						"astId": 539,
						"contract": "contracts/ReviewManager.sol:ReviewManager",
						"label": "restaurantManager",
						"offset": 0,
						"slot": "5",
						"type": "t_contract(IRestaurantManager)785"
					}
				],
				"types": {
					"t_address": {
						"encoding": "inplace",
						"label": "address",
						"numberOfBytes": "20"
					},
					"t_array(t_uint128)dyn_storage": {
						"base": "t_uint128",
						"encoding": "dynamic_array",
						"label": "uint128[]",
						"numberOfBytes": "32"
					},
					"t_contract(IMenuManager)754": {
						"encoding": "inplace",
						"label": "contract IMenuManager",
						"numberOfBytes": "20"
					},
					"t_contract(IRestaurantManager)785": {
						"encoding": "inplace",
						"label": "contract IRestaurantManager",
						"numberOfBytes": "20"
					},
					"t_mapping(t_uint128,t_array(t_uint128)dyn_storage)": {
						"encoding": "mapping",
						"key": "t_uint128",
						"label": "mapping(uint128 => uint128[])",
						"numberOfBytes": "32",
						"value": "t_array(t_uint128)dyn_storage"
					},
					"t_mapping(t_uint128,t_struct(Review)896_storage)": {
						"encoding": "mapping",
						"key": "t_uint128",
						"label": "mapping(uint128 => struct Review)",
						"numberOfBytes": "32",
						"value": "t_struct(Review)896_storage"
					},
					"t_string_storage": {
						"encoding": "bytes",
						"label": "string",
						"numberOfBytes": "32"
					},
					"t_struct(Review)896_storage": {
						"encoding": "inplace",
						"label": "struct Review",
						"members": [
							{
								"astId": 885,
								"contract": "contracts/ReviewManager.sol:ReviewManager",
								"label": "id",
								"offset": 0,
								"slot": "0",
								"type": "t_uint128"
							},
							{
								"astId": 887,
								"contract": "contracts/ReviewManager.sol:ReviewManager",
								"label": "customer",
								"offset": 0,
								"slot": "1",
								"type": "t_address"
							},
							{
								"astId": 889,
								"contract": "contracts/ReviewManager.sol:ReviewManager",
								"label": "restaurantId",
								"offset": 0,
								"slot": "2",
								"type": "t_uint128"
							},
							{
								"astId": 891,
								"contract": "contracts/ReviewManager.sol:ReviewManager",
								"label": "rating",
								"offset": 16,
								"slot": "2",
								"type": "t_uint8"
							},
							{
								"astId": 893,
								"contract": "contracts/ReviewManager.sol:ReviewManager",
								"label": "comment",
								"offset": 0,
								"slot": "3",
								"type": "t_string_storage"
							},
							{
								"astId": 895,
								"contract": "contracts/ReviewManager.sol:ReviewManager",
								"label": "timestamp",
								"offset": 0,
								"slot": "4",
								"type": "t_uint128"
							}
						],
						"numberOfBytes": "160"
					},
					"t_uint128": {
						"encoding": "inplace",
						"label": "uint128",
						"numberOfBytes": "16"
					},
					"t_uint8": {
						"encoding": "inplace",
						"label": "uint8",
						"numberOfBytes": "1"
					}
				}
			},
			"userdoc": {
				"kind": "user",
				"methods": {},
				"version": 1
			}
		}
	}
}