{
	"contracts/OrderManager.sol": {
		"OrderManager": {
			"abi": [
				{
					"inputs": [],
					"name": "InvalidInitialization",
					"type": "error"
				},
				{
					"inputs": [],
					"name": "NotInitializing",
					"type": "error"
				},
				{
					"inputs": [
						{
							"internalType": "address",
							"name": "caller",
							"type": "address"
						},
						{
							"internalType": "uint128",
							"name": "orderRestaurantId",
							"type": "uint128"
						},
						{
							"internalType": "uint128",
							"name": "staffRestaurantId",
							"type": "uint128"
						}
					],
					"name": "OrderManager__CallerNotRestaurantStaff",
					"type": "error"
				},
				{
					"inputs": [
						{
							"internalType": "uint256",
							"name": "required",
							"type": "uint256"
						},
						{
							"internalType": "uint256",
							"name": "sent",
							"type": "uint256"
						}
					],
					"name": "OrderManager__InsufficientPayment",
					"type": "error"
				},
				{
					"inputs": [],
					"name": "OrderManager__InvalidAddress",
					"type": "error"
				},
				{
					"inputs": [
						{
							"internalType": "string",
							"name": "dependencyName",
							"type": "string"
						}
					],
					"name": "OrderManager__InvalidDependencyAddress",
					"type": "error"
				},
				{
					"inputs": [],
					"name": "OrderManager__InvalidOrderData",
					"type": "error"
				},
				{
					"inputs": [
						{
							"internalType": "enum OrderStatus",
							"name": "currentStatus",
							"type": "uint8"
						},
						{
							"internalType": "string",
							"name": "action",
							"type": "string"
						}
					],
					"name": "OrderManager__InvalidOrderStatusForAction",
					"type": "error"
				},
				{
					"inputs": [
						{
							"internalType": "enum OrderStatus",
							"name": "from",
							"type": "uint8"
						},
						{
							"internalType": "enum OrderStatus",
							"name": "to",
							"type": "uint8"
						}
					],
					"name": "OrderManager__InvalidOrderStatusTransition",
					"type": "error"
				},
				{
					"inputs": [],
					"name": "OrderManager__InvalidPagination",
					"type": "error"
				},
				{
					"inputs": [
						{
							"internalType": "uint128",
							"name": "menuItemId",
							"type": "uint128"
						}
					],
					"name": "OrderManager__ItemSoldOut",
					"type": "error"
				},
				{
					"inputs": [
						{
							"internalType": "uint128",
							"name": "menuItemId",
							"type": "uint128"
						}
					],
					"name": "OrderManager__MenuItemNotAvailable",
					"type": "error"
				},
				{
					"inputs": [
						{
							"internalType": "uint128",
							"name": "restaurantId",
							"type": "uint128"
						},
						{
							"internalType": "uint128",
							"name": "menuItemId",
							"type": "uint128"
						}
					],
					"name": "OrderManager__MenuItemNotFound",
					"type": "error"
				},
				{
					"inputs": [],
					"name": "OrderManager__NotFoodApp",
					"type": "error"
				},
				{
					"inputs": [
						{
							"internalType": "address",
							"name": "caller",
							"type": "address"
						},
						{
							"internalType": "uint128",
							"name": "orderId",
							"type": "uint128"
						}
					],
					"name": "OrderManager__NotOrderOwner",
					"type": "error"
				},
				{
					"inputs": [
						{
							"internalType": "uint128",
							"name": "orderId",
							"type": "uint128"
						}
					],
					"name": "OrderManager__OrderNotFound",
					"type": "error"
				},
				{
					"inputs": [
						{
							"internalType": "uint256",
							"name": "feePercent",
							"type": "uint256"
						}
					],
					"name": "OrderManager__PlatformFeeTooHigh",
					"type": "error"
				},
				{
					"inputs": [],
					"name": "OrderManager__RestaurantNotFound",
					"type": "error"
				},
				{
					"inputs": [
						{
							"internalType": "uint128",
							"name": "restaurantId",
							"type": "uint128"
						}
					],
					"name": "OrderManager__RestaurantOwnerNotFound",
					"type": "error"
				},
				{
					"inputs": [],
					"name": "OrderManager__TransferFailed",
					"type": "error"
				},
				{
					"inputs": [
						{
							"internalType": "address",
							"name": "owner",
							"type": "address"
						}
					],
					"name": "OwnableInvalidOwner",
					"type": "error"
				},
				{
					"inputs": [
						{
							"internalType": "address",
							"name": "account",
							"type": "address"
						}
					],
					"name": "OwnableUnauthorizedAccount",
					"type": "error"
				},
				{
					"inputs": [],
					"name": "ReentrancyGuardReentrantCall",
					"type": "error"
				},
				{
					"anonymous": false,
					"inputs": [
						{
							"indexed": false,
							"internalType": "uint64",
							"name": "version",
							"type": "uint64"
						}
					],
					"name": "Initialized",
					"type": "event"
				},
				{
					"anonymous": false,
					"inputs": [
						{
							"indexed": true,
							"internalType": "uint128",
							"name": "orderId",
							"type": "uint128"
						},
						{
							"indexed": true,
							"internalType": "address",
							"name": "customerEoa",
							"type": "address"
						},
						{
							"indexed": false,
							"internalType": "uint256",
							"name": "refundAmount",
							"type": "uint256"
						}
					],
					"name": "OrderCancelled",
					"type": "event"
				},
				{
					"anonymous": false,
					"inputs": [
						{
							"indexed": true,
							"internalType": "uint128",
							"name": "orderId",
							"type": "uint128"
						},
						{
							"indexed": true,
							"internalType": "address",
							"name": "restaurantOwner",
							"type": "address"
						},
						{
							"indexed": false,
							"internalType": "uint256",
							"name": "amountToRestaurant",
							"type": "uint256"
						},
						{
							"indexed": false,
							"internalType": "uint256",
							"name": "platformFee",
							"type": "uint256"
						}
					],
					"name": "OrderCompleted",
					"type": "event"
				},
				{
					"anonymous": false,
					"inputs": [
						{
							"indexed": true,
							"internalType": "uint128",
							"name": "orderId",
							"type": "uint128"
						},
						{
							"indexed": true,
							"internalType": "address",
							"name": "customerEoa",
							"type": "address"
						},
						{
							"indexed": true,
							"internalType": "uint128",
							"name": "restaurantId",
							"type": "uint128"
						},
						{
							"indexed": false,
							"internalType": "uint256",
							"name": "totalPrice",
							"type": "uint256"
						}
					],
					"name": "OrderPlaced",
					"type": "event"
				},
				{
					"anonymous": false,
					"inputs": [
						{
							"indexed": true,
							"internalType": "uint128",
							"name": "orderId",
							"type": "uint128"
						},
						{
							"indexed": false,
							"internalType": "enum OrderStatus",
							"name": "oldStatus",
							"type": "uint8"
						},
						{
							"indexed": false,
							"internalType": "enum OrderStatus",
							"name": "newStatus",
							"type": "uint8"
						}
					],
					"name": "OrderStatusUpdated",
					"type": "event"
				},
				{
					"anonymous": false,
					"inputs": [
						{
							"indexed": true,
							"internalType": "address",
							"name": "previousOwner",
							"type": "address"
						},
						{
							"indexed": true,
							"internalType": "address",
							"name": "newOwner",
							"type": "address"
						}
					],
					"name": "OwnershipTransferred",
					"type": "event"
				},
				{
					"anonymous": false,
					"inputs": [
						{
							"indexed": false,
							"internalType": "uint256",
							"name": "oldFeePercent",
							"type": "uint256"
						},
						{
							"indexed": false,
							"internalType": "uint256",
							"name": "newFeePercent",
							"type": "uint256"
						}
					],
					"name": "PlatformFeeUpdated",
					"type": "event"
				},
				{
					"inputs": [
						{
							"internalType": "address",
							"name": "customerEoa",
							"type": "address"
						},
						{
							"internalType": "uint128",
							"name": "orderId",
							"type": "uint128"
						}
					],
					"name": "cancelOrder",
					"outputs": [],
					"stateMutability": "nonpayable",
					"type": "function"
				},
				{
					"inputs": [
						{
							"internalType": "address",
							"name": "staffEoa",
							"type": "address"
						},
						{
							"internalType": "uint128",
							"name": "orderId",
							"type": "uint128"
						},
						{
							"internalType": "uint128",
							"name": "staffRestaurantId",
							"type": "uint128"
						}
					],
					"name": "completeOrder",
					"outputs": [],
					"stateMutability": "nonpayable",
					"type": "function"
				},
				{
					"inputs": [],
					"name": "foodAppContractAddress",
					"outputs": [
						{
							"internalType": "address",
							"name": "",
							"type": "address"
						}
					],
					"stateMutability": "view",
					"type": "function"
				},
				{
					"inputs": [
						{
							"internalType": "uint128",
							"name": "orderId",
							"type": "uint128"
						}
					],
					"name": "getOrder",
					"outputs": [
						{
							"components": [
								{
									"internalType": "uint128",
									"name": "id",
									"type": "uint128"
								},
								{
									"internalType": "address",
									"name": "customer",
									"type": "address"
								},
								{
									"internalType": "uint128",
									"name": "restaurantId",
									"type": "uint128"
								},
								{
									"components": [
										{
											"internalType": "uint128",
											"name": "menuItemId",
											"type": "uint128"
										},
										{
											"internalType": "string",
											"name": "name",
											"type": "string"
										},
										{
											"internalType": "uint128",
											"name": "pricePerUnit",
											"type": "uint128"
										},
										{
											"internalType": "uint128",
											"name": "quantity",
											"type": "uint128"
										}
									],
									"internalType": "struct OrderItemDetail[]",
									"name": "itemsDetail",
									"type": "tuple[]"
								},
								{
									"internalType": "uint256",
									"name": "totalPrice",
									"type": "uint256"
								},
								{
									"internalType": "enum OrderStatus",
									"name": "status",
									"type": "uint8"
								},
								{
									"internalType": "uint128",
									"name": "timestamp",
									"type": "uint128"
								},
								{
									"internalType": "uint128",
									"name": "preparationTime",
									"type": "uint128"
								},
								{
									"internalType": "uint128",
									"name": "quantity",
									"type": "uint128"
								}
							],
							"internalType": "struct Order",
							"name": "",
							"type": "tuple"
						}
					],
					"stateMutability": "view",
					"type": "function"
				},
				{
					"inputs": [
						{
							"internalType": "address",
							"name": "customerEoa",
							"type": "address"
						}
					],
					"name": "getOrderCountByCustomer",
					"outputs": [
						{
							"internalType": "uint256",
							"name": "",
							"type": "uint256"
						}
					],
					"stateMutability": "view",
					"type": "function"
				},
				{
					"inputs": [
						{
							"internalType": "address",
							"name": "customerEoa",
							"type": "address"
						},
						{
							"internalType": "uint256",
							"name": "startIndex",
							"type": "uint256"
						},
						{
							"internalType": "uint256",
							"name": "limit",
							"type": "uint256"
						}
					],
					"name": "getOrdersByCustomer",
					"outputs": [
						{
							"components": [
								{
									"internalType": "uint128",
									"name": "id",
									"type": "uint128"
								},
								{
									"internalType": "address",
									"name": "customer",
									"type": "address"
								},
								{
									"internalType": "uint128",
									"name": "restaurantId",
									"type": "uint128"
								},
								{
									"components": [
										{
											"internalType": "uint128",
											"name": "menuItemId",
											"type": "uint128"
										},
										{
											"internalType": "string",
											"name": "name",
											"type": "string"
										},
										{
											"internalType": "uint128",
											"name": "pricePerUnit",
											"type": "uint128"
										},
										{
											"internalType": "uint128",
											"name": "quantity",
											"type": "uint128"
										}
									],
									"internalType": "struct OrderItemDetail[]",
									"name": "itemsDetail",
									"type": "tuple[]"
								},
								{
									"internalType": "uint256",
									"name": "totalPrice",
									"type": "uint256"
								},
								{
									"internalType": "enum OrderStatus",
									"name": "status",
									"type": "uint8"
								},
								{
									"internalType": "uint128",
									"name": "timestamp",
									"type": "uint128"
								},
								{
									"internalType": "uint128",
									"name": "preparationTime",
									"type": "uint128"
								},
								{
									"internalType": "uint128",
									"name": "quantity",
									"type": "uint128"
								}
							],
							"internalType": "struct Order[]",
							"name": "ordersAn",
							"type": "tuple[]"
						},
						{
							"internalType": "uint256",
							"name": "nextStartIndex",
							"type": "uint256"
						}
					],
					"stateMutability": "view",
					"type": "function"
				},
				{
					"inputs": [
						{
							"internalType": "address",
							"name": "_foodAppContract",
							"type": "address"
						},
						{
							"internalType": "address",
							"name": "_menuManagerAddress",
							"type": "address"
						},
						{
							"internalType": "address",
							"name": "_restaurantManagerAddress",
							"type": "address"
						},
						{
							"internalType": "address",
							"name": "_factoryOwner",
							"type": "address"
						}
					],
					"name": "initialize",
					"outputs": [],
					"stateMutability": "nonpayable",
					"type": "function"
				},
				{
					"inputs": [],
					"name": "menuManager",
					"outputs": [
						{
							"internalType": "contract IMenuManager",
							"name": "",
							"type": "address"
						}
					],
					"stateMutability": "view",
					"type": "function"
				},
				{
					"inputs": [],
					"name": "nextOrderId",
					"outputs": [
						{
							"internalType": "uint128",
							"name": "",
							"type": "uint128"
						}
					],
					"stateMutability": "view",
					"type": "function"
				},
				{
					"inputs": [
						{
							"internalType": "uint128",
							"name": "",
							"type": "uint128"
						}
					],
					"name": "orders",
					"outputs": [
						{
							"internalType": "uint128",
							"name": "id",
							"type": "uint128"
						},
						{
							"internalType": "address",
							"name": "customer",
							"type": "address"
						},
						{
							"internalType": "uint128",
							"name": "restaurantId",
							"type": "uint128"
						},
						{
							"internalType": "uint256",
							"name": "totalPrice",
							"type": "uint256"
						},
						{
							"internalType": "enum OrderStatus",
							"name": "status",
							"type": "uint8"
						},
						{
							"internalType": "uint128",
							"name": "timestamp",
							"type": "uint128"
						},
						{
							"internalType": "uint128",
							"name": "preparationTime",
							"type": "uint128"
						},
						{
							"internalType": "uint128",
							"name": "quantity",
							"type": "uint128"
						}
					],
					"stateMutability": "view",
					"type": "function"
				},
				{
					"inputs": [],
					"name": "owner",
					"outputs": [
						{
							"internalType": "address",
							"name": "",
							"type": "address"
						}
					],
					"stateMutability": "view",
					"type": "function"
				},
				{
					"inputs": [
						{
							"internalType": "address",
							"name": "customerEoa",
							"type": "address"
						},
						{
							"internalType": "uint128",
							"name": "restaurantId",
							"type": "uint128"
						},
						{
							"internalType": "uint128[]",
							"name": "itemIds",
							"type": "uint128[]"
						},
						{
							"internalType": "uint128[]",
							"name": "quantities",
							"type": "uint128[]"
						}
					],
					"name": "placeOrder",
					"outputs": [],
					"stateMutability": "payable",
					"type": "function"
				},
				{
					"inputs": [],
					"name": "platformFeePercent",
					"outputs": [
						{
							"internalType": "uint256",
							"name": "",
							"type": "uint256"
						}
					],
					"stateMutability": "view",
					"type": "function"
				},
				{
					"inputs": [],
					"name": "renounceOwnership",
					"outputs": [],
					"stateMutability": "nonpayable",
					"type": "function"
				},
				{
					"inputs": [],
					"name": "restaurantManager",
					"outputs": [
						{
							"internalType": "contract IRestaurantManager",
							"name": "",
							"type": "address"
						}
					],
					"stateMutability": "view",
					"type": "function"
				},
				{
					"inputs": [
						{
							"internalType": "uint256",
							"name": "_newFeePercent",
							"type": "uint256"
						}
					],
					"name": "setPlatformFee",
					"outputs": [],
					"stateMutability": "nonpayable",
					"type": "function"
				},
				{
					"inputs": [
						{
							"internalType": "address",
							"name": "newOwner",
							"type": "address"
						}
					],
					"name": "transferOwnership",
					"outputs": [],
					"stateMutability": "nonpayable",
					"type": "function"
				},
				{
					"inputs": [
						{
							"internalType": "address",
							"name": "staffEoa",
							"type": "address"
						},
						{
							"internalType": "uint128",
							"name": "orderId",
							"type": "uint128"
						},
						{
							"internalType": "enum OrderStatus",
							"name": "newStatus",
							"type": "uint8"
						},
						{
							"internalType": "uint128",
							"name": "staffRestaurantId",
							"type": "uint128"
						}
					],
					"name": "updateOrderStatus",
					"outputs": [],
					"stateMutability": "nonpayable",
					"type": "function"
				}
			],
			"devdoc": {
				"errors": {
					"InvalidInitialization()": [
						{
							"details": "The contract is already initialized."
						}
					],
					"NotInitializing()": [
						{
							"details": "The contract is not initializing."
						}
					],
					"OwnableInvalidOwner(address)": [
						{
							"details": "The owner is not a valid owner account. (eg. `address(0)`)"
						}
					],
					"OwnableUnauthorizedAccount(address)": [
						{
							"details": "The caller account is not authorized to perform an operation."
						}
					],
					"ReentrancyGuardReentrantCall()": [
						{
							"details": "Unauthorized reentrant call."
						}
					]
				},
				"events": {
					"Initialized(uint64)": {
						"details": "Triggered when the contract has been initialized or reinitialized."
					}
				},
				"kind": "dev",
				"methods": {
					"owner()": {
						"details": "Returns the address of the current owner."
					},
					"renounceOwnership()": {
						"details": "Leaves the contract without owner. It will not be possible to call `onlyOwner` functions. Can only be called by the current owner. NOTE: Renouncing ownership will leave the contract without an owner, thereby disabling any functionality that is only available to the owner."
					},
					"transferOwnership(address)": {
						"details": "Transfers ownership of the contract to a new account (`newOwner`). Can only be called by the current owner."
					}
				},
				"version": 1
			},
			"evm": {
				"assembly": "    /* \"contracts/OrderManager.sol\":370:13081  contract OrderManager is OwnableUpgradeable, IOrderManager, ReentrancyGuard {... */\n  mstore(0x40, 0x80)\n  callvalue\n  dup1\n  iszero\n  tag_1\n  jumpi\n  revert(0x00, 0x00)\ntag_1:\n  pop\n    /* \"@openzeppelin/contracts/utils/ReentrancyGuard.sol\":1857:1858  1 */\n  0x01\n    /* \"@openzeppelin/contracts/utils/ReentrancyGuard.sol\":2061:2068  _status */\n  0x00\n    /* \"@openzeppelin/contracts/utils/ReentrancyGuard.sol\":2061:2082  _status = NOT_ENTERED */\n  sstore\n    /* \"contracts/OrderManager.sol\":370:13081  contract OrderManager is OwnableUpgradeable, IOrderManager, ReentrancyGuard {... */\n  dataSize(sub_0)\n  dup1\n  dataOffset(sub_0)\n  0x00\n  codecopy\n  0x00\n  return\nstop\n\nsub_0: assembly {\n        /* \"contracts/OrderManager.sol\":370:13081  contract OrderManager is OwnableUpgradeable, IOrderManager, ReentrancyGuard {... */\n      mstore(0x40, 0x80)\n      jumpi(tag_1, lt(calldatasize, 0x04))\n      shr(0xe0, calldataload(0x00))\n      dup1\n      0x7338c5aa\n      gt\n      tag_20\n      jumpi\n      dup1\n      0xc60c14d9\n      gt\n      tag_21\n      jumpi\n      dup1\n      0xc60c14d9\n      eq\n      tag_15\n      jumpi\n      dup1\n      0xcf31fb46\n      eq\n      tag_16\n      jumpi\n      dup1\n      0xf2fde38b\n      eq\n      tag_17\n      jumpi\n      dup1\n      0xf8c8765e\n      eq\n      tag_18\n      jumpi\n      dup1\n      0xff8ddee3\n      eq\n      tag_19\n      jumpi\n      revert(0x00, 0x00)\n    tag_21:\n      dup1\n      0x7338c5aa\n      eq\n      tag_11\n      jumpi\n      dup1\n      0x832dbdd9\n      eq\n      tag_12\n      jumpi\n      dup1\n      0x8c639a85\n      eq\n      tag_13\n      jumpi\n      dup1\n      0x8da5cb5b\n      eq\n      tag_14\n      jumpi\n      revert(0x00, 0x00)\n    tag_20:\n      dup1\n      0x2134b6f6\n      gt\n      tag_22\n      jumpi\n      dup1\n      0x2134b6f6\n      eq\n      tag_6\n      jumpi\n      dup1\n      0x2a58b330\n      eq\n      tag_7\n      jumpi\n      dup1\n      0x2fae2095\n      eq\n      tag_8\n      jumpi\n      dup1\n      0x5059e95b\n      eq\n      tag_9\n      jumpi\n      dup1\n      0x715018a6\n      eq\n      tag_10\n      jumpi\n      revert(0x00, 0x00)\n    tag_22:\n      dup1\n      0x117d4128\n      eq\n      tag_2\n      jumpi\n      dup1\n      0x12e8e2c3\n      eq\n      tag_3\n      jumpi\n      dup1\n      0x19c8ccef\n      eq\n      tag_4\n      jumpi\n      dup1\n      0x1b4257f6\n      eq\n      tag_5\n      jumpi\n    tag_1:\n      revert(0x00, 0x00)\n        /* \"contracts/OrderManager.sol\":11456:11688  function getOrder(uint128 orderId) external view override returns (Order memory) {... */\n    tag_2:\n      callvalue\n      dup1\n      iszero\n      tag_23\n      jumpi\n      revert(0x00, 0x00)\n    tag_23:\n      pop\n      tag_24\n      tag_25\n      calldatasize\n      0x04\n      tag_26\n      jump\t// in\n    tag_25:\n      tag_27\n      jump\t// in\n    tag_24:\n      mload(0x40)\n      tag_28\n      swap2\n      swap1\n      tag_29\n      jump\t// in\n    tag_28:\n      mload(0x40)\n      dup1\n      swap2\n      sub\n      swap1\n      return\n        /* \"contracts/OrderManager.sol\":3475:3757  function setPlatformFee(uint256 _newFeePercent) external onlyOwner {... */\n    tag_3:\n      callvalue\n      dup1\n      iszero\n      tag_30\n      jumpi\n      revert(0x00, 0x00)\n    tag_30:\n      pop\n      tag_31\n      tag_32\n      calldatasize\n      0x04\n      tag_33\n      jump\t// in\n    tag_32:\n      tag_34\n      jump\t// in\n    tag_31:\n      stop\n        /* \"contracts/OrderManager.sol\":10356:11399  function updateOrderStatus(address staffEoa, uint128 orderId, OrderStatus newStatus, uint128 staffRestaurantId) external override onlyFoodAppContract {... */\n    tag_4:\n      callvalue\n      dup1\n      iszero\n      tag_35\n      jumpi\n      revert(0x00, 0x00)\n    tag_35:\n      pop\n      tag_31\n      tag_37\n      calldatasize\n      0x04\n      tag_38\n      jump\t// in\n    tag_37:\n      tag_39\n      jump\t// in\n        /* \"contracts/OrderManager.sol\":7299:8379  function cancelOrder(address customerEoa, uint128 orderId) external override onlyFoodAppContract nonReentrant {... */\n    tag_5:\n      callvalue\n      dup1\n      iszero\n      tag_40\n      jumpi\n      revert(0x00, 0x00)\n    tag_40:\n      pop\n      tag_31\n      tag_42\n      calldatasize\n      0x04\n      tag_43\n      jump\t// in\n    tag_42:\n      tag_44\n      jump\t// in\n        /* \"contracts/OrderManager.sol\":636:679  IRestaurantManager public restaurantManager */\n    tag_6:\n      callvalue\n      dup1\n      iszero\n      tag_45\n      jumpi\n      revert(0x00, 0x00)\n    tag_45:\n      pop\n      sload(0x05)\n      tag_46\n      swap1\n      sub(shl(0xa0, 0x01), 0x01)\n      and\n      dup2\n      jump\n    tag_46:\n      mload(0x40)\n      sub(shl(0xa0, 0x01), 0x01)\n        /* \"#utility.yul\":5239:5271   */\n      swap1\n      swap2\n      and\n        /* \"#utility.yul\":5221:5272   */\n      dup2\n      mstore\n        /* \"#utility.yul\":5209:5211   */\n      0x20\n        /* \"#utility.yul\":5194:5212   */\n      add\n        /* \"contracts/OrderManager.sol\":636:679  IRestaurantManager public restaurantManager */\n      tag_28\n        /* \"#utility.yul\":5048:5278   */\n      jump\n        /* \"contracts/OrderManager.sol\":453:479  uint128 public nextOrderId */\n    tag_7:\n      callvalue\n      dup1\n      iszero\n      tag_50\n      jumpi\n      revert(0x00, 0x00)\n    tag_50:\n      pop\n      sload(0x01)\n      tag_51\n      swap1\n      sub(shl(0x80, 0x01), 0x01)\n      and\n      dup2\n      jump\n    tag_51:\n      mload(0x40)\n      sub(shl(0x80, 0x01), 0x01)\n        /* \"#utility.yul\":5447:5494   */\n      swap1\n      swap2\n      and\n        /* \"#utility.yul\":5429:5495   */\n      dup2\n      mstore\n        /* \"#utility.yul\":5417:5419   */\n      0x20\n        /* \"#utility.yul\":5402:5420   */\n      add\n        /* \"contracts/OrderManager.sol\":453:479  uint128 public nextOrderId */\n      tag_28\n        /* \"#utility.yul\":5283:5501   */\n      jump\n        /* \"contracts/OrderManager.sol\":11696:12834  function getOrdersByCustomer(address customerEoa, uint256 startIndex, uint256 limit) external view override returns (Order[] memory ordersAn, uint256 nextStartIndex) {... */\n    tag_8:\n      callvalue\n      dup1\n      iszero\n      tag_55\n      jumpi\n      revert(0x00, 0x00)\n    tag_55:\n      pop\n      tag_56\n      tag_57\n      calldatasize\n      0x04\n      tag_58\n      jump\t// in\n    tag_57:\n      tag_59\n      jump\t// in\n    tag_56:\n      mload(0x40)\n      tag_28\n      swap3\n      swap2\n      swap1\n      tag_61\n      jump\t// in\n        /* \"contracts/OrderManager.sol\":598:629  IMenuManager public menuManager */\n    tag_9:\n      callvalue\n      dup1\n      iszero\n      tag_62\n      jumpi\n      revert(0x00, 0x00)\n    tag_62:\n      pop\n      sload(0x04)\n      tag_46\n      swap1\n      sub(shl(0xa0, 0x01), 0x01)\n      and\n      dup2\n      jump\n        /* \"@openzeppelin/contracts-upgradeable/access/OwnableUpgradeable.sol\":3155:3256  function renounceOwnership() public virtual onlyOwner {... */\n    tag_10:\n      callvalue\n      dup1\n      iszero\n      tag_67\n      jumpi\n      revert(0x00, 0x00)\n    tag_67:\n      pop\n      tag_31\n      tag_69\n      jump\t// in\n        /* \"contracts/OrderManager.sol\":12842:13078  function getOrderCountByCustomer(address customerEoa) external view override returns (uint256) {... */\n    tag_11:\n      callvalue\n      dup1\n      iszero\n      tag_70\n      jumpi\n      revert(0x00, 0x00)\n    tag_70:\n      pop\n      tag_71\n      tag_72\n      calldatasize\n      0x04\n      tag_73\n      jump\t// in\n    tag_72:\n      tag_74\n      jump\t// in\n    tag_71:\n      mload(0x40)\n        /* \"#utility.yul\":7523:7548   */\n      swap1\n      dup2\n      mstore\n        /* \"#utility.yul\":7511:7513   */\n      0x20\n        /* \"#utility.yul\":7496:7514   */\n      add\n        /* \"contracts/OrderManager.sol\":12842:13078  function getOrderCountByCustomer(address customerEoa) external view override returns (uint256) {... */\n      tag_28\n        /* \"#utility.yul\":7377:7554   */\n      jump\n        /* \"contracts/OrderManager.sol\":686:723  address public foodAppContractAddress */\n    tag_12:\n      callvalue\n      dup1\n      iszero\n      tag_77\n      jumpi\n      revert(0x00, 0x00)\n    tag_77:\n      pop\n      sload(0x06)\n      tag_46\n      swap1\n      sub(shl(0xa0, 0x01), 0x01)\n      and\n      dup2\n      jump\n        /* \"contracts/OrderManager.sol\":730:763  uint256 public platformFeePercent */\n    tag_13:\n      callvalue\n      dup1\n      iszero\n      tag_82\n      jumpi\n      revert(0x00, 0x00)\n    tag_82:\n      pop\n      tag_71\n      sload(0x07)\n      dup2\n      jump\n        /* \"@openzeppelin/contracts-upgradeable/access/OwnableUpgradeable.sol\":2441:2585  function owner() public view virtual returns (address) {... */\n    tag_14:\n      callvalue\n      dup1\n      iszero\n      tag_86\n      jumpi\n      revert(0x00, 0x00)\n    tag_86:\n      pop\n      tag_46\n      tag_88\n      jump\t// in\n        /* \"contracts/OrderManager.sol\":3765:7291  function placeOrder(... */\n    tag_15:\n      tag_31\n      tag_91\n      calldatasize\n      0x04\n      tag_92\n      jump\t// in\n    tag_91:\n      tag_93\n      jump\t// in\n        /* \"contracts/OrderManager.sol\":8387:10348  function completeOrder(address staffEoa, uint128 orderId, uint128 staffRestaurantId) external override onlyFoodAppContract nonReentrant {... */\n    tag_16:\n      callvalue\n      dup1\n      iszero\n      tag_94\n      jumpi\n      revert(0x00, 0x00)\n    tag_94:\n      pop\n      tag_31\n      tag_96\n      calldatasize\n      0x04\n      tag_97\n      jump\t// in\n    tag_96:\n      tag_98\n      jump\t// in\n        /* \"@openzeppelin/contracts-upgradeable/access/OwnableUpgradeable.sol\":3405:3620  function transferOwnership(address newOwner) public virtual onlyOwner {... */\n    tag_17:\n      callvalue\n      dup1\n      iszero\n      tag_99\n      jumpi\n      revert(0x00, 0x00)\n    tag_99:\n      pop\n      tag_31\n      tag_101\n      calldatasize\n      0x04\n      tag_73\n      jump\t// in\n    tag_101:\n      tag_102\n      jump\t// in\n        /* \"contracts/OrderManager.sol\":2663:3467  function initialize(... */\n    tag_18:\n      callvalue\n      dup1\n      iszero\n      tag_103\n      jumpi\n      revert(0x00, 0x00)\n    tag_103:\n      pop\n      tag_31\n      tag_105\n      calldatasize\n      0x04\n      tag_106\n      jump\t// in\n    tag_105:\n      tag_107\n      jump\t// in\n        /* \"contracts/OrderManager.sol\":486:525  mapping(uint128 => Order) public orders */\n    tag_19:\n      callvalue\n      dup1\n      iszero\n      tag_108\n      jumpi\n      revert(0x00, 0x00)\n    tag_108:\n      pop\n      tag_109\n      tag_110\n      calldatasize\n      0x04\n      tag_26\n      jump\t// in\n    tag_110:\n      0x02\n      0x20\n      dup2\n      swap1\n      mstore\n      0x00\n      swap2\n      dup3\n      mstore\n      0x40\n      swap1\n      swap2\n      keccak256\n      dup1\n      sload\n      0x01\n      dup3\n      add\n      sload\n      swap3\n      dup3\n      add\n      sload\n      0x04\n      dup4\n      add\n      sload\n      0x05\n      dup5\n      add\n      sload\n      0x06\n      swap1\n      swap5\n      add\n      sload\n      sub(shl(0x80, 0x01), 0x01)\n      swap4\n      dup5\n      and\n      swap6\n      sub(shl(0xa0, 0x01), 0x01)\n      and\n      swap5\n      swap3\n      dup5\n      and\n      swap4\n      swap2\n      swap3\n      0xff\n      dup2\n      and\n      swap3\n      0x0100\n      swap1\n      swap2\n      div\n      dup2\n      and\n      swap2\n      dup1\n      dup3\n      and\n      swap2\n      shl(0x80, 0x01)\n      swap1\n      swap2\n      div\n      and\n      dup9\n      jump\n    tag_109:\n      mload(0x40)\n      tag_28\n      swap9\n      swap8\n      swap7\n      swap6\n      swap5\n      swap4\n      swap3\n      swap2\n      swap1\n      tag_113\n      jump\t// in\n        /* \"contracts/OrderManager.sol\":11456:11688  function getOrder(uint128 orderId) external view override returns (Order memory) {... */\n    tag_27:\n        /* \"contracts/OrderManager.sol\":11523:11535  Order memory */\n      tag_114\n      tag_115\n      jump\t// in\n    tag_114:\n      sub(shl(0x80, 0x01), 0x01)\n        /* \"contracts/OrderManager.sol\":11569:11584  orders[orderId] */\n      dup1\n      dup4\n      and\n        /* \"contracts/OrderManager.sol\":11548:11566  Order memory order */\n      0x00\n        /* \"contracts/OrderManager.sol\":11569:11584  orders[orderId] */\n      swap1\n      dup2\n      mstore\n        /* \"contracts/OrderManager.sol\":11569:11575  orders */\n      0x02\n        /* \"contracts/OrderManager.sol\":11569:11584  orders[orderId] */\n      0x20\n      dup2\n      dup2\n      mstore\n      0x40\n      dup1\n      dup5\n      keccak256\n        /* \"contracts/OrderManager.sol\":11548:11584  Order memory order = orders[orderId] */\n      dup2\n      mload\n      0x0120\n      dup2\n      add\n      dup4\n      mstore\n      dup2\n      sload\n      dup8\n      and\n      dup2\n      mstore\n      0x01\n      dup3\n      add\n      sload\n      sub(shl(0xa0, 0x01), 0x01)\n      and\n      dup2\n      dup6\n      add\n      mstore\n      swap4\n      dup2\n      add\n      sload\n      swap1\n      swap6\n      and\n      dup4\n      dup3\n      add\n      mstore\n      0x03\n      dup6\n      add\n      dup1\n      sload\n      dup3\n      mload\n      dup2\n      dup6\n      mul\n      dup2\n      add\n      dup6\n      add\n      swap1\n      swap4\n      mstore\n      dup1\n      dup4\n      mstore\n        /* \"contracts/OrderManager.sol\":11548:11566  Order memory order */\n      swap5\n      swap6\n        /* \"contracts/OrderManager.sol\":11548:11584  Order memory order = orders[orderId] */\n      swap4\n      swap5\n      0x60\n      dup7\n      add\n      swap4\n        /* \"contracts/OrderManager.sol\":11548:11566  Order memory order */\n      dup8\n      swap1\n        /* \"contracts/OrderManager.sol\":11548:11584  Order memory order = orders[orderId] */\n      dup5\n      add\n    tag_117:\n      dup3\n      dup3\n      lt\n      iszero\n      tag_118\n      jumpi\n      0x00\n      dup5\n      dup2\n      mstore\n      0x20\n      swap1\n      dup2\n      swap1\n      keccak256\n      0x40\n      dup1\n      mload\n      0x80\n      dup2\n      add\n      swap1\n      swap2\n      mstore\n      0x03\n      dup6\n      mul\n      swap1\n      swap2\n      add\n      dup1\n      sload\n      sub(shl(0x80, 0x01), 0x01)\n      and\n      dup3\n      mstore\n      0x01\n      dup2\n      add\n      dup1\n      sload\n      swap3\n      swap4\n      swap2\n      swap3\n      swap2\n      dup5\n      add\n      swap2\n      tag_120\n      swap1\n      tag_121\n      jump\t// in\n    tag_120:\n      dup1\n      0x1f\n      add\n      0x20\n      dup1\n      swap2\n      div\n      mul\n      0x20\n      add\n      mload(0x40)\n      swap1\n      dup2\n      add\n      0x40\n      mstore\n      dup1\n      swap3\n      swap2\n      swap1\n      dup2\n      dup2\n      mstore\n      0x20\n      add\n      dup3\n      dup1\n      sload\n      tag_122\n      swap1\n      tag_121\n      jump\t// in\n    tag_122:\n      dup1\n      iszero\n      tag_123\n      jumpi\n      dup1\n      0x1f\n      lt\n      tag_124\n      jumpi\n      0x0100\n      dup1\n      dup4\n      sload\n      div\n      mul\n      dup4\n      mstore\n      swap2\n      0x20\n      add\n      swap2\n      jump(tag_123)\n    tag_124:\n      dup3\n      add\n      swap2\n      swap1\n      0x00\n      mstore\n      keccak256(0x00, 0x20)\n      swap1\n    tag_125:\n      dup2\n      sload\n      dup2\n      mstore\n      swap1\n      0x01\n      add\n      swap1\n      0x20\n      add\n      dup1\n      dup4\n      gt\n      tag_125\n      jumpi\n      dup3\n      swap1\n      sub\n      0x1f\n      and\n      dup3\n      add\n      swap2\n    tag_123:\n      pop\n      pop\n      pop\n      swap2\n      dup4\n      mstore\n      pop\n      pop\n      0x02\n      swap2\n      swap1\n      swap2\n      add\n      sload\n      sub(shl(0x80, 0x01), 0x01)\n      dup1\n      dup3\n      and\n      0x20\n      dup1\n      dup6\n      add\n      swap2\n      swap1\n      swap2\n      mstore\n      shl(0x80, 0x01)\n      swap1\n      swap3\n      div\n      and\n      0x40\n      swap1\n      swap3\n      add\n      swap2\n      swap1\n      swap2\n      mstore\n      swap1\n      dup3\n      mstore\n      0x01\n      swap3\n      swap1\n      swap3\n      add\n      swap2\n      add\n      jump(tag_117)\n    tag_118:\n      pop\n      pop\n      pop\n      swap1\n      dup3\n      mstore\n      pop\n      0x04\n      dup3\n      add\n      sload\n      0x20\n      dup3\n      add\n      mstore\n      0x05\n      dup3\n      add\n      sload\n      0x40\n      swap1\n      swap2\n      add\n      swap1\n      0xff\n      and\n      0x06\n      dup2\n      gt\n      iszero\n      tag_127\n      jumpi\n      tag_127\n      tag_128\n      jump\t// in\n    tag_127:\n      0x06\n      dup2\n      gt\n      iszero\n      tag_130\n      jumpi\n      tag_130\n      tag_128\n      jump\t// in\n    tag_130:\n      dup2\n      mstore\n      0x05\n      dup3\n      add\n      sload\n      sub(shl(0x80, 0x01), 0x01)\n      0x0100\n      swap1\n      swap2\n      div\n      dup2\n      and\n      0x20\n      dup4\n      add\n      mstore\n      0x06\n      swap1\n      swap3\n      add\n      sload\n      dup1\n      dup4\n      and\n      0x40\n      dup4\n      add\n      mstore\n      shl(0x80, 0x01)\n      swap1\n      div\n      dup3\n      and\n      0x60\n      swap1\n      swap2\n      add\n      mstore\n        /* \"contracts/OrderManager.sol\":11599:11607  order.id */\n      dup2\n      mload\n        /* \"contracts/OrderManager.sol\":11548:11584  Order memory order = orders[orderId] */\n      swap2\n      swap3\n      pop\n        /* \"contracts/OrderManager.sol\":11599:11612  order.id == 0 */\n      and\n      0x00\n      sub\n        /* \"contracts/OrderManager.sol\":11595:11657  if (order.id == 0) revert OrderManager__OrderNotFound(orderId) */\n      tag_131\n      jumpi\n        /* \"contracts/OrderManager.sol\":11621:11657  OrderManager__OrderNotFound(orderId) */\n      mload(0x40)\n      shl(0xe4, 0x05e8f385)\n      dup2\n      mstore\n      sub(shl(0x80, 0x01), 0x01)\n        /* \"#utility.yul\":5447:5494   */\n      dup5\n      and\n        /* \"contracts/OrderManager.sol\":11621:11657  OrderManager__OrderNotFound(orderId) */\n      0x04\n      dup3\n      add\n        /* \"#utility.yul\":5429:5495   */\n      mstore\n        /* \"#utility.yul\":5402:5420   */\n      0x24\n      add\n        /* \"contracts/OrderManager.sol\":11621:11657  OrderManager__OrderNotFound(orderId) */\n    tag_132:\n      mload(0x40)\n      dup1\n      swap2\n      sub\n      swap1\n      revert\n        /* \"contracts/OrderManager.sol\":11595:11657  if (order.id == 0) revert OrderManager__OrderNotFound(orderId) */\n    tag_131:\n        /* \"contracts/OrderManager.sol\":11675:11680  order */\n      swap3\n        /* \"contracts/OrderManager.sol\":11456:11688  function getOrder(uint128 orderId) external view override returns (Order memory) {... */\n      swap2\n      pop\n      pop\n      jump\t// out\n        /* \"contracts/OrderManager.sol\":3475:3757  function setPlatformFee(uint256 _newFeePercent) external onlyOwner {... */\n    tag_34:\n        /* \"@openzeppelin/contracts-upgradeable/access/OwnableUpgradeable.sol\":2334:2347  _checkOwner() */\n      tag_134\n        /* \"@openzeppelin/contracts-upgradeable/access/OwnableUpgradeable.sol\":2334:2345  _checkOwner */\n      tag_135\n        /* \"@openzeppelin/contracts-upgradeable/access/OwnableUpgradeable.sol\":2334:2347  _checkOwner() */\n      jump\t// in\n    tag_134:\n        /* \"contracts/OrderManager.sol\":3574:3576  50 */\n      0x32\n        /* \"contracts/OrderManager.sol\":3557:3571  _newFeePercent */\n      dup2\n        /* \"contracts/OrderManager.sol\":3557:3576  _newFeePercent > 50 */\n      gt\n        /* \"contracts/OrderManager.sol\":3553:3633  if (_newFeePercent > 50) revert OrderManager__PlatformFeeTooHigh(_newFeePercent) */\n      iszero\n      tag_137\n      jumpi\n        /* \"contracts/OrderManager.sol\":3585:3633  OrderManager__PlatformFeeTooHigh(_newFeePercent) */\n      mload(0x40)\n      shl(0xe2, 0x2be52f15)\n      dup2\n      mstore\n      0x04\n      dup2\n      add\n        /* \"#utility.yul\":7523:7548   */\n      dup3\n      swap1\n      mstore\n        /* \"#utility.yul\":7496:7514   */\n      0x24\n      add\n        /* \"contracts/OrderManager.sol\":3585:3633  OrderManager__PlatformFeeTooHigh(_newFeePercent) */\n      tag_132\n        /* \"#utility.yul\":7377:7554   */\n      jump\n        /* \"contracts/OrderManager.sol\":3553:3633  if (_newFeePercent > 50) revert OrderManager__PlatformFeeTooHigh(_newFeePercent) */\n    tag_137:\n        /* \"contracts/OrderManager.sol\":3668:3686  platformFeePercent */\n      sload(0x07)\n        /* \"contracts/OrderManager.sol\":3649:3703  PlatformFeeUpdated(platformFeePercent, _newFeePercent) */\n      0x40\n      dup1\n      mload\n        /* \"#utility.yul\":12831:12856   */\n      swap2\n      dup3\n      mstore\n        /* \"#utility.yul\":12887:12889   */\n      0x20\n        /* \"#utility.yul\":12872:12890   */\n      dup3\n      add\n        /* \"#utility.yul\":12865:12899   */\n      dup4\n      swap1\n      mstore\n        /* \"contracts/OrderManager.sol\":3649:3703  PlatformFeeUpdated(platformFeePercent, _newFeePercent) */\n      0xd347e206f25a89b917fc9482f1a2d294d749baa4dc9bde7fb495ee11fe491643\n      swap2\n        /* \"#utility.yul\":12804:12822   */\n      add\n        /* \"contracts/OrderManager.sol\":3649:3703  PlatformFeeUpdated(platformFeePercent, _newFeePercent) */\n      mload(0x40)\n      dup1\n      swap2\n      sub\n      swap1\n      log1\n        /* \"contracts/OrderManager.sol\":3714:3732  platformFeePercent */\n      0x07\n        /* \"contracts/OrderManager.sol\":3714:3749  platformFeePercent = _newFeePercent */\n      sstore\n        /* \"contracts/OrderManager.sol\":3475:3757  function setPlatformFee(uint256 _newFeePercent) external onlyOwner {... */\n      jump\t// out\n        /* \"contracts/OrderManager.sol\":10356:11399  function updateOrderStatus(address staffEoa, uint128 orderId, OrderStatus newStatus, uint128 staffRestaurantId) external override onlyFoodAppContract {... */\n    tag_39:\n        /* \"contracts/OrderManager.sol\":2578:2600  foodAppContractAddress */\n      and(sub(shl(0xa0, 0x01), 0x01), sload(0x06))\n        /* \"contracts/OrderManager.sol\":2564:2574  msg.sender */\n      caller\n        /* \"contracts/OrderManager.sol\":2564:2600  msg.sender != foodAppContractAddress */\n      eq\n        /* \"contracts/OrderManager.sol\":2560:2635  if (msg.sender != foodAppContractAddress) revert OrderManager__NotFoodApp() */\n      tag_142\n      jumpi\n        /* \"contracts/OrderManager.sol\":2609:2635  OrderManager__NotFoodApp() */\n      mload(0x40)\n      shl(0xe0, 0x92b2f959)\n      dup2\n      mstore\n      0x04\n      add\n      mload(0x40)\n      dup1\n      swap2\n      sub\n      swap1\n      revert\n        /* \"contracts/OrderManager.sol\":2560:2635  if (msg.sender != foodAppContractAddress) revert OrderManager__NotFoodApp() */\n    tag_142:\n      sub(shl(0x80, 0x01), 0x01)\n        /* \"contracts/OrderManager.sol\":10547:10562  orders[orderId] */\n      dup1\n      dup5\n      and\n        /* \"contracts/OrderManager.sol\":10517:10544  Order storage orderToUpdate */\n      0x00\n        /* \"contracts/OrderManager.sol\":10547:10562  orders[orderId] */\n      swap1\n      dup2\n      mstore\n        /* \"contracts/OrderManager.sol\":10547:10553  orders */\n      0x02\n        /* \"contracts/OrderManager.sol\":10547:10562  orders[orderId] */\n      0x20\n      mstore\n      0x40\n      dup2\n      keccak256\n        /* \"contracts/OrderManager.sol\":10577:10593  orderToUpdate.id */\n      dup1\n      sload\n        /* \"contracts/OrderManager.sol\":10547:10562  orders[orderId] */\n      swap1\n      swap3\n        /* \"contracts/OrderManager.sol\":10577:10593  orderToUpdate.id */\n      and\n        /* \"contracts/OrderManager.sol\":10577:10598  orderToUpdate.id == 0 */\n      swap1\n      sub\n        /* \"contracts/OrderManager.sol\":10573:10643  if (orderToUpdate.id == 0) revert OrderManager__OrderNotFound(orderId) */\n      tag_144\n      jumpi\n        /* \"contracts/OrderManager.sol\":10607:10643  OrderManager__OrderNotFound(orderId) */\n      mload(0x40)\n      shl(0xe4, 0x05e8f385)\n      dup2\n      mstore\n      sub(shl(0x80, 0x01), 0x01)\n        /* \"#utility.yul\":5447:5494   */\n      dup6\n      and\n        /* \"contracts/OrderManager.sol\":10607:10643  OrderManager__OrderNotFound(orderId) */\n      0x04\n      dup3\n      add\n        /* \"#utility.yul\":5429:5495   */\n      mstore\n        /* \"#utility.yul\":5402:5420   */\n      0x24\n      add\n        /* \"contracts/OrderManager.sol\":10607:10643  OrderManager__OrderNotFound(orderId) */\n      tag_132\n        /* \"#utility.yul\":5283:5501   */\n      jump\n        /* \"contracts/OrderManager.sol\":10573:10643  if (orderToUpdate.id == 0) revert OrderManager__OrderNotFound(orderId) */\n    tag_144:\n        /* \"contracts/OrderManager.sol\":10658:10684  orderToUpdate.restaurantId */\n      0x02\n      dup2\n      add\n      sload\n      sub(shl(0x80, 0x01), 0x01)\n        /* \"contracts/OrderManager.sol\":10658:10705  orderToUpdate.restaurantId != staffRestaurantId */\n      dup4\n      dup2\n      and\n        /* \"contracts/OrderManager.sol\":10658:10684  orderToUpdate.restaurantId */\n      swap2\n      and\n        /* \"contracts/OrderManager.sol\":10658:10705  orderToUpdate.restaurantId != staffRestaurantId */\n      eq\n        /* \"contracts/OrderManager.sol\":10654:10836  if (orderToUpdate.restaurantId != staffRestaurantId) {... */\n      tag_146\n      jumpi\n        /* \"contracts/OrderManager.sol\":10778:10804  orderToUpdate.restaurantId */\n      0x02\n      dup2\n      add\n      sload\n        /* \"contracts/OrderManager.sol\":10729:10824  OrderManager__CallerNotRestaurantStaff(staffEoa, orderToUpdate.restaurantId, staffRestaurantId) */\n      mload(0x40)\n      shl(0xe0, 0xd52781e9)\n      dup2\n      mstore\n      sub(shl(0xa0, 0x01), 0x01)\n        /* \"#utility.yul\":13130:13162   */\n      dup8\n      and\n        /* \"contracts/OrderManager.sol\":10729:10824  OrderManager__CallerNotRestaurantStaff(staffEoa, orderToUpdate.restaurantId, staffRestaurantId) */\n      0x04\n      dup3\n      add\n        /* \"#utility.yul\":13112:13163   */\n      mstore\n      sub(shl(0x80, 0x01), 0x01)\n        /* \"contracts/OrderManager.sol\":10778:10804  orderToUpdate.restaurantId */\n      swap2\n      dup3\n      and\n        /* \"#utility.yul\":13179:13197   */\n      0x24\n      dup3\n      add\n        /* \"#utility.yul\":13172:13247   */\n      mstore\n        /* \"#utility.yul\":13283:13330   */\n      swap1\n      dup4\n      and\n        /* \"#utility.yul\":13263:13281   */\n      0x44\n      dup3\n      add\n        /* \"#utility.yul\":13256:13331   */\n      mstore\n        /* \"#utility.yul\":13085:13103   */\n      0x64\n      add\n        /* \"contracts/OrderManager.sol\":10729:10824  OrderManager__CallerNotRestaurantStaff(staffEoa, orderToUpdate.restaurantId, staffRestaurantId) */\n      tag_132\n        /* \"#utility.yul\":12910:13337   */\n      jump\n        /* \"contracts/OrderManager.sol\":10654:10836  if (orderToUpdate.restaurantId != staffRestaurantId) {... */\n    tag_146:\n        /* \"contracts/OrderManager.sol\":10876:10897  OrderStatus.Completed */\n      0x05\n        /* \"contracts/OrderManager.sol\":10852:10872  orderToUpdate.status */\n      dup1\n      dup3\n      add\n      sload\n      0xff\n      and\n        /* \"contracts/OrderManager.sol\":10852:10897  orderToUpdate.status == OrderStatus.Completed */\n      0x06\n      dup2\n      gt\n      iszero\n      tag_152\n      jumpi\n      tag_152\n      tag_128\n      jump\t// in\n    tag_152:\n      eq\n        /* \"contracts/OrderManager.sol\":10852:10946  orderToUpdate.status == OrderStatus.Completed || orderToUpdate.status == OrderStatus.Cancelled */\n      dup1\n      tag_153\n      jumpi\n      pop\n        /* \"contracts/OrderManager.sol\":10925:10946  OrderStatus.Cancelled */\n      0x06\n        /* \"contracts/OrderManager.sol\":10901:10921  orderToUpdate.status */\n      0x05\n      dup3\n      add\n      sload\n      0xff\n      and\n        /* \"contracts/OrderManager.sol\":10901:10946  orderToUpdate.status == OrderStatus.Cancelled */\n      0x06\n      dup2\n      gt\n      iszero\n      tag_157\n      jumpi\n      tag_157\n      tag_128\n      jump\t// in\n    tag_157:\n      eq\n        /* \"contracts/OrderManager.sol\":10852:10946  orderToUpdate.status == OrderStatus.Completed || orderToUpdate.status == OrderStatus.Cancelled */\n    tag_153:\n        /* \"contracts/OrderManager.sol\":10848:11071  if (orderToUpdate.status == OrderStatus.Completed || orderToUpdate.status == OrderStatus.Cancelled) {... */\n      iszero\n      tag_158\n      jumpi\n        /* \"contracts/OrderManager.sol\":11012:11032  orderToUpdate.status */\n      0x05\n      dup2\n      add\n      sload\n        /* \"contracts/OrderManager.sol\":10970:11059  OrderManager__InvalidOrderStatusForAction(orderToUpdate.status, \"update (already final)\") */\n      mload(0x40)\n      shl(0xe0, 0x388a923d)\n      dup2\n      mstore\n      tag_132\n      swap2\n        /* \"contracts/OrderManager.sol\":11012:11032  orderToUpdate.status */\n      0xff\n      and\n      swap1\n        /* \"contracts/OrderManager.sol\":10970:11059  OrderManager__InvalidOrderStatusForAction(orderToUpdate.status, \"update (already final)\") */\n      0x04\n      add\n      tag_160\n      jump\t// in\n        /* \"contracts/OrderManager.sol\":10848:11071  if (orderToUpdate.status == OrderStatus.Completed || orderToUpdate.status == OrderStatus.Cancelled) {... */\n    tag_158:\n        /* \"contracts/OrderManager.sol\":11098:11116  OrderStatus.Placed */\n      0x00\n        /* \"contracts/OrderManager.sol\":11085:11094  newStatus */\n      dup4\n        /* \"contracts/OrderManager.sol\":11085:11116  newStatus == OrderStatus.Placed */\n      0x06\n      dup2\n      gt\n      iszero\n      tag_164\n      jumpi\n      tag_164\n      tag_128\n      jump\t// in\n    tag_164:\n      sub\n        /* \"contracts/OrderManager.sol\":11081:11227  if (newStatus == OrderStatus.Placed) {... */\n      tag_165\n      jumpi\n        /* \"contracts/OrderManager.sol\":11183:11203  orderToUpdate.status */\n      0x05\n      dup2\n      add\n      sload\n        /* \"contracts/OrderManager.sol\":11140:11215  OrderManager__InvalidOrderStatusTransition(orderToUpdate.status, newStatus) */\n      mload(0x40)\n      shl(0xe1, 0x14fdbd5f)\n      dup2\n      mstore\n      tag_132\n      swap2\n        /* \"contracts/OrderManager.sol\":11183:11203  orderToUpdate.status */\n      0xff\n      and\n      swap1\n        /* \"contracts/OrderManager.sol\":11205:11214  newStatus */\n      dup6\n      swap1\n        /* \"contracts/OrderManager.sol\":11140:11215  OrderManager__InvalidOrderStatusTransition(orderToUpdate.status, newStatus) */\n      0x04\n      add\n      tag_167\n      jump\t// in\n        /* \"contracts/OrderManager.sol\":11081:11227  if (newStatus == OrderStatus.Placed) {... */\n    tag_165:\n        /* \"contracts/OrderManager.sol\":11263:11283  orderToUpdate.status */\n      0x05\n      dup2\n      add\n      dup1\n      sload\n      0xff\n      dup2\n      and\n      swap2\n        /* \"contracts/OrderManager.sol\":11317:11326  newStatus */\n      dup6\n      swap2\n      not(0xff)\n        /* \"contracts/OrderManager.sol\":11294:11326  orderToUpdate.status = newStatus */\n      and\n        /* \"contracts/OrderManager.sol\":11263:11283  orderToUpdate.status */\n      0x01\n        /* \"contracts/OrderManager.sol\":11317:11326  newStatus */\n      dup4\n        /* \"contracts/OrderManager.sol\":11294:11326  orderToUpdate.status = newStatus */\n      0x06\n      dup2\n      gt\n      iszero\n      tag_169\n      jumpi\n      tag_169\n      tag_128\n      jump\t// in\n    tag_169:\n      mul\n      or\n      swap1\n      sstore\n      pop\n        /* \"contracts/OrderManager.sol\":11361:11368  orderId */\n      dup5\n      sub(shl(0x80, 0x01), 0x01)\n        /* \"contracts/OrderManager.sol\":11342:11391  OrderStatusUpdated(orderId, oldStatus, newStatus) */\n      and\n      0x8c649b2ad43b6449bbeee9487a5efe9f7fcded9570a17906d76f159a34713011\n        /* \"contracts/OrderManager.sol\":11370:11379  oldStatus */\n      dup3\n        /* \"contracts/OrderManager.sol\":11381:11390  newStatus */\n      dup7\n        /* \"contracts/OrderManager.sol\":11342:11391  OrderStatusUpdated(orderId, oldStatus, newStatus) */\n      mload(0x40)\n      tag_170\n      swap3\n      swap2\n      swap1\n      tag_167\n      jump\t// in\n    tag_170:\n      mload(0x40)\n      dup1\n      swap2\n      sub\n      swap1\n      log2\n        /* \"contracts/OrderManager.sol\":10506:11399  {... */\n      pop\n      pop\n        /* \"contracts/OrderManager.sol\":10356:11399  function updateOrderStatus(address staffEoa, uint128 orderId, OrderStatus newStatus, uint128 staffRestaurantId) external override onlyFoodAppContract {... */\n      pop\n      pop\n      pop\n      pop\n      jump\t// out\n        /* \"contracts/OrderManager.sol\":7299:8379  function cancelOrder(address customerEoa, uint128 orderId) external override onlyFoodAppContract nonReentrant {... */\n    tag_44:\n        /* \"contracts/OrderManager.sol\":2578:2600  foodAppContractAddress */\n      and(sub(shl(0xa0, 0x01), 0x01), sload(0x06))\n        /* \"contracts/OrderManager.sol\":2564:2574  msg.sender */\n      caller\n        /* \"contracts/OrderManager.sol\":2564:2600  msg.sender != foodAppContractAddress */\n      eq\n        /* \"contracts/OrderManager.sol\":2560:2635  if (msg.sender != foodAppContractAddress) revert OrderManager__NotFoodApp() */\n      tag_172\n      jumpi\n        /* \"contracts/OrderManager.sol\":2609:2635  OrderManager__NotFoodApp() */\n      mload(0x40)\n      shl(0xe0, 0x92b2f959)\n      dup2\n      mstore\n      0x04\n      add\n      mload(0x40)\n      dup1\n      swap2\n      sub\n      swap1\n      revert\n        /* \"contracts/OrderManager.sol\":2560:2635  if (msg.sender != foodAppContractAddress) revert OrderManager__NotFoodApp() */\n    tag_172:\n        /* \"@openzeppelin/contracts/utils/ReentrancyGuard.sol\":2500:2521  _nonReentrantBefore() */\n      tag_174\n        /* \"@openzeppelin/contracts/utils/ReentrancyGuard.sol\":2500:2519  _nonReentrantBefore */\n      tag_175\n        /* \"@openzeppelin/contracts/utils/ReentrancyGuard.sol\":2500:2521  _nonReentrantBefore() */\n      jump\t// in\n    tag_174:\n      sub(shl(0x80, 0x01), 0x01)\n        /* \"contracts/OrderManager.sol\":7450:7465  orders[orderId] */\n      dup1\n      dup3\n      and\n        /* \"contracts/OrderManager.sol\":7420:7447  Order storage orderToCancel */\n      0x00\n        /* \"contracts/OrderManager.sol\":7450:7465  orders[orderId] */\n      swap1\n      dup2\n      mstore\n        /* \"contracts/OrderManager.sol\":7450:7456  orders */\n      0x02\n        /* \"contracts/OrderManager.sol\":7450:7465  orders[orderId] */\n      0x20\n      mstore\n      0x40\n      dup2\n      keccak256\n        /* \"contracts/OrderManager.sol\":7480:7496  orderToCancel.id */\n      dup1\n      sload\n        /* \"contracts/OrderManager.sol\":7450:7465  orders[orderId] */\n      swap1\n      swap3\n        /* \"contracts/OrderManager.sol\":7480:7496  orderToCancel.id */\n      and\n        /* \"contracts/OrderManager.sol\":7480:7501  orderToCancel.id == 0 */\n      swap1\n      sub\n        /* \"contracts/OrderManager.sol\":7476:7546  if (orderToCancel.id == 0) revert OrderManager__OrderNotFound(orderId) */\n      tag_177\n      jumpi\n        /* \"contracts/OrderManager.sol\":7510:7546  OrderManager__OrderNotFound(orderId) */\n      mload(0x40)\n      shl(0xe4, 0x05e8f385)\n      dup2\n      mstore\n      sub(shl(0x80, 0x01), 0x01)\n        /* \"#utility.yul\":5447:5494   */\n      dup4\n      and\n        /* \"contracts/OrderManager.sol\":7510:7546  OrderManager__OrderNotFound(orderId) */\n      0x04\n      dup3\n      add\n        /* \"#utility.yul\":5429:5495   */\n      mstore\n        /* \"#utility.yul\":5402:5420   */\n      0x24\n      add\n        /* \"contracts/OrderManager.sol\":7510:7546  OrderManager__OrderNotFound(orderId) */\n      tag_132\n        /* \"#utility.yul\":5283:5501   */\n      jump\n        /* \"contracts/OrderManager.sol\":7476:7546  if (orderToCancel.id == 0) revert OrderManager__OrderNotFound(orderId) */\n    tag_177:\n        /* \"contracts/OrderManager.sol\":7561:7583  orderToCancel.customer */\n      0x01\n      dup2\n      add\n      sload\n      sub(shl(0xa0, 0x01), 0x01)\n        /* \"contracts/OrderManager.sol\":7561:7598  orderToCancel.customer != customerEoa */\n      dup5\n      dup2\n      and\n        /* \"contracts/OrderManager.sol\":7561:7583  orderToCancel.customer */\n      swap2\n      and\n        /* \"contracts/OrderManager.sol\":7561:7598  orderToCancel.customer != customerEoa */\n      eq\n        /* \"contracts/OrderManager.sol\":7557:7656  if (orderToCancel.customer != customerEoa) revert OrderManager__NotOrderOwner(customerEoa, orderId) */\n      tag_179\n      jumpi\n        /* \"contracts/OrderManager.sol\":7607:7656  OrderManager__NotOrderOwner(customerEoa, orderId) */\n      mload(0x40)\n      shl(0xe0, 0x71c4943f)\n      dup2\n      mstore\n      sub(shl(0xa0, 0x01), 0x01)\n        /* \"#utility.yul\":14315:14347   */\n      dup5\n      and\n        /* \"contracts/OrderManager.sol\":7607:7656  OrderManager__NotOrderOwner(customerEoa, orderId) */\n      0x04\n      dup3\n      add\n        /* \"#utility.yul\":14297:14348   */\n      mstore\n      sub(shl(0x80, 0x01), 0x01)\n        /* \"#utility.yul\":14384:14431   */\n      dup4\n      and\n        /* \"#utility.yul\":14364:14382   */\n      0x24\n      dup3\n      add\n        /* \"#utility.yul\":14357:14432   */\n      mstore\n        /* \"#utility.yul\":14270:14288   */\n      0x44\n      add\n        /* \"contracts/OrderManager.sol\":7607:7656  OrderManager__NotOrderOwner(customerEoa, orderId) */\n      tag_132\n        /* \"#utility.yul\":14123:14438   */\n      jump\n        /* \"contracts/OrderManager.sol\":7557:7656  if (orderToCancel.customer != customerEoa) revert OrderManager__NotOrderOwner(customerEoa, orderId) */\n    tag_179:\n        /* \"contracts/OrderManager.sol\":7697:7715  OrderStatus.Placed */\n      0x00\n        /* \"contracts/OrderManager.sol\":7673:7693  orderToCancel.status */\n      0x05\n      dup3\n      add\n      sload\n      0xff\n      and\n        /* \"contracts/OrderManager.sol\":7673:7715  orderToCancel.status != OrderStatus.Placed */\n      0x06\n      dup2\n      gt\n      iszero\n      tag_185\n      jumpi\n      tag_185\n      tag_128\n      jump\t// in\n    tag_185:\n      eq\n      iszero\n        /* \"contracts/OrderManager.sol\":7673:7764  orderToCancel.status != OrderStatus.Placed && orderToCancel.status != OrderStatus.Confirmed */\n      dup1\n      iszero\n      tag_186\n      jumpi\n      pop\n        /* \"contracts/OrderManager.sol\":7743:7764  OrderStatus.Confirmed */\n      0x01\n        /* \"contracts/OrderManager.sol\":7719:7739  orderToCancel.status */\n      0x05\n      dup3\n      add\n      sload\n      0xff\n      and\n        /* \"contracts/OrderManager.sol\":7719:7764  orderToCancel.status != OrderStatus.Confirmed */\n      0x06\n      dup2\n      gt\n      iszero\n      tag_190\n      jumpi\n      tag_190\n      tag_128\n      jump\t// in\n    tag_190:\n      eq\n      iszero\n        /* \"contracts/OrderManager.sol\":7673:7764  orderToCancel.status != OrderStatus.Placed && orderToCancel.status != OrderStatus.Confirmed */\n    tag_186:\n        /* \"contracts/OrderManager.sol\":7669:7873  if (orderToCancel.status != OrderStatus.Placed && orderToCancel.status != OrderStatus.Confirmed) {... */\n      iszero\n      tag_191\n      jumpi\n        /* \"contracts/OrderManager.sol\":7830:7850  orderToCancel.status */\n      0x05\n      dup2\n      add\n      sload\n        /* \"contracts/OrderManager.sol\":7788:7861  OrderManager__InvalidOrderStatusForAction(orderToCancel.status, \"cancel\") */\n      mload(0x40)\n      shl(0xe0, 0x388a923d)\n      dup2\n      mstore\n      tag_132\n      swap2\n        /* \"contracts/OrderManager.sol\":7830:7850  orderToCancel.status */\n      0xff\n      and\n      swap1\n        /* \"contracts/OrderManager.sol\":7788:7861  OrderManager__InvalidOrderStatusForAction(orderToCancel.status, \"cancel\") */\n      0x04\n      add\n      tag_193\n      jump\t// in\n        /* \"contracts/OrderManager.sol\":7669:7873  if (orderToCancel.status != OrderStatus.Placed && orderToCancel.status != OrderStatus.Confirmed) {... */\n    tag_191:\n        /* \"contracts/OrderManager.sol\":7909:7929  orderToCancel.status */\n      0x05\n      dup2\n      add\n      dup1\n      sload\n      not(0xff)\n        /* \"contracts/OrderManager.sol\":7940:7984  orderToCancel.status = OrderStatus.Cancelled */\n      dup2\n      and\n        /* \"contracts/OrderManager.sol\":7963:7984  OrderStatus.Cancelled */\n      0x06\n        /* \"contracts/OrderManager.sol\":7940:7984  orderToCancel.status = OrderStatus.Cancelled */\n      or\n      swap1\n      swap2\n      sstore\n        /* \"contracts/OrderManager.sol\":8001:8025  orderToCancel.totalPrice */\n      0x04\n      dup3\n      add\n      sload\n        /* \"contracts/OrderManager.sol\":7909:7929  orderToCancel.status */\n      0xff\n      swap1\n      swap2\n      and\n      swap1\n        /* \"contracts/OrderManager.sol\":8001:8029  orderToCancel.totalPrice > 0 */\n      iszero\n        /* \"contracts/OrderManager.sol\":7997:8215  if (orderToCancel.totalPrice > 0) {... */\n      tag_196\n      jumpi\n        /* \"contracts/OrderManager.sol\":8072:8094  orderToCancel.customer */\n      0x01\n      dup3\n      add\n      sload\n        /* \"contracts/OrderManager.sol\":8108:8132  orderToCancel.totalPrice */\n      0x04\n      dup4\n      add\n      sload\n        /* \"contracts/OrderManager.sol\":8064:8137  payable(orderToCancel.customer).call{value: orderToCancel.totalPrice}(\"\") */\n      mload(0x40)\n        /* \"contracts/OrderManager.sol\":8047:8059  bool success */\n      0x00\n      swap3\n      sub(shl(0xa0, 0x01), 0x01)\n        /* \"contracts/OrderManager.sol\":8072:8094  orderToCancel.customer */\n      and\n      swap2\n        /* \"contracts/OrderManager.sol\":8108:8132  orderToCancel.totalPrice */\n      swap1\n        /* \"contracts/OrderManager.sol\":8047:8059  bool success */\n      dup4\n        /* \"contracts/OrderManager.sol\":8064:8137  payable(orderToCancel.customer).call{value: orderToCancel.totalPrice}(\"\") */\n      dup2\n        /* \"contracts/OrderManager.sol\":8047:8059  bool success */\n      dup2\n        /* \"contracts/OrderManager.sol\":8064:8137  payable(orderToCancel.customer).call{value: orderToCancel.totalPrice}(\"\") */\n      dup2\n        /* \"contracts/OrderManager.sol\":8108:8132  orderToCancel.totalPrice */\n      dup6\n        /* \"contracts/OrderManager.sol\":8072:8094  orderToCancel.customer */\n      dup8\n        /* \"contracts/OrderManager.sol\":8064:8137  payable(orderToCancel.customer).call{value: orderToCancel.totalPrice}(\"\") */\n      gas\n      call\n      swap3\n      pop\n      pop\n      pop\n      returndatasize\n      dup1\n      0x00\n      dup2\n      eq\n      tag_201\n      jumpi\n      mload(0x40)\n      swap2\n      pop\n      and(add(returndatasize, 0x3f), not(0x1f))\n      dup3\n      add\n      0x40\n      mstore\n      returndatasize\n      dup3\n      mstore\n      returndatasize\n      0x00\n      0x20\n      dup5\n      add\n      returndatacopy\n      jump(tag_200)\n    tag_201:\n      0x60\n      swap2\n      pop\n    tag_200:\n      pop\n        /* \"contracts/OrderManager.sol\":8046:8137  (bool success,) = payable(orderToCancel.customer).call{value: orderToCancel.totalPrice}(\"\") */\n      pop\n      swap1\n      pop\n        /* \"contracts/OrderManager.sol\":8157:8164  success */\n      dup1\n        /* \"contracts/OrderManager.sol\":8152:8203  if (!success) revert OrderManager__TransferFailed() */\n      tag_202\n      jumpi\n        /* \"contracts/OrderManager.sol\":8173:8203  OrderManager__TransferFailed() */\n      mload(0x40)\n      shl(0xe1, 0x4239e21d)\n      dup2\n      mstore\n      0x04\n      add\n      mload(0x40)\n      dup1\n      swap2\n      sub\n      swap1\n      revert\n        /* \"contracts/OrderManager.sol\":8152:8203  if (!success) revert OrderManager__TransferFailed() */\n    tag_202:\n        /* \"contracts/OrderManager.sol\":8031:8215  {... */\n      pop\n        /* \"contracts/OrderManager.sol\":7997:8215  if (orderToCancel.totalPrice > 0) {... */\n    tag_196:\n        /* \"contracts/OrderManager.sol\":8256:8267  customerEoa */\n      dup4\n      sub(shl(0xa0, 0x01), 0x01)\n        /* \"contracts/OrderManager.sol\":8232:8294  OrderCancelled(orderId, customerEoa, orderToCancel.totalPrice) */\n      and\n        /* \"contracts/OrderManager.sol\":8247:8254  orderId */\n      dup4\n      sub(shl(0x80, 0x01), 0x01)\n        /* \"contracts/OrderManager.sol\":8232:8294  OrderCancelled(orderId, customerEoa, orderToCancel.totalPrice) */\n      and\n      0x70af4296e6226c6ef4207be3522ff55647a797b6dc909d2d31f67551e9adac5d\n        /* \"contracts/OrderManager.sol\":8269:8282  orderToCancel */\n      dup5\n        /* \"contracts/OrderManager.sol\":8269:8293  orderToCancel.totalPrice */\n      0x04\n      add\n      sload\n        /* \"contracts/OrderManager.sol\":8232:8294  OrderCancelled(orderId, customerEoa, orderToCancel.totalPrice) */\n      mload(0x40)\n      tag_203\n      swap2\n        /* \"#utility.yul\":7523:7548   */\n      dup2\n      mstore\n        /* \"#utility.yul\":7511:7513   */\n      0x20\n        /* \"#utility.yul\":7496:7514   */\n      add\n      swap1\n        /* \"#utility.yul\":7377:7554   */\n      jump\n        /* \"contracts/OrderManager.sol\":8232:8294  OrderCancelled(orderId, customerEoa, orderToCancel.totalPrice) */\n    tag_203:\n      mload(0x40)\n      dup1\n      swap2\n      sub\n      swap1\n      log3\n        /* \"contracts/OrderManager.sol\":8329:8336  orderId */\n      dup3\n      sub(shl(0x80, 0x01), 0x01)\n        /* \"contracts/OrderManager.sol\":8310:8371  OrderStatusUpdated(orderId, oldStatus, OrderStatus.Cancelled) */\n      and\n      0x8c649b2ad43b6449bbeee9487a5efe9f7fcded9570a17906d76f159a34713011\n        /* \"contracts/OrderManager.sol\":8338:8347  oldStatus */\n      dup3\n        /* \"contracts/OrderManager.sol\":8349:8370  OrderStatus.Cancelled */\n      0x06\n        /* \"contracts/OrderManager.sol\":8310:8371  OrderStatusUpdated(orderId, oldStatus, OrderStatus.Cancelled) */\n      mload(0x40)\n      tag_204\n      swap3\n      swap2\n      swap1\n      tag_167\n      jump\t// in\n    tag_204:\n      mload(0x40)\n      dup1\n      swap2\n      sub\n      swap1\n      log2\n        /* \"contracts/OrderManager.sol\":7409:8379  {... */\n      pop\n      pop\n        /* \"@openzeppelin/contracts/utils/ReentrancyGuard.sol\":2542:2562  _nonReentrantAfter() */\n      tag_205\n        /* \"@openzeppelin/contracts/utils/ReentrancyGuard.sol\":1857:1858  1 */\n      0x01\n        /* \"@openzeppelin/contracts/utils/ReentrancyGuard.sol\":3068:3075  _status */\n      0x00\n        /* \"@openzeppelin/contracts/utils/ReentrancyGuard.sol\":3068:3089  _status = NOT_ENTERED */\n      sstore\n        /* \"@openzeppelin/contracts/utils/ReentrancyGuard.sol\":2888:3096  function _nonReentrantAfter() private {... */\n      jump\n        /* \"@openzeppelin/contracts/utils/ReentrancyGuard.sol\":2542:2562  _nonReentrantAfter() */\n    tag_205:\n        /* \"contracts/OrderManager.sol\":7299:8379  function cancelOrder(address customerEoa, uint128 orderId) external override onlyFoodAppContract nonReentrant {... */\n      pop\n      pop\n      jump\t// out\n        /* \"contracts/OrderManager.sol\":11696:12834  function getOrdersByCustomer(address customerEoa, uint256 startIndex, uint256 limit) external view override returns (Order[] memory ordersAn, uint256 nextStartIndex) {... */\n    tag_59:\n        /* \"contracts/OrderManager.sol\":11813:11836  Order[] memory ordersAn */\n      0x60\n        /* \"contracts/OrderManager.sol\":11838:11860  uint256 nextStartIndex */\n      0x00\n      sub(shl(0xa0, 0x01), 0x01)\n        /* \"contracts/OrderManager.sol\":11877:11902  customerEoa == address(0) */\n      dup6\n      and\n        /* \"contracts/OrderManager.sol\":11873:11941  if (customerEoa == address(0)) revert OrderManager__InvalidAddress() */\n      tag_208\n      jumpi\n        /* \"contracts/OrderManager.sol\":11911:11941  OrderManager__InvalidAddress() */\n      mload(0x40)\n      shl(0xe1, 0x2b840735)\n      dup2\n      mstore\n      0x04\n      add\n      mload(0x40)\n      dup1\n      swap2\n      sub\n      swap1\n      revert\n        /* \"contracts/OrderManager.sol\":11873:11941  if (customerEoa == address(0)) revert OrderManager__InvalidAddress() */\n    tag_208:\n        /* \"contracts/OrderManager.sol\":11956:11961  limit */\n      dup3\n        /* \"contracts/OrderManager.sol\":11965:11966  0 */\n      0x00\n        /* \"contracts/OrderManager.sol\":11956:11966  limit == 0 */\n      sub\n        /* \"contracts/OrderManager.sol\":11952:12008  if (limit == 0) revert OrderManager__InvalidPagination() */\n      tag_209\n      jumpi\n        /* \"contracts/OrderManager.sol\":11975:12008  OrderManager__InvalidPagination() */\n      mload(0x40)\n      shl(0xe0, 0x572fc815)\n      dup2\n      mstore\n      0x04\n      add\n      mload(0x40)\n      dup1\n      swap2\n      sub\n      swap1\n      revert\n        /* \"contracts/OrderManager.sol\":11952:12008  if (limit == 0) revert OrderManager__InvalidPagination() */\n    tag_209:\n      sub(shl(0xa0, 0x01), 0x01)\n        /* \"contracts/OrderManager.sol\":12066:12095  customerOrderIds[customerEoa] */\n      dup6\n      and\n        /* \"contracts/OrderManager.sol\":12021:12063  uint128[] storage customerSpecificOrderIds */\n      0x00\n        /* \"contracts/OrderManager.sol\":12066:12095  customerOrderIds[customerEoa] */\n      swap1\n      dup2\n      mstore\n        /* \"contracts/OrderManager.sol\":12066:12082  customerOrderIds */\n      0x03\n        /* \"contracts/OrderManager.sol\":12066:12095  customerOrderIds[customerEoa] */\n      0x20\n      mstore\n      0x40\n      swap1\n      keccak256\n        /* \"contracts/OrderManager.sol\":12128:12159  customerSpecificOrderIds.length */\n      dup1\n      sload\n        /* \"contracts/OrderManager.sol\":12176:12201  startIndex >= totalOrders */\n      dup1\n      dup7\n      lt\n        /* \"contracts/OrderManager.sol\":12172:12257  if (startIndex >= totalOrders) {... */\n      tag_210\n      jumpi\n        /* \"contracts/OrderManager.sol\":12226:12240  new Order[](0) */\n      0x40\n      dup1\n      mload\n        /* \"contracts/OrderManager.sol\":12238:12239  0 */\n      0x00\n        /* \"contracts/OrderManager.sol\":12226:12240  new Order[](0) */\n      dup1\n      dup3\n      mstore\n      0x20\n      dup3\n      add\n      swap1\n      swap3\n      mstore\n      swap1\n      jump(tag_214)\n    tag_215:\n      tag_216\n      tag_115\n      jump\t// in\n    tag_216:\n      dup2\n      mstore\n      0x20\n      add\n      swap1\n      0x01\n      swap1\n      sub\n      swap1\n      dup2\n      tag_215\n      jumpi\n      swap1\n      pop\n    tag_214:\n      pop\n        /* \"contracts/OrderManager.sol\":12242:12243  0 */\n      0x00\n        /* \"contracts/OrderManager.sol\":12218:12244  return (new Order[](0), 0) */\n      swap4\n      pop\n      swap4\n      pop\n      pop\n      pop\n      jump(tag_207)\n        /* \"contracts/OrderManager.sol\":12172:12257  if (startIndex >= totalOrders) {... */\n    tag_210:\n        /* \"contracts/OrderManager.sol\":12269:12285  uint256 endIndex */\n      0x00\n        /* \"contracts/OrderManager.sol\":12288:12306  startIndex + limit */\n      tag_217\n        /* \"contracts/OrderManager.sol\":12301:12306  limit */\n      dup7\n        /* \"contracts/OrderManager.sol\":12288:12298  startIndex */\n      dup9\n        /* \"contracts/OrderManager.sol\":12288:12306  startIndex + limit */\n      tag_218\n      jump\t// in\n    tag_217:\n        /* \"contracts/OrderManager.sol\":12269:12306  uint256 endIndex = startIndex + limit */\n      swap1\n      pop\n        /* \"contracts/OrderManager.sol\":12332:12343  totalOrders */\n      dup2\n        /* \"contracts/OrderManager.sol\":12321:12329  endIndex */\n      dup2\n        /* \"contracts/OrderManager.sol\":12321:12343  endIndex > totalOrders */\n      gt\n        /* \"contracts/OrderManager.sol\":12317:12394  if (endIndex > totalOrders) {... */\n      iszero\n      tag_219\n      jumpi\n      pop\n        /* \"contracts/OrderManager.sol\":12371:12382  totalOrders */\n      dup1\n        /* \"contracts/OrderManager.sol\":12317:12394  if (endIndex > totalOrders) {... */\n    tag_219:\n        /* \"contracts/OrderManager.sol\":12406:12425  uint256 resultCount */\n      0x00\n        /* \"contracts/OrderManager.sol\":12428:12449  endIndex - startIndex */\n      tag_220\n        /* \"contracts/OrderManager.sol\":12439:12449  startIndex */\n      dup9\n        /* \"contracts/OrderManager.sol\":12428:12436  endIndex */\n      dup4\n        /* \"contracts/OrderManager.sol\":12428:12449  endIndex - startIndex */\n      tag_221\n      jump\t// in\n    tag_220:\n        /* \"contracts/OrderManager.sol\":12406:12449  uint256 resultCount = endIndex - startIndex */\n      swap1\n      pop\n        /* \"contracts/OrderManager.sol\":12483:12494  resultCount */\n      dup1\n      sub(shl(0x40, 0x01), 0x01)\n        /* \"contracts/OrderManager.sol\":12471:12495  new Order[](resultCount) */\n      dup2\n      gt\n      iszero\n      tag_223\n      jumpi\n      tag_223\n      tag_213\n      jump\t// in\n    tag_223:\n      mload(0x40)\n      swap1\n      dup1\n      dup3\n      mstore\n      dup1\n      0x20\n      mul\n      0x20\n      add\n      dup3\n      add\n      0x40\n      mstore\n      dup1\n      iszero\n      tag_224\n      jumpi\n      dup2\n      0x20\n      add\n    tag_225:\n      tag_226\n      tag_115\n      jump\t// in\n    tag_226:\n      dup2\n      mstore\n      0x20\n      add\n      swap1\n      0x01\n      swap1\n      sub\n      swap1\n      dup2\n      tag_225\n      jumpi\n      swap1\n      pop\n    tag_224:\n      pop\n        /* \"contracts/OrderManager.sol\":12460:12495  ordersAn = new Order[](resultCount) */\n      swap6\n      pop\n        /* \"contracts/OrderManager.sol\":12513:12522  uint256 i */\n      0x00\n        /* \"contracts/OrderManager.sol\":12508:12639  for (uint256 i = 0; i < resultCount; i++) {... */\n    tag_227:\n        /* \"contracts/OrderManager.sol\":12532:12543  resultCount */\n      dup2\n        /* \"contracts/OrderManager.sol\":12528:12529  i */\n      dup2\n        /* \"contracts/OrderManager.sol\":12528:12543  i < resultCount */\n      lt\n        /* \"contracts/OrderManager.sol\":12508:12639  for (uint256 i = 0; i < resultCount; i++) {... */\n      iszero\n      tag_228\n      jumpi\n        /* \"contracts/OrderManager.sol\":12579:12585  orders */\n      0x02\n        /* \"contracts/OrderManager.sol\":12579:12627  orders[customerSpecificOrderIds[startIndex + i]] */\n      0x00\n        /* \"contracts/OrderManager.sol\":12586:12610  customerSpecificOrderIds */\n      dup7\n        /* \"contracts/OrderManager.sol\":12611:12625  startIndex + i */\n      tag_230\n        /* \"contracts/OrderManager.sol\":12624:12625  i */\n      dup5\n        /* \"contracts/OrderManager.sol\":12611:12621  startIndex */\n      dup14\n        /* \"contracts/OrderManager.sol\":12611:12625  startIndex + i */\n      tag_218\n      jump\t// in\n    tag_230:\n        /* \"contracts/OrderManager.sol\":12586:12626  customerSpecificOrderIds[startIndex + i] */\n      dup2\n      sload\n      dup2\n      lt\n      tag_232\n      jumpi\n      tag_232\n      tag_233\n      jump\t// in\n    tag_232:\n      0x00\n      swap2\n      dup3\n      mstore\n      0x20\n      dup1\n      dup4\n      keccak256\n      0x02\n      dup1\n      dup5\n      div\n      swap1\n      swap2\n      add\n      sload\n      sub(shl(0x80, 0x01), 0x01)\n      0x10\n      0x01\n      swap6\n      dup7\n      and\n      mul\n      0x0100\n      exp\n      swap1\n      swap2\n      div\n      dup2\n      and\n        /* \"contracts/OrderManager.sol\":12579:12627  orders[customerSpecificOrderIds[startIndex + i]] */\n      dup7\n      mstore\n      dup6\n      dup4\n      add\n      swap7\n      swap1\n      swap7\n      mstore\n      0x40\n      swap5\n      dup6\n      add\n      dup5\n      keccak256\n        /* \"contracts/OrderManager.sol\":12565:12627  ordersAn[i] = orders[customerSpecificOrderIds[startIndex + i]] */\n      dup6\n      mload\n      0x0120\n      dup2\n      add\n      dup8\n      mstore\n      dup2\n      sload\n      dup9\n      and\n      dup2\n      mstore\n      swap4\n      dup2\n      add\n      sload\n      sub(shl(0xa0, 0x01), 0x01)\n      and\n      dup5\n      dup5\n      add\n      mstore\n      swap1\n      dup2\n      add\n      sload\n      swap1\n      swap6\n      and\n      dup3\n      dup6\n      add\n      mstore\n      0x03\n      dup6\n      add\n      dup1\n      sload\n      dup6\n      mload\n      dup2\n      dup5\n      mul\n      dup2\n      add\n      dup5\n      add\n      swap1\n      swap7\n      mstore\n      dup1\n      dup7\n      mstore\n      swap3\n      swap6\n        /* \"contracts/OrderManager.sol\":12579:12627  orders[customerSpecificOrderIds[startIndex + i]] */\n      swap5\n        /* \"contracts/OrderManager.sol\":12565:12627  ordersAn[i] = orders[customerSpecificOrderIds[startIndex + i]] */\n      0x60\n      dup8\n      add\n      swap5\n      swap1\n      swap4\n      swap2\n      swap3\n      dup5\n      add\n    tag_235:\n      dup3\n      dup3\n      lt\n      iszero\n      tag_236\n      jumpi\n      0x00\n      dup5\n      dup2\n      mstore\n      0x20\n      swap1\n      dup2\n      swap1\n      keccak256\n      0x40\n      dup1\n      mload\n      0x80\n      dup2\n      add\n      swap1\n      swap2\n      mstore\n      0x03\n      dup6\n      mul\n      swap1\n      swap2\n      add\n      dup1\n      sload\n      sub(shl(0x80, 0x01), 0x01)\n      and\n      dup3\n      mstore\n      0x01\n      dup2\n      add\n      dup1\n      sload\n      swap3\n      swap4\n      swap2\n      swap3\n      swap2\n      dup5\n      add\n      swap2\n      tag_238\n      swap1\n      tag_121\n      jump\t// in\n    tag_238:\n      dup1\n      0x1f\n      add\n      0x20\n      dup1\n      swap2\n      div\n      mul\n      0x20\n      add\n      mload(0x40)\n      swap1\n      dup2\n      add\n      0x40\n      mstore\n      dup1\n      swap3\n      swap2\n      swap1\n      dup2\n      dup2\n      mstore\n      0x20\n      add\n      dup3\n      dup1\n      sload\n      tag_239\n      swap1\n      tag_121\n      jump\t// in\n    tag_239:\n      dup1\n      iszero\n      tag_240\n      jumpi\n      dup1\n      0x1f\n      lt\n      tag_241\n      jumpi\n      0x0100\n      dup1\n      dup4\n      sload\n      div\n      mul\n      dup4\n      mstore\n      swap2\n      0x20\n      add\n      swap2\n      jump(tag_240)\n    tag_241:\n      dup3\n      add\n      swap2\n      swap1\n      0x00\n      mstore\n      keccak256(0x00, 0x20)\n      swap1\n    tag_242:\n      dup2\n      sload\n      dup2\n      mstore\n      swap1\n      0x01\n      add\n      swap1\n      0x20\n      add\n      dup1\n      dup4\n      gt\n      tag_242\n      jumpi\n      dup3\n      swap1\n      sub\n      0x1f\n      and\n      dup3\n      add\n      swap2\n    tag_240:\n      pop\n      pop\n      pop\n      swap2\n      dup4\n      mstore\n      pop\n      pop\n      0x02\n      swap2\n      swap1\n      swap2\n      add\n      sload\n      sub(shl(0x80, 0x01), 0x01)\n      dup1\n      dup3\n      and\n      0x20\n      dup1\n      dup6\n      add\n      swap2\n      swap1\n      swap2\n      mstore\n      shl(0x80, 0x01)\n      swap1\n      swap3\n      div\n      and\n      0x40\n      swap1\n      swap3\n      add\n      swap2\n      swap1\n      swap2\n      mstore\n      swap1\n      dup3\n      mstore\n      0x01\n      swap3\n      swap1\n      swap3\n      add\n      swap2\n      add\n      jump(tag_235)\n    tag_236:\n      pop\n      pop\n      pop\n      swap1\n      dup3\n      mstore\n      pop\n      0x04\n      dup3\n      add\n      sload\n      0x20\n      dup3\n      add\n      mstore\n      0x05\n      dup3\n      add\n      sload\n      0x40\n      swap1\n      swap2\n      add\n      swap1\n      0xff\n      and\n      0x06\n      dup2\n      gt\n      iszero\n      tag_244\n      jumpi\n      tag_244\n      tag_128\n      jump\t// in\n    tag_244:\n      0x06\n      dup2\n      gt\n      iszero\n      tag_246\n      jumpi\n      tag_246\n      tag_128\n      jump\t// in\n    tag_246:\n      dup2\n      mstore\n      0x05\n      dup3\n      add\n      sload\n      sub(shl(0x80, 0x01), 0x01)\n      0x0100\n      swap1\n      swap2\n      div\n      dup2\n      and\n      0x20\n      dup4\n      add\n      mstore\n      0x06\n      swap1\n      swap3\n      add\n      sload\n      dup1\n      dup4\n      and\n      0x40\n      dup4\n      add\n      mstore\n      shl(0x80, 0x01)\n      swap1\n      div\n      swap1\n      swap2\n      and\n      0x60\n      swap1\n      swap2\n      add\n      mstore\n        /* \"contracts/OrderManager.sol\":12565:12576  ordersAn[i] */\n      dup8\n      mload\n        /* \"contracts/OrderManager.sol\":12565:12573  ordersAn */\n      dup9\n      swap1\n        /* \"contracts/OrderManager.sol\":12574:12575  i */\n      dup4\n      swap1\n        /* \"contracts/OrderManager.sol\":12565:12576  ordersAn[i] */\n      dup2\n      lt\n      tag_248\n      jumpi\n      tag_248\n      tag_233\n      jump\t// in\n    tag_248:\n      0x20\n      swap1\n      dup2\n      mul\n      swap2\n      swap1\n      swap2\n      add\n      add\n        /* \"contracts/OrderManager.sol\":12565:12627  ordersAn[i] = orders[customerSpecificOrderIds[startIndex + i]] */\n      mstore\n        /* \"contracts/OrderManager.sol\":12545:12548  i++ */\n      0x01\n      add\n        /* \"contracts/OrderManager.sol\":12508:12639  for (uint256 i = 0; i < resultCount; i++) {... */\n      jump(tag_227)\n    tag_228:\n      pop\n        /* \"contracts/OrderManager.sol\":12666:12677  totalOrders */\n      dup3\n        /* \"contracts/OrderManager.sol\":12655:12663  endIndex */\n      dup3\n        /* \"contracts/OrderManager.sol\":12655:12677  endIndex < totalOrders */\n      lt\n        /* \"contracts/OrderManager.sol\":12651:12783  if (endIndex < totalOrders) {... */\n      iszero\n      tag_249\n      jumpi\n        /* \"contracts/OrderManager.sol\":12711:12719  endIndex */\n      dup2\n        /* \"contracts/OrderManager.sol\":12694:12719  nextStartIndex = endIndex */\n      swap5\n      pop\n        /* \"contracts/OrderManager.sol\":12651:12783  if (endIndex < totalOrders) {... */\n      jump(tag_250)\n    tag_249:\n        /* \"contracts/OrderManager.sol\":12769:12770  0 */\n      0x00\n        /* \"contracts/OrderManager.sol\":12752:12770  nextStartIndex = 0 */\n      swap5\n      pop\n        /* \"contracts/OrderManager.sol\":12651:12783  if (endIndex < totalOrders) {... */\n    tag_250:\n        /* \"contracts/OrderManager.sol\":12793:12826  return (ordersAn, nextStartIndex) */\n      pop\n      pop\n      pop\n      pop\n        /* \"contracts/OrderManager.sol\":11696:12834  function getOrdersByCustomer(address customerEoa, uint256 startIndex, uint256 limit) external view override returns (Order[] memory ordersAn, uint256 nextStartIndex) {... */\n    tag_207:\n      swap4\n      pop\n      swap4\n      swap2\n      pop\n      pop\n      jump\t// out\n        /* \"@openzeppelin/contracts-upgradeable/access/OwnableUpgradeable.sol\":3155:3256  function renounceOwnership() public virtual onlyOwner {... */\n    tag_69:\n        /* \"@openzeppelin/contracts-upgradeable/access/OwnableUpgradeable.sol\":2334:2347  _checkOwner() */\n      tag_252\n        /* \"@openzeppelin/contracts-upgradeable/access/OwnableUpgradeable.sol\":2334:2345  _checkOwner */\n      tag_135\n        /* \"@openzeppelin/contracts-upgradeable/access/OwnableUpgradeable.sol\":2334:2347  _checkOwner() */\n      jump\t// in\n    tag_252:\n        /* \"@openzeppelin/contracts-upgradeable/access/OwnableUpgradeable.sol\":3219:3249  _transferOwnership(address(0)) */\n      tag_254\n        /* \"@openzeppelin/contracts-upgradeable/access/OwnableUpgradeable.sol\":3246:3247  0 */\n      0x00\n        /* \"@openzeppelin/contracts-upgradeable/access/OwnableUpgradeable.sol\":3219:3237  _transferOwnership */\n      tag_255\n        /* \"@openzeppelin/contracts-upgradeable/access/OwnableUpgradeable.sol\":3219:3249  _transferOwnership(address(0)) */\n      jump\t// in\n    tag_254:\n        /* \"@openzeppelin/contracts-upgradeable/access/OwnableUpgradeable.sol\":3155:3256  function renounceOwnership() public virtual onlyOwner {... */\n      jump\t// out\n        /* \"contracts/OrderManager.sol\":12842:13078  function getOrderCountByCustomer(address customerEoa) external view override returns (uint256) {... */\n    tag_74:\n        /* \"contracts/OrderManager.sol\":12928:12935  uint256 */\n      0x00\n      sub(shl(0xa0, 0x01), 0x01)\n        /* \"contracts/OrderManager.sol\":12952:12977  customerEoa == address(0) */\n      dup3\n      and\n        /* \"contracts/OrderManager.sol\":12948:13016  if (customerEoa == address(0)) revert OrderManager__InvalidAddress() */\n      tag_257\n      jumpi\n        /* \"contracts/OrderManager.sol\":12986:13016  OrderManager__InvalidAddress() */\n      mload(0x40)\n      shl(0xe1, 0x2b840735)\n      dup2\n      mstore\n      0x04\n      add\n      mload(0x40)\n      dup1\n      swap2\n      sub\n      swap1\n      revert\n        /* \"contracts/OrderManager.sol\":12948:13016  if (customerEoa == address(0)) revert OrderManager__InvalidAddress() */\n    tag_257:\n      pop\n      sub(shl(0xa0, 0x01), 0x01)\n        /* \"contracts/OrderManager.sol\":13034:13063  customerOrderIds[customerEoa] */\n      and\n      0x00\n      swap1\n      dup2\n      mstore\n        /* \"contracts/OrderManager.sol\":13034:13050  customerOrderIds */\n      0x03\n        /* \"contracts/OrderManager.sol\":13034:13063  customerOrderIds[customerEoa] */\n      0x20\n      mstore\n      0x40\n      swap1\n      keccak256\n        /* \"contracts/OrderManager.sol\":13034:13070  customerOrderIds[customerEoa].length */\n      sload\n      swap1\n        /* \"contracts/OrderManager.sol\":12842:13078  function getOrderCountByCustomer(address customerEoa) external view override returns (uint256) {... */\n      jump\t// out\n        /* \"@openzeppelin/contracts-upgradeable/access/OwnableUpgradeable.sol\":2441:2585  function owner() public view virtual returns (address) {... */\n    tag_88:\n        /* \"@openzeppelin/contracts-upgradeable/access/OwnableUpgradeable.sol\":1313:1335  OwnableStorageLocation */\n      0x9016d09d72d40fdae2fd8ceac6b6234c7706214fd39c1cd1e609a0528c199300\n        /* \"@openzeppelin/contracts-upgradeable/access/OwnableUpgradeable.sol\":2570:2578  $._owner */\n      sload\n      sub(shl(0xa0, 0x01), 0x01)\n      and\n      swap1\n        /* \"@openzeppelin/contracts-upgradeable/access/OwnableUpgradeable.sol\":2441:2585  function owner() public view virtual returns (address) {... */\n      jump\t// out\n        /* \"contracts/OrderManager.sol\":3765:7291  function placeOrder(... */\n    tag_93:\n        /* \"contracts/OrderManager.sol\":2578:2600  foodAppContractAddress */\n      and(sub(shl(0xa0, 0x01), 0x01), sload(0x06))\n        /* \"contracts/OrderManager.sol\":2564:2574  msg.sender */\n      caller\n        /* \"contracts/OrderManager.sol\":2564:2600  msg.sender != foodAppContractAddress */\n      eq\n        /* \"contracts/OrderManager.sol\":2560:2635  if (msg.sender != foodAppContractAddress) revert OrderManager__NotFoodApp() */\n      tag_262\n      jumpi\n        /* \"contracts/OrderManager.sol\":2609:2635  OrderManager__NotFoodApp() */\n      mload(0x40)\n      shl(0xe0, 0x92b2f959)\n      dup2\n      mstore\n      0x04\n      add\n      mload(0x40)\n      dup1\n      swap2\n      sub\n      swap1\n      revert\n        /* \"contracts/OrderManager.sol\":2560:2635  if (msg.sender != foodAppContractAddress) revert OrderManager__NotFoodApp() */\n    tag_262:\n        /* \"@openzeppelin/contracts/utils/ReentrancyGuard.sol\":2500:2521  _nonReentrantBefore() */\n      tag_264\n        /* \"@openzeppelin/contracts/utils/ReentrancyGuard.sol\":2500:2519  _nonReentrantBefore */\n      tag_175\n        /* \"@openzeppelin/contracts/utils/ReentrancyGuard.sol\":2500:2521  _nonReentrantBefore() */\n      jump\t// in\n    tag_264:\n        /* \"contracts/OrderManager.sol\":4047:4064  restaurantManager */\n      sload(0x05)\n        /* \"contracts/OrderManager.sol\":4047:4095  restaurantManager.restaurantExists(restaurantId) */\n      mload(0x40)\n      shl(0xe0, 0xb2a6cb63)\n      dup2\n      mstore\n      sub(shl(0x80, 0x01), 0x01)\n        /* \"#utility.yul\":5447:5494   */\n      dup6\n      and\n        /* \"contracts/OrderManager.sol\":4047:4095  restaurantManager.restaurantExists(restaurantId) */\n      0x04\n      dup3\n      add\n        /* \"#utility.yul\":5429:5495   */\n      mstore\n      sub(shl(0xa0, 0x01), 0x01)\n        /* \"contracts/OrderManager.sol\":4047:4064  restaurantManager */\n      swap1\n      swap2\n      and\n      swap1\n        /* \"contracts/OrderManager.sol\":4047:4081  restaurantManager.restaurantExists */\n      0xb2a6cb63\n      swap1\n        /* \"#utility.yul\":5402:5420   */\n      0x24\n      add\n        /* \"contracts/OrderManager.sol\":4047:4095  restaurantManager.restaurantExists(restaurantId) */\n      0x20\n      mload(0x40)\n      dup1\n      dup4\n      sub\n      dup2\n      dup7\n      gas\n      staticcall\n      iszero\n      dup1\n      iszero\n      tag_268\n      jumpi\n      returndatacopy(0x00, 0x00, returndatasize)\n      revert(0x00, returndatasize)\n    tag_268:\n      pop\n      pop\n      pop\n      pop\n      mload(0x40)\n      returndatasize\n      not(0x1f)\n      0x1f\n      dup3\n      add\n      and\n      dup3\n      add\n      dup1\n      0x40\n      mstore\n      pop\n      dup2\n      add\n      swap1\n      tag_269\n      swap2\n      swap1\n      tag_270\n      jump\t// in\n    tag_269:\n        /* \"contracts/OrderManager.sol\":4042:4138  if (!restaurantManager.restaurantExists(restaurantId)) revert OrderManager__RestaurantNotFound() */\n      tag_271\n      jumpi\n        /* \"contracts/OrderManager.sol\":4104:4138  OrderManager__RestaurantNotFound() */\n      mload(0x40)\n      shl(0xe1, 0x3c4c2fb7)\n      dup2\n      mstore\n      0x04\n      add\n      mload(0x40)\n      dup1\n      swap2\n      sub\n      swap1\n      revert\n        /* \"contracts/OrderManager.sol\":4042:4138  if (!restaurantManager.restaurantExists(restaurantId)) revert OrderManager__RestaurantNotFound() */\n    tag_271:\n        /* \"contracts/OrderManager.sol\":4218:4228  quantities */\n      dup1\n        /* \"contracts/OrderManager.sol\":4218:4235  quantities.length */\n      mload\n        /* \"contracts/OrderManager.sol\":4200:4207  itemIds */\n      dup3\n        /* \"contracts/OrderManager.sol\":4200:4214  itemIds.length */\n      mload\n        /* \"contracts/OrderManager.sol\":4200:4235  itemIds.length != quantities.length */\n      eq\n      iszero\n        /* \"contracts/OrderManager.sol\":4200:4258  itemIds.length != quantities.length || itemIds.length == 0 */\n      dup1\n      tag_272\n      jumpi\n      pop\n        /* \"contracts/OrderManager.sol\":4239:4253  itemIds.length */\n      dup2\n      mload\n        /* \"contracts/OrderManager.sol\":4239:4258  itemIds.length == 0 */\n      iszero\n        /* \"contracts/OrderManager.sol\":4200:4258  itemIds.length != quantities.length || itemIds.length == 0 */\n    tag_272:\n        /* \"contracts/OrderManager.sol\":4196:4299  if (itemIds.length != quantities.length || itemIds.length == 0) revert OrderManager__InvalidOrderData() */\n      iszero\n      tag_273\n      jumpi\n        /* \"contracts/OrderManager.sol\":4267:4299  OrderManager__InvalidOrderData() */\n      mload(0x40)\n      shl(0xe1, 0x4482f209)\n      dup2\n      mstore\n      0x04\n      add\n      mload(0x40)\n      dup1\n      swap2\n      sub\n      swap1\n      revert\n        /* \"contracts/OrderManager.sol\":4196:4299  if (itemIds.length != quantities.length || itemIds.length == 0) revert OrderManager__InvalidOrderData() */\n    tag_273:\n      sub(shl(0xa0, 0x01), 0x01)\n        /* \"contracts/OrderManager.sol\":4314:4339  customerEoa == address(0) */\n      dup5\n      and\n        /* \"contracts/OrderManager.sol\":4310:4378  if (customerEoa == address(0)) revert OrderManager__InvalidAddress() */\n      tag_274\n      jumpi\n        /* \"contracts/OrderManager.sol\":4348:4378  OrderManager__InvalidAddress() */\n      mload(0x40)\n      shl(0xe1, 0x2b840735)\n      dup2\n      mstore\n      0x04\n      add\n      mload(0x40)\n      dup1\n      swap2\n      sub\n      swap1\n      revert\n        /* \"contracts/OrderManager.sol\":4310:4378  if (customerEoa == address(0)) revert OrderManager__InvalidAddress() */\n    tag_274:\n        /* \"contracts/OrderManager.sol\":4624:4638  itemIds.length */\n      dup2\n      mload\n        /* \"contracts/OrderManager.sol\":4391:4419  uint256 calculatedTotalPrice */\n      0x00\n      swap1\n      dup2\n      swap1\n      dup2\n      swap1\n      dup2\n      swap1\n      sub(shl(0x40, 0x01), 0x01)\n        /* \"contracts/OrderManager.sol\":4602:4639  new OrderItemDetail[](itemIds.length) */\n      dup2\n      gt\n      iszero\n      tag_276\n      jumpi\n      tag_276\n      tag_213\n      jump\t// in\n    tag_276:\n      mload(0x40)\n      swap1\n      dup1\n      dup3\n      mstore\n      dup1\n      0x20\n      mul\n      0x20\n      add\n      dup3\n      add\n      0x40\n      mstore\n      dup1\n      iszero\n      tag_277\n      jumpi\n      dup2\n      0x20\n      add\n    tag_278:\n      0x40\n      dup1\n      mload\n      0x80\n      dup2\n      add\n      dup3\n      mstore\n      0x00\n      dup1\n      dup3\n      mstore\n      0x60\n      0x20\n      dup1\n      dup5\n      add\n      dup3\n      swap1\n      mstore\n      swap4\n      dup4\n      add\n      dup3\n      swap1\n      mstore\n      dup3\n      add\n      mstore\n      dup3\n      mstore\n      not(0x00)\n      swap1\n      swap3\n      add\n      swap2\n      add\n      dup2\n      tag_278\n      jumpi\n      swap1\n      pop\n    tag_277:\n      pop\n        /* \"contracts/OrderManager.sol\":4558:4639  OrderItemDetail[] memory orderItemsMemory = new OrderItemDetail[](itemIds.length) */\n      swap1\n      pop\n        /* \"contracts/OrderManager.sol\":4701:4710  uint128 i */\n      0x00\n        /* \"contracts/OrderManager.sol\":4696:5826  for (uint128 i = 0; i < itemIds.length; i++) {... */\n    tag_281:\n        /* \"contracts/OrderManager.sol\":4720:4727  itemIds */\n      dup7\n        /* \"contracts/OrderManager.sol\":4720:4734  itemIds.length */\n      mload\n        /* \"contracts/OrderManager.sol\":4716:4717  i */\n      dup2\n      sub(shl(0x80, 0x01), 0x01)\n        /* \"contracts/OrderManager.sol\":4716:4734  i < itemIds.length */\n      and\n      lt\n        /* \"contracts/OrderManager.sol\":4696:5826  for (uint128 i = 0; i < itemIds.length; i++) {... */\n      iszero\n      tag_282\n      jumpi\n        /* \"contracts/OrderManager.sol\":4838:4849  menuManager */\n      sload(0x04)\n        /* \"contracts/OrderManager.sol\":4876:4886  itemIds[i] */\n      dup8\n      mload\n        /* \"contracts/OrderManager.sol\":4815:4835  MenuItem memory item */\n      0x00\n      swap2\n      sub(shl(0xa0, 0x01), 0x01)\n        /* \"contracts/OrderManager.sol\":4838:4849  menuManager */\n      and\n      swap1\n        /* \"contracts/OrderManager.sol\":4838:4861  menuManager.getMenuItem */\n      0x0c528968\n      swap1\n        /* \"contracts/OrderManager.sol\":4862:4874  restaurantId */\n      dup12\n      swap1\n        /* \"contracts/OrderManager.sol\":4876:4883  itemIds */\n      dup12\n      swap1\n      sub(shl(0x80, 0x01), 0x01)\n        /* \"contracts/OrderManager.sol\":4876:4886  itemIds[i] */\n      dup8\n      and\n      swap1\n      dup2\n      lt\n      tag_285\n      jumpi\n      tag_285\n      tag_233\n      jump\t// in\n    tag_285:\n      0x20\n      mul\n      0x20\n      add\n      add\n      mload\n        /* \"contracts/OrderManager.sol\":4838:4887  menuManager.getMenuItem(restaurantId, itemIds[i]) */\n      mload(0x40)\n      dup4\n      0xffffffff\n      and\n      0xe0\n      shl\n      dup2\n      mstore\n      0x04\n      add\n      tag_286\n      swap3\n      swap2\n      swap1\n      sub(shl(0x80, 0x01), 0x01)\n        /* \"#utility.yul\":16189:16236   */\n      swap3\n      dup4\n      and\n        /* \"#utility.yul\":16171:16237   */\n      dup2\n      mstore\n        /* \"#utility.yul\":16273:16320   */\n      swap2\n      and\n        /* \"#utility.yul\":16268:16270   */\n      0x20\n        /* \"#utility.yul\":16253:16271   */\n      dup3\n      add\n        /* \"#utility.yul\":16246:16321   */\n      mstore\n        /* \"#utility.yul\":16159:16161   */\n      0x40\n        /* \"#utility.yul\":16144:16162   */\n      add\n      swap1\n        /* \"#utility.yul\":15997:16327   */\n      jump\n        /* \"contracts/OrderManager.sol\":4838:4887  menuManager.getMenuItem(restaurantId, itemIds[i]) */\n    tag_286:\n      0x00\n      mload(0x40)\n      dup1\n      dup4\n      sub\n      dup2\n      dup7\n      gas\n      staticcall\n      iszero\n      dup1\n      iszero\n      tag_289\n      jumpi\n      returndatacopy(0x00, 0x00, returndatasize)\n      revert(0x00, returndatasize)\n    tag_289:\n      pop\n      pop\n      pop\n      pop\n      mload(0x40)\n      returndatasize\n      0x00\n      dup3\n      returndatacopy\n      0x1f\n      returndatasize\n      swap1\n      dup2\n      add\n      not(0x1f)\n      and\n      dup3\n      add\n      0x40\n      mstore\n      tag_290\n      swap2\n      swap1\n      dup2\n      add\n      swap1\n      tag_291\n      jump\t// in\n    tag_290:\n        /* \"contracts/OrderManager.sol\":4906:4913  item.id */\n      dup1\n      mload\n        /* \"contracts/OrderManager.sol\":4815:4887  MenuItem memory item = menuManager.getMenuItem(restaurantId, itemIds[i]) */\n      swap1\n      swap2\n      pop\n      sub(shl(0x80, 0x01), 0x01)\n        /* \"contracts/OrderManager.sol\":4906:4918  item.id == 0 */\n      and\n        /* \"contracts/OrderManager.sol\":4906:4913  item.id */\n      0x00\n        /* \"contracts/OrderManager.sol\":4906:4918  item.id == 0 */\n      sub\n        /* \"contracts/OrderManager.sol\":4902:4983  if (item.id == 0) revert OrderManager__MenuItemNotFound(restaurantId, itemIds[i]) */\n      tag_292\n      jumpi\n        /* \"contracts/OrderManager.sol\":4958:4970  restaurantId */\n      dup9\n        /* \"contracts/OrderManager.sol\":4972:4979  itemIds */\n      dup9\n        /* \"contracts/OrderManager.sol\":4980:4981  i */\n      dup4\n      sub(shl(0x80, 0x01), 0x01)\n        /* \"contracts/OrderManager.sol\":4972:4982  itemIds[i] */\n      and\n      dup2\n      mload\n      dup2\n      lt\n      tag_294\n      jumpi\n      tag_294\n      tag_233\n      jump\t// in\n    tag_294:\n      0x20\n      mul\n      0x20\n      add\n      add\n      mload\n        /* \"contracts/OrderManager.sol\":4927:4983  OrderManager__MenuItemNotFound(restaurantId, itemIds[i]) */\n      mload(0x40)\n      shl(0xe0, 0x2489e14f)\n      dup2\n      mstore\n      0x04\n      add\n      tag_132\n      swap3\n      swap2\n      swap1\n      sub(shl(0x80, 0x01), 0x01)\n        /* \"#utility.yul\":16189:16236   */\n      swap3\n      dup4\n      and\n        /* \"#utility.yul\":16171:16237   */\n      dup2\n      mstore\n        /* \"#utility.yul\":16273:16320   */\n      swap2\n      and\n        /* \"#utility.yul\":16268:16270   */\n      0x20\n        /* \"#utility.yul\":16253:16271   */\n      dup3\n      add\n        /* \"#utility.yul\":16246:16321   */\n      mstore\n        /* \"#utility.yul\":16159:16161   */\n      0x40\n        /* \"#utility.yul\":16144:16162   */\n      add\n      swap1\n        /* \"#utility.yul\":15997:16327   */\n      jump\n        /* \"contracts/OrderManager.sol\":4902:4983  if (item.id == 0) revert OrderManager__MenuItemNotFound(restaurantId, itemIds[i]) */\n    tag_292:\n        /* \"contracts/OrderManager.sol\":5003:5007  item */\n      dup1\n        /* \"contracts/OrderManager.sol\":5003:5017  item.available */\n      0xa0\n      add\n      mload\n        /* \"contracts/OrderManager.sol\":4998:5072  if (!item.available) revert OrderManager__MenuItemNotAvailable(itemIds[i]) */\n      tag_296\n      jumpi\n        /* \"contracts/OrderManager.sol\":5061:5068  itemIds */\n      dup8\n        /* \"contracts/OrderManager.sol\":5069:5070  i */\n      dup3\n      sub(shl(0x80, 0x01), 0x01)\n        /* \"contracts/OrderManager.sol\":5061:5071  itemIds[i] */\n      and\n      dup2\n      mload\n      dup2\n      lt\n      tag_298\n      jumpi\n      tag_298\n      tag_233\n      jump\t// in\n    tag_298:\n      0x20\n      mul\n      0x20\n      add\n      add\n      mload\n        /* \"contracts/OrderManager.sol\":5026:5072  OrderManager__MenuItemNotAvailable(itemIds[i]) */\n      mload(0x40)\n      shl(0xe5, 0x03c719bb)\n      dup2\n      mstore\n      0x04\n      add\n      tag_132\n      swap2\n      swap1\n      sub(shl(0x80, 0x01), 0x01)\n        /* \"#utility.yul\":5447:5494   */\n      swap2\n      swap1\n      swap2\n      and\n        /* \"#utility.yul\":5429:5495   */\n      dup2\n      mstore\n        /* \"#utility.yul\":5417:5419   */\n      0x20\n        /* \"#utility.yul\":5402:5420   */\n      add\n      swap1\n        /* \"#utility.yul\":5283:5501   */\n      jump\n        /* \"contracts/OrderManager.sol\":4998:5072  if (!item.available) revert OrderManager__MenuItemNotAvailable(itemIds[i]) */\n    tag_296:\n        /* \"contracts/OrderManager.sol\":5091:5101  quantities */\n      dup7\n        /* \"contracts/OrderManager.sol\":5102:5103  i */\n      dup3\n      sub(shl(0x80, 0x01), 0x01)\n        /* \"contracts/OrderManager.sol\":5091:5104  quantities[i] */\n      and\n      dup2\n      mload\n      dup2\n      lt\n      tag_301\n      jumpi\n      tag_301\n      tag_233\n      jump\t// in\n    tag_301:\n      0x20\n      mul\n      0x20\n      add\n      add\n      mload\n      sub(shl(0x80, 0x01), 0x01)\n        /* \"contracts/OrderManager.sol\":5091:5109  quantities[i] == 0 */\n      and\n        /* \"contracts/OrderManager.sol\":5108:5109  0 */\n      0x00\n        /* \"contracts/OrderManager.sol\":5091:5109  quantities[i] == 0 */\n      sub\n        /* \"contracts/OrderManager.sol\":5087:5150  if (quantities[i] == 0) revert OrderManager__InvalidOrderData() */\n      tag_302\n      jumpi\n        /* \"contracts/OrderManager.sol\":5118:5150  OrderManager__InvalidOrderData() */\n      mload(0x40)\n      shl(0xe1, 0x4482f209)\n      dup2\n      mstore\n      0x04\n      add\n      mload(0x40)\n      dup1\n      swap2\n      sub\n      swap1\n      revert\n        /* \"contracts/OrderManager.sol\":5087:5150  if (quantities[i] == 0) revert OrderManager__InvalidOrderData() */\n    tag_302:\n        /* \"contracts/OrderManager.sol\":5272:5282  quantities */\n      dup7\n        /* \"contracts/OrderManager.sol\":5283:5284  i */\n      dup3\n      sub(shl(0x80, 0x01), 0x01)\n        /* \"contracts/OrderManager.sol\":5272:5285  quantities[i] */\n      and\n      dup2\n      mload\n      dup2\n      lt\n      tag_304\n      jumpi\n      tag_304\n      tag_233\n      jump\t// in\n    tag_304:\n      0x20\n      mul\n      0x20\n      add\n      add\n      mload\n      sub(shl(0x80, 0x01), 0x01)\n        /* \"contracts/OrderManager.sol\":5250:5285  uint256(item.price) * quantities[i] */\n      and\n        /* \"contracts/OrderManager.sol\":5258:5262  item */\n      dup2\n        /* \"contracts/OrderManager.sol\":5258:5268  item.price */\n      0x80\n      add\n      mload\n      sub(shl(0x80, 0x01), 0x01)\n        /* \"contracts/OrderManager.sol\":5250:5269  uint256(item.price) */\n      and\n        /* \"contracts/OrderManager.sol\":5250:5285  uint256(item.price) * quantities[i] */\n      tag_305\n      swap2\n      swap1\n      tag_306\n      jump\t// in\n    tag_305:\n        /* \"contracts/OrderManager.sol\":5226:5285  calculatedTotalPrice += uint256(item.price) * quantities[i] */\n      tag_307\n      swap1\n      dup8\n      tag_218\n      jump\t// in\n    tag_307:\n      swap6\n      pop\n        /* \"contracts/OrderManager.sol\":5317:5327  quantities */\n      dup7\n        /* \"contracts/OrderManager.sol\":5328:5329  i */\n      dup3\n      sub(shl(0x80, 0x01), 0x01)\n        /* \"contracts/OrderManager.sol\":5317:5330  quantities[i] */\n      and\n      dup2\n      mload\n      dup2\n      lt\n      tag_309\n      jumpi\n      tag_309\n      tag_233\n      jump\t// in\n    tag_309:\n      0x20\n      mul\n      0x20\n      add\n      add\n      mload\n        /* \"contracts/OrderManager.sol\":5300:5330  totalQuantity += quantities[i] */\n      dup5\n      tag_310\n      swap2\n      swap1\n      tag_311\n      jump\t// in\n    tag_310:\n      swap4\n      pop\n        /* \"contracts/OrderManager.sol\":5431:5449  maxPreparationTime */\n      dup5\n      sub(shl(0x80, 0x01), 0x01)\n        /* \"contracts/OrderManager.sol\":5408:5449  item.preparationTime > maxPreparationTime */\n      and\n        /* \"contracts/OrderManager.sol\":5408:5412  item */\n      dup2\n        /* \"contracts/OrderManager.sol\":5408:5428  item.preparationTime */\n      0x0140\n      add\n      mload\n      sub(shl(0x80, 0x01), 0x01)\n        /* \"contracts/OrderManager.sol\":5408:5449  item.preparationTime > maxPreparationTime */\n      and\n      gt\n        /* \"contracts/OrderManager.sol\":5404:5527  if (item.preparationTime > maxPreparationTime) {... */\n      iszero\n      tag_312\n      jumpi\n        /* \"contracts/OrderManager.sol\":5491:5495  item */\n      dup1\n        /* \"contracts/OrderManager.sol\":5491:5511  item.preparationTime */\n      0x0140\n      add\n      mload\n        /* \"contracts/OrderManager.sol\":5470:5511  maxPreparationTime = item.preparationTime */\n      swap5\n      pop\n        /* \"contracts/OrderManager.sol\":5404:5527  if (item.preparationTime > maxPreparationTime) {... */\n    tag_312:\n        /* \"contracts/OrderManager.sol\":5625:5814  OrderItemDetail({... */\n      mload(0x40)\n      dup1\n      0x80\n      add\n      0x40\n      mstore\n      dup1\n        /* \"contracts/OrderManager.sol\":5672:5676  item */\n      dup3\n        /* \"contracts/OrderManager.sol\":5672:5679  item.id */\n      0x00\n      add\n      mload\n      sub(shl(0x80, 0x01), 0x01)\n        /* \"contracts/OrderManager.sol\":5625:5814  OrderItemDetail({... */\n      and\n      dup2\n      mstore\n      0x20\n      add\n        /* \"contracts/OrderManager.sol\":5704:5708  item */\n      dup3\n        /* \"contracts/OrderManager.sol\":5704:5713  item.name */\n      0x40\n      add\n      mload\n        /* \"contracts/OrderManager.sol\":5625:5814  OrderItemDetail({... */\n      dup2\n      mstore\n      0x20\n      add\n        /* \"contracts/OrderManager.sol\":5746:5750  item */\n      dup3\n        /* \"contracts/OrderManager.sol\":5746:5756  item.price */\n      0x80\n      add\n      mload\n      sub(shl(0x80, 0x01), 0x01)\n        /* \"contracts/OrderManager.sol\":5625:5814  OrderItemDetail({... */\n      and\n      dup2\n      mstore\n      0x20\n      add\n        /* \"contracts/OrderManager.sol\":5785:5795  quantities */\n      dup9\n        /* \"contracts/OrderManager.sol\":5796:5797  i */\n      dup5\n      sub(shl(0x80, 0x01), 0x01)\n        /* \"contracts/OrderManager.sol\":5785:5798  quantities[i] */\n      and\n      dup2\n      mload\n      dup2\n      lt\n      tag_314\n      jumpi\n      tag_314\n      tag_233\n      jump\t// in\n    tag_314:\n      0x20\n      mul\n      0x20\n      add\n      add\n      mload\n      sub(shl(0x80, 0x01), 0x01)\n        /* \"contracts/OrderManager.sol\":5625:5814  OrderItemDetail({... */\n      and\n      dup2\n      mstore\n      pop\n        /* \"contracts/OrderManager.sol\":5603:5619  orderItemsMemory */\n      dup4\n        /* \"contracts/OrderManager.sol\":5620:5621  i */\n      dup4\n      sub(shl(0x80, 0x01), 0x01)\n        /* \"contracts/OrderManager.sol\":5603:5622  orderItemsMemory[i] */\n      and\n      dup2\n      mload\n      dup2\n      lt\n      tag_316\n      jumpi\n      tag_316\n      tag_233\n      jump\t// in\n    tag_316:\n      0x20\n      mul\n      0x20\n      add\n      add\n        /* \"contracts/OrderManager.sol\":5603:5814  orderItemsMemory[i] = OrderItemDetail({... */\n      dup2\n      swap1\n      mstore\n      pop\n        /* \"contracts/OrderManager.sol\":4741:5826  {... */\n      pop\n        /* \"contracts/OrderManager.sol\":4736:4739  i++ */\n      dup1\n      dup1\n      tag_317\n      swap1\n      tag_318\n      jump\t// in\n    tag_317:\n      swap2\n      pop\n      pop\n        /* \"contracts/OrderManager.sol\":4696:5826  for (uint128 i = 0; i < itemIds.length; i++) {... */\n      jump(tag_281)\n    tag_282:\n      pop\n        /* \"contracts/OrderManager.sol\":5887:5907  calculatedTotalPrice */\n      dup4\n        /* \"contracts/OrderManager.sol\":5875:5884  msg.value */\n      callvalue\n        /* \"contracts/OrderManager.sol\":5875:5907  msg.value < calculatedTotalPrice */\n      lt\n        /* \"contracts/OrderManager.sol\":5871:5982  if (msg.value < calculatedTotalPrice) revert OrderManager__InsufficientPayment(calculatedTotalPrice, msg.value) */\n      iszero\n      tag_319\n      jumpi\n        /* \"contracts/OrderManager.sol\":5916:5982  OrderManager__InsufficientPayment(calculatedTotalPrice, msg.value) */\n      mload(0x40)\n      shl(0xe1, 0x5bb47931)\n      dup2\n      mstore\n      0x04\n      dup2\n      add\n        /* \"#utility.yul\":12831:12856   */\n      dup6\n      swap1\n      mstore\n        /* \"contracts/OrderManager.sol\":5972:5981  msg.value */\n      callvalue\n        /* \"#utility.yul\":12872:12890   */\n      0x24\n      dup3\n      add\n        /* \"#utility.yul\":12865:12899   */\n      mstore\n        /* \"#utility.yul\":12804:12822   */\n      0x44\n      add\n        /* \"contracts/OrderManager.sol\":5916:5982  OrderManager__InsufficientPayment(calculatedTotalPrice, msg.value) */\n      tag_132\n        /* \"#utility.yul\":12657:12905   */\n      jump\n        /* \"contracts/OrderManager.sol\":5871:5982  if (msg.value < calculatedTotalPrice) revert OrderManager__InsufficientPayment(calculatedTotalPrice, msg.value) */\n    tag_319:\n        /* \"contracts/OrderManager.sol\":6053:6073  calculatedTotalPrice */\n      dup4\n        /* \"contracts/OrderManager.sol\":6041:6050  msg.value */\n      callvalue\n        /* \"contracts/OrderManager.sol\":6041:6073  msg.value > calculatedTotalPrice */\n      gt\n        /* \"contracts/OrderManager.sol\":6037:6256  if (msg.value > calculatedTotalPrice) {... */\n      iszero\n      tag_321\n      jumpi\n        /* \"contracts/OrderManager.sol\":6091:6103  bool success */\n      0x00\n      sub(shl(0xa0, 0x01), 0x01)\n        /* \"contracts/OrderManager.sol\":6108:6133  payable(customerEoa).call */\n      dup10\n      and\n        /* \"contracts/OrderManager.sol\":6141:6173  msg.value - calculatedTotalPrice */\n      tag_322\n        /* \"contracts/OrderManager.sol\":6153:6173  calculatedTotalPrice */\n      dup7\n        /* \"contracts/OrderManager.sol\":6141:6150  msg.value */\n      callvalue\n        /* \"contracts/OrderManager.sol\":6141:6173  msg.value - calculatedTotalPrice */\n      tag_221\n      jump\t// in\n    tag_322:\n        /* \"contracts/OrderManager.sol\":6108:6178  payable(customerEoa).call{value: msg.value - calculatedTotalPrice}(\"\") */\n      mload(0x40)\n      0x00\n      dup2\n      dup2\n      dup2\n      dup6\n      dup8\n      gas\n      call\n      swap3\n      pop\n      pop\n      pop\n      returndatasize\n      dup1\n      0x00\n      dup2\n      eq\n      tag_326\n      jumpi\n      mload(0x40)\n      swap2\n      pop\n      and(add(returndatasize, 0x3f), not(0x1f))\n      dup3\n      add\n      0x40\n      mstore\n      returndatasize\n      dup3\n      mstore\n      returndatasize\n      0x00\n      0x20\n      dup5\n      add\n      returndatacopy\n      jump(tag_325)\n    tag_326:\n      0x60\n      swap2\n      pop\n    tag_325:\n      pop\n        /* \"contracts/OrderManager.sol\":6090:6178  (bool success,) = payable(customerEoa).call{value: msg.value - calculatedTotalPrice}(\"\") */\n      pop\n      swap1\n      pop\n        /* \"contracts/OrderManager.sol\":6198:6205  success */\n      dup1\n        /* \"contracts/OrderManager.sol\":6193:6244  if (!success) revert OrderManager__TransferFailed() */\n      tag_327\n      jumpi\n        /* \"contracts/OrderManager.sol\":6214:6244  OrderManager__TransferFailed() */\n      mload(0x40)\n      shl(0xe1, 0x4239e21d)\n      dup2\n      mstore\n      0x04\n      add\n      mload(0x40)\n      dup1\n      swap2\n      sub\n      swap1\n      revert\n        /* \"contracts/OrderManager.sol\":6193:6244  if (!success) revert OrderManager__TransferFailed() */\n    tag_327:\n        /* \"contracts/OrderManager.sol\":6075:6256  {... */\n      pop\n        /* \"contracts/OrderManager.sol\":6037:6256  if (msg.value > calculatedTotalPrice) {... */\n    tag_321:\n        /* \"contracts/OrderManager.sol\":6302:6324  uint128 currentOrderId */\n      0x00\n        /* \"contracts/OrderManager.sol\":6327:6338  nextOrderId */\n      0x01\n      0x00\n      swap1\n      sload\n      swap1\n      0x0100\n      exp\n      swap1\n      div\n      sub(shl(0x80, 0x01), 0x01)\n      and\n        /* \"contracts/OrderManager.sol\":6302:6338  uint128 currentOrderId = nextOrderId */\n      swap1\n      pop\n        /* \"contracts/OrderManager.sol\":6349:6371  Order storage newOrder */\n      0x00\n        /* \"contracts/OrderManager.sol\":6374:6380  orders */\n      0x02\n        /* \"contracts/OrderManager.sol\":6374:6396  orders[currentOrderId] */\n      0x00\n        /* \"contracts/OrderManager.sol\":6381:6395  currentOrderId */\n      dup4\n      sub(shl(0x80, 0x01), 0x01)\n        /* \"contracts/OrderManager.sol\":6374:6396  orders[currentOrderId] */\n      and\n      sub(shl(0x80, 0x01), 0x01)\n      and\n      dup2\n      mstore\n      0x20\n      add\n      swap1\n      dup2\n      mstore\n      0x20\n      add\n      0x00\n      keccak256\n        /* \"contracts/OrderManager.sol\":6349:6396  Order storage newOrder = orders[currentOrderId] */\n      swap1\n      pop\n        /* \"contracts/OrderManager.sol\":6421:6435  currentOrderId */\n      dup2\n        /* \"contracts/OrderManager.sol\":6407:6415  newOrder */\n      dup2\n        /* \"contracts/OrderManager.sol\":6407:6418  newOrder.id */\n      0x00\n      add\n      0x00\n        /* \"contracts/OrderManager.sol\":6407:6435  newOrder.id = currentOrderId */\n      0x0100\n      exp\n      dup2\n      sload\n      dup2\n      sub(shl(0x80, 0x01), 0x01)\n      mul\n      not\n      and\n      swap1\n      dup4\n      sub(shl(0x80, 0x01), 0x01)\n      and\n      mul\n      or\n      swap1\n      sstore\n      pop\n        /* \"contracts/OrderManager.sol\":6466:6477  customerEoa */\n      dup10\n        /* \"contracts/OrderManager.sol\":6446:6454  newOrder */\n      dup2\n        /* \"contracts/OrderManager.sol\":6446:6463  newOrder.customer */\n      0x01\n      add\n      0x00\n        /* \"contracts/OrderManager.sol\":6446:6477  newOrder.customer = customerEoa */\n      0x0100\n      exp\n      dup2\n      sload\n      dup2\n      sub(shl(0xa0, 0x01), 0x01)\n      mul\n      not\n      and\n      swap1\n      dup4\n      sub(shl(0xa0, 0x01), 0x01)\n      and\n      mul\n      or\n      swap1\n      sstore\n      pop\n        /* \"contracts/OrderManager.sol\":6512:6524  restaurantId */\n      dup9\n        /* \"contracts/OrderManager.sol\":6488:6496  newOrder */\n      dup2\n        /* \"contracts/OrderManager.sol\":6488:6509  newOrder.restaurantId */\n      0x02\n      add\n      0x00\n        /* \"contracts/OrderManager.sol\":6488:6524  newOrder.restaurantId = restaurantId */\n      0x0100\n      exp\n      dup2\n      sload\n      dup2\n      sub(shl(0x80, 0x01), 0x01)\n      mul\n      not\n      and\n      swap1\n      dup4\n      sub(shl(0x80, 0x01), 0x01)\n      and\n      mul\n      or\n      swap1\n      sstore\n      pop\n        /* \"contracts/OrderManager.sol\":6557:6577  calculatedTotalPrice */\n      dup6\n        /* \"contracts/OrderManager.sol\":6535:6543  newOrder */\n      dup2\n        /* \"contracts/OrderManager.sol\":6535:6554  newOrder.totalPrice */\n      0x04\n      add\n        /* \"contracts/OrderManager.sol\":6535:6577  newOrder.totalPrice = calculatedTotalPrice */\n      dup2\n      swap1\n      sstore\n      pop\n        /* \"contracts/OrderManager.sol\":6606:6624  OrderStatus.Placed */\n      0x00\n        /* \"contracts/OrderManager.sol\":6588:6596  newOrder */\n      dup2\n        /* \"contracts/OrderManager.sol\":6588:6603  newOrder.status */\n      0x05\n      add\n      0x00\n        /* \"contracts/OrderManager.sol\":6588:6624  newOrder.status = OrderStatus.Placed */\n      0x0100\n      exp\n      dup2\n      sload\n      dup2\n      0xff\n      mul\n      not\n      and\n      swap1\n      dup4\n      0x06\n      dup2\n      gt\n      iszero\n      tag_329\n      jumpi\n      tag_329\n      tag_128\n      jump\t// in\n    tag_329:\n      mul\n      or\n      swap1\n      sstore\n      pop\n        /* \"contracts/OrderManager.sol\":6635:6653  newOrder.timestamp */\n      0x05\n      dup2\n      add\n        /* \"contracts/OrderManager.sol\":6635:6680  newOrder.timestamp = uint128(block.timestamp) */\n      dup1\n      sload\n      sub(shl(0x80, 0x01), 0x01)\n        /* \"contracts/OrderManager.sol\":6664:6679  block.timestamp */\n      timestamp\n        /* \"contracts/OrderManager.sol\":6635:6680  newOrder.timestamp = uint128(block.timestamp) */\n      dup2\n      and\n      0x0100\n      mul\n      not(0xffffffffffffffffffffffffffffffff00)\n      swap1\n      swap3\n      and\n      swap2\n      swap1\n      swap2\n      or\n      swap1\n      swap2\n      sstore\n        /* \"contracts/OrderManager.sol\":6747:6780  newOrder.quantity = totalQuantity */\n      dup5\n      dup2\n      and\n      shl(0x80, 0x01)\n      mul\n        /* \"contracts/OrderManager.sol\":6691:6736  newOrder.preparationTime = maxPreparationTime */\n      swap1\n      dup7\n      and\n        /* \"contracts/OrderManager.sol\":6747:6780  newOrder.quantity = totalQuantity */\n      or\n        /* \"contracts/OrderManager.sol\":6691:6715  newOrder.preparationTime */\n      0x06\n      dup3\n      add\n        /* \"contracts/OrderManager.sol\":6747:6780  newOrder.quantity = totalQuantity */\n      sstore\n      0x00\n        /* \"contracts/OrderManager.sol\":6881:7005  for (uint i = 0; i < orderItemsMemory.length; i++) {... */\n    tag_330:\n        /* \"contracts/OrderManager.sol\":6902:6918  orderItemsMemory */\n      dup4\n        /* \"contracts/OrderManager.sol\":6902:6925  orderItemsMemory.length */\n      mload\n        /* \"contracts/OrderManager.sol\":6898:6899  i */\n      dup2\n        /* \"contracts/OrderManager.sol\":6898:6925  i < orderItemsMemory.length */\n      lt\n        /* \"contracts/OrderManager.sol\":6881:7005  for (uint i = 0; i < orderItemsMemory.length; i++) {... */\n      iszero\n      tag_331\n      jumpi\n        /* \"contracts/OrderManager.sol\":6947:6955  newOrder */\n      dup2\n        /* \"contracts/OrderManager.sol\":6947:6967  newOrder.itemsDetail */\n      0x03\n      add\n        /* \"contracts/OrderManager.sol\":6973:6989  orderItemsMemory */\n      dup5\n        /* \"contracts/OrderManager.sol\":6990:6991  i */\n      dup3\n        /* \"contracts/OrderManager.sol\":6973:6992  orderItemsMemory[i] */\n      dup2\n      mload\n      dup2\n      lt\n      tag_334\n      jumpi\n      tag_334\n      tag_233\n      jump\t// in\n    tag_334:\n      0x20\n      swap1\n      dup2\n      mul\n      swap2\n      swap1\n      swap2\n      add\n      dup2\n      add\n      mload\n        /* \"contracts/OrderManager.sol\":6947:6993  newOrder.itemsDetail.push(orderItemsMemory[i]) */\n      dup3\n      sload\n      0x01\n      dup1\n      dup3\n      add\n      dup6\n      sstore\n      0x00\n      swap5\n      dup6\n      mstore\n      swap4\n      dup4\n      swap1\n      keccak256\n      dup3\n      mload\n      0x03\n      swap1\n      swap3\n      mul\n      add\n      dup1\n      sload\n      not(sub(shl(0x80, 0x01), 0x01))\n      and\n      sub(shl(0x80, 0x01), 0x01)\n      swap1\n      swap3\n      and\n      swap2\n      swap1\n      swap2\n      or\n      dup2\n      sstore\n      swap2\n      dup2\n      add\n      mload\n        /* \"contracts/OrderManager.sol\":6973:6992  orderItemsMemory[i] */\n      swap1\n      swap3\n        /* \"contracts/OrderManager.sol\":6947:6993  newOrder.itemsDetail.push(orderItemsMemory[i]) */\n      dup3\n      add\n      swap1\n      tag_336\n      swap1\n      dup3\n      tag_337\n      jump\t// in\n    tag_336:\n      pop\n      0x40\n      dup3\n      add\n      mload\n      0x60\n      swap1\n      swap3\n      add\n      mload\n      sub(shl(0x80, 0x01), 0x01)\n      swap1\n      dup2\n      and\n      shl(0x80, 0x01)\n      mul\n      swap3\n      and\n      swap2\n      swap1\n      swap2\n      or\n      0x02\n      swap1\n      swap2\n      add\n      sstore\n      0x01\n        /* \"contracts/OrderManager.sol\":6927:6930  i++ */\n      add\n        /* \"contracts/OrderManager.sol\":6881:7005  for (uint i = 0; i < orderItemsMemory.length; i++) {... */\n      jump(tag_330)\n    tag_331:\n      pop\n      sub(shl(0xa0, 0x01), 0x01)\n        /* \"contracts/OrderManager.sol\":7087:7116  customerOrderIds[customerEoa] */\n      dup11\n      and\n      0x00\n      dup2\n      dup2\n      mstore\n        /* \"contracts/OrderManager.sol\":7087:7103  customerOrderIds */\n      0x03\n        /* \"contracts/OrderManager.sol\":7087:7116  customerOrderIds[customerEoa] */\n      0x20\n      swap1\n      dup2\n      mstore\n      0x40\n      dup1\n      dup4\n      keccak256\n        /* \"contracts/OrderManager.sol\":7087:7137  customerOrderIds[customerEoa].push(currentOrderId) */\n      dup1\n      sload\n      0x01\n      dup1\n      dup3\n      add\n      dup4\n      sstore\n      swap2\n      dup6\n      mstore\n      swap4\n      dup4\n      swap1\n      keccak256\n      0x02\n      dup6\n      div\n      add\n      dup1\n      sload\n      swap2\n      swap1\n      swap5\n      and\n      0x10\n      mul\n      0x0100\n      exp\n      sub(shl(0x80, 0x01), 0x01)\n      dup2\n      dup2\n      mul\n      not\n      swap1\n      swap3\n      and\n      dup9\n      dup4\n      and\n      swap2\n      dup3\n      mul\n      or\n      swap1\n      swap5\n      sstore\n        /* \"contracts/OrderManager.sol\":7183:7259  OrderPlaced(currentOrderId, customerEoa, restaurantId, calculatedTotalPrice) */\n      swap1\n      mload\n        /* \"#utility.yul\":7523:7548   */\n      dup11\n      dup2\n      mstore\n        /* \"contracts/OrderManager.sol\":7183:7259  OrderPlaced(currentOrderId, customerEoa, restaurantId, calculatedTotalPrice) */\n      swap1\n      dup14\n      and\n      swap4\n        /* \"contracts/OrderManager.sol\":7087:7116  customerOrderIds[customerEoa] */\n      swap3\n        /* \"contracts/OrderManager.sol\":7087:7137  customerOrderIds[customerEoa].push(currentOrderId) */\n      swap2\n        /* \"contracts/OrderManager.sol\":7183:7259  OrderPlaced(currentOrderId, customerEoa, restaurantId, calculatedTotalPrice) */\n      0x6ce2bb89bf47987f896a72756397a4441f5be463c46b39a4102f8108d5ade5e0\n      swap2\n        /* \"#utility.yul\":7496:7514   */\n      add\n        /* \"contracts/OrderManager.sol\":7183:7259  OrderPlaced(currentOrderId, customerEoa, restaurantId, calculatedTotalPrice) */\n      mload(0x40)\n      dup1\n      swap2\n      sub\n      swap1\n      log4\n        /* \"contracts/OrderManager.sol\":7270:7281  nextOrderId */\n      0x01\n        /* \"contracts/OrderManager.sol\":7270:7283  nextOrderId++ */\n      dup1\n      sload\n      sub(shl(0x80, 0x01), 0x01)\n      and\n      swap1\n        /* \"contracts/OrderManager.sol\":7270:7281  nextOrderId */\n      0x00\n        /* \"contracts/OrderManager.sol\":7270:7283  nextOrderId++ */\n      tag_340\n      dup4\n      tag_318\n      jump\t// in\n    tag_340:\n      swap2\n      swap1\n      0x0100\n      exp\n      dup2\n      sload\n      dup2\n      sub(shl(0x80, 0x01), 0x01)\n      mul\n      not\n      and\n      swap1\n      dup4\n      sub(shl(0x80, 0x01), 0x01)\n      and\n      mul\n      or\n      swap1\n      sstore\n      pop\n      pop\n        /* \"contracts/OrderManager.sol\":3985:7291  {... */\n      pop\n      pop\n      pop\n      pop\n      pop\n      pop\n        /* \"@openzeppelin/contracts/utils/ReentrancyGuard.sol\":2542:2562  _nonReentrantAfter() */\n      tag_341\n        /* \"@openzeppelin/contracts/utils/ReentrancyGuard.sol\":1857:1858  1 */\n      0x01\n        /* \"@openzeppelin/contracts/utils/ReentrancyGuard.sol\":3068:3075  _status */\n      0x00\n        /* \"@openzeppelin/contracts/utils/ReentrancyGuard.sol\":3068:3089  _status = NOT_ENTERED */\n      sstore\n        /* \"@openzeppelin/contracts/utils/ReentrancyGuard.sol\":2888:3096  function _nonReentrantAfter() private {... */\n      jump\n        /* \"@openzeppelin/contracts/utils/ReentrancyGuard.sol\":2542:2562  _nonReentrantAfter() */\n    tag_341:\n        /* \"contracts/OrderManager.sol\":3765:7291  function placeOrder(... */\n      pop\n      pop\n      pop\n      pop\n      jump\t// out\n        /* \"contracts/OrderManager.sol\":8387:10348  function completeOrder(address staffEoa, uint128 orderId, uint128 staffRestaurantId) external override onlyFoodAppContract nonReentrant {... */\n    tag_98:\n        /* \"contracts/OrderManager.sol\":2578:2600  foodAppContractAddress */\n      and(sub(shl(0xa0, 0x01), 0x01), sload(0x06))\n        /* \"contracts/OrderManager.sol\":2564:2574  msg.sender */\n      caller\n        /* \"contracts/OrderManager.sol\":2564:2600  msg.sender != foodAppContractAddress */\n      eq\n        /* \"contracts/OrderManager.sol\":2560:2635  if (msg.sender != foodAppContractAddress) revert OrderManager__NotFoodApp() */\n      tag_343\n      jumpi\n        /* \"contracts/OrderManager.sol\":2609:2635  OrderManager__NotFoodApp() */\n      mload(0x40)\n      shl(0xe0, 0x92b2f959)\n      dup2\n      mstore\n      0x04\n      add\n      mload(0x40)\n      dup1\n      swap2\n      sub\n      swap1\n      revert\n        /* \"contracts/OrderManager.sol\":2560:2635  if (msg.sender != foodAppContractAddress) revert OrderManager__NotFoodApp() */\n    tag_343:\n        /* \"@openzeppelin/contracts/utils/ReentrancyGuard.sol\":2500:2521  _nonReentrantBefore() */\n      tag_345\n        /* \"@openzeppelin/contracts/utils/ReentrancyGuard.sol\":2500:2519  _nonReentrantBefore */\n      tag_175\n        /* \"@openzeppelin/contracts/utils/ReentrancyGuard.sol\":2500:2521  _nonReentrantBefore() */\n      jump\t// in\n    tag_345:\n      sub(shl(0x80, 0x01), 0x01)\n        /* \"contracts/OrderManager.sol\":8566:8581  orders[orderId] */\n      dup1\n      dup4\n      and\n        /* \"contracts/OrderManager.sol\":8534:8563  Order storage orderToComplete */\n      0x00\n        /* \"contracts/OrderManager.sol\":8566:8581  orders[orderId] */\n      swap1\n      dup2\n      mstore\n        /* \"contracts/OrderManager.sol\":8566:8572  orders */\n      0x02\n        /* \"contracts/OrderManager.sol\":8566:8581  orders[orderId] */\n      0x20\n      mstore\n      0x40\n      dup2\n      keccak256\n        /* \"contracts/OrderManager.sol\":8596:8614  orderToComplete.id */\n      dup1\n      sload\n        /* \"contracts/OrderManager.sol\":8566:8581  orders[orderId] */\n      swap1\n      swap3\n        /* \"contracts/OrderManager.sol\":8596:8614  orderToComplete.id */\n      and\n        /* \"contracts/OrderManager.sol\":8596:8619  orderToComplete.id == 0 */\n      swap1\n      sub\n        /* \"contracts/OrderManager.sol\":8592:8664  if (orderToComplete.id == 0) revert OrderManager__OrderNotFound(orderId) */\n      tag_347\n      jumpi\n        /* \"contracts/OrderManager.sol\":8628:8664  OrderManager__OrderNotFound(orderId) */\n      mload(0x40)\n      shl(0xe4, 0x05e8f385)\n      dup2\n      mstore\n      sub(shl(0x80, 0x01), 0x01)\n        /* \"#utility.yul\":5447:5494   */\n      dup5\n      and\n        /* \"contracts/OrderManager.sol\":8628:8664  OrderManager__OrderNotFound(orderId) */\n      0x04\n      dup3\n      add\n        /* \"#utility.yul\":5429:5495   */\n      mstore\n        /* \"#utility.yul\":5402:5420   */\n      0x24\n      add\n        /* \"contracts/OrderManager.sol\":8628:8664  OrderManager__OrderNotFound(orderId) */\n      tag_132\n        /* \"#utility.yul\":5283:5501   */\n      jump\n        /* \"contracts/OrderManager.sol\":8592:8664  if (orderToComplete.id == 0) revert OrderManager__OrderNotFound(orderId) */\n    tag_347:\n        /* \"contracts/OrderManager.sol\":8679:8707  orderToComplete.restaurantId */\n      0x02\n      dup2\n      add\n      sload\n      sub(shl(0x80, 0x01), 0x01)\n        /* \"contracts/OrderManager.sol\":8679:8728  orderToComplete.restaurantId != staffRestaurantId */\n      dup4\n      dup2\n      and\n        /* \"contracts/OrderManager.sol\":8679:8707  orderToComplete.restaurantId */\n      swap2\n      and\n        /* \"contracts/OrderManager.sol\":8679:8728  orderToComplete.restaurantId != staffRestaurantId */\n      eq\n        /* \"contracts/OrderManager.sol\":8675:8861  if (orderToComplete.restaurantId != staffRestaurantId) {... */\n      tag_349\n      jumpi\n        /* \"contracts/OrderManager.sol\":8801:8829  orderToComplete.restaurantId */\n      0x02\n      dup2\n      add\n      sload\n        /* \"contracts/OrderManager.sol\":8752:8849  OrderManager__CallerNotRestaurantStaff(staffEoa, orderToComplete.restaurantId, staffRestaurantId) */\n      mload(0x40)\n      shl(0xe0, 0xd52781e9)\n      dup2\n      mstore\n      sub(shl(0xa0, 0x01), 0x01)\n        /* \"#utility.yul\":13130:13162   */\n      dup7\n      and\n        /* \"contracts/OrderManager.sol\":8752:8849  OrderManager__CallerNotRestaurantStaff(staffEoa, orderToComplete.restaurantId, staffRestaurantId) */\n      0x04\n      dup3\n      add\n        /* \"#utility.yul\":13112:13163   */\n      mstore\n      sub(shl(0x80, 0x01), 0x01)\n        /* \"contracts/OrderManager.sol\":8801:8829  orderToComplete.restaurantId */\n      swap2\n      dup3\n      and\n        /* \"#utility.yul\":13179:13197   */\n      0x24\n      dup3\n      add\n        /* \"#utility.yul\":13172:13247   */\n      mstore\n        /* \"#utility.yul\":13283:13330   */\n      swap1\n      dup4\n      and\n        /* \"#utility.yul\":13263:13281   */\n      0x44\n      dup3\n      add\n        /* \"#utility.yul\":13256:13331   */\n      mstore\n        /* \"#utility.yul\":13085:13103   */\n      0x64\n      add\n        /* \"contracts/OrderManager.sol\":8752:8849  OrderManager__CallerNotRestaurantStaff(staffEoa, orderToComplete.restaurantId, staffRestaurantId) */\n      tag_132\n        /* \"#utility.yul\":12910:13337   */\n      jump\n        /* \"contracts/OrderManager.sol\":8675:8861  if (orderToComplete.restaurantId != staffRestaurantId) {... */\n    tag_349:\n        /* \"contracts/OrderManager.sol\":8903:8920  OrderStatus.Ready */\n      0x03\n        /* \"contracts/OrderManager.sol\":8877:8899  orderToComplete.status */\n      0x05\n      dup3\n      add\n      sload\n      0xff\n      and\n        /* \"contracts/OrderManager.sol\":8877:8920  orderToComplete.status != OrderStatus.Ready */\n      0x06\n      dup2\n      gt\n      iszero\n      tag_354\n      jumpi\n      tag_354\n      tag_128\n      jump\t// in\n    tag_354:\n      eq\n      iszero\n        /* \"contracts/OrderManager.sol\":8877:8971  orderToComplete.status != OrderStatus.Ready && orderToComplete.status != OrderStatus.Delivered */\n      dup1\n      iszero\n      tag_355\n      jumpi\n      pop\n        /* \"contracts/OrderManager.sol\":8950:8971  OrderStatus.Delivered */\n      0x04\n        /* \"contracts/OrderManager.sol\":8924:8946  orderToComplete.status */\n      0x05\n      dup3\n      add\n      sload\n      0xff\n      and\n        /* \"contracts/OrderManager.sol\":8924:8971  orderToComplete.status != OrderStatus.Delivered */\n      0x06\n      dup2\n      gt\n      iszero\n      tag_359\n      jumpi\n      tag_359\n      tag_128\n      jump\t// in\n    tag_359:\n      eq\n      iszero\n        /* \"contracts/OrderManager.sol\":8877:8971  orderToComplete.status != OrderStatus.Ready && orderToComplete.status != OrderStatus.Delivered */\n    tag_355:\n        /* \"contracts/OrderManager.sol\":8873:9084  if (orderToComplete.status != OrderStatus.Ready && orderToComplete.status != OrderStatus.Delivered) {... */\n      iszero\n      tag_360\n      jumpi\n        /* \"contracts/OrderManager.sol\":9037:9059  orderToComplete.status */\n      0x05\n      dup2\n      add\n      sload\n        /* \"contracts/OrderManager.sol\":8995:9072  OrderManager__InvalidOrderStatusForAction(orderToComplete.status, \"complete\") */\n      mload(0x40)\n      shl(0xe0, 0x388a923d)\n      dup2\n      mstore\n      tag_132\n      swap2\n        /* \"contracts/OrderManager.sol\":9037:9059  orderToComplete.status */\n      0xff\n      and\n      swap1\n        /* \"contracts/OrderManager.sol\":8995:9072  OrderManager__InvalidOrderStatusForAction(orderToComplete.status, \"complete\") */\n      0x04\n      add\n      tag_362\n      jump\t// in\n        /* \"contracts/OrderManager.sol\":8873:9084  if (orderToComplete.status != OrderStatus.Ready && orderToComplete.status != OrderStatus.Delivered) {... */\n    tag_360:\n        /* \"contracts/OrderManager.sol\":9120:9142  orderToComplete.status */\n      0x05\n      dup2\n      dup2\n      add\n      dup1\n      sload\n      not(0xff)\n        /* \"contracts/OrderManager.sol\":9153:9199  orderToComplete.status = OrderStatus.Completed */\n      dup2\n      and\n      dup4\n      or\n      swap1\n      swap2\n      sstore\n        /* \"contracts/OrderManager.sol\":9241:9258  restaurantManager */\n      swap1\n      sload\n        /* \"contracts/OrderManager.sol\":9278:9306  orderToComplete.restaurantId */\n      0x02\n      dup4\n      add\n      sload\n        /* \"contracts/OrderManager.sol\":9241:9307  restaurantManager.getRestaurantOwner(orderToComplete.restaurantId) */\n      mload(0x40)\n      shl(0xe0, 0xb9588327)\n      dup2\n      mstore\n      sub(shl(0x80, 0x01), 0x01)\n        /* \"contracts/OrderManager.sol\":9278:9306  orderToComplete.restaurantId */\n      swap1\n      swap2\n      and\n        /* \"contracts/OrderManager.sol\":9241:9307  restaurantManager.getRestaurantOwner(orderToComplete.restaurantId) */\n      0x04\n      dup3\n      add\n        /* \"#utility.yul\":5429:5495   */\n      mstore\n        /* \"contracts/OrderManager.sol\":9120:9142  orderToComplete.status */\n      0xff\n      swap1\n      swap3\n      and\n      swap2\n      0x00\n      swap2\n      sub(shl(0xa0, 0x01), 0x01)\n        /* \"contracts/OrderManager.sol\":9241:9258  restaurantManager */\n      and\n      swap1\n        /* \"contracts/OrderManager.sol\":9241:9277  restaurantManager.getRestaurantOwner */\n      0xb9588327\n      swap1\n        /* \"#utility.yul\":5402:5420   */\n      0x24\n      add\n        /* \"contracts/OrderManager.sol\":9241:9307  restaurantManager.getRestaurantOwner(orderToComplete.restaurantId) */\n      0x20\n      mload(0x40)\n      dup1\n      dup4\n      sub\n      dup2\n      dup7\n      gas\n      staticcall\n      iszero\n      dup1\n      iszero\n      tag_367\n      jumpi\n      returndatacopy(0x00, 0x00, returndatasize)\n      revert(0x00, returndatasize)\n    tag_367:\n      pop\n      pop\n      pop\n      pop\n      mload(0x40)\n      returndatasize\n      not(0x1f)\n      0x1f\n      dup3\n      add\n      and\n      dup3\n      add\n      dup1\n      0x40\n      mstore\n      pop\n      dup2\n      add\n      swap1\n      tag_368\n      swap2\n      swap1\n      tag_369\n      jump\t// in\n    tag_368:\n        /* \"contracts/OrderManager.sol\":9212:9307  address restaurantOwnerEoa = restaurantManager.getRestaurantOwner(orderToComplete.restaurantId) */\n      swap1\n      pop\n      sub(shl(0xa0, 0x01), 0x01)\n        /* \"contracts/OrderManager.sol\":9322:9354  restaurantOwnerEoa == address(0) */\n      dup2\n      and\n        /* \"contracts/OrderManager.sol\":9318:9430  if (restaurantOwnerEoa == address(0)) revert OrderManager__RestaurantOwnerNotFound(orderToComplete.restaurantId) */\n      tag_370\n      jumpi\n        /* \"contracts/OrderManager.sol\":9401:9429  orderToComplete.restaurantId */\n      0x02\n      dup4\n      add\n      sload\n        /* \"contracts/OrderManager.sol\":9363:9430  OrderManager__RestaurantOwnerNotFound(orderToComplete.restaurantId) */\n      mload(0x40)\n      shl(0xe3, 0x10de8dc5)\n      dup2\n      mstore\n      sub(shl(0x80, 0x01), 0x01)\n        /* \"contracts/OrderManager.sol\":9401:9429  orderToComplete.restaurantId */\n      swap1\n      swap2\n      and\n        /* \"contracts/OrderManager.sol\":9363:9430  OrderManager__RestaurantOwnerNotFound(orderToComplete.restaurantId) */\n      0x04\n      dup3\n      add\n        /* \"#utility.yul\":5429:5495   */\n      mstore\n        /* \"#utility.yul\":5402:5420   */\n      0x24\n      add\n        /* \"contracts/OrderManager.sol\":9363:9430  OrderManager__RestaurantOwnerNotFound(orderToComplete.restaurantId) */\n      tag_132\n        /* \"#utility.yul\":5283:5501   */\n      jump\n        /* \"contracts/OrderManager.sol\":9318:9430  if (restaurantOwnerEoa == address(0)) revert OrderManager__RestaurantOwnerNotFound(orderToComplete.restaurantId) */\n    tag_370:\n        /* \"contracts/OrderManager.sol\":9472:9498  orderToComplete.totalPrice */\n      0x04\n      dup4\n      add\n      sload\n        /* \"contracts/OrderManager.sol\":9545:9563  platformFeePercent */\n      sload(0x07)\n        /* \"contracts/OrderManager.sol\":9443:9469  uint256 amountToRestaurant */\n      0x00\n      swap1\n        /* \"contracts/OrderManager.sol\":9545:9567  platformFeePercent > 0 */\n      iszero\n      dup1\n      iszero\n      swap1\n        /* \"contracts/OrderManager.sol\":9545:9596  platformFeePercent > 0 && platformFeePercent <= 100 */\n      tag_372\n      jumpi\n      pop\n        /* \"contracts/OrderManager.sol\":9593:9596  100 */\n      0x64\n        /* \"contracts/OrderManager.sol\":9571:9589  platformFeePercent */\n      sload(0x07)\n        /* \"contracts/OrderManager.sol\":9571:9596  platformFeePercent <= 100 */\n      gt\n      iszero\n        /* \"contracts/OrderManager.sol\":9545:9596  platformFeePercent > 0 && platformFeePercent <= 100 */\n    tag_372:\n        /* \"contracts/OrderManager.sol\":9541:9768  if (platformFeePercent > 0 && platformFeePercent <= 100) {... */\n      iszero\n      tag_373\n      jumpi\n        /* \"contracts/OrderManager.sol\":9678:9681  100 */\n      0x64\n        /* \"contracts/OrderManager.sol\":9656:9674  platformFeePercent */\n      sload(0x07)\n        /* \"contracts/OrderManager.sol\":9627:9642  orderToComplete */\n      dup7\n        /* \"contracts/OrderManager.sol\":9627:9653  orderToComplete.totalPrice */\n      0x04\n      add\n      sload\n        /* \"contracts/OrderManager.sol\":9627:9674  orderToComplete.totalPrice * platformFeePercent */\n      tag_374\n      swap2\n      swap1\n      tag_306\n      jump\t// in\n    tag_374:\n        /* \"contracts/OrderManager.sol\":9626:9681  (orderToComplete.totalPrice * platformFeePercent) / 100 */\n      tag_375\n      swap2\n      swap1\n      tag_376\n      jump\t// in\n    tag_375:\n        /* \"contracts/OrderManager.sol\":9614:9681  feeAmount = (orderToComplete.totalPrice * platformFeePercent) / 100 */\n      swap1\n      pop\n        /* \"contracts/OrderManager.sol\":9747:9756  feeAmount */\n      dup1\n        /* \"contracts/OrderManager.sol\":9718:9733  orderToComplete */\n      dup6\n        /* \"contracts/OrderManager.sol\":9718:9744  orderToComplete.totalPrice */\n      0x04\n      add\n      sload\n        /* \"contracts/OrderManager.sol\":9718:9756  orderToComplete.totalPrice - feeAmount */\n      tag_377\n      swap2\n      swap1\n      tag_221\n      jump\t// in\n    tag_377:\n        /* \"contracts/OrderManager.sol\":9697:9756  amountToRestaurant = orderToComplete.totalPrice - feeAmount */\n      swap2\n      pop\n        /* \"contracts/OrderManager.sol\":9541:9768  if (platformFeePercent > 0 && platformFeePercent <= 100) {... */\n    tag_373:\n        /* \"contracts/OrderManager.sol\":9784:9806  amountToRestaurant > 0 */\n      dup2\n      iszero\n        /* \"contracts/OrderManager.sol\":9780:9982  if (amountToRestaurant > 0) {... */\n      tag_378\n      jumpi\n        /* \"contracts/OrderManager.sol\":9824:9836  bool success */\n      0x00\n        /* \"contracts/OrderManager.sol\":9849:9867  restaurantOwnerEoa */\n      dup4\n      sub(shl(0xa0, 0x01), 0x01)\n        /* \"contracts/OrderManager.sol\":9841:9873  payable(restaurantOwnerEoa).call */\n      and\n        /* \"contracts/OrderManager.sol\":9881:9899  amountToRestaurant */\n      dup4\n        /* \"contracts/OrderManager.sol\":9841:9904  payable(restaurantOwnerEoa).call{value: amountToRestaurant}(\"\") */\n      mload(0x40)\n      0x00\n      mload(0x40)\n      dup1\n      dup4\n      sub\n      dup2\n      dup6\n      dup8\n      gas\n      call\n      swap3\n      pop\n      pop\n      pop\n      returndatasize\n      dup1\n      0x00\n      dup2\n      eq\n      tag_382\n      jumpi\n      mload(0x40)\n      swap2\n      pop\n      and(add(returndatasize, 0x3f), not(0x1f))\n      dup3\n      add\n      0x40\n      mstore\n      returndatasize\n      dup3\n      mstore\n      returndatasize\n      0x00\n      0x20\n      dup5\n      add\n      returndatacopy\n      jump(tag_381)\n    tag_382:\n      0x60\n      swap2\n      pop\n    tag_381:\n      pop\n        /* \"contracts/OrderManager.sol\":9823:9904  (bool success,) = payable(restaurantOwnerEoa).call{value: amountToRestaurant}(\"\") */\n      pop\n      swap1\n      pop\n        /* \"contracts/OrderManager.sol\":9924:9931  success */\n      dup1\n        /* \"contracts/OrderManager.sol\":9919:9970  if (!success) revert OrderManager__TransferFailed() */\n      tag_383\n      jumpi\n        /* \"contracts/OrderManager.sol\":9940:9970  OrderManager__TransferFailed() */\n      mload(0x40)\n      shl(0xe1, 0x4239e21d)\n      dup2\n      mstore\n      0x04\n      add\n      mload(0x40)\n      dup1\n      swap2\n      sub\n      swap1\n      revert\n        /* \"contracts/OrderManager.sol\":9919:9970  if (!success) revert OrderManager__TransferFailed() */\n    tag_383:\n        /* \"contracts/OrderManager.sol\":9808:9982  {... */\n      pop\n        /* \"contracts/OrderManager.sol\":9780:9982  if (amountToRestaurant > 0) {... */\n    tag_378:\n        /* \"contracts/OrderManager.sol\":9996:10009  feeAmount > 0 */\n      dup1\n      iszero\n        /* \"contracts/OrderManager.sol\":9992:10172  if (feeAmount > 0) {... */\n      tag_384\n      jumpi\n        /* \"contracts/OrderManager.sol\":10027:10042  bool feeSuccess */\n      0x00\n        /* \"contracts/OrderManager.sol\":10056:10063  owner() */\n      tag_385\n        /* \"contracts/OrderManager.sol\":10056:10061  owner */\n      tag_88\n        /* \"contracts/OrderManager.sol\":10056:10063  owner() */\n      jump\t// in\n    tag_385:\n      sub(shl(0xa0, 0x01), 0x01)\n        /* \"contracts/OrderManager.sol\":10048:10069  payable(owner()).call */\n      and\n        /* \"contracts/OrderManager.sol\":10077:10086  feeAmount */\n      dup3\n        /* \"contracts/OrderManager.sol\":10048:10091  payable(owner()).call{value: feeAmount}(\"\") */\n      mload(0x40)\n      0x00\n      mload(0x40)\n      dup1\n      dup4\n      sub\n      dup2\n      dup6\n      dup8\n      gas\n      call\n      swap3\n      pop\n      pop\n      pop\n      returndatasize\n      dup1\n      0x00\n      dup2\n      eq\n      tag_389\n      jumpi\n      mload(0x40)\n      swap2\n      pop\n      and(add(returndatasize, 0x3f), not(0x1f))\n      dup3\n      add\n      0x40\n      mstore\n      returndatasize\n      dup3\n      mstore\n      returndatasize\n      0x00\n      0x20\n      dup5\n      add\n      returndatacopy\n      jump(tag_388)\n    tag_389:\n      0x60\n      swap2\n      pop\n    tag_388:\n      pop\n        /* \"contracts/OrderManager.sol\":10026:10091  (bool feeSuccess, ) = payable(owner()).call{value: feeAmount}(\"\") */\n      pop\n      swap1\n      pop\n        /* \"contracts/OrderManager.sol\":10110:10120  feeSuccess */\n      dup1\n        /* \"contracts/OrderManager.sol\":10106:10159  if(!feeSuccess) revert OrderManager__TransferFailed() */\n      tag_390\n      jumpi\n        /* \"contracts/OrderManager.sol\":10129:10159  OrderManager__TransferFailed() */\n      mload(0x40)\n      shl(0xe1, 0x4239e21d)\n      dup2\n      mstore\n      0x04\n      add\n      mload(0x40)\n      dup1\n      swap2\n      sub\n      swap1\n      revert\n        /* \"contracts/OrderManager.sol\":10106:10159  if(!feeSuccess) revert OrderManager__TransferFailed() */\n    tag_390:\n        /* \"contracts/OrderManager.sol\":10011:10172  {... */\n      pop\n        /* \"contracts/OrderManager.sol\":9992:10172  if (feeAmount > 0) {... */\n    tag_384:\n        /* \"contracts/OrderManager.sol\":10189:10263  OrderCompleted(orderId, restaurantOwnerEoa, amountToRestaurant, feeAmount) */\n      0x40\n      dup1\n      mload\n        /* \"#utility.yul\":12831:12856   */\n      dup4\n      dup2\n      mstore\n        /* \"#utility.yul\":12887:12889   */\n      0x20\n        /* \"#utility.yul\":12872:12890   */\n      dup2\n      add\n        /* \"#utility.yul\":12865:12899   */\n      dup4\n      swap1\n      mstore\n      sub(shl(0xa0, 0x01), 0x01)\n        /* \"contracts/OrderManager.sol\":10189:10263  OrderCompleted(orderId, restaurantOwnerEoa, amountToRestaurant, feeAmount) */\n      dup6\n      and\n      swap2\n      sub(shl(0x80, 0x01), 0x01)\n      dup11\n      and\n      swap2\n      0xd2a6aee9265d7e28b871c25501abe610595eecb7dd2f5dde2d7c55a5ce7f644f\n      swap2\n        /* \"#utility.yul\":12804:12822   */\n      add\n        /* \"contracts/OrderManager.sol\":10189:10263  OrderCompleted(orderId, restaurantOwnerEoa, amountToRestaurant, feeAmount) */\n      mload(0x40)\n      dup1\n      swap2\n      sub\n      swap1\n      log3\n        /* \"contracts/OrderManager.sol\":10298:10305  orderId */\n      dup7\n      sub(shl(0x80, 0x01), 0x01)\n        /* \"contracts/OrderManager.sol\":10279:10340  OrderStatusUpdated(orderId, oldStatus, OrderStatus.Completed) */\n      and\n      0x8c649b2ad43b6449bbeee9487a5efe9f7fcded9570a17906d76f159a34713011\n        /* \"contracts/OrderManager.sol\":10307:10316  oldStatus */\n      dup6\n        /* \"contracts/OrderManager.sol\":10318:10339  OrderStatus.Completed */\n      0x05\n        /* \"contracts/OrderManager.sol\":10279:10340  OrderStatusUpdated(orderId, oldStatus, OrderStatus.Completed) */\n      mload(0x40)\n      tag_392\n      swap3\n      swap2\n      swap1\n      tag_167\n      jump\t// in\n    tag_392:\n      mload(0x40)\n      dup1\n      swap2\n      sub\n      swap1\n      log2\n        /* \"contracts/OrderManager.sol\":8523:10348  {... */\n      pop\n      pop\n      pop\n      pop\n      pop\n        /* \"@openzeppelin/contracts/utils/ReentrancyGuard.sol\":2542:2562  _nonReentrantAfter() */\n      tag_393\n        /* \"@openzeppelin/contracts/utils/ReentrancyGuard.sol\":1857:1858  1 */\n      0x01\n        /* \"@openzeppelin/contracts/utils/ReentrancyGuard.sol\":3068:3075  _status */\n      0x00\n        /* \"@openzeppelin/contracts/utils/ReentrancyGuard.sol\":3068:3089  _status = NOT_ENTERED */\n      sstore\n        /* \"@openzeppelin/contracts/utils/ReentrancyGuard.sol\":2888:3096  function _nonReentrantAfter() private {... */\n      jump\n        /* \"@openzeppelin/contracts/utils/ReentrancyGuard.sol\":2542:2562  _nonReentrantAfter() */\n    tag_393:\n        /* \"contracts/OrderManager.sol\":8387:10348  function completeOrder(address staffEoa, uint128 orderId, uint128 staffRestaurantId) external override onlyFoodAppContract nonReentrant {... */\n      pop\n      pop\n      pop\n      jump\t// out\n        /* \"@openzeppelin/contracts-upgradeable/access/OwnableUpgradeable.sol\":3405:3620  function transferOwnership(address newOwner) public virtual onlyOwner {... */\n    tag_102:\n        /* \"@openzeppelin/contracts-upgradeable/access/OwnableUpgradeable.sol\":2334:2347  _checkOwner() */\n      tag_395\n        /* \"@openzeppelin/contracts-upgradeable/access/OwnableUpgradeable.sol\":2334:2345  _checkOwner */\n      tag_135\n        /* \"@openzeppelin/contracts-upgradeable/access/OwnableUpgradeable.sol\":2334:2347  _checkOwner() */\n      jump\t// in\n    tag_395:\n      sub(shl(0xa0, 0x01), 0x01)\n        /* \"@openzeppelin/contracts-upgradeable/access/OwnableUpgradeable.sol\":3489:3511  newOwner == address(0) */\n      dup2\n      and\n        /* \"@openzeppelin/contracts-upgradeable/access/OwnableUpgradeable.sol\":3485:3576  if (newOwner == address(0)) {... */\n      tag_397\n      jumpi\n        /* \"@openzeppelin/contracts-upgradeable/access/OwnableUpgradeable.sol\":3534:3565  OwnableInvalidOwner(address(0)) */\n      mload(0x40)\n      shl(0xe0, 0x1e4fbdf7)\n      dup2\n      mstore\n        /* \"@openzeppelin/contracts-upgradeable/access/OwnableUpgradeable.sol\":3562:3563  0 */\n      0x00\n        /* \"@openzeppelin/contracts-upgradeable/access/OwnableUpgradeable.sol\":3534:3565  OwnableInvalidOwner(address(0)) */\n      0x04\n      dup3\n      add\n        /* \"#utility.yul\":5221:5272   */\n      mstore\n        /* \"#utility.yul\":5194:5212   */\n      0x24\n      add\n        /* \"@openzeppelin/contracts-upgradeable/access/OwnableUpgradeable.sol\":3534:3565  OwnableInvalidOwner(address(0)) */\n      tag_132\n        /* \"#utility.yul\":5048:5278   */\n      jump\n        /* \"@openzeppelin/contracts-upgradeable/access/OwnableUpgradeable.sol\":3485:3576  if (newOwner == address(0)) {... */\n    tag_397:\n        /* \"@openzeppelin/contracts-upgradeable/access/OwnableUpgradeable.sol\":3585:3613  _transferOwnership(newOwner) */\n      tag_399\n        /* \"@openzeppelin/contracts-upgradeable/access/OwnableUpgradeable.sol\":3604:3612  newOwner */\n      dup2\n        /* \"@openzeppelin/contracts-upgradeable/access/OwnableUpgradeable.sol\":3585:3603  _transferOwnership */\n      tag_255\n        /* \"@openzeppelin/contracts-upgradeable/access/OwnableUpgradeable.sol\":3585:3613  _transferOwnership(newOwner) */\n      jump\t// in\n    tag_399:\n        /* \"@openzeppelin/contracts-upgradeable/access/OwnableUpgradeable.sol\":3405:3620  function transferOwnership(address newOwner) public virtual onlyOwner {... */\n      pop\n      jump\t// out\n        /* \"contracts/OrderManager.sol\":2663:3467  function initialize(... */\n    tag_107:\n        /* \"@openzeppelin/contracts-upgradeable/proxy/utils/Initializable.sol\":4158:4188  InitializableStorage storage $ */\n      0x00\n        /* \"@openzeppelin/contracts-upgradeable/proxy/utils/Initializable.sol\":4191:4217  _getInitializableStorage() */\n      tag_401\n        /* \"@openzeppelin/contracts-upgradeable/proxy/utils/Initializable.sol\":4191:4215  _getInitializableStorage */\n      tag_402\n        /* \"@openzeppelin/contracts-upgradeable/proxy/utils/Initializable.sol\":4191:4217  _getInitializableStorage() */\n      jump\t// in\n    tag_401:\n        /* \"@openzeppelin/contracts-upgradeable/proxy/utils/Initializable.sol\":4302:4317  $._initializing */\n      dup1\n      sload\n        /* \"@openzeppelin/contracts-upgradeable/proxy/utils/Initializable.sol\":4158:4217  InitializableStorage storage $ = _getInitializableStorage() */\n      swap1\n      swap2\n      pop\n        /* \"@openzeppelin/contracts-upgradeable/proxy/utils/Initializable.sol\":4302:4317  $._initializing */\n      0xff\n      shl(0x40, 0x01)\n      dup3\n      div\n      and\n        /* \"@openzeppelin/contracts-upgradeable/proxy/utils/Initializable.sol\":4301:4317  !$._initializing */\n      iszero\n      swap1\n      sub(shl(0x40, 0x01), 0x01)\n        /* \"@openzeppelin/contracts-upgradeable/proxy/utils/Initializable.sol\":4348:4362  $._initialized */\n      and\n        /* \"@openzeppelin/contracts-upgradeable/proxy/utils/Initializable.sol\":4279:4298  bool isTopLevelCall */\n      0x00\n        /* \"@openzeppelin/contracts-upgradeable/proxy/utils/Initializable.sol\":4724:4740  initialized == 0 */\n      dup2\n      iszero\n        /* \"@openzeppelin/contracts-upgradeable/proxy/utils/Initializable.sol\":4724:4758  initialized == 0 && isTopLevelCall */\n      dup1\n      iszero\n      tag_403\n      jumpi\n      pop\n        /* \"@openzeppelin/contracts-upgradeable/proxy/utils/Initializable.sol\":4744:4758  isTopLevelCall */\n      dup3\n        /* \"@openzeppelin/contracts-upgradeable/proxy/utils/Initializable.sol\":4724:4758  initialized == 0 && isTopLevelCall */\n    tag_403:\n        /* \"@openzeppelin/contracts-upgradeable/proxy/utils/Initializable.sol\":4704:4758  bool initialSetup = initialized == 0 && isTopLevelCall */\n      swap1\n      pop\n        /* \"@openzeppelin/contracts-upgradeable/proxy/utils/Initializable.sol\":4768:4785  bool construction */\n      0x00\n        /* \"@openzeppelin/contracts-upgradeable/proxy/utils/Initializable.sol\":4788:4799  initialized */\n      dup3\n      sub(shl(0x40, 0x01), 0x01)\n        /* \"@openzeppelin/contracts-upgradeable/proxy/utils/Initializable.sol\":4788:4804  initialized == 1 */\n      and\n        /* \"@openzeppelin/contracts-upgradeable/proxy/utils/Initializable.sol\":4803:4804  1 */\n      0x01\n        /* \"@openzeppelin/contracts-upgradeable/proxy/utils/Initializable.sol\":4788:4804  initialized == 1 */\n      eq\n        /* \"@openzeppelin/contracts-upgradeable/proxy/utils/Initializable.sol\":4788:4838  initialized == 1 && address(this).code.length == 0 */\n      dup1\n      iszero\n      tag_404\n      jumpi\n      pop\n        /* \"@openzeppelin/contracts-upgradeable/proxy/utils/Initializable.sol\":4816:4820  this */\n      address\n        /* \"@openzeppelin/contracts-upgradeable/proxy/utils/Initializable.sol\":4808:4833  address(this).code.length */\n      extcodesize\n        /* \"@openzeppelin/contracts-upgradeable/proxy/utils/Initializable.sol\":4808:4838  address(this).code.length == 0 */\n      iszero\n        /* \"@openzeppelin/contracts-upgradeable/proxy/utils/Initializable.sol\":4788:4838  initialized == 1 && address(this).code.length == 0 */\n    tag_404:\n        /* \"@openzeppelin/contracts-upgradeable/proxy/utils/Initializable.sol\":4768:4838  bool construction = initialized == 1 && address(this).code.length == 0 */\n      swap1\n      pop\n        /* \"@openzeppelin/contracts-upgradeable/proxy/utils/Initializable.sol\":4854:4866  initialSetup */\n      dup2\n        /* \"@openzeppelin/contracts-upgradeable/proxy/utils/Initializable.sol\":4853:4866  !initialSetup */\n      iszero\n        /* \"@openzeppelin/contracts-upgradeable/proxy/utils/Initializable.sol\":4853:4883  !initialSetup && !construction */\n      dup1\n      iszero\n      tag_405\n      jumpi\n      pop\n        /* \"@openzeppelin/contracts-upgradeable/proxy/utils/Initializable.sol\":4871:4883  construction */\n      dup1\n        /* \"@openzeppelin/contracts-upgradeable/proxy/utils/Initializable.sol\":4870:4883  !construction */\n      iszero\n        /* \"@openzeppelin/contracts-upgradeable/proxy/utils/Initializable.sol\":4853:4883  !initialSetup && !construction */\n    tag_405:\n        /* \"@openzeppelin/contracts-upgradeable/proxy/utils/Initializable.sol\":4849:4940  if (!initialSetup && !construction) {... */\n      iszero\n      tag_406\n      jumpi\n        /* \"@openzeppelin/contracts-upgradeable/proxy/utils/Initializable.sol\":4906:4929  InvalidInitialization() */\n      mload(0x40)\n      shl(0xe0, 0xf92ee8a9)\n      dup2\n      mstore\n      0x04\n      add\n      mload(0x40)\n      dup1\n      swap2\n      sub\n      swap1\n      revert\n        /* \"@openzeppelin/contracts-upgradeable/proxy/utils/Initializable.sol\":4849:4940  if (!initialSetup && !construction) {... */\n    tag_406:\n        /* \"@openzeppelin/contracts-upgradeable/proxy/utils/Initializable.sol\":4949:4967  $._initialized = 1 */\n      dup5\n      sload\n      not(0xffffffffffffffff)\n      and\n        /* \"@openzeppelin/contracts-upgradeable/proxy/utils/Initializable.sol\":4966:4967  1 */\n      0x01\n        /* \"@openzeppelin/contracts-upgradeable/proxy/utils/Initializable.sol\":4949:4967  $._initialized = 1 */\n      or\n      dup6\n      sstore\n        /* \"@openzeppelin/contracts-upgradeable/proxy/utils/Initializable.sol\":4977:5044  if (isTopLevelCall) {... */\n      dup4\n      iszero\n      tag_407\n      jumpi\n        /* \"@openzeppelin/contracts-upgradeable/proxy/utils/Initializable.sol\":5011:5033  $._initializing = true */\n      dup5\n      sload\n      not(shl(0x40, 0xff))\n      and\n      shl(0x40, 0x01)\n      or\n      dup6\n      sstore\n        /* \"@openzeppelin/contracts-upgradeable/proxy/utils/Initializable.sol\":4977:5044  if (isTopLevelCall) {... */\n    tag_407:\n      sub(shl(0xa0, 0x01), 0x01)\n        /* \"contracts/OrderManager.sol\":2873:2903  _foodAppContract == address(0) */\n      dup10\n      and\n        /* \"contracts/OrderManager.sol\":2869:2942  if (_foodAppContract == address(0)) revert OrderManager__InvalidAddress() */\n      tag_409\n      jumpi\n        /* \"contracts/OrderManager.sol\":2912:2942  OrderManager__InvalidAddress() */\n      mload(0x40)\n      shl(0xe1, 0x2b840735)\n      dup2\n      mstore\n      0x04\n      add\n      mload(0x40)\n      dup1\n      swap2\n      sub\n      swap1\n      revert\n        /* \"contracts/OrderManager.sol\":2869:2942  if (_foodAppContract == address(0)) revert OrderManager__InvalidAddress() */\n    tag_409:\n      sub(shl(0xa0, 0x01), 0x01)\n        /* \"contracts/OrderManager.sol\":2957:2990  _menuManagerAddress == address(0) */\n      dup9\n      and\n        /* \"contracts/OrderManager.sol\":2953:3052  if (_menuManagerAddress == address(0)) revert OrderManager__InvalidDependencyAddress(\"MenuManager\") */\n      tag_410\n      jumpi\n        /* \"contracts/OrderManager.sol\":2999:3052  OrderManager__InvalidDependencyAddress(\"MenuManager\") */\n      mload(0x40)\n      shl(0xe3, 0x1f7ecdff)\n      dup2\n      mstore\n        /* \"#utility.yul\":22678:22680   */\n      0x20\n        /* \"contracts/OrderManager.sol\":2999:3052  OrderManager__InvalidDependencyAddress(\"MenuManager\") */\n      0x04\n      dup3\n      add\n        /* \"#utility.yul\":22660:22681   */\n      mstore\n        /* \"#utility.yul\":22717:22719   */\n      0x0b\n        /* \"#utility.yul\":22697:22715   */\n      0x24\n      dup3\n      add\n        /* \"#utility.yul\":22690:22720   */\n      mstore\n      shl(0xa9, 0x26b2b73aa6b0b730b3b2b9)\n        /* \"#utility.yul\":22736:22754   */\n      0x44\n      dup3\n      add\n        /* \"#utility.yul\":22729:22770   */\n      mstore\n        /* \"#utility.yul\":22787:22805   */\n      0x64\n      add\n        /* \"contracts/OrderManager.sol\":2999:3052  OrderManager__InvalidDependencyAddress(\"MenuManager\") */\n      tag_132\n        /* \"#utility.yul\":22476:22811   */\n      jump\n        /* \"contracts/OrderManager.sol\":2953:3052  if (_menuManagerAddress == address(0)) revert OrderManager__InvalidDependencyAddress(\"MenuManager\") */\n    tag_410:\n      sub(shl(0xa0, 0x01), 0x01)\n        /* \"contracts/OrderManager.sol\":3067:3106  _restaurantManagerAddress == address(0) */\n      dup8\n      and\n        /* \"contracts/OrderManager.sol\":3063:3174  if (_restaurantManagerAddress == address(0)) revert OrderManager__InvalidDependencyAddress(\"RestaurantManager\") */\n      tag_413\n      jumpi\n        /* \"contracts/OrderManager.sol\":3115:3174  OrderManager__InvalidDependencyAddress(\"RestaurantManager\") */\n      mload(0x40)\n      shl(0xe3, 0x1f7ecdff)\n      dup2\n      mstore\n        /* \"#utility.yul\":23018:23020   */\n      0x20\n        /* \"contracts/OrderManager.sol\":3115:3174  OrderManager__InvalidDependencyAddress(\"RestaurantManager\") */\n      0x04\n      dup3\n      add\n        /* \"#utility.yul\":23000:23021   */\n      mstore\n        /* \"#utility.yul\":23057:23059   */\n      0x11\n        /* \"#utility.yul\":23037:23055   */\n      0x24\n      dup3\n      add\n        /* \"#utility.yul\":23030:23060   */\n      mstore\n      shl(0x79, 0x2932b9ba30bab930b73a26b0b730b3b2b9)\n        /* \"#utility.yul\":23076:23094   */\n      0x44\n      dup3\n      add\n        /* \"#utility.yul\":23069:23116   */\n      mstore\n        /* \"#utility.yul\":23133:23151   */\n      0x64\n      add\n        /* \"contracts/OrderManager.sol\":3115:3174  OrderManager__InvalidDependencyAddress(\"RestaurantManager\") */\n      tag_132\n        /* \"#utility.yul\":22816:23157   */\n      jump\n        /* \"contracts/OrderManager.sol\":3063:3174  if (_restaurantManagerAddress == address(0)) revert OrderManager__InvalidDependencyAddress(\"RestaurantManager\") */\n    tag_413:\n        /* \"contracts/OrderManager.sol\":3185:3214  __Ownable_init(_factoryOwner) */\n      tag_416\n        /* \"contracts/OrderManager.sol\":3200:3213  _factoryOwner */\n      dup7\n        /* \"contracts/OrderManager.sol\":3185:3199  __Ownable_init */\n      tag_417\n        /* \"contracts/OrderManager.sol\":3185:3214  __Ownable_init(_factoryOwner) */\n      jump\t// in\n    tag_416:\n        /* \"contracts/OrderManager.sol\":3225:3247  foodAppContractAddress */\n      0x06\n        /* \"contracts/OrderManager.sol\":3225:3266  foodAppContractAddress = _foodAppContract */\n      dup1\n      sload\n      sub(shl(0xa0, 0x01), 0x01)\n      dup1\n      dup13\n      and\n      not(sub(shl(0xa0, 0x01), 0x01))\n      swap3\n      dup4\n      and\n      or\n      swap1\n      swap3\n      sstore\n        /* \"contracts/OrderManager.sol\":3277:3288  menuManager */\n      0x04\n        /* \"contracts/OrderManager.sol\":3277:3324  menuManager = IMenuManager(_menuManagerAddress) */\n      dup1\n      sload\n      dup12\n      dup5\n      and\n      swap1\n      dup4\n      and\n      or\n      swap1\n      sstore\n        /* \"contracts/OrderManager.sol\":3335:3352  restaurantManager */\n      0x05\n        /* \"contracts/OrderManager.sol\":3335:3400  restaurantManager = IRestaurantManager(_restaurantManagerAddress) */\n      dup1\n      sload\n      swap3\n      dup11\n      and\n      swap3\n      swap1\n      swap2\n      and\n      swap2\n      swap1\n      swap2\n      or\n      dup2\n      sstore\n        /* \"contracts/OrderManager.sol\":3225:3266  foodAppContractAddress = _foodAppContract */\n      0x01\n        /* \"contracts/OrderManager.sol\":3411:3426  nextOrderId = 1 */\n      dup1\n      sload\n      not(sub(shl(0x80, 0x01), 0x01))\n      and\n      dup2\n      or\n      swap1\n      sstore\n        /* \"contracts/OrderManager.sol\":3437:3455  platformFeePercent */\n      0x07\n        /* \"contracts/OrderManager.sol\":3437:3459  platformFeePercent = 5 */\n      sstore\n        /* \"@openzeppelin/contracts-upgradeable/proxy/utils/Initializable.sol\":5064:5165  if (isTopLevelCall) {... */\n      dup4\n      iszero\n      tag_418\n      jumpi\n        /* \"@openzeppelin/contracts-upgradeable/proxy/utils/Initializable.sol\":5098:5121  $._initializing = false */\n      dup5\n      sload\n      not(shl(0x40, 0xff))\n      and\n      dup6\n      sstore\n        /* \"@openzeppelin/contracts-upgradeable/proxy/utils/Initializable.sol\":5140:5154  Initialized(1) */\n      mload(0x40)\n      0x01\n        /* \"#utility.yul\":23315:23365   */\n      dup2\n      mstore\n        /* \"@openzeppelin/contracts-upgradeable/proxy/utils/Initializable.sol\":5140:5154  Initialized(1) */\n      0xc7f505b2f371ae2175ee4913f4499e1f2633a7b5936321eed1cdaeb6115181d2\n      swap1\n        /* \"#utility.yul\":23303:23305   */\n      0x20\n        /* \"#utility.yul\":23288:23306   */\n      add\n        /* \"@openzeppelin/contracts-upgradeable/proxy/utils/Initializable.sol\":5140:5154  Initialized(1) */\n      mload(0x40)\n      dup1\n      swap2\n      sub\n      swap1\n      log1\n        /* \"@openzeppelin/contracts-upgradeable/proxy/utils/Initializable.sol\":5064:5165  if (isTopLevelCall) {... */\n    tag_418:\n        /* \"@openzeppelin/contracts-upgradeable/proxy/utils/Initializable.sol\":4092:5171  {... */\n      pop\n      pop\n      pop\n      pop\n      pop\n        /* \"contracts/OrderManager.sol\":2663:3467  function initialize(... */\n      pop\n      pop\n      pop\n      pop\n      jump\t// out\n        /* \"@openzeppelin/contracts-upgradeable/access/OwnableUpgradeable.sol\":2658:2820  function _checkOwner() internal view virtual {... */\n    tag_135:\n        /* \"@openzeppelin/contracts-upgradeable/utils/ContextUpgradeable.sol\":966:976  msg.sender */\n      caller\n        /* \"@openzeppelin/contracts-upgradeable/access/OwnableUpgradeable.sol\":2717:2724  owner() */\n      tag_424\n        /* \"@openzeppelin/contracts-upgradeable/access/OwnableUpgradeable.sol\":2717:2722  owner */\n      tag_88\n        /* \"@openzeppelin/contracts-upgradeable/access/OwnableUpgradeable.sol\":2717:2724  owner() */\n      jump\t// in\n    tag_424:\n      sub(shl(0xa0, 0x01), 0x01)\n        /* \"@openzeppelin/contracts-upgradeable/access/OwnableUpgradeable.sol\":2717:2740  owner() != _msgSender() */\n      and\n      eq\n        /* \"@openzeppelin/contracts-upgradeable/access/OwnableUpgradeable.sol\":2713:2814  if (owner() != _msgSender()) {... */\n      tag_254\n      jumpi\n        /* \"@openzeppelin/contracts-upgradeable/access/OwnableUpgradeable.sol\":2763:2803  OwnableUnauthorizedAccount(_msgSender()) */\n      mload(0x40)\n      shl(0xe0, 0x118cdaa7)\n      dup2\n      mstore\n        /* \"@openzeppelin/contracts-upgradeable/utils/ContextUpgradeable.sol\":966:976  msg.sender */\n      caller\n        /* \"@openzeppelin/contracts-upgradeable/access/OwnableUpgradeable.sol\":2763:2803  OwnableUnauthorizedAccount(_msgSender()) */\n      0x04\n      dup3\n      add\n        /* \"#utility.yul\":5221:5272   */\n      mstore\n        /* \"#utility.yul\":5194:5212   */\n      0x24\n      add\n        /* \"@openzeppelin/contracts-upgradeable/access/OwnableUpgradeable.sol\":2763:2803  OwnableUnauthorizedAccount(_msgSender()) */\n      tag_132\n        /* \"#utility.yul\":5048:5278   */\n      jump\n        /* \"@openzeppelin/contracts/utils/ReentrancyGuard.sol\":2575:2882  function _nonReentrantBefore() private {... */\n    tag_175:\n        /* \"@openzeppelin/contracts/utils/ReentrancyGuard.sol\":1899:1900  2 */\n      0x02\n        /* \"@openzeppelin/contracts/utils/ReentrancyGuard.sol\":2702:2709  _status */\n      sload(0x00)\n        /* \"@openzeppelin/contracts/utils/ReentrancyGuard.sol\":2702:2720  _status == ENTERED */\n      sub\n        /* \"@openzeppelin/contracts/utils/ReentrancyGuard.sol\":2698:2784  if (_status == ENTERED) {... */\n      tag_429\n      jumpi\n        /* \"@openzeppelin/contracts/utils/ReentrancyGuard.sol\":2743:2773  ReentrancyGuardReentrantCall() */\n      mload(0x40)\n      shl(0xe0, 0x3ee5aeb5)\n      dup2\n      mstore\n      0x04\n      add\n      mload(0x40)\n      dup1\n      swap2\n      sub\n      swap1\n      revert\n        /* \"@openzeppelin/contracts/utils/ReentrancyGuard.sol\":2698:2784  if (_status == ENTERED) {... */\n    tag_429:\n        /* \"@openzeppelin/contracts/utils/ReentrancyGuard.sol\":1899:1900  2 */\n      0x02\n        /* \"@openzeppelin/contracts/utils/ReentrancyGuard.sol\":2858:2865  _status */\n      0x00\n        /* \"@openzeppelin/contracts/utils/ReentrancyGuard.sol\":2858:2875  _status = ENTERED */\n      sstore\n        /* \"@openzeppelin/contracts/utils/ReentrancyGuard.sol\":2575:2882  function _nonReentrantBefore() private {... */\n      jump\t// out\n        /* \"@openzeppelin/contracts-upgradeable/access/OwnableUpgradeable.sol\":3774:4022  function _transferOwnership(address newOwner) internal virtual {... */\n    tag_255:\n        /* \"@openzeppelin/contracts-upgradeable/access/OwnableUpgradeable.sol\":1313:1335  OwnableStorageLocation */\n      0x9016d09d72d40fdae2fd8ceac6b6234c7706214fd39c1cd1e609a0528c199300\n        /* \"@openzeppelin/contracts-upgradeable/access/OwnableUpgradeable.sol\":3923:3931  $._owner */\n      dup1\n      sload\n      not(sub(shl(0xa0, 0x01), 0x01))\n        /* \"@openzeppelin/contracts-upgradeable/access/OwnableUpgradeable.sol\":3941:3960  $._owner = newOwner */\n      dup2\n      and\n      sub(shl(0xa0, 0x01), 0x01)\n      dup5\n      dup2\n      and\n      swap2\n      dup3\n      or\n      dup5\n      sstore\n        /* \"@openzeppelin/contracts-upgradeable/access/OwnableUpgradeable.sol\":3975:4015  OwnershipTransferred(oldOwner, newOwner) */\n      mload(0x40)\n        /* \"@openzeppelin/contracts-upgradeable/access/OwnableUpgradeable.sol\":3923:3931  $._owner */\n      swap3\n      and\n      swap2\n      dup3\n      swap1\n        /* \"@openzeppelin/contracts-upgradeable/access/OwnableUpgradeable.sol\":3975:4015  OwnershipTransferred(oldOwner, newOwner) */\n      0x8be0079c531659141344cd1fd0a4f28419497f9722a3daafe3b4186f6b6457e0\n      swap1\n        /* \"@openzeppelin/contracts-upgradeable/access/OwnableUpgradeable.sol\":3847:3871  OwnableStorage storage $ */\n      0x00\n      swap1\n        /* \"@openzeppelin/contracts-upgradeable/access/OwnableUpgradeable.sol\":3975:4015  OwnershipTransferred(oldOwner, newOwner) */\n      log3\n        /* \"@openzeppelin/contracts-upgradeable/access/OwnableUpgradeable.sol\":3837:4022  {... */\n      pop\n      pop\n        /* \"@openzeppelin/contracts-upgradeable/access/OwnableUpgradeable.sol\":3774:4022  function _transferOwnership(address newOwner) internal virtual {... */\n      pop\n      jump\t// out\n        /* \"@openzeppelin/contracts-upgradeable/proxy/utils/Initializable.sol\":9071:9276  function _getInitializableStorage() private pure returns (InitializableStorage storage $) {... */\n    tag_402:\n        /* \"@openzeppelin/contracts-upgradeable/proxy/utils/Initializable.sol\":9129:9159  InitializableStorage storage $ */\n      0x00\n      dup1\n        /* \"@openzeppelin/contracts-upgradeable/proxy/utils/Initializable.sol\":3147:3213  0xf0c57e16840df040f15088dc2f81fe391c3923bec73e23a9662efc9c229c6a00 */\n      0xf0c57e16840df040f15088dc2f81fe391c3923bec73e23a9662efc9c229c6a00\n        /* \"@openzeppelin/contracts-upgradeable/proxy/utils/Initializable.sol\":9186:9213  _initializableStorageSlot() */\n      tag_131\n        /* \"@openzeppelin/contracts-upgradeable/proxy/utils/Initializable.sol\":8819:8941  function _initializableStorageSlot() internal pure virtual returns (bytes32) {... */\n      jump\n        /* \"@openzeppelin/contracts-upgradeable/access/OwnableUpgradeable.sol\":1847:1974  function __Ownable_init(address initialOwner) internal onlyInitializing {... */\n    tag_417:\n        /* \"@openzeppelin/contracts-upgradeable/proxy/utils/Initializable.sol\":6929:6949  _checkInitializing() */\n      tag_438\n        /* \"@openzeppelin/contracts-upgradeable/proxy/utils/Initializable.sol\":6929:6947  _checkInitializing */\n      tag_439\n        /* \"@openzeppelin/contracts-upgradeable/proxy/utils/Initializable.sol\":6929:6949  _checkInitializing() */\n      jump\t// in\n    tag_438:\n        /* \"@openzeppelin/contracts-upgradeable/access/OwnableUpgradeable.sol\":1929:1967  __Ownable_init_unchained(initialOwner) */\n      tag_399\n        /* \"@openzeppelin/contracts-upgradeable/access/OwnableUpgradeable.sol\":1954:1966  initialOwner */\n      dup2\n        /* \"@openzeppelin/contracts-upgradeable/access/OwnableUpgradeable.sol\":1929:1953  __Ownable_init_unchained */\n      tag_442\n        /* \"@openzeppelin/contracts-upgradeable/access/OwnableUpgradeable.sol\":1929:1967  __Ownable_init_unchained(initialOwner) */\n      jump\t// in\n        /* \"@openzeppelin/contracts-upgradeable/proxy/utils/Initializable.sol\":7082:7223  function _checkInitializing() internal view virtual {... */\n    tag_439:\n        /* \"@openzeppelin/contracts-upgradeable/proxy/utils/Initializable.sol\":7149:7166  _isInitializing() */\n      tag_446\n        /* \"@openzeppelin/contracts-upgradeable/proxy/utils/Initializable.sol\":7149:7164  _isInitializing */\n      tag_447\n        /* \"@openzeppelin/contracts-upgradeable/proxy/utils/Initializable.sol\":7149:7166  _isInitializing() */\n      jump\t// in\n    tag_446:\n        /* \"@openzeppelin/contracts-upgradeable/proxy/utils/Initializable.sol\":7144:7217  if (!_isInitializing()) {... */\n      tag_254\n      jumpi\n        /* \"@openzeppelin/contracts-upgradeable/proxy/utils/Initializable.sol\":7189:7206  NotInitializing() */\n      mload(0x40)\n      shl(0xe3, 0x1afcd79f)\n      dup2\n      mstore\n      0x04\n      add\n      mload(0x40)\n      dup1\n      swap2\n      sub\n      swap1\n      revert\n        /* \"@openzeppelin/contracts-upgradeable/access/OwnableUpgradeable.sol\":1980:2215  function __Ownable_init_unchained(address initialOwner) internal onlyInitializing {... */\n    tag_442:\n        /* \"@openzeppelin/contracts-upgradeable/proxy/utils/Initializable.sol\":6929:6949  _checkInitializing() */\n      tag_395\n        /* \"@openzeppelin/contracts-upgradeable/proxy/utils/Initializable.sol\":6929:6947  _checkInitializing */\n      tag_439\n        /* \"@openzeppelin/contracts-upgradeable/proxy/utils/Initializable.sol\":6929:6949  _checkInitializing() */\n      jump\t// in\n        /* \"@openzeppelin/contracts-upgradeable/proxy/utils/Initializable.sol\":8485:8605  function _isInitializing() internal view returns (bool) {... */\n    tag_447:\n        /* \"@openzeppelin/contracts-upgradeable/proxy/utils/Initializable.sol\":8535:8539  bool */\n      0x00\n        /* \"@openzeppelin/contracts-upgradeable/proxy/utils/Initializable.sol\":8558:8584  _getInitializableStorage() */\n      tag_456\n        /* \"@openzeppelin/contracts-upgradeable/proxy/utils/Initializable.sol\":8558:8582  _getInitializableStorage */\n      tag_402\n        /* \"@openzeppelin/contracts-upgradeable/proxy/utils/Initializable.sol\":8558:8584  _getInitializableStorage() */\n      jump\t// in\n    tag_456:\n        /* \"@openzeppelin/contracts-upgradeable/proxy/utils/Initializable.sol\":8558:8598  _getInitializableStorage()._initializing */\n      sload\n      shl(0x40, 0x01)\n      swap1\n      div\n      0xff\n      and\n      swap2\n      swap1\n      pop\n        /* \"@openzeppelin/contracts-upgradeable/proxy/utils/Initializable.sol\":8485:8605  function _isInitializing() internal view returns (bool) {... */\n      jump\t// out\n    tag_115:\n      0x40\n      dup1\n      mload\n      0x0120\n      dup2\n      add\n      dup3\n      mstore\n      0x00\n      dup1\n      dup3\n      mstore\n      0x20\n      dup3\n      add\n      dup2\n      swap1\n      mstore\n      swap2\n      dup2\n      add\n      dup3\n      swap1\n      mstore\n      0x60\n      dup1\n      dup3\n      add\n      mstore\n      0x80\n      dup2\n      add\n      dup3\n      swap1\n      mstore\n      swap1\n      0xa0\n      dup3\n      add\n      swap1\n      dup2\n      mstore\n      0x00\n      0x20\n      dup3\n      add\n      dup2\n      swap1\n      mstore\n      0x40\n      dup3\n      add\n      dup2\n      swap1\n      mstore\n      0x60\n      swap1\n      swap2\n      add\n      mstore\n      swap1\n      jump\t// out\n        /* \"#utility.yul\":14:160   */\n    tag_459:\n      sub(shl(0x80, 0x01), 0x01)\n        /* \"#utility.yul\":93:98   */\n      dup2\n        /* \"#utility.yul\":89:135   */\n      and\n        /* \"#utility.yul\":82:87   */\n      dup2\n        /* \"#utility.yul\":79:136   */\n      eq\n        /* \"#utility.yul\":69:154   */\n      tag_399\n      jumpi\n        /* \"#utility.yul\":150:151   */\n      0x00\n        /* \"#utility.yul\":147:148   */\n      0x00\n        /* \"#utility.yul\":140:152   */\n      revert\n        /* \"#utility.yul\":165:412   */\n    tag_26:\n        /* \"#utility.yul\":224:230   */\n      0x00\n        /* \"#utility.yul\":277:279   */\n      0x20\n        /* \"#utility.yul\":265:274   */\n      dup3\n        /* \"#utility.yul\":256:263   */\n      dup5\n        /* \"#utility.yul\":252:275   */\n      sub\n        /* \"#utility.yul\":248:280   */\n      slt\n        /* \"#utility.yul\":245:297   */\n      iszero\n      tag_480\n      jumpi\n        /* \"#utility.yul\":293:294   */\n      0x00\n        /* \"#utility.yul\":290:291   */\n      0x00\n        /* \"#utility.yul\":283:295   */\n      revert\n        /* \"#utility.yul\":245:297   */\n    tag_480:\n        /* \"#utility.yul\":332:341   */\n      dup2\n        /* \"#utility.yul\":319:342   */\n      calldataload\n        /* \"#utility.yul\":351:382   */\n      tag_481\n        /* \"#utility.yul\":376:381   */\n      dup2\n        /* \"#utility.yul\":351:382   */\n      tag_459\n      jump\t// in\n    tag_481:\n        /* \"#utility.yul\":401:406   */\n      swap4\n        /* \"#utility.yul\":165:412   */\n      swap3\n      pop\n      pop\n      pop\n      jump\t// out\n        /* \"#utility.yul\":650:1881   */\n    tag_462:\n        /* \"#utility.yul\":718:721   */\n      0x00\n        /* \"#utility.yul\":749:752   */\n      dup3\n        /* \"#utility.yul\":781:786   */\n      dup3\n        /* \"#utility.yul\":775:787   */\n      mload\n        /* \"#utility.yul\":808:814   */\n      dup1\n        /* \"#utility.yul\":803:806   */\n      dup6\n        /* \"#utility.yul\":796:815   */\n      mstore\n        /* \"#utility.yul\":840:844   */\n      0x20\n        /* \"#utility.yul\":835:838   */\n      dup6\n        /* \"#utility.yul\":831:845   */\n      add\n        /* \"#utility.yul\":824:845   */\n      swap5\n      pop\n        /* \"#utility.yul\":898:902   */\n      0x20\n        /* \"#utility.yul\":888:894   */\n      dup2\n        /* \"#utility.yul\":885:886   */\n      0x05\n        /* \"#utility.yul\":881:895   */\n      shl\n        /* \"#utility.yul\":874:879   */\n      dup4\n        /* \"#utility.yul\":870:896   */\n      add\n        /* \"#utility.yul\":866:903   */\n      add\n        /* \"#utility.yul\":937:941   */\n      0x20\n        /* \"#utility.yul\":930:935   */\n      dup6\n        /* \"#utility.yul\":926:942   */\n      add\n        /* \"#utility.yul\":960:961   */\n      0x00\n        /* \"#utility.yul\":970:1855   */\n    tag_485:\n        /* \"#utility.yul\":984:990   */\n      dup4\n        /* \"#utility.yul\":981:982   */\n      dup2\n        /* \"#utility.yul\":978:991   */\n      lt\n        /* \"#utility.yul\":970:1855   */\n      iszero\n      tag_487\n      jumpi\n        /* \"#utility.yul\":1071:1073   */\n      0x1f\n        /* \"#utility.yul\":1067:1074   */\n      not\n        /* \"#utility.yul\":1059:1064   */\n      dup6\n        /* \"#utility.yul\":1053:1057   */\n      dup5\n        /* \"#utility.yul\":1049:1065   */\n      sub\n        /* \"#utility.yul\":1045:1075   */\n      add\n        /* \"#utility.yul\":1040:1043   */\n      dup9\n        /* \"#utility.yul\":1033:1076   */\n      mstore\n        /* \"#utility.yul\":1105:1111   */\n      dup2\n        /* \"#utility.yul\":1099:1112   */\n      mload\n      sub(shl(0x80, 0x01), 0x01)\n        /* \"#utility.yul\":1148:1150   */\n      dup2\n        /* \"#utility.yul\":1142:1151   */\n      mload\n        /* \"#utility.yul\":1138:1188   */\n      and\n        /* \"#utility.yul\":1132:1136   */\n      dup5\n        /* \"#utility.yul\":1125:1189   */\n      mstore\n        /* \"#utility.yul\":1236:1240   */\n      0x20\n        /* \"#utility.yul\":1232:1234   */\n      dup2\n        /* \"#utility.yul\":1228:1241   */\n      add\n        /* \"#utility.yul\":1222:1242   */\n      mload\n        /* \"#utility.yul\":1279:1283   */\n      0x80\n        /* \"#utility.yul\":1272:1276   */\n      0x20\n        /* \"#utility.yul\":1266:1270   */\n      dup7\n        /* \"#utility.yul\":1262:1277   */\n      add\n        /* \"#utility.yul\":1255:1284   */\n      mstore\n        /* \"#utility.yul\":1319:1331   */\n      dup1\n        /* \"#utility.yul\":1313:1332   */\n      mload\n        /* \"#utility.yul\":1369:1377   */\n      dup1\n        /* \"#utility.yul\":1362:1366   */\n      0x80\n        /* \"#utility.yul\":1356:1360   */\n      dup8\n        /* \"#utility.yul\":1352:1367   */\n      add\n        /* \"#utility.yul\":1345:1378   */\n      mstore\n        /* \"#utility.yul\":1438:1446   */\n      dup1\n        /* \"#utility.yul\":1431:1435   */\n      0x20\n        /* \"#utility.yul\":1417:1429   */\n      dup4\n        /* \"#utility.yul\":1413:1436   */\n      add\n        /* \"#utility.yul\":1407:1410   */\n      0xa0\n        /* \"#utility.yul\":1401:1405   */\n      dup9\n        /* \"#utility.yul\":1397:1411   */\n      add\n        /* \"#utility.yul\":1391:1447   */\n      mcopy\n        /* \"#utility.yul\":1498:1499   */\n      0x00\n        /* \"#utility.yul\":1492:1495   */\n      0xa0\n        /* \"#utility.yul\":1481:1489   */\n      dup3\n        /* \"#utility.yul\":1475:1479   */\n      dup9\n        /* \"#utility.yul\":1471:1490   */\n      add\n        /* \"#utility.yul\":1467:1496   */\n      add\n        /* \"#utility.yul\":1460:1500   */\n      mstore\n      sub(shl(0x80, 0x01), 0x01)\n        /* \"#utility.yul\":1555:1559   */\n      0x40\n        /* \"#utility.yul\":1551:1553   */\n      dup5\n        /* \"#utility.yul\":1547:1560   */\n      add\n        /* \"#utility.yul\":1541:1561   */\n      mload\n        /* \"#utility.yul\":1537:1598   */\n      and\n        /* \"#utility.yul\":1530:1534   */\n      0x40\n        /* \"#utility.yul\":1524:1528   */\n      dup8\n        /* \"#utility.yul\":1520:1535   */\n      add\n        /* \"#utility.yul\":1513:1599   */\n      mstore\n      sub(shl(0x80, 0x01), 0x01)\n        /* \"#utility.yul\":1654:1658   */\n      0x60\n        /* \"#utility.yul\":1650:1652   */\n      dup5\n        /* \"#utility.yul\":1646:1659   */\n      add\n        /* \"#utility.yul\":1640:1660   */\n      mload\n        /* \"#utility.yul\":1636:1697   */\n      and\n        /* \"#utility.yul\":1629:1633   */\n      0x60\n        /* \"#utility.yul\":1623:1627   */\n      dup8\n        /* \"#utility.yul\":1619:1634   */\n      add\n        /* \"#utility.yul\":1612:1698   */\n      mstore\n        /* \"#utility.yul\":1767:1770   */\n      0xa0\n        /* \"#utility.yul\":1760:1762   */\n      0x1f\n        /* \"#utility.yul\":1756:1763   */\n      not\n        /* \"#utility.yul\":1751:1753   */\n      0x1f\n        /* \"#utility.yul\":1741:1749   */\n      dup4\n        /* \"#utility.yul\":1737:1754   */\n      add\n        /* \"#utility.yul\":1733:1764   */\n      and\n        /* \"#utility.yul\":1727:1731   */\n      dup8\n        /* \"#utility.yul\":1723:1765   */\n      add\n        /* \"#utility.yul\":1719:1771   */\n      add\n        /* \"#utility.yul\":1711:1771   */\n      swap6\n      pop\n      pop\n      pop\n      pop\n        /* \"#utility.yul\":1806:1810   */\n      0x20\n        /* \"#utility.yul\":1798:1804   */\n      dup3\n        /* \"#utility.yul\":1794:1811   */\n      add\n        /* \"#utility.yul\":1784:1811   */\n      swap2\n      pop\n        /* \"#utility.yul\":1840:1844   */\n      0x20\n        /* \"#utility.yul\":1835:1838   */\n      dup9\n        /* \"#utility.yul\":1831:1845   */\n      add\n        /* \"#utility.yul\":1824:1845   */\n      swap8\n      pop\n        /* \"#utility.yul\":1006:1007   */\n      0x01\n        /* \"#utility.yul\":1003:1004   */\n      dup2\n        /* \"#utility.yul\":999:1008   */\n      add\n        /* \"#utility.yul\":994:1008   */\n      swap1\n      pop\n        /* \"#utility.yul\":970:1855   */\n      jump(tag_485)\n    tag_487:\n      pop\n        /* \"#utility.yul\":1871:1875   */\n      swap1\n      swap7\n        /* \"#utility.yul\":650:1881   */\n      swap6\n      pop\n      pop\n      pop\n      pop\n      pop\n      pop\n      jump\t// out\n        /* \"#utility.yul\":1886:2013   */\n    tag_128:\n        /* \"#utility.yul\":1947:1957   */\n      0x4e487b71\n        /* \"#utility.yul\":1942:1945   */\n      0xe0\n        /* \"#utility.yul\":1938:1958   */\n      shl\n        /* \"#utility.yul\":1935:1936   */\n      0x00\n        /* \"#utility.yul\":1928:1959   */\n      mstore\n        /* \"#utility.yul\":1978:1982   */\n      0x21\n        /* \"#utility.yul\":1975:1976   */\n      0x04\n        /* \"#utility.yul\":1968:1983   */\n      mstore\n        /* \"#utility.yul\":2002:2006   */\n      0x24\n        /* \"#utility.yul\":1999:2000   */\n      0x00\n        /* \"#utility.yul\":1992:2007   */\n      revert\n        /* \"#utility.yul\":2018:2257   */\n    tag_463:\n        /* \"#utility.yul\":2101:2102   */\n      0x07\n        /* \"#utility.yul\":2094:2099   */\n      dup2\n        /* \"#utility.yul\":2091:2103   */\n      lt\n        /* \"#utility.yul\":2081:2224   */\n      tag_490\n      jumpi\n        /* \"#utility.yul\":2146:2156   */\n      0x4e487b71\n        /* \"#utility.yul\":2141:2144   */\n      0xe0\n        /* \"#utility.yul\":2137:2157   */\n      shl\n        /* \"#utility.yul\":2134:2135   */\n      0x00\n        /* \"#utility.yul\":2127:2158   */\n      mstore\n        /* \"#utility.yul\":2181:2185   */\n      0x21\n        /* \"#utility.yul\":2178:2179   */\n      0x04\n        /* \"#utility.yul\":2171:2186   */\n      mstore\n        /* \"#utility.yul\":2209:2213   */\n      0x24\n        /* \"#utility.yul\":2206:2207   */\n      0x00\n        /* \"#utility.yul\":2199:2214   */\n      revert\n        /* \"#utility.yul\":2081:2224   */\n    tag_490:\n        /* \"#utility.yul\":2233:2251   */\n      swap1\n      mstore\n        /* \"#utility.yul\":2018:2257   */\n      jump\t// out\n        /* \"#utility.yul\":2262:3325   */\n    tag_464:\n        /* \"#utility.yul\":2347:2359   */\n      dup1\n      mload\n      sub(shl(0x80, 0x01), 0x01)\n        /* \"#utility.yul\":483:529   */\n      and\n        /* \"#utility.yul\":471:530   */\n      dup3\n      mstore\n        /* \"#utility.yul\":2310:2313   */\n      0x00\n        /* \"#utility.yul\":2411:2415   */\n      0x20\n        /* \"#utility.yul\":2404:2409   */\n      dup3\n        /* \"#utility.yul\":2400:2416   */\n      add\n        /* \"#utility.yul\":2394:2417   */\n      mload\n        /* \"#utility.yul\":2426:2474   */\n      tag_493\n        /* \"#utility.yul\":2468:2472   */\n      0x20\n        /* \"#utility.yul\":2463:2466   */\n      dup6\n        /* \"#utility.yul\":2459:2473   */\n      add\n        /* \"#utility.yul\":2445:2457   */\n      dup3\n      sub(shl(0xa0, 0x01), 0x01)\n        /* \"#utility.yul\":607:638   */\n      and\n        /* \"#utility.yul\":595:639   */\n      swap1\n      mstore\n        /* \"#utility.yul\":541:645   */\n      jump\n        /* \"#utility.yul\":2426:2474   */\n    tag_493:\n      pop\n        /* \"#utility.yul\":2522:2526   */\n      0x40\n        /* \"#utility.yul\":2515:2520   */\n      dup3\n        /* \"#utility.yul\":2511:2527   */\n      add\n        /* \"#utility.yul\":2505:2528   */\n      mload\n        /* \"#utility.yul\":2537:2587   */\n      tag_494\n        /* \"#utility.yul\":2581:2585   */\n      0x40\n        /* \"#utility.yul\":2576:2579   */\n      dup6\n        /* \"#utility.yul\":2572:2586   */\n      add\n        /* \"#utility.yul\":2556:2570   */\n      dup3\n      sub(shl(0x80, 0x01), 0x01)\n        /* \"#utility.yul\":483:529   */\n      and\n        /* \"#utility.yul\":471:530   */\n      swap1\n      mstore\n        /* \"#utility.yul\":417:536   */\n      jump\n        /* \"#utility.yul\":2537:2587   */\n    tag_494:\n      pop\n        /* \"#utility.yul\":2635:2639   */\n      0x60\n        /* \"#utility.yul\":2628:2633   */\n      dup3\n        /* \"#utility.yul\":2624:2640   */\n      add\n        /* \"#utility.yul\":2618:2641   */\n      mload\n        /* \"#utility.yul\":2673:2679   */\n      0x0120\n        /* \"#utility.yul\":2666:2670   */\n      0x60\n        /* \"#utility.yul\":2661:2664   */\n      dup6\n        /* \"#utility.yul\":2657:2671   */\n      add\n        /* \"#utility.yul\":2650:2680   */\n      mstore\n        /* \"#utility.yul\":2701:2778   */\n      tag_495\n        /* \"#utility.yul\":2770:2776   */\n      0x0120\n        /* \"#utility.yul\":2765:2768   */\n      dup6\n        /* \"#utility.yul\":2761:2777   */\n      add\n        /* \"#utility.yul\":2745:2759   */\n      dup3\n        /* \"#utility.yul\":2701:2778   */\n      tag_462\n      jump\t// in\n    tag_495:\n        /* \"#utility.yul\":2689:2778   */\n      swap1\n      pop\n        /* \"#utility.yul\":2827:2831   */\n      0x80\n        /* \"#utility.yul\":2820:2825   */\n      dup4\n        /* \"#utility.yul\":2816:2832   */\n      add\n        /* \"#utility.yul\":2810:2833   */\n      mload\n        /* \"#utility.yul\":2803:2807   */\n      0x80\n        /* \"#utility.yul\":2798:2801   */\n      dup6\n        /* \"#utility.yul\":2794:2808   */\n      add\n        /* \"#utility.yul\":2787:2834   */\n      mstore\n        /* \"#utility.yul\":2882:2886   */\n      0xa0\n        /* \"#utility.yul\":2875:2880   */\n      dup4\n        /* \"#utility.yul\":2871:2887   */\n      add\n        /* \"#utility.yul\":2865:2888   */\n      mload\n        /* \"#utility.yul\":2897:2956   */\n      tag_496\n        /* \"#utility.yul\":2950:2954   */\n      0xa0\n        /* \"#utility.yul\":2945:2948   */\n      dup7\n        /* \"#utility.yul\":2941:2955   */\n      add\n        /* \"#utility.yul\":2925:2939   */\n      dup3\n        /* \"#utility.yul\":2897:2956   */\n      tag_463\n      jump\t// in\n    tag_496:\n      pop\n        /* \"#utility.yul\":3004:3008   */\n      0xc0\n        /* \"#utility.yul\":2997:3002   */\n      dup4\n        /* \"#utility.yul\":2993:3009   */\n      add\n        /* \"#utility.yul\":2987:3010   */\n      mload\n        /* \"#utility.yul\":3019:3069   */\n      tag_497\n        /* \"#utility.yul\":3063:3067   */\n      0xc0\n        /* \"#utility.yul\":3058:3061   */\n      dup7\n        /* \"#utility.yul\":3054:3068   */\n      add\n        /* \"#utility.yul\":3038:3052   */\n      dup3\n      sub(shl(0x80, 0x01), 0x01)\n        /* \"#utility.yul\":483:529   */\n      and\n        /* \"#utility.yul\":471:530   */\n      swap1\n      mstore\n        /* \"#utility.yul\":417:536   */\n      jump\n        /* \"#utility.yul\":3019:3069   */\n    tag_497:\n      pop\n        /* \"#utility.yul\":3117:3121   */\n      0xe0\n        /* \"#utility.yul\":3110:3115   */\n      dup4\n        /* \"#utility.yul\":3106:3122   */\n      add\n        /* \"#utility.yul\":3100:3123   */\n      mload\n        /* \"#utility.yul\":3132:3182   */\n      tag_498\n        /* \"#utility.yul\":3176:3180   */\n      0xe0\n        /* \"#utility.yul\":3171:3174   */\n      dup7\n        /* \"#utility.yul\":3167:3181   */\n      add\n        /* \"#utility.yul\":3151:3165   */\n      dup3\n      sub(shl(0x80, 0x01), 0x01)\n        /* \"#utility.yul\":483:529   */\n      and\n        /* \"#utility.yul\":471:530   */\n      swap1\n      mstore\n        /* \"#utility.yul\":417:536   */\n      jump\n        /* \"#utility.yul\":3132:3182   */\n    tag_498:\n      pop\n        /* \"#utility.yul\":3230:3236   */\n      0x0100\n        /* \"#utility.yul\":3223:3228   */\n      dup4\n        /* \"#utility.yul\":3219:3237   */\n      add\n        /* \"#utility.yul\":3213:3238   */\n      mload\n        /* \"#utility.yul\":3247:3299   */\n      tag_499\n        /* \"#utility.yul\":3291:3297   */\n      0x0100\n        /* \"#utility.yul\":3286:3289   */\n      dup7\n        /* \"#utility.yul\":3282:3298   */\n      add\n        /* \"#utility.yul\":3266:3280   */\n      dup3\n      sub(shl(0x80, 0x01), 0x01)\n        /* \"#utility.yul\":483:529   */\n      and\n        /* \"#utility.yul\":471:530   */\n      swap1\n      mstore\n        /* \"#utility.yul\":417:536   */\n      jump\n        /* \"#utility.yul\":3247:3299   */\n    tag_499:\n      pop\n        /* \"#utility.yul\":3315:3319   */\n      swap4\n        /* \"#utility.yul\":2262:3325   */\n      swap3\n      pop\n      pop\n      pop\n      jump\t// out\n        /* \"#utility.yul\":3330:3582   */\n    tag_29:\n        /* \"#utility.yul\":3505:3507   */\n      0x20\n        /* \"#utility.yul\":3494:3503   */\n      dup2\n        /* \"#utility.yul\":3487:3508   */\n      mstore\n        /* \"#utility.yul\":3468:3472   */\n      0x00\n        /* \"#utility.yul\":3525:3576   */\n      tag_481\n        /* \"#utility.yul\":3572:3574   */\n      0x20\n        /* \"#utility.yul\":3561:3570   */\n      dup4\n        /* \"#utility.yul\":3557:3575   */\n      add\n        /* \"#utility.yul\":3549:3555   */\n      dup5\n        /* \"#utility.yul\":3525:3576   */\n      tag_464\n      jump\t// in\n        /* \"#utility.yul\":3587:3813   */\n    tag_33:\n        /* \"#utility.yul\":3646:3652   */\n      0x00\n        /* \"#utility.yul\":3699:3701   */\n      0x20\n        /* \"#utility.yul\":3687:3696   */\n      dup3\n        /* \"#utility.yul\":3678:3685   */\n      dup5\n        /* \"#utility.yul\":3674:3697   */\n      sub\n        /* \"#utility.yul\":3670:3702   */\n      slt\n        /* \"#utility.yul\":3667:3719   */\n      iszero\n      tag_503\n      jumpi\n        /* \"#utility.yul\":3715:3716   */\n      0x00\n        /* \"#utility.yul\":3712:3713   */\n      0x00\n        /* \"#utility.yul\":3705:3717   */\n      revert\n        /* \"#utility.yul\":3667:3719   */\n    tag_503:\n      pop\n        /* \"#utility.yul\":3760:3783   */\n      calldataload\n      swap2\n        /* \"#utility.yul\":3587:3813   */\n      swap1\n      pop\n      jump\t// out\n        /* \"#utility.yul\":3818:3949   */\n    tag_465:\n      sub(shl(0xa0, 0x01), 0x01)\n        /* \"#utility.yul\":3893:3924   */\n      dup2\n      and\n        /* \"#utility.yul\":3883:3925   */\n      dup2\n      eq\n        /* \"#utility.yul\":3873:3943   */\n      tag_399\n      jumpi\n        /* \"#utility.yul\":3939:3940   */\n      0x00\n        /* \"#utility.yul\":3936:3937   */\n      0x00\n        /* \"#utility.yul\":3929:3941   */\n      revert\n        /* \"#utility.yul\":3954:4650   */\n    tag_38:\n        /* \"#utility.yul\":4056:4062   */\n      0x00\n        /* \"#utility.yul\":4064:4070   */\n      0x00\n        /* \"#utility.yul\":4072:4078   */\n      0x00\n        /* \"#utility.yul\":4080:4086   */\n      0x00\n        /* \"#utility.yul\":4133:4136   */\n      0x80\n        /* \"#utility.yul\":4121:4130   */\n      dup6\n        /* \"#utility.yul\":4112:4119   */\n      dup8\n        /* \"#utility.yul\":4108:4131   */\n      sub\n        /* \"#utility.yul\":4104:4137   */\n      slt\n        /* \"#utility.yul\":4101:4154   */\n      iszero\n      tag_507\n      jumpi\n        /* \"#utility.yul\":4150:4151   */\n      0x00\n        /* \"#utility.yul\":4147:4148   */\n      0x00\n        /* \"#utility.yul\":4140:4152   */\n      revert\n        /* \"#utility.yul\":4101:4154   */\n    tag_507:\n        /* \"#utility.yul\":4189:4198   */\n      dup5\n        /* \"#utility.yul\":4176:4199   */\n      calldataload\n        /* \"#utility.yul\":4208:4239   */\n      tag_508\n        /* \"#utility.yul\":4233:4238   */\n      dup2\n        /* \"#utility.yul\":4208:4239   */\n      tag_465\n      jump\t// in\n    tag_508:\n        /* \"#utility.yul\":4258:4263   */\n      swap4\n      pop\n        /* \"#utility.yul\":4315:4317   */\n      0x20\n        /* \"#utility.yul\":4300:4318   */\n      dup6\n      add\n        /* \"#utility.yul\":4287:4319   */\n      calldataload\n        /* \"#utility.yul\":4328:4361   */\n      tag_509\n        /* \"#utility.yul\":4287:4319   */\n      dup2\n        /* \"#utility.yul\":4328:4361   */\n      tag_459\n      jump\t// in\n    tag_509:\n        /* \"#utility.yul\":4380:4387   */\n      swap3\n      pop\n        /* \"#utility.yul\":4439:4441   */\n      0x40\n        /* \"#utility.yul\":4424:4442   */\n      dup6\n      add\n        /* \"#utility.yul\":4411:4443   */\n      calldataload\n        /* \"#utility.yul\":4474:4475   */\n      0x07\n        /* \"#utility.yul\":4462:4476   */\n      dup2\n      lt\n        /* \"#utility.yul\":4452:4494   */\n      tag_510\n      jumpi\n        /* \"#utility.yul\":4490:4491   */\n      0x00\n        /* \"#utility.yul\":4487:4488   */\n      0x00\n        /* \"#utility.yul\":4480:4492   */\n      revert\n        /* \"#utility.yul\":4452:4494   */\n    tag_510:\n        /* \"#utility.yul\":4513:4520   */\n      swap2\n      pop\n        /* \"#utility.yul\":4572:4574   */\n      0x60\n        /* \"#utility.yul\":4557:4575   */\n      dup6\n      add\n        /* \"#utility.yul\":4544:4576   */\n      calldataload\n        /* \"#utility.yul\":4585:4618   */\n      tag_511\n        /* \"#utility.yul\":4544:4576   */\n      dup2\n        /* \"#utility.yul\":4585:4618   */\n      tag_459\n      jump\t// in\n    tag_511:\n        /* \"#utility.yul\":3954:4650   */\n      swap4\n      swap7\n      swap3\n      swap6\n      pop\n      swap1\n      swap4\n      pop\n      pop\n      jump\t// out\n        /* \"#utility.yul\":4655:5043   */\n    tag_43:\n        /* \"#utility.yul\":4723:4729   */\n      0x00\n        /* \"#utility.yul\":4731:4737   */\n      0x00\n        /* \"#utility.yul\":4784:4786   */\n      0x40\n        /* \"#utility.yul\":4772:4781   */\n      dup4\n        /* \"#utility.yul\":4763:4770   */\n      dup6\n        /* \"#utility.yul\":4759:4782   */\n      sub\n        /* \"#utility.yul\":4755:4787   */\n      slt\n        /* \"#utility.yul\":4752:4804   */\n      iszero\n      tag_513\n      jumpi\n        /* \"#utility.yul\":4800:4801   */\n      0x00\n        /* \"#utility.yul\":4797:4798   */\n      0x00\n        /* \"#utility.yul\":4790:4802   */\n      revert\n        /* \"#utility.yul\":4752:4804   */\n    tag_513:\n        /* \"#utility.yul\":4839:4848   */\n      dup3\n        /* \"#utility.yul\":4826:4849   */\n      calldataload\n        /* \"#utility.yul\":4858:4889   */\n      tag_514\n        /* \"#utility.yul\":4883:4888   */\n      dup2\n        /* \"#utility.yul\":4858:4889   */\n      tag_465\n      jump\t// in\n    tag_514:\n        /* \"#utility.yul\":4908:4913   */\n      swap2\n      pop\n        /* \"#utility.yul\":4965:4967   */\n      0x20\n        /* \"#utility.yul\":4950:4968   */\n      dup4\n      add\n        /* \"#utility.yul\":4937:4969   */\n      calldataload\n        /* \"#utility.yul\":4978:5011   */\n      tag_515\n        /* \"#utility.yul\":4937:4969   */\n      dup2\n        /* \"#utility.yul\":4978:5011   */\n      tag_459\n      jump\t// in\n    tag_515:\n        /* \"#utility.yul\":5030:5037   */\n      dup1\n        /* \"#utility.yul\":5020:5037   */\n      swap2\n      pop\n      pop\n        /* \"#utility.yul\":4655:5043   */\n      swap3\n      pop\n      swap3\n      swap1\n      pop\n      jump\t// out\n        /* \"#utility.yul\":5506:5993   */\n    tag_58:\n        /* \"#utility.yul\":5583:5589   */\n      0x00\n        /* \"#utility.yul\":5591:5597   */\n      0x00\n        /* \"#utility.yul\":5599:5605   */\n      0x00\n        /* \"#utility.yul\":5652:5654   */\n      0x60\n        /* \"#utility.yul\":5640:5649   */\n      dup5\n        /* \"#utility.yul\":5631:5638   */\n      dup7\n        /* \"#utility.yul\":5627:5650   */\n      sub\n        /* \"#utility.yul\":5623:5655   */\n      slt\n        /* \"#utility.yul\":5620:5672   */\n      iszero\n      tag_519\n      jumpi\n        /* \"#utility.yul\":5668:5669   */\n      0x00\n        /* \"#utility.yul\":5665:5666   */\n      0x00\n        /* \"#utility.yul\":5658:5670   */\n      revert\n        /* \"#utility.yul\":5620:5672   */\n    tag_519:\n        /* \"#utility.yul\":5707:5716   */\n      dup4\n        /* \"#utility.yul\":5694:5717   */\n      calldataload\n        /* \"#utility.yul\":5726:5757   */\n      tag_520\n        /* \"#utility.yul\":5751:5756   */\n      dup2\n        /* \"#utility.yul\":5726:5757   */\n      tag_465\n      jump\t// in\n    tag_520:\n        /* \"#utility.yul\":5776:5781   */\n      swap6\n        /* \"#utility.yul\":5854:5856   */\n      0x20\n        /* \"#utility.yul\":5839:5857   */\n      dup6\n      add\n        /* \"#utility.yul\":5826:5858   */\n      calldataload\n      swap6\n      pop\n        /* \"#utility.yul\":5957:5959   */\n      0x40\n        /* \"#utility.yul\":5942:5960   */\n      swap1\n      swap5\n      add\n        /* \"#utility.yul\":5929:5961   */\n      calldataload\n      swap4\n        /* \"#utility.yul\":5506:5993   */\n      swap3\n      pop\n      pop\n      pop\n      jump\t// out\n        /* \"#utility.yul\":5998:6891   */\n    tag_61:\n        /* \"#utility.yul\":6214:6218   */\n      0x00\n        /* \"#utility.yul\":6262:6264   */\n      0x40\n        /* \"#utility.yul\":6251:6260   */\n      dup3\n        /* \"#utility.yul\":6247:6265   */\n      add\n        /* \"#utility.yul\":6292:6294   */\n      0x40\n        /* \"#utility.yul\":6281:6290   */\n      dup4\n        /* \"#utility.yul\":6274:6295   */\n      mstore\n        /* \"#utility.yul\":6315:6321   */\n      dup1\n        /* \"#utility.yul\":6350:6356   */\n      dup6\n        /* \"#utility.yul\":6344:6357   */\n      mload\n        /* \"#utility.yul\":6381:6387   */\n      dup1\n        /* \"#utility.yul\":6373:6379   */\n      dup4\n        /* \"#utility.yul\":6366:6388   */\n      mstore\n        /* \"#utility.yul\":6419:6421   */\n      0x60\n        /* \"#utility.yul\":6408:6417   */\n      dup6\n        /* \"#utility.yul\":6404:6422   */\n      add\n        /* \"#utility.yul\":6397:6422   */\n      swap2\n      pop\n        /* \"#utility.yul\":6481:6483   */\n      0x60\n        /* \"#utility.yul\":6471:6477   */\n      dup2\n        /* \"#utility.yul\":6468:6469   */\n      0x05\n        /* \"#utility.yul\":6464:6478   */\n      shl\n        /* \"#utility.yul\":6453:6462   */\n      dup7\n        /* \"#utility.yul\":6449:6479   */\n      add\n        /* \"#utility.yul\":6445:6484   */\n      add\n        /* \"#utility.yul\":6431:6484   */\n      swap3\n      pop\n        /* \"#utility.yul\":6519:6523   */\n      0x20\n        /* \"#utility.yul\":6511:6517   */\n      dup8\n        /* \"#utility.yul\":6507:6524   */\n      add\n        /* \"#utility.yul\":6542:6543   */\n      0x00\n        /* \"#utility.yul\":6552:6817   */\n    tag_522:\n        /* \"#utility.yul\":6566:6572   */\n      dup3\n        /* \"#utility.yul\":6563:6564   */\n      dup2\n        /* \"#utility.yul\":6560:6573   */\n      lt\n        /* \"#utility.yul\":6552:6817   */\n      iszero\n      tag_524\n      jumpi\n        /* \"#utility.yul\":6659:6661   */\n      0x5f\n        /* \"#utility.yul\":6655:6662   */\n      not\n        /* \"#utility.yul\":6643:6652   */\n      dup8\n        /* \"#utility.yul\":6635:6641   */\n      dup7\n        /* \"#utility.yul\":6631:6653   */\n      sub\n        /* \"#utility.yul\":6627:6663   */\n      add\n        /* \"#utility.yul\":6622:6625   */\n      dup5\n        /* \"#utility.yul\":6615:6664   */\n      mstore\n        /* \"#utility.yul\":6687:6733   */\n      tag_525\n        /* \"#utility.yul\":6726:6732   */\n      dup6\n        /* \"#utility.yul\":6717:6723   */\n      dup4\n        /* \"#utility.yul\":6711:6724   */\n      mload\n        /* \"#utility.yul\":6687:6733   */\n      tag_464\n      jump\t// in\n    tag_525:\n        /* \"#utility.yul\":6677:6733   */\n      swap5\n      pop\n        /* \"#utility.yul\":6768:6772   */\n      0x20\n        /* \"#utility.yul\":6793:6807   */\n      swap4\n      dup5\n      add\n      swap4\n        /* \"#utility.yul\":6756:6773   */\n      swap2\n      swap1\n      swap2\n      add\n      swap1\n        /* \"#utility.yul\":6588:6589   */\n      0x01\n        /* \"#utility.yul\":6581:6590   */\n      add\n        /* \"#utility.yul\":6552:6817   */\n      jump(tag_522)\n    tag_524:\n      pop\n      pop\n      pop\n      pop\n        /* \"#utility.yul\":6871:6875   */\n      0x20\n        /* \"#utility.yul\":6856:6876   */\n      swap3\n      swap1\n      swap3\n      add\n        /* \"#utility.yul\":6849:6885   */\n      swap3\n      swap1\n      swap3\n      mstore\n        /* \"#utility.yul\":6834:6840   */\n      swap3\n        /* \"#utility.yul\":5998:6891   */\n      swap2\n      pop\n      pop\n      jump\t// out\n        /* \"#utility.yul\":7125:7372   */\n    tag_73:\n        /* \"#utility.yul\":7184:7190   */\n      0x00\n        /* \"#utility.yul\":7237:7239   */\n      0x20\n        /* \"#utility.yul\":7225:7234   */\n      dup3\n        /* \"#utility.yul\":7216:7223   */\n      dup5\n        /* \"#utility.yul\":7212:7235   */\n      sub\n        /* \"#utility.yul\":7208:7240   */\n      slt\n        /* \"#utility.yul\":7205:7257   */\n      iszero\n      tag_528\n      jumpi\n        /* \"#utility.yul\":7253:7254   */\n      0x00\n        /* \"#utility.yul\":7250:7251   */\n      0x00\n        /* \"#utility.yul\":7243:7255   */\n      revert\n        /* \"#utility.yul\":7205:7257   */\n    tag_528:\n        /* \"#utility.yul\":7292:7301   */\n      dup2\n        /* \"#utility.yul\":7279:7302   */\n      calldataload\n        /* \"#utility.yul\":7311:7342   */\n      tag_481\n        /* \"#utility.yul\":7336:7341   */\n      dup2\n        /* \"#utility.yul\":7311:7342   */\n      tag_465\n      jump\t// in\n        /* \"#utility.yul\":7767:7894   */\n    tag_213:\n        /* \"#utility.yul\":7828:7838   */\n      0x4e487b71\n        /* \"#utility.yul\":7823:7826   */\n      0xe0\n        /* \"#utility.yul\":7819:7839   */\n      shl\n        /* \"#utility.yul\":7816:7817   */\n      0x00\n        /* \"#utility.yul\":7809:7840   */\n      mstore\n        /* \"#utility.yul\":7859:7863   */\n      0x41\n        /* \"#utility.yul\":7856:7857   */\n      0x04\n        /* \"#utility.yul\":7849:7864   */\n      mstore\n        /* \"#utility.yul\":7883:7887   */\n      0x24\n        /* \"#utility.yul\":7880:7881   */\n      0x00\n        /* \"#utility.yul\":7873:7888   */\n      revert\n        /* \"#utility.yul\":7899:8154   */\n    tag_466:\n        /* \"#utility.yul\":7971:7973   */\n      0x40\n        /* \"#utility.yul\":7965:7974   */\n      mload\n        /* \"#utility.yul\":8013:8019   */\n      0x0160\n        /* \"#utility.yul\":8001:8020   */\n      dup2\n      add\n      sub(shl(0x40, 0x01), 0x01)\n        /* \"#utility.yul\":8035:8069   */\n      dup2\n      gt\n        /* \"#utility.yul\":8071:8093   */\n      dup3\n      dup3\n      lt\n        /* \"#utility.yul\":8032:8094   */\n      or\n        /* \"#utility.yul\":8029:8117   */\n      iszero\n      tag_535\n      jumpi\n        /* \"#utility.yul\":8097:8115   */\n      tag_535\n      tag_213\n      jump\t// in\n    tag_535:\n        /* \"#utility.yul\":8133:8135   */\n      0x40\n        /* \"#utility.yul\":8126:8148   */\n      mstore\n        /* \"#utility.yul\":7899:8154   */\n      swap1\n      jump\t// out\n        /* \"#utility.yul\":8159:8434   */\n    tag_467:\n        /* \"#utility.yul\":8230:8232   */\n      0x40\n        /* \"#utility.yul\":8224:8233   */\n      mload\n        /* \"#utility.yul\":8295:8297   */\n      0x1f\n        /* \"#utility.yul\":8276:8289   */\n      dup3\n      add\n      not(0x1f)\n        /* \"#utility.yul\":8272:8299   */\n      and\n        /* \"#utility.yul\":8260:8300   */\n      dup2\n      add\n      sub(shl(0x40, 0x01), 0x01)\n        /* \"#utility.yul\":8315:8349   */\n      dup2\n      gt\n        /* \"#utility.yul\":8351:8373   */\n      dup3\n      dup3\n      lt\n        /* \"#utility.yul\":8312:8374   */\n      or\n        /* \"#utility.yul\":8309:8397   */\n      iszero\n      tag_538\n      jumpi\n        /* \"#utility.yul\":8377:8395   */\n      tag_538\n      tag_213\n      jump\t// in\n    tag_538:\n        /* \"#utility.yul\":8413:8415   */\n      0x40\n        /* \"#utility.yul\":8406:8428   */\n      mstore\n        /* \"#utility.yul\":8159:8434   */\n      swap2\n      swap1\n      pop\n      jump\t// out\n        /* \"#utility.yul\":8439:9235   */\n    tag_468:\n        /* \"#utility.yul\":8493:8498   */\n      0x00\n        /* \"#utility.yul\":8546:8549   */\n      dup3\n        /* \"#utility.yul\":8539:8543   */\n      0x1f\n        /* \"#utility.yul\":8531:8537   */\n      dup4\n        /* \"#utility.yul\":8527:8544   */\n      add\n        /* \"#utility.yul\":8523:8550   */\n      slt\n        /* \"#utility.yul\":8513:8568   */\n      tag_540\n      jumpi\n        /* \"#utility.yul\":8564:8565   */\n      0x00\n        /* \"#utility.yul\":8561:8562   */\n      0x00\n        /* \"#utility.yul\":8554:8566   */\n      revert\n        /* \"#utility.yul\":8513:8568   */\n    tag_540:\n        /* \"#utility.yul\":8604:8610   */\n      dup2\n        /* \"#utility.yul\":8591:8611   */\n      calldataload\n      sub(shl(0x40, 0x01), 0x01)\n        /* \"#utility.yul\":8626:8632   */\n      dup2\n        /* \"#utility.yul\":8623:8653   */\n      gt\n        /* \"#utility.yul\":8620:8676   */\n      iszero\n      tag_542\n      jumpi\n        /* \"#utility.yul\":8656:8674   */\n      tag_542\n      tag_213\n      jump\t// in\n    tag_542:\n        /* \"#utility.yul\":8702:8708   */\n      dup1\n        /* \"#utility.yul\":8699:8700   */\n      0x05\n        /* \"#utility.yul\":8695:8709   */\n      shl\n        /* \"#utility.yul\":8729:8759   */\n      tag_543\n        /* \"#utility.yul\":8753:8757   */\n      0x20\n        /* \"#utility.yul\":8749:8751   */\n      dup3\n        /* \"#utility.yul\":8745:8758   */\n      add\n        /* \"#utility.yul\":8729:8759   */\n      tag_467\n      jump\t// in\n    tag_543:\n        /* \"#utility.yul\":8795:8814   */\n      swap2\n      dup3\n      mstore\n        /* \"#utility.yul\":8839:8843   */\n      0x20\n        /* \"#utility.yul\":8871:8886   */\n      dup2\n      dup6\n      add\n        /* \"#utility.yul\":8867:8893   */\n      dup2\n      add\n      swap3\n        /* \"#utility.yul\":8830:8844   */\n      swap1\n      dup2\n      add\n      swap1\n        /* \"#utility.yul\":8905:8920   */\n      dup7\n      dup5\n      gt\n        /* \"#utility.yul\":8902:8937   */\n      iszero\n      tag_544\n      jumpi\n        /* \"#utility.yul\":8933:8934   */\n      0x00\n        /* \"#utility.yul\":8930:8931   */\n      0x00\n        /* \"#utility.yul\":8923:8935   */\n      revert\n        /* \"#utility.yul\":8902:8937   */\n    tag_544:\n        /* \"#utility.yul\":8969:8973   */\n      0x20\n        /* \"#utility.yul\":8961:8967   */\n      dup7\n        /* \"#utility.yul\":8957:8974   */\n      add\n        /* \"#utility.yul\":8946:8974   */\n      swap3\n      pop\n        /* \"#utility.yul\":8983:9204   */\n    tag_545:\n        /* \"#utility.yul\":8999:9005   */\n      dup4\n        /* \"#utility.yul\":8994:8997   */\n      dup4\n        /* \"#utility.yul\":8991:9006   */\n      lt\n        /* \"#utility.yul\":8983:9204   */\n      iszero\n      tag_547\n      jumpi\n        /* \"#utility.yul\":9081:9084   */\n      dup3\n        /* \"#utility.yul\":9068:9085   */\n      calldataload\n        /* \"#utility.yul\":9098:9129   */\n      tag_548\n        /* \"#utility.yul\":9123:9128   */\n      dup2\n        /* \"#utility.yul\":9098:9129   */\n      tag_459\n      jump\t// in\n    tag_548:\n        /* \"#utility.yul\":9142:9160   */\n      dup3\n      mstore\n        /* \"#utility.yul\":9189:9193   */\n      0x20\n        /* \"#utility.yul\":9016:9030   */\n      swap3\n      dup4\n      add\n      swap3\n        /* \"#utility.yul\":9180:9194   */\n      swap1\n      swap2\n      add\n      swap1\n        /* \"#utility.yul\":8983:9204   */\n      jump(tag_545)\n    tag_547:\n        /* \"#utility.yul\":9222:9229   */\n      swap7\n        /* \"#utility.yul\":8439:9235   */\n      swap6\n      pop\n      pop\n      pop\n      pop\n      pop\n      pop\n      jump\t// out\n        /* \"#utility.yul\":9240:10107   */\n    tag_92:\n        /* \"#utility.yul\":9376:9382   */\n      0x00\n        /* \"#utility.yul\":9384:9390   */\n      0x00\n        /* \"#utility.yul\":9392:9398   */\n      0x00\n        /* \"#utility.yul\":9400:9406   */\n      0x00\n        /* \"#utility.yul\":9453:9456   */\n      0x80\n        /* \"#utility.yul\":9441:9450   */\n      dup6\n        /* \"#utility.yul\":9432:9439   */\n      dup8\n        /* \"#utility.yul\":9428:9451   */\n      sub\n        /* \"#utility.yul\":9424:9457   */\n      slt\n        /* \"#utility.yul\":9421:9474   */\n      iszero\n      tag_550\n      jumpi\n        /* \"#utility.yul\":9470:9471   */\n      0x00\n        /* \"#utility.yul\":9467:9468   */\n      0x00\n        /* \"#utility.yul\":9460:9472   */\n      revert\n        /* \"#utility.yul\":9421:9474   */\n    tag_550:\n        /* \"#utility.yul\":9509:9518   */\n      dup5\n        /* \"#utility.yul\":9496:9519   */\n      calldataload\n        /* \"#utility.yul\":9528:9559   */\n      tag_551\n        /* \"#utility.yul\":9553:9558   */\n      dup2\n        /* \"#utility.yul\":9528:9559   */\n      tag_465\n      jump\t// in\n    tag_551:\n        /* \"#utility.yul\":9578:9583   */\n      swap4\n      pop\n        /* \"#utility.yul\":9635:9637   */\n      0x20\n        /* \"#utility.yul\":9620:9638   */\n      dup6\n      add\n        /* \"#utility.yul\":9607:9639   */\n      calldataload\n        /* \"#utility.yul\":9648:9681   */\n      tag_552\n        /* \"#utility.yul\":9607:9639   */\n      dup2\n        /* \"#utility.yul\":9648:9681   */\n      tag_459\n      jump\t// in\n    tag_552:\n        /* \"#utility.yul\":9700:9707   */\n      swap3\n      pop\n        /* \"#utility.yul\":9758:9760   */\n      0x40\n        /* \"#utility.yul\":9743:9761   */\n      dup6\n      add\n        /* \"#utility.yul\":9730:9762   */\n      calldataload\n      sub(shl(0x40, 0x01), 0x01)\n        /* \"#utility.yul\":9774:9804   */\n      dup2\n      gt\n        /* \"#utility.yul\":9771:9821   */\n      iszero\n      tag_553\n      jumpi\n        /* \"#utility.yul\":9817:9818   */\n      0x00\n        /* \"#utility.yul\":9814:9815   */\n      0x00\n        /* \"#utility.yul\":9807:9819   */\n      revert\n        /* \"#utility.yul\":9771:9821   */\n    tag_553:\n        /* \"#utility.yul\":9840:9901   */\n      tag_554\n        /* \"#utility.yul\":9893:9900   */\n      dup8\n        /* \"#utility.yul\":9884:9890   */\n      dup3\n        /* \"#utility.yul\":9873:9882   */\n      dup9\n        /* \"#utility.yul\":9869:9891   */\n      add\n        /* \"#utility.yul\":9840:9901   */\n      tag_468\n      jump\t// in\n    tag_554:\n        /* \"#utility.yul\":9830:9901   */\n      swap3\n      pop\n      pop\n        /* \"#utility.yul\":9954:9956   */\n      0x60\n        /* \"#utility.yul\":9943:9952   */\n      dup6\n        /* \"#utility.yul\":9939:9957   */\n      add\n        /* \"#utility.yul\":9926:9958   */\n      calldataload\n      sub(shl(0x40, 0x01), 0x01)\n        /* \"#utility.yul\":9973:9981   */\n      dup2\n        /* \"#utility.yul\":9970:10002   */\n      gt\n        /* \"#utility.yul\":9967:10019   */\n      iszero\n      tag_555\n      jumpi\n        /* \"#utility.yul\":10015:10016   */\n      0x00\n        /* \"#utility.yul\":10012:10013   */\n      0x00\n        /* \"#utility.yul\":10005:10017   */\n      revert\n        /* \"#utility.yul\":9967:10019   */\n    tag_555:\n        /* \"#utility.yul\":10038:10101   */\n      tag_556\n        /* \"#utility.yul\":10093:10100   */\n      dup8\n        /* \"#utility.yul\":10082:10090   */\n      dup3\n        /* \"#utility.yul\":10071:10080   */\n      dup9\n        /* \"#utility.yul\":10067:10091   */\n      add\n        /* \"#utility.yul\":10038:10101   */\n      tag_468\n      jump\t// in\n    tag_556:\n        /* \"#utility.yul\":10028:10101   */\n      swap2\n      pop\n      pop\n        /* \"#utility.yul\":9240:10107   */\n      swap3\n      swap6\n      swap2\n      swap5\n      pop\n      swap3\n      pop\n      jump\t// out\n        /* \"#utility.yul\":10112:10641   */\n    tag_97:\n        /* \"#utility.yul\":10189:10195   */\n      0x00\n        /* \"#utility.yul\":10197:10203   */\n      0x00\n        /* \"#utility.yul\":10205:10211   */\n      0x00\n        /* \"#utility.yul\":10258:10260   */\n      0x60\n        /* \"#utility.yul\":10246:10255   */\n      dup5\n        /* \"#utility.yul\":10237:10244   */\n      dup7\n        /* \"#utility.yul\":10233:10256   */\n      sub\n        /* \"#utility.yul\":10229:10261   */\n      slt\n        /* \"#utility.yul\":10226:10278   */\n      iszero\n      tag_558\n      jumpi\n        /* \"#utility.yul\":10274:10275   */\n      0x00\n        /* \"#utility.yul\":10271:10272   */\n      0x00\n        /* \"#utility.yul\":10264:10276   */\n      revert\n        /* \"#utility.yul\":10226:10278   */\n    tag_558:\n        /* \"#utility.yul\":10313:10322   */\n      dup4\n        /* \"#utility.yul\":10300:10323   */\n      calldataload\n        /* \"#utility.yul\":10332:10363   */\n      tag_559\n        /* \"#utility.yul\":10357:10362   */\n      dup2\n        /* \"#utility.yul\":10332:10363   */\n      tag_465\n      jump\t// in\n    tag_559:\n        /* \"#utility.yul\":10382:10387   */\n      swap3\n      pop\n        /* \"#utility.yul\":10439:10441   */\n      0x20\n        /* \"#utility.yul\":10424:10442   */\n      dup5\n      add\n        /* \"#utility.yul\":10411:10443   */\n      calldataload\n        /* \"#utility.yul\":10452:10485   */\n      tag_560\n        /* \"#utility.yul\":10411:10443   */\n      dup2\n        /* \"#utility.yul\":10452:10485   */\n      tag_459\n      jump\t// in\n    tag_560:\n        /* \"#utility.yul\":10504:10511   */\n      swap2\n      pop\n        /* \"#utility.yul\":10563:10565   */\n      0x40\n        /* \"#utility.yul\":10548:10566   */\n      dup5\n      add\n        /* \"#utility.yul\":10535:10567   */\n      calldataload\n        /* \"#utility.yul\":10576:10609   */\n      tag_561\n        /* \"#utility.yul\":10535:10567   */\n      dup2\n        /* \"#utility.yul\":10576:10609   */\n      tag_459\n      jump\t// in\n    tag_561:\n        /* \"#utility.yul\":10628:10635   */\n      dup1\n        /* \"#utility.yul\":10618:10635   */\n      swap2\n      pop\n      pop\n        /* \"#utility.yul\":10112:10641   */\n      swap3\n      pop\n      swap3\n      pop\n      swap3\n      jump\t// out\n        /* \"#utility.yul\":10646:11317   */\n    tag_106:\n        /* \"#utility.yul\":10732:10738   */\n      0x00\n        /* \"#utility.yul\":10740:10746   */\n      0x00\n        /* \"#utility.yul\":10748:10754   */\n      0x00\n        /* \"#utility.yul\":10756:10762   */\n      0x00\n        /* \"#utility.yul\":10809:10812   */\n      0x80\n        /* \"#utility.yul\":10797:10806   */\n      dup6\n        /* \"#utility.yul\":10788:10795   */\n      dup8\n        /* \"#utility.yul\":10784:10807   */\n      sub\n        /* \"#utility.yul\":10780:10813   */\n      slt\n        /* \"#utility.yul\":10777:10830   */\n      iszero\n      tag_563\n      jumpi\n        /* \"#utility.yul\":10826:10827   */\n      0x00\n        /* \"#utility.yul\":10823:10824   */\n      0x00\n        /* \"#utility.yul\":10816:10828   */\n      revert\n        /* \"#utility.yul\":10777:10830   */\n    tag_563:\n        /* \"#utility.yul\":10865:10874   */\n      dup5\n        /* \"#utility.yul\":10852:10875   */\n      calldataload\n        /* \"#utility.yul\":10884:10915   */\n      tag_564\n        /* \"#utility.yul\":10909:10914   */\n      dup2\n        /* \"#utility.yul\":10884:10915   */\n      tag_465\n      jump\t// in\n    tag_564:\n        /* \"#utility.yul\":10934:10939   */\n      swap4\n      pop\n        /* \"#utility.yul\":10991:10993   */\n      0x20\n        /* \"#utility.yul\":10976:10994   */\n      dup6\n      add\n        /* \"#utility.yul\":10963:10995   */\n      calldataload\n        /* \"#utility.yul\":11004:11037   */\n      tag_565\n        /* \"#utility.yul\":10963:10995   */\n      dup2\n        /* \"#utility.yul\":11004:11037   */\n      tag_465\n      jump\t// in\n    tag_565:\n        /* \"#utility.yul\":11056:11063   */\n      swap3\n      pop\n        /* \"#utility.yul\":11115:11117   */\n      0x40\n        /* \"#utility.yul\":11100:11118   */\n      dup6\n      add\n        /* \"#utility.yul\":11087:11119   */\n      calldataload\n        /* \"#utility.yul\":11128:11161   */\n      tag_566\n        /* \"#utility.yul\":11087:11119   */\n      dup2\n        /* \"#utility.yul\":11128:11161   */\n      tag_465\n      jump\t// in\n    tag_566:\n        /* \"#utility.yul\":11180:11187   */\n      swap2\n      pop\n        /* \"#utility.yul\":11239:11241   */\n      0x60\n        /* \"#utility.yul\":11224:11242   */\n      dup6\n      add\n        /* \"#utility.yul\":11211:11243   */\n      calldataload\n        /* \"#utility.yul\":11252:11285   */\n      tag_511\n        /* \"#utility.yul\":11211:11243   */\n      dup2\n        /* \"#utility.yul\":11252:11285   */\n      tag_465\n      jump\t// in\n        /* \"#utility.yul\":11322:12267   */\n    tag_113:\n      sub(shl(0x80, 0x01), 0x01)\n        /* \"#utility.yul\":11697:11744   */\n      dup10\n      dup2\n      and\n        /* \"#utility.yul\":11679:11745   */\n      dup3\n      mstore\n      sub(shl(0xa0, 0x01), 0x01)\n        /* \"#utility.yul\":11781:11813   */\n      dup10\n      and\n        /* \"#utility.yul\":11776:11778   */\n      0x20\n        /* \"#utility.yul\":11761:11779   */\n      dup4\n      add\n        /* \"#utility.yul\":11754:11814   */\n      mstore\n        /* \"#utility.yul\":11850:11897   */\n      dup8\n      and\n        /* \"#utility.yul\":11845:11847   */\n      0x40\n        /* \"#utility.yul\":11830:11848   */\n      dup3\n      add\n        /* \"#utility.yul\":11823:11898   */\n      mstore\n        /* \"#utility.yul\":11929:11931   */\n      0x60\n        /* \"#utility.yul\":11914:11932   */\n      dup2\n      add\n        /* \"#utility.yul\":11907:11941   */\n      dup7\n      swap1\n      mstore\n        /* \"#utility.yul\":11666:11669   */\n      0x0100\n        /* \"#utility.yul\":11651:11670   */\n      dup2\n      add\n        /* \"#utility.yul\":11950:12006   */\n      tag_569\n        /* \"#utility.yul\":12001:12004   */\n      0x80\n        /* \"#utility.yul\":11986:12005   */\n      dup4\n      add\n        /* \"#utility.yul\":11978:11984   */\n      dup8\n        /* \"#utility.yul\":11950:12006   */\n      tag_463\n      jump\t// in\n    tag_569:\n      sub(shl(0x80, 0x01), 0x01)\n        /* \"#utility.yul\":12047:12053   */\n      dup6\n        /* \"#utility.yul\":12043:12090   */\n      and\n        /* \"#utility.yul\":12037:12040   */\n      0xa0\n        /* \"#utility.yul\":12026:12035   */\n      dup4\n        /* \"#utility.yul\":12022:12041   */\n      add\n        /* \"#utility.yul\":12015:12091   */\n      mstore\n      sub(shl(0x80, 0x01), 0x01)\n        /* \"#utility.yul\":12132:12138   */\n      dup5\n        /* \"#utility.yul\":12128:12175   */\n      and\n        /* \"#utility.yul\":12122:12125   */\n      0xc0\n        /* \"#utility.yul\":12111:12120   */\n      dup4\n        /* \"#utility.yul\":12107:12126   */\n      add\n        /* \"#utility.yul\":12100:12176   */\n      mstore\n      sub(shl(0x80, 0x01), 0x01)\n        /* \"#utility.yul\":12217:12223   */\n      dup4\n        /* \"#utility.yul\":12213:12260   */\n      and\n        /* \"#utility.yul\":12207:12210   */\n      0xe0\n        /* \"#utility.yul\":12196:12205   */\n      dup4\n        /* \"#utility.yul\":12192:12211   */\n      add\n        /* \"#utility.yul\":12185:12261   */\n      mstore\n        /* \"#utility.yul\":11322:12267   */\n      swap10\n      swap9\n      pop\n      pop\n      pop\n      pop\n      pop\n      pop\n      pop\n      pop\n      pop\n      jump\t// out\n        /* \"#utility.yul\":12272:12652   */\n    tag_121:\n        /* \"#utility.yul\":12351:12352   */\n      0x01\n        /* \"#utility.yul\":12347:12359   */\n      dup2\n      dup2\n      shr\n      swap1\n        /* \"#utility.yul\":12394:12406   */\n      dup3\n      and\n      dup1\n        /* \"#utility.yul\":12415:12476   */\n      tag_571\n      jumpi\n        /* \"#utility.yul\":12469:12473   */\n      0x7f\n        /* \"#utility.yul\":12461:12467   */\n      dup3\n        /* \"#utility.yul\":12457:12474   */\n      and\n        /* \"#utility.yul\":12447:12474   */\n      swap2\n      pop\n        /* \"#utility.yul\":12415:12476   */\n    tag_571:\n        /* \"#utility.yul\":12522:12524   */\n      0x20\n        /* \"#utility.yul\":12514:12520   */\n      dup3\n        /* \"#utility.yul\":12511:12525   */\n      lt\n        /* \"#utility.yul\":12491:12509   */\n      dup2\n        /* \"#utility.yul\":12488:12526   */\n      sub\n        /* \"#utility.yul\":12485:12646   */\n      tag_572\n      jumpi\n        /* \"#utility.yul\":12568:12578   */\n      0x4e487b71\n        /* \"#utility.yul\":12563:12566   */\n      0xe0\n        /* \"#utility.yul\":12559:12579   */\n      shl\n        /* \"#utility.yul\":12556:12557   */\n      0x00\n        /* \"#utility.yul\":12549:12580   */\n      mstore\n        /* \"#utility.yul\":12603:12607   */\n      0x22\n        /* \"#utility.yul\":12600:12601   */\n      0x04\n        /* \"#utility.yul\":12593:12608   */\n      mstore\n        /* \"#utility.yul\":12631:12635   */\n      0x24\n        /* \"#utility.yul\":12628:12629   */\n      0x00\n        /* \"#utility.yul\":12621:12636   */\n      revert\n        /* \"#utility.yul\":12485:12646   */\n    tag_572:\n      pop\n        /* \"#utility.yul\":12272:12652   */\n      swap2\n      swap1\n      pop\n      jump\t// out\n        /* \"#utility.yul\":13342:13795   */\n    tag_160:\n        /* \"#utility.yul\":13568:13614   */\n      tag_576\n        /* \"#utility.yul\":13604:13613   */\n      dup2\n        /* \"#utility.yul\":13596:13602   */\n      dup4\n        /* \"#utility.yul\":13568:13614   */\n      tag_463\n      jump\t// in\n    tag_576:\n        /* \"#utility.yul\":13650:13652   */\n      0x40\n        /* \"#utility.yul\":13645:13647   */\n      0x20\n        /* \"#utility.yul\":13630:13648   */\n      dup3\n      add\n        /* \"#utility.yul\":13623:13653   */\n      dup2\n      swap1\n      mstore\n        /* \"#utility.yul\":13689:13691   */\n      0x16\n        /* \"#utility.yul\":13669:13687   */\n      swap1\n      dup3\n      add\n        /* \"#utility.yul\":13662:13692   */\n      mstore\n      shl(0x50, 0x7570646174652028616c72656164792066696e616c29)\n        /* \"#utility.yul\":13723:13725   */\n      0x60\n        /* \"#utility.yul\":13708:13726   */\n      dup3\n      add\n        /* \"#utility.yul\":13701:13753   */\n      mstore\n        /* \"#utility.yul\":13785:13788   */\n      0x80\n        /* \"#utility.yul\":13770:13789   */\n      add\n      swap2\n        /* \"#utility.yul\":13342:13795   */\n      swap1\n      pop\n      jump\t// out\n        /* \"#utility.yul\":13800:14118   */\n    tag_167:\n        /* \"#utility.yul\":13990:13992   */\n      0x40\n        /* \"#utility.yul\":13975:13993   */\n      dup2\n      add\n        /* \"#utility.yul\":14002:14048   */\n      tag_578\n        /* \"#utility.yul\":13979:13988   */\n      dup3\n        /* \"#utility.yul\":14030:14036   */\n      dup6\n        /* \"#utility.yul\":14002:14048   */\n      tag_463\n      jump\t// in\n    tag_578:\n        /* \"#utility.yul\":14057:14112   */\n      tag_481\n        /* \"#utility.yul\":14108:14110   */\n      0x20\n        /* \"#utility.yul\":14097:14106   */\n      dup4\n        /* \"#utility.yul\":14093:14111   */\n      add\n        /* \"#utility.yul\":14085:14091   */\n      dup5\n        /* \"#utility.yul\":14057:14112   */\n      tag_463\n      jump\t// in\n        /* \"#utility.yul\":14443:14879   */\n    tag_193:\n        /* \"#utility.yul\":14669:14715   */\n      tag_582\n        /* \"#utility.yul\":14705:14714   */\n      dup2\n        /* \"#utility.yul\":14697:14703   */\n      dup4\n        /* \"#utility.yul\":14669:14715   */\n      tag_463\n      jump\t// in\n    tag_582:\n        /* \"#utility.yul\":14751:14753   */\n      0x40\n        /* \"#utility.yul\":14746:14748   */\n      0x20\n        /* \"#utility.yul\":14731:14749   */\n      dup3\n      add\n        /* \"#utility.yul\":14724:14754   */\n      dup2\n      swap1\n      mstore\n        /* \"#utility.yul\":14790:14791   */\n      0x06\n        /* \"#utility.yul\":14770:14788   */\n      swap1\n      dup3\n      add\n        /* \"#utility.yul\":14763:14792   */\n      mstore\n      shl(0xd2, 0x18d85b98d95b)\n        /* \"#utility.yul\":14823:14825   */\n      0x60\n        /* \"#utility.yul\":14808:14826   */\n      dup3\n      add\n        /* \"#utility.yul\":14801:14837   */\n      mstore\n        /* \"#utility.yul\":14869:14872   */\n      0x80\n        /* \"#utility.yul\":14854:14873   */\n      add\n      swap2\n        /* \"#utility.yul\":14443:14879   */\n      swap1\n      pop\n      jump\t// out\n        /* \"#utility.yul\":15094:15221   */\n    tag_469:\n        /* \"#utility.yul\":15155:15165   */\n      0x4e487b71\n        /* \"#utility.yul\":15150:15153   */\n      0xe0\n        /* \"#utility.yul\":15146:15166   */\n      shl\n        /* \"#utility.yul\":15143:15144   */\n      0x00\n        /* \"#utility.yul\":15136:15167   */\n      mstore\n        /* \"#utility.yul\":15186:15190   */\n      0x11\n        /* \"#utility.yul\":15183:15184   */\n      0x04\n        /* \"#utility.yul\":15176:15191   */\n      mstore\n        /* \"#utility.yul\":15210:15214   */\n      0x24\n        /* \"#utility.yul\":15207:15208   */\n      0x00\n        /* \"#utility.yul\":15200:15215   */\n      revert\n        /* \"#utility.yul\":15226:15351   */\n    tag_218:\n        /* \"#utility.yul\":15291:15300   */\n      dup1\n      dup3\n      add\n        /* \"#utility.yul\":15312:15322   */\n      dup1\n      dup3\n      gt\n        /* \"#utility.yul\":15309:15345   */\n      iszero\n      tag_131\n      jumpi\n        /* \"#utility.yul\":15325:15343   */\n      tag_131\n      tag_469\n      jump\t// in\n        /* \"#utility.yul\":15356:15484   */\n    tag_221:\n        /* \"#utility.yul\":15423:15432   */\n      dup2\n      dup2\n      sub\n        /* \"#utility.yul\":15444:15455   */\n      dup2\n      dup2\n      gt\n        /* \"#utility.yul\":15441:15478   */\n      iszero\n      tag_131\n      jumpi\n        /* \"#utility.yul\":15458:15476   */\n      tag_131\n      tag_469\n      jump\t// in\n        /* \"#utility.yul\":15489:15616   */\n    tag_233:\n        /* \"#utility.yul\":15550:15560   */\n      0x4e487b71\n        /* \"#utility.yul\":15545:15548   */\n      0xe0\n        /* \"#utility.yul\":15541:15561   */\n      shl\n        /* \"#utility.yul\":15538:15539   */\n      0x00\n        /* \"#utility.yul\":15531:15562   */\n      mstore\n        /* \"#utility.yul\":15581:15585   */\n      0x32\n        /* \"#utility.yul\":15578:15579   */\n      0x04\n        /* \"#utility.yul\":15571:15586   */\n      mstore\n        /* \"#utility.yul\":15605:15609   */\n      0x24\n        /* \"#utility.yul\":15602:15603   */\n      0x00\n        /* \"#utility.yul\":15595:15610   */\n      revert\n        /* \"#utility.yul\":15621:15785   */\n    tag_470:\n        /* \"#utility.yul\":15697:15710   */\n      dup1\n      mload\n        /* \"#utility.yul\":15746:15759   */\n      dup1\n      iszero\n        /* \"#utility.yul\":15739:15760   */\n      iszero\n        /* \"#utility.yul\":15729:15761   */\n      dup2\n      eq\n        /* \"#utility.yul\":15719:15779   */\n      tag_593\n      jumpi\n        /* \"#utility.yul\":15775:15776   */\n      0x00\n        /* \"#utility.yul\":15772:15773   */\n      0x00\n        /* \"#utility.yul\":15765:15777   */\n      revert\n        /* \"#utility.yul\":15719:15779   */\n    tag_593:\n        /* \"#utility.yul\":15621:15785   */\n      swap2\n      swap1\n      pop\n      jump\t// out\n        /* \"#utility.yul\":15790:15992   */\n    tag_270:\n        /* \"#utility.yul\":15857:15863   */\n      0x00\n        /* \"#utility.yul\":15910:15912   */\n      0x20\n        /* \"#utility.yul\":15898:15907   */\n      dup3\n        /* \"#utility.yul\":15889:15896   */\n      dup5\n        /* \"#utility.yul\":15885:15908   */\n      sub\n        /* \"#utility.yul\":15881:15913   */\n      slt\n        /* \"#utility.yul\":15878:15930   */\n      iszero\n      tag_595\n      jumpi\n        /* \"#utility.yul\":15926:15927   */\n      0x00\n        /* \"#utility.yul\":15923:15924   */\n      0x00\n        /* \"#utility.yul\":15916:15928   */\n      revert\n        /* \"#utility.yul\":15878:15930   */\n    tag_595:\n        /* \"#utility.yul\":15949:15986   */\n      tag_481\n        /* \"#utility.yul\":15976:15985   */\n      dup3\n        /* \"#utility.yul\":15949:15986   */\n      tag_470\n      jump\t// in\n        /* \"#utility.yul\":16332:16470   */\n    tag_471:\n        /* \"#utility.yul\":16411:16424   */\n      dup1\n      mload\n        /* \"#utility.yul\":16433:16464   */\n      tag_593\n        /* \"#utility.yul\":16411:16424   */\n      dup2\n        /* \"#utility.yul\":16433:16464   */\n      tag_459\n      jump\t// in\n        /* \"#utility.yul\":16475:17031   */\n    tag_472:\n        /* \"#utility.yul\":16529:16534   */\n      0x00\n        /* \"#utility.yul\":16582:16585   */\n      dup3\n        /* \"#utility.yul\":16575:16579   */\n      0x1f\n        /* \"#utility.yul\":16567:16573   */\n      dup4\n        /* \"#utility.yul\":16563:16580   */\n      add\n        /* \"#utility.yul\":16559:16586   */\n      slt\n        /* \"#utility.yul\":16549:16604   */\n      tag_601\n      jumpi\n        /* \"#utility.yul\":16600:16601   */\n      0x00\n        /* \"#utility.yul\":16597:16598   */\n      0x00\n        /* \"#utility.yul\":16590:16602   */\n      revert\n        /* \"#utility.yul\":16549:16604   */\n    tag_601:\n        /* \"#utility.yul\":16633:16639   */\n      dup2\n        /* \"#utility.yul\":16627:16640   */\n      mload\n      sub(shl(0x40, 0x01), 0x01)\n        /* \"#utility.yul\":16655:16661   */\n      dup2\n        /* \"#utility.yul\":16652:16682   */\n      gt\n        /* \"#utility.yul\":16649:16705   */\n      iszero\n      tag_603\n      jumpi\n        /* \"#utility.yul\":16685:16703   */\n      tag_603\n      tag_213\n      jump\t// in\n    tag_603:\n        /* \"#utility.yul\":16729:16788   */\n      tag_604\n        /* \"#utility.yul\":16776:16778   */\n      0x1f\n        /* \"#utility.yul\":16753:16770   */\n      dup3\n      add\n      not(0x1f)\n        /* \"#utility.yul\":16749:16780   */\n      and\n        /* \"#utility.yul\":16782:16786   */\n      0x20\n        /* \"#utility.yul\":16745:16787   */\n      add\n        /* \"#utility.yul\":16729:16788   */\n      tag_467\n      jump\t// in\n    tag_604:\n        /* \"#utility.yul\":16813:16819   */\n      dup2\n        /* \"#utility.yul\":16804:16811   */\n      dup2\n        /* \"#utility.yul\":16797:16820   */\n      mstore\n        /* \"#utility.yul\":16867:16870   */\n      dup5\n        /* \"#utility.yul\":16860:16864   */\n      0x20\n        /* \"#utility.yul\":16851:16857   */\n      dup4\n        /* \"#utility.yul\":16843:16849   */\n      dup7\n        /* \"#utility.yul\":16839:16858   */\n      add\n        /* \"#utility.yul\":16835:16865   */\n      add\n        /* \"#utility.yul\":16832:16871   */\n      gt\n        /* \"#utility.yul\":16829:16888   */\n      iszero\n      tag_605\n      jumpi\n        /* \"#utility.yul\":16884:16885   */\n      0x00\n        /* \"#utility.yul\":16881:16882   */\n      0x00\n        /* \"#utility.yul\":16874:16886   */\n      revert\n        /* \"#utility.yul\":16829:16888   */\n    tag_605:\n        /* \"#utility.yul\":16942:16948   */\n      dup2\n        /* \"#utility.yul\":16935:16939   */\n      0x20\n        /* \"#utility.yul\":16927:16933   */\n      dup6\n        /* \"#utility.yul\":16923:16940   */\n      add\n        /* \"#utility.yul\":16916:16920   */\n      0x20\n        /* \"#utility.yul\":16907:16914   */\n      dup4\n        /* \"#utility.yul\":16903:16921   */\n      add\n        /* \"#utility.yul\":16897:16949   */\n      mcopy\n        /* \"#utility.yul\":16998:16999   */\n      0x00\n        /* \"#utility.yul\":16969:16989   */\n      swap2\n      dup2\n      add\n        /* \"#utility.yul\":16991:16995   */\n      0x20\n        /* \"#utility.yul\":16965:16996   */\n      add\n        /* \"#utility.yul\":16958:17000   */\n      swap2\n      swap1\n      swap2\n      mstore\n        /* \"#utility.yul\":16973:16980   */\n      swap4\n        /* \"#utility.yul\":16475:17031   */\n      swap3\n      pop\n      pop\n      pop\n      jump\t// out\n        /* \"#utility.yul\":17036:18766   */\n    tag_291:\n        /* \"#utility.yul\":17132:17138   */\n      0x00\n        /* \"#utility.yul\":17185:17187   */\n      0x20\n        /* \"#utility.yul\":17173:17182   */\n      dup3\n        /* \"#utility.yul\":17164:17171   */\n      dup5\n        /* \"#utility.yul\":17160:17183   */\n      sub\n        /* \"#utility.yul\":17156:17188   */\n      slt\n        /* \"#utility.yul\":17153:17205   */\n      iszero\n      tag_607\n      jumpi\n        /* \"#utility.yul\":17201:17202   */\n      0x00\n        /* \"#utility.yul\":17198:17199   */\n      0x00\n        /* \"#utility.yul\":17191:17203   */\n      revert\n        /* \"#utility.yul\":17153:17205   */\n    tag_607:\n        /* \"#utility.yul\":17234:17243   */\n      dup2\n        /* \"#utility.yul\":17228:17244   */\n      mload\n      sub(shl(0x40, 0x01), 0x01)\n        /* \"#utility.yul\":17259:17265   */\n      dup2\n        /* \"#utility.yul\":17256:17286   */\n      gt\n        /* \"#utility.yul\":17253:17303   */\n      iszero\n      tag_608\n      jumpi\n        /* \"#utility.yul\":17299:17300   */\n      0x00\n        /* \"#utility.yul\":17296:17297   */\n      0x00\n        /* \"#utility.yul\":17289:17301   */\n      revert\n        /* \"#utility.yul\":17253:17303   */\n    tag_608:\n        /* \"#utility.yul\":17322:17344   */\n      dup3\n      add\n        /* \"#utility.yul\":17378:17384   */\n      0x0160\n        /* \"#utility.yul\":17360:17376   */\n      dup2\n      dup6\n      sub\n        /* \"#utility.yul\":17356:17385   */\n      slt\n        /* \"#utility.yul\":17353:17402   */\n      iszero\n      tag_609\n      jumpi\n        /* \"#utility.yul\":17398:17399   */\n      0x00\n        /* \"#utility.yul\":17395:17396   */\n      0x00\n        /* \"#utility.yul\":17388:17400   */\n      revert\n        /* \"#utility.yul\":17353:17402   */\n    tag_609:\n        /* \"#utility.yul\":17424:17446   */\n      tag_610\n      tag_466\n      jump\t// in\n    tag_610:\n        /* \"#utility.yul\":17469:17502   */\n      tag_611\n        /* \"#utility.yul\":17499:17501   */\n      dup3\n        /* \"#utility.yul\":17469:17502   */\n      tag_471\n      jump\t// in\n    tag_611:\n        /* \"#utility.yul\":17462:17467   */\n      dup2\n        /* \"#utility.yul\":17455:17503   */\n      mstore\n        /* \"#utility.yul\":17535:17577   */\n      tag_612\n        /* \"#utility.yul\":17573:17575   */\n      0x20\n        /* \"#utility.yul\":17569:17571   */\n      dup4\n        /* \"#utility.yul\":17565:17576   */\n      add\n        /* \"#utility.yul\":17535:17577   */\n      tag_471\n      jump\t// in\n    tag_612:\n        /* \"#utility.yul\":17530:17532   */\n      0x20\n        /* \"#utility.yul\":17523:17528   */\n      dup3\n        /* \"#utility.yul\":17519:17533   */\n      add\n        /* \"#utility.yul\":17512:17578   */\n      mstore\n        /* \"#utility.yul\":17617:17619   */\n      0x40\n        /* \"#utility.yul\":17613:17615   */\n      dup3\n        /* \"#utility.yul\":17609:17620   */\n      add\n        /* \"#utility.yul\":17603:17621   */\n      mload\n      sub(shl(0x40, 0x01), 0x01)\n        /* \"#utility.yul\":17636:17644   */\n      dup2\n        /* \"#utility.yul\":17633:17665   */\n      gt\n        /* \"#utility.yul\":17630:17682   */\n      iszero\n      tag_613\n      jumpi\n        /* \"#utility.yul\":17678:17679   */\n      0x00\n        /* \"#utility.yul\":17675:17676   */\n      0x00\n        /* \"#utility.yul\":17668:17680   */\n      revert\n        /* \"#utility.yul\":17630:17682   */\n    tag_613:\n        /* \"#utility.yul\":17714:17770   */\n      tag_614\n        /* \"#utility.yul\":17762:17769   */\n      dup7\n        /* \"#utility.yul\":17751:17759   */\n      dup3\n        /* \"#utility.yul\":17747:17749   */\n      dup6\n        /* \"#utility.yul\":17743:17760   */\n      add\n        /* \"#utility.yul\":17714:17770   */\n      tag_472\n      jump\t// in\n    tag_614:\n        /* \"#utility.yul\":17709:17711   */\n      0x40\n        /* \"#utility.yul\":17702:17707   */\n      dup4\n        /* \"#utility.yul\":17698:17712   */\n      add\n        /* \"#utility.yul\":17691:17771   */\n      mstore\n      pop\n        /* \"#utility.yul\":17810:17812   */\n      0x60\n        /* \"#utility.yul\":17806:17808   */\n      dup3\n        /* \"#utility.yul\":17802:17813   */\n      add\n        /* \"#utility.yul\":17796:17814   */\n      mload\n      sub(shl(0x40, 0x01), 0x01)\n        /* \"#utility.yul\":17829:17837   */\n      dup2\n        /* \"#utility.yul\":17826:17858   */\n      gt\n        /* \"#utility.yul\":17823:17875   */\n      iszero\n      tag_615\n      jumpi\n        /* \"#utility.yul\":17871:17872   */\n      0x00\n        /* \"#utility.yul\":17868:17869   */\n      0x00\n        /* \"#utility.yul\":17861:17873   */\n      revert\n        /* \"#utility.yul\":17823:17875   */\n    tag_615:\n        /* \"#utility.yul\":17907:17963   */\n      tag_616\n        /* \"#utility.yul\":17955:17962   */\n      dup7\n        /* \"#utility.yul\":17944:17952   */\n      dup3\n        /* \"#utility.yul\":17940:17942   */\n      dup6\n        /* \"#utility.yul\":17936:17953   */\n      add\n        /* \"#utility.yul\":17907:17963   */\n      tag_472\n      jump\t// in\n    tag_616:\n        /* \"#utility.yul\":17902:17904   */\n      0x60\n        /* \"#utility.yul\":17895:17900   */\n      dup4\n        /* \"#utility.yul\":17891:17905   */\n      add\n        /* \"#utility.yul\":17884:17964   */\n      mstore\n      pop\n        /* \"#utility.yul\":17997:18040   */\n      tag_617\n        /* \"#utility.yul\":18035:18038   */\n      0x80\n        /* \"#utility.yul\":18031:18033   */\n      dup4\n        /* \"#utility.yul\":18027:18039   */\n      add\n        /* \"#utility.yul\":17997:18040   */\n      tag_471\n      jump\t// in\n    tag_617:\n        /* \"#utility.yul\":17991:17994   */\n      0x80\n        /* \"#utility.yul\":17984:17989   */\n      dup3\n        /* \"#utility.yul\":17980:17995   */\n      add\n        /* \"#utility.yul\":17973:18041   */\n      mstore\n        /* \"#utility.yul\":18074:18114   */\n      tag_618\n        /* \"#utility.yul\":18109:18112   */\n      0xa0\n        /* \"#utility.yul\":18105:18107   */\n      dup4\n        /* \"#utility.yul\":18101:18113   */\n      add\n        /* \"#utility.yul\":18074:18114   */\n      tag_470\n      jump\t// in\n    tag_618:\n        /* \"#utility.yul\":18068:18071   */\n      0xa0\n        /* \"#utility.yul\":18061:18066   */\n      dup3\n        /* \"#utility.yul\":18057:18072   */\n      add\n        /* \"#utility.yul\":18050:18115   */\n      mstore\n        /* \"#utility.yul\":18154:18157   */\n      0xc0\n        /* \"#utility.yul\":18150:18152   */\n      dup3\n        /* \"#utility.yul\":18146:18158   */\n      add\n        /* \"#utility.yul\":18140:18159   */\n      mload\n      sub(shl(0x40, 0x01), 0x01)\n        /* \"#utility.yul\":18174:18182   */\n      dup2\n        /* \"#utility.yul\":18171:18203   */\n      gt\n        /* \"#utility.yul\":18168:18220   */\n      iszero\n      tag_619\n      jumpi\n        /* \"#utility.yul\":18216:18217   */\n      0x00\n        /* \"#utility.yul\":18213:18214   */\n      0x00\n        /* \"#utility.yul\":18206:18218   */\n      revert\n        /* \"#utility.yul\":18168:18220   */\n    tag_619:\n        /* \"#utility.yul\":18253:18309   */\n      tag_620\n        /* \"#utility.yul\":18301:18308   */\n      dup7\n        /* \"#utility.yul\":18290:18298   */\n      dup3\n        /* \"#utility.yul\":18286:18288   */\n      dup6\n        /* \"#utility.yul\":18282:18299   */\n      add\n        /* \"#utility.yul\":18253:18309   */\n      tag_472\n      jump\t// in\n    tag_620:\n        /* \"#utility.yul\":18247:18250   */\n      0xc0\n        /* \"#utility.yul\":18240:18245   */\n      dup4\n        /* \"#utility.yul\":18236:18251   */\n      add\n        /* \"#utility.yul\":18229:18310   */\n      mstore\n      pop\n        /* \"#utility.yul\":18349:18352   */\n      0xe0\n        /* \"#utility.yul\":18345:18347   */\n      dup3\n        /* \"#utility.yul\":18341:18353   */\n      add\n        /* \"#utility.yul\":18335:18354   */\n      mload\n      sub(shl(0x40, 0x01), 0x01)\n        /* \"#utility.yul\":18369:18377   */\n      dup2\n        /* \"#utility.yul\":18366:18398   */\n      gt\n        /* \"#utility.yul\":18363:18415   */\n      iszero\n      tag_621\n      jumpi\n        /* \"#utility.yul\":18411:18412   */\n      0x00\n        /* \"#utility.yul\":18408:18409   */\n      0x00\n        /* \"#utility.yul\":18401:18413   */\n      revert\n        /* \"#utility.yul\":18363:18415   */\n    tag_621:\n        /* \"#utility.yul\":18448:18504   */\n      tag_622\n        /* \"#utility.yul\":18496:18503   */\n      dup7\n        /* \"#utility.yul\":18485:18493   */\n      dup3\n        /* \"#utility.yul\":18481:18483   */\n      dup6\n        /* \"#utility.yul\":18477:18494   */\n      add\n        /* \"#utility.yul\":18448:18504   */\n      tag_472\n      jump\t// in\n    tag_622:\n        /* \"#utility.yul\":18442:18445   */\n      0xe0\n        /* \"#utility.yul\":18435:18440   */\n      dup4\n        /* \"#utility.yul\":18431:18446   */\n      add\n        /* \"#utility.yul\":18424:18505   */\n      mstore\n      pop\n        /* \"#utility.yul\":18538:18581   */\n      tag_623\n        /* \"#utility.yul\":18576:18579   */\n      0x0100\n        /* \"#utility.yul\":18572:18574   */\n      dup4\n        /* \"#utility.yul\":18568:18580   */\n      add\n        /* \"#utility.yul\":18538:18581   */\n      tag_471\n      jump\t// in\n    tag_623:\n        /* \"#utility.yul\":18532:18535   */\n      0x0100\n        /* \"#utility.yul\":18525:18530   */\n      dup3\n        /* \"#utility.yul\":18521:18536   */\n      add\n        /* \"#utility.yul\":18514:18582   */\n      mstore\n        /* \"#utility.yul\":18615:18658   */\n      tag_624\n        /* \"#utility.yul\":18653:18656   */\n      0x0120\n        /* \"#utility.yul\":18649:18651   */\n      dup4\n        /* \"#utility.yul\":18645:18657   */\n      add\n        /* \"#utility.yul\":18615:18658   */\n      tag_471\n      jump\t// in\n    tag_624:\n        /* \"#utility.yul\":18609:18612   */\n      0x0120\n        /* \"#utility.yul\":18602:18607   */\n      dup3\n        /* \"#utility.yul\":18598:18613   */\n      add\n        /* \"#utility.yul\":18591:18659   */\n      mstore\n        /* \"#utility.yul\":18692:18735   */\n      tag_625\n        /* \"#utility.yul\":18730:18733   */\n      0x0140\n        /* \"#utility.yul\":18726:18728   */\n      dup4\n        /* \"#utility.yul\":18722:18734   */\n      add\n        /* \"#utility.yul\":18692:18735   */\n      tag_471\n      jump\t// in\n    tag_625:\n        /* \"#utility.yul\":18686:18689   */\n      0x0140\n        /* \"#utility.yul\":18675:18690   */\n      dup3\n      add\n        /* \"#utility.yul\":18668:18736   */\n      mstore\n        /* \"#utility.yul\":18679:18684   */\n      swap5\n        /* \"#utility.yul\":17036:18766   */\n      swap4\n      pop\n      pop\n      pop\n      pop\n      jump\t// out\n        /* \"#utility.yul\":18771:18939   */\n    tag_306:\n        /* \"#utility.yul\":18844:18853   */\n      dup1\n      dup3\n      mul\n        /* \"#utility.yul\":18875:18884   */\n      dup2\n      iszero\n        /* \"#utility.yul\":18892:18907   */\n      dup3\n      dup3\n      div\n        /* \"#utility.yul\":18886:18908   */\n      dup5\n      eq\n        /* \"#utility.yul\":18872:18909   */\n      or\n        /* \"#utility.yul\":18862:18933   */\n      tag_131\n      jumpi\n        /* \"#utility.yul\":18913:18931   */\n      tag_131\n      tag_469\n      jump\t// in\n        /* \"#utility.yul\":18944:19184   */\n    tag_311:\n      sub(shl(0x80, 0x01), 0x01)\n        /* \"#utility.yul\":19013:19055   */\n      dup2\n      dup2\n      and\n        /* \"#utility.yul\":19057:19099   */\n      dup4\n      dup3\n      and\n        /* \"#utility.yul\":19009:19100   */\n      add\n      swap1\n        /* \"#utility.yul\":19112:19155   */\n      dup2\n      gt\n        /* \"#utility.yul\":19109:19178   */\n      iszero\n      tag_131\n      jumpi\n        /* \"#utility.yul\":19158:19176   */\n      tag_131\n      tag_469\n      jump\t// in\n        /* \"#utility.yul\":19189:19426   */\n    tag_318:\n        /* \"#utility.yul\":19228:19231   */\n      0x00\n      sub(shl(0x80, 0x01), 0x01)\n        /* \"#utility.yul\":19265:19270   */\n      dup3\n        /* \"#utility.yul\":19261:19307   */\n      and\n      sub(shl(0x80, 0x01), 0x01)\n        /* \"#utility.yul\":19322:19329   */\n      dup2\n        /* \"#utility.yul\":19319:19366   */\n      sub\n        /* \"#utility.yul\":19316:19389   */\n      tag_634\n      jumpi\n        /* \"#utility.yul\":19369:19387   */\n      tag_634\n      tag_469\n      jump\t// in\n    tag_634:\n        /* \"#utility.yul\":19418:19419   */\n      0x01\n        /* \"#utility.yul\":19405:19420   */\n      add\n      swap3\n        /* \"#utility.yul\":19189:19426   */\n      swap2\n      pop\n      pop\n      jump\t// out\n        /* \"#utility.yul\":19557:20075   */\n    tag_474:\n        /* \"#utility.yul\":19659:19661   */\n      0x1f\n        /* \"#utility.yul\":19654:19657   */\n      dup3\n        /* \"#utility.yul\":19651:19662   */\n      gt\n        /* \"#utility.yul\":19648:20069   */\n      iszero\n      tag_393\n      jumpi\n        /* \"#utility.yul\":19695:19700   */\n      dup1\n        /* \"#utility.yul\":19692:19693   */\n      0x00\n        /* \"#utility.yul\":19685:19701   */\n      mstore\n        /* \"#utility.yul\":19739:19743   */\n      0x20\n        /* \"#utility.yul\":19736:19737   */\n      0x00\n        /* \"#utility.yul\":19726:19744   */\n      keccak256\n        /* \"#utility.yul\":19809:19811   */\n      0x1f\n        /* \"#utility.yul\":19797:19807   */\n      dup5\n        /* \"#utility.yul\":19793:19812   */\n      add\n        /* \"#utility.yul\":19790:19791   */\n      0x05\n        /* \"#utility.yul\":19786:19813   */\n      shr\n        /* \"#utility.yul\":19780:19784   */\n      dup2\n        /* \"#utility.yul\":19776:19814   */\n      add\n        /* \"#utility.yul\":19845:19849   */\n      0x20\n        /* \"#utility.yul\":19833:19843   */\n      dup6\n        /* \"#utility.yul\":19830:19850   */\n      lt\n        /* \"#utility.yul\":19827:19874   */\n      iszero\n      tag_638\n      jumpi\n      pop\n        /* \"#utility.yul\":19868:19872   */\n      dup1\n        /* \"#utility.yul\":19827:19874   */\n    tag_638:\n        /* \"#utility.yul\":19923:19925   */\n      0x1f\n        /* \"#utility.yul\":19918:19921   */\n      dup5\n        /* \"#utility.yul\":19914:19926   */\n      add\n        /* \"#utility.yul\":19911:19912   */\n      0x05\n        /* \"#utility.yul\":19907:19927   */\n      shr\n        /* \"#utility.yul\":19901:19905   */\n      dup3\n        /* \"#utility.yul\":19897:19928   */\n      add\n        /* \"#utility.yul\":19887:19928   */\n      swap2\n      pop\n        /* \"#utility.yul\":19978:20059   */\n    tag_639:\n        /* \"#utility.yul\":19996:19998   */\n      dup2\n        /* \"#utility.yul\":19989:19994   */\n      dup2\n        /* \"#utility.yul\":19986:19999   */\n      lt\n        /* \"#utility.yul\":19978:20059   */\n      iszero\n      tag_641\n      jumpi\n        /* \"#utility.yul\":20055:20056   */\n      0x00\n        /* \"#utility.yul\":20041:20057   */\n      dup2\n      sstore\n        /* \"#utility.yul\":20022:20023   */\n      0x01\n        /* \"#utility.yul\":20011:20024   */\n      add\n        /* \"#utility.yul\":19978:20059   */\n      jump(tag_639)\n    tag_641:\n        /* \"#utility.yul\":19982:19985   */\n      pop\n      pop\n        /* \"#utility.yul\":19557:20075   */\n      pop\n      pop\n      pop\n      jump\t// out\n        /* \"#utility.yul\":20251:21550   */\n    tag_337:\n        /* \"#utility.yul\":20377:20380   */\n      dup2\n        /* \"#utility.yul\":20371:20381   */\n      mload\n      sub(shl(0x40, 0x01), 0x01)\n        /* \"#utility.yul\":20396:20402   */\n      dup2\n        /* \"#utility.yul\":20393:20423   */\n      gt\n        /* \"#utility.yul\":20390:20446   */\n      iszero\n      tag_645\n      jumpi\n        /* \"#utility.yul\":20426:20444   */\n      tag_645\n      tag_213\n      jump\t// in\n    tag_645:\n        /* \"#utility.yul\":20455:20552   */\n      tag_646\n        /* \"#utility.yul\":20545:20551   */\n      dup2\n        /* \"#utility.yul\":20505:20543   */\n      tag_647\n        /* \"#utility.yul\":20537:20541   */\n      dup5\n        /* \"#utility.yul\":20531:20542   */\n      sload\n        /* \"#utility.yul\":20505:20543   */\n      tag_121\n      jump\t// in\n    tag_647:\n        /* \"#utility.yul\":20499:20503   */\n      dup5\n        /* \"#utility.yul\":20455:20552   */\n      tag_474\n      jump\t// in\n    tag_646:\n        /* \"#utility.yul\":20601:20605   */\n      0x20\n        /* \"#utility.yul\":20632:20634   */\n      0x1f\n        /* \"#utility.yul\":20621:20635   */\n      dup3\n      gt\n        /* \"#utility.yul\":20649:20650   */\n      0x01\n        /* \"#utility.yul\":20644:21293   */\n      dup2\n      eq\n      tag_649\n      jumpi\n        /* \"#utility.yul\":21337:21338   */\n      0x00\n        /* \"#utility.yul\":21354:21360   */\n      dup4\n        /* \"#utility.yul\":21351:21440   */\n      iszero\n      tag_650\n      jumpi\n      pop\n        /* \"#utility.yul\":21406:21425   */\n      dup5\n      dup3\n      add\n        /* \"#utility.yul\":21400:21426   */\n      mload\n        /* \"#utility.yul\":21351:21440   */\n    tag_650:\n      not(0x00)\n        /* \"#utility.yul\":20208:20209   */\n      0x03\n        /* \"#utility.yul\":20204:20215   */\n      dup6\n      swap1\n      shl\n        /* \"#utility.yul\":20200:20224   */\n      shr\n        /* \"#utility.yul\":20196:20225   */\n      not\n        /* \"#utility.yul\":20186:20226   */\n      and\n        /* \"#utility.yul\":20232:20233   */\n      0x01\n        /* \"#utility.yul\":20228:20239   */\n      dup5\n      swap1\n      shl\n        /* \"#utility.yul\":20183:20240   */\n      or\n        /* \"#utility.yul\":21453:21534   */\n      dup5\n      sstore\n        /* \"#utility.yul\":20614:21544   */\n      jump(tag_641)\n        /* \"#utility.yul\":20644:21293   */\n    tag_649:\n        /* \"#utility.yul\":19504:19505   */\n      0x00\n        /* \"#utility.yul\":19497:19511   */\n      dup5\n      dup2\n      mstore\n        /* \"#utility.yul\":19541:19545   */\n      0x20\n        /* \"#utility.yul\":19528:19546   */\n      dup2\n      keccak256\n      not(0x1f)\n        /* \"#utility.yul\":20680:20700   */\n      dup6\n      and\n      swap2\n        /* \"#utility.yul\":20798:21020   */\n    tag_653:\n        /* \"#utility.yul\":20812:20819   */\n      dup3\n        /* \"#utility.yul\":20809:20810   */\n      dup2\n        /* \"#utility.yul\":20806:20820   */\n      lt\n        /* \"#utility.yul\":20798:21020   */\n      iszero\n      tag_655\n      jumpi\n        /* \"#utility.yul\":20894:20913   */\n      dup8\n      dup6\n      add\n        /* \"#utility.yul\":20888:20914   */\n      mload\n        /* \"#utility.yul\":20873:20915   */\n      dup3\n      sstore\n        /* \"#utility.yul\":21001:21005   */\n      0x20\n        /* \"#utility.yul\":20986:21006   */\n      swap5\n      dup6\n      add\n      swap5\n        /* \"#utility.yul\":20954:20955   */\n      0x01\n        /* \"#utility.yul\":20942:20956   */\n      swap1\n      swap3\n      add\n      swap2\n        /* \"#utility.yul\":20828:20840   */\n      add\n        /* \"#utility.yul\":20798:21020   */\n      jump(tag_653)\n    tag_655:\n        /* \"#utility.yul\":20802:20805   */\n      pop\n        /* \"#utility.yul\":21048:21054   */\n      dup5\n        /* \"#utility.yul\":21039:21046   */\n      dup3\n        /* \"#utility.yul\":21036:21055   */\n      lt\n        /* \"#utility.yul\":21033:21234   */\n      iszero\n      tag_656\n      jumpi\n        /* \"#utility.yul\":21109:21128   */\n      dup7\n      dup5\n      add\n        /* \"#utility.yul\":21103:21129   */\n      mload\n      not(0x00)\n        /* \"#utility.yul\":21192:21193   */\n      0x03\n        /* \"#utility.yul\":21188:21202   */\n      dup8\n      swap1\n      shl\n        /* \"#utility.yul\":21204:21207   */\n      0xf8\n        /* \"#utility.yul\":21184:21208   */\n      and\n        /* \"#utility.yul\":21180:21217   */\n      shr\n        /* \"#utility.yul\":21176:21218   */\n      not\n        /* \"#utility.yul\":21161:21219   */\n      and\n        /* \"#utility.yul\":21146:21220   */\n      dup2\n      sstore\n        /* \"#utility.yul\":21033:21234   */\n    tag_656:\n      pop\n      pop\n      pop\n      pop\n        /* \"#utility.yul\":21280:21281   */\n      0x01\n        /* \"#utility.yul\":21264:21278   */\n      swap1\n      dup2\n      shl\n        /* \"#utility.yul\":21260:21282   */\n      add\n        /* \"#utility.yul\":21247:21283   */\n      swap1\n      sstore\n      pop\n        /* \"#utility.yul\":20251:21550   */\n      jump\t// out\n        /* \"#utility.yul\":21555:21993   */\n    tag_362:\n        /* \"#utility.yul\":21781:21827   */\n      tag_658\n        /* \"#utility.yul\":21817:21826   */\n      dup2\n        /* \"#utility.yul\":21809:21815   */\n      dup4\n        /* \"#utility.yul\":21781:21827   */\n      tag_463\n      jump\t// in\n    tag_658:\n        /* \"#utility.yul\":21863:21865   */\n      0x40\n        /* \"#utility.yul\":21858:21860   */\n      0x20\n        /* \"#utility.yul\":21843:21861   */\n      dup3\n      add\n        /* \"#utility.yul\":21836:21866   */\n      dup2\n      swap1\n      mstore\n        /* \"#utility.yul\":21902:21903   */\n      0x08\n        /* \"#utility.yul\":21882:21900   */\n      swap1\n      dup3\n      add\n        /* \"#utility.yul\":21875:21904   */\n      mstore\n      shl(0xc0, 0x636f6d706c657465)\n        /* \"#utility.yul\":21935:21937   */\n      0x60\n        /* \"#utility.yul\":21920:21938   */\n      dup3\n      add\n        /* \"#utility.yul\":21913:21951   */\n      mstore\n        /* \"#utility.yul\":21983:21986   */\n      0x80\n        /* \"#utility.yul\":21968:21987   */\n      add\n      swap2\n        /* \"#utility.yul\":21555:21993   */\n      swap1\n      pop\n      jump\t// out\n        /* \"#utility.yul\":21998:22249   */\n    tag_369:\n        /* \"#utility.yul\":22068:22074   */\n      0x00\n        /* \"#utility.yul\":22121:22123   */\n      0x20\n        /* \"#utility.yul\":22109:22118   */\n      dup3\n        /* \"#utility.yul\":22100:22107   */\n      dup5\n        /* \"#utility.yul\":22096:22119   */\n      sub\n        /* \"#utility.yul\":22092:22124   */\n      slt\n        /* \"#utility.yul\":22089:22141   */\n      iszero\n      tag_660\n      jumpi\n        /* \"#utility.yul\":22137:22138   */\n      0x00\n        /* \"#utility.yul\":22134:22135   */\n      0x00\n        /* \"#utility.yul\":22127:22139   */\n      revert\n        /* \"#utility.yul\":22089:22141   */\n    tag_660:\n        /* \"#utility.yul\":22169:22178   */\n      dup2\n        /* \"#utility.yul\":22163:22179   */\n      mload\n        /* \"#utility.yul\":22188:22219   */\n      tag_481\n        /* \"#utility.yul\":22213:22218   */\n      dup2\n        /* \"#utility.yul\":22188:22219   */\n      tag_465\n      jump\t// in\n        /* \"#utility.yul\":22254:22471   */\n    tag_376:\n        /* \"#utility.yul\":22294:22295   */\n      0x00\n        /* \"#utility.yul\":22320:22321   */\n      dup3\n        /* \"#utility.yul\":22310:22442   */\n      tag_663\n      jumpi\n        /* \"#utility.yul\":22364:22374   */\n      0x4e487b71\n        /* \"#utility.yul\":22359:22362   */\n      0xe0\n        /* \"#utility.yul\":22355:22375   */\n      shl\n        /* \"#utility.yul\":22352:22353   */\n      0x00\n        /* \"#utility.yul\":22345:22376   */\n      mstore\n        /* \"#utility.yul\":22399:22403   */\n      0x12\n        /* \"#utility.yul\":22396:22397   */\n      0x04\n        /* \"#utility.yul\":22389:22404   */\n      mstore\n        /* \"#utility.yul\":22427:22431   */\n      0x24\n        /* \"#utility.yul\":22424:22425   */\n      0x00\n        /* \"#utility.yul\":22417:22432   */\n      revert\n        /* \"#utility.yul\":22310:22442   */\n    tag_663:\n      pop\n        /* \"#utility.yul\":22456:22465   */\n      div\n      swap1\n        /* \"#utility.yul\":22254:22471   */\n      jump\t// out\n\n    auxdata: 0xa2646970667358221220fe441f2200999fccf144582b661197f1b64bc8faacf011d858164b0aed29005064736f6c634300081e0033\n}\n",
				"bytecode": {
					"linkReferences": {},
					"object": "6080604052348015600e575f5ffd5b5060015f556129d7806100205f395ff3fe608060405260043610610105575f3560e01c80637338c5aa11610092578063c60c14d911610062578063c60c14d9146102e0578063cf31fb46146102f3578063f2fde38b14610312578063f8c8765e14610331578063ff8ddee314610350575f5ffd5b80637338c5aa1461026b578063832dbdd9146102985780638c639a85146102b75780638da5cb5b146102cc575f5ffd5b80632134b6f6116100d85780632134b6f61461019d5780632a58b330146101d45780632fae20951461020b5780635059e95b14610238578063715018a614610257575f5ffd5b8063117d41281461010957806312e8e2c31461013e57806319c8ccef1461015f5780631b4257f61461017e575b5f5ffd5b348015610114575f5ffd5b50610128610123366004611ebb565b6103e3565b60405161013591906120a6565b60405180910390f35b348015610149575f5ffd5b5061015d6101583660046120b8565b61060e565b005b34801561016a575f5ffd5b5061015d6101793660046120e3565b61067c565b348015610189575f5ffd5b5061015d61019836600461213f565b61085c565b3480156101a8575f5ffd5b506005546101bc906001600160a01b031681565b6040516001600160a01b039091168152602001610135565b3480156101df575f5ffd5b506001546101f3906001600160801b031681565b6040516001600160801b039091168152602001610135565b348015610216575f5ffd5b5061022a610225366004612176565b610ac6565b6040516101359291906121a8565b348015610243575f5ffd5b506004546101bc906001600160a01b031681565b348015610262575f5ffd5b5061015d610e60565b348015610276575f5ffd5b5061028a610285366004612213565b610e73565b604051908152602001610135565b3480156102a3575f5ffd5b506006546101bc906001600160a01b031681565b3480156102c2575f5ffd5b5061028a60075481565b3480156102d7575f5ffd5b506101bc610eb6565b61015d6102ee366004612323565b610ee4565b3480156102fe575f5ffd5b5061015d61030d3660046123aa565b6116e1565b34801561031d575f5ffd5b5061015d61032c366004612213565b611ad5565b34801561033c575f5ffd5b5061015d61034b3660046123f2565b611b12565b34801561035b575f5ffd5b506103cf61036a366004611ebb565b600260208190525f91825260409091208054600182015492820154600483015460058401546006909401546001600160801b03938416956001600160a01b03169492841693919260ff81169261010090910481169180821691600160801b9091041688565b604051610135989796959493929190612440565b6103eb611e5e565b6001600160801b038083165f90815260026020818152604080842081516101208101835281548716815260018201546001600160a01b0316818501529381015490951683820152600385018054825181850281018501909352808352949593946060860193879084015b82821015610559575f84815260209081902060408051608081019091526003850290910180546001600160801b03168252600181018054929391929184019161049d906124b6565b80601f01602080910402602001604051908101604052809291908181526020018280546104c9906124b6565b80156105145780601f106104eb57610100808354040283529160200191610514565b820191905f5260205f20905b8154815290600101906020018083116104f757829003601f168201915b5050509183525050600291909101546001600160801b03808216602080850191909152600160801b909204166040909201919091529082526001929092019101610455565b5050509082525060048201546020820152600582015460409091019060ff16600681111561058957610589611f9a565b600681111561059a5761059a611f9a565b815260058201546001600160801b03610100909104811660208301526006909201548083166040830152600160801b900482166060909101528151919250165f03610608576040516305e8f38560e41b81526001600160801b03841660048201526024015b60405180910390fd5b92915050565b610616611d15565b603281111561063b57604051632be52f1560e21b8152600481018290526024016105ff565b60075460408051918252602082018390527fd347e206f25a89b917fc9482f1a2d294d749baa4dc9bde7fb495ee11fe491643910160405180910390a1600755565b6006546001600160a01b031633146106a7576040516392b2f95960e01b815260040160405180910390fd5b6001600160801b038084165f908152600260205260408120805490921690036106ee576040516305e8f38560e41b81526001600160801b03851660048201526024016105ff565b60028101546001600160801b0383811691161461074657600281015460405163d52781e960e01b81526001600160a01b03871660048201526001600160801b03918216602482015290831660448201526064016105ff565b60058082015460ff16600681111561076057610760611f9a565b148061078457506006600582015460ff16600681111561078257610782611f9a565b145b156107ab57600581015460405163388a923d60e01b81526105ff9160ff16906004016124ee565b5f8360068111156107be576107be611f9a565b036107e75760058101546040516314fdbd5f60e11b81526105ff9160ff1690859060040161252e565b60058101805460ff811691859160ff1916600183600681111561080c5761080c611f9a565b0217905550846001600160801b03167f8c649b2ad43b6449bbeee9487a5efe9f7fcded9570a17906d76f159a34713011828660405161084c92919061252e565b60405180910390a2505050505050565b6006546001600160a01b03163314610887576040516392b2f95960e01b815260040160405180910390fd5b61088f611d47565b6001600160801b038082165f908152600260205260408120805490921690036108d6576040516305e8f38560e41b81526001600160801b03831660048201526024016105ff565b60018101546001600160a01b03848116911614610920576040516371c4943f60e01b81526001600160a01b03841660048201526001600160801b03831660248201526044016105ff565b5f600582015460ff16600681111561093a5761093a611f9a565b1415801561096157506001600582015460ff16600681111561095e5761095e611f9a565b14155b1561098857600581015460405163388a923d60e01b81526105ff9160ff1690600401612549565b60058101805460ff198116600617909155600482015460ff9091169015610a2257600182015460048301546040515f926001600160a01b031691908381818185875af1925050503d805f81146109f9576040519150601f19603f3d011682016040523d82523d5f602084013e6109fe565b606091505b5050905080610a2057604051634239e21d60e11b815260040160405180910390fd5b505b836001600160a01b0316836001600160801b03167f70af4296e6226c6ef4207be3522ff55647a797b6dc909d2d31f67551e9adac5d8460040154604051610a6b91815260200190565b60405180910390a3826001600160801b03167f8c649b2ad43b6449bbeee9487a5efe9f7fcded9570a17906d76f159a34713011826006604051610aaf92919061252e565b60405180910390a25050610ac260015f55565b5050565b60605f6001600160a01b038516610af057604051632b84073560e11b815260040160405180910390fd5b825f03610b105760405163572fc81560e01b815260040160405180910390fd5b6001600160a01b0385165f9081526003602052604090208054808610610b6d57604080515f8082526020820190925290610b60565b610b4d611e5e565b815260200190600190039081610b455790505b505f935093505050610e58565b5f610b78868861258d565b905081811115610b855750805b5f610b9088836125a0565b9050806001600160401b03811115610baa57610baa61222e565b604051908082528060200260200182016040528015610be357816020015b610bd0611e5e565b815260200190600190039081610bc85790505b5095505f5b81811015610e3e5760025f86610bfe848d61258d565b81548110610c0e57610c0e6125b3565b5f91825260208083206002808404909101546001600160801b0360106001958616026101000a909104811686528583019690965260409485018420855161012081018752815488168152938101546001600160a01b031684840152908101549095168285015260038501805485518184028101840190965280865292959460608701949093919284015b82821015610d9c575f84815260209081902060408051608081019091526003850290910180546001600160801b031682526001810180549293919291840191610ce0906124b6565b80601f0160208091040260200160405190810160405280929190818152602001828054610d0c906124b6565b8015610d575780601f10610d2e57610100808354040283529160200191610d57565b820191905f5260205f20905b815481529060010190602001808311610d3a57829003601f168201915b5050509183525050600291909101546001600160801b03808216602080850191909152600160801b909204166040909201919091529082526001929092019101610c98565b5050509082525060048201546020820152600582015460409091019060ff166006811115610dcc57610dcc611f9a565b6006811115610ddd57610ddd611f9a565b815260058201546001600160801b03610100909104811660208301526006909201548083166040830152600160801b90049091166060909101528751889083908110610e2b57610e2b6125b3565b6020908102919091010152600101610be8565b5082821015610e4f57819450610e53565b5f94505b505050505b935093915050565b610e68611d15565b610e715f611d6f565b565b5f6001600160a01b038216610e9b57604051632b84073560e11b815260040160405180910390fd5b506001600160a01b03165f9081526003602052604090205490565b7f9016d09d72d40fdae2fd8ceac6b6234c7706214fd39c1cd1e609a0528c199300546001600160a01b031690565b6006546001600160a01b03163314610f0f576040516392b2f95960e01b815260040160405180910390fd5b610f17611d47565b60055460405163b2a6cb6360e01b81526001600160801b03851660048201526001600160a01b039091169063b2a6cb6390602401602060405180830381865afa158015610f66573d5f5f3e3d5ffd5b505050506040513d601f19601f82011682018060405250810190610f8a91906125db565b610fa757604051633c4c2fb760e11b815260040160405180910390fd5b80518251141580610fb757508151155b15610fd557604051634482f20960e11b815260040160405180910390fd5b6001600160a01b038416610ffc57604051632b84073560e11b815260040160405180910390fd5b81515f908190819081906001600160401b0381111561101d5761101d61222e565b60405190808252806020026020018201604052801561106d57816020015b604080516080810182525f8082526060602080840182905293830182905282015282525f1990920191018161103b5790505b5090505f5b8651816001600160801b031610156113865760045487515f916001600160a01b031690630c528968908b908b906001600160801b0387169081106110b8576110b86125b3565b60200260200101516040518363ffffffff1660e01b81526004016110f29291906001600160801b0392831681529116602082015260400190565b5f60405180830381865afa15801561110c573d5f5f3e3d5ffd5b505050506040513d5f823e601f3d908101601f19168201604052611133919081019061266a565b80519091506001600160801b03165f0361119b578888836001600160801b031681518110611163576111636125b3565b6020026020010151604051632489e14f60e01b81526004016105ff9291906001600160801b0392831681529116602082015260400190565b8060a001516111f05787826001600160801b0316815181106111bf576111bf6125b3565b60200260200101516040516303c719bb60e51b81526004016105ff91906001600160801b0391909116815260200190565b86826001600160801b03168151811061120b5761120b6125b3565b60200260200101516001600160801b03165f0361123b57604051634482f20960e11b815260040160405180910390fd5b86826001600160801b031681518110611256576112566125b3565b60200260200101516001600160801b031681608001516001600160801b031661127f91906127d0565b611289908761258d565b955086826001600160801b0316815181106112a6576112a66125b3565b6020026020010151846112b991906127e7565b9350846001600160801b03168161014001516001600160801b031611156112e35780610140015194505b6040518060800160405280825f01516001600160801b031681526020018260400151815260200182608001516001600160801b0316815260200188846001600160801b031681518110611338576113386125b3565b60200260200101516001600160801b031681525083836001600160801b031681518110611367576113676125b3565b602002602001018190525050808061137e90612806565b915050611072565b50833410156113b157604051635bb4793160e11b8152600481018590523460248201526044016105ff565b83341115611430575f6001600160a01b0389166113ce86346125a0565b6040515f81818185875af1925050503d805f8114611407576040519150601f19603f3d011682016040523d82523d5f602084013e61140c565b606091505b505090508061142e57604051634239e21d60e11b815260040160405180910390fd5b505b5f60015f9054906101000a90046001600160801b031690505f60025f836001600160801b03166001600160801b031681526020019081526020015f20905081815f015f6101000a8154816001600160801b0302191690836001600160801b0316021790555089816001015f6101000a8154816001600160a01b0302191690836001600160a01b0316021790555088816002015f6101000a8154816001600160801b0302191690836001600160801b031602179055508581600401819055505f816005015f6101000a81548160ff0219169083600681111561151357611513611f9a565b02179055506005810180546001600160801b034281166101000270ffffffffffffffffffffffffffffffff001990921691909117909155848116600160801b029086161760068201555f5b8351811015611603578160030184828151811061157d5761157d6125b3565b6020908102919091018101518254600180820185555f94855293839020825160039092020180546001600160801b0319166001600160801b039092169190911781559181015190928201906115d2908261287b565b5060408201516060909201516001600160801b03908116600160801b0292169190911760029091015560010161155e565b506001600160a01b038a165f8181526003602090815260408083208054600180820183559185529383902060028504018054919094166010026101000a6001600160801b03818102199092168883169182021790945590518a8152908d169392917f6ce2bb89bf47987f896a72756397a4441f5be463c46b39a4102f8108d5ade5e0910160405180910390a4600180546001600160801b0316905f6116a783612806565b91906101000a8154816001600160801b0302191690836001600160801b03160217905550505050505050506116db60015f55565b50505050565b6006546001600160a01b0316331461170c576040516392b2f95960e01b815260040160405180910390fd5b611714611d47565b6001600160801b038083165f9081526002602052604081208054909216900361175b576040516305e8f38560e41b81526001600160801b03841660048201526024016105ff565b60028101546001600160801b038381169116146117b357600281015460405163d52781e960e01b81526001600160a01b03861660048201526001600160801b03918216602482015290831660448201526064016105ff565b6003600582015460ff1660068111156117ce576117ce611f9a565b141580156117f557506004600582015460ff1660068111156117f2576117f2611f9a565b14155b1561181c57600581015460405163388a923d60e01b81526105ff9160ff1690600401612935565b6005818101805460ff19811683179091559054600283015460405163b958832760e01b81526001600160801b03909116600482015260ff909216915f916001600160a01b03169063b958832790602401602060405180830381865afa158015611887573d5f5f3e3d5ffd5b505050506040513d601f19601f820116820180604052508101906118ab9190612967565b90506001600160a01b0381166118e55760028301546040516310de8dc560e31b81526001600160801b0390911660048201526024016105ff565b60048301546007545f90158015906119005750606460075411155b15611938576064600754866004015461191991906127d0565b6119239190612982565b905080856004015461193591906125a0565b91505b81156119b0575f836001600160a01b0316836040515f6040518083038185875af1925050503d805f8114611987576040519150601f19603f3d011682016040523d82523d5f602084013e61198c565b606091505b50509050806119ae57604051634239e21d60e11b815260040160405180910390fd5b505b8015611a2f575f6119bf610eb6565b6001600160a01b0316826040515f6040518083038185875af1925050503d805f8114611a06576040519150601f19603f3d011682016040523d82523d5f602084013e611a0b565b606091505b5050905080611a2d57604051634239e21d60e11b815260040160405180910390fd5b505b60408051838152602081018390526001600160a01b038516916001600160801b038a16917fd2a6aee9265d7e28b871c25501abe610595eecb7dd2f5dde2d7c55a5ce7f644f910160405180910390a3866001600160801b03167f8c649b2ad43b6449bbeee9487a5efe9f7fcded9570a17906d76f159a34713011856005604051611aba92919061252e565b60405180910390a25050505050611ad060015f55565b505050565b611add611d15565b6001600160a01b038116611b0657604051631e4fbdf760e01b81525f60048201526024016105ff565b611b0f81611d6f565b50565b5f611b1b611ddf565b805490915060ff600160401b82041615906001600160401b03165f81158015611b415750825b90505f826001600160401b03166001148015611b5c5750303b155b905081158015611b6a575080155b15611b885760405163f92ee8a960e01b815260040160405180910390fd5b845467ffffffffffffffff191660011785558315611bb257845460ff60401b1916600160401b1785555b6001600160a01b038916611bd957604051632b84073560e11b815260040160405180910390fd5b6001600160a01b038816611c1e57604051631f7ecdff60e31b815260206004820152600b60248201526a26b2b73aa6b0b730b3b2b960a91b60448201526064016105ff565b6001600160a01b038716611c6957604051631f7ecdff60e31b81526020600482015260116024820152702932b9ba30bab930b73a26b0b730b3b2b960791b60448201526064016105ff565b611c7286611e07565b600680546001600160a01b03808c166001600160a01b031992831617909255600480548b841690831617905560058054928a1692909116919091178155600180546001600160801b031916811790556007558315611d0a57845460ff60401b19168555604051600181527fc7f505b2f371ae2175ee4913f4499e1f2633a7b5936321eed1cdaeb6115181d29060200160405180910390a15b505050505050505050565b33611d1e610eb6565b6001600160a01b031614610e715760405163118cdaa760e01b81523360048201526024016105ff565b60025f5403611d6957604051633ee5aeb560e01b815260040160405180910390fd5b60025f55565b7f9016d09d72d40fdae2fd8ceac6b6234c7706214fd39c1cd1e609a0528c19930080546001600160a01b031981166001600160a01b03848116918217845560405192169182907f8be0079c531659141344cd1fd0a4f28419497f9722a3daafe3b4186f6b6457e0905f90a3505050565b5f807ff0c57e16840df040f15088dc2f81fe391c3923bec73e23a9662efc9c229c6a00610608565b611e0f611e18565b611b0f81611e3d565b611e20611e45565b610e7157604051631afcd79f60e31b815260040160405180910390fd5b611add611e18565b5f611e4e611ddf565b54600160401b900460ff16919050565b60408051610120810182525f80825260208201819052918101829052606080820152608081018290529060a082019081525f602082018190526040820181905260609091015290565b6001600160801b0381168114611b0f575f5ffd5b5f60208284031215611ecb575f5ffd5b8135611ed681611ea7565b9392505050565b5f82825180855260208501945060208160051b830101602085015f5b83811015611f8e57601f1985840301885281516001600160801b0381511684526020810151608060208601528051806080870152806020830160a088015e5f60a082880101526001600160801b0360408401511660408701526001600160801b03606084015116606087015260a0601f19601f8301168701019550505050602082019150602088019750600181019050611ef9565b50909695505050505050565b634e487b7160e01b5f52602160045260245ffd5b60078110611fca57634e487b7160e01b5f52602160045260245ffd5b9052565b80516001600160801b031682525f6020820151611ff660208501826001600160a01b03169052565b50604082015161201160408501826001600160801b03169052565b506060820151610120606085015261202d610120850182611edd565b90506080830151608085015260a083015161204b60a0860182611fae565b5060c083015161206660c08601826001600160801b03169052565b5060e083015161208160e08601826001600160801b03169052565b5061010083015161209e6101008601826001600160801b03169052565b509392505050565b602081525f611ed66020830184611fce565b5f602082840312156120c8575f5ffd5b5035919050565b6001600160a01b0381168114611b0f575f5ffd5b5f5f5f5f608085870312156120f6575f5ffd5b8435612101816120cf565b9350602085013561211181611ea7565b9250604085013560078110612124575f5ffd5b9150606085013561213481611ea7565b939692955090935050565b5f5f60408385031215612150575f5ffd5b823561215b816120cf565b9150602083013561216b81611ea7565b809150509250929050565b5f5f5f60608486031215612188575f5ffd5b8335612193816120cf565b95602085013595506040909401359392505050565b5f604082016040835280855180835260608501915060608160051b8601019250602087015f5b828110156121ff57605f198786030184526121ea858351611fce565b945060209384019391909101906001016121ce565b505050506020929092019290925292915050565b5f60208284031215612223575f5ffd5b8135611ed6816120cf565b634e487b7160e01b5f52604160045260245ffd5b60405161016081016001600160401b03811182821017156122655761226561222e565b60405290565b604051601f8201601f191681016001600160401b03811182821017156122935761229361222e565b604052919050565b5f82601f8301126122aa575f5ffd5b81356001600160401b038111156122c3576122c361222e565b8060051b6122d36020820161226b565b918252602081850181019290810190868411156122ee575f5ffd5b6020860192505b8383101561231957823561230881611ea7565b8252602092830192909101906122f5565b9695505050505050565b5f5f5f5f60808587031215612336575f5ffd5b8435612341816120cf565b9350602085013561235181611ea7565b925060408501356001600160401b0381111561236b575f5ffd5b6123778782880161229b565b92505060608501356001600160401b03811115612392575f5ffd5b61239e8782880161229b565b91505092959194509250565b5f5f5f606084860312156123bc575f5ffd5b83356123c7816120cf565b925060208401356123d781611ea7565b915060408401356123e781611ea7565b809150509250925092565b5f5f5f5f60808587031215612405575f5ffd5b8435612410816120cf565b93506020850135612420816120cf565b92506040850135612430816120cf565b91506060850135612134816120cf565b6001600160801b0389811682526001600160a01b03891660208301528716604082015260608101869052610100810161247c6080830187611fae565b6001600160801b03851660a08301526001600160801b03841660c08301526001600160801b03831660e08301529998505050505050505050565b600181811c908216806124ca57607f821691505b6020821081036124e857634e487b7160e01b5f52602260045260245ffd5b50919050565b6124f88183611fae565b604060208201819052601690820152757570646174652028616c72656164792066696e616c2960501b6060820152608001919050565b6040810161253c8285611fae565b611ed66020830184611fae565b6125538183611fae565b6040602082018190526006908201526518d85b98d95b60d21b6060820152608001919050565b634e487b7160e01b5f52601160045260245ffd5b8082018082111561060857610608612579565b8181038181111561060857610608612579565b634e487b7160e01b5f52603260045260245ffd5b805180151581146125d6575f5ffd5b919050565b5f602082840312156125eb575f5ffd5b611ed6826125c7565b80516125d681611ea7565b5f82601f83011261260e575f5ffd5b81516001600160401b038111156126275761262761222e565b61263a601f8201601f191660200161226b565b81815284602083860101111561264e575f5ffd5b8160208501602083015e5f918101602001919091529392505050565b5f6020828403121561267a575f5ffd5b81516001600160401b0381111561268f575f5ffd5b820161016081850312156126a1575f5ffd5b6126a9612242565b6126b2826125f4565b81526126c0602083016125f4565b602082015260408201516001600160401b038111156126dd575f5ffd5b6126e9868285016125ff565b60408301525060608201516001600160401b03811115612707575f5ffd5b612713868285016125ff565b606083015250612725608083016125f4565b608082015261273660a083016125c7565b60a082015260c08201516001600160401b03811115612753575f5ffd5b61275f868285016125ff565b60c08301525060e08201516001600160401b0381111561277d575f5ffd5b612789868285016125ff565b60e08301525061279c61010083016125f4565b6101008201526127af61012083016125f4565b6101208201526127c261014083016125f4565b610140820152949350505050565b808202811582820484141761060857610608612579565b6001600160801b03818116838216019081111561060857610608612579565b5f6001600160801b0382166001600160801b03810361282757612827612579565b60010192915050565b601f821115611ad057805f5260205f20601f840160051c810160208510156128555750805b601f840160051c820191505b81811015612874575f8155600101612861565b5050505050565b81516001600160401b038111156128945761289461222e565b6128a8816128a284546124b6565b84612830565b6020601f8211600181146128da575f83156128c35750848201515b5f19600385901b1c1916600184901b178455612874565b5f84815260208120601f198516915b8281101561290957878501518255602094850194600190920191016128e9565b508482101561292657868401515f19600387901b60f8161c191681555b50505050600190811b01905550565b61293f8183611fae565b60406020820181905260089082015267636f6d706c65746560c01b6060820152608001919050565b5f60208284031215612977575f5ffd5b8151611ed6816120cf565b5f8261299c57634e487b7160e01b5f52601260045260245ffd5b50049056fea2646970667358221220fe441f2200999fccf144582b661197f1b64bc8faacf011d858164b0aed29005064736f6c634300081e0033",
					"opcodes": "PUSH1 0x80 PUSH1 0x40 MSTORE CALLVALUE DUP1 ISZERO PUSH1 0xE JUMPI PUSH0 PUSH0 REVERT JUMPDEST POP PUSH1 0x1 PUSH0 SSTORE PUSH2 0x29D7 DUP1 PUSH2 0x20 PUSH0 CODECOPY PUSH0 RETURN INVALID PUSH1 0x80 PUSH1 0x40 MSTORE PUSH1 0x4 CALLDATASIZE LT PUSH2 0x105 JUMPI PUSH0 CALLDATALOAD PUSH1 0xE0 SHR DUP1 PUSH4 0x7338C5AA GT PUSH2 0x92 JUMPI DUP1 PUSH4 0xC60C14D9 GT PUSH2 0x62 JUMPI DUP1 PUSH4 0xC60C14D9 EQ PUSH2 0x2E0 JUMPI DUP1 PUSH4 0xCF31FB46 EQ PUSH2 0x2F3 JUMPI DUP1 PUSH4 0xF2FDE38B EQ PUSH2 0x312 JUMPI DUP1 PUSH4 0xF8C8765E EQ PUSH2 0x331 JUMPI DUP1 PUSH4 0xFF8DDEE3 EQ PUSH2 0x350 JUMPI PUSH0 PUSH0 REVERT JUMPDEST DUP1 PUSH4 0x7338C5AA EQ PUSH2 0x26B JUMPI DUP1 PUSH4 0x832DBDD9 EQ PUSH2 0x298 JUMPI DUP1 PUSH4 0x8C639A85 EQ PUSH2 0x2B7 JUMPI DUP1 PUSH4 0x8DA5CB5B EQ PUSH2 0x2CC JUMPI PUSH0 PUSH0 REVERT JUMPDEST DUP1 PUSH4 0x2134B6F6 GT PUSH2 0xD8 JUMPI DUP1 PUSH4 0x2134B6F6 EQ PUSH2 0x19D JUMPI DUP1 PUSH4 0x2A58B330 EQ PUSH2 0x1D4 JUMPI DUP1 PUSH4 0x2FAE2095 EQ PUSH2 0x20B JUMPI DUP1 PUSH4 0x5059E95B EQ PUSH2 0x238 JUMPI DUP1 PUSH4 0x715018A6 EQ PUSH2 0x257 JUMPI PUSH0 PUSH0 REVERT JUMPDEST DUP1 PUSH4 0x117D4128 EQ PUSH2 0x109 JUMPI DUP1 PUSH4 0x12E8E2C3 EQ PUSH2 0x13E JUMPI DUP1 PUSH4 0x19C8CCEF EQ PUSH2 0x15F JUMPI DUP1 PUSH4 0x1B4257F6 EQ PUSH2 0x17E JUMPI JUMPDEST PUSH0 PUSH0 REVERT JUMPDEST CALLVALUE DUP1 ISZERO PUSH2 0x114 JUMPI PUSH0 PUSH0 REVERT JUMPDEST POP PUSH2 0x128 PUSH2 0x123 CALLDATASIZE PUSH1 0x4 PUSH2 0x1EBB JUMP JUMPDEST PUSH2 0x3E3 JUMP JUMPDEST PUSH1 0x40 MLOAD PUSH2 0x135 SWAP2 SWAP1 PUSH2 0x20A6 JUMP JUMPDEST PUSH1 0x40 MLOAD DUP1 SWAP2 SUB SWAP1 RETURN JUMPDEST CALLVALUE DUP1 ISZERO PUSH2 0x149 JUMPI PUSH0 PUSH0 REVERT JUMPDEST POP PUSH2 0x15D PUSH2 0x158 CALLDATASIZE PUSH1 0x4 PUSH2 0x20B8 JUMP JUMPDEST PUSH2 0x60E JUMP JUMPDEST STOP JUMPDEST CALLVALUE DUP1 ISZERO PUSH2 0x16A JUMPI PUSH0 PUSH0 REVERT JUMPDEST POP PUSH2 0x15D PUSH2 0x179 CALLDATASIZE PUSH1 0x4 PUSH2 0x20E3 JUMP JUMPDEST PUSH2 0x67C JUMP JUMPDEST CALLVALUE DUP1 ISZERO PUSH2 0x189 JUMPI PUSH0 PUSH0 REVERT JUMPDEST POP PUSH2 0x15D PUSH2 0x198 CALLDATASIZE PUSH1 0x4 PUSH2 0x213F JUMP JUMPDEST PUSH2 0x85C JUMP JUMPDEST CALLVALUE DUP1 ISZERO PUSH2 0x1A8 JUMPI PUSH0 PUSH0 REVERT JUMPDEST POP PUSH1 0x5 SLOAD PUSH2 0x1BC SWAP1 PUSH1 0x1 PUSH1 0x1 PUSH1 0xA0 SHL SUB AND DUP2 JUMP JUMPDEST PUSH1 0x40 MLOAD PUSH1 0x1 PUSH1 0x1 PUSH1 0xA0 SHL SUB SWAP1 SWAP2 AND DUP2 MSTORE PUSH1 0x20 ADD PUSH2 0x135 JUMP JUMPDEST CALLVALUE DUP1 ISZERO PUSH2 0x1DF JUMPI PUSH0 PUSH0 REVERT JUMPDEST POP PUSH1 0x1 SLOAD PUSH2 0x1F3 SWAP1 PUSH1 0x1 PUSH1 0x1 PUSH1 0x80 SHL SUB AND DUP2 JUMP JUMPDEST PUSH1 0x40 MLOAD PUSH1 0x1 PUSH1 0x1 PUSH1 0x80 SHL SUB SWAP1 SWAP2 AND DUP2 MSTORE PUSH1 0x20 ADD PUSH2 0x135 JUMP JUMPDEST CALLVALUE DUP1 ISZERO PUSH2 0x216 JUMPI PUSH0 PUSH0 REVERT JUMPDEST POP PUSH2 0x22A PUSH2 0x225 CALLDATASIZE PUSH1 0x4 PUSH2 0x2176 JUMP JUMPDEST PUSH2 0xAC6 JUMP JUMPDEST PUSH1 0x40 MLOAD PUSH2 0x135 SWAP3 SWAP2 SWAP1 PUSH2 0x21A8 JUMP JUMPDEST CALLVALUE DUP1 ISZERO PUSH2 0x243 JUMPI PUSH0 PUSH0 REVERT JUMPDEST POP PUSH1 0x4 SLOAD PUSH2 0x1BC SWAP1 PUSH1 0x1 PUSH1 0x1 PUSH1 0xA0 SHL SUB AND DUP2 JUMP JUMPDEST CALLVALUE DUP1 ISZERO PUSH2 0x262 JUMPI PUSH0 PUSH0 REVERT JUMPDEST POP PUSH2 0x15D PUSH2 0xE60 JUMP JUMPDEST CALLVALUE DUP1 ISZERO PUSH2 0x276 JUMPI PUSH0 PUSH0 REVERT JUMPDEST POP PUSH2 0x28A PUSH2 0x285 CALLDATASIZE PUSH1 0x4 PUSH2 0x2213 JUMP JUMPDEST PUSH2 0xE73 JUMP JUMPDEST PUSH1 0x40 MLOAD SWAP1 DUP2 MSTORE PUSH1 0x20 ADD PUSH2 0x135 JUMP JUMPDEST CALLVALUE DUP1 ISZERO PUSH2 0x2A3 JUMPI PUSH0 PUSH0 REVERT JUMPDEST POP PUSH1 0x6 SLOAD PUSH2 0x1BC SWAP1 PUSH1 0x1 PUSH1 0x1 PUSH1 0xA0 SHL SUB AND DUP2 JUMP JUMPDEST CALLVALUE DUP1 ISZERO PUSH2 0x2C2 JUMPI PUSH0 PUSH0 REVERT JUMPDEST POP PUSH2 0x28A PUSH1 0x7 SLOAD DUP2 JUMP JUMPDEST CALLVALUE DUP1 ISZERO PUSH2 0x2D7 JUMPI PUSH0 PUSH0 REVERT JUMPDEST POP PUSH2 0x1BC PUSH2 0xEB6 JUMP JUMPDEST PUSH2 0x15D PUSH2 0x2EE CALLDATASIZE PUSH1 0x4 PUSH2 0x2323 JUMP JUMPDEST PUSH2 0xEE4 JUMP JUMPDEST CALLVALUE DUP1 ISZERO PUSH2 0x2FE JUMPI PUSH0 PUSH0 REVERT JUMPDEST POP PUSH2 0x15D PUSH2 0x30D CALLDATASIZE PUSH1 0x4 PUSH2 0x23AA JUMP JUMPDEST PUSH2 0x16E1 JUMP JUMPDEST CALLVALUE DUP1 ISZERO PUSH2 0x31D JUMPI PUSH0 PUSH0 REVERT JUMPDEST POP PUSH2 0x15D PUSH2 0x32C CALLDATASIZE PUSH1 0x4 PUSH2 0x2213 JUMP JUMPDEST PUSH2 0x1AD5 JUMP JUMPDEST CALLVALUE DUP1 ISZERO PUSH2 0x33C JUMPI PUSH0 PUSH0 REVERT JUMPDEST POP PUSH2 0x15D PUSH2 0x34B CALLDATASIZE PUSH1 0x4 PUSH2 0x23F2 JUMP JUMPDEST PUSH2 0x1B12 JUMP JUMPDEST CALLVALUE DUP1 ISZERO PUSH2 0x35B JUMPI PUSH0 PUSH0 REVERT JUMPDEST POP PUSH2 0x3CF PUSH2 0x36A CALLDATASIZE PUSH1 0x4 PUSH2 0x1EBB JUMP JUMPDEST PUSH1 0x2 PUSH1 0x20 DUP2 SWAP1 MSTORE PUSH0 SWAP2 DUP3 MSTORE PUSH1 0x40 SWAP1 SWAP2 KECCAK256 DUP1 SLOAD PUSH1 0x1 DUP3 ADD SLOAD SWAP3 DUP3 ADD SLOAD PUSH1 0x4 DUP4 ADD SLOAD PUSH1 0x5 DUP5 ADD SLOAD PUSH1 0x6 SWAP1 SWAP5 ADD SLOAD PUSH1 0x1 PUSH1 0x1 PUSH1 0x80 SHL SUB SWAP4 DUP5 AND SWAP6 PUSH1 0x1 PUSH1 0x1 PUSH1 0xA0 SHL SUB AND SWAP5 SWAP3 DUP5 AND SWAP4 SWAP2 SWAP3 PUSH1 0xFF DUP2 AND SWAP3 PUSH2 0x100 SWAP1 SWAP2 DIV DUP2 AND SWAP2 DUP1 DUP3 AND SWAP2 PUSH1 0x1 PUSH1 0x80 SHL SWAP1 SWAP2 DIV AND DUP9 JUMP JUMPDEST PUSH1 0x40 MLOAD PUSH2 0x135 SWAP9 SWAP8 SWAP7 SWAP6 SWAP5 SWAP4 SWAP3 SWAP2 SWAP1 PUSH2 0x2440 JUMP JUMPDEST PUSH2 0x3EB PUSH2 0x1E5E JUMP JUMPDEST PUSH1 0x1 PUSH1 0x1 PUSH1 0x80 SHL SUB DUP1 DUP4 AND PUSH0 SWAP1 DUP2 MSTORE PUSH1 0x2 PUSH1 0x20 DUP2 DUP2 MSTORE PUSH1 0x40 DUP1 DUP5 KECCAK256 DUP2 MLOAD PUSH2 0x120 DUP2 ADD DUP4 MSTORE DUP2 SLOAD DUP8 AND DUP2 MSTORE PUSH1 0x1 DUP3 ADD SLOAD PUSH1 0x1 PUSH1 0x1 PUSH1 0xA0 SHL SUB AND DUP2 DUP6 ADD MSTORE SWAP4 DUP2 ADD SLOAD SWAP1 SWAP6 AND DUP4 DUP3 ADD MSTORE PUSH1 0x3 DUP6 ADD DUP1 SLOAD DUP3 MLOAD DUP2 DUP6 MUL DUP2 ADD DUP6 ADD SWAP1 SWAP4 MSTORE DUP1 DUP4 MSTORE SWAP5 SWAP6 SWAP4 SWAP5 PUSH1 0x60 DUP7 ADD SWAP4 DUP8 SWAP1 DUP5 ADD JUMPDEST DUP3 DUP3 LT ISZERO PUSH2 0x559 JUMPI PUSH0 DUP5 DUP2 MSTORE PUSH1 0x20 SWAP1 DUP2 SWAP1 KECCAK256 PUSH1 0x40 DUP1 MLOAD PUSH1 0x80 DUP2 ADD SWAP1 SWAP2 MSTORE PUSH1 0x3 DUP6 MUL SWAP1 SWAP2 ADD DUP1 SLOAD PUSH1 0x1 PUSH1 0x1 PUSH1 0x80 SHL SUB AND DUP3 MSTORE PUSH1 0x1 DUP2 ADD DUP1 SLOAD SWAP3 SWAP4 SWAP2 SWAP3 SWAP2 DUP5 ADD SWAP2 PUSH2 0x49D SWAP1 PUSH2 0x24B6 JUMP JUMPDEST DUP1 PUSH1 0x1F ADD PUSH1 0x20 DUP1 SWAP2 DIV MUL PUSH1 0x20 ADD PUSH1 0x40 MLOAD SWAP1 DUP2 ADD PUSH1 0x40 MSTORE DUP1 SWAP3 SWAP2 SWAP1 DUP2 DUP2 MSTORE PUSH1 0x20 ADD DUP3 DUP1 SLOAD PUSH2 0x4C9 SWAP1 PUSH2 0x24B6 JUMP JUMPDEST DUP1 ISZERO PUSH2 0x514 JUMPI DUP1 PUSH1 0x1F LT PUSH2 0x4EB JUMPI PUSH2 0x100 DUP1 DUP4 SLOAD DIV MUL DUP4 MSTORE SWAP2 PUSH1 0x20 ADD SWAP2 PUSH2 0x514 JUMP JUMPDEST DUP3 ADD SWAP2 SWAP1 PUSH0 MSTORE PUSH1 0x20 PUSH0 KECCAK256 SWAP1 JUMPDEST DUP2 SLOAD DUP2 MSTORE SWAP1 PUSH1 0x1 ADD SWAP1 PUSH1 0x20 ADD DUP1 DUP4 GT PUSH2 0x4F7 JUMPI DUP3 SWAP1 SUB PUSH1 0x1F AND DUP3 ADD SWAP2 JUMPDEST POP POP POP SWAP2 DUP4 MSTORE POP POP PUSH1 0x2 SWAP2 SWAP1 SWAP2 ADD SLOAD PUSH1 0x1 PUSH1 0x1 PUSH1 0x80 SHL SUB DUP1 DUP3 AND PUSH1 0x20 DUP1 DUP6 ADD SWAP2 SWAP1 SWAP2 MSTORE PUSH1 0x1 PUSH1 0x80 SHL SWAP1 SWAP3 DIV AND PUSH1 0x40 SWAP1 SWAP3 ADD SWAP2 SWAP1 SWAP2 MSTORE SWAP1 DUP3 MSTORE PUSH1 0x1 SWAP3 SWAP1 SWAP3 ADD SWAP2 ADD PUSH2 0x455 JUMP JUMPDEST POP POP POP SWAP1 DUP3 MSTORE POP PUSH1 0x4 DUP3 ADD SLOAD PUSH1 0x20 DUP3 ADD MSTORE PUSH1 0x5 DUP3 ADD SLOAD PUSH1 0x40 SWAP1 SWAP2 ADD SWAP1 PUSH1 0xFF AND PUSH1 0x6 DUP2 GT ISZERO PUSH2 0x589 JUMPI PUSH2 0x589 PUSH2 0x1F9A JUMP JUMPDEST PUSH1 0x6 DUP2 GT ISZERO PUSH2 0x59A JUMPI PUSH2 0x59A PUSH2 0x1F9A JUMP JUMPDEST DUP2 MSTORE PUSH1 0x5 DUP3 ADD SLOAD PUSH1 0x1 PUSH1 0x1 PUSH1 0x80 SHL SUB PUSH2 0x100 SWAP1 SWAP2 DIV DUP2 AND PUSH1 0x20 DUP4 ADD MSTORE PUSH1 0x6 SWAP1 SWAP3 ADD SLOAD DUP1 DUP4 AND PUSH1 0x40 DUP4 ADD MSTORE PUSH1 0x1 PUSH1 0x80 SHL SWAP1 DIV DUP3 AND PUSH1 0x60 SWAP1 SWAP2 ADD MSTORE DUP2 MLOAD SWAP2 SWAP3 POP AND PUSH0 SUB PUSH2 0x608 JUMPI PUSH1 0x40 MLOAD PUSH4 0x5E8F385 PUSH1 0xE4 SHL DUP2 MSTORE PUSH1 0x1 PUSH1 0x1 PUSH1 0x80 SHL SUB DUP5 AND PUSH1 0x4 DUP3 ADD MSTORE PUSH1 0x24 ADD JUMPDEST PUSH1 0x40 MLOAD DUP1 SWAP2 SUB SWAP1 REVERT JUMPDEST SWAP3 SWAP2 POP POP JUMP JUMPDEST PUSH2 0x616 PUSH2 0x1D15 JUMP JUMPDEST PUSH1 0x32 DUP2 GT ISZERO PUSH2 0x63B JUMPI PUSH1 0x40 MLOAD PUSH4 0x2BE52F15 PUSH1 0xE2 SHL DUP2 MSTORE PUSH1 0x4 DUP2 ADD DUP3 SWAP1 MSTORE PUSH1 0x24 ADD PUSH2 0x5FF JUMP JUMPDEST PUSH1 0x7 SLOAD PUSH1 0x40 DUP1 MLOAD SWAP2 DUP3 MSTORE PUSH1 0x20 DUP3 ADD DUP4 SWAP1 MSTORE PUSH32 0xD347E206F25A89B917FC9482F1A2D294D749BAA4DC9BDE7FB495EE11FE491643 SWAP2 ADD PUSH1 0x40 MLOAD DUP1 SWAP2 SUB SWAP1 LOG1 PUSH1 0x7 SSTORE JUMP JUMPDEST PUSH1 0x6 SLOAD PUSH1 0x1 PUSH1 0x1 PUSH1 0xA0 SHL SUB AND CALLER EQ PUSH2 0x6A7 JUMPI PUSH1 0x40 MLOAD PUSH4 0x92B2F959 PUSH1 0xE0 SHL DUP2 MSTORE PUSH1 0x4 ADD PUSH1 0x40 MLOAD DUP1 SWAP2 SUB SWAP1 REVERT JUMPDEST PUSH1 0x1 PUSH1 0x1 PUSH1 0x80 SHL SUB DUP1 DUP5 AND PUSH0 SWAP1 DUP2 MSTORE PUSH1 0x2 PUSH1 0x20 MSTORE PUSH1 0x40 DUP2 KECCAK256 DUP1 SLOAD SWAP1 SWAP3 AND SWAP1 SUB PUSH2 0x6EE JUMPI PUSH1 0x40 MLOAD PUSH4 0x5E8F385 PUSH1 0xE4 SHL DUP2 MSTORE PUSH1 0x1 PUSH1 0x1 PUSH1 0x80 SHL SUB DUP6 AND PUSH1 0x4 DUP3 ADD MSTORE PUSH1 0x24 ADD PUSH2 0x5FF JUMP JUMPDEST PUSH1 0x2 DUP2 ADD SLOAD PUSH1 0x1 PUSH1 0x1 PUSH1 0x80 SHL SUB DUP4 DUP2 AND SWAP2 AND EQ PUSH2 0x746 JUMPI PUSH1 0x2 DUP2 ADD SLOAD PUSH1 0x40 MLOAD PUSH4 0xD52781E9 PUSH1 0xE0 SHL DUP2 MSTORE PUSH1 0x1 PUSH1 0x1 PUSH1 0xA0 SHL SUB DUP8 AND PUSH1 0x4 DUP3 ADD MSTORE PUSH1 0x1 PUSH1 0x1 PUSH1 0x80 SHL SUB SWAP2 DUP3 AND PUSH1 0x24 DUP3 ADD MSTORE SWAP1 DUP4 AND PUSH1 0x44 DUP3 ADD MSTORE PUSH1 0x64 ADD PUSH2 0x5FF JUMP JUMPDEST PUSH1 0x5 DUP1 DUP3 ADD SLOAD PUSH1 0xFF AND PUSH1 0x6 DUP2 GT ISZERO PUSH2 0x760 JUMPI PUSH2 0x760 PUSH2 0x1F9A JUMP JUMPDEST EQ DUP1 PUSH2 0x784 JUMPI POP PUSH1 0x6 PUSH1 0x5 DUP3 ADD SLOAD PUSH1 0xFF AND PUSH1 0x6 DUP2 GT ISZERO PUSH2 0x782 JUMPI PUSH2 0x782 PUSH2 0x1F9A JUMP JUMPDEST EQ JUMPDEST ISZERO PUSH2 0x7AB JUMPI PUSH1 0x5 DUP2 ADD SLOAD PUSH1 0x40 MLOAD PUSH4 0x388A923D PUSH1 0xE0 SHL DUP2 MSTORE PUSH2 0x5FF SWAP2 PUSH1 0xFF AND SWAP1 PUSH1 0x4 ADD PUSH2 0x24EE JUMP JUMPDEST PUSH0 DUP4 PUSH1 0x6 DUP2 GT ISZERO PUSH2 0x7BE JUMPI PUSH2 0x7BE PUSH2 0x1F9A JUMP JUMPDEST SUB PUSH2 0x7E7 JUMPI PUSH1 0x5 DUP2 ADD SLOAD PUSH1 0x40 MLOAD PUSH4 0x14FDBD5F PUSH1 0xE1 SHL DUP2 MSTORE PUSH2 0x5FF SWAP2 PUSH1 0xFF AND SWAP1 DUP6 SWAP1 PUSH1 0x4 ADD PUSH2 0x252E JUMP JUMPDEST PUSH1 0x5 DUP2 ADD DUP1 SLOAD PUSH1 0xFF DUP2 AND SWAP2 DUP6 SWAP2 PUSH1 0xFF NOT AND PUSH1 0x1 DUP4 PUSH1 0x6 DUP2 GT ISZERO PUSH2 0x80C JUMPI PUSH2 0x80C PUSH2 0x1F9A JUMP JUMPDEST MUL OR SWAP1 SSTORE POP DUP5 PUSH1 0x1 PUSH1 0x1 PUSH1 0x80 SHL SUB AND PUSH32 0x8C649B2AD43B6449BBEEE9487A5EFE9F7FCDED9570A17906D76F159A34713011 DUP3 DUP7 PUSH1 0x40 MLOAD PUSH2 0x84C SWAP3 SWAP2 SWAP1 PUSH2 0x252E JUMP JUMPDEST PUSH1 0x40 MLOAD DUP1 SWAP2 SUB SWAP1 LOG2 POP POP POP POP POP POP JUMP JUMPDEST PUSH1 0x6 SLOAD PUSH1 0x1 PUSH1 0x1 PUSH1 0xA0 SHL SUB AND CALLER EQ PUSH2 0x887 JUMPI PUSH1 0x40 MLOAD PUSH4 0x92B2F959 PUSH1 0xE0 SHL DUP2 MSTORE PUSH1 0x4 ADD PUSH1 0x40 MLOAD DUP1 SWAP2 SUB SWAP1 REVERT JUMPDEST PUSH2 0x88F PUSH2 0x1D47 JUMP JUMPDEST PUSH1 0x1 PUSH1 0x1 PUSH1 0x80 SHL SUB DUP1 DUP3 AND PUSH0 SWAP1 DUP2 MSTORE PUSH1 0x2 PUSH1 0x20 MSTORE PUSH1 0x40 DUP2 KECCAK256 DUP1 SLOAD SWAP1 SWAP3 AND SWAP1 SUB PUSH2 0x8D6 JUMPI PUSH1 0x40 MLOAD PUSH4 0x5E8F385 PUSH1 0xE4 SHL DUP2 MSTORE PUSH1 0x1 PUSH1 0x1 PUSH1 0x80 SHL SUB DUP4 AND PUSH1 0x4 DUP3 ADD MSTORE PUSH1 0x24 ADD PUSH2 0x5FF JUMP JUMPDEST PUSH1 0x1 DUP2 ADD SLOAD PUSH1 0x1 PUSH1 0x1 PUSH1 0xA0 SHL SUB DUP5 DUP2 AND SWAP2 AND EQ PUSH2 0x920 JUMPI PUSH1 0x40 MLOAD PUSH4 0x71C4943F PUSH1 0xE0 SHL DUP2 MSTORE PUSH1 0x1 PUSH1 0x1 PUSH1 0xA0 SHL SUB DUP5 AND PUSH1 0x4 DUP3 ADD MSTORE PUSH1 0x1 PUSH1 0x1 PUSH1 0x80 SHL SUB DUP4 AND PUSH1 0x24 DUP3 ADD MSTORE PUSH1 0x44 ADD PUSH2 0x5FF JUMP JUMPDEST PUSH0 PUSH1 0x5 DUP3 ADD SLOAD PUSH1 0xFF AND PUSH1 0x6 DUP2 GT ISZERO PUSH2 0x93A JUMPI PUSH2 0x93A PUSH2 0x1F9A JUMP JUMPDEST EQ ISZERO DUP1 ISZERO PUSH2 0x961 JUMPI POP PUSH1 0x1 PUSH1 0x5 DUP3 ADD SLOAD PUSH1 0xFF AND PUSH1 0x6 DUP2 GT ISZERO PUSH2 0x95E JUMPI PUSH2 0x95E PUSH2 0x1F9A JUMP JUMPDEST EQ ISZERO JUMPDEST ISZERO PUSH2 0x988 JUMPI PUSH1 0x5 DUP2 ADD SLOAD PUSH1 0x40 MLOAD PUSH4 0x388A923D PUSH1 0xE0 SHL DUP2 MSTORE PUSH2 0x5FF SWAP2 PUSH1 0xFF AND SWAP1 PUSH1 0x4 ADD PUSH2 0x2549 JUMP JUMPDEST PUSH1 0x5 DUP2 ADD DUP1 SLOAD PUSH1 0xFF NOT DUP2 AND PUSH1 0x6 OR SWAP1 SWAP2 SSTORE PUSH1 0x4 DUP3 ADD SLOAD PUSH1 0xFF SWAP1 SWAP2 AND SWAP1 ISZERO PUSH2 0xA22 JUMPI PUSH1 0x1 DUP3 ADD SLOAD PUSH1 0x4 DUP4 ADD SLOAD PUSH1 0x40 MLOAD PUSH0 SWAP3 PUSH1 0x1 PUSH1 0x1 PUSH1 0xA0 SHL SUB AND SWAP2 SWAP1 DUP4 DUP2 DUP2 DUP2 DUP6 DUP8 GAS CALL SWAP3 POP POP POP RETURNDATASIZE DUP1 PUSH0 DUP2 EQ PUSH2 0x9F9 JUMPI PUSH1 0x40 MLOAD SWAP2 POP PUSH1 0x1F NOT PUSH1 0x3F RETURNDATASIZE ADD AND DUP3 ADD PUSH1 0x40 MSTORE RETURNDATASIZE DUP3 MSTORE RETURNDATASIZE PUSH0 PUSH1 0x20 DUP5 ADD RETURNDATACOPY PUSH2 0x9FE JUMP JUMPDEST PUSH1 0x60 SWAP2 POP JUMPDEST POP POP SWAP1 POP DUP1 PUSH2 0xA20 JUMPI PUSH1 0x40 MLOAD PUSH4 0x4239E21D PUSH1 0xE1 SHL DUP2 MSTORE PUSH1 0x4 ADD PUSH1 0x40 MLOAD DUP1 SWAP2 SUB SWAP1 REVERT JUMPDEST POP JUMPDEST DUP4 PUSH1 0x1 PUSH1 0x1 PUSH1 0xA0 SHL SUB AND DUP4 PUSH1 0x1 PUSH1 0x1 PUSH1 0x80 SHL SUB AND PUSH32 0x70AF4296E6226C6EF4207BE3522FF55647A797B6DC909D2D31F67551E9ADAC5D DUP5 PUSH1 0x4 ADD SLOAD PUSH1 0x40 MLOAD PUSH2 0xA6B SWAP2 DUP2 MSTORE PUSH1 0x20 ADD SWAP1 JUMP JUMPDEST PUSH1 0x40 MLOAD DUP1 SWAP2 SUB SWAP1 LOG3 DUP3 PUSH1 0x1 PUSH1 0x1 PUSH1 0x80 SHL SUB AND PUSH32 0x8C649B2AD43B6449BBEEE9487A5EFE9F7FCDED9570A17906D76F159A34713011 DUP3 PUSH1 0x6 PUSH1 0x40 MLOAD PUSH2 0xAAF SWAP3 SWAP2 SWAP1 PUSH2 0x252E JUMP JUMPDEST PUSH1 0x40 MLOAD DUP1 SWAP2 SUB SWAP1 LOG2 POP POP PUSH2 0xAC2 PUSH1 0x1 PUSH0 SSTORE JUMP JUMPDEST POP POP JUMP JUMPDEST PUSH1 0x60 PUSH0 PUSH1 0x1 PUSH1 0x1 PUSH1 0xA0 SHL SUB DUP6 AND PUSH2 0xAF0 JUMPI PUSH1 0x40 MLOAD PUSH4 0x2B840735 PUSH1 0xE1 SHL DUP2 MSTORE PUSH1 0x4 ADD PUSH1 0x40 MLOAD DUP1 SWAP2 SUB SWAP1 REVERT JUMPDEST DUP3 PUSH0 SUB PUSH2 0xB10 JUMPI PUSH1 0x40 MLOAD PUSH4 0x572FC815 PUSH1 0xE0 SHL DUP2 MSTORE PUSH1 0x4 ADD PUSH1 0x40 MLOAD DUP1 SWAP2 SUB SWAP1 REVERT JUMPDEST PUSH1 0x1 PUSH1 0x1 PUSH1 0xA0 SHL SUB DUP6 AND PUSH0 SWAP1 DUP2 MSTORE PUSH1 0x3 PUSH1 0x20 MSTORE PUSH1 0x40 SWAP1 KECCAK256 DUP1 SLOAD DUP1 DUP7 LT PUSH2 0xB6D JUMPI PUSH1 0x40 DUP1 MLOAD PUSH0 DUP1 DUP3 MSTORE PUSH1 0x20 DUP3 ADD SWAP1 SWAP3 MSTORE SWAP1 PUSH2 0xB60 JUMP JUMPDEST PUSH2 0xB4D PUSH2 0x1E5E JUMP JUMPDEST DUP2 MSTORE PUSH1 0x20 ADD SWAP1 PUSH1 0x1 SWAP1 SUB SWAP1 DUP2 PUSH2 0xB45 JUMPI SWAP1 POP JUMPDEST POP PUSH0 SWAP4 POP SWAP4 POP POP POP PUSH2 0xE58 JUMP JUMPDEST PUSH0 PUSH2 0xB78 DUP7 DUP9 PUSH2 0x258D JUMP JUMPDEST SWAP1 POP DUP2 DUP2 GT ISZERO PUSH2 0xB85 JUMPI POP DUP1 JUMPDEST PUSH0 PUSH2 0xB90 DUP9 DUP4 PUSH2 0x25A0 JUMP JUMPDEST SWAP1 POP DUP1 PUSH1 0x1 PUSH1 0x1 PUSH1 0x40 SHL SUB DUP2 GT ISZERO PUSH2 0xBAA JUMPI PUSH2 0xBAA PUSH2 0x222E JUMP JUMPDEST PUSH1 0x40 MLOAD SWAP1 DUP1 DUP3 MSTORE DUP1 PUSH1 0x20 MUL PUSH1 0x20 ADD DUP3 ADD PUSH1 0x40 MSTORE DUP1 ISZERO PUSH2 0xBE3 JUMPI DUP2 PUSH1 0x20 ADD JUMPDEST PUSH2 0xBD0 PUSH2 0x1E5E JUMP JUMPDEST DUP2 MSTORE PUSH1 0x20 ADD SWAP1 PUSH1 0x1 SWAP1 SUB SWAP1 DUP2 PUSH2 0xBC8 JUMPI SWAP1 POP JUMPDEST POP SWAP6 POP PUSH0 JUMPDEST DUP2 DUP2 LT ISZERO PUSH2 0xE3E JUMPI PUSH1 0x2 PUSH0 DUP7 PUSH2 0xBFE DUP5 DUP14 PUSH2 0x258D JUMP JUMPDEST DUP2 SLOAD DUP2 LT PUSH2 0xC0E JUMPI PUSH2 0xC0E PUSH2 0x25B3 JUMP JUMPDEST PUSH0 SWAP2 DUP3 MSTORE PUSH1 0x20 DUP1 DUP4 KECCAK256 PUSH1 0x2 DUP1 DUP5 DIV SWAP1 SWAP2 ADD SLOAD PUSH1 0x1 PUSH1 0x1 PUSH1 0x80 SHL SUB PUSH1 0x10 PUSH1 0x1 SWAP6 DUP7 AND MUL PUSH2 0x100 EXP SWAP1 SWAP2 DIV DUP2 AND DUP7 MSTORE DUP6 DUP4 ADD SWAP7 SWAP1 SWAP7 MSTORE PUSH1 0x40 SWAP5 DUP6 ADD DUP5 KECCAK256 DUP6 MLOAD PUSH2 0x120 DUP2 ADD DUP8 MSTORE DUP2 SLOAD DUP9 AND DUP2 MSTORE SWAP4 DUP2 ADD SLOAD PUSH1 0x1 PUSH1 0x1 PUSH1 0xA0 SHL SUB AND DUP5 DUP5 ADD MSTORE SWAP1 DUP2 ADD SLOAD SWAP1 SWAP6 AND DUP3 DUP6 ADD MSTORE PUSH1 0x3 DUP6 ADD DUP1 SLOAD DUP6 MLOAD DUP2 DUP5 MUL DUP2 ADD DUP5 ADD SWAP1 SWAP7 MSTORE DUP1 DUP7 MSTORE SWAP3 SWAP6 SWAP5 PUSH1 0x60 DUP8 ADD SWAP5 SWAP1 SWAP4 SWAP2 SWAP3 DUP5 ADD JUMPDEST DUP3 DUP3 LT ISZERO PUSH2 0xD9C JUMPI PUSH0 DUP5 DUP2 MSTORE PUSH1 0x20 SWAP1 DUP2 SWAP1 KECCAK256 PUSH1 0x40 DUP1 MLOAD PUSH1 0x80 DUP2 ADD SWAP1 SWAP2 MSTORE PUSH1 0x3 DUP6 MUL SWAP1 SWAP2 ADD DUP1 SLOAD PUSH1 0x1 PUSH1 0x1 PUSH1 0x80 SHL SUB AND DUP3 MSTORE PUSH1 0x1 DUP2 ADD DUP1 SLOAD SWAP3 SWAP4 SWAP2 SWAP3 SWAP2 DUP5 ADD SWAP2 PUSH2 0xCE0 SWAP1 PUSH2 0x24B6 JUMP JUMPDEST DUP1 PUSH1 0x1F ADD PUSH1 0x20 DUP1 SWAP2 DIV MUL PUSH1 0x20 ADD PUSH1 0x40 MLOAD SWAP1 DUP2 ADD PUSH1 0x40 MSTORE DUP1 SWAP3 SWAP2 SWAP1 DUP2 DUP2 MSTORE PUSH1 0x20 ADD DUP3 DUP1 SLOAD PUSH2 0xD0C SWAP1 PUSH2 0x24B6 JUMP JUMPDEST DUP1 ISZERO PUSH2 0xD57 JUMPI DUP1 PUSH1 0x1F LT PUSH2 0xD2E JUMPI PUSH2 0x100 DUP1 DUP4 SLOAD DIV MUL DUP4 MSTORE SWAP2 PUSH1 0x20 ADD SWAP2 PUSH2 0xD57 JUMP JUMPDEST DUP3 ADD SWAP2 SWAP1 PUSH0 MSTORE PUSH1 0x20 PUSH0 KECCAK256 SWAP1 JUMPDEST DUP2 SLOAD DUP2 MSTORE SWAP1 PUSH1 0x1 ADD SWAP1 PUSH1 0x20 ADD DUP1 DUP4 GT PUSH2 0xD3A JUMPI DUP3 SWAP1 SUB PUSH1 0x1F AND DUP3 ADD SWAP2 JUMPDEST POP POP POP SWAP2 DUP4 MSTORE POP POP PUSH1 0x2 SWAP2 SWAP1 SWAP2 ADD SLOAD PUSH1 0x1 PUSH1 0x1 PUSH1 0x80 SHL SUB DUP1 DUP3 AND PUSH1 0x20 DUP1 DUP6 ADD SWAP2 SWAP1 SWAP2 MSTORE PUSH1 0x1 PUSH1 0x80 SHL SWAP1 SWAP3 DIV AND PUSH1 0x40 SWAP1 SWAP3 ADD SWAP2 SWAP1 SWAP2 MSTORE SWAP1 DUP3 MSTORE PUSH1 0x1 SWAP3 SWAP1 SWAP3 ADD SWAP2 ADD PUSH2 0xC98 JUMP JUMPDEST POP POP POP SWAP1 DUP3 MSTORE POP PUSH1 0x4 DUP3 ADD SLOAD PUSH1 0x20 DUP3 ADD MSTORE PUSH1 0x5 DUP3 ADD SLOAD PUSH1 0x40 SWAP1 SWAP2 ADD SWAP1 PUSH1 0xFF AND PUSH1 0x6 DUP2 GT ISZERO PUSH2 0xDCC JUMPI PUSH2 0xDCC PUSH2 0x1F9A JUMP JUMPDEST PUSH1 0x6 DUP2 GT ISZERO PUSH2 0xDDD JUMPI PUSH2 0xDDD PUSH2 0x1F9A JUMP JUMPDEST DUP2 MSTORE PUSH1 0x5 DUP3 ADD SLOAD PUSH1 0x1 PUSH1 0x1 PUSH1 0x80 SHL SUB PUSH2 0x100 SWAP1 SWAP2 DIV DUP2 AND PUSH1 0x20 DUP4 ADD MSTORE PUSH1 0x6 SWAP1 SWAP3 ADD SLOAD DUP1 DUP4 AND PUSH1 0x40 DUP4 ADD MSTORE PUSH1 0x1 PUSH1 0x80 SHL SWAP1 DIV SWAP1 SWAP2 AND PUSH1 0x60 SWAP1 SWAP2 ADD MSTORE DUP8 MLOAD DUP9 SWAP1 DUP4 SWAP1 DUP2 LT PUSH2 0xE2B JUMPI PUSH2 0xE2B PUSH2 0x25B3 JUMP JUMPDEST PUSH1 0x20 SWAP1 DUP2 MUL SWAP2 SWAP1 SWAP2 ADD ADD MSTORE PUSH1 0x1 ADD PUSH2 0xBE8 JUMP JUMPDEST POP DUP3 DUP3 LT ISZERO PUSH2 0xE4F JUMPI DUP2 SWAP5 POP PUSH2 0xE53 JUMP JUMPDEST PUSH0 SWAP5 POP JUMPDEST POP POP POP POP JUMPDEST SWAP4 POP SWAP4 SWAP2 POP POP JUMP JUMPDEST PUSH2 0xE68 PUSH2 0x1D15 JUMP JUMPDEST PUSH2 0xE71 PUSH0 PUSH2 0x1D6F JUMP JUMPDEST JUMP JUMPDEST PUSH0 PUSH1 0x1 PUSH1 0x1 PUSH1 0xA0 SHL SUB DUP3 AND PUSH2 0xE9B JUMPI PUSH1 0x40 MLOAD PUSH4 0x2B840735 PUSH1 0xE1 SHL DUP2 MSTORE PUSH1 0x4 ADD PUSH1 0x40 MLOAD DUP1 SWAP2 SUB SWAP1 REVERT JUMPDEST POP PUSH1 0x1 PUSH1 0x1 PUSH1 0xA0 SHL SUB AND PUSH0 SWAP1 DUP2 MSTORE PUSH1 0x3 PUSH1 0x20 MSTORE PUSH1 0x40 SWAP1 KECCAK256 SLOAD SWAP1 JUMP JUMPDEST PUSH32 0x9016D09D72D40FDAE2FD8CEAC6B6234C7706214FD39C1CD1E609A0528C199300 SLOAD PUSH1 0x1 PUSH1 0x1 PUSH1 0xA0 SHL SUB AND SWAP1 JUMP JUMPDEST PUSH1 0x6 SLOAD PUSH1 0x1 PUSH1 0x1 PUSH1 0xA0 SHL SUB AND CALLER EQ PUSH2 0xF0F JUMPI PUSH1 0x40 MLOAD PUSH4 0x92B2F959 PUSH1 0xE0 SHL DUP2 MSTORE PUSH1 0x4 ADD PUSH1 0x40 MLOAD DUP1 SWAP2 SUB SWAP1 REVERT JUMPDEST PUSH2 0xF17 PUSH2 0x1D47 JUMP JUMPDEST PUSH1 0x5 SLOAD PUSH1 0x40 MLOAD PUSH4 0xB2A6CB63 PUSH1 0xE0 SHL DUP2 MSTORE PUSH1 0x1 PUSH1 0x1 PUSH1 0x80 SHL SUB DUP6 AND PUSH1 0x4 DUP3 ADD MSTORE PUSH1 0x1 PUSH1 0x1 PUSH1 0xA0 SHL SUB SWAP1 SWAP2 AND SWAP1 PUSH4 0xB2A6CB63 SWAP1 PUSH1 0x24 ADD PUSH1 0x20 PUSH1 0x40 MLOAD DUP1 DUP4 SUB DUP2 DUP7 GAS STATICCALL ISZERO DUP1 ISZERO PUSH2 0xF66 JUMPI RETURNDATASIZE PUSH0 PUSH0 RETURNDATACOPY RETURNDATASIZE PUSH0 REVERT JUMPDEST POP POP POP POP PUSH1 0x40 MLOAD RETURNDATASIZE PUSH1 0x1F NOT PUSH1 0x1F DUP3 ADD AND DUP3 ADD DUP1 PUSH1 0x40 MSTORE POP DUP2 ADD SWAP1 PUSH2 0xF8A SWAP2 SWAP1 PUSH2 0x25DB JUMP JUMPDEST PUSH2 0xFA7 JUMPI PUSH1 0x40 MLOAD PUSH4 0x3C4C2FB7 PUSH1 0xE1 SHL DUP2 MSTORE PUSH1 0x4 ADD PUSH1 0x40 MLOAD DUP1 SWAP2 SUB SWAP1 REVERT JUMPDEST DUP1 MLOAD DUP3 MLOAD EQ ISZERO DUP1 PUSH2 0xFB7 JUMPI POP DUP2 MLOAD ISZERO JUMPDEST ISZERO PUSH2 0xFD5 JUMPI PUSH1 0x40 MLOAD PUSH4 0x4482F209 PUSH1 0xE1 SHL DUP2 MSTORE PUSH1 0x4 ADD PUSH1 0x40 MLOAD DUP1 SWAP2 SUB SWAP1 REVERT JUMPDEST PUSH1 0x1 PUSH1 0x1 PUSH1 0xA0 SHL SUB DUP5 AND PUSH2 0xFFC JUMPI PUSH1 0x40 MLOAD PUSH4 0x2B840735 PUSH1 0xE1 SHL DUP2 MSTORE PUSH1 0x4 ADD PUSH1 0x40 MLOAD DUP1 SWAP2 SUB SWAP1 REVERT JUMPDEST DUP2 MLOAD PUSH0 SWAP1 DUP2 SWAP1 DUP2 SWAP1 DUP2 SWAP1 PUSH1 0x1 PUSH1 0x1 PUSH1 0x40 SHL SUB DUP2 GT ISZERO PUSH2 0x101D JUMPI PUSH2 0x101D PUSH2 0x222E JUMP JUMPDEST PUSH1 0x40 MLOAD SWAP1 DUP1 DUP3 MSTORE DUP1 PUSH1 0x20 MUL PUSH1 0x20 ADD DUP3 ADD PUSH1 0x40 MSTORE DUP1 ISZERO PUSH2 0x106D JUMPI DUP2 PUSH1 0x20 ADD JUMPDEST PUSH1 0x40 DUP1 MLOAD PUSH1 0x80 DUP2 ADD DUP3 MSTORE PUSH0 DUP1 DUP3 MSTORE PUSH1 0x60 PUSH1 0x20 DUP1 DUP5 ADD DUP3 SWAP1 MSTORE SWAP4 DUP4 ADD DUP3 SWAP1 MSTORE DUP3 ADD MSTORE DUP3 MSTORE PUSH0 NOT SWAP1 SWAP3 ADD SWAP2 ADD DUP2 PUSH2 0x103B JUMPI SWAP1 POP JUMPDEST POP SWAP1 POP PUSH0 JUMPDEST DUP7 MLOAD DUP2 PUSH1 0x1 PUSH1 0x1 PUSH1 0x80 SHL SUB AND LT ISZERO PUSH2 0x1386 JUMPI PUSH1 0x4 SLOAD DUP8 MLOAD PUSH0 SWAP2 PUSH1 0x1 PUSH1 0x1 PUSH1 0xA0 SHL SUB AND SWAP1 PUSH4 0xC528968 SWAP1 DUP12 SWAP1 DUP12 SWAP1 PUSH1 0x1 PUSH1 0x1 PUSH1 0x80 SHL SUB DUP8 AND SWAP1 DUP2 LT PUSH2 0x10B8 JUMPI PUSH2 0x10B8 PUSH2 0x25B3 JUMP JUMPDEST PUSH1 0x20 MUL PUSH1 0x20 ADD ADD MLOAD PUSH1 0x40 MLOAD DUP4 PUSH4 0xFFFFFFFF AND PUSH1 0xE0 SHL DUP2 MSTORE PUSH1 0x4 ADD PUSH2 0x10F2 SWAP3 SWAP2 SWAP1 PUSH1 0x1 PUSH1 0x1 PUSH1 0x80 SHL SUB SWAP3 DUP4 AND DUP2 MSTORE SWAP2 AND PUSH1 0x20 DUP3 ADD MSTORE PUSH1 0x40 ADD SWAP1 JUMP JUMPDEST PUSH0 PUSH1 0x40 MLOAD DUP1 DUP4 SUB DUP2 DUP7 GAS STATICCALL ISZERO DUP1 ISZERO PUSH2 0x110C JUMPI RETURNDATASIZE PUSH0 PUSH0 RETURNDATACOPY RETURNDATASIZE PUSH0 REVERT JUMPDEST POP POP POP POP PUSH1 0x40 MLOAD RETURNDATASIZE PUSH0 DUP3 RETURNDATACOPY PUSH1 0x1F RETURNDATASIZE SWAP1 DUP2 ADD PUSH1 0x1F NOT AND DUP3 ADD PUSH1 0x40 MSTORE PUSH2 0x1133 SWAP2 SWAP1 DUP2 ADD SWAP1 PUSH2 0x266A JUMP JUMPDEST DUP1 MLOAD SWAP1 SWAP2 POP PUSH1 0x1 PUSH1 0x1 PUSH1 0x80 SHL SUB AND PUSH0 SUB PUSH2 0x119B JUMPI DUP9 DUP9 DUP4 PUSH1 0x1 PUSH1 0x1 PUSH1 0x80 SHL SUB AND DUP2 MLOAD DUP2 LT PUSH2 0x1163 JUMPI PUSH2 0x1163 PUSH2 0x25B3 JUMP JUMPDEST PUSH1 0x20 MUL PUSH1 0x20 ADD ADD MLOAD PUSH1 0x40 MLOAD PUSH4 0x2489E14F PUSH1 0xE0 SHL DUP2 MSTORE PUSH1 0x4 ADD PUSH2 0x5FF SWAP3 SWAP2 SWAP1 PUSH1 0x1 PUSH1 0x1 PUSH1 0x80 SHL SUB SWAP3 DUP4 AND DUP2 MSTORE SWAP2 AND PUSH1 0x20 DUP3 ADD MSTORE PUSH1 0x40 ADD SWAP1 JUMP JUMPDEST DUP1 PUSH1 0xA0 ADD MLOAD PUSH2 0x11F0 JUMPI DUP8 DUP3 PUSH1 0x1 PUSH1 0x1 PUSH1 0x80 SHL SUB AND DUP2 MLOAD DUP2 LT PUSH2 0x11BF JUMPI PUSH2 0x11BF PUSH2 0x25B3 JUMP JUMPDEST PUSH1 0x20 MUL PUSH1 0x20 ADD ADD MLOAD PUSH1 0x40 MLOAD PUSH4 0x3C719BB PUSH1 0xE5 SHL DUP2 MSTORE PUSH1 0x4 ADD PUSH2 0x5FF SWAP2 SWAP1 PUSH1 0x1 PUSH1 0x1 PUSH1 0x80 SHL SUB SWAP2 SWAP1 SWAP2 AND DUP2 MSTORE PUSH1 0x20 ADD SWAP1 JUMP JUMPDEST DUP7 DUP3 PUSH1 0x1 PUSH1 0x1 PUSH1 0x80 SHL SUB AND DUP2 MLOAD DUP2 LT PUSH2 0x120B JUMPI PUSH2 0x120B PUSH2 0x25B3 JUMP JUMPDEST PUSH1 0x20 MUL PUSH1 0x20 ADD ADD MLOAD PUSH1 0x1 PUSH1 0x1 PUSH1 0x80 SHL SUB AND PUSH0 SUB PUSH2 0x123B JUMPI PUSH1 0x40 MLOAD PUSH4 0x4482F209 PUSH1 0xE1 SHL DUP2 MSTORE PUSH1 0x4 ADD PUSH1 0x40 MLOAD DUP1 SWAP2 SUB SWAP1 REVERT JUMPDEST DUP7 DUP3 PUSH1 0x1 PUSH1 0x1 PUSH1 0x80 SHL SUB AND DUP2 MLOAD DUP2 LT PUSH2 0x1256 JUMPI PUSH2 0x1256 PUSH2 0x25B3 JUMP JUMPDEST PUSH1 0x20 MUL PUSH1 0x20 ADD ADD MLOAD PUSH1 0x1 PUSH1 0x1 PUSH1 0x80 SHL SUB AND DUP2 PUSH1 0x80 ADD MLOAD PUSH1 0x1 PUSH1 0x1 PUSH1 0x80 SHL SUB AND PUSH2 0x127F SWAP2 SWAP1 PUSH2 0x27D0 JUMP JUMPDEST PUSH2 0x1289 SWAP1 DUP8 PUSH2 0x258D JUMP JUMPDEST SWAP6 POP DUP7 DUP3 PUSH1 0x1 PUSH1 0x1 PUSH1 0x80 SHL SUB AND DUP2 MLOAD DUP2 LT PUSH2 0x12A6 JUMPI PUSH2 0x12A6 PUSH2 0x25B3 JUMP JUMPDEST PUSH1 0x20 MUL PUSH1 0x20 ADD ADD MLOAD DUP5 PUSH2 0x12B9 SWAP2 SWAP1 PUSH2 0x27E7 JUMP JUMPDEST SWAP4 POP DUP5 PUSH1 0x1 PUSH1 0x1 PUSH1 0x80 SHL SUB AND DUP2 PUSH2 0x140 ADD MLOAD PUSH1 0x1 PUSH1 0x1 PUSH1 0x80 SHL SUB AND GT ISZERO PUSH2 0x12E3 JUMPI DUP1 PUSH2 0x140 ADD MLOAD SWAP5 POP JUMPDEST PUSH1 0x40 MLOAD DUP1 PUSH1 0x80 ADD PUSH1 0x40 MSTORE DUP1 DUP3 PUSH0 ADD MLOAD PUSH1 0x1 PUSH1 0x1 PUSH1 0x80 SHL SUB AND DUP2 MSTORE PUSH1 0x20 ADD DUP3 PUSH1 0x40 ADD MLOAD DUP2 MSTORE PUSH1 0x20 ADD DUP3 PUSH1 0x80 ADD MLOAD PUSH1 0x1 PUSH1 0x1 PUSH1 0x80 SHL SUB AND DUP2 MSTORE PUSH1 0x20 ADD DUP9 DUP5 PUSH1 0x1 PUSH1 0x1 PUSH1 0x80 SHL SUB AND DUP2 MLOAD DUP2 LT PUSH2 0x1338 JUMPI PUSH2 0x1338 PUSH2 0x25B3 JUMP JUMPDEST PUSH1 0x20 MUL PUSH1 0x20 ADD ADD MLOAD PUSH1 0x1 PUSH1 0x1 PUSH1 0x80 SHL SUB AND DUP2 MSTORE POP DUP4 DUP4 PUSH1 0x1 PUSH1 0x1 PUSH1 0x80 SHL SUB AND DUP2 MLOAD DUP2 LT PUSH2 0x1367 JUMPI PUSH2 0x1367 PUSH2 0x25B3 JUMP JUMPDEST PUSH1 0x20 MUL PUSH1 0x20 ADD ADD DUP2 SWAP1 MSTORE POP POP DUP1 DUP1 PUSH2 0x137E SWAP1 PUSH2 0x2806 JUMP JUMPDEST SWAP2 POP POP PUSH2 0x1072 JUMP JUMPDEST POP DUP4 CALLVALUE LT ISZERO PUSH2 0x13B1 JUMPI PUSH1 0x40 MLOAD PUSH4 0x5BB47931 PUSH1 0xE1 SHL DUP2 MSTORE PUSH1 0x4 DUP2 ADD DUP6 SWAP1 MSTORE CALLVALUE PUSH1 0x24 DUP3 ADD MSTORE PUSH1 0x44 ADD PUSH2 0x5FF JUMP JUMPDEST DUP4 CALLVALUE GT ISZERO PUSH2 0x1430 JUMPI PUSH0 PUSH1 0x1 PUSH1 0x1 PUSH1 0xA0 SHL SUB DUP10 AND PUSH2 0x13CE DUP7 CALLVALUE PUSH2 0x25A0 JUMP JUMPDEST PUSH1 0x40 MLOAD PUSH0 DUP2 DUP2 DUP2 DUP6 DUP8 GAS CALL SWAP3 POP POP POP RETURNDATASIZE DUP1 PUSH0 DUP2 EQ PUSH2 0x1407 JUMPI PUSH1 0x40 MLOAD SWAP2 POP PUSH1 0x1F NOT PUSH1 0x3F RETURNDATASIZE ADD AND DUP3 ADD PUSH1 0x40 MSTORE RETURNDATASIZE DUP3 MSTORE RETURNDATASIZE PUSH0 PUSH1 0x20 DUP5 ADD RETURNDATACOPY PUSH2 0x140C JUMP JUMPDEST PUSH1 0x60 SWAP2 POP JUMPDEST POP POP SWAP1 POP DUP1 PUSH2 0x142E JUMPI PUSH1 0x40 MLOAD PUSH4 0x4239E21D PUSH1 0xE1 SHL DUP2 MSTORE PUSH1 0x4 ADD PUSH1 0x40 MLOAD DUP1 SWAP2 SUB SWAP1 REVERT JUMPDEST POP JUMPDEST PUSH0 PUSH1 0x1 PUSH0 SWAP1 SLOAD SWAP1 PUSH2 0x100 EXP SWAP1 DIV PUSH1 0x1 PUSH1 0x1 PUSH1 0x80 SHL SUB AND SWAP1 POP PUSH0 PUSH1 0x2 PUSH0 DUP4 PUSH1 0x1 PUSH1 0x1 PUSH1 0x80 SHL SUB AND PUSH1 0x1 PUSH1 0x1 PUSH1 0x80 SHL SUB AND DUP2 MSTORE PUSH1 0x20 ADD SWAP1 DUP2 MSTORE PUSH1 0x20 ADD PUSH0 KECCAK256 SWAP1 POP DUP2 DUP2 PUSH0 ADD PUSH0 PUSH2 0x100 EXP DUP2 SLOAD DUP2 PUSH1 0x1 PUSH1 0x1 PUSH1 0x80 SHL SUB MUL NOT AND SWAP1 DUP4 PUSH1 0x1 PUSH1 0x1 PUSH1 0x80 SHL SUB AND MUL OR SWAP1 SSTORE POP DUP10 DUP2 PUSH1 0x1 ADD PUSH0 PUSH2 0x100 EXP DUP2 SLOAD DUP2 PUSH1 0x1 PUSH1 0x1 PUSH1 0xA0 SHL SUB MUL NOT AND SWAP1 DUP4 PUSH1 0x1 PUSH1 0x1 PUSH1 0xA0 SHL SUB AND MUL OR SWAP1 SSTORE POP DUP9 DUP2 PUSH1 0x2 ADD PUSH0 PUSH2 0x100 EXP DUP2 SLOAD DUP2 PUSH1 0x1 PUSH1 0x1 PUSH1 0x80 SHL SUB MUL NOT AND SWAP1 DUP4 PUSH1 0x1 PUSH1 0x1 PUSH1 0x80 SHL SUB AND MUL OR SWAP1 SSTORE POP DUP6 DUP2 PUSH1 0x4 ADD DUP2 SWAP1 SSTORE POP PUSH0 DUP2 PUSH1 0x5 ADD PUSH0 PUSH2 0x100 EXP DUP2 SLOAD DUP2 PUSH1 0xFF MUL NOT AND SWAP1 DUP4 PUSH1 0x6 DUP2 GT ISZERO PUSH2 0x1513 JUMPI PUSH2 0x1513 PUSH2 0x1F9A JUMP JUMPDEST MUL OR SWAP1 SSTORE POP PUSH1 0x5 DUP2 ADD DUP1 SLOAD PUSH1 0x1 PUSH1 0x1 PUSH1 0x80 SHL SUB TIMESTAMP DUP2 AND PUSH2 0x100 MUL PUSH17 0xFFFFFFFFFFFFFFFFFFFFFFFFFFFFFFFF00 NOT SWAP1 SWAP3 AND SWAP2 SWAP1 SWAP2 OR SWAP1 SWAP2 SSTORE DUP5 DUP2 AND PUSH1 0x1 PUSH1 0x80 SHL MUL SWAP1 DUP7 AND OR PUSH1 0x6 DUP3 ADD SSTORE PUSH0 JUMPDEST DUP4 MLOAD DUP2 LT ISZERO PUSH2 0x1603 JUMPI DUP2 PUSH1 0x3 ADD DUP5 DUP3 DUP2 MLOAD DUP2 LT PUSH2 0x157D JUMPI PUSH2 0x157D PUSH2 0x25B3 JUMP JUMPDEST PUSH1 0x20 SWAP1 DUP2 MUL SWAP2 SWAP1 SWAP2 ADD DUP2 ADD MLOAD DUP3 SLOAD PUSH1 0x1 DUP1 DUP3 ADD DUP6 SSTORE PUSH0 SWAP5 DUP6 MSTORE SWAP4 DUP4 SWAP1 KECCAK256 DUP3 MLOAD PUSH1 0x3 SWAP1 SWAP3 MUL ADD DUP1 SLOAD PUSH1 0x1 PUSH1 0x1 PUSH1 0x80 SHL SUB NOT AND PUSH1 0x1 PUSH1 0x1 PUSH1 0x80 SHL SUB SWAP1 SWAP3 AND SWAP2 SWAP1 SWAP2 OR DUP2 SSTORE SWAP2 DUP2 ADD MLOAD SWAP1 SWAP3 DUP3 ADD SWAP1 PUSH2 0x15D2 SWAP1 DUP3 PUSH2 0x287B JUMP JUMPDEST POP PUSH1 0x40 DUP3 ADD MLOAD PUSH1 0x60 SWAP1 SWAP3 ADD MLOAD PUSH1 0x1 PUSH1 0x1 PUSH1 0x80 SHL SUB SWAP1 DUP2 AND PUSH1 0x1 PUSH1 0x80 SHL MUL SWAP3 AND SWAP2 SWAP1 SWAP2 OR PUSH1 0x2 SWAP1 SWAP2 ADD SSTORE PUSH1 0x1 ADD PUSH2 0x155E JUMP JUMPDEST POP PUSH1 0x1 PUSH1 0x1 PUSH1 0xA0 SHL SUB DUP11 AND PUSH0 DUP2 DUP2 MSTORE PUSH1 0x3 PUSH1 0x20 SWAP1 DUP2 MSTORE PUSH1 0x40 DUP1 DUP4 KECCAK256 DUP1 SLOAD PUSH1 0x1 DUP1 DUP3 ADD DUP4 SSTORE SWAP2 DUP6 MSTORE SWAP4 DUP4 SWAP1 KECCAK256 PUSH1 0x2 DUP6 DIV ADD DUP1 SLOAD SWAP2 SWAP1 SWAP5 AND PUSH1 0x10 MUL PUSH2 0x100 EXP PUSH1 0x1 PUSH1 0x1 PUSH1 0x80 SHL SUB DUP2 DUP2 MUL NOT SWAP1 SWAP3 AND DUP9 DUP4 AND SWAP2 DUP3 MUL OR SWAP1 SWAP5 SSTORE SWAP1 MLOAD DUP11 DUP2 MSTORE SWAP1 DUP14 AND SWAP4 SWAP3 SWAP2 PUSH32 0x6CE2BB89BF47987F896A72756397A4441F5BE463C46B39A4102F8108D5ADE5E0 SWAP2 ADD PUSH1 0x40 MLOAD DUP1 SWAP2 SUB SWAP1 LOG4 PUSH1 0x1 DUP1 SLOAD PUSH1 0x1 PUSH1 0x1 PUSH1 0x80 SHL SUB AND SWAP1 PUSH0 PUSH2 0x16A7 DUP4 PUSH2 0x2806 JUMP JUMPDEST SWAP2 SWAP1 PUSH2 0x100 EXP DUP2 SLOAD DUP2 PUSH1 0x1 PUSH1 0x1 PUSH1 0x80 SHL SUB MUL NOT AND SWAP1 DUP4 PUSH1 0x1 PUSH1 0x1 PUSH1 0x80 SHL SUB AND MUL OR SWAP1 SSTORE POP POP POP POP POP POP POP POP PUSH2 0x16DB PUSH1 0x1 PUSH0 SSTORE JUMP JUMPDEST POP POP POP POP JUMP JUMPDEST PUSH1 0x6 SLOAD PUSH1 0x1 PUSH1 0x1 PUSH1 0xA0 SHL SUB AND CALLER EQ PUSH2 0x170C JUMPI PUSH1 0x40 MLOAD PUSH4 0x92B2F959 PUSH1 0xE0 SHL DUP2 MSTORE PUSH1 0x4 ADD PUSH1 0x40 MLOAD DUP1 SWAP2 SUB SWAP1 REVERT JUMPDEST PUSH2 0x1714 PUSH2 0x1D47 JUMP JUMPDEST PUSH1 0x1 PUSH1 0x1 PUSH1 0x80 SHL SUB DUP1 DUP4 AND PUSH0 SWAP1 DUP2 MSTORE PUSH1 0x2 PUSH1 0x20 MSTORE PUSH1 0x40 DUP2 KECCAK256 DUP1 SLOAD SWAP1 SWAP3 AND SWAP1 SUB PUSH2 0x175B JUMPI PUSH1 0x40 MLOAD PUSH4 0x5E8F385 PUSH1 0xE4 SHL DUP2 MSTORE PUSH1 0x1 PUSH1 0x1 PUSH1 0x80 SHL SUB DUP5 AND PUSH1 0x4 DUP3 ADD MSTORE PUSH1 0x24 ADD PUSH2 0x5FF JUMP JUMPDEST PUSH1 0x2 DUP2 ADD SLOAD PUSH1 0x1 PUSH1 0x1 PUSH1 0x80 SHL SUB DUP4 DUP2 AND SWAP2 AND EQ PUSH2 0x17B3 JUMPI PUSH1 0x2 DUP2 ADD SLOAD PUSH1 0x40 MLOAD PUSH4 0xD52781E9 PUSH1 0xE0 SHL DUP2 MSTORE PUSH1 0x1 PUSH1 0x1 PUSH1 0xA0 SHL SUB DUP7 AND PUSH1 0x4 DUP3 ADD MSTORE PUSH1 0x1 PUSH1 0x1 PUSH1 0x80 SHL SUB SWAP2 DUP3 AND PUSH1 0x24 DUP3 ADD MSTORE SWAP1 DUP4 AND PUSH1 0x44 DUP3 ADD MSTORE PUSH1 0x64 ADD PUSH2 0x5FF JUMP JUMPDEST PUSH1 0x3 PUSH1 0x5 DUP3 ADD SLOAD PUSH1 0xFF AND PUSH1 0x6 DUP2 GT ISZERO PUSH2 0x17CE JUMPI PUSH2 0x17CE PUSH2 0x1F9A JUMP JUMPDEST EQ ISZERO DUP1 ISZERO PUSH2 0x17F5 JUMPI POP PUSH1 0x4 PUSH1 0x5 DUP3 ADD SLOAD PUSH1 0xFF AND PUSH1 0x6 DUP2 GT ISZERO PUSH2 0x17F2 JUMPI PUSH2 0x17F2 PUSH2 0x1F9A JUMP JUMPDEST EQ ISZERO JUMPDEST ISZERO PUSH2 0x181C JUMPI PUSH1 0x5 DUP2 ADD SLOAD PUSH1 0x40 MLOAD PUSH4 0x388A923D PUSH1 0xE0 SHL DUP2 MSTORE PUSH2 0x5FF SWAP2 PUSH1 0xFF AND SWAP1 PUSH1 0x4 ADD PUSH2 0x2935 JUMP JUMPDEST PUSH1 0x5 DUP2 DUP2 ADD DUP1 SLOAD PUSH1 0xFF NOT DUP2 AND DUP4 OR SWAP1 SWAP2 SSTORE SWAP1 SLOAD PUSH1 0x2 DUP4 ADD SLOAD PUSH1 0x40 MLOAD PUSH4 0xB9588327 PUSH1 0xE0 SHL DUP2 MSTORE PUSH1 0x1 PUSH1 0x1 PUSH1 0x80 SHL SUB SWAP1 SWAP2 AND PUSH1 0x4 DUP3 ADD MSTORE PUSH1 0xFF SWAP1 SWAP3 AND SWAP2 PUSH0 SWAP2 PUSH1 0x1 PUSH1 0x1 PUSH1 0xA0 SHL SUB AND SWAP1 PUSH4 0xB9588327 SWAP1 PUSH1 0x24 ADD PUSH1 0x20 PUSH1 0x40 MLOAD DUP1 DUP4 SUB DUP2 DUP7 GAS STATICCALL ISZERO DUP1 ISZERO PUSH2 0x1887 JUMPI RETURNDATASIZE PUSH0 PUSH0 RETURNDATACOPY RETURNDATASIZE PUSH0 REVERT JUMPDEST POP POP POP POP PUSH1 0x40 MLOAD RETURNDATASIZE PUSH1 0x1F NOT PUSH1 0x1F DUP3 ADD AND DUP3 ADD DUP1 PUSH1 0x40 MSTORE POP DUP2 ADD SWAP1 PUSH2 0x18AB SWAP2 SWAP1 PUSH2 0x2967 JUMP JUMPDEST SWAP1 POP PUSH1 0x1 PUSH1 0x1 PUSH1 0xA0 SHL SUB DUP2 AND PUSH2 0x18E5 JUMPI PUSH1 0x2 DUP4 ADD SLOAD PUSH1 0x40 MLOAD PUSH4 0x10DE8DC5 PUSH1 0xE3 SHL DUP2 MSTORE PUSH1 0x1 PUSH1 0x1 PUSH1 0x80 SHL SUB SWAP1 SWAP2 AND PUSH1 0x4 DUP3 ADD MSTORE PUSH1 0x24 ADD PUSH2 0x5FF JUMP JUMPDEST PUSH1 0x4 DUP4 ADD SLOAD PUSH1 0x7 SLOAD PUSH0 SWAP1 ISZERO DUP1 ISZERO SWAP1 PUSH2 0x1900 JUMPI POP PUSH1 0x64 PUSH1 0x7 SLOAD GT ISZERO JUMPDEST ISZERO PUSH2 0x1938 JUMPI PUSH1 0x64 PUSH1 0x7 SLOAD DUP7 PUSH1 0x4 ADD SLOAD PUSH2 0x1919 SWAP2 SWAP1 PUSH2 0x27D0 JUMP JUMPDEST PUSH2 0x1923 SWAP2 SWAP1 PUSH2 0x2982 JUMP JUMPDEST SWAP1 POP DUP1 DUP6 PUSH1 0x4 ADD SLOAD PUSH2 0x1935 SWAP2 SWAP1 PUSH2 0x25A0 JUMP JUMPDEST SWAP2 POP JUMPDEST DUP2 ISZERO PUSH2 0x19B0 JUMPI PUSH0 DUP4 PUSH1 0x1 PUSH1 0x1 PUSH1 0xA0 SHL SUB AND DUP4 PUSH1 0x40 MLOAD PUSH0 PUSH1 0x40 MLOAD DUP1 DUP4 SUB DUP2 DUP6 DUP8 GAS CALL SWAP3 POP POP POP RETURNDATASIZE DUP1 PUSH0 DUP2 EQ PUSH2 0x1987 JUMPI PUSH1 0x40 MLOAD SWAP2 POP PUSH1 0x1F NOT PUSH1 0x3F RETURNDATASIZE ADD AND DUP3 ADD PUSH1 0x40 MSTORE RETURNDATASIZE DUP3 MSTORE RETURNDATASIZE PUSH0 PUSH1 0x20 DUP5 ADD RETURNDATACOPY PUSH2 0x198C JUMP JUMPDEST PUSH1 0x60 SWAP2 POP JUMPDEST POP POP SWAP1 POP DUP1 PUSH2 0x19AE JUMPI PUSH1 0x40 MLOAD PUSH4 0x4239E21D PUSH1 0xE1 SHL DUP2 MSTORE PUSH1 0x4 ADD PUSH1 0x40 MLOAD DUP1 SWAP2 SUB SWAP1 REVERT JUMPDEST POP JUMPDEST DUP1 ISZERO PUSH2 0x1A2F JUMPI PUSH0 PUSH2 0x19BF PUSH2 0xEB6 JUMP JUMPDEST PUSH1 0x1 PUSH1 0x1 PUSH1 0xA0 SHL SUB AND DUP3 PUSH1 0x40 MLOAD PUSH0 PUSH1 0x40 MLOAD DUP1 DUP4 SUB DUP2 DUP6 DUP8 GAS CALL SWAP3 POP POP POP RETURNDATASIZE DUP1 PUSH0 DUP2 EQ PUSH2 0x1A06 JUMPI PUSH1 0x40 MLOAD SWAP2 POP PUSH1 0x1F NOT PUSH1 0x3F RETURNDATASIZE ADD AND DUP3 ADD PUSH1 0x40 MSTORE RETURNDATASIZE DUP3 MSTORE RETURNDATASIZE PUSH0 PUSH1 0x20 DUP5 ADD RETURNDATACOPY PUSH2 0x1A0B JUMP JUMPDEST PUSH1 0x60 SWAP2 POP JUMPDEST POP POP SWAP1 POP DUP1 PUSH2 0x1A2D JUMPI PUSH1 0x40 MLOAD PUSH4 0x4239E21D PUSH1 0xE1 SHL DUP2 MSTORE PUSH1 0x4 ADD PUSH1 0x40 MLOAD DUP1 SWAP2 SUB SWAP1 REVERT JUMPDEST POP JUMPDEST PUSH1 0x40 DUP1 MLOAD DUP4 DUP2 MSTORE PUSH1 0x20 DUP2 ADD DUP4 SWAP1 MSTORE PUSH1 0x1 PUSH1 0x1 PUSH1 0xA0 SHL SUB DUP6 AND SWAP2 PUSH1 0x1 PUSH1 0x1 PUSH1 0x80 SHL SUB DUP11 AND SWAP2 PUSH32 0xD2A6AEE9265D7E28B871C25501ABE610595EECB7DD2F5DDE2D7C55A5CE7F644F SWAP2 ADD PUSH1 0x40 MLOAD DUP1 SWAP2 SUB SWAP1 LOG3 DUP7 PUSH1 0x1 PUSH1 0x1 PUSH1 0x80 SHL SUB AND PUSH32 0x8C649B2AD43B6449BBEEE9487A5EFE9F7FCDED9570A17906D76F159A34713011 DUP6 PUSH1 0x5 PUSH1 0x40 MLOAD PUSH2 0x1ABA SWAP3 SWAP2 SWAP1 PUSH2 0x252E JUMP JUMPDEST PUSH1 0x40 MLOAD DUP1 SWAP2 SUB SWAP1 LOG2 POP POP POP POP POP PUSH2 0x1AD0 PUSH1 0x1 PUSH0 SSTORE JUMP JUMPDEST POP POP POP JUMP JUMPDEST PUSH2 0x1ADD PUSH2 0x1D15 JUMP JUMPDEST PUSH1 0x1 PUSH1 0x1 PUSH1 0xA0 SHL SUB DUP2 AND PUSH2 0x1B06 JUMPI PUSH1 0x40 MLOAD PUSH4 0x1E4FBDF7 PUSH1 0xE0 SHL DUP2 MSTORE PUSH0 PUSH1 0x4 DUP3 ADD MSTORE PUSH1 0x24 ADD PUSH2 0x5FF JUMP JUMPDEST PUSH2 0x1B0F DUP2 PUSH2 0x1D6F JUMP JUMPDEST POP JUMP JUMPDEST PUSH0 PUSH2 0x1B1B PUSH2 0x1DDF JUMP JUMPDEST DUP1 SLOAD SWAP1 SWAP2 POP PUSH1 0xFF PUSH1 0x1 PUSH1 0x40 SHL DUP3 DIV AND ISZERO SWAP1 PUSH1 0x1 PUSH1 0x1 PUSH1 0x40 SHL SUB AND PUSH0 DUP2 ISZERO DUP1 ISZERO PUSH2 0x1B41 JUMPI POP DUP3 JUMPDEST SWAP1 POP PUSH0 DUP3 PUSH1 0x1 PUSH1 0x1 PUSH1 0x40 SHL SUB AND PUSH1 0x1 EQ DUP1 ISZERO PUSH2 0x1B5C JUMPI POP ADDRESS EXTCODESIZE ISZERO JUMPDEST SWAP1 POP DUP2 ISZERO DUP1 ISZERO PUSH2 0x1B6A JUMPI POP DUP1 ISZERO JUMPDEST ISZERO PUSH2 0x1B88 JUMPI PUSH1 0x40 MLOAD PUSH4 0xF92EE8A9 PUSH1 0xE0 SHL DUP2 MSTORE PUSH1 0x4 ADD PUSH1 0x40 MLOAD DUP1 SWAP2 SUB SWAP1 REVERT JUMPDEST DUP5 SLOAD PUSH8 0xFFFFFFFFFFFFFFFF NOT AND PUSH1 0x1 OR DUP6 SSTORE DUP4 ISZERO PUSH2 0x1BB2 JUMPI DUP5 SLOAD PUSH1 0xFF PUSH1 0x40 SHL NOT AND PUSH1 0x1 PUSH1 0x40 SHL OR DUP6 SSTORE JUMPDEST PUSH1 0x1 PUSH1 0x1 PUSH1 0xA0 SHL SUB DUP10 AND PUSH2 0x1BD9 JUMPI PUSH1 0x40 MLOAD PUSH4 0x2B840735 PUSH1 0xE1 SHL DUP2 MSTORE PUSH1 0x4 ADD PUSH1 0x40 MLOAD DUP1 SWAP2 SUB SWAP1 REVERT JUMPDEST PUSH1 0x1 PUSH1 0x1 PUSH1 0xA0 SHL SUB DUP9 AND PUSH2 0x1C1E JUMPI PUSH1 0x40 MLOAD PUSH4 0x1F7ECDFF PUSH1 0xE3 SHL DUP2 MSTORE PUSH1 0x20 PUSH1 0x4 DUP3 ADD MSTORE PUSH1 0xB PUSH1 0x24 DUP3 ADD MSTORE PUSH11 0x26B2B73AA6B0B730B3B2B9 PUSH1 0xA9 SHL PUSH1 0x44 DUP3 ADD MSTORE PUSH1 0x64 ADD PUSH2 0x5FF JUMP JUMPDEST PUSH1 0x1 PUSH1 0x1 PUSH1 0xA0 SHL SUB DUP8 AND PUSH2 0x1C69 JUMPI PUSH1 0x40 MLOAD PUSH4 0x1F7ECDFF PUSH1 0xE3 SHL DUP2 MSTORE PUSH1 0x20 PUSH1 0x4 DUP3 ADD MSTORE PUSH1 0x11 PUSH1 0x24 DUP3 ADD MSTORE PUSH17 0x2932B9BA30BAB930B73A26B0B730B3B2B9 PUSH1 0x79 SHL PUSH1 0x44 DUP3 ADD MSTORE PUSH1 0x64 ADD PUSH2 0x5FF JUMP JUMPDEST PUSH2 0x1C72 DUP7 PUSH2 0x1E07 JUMP JUMPDEST PUSH1 0x6 DUP1 SLOAD PUSH1 0x1 PUSH1 0x1 PUSH1 0xA0 SHL SUB DUP1 DUP13 AND PUSH1 0x1 PUSH1 0x1 PUSH1 0xA0 SHL SUB NOT SWAP3 DUP4 AND OR SWAP1 SWAP3 SSTORE PUSH1 0x4 DUP1 SLOAD DUP12 DUP5 AND SWAP1 DUP4 AND OR SWAP1 SSTORE PUSH1 0x5 DUP1 SLOAD SWAP3 DUP11 AND SWAP3 SWAP1 SWAP2 AND SWAP2 SWAP1 SWAP2 OR DUP2 SSTORE PUSH1 0x1 DUP1 SLOAD PUSH1 0x1 PUSH1 0x1 PUSH1 0x80 SHL SUB NOT AND DUP2 OR SWAP1 SSTORE PUSH1 0x7 SSTORE DUP4 ISZERO PUSH2 0x1D0A JUMPI DUP5 SLOAD PUSH1 0xFF PUSH1 0x40 SHL NOT AND DUP6 SSTORE PUSH1 0x40 MLOAD PUSH1 0x1 DUP2 MSTORE PUSH32 0xC7F505B2F371AE2175EE4913F4499E1F2633A7B5936321EED1CDAEB6115181D2 SWAP1 PUSH1 0x20 ADD PUSH1 0x40 MLOAD DUP1 SWAP2 SUB SWAP1 LOG1 JUMPDEST POP POP POP POP POP POP POP POP POP JUMP JUMPDEST CALLER PUSH2 0x1D1E PUSH2 0xEB6 JUMP JUMPDEST PUSH1 0x1 PUSH1 0x1 PUSH1 0xA0 SHL SUB AND EQ PUSH2 0xE71 JUMPI PUSH1 0x40 MLOAD PUSH4 0x118CDAA7 PUSH1 0xE0 SHL DUP2 MSTORE CALLER PUSH1 0x4 DUP3 ADD MSTORE PUSH1 0x24 ADD PUSH2 0x5FF JUMP JUMPDEST PUSH1 0x2 PUSH0 SLOAD SUB PUSH2 0x1D69 JUMPI PUSH1 0x40 MLOAD PUSH4 0x3EE5AEB5 PUSH1 0xE0 SHL DUP2 MSTORE PUSH1 0x4 ADD PUSH1 0x40 MLOAD DUP1 SWAP2 SUB SWAP1 REVERT JUMPDEST PUSH1 0x2 PUSH0 SSTORE JUMP JUMPDEST PUSH32 0x9016D09D72D40FDAE2FD8CEAC6B6234C7706214FD39C1CD1E609A0528C199300 DUP1 SLOAD PUSH1 0x1 PUSH1 0x1 PUSH1 0xA0 SHL SUB NOT DUP2 AND PUSH1 0x1 PUSH1 0x1 PUSH1 0xA0 SHL SUB DUP5 DUP2 AND SWAP2 DUP3 OR DUP5 SSTORE PUSH1 0x40 MLOAD SWAP3 AND SWAP2 DUP3 SWAP1 PUSH32 0x8BE0079C531659141344CD1FD0A4F28419497F9722A3DAAFE3B4186F6B6457E0 SWAP1 PUSH0 SWAP1 LOG3 POP POP POP JUMP JUMPDEST PUSH0 DUP1 PUSH32 0xF0C57E16840DF040F15088DC2F81FE391C3923BEC73E23A9662EFC9C229C6A00 PUSH2 0x608 JUMP JUMPDEST PUSH2 0x1E0F PUSH2 0x1E18 JUMP JUMPDEST PUSH2 0x1B0F DUP2 PUSH2 0x1E3D JUMP JUMPDEST PUSH2 0x1E20 PUSH2 0x1E45 JUMP JUMPDEST PUSH2 0xE71 JUMPI PUSH1 0x40 MLOAD PUSH4 0x1AFCD79F PUSH1 0xE3 SHL DUP2 MSTORE PUSH1 0x4 ADD PUSH1 0x40 MLOAD DUP1 SWAP2 SUB SWAP1 REVERT JUMPDEST PUSH2 0x1ADD PUSH2 0x1E18 JUMP JUMPDEST PUSH0 PUSH2 0x1E4E PUSH2 0x1DDF JUMP JUMPDEST SLOAD PUSH1 0x1 PUSH1 0x40 SHL SWAP1 DIV PUSH1 0xFF AND SWAP2 SWAP1 POP JUMP JUMPDEST PUSH1 0x40 DUP1 MLOAD PUSH2 0x120 DUP2 ADD DUP3 MSTORE PUSH0 DUP1 DUP3 MSTORE PUSH1 0x20 DUP3 ADD DUP2 SWAP1 MSTORE SWAP2 DUP2 ADD DUP3 SWAP1 MSTORE PUSH1 0x60 DUP1 DUP3 ADD MSTORE PUSH1 0x80 DUP2 ADD DUP3 SWAP1 MSTORE SWAP1 PUSH1 0xA0 DUP3 ADD SWAP1 DUP2 MSTORE PUSH0 PUSH1 0x20 DUP3 ADD DUP2 SWAP1 MSTORE PUSH1 0x40 DUP3 ADD DUP2 SWAP1 MSTORE PUSH1 0x60 SWAP1 SWAP2 ADD MSTORE SWAP1 JUMP JUMPDEST PUSH1 0x1 PUSH1 0x1 PUSH1 0x80 SHL SUB DUP2 AND DUP2 EQ PUSH2 0x1B0F JUMPI PUSH0 PUSH0 REVERT JUMPDEST PUSH0 PUSH1 0x20 DUP3 DUP5 SUB SLT ISZERO PUSH2 0x1ECB JUMPI PUSH0 PUSH0 REVERT JUMPDEST DUP2 CALLDATALOAD PUSH2 0x1ED6 DUP2 PUSH2 0x1EA7 JUMP JUMPDEST SWAP4 SWAP3 POP POP POP JUMP JUMPDEST PUSH0 DUP3 DUP3 MLOAD DUP1 DUP6 MSTORE PUSH1 0x20 DUP6 ADD SWAP5 POP PUSH1 0x20 DUP2 PUSH1 0x5 SHL DUP4 ADD ADD PUSH1 0x20 DUP6 ADD PUSH0 JUMPDEST DUP4 DUP2 LT ISZERO PUSH2 0x1F8E JUMPI PUSH1 0x1F NOT DUP6 DUP5 SUB ADD DUP9 MSTORE DUP2 MLOAD PUSH1 0x1 PUSH1 0x1 PUSH1 0x80 SHL SUB DUP2 MLOAD AND DUP5 MSTORE PUSH1 0x20 DUP2 ADD MLOAD PUSH1 0x80 PUSH1 0x20 DUP7 ADD MSTORE DUP1 MLOAD DUP1 PUSH1 0x80 DUP8 ADD MSTORE DUP1 PUSH1 0x20 DUP4 ADD PUSH1 0xA0 DUP9 ADD MCOPY PUSH0 PUSH1 0xA0 DUP3 DUP9 ADD ADD MSTORE PUSH1 0x1 PUSH1 0x1 PUSH1 0x80 SHL SUB PUSH1 0x40 DUP5 ADD MLOAD AND PUSH1 0x40 DUP8 ADD MSTORE PUSH1 0x1 PUSH1 0x1 PUSH1 0x80 SHL SUB PUSH1 0x60 DUP5 ADD MLOAD AND PUSH1 0x60 DUP8 ADD MSTORE PUSH1 0xA0 PUSH1 0x1F NOT PUSH1 0x1F DUP4 ADD AND DUP8 ADD ADD SWAP6 POP POP POP POP PUSH1 0x20 DUP3 ADD SWAP2 POP PUSH1 0x20 DUP9 ADD SWAP8 POP PUSH1 0x1 DUP2 ADD SWAP1 POP PUSH2 0x1EF9 JUMP JUMPDEST POP SWAP1 SWAP7 SWAP6 POP POP POP POP POP POP JUMP JUMPDEST PUSH4 0x4E487B71 PUSH1 0xE0 SHL PUSH0 MSTORE PUSH1 0x21 PUSH1 0x4 MSTORE PUSH1 0x24 PUSH0 REVERT JUMPDEST PUSH1 0x7 DUP2 LT PUSH2 0x1FCA JUMPI PUSH4 0x4E487B71 PUSH1 0xE0 SHL PUSH0 MSTORE PUSH1 0x21 PUSH1 0x4 MSTORE PUSH1 0x24 PUSH0 REVERT JUMPDEST SWAP1 MSTORE JUMP JUMPDEST DUP1 MLOAD PUSH1 0x1 PUSH1 0x1 PUSH1 0x80 SHL SUB AND DUP3 MSTORE PUSH0 PUSH1 0x20 DUP3 ADD MLOAD PUSH2 0x1FF6 PUSH1 0x20 DUP6 ADD DUP3 PUSH1 0x1 PUSH1 0x1 PUSH1 0xA0 SHL SUB AND SWAP1 MSTORE JUMP JUMPDEST POP PUSH1 0x40 DUP3 ADD MLOAD PUSH2 0x2011 PUSH1 0x40 DUP6 ADD DUP3 PUSH1 0x1 PUSH1 0x1 PUSH1 0x80 SHL SUB AND SWAP1 MSTORE JUMP JUMPDEST POP PUSH1 0x60 DUP3 ADD MLOAD PUSH2 0x120 PUSH1 0x60 DUP6 ADD MSTORE PUSH2 0x202D PUSH2 0x120 DUP6 ADD DUP3 PUSH2 0x1EDD JUMP JUMPDEST SWAP1 POP PUSH1 0x80 DUP4 ADD MLOAD PUSH1 0x80 DUP6 ADD MSTORE PUSH1 0xA0 DUP4 ADD MLOAD PUSH2 0x204B PUSH1 0xA0 DUP7 ADD DUP3 PUSH2 0x1FAE JUMP JUMPDEST POP PUSH1 0xC0 DUP4 ADD MLOAD PUSH2 0x2066 PUSH1 0xC0 DUP7 ADD DUP3 PUSH1 0x1 PUSH1 0x1 PUSH1 0x80 SHL SUB AND SWAP1 MSTORE JUMP JUMPDEST POP PUSH1 0xE0 DUP4 ADD MLOAD PUSH2 0x2081 PUSH1 0xE0 DUP7 ADD DUP3 PUSH1 0x1 PUSH1 0x1 PUSH1 0x80 SHL SUB AND SWAP1 MSTORE JUMP JUMPDEST POP PUSH2 0x100 DUP4 ADD MLOAD PUSH2 0x209E PUSH2 0x100 DUP7 ADD DUP3 PUSH1 0x1 PUSH1 0x1 PUSH1 0x80 SHL SUB AND SWAP1 MSTORE JUMP JUMPDEST POP SWAP4 SWAP3 POP POP POP JUMP JUMPDEST PUSH1 0x20 DUP2 MSTORE PUSH0 PUSH2 0x1ED6 PUSH1 0x20 DUP4 ADD DUP5 PUSH2 0x1FCE JUMP JUMPDEST PUSH0 PUSH1 0x20 DUP3 DUP5 SUB SLT ISZERO PUSH2 0x20C8 JUMPI PUSH0 PUSH0 REVERT JUMPDEST POP CALLDATALOAD SWAP2 SWAP1 POP JUMP JUMPDEST PUSH1 0x1 PUSH1 0x1 PUSH1 0xA0 SHL SUB DUP2 AND DUP2 EQ PUSH2 0x1B0F JUMPI PUSH0 PUSH0 REVERT JUMPDEST PUSH0 PUSH0 PUSH0 PUSH0 PUSH1 0x80 DUP6 DUP8 SUB SLT ISZERO PUSH2 0x20F6 JUMPI PUSH0 PUSH0 REVERT JUMPDEST DUP5 CALLDATALOAD PUSH2 0x2101 DUP2 PUSH2 0x20CF JUMP JUMPDEST SWAP4 POP PUSH1 0x20 DUP6 ADD CALLDATALOAD PUSH2 0x2111 DUP2 PUSH2 0x1EA7 JUMP JUMPDEST SWAP3 POP PUSH1 0x40 DUP6 ADD CALLDATALOAD PUSH1 0x7 DUP2 LT PUSH2 0x2124 JUMPI PUSH0 PUSH0 REVERT JUMPDEST SWAP2 POP PUSH1 0x60 DUP6 ADD CALLDATALOAD PUSH2 0x2134 DUP2 PUSH2 0x1EA7 JUMP JUMPDEST SWAP4 SWAP7 SWAP3 SWAP6 POP SWAP1 SWAP4 POP POP JUMP JUMPDEST PUSH0 PUSH0 PUSH1 0x40 DUP4 DUP6 SUB SLT ISZERO PUSH2 0x2150 JUMPI PUSH0 PUSH0 REVERT JUMPDEST DUP3 CALLDATALOAD PUSH2 0x215B DUP2 PUSH2 0x20CF JUMP JUMPDEST SWAP2 POP PUSH1 0x20 DUP4 ADD CALLDATALOAD PUSH2 0x216B DUP2 PUSH2 0x1EA7 JUMP JUMPDEST DUP1 SWAP2 POP POP SWAP3 POP SWAP3 SWAP1 POP JUMP JUMPDEST PUSH0 PUSH0 PUSH0 PUSH1 0x60 DUP5 DUP7 SUB SLT ISZERO PUSH2 0x2188 JUMPI PUSH0 PUSH0 REVERT JUMPDEST DUP4 CALLDATALOAD PUSH2 0x2193 DUP2 PUSH2 0x20CF JUMP JUMPDEST SWAP6 PUSH1 0x20 DUP6 ADD CALLDATALOAD SWAP6 POP PUSH1 0x40 SWAP1 SWAP5 ADD CALLDATALOAD SWAP4 SWAP3 POP POP POP JUMP JUMPDEST PUSH0 PUSH1 0x40 DUP3 ADD PUSH1 0x40 DUP4 MSTORE DUP1 DUP6 MLOAD DUP1 DUP4 MSTORE PUSH1 0x60 DUP6 ADD SWAP2 POP PUSH1 0x60 DUP2 PUSH1 0x5 SHL DUP7 ADD ADD SWAP3 POP PUSH1 0x20 DUP8 ADD PUSH0 JUMPDEST DUP3 DUP2 LT ISZERO PUSH2 0x21FF JUMPI PUSH1 0x5F NOT DUP8 DUP7 SUB ADD DUP5 MSTORE PUSH2 0x21EA DUP6 DUP4 MLOAD PUSH2 0x1FCE JUMP JUMPDEST SWAP5 POP PUSH1 0x20 SWAP4 DUP5 ADD SWAP4 SWAP2 SWAP1 SWAP2 ADD SWAP1 PUSH1 0x1 ADD PUSH2 0x21CE JUMP JUMPDEST POP POP POP POP PUSH1 0x20 SWAP3 SWAP1 SWAP3 ADD SWAP3 SWAP1 SWAP3 MSTORE SWAP3 SWAP2 POP POP JUMP JUMPDEST PUSH0 PUSH1 0x20 DUP3 DUP5 SUB SLT ISZERO PUSH2 0x2223 JUMPI PUSH0 PUSH0 REVERT JUMPDEST DUP2 CALLDATALOAD PUSH2 0x1ED6 DUP2 PUSH2 0x20CF JUMP JUMPDEST PUSH4 0x4E487B71 PUSH1 0xE0 SHL PUSH0 MSTORE PUSH1 0x41 PUSH1 0x4 MSTORE PUSH1 0x24 PUSH0 REVERT JUMPDEST PUSH1 0x40 MLOAD PUSH2 0x160 DUP2 ADD PUSH1 0x1 PUSH1 0x1 PUSH1 0x40 SHL SUB DUP2 GT DUP3 DUP3 LT OR ISZERO PUSH2 0x2265 JUMPI PUSH2 0x2265 PUSH2 0x222E JUMP JUMPDEST PUSH1 0x40 MSTORE SWAP1 JUMP JUMPDEST PUSH1 0x40 MLOAD PUSH1 0x1F DUP3 ADD PUSH1 0x1F NOT AND DUP2 ADD PUSH1 0x1 PUSH1 0x1 PUSH1 0x40 SHL SUB DUP2 GT DUP3 DUP3 LT OR ISZERO PUSH2 0x2293 JUMPI PUSH2 0x2293 PUSH2 0x222E JUMP JUMPDEST PUSH1 0x40 MSTORE SWAP2 SWAP1 POP JUMP JUMPDEST PUSH0 DUP3 PUSH1 0x1F DUP4 ADD SLT PUSH2 0x22AA JUMPI PUSH0 PUSH0 REVERT JUMPDEST DUP2 CALLDATALOAD PUSH1 0x1 PUSH1 0x1 PUSH1 0x40 SHL SUB DUP2 GT ISZERO PUSH2 0x22C3 JUMPI PUSH2 0x22C3 PUSH2 0x222E JUMP JUMPDEST DUP1 PUSH1 0x5 SHL PUSH2 0x22D3 PUSH1 0x20 DUP3 ADD PUSH2 0x226B JUMP JUMPDEST SWAP2 DUP3 MSTORE PUSH1 0x20 DUP2 DUP6 ADD DUP2 ADD SWAP3 SWAP1 DUP2 ADD SWAP1 DUP7 DUP5 GT ISZERO PUSH2 0x22EE JUMPI PUSH0 PUSH0 REVERT JUMPDEST PUSH1 0x20 DUP7 ADD SWAP3 POP JUMPDEST DUP4 DUP4 LT ISZERO PUSH2 0x2319 JUMPI DUP3 CALLDATALOAD PUSH2 0x2308 DUP2 PUSH2 0x1EA7 JUMP JUMPDEST DUP3 MSTORE PUSH1 0x20 SWAP3 DUP4 ADD SWAP3 SWAP1 SWAP2 ADD SWAP1 PUSH2 0x22F5 JUMP JUMPDEST SWAP7 SWAP6 POP POP POP POP POP POP JUMP JUMPDEST PUSH0 PUSH0 PUSH0 PUSH0 PUSH1 0x80 DUP6 DUP8 SUB SLT ISZERO PUSH2 0x2336 JUMPI PUSH0 PUSH0 REVERT JUMPDEST DUP5 CALLDATALOAD PUSH2 0x2341 DUP2 PUSH2 0x20CF JUMP JUMPDEST SWAP4 POP PUSH1 0x20 DUP6 ADD CALLDATALOAD PUSH2 0x2351 DUP2 PUSH2 0x1EA7 JUMP JUMPDEST SWAP3 POP PUSH1 0x40 DUP6 ADD CALLDATALOAD PUSH1 0x1 PUSH1 0x1 PUSH1 0x40 SHL SUB DUP2 GT ISZERO PUSH2 0x236B JUMPI PUSH0 PUSH0 REVERT JUMPDEST PUSH2 0x2377 DUP8 DUP3 DUP9 ADD PUSH2 0x229B JUMP JUMPDEST SWAP3 POP POP PUSH1 0x60 DUP6 ADD CALLDATALOAD PUSH1 0x1 PUSH1 0x1 PUSH1 0x40 SHL SUB DUP2 GT ISZERO PUSH2 0x2392 JUMPI PUSH0 PUSH0 REVERT JUMPDEST PUSH2 0x239E DUP8 DUP3 DUP9 ADD PUSH2 0x229B JUMP JUMPDEST SWAP2 POP POP SWAP3 SWAP6 SWAP2 SWAP5 POP SWAP3 POP JUMP JUMPDEST PUSH0 PUSH0 PUSH0 PUSH1 0x60 DUP5 DUP7 SUB SLT ISZERO PUSH2 0x23BC JUMPI PUSH0 PUSH0 REVERT JUMPDEST DUP4 CALLDATALOAD PUSH2 0x23C7 DUP2 PUSH2 0x20CF JUMP JUMPDEST SWAP3 POP PUSH1 0x20 DUP5 ADD CALLDATALOAD PUSH2 0x23D7 DUP2 PUSH2 0x1EA7 JUMP JUMPDEST SWAP2 POP PUSH1 0x40 DUP5 ADD CALLDATALOAD PUSH2 0x23E7 DUP2 PUSH2 0x1EA7 JUMP JUMPDEST DUP1 SWAP2 POP POP SWAP3 POP SWAP3 POP SWAP3 JUMP JUMPDEST PUSH0 PUSH0 PUSH0 PUSH0 PUSH1 0x80 DUP6 DUP8 SUB SLT ISZERO PUSH2 0x2405 JUMPI PUSH0 PUSH0 REVERT JUMPDEST DUP5 CALLDATALOAD PUSH2 0x2410 DUP2 PUSH2 0x20CF JUMP JUMPDEST SWAP4 POP PUSH1 0x20 DUP6 ADD CALLDATALOAD PUSH2 0x2420 DUP2 PUSH2 0x20CF JUMP JUMPDEST SWAP3 POP PUSH1 0x40 DUP6 ADD CALLDATALOAD PUSH2 0x2430 DUP2 PUSH2 0x20CF JUMP JUMPDEST SWAP2 POP PUSH1 0x60 DUP6 ADD CALLDATALOAD PUSH2 0x2134 DUP2 PUSH2 0x20CF JUMP JUMPDEST PUSH1 0x1 PUSH1 0x1 PUSH1 0x80 SHL SUB DUP10 DUP2 AND DUP3 MSTORE PUSH1 0x1 PUSH1 0x1 PUSH1 0xA0 SHL SUB DUP10 AND PUSH1 0x20 DUP4 ADD MSTORE DUP8 AND PUSH1 0x40 DUP3 ADD MSTORE PUSH1 0x60 DUP2 ADD DUP7 SWAP1 MSTORE PUSH2 0x100 DUP2 ADD PUSH2 0x247C PUSH1 0x80 DUP4 ADD DUP8 PUSH2 0x1FAE JUMP JUMPDEST PUSH1 0x1 PUSH1 0x1 PUSH1 0x80 SHL SUB DUP6 AND PUSH1 0xA0 DUP4 ADD MSTORE PUSH1 0x1 PUSH1 0x1 PUSH1 0x80 SHL SUB DUP5 AND PUSH1 0xC0 DUP4 ADD MSTORE PUSH1 0x1 PUSH1 0x1 PUSH1 0x80 SHL SUB DUP4 AND PUSH1 0xE0 DUP4 ADD MSTORE SWAP10 SWAP9 POP POP POP POP POP POP POP POP POP JUMP JUMPDEST PUSH1 0x1 DUP2 DUP2 SHR SWAP1 DUP3 AND DUP1 PUSH2 0x24CA JUMPI PUSH1 0x7F DUP3 AND SWAP2 POP JUMPDEST PUSH1 0x20 DUP3 LT DUP2 SUB PUSH2 0x24E8 JUMPI PUSH4 0x4E487B71 PUSH1 0xE0 SHL PUSH0 MSTORE PUSH1 0x22 PUSH1 0x4 MSTORE PUSH1 0x24 PUSH0 REVERT JUMPDEST POP SWAP2 SWAP1 POP JUMP JUMPDEST PUSH2 0x24F8 DUP2 DUP4 PUSH2 0x1FAE JUMP JUMPDEST PUSH1 0x40 PUSH1 0x20 DUP3 ADD DUP2 SWAP1 MSTORE PUSH1 0x16 SWAP1 DUP3 ADD MSTORE PUSH22 0x7570646174652028616C72656164792066696E616C29 PUSH1 0x50 SHL PUSH1 0x60 DUP3 ADD MSTORE PUSH1 0x80 ADD SWAP2 SWAP1 POP JUMP JUMPDEST PUSH1 0x40 DUP2 ADD PUSH2 0x253C DUP3 DUP6 PUSH2 0x1FAE JUMP JUMPDEST PUSH2 0x1ED6 PUSH1 0x20 DUP4 ADD DUP5 PUSH2 0x1FAE JUMP JUMPDEST PUSH2 0x2553 DUP2 DUP4 PUSH2 0x1FAE JUMP JUMPDEST PUSH1 0x40 PUSH1 0x20 DUP3 ADD DUP2 SWAP1 MSTORE PUSH1 0x6 SWAP1 DUP3 ADD MSTORE PUSH6 0x18D85B98D95B PUSH1 0xD2 SHL PUSH1 0x60 DUP3 ADD MSTORE PUSH1 0x80 ADD SWAP2 SWAP1 POP JUMP JUMPDEST PUSH4 0x4E487B71 PUSH1 0xE0 SHL PUSH0 MSTORE PUSH1 0x11 PUSH1 0x4 MSTORE PUSH1 0x24 PUSH0 REVERT JUMPDEST DUP1 DUP3 ADD DUP1 DUP3 GT ISZERO PUSH2 0x608 JUMPI PUSH2 0x608 PUSH2 0x2579 JUMP JUMPDEST DUP2 DUP2 SUB DUP2 DUP2 GT ISZERO PUSH2 0x608 JUMPI PUSH2 0x608 PUSH2 0x2579 JUMP JUMPDEST PUSH4 0x4E487B71 PUSH1 0xE0 SHL PUSH0 MSTORE PUSH1 0x32 PUSH1 0x4 MSTORE PUSH1 0x24 PUSH0 REVERT JUMPDEST DUP1 MLOAD DUP1 ISZERO ISZERO DUP2 EQ PUSH2 0x25D6 JUMPI PUSH0 PUSH0 REVERT JUMPDEST SWAP2 SWAP1 POP JUMP JUMPDEST PUSH0 PUSH1 0x20 DUP3 DUP5 SUB SLT ISZERO PUSH2 0x25EB JUMPI PUSH0 PUSH0 REVERT JUMPDEST PUSH2 0x1ED6 DUP3 PUSH2 0x25C7 JUMP JUMPDEST DUP1 MLOAD PUSH2 0x25D6 DUP2 PUSH2 0x1EA7 JUMP JUMPDEST PUSH0 DUP3 PUSH1 0x1F DUP4 ADD SLT PUSH2 0x260E JUMPI PUSH0 PUSH0 REVERT JUMPDEST DUP2 MLOAD PUSH1 0x1 PUSH1 0x1 PUSH1 0x40 SHL SUB DUP2 GT ISZERO PUSH2 0x2627 JUMPI PUSH2 0x2627 PUSH2 0x222E JUMP JUMPDEST PUSH2 0x263A PUSH1 0x1F DUP3 ADD PUSH1 0x1F NOT AND PUSH1 0x20 ADD PUSH2 0x226B JUMP JUMPDEST DUP2 DUP2 MSTORE DUP5 PUSH1 0x20 DUP4 DUP7 ADD ADD GT ISZERO PUSH2 0x264E JUMPI PUSH0 PUSH0 REVERT JUMPDEST DUP2 PUSH1 0x20 DUP6 ADD PUSH1 0x20 DUP4 ADD MCOPY PUSH0 SWAP2 DUP2 ADD PUSH1 0x20 ADD SWAP2 SWAP1 SWAP2 MSTORE SWAP4 SWAP3 POP POP POP JUMP JUMPDEST PUSH0 PUSH1 0x20 DUP3 DUP5 SUB SLT ISZERO PUSH2 0x267A JUMPI PUSH0 PUSH0 REVERT JUMPDEST DUP2 MLOAD PUSH1 0x1 PUSH1 0x1 PUSH1 0x40 SHL SUB DUP2 GT ISZERO PUSH2 0x268F JUMPI PUSH0 PUSH0 REVERT JUMPDEST DUP3 ADD PUSH2 0x160 DUP2 DUP6 SUB SLT ISZERO PUSH2 0x26A1 JUMPI PUSH0 PUSH0 REVERT JUMPDEST PUSH2 0x26A9 PUSH2 0x2242 JUMP JUMPDEST PUSH2 0x26B2 DUP3 PUSH2 0x25F4 JUMP JUMPDEST DUP2 MSTORE PUSH2 0x26C0 PUSH1 0x20 DUP4 ADD PUSH2 0x25F4 JUMP JUMPDEST PUSH1 0x20 DUP3 ADD MSTORE PUSH1 0x40 DUP3 ADD MLOAD PUSH1 0x1 PUSH1 0x1 PUSH1 0x40 SHL SUB DUP2 GT ISZERO PUSH2 0x26DD JUMPI PUSH0 PUSH0 REVERT JUMPDEST PUSH2 0x26E9 DUP7 DUP3 DUP6 ADD PUSH2 0x25FF JUMP JUMPDEST PUSH1 0x40 DUP4 ADD MSTORE POP PUSH1 0x60 DUP3 ADD MLOAD PUSH1 0x1 PUSH1 0x1 PUSH1 0x40 SHL SUB DUP2 GT ISZERO PUSH2 0x2707 JUMPI PUSH0 PUSH0 REVERT JUMPDEST PUSH2 0x2713 DUP7 DUP3 DUP6 ADD PUSH2 0x25FF JUMP JUMPDEST PUSH1 0x60 DUP4 ADD MSTORE POP PUSH2 0x2725 PUSH1 0x80 DUP4 ADD PUSH2 0x25F4 JUMP JUMPDEST PUSH1 0x80 DUP3 ADD MSTORE PUSH2 0x2736 PUSH1 0xA0 DUP4 ADD PUSH2 0x25C7 JUMP JUMPDEST PUSH1 0xA0 DUP3 ADD MSTORE PUSH1 0xC0 DUP3 ADD MLOAD PUSH1 0x1 PUSH1 0x1 PUSH1 0x40 SHL SUB DUP2 GT ISZERO PUSH2 0x2753 JUMPI PUSH0 PUSH0 REVERT JUMPDEST PUSH2 0x275F DUP7 DUP3 DUP6 ADD PUSH2 0x25FF JUMP JUMPDEST PUSH1 0xC0 DUP4 ADD MSTORE POP PUSH1 0xE0 DUP3 ADD MLOAD PUSH1 0x1 PUSH1 0x1 PUSH1 0x40 SHL SUB DUP2 GT ISZERO PUSH2 0x277D JUMPI PUSH0 PUSH0 REVERT JUMPDEST PUSH2 0x2789 DUP7 DUP3 DUP6 ADD PUSH2 0x25FF JUMP JUMPDEST PUSH1 0xE0 DUP4 ADD MSTORE POP PUSH2 0x279C PUSH2 0x100 DUP4 ADD PUSH2 0x25F4 JUMP JUMPDEST PUSH2 0x100 DUP3 ADD MSTORE PUSH2 0x27AF PUSH2 0x120 DUP4 ADD PUSH2 0x25F4 JUMP JUMPDEST PUSH2 0x120 DUP3 ADD MSTORE PUSH2 0x27C2 PUSH2 0x140 DUP4 ADD PUSH2 0x25F4 JUMP JUMPDEST PUSH2 0x140 DUP3 ADD MSTORE SWAP5 SWAP4 POP POP POP POP JUMP JUMPDEST DUP1 DUP3 MUL DUP2 ISZERO DUP3 DUP3 DIV DUP5 EQ OR PUSH2 0x608 JUMPI PUSH2 0x608 PUSH2 0x2579 JUMP JUMPDEST PUSH1 0x1 PUSH1 0x1 PUSH1 0x80 SHL SUB DUP2 DUP2 AND DUP4 DUP3 AND ADD SWAP1 DUP2 GT ISZERO PUSH2 0x608 JUMPI PUSH2 0x608 PUSH2 0x2579 JUMP JUMPDEST PUSH0 PUSH1 0x1 PUSH1 0x1 PUSH1 0x80 SHL SUB DUP3 AND PUSH1 0x1 PUSH1 0x1 PUSH1 0x80 SHL SUB DUP2 SUB PUSH2 0x2827 JUMPI PUSH2 0x2827 PUSH2 0x2579 JUMP JUMPDEST PUSH1 0x1 ADD SWAP3 SWAP2 POP POP JUMP JUMPDEST PUSH1 0x1F DUP3 GT ISZERO PUSH2 0x1AD0 JUMPI DUP1 PUSH0 MSTORE PUSH1 0x20 PUSH0 KECCAK256 PUSH1 0x1F DUP5 ADD PUSH1 0x5 SHR DUP2 ADD PUSH1 0x20 DUP6 LT ISZERO PUSH2 0x2855 JUMPI POP DUP1 JUMPDEST PUSH1 0x1F DUP5 ADD PUSH1 0x5 SHR DUP3 ADD SWAP2 POP JUMPDEST DUP2 DUP2 LT ISZERO PUSH2 0x2874 JUMPI PUSH0 DUP2 SSTORE PUSH1 0x1 ADD PUSH2 0x2861 JUMP JUMPDEST POP POP POP POP POP JUMP JUMPDEST DUP2 MLOAD PUSH1 0x1 PUSH1 0x1 PUSH1 0x40 SHL SUB DUP2 GT ISZERO PUSH2 0x2894 JUMPI PUSH2 0x2894 PUSH2 0x222E JUMP JUMPDEST PUSH2 0x28A8 DUP2 PUSH2 0x28A2 DUP5 SLOAD PUSH2 0x24B6 JUMP JUMPDEST DUP5 PUSH2 0x2830 JUMP JUMPDEST PUSH1 0x20 PUSH1 0x1F DUP3 GT PUSH1 0x1 DUP2 EQ PUSH2 0x28DA JUMPI PUSH0 DUP4 ISZERO PUSH2 0x28C3 JUMPI POP DUP5 DUP3 ADD MLOAD JUMPDEST PUSH0 NOT PUSH1 0x3 DUP6 SWAP1 SHL SHR NOT AND PUSH1 0x1 DUP5 SWAP1 SHL OR DUP5 SSTORE PUSH2 0x2874 JUMP JUMPDEST PUSH0 DUP5 DUP2 MSTORE PUSH1 0x20 DUP2 KECCAK256 PUSH1 0x1F NOT DUP6 AND SWAP2 JUMPDEST DUP3 DUP2 LT ISZERO PUSH2 0x2909 JUMPI DUP8 DUP6 ADD MLOAD DUP3 SSTORE PUSH1 0x20 SWAP5 DUP6 ADD SWAP5 PUSH1 0x1 SWAP1 SWAP3 ADD SWAP2 ADD PUSH2 0x28E9 JUMP JUMPDEST POP DUP5 DUP3 LT ISZERO PUSH2 0x2926 JUMPI DUP7 DUP5 ADD MLOAD PUSH0 NOT PUSH1 0x3 DUP8 SWAP1 SHL PUSH1 0xF8 AND SHR NOT AND DUP2 SSTORE JUMPDEST POP POP POP POP PUSH1 0x1 SWAP1 DUP2 SHL ADD SWAP1 SSTORE POP JUMP JUMPDEST PUSH2 0x293F DUP2 DUP4 PUSH2 0x1FAE JUMP JUMPDEST PUSH1 0x40 PUSH1 0x20 DUP3 ADD DUP2 SWAP1 MSTORE PUSH1 0x8 SWAP1 DUP3 ADD MSTORE PUSH8 0x636F6D706C657465 PUSH1 0xC0 SHL PUSH1 0x60 DUP3 ADD MSTORE PUSH1 0x80 ADD SWAP2 SWAP1 POP JUMP JUMPDEST PUSH0 PUSH1 0x20 DUP3 DUP5 SUB SLT ISZERO PUSH2 0x2977 JUMPI PUSH0 PUSH0 REVERT JUMPDEST DUP2 MLOAD PUSH2 0x1ED6 DUP2 PUSH2 0x20CF JUMP JUMPDEST PUSH0 DUP3 PUSH2 0x299C JUMPI PUSH4 0x4E487B71 PUSH1 0xE0 SHL PUSH0 MSTORE PUSH1 0x12 PUSH1 0x4 MSTORE PUSH1 0x24 PUSH0 REVERT JUMPDEST POP DIV SWAP1 JUMP INVALID LOG2 PUSH5 0x6970667358 0x22 SLT KECCAK256 INVALID PREVRANDAO 0x1F 0x22 STOP SWAP10 SWAP16 0xCC CALL PREVRANDAO PC 0x2B PUSH7 0x1197F1B64BC8FA 0xAC CREATE GT 0xD8 PC AND 0x4B EXP 0xED 0x29 STOP POP PUSH5 0x736F6C6343 STOP ADDMOD 0x1E STOP CALLER "
				},
				"gasEstimates": {
					"creation": {
						"codeDepositCost": "2142200",
						"executionCost": "24383",
						"totalCost": "2166583"
					},
					"external": {
						"cancelOrder(address,uint128)": "infinite",
						"completeOrder(address,uint128,uint128)": "infinite",
						"foodAppContractAddress()": "2381",
						"getOrder(uint128)": "infinite",
						"getOrderCountByCustomer(address)": "2602",
						"getOrdersByCustomer(address,uint256,uint256)": "infinite",
						"initialize(address,address,address,address)": "infinite",
						"menuManager()": "2425",
						"nextOrderId()": "2381",
						"orders(uint128)": "13657",
						"owner()": "2434",
						"placeOrder(address,uint128,uint128[],uint128[])": "infinite",
						"platformFeePercent()": "2361",
						"renounceOwnership()": "infinite",
						"restaurantManager()": "2359",
						"setPlatformFee(uint256)": "28040",
						"transferOwnership(address)": "infinite",
						"updateOrderStatus(address,uint128,uint8,uint128)": "infinite"
					}
				},
				"methodIdentifiers": {
					"cancelOrder(address,uint128)": "1b4257f6",
					"completeOrder(address,uint128,uint128)": "cf31fb46",
					"foodAppContractAddress()": "832dbdd9",
					"getOrder(uint128)": "117d4128",
					"getOrderCountByCustomer(address)": "7338c5aa",
					"getOrdersByCustomer(address,uint256,uint256)": "2fae2095",
					"initialize(address,address,address,address)": "f8c8765e",
					"menuManager()": "5059e95b",
					"nextOrderId()": "2a58b330",
					"orders(uint128)": "ff8ddee3",
					"owner()": "8da5cb5b",
					"placeOrder(address,uint128,uint128[],uint128[])": "c60c14d9",
					"platformFeePercent()": "8c639a85",
					"renounceOwnership()": "715018a6",
					"restaurantManager()": "2134b6f6",
					"setPlatformFee(uint256)": "12e8e2c3",
					"transferOwnership(address)": "f2fde38b",
					"updateOrderStatus(address,uint128,uint8,uint128)": "19c8ccef"
				}
			},
			"storageLayout": {
				"storage": [
					{
						"astId": 519,
						"contract": "contracts/OrderManager.sol:OrderManager",
						"label": "_status",
						"offset": 0,
						"slot": "0",
						"type": "t_uint256"
					},
					{
						"astId": 593,
						"contract": "contracts/OrderManager.sol:OrderManager",
						"label": "nextOrderId",
						"offset": 0,
						"slot": "1",
						"type": "t_uint128"
					},
					{
						"astId": 598,
						"contract": "contracts/OrderManager.sol:OrderManager",
						"label": "orders",
						"offset": 0,
						"slot": "2",
						"type": "t_mapping(t_uint128,t_struct(Order)2026_storage)"
					},
					{
						"astId": 603,
						"contract": "contracts/OrderManager.sol:OrderManager",
						"label": "customerOrderIds",
						"offset": 0,
						"slot": "3",
						"type": "t_mapping(t_address,t_array(t_uint128)dyn_storage)"
					},
					{
						"astId": 606,
						"contract": "contracts/OrderManager.sol:OrderManager",
						"label": "menuManager",
						"offset": 0,
						"slot": "4",
						"type": "t_contract(IMenuManager)1816"
					},
					{
						"astId": 609,
						"contract": "contracts/OrderManager.sol:OrderManager",
						"label": "restaurantManager",
						"offset": 0,
						"slot": "5",
						"type": "t_contract(IRestaurantManager)1933"
					},
					{
						"astId": 611,
						"contract": "contracts/OrderManager.sol:OrderManager",
						"label": "foodAppContractAddress",
						"offset": 0,
						"slot": "6",
						"type": "t_address"
					},
					{
						"astId": 613,
						"contract": "contracts/OrderManager.sol:OrderManager",
						"label": "platformFeePercent",
						"offset": 0,
						"slot": "7",
						"type": "t_uint256"
					}
				],
				"types": {
					"t_address": {
						"encoding": "inplace",
						"label": "address",
						"numberOfBytes": "20"
					},
					"t_array(t_struct(OrderItemDetail)2004_storage)dyn_storage": {
						"base": "t_struct(OrderItemDetail)2004_storage",
						"encoding": "dynamic_array",
						"label": "struct OrderItemDetail[]",
						"numberOfBytes": "32"
					},
					"t_array(t_uint128)dyn_storage": {
						"base": "t_uint128",
						"encoding": "dynamic_array",
						"label": "uint128[]",
						"numberOfBytes": "32"
					},
					"t_contract(IMenuManager)1816": {
						"encoding": "inplace",
						"label": "contract IMenuManager",
						"numberOfBytes": "20"
					},
					"t_contract(IRestaurantManager)1933": {
						"encoding": "inplace",
						"label": "contract IRestaurantManager",
						"numberOfBytes": "20"
					},
					"t_enum(OrderStatus)1949": {
						"encoding": "inplace",
						"label": "enum OrderStatus",
						"numberOfBytes": "1"
					},
					"t_mapping(t_address,t_array(t_uint128)dyn_storage)": {
						"encoding": "mapping",
						"key": "t_address",
						"label": "mapping(address => uint128[])",
						"numberOfBytes": "32",
						"value": "t_array(t_uint128)dyn_storage"
					},
					"t_mapping(t_uint128,t_struct(Order)2026_storage)": {
						"encoding": "mapping",
						"key": "t_uint128",
						"label": "mapping(uint128 => struct Order)",
						"numberOfBytes": "32",
						"value": "t_struct(Order)2026_storage"
					},
					"t_string_storage": {
						"encoding": "bytes",
						"label": "string",
						"numberOfBytes": "32"
					},
					"t_struct(Order)2026_storage": {
						"encoding": "inplace",
						"label": "struct Order",
						"members": [
							{
								"astId": 2006,
								"contract": "contracts/OrderManager.sol:OrderManager",
								"label": "id",
								"offset": 0,
								"slot": "0",
								"type": "t_uint128"
							},
							{
								"astId": 2008,
								"contract": "contracts/OrderManager.sol:OrderManager",
								"label": "customer",
								"offset": 0,
								"slot": "1",
								"type": "t_address"
							},
							{
								"astId": 2010,
								"contract": "contracts/OrderManager.sol:OrderManager",
								"label": "restaurantId",
								"offset": 0,
								"slot": "2",
								"type": "t_uint128"
							},
							{
								"astId": 2014,
								"contract": "contracts/OrderManager.sol:OrderManager",
								"label": "itemsDetail",
								"offset": 0,
								"slot": "3",
								"type": "t_array(t_struct(OrderItemDetail)2004_storage)dyn_storage"
							},
							{
								"astId": 2016,
								"contract": "contracts/OrderManager.sol:OrderManager",
								"label": "totalPrice",
								"offset": 0,
								"slot": "4",
								"type": "t_uint256"
							},
							{
								"astId": 2019,
								"contract": "contracts/OrderManager.sol:OrderManager",
								"label": "status",
								"offset": 0,
								"slot": "5",
								"type": "t_enum(OrderStatus)1949"
							},
							{
								"astId": 2021,
								"contract": "contracts/OrderManager.sol:OrderManager",
								"label": "timestamp",
								"offset": 1,
								"slot": "5",
								"type": "t_uint128"
							},
							{
								"astId": 2023,
								"contract": "contracts/OrderManager.sol:OrderManager",
								"label": "preparationTime",
								"offset": 0,
								"slot": "6",
								"type": "t_uint128"
							},
							{
								"astId": 2025,
								"contract": "contracts/OrderManager.sol:OrderManager",
								"label": "quantity",
								"offset": 16,
								"slot": "6",
								"type": "t_uint128"
							}
						],
						"numberOfBytes": "224"
					},
					"t_struct(OrderItemDetail)2004_storage": {
						"encoding": "inplace",
						"label": "struct OrderItemDetail",
						"members": [
							{
								"astId": 1997,
								"contract": "contracts/OrderManager.sol:OrderManager",
								"label": "menuItemId",
								"offset": 0,
								"slot": "0",
								"type": "t_uint128"
							},
							{
								"astId": 1999,
								"contract": "contracts/OrderManager.sol:OrderManager",
								"label": "name",
								"offset": 0,
								"slot": "1",
								"type": "t_string_storage"
							},
							{
								"astId": 2001,
								"contract": "contracts/OrderManager.sol:OrderManager",
								"label": "pricePerUnit",
								"offset": 0,
								"slot": "2",
								"type": "t_uint128"
							},
							{
								"astId": 2003,
								"contract": "contracts/OrderManager.sol:OrderManager",
								"label": "quantity",
								"offset": 16,
								"slot": "2",
								"type": "t_uint128"
							}
						],
						"numberOfBytes": "96"
					},
					"t_uint128": {
						"encoding": "inplace",
						"label": "uint128",
						"numberOfBytes": "16"
					},
					"t_uint256": {
						"encoding": "inplace",
						"label": "uint256",
						"numberOfBytes": "32"
					}
				}
			},
			"userdoc": {
				"kind": "user",
				"methods": {},
				"version": 1
			}
		}
	}
}