{
	"contracts/FoodAppFactory.sol": {
		"FoodAppFactory": {
			"abi": [
				{
					"inputs": [],
					"stateMutability": "nonpayable",
					"type": "constructor"
				},
				{
					"inputs": [],
					"name": "FoodAppFactory__AlreadyRegistered",
					"type": "error"
				},
				{
					"inputs": [
						{
							"internalType": "string",
							"name": "dependency",
							"type": "string"
						}
					],
					"name": "FoodAppFactory__DependencyNotDeployed",
					"type": "error"
				},
				{
					"inputs": [],
					"name": "FoodAppFactory__ImplementationNotSet",
					"type": "error"
				},
				{
					"inputs": [],
					"name": "FoodAppFactory__InvalidAddress",
					"type": "error"
				},
				{
					"inputs": [],
					"name": "FoodAppFactory__ManagerAlreadyDeployed",
					"type": "error"
				},
				{
					"inputs": [],
					"name": "FoodAppFactory__NotRegisteredFoodApp",
					"type": "error"
				},
				{
					"inputs": [],
					"name": "FoodAppFactory__OnlyAdmin",
					"type": "error"
				},
				{
					"inputs": [],
					"name": "FoodAppFactory__UnknownManagerType",
					"type": "error"
				},
				{
					"anonymous": false,
					"inputs": [
						{
							"indexed": true,
							"internalType": "address",
							"name": "foodApp",
							"type": "address"
						}
					],
					"name": "FoodAppRegistered",
					"type": "event"
				},
				{
					"anonymous": false,
					"inputs": [
						{
							"indexed": true,
							"internalType": "bytes32",
							"name": "managerTypeHash",
							"type": "bytes32"
						},
						{
							"indexed": true,
							"internalType": "address",
							"name": "implementationAddress",
							"type": "address"
						}
					],
					"name": "ImplementationSet",
					"type": "event"
				},
				{
					"anonymous": false,
					"inputs": [
						{
							"indexed": true,
							"internalType": "address",
							"name": "foodApp",
							"type": "address"
						},
						{
							"indexed": true,
							"internalType": "string",
							"name": "managerType",
							"type": "string"
						},
						{
							"indexed": false,
							"internalType": "address",
							"name": "manager",
							"type": "address"
						}
					],
					"name": "ManagerDeployed",
					"type": "event"
				},
				{
					"inputs": [],
					"name": "admin",
					"outputs": [
						{
							"internalType": "address",
							"name": "",
							"type": "address"
						}
					],
					"stateMutability": "view",
					"type": "function"
				},
				{
					"inputs": [
						{
							"internalType": "string",
							"name": "managerType",
							"type": "string"
						}
					],
					"name": "deployManager",
					"outputs": [
						{
							"internalType": "address",
							"name": "",
							"type": "address"
						}
					],
					"stateMutability": "nonpayable",
					"type": "function"
				},
				{
					"inputs": [
						{
							"internalType": "address",
							"name": "foodApp",
							"type": "address"
						},
						{
							"internalType": "string",
							"name": "managerType",
							"type": "string"
						}
					],
					"name": "getManager",
					"outputs": [
						{
							"internalType": "address",
							"name": "",
							"type": "address"
						}
					],
					"stateMutability": "view",
					"type": "function"
				},
				{
					"inputs": [
						{
							"internalType": "bytes32",
							"name": "",
							"type": "bytes32"
						}
					],
					"name": "implementations",
					"outputs": [
						{
							"internalType": "address",
							"name": "",
							"type": "address"
						}
					],
					"stateMutability": "view",
					"type": "function"
				},
				{
					"inputs": [
						{
							"internalType": "address",
							"name": "",
							"type": "address"
						}
					],
					"name": "isFoodApp",
					"outputs": [
						{
							"internalType": "bool",
							"name": "",
							"type": "bool"
						}
					],
					"stateMutability": "view",
					"type": "function"
				},
				{
					"inputs": [
						{
							"internalType": "address",
							"name": "",
							"type": "address"
						},
						{
							"internalType": "string",
							"name": "",
							"type": "string"
						}
					],
					"name": "managers",
					"outputs": [
						{
							"internalType": "address",
							"name": "",
							"type": "address"
						}
					],
					"stateMutability": "view",
					"type": "function"
				},
				{
					"inputs": [
						{
							"internalType": "address",
							"name": "_foodApp",
							"type": "address"
						}
					],
					"name": "registerFoodApp",
					"outputs": [],
					"stateMutability": "nonpayable",
					"type": "function"
				},
				{
					"inputs": [
						{
							"internalType": "string",
							"name": "managerType",
							"type": "string"
						},
						{
							"internalType": "address",
							"name": "implementationAddress",
							"type": "address"
						}
					],
					"name": "setImplementation",
					"outputs": [],
					"stateMutability": "nonpayable",
					"type": "function"
				}
			],
			"devdoc": {
				"kind": "dev",
				"methods": {},
				"version": 1
			},
			"evm": {
				"assembly": "    /* \"contracts/FoodAppFactory.sol\":714:5002  contract FoodAppFactory {... */\n  mstore(0x40, 0x80)\n    /* \"contracts/FoodAppFactory.sol\":1615:1666  constructor() {... */\n  callvalue\n  dup1\n  iszero\n  tag_1\n  jumpi\n  revert(0x00, 0x00)\ntag_1:\n  pop\n    /* \"contracts/FoodAppFactory.sol\":1640:1645  admin */\n  0x00\n    /* \"contracts/FoodAppFactory.sol\":1640:1658  admin = msg.sender */\n  dup1\n  sload\n  not(sub(shl(0xa0, 0x01), 0x01))\n  and\n    /* \"contracts/FoodAppFactory.sol\":1648:1658  msg.sender */\n  caller\n    /* \"contracts/FoodAppFactory.sol\":1640:1658  admin = msg.sender */\n  or\n  swap1\n  sstore\n    /* \"contracts/FoodAppFactory.sol\":714:5002  contract FoodAppFactory {... */\n  dataSize(sub_0)\n  dup1\n  dataOffset(sub_0)\n  0x00\n  codecopy\n  0x00\n  return\nstop\n\nsub_0: assembly {\n        /* \"contracts/FoodAppFactory.sol\":714:5002  contract FoodAppFactory {... */\n      mstore(0x40, 0x80)\n      callvalue\n      dup1\n      iszero\n      tag_1\n      jumpi\n      revert(0x00, 0x00)\n    tag_1:\n      pop\n      jumpi(tag_2, lt(calldatasize, 0x04))\n      shr(0xe0, calldataload(0x00))\n      dup1\n      0x02cfeaca\n      eq\n      tag_3\n      jumpi\n      dup1\n      0x0471219c\n      eq\n      tag_4\n      jumpi\n      dup1\n      0x06419fe5\n      eq\n      tag_5\n      jumpi\n      dup1\n      0x698fb38c\n      eq\n      tag_6\n      jumpi\n      dup1\n      0xa8511f5a\n      eq\n      tag_7\n      jumpi\n      dup1\n      0xdee893c2\n      eq\n      tag_8\n      jumpi\n      dup1\n      0xe03317e2\n      eq\n      tag_9\n      jumpi\n      dup1\n      0xf851a440\n      eq\n      tag_10\n      jumpi\n    tag_2:\n      revert(0x00, 0x00)\n        /* \"contracts/FoodAppFactory.sol\":772:822  mapping(bytes32 => address) public implementations */\n    tag_3:\n      tag_11\n      tag_12\n      calldatasize\n      0x04\n      tag_13\n      jump\t// in\n    tag_12:\n      mstore(0x20, 0x01)\n      0x00\n      swap1\n      dup2\n      mstore\n      0x40\n      swap1\n      keccak256\n      sload\n      sub(shl(0xa0, 0x01), 0x01)\n      and\n      dup2\n      jump\n    tag_11:\n      mload(0x40)\n      tag_15\n      swap2\n      swap1\n      tag_16\n      jump\t// in\n    tag_15:\n      mload(0x40)\n      dup1\n      swap2\n      sub\n      swap1\n      return\n        /* \"contracts/FoodAppFactory.sol\":2202:2508  function registerFoodApp(address _foodApp) external onlyAdmin {... */\n    tag_4:\n      tag_17\n      tag_18\n      calldatasize\n      0x04\n      tag_19\n      jump\t// in\n    tag_18:\n      tag_20\n      jump\t// in\n    tag_17:\n      stop\n        /* \"contracts/FoodAppFactory.sol\":1793:2194  function setImplementation(string calldata managerType, address implementationAddress) external onlyAdmin {... */\n    tag_5:\n      tag_17\n      tag_22\n      calldatasize\n      0x04\n      tag_23\n      jump\t// in\n    tag_22:\n      tag_24\n      jump\t// in\n        /* \"contracts/FoodAppFactory.sol\":829:891  mapping(address => mapping(string => address)) public managers */\n    tag_6:\n      tag_11\n      tag_26\n      calldatasize\n      0x04\n      tag_27\n      jump\t// in\n    tag_26:\n      0x02\n      0x20\n      swap1\n      dup2\n      mstore\n      0x00\n      swap3\n      dup4\n      mstore\n      0x40\n      swap1\n      swap3\n      keccak256\n      dup2\n      mload\n      dup1\n      dup4\n      add\n      dup5\n      add\n      dup1\n      mload\n      swap3\n      dup2\n      mstore\n      swap1\n      dup5\n      add\n      swap3\n      swap1\n      swap4\n      add\n      swap2\n      swap1\n      swap2\n      keccak256\n      swap2\n      mstore\n      sload\n      sub(shl(0xa0, 0x01), 0x01)\n      and\n      dup2\n      jump\n        /* \"contracts/FoodAppFactory.sol\":2516:4837  function deployManager(string calldata managerType) external returns (address) {... */\n    tag_7:\n      tag_11\n      tag_31\n      calldatasize\n      0x04\n      tag_32\n      jump\t// in\n    tag_31:\n      tag_33\n      jump\t// in\n        /* \"contracts/FoodAppFactory.sol\":4845:4999  function getManager(address foodApp, string calldata managerType) external view returns (address) {... */\n    tag_8:\n      tag_11\n      tag_36\n      calldatasize\n      0x04\n      tag_37\n      jump\t// in\n    tag_36:\n      tag_38\n      jump\t// in\n        /* \"contracts/FoodAppFactory.sol\":898:939  mapping(address => bool) public isFoodApp */\n    tag_9:\n      tag_40\n      tag_41\n      calldatasize\n      0x04\n      tag_19\n      jump\t// in\n    tag_41:\n      mstore(0x20, 0x03)\n      0x00\n      swap1\n      dup2\n      mstore\n      0x40\n      swap1\n      keccak256\n      sload\n      0xff\n      and\n      dup2\n      jump\n    tag_40:\n      mload(0x40)\n        /* \"#utility.yul\":3846:3860   */\n      swap1\n      iszero\n        /* \"#utility.yul\":3839:3861   */\n      iszero\n        /* \"#utility.yul\":3821:3862   */\n      dup2\n      mstore\n        /* \"#utility.yul\":3809:3811   */\n      0x20\n        /* \"#utility.yul\":3794:3812   */\n      add\n        /* \"contracts/FoodAppFactory.sol\":898:939  mapping(address => bool) public isFoodApp */\n      tag_15\n        /* \"#utility.yul\":3681:3868   */\n      jump\n        /* \"contracts/FoodAppFactory.sol\":745:765  address public admin */\n    tag_10:\n      sload(0x00)\n      tag_11\n      swap1\n      sub(shl(0xa0, 0x01), 0x01)\n      and\n      dup2\n      jump\n        /* \"contracts/FoodAppFactory.sol\":2202:2508  function registerFoodApp(address _foodApp) external onlyAdmin {... */\n    tag_20:\n        /* \"contracts/FoodAppFactory.sol\":1724:1729  admin */\n      and(sub(shl(0xa0, 0x01), 0x01), sload(0x00))\n        /* \"contracts/FoodAppFactory.sol\":1710:1720  msg.sender */\n      caller\n        /* \"contracts/FoodAppFactory.sol\":1710:1729  msg.sender != admin */\n      eq\n        /* \"contracts/FoodAppFactory.sol\":1706:1765  if (msg.sender != admin) revert FoodAppFactory__OnlyAdmin() */\n      tag_49\n      jumpi\n        /* \"contracts/FoodAppFactory.sol\":1738:1765  FoodAppFactory__OnlyAdmin() */\n      mload(0x40)\n      shl(0xe1, 0x23338567)\n      dup2\n      mstore\n      0x04\n      add\n      mload(0x40)\n      dup1\n      swap2\n      sub\n      swap1\n      revert\n        /* \"contracts/FoodAppFactory.sol\":1706:1765  if (msg.sender != admin) revert FoodAppFactory__OnlyAdmin() */\n    tag_49:\n      sub(shl(0xa0, 0x01), 0x01)\n        /* \"contracts/FoodAppFactory.sol\":2279:2301  _foodApp == address(0) */\n      dup2\n      and\n        /* \"contracts/FoodAppFactory.sol\":2275:2342  if (_foodApp == address(0)) revert FoodAppFactory__InvalidAddress() */\n      tag_51\n      jumpi\n        /* \"contracts/FoodAppFactory.sol\":2310:2342  FoodAppFactory__InvalidAddress() */\n      mload(0x40)\n      shl(0xe0, 0xb92c6605)\n      dup2\n      mstore\n      0x04\n      add\n      mload(0x40)\n      dup1\n      swap2\n      sub\n      swap1\n      revert\n        /* \"contracts/FoodAppFactory.sol\":2275:2342  if (_foodApp == address(0)) revert FoodAppFactory__InvalidAddress() */\n    tag_51:\n      sub(shl(0xa0, 0x01), 0x01)\n        /* \"contracts/FoodAppFactory.sol\":2357:2376  isFoodApp[_foodApp] */\n      dup2\n      and\n      0x00\n      swap1\n      dup2\n      mstore\n        /* \"contracts/FoodAppFactory.sol\":2357:2366  isFoodApp */\n      0x03\n        /* \"contracts/FoodAppFactory.sol\":2357:2376  isFoodApp[_foodApp] */\n      0x20\n      mstore\n      0x40\n      swap1\n      keccak256\n      sload\n      0xff\n      and\n        /* \"contracts/FoodAppFactory.sol\":2353:2420  if (isFoodApp[_foodApp]) revert FoodAppFactory__AlreadyRegistered() */\n      iszero\n      tag_52\n      jumpi\n        /* \"contracts/FoodAppFactory.sol\":2385:2420  FoodAppFactory__AlreadyRegistered() */\n      mload(0x40)\n      shl(0xe5, 0x05e42d81)\n      dup2\n      mstore\n      0x04\n      add\n      mload(0x40)\n      dup1\n      swap2\n      sub\n      swap1\n      revert\n        /* \"contracts/FoodAppFactory.sol\":2353:2420  if (isFoodApp[_foodApp]) revert FoodAppFactory__AlreadyRegistered() */\n    tag_52:\n      sub(shl(0xa0, 0x01), 0x01)\n        /* \"contracts/FoodAppFactory.sol\":2431:2450  isFoodApp[_foodApp] */\n      dup2\n      and\n      0x00\n      dup2\n      dup2\n      mstore\n        /* \"contracts/FoodAppFactory.sol\":2431:2440  isFoodApp */\n      0x03\n        /* \"contracts/FoodAppFactory.sol\":2431:2450  isFoodApp[_foodApp] */\n      0x20\n      mstore\n      0x40\n      dup1\n      dup3\n      keccak256\n        /* \"contracts/FoodAppFactory.sol\":2431:2457  isFoodApp[_foodApp] = true */\n      dup1\n      sload\n      not(0xff)\n      and\n        /* \"contracts/FoodAppFactory.sol\":2453:2457  true */\n      0x01\n        /* \"contracts/FoodAppFactory.sol\":2431:2457  isFoodApp[_foodApp] = true */\n      or\n      swap1\n      sstore\n        /* \"contracts/FoodAppFactory.sol\":2473:2500  FoodAppRegistered(_foodApp) */\n      mload\n      0x40acd6a6e0976dabb14ff6b8b6ec06632812f9090d84b768d5c2a7bcda8539be\n      swap2\n        /* \"contracts/FoodAppFactory.sol\":2431:2450  isFoodApp[_foodApp] */\n      swap1\n        /* \"contracts/FoodAppFactory.sol\":2473:2500  FoodAppRegistered(_foodApp) */\n      log2\n        /* \"contracts/FoodAppFactory.sol\":2202:2508  function registerFoodApp(address _foodApp) external onlyAdmin {... */\n      pop\n      jump\t// out\n        /* \"contracts/FoodAppFactory.sol\":1793:2194  function setImplementation(string calldata managerType, address implementationAddress) external onlyAdmin {... */\n    tag_24:\n        /* \"contracts/FoodAppFactory.sol\":1724:1729  admin */\n      and(sub(shl(0xa0, 0x01), 0x01), sload(0x00))\n        /* \"contracts/FoodAppFactory.sol\":1710:1720  msg.sender */\n      caller\n        /* \"contracts/FoodAppFactory.sol\":1710:1729  msg.sender != admin */\n      eq\n        /* \"contracts/FoodAppFactory.sol\":1706:1765  if (msg.sender != admin) revert FoodAppFactory__OnlyAdmin() */\n      tag_54\n      jumpi\n        /* \"contracts/FoodAppFactory.sol\":1738:1765  FoodAppFactory__OnlyAdmin() */\n      mload(0x40)\n      shl(0xe1, 0x23338567)\n      dup2\n      mstore\n      0x04\n      add\n      mload(0x40)\n      dup1\n      swap2\n      sub\n      swap1\n      revert\n        /* \"contracts/FoodAppFactory.sol\":1706:1765  if (msg.sender != admin) revert FoodAppFactory__OnlyAdmin() */\n    tag_54:\n      sub(shl(0xa0, 0x01), 0x01)\n        /* \"contracts/FoodAppFactory.sol\":1914:1949  implementationAddress == address(0) */\n      dup2\n      and\n        /* \"contracts/FoodAppFactory.sol\":1910:1990  if (implementationAddress == address(0)) revert FoodAppFactory__InvalidAddress() */\n      tag_56\n      jumpi\n        /* \"contracts/FoodAppFactory.sol\":1958:1990  FoodAppFactory__InvalidAddress() */\n      mload(0x40)\n      shl(0xe0, 0xb92c6605)\n      dup2\n      mstore\n      0x04\n      add\n      mload(0x40)\n      dup1\n      swap2\n      sub\n      swap1\n      revert\n        /* \"contracts/FoodAppFactory.sol\":1910:1990  if (implementationAddress == address(0)) revert FoodAppFactory__InvalidAddress() */\n    tag_56:\n        /* \"contracts/FoodAppFactory.sol\":2001:2017  bytes32 typeHash */\n      0x00\n        /* \"contracts/FoodAppFactory.sol\":2047:2058  managerType */\n      dup4\n      dup4\n        /* \"contracts/FoodAppFactory.sol\":2030:2059  abi.encodePacked(managerType) */\n      add(0x20, mload(0x40))\n      tag_57\n      swap3\n      swap2\n      swap1\n      tag_58\n      jump\t// in\n    tag_57:\n      0x40\n      dup1\n      mload\n      dup1\n      dup4\n      sub\n      not(0x1f)\n      add\n      dup2\n      mstore\n      dup3\n      dup3\n      mstore\n        /* \"contracts/FoodAppFactory.sol\":2020:2060  keccak256(abi.encodePacked(managerType)) */\n      dup1\n      mload\n        /* \"contracts/FoodAppFactory.sol\":2030:2059  abi.encodePacked(managerType) */\n      0x20\n        /* \"contracts/FoodAppFactory.sol\":2020:2060  keccak256(abi.encodePacked(managerType)) */\n      swap2\n      dup3\n      add\n      keccak256\n        /* \"contracts/FoodAppFactory.sol\":2071:2096  implementations[typeHash] */\n      0x00\n      dup2\n      dup2\n      mstore\n        /* \"contracts/FoodAppFactory.sol\":2071:2086  implementations */\n      0x01\n        /* \"contracts/FoodAppFactory.sol\":2071:2096  implementations[typeHash] */\n      swap1\n      swap3\n      mstore\n      swap2\n      dup2\n      keccak256\n        /* \"contracts/FoodAppFactory.sol\":2071:2120  implementations[typeHash] = implementationAddress */\n      dup1\n      sload\n      not(sub(shl(0xa0, 0x01), 0x01))\n      and\n      sub(shl(0xa0, 0x01), 0x01)\n      dup8\n      and\n      swap1\n      dup2\n      or\n      swap1\n      swap2\n      sstore\n        /* \"contracts/FoodAppFactory.sol\":2020:2060  keccak256(abi.encodePacked(managerType)) */\n      swap2\n      swap4\n      pop\n        /* \"contracts/FoodAppFactory.sol\":2071:2120  implementations[typeHash] = implementationAddress */\n      swap1\n      swap2\n        /* \"contracts/FoodAppFactory.sol\":2020:2060  keccak256(abi.encodePacked(managerType)) */\n      dup4\n      swap2\n        /* \"contracts/FoodAppFactory.sol\":2136:2186  ImplementationSet(typeHash, implementationAddress) */\n      0x4b4ee1a8c5ce94bc0300190d8e5d93808c513dbac15879dc51c1b5a3f73ae6a8\n      swap2\n      log3\n        /* \"contracts/FoodAppFactory.sol\":1899:2194  {... */\n      pop\n        /* \"contracts/FoodAppFactory.sol\":1793:2194  function setImplementation(string calldata managerType, address implementationAddress) external onlyAdmin {... */\n      pop\n      pop\n      pop\n      jump\t// out\n        /* \"contracts/FoodAppFactory.sol\":2516:4837  function deployManager(string calldata managerType) external returns (address) {... */\n    tag_33:\n        /* \"contracts/FoodAppFactory.sol\":2632:2642  msg.sender */\n      caller\n        /* \"contracts/FoodAppFactory.sol\":2586:2593  address */\n      0x00\n        /* \"contracts/FoodAppFactory.sol\":2658:2684  isFoodApp[foodAppContract] */\n      dup2\n      dup2\n      mstore\n        /* \"contracts/FoodAppFactory.sol\":2658:2667  isFoodApp */\n      0x03\n        /* \"contracts/FoodAppFactory.sol\":2658:2684  isFoodApp[foodAppContract] */\n      0x20\n      mstore\n      0x40\n      dup2\n      keccak256\n      sload\n        /* \"contracts/FoodAppFactory.sol\":2586:2593  address */\n      swap1\n      swap2\n        /* \"contracts/FoodAppFactory.sol\":2632:2642  msg.sender */\n      swap1\n        /* \"contracts/FoodAppFactory.sol\":2658:2684  isFoodApp[foodAppContract] */\n      0xff\n      and\n        /* \"contracts/FoodAppFactory.sol\":2653:2731  if (!isFoodApp[foodAppContract]) revert FoodAppFactory__NotRegisteredFoodApp() */\n      tag_60\n      jumpi\n        /* \"contracts/FoodAppFactory.sol\":2693:2731  FoodAppFactory__NotRegisteredFoodApp() */\n      mload(0x40)\n      shl(0xe0, 0x577d4b85)\n      dup2\n      mstore\n      0x04\n      add\n      mload(0x40)\n      dup1\n      swap2\n      sub\n      swap1\n      revert\n        /* \"contracts/FoodAppFactory.sol\":2653:2731  if (!isFoodApp[foodAppContract]) revert FoodAppFactory__NotRegisteredFoodApp() */\n    tag_60:\n        /* \"contracts/FoodAppFactory.sol\":2744:2760  bytes32 typeHash */\n      0x00\n        /* \"contracts/FoodAppFactory.sol\":2790:2801  managerType */\n      dup5\n      dup5\n        /* \"contracts/FoodAppFactory.sol\":2773:2802  abi.encodePacked(managerType) */\n      add(0x20, mload(0x40))\n      tag_61\n      swap3\n      swap2\n      swap1\n      tag_58\n      jump\t// in\n    tag_61:\n      0x40\n      dup1\n      mload\n      not(0x1f)\n      dup2\n      dup5\n      sub\n      add\n      dup2\n      mstore\n      dup3\n      dup3\n      mstore\n        /* \"contracts/FoodAppFactory.sol\":2763:2803  keccak256(abi.encodePacked(managerType)) */\n      dup1\n      mload\n        /* \"contracts/FoodAppFactory.sol\":2773:2802  abi.encodePacked(managerType) */\n      0x20\n        /* \"contracts/FoodAppFactory.sol\":2763:2803  keccak256(abi.encodePacked(managerType)) */\n      swap2\n      dup3\n      add\n      keccak256\n      sub(shl(0xa0, 0x01), 0x01)\n        /* \"contracts/FoodAppFactory.sol\":2818:2843  managers[foodAppContract] */\n      dup7\n      and\n        /* \"contracts/FoodAppFactory.sol\":2868:2869  0 */\n      0x00\n        /* \"contracts/FoodAppFactory.sol\":2818:2843  managers[foodAppContract] */\n      swap1\n      dup2\n      mstore\n        /* \"contracts/FoodAppFactory.sol\":2818:2826  managers */\n      0x02\n        /* \"contracts/FoodAppFactory.sol\":2818:2843  managers[foodAppContract] */\n      swap1\n      swap3\n      mstore\n      swap2\n      dup2\n      keccak256\n        /* \"contracts/FoodAppFactory.sol\":2763:2803  keccak256(abi.encodePacked(managerType)) */\n      swap2\n      swap4\n      pop\n        /* \"contracts/FoodAppFactory.sol\":2868:2869  0 */\n      swap2\n        /* \"contracts/FoodAppFactory.sol\":2818:2856  managers[foodAppContract][managerType] */\n      tag_62\n      swap1\n        /* \"contracts/FoodAppFactory.sol\":2844:2855  managerType */\n      dup9\n      swap1\n      dup9\n      swap1\n        /* \"contracts/FoodAppFactory.sol\":2818:2856  managers[foodAppContract][managerType] */\n      tag_58\n      jump\t// in\n    tag_62:\n      swap1\n      dup2\n      mstore\n      mload(0x40)\n      swap1\n      dup2\n      swap1\n      sub\n      0x20\n      add\n      swap1\n      keccak256\n      sload\n      sub(shl(0xa0, 0x01), 0x01)\n      and\n        /* \"contracts/FoodAppFactory.sol\":2818:2870  managers[foodAppContract][managerType] != address(0) */\n      eq\n        /* \"contracts/FoodAppFactory.sol\":2814:2919  if (managers[foodAppContract][managerType] != address(0)) revert FoodAppFactory__ManagerAlreadyDeployed() */\n      tag_63\n      jumpi\n        /* \"contracts/FoodAppFactory.sol\":2879:2919  FoodAppFactory__ManagerAlreadyDeployed() */\n      mload(0x40)\n      shl(0xe1, 0x51a4ffef)\n      dup2\n      mstore\n      0x04\n      add\n      mload(0x40)\n      dup1\n      swap2\n      sub\n      swap1\n      revert\n        /* \"contracts/FoodAppFactory.sol\":2814:2919  if (managers[foodAppContract][managerType] != address(0)) revert FoodAppFactory__ManagerAlreadyDeployed() */\n    tag_63:\n        /* \"contracts/FoodAppFactory.sol\":2932:2954  address implementation */\n      0x00\n        /* \"contracts/FoodAppFactory.sol\":2957:2982  implementations[typeHash] */\n      dup2\n      dup2\n      mstore\n        /* \"contracts/FoodAppFactory.sol\":2957:2972  implementations */\n      0x01\n        /* \"contracts/FoodAppFactory.sol\":2957:2982  implementations[typeHash] */\n      0x20\n      mstore\n      0x40\n      swap1\n      keccak256\n      sload\n      sub(shl(0xa0, 0x01), 0x01)\n      and\n      dup1\n        /* \"contracts/FoodAppFactory.sol\":2993:3072  if (implementation == address(0)) revert FoodAppFactory__ImplementationNotSet() */\n      tag_64\n      jumpi\n        /* \"contracts/FoodAppFactory.sol\":3034:3072  FoodAppFactory__ImplementationNotSet() */\n      mload(0x40)\n      shl(0xe0, 0x820ee9e3)\n      dup2\n      mstore\n      0x04\n      add\n      mload(0x40)\n      dup1\n      swap2\n      sub\n      swap1\n      revert\n        /* \"contracts/FoodAppFactory.sol\":2993:3072  if (implementation == address(0)) revert FoodAppFactory__ImplementationNotSet() */\n    tag_64:\n        /* \"contracts/FoodAppFactory.sol\":3085:3105  address managerProxy */\n      0x00\n        /* \"contracts/FoodAppFactory.sol\":3108:3151  ProxyLib.deployMinimalProxy(implementation) */\n      tag_65\n        /* \"contracts/FoodAppFactory.sol\":3136:3150  implementation */\n      dup3\n        /* \"contracts/FoodAppFactory.sol\":3108:3135  ProxyLib.deployMinimalProxy */\n      tag_66\n        /* \"contracts/FoodAppFactory.sol\":3108:3151  ProxyLib.deployMinimalProxy(implementation) */\n      jump\t// in\n    tag_65:\n        /* \"contracts/FoodAppFactory.sol\":3085:3151  address managerProxy = ProxyLib.deployMinimalProxy(implementation) */\n      swap1\n      pop\n        /* \"contracts/FoodAppFactory.sol\":3193:3197  this */\n      address\n        /* \"contracts/FoodAppFactory.sol\":3275:3317  typeHash == keccak256(\"RestaurantManager\") */\n      0xf094f37b69fb531c65b81278199f5c0867e4e81326f9caff6417f5dc86a7ee39\n      dup5\n      add\n        /* \"contracts/FoodAppFactory.sol\":3271:4659  if (typeHash == keccak256(\"RestaurantManager\")) {... */\n      tag_67\n      jumpi\n        /* \"contracts/FoodAppFactory.sol\":3334:3408  IRestaurantManager(managerProxy).initialize(foodAppContract, factoryOwner) */\n      mload(0x40)\n      shl(0xe0, 0x485cc955)\n      dup2\n      mstore\n      sub(shl(0xa0, 0x01), 0x01)\n        /* \"contracts/FoodAppFactory.sol\":3334:3377  IRestaurantManager(managerProxy).initialize */\n      dup4\n      and\n      swap1\n      0x485cc955\n      swap1\n        /* \"contracts/FoodAppFactory.sol\":3334:3408  IRestaurantManager(managerProxy).initialize(foodAppContract, factoryOwner) */\n      tag_68\n      swap1\n        /* \"contracts/FoodAppFactory.sol\":3378:3393  foodAppContract */\n      dup9\n      swap1\n        /* \"contracts/FoodAppFactory.sol\":3395:3407  factoryOwner */\n      dup6\n      swap1\n        /* \"contracts/FoodAppFactory.sol\":3334:3408  IRestaurantManager(managerProxy).initialize(foodAppContract, factoryOwner) */\n      0x04\n      add\n      tag_69\n      jump\t// in\n    tag_68:\n      0x00\n      mload(0x40)\n      dup1\n      dup4\n      sub\n      dup2\n      0x00\n      dup8\n      dup1\n      extcodesize\n      iszero\n      dup1\n      iszero\n      tag_70\n      jumpi\n      revert(0x00, 0x00)\n    tag_70:\n      pop\n      gas\n      call\n      iszero\n      dup1\n      iszero\n      tag_72\n      jumpi\n      returndatacopy(0x00, 0x00, returndatasize)\n      revert(0x00, returndatasize)\n    tag_72:\n      pop\n      pop\n      pop\n      pop\n        /* \"contracts/FoodAppFactory.sol\":3271:4659  if (typeHash == keccak256(\"RestaurantManager\")) {... */\n      jump(tag_107)\n    tag_67:\n        /* \"contracts/FoodAppFactory.sol\":3442:3466  keccak256(\"MenuManager\") */\n      0xf1e0aeb668bac4fc558624925de4edc3dfb7e138b35fbf1274918a9e51223e58\n        /* \"contracts/FoodAppFactory.sol\":3430:3438  typeHash */\n      dup5\n        /* \"contracts/FoodAppFactory.sol\":3430:3466  typeHash == keccak256(\"MenuManager\") */\n      sub\n        /* \"contracts/FoodAppFactory.sol\":3426:4659  if (typeHash == keccak256(\"MenuManager\")) {... */\n      tag_74\n      jumpi\n        /* \"contracts/FoodAppFactory.sol\":3483:3551  IMenuManager(managerProxy).initialize(foodAppContract, factoryOwner) */\n      mload(0x40)\n      shl(0xe0, 0x485cc955)\n      dup2\n      mstore\n      sub(shl(0xa0, 0x01), 0x01)\n        /* \"contracts/FoodAppFactory.sol\":3483:3520  IMenuManager(managerProxy).initialize */\n      dup4\n      and\n      swap1\n      0x485cc955\n      swap1\n        /* \"contracts/FoodAppFactory.sol\":3483:3551  IMenuManager(managerProxy).initialize(foodAppContract, factoryOwner) */\n      tag_68\n      swap1\n        /* \"contracts/FoodAppFactory.sol\":3521:3536  foodAppContract */\n      dup9\n      swap1\n        /* \"contracts/FoodAppFactory.sol\":3538:3550  factoryOwner */\n      dup6\n      swap1\n        /* \"contracts/FoodAppFactory.sol\":3483:3551  IMenuManager(managerProxy).initialize(foodAppContract, factoryOwner) */\n      0x04\n      add\n      tag_69\n      jump\t// in\n        /* \"contracts/FoodAppFactory.sol\":3426:4659  if (typeHash == keccak256(\"MenuManager\")) {... */\n    tag_74:\n        /* \"contracts/FoodAppFactory.sol\":3585:3610  keccak256(\"OrderManager\") */\n      0x2335b578f972333fd9ef2743a6722bf46f16c3f49a604e771a495dce08428edc\n        /* \"contracts/FoodAppFactory.sol\":3573:3581  typeHash */\n      dup5\n        /* \"contracts/FoodAppFactory.sol\":3573:3610  typeHash == keccak256(\"OrderManager\") */\n      sub\n        /* \"contracts/FoodAppFactory.sol\":3569:4659  if (typeHash == keccak256(\"OrderManager\")) {... */\n      tag_80\n      jumpi\n      sub(shl(0xa0, 0x01), 0x01)\n        /* \"contracts/FoodAppFactory.sol\":3656:3681  managers[foodAppContract] */\n      dup6\n      and\n        /* \"contracts/FoodAppFactory.sol\":3627:3653  address menuManagerAddress */\n      0x00\n        /* \"contracts/FoodAppFactory.sol\":3656:3681  managers[foodAppContract] */\n      swap1\n      dup2\n      mstore\n        /* \"contracts/FoodAppFactory.sol\":3656:3664  managers */\n      0x02\n        /* \"contracts/FoodAppFactory.sol\":3656:3681  managers[foodAppContract] */\n      0x20\n      mstore\n      0x40\n      dup1\n      dup3\n      keccak256\n        /* \"contracts/FoodAppFactory.sol\":3656:3696  managers[foodAppContract][\"MenuManager\"] */\n      swap1\n      mload\n      shl(0xa9, 0x26b2b73aa6b0b730b3b2b9)\n        /* \"#utility.yul\":4658:4684   */\n      dup2\n      mstore\n        /* \"#utility.yul\":4709:4711   */\n      0x0b\n        /* \"#utility.yul\":4700:4712   */\n      add\n        /* \"contracts/FoodAppFactory.sol\":3656:3696  managers[foodAppContract][\"MenuManager\"] */\n      swap1\n      dup2\n      mstore\n      0x40\n      dup1\n      mload\n      0x20\n      swap3\n      dup2\n      swap1\n      sub\n      dup4\n      add\n      dup2\n      keccak256\n      sload\n      sub(shl(0xa0, 0x01), 0x01)\n        /* \"contracts/FoodAppFactory.sol\":3746:3771  managers[foodAppContract] */\n      dup11\n      dup2\n      and\n        /* \"contracts/FoodAppFactory.sol\":3656:3696  managers[foodAppContract][\"MenuManager\"] */\n      0x00\n        /* \"contracts/FoodAppFactory.sol\":3746:3771  managers[foodAppContract] */\n      swap1\n      dup2\n      mstore\n        /* \"contracts/FoodAppFactory.sol\":3746:3754  managers */\n      0x02\n        /* \"contracts/FoodAppFactory.sol\":3746:3771  managers[foodAppContract] */\n      swap1\n      swap6\n      mstore\n      swap3\n      dup5\n      keccak256\n        /* \"contracts/FoodAppFactory.sol\":3656:3696  managers[foodAppContract][\"MenuManager\"] */\n      swap3\n      and\n      swap4\n      pop\n        /* \"contracts/FoodAppFactory.sol\":3746:3792  managers[foodAppContract][\"RestaurantManager\"] */\n      tag_83\n      swap1\n      tag_84\n      jump\t// in\n    tag_83:\n      swap1\n      dup2\n      mstore\n      mload(0x40)\n      swap1\n      dup2\n      swap1\n      sub\n      0x20\n      add\n      swap1\n      keccak256\n      sload\n      sub(shl(0xa0, 0x01), 0x01)\n      swap1\n      dup2\n      and\n      swap2\n      pop\n        /* \"contracts/FoodAppFactory.sol\":3811:3843  menuManagerAddress == address(0) */\n      dup3\n      and\n        /* \"contracts/FoodAppFactory.sol\":3807:3904  if (menuManagerAddress == address(0)) revert FoodAppFactory__DependencyNotDeployed(\"MenuManager\") */\n      tag_85\n      jumpi\n        /* \"contracts/FoodAppFactory.sol\":3852:3904  FoodAppFactory__DependencyNotDeployed(\"MenuManager\") */\n      mload(0x40)\n      shl(0xe4, 0x0adc4dc7)\n      dup2\n      mstore\n        /* \"#utility.yul\":5198:5200   */\n      0x20\n        /* \"contracts/FoodAppFactory.sol\":3852:3904  FoodAppFactory__DependencyNotDeployed(\"MenuManager\") */\n      0x04\n      dup3\n      add\n        /* \"#utility.yul\":5180:5201   */\n      mstore\n        /* \"#utility.yul\":5237:5239   */\n      0x0b\n        /* \"#utility.yul\":5217:5235   */\n      0x24\n      dup3\n      add\n        /* \"#utility.yul\":5210:5240   */\n      mstore\n      shl(0xa9, 0x26b2b73aa6b0b730b3b2b9)\n        /* \"#utility.yul\":5256:5274   */\n      0x44\n      dup3\n      add\n        /* \"#utility.yul\":5249:5290   */\n      mstore\n        /* \"#utility.yul\":5307:5325   */\n      0x64\n      add\n        /* \"contracts/FoodAppFactory.sol\":3852:3904  FoodAppFactory__DependencyNotDeployed(\"MenuManager\") */\n    tag_86:\n      mload(0x40)\n      dup1\n      swap2\n      sub\n      swap1\n      revert\n        /* \"contracts/FoodAppFactory.sol\":3807:3904  if (menuManagerAddress == address(0)) revert FoodAppFactory__DependencyNotDeployed(\"MenuManager\") */\n    tag_85:\n      sub(shl(0xa0, 0x01), 0x01)\n        /* \"contracts/FoodAppFactory.sol\":3923:3961  restaurantManagerAddress == address(0) */\n      dup2\n      and\n        /* \"contracts/FoodAppFactory.sol\":3919:4028  if (restaurantManagerAddress == address(0)) revert FoodAppFactory__DependencyNotDeployed(\"RestaurantManager\") */\n      tag_88\n      jumpi\n        /* \"contracts/FoodAppFactory.sol\":3970:4028  FoodAppFactory__DependencyNotDeployed(\"RestaurantManager\") */\n      mload(0x40)\n      shl(0xe4, 0x0adc4dc7)\n      dup2\n      mstore\n        /* \"#utility.yul\":5538:5540   */\n      0x20\n        /* \"contracts/FoodAppFactory.sol\":3970:4028  FoodAppFactory__DependencyNotDeployed(\"RestaurantManager\") */\n      0x04\n      dup3\n      add\n        /* \"#utility.yul\":5520:5541   */\n      mstore\n        /* \"#utility.yul\":5577:5579   */\n      0x11\n        /* \"#utility.yul\":5557:5575   */\n      0x24\n      dup3\n      add\n        /* \"#utility.yul\":5550:5580   */\n      mstore\n      shl(0x79, 0x2932b9ba30bab930b73a26b0b730b3b2b9)\n        /* \"#utility.yul\":5596:5614   */\n      0x44\n      dup3\n      add\n        /* \"#utility.yul\":5589:5636   */\n      mstore\n        /* \"#utility.yul\":5653:5671   */\n      0x64\n      add\n        /* \"contracts/FoodAppFactory.sol\":3970:4028  FoodAppFactory__DependencyNotDeployed(\"RestaurantManager\") */\n      tag_86\n        /* \"#utility.yul\":5336:5677   */\n      jump\n        /* \"contracts/FoodAppFactory.sol\":3919:4028  if (restaurantManagerAddress == address(0)) revert FoodAppFactory__DependencyNotDeployed(\"RestaurantManager\") */\n    tag_88:\n        /* \"contracts/FoodAppFactory.sol\":4043:4158  IOrderManager(managerProxy).initialize(foodAppContract, menuManagerAddress, restaurantManagerAddress, factoryOwner) */\n      mload(0x40)\n      shl(0xe1, 0x7c643b2f)\n      dup2\n      mstore\n      sub(shl(0xa0, 0x01), 0x01)\n        /* \"#utility.yul\":5931:5963   */\n      dup9\n      dup2\n      and\n        /* \"contracts/FoodAppFactory.sol\":4043:4158  IOrderManager(managerProxy).initialize(foodAppContract, menuManagerAddress, restaurantManagerAddress, factoryOwner) */\n      0x04\n      dup4\n      add\n        /* \"#utility.yul\":5913:5964   */\n      mstore\n        /* \"#utility.yul\":6000:6032   */\n      dup4\n      dup2\n      and\n        /* \"#utility.yul\":5980:5998   */\n      0x24\n      dup4\n      add\n        /* \"#utility.yul\":5973:6033   */\n      mstore\n        /* \"#utility.yul\":6069:6101   */\n      dup3\n      dup2\n      and\n        /* \"#utility.yul\":6049:6067   */\n      0x44\n      dup4\n      add\n        /* \"#utility.yul\":6042:6102   */\n      mstore\n        /* \"#utility.yul\":6138:6170   */\n      dup5\n      dup2\n      and\n        /* \"#utility.yul\":6118:6136   */\n      0x64\n      dup4\n      add\n        /* \"#utility.yul\":6111:6171   */\n      mstore\n        /* \"contracts/FoodAppFactory.sol\":4043:4081  IOrderManager(managerProxy).initialize */\n      dup6\n      and\n      swap1\n      0xf8c8765e\n      swap1\n        /* \"#utility.yul\":5885:5904   */\n      0x84\n      add\n        /* \"contracts/FoodAppFactory.sol\":4043:4158  IOrderManager(managerProxy).initialize(foodAppContract, menuManagerAddress, restaurantManagerAddress, factoryOwner) */\n      0x00\n      mload(0x40)\n      dup1\n      dup4\n      sub\n      dup2\n      0x00\n      dup8\n      dup1\n      extcodesize\n      iszero\n      dup1\n      iszero\n      tag_93\n      jumpi\n      revert(0x00, 0x00)\n    tag_93:\n      pop\n      gas\n      call\n      iszero\n      dup1\n      iszero\n      tag_95\n      jumpi\n      returndatacopy(0x00, 0x00, returndatasize)\n      revert(0x00, returndatasize)\n    tag_95:\n      pop\n      pop\n      pop\n      pop\n        /* \"contracts/FoodAppFactory.sol\":3612:4170  {... */\n      pop\n      pop\n        /* \"contracts/FoodAppFactory.sol\":3569:4659  if (typeHash == keccak256(\"OrderManager\")) {... */\n      jump(tag_107)\n    tag_80:\n        /* \"contracts/FoodAppFactory.sol\":4192:4218  keccak256(\"ReviewManager\") */\n      0x8bbf664581ba9b490e4c7bc54dcab50600ac9f4ea500db4ccfa4a065d91bb92e\n        /* \"contracts/FoodAppFactory.sol\":4180:4188  typeHash */\n      dup5\n        /* \"contracts/FoodAppFactory.sol\":4180:4218  typeHash == keccak256(\"ReviewManager\") */\n      sub\n        /* \"contracts/FoodAppFactory.sol\":4176:4659  if (typeHash == keccak256(\"ReviewManager\")) {... */\n      tag_97\n      jumpi\n      sub(shl(0xa0, 0x01), 0x01)\n        /* \"contracts/FoodAppFactory.sol\":4273:4298  managers[foodAppContract] */\n      dup6\n      and\n        /* \"contracts/FoodAppFactory.sol\":4235:4270  address restaurantManagerAddressRev */\n      0x00\n        /* \"contracts/FoodAppFactory.sol\":4273:4298  managers[foodAppContract] */\n      swap1\n      dup2\n      mstore\n        /* \"contracts/FoodAppFactory.sol\":4273:4281  managers */\n      0x02\n        /* \"contracts/FoodAppFactory.sol\":4273:4298  managers[foodAppContract] */\n      0x20\n      mstore\n      0x40\n      dup1\n      dup3\n      keccak256\n        /* \"contracts/FoodAppFactory.sol\":4273:4319  managers[foodAppContract][\"RestaurantManager\"] */\n      swap1\n      mload\n      tag_98\n      swap1\n      tag_84\n      jump\t// in\n    tag_98:\n      swap1\n      dup2\n      mstore\n      mload(0x40)\n      swap1\n      dup2\n      swap1\n      sub\n      0x20\n      add\n      swap1\n      keccak256\n      sload\n      sub(shl(0xa0, 0x01), 0x01)\n      and\n      swap1\n      pop\n      dup1\n        /* \"contracts/FoodAppFactory.sol\":4334:4457  if (restaurantManagerAddressRev == address(0)) revert FoodAppFactory__DependencyNotDeployed(\"RestaurantManager for Review\") */\n      tag_99\n      jumpi\n        /* \"contracts/FoodAppFactory.sol\":4388:4457  FoodAppFactory__DependencyNotDeployed(\"RestaurantManager for Review\") */\n      mload(0x40)\n      shl(0xe4, 0x0adc4dc7)\n      dup2\n      mstore\n        /* \"#utility.yul\":6384:6386   */\n      0x20\n        /* \"contracts/FoodAppFactory.sol\":4388:4457  FoodAppFactory__DependencyNotDeployed(\"RestaurantManager for Review\") */\n      0x04\n      dup3\n      add\n        /* \"#utility.yul\":6366:6387   */\n      mstore\n        /* \"#utility.yul\":6423:6425   */\n      0x1c\n        /* \"#utility.yul\":6403:6421   */\n      0x24\n      dup3\n      add\n        /* \"#utility.yul\":6396:6426   */\n      mstore\n      shl(0x20, 0x52657374617572616e744d616e6167657220666f7220526576696577)\n        /* \"#utility.yul\":6442:6460   */\n      0x44\n      dup3\n      add\n        /* \"#utility.yul\":6435:6493   */\n      mstore\n        /* \"#utility.yul\":6510:6528   */\n      0x64\n      add\n        /* \"contracts/FoodAppFactory.sol\":4388:4457  FoodAppFactory__DependencyNotDeployed(\"RestaurantManager for Review\") */\n      tag_86\n        /* \"#utility.yul\":6182:6534   */\n      jump\n        /* \"contracts/FoodAppFactory.sol\":4334:4457  if (restaurantManagerAddressRev == address(0)) revert FoodAppFactory__DependencyNotDeployed(\"RestaurantManager for Review\") */\n    tag_99:\n        /* \"contracts/FoodAppFactory.sol\":4472:4571  IReviewManager(managerProxy).initialize(foodAppContract, restaurantManagerAddressRev, factoryOwner) */\n      mload(0x40)\n      shl(0xe0, 0xc0c53b8b)\n      dup2\n      mstore\n      sub(shl(0xa0, 0x01), 0x01)\n        /* \"#utility.yul\":6759:6791   */\n      dup8\n      dup2\n      and\n        /* \"contracts/FoodAppFactory.sol\":4472:4571  IReviewManager(managerProxy).initialize(foodAppContract, restaurantManagerAddressRev, factoryOwner) */\n      0x04\n      dup4\n      add\n        /* \"#utility.yul\":6741:6792   */\n      mstore\n        /* \"#utility.yul\":6828:6860   */\n      dup3\n      dup2\n      and\n        /* \"#utility.yul\":6808:6826   */\n      0x24\n      dup4\n      add\n        /* \"#utility.yul\":6801:6861   */\n      mstore\n        /* \"#utility.yul\":6897:6929   */\n      dup4\n      dup2\n      and\n        /* \"#utility.yul\":6877:6895   */\n      0x44\n      dup4\n      add\n        /* \"#utility.yul\":6870:6930   */\n      mstore\n        /* \"contracts/FoodAppFactory.sol\":4472:4511  IReviewManager(managerProxy).initialize */\n      dup5\n      and\n      swap1\n      0xc0c53b8b\n      swap1\n        /* \"#utility.yul\":6714:6732   */\n      0x64\n      add\n        /* \"contracts/FoodAppFactory.sol\":4472:4571  IReviewManager(managerProxy).initialize(foodAppContract, restaurantManagerAddressRev, factoryOwner) */\n      0x00\n      mload(0x40)\n      dup1\n      dup4\n      sub\n      dup2\n      0x00\n      dup8\n      dup1\n      extcodesize\n      iszero\n      dup1\n      iszero\n      tag_104\n      jumpi\n      revert(0x00, 0x00)\n    tag_104:\n      pop\n      gas\n      call\n      iszero\n      dup1\n      iszero\n      tag_106\n      jumpi\n      returndatacopy(0x00, 0x00, returndatasize)\n      revert(0x00, returndatasize)\n    tag_106:\n      pop\n      pop\n      pop\n      pop\n        /* \"contracts/FoodAppFactory.sol\":4220:4583  {... */\n      pop\n        /* \"contracts/FoodAppFactory.sol\":4176:4659  if (typeHash == keccak256(\"ReviewManager\")) {... */\n      jump(tag_107)\n    tag_97:\n        /* \"contracts/FoodAppFactory.sol\":4611:4647  FoodAppFactory__UnknownManagerType() */\n      mload(0x40)\n      shl(0xe1, 0x38b87c43)\n      dup2\n      mstore\n      0x04\n      add\n      mload(0x40)\n      dup1\n      swap2\n      sub\n      swap1\n      revert\n        /* \"contracts/FoodAppFactory.sol\":4176:4659  if (typeHash == keccak256(\"ReviewManager\")) {... */\n    tag_107:\n      sub(shl(0xa0, 0x01), 0x01)\n        /* \"contracts/FoodAppFactory.sol\":4671:4696  managers[foodAppContract] */\n      dup6\n      and\n      0x00\n      swap1\n      dup2\n      mstore\n        /* \"contracts/FoodAppFactory.sol\":4671:4679  managers */\n      0x02\n        /* \"contracts/FoodAppFactory.sol\":4671:4696  managers[foodAppContract] */\n      0x20\n      mstore\n      0x40\n      swap1\n      dup2\n      swap1\n      keccak256\n        /* \"contracts/FoodAppFactory.sol\":4671:4709  managers[foodAppContract][managerType] */\n      swap1\n      mload\n        /* \"contracts/FoodAppFactory.sol\":4712:4724  managerProxy */\n      dup4\n      swap2\n        /* \"contracts/FoodAppFactory.sol\":4671:4696  managers[foodAppContract] */\n      swap1\n        /* \"contracts/FoodAppFactory.sol\":4671:4709  managers[foodAppContract][managerType] */\n      tag_108\n      swap1\n        /* \"contracts/FoodAppFactory.sol\":4697:4708  managerType */\n      dup12\n      swap1\n      dup12\n      swap1\n        /* \"contracts/FoodAppFactory.sol\":4671:4709  managers[foodAppContract][managerType] */\n      tag_58\n      jump\t// in\n    tag_108:\n      swap1\n      dup2\n      mstore\n      mload(0x40)\n      swap1\n      dup2\n      swap1\n      sub\n      0x20\n      add\n      dup2\n      keccak256\n        /* \"contracts/FoodAppFactory.sol\":4671:4724  managers[foodAppContract][managerType] = managerProxy */\n      dup1\n      sload\n      sub(shl(0xa0, 0x01), 0x01)\n      swap4\n      swap1\n      swap4\n      and\n      not(sub(shl(0xa0, 0x01), 0x01))\n      swap1\n      swap4\n      and\n      swap3\n      swap1\n      swap3\n      or\n      swap1\n      swap2\n      sstore\n        /* \"contracts/FoodAppFactory.sol\":4740:4799  ManagerDeployed(foodAppContract, managerType, managerProxy) */\n      tag_109\n      swap1\n        /* \"contracts/FoodAppFactory.sol\":4773:4784  managerType */\n      dup10\n      swap1\n      dup10\n      swap1\n        /* \"contracts/FoodAppFactory.sol\":4740:4799  ManagerDeployed(foodAppContract, managerType, managerProxy) */\n      tag_58\n      jump\t// in\n    tag_109:\n      mload(0x40)\n      dup1\n      swap2\n      sub\n      swap1\n      keccak256\n        /* \"contracts/FoodAppFactory.sol\":4756:4771  foodAppContract */\n      dup6\n      sub(shl(0xa0, 0x01), 0x01)\n        /* \"contracts/FoodAppFactory.sol\":4740:4799  ManagerDeployed(foodAppContract, managerType, managerProxy) */\n      and\n      0xc5dce3b4e11c1d8d79fdcfdc67f11ff335c6e47140ec01ee655b4f18ac399075\n        /* \"contracts/FoodAppFactory.sol\":4786:4798  managerProxy */\n      dup5\n        /* \"contracts/FoodAppFactory.sol\":4740:4799  ManagerDeployed(foodAppContract, managerType, managerProxy) */\n      mload(0x40)\n      tag_110\n      swap2\n      swap1\n      tag_16\n      jump\t// in\n    tag_110:\n      mload(0x40)\n      dup1\n      swap2\n      sub\n      swap1\n      log3\n      pop\n        /* \"contracts/FoodAppFactory.sol\":4817:4829  managerProxy */\n      swap7\n        /* \"contracts/FoodAppFactory.sol\":2516:4837  function deployManager(string calldata managerType) external returns (address) {... */\n      swap6\n      pop\n      pop\n      pop\n      pop\n      pop\n      pop\n      jump\t// out\n        /* \"contracts/FoodAppFactory.sol\":4845:4999  function getManager(address foodApp, string calldata managerType) external view returns (address) {... */\n    tag_38:\n      sub(shl(0xa0, 0x01), 0x01)\n        /* \"contracts/FoodAppFactory.sol\":4961:4978  managers[foodApp] */\n      dup4\n      and\n        /* \"contracts/FoodAppFactory.sol\":4934:4941  address */\n      0x00\n        /* \"contracts/FoodAppFactory.sol\":4961:4978  managers[foodApp] */\n      swap1\n      dup2\n      mstore\n        /* \"contracts/FoodAppFactory.sol\":4961:4969  managers */\n      0x02\n        /* \"contracts/FoodAppFactory.sol\":4961:4978  managers[foodApp] */\n      0x20\n      mstore\n      0x40\n      dup1\n      dup3\n      keccak256\n        /* \"contracts/FoodAppFactory.sol\":4961:4991  managers[foodApp][managerType] */\n      swap1\n      mload\n      tag_112\n      swap1\n        /* \"contracts/FoodAppFactory.sol\":4979:4990  managerType */\n      dup6\n      swap1\n      dup6\n      swap1\n        /* \"contracts/FoodAppFactory.sol\":4961:4991  managers[foodApp][managerType] */\n      tag_58\n      jump\t// in\n    tag_112:\n      swap1\n      dup2\n      mstore\n      mload(0x40)\n      swap1\n      dup2\n      swap1\n      sub\n      0x20\n      add\n      swap1\n      keccak256\n      sload\n      sub(shl(0xa0, 0x01), 0x01)\n      and\n      swap1\n      pop\n        /* \"contracts/FoodAppFactory.sol\":4845:4999  function getManager(address foodApp, string calldata managerType) external view returns (address) {... */\n      swap4\n      swap3\n      pop\n      pop\n      pop\n      jump\t// out\n        /* \"contracts/FoodAppFactory.sol\":264:707  function deployMinimalProxy(address implementation) internal returns (address proxy) {... */\n    tag_66:\n        /* \"contracts/FoodAppFactory.sol\":380:546  abi.encodePacked(... */\n      mload(0x40)\n      shl(0x60, 0x3d602d80600a3d3981f3363d3d373d3d3d363d73)\n      0x20\n      dup3\n      add\n        /* \"#utility.yul\":7272:7336   */\n      mstore\n      not(sub(shl(0x60, 0x01), 0x01))\n        /* \"#utility.yul\":7288:7290   */\n      0x60\n        /* \"#utility.yul\":7370:7385   */\n      dup4\n      swap1\n      shl\n        /* \"#utility.yul\":7366:7411   */\n      and\n        /* \"#utility.yul\":7352:7364   */\n      0x34\n      dup3\n      add\n        /* \"#utility.yul\":7345:7412   */\n      mstore\n      shl(0x88, 0x5af43d82803e903d91602b57fd5bf3)\n        /* \"#utility.yul\":7428:7440   */\n      0x48\n      dup3\n      add\n        /* \"#utility.yul\":7421:7485   */\n      mstore\n        /* \"contracts/FoodAppFactory.sol\":334:347  address proxy */\n      0x00\n      swap1\n      dup2\n      swap1\n        /* \"#utility.yul\":7501:7513   */\n      0x57\n      add\n        /* \"contracts/FoodAppFactory.sol\":380:546  abi.encodePacked(... */\n      mload(0x40)\n      0x20\n      dup2\n      dup4\n      sub\n      sub\n      dup2\n      mstore\n      swap1\n      0x40\n      mstore\n        /* \"contracts/FoodAppFactory.sol\":360:546  bytes memory code = abi.encodePacked(... */\n      swap1\n      pop\n        /* \"contracts/FoodAppFactory.sol\":623:627  code */\n      dup1\n        /* \"contracts/FoodAppFactory.sol\":617:628  mload(code) */\n      mload\n        /* \"contracts/FoodAppFactory.sol\":610:614  0x20 */\n      0x20\n        /* \"contracts/FoodAppFactory.sol\":604:608  code */\n      dup3\n        /* \"contracts/FoodAppFactory.sol\":600:615  add(code, 0x20) */\n      add\n        /* \"contracts/FoodAppFactory.sol\":597:598  0 */\n      0x00\n        /* \"contracts/FoodAppFactory.sol\":590:629  create(0, add(code, 0x20), mload(code)) */\n      create\n        /* \"contracts/FoodAppFactory.sol\":581:629  proxy := create(0, add(code, 0x20), mload(code)) */\n      swap2\n      pop\n      sub(shl(0xa0, 0x01), 0x01)\n        /* \"contracts/FoodAppFactory.sol\":658:677  proxy != address(0) */\n      dup3\n      and\n        /* \"contracts/FoodAppFactory.sol\":650:699  require(proxy != address(0), \"Deployment failed\") */\n      tag_116\n      jumpi\n      mload(0x40)\n      shl(0xe5, 0x461bcd)\n      dup2\n      mstore\n        /* \"#utility.yul\":7726:7728   */\n      0x20\n        /* \"contracts/FoodAppFactory.sol\":650:699  require(proxy != address(0), \"Deployment failed\") */\n      0x04\n      dup3\n      add\n        /* \"#utility.yul\":7708:7729   */\n      mstore\n        /* \"#utility.yul\":7765:7767   */\n      0x11\n        /* \"#utility.yul\":7745:7763   */\n      0x24\n      dup3\n      add\n        /* \"#utility.yul\":7738:7768   */\n      mstore\n      shl(0x7a, 0x11195c1b1bde5b595b9d0819985a5b1959)\n        /* \"#utility.yul\":7784:7802   */\n      0x44\n      dup3\n      add\n        /* \"#utility.yul\":7777:7824   */\n      mstore\n        /* \"#utility.yul\":7841:7859   */\n      0x64\n      add\n        /* \"contracts/FoodAppFactory.sol\":650:699  require(proxy != address(0), \"Deployment failed\") */\n      tag_86\n        /* \"#utility.yul\":7524:7865   */\n      jump\n        /* \"contracts/FoodAppFactory.sol\":650:699  require(proxy != address(0), \"Deployment failed\") */\n    tag_116:\n        /* \"contracts/FoodAppFactory.sol\":349:707  {... */\n      pop\n        /* \"contracts/FoodAppFactory.sol\":264:707  function deployMinimalProxy(address implementation) internal returns (address proxy) {... */\n      swap2\n      swap1\n      pop\n      jump\t// out\n        /* \"#utility.yul\":14:194   */\n    tag_13:\n        /* \"#utility.yul\":73:79   */\n      0x00\n        /* \"#utility.yul\":126:128   */\n      0x20\n        /* \"#utility.yul\":114:123   */\n      dup3\n        /* \"#utility.yul\":105:112   */\n      dup5\n        /* \"#utility.yul\":101:124   */\n      sub\n        /* \"#utility.yul\":97:129   */\n      slt\n        /* \"#utility.yul\":94:146   */\n      iszero\n      tag_124\n      jumpi\n        /* \"#utility.yul\":142:143   */\n      0x00\n        /* \"#utility.yul\":139:140   */\n      0x00\n        /* \"#utility.yul\":132:144   */\n      revert\n        /* \"#utility.yul\":94:146   */\n    tag_124:\n      pop\n        /* \"#utility.yul\":165:188   */\n      calldataload\n      swap2\n        /* \"#utility.yul\":14:194   */\n      swap1\n      pop\n      jump\t// out\n        /* \"#utility.yul\":199:402   */\n    tag_16:\n      sub(shl(0xa0, 0x01), 0x01)\n        /* \"#utility.yul\":363:395   */\n      swap2\n      swap1\n      swap2\n      and\n        /* \"#utility.yul\":345:396   */\n      dup2\n      mstore\n        /* \"#utility.yul\":333:335   */\n      0x20\n        /* \"#utility.yul\":318:336   */\n      add\n      swap1\n        /* \"#utility.yul\":199:402   */\n      jump\t// out\n        /* \"#utility.yul\":407:580   */\n    tag_119:\n        /* \"#utility.yul\":475:495   */\n      dup1\n      calldataload\n      sub(shl(0xa0, 0x01), 0x01)\n        /* \"#utility.yul\":524:555   */\n      dup2\n      and\n        /* \"#utility.yul\":514:556   */\n      dup2\n      eq\n        /* \"#utility.yul\":504:574   */\n      tag_127\n      jumpi\n        /* \"#utility.yul\":570:571   */\n      0x00\n        /* \"#utility.yul\":567:568   */\n      0x00\n        /* \"#utility.yul\":560:572   */\n      revert\n        /* \"#utility.yul\":504:574   */\n    tag_127:\n        /* \"#utility.yul\":407:580   */\n      swap2\n      swap1\n      pop\n      jump\t// out\n        /* \"#utility.yul\":585:771   */\n    tag_19:\n        /* \"#utility.yul\":644:650   */\n      0x00\n        /* \"#utility.yul\":697:699   */\n      0x20\n        /* \"#utility.yul\":685:694   */\n      dup3\n        /* \"#utility.yul\":676:683   */\n      dup5\n        /* \"#utility.yul\":672:695   */\n      sub\n        /* \"#utility.yul\":668:700   */\n      slt\n        /* \"#utility.yul\":665:717   */\n      iszero\n      tag_129\n      jumpi\n        /* \"#utility.yul\":713:714   */\n      0x00\n        /* \"#utility.yul\":710:711   */\n      0x00\n        /* \"#utility.yul\":703:715   */\n      revert\n        /* \"#utility.yul\":665:717   */\n    tag_129:\n        /* \"#utility.yul\":736:765   */\n      tag_130\n        /* \"#utility.yul\":755:764   */\n      dup3\n        /* \"#utility.yul\":736:765   */\n      tag_119\n      jump\t// in\n    tag_130:\n        /* \"#utility.yul\":726:765   */\n      swap4\n        /* \"#utility.yul\":585:771   */\n      swap3\n      pop\n      pop\n      pop\n      jump\t// out\n        /* \"#utility.yul\":776:1124   */\n    tag_120:\n        /* \"#utility.yul\":828:836   */\n      0x00\n        /* \"#utility.yul\":838:844   */\n      0x00\n        /* \"#utility.yul\":892:895   */\n      dup4\n        /* \"#utility.yul\":885:889   */\n      0x1f\n        /* \"#utility.yul\":877:883   */\n      dup5\n        /* \"#utility.yul\":873:890   */\n      add\n        /* \"#utility.yul\":869:896   */\n      slt\n        /* \"#utility.yul\":859:914   */\n      tag_132\n      jumpi\n        /* \"#utility.yul\":910:911   */\n      0x00\n        /* \"#utility.yul\":907:908   */\n      0x00\n        /* \"#utility.yul\":900:912   */\n      revert\n        /* \"#utility.yul\":859:914   */\n    tag_132:\n      pop\n        /* \"#utility.yul\":933:953   */\n      dup2\n      calldataload\n      sub(shl(0x40, 0x01), 0x01)\n        /* \"#utility.yul\":965:995   */\n      dup2\n      gt\n        /* \"#utility.yul\":962:1012   */\n      iszero\n      tag_133\n      jumpi\n        /* \"#utility.yul\":1008:1009   */\n      0x00\n        /* \"#utility.yul\":1005:1006   */\n      0x00\n        /* \"#utility.yul\":998:1010   */\n      revert\n        /* \"#utility.yul\":962:1012   */\n    tag_133:\n        /* \"#utility.yul\":1045:1049   */\n      0x20\n        /* \"#utility.yul\":1037:1043   */\n      dup4\n        /* \"#utility.yul\":1033:1050   */\n      add\n        /* \"#utility.yul\":1021:1050   */\n      swap2\n      pop\n        /* \"#utility.yul\":1097:1100   */\n      dup4\n        /* \"#utility.yul\":1090:1094   */\n      0x20\n        /* \"#utility.yul\":1081:1087   */\n      dup3\n        /* \"#utility.yul\":1073:1079   */\n      dup6\n        /* \"#utility.yul\":1069:1088   */\n      add\n        /* \"#utility.yul\":1065:1095   */\n      add\n        /* \"#utility.yul\":1062:1101   */\n      gt\n        /* \"#utility.yul\":1059:1118   */\n      iszero\n      tag_134\n      jumpi\n        /* \"#utility.yul\":1114:1115   */\n      0x00\n        /* \"#utility.yul\":1111:1112   */\n      0x00\n        /* \"#utility.yul\":1104:1116   */\n      revert\n        /* \"#utility.yul\":1059:1118   */\n    tag_134:\n        /* \"#utility.yul\":776:1124   */\n      swap3\n      pop\n      swap3\n      swap1\n      pop\n      jump\t// out\n        /* \"#utility.yul\":1129:1614   */\n    tag_23:\n        /* \"#utility.yul\":1209:1215   */\n      0x00\n        /* \"#utility.yul\":1217:1223   */\n      0x00\n        /* \"#utility.yul\":1225:1231   */\n      0x00\n        /* \"#utility.yul\":1278:1280   */\n      0x40\n        /* \"#utility.yul\":1266:1275   */\n      dup5\n        /* \"#utility.yul\":1257:1264   */\n      dup7\n        /* \"#utility.yul\":1253:1276   */\n      sub\n        /* \"#utility.yul\":1249:1281   */\n      slt\n        /* \"#utility.yul\":1246:1298   */\n      iszero\n      tag_136\n      jumpi\n        /* \"#utility.yul\":1294:1295   */\n      0x00\n        /* \"#utility.yul\":1291:1292   */\n      0x00\n        /* \"#utility.yul\":1284:1296   */\n      revert\n        /* \"#utility.yul\":1246:1298   */\n    tag_136:\n        /* \"#utility.yul\":1321:1344   */\n      dup4\n      calldataload\n      sub(shl(0x40, 0x01), 0x01)\n        /* \"#utility.yul\":1356:1386   */\n      dup2\n      gt\n        /* \"#utility.yul\":1353:1403   */\n      iszero\n      tag_137\n      jumpi\n        /* \"#utility.yul\":1399:1400   */\n      0x00\n        /* \"#utility.yul\":1396:1397   */\n      0x00\n        /* \"#utility.yul\":1389:1401   */\n      revert\n        /* \"#utility.yul\":1353:1403   */\n    tag_137:\n        /* \"#utility.yul\":1438:1497   */\n      tag_138\n        /* \"#utility.yul\":1489:1496   */\n      dup7\n        /* \"#utility.yul\":1480:1486   */\n      dup3\n        /* \"#utility.yul\":1469:1478   */\n      dup8\n        /* \"#utility.yul\":1465:1487   */\n      add\n        /* \"#utility.yul\":1438:1497   */\n      tag_120\n      jump\t// in\n    tag_138:\n        /* \"#utility.yul\":1516:1524   */\n      swap1\n      swap5\n      pop\n        /* \"#utility.yul\":1412:1497   */\n      swap3\n      pop\n        /* \"#utility.yul\":1570:1608   */\n      tag_139\n      swap1\n      pop\n        /* \"#utility.yul\":1604:1606   */\n      0x20\n        /* \"#utility.yul\":1589:1607   */\n      dup6\n      add\n        /* \"#utility.yul\":1570:1608   */\n      tag_119\n      jump\t// in\n    tag_139:\n        /* \"#utility.yul\":1560:1608   */\n      swap1\n      pop\n        /* \"#utility.yul\":1129:1614   */\n      swap3\n      pop\n      swap3\n      pop\n      swap3\n      jump\t// out\n        /* \"#utility.yul\":1619:1746   */\n    tag_121:\n        /* \"#utility.yul\":1680:1690   */\n      0x4e487b71\n        /* \"#utility.yul\":1675:1678   */\n      0xe0\n        /* \"#utility.yul\":1671:1691   */\n      shl\n        /* \"#utility.yul\":1668:1669   */\n      0x00\n        /* \"#utility.yul\":1661:1692   */\n      mstore\n        /* \"#utility.yul\":1711:1715   */\n      0x41\n        /* \"#utility.yul\":1708:1709   */\n      0x04\n        /* \"#utility.yul\":1701:1716   */\n      mstore\n        /* \"#utility.yul\":1735:1739   */\n      0x24\n        /* \"#utility.yul\":1732:1733   */\n      0x00\n        /* \"#utility.yul\":1725:1740   */\n      revert\n        /* \"#utility.yul\":1751:2770   */\n    tag_27:\n        /* \"#utility.yul\":1829:1835   */\n      0x00\n        /* \"#utility.yul\":1837:1843   */\n      0x00\n        /* \"#utility.yul\":1890:1892   */\n      0x40\n        /* \"#utility.yul\":1878:1887   */\n      dup4\n        /* \"#utility.yul\":1869:1876   */\n      dup6\n        /* \"#utility.yul\":1865:1888   */\n      sub\n        /* \"#utility.yul\":1861:1893   */\n      slt\n        /* \"#utility.yul\":1858:1910   */\n      iszero\n      tag_142\n      jumpi\n        /* \"#utility.yul\":1906:1907   */\n      0x00\n        /* \"#utility.yul\":1903:1904   */\n      0x00\n        /* \"#utility.yul\":1896:1908   */\n      revert\n        /* \"#utility.yul\":1858:1910   */\n    tag_142:\n        /* \"#utility.yul\":1929:1958   */\n      tag_143\n        /* \"#utility.yul\":1948:1957   */\n      dup4\n        /* \"#utility.yul\":1929:1958   */\n      tag_119\n      jump\t// in\n    tag_143:\n        /* \"#utility.yul\":1919:1958   */\n      swap2\n      pop\n        /* \"#utility.yul\":2009:2011   */\n      0x20\n        /* \"#utility.yul\":1994:2012   */\n      dup4\n      add\n        /* \"#utility.yul\":1981:2013   */\n      calldataload\n      sub(shl(0x40, 0x01), 0x01)\n        /* \"#utility.yul\":2025:2055   */\n      dup2\n      gt\n        /* \"#utility.yul\":2022:2072   */\n      iszero\n      tag_144\n      jumpi\n        /* \"#utility.yul\":2068:2069   */\n      0x00\n        /* \"#utility.yul\":2065:2066   */\n      0x00\n        /* \"#utility.yul\":2058:2070   */\n      revert\n        /* \"#utility.yul\":2022:2072   */\n    tag_144:\n        /* \"#utility.yul\":2091:2113   */\n      dup4\n      add\n        /* \"#utility.yul\":2144:2148   */\n      0x1f\n        /* \"#utility.yul\":2136:2149   */\n      dup2\n      add\n        /* \"#utility.yul\":2132:2159   */\n      dup6\n      sgt\n        /* \"#utility.yul\":2122:2177   */\n      tag_145\n      jumpi\n        /* \"#utility.yul\":2173:2174   */\n      0x00\n        /* \"#utility.yul\":2170:2171   */\n      0x00\n        /* \"#utility.yul\":2163:2175   */\n      revert\n        /* \"#utility.yul\":2122:2177   */\n    tag_145:\n        /* \"#utility.yul\":2200:2216   */\n      dup1\n      calldataload\n      sub(shl(0x40, 0x01), 0x01)\n        /* \"#utility.yul\":2228:2258   */\n      dup2\n      gt\n        /* \"#utility.yul\":2225:2281   */\n      iszero\n      tag_147\n      jumpi\n        /* \"#utility.yul\":2261:2279   */\n      tag_147\n      tag_121\n      jump\t// in\n    tag_147:\n        /* \"#utility.yul\":2310:2312   */\n      0x40\n        /* \"#utility.yul\":2304:2313   */\n      mload\n        /* \"#utility.yul\":2402:2404   */\n      0x1f\n        /* \"#utility.yul\":2364:2381   */\n      dup3\n      add\n      not(0x1f)\n        /* \"#utility.yul\":2360:2391   */\n      swap1\n      dup2\n      and\n        /* \"#utility.yul\":2393:2395   */\n      0x3f\n        /* \"#utility.yul\":2356:2396   */\n      add\n        /* \"#utility.yul\":2352:2406   */\n      and\n        /* \"#utility.yul\":2340:2407   */\n      dup2\n      add\n      sub(shl(0x40, 0x01), 0x01)\n        /* \"#utility.yul\":2422:2456   */\n      dup2\n      gt\n        /* \"#utility.yul\":2458:2480   */\n      dup3\n      dup3\n      lt\n        /* \"#utility.yul\":2419:2481   */\n      or\n        /* \"#utility.yul\":2416:2504   */\n      iszero\n      tag_149\n      jumpi\n        /* \"#utility.yul\":2484:2502   */\n      tag_149\n      tag_121\n      jump\t// in\n    tag_149:\n        /* \"#utility.yul\":2520:2522   */\n      0x40\n        /* \"#utility.yul\":2513:2535   */\n      mstore\n        /* \"#utility.yul\":2544:2566   */\n      dup2\n      dup2\n      mstore\n        /* \"#utility.yul\":2585:2600   */\n      dup3\n      dup3\n      add\n        /* \"#utility.yul\":2602:2604   */\n      0x20\n        /* \"#utility.yul\":2581:2605   */\n      add\n        /* \"#utility.yul\":2578:2615   */\n      dup8\n      lt\n        /* \"#utility.yul\":2575:2632   */\n      iszero\n      tag_150\n      jumpi\n        /* \"#utility.yul\":2628:2629   */\n      0x00\n        /* \"#utility.yul\":2625:2626   */\n      0x00\n        /* \"#utility.yul\":2618:2630   */\n      revert\n        /* \"#utility.yul\":2575:2632   */\n    tag_150:\n        /* \"#utility.yul\":2684:2690   */\n      dup2\n        /* \"#utility.yul\":2679:2681   */\n      0x20\n        /* \"#utility.yul\":2675:2677   */\n      dup5\n        /* \"#utility.yul\":2671:2682   */\n      add\n        /* \"#utility.yul\":2666:2668   */\n      0x20\n        /* \"#utility.yul\":2658:2664   */\n      dup4\n        /* \"#utility.yul\":2654:2669   */\n      add\n        /* \"#utility.yul\":2641:2691   */\n      calldatacopy\n        /* \"#utility.yul\":2737:2738   */\n      0x00\n        /* \"#utility.yul\":2732:2734   */\n      0x20\n        /* \"#utility.yul\":2723:2729   */\n      dup4\n        /* \"#utility.yul\":2715:2721   */\n      dup4\n        /* \"#utility.yul\":2711:2730   */\n      add\n        /* \"#utility.yul\":2707:2735   */\n      add\n        /* \"#utility.yul\":2700:2739   */\n      mstore\n        /* \"#utility.yul\":2758:2764   */\n      dup1\n        /* \"#utility.yul\":2748:2764   */\n      swap4\n      pop\n      pop\n      pop\n      pop\n        /* \"#utility.yul\":1751:2770   */\n      swap3\n      pop\n      swap3\n      swap1\n      pop\n      jump\t// out\n        /* \"#utility.yul\":2775:3186   */\n    tag_32:\n        /* \"#utility.yul\":2846:2852   */\n      0x00\n        /* \"#utility.yul\":2854:2860   */\n      0x00\n        /* \"#utility.yul\":2907:2909   */\n      0x20\n        /* \"#utility.yul\":2895:2904   */\n      dup4\n        /* \"#utility.yul\":2886:2893   */\n      dup6\n        /* \"#utility.yul\":2882:2905   */\n      sub\n        /* \"#utility.yul\":2878:2910   */\n      slt\n        /* \"#utility.yul\":2875:2927   */\n      iszero\n      tag_152\n      jumpi\n        /* \"#utility.yul\":2923:2924   */\n      0x00\n        /* \"#utility.yul\":2920:2921   */\n      0x00\n        /* \"#utility.yul\":2913:2925   */\n      revert\n        /* \"#utility.yul\":2875:2927   */\n    tag_152:\n        /* \"#utility.yul\":2950:2973   */\n      dup3\n      calldataload\n      sub(shl(0x40, 0x01), 0x01)\n        /* \"#utility.yul\":2985:3015   */\n      dup2\n      gt\n        /* \"#utility.yul\":2982:3032   */\n      iszero\n      tag_153\n      jumpi\n        /* \"#utility.yul\":3028:3029   */\n      0x00\n        /* \"#utility.yul\":3025:3026   */\n      0x00\n        /* \"#utility.yul\":3018:3030   */\n      revert\n        /* \"#utility.yul\":2982:3032   */\n    tag_153:\n        /* \"#utility.yul\":3067:3126   */\n      tag_154\n        /* \"#utility.yul\":3118:3125   */\n      dup6\n        /* \"#utility.yul\":3109:3115   */\n      dup3\n        /* \"#utility.yul\":3098:3107   */\n      dup7\n        /* \"#utility.yul\":3094:3116   */\n      add\n        /* \"#utility.yul\":3067:3126   */\n      tag_120\n      jump\t// in\n    tag_154:\n        /* \"#utility.yul\":3145:3153   */\n      swap1\n      swap7\n        /* \"#utility.yul\":3041:3126   */\n      swap1\n      swap6\n      pop\n        /* \"#utility.yul\":2775:3186   */\n      swap4\n      pop\n      pop\n      pop\n      pop\n      jump\t// out\n        /* \"#utility.yul\":3191:3676   */\n    tag_37:\n        /* \"#utility.yul\":3271:3277   */\n      0x00\n        /* \"#utility.yul\":3279:3285   */\n      0x00\n        /* \"#utility.yul\":3287:3293   */\n      0x00\n        /* \"#utility.yul\":3340:3342   */\n      0x40\n        /* \"#utility.yul\":3328:3337   */\n      dup5\n        /* \"#utility.yul\":3319:3326   */\n      dup7\n        /* \"#utility.yul\":3315:3338   */\n      sub\n        /* \"#utility.yul\":3311:3343   */\n      slt\n        /* \"#utility.yul\":3308:3360   */\n      iszero\n      tag_156\n      jumpi\n        /* \"#utility.yul\":3356:3357   */\n      0x00\n        /* \"#utility.yul\":3353:3354   */\n      0x00\n        /* \"#utility.yul\":3346:3358   */\n      revert\n        /* \"#utility.yul\":3308:3360   */\n    tag_156:\n        /* \"#utility.yul\":3379:3408   */\n      tag_157\n        /* \"#utility.yul\":3398:3407   */\n      dup5\n        /* \"#utility.yul\":3379:3408   */\n      tag_119\n      jump\t// in\n    tag_157:\n        /* \"#utility.yul\":3369:3408   */\n      swap3\n      pop\n        /* \"#utility.yul\":3459:3461   */\n      0x20\n        /* \"#utility.yul\":3444:3462   */\n      dup5\n      add\n        /* \"#utility.yul\":3431:3463   */\n      calldataload\n      sub(shl(0x40, 0x01), 0x01)\n        /* \"#utility.yul\":3475:3505   */\n      dup2\n      gt\n        /* \"#utility.yul\":3472:3522   */\n      iszero\n      tag_158\n      jumpi\n        /* \"#utility.yul\":3518:3519   */\n      0x00\n        /* \"#utility.yul\":3515:3516   */\n      0x00\n        /* \"#utility.yul\":3508:3520   */\n      revert\n        /* \"#utility.yul\":3472:3522   */\n    tag_158:\n        /* \"#utility.yul\":3557:3616   */\n      tag_159\n        /* \"#utility.yul\":3608:3615   */\n      dup7\n        /* \"#utility.yul\":3599:3605   */\n      dup3\n        /* \"#utility.yul\":3588:3597   */\n      dup8\n        /* \"#utility.yul\":3584:3606   */\n      add\n        /* \"#utility.yul\":3557:3616   */\n      tag_120\n      jump\t// in\n    tag_159:\n        /* \"#utility.yul\":3191:3676   */\n      swap5\n      swap8\n        /* \"#utility.yul\":3635:3643   */\n      swap1\n      swap7\n      pop\n        /* \"#utility.yul\":3531:3616   */\n      swap4\n      swap5\n      pop\n      pop\n      pop\n      pop\n        /* \"#utility.yul\":3191:3676   */\n      jump\t// out\n        /* \"#utility.yul\":3873:4146   */\n    tag_58:\n        /* \"#utility.yul\":4058:4064   */\n      dup2\n        /* \"#utility.yul\":4050:4056   */\n      dup4\n        /* \"#utility.yul\":4045:4048   */\n      dup3\n        /* \"#utility.yul\":4032:4065   */\n      calldatacopy\n        /* \"#utility.yul\":4014:4017   */\n      0x00\n        /* \"#utility.yul\":4084:4100   */\n      swap2\n      add\n        /* \"#utility.yul\":4109:4122   */\n      swap1\n      dup2\n      mstore\n        /* \"#utility.yul\":4084:4100   */\n      swap2\n        /* \"#utility.yul\":3873:4146   */\n      swap1\n      pop\n      jump\t// out\n        /* \"#utility.yul\":4151:4451   */\n    tag_69:\n      sub(shl(0xa0, 0x01), 0x01)\n        /* \"#utility.yul\":4343:4375   */\n      swap3\n      dup4\n      and\n        /* \"#utility.yul\":4325:4376   */\n      dup2\n      mstore\n        /* \"#utility.yul\":4412:4444   */\n      swap2\n      and\n        /* \"#utility.yul\":4407:4409   */\n      0x20\n        /* \"#utility.yul\":4392:4410   */\n      dup3\n      add\n        /* \"#utility.yul\":4385:4445   */\n      mstore\n        /* \"#utility.yul\":4313:4315   */\n      0x40\n        /* \"#utility.yul\":4298:4316   */\n      add\n      swap1\n        /* \"#utility.yul\":4151:4451   */\n      jump\t// out\n        /* \"#utility.yul\":4723:4991   */\n    tag_84:\n      shl(0x79, 0x2932b9ba30bab930b73a26b0b730b3b2b9)\n        /* \"#utility.yul\":4925:4957   */\n      dup2\n      mstore\n        /* \"#utility.yul\":4982:4984   */\n      0x11\n        /* \"#utility.yul\":4973:4985   */\n      add\n      swap1\n        /* \"#utility.yul\":4723:4991   */\n      jump\t// out\n\n    auxdata: 0xa26469706673582212209798ace9f690f40cf8d81b1ea99fd7656984d2d207f61ae05bb7a52016a0c9d064736f6c634300081e0033\n}\n",
				"bytecode": {
					"linkReferences": {},
					"object": "6080604052348015600e575f5ffd5b505f80546001600160a01b03191633179055610c8c8061002d5f395ff3fe608060405234801561000f575f5ffd5b5060043610610076575f3560e01c806302cfeaca1461007a5780630471219c146100b857806306419fe5146100cd578063698fb38c146100e0578063a8511f5a14610124578063dee893c214610137578063e03317e21461014a578063f851a4401461017c575b5f5ffd5b6100a26100883660046109b6565b60016020525f90815260409020546001600160a01b031681565b6040516100af91906109cd565b60405180910390f35b6100cb6100c63660046109fc565b61018e565b005b6100cb6100db366004610a60565b610263565b6100a26100ee366004610ac3565b600260209081525f928352604090922081518083018401805192815290840192909301919091209152546001600160a01b031681565b6100a2610132366004610b84565b610338565b6100a2610145366004610bc2565b6108af565b61016c6101583660046109fc565b60036020525f908152604090205460ff1681565b60405190151581526020016100af565b5f546100a2906001600160a01b031681565b5f546001600160a01b031633146101b857604051632333856760e11b815260040160405180910390fd5b6001600160a01b0381166101df5760405163b92c660560e01b815260040160405180910390fd5b6001600160a01b0381165f9081526003602052604090205460ff1615610218576040516305e42d8160e51b815260040160405180910390fd5b6001600160a01b0381165f81815260036020526040808220805460ff19166001179055517f40acd6a6e0976dabb14ff6b8b6ec06632812f9090d84b768d5c2a7bcda8539be9190a250565b5f546001600160a01b0316331461028d57604051632333856760e11b815260040160405180910390fd5b6001600160a01b0381166102b45760405163b92c660560e01b815260040160405180910390fd5b5f83836040516020016102c8929190610c10565b60408051808303601f1901815282825280516020918201205f818152600190925291812080546001600160a01b0319166001600160a01b038716908117909155919350909183917f4b4ee1a8c5ce94bc0300190d8e5d93808c513dbac15879dc51c1b5a3f73ae6a891a350505050565b335f8181526003602052604081205490919060ff1661036a5760405163577d4b8560e01b815260040160405180910390fd5b5f848460405160200161037e929190610c10565b60408051601f1981840301815282825280516020918201206001600160a01b0386165f9081526002909252918120919350916103bd9088908890610c10565b908152604051908190036020019020546001600160a01b0316146103f4576040516351a4ffef60e11b815260040160405180910390fd5b5f818152600160205260409020546001600160a01b0316806104295760405163820ee9e360e01b815260040160405180910390fd5b5f610433826108f8565b9050307ff094f37b69fb531c65b81278199f5c0867e4e81326f9caff6417f5dc86a7ee3984016104bd5760405163485cc95560e01b81526001600160a01b0383169063485cc9559061048b9088908590600401610c1f565b5f604051808303815f87803b1580156104a2575f5ffd5b505af11580156104b4573d5f5f3e3d5ffd5b505050506107f3565b7ff1e0aeb668bac4fc558624925de4edc3dfb7e138b35fbf1274918a9e51223e5884036105125760405163485cc95560e01b81526001600160a01b0383169063485cc9559061048b9088908590600401610c1f565b7f2335b578f972333fd9ef2743a6722bf46f16c3f49a604e771a495dce08428edc84036106bc576001600160a01b0385165f9081526002602052604080822090516a26b2b73aa6b0b730b3b2b960a91b8152600b019081526040805160209281900383018120546001600160a01b038a81165f90815260029095529284209216935061059d90610c39565b908152604051908190036020019020546001600160a01b03908116915082166105fc57604051630adc4dc760e41b815260206004820152600b60248201526a26b2b73aa6b0b730b3b2b960a91b60448201526064015b60405180910390fd5b6001600160a01b03811661064757604051630adc4dc760e41b81526020600482015260116024820152702932b9ba30bab930b73a26b0b730b3b2b960791b60448201526064016105f3565b604051637c643b2f60e11b81526001600160a01b03888116600483015283811660248301528281166044830152848116606483015285169063f8c8765e906084015f604051808303815f87803b15801561069f575f5ffd5b505af11580156106b1573d5f5f3e3d5ffd5b5050505050506107f3565b7f8bbf664581ba9b490e4c7bc54dcab50600ac9f4ea500db4ccfa4a065d91bb92e84036107da576001600160a01b0385165f90815260026020526040808220905161070690610c39565b908152604051908190036020019020546001600160a01b031690508061076e57604051630adc4dc760e41b815260206004820152601c60248201527b52657374617572616e744d616e6167657220666f722052657669657760201b60448201526064016105f3565b60405163c0c53b8b60e01b81526001600160a01b0387811660048301528281166024830152838116604483015284169063c0c53b8b906064015f604051808303815f87803b1580156107be575f5ffd5b505af11580156107d0573d5f5f3e3d5ffd5b50505050506107f3565b6040516338b87c4360e11b815260040160405180910390fd5b6001600160a01b0385165f9081526002602052604090819020905183919061081e908b908b90610c10565b90815260405190819003602001812080546001600160a01b03939093166001600160a01b03199093169290921790915561085b9089908990610c10565b6040518091039020856001600160a01b03167fc5dce3b4e11c1d8d79fdcfdc67f11ff335c6e47140ec01ee655b4f18ac3990758460405161089c91906109cd565b60405180910390a3509695505050505050565b6001600160a01b0383165f9081526002602052604080822090516108d69085908590610c10565b908152604051908190036020019020546001600160a01b031690509392505050565b604051733d602d80600a3d3981f3363d3d373d3d3d363d7360601b60208201526001600160601b0319606083901b1660348201526e5af43d82803e903d91602b57fd5bf360881b60488201525f90819060570160405160208183030381529060405290508051602082015ff091506001600160a01b0382166109b05760405162461bcd60e51b815260206004820152601160248201527011195c1b1bde5b595b9d0819985a5b1959607a1b60448201526064016105f3565b50919050565b5f602082840312156109c6575f5ffd5b5035919050565b6001600160a01b0391909116815260200190565b80356001600160a01b03811681146109f7575f5ffd5b919050565b5f60208284031215610a0c575f5ffd5b610a15826109e1565b9392505050565b5f5f83601f840112610a2c575f5ffd5b5081356001600160401b03811115610a42575f5ffd5b602083019150836020828501011115610a59575f5ffd5b9250929050565b5f5f5f60408486031215610a72575f5ffd5b83356001600160401b03811115610a87575f5ffd5b610a9386828701610a1c565b9094509250610aa69050602085016109e1565b90509250925092565b634e487b7160e01b5f52604160045260245ffd5b5f5f60408385031215610ad4575f5ffd5b610add836109e1565b915060208301356001600160401b03811115610af7575f5ffd5b8301601f81018513610b07575f5ffd5b80356001600160401b03811115610b2057610b20610aaf565b604051601f8201601f19908116603f011681016001600160401b0381118282101715610b4e57610b4e610aaf565b604052818152828201602001871015610b65575f5ffd5b816020840160208301375f602083830101528093505050509250929050565b5f5f60208385031215610b95575f5ffd5b82356001600160401b03811115610baa575f5ffd5b610bb685828601610a1c565b90969095509350505050565b5f5f5f60408486031215610bd4575f5ffd5b610bdd846109e1565b925060208401356001600160401b03811115610bf7575f5ffd5b610c0386828701610a1c565b9497909650939450505050565b818382375f9101908152919050565b6001600160a01b0392831681529116602082015260400190565b702932b9ba30bab930b73a26b0b730b3b2b960791b81526011019056fea26469706673582212209798ace9f690f40cf8d81b1ea99fd7656984d2d207f61ae05bb7a52016a0c9d064736f6c634300081e0033",
					"opcodes": "PUSH1 0x80 PUSH1 0x40 MSTORE CALLVALUE DUP1 ISZERO PUSH1 0xE JUMPI PUSH0 PUSH0 REVERT JUMPDEST POP PUSH0 DUP1 SLOAD PUSH1 0x1 PUSH1 0x1 PUSH1 0xA0 SHL SUB NOT AND CALLER OR SWAP1 SSTORE PUSH2 0xC8C DUP1 PUSH2 0x2D PUSH0 CODECOPY PUSH0 RETURN INVALID PUSH1 0x80 PUSH1 0x40 MSTORE CALLVALUE DUP1 ISZERO PUSH2 0xF JUMPI PUSH0 PUSH0 REVERT JUMPDEST POP PUSH1 0x4 CALLDATASIZE LT PUSH2 0x76 JUMPI PUSH0 CALLDATALOAD PUSH1 0xE0 SHR DUP1 PUSH4 0x2CFEACA EQ PUSH2 0x7A JUMPI DUP1 PUSH4 0x471219C EQ PUSH2 0xB8 JUMPI DUP1 PUSH4 0x6419FE5 EQ PUSH2 0xCD JUMPI DUP1 PUSH4 0x698FB38C EQ PUSH2 0xE0 JUMPI DUP1 PUSH4 0xA8511F5A EQ PUSH2 0x124 JUMPI DUP1 PUSH4 0xDEE893C2 EQ PUSH2 0x137 JUMPI DUP1 PUSH4 0xE03317E2 EQ PUSH2 0x14A JUMPI DUP1 PUSH4 0xF851A440 EQ PUSH2 0x17C JUMPI JUMPDEST PUSH0 PUSH0 REVERT JUMPDEST PUSH2 0xA2 PUSH2 0x88 CALLDATASIZE PUSH1 0x4 PUSH2 0x9B6 JUMP JUMPDEST PUSH1 0x1 PUSH1 0x20 MSTORE PUSH0 SWAP1 DUP2 MSTORE PUSH1 0x40 SWAP1 KECCAK256 SLOAD PUSH1 0x1 PUSH1 0x1 PUSH1 0xA0 SHL SUB AND DUP2 JUMP JUMPDEST PUSH1 0x40 MLOAD PUSH2 0xAF SWAP2 SWAP1 PUSH2 0x9CD JUMP JUMPDEST PUSH1 0x40 MLOAD DUP1 SWAP2 SUB SWAP1 RETURN JUMPDEST PUSH2 0xCB PUSH2 0xC6 CALLDATASIZE PUSH1 0x4 PUSH2 0x9FC JUMP JUMPDEST PUSH2 0x18E JUMP JUMPDEST STOP JUMPDEST PUSH2 0xCB PUSH2 0xDB CALLDATASIZE PUSH1 0x4 PUSH2 0xA60 JUMP JUMPDEST PUSH2 0x263 JUMP JUMPDEST PUSH2 0xA2 PUSH2 0xEE CALLDATASIZE PUSH1 0x4 PUSH2 0xAC3 JUMP JUMPDEST PUSH1 0x2 PUSH1 0x20 SWAP1 DUP2 MSTORE PUSH0 SWAP3 DUP4 MSTORE PUSH1 0x40 SWAP1 SWAP3 KECCAK256 DUP2 MLOAD DUP1 DUP4 ADD DUP5 ADD DUP1 MLOAD SWAP3 DUP2 MSTORE SWAP1 DUP5 ADD SWAP3 SWAP1 SWAP4 ADD SWAP2 SWAP1 SWAP2 KECCAK256 SWAP2 MSTORE SLOAD PUSH1 0x1 PUSH1 0x1 PUSH1 0xA0 SHL SUB AND DUP2 JUMP JUMPDEST PUSH2 0xA2 PUSH2 0x132 CALLDATASIZE PUSH1 0x4 PUSH2 0xB84 JUMP JUMPDEST PUSH2 0x338 JUMP JUMPDEST PUSH2 0xA2 PUSH2 0x145 CALLDATASIZE PUSH1 0x4 PUSH2 0xBC2 JUMP JUMPDEST PUSH2 0x8AF JUMP JUMPDEST PUSH2 0x16C PUSH2 0x158 CALLDATASIZE PUSH1 0x4 PUSH2 0x9FC JUMP JUMPDEST PUSH1 0x3 PUSH1 0x20 MSTORE PUSH0 SWAP1 DUP2 MSTORE PUSH1 0x40 SWAP1 KECCAK256 SLOAD PUSH1 0xFF AND DUP2 JUMP JUMPDEST PUSH1 0x40 MLOAD SWAP1 ISZERO ISZERO DUP2 MSTORE PUSH1 0x20 ADD PUSH2 0xAF JUMP JUMPDEST PUSH0 SLOAD PUSH2 0xA2 SWAP1 PUSH1 0x1 PUSH1 0x1 PUSH1 0xA0 SHL SUB AND DUP2 JUMP JUMPDEST PUSH0 SLOAD PUSH1 0x1 PUSH1 0x1 PUSH1 0xA0 SHL SUB AND CALLER EQ PUSH2 0x1B8 JUMPI PUSH1 0x40 MLOAD PUSH4 0x23338567 PUSH1 0xE1 SHL DUP2 MSTORE PUSH1 0x4 ADD PUSH1 0x40 MLOAD DUP1 SWAP2 SUB SWAP1 REVERT JUMPDEST PUSH1 0x1 PUSH1 0x1 PUSH1 0xA0 SHL SUB DUP2 AND PUSH2 0x1DF JUMPI PUSH1 0x40 MLOAD PUSH4 0xB92C6605 PUSH1 0xE0 SHL DUP2 MSTORE PUSH1 0x4 ADD PUSH1 0x40 MLOAD DUP1 SWAP2 SUB SWAP1 REVERT JUMPDEST PUSH1 0x1 PUSH1 0x1 PUSH1 0xA0 SHL SUB DUP2 AND PUSH0 SWAP1 DUP2 MSTORE PUSH1 0x3 PUSH1 0x20 MSTORE PUSH1 0x40 SWAP1 KECCAK256 SLOAD PUSH1 0xFF AND ISZERO PUSH2 0x218 JUMPI PUSH1 0x40 MLOAD PUSH4 0x5E42D81 PUSH1 0xE5 SHL DUP2 MSTORE PUSH1 0x4 ADD PUSH1 0x40 MLOAD DUP1 SWAP2 SUB SWAP1 REVERT JUMPDEST PUSH1 0x1 PUSH1 0x1 PUSH1 0xA0 SHL SUB DUP2 AND PUSH0 DUP2 DUP2 MSTORE PUSH1 0x3 PUSH1 0x20 MSTORE PUSH1 0x40 DUP1 DUP3 KECCAK256 DUP1 SLOAD PUSH1 0xFF NOT AND PUSH1 0x1 OR SWAP1 SSTORE MLOAD PUSH32 0x40ACD6A6E0976DABB14FF6B8B6EC06632812F9090D84B768D5C2A7BCDA8539BE SWAP2 SWAP1 LOG2 POP JUMP JUMPDEST PUSH0 SLOAD PUSH1 0x1 PUSH1 0x1 PUSH1 0xA0 SHL SUB AND CALLER EQ PUSH2 0x28D JUMPI PUSH1 0x40 MLOAD PUSH4 0x23338567 PUSH1 0xE1 SHL DUP2 MSTORE PUSH1 0x4 ADD PUSH1 0x40 MLOAD DUP1 SWAP2 SUB SWAP1 REVERT JUMPDEST PUSH1 0x1 PUSH1 0x1 PUSH1 0xA0 SHL SUB DUP2 AND PUSH2 0x2B4 JUMPI PUSH1 0x40 MLOAD PUSH4 0xB92C6605 PUSH1 0xE0 SHL DUP2 MSTORE PUSH1 0x4 ADD PUSH1 0x40 MLOAD DUP1 SWAP2 SUB SWAP1 REVERT JUMPDEST PUSH0 DUP4 DUP4 PUSH1 0x40 MLOAD PUSH1 0x20 ADD PUSH2 0x2C8 SWAP3 SWAP2 SWAP1 PUSH2 0xC10 JUMP JUMPDEST PUSH1 0x40 DUP1 MLOAD DUP1 DUP4 SUB PUSH1 0x1F NOT ADD DUP2 MSTORE DUP3 DUP3 MSTORE DUP1 MLOAD PUSH1 0x20 SWAP2 DUP3 ADD KECCAK256 PUSH0 DUP2 DUP2 MSTORE PUSH1 0x1 SWAP1 SWAP3 MSTORE SWAP2 DUP2 KECCAK256 DUP1 SLOAD PUSH1 0x1 PUSH1 0x1 PUSH1 0xA0 SHL SUB NOT AND PUSH1 0x1 PUSH1 0x1 PUSH1 0xA0 SHL SUB DUP8 AND SWAP1 DUP2 OR SWAP1 SWAP2 SSTORE SWAP2 SWAP4 POP SWAP1 SWAP2 DUP4 SWAP2 PUSH32 0x4B4EE1A8C5CE94BC0300190D8E5D93808C513DBAC15879DC51C1B5A3F73AE6A8 SWAP2 LOG3 POP POP POP POP JUMP JUMPDEST CALLER PUSH0 DUP2 DUP2 MSTORE PUSH1 0x3 PUSH1 0x20 MSTORE PUSH1 0x40 DUP2 KECCAK256 SLOAD SWAP1 SWAP2 SWAP1 PUSH1 0xFF AND PUSH2 0x36A JUMPI PUSH1 0x40 MLOAD PUSH4 0x577D4B85 PUSH1 0xE0 SHL DUP2 MSTORE PUSH1 0x4 ADD PUSH1 0x40 MLOAD DUP1 SWAP2 SUB SWAP1 REVERT JUMPDEST PUSH0 DUP5 DUP5 PUSH1 0x40 MLOAD PUSH1 0x20 ADD PUSH2 0x37E SWAP3 SWAP2 SWAP1 PUSH2 0xC10 JUMP JUMPDEST PUSH1 0x40 DUP1 MLOAD PUSH1 0x1F NOT DUP2 DUP5 SUB ADD DUP2 MSTORE DUP3 DUP3 MSTORE DUP1 MLOAD PUSH1 0x20 SWAP2 DUP3 ADD KECCAK256 PUSH1 0x1 PUSH1 0x1 PUSH1 0xA0 SHL SUB DUP7 AND PUSH0 SWAP1 DUP2 MSTORE PUSH1 0x2 SWAP1 SWAP3 MSTORE SWAP2 DUP2 KECCAK256 SWAP2 SWAP4 POP SWAP2 PUSH2 0x3BD SWAP1 DUP9 SWAP1 DUP9 SWAP1 PUSH2 0xC10 JUMP JUMPDEST SWAP1 DUP2 MSTORE PUSH1 0x40 MLOAD SWAP1 DUP2 SWAP1 SUB PUSH1 0x20 ADD SWAP1 KECCAK256 SLOAD PUSH1 0x1 PUSH1 0x1 PUSH1 0xA0 SHL SUB AND EQ PUSH2 0x3F4 JUMPI PUSH1 0x40 MLOAD PUSH4 0x51A4FFEF PUSH1 0xE1 SHL DUP2 MSTORE PUSH1 0x4 ADD PUSH1 0x40 MLOAD DUP1 SWAP2 SUB SWAP1 REVERT JUMPDEST PUSH0 DUP2 DUP2 MSTORE PUSH1 0x1 PUSH1 0x20 MSTORE PUSH1 0x40 SWAP1 KECCAK256 SLOAD PUSH1 0x1 PUSH1 0x1 PUSH1 0xA0 SHL SUB AND DUP1 PUSH2 0x429 JUMPI PUSH1 0x40 MLOAD PUSH4 0x820EE9E3 PUSH1 0xE0 SHL DUP2 MSTORE PUSH1 0x4 ADD PUSH1 0x40 MLOAD DUP1 SWAP2 SUB SWAP1 REVERT JUMPDEST PUSH0 PUSH2 0x433 DUP3 PUSH2 0x8F8 JUMP JUMPDEST SWAP1 POP ADDRESS PUSH32 0xF094F37B69FB531C65B81278199F5C0867E4E81326F9CAFF6417F5DC86A7EE39 DUP5 ADD PUSH2 0x4BD JUMPI PUSH1 0x40 MLOAD PUSH4 0x485CC955 PUSH1 0xE0 SHL DUP2 MSTORE PUSH1 0x1 PUSH1 0x1 PUSH1 0xA0 SHL SUB DUP4 AND SWAP1 PUSH4 0x485CC955 SWAP1 PUSH2 0x48B SWAP1 DUP9 SWAP1 DUP6 SWAP1 PUSH1 0x4 ADD PUSH2 0xC1F JUMP JUMPDEST PUSH0 PUSH1 0x40 MLOAD DUP1 DUP4 SUB DUP2 PUSH0 DUP8 DUP1 EXTCODESIZE ISZERO DUP1 ISZERO PUSH2 0x4A2 JUMPI PUSH0 PUSH0 REVERT JUMPDEST POP GAS CALL ISZERO DUP1 ISZERO PUSH2 0x4B4 JUMPI RETURNDATASIZE PUSH0 PUSH0 RETURNDATACOPY RETURNDATASIZE PUSH0 REVERT JUMPDEST POP POP POP POP PUSH2 0x7F3 JUMP JUMPDEST PUSH32 0xF1E0AEB668BAC4FC558624925DE4EDC3DFB7E138B35FBF1274918A9E51223E58 DUP5 SUB PUSH2 0x512 JUMPI PUSH1 0x40 MLOAD PUSH4 0x485CC955 PUSH1 0xE0 SHL DUP2 MSTORE PUSH1 0x1 PUSH1 0x1 PUSH1 0xA0 SHL SUB DUP4 AND SWAP1 PUSH4 0x485CC955 SWAP1 PUSH2 0x48B SWAP1 DUP9 SWAP1 DUP6 SWAP1 PUSH1 0x4 ADD PUSH2 0xC1F JUMP JUMPDEST PUSH32 0x2335B578F972333FD9EF2743A6722BF46F16C3F49A604E771A495DCE08428EDC DUP5 SUB PUSH2 0x6BC JUMPI PUSH1 0x1 PUSH1 0x1 PUSH1 0xA0 SHL SUB DUP6 AND PUSH0 SWAP1 DUP2 MSTORE PUSH1 0x2 PUSH1 0x20 MSTORE PUSH1 0x40 DUP1 DUP3 KECCAK256 SWAP1 MLOAD PUSH11 0x26B2B73AA6B0B730B3B2B9 PUSH1 0xA9 SHL DUP2 MSTORE PUSH1 0xB ADD SWAP1 DUP2 MSTORE PUSH1 0x40 DUP1 MLOAD PUSH1 0x20 SWAP3 DUP2 SWAP1 SUB DUP4 ADD DUP2 KECCAK256 SLOAD PUSH1 0x1 PUSH1 0x1 PUSH1 0xA0 SHL SUB DUP11 DUP2 AND PUSH0 SWAP1 DUP2 MSTORE PUSH1 0x2 SWAP1 SWAP6 MSTORE SWAP3 DUP5 KECCAK256 SWAP3 AND SWAP4 POP PUSH2 0x59D SWAP1 PUSH2 0xC39 JUMP JUMPDEST SWAP1 DUP2 MSTORE PUSH1 0x40 MLOAD SWAP1 DUP2 SWAP1 SUB PUSH1 0x20 ADD SWAP1 KECCAK256 SLOAD PUSH1 0x1 PUSH1 0x1 PUSH1 0xA0 SHL SUB SWAP1 DUP2 AND SWAP2 POP DUP3 AND PUSH2 0x5FC JUMPI PUSH1 0x40 MLOAD PUSH4 0xADC4DC7 PUSH1 0xE4 SHL DUP2 MSTORE PUSH1 0x20 PUSH1 0x4 DUP3 ADD MSTORE PUSH1 0xB PUSH1 0x24 DUP3 ADD MSTORE PUSH11 0x26B2B73AA6B0B730B3B2B9 PUSH1 0xA9 SHL PUSH1 0x44 DUP3 ADD MSTORE PUSH1 0x64 ADD JUMPDEST PUSH1 0x40 MLOAD DUP1 SWAP2 SUB SWAP1 REVERT JUMPDEST PUSH1 0x1 PUSH1 0x1 PUSH1 0xA0 SHL SUB DUP2 AND PUSH2 0x647 JUMPI PUSH1 0x40 MLOAD PUSH4 0xADC4DC7 PUSH1 0xE4 SHL DUP2 MSTORE PUSH1 0x20 PUSH1 0x4 DUP3 ADD MSTORE PUSH1 0x11 PUSH1 0x24 DUP3 ADD MSTORE PUSH17 0x2932B9BA30BAB930B73A26B0B730B3B2B9 PUSH1 0x79 SHL PUSH1 0x44 DUP3 ADD MSTORE PUSH1 0x64 ADD PUSH2 0x5F3 JUMP JUMPDEST PUSH1 0x40 MLOAD PUSH4 0x7C643B2F PUSH1 0xE1 SHL DUP2 MSTORE PUSH1 0x1 PUSH1 0x1 PUSH1 0xA0 SHL SUB DUP9 DUP2 AND PUSH1 0x4 DUP4 ADD MSTORE DUP4 DUP2 AND PUSH1 0x24 DUP4 ADD MSTORE DUP3 DUP2 AND PUSH1 0x44 DUP4 ADD MSTORE DUP5 DUP2 AND PUSH1 0x64 DUP4 ADD MSTORE DUP6 AND SWAP1 PUSH4 0xF8C8765E SWAP1 PUSH1 0x84 ADD PUSH0 PUSH1 0x40 MLOAD DUP1 DUP4 SUB DUP2 PUSH0 DUP8 DUP1 EXTCODESIZE ISZERO DUP1 ISZERO PUSH2 0x69F JUMPI PUSH0 PUSH0 REVERT JUMPDEST POP GAS CALL ISZERO DUP1 ISZERO PUSH2 0x6B1 JUMPI RETURNDATASIZE PUSH0 PUSH0 RETURNDATACOPY RETURNDATASIZE PUSH0 REVERT JUMPDEST POP POP POP POP POP POP PUSH2 0x7F3 JUMP JUMPDEST PUSH32 0x8BBF664581BA9B490E4C7BC54DCAB50600AC9F4EA500DB4CCFA4A065D91BB92E DUP5 SUB PUSH2 0x7DA JUMPI PUSH1 0x1 PUSH1 0x1 PUSH1 0xA0 SHL SUB DUP6 AND PUSH0 SWAP1 DUP2 MSTORE PUSH1 0x2 PUSH1 0x20 MSTORE PUSH1 0x40 DUP1 DUP3 KECCAK256 SWAP1 MLOAD PUSH2 0x706 SWAP1 PUSH2 0xC39 JUMP JUMPDEST SWAP1 DUP2 MSTORE PUSH1 0x40 MLOAD SWAP1 DUP2 SWAP1 SUB PUSH1 0x20 ADD SWAP1 KECCAK256 SLOAD PUSH1 0x1 PUSH1 0x1 PUSH1 0xA0 SHL SUB AND SWAP1 POP DUP1 PUSH2 0x76E JUMPI PUSH1 0x40 MLOAD PUSH4 0xADC4DC7 PUSH1 0xE4 SHL DUP2 MSTORE PUSH1 0x20 PUSH1 0x4 DUP3 ADD MSTORE PUSH1 0x1C PUSH1 0x24 DUP3 ADD MSTORE PUSH28 0x52657374617572616E744D616E6167657220666F7220526576696577 PUSH1 0x20 SHL PUSH1 0x44 DUP3 ADD MSTORE PUSH1 0x64 ADD PUSH2 0x5F3 JUMP JUMPDEST PUSH1 0x40 MLOAD PUSH4 0xC0C53B8B PUSH1 0xE0 SHL DUP2 MSTORE PUSH1 0x1 PUSH1 0x1 PUSH1 0xA0 SHL SUB DUP8 DUP2 AND PUSH1 0x4 DUP4 ADD MSTORE DUP3 DUP2 AND PUSH1 0x24 DUP4 ADD MSTORE DUP4 DUP2 AND PUSH1 0x44 DUP4 ADD MSTORE DUP5 AND SWAP1 PUSH4 0xC0C53B8B SWAP1 PUSH1 0x64 ADD PUSH0 PUSH1 0x40 MLOAD DUP1 DUP4 SUB DUP2 PUSH0 DUP8 DUP1 EXTCODESIZE ISZERO DUP1 ISZERO PUSH2 0x7BE JUMPI PUSH0 PUSH0 REVERT JUMPDEST POP GAS CALL ISZERO DUP1 ISZERO PUSH2 0x7D0 JUMPI RETURNDATASIZE PUSH0 PUSH0 RETURNDATACOPY RETURNDATASIZE PUSH0 REVERT JUMPDEST POP POP POP POP POP PUSH2 0x7F3 JUMP JUMPDEST PUSH1 0x40 MLOAD PUSH4 0x38B87C43 PUSH1 0xE1 SHL DUP2 MSTORE PUSH1 0x4 ADD PUSH1 0x40 MLOAD DUP1 SWAP2 SUB SWAP1 REVERT JUMPDEST PUSH1 0x1 PUSH1 0x1 PUSH1 0xA0 SHL SUB DUP6 AND PUSH0 SWAP1 DUP2 MSTORE PUSH1 0x2 PUSH1 0x20 MSTORE PUSH1 0x40 SWAP1 DUP2 SWAP1 KECCAK256 SWAP1 MLOAD DUP4 SWAP2 SWAP1 PUSH2 0x81E SWAP1 DUP12 SWAP1 DUP12 SWAP1 PUSH2 0xC10 JUMP JUMPDEST SWAP1 DUP2 MSTORE PUSH1 0x40 MLOAD SWAP1 DUP2 SWAP1 SUB PUSH1 0x20 ADD DUP2 KECCAK256 DUP1 SLOAD PUSH1 0x1 PUSH1 0x1 PUSH1 0xA0 SHL SUB SWAP4 SWAP1 SWAP4 AND PUSH1 0x1 PUSH1 0x1 PUSH1 0xA0 SHL SUB NOT SWAP1 SWAP4 AND SWAP3 SWAP1 SWAP3 OR SWAP1 SWAP2 SSTORE PUSH2 0x85B SWAP1 DUP10 SWAP1 DUP10 SWAP1 PUSH2 0xC10 JUMP JUMPDEST PUSH1 0x40 MLOAD DUP1 SWAP2 SUB SWAP1 KECCAK256 DUP6 PUSH1 0x1 PUSH1 0x1 PUSH1 0xA0 SHL SUB AND PUSH32 0xC5DCE3B4E11C1D8D79FDCFDC67F11FF335C6E47140EC01EE655B4F18AC399075 DUP5 PUSH1 0x40 MLOAD PUSH2 0x89C SWAP2 SWAP1 PUSH2 0x9CD JUMP JUMPDEST PUSH1 0x40 MLOAD DUP1 SWAP2 SUB SWAP1 LOG3 POP SWAP7 SWAP6 POP POP POP POP POP POP JUMP JUMPDEST PUSH1 0x1 PUSH1 0x1 PUSH1 0xA0 SHL SUB DUP4 AND PUSH0 SWAP1 DUP2 MSTORE PUSH1 0x2 PUSH1 0x20 MSTORE PUSH1 0x40 DUP1 DUP3 KECCAK256 SWAP1 MLOAD PUSH2 0x8D6 SWAP1 DUP6 SWAP1 DUP6 SWAP1 PUSH2 0xC10 JUMP JUMPDEST SWAP1 DUP2 MSTORE PUSH1 0x40 MLOAD SWAP1 DUP2 SWAP1 SUB PUSH1 0x20 ADD SWAP1 KECCAK256 SLOAD PUSH1 0x1 PUSH1 0x1 PUSH1 0xA0 SHL SUB AND SWAP1 POP SWAP4 SWAP3 POP POP POP JUMP JUMPDEST PUSH1 0x40 MLOAD PUSH20 0x3D602D80600A3D3981F3363D3D373D3D3D363D73 PUSH1 0x60 SHL PUSH1 0x20 DUP3 ADD MSTORE PUSH1 0x1 PUSH1 0x1 PUSH1 0x60 SHL SUB NOT PUSH1 0x60 DUP4 SWAP1 SHL AND PUSH1 0x34 DUP3 ADD MSTORE PUSH15 0x5AF43D82803E903D91602B57FD5BF3 PUSH1 0x88 SHL PUSH1 0x48 DUP3 ADD MSTORE PUSH0 SWAP1 DUP2 SWAP1 PUSH1 0x57 ADD PUSH1 0x40 MLOAD PUSH1 0x20 DUP2 DUP4 SUB SUB DUP2 MSTORE SWAP1 PUSH1 0x40 MSTORE SWAP1 POP DUP1 MLOAD PUSH1 0x20 DUP3 ADD PUSH0 CREATE SWAP2 POP PUSH1 0x1 PUSH1 0x1 PUSH1 0xA0 SHL SUB DUP3 AND PUSH2 0x9B0 JUMPI PUSH1 0x40 MLOAD PUSH3 0x461BCD PUSH1 0xE5 SHL DUP2 MSTORE PUSH1 0x20 PUSH1 0x4 DUP3 ADD MSTORE PUSH1 0x11 PUSH1 0x24 DUP3 ADD MSTORE PUSH17 0x11195C1B1BDE5B595B9D0819985A5B1959 PUSH1 0x7A SHL PUSH1 0x44 DUP3 ADD MSTORE PUSH1 0x64 ADD PUSH2 0x5F3 JUMP JUMPDEST POP SWAP2 SWAP1 POP JUMP JUMPDEST PUSH0 PUSH1 0x20 DUP3 DUP5 SUB SLT ISZERO PUSH2 0x9C6 JUMPI PUSH0 PUSH0 REVERT JUMPDEST POP CALLDATALOAD SWAP2 SWAP1 POP JUMP JUMPDEST PUSH1 0x1 PUSH1 0x1 PUSH1 0xA0 SHL SUB SWAP2 SWAP1 SWAP2 AND DUP2 MSTORE PUSH1 0x20 ADD SWAP1 JUMP JUMPDEST DUP1 CALLDATALOAD PUSH1 0x1 PUSH1 0x1 PUSH1 0xA0 SHL SUB DUP2 AND DUP2 EQ PUSH2 0x9F7 JUMPI PUSH0 PUSH0 REVERT JUMPDEST SWAP2 SWAP1 POP JUMP JUMPDEST PUSH0 PUSH1 0x20 DUP3 DUP5 SUB SLT ISZERO PUSH2 0xA0C JUMPI PUSH0 PUSH0 REVERT JUMPDEST PUSH2 0xA15 DUP3 PUSH2 0x9E1 JUMP JUMPDEST SWAP4 SWAP3 POP POP POP JUMP JUMPDEST PUSH0 PUSH0 DUP4 PUSH1 0x1F DUP5 ADD SLT PUSH2 0xA2C JUMPI PUSH0 PUSH0 REVERT JUMPDEST POP DUP2 CALLDATALOAD PUSH1 0x1 PUSH1 0x1 PUSH1 0x40 SHL SUB DUP2 GT ISZERO PUSH2 0xA42 JUMPI PUSH0 PUSH0 REVERT JUMPDEST PUSH1 0x20 DUP4 ADD SWAP2 POP DUP4 PUSH1 0x20 DUP3 DUP6 ADD ADD GT ISZERO PUSH2 0xA59 JUMPI PUSH0 PUSH0 REVERT JUMPDEST SWAP3 POP SWAP3 SWAP1 POP JUMP JUMPDEST PUSH0 PUSH0 PUSH0 PUSH1 0x40 DUP5 DUP7 SUB SLT ISZERO PUSH2 0xA72 JUMPI PUSH0 PUSH0 REVERT JUMPDEST DUP4 CALLDATALOAD PUSH1 0x1 PUSH1 0x1 PUSH1 0x40 SHL SUB DUP2 GT ISZERO PUSH2 0xA87 JUMPI PUSH0 PUSH0 REVERT JUMPDEST PUSH2 0xA93 DUP7 DUP3 DUP8 ADD PUSH2 0xA1C JUMP JUMPDEST SWAP1 SWAP5 POP SWAP3 POP PUSH2 0xAA6 SWAP1 POP PUSH1 0x20 DUP6 ADD PUSH2 0x9E1 JUMP JUMPDEST SWAP1 POP SWAP3 POP SWAP3 POP SWAP3 JUMP JUMPDEST PUSH4 0x4E487B71 PUSH1 0xE0 SHL PUSH0 MSTORE PUSH1 0x41 PUSH1 0x4 MSTORE PUSH1 0x24 PUSH0 REVERT JUMPDEST PUSH0 PUSH0 PUSH1 0x40 DUP4 DUP6 SUB SLT ISZERO PUSH2 0xAD4 JUMPI PUSH0 PUSH0 REVERT JUMPDEST PUSH2 0xADD DUP4 PUSH2 0x9E1 JUMP JUMPDEST SWAP2 POP PUSH1 0x20 DUP4 ADD CALLDATALOAD PUSH1 0x1 PUSH1 0x1 PUSH1 0x40 SHL SUB DUP2 GT ISZERO PUSH2 0xAF7 JUMPI PUSH0 PUSH0 REVERT JUMPDEST DUP4 ADD PUSH1 0x1F DUP2 ADD DUP6 SGT PUSH2 0xB07 JUMPI PUSH0 PUSH0 REVERT JUMPDEST DUP1 CALLDATALOAD PUSH1 0x1 PUSH1 0x1 PUSH1 0x40 SHL SUB DUP2 GT ISZERO PUSH2 0xB20 JUMPI PUSH2 0xB20 PUSH2 0xAAF JUMP JUMPDEST PUSH1 0x40 MLOAD PUSH1 0x1F DUP3 ADD PUSH1 0x1F NOT SWAP1 DUP2 AND PUSH1 0x3F ADD AND DUP2 ADD PUSH1 0x1 PUSH1 0x1 PUSH1 0x40 SHL SUB DUP2 GT DUP3 DUP3 LT OR ISZERO PUSH2 0xB4E JUMPI PUSH2 0xB4E PUSH2 0xAAF JUMP JUMPDEST PUSH1 0x40 MSTORE DUP2 DUP2 MSTORE DUP3 DUP3 ADD PUSH1 0x20 ADD DUP8 LT ISZERO PUSH2 0xB65 JUMPI PUSH0 PUSH0 REVERT JUMPDEST DUP2 PUSH1 0x20 DUP5 ADD PUSH1 0x20 DUP4 ADD CALLDATACOPY PUSH0 PUSH1 0x20 DUP4 DUP4 ADD ADD MSTORE DUP1 SWAP4 POP POP POP POP SWAP3 POP SWAP3 SWAP1 POP JUMP JUMPDEST PUSH0 PUSH0 PUSH1 0x20 DUP4 DUP6 SUB SLT ISZERO PUSH2 0xB95 JUMPI PUSH0 PUSH0 REVERT JUMPDEST DUP3 CALLDATALOAD PUSH1 0x1 PUSH1 0x1 PUSH1 0x40 SHL SUB DUP2 GT ISZERO PUSH2 0xBAA JUMPI PUSH0 PUSH0 REVERT JUMPDEST PUSH2 0xBB6 DUP6 DUP3 DUP7 ADD PUSH2 0xA1C JUMP JUMPDEST SWAP1 SWAP7 SWAP1 SWAP6 POP SWAP4 POP POP POP POP JUMP JUMPDEST PUSH0 PUSH0 PUSH0 PUSH1 0x40 DUP5 DUP7 SUB SLT ISZERO PUSH2 0xBD4 JUMPI PUSH0 PUSH0 REVERT JUMPDEST PUSH2 0xBDD DUP5 PUSH2 0x9E1 JUMP JUMPDEST SWAP3 POP PUSH1 0x20 DUP5 ADD CALLDATALOAD PUSH1 0x1 PUSH1 0x1 PUSH1 0x40 SHL SUB DUP2 GT ISZERO PUSH2 0xBF7 JUMPI PUSH0 PUSH0 REVERT JUMPDEST PUSH2 0xC03 DUP7 DUP3 DUP8 ADD PUSH2 0xA1C JUMP JUMPDEST SWAP5 SWAP8 SWAP1 SWAP7 POP SWAP4 SWAP5 POP POP POP POP JUMP JUMPDEST DUP2 DUP4 DUP3 CALLDATACOPY PUSH0 SWAP2 ADD SWAP1 DUP2 MSTORE SWAP2 SWAP1 POP JUMP JUMPDEST PUSH1 0x1 PUSH1 0x1 PUSH1 0xA0 SHL SUB SWAP3 DUP4 AND DUP2 MSTORE SWAP2 AND PUSH1 0x20 DUP3 ADD MSTORE PUSH1 0x40 ADD SWAP1 JUMP JUMPDEST PUSH17 0x2932B9BA30BAB930B73A26B0B730B3B2B9 PUSH1 0x79 SHL DUP2 MSTORE PUSH1 0x11 ADD SWAP1 JUMP INVALID LOG2 PUSH5 0x6970667358 0x22 SLT KECCAK256 SWAP8 SWAP9 0xAC 0xE9 0xF6 SWAP1 DELEGATECALL 0xC EXTCALL 0xD8 SHL 0x1E 0xA9 SWAP16 0xD7 PUSH6 0x6984D2D207F6 BYTE RJUMP 0x5BB7 0xA5 KECCAK256 AND LOG0 0xC9 0xD0 PUSH5 0x736F6C6343 STOP ADDMOD 0x1E STOP CALLER "
				},
				"gasEstimates": {
					"creation": {
						"codeDepositCost": "642400",
						"executionCost": "24908",
						"totalCost": "667308"
					},
					"external": {
						"admin()": "2491",
						"deployManager(string)": "infinite",
						"getManager(address,string)": "infinite",
						"implementations(bytes32)": "2476",
						"isFoodApp(address)": "2638",
						"managers(address,string)": "infinite",
						"registerFoodApp(address)": "30138",
						"setImplementation(string,address)": "infinite"
					}
				},
				"methodIdentifiers": {
					"admin()": "f851a440",
					"deployManager(string)": "a8511f5a",
					"getManager(address,string)": "dee893c2",
					"implementations(bytes32)": "02cfeaca",
					"isFoodApp(address)": "e03317e2",
					"managers(address,string)": "698fb38c",
					"registerFoodApp(address)": "0471219c",
					"setImplementation(string,address)": "06419fe5"
				}
			},
			"storageLayout": {
				"storage": [
					{
						"astId": 36,
						"contract": "contracts/FoodAppFactory.sol:FoodAppFactory",
						"label": "admin",
						"offset": 0,
						"slot": "0",
						"type": "t_address"
					},
					{
						"astId": 40,
						"contract": "contracts/FoodAppFactory.sol:FoodAppFactory",
						"label": "implementations",
						"offset": 0,
						"slot": "1",
						"type": "t_mapping(t_bytes32,t_address)"
					},
					{
						"astId": 46,
						"contract": "contracts/FoodAppFactory.sol:FoodAppFactory",
						"label": "managers",
						"offset": 0,
						"slot": "2",
						"type": "t_mapping(t_address,t_mapping(t_string_memory_ptr,t_address))"
					},
					{
						"astId": 50,
						"contract": "contracts/FoodAppFactory.sol:FoodAppFactory",
						"label": "isFoodApp",
						"offset": 0,
						"slot": "3",
						"type": "t_mapping(t_address,t_bool)"
					}
				],
				"types": {
					"t_address": {
						"encoding": "inplace",
						"label": "address",
						"numberOfBytes": "20"
					},
					"t_bool": {
						"encoding": "inplace",
						"label": "bool",
						"numberOfBytes": "1"
					},
					"t_bytes32": {
						"encoding": "inplace",
						"label": "bytes32",
						"numberOfBytes": "32"
					},
					"t_mapping(t_address,t_bool)": {
						"encoding": "mapping",
						"key": "t_address",
						"label": "mapping(address => bool)",
						"numberOfBytes": "32",
						"value": "t_bool"
					},
					"t_mapping(t_address,t_mapping(t_string_memory_ptr,t_address))": {
						"encoding": "mapping",
						"key": "t_address",
						"label": "mapping(address => mapping(string => address))",
						"numberOfBytes": "32",
						"value": "t_mapping(t_string_memory_ptr,t_address)"
					},
					"t_mapping(t_bytes32,t_address)": {
						"encoding": "mapping",
						"key": "t_bytes32",
						"label": "mapping(bytes32 => address)",
						"numberOfBytes": "32",
						"value": "t_address"
					},
					"t_mapping(t_string_memory_ptr,t_address)": {
						"encoding": "mapping",
						"key": "t_string_memory_ptr",
						"label": "mapping(string => address)",
						"numberOfBytes": "32",
						"value": "t_address"
					},
					"t_string_memory_ptr": {
						"encoding": "bytes",
						"label": "string",
						"numberOfBytes": "32"
					}
				}
			},
			"userdoc": {
				"kind": "user",
				"methods": {},
				"version": 1
			}
		}
	}
}