{
	"contracts/UserProfileManager.sol": {
		"UserProfileManager": {
			"abi": [
				{
					"inputs": [],
					"name": "InvalidInitialization",
					"type": "error"
				},
				{
					"inputs": [],
					"name": "NotInitializing",
					"type": "error"
				},
				{
					"inputs": [
						{
							"internalType": "address",
							"name": "owner",
							"type": "address"
						}
					],
					"name": "OwnableInvalidOwner",
					"type": "error"
				},
				{
					"inputs": [
						{
							"internalType": "address",
							"name": "account",
							"type": "address"
						}
					],
					"name": "OwnableUnauthorizedAccount",
					"type": "error"
				},
				{
					"inputs": [],
					"name": "UserProfileManager__AlreadyInitialized",
					"type": "error"
				},
				{
					"inputs": [],
					"name": "UserProfileManager__EmptyName",
					"type": "error"
				},
				{
					"inputs": [],
					"name": "UserProfileManager__InvalidAddress",
					"type": "error"
				},
				{
					"inputs": [],
					"name": "UserProfileManager__NotInitializing",
					"type": "error"
				},
				{
					"inputs": [],
					"name": "UserProfileManager__ProfileNotFound",
					"type": "error"
				},
				{
					"inputs": [],
					"name": "UserProfileManager__UnauthorizedCaller",
					"type": "error"
				},
				{
					"anonymous": false,
					"inputs": [
						{
							"indexed": false,
							"internalType": "uint64",
							"name": "version",
							"type": "uint64"
						}
					],
					"name": "Initialized",
					"type": "event"
				},
				{
					"anonymous": false,
					"inputs": [
						{
							"indexed": true,
							"internalType": "address",
							"name": "previousOwner",
							"type": "address"
						},
						{
							"indexed": true,
							"internalType": "address",
							"name": "newOwner",
							"type": "address"
						}
					],
					"name": "OwnershipTransferred",
					"type": "event"
				},
				{
					"anonymous": false,
					"inputs": [
						{
							"indexed": true,
							"internalType": "address",
							"name": "user",
							"type": "address"
						},
						{
							"indexed": false,
							"internalType": "bool",
							"name": "isActive",
							"type": "bool"
						}
					],
					"name": "UserProfileActivityChanged",
					"type": "event"
				},
				{
					"anonymous": false,
					"inputs": [
						{
							"indexed": true,
							"internalType": "address",
							"name": "user",
							"type": "address"
						},
						{
							"indexed": false,
							"internalType": "string",
							"name": "name",
							"type": "string"
						},
						{
							"indexed": false,
							"internalType": "uint128",
							"name": "registrationDate",
							"type": "uint128"
						}
					],
					"name": "UserProfileCreated",
					"type": "event"
				},
				{
					"anonymous": false,
					"inputs": [
						{
							"indexed": true,
							"internalType": "address",
							"name": "user",
							"type": "address"
						},
						{
							"indexed": false,
							"internalType": "string",
							"name": "name",
							"type": "string"
						}
					],
					"name": "UserProfileUpdated",
					"type": "event"
				},
				{
					"inputs": [
						{
							"internalType": "address",
							"name": "user",
							"type": "address"
						}
					],
					"name": "activateUserProfile",
					"outputs": [],
					"stateMutability": "nonpayable",
					"type": "function"
				},
				{
					"inputs": [
						{
							"internalType": "address",
							"name": "user",
							"type": "address"
						},
						{
							"internalType": "string",
							"name": "name",
							"type": "string"
						},
						{
							"internalType": "string",
							"name": "phoneNumber",
							"type": "string"
						},
						{
							"internalType": "string",
							"name": "email",
							"type": "string"
						},
						{
							"internalType": "string",
							"name": "imageUrl",
							"type": "string"
						}
					],
					"name": "createOrUpdateUserProfile",
					"outputs": [],
					"stateMutability": "nonpayable",
					"type": "function"
				},
				{
					"inputs": [
						{
							"internalType": "address",
							"name": "user",
							"type": "address"
						}
					],
					"name": "deactivateUserProfile",
					"outputs": [],
					"stateMutability": "nonpayable",
					"type": "function"
				},
				{
					"inputs": [],
					"name": "foodAppContractAddress",
					"outputs": [
						{
							"internalType": "address",
							"name": "",
							"type": "address"
						}
					],
					"stateMutability": "view",
					"type": "function"
				},
				{
					"inputs": [
						{
							"internalType": "address",
							"name": "user",
							"type": "address"
						}
					],
					"name": "getUserProfile",
					"outputs": [
						{
							"components": [
								{
									"internalType": "address",
									"name": "userAddress",
									"type": "address"
								},
								{
									"internalType": "string",
									"name": "name",
									"type": "string"
								},
								{
									"internalType": "string",
									"name": "phoneNumber",
									"type": "string"
								},
								{
									"internalType": "string",
									"name": "email",
									"type": "string"
								},
								{
									"internalType": "string",
									"name": "imageUrl",
									"type": "string"
								},
								{
									"internalType": "bool",
									"name": "isActive",
									"type": "bool"
								},
								{
									"internalType": "uint128",
									"name": "registrationDate",
									"type": "uint128"
								}
							],
							"internalType": "struct UserProfile",
							"name": "profile",
							"type": "tuple"
						}
					],
					"stateMutability": "view",
					"type": "function"
				},
				{
					"inputs": [
						{
							"internalType": "address",
							"name": "_foodAppContract",
							"type": "address"
						},
						{
							"internalType": "address",
							"name": "_initialOwner",
							"type": "address"
						}
					],
					"name": "initialize",
					"outputs": [],
					"stateMutability": "nonpayable",
					"type": "function"
				},
				{
					"inputs": [],
					"name": "owner",
					"outputs": [
						{
							"internalType": "address",
							"name": "",
							"type": "address"
						}
					],
					"stateMutability": "view",
					"type": "function"
				},
				{
					"inputs": [],
					"name": "renounceOwnership",
					"outputs": [],
					"stateMutability": "nonpayable",
					"type": "function"
				},
				{
					"inputs": [
						{
							"internalType": "address",
							"name": "newOwner",
							"type": "address"
						}
					],
					"name": "transferOwnership",
					"outputs": [],
					"stateMutability": "nonpayable",
					"type": "function"
				},
				{
					"inputs": [
						{
							"internalType": "address",
							"name": "user",
							"type": "address"
						}
					],
					"name": "userProfileExists",
					"outputs": [
						{
							"internalType": "bool",
							"name": "",
							"type": "bool"
						}
					],
					"stateMutability": "view",
					"type": "function"
				}
			],
			"devdoc": {
				"errors": {
					"InvalidInitialization()": [
						{
							"details": "The contract is already initialized."
						}
					],
					"NotInitializing()": [
						{
							"details": "The contract is not initializing."
						}
					],
					"OwnableInvalidOwner(address)": [
						{
							"details": "The owner is not a valid owner account. (eg. `address(0)`)"
						}
					],
					"OwnableUnauthorizedAccount(address)": [
						{
							"details": "The caller account is not authorized to perform an operation."
						}
					]
				},
				"events": {
					"Initialized(uint64)": {
						"details": "Triggered when the contract has been initialized or reinitialized."
					}
				},
				"kind": "dev",
				"methods": {
					"owner()": {
						"details": "Returns the address of the current owner."
					},
					"renounceOwnership()": {
						"details": "Leaves the contract without owner. It will not be possible to call `onlyOwner` functions. Can only be called by the current owner. NOTE: Renouncing ownership will leave the contract without an owner, thereby disabling any functionality that is only available to the owner."
					},
					"transferOwnership(address)": {
						"details": "Transfers ownership of the contract to a new account (`newOwner`). Can only be called by the current owner."
					}
				},
				"version": 1
			},
			"evm": {
				"assembly": "    /* \"contracts/UserProfileManager.sol\":305:4231  contract UserProfileManager is Initializable, OwnableUpgradeable, IUserProfileManager {... */\n  mstore(0x40, 0x80)\n  callvalue\n  dup1\n  iszero\n  tag_1\n  jumpi\n  revert(0x00, 0x00)\ntag_1:\n  pop\n  dataSize(sub_0)\n  dup1\n  dataOffset(sub_0)\n  0x00\n  codecopy\n  0x00\n  return\nstop\n\nsub_0: assembly {\n        /* \"contracts/UserProfileManager.sol\":305:4231  contract UserProfileManager is Initializable, OwnableUpgradeable, IUserProfileManager {... */\n      mstore(0x40, 0x80)\n      callvalue\n      dup1\n      iszero\n      tag_1\n      jumpi\n      revert(0x00, 0x00)\n    tag_1:\n      pop\n      jumpi(tag_2, lt(calldatasize, 0x04))\n      shr(0xe0, calldataload(0x00))\n      dup1\n      0x715018a6\n      gt\n      tag_13\n      jumpi\n      dup1\n      0x715018a6\n      eq\n      tag_8\n      jumpi\n      dup1\n      0x832dbdd9\n      eq\n      tag_9\n      jumpi\n      dup1\n      0x8da5cb5b\n      eq\n      tag_10\n      jumpi\n      dup1\n      0x987ee156\n      eq\n      tag_11\n      jumpi\n      dup1\n      0xf2fde38b\n      eq\n      tag_12\n      jumpi\n      revert(0x00, 0x00)\n    tag_13:\n      dup1\n      0x0d07e910\n      eq\n      tag_3\n      jumpi\n      dup1\n      0x11adcf32\n      eq\n      tag_4\n      jumpi\n      dup1\n      0x241481d3\n      eq\n      tag_5\n      jumpi\n      dup1\n      0x485cc955\n      eq\n      tag_6\n      jumpi\n      dup1\n      0x5215608b\n      eq\n      tag_7\n      jumpi\n    tag_2:\n      revert(0x00, 0x00)\n        /* \"contracts/UserProfileManager.sol\":3080:3501  function activateUserProfile(address user) external override onlyFoodAppOrOwner {... */\n    tag_3:\n      tag_14\n      tag_15\n      calldatasize\n      0x04\n      tag_16\n      jump\t// in\n    tag_15:\n      tag_17\n      jump\t// in\n    tag_14:\n      stop\n        /* \"contracts/UserProfileManager.sol\":1633:2631  function createOrUpdateUserProfile(... */\n    tag_4:\n      tag_14\n      tag_19\n      calldatasize\n      0x04\n      tag_20\n      jump\t// in\n    tag_19:\n      tag_21\n      jump\t// in\n        /* \"contracts/UserProfileManager.sol\":3509:3933  function deactivateUserProfile(address user) external override onlyFoodAppOrOwner {... */\n    tag_5:\n      tag_14\n      tag_23\n      calldatasize\n      0x04\n      tag_16\n      jump\t// in\n    tag_23:\n      tag_24\n      jump\t// in\n        /* \"contracts/UserProfileManager.sol\":1222:1572  function initialize(address _foodAppContract, address _initialOwner) public override initializer ... */\n    tag_6:\n      tag_14\n      tag_26\n      calldatasize\n      0x04\n      tag_27\n      jump\t// in\n    tag_26:\n      tag_28\n      jump\t// in\n        /* \"contracts/UserProfileManager.sol\":2922:3072  function userProfileExists(address user) external view override returns (bool) {... */\n    tag_7:\n      tag_29\n      tag_30\n      calldatasize\n      0x04\n      tag_16\n      jump\t// in\n    tag_30:\n      sub(shl(0xa0, 0x01), 0x01)\n        /* \"contracts/UserProfileManager.sol\":3019:3038  _userProfiles[user] */\n      swap1\n      dup2\n      and\n        /* \"contracts/UserProfileManager.sol\":2995:2999  bool */\n      0x00\n        /* \"contracts/UserProfileManager.sol\":3019:3038  _userProfiles[user] */\n      swap1\n      dup2\n      mstore\n      0x20\n      dup2\n      swap1\n      mstore\n      0x40\n      swap1\n      keccak256\n        /* \"contracts/UserProfileManager.sol\":3019:3050  _userProfiles[user].userAddress */\n      sload\n      and\n        /* \"contracts/UserProfileManager.sol\":3019:3064  _userProfiles[user].userAddress != address(0) */\n      iszero\n      iszero\n      swap1\n        /* \"contracts/UserProfileManager.sol\":2922:3072  function userProfileExists(address user) external view override returns (bool) {... */\n      jump\n    tag_29:\n      mload(0x40)\n        /* \"#utility.yul\":2669:2683   */\n      swap1\n      iszero\n        /* \"#utility.yul\":2662:2684   */\n      iszero\n        /* \"#utility.yul\":2644:2685   */\n      dup2\n      mstore\n        /* \"#utility.yul\":2632:2634   */\n      0x20\n        /* \"#utility.yul\":2617:2635   */\n      add\n        /* \"contracts/UserProfileManager.sol\":2922:3072  function userProfileExists(address user) external view override returns (bool) {... */\n    tag_32:\n      mload(0x40)\n      dup1\n      swap2\n      sub\n      swap1\n      return\n        /* \"@openzeppelin/contracts-upgradeable/access/OwnableUpgradeable.sol\":3155:3256  function renounceOwnership() public virtual onlyOwner {... */\n    tag_8:\n      tag_14\n      tag_35\n      jump\t// in\n        /* \"contracts/UserProfileManager.sol\":458:495  address public foodAppContractAddress */\n    tag_9:\n      sload(0x01)\n      tag_36\n      swap1\n      sub(shl(0xa0, 0x01), 0x01)\n      and\n      dup2\n      jump\n    tag_36:\n      mload(0x40)\n      sub(shl(0xa0, 0x01), 0x01)\n        /* \"#utility.yul\":2860:2892   */\n      swap1\n      swap2\n      and\n        /* \"#utility.yul\":2842:2893   */\n      dup2\n      mstore\n        /* \"#utility.yul\":2830:2832   */\n      0x20\n        /* \"#utility.yul\":2815:2833   */\n      add\n        /* \"contracts/UserProfileManager.sol\":458:495  address public foodAppContractAddress */\n      tag_32\n        /* \"#utility.yul\":2696:2899   */\n      jump\n        /* \"@openzeppelin/contracts-upgradeable/access/OwnableUpgradeable.sol\":2441:2585  function owner() public view virtual returns (address) {... */\n    tag_10:\n      tag_36\n      tag_41\n      jump\t// in\n        /* \"contracts/UserProfileManager.sol\":2639:2914  function getUserProfile(address user) external view override returns (UserProfile memory profile) {... */\n    tag_11:\n      tag_43\n      tag_44\n      calldatasize\n      0x04\n      tag_16\n      jump\t// in\n    tag_44:\n      tag_45\n      jump\t// in\n    tag_43:\n      mload(0x40)\n      tag_32\n      swap2\n      swap1\n      tag_47\n      jump\t// in\n        /* \"@openzeppelin/contracts-upgradeable/access/OwnableUpgradeable.sol\":3405:3620  function transferOwnership(address newOwner) public virtual onlyOwner {... */\n    tag_12:\n      tag_14\n      tag_49\n      calldatasize\n      0x04\n      tag_16\n      jump\t// in\n    tag_49:\n      tag_50\n      jump\t// in\n        /* \"contracts/UserProfileManager.sol\":3080:3501  function activateUserProfile(address user) external override onlyFoodAppOrOwner {... */\n    tag_17:\n        /* \"contracts/UserProfileManager.sol\":1072:1094  foodAppContractAddress */\n      and(sub(shl(0xa0, 0x01), 0x01), sload(0x01))\n        /* \"contracts/UserProfileManager.sol\":1058:1068  msg.sender */\n      caller\n        /* \"contracts/UserProfileManager.sol\":1058:1094  msg.sender != foodAppContractAddress */\n      eq\n      dup1\n      iszero\n      swap1\n        /* \"contracts/UserProfileManager.sol\":1058:1119  msg.sender != foodAppContractAddress && msg.sender != owner() */\n      tag_52\n      jumpi\n      pop\n        /* \"contracts/UserProfileManager.sol\":1112:1119  owner() */\n      tag_53\n        /* \"contracts/UserProfileManager.sol\":1112:1117  owner */\n      tag_41\n        /* \"contracts/UserProfileManager.sol\":1112:1119  owner() */\n      jump\t// in\n    tag_53:\n      sub(shl(0xa0, 0x01), 0x01)\n        /* \"contracts/UserProfileManager.sol\":1098:1119  msg.sender != owner() */\n      and\n        /* \"contracts/UserProfileManager.sol\":1098:1108  msg.sender */\n      caller\n      sub(shl(0xa0, 0x01), 0x01)\n        /* \"contracts/UserProfileManager.sol\":1098:1119  msg.sender != owner() */\n      and\n      eq\n      iszero\n        /* \"contracts/UserProfileManager.sol\":1058:1119  msg.sender != foodAppContractAddress && msg.sender != owner() */\n    tag_52:\n        /* \"contracts/UserProfileManager.sol\":1054:1195  if (msg.sender != foodAppContractAddress && msg.sender != owner()) {... */\n      iszero\n      tag_54\n      jumpi\n        /* \"contracts/UserProfileManager.sol\":1143:1183  UserProfileManager__UnauthorizedCaller() */\n      mload(0x40)\n      shl(0xe0, 0xfaeea92d)\n      dup2\n      mstore\n      0x04\n      add\n      mload(0x40)\n      dup1\n      swap2\n      sub\n      swap1\n      revert\n        /* \"contracts/UserProfileManager.sol\":1054:1195  if (msg.sender != foodAppContractAddress && msg.sender != owner()) {... */\n    tag_54:\n      sub(shl(0xa0, 0x01), 0x01)\n        /* \"contracts/UserProfileManager.sol\":3175:3194  _userProfiles[user] */\n      dup2\n      dup2\n      and\n        /* \"contracts/UserProfileManager.sol\":3218:3219  0 */\n      0x00\n        /* \"contracts/UserProfileManager.sol\":3175:3194  _userProfiles[user] */\n      swap1\n      dup2\n      mstore\n      0x20\n      dup2\n      swap1\n      mstore\n      0x40\n      swap1\n      keccak256\n        /* \"contracts/UserProfileManager.sol\":3175:3206  _userProfiles[user].userAddress */\n      sload\n      and\n        /* \"contracts/UserProfileManager.sol\":3171:3293  if (_userProfiles[user].userAddress == address(0)) {... */\n      tag_56\n      jumpi\n        /* \"contracts/UserProfileManager.sol\":3244:3281  UserProfileManager__ProfileNotFound() */\n      mload(0x40)\n      shl(0xe0, 0x6530af23)\n      dup2\n      mstore\n      0x04\n      add\n      mload(0x40)\n      dup1\n      swap2\n      sub\n      swap1\n      revert\n        /* \"contracts/UserProfileManager.sol\":3171:3293  if (_userProfiles[user].userAddress == address(0)) {... */\n    tag_56:\n      sub(shl(0xa0, 0x01), 0x01)\n        /* \"contracts/UserProfileManager.sol\":3333:3352  _userProfiles[user] */\n      dup2\n      and\n        /* \"contracts/UserProfileManager.sol\":3303:3330  UserProfile storage profile */\n      0x00\n        /* \"contracts/UserProfileManager.sol\":3333:3352  _userProfiles[user] */\n      swap1\n      dup2\n      mstore\n      0x20\n      dup2\n      swap1\n      mstore\n      0x40\n      swap1\n      keccak256\n        /* \"contracts/UserProfileManager.sol\":3368:3384  profile.isActive */\n      0x05\n      dup2\n      add\n      sload\n      0xff\n      and\n        /* \"contracts/UserProfileManager.sol\":3363:3494  if (!profile.isActive) {... */\n      tag_57\n      jumpi\n        /* \"contracts/UserProfileManager.sol\":3401:3417  profile.isActive */\n      0x05\n      dup2\n      add\n        /* \"contracts/UserProfileManager.sol\":3401:3424  profile.isActive = true */\n      dup1\n      sload\n      not(0xff)\n      and\n        /* \"contracts/UserProfileManager.sol\":3420:3424  true */\n      0x01\n        /* \"contracts/UserProfileManager.sol\":3401:3424  profile.isActive = true */\n      swap1\n      dup2\n      or\n      swap1\n      swap2\n      sstore\n        /* \"contracts/UserProfileManager.sol\":3444:3482  UserProfileActivityChanged(user, true) */\n      mload(0x40)\n        /* \"#utility.yul\":2644:2685   */\n      swap1\n      dup2\n      mstore\n      sub(shl(0xa0, 0x01), 0x01)\n        /* \"contracts/UserProfileManager.sol\":3444:3482  UserProfileActivityChanged(user, true) */\n      dup4\n      and\n      swap1\n      0x27583a161eef08fb4bd59931b3e7993e8ea1902767c936bc2bd1d938c82b3f51\n      swap1\n        /* \"#utility.yul\":2632:2634   */\n      0x20\n        /* \"#utility.yul\":2617:2635   */\n      add\n        /* \"contracts/UserProfileManager.sol\":3444:3482  UserProfileActivityChanged(user, true) */\n    tag_58:\n      mload(0x40)\n      dup1\n      swap2\n      sub\n      swap1\n      log2\n        /* \"contracts/UserProfileManager.sol\":3363:3494  if (!profile.isActive) {... */\n    tag_57:\n        /* \"contracts/UserProfileManager.sol\":3160:3501  {... */\n      pop\n        /* \"contracts/UserProfileManager.sol\":3080:3501  function activateUserProfile(address user) external override onlyFoodAppOrOwner {... */\n      pop\n      jump\t// out\n        /* \"contracts/UserProfileManager.sol\":1633:2631  function createOrUpdateUserProfile(... */\n    tag_21:\n        /* \"contracts/UserProfileManager.sol\":888:910  foodAppContractAddress */\n      and(sub(shl(0xa0, 0x01), 0x01), sload(0x01))\n        /* \"contracts/UserProfileManager.sol\":874:884  msg.sender */\n      caller\n        /* \"contracts/UserProfileManager.sol\":874:910  msg.sender != foodAppContractAddress */\n      eq\n        /* \"contracts/UserProfileManager.sol\":870:986  if (msg.sender != foodAppContractAddress) {... */\n      tag_60\n      jumpi\n        /* \"contracts/UserProfileManager.sol\":934:974  UserProfileManager__UnauthorizedCaller() */\n      mload(0x40)\n      shl(0xe0, 0xfaeea92d)\n      dup2\n      mstore\n      0x04\n      add\n      mload(0x40)\n      dup1\n      swap2\n      sub\n      swap1\n      revert\n        /* \"contracts/UserProfileManager.sol\":870:986  if (msg.sender != foodAppContractAddress) {... */\n    tag_60:\n      sub(shl(0xa0, 0x01), 0x01)\n        /* \"contracts/UserProfileManager.sol\":1880:1898  user == address(0) */\n      dup10\n      and\n        /* \"contracts/UserProfileManager.sol\":1876:1943  if (user == address(0)) revert UserProfileManager__InvalidAddress() */\n      tag_62\n      jumpi\n        /* \"contracts/UserProfileManager.sol\":1907:1943  UserProfileManager__InvalidAddress() */\n      mload(0x40)\n      shl(0xe1, 0x237ef5ab)\n      dup2\n      mstore\n      0x04\n      add\n      mload(0x40)\n      dup1\n      swap2\n      sub\n      swap1\n      revert\n        /* \"contracts/UserProfileManager.sol\":1876:1943  if (user == address(0)) revert UserProfileManager__InvalidAddress() */\n    tag_62:\n        /* \"contracts/UserProfileManager.sol\":1980:1981  0 */\n      0x00\n        /* \"contracts/UserProfileManager.sol\":1958:1981  bytes(name).length == 0 */\n      dup8\n      swap1\n      sub\n        /* \"contracts/UserProfileManager.sol\":1954:2021  if (bytes(name).length == 0) revert UserProfileManager__EmptyName() */\n      tag_63\n      jumpi\n        /* \"contracts/UserProfileManager.sol\":1990:2021  UserProfileManager__EmptyName() */\n      mload(0x40)\n      shl(0xe3, 0x12352313)\n      dup2\n      mstore\n      0x04\n      add\n      mload(0x40)\n      dup1\n      swap2\n      sub\n      swap1\n      revert\n        /* \"contracts/UserProfileManager.sol\":1954:2021  if (bytes(name).length == 0) revert UserProfileManager__EmptyName() */\n    tag_63:\n      sub(shl(0xa0, 0x01), 0x01)\n        /* \"contracts/UserProfileManager.sol\":2064:2083  _userProfiles[user] */\n      dup1\n      dup11\n      and\n        /* \"contracts/UserProfileManager.sol\":2034:2061  UserProfile storage profile */\n      0x00\n        /* \"contracts/UserProfileManager.sol\":2064:2083  _userProfiles[user] */\n      dup2\n      dup2\n      mstore\n      0x20\n      dup2\n      swap1\n      mstore\n      0x40\n      swap1\n      keccak256\n        /* \"contracts/UserProfileManager.sol\":2115:2134  profile.userAddress */\n      dup1\n      sload\n      not(sub(shl(0xa0, 0x01), 0x01))\n        /* \"contracts/UserProfileManager.sol\":2162:2188  profile.userAddress = user */\n      dup2\n      and\n      swap1\n      swap3\n      or\n      dup2\n      sstore\n        /* \"contracts/UserProfileManager.sol\":2064:2083  _userProfiles[user] */\n      swap2\n        /* \"contracts/UserProfileManager.sol\":2115:2134  profile.userAddress */\n      and\n        /* \"contracts/UserProfileManager.sol\":2115:2148  profile.userAddress == address(0) */\n      iszero\n        /* \"contracts/UserProfileManager.sol\":2115:2134  profile.userAddress */\n      0x01\n        /* \"contracts/UserProfileManager.sol\":2199:2211  profile.name */\n      dup3\n      add\n        /* \"contracts/UserProfileManager.sol\":2199:2218  profile.name = name */\n      tag_64\n        /* \"contracts/UserProfileManager.sol\":2214:2218  name */\n      dup11\n      dup13\n        /* \"contracts/UserProfileManager.sol\":2199:2211  profile.name */\n      dup4\n        /* \"contracts/UserProfileManager.sol\":2199:2218  profile.name = name */\n      tag_65\n      jump\t// in\n    tag_64:\n      pop\n        /* \"contracts/UserProfileManager.sol\":2229:2248  profile.phoneNumber */\n      0x02\n      dup3\n      add\n        /* \"contracts/UserProfileManager.sol\":2229:2262  profile.phoneNumber = phoneNumber */\n      tag_66\n        /* \"contracts/UserProfileManager.sol\":2251:2262  phoneNumber */\n      dup9\n      dup11\n        /* \"contracts/UserProfileManager.sol\":2229:2248  profile.phoneNumber */\n      dup4\n        /* \"contracts/UserProfileManager.sol\":2229:2262  profile.phoneNumber = phoneNumber */\n      tag_65\n      jump\t// in\n    tag_66:\n      pop\n        /* \"contracts/UserProfileManager.sol\":2273:2286  profile.email */\n      0x03\n      dup3\n      add\n        /* \"contracts/UserProfileManager.sol\":2273:2294  profile.email = email */\n      tag_67\n        /* \"contracts/UserProfileManager.sol\":2289:2294  email */\n      dup7\n      dup9\n        /* \"contracts/UserProfileManager.sol\":2273:2286  profile.email */\n      dup4\n        /* \"contracts/UserProfileManager.sol\":2273:2294  profile.email = email */\n      tag_65\n      jump\t// in\n    tag_67:\n      pop\n        /* \"contracts/UserProfileManager.sol\":2305:2321  profile.imageUrl */\n      0x04\n      dup3\n      add\n        /* \"contracts/UserProfileManager.sol\":2305:2332  profile.imageUrl = imageUrl */\n      tag_68\n        /* \"contracts/UserProfileManager.sol\":2324:2332  imageUrl */\n      dup5\n      dup7\n        /* \"contracts/UserProfileManager.sol\":2305:2321  profile.imageUrl */\n      dup4\n        /* \"contracts/UserProfileManager.sol\":2305:2332  profile.imageUrl = imageUrl */\n      tag_65\n      jump\t// in\n    tag_68:\n      pop\n        /* \"contracts/UserProfileManager.sol\":2349:2361  isNewProfile */\n      dup1\n        /* \"contracts/UserProfileManager.sol\":2345:2624  if (isNewProfile) {... */\n      iszero\n      tag_69\n      jumpi\n        /* \"contracts/UserProfileManager.sol\":2397:2401  true */\n      0x01\n        /* \"contracts/UserProfileManager.sol\":2378:2385  profile */\n      dup3\n        /* \"contracts/UserProfileManager.sol\":2378:2394  profile.isActive */\n      0x05\n      add\n      0x00\n        /* \"contracts/UserProfileManager.sol\":2378:2401  profile.isActive = true */\n      0x0100\n      exp\n      dup2\n      sload\n      dup2\n      0xff\n      mul\n      not\n      and\n      swap1\n      dup4\n      iszero\n      iszero\n      mul\n      or\n      swap1\n      sstore\n      pop\n        /* \"contracts/UserProfileManager.sol\":2452:2467  block.timestamp */\n      timestamp\n        /* \"contracts/UserProfileManager.sol\":2417:2424  profile */\n      dup3\n        /* \"contracts/UserProfileManager.sol\":2417:2441  profile.registrationDate */\n      0x05\n      add\n      0x01\n        /* \"contracts/UserProfileManager.sol\":2417:2468  profile.registrationDate = uint128(block.timestamp) */\n      0x0100\n      exp\n      dup2\n      sload\n      dup2\n      sub(shl(0x80, 0x01), 0x01)\n      mul\n      not\n      and\n      swap1\n      dup4\n      sub(shl(0x80, 0x01), 0x01)\n      and\n      mul\n      or\n      swap1\n      sstore\n      pop\n        /* \"contracts/UserProfileManager.sol\":2507:2511  user */\n      dup11\n      sub(shl(0xa0, 0x01), 0x01)\n        /* \"contracts/UserProfileManager.sol\":2488:2544  UserProfileCreated(user, name, profile.registrationDate) */\n      and\n      0x606649d52f1c4a1bd149734a160b5e6cddae125f8c4c4966c91872e1f6b0389b\n        /* \"contracts/UserProfileManager.sol\":2513:2517  name */\n      dup12\n      dup12\n        /* \"contracts/UserProfileManager.sol\":2519:2526  profile */\n      dup6\n        /* \"contracts/UserProfileManager.sol\":2519:2543  profile.registrationDate */\n      0x05\n      add\n      0x01\n      swap1\n      sload\n      swap1\n      0x0100\n      exp\n      swap1\n      div\n      sub(shl(0x80, 0x01), 0x01)\n      and\n        /* \"contracts/UserProfileManager.sol\":2488:2544  UserProfileCreated(user, name, profile.registrationDate) */\n      mload(0x40)\n      tag_70\n      swap4\n      swap3\n      swap2\n      swap1\n      tag_71\n      jump\t// in\n    tag_70:\n      mload(0x40)\n      dup1\n      swap2\n      sub\n      swap1\n      log2\n        /* \"contracts/UserProfileManager.sol\":2345:2624  if (isNewProfile) {... */\n      jump(tag_72)\n    tag_69:\n        /* \"contracts/UserProfileManager.sol\":2601:2605  user */\n      dup11\n      sub(shl(0xa0, 0x01), 0x01)\n        /* \"contracts/UserProfileManager.sol\":2582:2612  UserProfileUpdated(user, name) */\n      and\n      0x9ab5b01c08788936fb2b48da858665afe9fa06d32e17dc49e0510c24ba05c983\n        /* \"contracts/UserProfileManager.sol\":2607:2611  name */\n      dup12\n      dup12\n        /* \"contracts/UserProfileManager.sol\":2582:2612  UserProfileUpdated(user, name) */\n      mload(0x40)\n      tag_73\n      swap3\n      swap2\n      swap1\n      tag_74\n      jump\t// in\n    tag_73:\n      mload(0x40)\n      dup1\n      swap2\n      sub\n      swap1\n      log2\n        /* \"contracts/UserProfileManager.sol\":2345:2624  if (isNewProfile) {... */\n    tag_72:\n        /* \"contracts/UserProfileManager.sol\":1864:2631  { ... */\n      pop\n      pop\n        /* \"contracts/UserProfileManager.sol\":1633:2631  function createOrUpdateUserProfile(... */\n      pop\n      pop\n      pop\n      pop\n      pop\n      pop\n      pop\n      pop\n      pop\n      jump\t// out\n        /* \"contracts/UserProfileManager.sol\":3509:3933  function deactivateUserProfile(address user) external override onlyFoodAppOrOwner {... */\n    tag_24:\n        /* \"contracts/UserProfileManager.sol\":1072:1094  foodAppContractAddress */\n      and(sub(shl(0xa0, 0x01), 0x01), sload(0x01))\n        /* \"contracts/UserProfileManager.sol\":1058:1068  msg.sender */\n      caller\n        /* \"contracts/UserProfileManager.sol\":1058:1094  msg.sender != foodAppContractAddress */\n      eq\n      dup1\n      iszero\n      swap1\n        /* \"contracts/UserProfileManager.sol\":1058:1119  msg.sender != foodAppContractAddress && msg.sender != owner() */\n      tag_76\n      jumpi\n      pop\n        /* \"contracts/UserProfileManager.sol\":1112:1119  owner() */\n      tag_77\n        /* \"contracts/UserProfileManager.sol\":1112:1117  owner */\n      tag_41\n        /* \"contracts/UserProfileManager.sol\":1112:1119  owner() */\n      jump\t// in\n    tag_77:\n      sub(shl(0xa0, 0x01), 0x01)\n        /* \"contracts/UserProfileManager.sol\":1098:1119  msg.sender != owner() */\n      and\n        /* \"contracts/UserProfileManager.sol\":1098:1108  msg.sender */\n      caller\n      sub(shl(0xa0, 0x01), 0x01)\n        /* \"contracts/UserProfileManager.sol\":1098:1119  msg.sender != owner() */\n      and\n      eq\n      iszero\n        /* \"contracts/UserProfileManager.sol\":1058:1119  msg.sender != foodAppContractAddress && msg.sender != owner() */\n    tag_76:\n        /* \"contracts/UserProfileManager.sol\":1054:1195  if (msg.sender != foodAppContractAddress && msg.sender != owner()) {... */\n      iszero\n      tag_78\n      jumpi\n        /* \"contracts/UserProfileManager.sol\":1143:1183  UserProfileManager__UnauthorizedCaller() */\n      mload(0x40)\n      shl(0xe0, 0xfaeea92d)\n      dup2\n      mstore\n      0x04\n      add\n      mload(0x40)\n      dup1\n      swap2\n      sub\n      swap1\n      revert\n        /* \"contracts/UserProfileManager.sol\":1054:1195  if (msg.sender != foodAppContractAddress && msg.sender != owner()) {... */\n    tag_78:\n      sub(shl(0xa0, 0x01), 0x01)\n        /* \"contracts/UserProfileManager.sol\":3606:3625  _userProfiles[user] */\n      dup2\n      dup2\n      and\n        /* \"contracts/UserProfileManager.sol\":3649:3650  0 */\n      0x00\n        /* \"contracts/UserProfileManager.sol\":3606:3625  _userProfiles[user] */\n      swap1\n      dup2\n      mstore\n      0x20\n      dup2\n      swap1\n      mstore\n      0x40\n      swap1\n      keccak256\n        /* \"contracts/UserProfileManager.sol\":3606:3637  _userProfiles[user].userAddress */\n      sload\n      and\n        /* \"contracts/UserProfileManager.sol\":3602:3724  if (_userProfiles[user].userAddress == address(0)) {... */\n      tag_80\n      jumpi\n        /* \"contracts/UserProfileManager.sol\":3675:3712  UserProfileManager__ProfileNotFound() */\n      mload(0x40)\n      shl(0xe0, 0x6530af23)\n      dup2\n      mstore\n      0x04\n      add\n      mload(0x40)\n      dup1\n      swap2\n      sub\n      swap1\n      revert\n        /* \"contracts/UserProfileManager.sol\":3602:3724  if (_userProfiles[user].userAddress == address(0)) {... */\n    tag_80:\n      sub(shl(0xa0, 0x01), 0x01)\n        /* \"contracts/UserProfileManager.sol\":3764:3783  _userProfiles[user] */\n      dup2\n      and\n        /* \"contracts/UserProfileManager.sol\":3734:3761  UserProfile storage profile */\n      0x00\n        /* \"contracts/UserProfileManager.sol\":3764:3783  _userProfiles[user] */\n      swap1\n      dup2\n      mstore\n      0x20\n      dup2\n      swap1\n      mstore\n      0x40\n      swap1\n      keccak256\n        /* \"contracts/UserProfileManager.sol\":3798:3814  profile.isActive */\n      0x05\n      dup2\n      add\n      sload\n      0xff\n      and\n        /* \"contracts/UserProfileManager.sol\":3794:3926  if (profile.isActive) {... */\n      iszero\n      tag_57\n      jumpi\n        /* \"contracts/UserProfileManager.sol\":3831:3847  profile.isActive */\n      0x05\n      dup2\n      add\n        /* \"contracts/UserProfileManager.sol\":3831:3855  profile.isActive = false */\n      dup1\n      sload\n      not(0xff)\n      and\n      swap1\n      sstore\n        /* \"contracts/UserProfileManager.sol\":3875:3914  UserProfileActivityChanged(user, false) */\n      mload(0x40)\n      0x00\n        /* \"#utility.yul\":2644:2685   */\n      dup2\n      mstore\n      sub(shl(0xa0, 0x01), 0x01)\n        /* \"contracts/UserProfileManager.sol\":3875:3914  UserProfileActivityChanged(user, false) */\n      dup4\n      and\n      swap1\n      0x27583a161eef08fb4bd59931b3e7993e8ea1902767c936bc2bd1d938c82b3f51\n      swap1\n        /* \"#utility.yul\":2632:2634   */\n      0x20\n        /* \"#utility.yul\":2617:2635   */\n      add\n        /* \"contracts/UserProfileManager.sol\":3875:3914  UserProfileActivityChanged(user, false) */\n      tag_58\n        /* \"#utility.yul\":2504:2691   */\n      jump\n        /* \"contracts/UserProfileManager.sol\":1222:1572  function initialize(address _foodAppContract, address _initialOwner) public override initializer ... */\n    tag_28:\n        /* \"@openzeppelin/contracts-upgradeable/proxy/utils/Initializable.sol\":3147:3213  0xf0c57e16840df040f15088dc2f81fe391c3923bec73e23a9662efc9c229c6a00 */\n      0xf0c57e16840df040f15088dc2f81fe391c3923bec73e23a9662efc9c229c6a00\n        /* \"@openzeppelin/contracts-upgradeable/proxy/utils/Initializable.sol\":4302:4317  $._initializing */\n      dup1\n      sload\n      shl(0x40, 0x01)\n      dup2\n      div\n      0xff\n      and\n        /* \"@openzeppelin/contracts-upgradeable/proxy/utils/Initializable.sol\":4301:4317  !$._initializing */\n      iszero\n      swap1\n        /* \"@openzeppelin/contracts-upgradeable/proxy/utils/Initializable.sol\":4348:4362  $._initialized */\n      0xffffffffffffffff\n      and\n        /* \"@openzeppelin/contracts-upgradeable/proxy/utils/Initializable.sol\":4158:4188  InitializableStorage storage $ */\n      0x00\n        /* \"@openzeppelin/contracts-upgradeable/proxy/utils/Initializable.sol\":4724:4740  initialized == 0 */\n      dup2\n      iszero\n        /* \"@openzeppelin/contracts-upgradeable/proxy/utils/Initializable.sol\":4724:4758  initialized == 0 && isTopLevelCall */\n      dup1\n      iszero\n      tag_86\n      jumpi\n      pop\n        /* \"@openzeppelin/contracts-upgradeable/proxy/utils/Initializable.sol\":4744:4758  isTopLevelCall */\n      dup3\n        /* \"@openzeppelin/contracts-upgradeable/proxy/utils/Initializable.sol\":4724:4758  initialized == 0 && isTopLevelCall */\n    tag_86:\n        /* \"@openzeppelin/contracts-upgradeable/proxy/utils/Initializable.sol\":4704:4758  bool initialSetup = initialized == 0 && isTopLevelCall */\n      swap1\n      pop\n        /* \"@openzeppelin/contracts-upgradeable/proxy/utils/Initializable.sol\":4768:4785  bool construction */\n      0x00\n        /* \"@openzeppelin/contracts-upgradeable/proxy/utils/Initializable.sol\":4788:4799  initialized */\n      dup3\n        /* \"@openzeppelin/contracts-upgradeable/proxy/utils/Initializable.sol\":4788:4804  initialized == 1 */\n      0xffffffffffffffff\n      and\n        /* \"@openzeppelin/contracts-upgradeable/proxy/utils/Initializable.sol\":4803:4804  1 */\n      0x01\n        /* \"@openzeppelin/contracts-upgradeable/proxy/utils/Initializable.sol\":4788:4804  initialized == 1 */\n      eq\n        /* \"@openzeppelin/contracts-upgradeable/proxy/utils/Initializable.sol\":4788:4838  initialized == 1 && address(this).code.length == 0 */\n      dup1\n      iszero\n      tag_87\n      jumpi\n      pop\n        /* \"@openzeppelin/contracts-upgradeable/proxy/utils/Initializable.sol\":4816:4820  this */\n      address\n        /* \"@openzeppelin/contracts-upgradeable/proxy/utils/Initializable.sol\":4808:4833  address(this).code.length */\n      extcodesize\n        /* \"@openzeppelin/contracts-upgradeable/proxy/utils/Initializable.sol\":4808:4838  address(this).code.length == 0 */\n      iszero\n        /* \"@openzeppelin/contracts-upgradeable/proxy/utils/Initializable.sol\":4788:4838  initialized == 1 && address(this).code.length == 0 */\n    tag_87:\n        /* \"@openzeppelin/contracts-upgradeable/proxy/utils/Initializable.sol\":4768:4838  bool construction = initialized == 1 && address(this).code.length == 0 */\n      swap1\n      pop\n        /* \"@openzeppelin/contracts-upgradeable/proxy/utils/Initializable.sol\":4854:4866  initialSetup */\n      dup2\n        /* \"@openzeppelin/contracts-upgradeable/proxy/utils/Initializable.sol\":4853:4866  !initialSetup */\n      iszero\n        /* \"@openzeppelin/contracts-upgradeable/proxy/utils/Initializable.sol\":4853:4883  !initialSetup && !construction */\n      dup1\n      iszero\n      tag_88\n      jumpi\n      pop\n        /* \"@openzeppelin/contracts-upgradeable/proxy/utils/Initializable.sol\":4871:4883  construction */\n      dup1\n        /* \"@openzeppelin/contracts-upgradeable/proxy/utils/Initializable.sol\":4870:4883  !construction */\n      iszero\n        /* \"@openzeppelin/contracts-upgradeable/proxy/utils/Initializable.sol\":4853:4883  !initialSetup && !construction */\n    tag_88:\n        /* \"@openzeppelin/contracts-upgradeable/proxy/utils/Initializable.sol\":4849:4940  if (!initialSetup && !construction) {... */\n      iszero\n      tag_89\n      jumpi\n        /* \"@openzeppelin/contracts-upgradeable/proxy/utils/Initializable.sol\":4906:4929  InvalidInitialization() */\n      mload(0x40)\n      shl(0xe0, 0xf92ee8a9)\n      dup2\n      mstore\n      0x04\n      add\n      mload(0x40)\n      dup1\n      swap2\n      sub\n      swap1\n      revert\n        /* \"@openzeppelin/contracts-upgradeable/proxy/utils/Initializable.sol\":4849:4940  if (!initialSetup && !construction) {... */\n    tag_89:\n        /* \"@openzeppelin/contracts-upgradeable/proxy/utils/Initializable.sol\":4949:4967  $._initialized = 1 */\n      dup5\n      sload\n      not(0xffffffffffffffff)\n      and\n        /* \"@openzeppelin/contracts-upgradeable/proxy/utils/Initializable.sol\":4966:4967  1 */\n      0x01\n        /* \"@openzeppelin/contracts-upgradeable/proxy/utils/Initializable.sol\":4949:4967  $._initialized = 1 */\n      or\n      dup6\n      sstore\n        /* \"@openzeppelin/contracts-upgradeable/proxy/utils/Initializable.sol\":4977:5044  if (isTopLevelCall) {... */\n      dup4\n      iszero\n      tag_90\n      jumpi\n        /* \"@openzeppelin/contracts-upgradeable/proxy/utils/Initializable.sol\":5011:5033  $._initializing = true */\n      dup5\n      sload\n      not(shl(0x40, 0xff))\n      and\n      shl(0x40, 0x01)\n      or\n      dup6\n      sstore\n        /* \"@openzeppelin/contracts-upgradeable/proxy/utils/Initializable.sol\":4977:5044  if (isTopLevelCall) {... */\n    tag_90:\n      sub(shl(0xa0, 0x01), 0x01)\n        /* \"contracts/UserProfileManager.sol\":1340:1370  _foodAppContract == address(0) */\n      dup8\n      and\n      iszero\n      dup1\n        /* \"contracts/UserProfileManager.sol\":1340:1401  _foodAppContract == address(0) || _initialOwner == address(0) */\n      tag_92\n      jumpi\n      pop\n      sub(shl(0xa0, 0x01), 0x01)\n        /* \"contracts/UserProfileManager.sol\":1374:1401  _initialOwner == address(0) */\n      dup7\n      and\n      iszero\n        /* \"contracts/UserProfileManager.sol\":1340:1401  _foodAppContract == address(0) || _initialOwner == address(0) */\n    tag_92:\n        /* \"contracts/UserProfileManager.sol\":1336:1473  if (_foodAppContract == address(0) || _initialOwner == address(0)) {... */\n      iszero\n      tag_93\n      jumpi\n        /* \"contracts/UserProfileManager.sol\":1425:1461  UserProfileManager__InvalidAddress() */\n      mload(0x40)\n      shl(0xe1, 0x237ef5ab)\n      dup2\n      mstore\n      0x04\n      add\n      mload(0x40)\n      dup1\n      swap2\n      sub\n      swap1\n      revert\n        /* \"contracts/UserProfileManager.sol\":1336:1473  if (_foodAppContract == address(0) || _initialOwner == address(0)) {... */\n    tag_93:\n        /* \"contracts/UserProfileManager.sol\":1483:1512  __Ownable_init(_initialOwner) */\n      tag_94\n        /* \"contracts/UserProfileManager.sol\":1498:1511  _initialOwner */\n      dup7\n        /* \"contracts/UserProfileManager.sol\":1483:1497  __Ownable_init */\n      tag_95\n        /* \"contracts/UserProfileManager.sol\":1483:1512  __Ownable_init(_initialOwner) */\n      jump\t// in\n    tag_94:\n        /* \"contracts/UserProfileManager.sol\":1523:1545  foodAppContractAddress */\n      0x01\n        /* \"contracts/UserProfileManager.sol\":1523:1564  foodAppContractAddress = _foodAppContract */\n      dup1\n      sload\n      not(sub(shl(0xa0, 0x01), 0x01))\n      and\n      sub(shl(0xa0, 0x01), 0x01)\n      dup10\n      and\n      or\n      swap1\n      sstore\n        /* \"@openzeppelin/contracts-upgradeable/proxy/utils/Initializable.sol\":5064:5165  if (isTopLevelCall) {... */\n      dup4\n      iszero\n      tag_96\n      jumpi\n        /* \"@openzeppelin/contracts-upgradeable/proxy/utils/Initializable.sol\":5098:5121  $._initializing = false */\n      dup5\n      sload\n      not(shl(0x40, 0xff))\n      and\n      dup6\n      sstore\n        /* \"@openzeppelin/contracts-upgradeable/proxy/utils/Initializable.sol\":5140:5154  Initialized(1) */\n      mload(0x40)\n      0x01\n        /* \"#utility.yul\":8177:8227   */\n      dup2\n      mstore\n        /* \"@openzeppelin/contracts-upgradeable/proxy/utils/Initializable.sol\":5140:5154  Initialized(1) */\n      0xc7f505b2f371ae2175ee4913f4499e1f2633a7b5936321eed1cdaeb6115181d2\n      swap1\n        /* \"#utility.yul\":8165:8167   */\n      0x20\n        /* \"#utility.yul\":8150:8168   */\n      add\n        /* \"@openzeppelin/contracts-upgradeable/proxy/utils/Initializable.sol\":5140:5154  Initialized(1) */\n      mload(0x40)\n      dup1\n      swap2\n      sub\n      swap1\n      log1\n        /* \"@openzeppelin/contracts-upgradeable/proxy/utils/Initializable.sol\":5064:5165  if (isTopLevelCall) {... */\n    tag_96:\n        /* \"@openzeppelin/contracts-upgradeable/proxy/utils/Initializable.sol\":4092:5171  {... */\n      pop\n      pop\n      pop\n      pop\n      pop\n        /* \"contracts/UserProfileManager.sol\":1222:1572  function initialize(address _foodAppContract, address _initialOwner) public override initializer ... */\n      pop\n      pop\n      jump\t// out\n        /* \"@openzeppelin/contracts-upgradeable/access/OwnableUpgradeable.sol\":3155:3256  function renounceOwnership() public virtual onlyOwner {... */\n    tag_35:\n        /* \"@openzeppelin/contracts-upgradeable/access/OwnableUpgradeable.sol\":2334:2347  _checkOwner() */\n      tag_101\n        /* \"@openzeppelin/contracts-upgradeable/access/OwnableUpgradeable.sol\":2334:2345  _checkOwner */\n      tag_102\n        /* \"@openzeppelin/contracts-upgradeable/access/OwnableUpgradeable.sol\":2334:2347  _checkOwner() */\n      jump\t// in\n    tag_101:\n        /* \"@openzeppelin/contracts-upgradeable/access/OwnableUpgradeable.sol\":3219:3249  _transferOwnership(address(0)) */\n      tag_104\n        /* \"@openzeppelin/contracts-upgradeable/access/OwnableUpgradeable.sol\":3246:3247  0 */\n      0x00\n        /* \"@openzeppelin/contracts-upgradeable/access/OwnableUpgradeable.sol\":3219:3237  _transferOwnership */\n      tag_105\n        /* \"@openzeppelin/contracts-upgradeable/access/OwnableUpgradeable.sol\":3219:3249  _transferOwnership(address(0)) */\n      jump\t// in\n    tag_104:\n        /* \"@openzeppelin/contracts-upgradeable/access/OwnableUpgradeable.sol\":3155:3256  function renounceOwnership() public virtual onlyOwner {... */\n      jump\t// out\n        /* \"@openzeppelin/contracts-upgradeable/access/OwnableUpgradeable.sol\":2441:2585  function owner() public view virtual returns (address) {... */\n    tag_41:\n        /* \"@openzeppelin/contracts-upgradeable/access/OwnableUpgradeable.sol\":1313:1335  OwnableStorageLocation */\n      0x9016d09d72d40fdae2fd8ceac6b6234c7706214fd39c1cd1e609a0528c199300\n        /* \"@openzeppelin/contracts-upgradeable/access/OwnableUpgradeable.sol\":2570:2578  $._owner */\n      sload\n      sub(shl(0xa0, 0x01), 0x01)\n      and\n      swap1\n        /* \"@openzeppelin/contracts-upgradeable/access/OwnableUpgradeable.sol\":2441:2585  function owner() public view virtual returns (address) {... */\n      jump\t// out\n        /* \"contracts/UserProfileManager.sol\":2639:2914  function getUserProfile(address user) external view override returns (UserProfile memory profile) {... */\n    tag_45:\n        /* \"contracts/UserProfileManager.sol\":2709:2735  UserProfile memory profile */\n      tag_109\n      mload(0x40)\n      dup1\n      0xe0\n      add\n      0x40\n      mstore\n      dup1\n      and(sub(shl(0xa0, 0x01), 0x01), 0x00)\n      dup2\n      mstore\n      0x20\n      add\n      0x60\n      dup2\n      mstore\n      0x20\n      add\n      0x60\n      dup2\n      mstore\n      0x20\n      add\n      0x60\n      dup2\n      mstore\n      0x20\n      add\n      0x60\n      dup2\n      mstore\n      0x20\n      add\n      iszero(iszero(0x00))\n      dup2\n      mstore\n      0x20\n      add\n      and(sub(shl(0x80, 0x01), 0x01), 0x00)\n      dup2\n      mstore\n      pop\n      swap1\n      jump\n    tag_109:\n      sub(shl(0xa0, 0x01), 0x01)\n        /* \"contracts/UserProfileManager.sol\":2752:2771  _userProfiles[user] */\n      dup3\n      dup2\n      and\n        /* \"contracts/UserProfileManager.sol\":2795:2796  0 */\n      0x00\n        /* \"contracts/UserProfileManager.sol\":2752:2771  _userProfiles[user] */\n      swap1\n      dup2\n      mstore\n      0x20\n      dup2\n      swap1\n      mstore\n      0x40\n      swap1\n      keccak256\n        /* \"contracts/UserProfileManager.sol\":2752:2783  _userProfiles[user].userAddress */\n      sload\n      and\n        /* \"contracts/UserProfileManager.sol\":2748:2870  if (_userProfiles[user].userAddress == address(0)) {... */\n      tag_112\n      jumpi\n        /* \"contracts/UserProfileManager.sol\":2821:2858  UserProfileManager__ProfileNotFound() */\n      mload(0x40)\n      shl(0xe0, 0x6530af23)\n      dup2\n      mstore\n      0x04\n      add\n      mload(0x40)\n      dup1\n      swap2\n      sub\n      swap1\n      revert\n        /* \"contracts/UserProfileManager.sol\":2748:2870  if (_userProfiles[user].userAddress == address(0)) {... */\n    tag_112:\n      sub(shl(0xa0, 0x01), 0x01)\n        /* \"contracts/UserProfileManager.sol\":2887:2906  _userProfiles[user] */\n      dup1\n      dup4\n      and\n        /* \"contracts/UserProfileManager.sol\":2887:2900  _userProfiles */\n      0x00\n        /* \"contracts/UserProfileManager.sol\":2887:2906  _userProfiles[user] */\n      swap1\n      dup2\n      mstore\n      0x20\n      dup2\n      dup2\n      mstore\n      0x40\n      swap2\n      dup3\n      swap1\n      keccak256\n        /* \"contracts/UserProfileManager.sol\":2880:2906  return _userProfiles[user] */\n      dup3\n      mload\n      0xe0\n      dup2\n      add\n      swap1\n      swap4\n      mstore\n      dup1\n      sload\n      swap1\n      swap4\n      and\n      dup3\n      mstore\n      0x01\n      dup4\n      add\n      dup1\n      sload\n      swap3\n      swap4\n        /* \"contracts/UserProfileManager.sol\":2887:2906  _userProfiles[user] */\n      swap3\n        /* \"contracts/UserProfileManager.sol\":2880:2906  return _userProfiles[user] */\n      swap2\n      dup5\n      add\n      swap2\n      tag_113\n      swap1\n      tag_114\n      jump\t// in\n    tag_113:\n      dup1\n      0x1f\n      add\n      0x20\n      dup1\n      swap2\n      div\n      mul\n      0x20\n      add\n      mload(0x40)\n      swap1\n      dup2\n      add\n      0x40\n      mstore\n      dup1\n      swap3\n      swap2\n      swap1\n      dup2\n      dup2\n      mstore\n      0x20\n      add\n      dup3\n      dup1\n      sload\n      tag_115\n      swap1\n      tag_114\n      jump\t// in\n    tag_115:\n      dup1\n      iszero\n      tag_116\n      jumpi\n      dup1\n      0x1f\n      lt\n      tag_117\n      jumpi\n      0x0100\n      dup1\n      dup4\n      sload\n      div\n      mul\n      dup4\n      mstore\n      swap2\n      0x20\n      add\n      swap2\n      jump(tag_116)\n    tag_117:\n      dup3\n      add\n      swap2\n      swap1\n      0x00\n      mstore\n      keccak256(0x00, 0x20)\n      swap1\n    tag_118:\n      dup2\n      sload\n      dup2\n      mstore\n      swap1\n      0x01\n      add\n      swap1\n      0x20\n      add\n      dup1\n      dup4\n      gt\n      tag_118\n      jumpi\n      dup3\n      swap1\n      sub\n      0x1f\n      and\n      dup3\n      add\n      swap2\n    tag_116:\n      pop\n      pop\n      pop\n      pop\n      pop\n      dup2\n      mstore\n      0x20\n      add\n      0x02\n      dup3\n      add\n      dup1\n      sload\n      tag_119\n      swap1\n      tag_114\n      jump\t// in\n    tag_119:\n      dup1\n      0x1f\n      add\n      0x20\n      dup1\n      swap2\n      div\n      mul\n      0x20\n      add\n      mload(0x40)\n      swap1\n      dup2\n      add\n      0x40\n      mstore\n      dup1\n      swap3\n      swap2\n      swap1\n      dup2\n      dup2\n      mstore\n      0x20\n      add\n      dup3\n      dup1\n      sload\n      tag_120\n      swap1\n      tag_114\n      jump\t// in\n    tag_120:\n      dup1\n      iszero\n      tag_121\n      jumpi\n      dup1\n      0x1f\n      lt\n      tag_122\n      jumpi\n      0x0100\n      dup1\n      dup4\n      sload\n      div\n      mul\n      dup4\n      mstore\n      swap2\n      0x20\n      add\n      swap2\n      jump(tag_121)\n    tag_122:\n      dup3\n      add\n      swap2\n      swap1\n      0x00\n      mstore\n      keccak256(0x00, 0x20)\n      swap1\n    tag_123:\n      dup2\n      sload\n      dup2\n      mstore\n      swap1\n      0x01\n      add\n      swap1\n      0x20\n      add\n      dup1\n      dup4\n      gt\n      tag_123\n      jumpi\n      dup3\n      swap1\n      sub\n      0x1f\n      and\n      dup3\n      add\n      swap2\n    tag_121:\n      pop\n      pop\n      pop\n      pop\n      pop\n      dup2\n      mstore\n      0x20\n      add\n      0x03\n      dup3\n      add\n      dup1\n      sload\n      tag_124\n      swap1\n      tag_114\n      jump\t// in\n    tag_124:\n      dup1\n      0x1f\n      add\n      0x20\n      dup1\n      swap2\n      div\n      mul\n      0x20\n      add\n      mload(0x40)\n      swap1\n      dup2\n      add\n      0x40\n      mstore\n      dup1\n      swap3\n      swap2\n      swap1\n      dup2\n      dup2\n      mstore\n      0x20\n      add\n      dup3\n      dup1\n      sload\n      tag_125\n      swap1\n      tag_114\n      jump\t// in\n    tag_125:\n      dup1\n      iszero\n      tag_126\n      jumpi\n      dup1\n      0x1f\n      lt\n      tag_127\n      jumpi\n      0x0100\n      dup1\n      dup4\n      sload\n      div\n      mul\n      dup4\n      mstore\n      swap2\n      0x20\n      add\n      swap2\n      jump(tag_126)\n    tag_127:\n      dup3\n      add\n      swap2\n      swap1\n      0x00\n      mstore\n      keccak256(0x00, 0x20)\n      swap1\n    tag_128:\n      dup2\n      sload\n      dup2\n      mstore\n      swap1\n      0x01\n      add\n      swap1\n      0x20\n      add\n      dup1\n      dup4\n      gt\n      tag_128\n      jumpi\n      dup3\n      swap1\n      sub\n      0x1f\n      and\n      dup3\n      add\n      swap2\n    tag_126:\n      pop\n      pop\n      pop\n      pop\n      pop\n      dup2\n      mstore\n      0x20\n      add\n      0x04\n      dup3\n      add\n      dup1\n      sload\n      tag_129\n      swap1\n      tag_114\n      jump\t// in\n    tag_129:\n      dup1\n      0x1f\n      add\n      0x20\n      dup1\n      swap2\n      div\n      mul\n      0x20\n      add\n      mload(0x40)\n      swap1\n      dup2\n      add\n      0x40\n      mstore\n      dup1\n      swap3\n      swap2\n      swap1\n      dup2\n      dup2\n      mstore\n      0x20\n      add\n      dup3\n      dup1\n      sload\n      tag_130\n      swap1\n      tag_114\n      jump\t// in\n    tag_130:\n      dup1\n      iszero\n      tag_131\n      jumpi\n      dup1\n      0x1f\n      lt\n      tag_132\n      jumpi\n      0x0100\n      dup1\n      dup4\n      sload\n      div\n      mul\n      dup4\n      mstore\n      swap2\n      0x20\n      add\n      swap2\n      jump(tag_131)\n    tag_132:\n      dup3\n      add\n      swap2\n      swap1\n      0x00\n      mstore\n      keccak256(0x00, 0x20)\n      swap1\n    tag_133:\n      dup2\n      sload\n      dup2\n      mstore\n      swap1\n      0x01\n      add\n      swap1\n      0x20\n      add\n      dup1\n      dup4\n      gt\n      tag_133\n      jumpi\n      dup3\n      swap1\n      sub\n      0x1f\n      and\n      dup3\n      add\n      swap2\n    tag_131:\n      pop\n      pop\n      pop\n      swap2\n      dup4\n      mstore\n      pop\n      pop\n      0x05\n      swap2\n      swap1\n      swap2\n      add\n      sload\n      0xff\n      dup2\n      and\n      iszero\n      iszero\n      0x20\n      dup4\n      add\n      mstore\n      0x0100\n      swap1\n      div\n      sub(shl(0x80, 0x01), 0x01)\n      and\n      0x40\n      swap1\n      swap2\n      add\n      mstore\n      swap3\n      swap2\n      pop\n      pop\n        /* \"contracts/UserProfileManager.sol\":2639:2914  function getUserProfile(address user) external view override returns (UserProfile memory profile) {... */\n      jump\t// out\n        /* \"@openzeppelin/contracts-upgradeable/access/OwnableUpgradeable.sol\":3405:3620  function transferOwnership(address newOwner) public virtual onlyOwner {... */\n    tag_50:\n        /* \"@openzeppelin/contracts-upgradeable/access/OwnableUpgradeable.sol\":2334:2347  _checkOwner() */\n      tag_135\n        /* \"@openzeppelin/contracts-upgradeable/access/OwnableUpgradeable.sol\":2334:2345  _checkOwner */\n      tag_102\n        /* \"@openzeppelin/contracts-upgradeable/access/OwnableUpgradeable.sol\":2334:2347  _checkOwner() */\n      jump\t// in\n    tag_135:\n      sub(shl(0xa0, 0x01), 0x01)\n        /* \"@openzeppelin/contracts-upgradeable/access/OwnableUpgradeable.sol\":3489:3511  newOwner == address(0) */\n      dup2\n      and\n        /* \"@openzeppelin/contracts-upgradeable/access/OwnableUpgradeable.sol\":3485:3576  if (newOwner == address(0)) {... */\n      tag_137\n      jumpi\n        /* \"@openzeppelin/contracts-upgradeable/access/OwnableUpgradeable.sol\":3534:3565  OwnableInvalidOwner(address(0)) */\n      mload(0x40)\n      shl(0xe0, 0x1e4fbdf7)\n      dup2\n      mstore\n        /* \"@openzeppelin/contracts-upgradeable/access/OwnableUpgradeable.sol\":3562:3563  0 */\n      0x00\n        /* \"@openzeppelin/contracts-upgradeable/access/OwnableUpgradeable.sol\":3534:3565  OwnableInvalidOwner(address(0)) */\n      0x04\n      dup3\n      add\n        /* \"#utility.yul\":2842:2893   */\n      mstore\n        /* \"#utility.yul\":2815:2833   */\n      0x24\n      add\n        /* \"@openzeppelin/contracts-upgradeable/access/OwnableUpgradeable.sol\":3534:3565  OwnableInvalidOwner(address(0)) */\n    tag_138:\n      mload(0x40)\n      dup1\n      swap2\n      sub\n      swap1\n      revert\n        /* \"@openzeppelin/contracts-upgradeable/access/OwnableUpgradeable.sol\":3485:3576  if (newOwner == address(0)) {... */\n    tag_137:\n        /* \"@openzeppelin/contracts-upgradeable/access/OwnableUpgradeable.sol\":3585:3613  _transferOwnership(newOwner) */\n      tag_139\n        /* \"@openzeppelin/contracts-upgradeable/access/OwnableUpgradeable.sol\":3604:3612  newOwner */\n      dup2\n        /* \"@openzeppelin/contracts-upgradeable/access/OwnableUpgradeable.sol\":3585:3603  _transferOwnership */\n      tag_105\n        /* \"@openzeppelin/contracts-upgradeable/access/OwnableUpgradeable.sol\":3585:3613  _transferOwnership(newOwner) */\n      jump\t// in\n    tag_139:\n        /* \"@openzeppelin/contracts-upgradeable/access/OwnableUpgradeable.sol\":3405:3620  function transferOwnership(address newOwner) public virtual onlyOwner {... */\n      pop\n      jump\t// out\n        /* \"@openzeppelin/contracts-upgradeable/access/OwnableUpgradeable.sol\":1847:1974  function __Ownable_init(address initialOwner) internal onlyInitializing {... */\n    tag_95:\n        /* \"@openzeppelin/contracts-upgradeable/proxy/utils/Initializable.sol\":6929:6949  _checkInitializing() */\n      tag_144\n        /* \"@openzeppelin/contracts-upgradeable/proxy/utils/Initializable.sol\":6929:6947  _checkInitializing */\n      tag_145\n        /* \"@openzeppelin/contracts-upgradeable/proxy/utils/Initializable.sol\":6929:6949  _checkInitializing() */\n      jump\t// in\n    tag_144:\n        /* \"@openzeppelin/contracts-upgradeable/access/OwnableUpgradeable.sol\":1929:1967  __Ownable_init_unchained(initialOwner) */\n      tag_139\n        /* \"@openzeppelin/contracts-upgradeable/access/OwnableUpgradeable.sol\":1954:1966  initialOwner */\n      dup2\n        /* \"@openzeppelin/contracts-upgradeable/access/OwnableUpgradeable.sol\":1929:1953  __Ownable_init_unchained */\n      tag_148\n        /* \"@openzeppelin/contracts-upgradeable/access/OwnableUpgradeable.sol\":1929:1967  __Ownable_init_unchained(initialOwner) */\n      jump\t// in\n        /* \"@openzeppelin/contracts-upgradeable/access/OwnableUpgradeable.sol\":2658:2820  function _checkOwner() internal view virtual {... */\n    tag_102:\n        /* \"@openzeppelin/contracts-upgradeable/utils/ContextUpgradeable.sol\":966:976  msg.sender */\n      caller\n        /* \"@openzeppelin/contracts-upgradeable/access/OwnableUpgradeable.sol\":2717:2724  owner() */\n      tag_152\n        /* \"@openzeppelin/contracts-upgradeable/access/OwnableUpgradeable.sol\":2717:2722  owner */\n      tag_41\n        /* \"@openzeppelin/contracts-upgradeable/access/OwnableUpgradeable.sol\":2717:2724  owner() */\n      jump\t// in\n    tag_152:\n      sub(shl(0xa0, 0x01), 0x01)\n        /* \"@openzeppelin/contracts-upgradeable/access/OwnableUpgradeable.sol\":2717:2740  owner() != _msgSender() */\n      and\n      eq\n        /* \"@openzeppelin/contracts-upgradeable/access/OwnableUpgradeable.sol\":2713:2814  if (owner() != _msgSender()) {... */\n      tag_104\n      jumpi\n        /* \"@openzeppelin/contracts-upgradeable/access/OwnableUpgradeable.sol\":2763:2803  OwnableUnauthorizedAccount(_msgSender()) */\n      mload(0x40)\n      shl(0xe0, 0x118cdaa7)\n      dup2\n      mstore\n        /* \"@openzeppelin/contracts-upgradeable/utils/ContextUpgradeable.sol\":966:976  msg.sender */\n      caller\n        /* \"@openzeppelin/contracts-upgradeable/access/OwnableUpgradeable.sol\":2763:2803  OwnableUnauthorizedAccount(_msgSender()) */\n      0x04\n      dup3\n      add\n        /* \"#utility.yul\":2842:2893   */\n      mstore\n        /* \"#utility.yul\":2815:2833   */\n      0x24\n      add\n        /* \"@openzeppelin/contracts-upgradeable/access/OwnableUpgradeable.sol\":2763:2803  OwnableUnauthorizedAccount(_msgSender()) */\n      tag_138\n        /* \"#utility.yul\":2696:2899   */\n      jump\n        /* \"@openzeppelin/contracts-upgradeable/access/OwnableUpgradeable.sol\":3774:4022  function _transferOwnership(address newOwner) internal virtual {... */\n    tag_105:\n        /* \"@openzeppelin/contracts-upgradeable/access/OwnableUpgradeable.sol\":1313:1335  OwnableStorageLocation */\n      0x9016d09d72d40fdae2fd8ceac6b6234c7706214fd39c1cd1e609a0528c199300\n        /* \"@openzeppelin/contracts-upgradeable/access/OwnableUpgradeable.sol\":3923:3931  $._owner */\n      dup1\n      sload\n      not(sub(shl(0xa0, 0x01), 0x01))\n        /* \"@openzeppelin/contracts-upgradeable/access/OwnableUpgradeable.sol\":3941:3960  $._owner = newOwner */\n      dup2\n      and\n      sub(shl(0xa0, 0x01), 0x01)\n      dup5\n      dup2\n      and\n      swap2\n      dup3\n      or\n      dup5\n      sstore\n        /* \"@openzeppelin/contracts-upgradeable/access/OwnableUpgradeable.sol\":3975:4015  OwnershipTransferred(oldOwner, newOwner) */\n      mload(0x40)\n        /* \"@openzeppelin/contracts-upgradeable/access/OwnableUpgradeable.sol\":3923:3931  $._owner */\n      swap3\n      and\n      swap2\n      dup3\n      swap1\n        /* \"@openzeppelin/contracts-upgradeable/access/OwnableUpgradeable.sol\":3975:4015  OwnershipTransferred(oldOwner, newOwner) */\n      0x8be0079c531659141344cd1fd0a4f28419497f9722a3daafe3b4186f6b6457e0\n      swap1\n        /* \"@openzeppelin/contracts-upgradeable/access/OwnableUpgradeable.sol\":3847:3871  OwnableStorage storage $ */\n      0x00\n      swap1\n        /* \"@openzeppelin/contracts-upgradeable/access/OwnableUpgradeable.sol\":3975:4015  OwnershipTransferred(oldOwner, newOwner) */\n      log3\n        /* \"@openzeppelin/contracts-upgradeable/access/OwnableUpgradeable.sol\":3837:4022  {... */\n      pop\n      pop\n        /* \"@openzeppelin/contracts-upgradeable/access/OwnableUpgradeable.sol\":3774:4022  function _transferOwnership(address newOwner) internal virtual {... */\n      pop\n      jump\t// out\n        /* \"@openzeppelin/contracts-upgradeable/proxy/utils/Initializable.sol\":7082:7223  function _checkInitializing() internal view virtual {... */\n    tag_145:\n        /* \"@openzeppelin/contracts-upgradeable/proxy/utils/Initializable.sol\":3147:3213  0xf0c57e16840df040f15088dc2f81fe391c3923bec73e23a9662efc9c229c6a00 */\n      0xf0c57e16840df040f15088dc2f81fe391c3923bec73e23a9662efc9c229c6a00\n        /* \"@openzeppelin/contracts-upgradeable/proxy/utils/Initializable.sol\":8558:8598  _getInitializableStorage()._initializing */\n      sload\n      shl(0x40, 0x01)\n      swap1\n      div\n      0xff\n      and\n        /* \"@openzeppelin/contracts-upgradeable/proxy/utils/Initializable.sol\":7144:7217  if (!_isInitializing()) {... */\n      tag_104\n      jumpi\n        /* \"@openzeppelin/contracts-upgradeable/proxy/utils/Initializable.sol\":7189:7206  NotInitializing() */\n      mload(0x40)\n      shl(0xe3, 0x1afcd79f)\n      dup2\n      mstore\n      0x04\n      add\n      mload(0x40)\n      dup1\n      swap2\n      sub\n      swap1\n      revert\n        /* \"@openzeppelin/contracts-upgradeable/access/OwnableUpgradeable.sol\":1980:2215  function __Ownable_init_unchained(address initialOwner) internal onlyInitializing {... */\n    tag_148:\n        /* \"@openzeppelin/contracts-upgradeable/proxy/utils/Initializable.sol\":6929:6949  _checkInitializing() */\n      tag_135\n        /* \"@openzeppelin/contracts-upgradeable/proxy/utils/Initializable.sol\":6929:6947  _checkInitializing */\n      tag_145\n        /* \"@openzeppelin/contracts-upgradeable/proxy/utils/Initializable.sol\":6929:6949  _checkInitializing() */\n      jump\t// in\n        /* \"#utility.yul\":14:187   */\n    tag_173:\n        /* \"#utility.yul\":82:102   */\n      dup1\n      calldataload\n      sub(shl(0xa0, 0x01), 0x01)\n        /* \"#utility.yul\":131:162   */\n      dup2\n      and\n        /* \"#utility.yul\":121:163   */\n      dup2\n      eq\n        /* \"#utility.yul\":111:181   */\n      tag_185\n      jumpi\n        /* \"#utility.yul\":177:178   */\n      0x00\n        /* \"#utility.yul\":174:175   */\n      0x00\n        /* \"#utility.yul\":167:179   */\n      revert\n        /* \"#utility.yul\":111:181   */\n    tag_185:\n        /* \"#utility.yul\":14:187   */\n      swap2\n      swap1\n      pop\n      jump\t// out\n        /* \"#utility.yul\":192:378   */\n    tag_16:\n        /* \"#utility.yul\":251:257   */\n      0x00\n        /* \"#utility.yul\":304:306   */\n      0x20\n        /* \"#utility.yul\":292:301   */\n      dup3\n        /* \"#utility.yul\":283:290   */\n      dup5\n        /* \"#utility.yul\":279:302   */\n      sub\n        /* \"#utility.yul\":275:307   */\n      slt\n        /* \"#utility.yul\":272:324   */\n      iszero\n      tag_187\n      jumpi\n        /* \"#utility.yul\":320:321   */\n      0x00\n        /* \"#utility.yul\":317:318   */\n      0x00\n        /* \"#utility.yul\":310:322   */\n      revert\n        /* \"#utility.yul\":272:324   */\n    tag_187:\n        /* \"#utility.yul\":343:372   */\n      tag_188\n        /* \"#utility.yul\":362:371   */\n      dup3\n        /* \"#utility.yul\":343:372   */\n      tag_173\n      jump\t// in\n    tag_188:\n        /* \"#utility.yul\":333:372   */\n      swap4\n        /* \"#utility.yul\":192:378   */\n      swap3\n      pop\n      pop\n      pop\n      jump\t// out\n        /* \"#utility.yul\":383:731   */\n    tag_174:\n        /* \"#utility.yul\":435:443   */\n      0x00\n        /* \"#utility.yul\":445:451   */\n      0x00\n        /* \"#utility.yul\":499:502   */\n      dup4\n        /* \"#utility.yul\":492:496   */\n      0x1f\n        /* \"#utility.yul\":484:490   */\n      dup5\n        /* \"#utility.yul\":480:497   */\n      add\n        /* \"#utility.yul\":476:503   */\n      slt\n        /* \"#utility.yul\":466:521   */\n      tag_190\n      jumpi\n        /* \"#utility.yul\":517:518   */\n      0x00\n        /* \"#utility.yul\":514:515   */\n      0x00\n        /* \"#utility.yul\":507:519   */\n      revert\n        /* \"#utility.yul\":466:521   */\n    tag_190:\n      pop\n        /* \"#utility.yul\":540:560   */\n      dup2\n      calldataload\n        /* \"#utility.yul\":583:601   */\n      0xffffffffffffffff\n        /* \"#utility.yul\":572:602   */\n      dup2\n      gt\n        /* \"#utility.yul\":569:619   */\n      iszero\n      tag_191\n      jumpi\n        /* \"#utility.yul\":615:616   */\n      0x00\n        /* \"#utility.yul\":612:613   */\n      0x00\n        /* \"#utility.yul\":605:617   */\n      revert\n        /* \"#utility.yul\":569:619   */\n    tag_191:\n        /* \"#utility.yul\":652:656   */\n      0x20\n        /* \"#utility.yul\":644:650   */\n      dup4\n        /* \"#utility.yul\":640:657   */\n      add\n        /* \"#utility.yul\":628:657   */\n      swap2\n      pop\n        /* \"#utility.yul\":704:707   */\n      dup4\n        /* \"#utility.yul\":697:701   */\n      0x20\n        /* \"#utility.yul\":688:694   */\n      dup3\n        /* \"#utility.yul\":680:686   */\n      dup6\n        /* \"#utility.yul\":676:695   */\n      add\n        /* \"#utility.yul\":672:702   */\n      add\n        /* \"#utility.yul\":669:708   */\n      gt\n        /* \"#utility.yul\":666:725   */\n      iszero\n      tag_192\n      jumpi\n        /* \"#utility.yul\":721:722   */\n      0x00\n        /* \"#utility.yul\":718:719   */\n      0x00\n        /* \"#utility.yul\":711:723   */\n      revert\n        /* \"#utility.yul\":666:725   */\n    tag_192:\n        /* \"#utility.yul\":383:731   */\n      swap3\n      pop\n      swap3\n      swap1\n      pop\n      jump\t// out\n        /* \"#utility.yul\":736:2138   */\n    tag_20:\n        /* \"#utility.yul\":879:885   */\n      0x00\n        /* \"#utility.yul\":887:893   */\n      0x00\n        /* \"#utility.yul\":895:901   */\n      0x00\n        /* \"#utility.yul\":903:909   */\n      0x00\n        /* \"#utility.yul\":911:917   */\n      0x00\n        /* \"#utility.yul\":919:925   */\n      0x00\n        /* \"#utility.yul\":927:933   */\n      0x00\n        /* \"#utility.yul\":935:941   */\n      0x00\n        /* \"#utility.yul\":943:949   */\n      0x00\n        /* \"#utility.yul\":996:999   */\n      0xa0\n        /* \"#utility.yul\":984:993   */\n      dup11\n        /* \"#utility.yul\":975:982   */\n      dup13\n        /* \"#utility.yul\":971:994   */\n      sub\n        /* \"#utility.yul\":967:1000   */\n      slt\n        /* \"#utility.yul\":964:1017   */\n      iszero\n      tag_194\n      jumpi\n        /* \"#utility.yul\":1013:1014   */\n      0x00\n        /* \"#utility.yul\":1010:1011   */\n      0x00\n        /* \"#utility.yul\":1003:1015   */\n      revert\n        /* \"#utility.yul\":964:1017   */\n    tag_194:\n        /* \"#utility.yul\":1036:1065   */\n      tag_195\n        /* \"#utility.yul\":1055:1064   */\n      dup11\n        /* \"#utility.yul\":1036:1065   */\n      tag_173\n      jump\t// in\n    tag_195:\n        /* \"#utility.yul\":1026:1065   */\n      swap9\n      pop\n        /* \"#utility.yul\":1116:1118   */\n      0x20\n        /* \"#utility.yul\":1105:1114   */\n      dup11\n        /* \"#utility.yul\":1101:1119   */\n      add\n        /* \"#utility.yul\":1088:1120   */\n      calldataload\n        /* \"#utility.yul\":1143:1161   */\n      0xffffffffffffffff\n        /* \"#utility.yul\":1135:1141   */\n      dup2\n        /* \"#utility.yul\":1132:1162   */\n      gt\n        /* \"#utility.yul\":1129:1179   */\n      iszero\n      tag_196\n      jumpi\n        /* \"#utility.yul\":1175:1176   */\n      0x00\n        /* \"#utility.yul\":1172:1173   */\n      0x00\n        /* \"#utility.yul\":1165:1177   */\n      revert\n        /* \"#utility.yul\":1129:1179   */\n    tag_196:\n        /* \"#utility.yul\":1214:1273   */\n      tag_197\n        /* \"#utility.yul\":1265:1272   */\n      dup13\n        /* \"#utility.yul\":1256:1262   */\n      dup3\n        /* \"#utility.yul\":1245:1254   */\n      dup14\n        /* \"#utility.yul\":1241:1263   */\n      add\n        /* \"#utility.yul\":1214:1273   */\n      tag_174\n      jump\t// in\n    tag_197:\n        /* \"#utility.yul\":1292:1300   */\n      swap1\n      swap10\n      pop\n        /* \"#utility.yul\":1188:1273   */\n      swap8\n      pop\n      pop\n        /* \"#utility.yul\":1380:1382   */\n      0x40\n        /* \"#utility.yul\":1365:1383   */\n      dup11\n      add\n        /* \"#utility.yul\":1352:1384   */\n      calldataload\n        /* \"#utility.yul\":1409:1427   */\n      0xffffffffffffffff\n        /* \"#utility.yul\":1396:1428   */\n      dup2\n      gt\n        /* \"#utility.yul\":1393:1445   */\n      iszero\n      tag_198\n      jumpi\n        /* \"#utility.yul\":1441:1442   */\n      0x00\n        /* \"#utility.yul\":1438:1439   */\n      0x00\n        /* \"#utility.yul\":1431:1443   */\n      revert\n        /* \"#utility.yul\":1393:1445   */\n    tag_198:\n        /* \"#utility.yul\":1480:1541   */\n      tag_199\n        /* \"#utility.yul\":1533:1540   */\n      dup13\n        /* \"#utility.yul\":1522:1530   */\n      dup3\n        /* \"#utility.yul\":1511:1520   */\n      dup14\n        /* \"#utility.yul\":1507:1531   */\n      add\n        /* \"#utility.yul\":1480:1541   */\n      tag_174\n      jump\t// in\n    tag_199:\n        /* \"#utility.yul\":1560:1568   */\n      swap1\n      swap8\n      pop\n        /* \"#utility.yul\":1454:1541   */\n      swap6\n      pop\n      pop\n        /* \"#utility.yul\":1648:1650   */\n      0x60\n        /* \"#utility.yul\":1633:1651   */\n      dup11\n      add\n        /* \"#utility.yul\":1620:1652   */\n      calldataload\n        /* \"#utility.yul\":1677:1695   */\n      0xffffffffffffffff\n        /* \"#utility.yul\":1664:1696   */\n      dup2\n      gt\n        /* \"#utility.yul\":1661:1713   */\n      iszero\n      tag_200\n      jumpi\n        /* \"#utility.yul\":1709:1710   */\n      0x00\n        /* \"#utility.yul\":1706:1707   */\n      0x00\n        /* \"#utility.yul\":1699:1711   */\n      revert\n        /* \"#utility.yul\":1661:1713   */\n    tag_200:\n        /* \"#utility.yul\":1748:1809   */\n      tag_201\n        /* \"#utility.yul\":1801:1808   */\n      dup13\n        /* \"#utility.yul\":1790:1798   */\n      dup3\n        /* \"#utility.yul\":1779:1788   */\n      dup14\n        /* \"#utility.yul\":1775:1799   */\n      add\n        /* \"#utility.yul\":1748:1809   */\n      tag_174\n      jump\t// in\n    tag_201:\n        /* \"#utility.yul\":1828:1836   */\n      swap1\n      swap6\n      pop\n        /* \"#utility.yul\":1722:1809   */\n      swap4\n      pop\n      pop\n        /* \"#utility.yul\":1916:1919   */\n      0x80\n        /* \"#utility.yul\":1901:1920   */\n      dup11\n      add\n        /* \"#utility.yul\":1888:1921   */\n      calldataload\n        /* \"#utility.yul\":1946:1964   */\n      0xffffffffffffffff\n        /* \"#utility.yul\":1933:1965   */\n      dup2\n      gt\n        /* \"#utility.yul\":1930:1982   */\n      iszero\n      tag_202\n      jumpi\n        /* \"#utility.yul\":1978:1979   */\n      0x00\n        /* \"#utility.yul\":1975:1976   */\n      0x00\n        /* \"#utility.yul\":1968:1980   */\n      revert\n        /* \"#utility.yul\":1930:1982   */\n    tag_202:\n        /* \"#utility.yul\":2017:2078   */\n      tag_203\n        /* \"#utility.yul\":2070:2077   */\n      dup13\n        /* \"#utility.yul\":2059:2067   */\n      dup3\n        /* \"#utility.yul\":2048:2057   */\n      dup14\n        /* \"#utility.yul\":2044:2068   */\n      add\n        /* \"#utility.yul\":2017:2078   */\n      tag_174\n      jump\t// in\n    tag_203:\n        /* \"#utility.yul\":1991:2078   */\n      swap2\n      pop\n        /* \"#utility.yul\":2097:2105   */\n      dup1\n        /* \"#utility.yul\":2087:2105   */\n      swap4\n      pop\n      pop\n        /* \"#utility.yul\":2124:2132   */\n      dup1\n        /* \"#utility.yul\":2114:2132   */\n      swap2\n      pop\n      pop\n        /* \"#utility.yul\":736:2138   */\n      swap3\n      swap6\n      swap9\n      pop\n      swap3\n      swap6\n      swap9\n      pop\n      swap3\n      swap6\n      swap9\n      jump\t// out\n        /* \"#utility.yul\":2143:2403   */\n    tag_27:\n        /* \"#utility.yul\":2211:2217   */\n      0x00\n        /* \"#utility.yul\":2219:2225   */\n      0x00\n        /* \"#utility.yul\":2272:2274   */\n      0x40\n        /* \"#utility.yul\":2260:2269   */\n      dup4\n        /* \"#utility.yul\":2251:2258   */\n      dup6\n        /* \"#utility.yul\":2247:2270   */\n      sub\n        /* \"#utility.yul\":2243:2275   */\n      slt\n        /* \"#utility.yul\":2240:2292   */\n      iszero\n      tag_205\n      jumpi\n        /* \"#utility.yul\":2288:2289   */\n      0x00\n        /* \"#utility.yul\":2285:2286   */\n      0x00\n        /* \"#utility.yul\":2278:2290   */\n      revert\n        /* \"#utility.yul\":2240:2292   */\n    tag_205:\n        /* \"#utility.yul\":2311:2340   */\n      tag_206\n        /* \"#utility.yul\":2330:2339   */\n      dup4\n        /* \"#utility.yul\":2311:2340   */\n      tag_173\n      jump\t// in\n    tag_206:\n        /* \"#utility.yul\":2301:2340   */\n      swap2\n      pop\n        /* \"#utility.yul\":2359:2397   */\n      tag_207\n        /* \"#utility.yul\":2393:2395   */\n      0x20\n        /* \"#utility.yul\":2382:2391   */\n      dup5\n        /* \"#utility.yul\":2378:2396   */\n      add\n        /* \"#utility.yul\":2359:2397   */\n      tag_173\n      jump\t// in\n    tag_207:\n        /* \"#utility.yul\":2349:2397   */\n      swap1\n      pop\n        /* \"#utility.yul\":2143:2403   */\n      swap3\n      pop\n      swap3\n      swap1\n      pop\n      jump\t// out\n        /* \"#utility.yul\":2904:3193   */\n    tag_176:\n        /* \"#utility.yul\":2946:2949   */\n      0x00\n        /* \"#utility.yul\":2984:2989   */\n      dup2\n        /* \"#utility.yul\":2978:2990   */\n      mload\n        /* \"#utility.yul\":3011:3017   */\n      dup1\n        /* \"#utility.yul\":3006:3009   */\n      dup5\n        /* \"#utility.yul\":2999:3018   */\n      mstore\n        /* \"#utility.yul\":3067:3073   */\n      dup1\n        /* \"#utility.yul\":3060:3064   */\n      0x20\n        /* \"#utility.yul\":3053:3058   */\n      dup5\n        /* \"#utility.yul\":3049:3065   */\n      add\n        /* \"#utility.yul\":3042:3046   */\n      0x20\n        /* \"#utility.yul\":3037:3040   */\n      dup7\n        /* \"#utility.yul\":3033:3047   */\n      add\n        /* \"#utility.yul\":3027:3074   */\n      mcopy\n        /* \"#utility.yul\":3119:3120   */\n      0x00\n        /* \"#utility.yul\":3112:3116   */\n      0x20\n        /* \"#utility.yul\":3103:3109   */\n      dup3\n        /* \"#utility.yul\":3098:3101   */\n      dup7\n        /* \"#utility.yul\":3094:3110   */\n      add\n        /* \"#utility.yul\":3090:3117   */\n      add\n        /* \"#utility.yul\":3083:3121   */\n      mstore\n        /* \"#utility.yul\":3182:3186   */\n      0x20\n        /* \"#utility.yul\":3175:3177   */\n      0x1f\n        /* \"#utility.yul\":3171:3178   */\n      not\n        /* \"#utility.yul\":3166:3168   */\n      0x1f\n        /* \"#utility.yul\":3158:3164   */\n      dup4\n        /* \"#utility.yul\":3154:3169   */\n      add\n        /* \"#utility.yul\":3150:3179   */\n      and\n        /* \"#utility.yul\":3145:3148   */\n      dup6\n        /* \"#utility.yul\":3141:3180   */\n      add\n        /* \"#utility.yul\":3137:3187   */\n      add\n        /* \"#utility.yul\":3130:3187   */\n      swap2\n      pop\n      pop\n        /* \"#utility.yul\":2904:3193   */\n      swap3\n      swap2\n      pop\n      pop\n      jump\t// out\n        /* \"#utility.yul\":3322:4591   */\n    tag_47:\n        /* \"#utility.yul\":3509:3511   */\n      0x20\n        /* \"#utility.yul\":3491:3512   */\n      dup1\n      dup3\n      mstore\n        /* \"#utility.yul\":3552:3565   */\n      dup3\n      mload\n      sub(shl(0xa0, 0x01), 0x01)\n        /* \"#utility.yul\":3548:3587   */\n      and\n        /* \"#utility.yul\":3528:3546   */\n      dup3\n      dup3\n      add\n        /* \"#utility.yul\":3521:3588   */\n      mstore\n        /* \"#utility.yul\":3623:3638   */\n      dup3\n      add\n        /* \"#utility.yul\":3617:3639   */\n      mload\n        /* \"#utility.yul\":3675:3679   */\n      0xe0\n        /* \"#utility.yul\":3670:3672   */\n      0x40\n        /* \"#utility.yul\":3655:3673   */\n      dup4\n      add\n        /* \"#utility.yul\":3648:3680   */\n      mstore\n      0x00\n      swap1\n        /* \"#utility.yul\":3703:3755   */\n      tag_214\n        /* \"#utility.yul\":3750:3753   */\n      0x0100\n        /* \"#utility.yul\":3735:3754   */\n      dup5\n      add\n        /* \"#utility.yul\":3617:3639   */\n      dup3\n        /* \"#utility.yul\":3703:3755   */\n      tag_176\n      jump\t// in\n    tag_214:\n        /* \"#utility.yul\":3689:3755   */\n      swap1\n      pop\n        /* \"#utility.yul\":3804:3806   */\n      0x40\n        /* \"#utility.yul\":3796:3802   */\n      dup5\n        /* \"#utility.yul\":3792:3807   */\n      add\n        /* \"#utility.yul\":3786:3808   */\n      mload\n        /* \"#utility.yul\":3876:3878   */\n      0x1f\n        /* \"#utility.yul\":3872:3879   */\n      not\n        /* \"#utility.yul\":3860:3869   */\n      dup5\n        /* \"#utility.yul\":3852:3858   */\n      dup4\n        /* \"#utility.yul\":3848:3870   */\n      sub\n        /* \"#utility.yul\":3844:3880   */\n      add\n        /* \"#utility.yul\":3839:3841   */\n      0x60\n        /* \"#utility.yul\":3828:3837   */\n      dup6\n        /* \"#utility.yul\":3824:3842   */\n      add\n        /* \"#utility.yul\":3817:3881   */\n      mstore\n        /* \"#utility.yul\":3904:3945   */\n      tag_215\n        /* \"#utility.yul\":3938:3944   */\n      dup3\n        /* \"#utility.yul\":3922:3936   */\n      dup3\n        /* \"#utility.yul\":3904:3945   */\n      tag_176\n      jump\t// in\n    tag_215:\n        /* \"#utility.yul\":3890:3945   */\n      swap2\n      pop\n      pop\n        /* \"#utility.yul\":3994:3996   */\n      0x60\n        /* \"#utility.yul\":3986:3992   */\n      dup5\n        /* \"#utility.yul\":3982:3997   */\n      add\n        /* \"#utility.yul\":3976:3998   */\n      mload\n        /* \"#utility.yul\":4067:4069   */\n      0x1f\n        /* \"#utility.yul\":4063:4070   */\n      not\n        /* \"#utility.yul\":4051:4060   */\n      dup5\n        /* \"#utility.yul\":4043:4049   */\n      dup4\n        /* \"#utility.yul\":4039:4061   */\n      sub\n        /* \"#utility.yul\":4035:4071   */\n      add\n        /* \"#utility.yul\":4029:4032   */\n      0x80\n        /* \"#utility.yul\":4018:4027   */\n      dup6\n        /* \"#utility.yul\":4014:4033   */\n      add\n        /* \"#utility.yul\":4007:4072   */\n      mstore\n        /* \"#utility.yul\":4095:4136   */\n      tag_216\n        /* \"#utility.yul\":4129:4135   */\n      dup3\n        /* \"#utility.yul\":4113:4127   */\n      dup3\n        /* \"#utility.yul\":4095:4136   */\n      tag_176\n      jump\t// in\n    tag_216:\n        /* \"#utility.yul\":4081:4136   */\n      swap2\n      pop\n      pop\n        /* \"#utility.yul\":4185:4188   */\n      0x80\n        /* \"#utility.yul\":4177:4183   */\n      dup5\n        /* \"#utility.yul\":4173:4189   */\n      add\n        /* \"#utility.yul\":4167:4190   */\n      mload\n        /* \"#utility.yul\":4259:4261   */\n      0x1f\n        /* \"#utility.yul\":4255:4262   */\n      not\n        /* \"#utility.yul\":4243:4252   */\n      dup5\n        /* \"#utility.yul\":4235:4241   */\n      dup4\n        /* \"#utility.yul\":4231:4253   */\n      sub\n        /* \"#utility.yul\":4227:4263   */\n      add\n        /* \"#utility.yul\":4221:4224   */\n      0xa0\n        /* \"#utility.yul\":4210:4219   */\n      dup6\n        /* \"#utility.yul\":4206:4225   */\n      add\n        /* \"#utility.yul\":4199:4264   */\n      mstore\n        /* \"#utility.yul\":4287:4328   */\n      tag_217\n        /* \"#utility.yul\":4321:4327   */\n      dup3\n        /* \"#utility.yul\":4305:4319   */\n      dup3\n        /* \"#utility.yul\":4287:4328   */\n      tag_176\n      jump\t// in\n    tag_217:\n        /* \"#utility.yul\":4273:4328   */\n      swap2\n      pop\n      pop\n        /* \"#utility.yul\":4377:4380   */\n      0xa0\n        /* \"#utility.yul\":4369:4375   */\n      dup5\n        /* \"#utility.yul\":4365:4381   */\n      add\n        /* \"#utility.yul\":4359:4382   */\n      mload\n        /* \"#utility.yul\":4391:4443   */\n      tag_218\n        /* \"#utility.yul\":4438:4441   */\n      0xc0\n        /* \"#utility.yul\":4427:4436   */\n      dup6\n        /* \"#utility.yul\":4423:4442   */\n      add\n        /* \"#utility.yul\":4407:4421   */\n      dup3\n        /* \"#utility.yul\":2478:2491   */\n      iszero\n        /* \"#utility.yul\":2471:2492   */\n      iszero\n        /* \"#utility.yul\":2459:2493   */\n      swap1\n      mstore\n        /* \"#utility.yul\":2408:2499   */\n      jump\n        /* \"#utility.yul\":4391:4443   */\n    tag_218:\n      pop\n        /* \"#utility.yul\":4492:4495   */\n      0xc0\n        /* \"#utility.yul\":4480:4496   */\n      dup5\n      add\n        /* \"#utility.yul\":4474:4497   */\n      mload\n      sub(shl(0x80, 0x01), 0x01)\n        /* \"#utility.yul\":3264:3310   */\n      dup2\n      and\n        /* \"#utility.yul\":4556:4560   */\n      0xe0\n        /* \"#utility.yul\":4541:4561   */\n      dup6\n      add\n        /* \"#utility.yul\":3252:3311   */\n      mstore\n      pop\n        /* \"#utility.yul\":4579:4585   */\n      swap4\n        /* \"#utility.yul\":3322:4591   */\n      swap3\n      pop\n      pop\n      pop\n      jump\t// out\n        /* \"#utility.yul\":4596:4723   */\n    tag_178:\n        /* \"#utility.yul\":4657:4667   */\n      0x4e487b71\n        /* \"#utility.yul\":4652:4655   */\n      0xe0\n        /* \"#utility.yul\":4648:4668   */\n      shl\n        /* \"#utility.yul\":4645:4646   */\n      0x00\n        /* \"#utility.yul\":4638:4669   */\n      mstore\n        /* \"#utility.yul\":4688:4692   */\n      0x41\n        /* \"#utility.yul\":4685:4686   */\n      0x04\n        /* \"#utility.yul\":4678:4693   */\n      mstore\n        /* \"#utility.yul\":4712:4716   */\n      0x24\n        /* \"#utility.yul\":4709:4710   */\n      0x00\n        /* \"#utility.yul\":4702:4717   */\n      revert\n        /* \"#utility.yul\":4728:5108   */\n    tag_114:\n        /* \"#utility.yul\":4807:4808   */\n      0x01\n        /* \"#utility.yul\":4803:4815   */\n      dup2\n      dup2\n      shr\n      swap1\n        /* \"#utility.yul\":4850:4862   */\n      dup3\n      and\n      dup1\n        /* \"#utility.yul\":4871:4932   */\n      tag_222\n      jumpi\n        /* \"#utility.yul\":4925:4929   */\n      0x7f\n        /* \"#utility.yul\":4917:4923   */\n      dup3\n        /* \"#utility.yul\":4913:4930   */\n      and\n        /* \"#utility.yul\":4903:4930   */\n      swap2\n      pop\n        /* \"#utility.yul\":4871:4932   */\n    tag_222:\n        /* \"#utility.yul\":4978:4980   */\n      0x20\n        /* \"#utility.yul\":4970:4976   */\n      dup3\n        /* \"#utility.yul\":4967:4981   */\n      lt\n        /* \"#utility.yul\":4947:4965   */\n      dup2\n        /* \"#utility.yul\":4944:4982   */\n      sub\n        /* \"#utility.yul\":4941:5102   */\n      tag_223\n      jumpi\n        /* \"#utility.yul\":5024:5034   */\n      0x4e487b71\n        /* \"#utility.yul\":5019:5022   */\n      0xe0\n        /* \"#utility.yul\":5015:5035   */\n      shl\n        /* \"#utility.yul\":5012:5013   */\n      0x00\n        /* \"#utility.yul\":5005:5036   */\n      mstore\n        /* \"#utility.yul\":5059:5063   */\n      0x22\n        /* \"#utility.yul\":5056:5057   */\n      0x04\n        /* \"#utility.yul\":5049:5064   */\n      mstore\n        /* \"#utility.yul\":5087:5091   */\n      0x24\n        /* \"#utility.yul\":5084:5085   */\n      0x00\n        /* \"#utility.yul\":5077:5092   */\n      revert\n        /* \"#utility.yul\":4941:5102   */\n    tag_223:\n      pop\n        /* \"#utility.yul\":4728:5108   */\n      swap2\n      swap1\n      pop\n      jump\t// out\n        /* \"#utility.yul\":5239:5757   */\n    tag_180:\n        /* \"#utility.yul\":5341:5343   */\n      0x1f\n        /* \"#utility.yul\":5336:5339   */\n      dup3\n        /* \"#utility.yul\":5333:5344   */\n      gt\n        /* \"#utility.yul\":5330:5751   */\n      iszero\n      tag_226\n      jumpi\n        /* \"#utility.yul\":5377:5382   */\n      dup1\n        /* \"#utility.yul\":5374:5375   */\n      0x00\n        /* \"#utility.yul\":5367:5383   */\n      mstore\n        /* \"#utility.yul\":5421:5425   */\n      0x20\n        /* \"#utility.yul\":5418:5419   */\n      0x00\n        /* \"#utility.yul\":5408:5426   */\n      keccak256\n        /* \"#utility.yul\":5491:5493   */\n      0x1f\n        /* \"#utility.yul\":5479:5489   */\n      dup5\n        /* \"#utility.yul\":5475:5494   */\n      add\n        /* \"#utility.yul\":5472:5473   */\n      0x05\n        /* \"#utility.yul\":5468:5495   */\n      shr\n        /* \"#utility.yul\":5462:5466   */\n      dup2\n        /* \"#utility.yul\":5458:5496   */\n      add\n        /* \"#utility.yul\":5527:5531   */\n      0x20\n        /* \"#utility.yul\":5515:5525   */\n      dup6\n        /* \"#utility.yul\":5512:5532   */\n      lt\n        /* \"#utility.yul\":5509:5556   */\n      iszero\n      tag_227\n      jumpi\n      pop\n        /* \"#utility.yul\":5550:5554   */\n      dup1\n        /* \"#utility.yul\":5509:5556   */\n    tag_227:\n        /* \"#utility.yul\":5605:5607   */\n      0x1f\n        /* \"#utility.yul\":5600:5603   */\n      dup5\n        /* \"#utility.yul\":5596:5608   */\n      add\n        /* \"#utility.yul\":5593:5594   */\n      0x05\n        /* \"#utility.yul\":5589:5609   */\n      shr\n        /* \"#utility.yul\":5583:5587   */\n      dup3\n        /* \"#utility.yul\":5579:5610   */\n      add\n        /* \"#utility.yul\":5569:5610   */\n      swap2\n      pop\n        /* \"#utility.yul\":5660:5741   */\n    tag_228:\n        /* \"#utility.yul\":5678:5680   */\n      dup2\n        /* \"#utility.yul\":5671:5676   */\n      dup2\n        /* \"#utility.yul\":5668:5681   */\n      lt\n        /* \"#utility.yul\":5660:5741   */\n      iszero\n      tag_230\n      jumpi\n        /* \"#utility.yul\":5737:5738   */\n      0x00\n        /* \"#utility.yul\":5723:5739   */\n      dup2\n      sstore\n        /* \"#utility.yul\":5704:5705   */\n      0x01\n        /* \"#utility.yul\":5693:5706   */\n      add\n        /* \"#utility.yul\":5660:5741   */\n      jump(tag_228)\n    tag_230:\n        /* \"#utility.yul\":5664:5667   */\n      pop\n      pop\n        /* \"#utility.yul\":5330:5751   */\n    tag_226:\n        /* \"#utility.yul\":5239:5757   */\n      pop\n      pop\n      pop\n      jump\t// out\n        /* \"#utility.yul\":5933:7131   */\n    tag_65:\n        /* \"#utility.yul\":6057:6075   */\n      0xffffffffffffffff\n        /* \"#utility.yul\":6052:6055   */\n      dup4\n        /* \"#utility.yul\":6049:6076   */\n      gt\n        /* \"#utility.yul\":6046:6099   */\n      iszero\n      tag_234\n      jumpi\n        /* \"#utility.yul\":6079:6097   */\n      tag_234\n      tag_178\n      jump\t// in\n    tag_234:\n        /* \"#utility.yul\":6108:6202   */\n      tag_235\n        /* \"#utility.yul\":6198:6201   */\n      dup4\n        /* \"#utility.yul\":6158:6196   */\n      tag_236\n        /* \"#utility.yul\":6190:6194   */\n      dup4\n        /* \"#utility.yul\":6184:6195   */\n      sload\n        /* \"#utility.yul\":6158:6196   */\n      tag_114\n      jump\t// in\n    tag_236:\n        /* \"#utility.yul\":6152:6156   */\n      dup4\n        /* \"#utility.yul\":6108:6202   */\n      tag_180\n      jump\t// in\n    tag_235:\n        /* \"#utility.yul\":6228:6229   */\n      0x00\n        /* \"#utility.yul\":6253:6255   */\n      0x1f\n        /* \"#utility.yul\":6248:6251   */\n      dup5\n        /* \"#utility.yul\":6245:6256   */\n      gt\n        /* \"#utility.yul\":6270:6271   */\n      0x01\n        /* \"#utility.yul\":6265:6873   */\n      dup2\n      eq\n      tag_238\n      jumpi\n        /* \"#utility.yul\":6917:6918   */\n      0x00\n        /* \"#utility.yul\":6934:6937   */\n      dup6\n        /* \"#utility.yul\":6931:7024   */\n      iszero\n      tag_239\n      jumpi\n      pop\n        /* \"#utility.yul\":6990:7009   */\n      dup4\n      dup3\n      add\n        /* \"#utility.yul\":6977:7010   */\n      calldataload\n        /* \"#utility.yul\":6931:7024   */\n    tag_239:\n      not(0x00)\n        /* \"#utility.yul\":5890:5891   */\n      0x03\n        /* \"#utility.yul\":5886:5897   */\n      dup8\n      swap1\n      shl\n        /* \"#utility.yul\":5882:5906   */\n      shr\n        /* \"#utility.yul\":5878:5907   */\n      not\n        /* \"#utility.yul\":5868:5908   */\n      and\n        /* \"#utility.yul\":5914:5915   */\n      0x01\n        /* \"#utility.yul\":5910:5921   */\n      dup7\n      swap1\n      shl\n        /* \"#utility.yul\":5865:5922   */\n      or\n        /* \"#utility.yul\":7037:7115   */\n      dup4\n      sstore\n        /* \"#utility.yul\":6238:7125   */\n      jump(tag_230)\n        /* \"#utility.yul\":6265:6873   */\n    tag_238:\n        /* \"#utility.yul\":5186:5187   */\n      0x00\n        /* \"#utility.yul\":5179:5193   */\n      dup4\n      dup2\n      mstore\n        /* \"#utility.yul\":5223:5227   */\n      0x20\n        /* \"#utility.yul\":5210:5228   */\n      dup2\n      keccak256\n      not(0x1f)\n        /* \"#utility.yul\":6301:6318   */\n      dup8\n      and\n      swap2\n        /* \"#utility.yul\":6416:6645   */\n    tag_242:\n        /* \"#utility.yul\":6430:6437   */\n      dup3\n        /* \"#utility.yul\":6427:6428   */\n      dup2\n        /* \"#utility.yul\":6424:6438   */\n      lt\n        /* \"#utility.yul\":6416:6645   */\n      iszero\n      tag_244\n      jumpi\n        /* \"#utility.yul\":6519:6538   */\n      dup7\n      dup6\n      add\n        /* \"#utility.yul\":6506:6539   */\n      calldataload\n        /* \"#utility.yul\":6491:6540   */\n      dup3\n      sstore\n        /* \"#utility.yul\":6626:6630   */\n      0x20\n        /* \"#utility.yul\":6611:6631   */\n      swap5\n      dup6\n      add\n      swap5\n        /* \"#utility.yul\":6579:6580   */\n      0x01\n        /* \"#utility.yul\":6567:6581   */\n      swap1\n      swap3\n      add\n      swap2\n        /* \"#utility.yul\":6446:6458   */\n      add\n        /* \"#utility.yul\":6416:6645   */\n      jump(tag_242)\n    tag_244:\n        /* \"#utility.yul\":6420:6423   */\n      pop\n        /* \"#utility.yul\":6673:6676   */\n      dup7\n        /* \"#utility.yul\":6664:6671   */\n      dup3\n        /* \"#utility.yul\":6661:6677   */\n      lt\n        /* \"#utility.yul\":6658:6817   */\n      iszero\n      tag_245\n      jumpi\n        /* \"#utility.yul\":6797:6798   */\n      0x00\n        /* \"#utility.yul\":6793:6799   */\n      not\n        /* \"#utility.yul\":6787:6790   */\n      0xf8\n        /* \"#utility.yul\":6781:6784   */\n      dup9\n        /* \"#utility.yul\":6778:6779   */\n      0x03\n        /* \"#utility.yul\":6774:6785   */\n      shl\n        /* \"#utility.yul\":6770:6791   */\n      and\n        /* \"#utility.yul\":6766:6800   */\n      shr\n        /* \"#utility.yul\":6762:6801   */\n      not\n        /* \"#utility.yul\":6749:6758   */\n      dup5\n        /* \"#utility.yul\":6744:6747   */\n      dup8\n        /* \"#utility.yul\":6740:6759   */\n      add\n        /* \"#utility.yul\":6727:6760   */\n      calldataload\n        /* \"#utility.yul\":6723:6802   */\n      and\n        /* \"#utility.yul\":6715:6721   */\n      dup2\n        /* \"#utility.yul\":6708:6803   */\n      sstore\n        /* \"#utility.yul\":6658:6817   */\n    tag_245:\n      pop\n      pop\n        /* \"#utility.yul\":6860:6861   */\n      0x01\n        /* \"#utility.yul\":6854:6857   */\n      dup6\n        /* \"#utility.yul\":6851:6852   */\n      0x01\n        /* \"#utility.yul\":6847:6858   */\n      shl\n        /* \"#utility.yul\":6843:6862   */\n      add\n        /* \"#utility.yul\":6837:6841   */\n      dup4\n        /* \"#utility.yul\":6830:6863   */\n      sstore\n        /* \"#utility.yul\":6238:7125   */\n      pop\n      pop\n        /* \"#utility.yul\":5933:7131   */\n      pop\n      pop\n      pop\n      jump\t// out\n        /* \"#utility.yul\":7136:7403   */\n    tag_182:\n        /* \"#utility.yul\":7225:7231   */\n      dup2\n        /* \"#utility.yul\":7220:7223   */\n      dup4\n        /* \"#utility.yul\":7213:7232   */\n      mstore\n        /* \"#utility.yul\":7277:7283   */\n      dup2\n        /* \"#utility.yul\":7270:7275   */\n      dup2\n        /* \"#utility.yul\":7263:7267   */\n      0x20\n        /* \"#utility.yul\":7258:7261   */\n      dup6\n        /* \"#utility.yul\":7254:7268   */\n      add\n        /* \"#utility.yul\":7241:7284   */\n      calldatacopy\n      pop\n        /* \"#utility.yul\":7329:7330   */\n      0x00\n        /* \"#utility.yul\":7304:7320   */\n      dup3\n      dup3\n      add\n        /* \"#utility.yul\":7322:7326   */\n      0x20\n        /* \"#utility.yul\":7300:7327   */\n      swap1\n      dup2\n      add\n        /* \"#utility.yul\":7293:7331   */\n      swap2\n      swap1\n      swap2\n      mstore\n        /* \"#utility.yul\":7385:7387   */\n      0x1f\n        /* \"#utility.yul\":7364:7379   */\n      swap1\n      swap2\n      add\n      not(0x1f)\n        /* \"#utility.yul\":7360:7389   */\n      and\n        /* \"#utility.yul\":7351:7390   */\n      swap1\n      swap2\n      add\n        /* \"#utility.yul\":7347:7397   */\n      add\n      swap1\n        /* \"#utility.yul\":7136:7403   */\n      jump\t// out\n        /* \"#utility.yul\":7408:7767   */\n    tag_71:\n        /* \"#utility.yul\":7595:7597   */\n      0x40\n        /* \"#utility.yul\":7584:7593   */\n      dup2\n        /* \"#utility.yul\":7577:7598   */\n      mstore\n        /* \"#utility.yul\":7558:7562   */\n      0x00\n        /* \"#utility.yul\":7615:7677   */\n      tag_248\n        /* \"#utility.yul\":7673:7675   */\n      0x40\n        /* \"#utility.yul\":7662:7671   */\n      dup4\n        /* \"#utility.yul\":7658:7676   */\n      add\n        /* \"#utility.yul\":7650:7656   */\n      dup6\n        /* \"#utility.yul\":7642:7648   */\n      dup8\n        /* \"#utility.yul\":7615:7677   */\n      tag_182\n      jump\t// in\n    tag_248:\n        /* \"#utility.yul\":7607:7677   */\n      swap1\n      pop\n      sub(shl(0x80, 0x01), 0x01)\n        /* \"#utility.yul\":7717:7723   */\n      dup4\n        /* \"#utility.yul\":7713:7760   */\n      and\n        /* \"#utility.yul\":7708:7710   */\n      0x20\n        /* \"#utility.yul\":7697:7706   */\n      dup4\n        /* \"#utility.yul\":7693:7711   */\n      add\n        /* \"#utility.yul\":7686:7761   */\n      mstore\n        /* \"#utility.yul\":7408:7767   */\n      swap5\n      swap4\n      pop\n      pop\n      pop\n      pop\n      jump\t// out\n        /* \"#utility.yul\":7772:8019   */\n    tag_74:\n        /* \"#utility.yul\":7931:7933   */\n      0x20\n        /* \"#utility.yul\":7920:7929   */\n      dup2\n        /* \"#utility.yul\":7913:7934   */\n      mstore\n        /* \"#utility.yul\":7894:7898   */\n      0x00\n        /* \"#utility.yul\":7951:8013   */\n      tag_250\n        /* \"#utility.yul\":8009:8011   */\n      0x20\n        /* \"#utility.yul\":7998:8007   */\n      dup4\n        /* \"#utility.yul\":7994:8012   */\n      add\n        /* \"#utility.yul\":7986:7992   */\n      dup5\n        /* \"#utility.yul\":7978:7984   */\n      dup7\n        /* \"#utility.yul\":7951:8013   */\n      tag_182\n      jump\t// in\n    tag_250:\n        /* \"#utility.yul\":7943:8013   */\n      swap5\n        /* \"#utility.yul\":7772:8019   */\n      swap4\n      pop\n      pop\n      pop\n      pop\n      jump\t// out\n\n    auxdata: 0xa26469706673582212209944a08a3b14e36af66e18303894fdeecc92759af7f21b7be41fc933a27f6ca264736f6c634300081e0033\n}\n",
				"bytecode": {
					"linkReferences": {},
					"object": "6080604052348015600e575f5ffd5b50610fef8061001c5f395ff3fe608060405234801561000f575f5ffd5b506004361061009b575f3560e01c8063715018a611610063578063715018a61461012f578063832dbdd9146101375780638da5cb5b14610162578063987ee1561461016a578063f2fde38b1461018a575f5ffd5b80630d07e9101461009f57806311adcf32146100b4578063241481d3146100c7578063485cc955146100da5780635215608b146100ed575b5f5ffd5b6100b26100ad366004610b9a565b61019d565b005b6100b26100c2366004610bff565b61029f565b6100b26100d5366004610b9a565b61047c565b6100b26100e8366004610cdf565b610570565b61011a6100fb366004610b9a565b6001600160a01b039081165f9081526020819052604090205416151590565b60405190151581526020015b60405180910390f35b6100b26106d5565b60015461014a906001600160a01b031681565b6040516001600160a01b039091168152602001610126565b61014a6106e8565b61017d610178366004610b9a565b610716565b6040516101269190610d3e565b6100b2610198366004610b9a565b610a39565b6001546001600160a01b031633148015906101d157506101bb6106e8565b6001600160a01b0316336001600160a01b031614155b156101ef5760405163faeea92d60e01b815260040160405180910390fd5b6001600160a01b038181165f908152602081905260409020541661022657604051636530af2360e01b815260040160405180910390fd5b6001600160a01b0381165f908152602081905260409020600581015460ff1661029b5760058101805460ff191660019081179091556040519081526001600160a01b038316907f27583a161eef08fb4bd59931b3e7993e8ea1902767c936bc2bd1d938c82b3f51906020015b60405180910390a25b5050565b6001546001600160a01b031633146102ca5760405163faeea92d60e01b815260040160405180910390fd5b6001600160a01b0389166102f15760405163237ef5ab60e11b815260040160405180910390fd5b5f87900361031257604051631235231360e31b815260040160405180910390fd5b6001600160a01b03808a165f81815260208190526040902080546001600160a01b0319811690921781559116156001820161034e8a8c83610e90565b506002820161035e888a83610e90565b506003820161036e868883610e90565b506004820161037e848683610e90565b50801561042b576001826005015f6101000a81548160ff021916908315150217905550428260050160016101000a8154816001600160801b0302191690836001600160801b031602179055508a6001600160a01b03167f606649d52f1c4a1bd149734a160b5e6cddae125f8c4c4966c91872e1f6b0389b8b8b8560050160019054906101000a90046001600160801b031660405161041e93929190610f72565b60405180910390a261046f565b8a6001600160a01b03167f9ab5b01c08788936fb2b48da858665afe9fa06d32e17dc49e0510c24ba05c9838b8b604051610466929190610f9e565b60405180910390a25b5050505050505050505050565b6001546001600160a01b031633148015906104b0575061049a6106e8565b6001600160a01b0316336001600160a01b031614155b156104ce5760405163faeea92d60e01b815260040160405180910390fd5b6001600160a01b038181165f908152602081905260409020541661050557604051636530af2360e01b815260040160405180910390fd5b6001600160a01b0381165f908152602081905260409020600581015460ff161561029b5760058101805460ff191690556040515f81526001600160a01b038316907f27583a161eef08fb4bd59931b3e7993e8ea1902767c936bc2bd1d938c82b3f5190602001610292565b7ff0c57e16840df040f15088dc2f81fe391c3923bec73e23a9662efc9c229c6a008054600160401b810460ff16159067ffffffffffffffff165f811580156105b55750825b90505f8267ffffffffffffffff1660011480156105d15750303b155b9050811580156105df575080155b156105fd5760405163f92ee8a960e01b815260040160405180910390fd5b845467ffffffffffffffff19166001178555831561062757845460ff60401b1916600160401b1785555b6001600160a01b038716158061064457506001600160a01b038616155b156106625760405163237ef5ab60e11b815260040160405180910390fd5b61066b86610a7b565b600180546001600160a01b0319166001600160a01b03891617905583156106cc57845460ff60401b19168555604051600181527fc7f505b2f371ae2175ee4913f4499e1f2633a7b5936321eed1cdaeb6115181d29060200160405180910390a15b50505050505050565b6106dd610a8c565b6106e65f610abe565b565b7f9016d09d72d40fdae2fd8ceac6b6234c7706214fd39c1cd1e609a0528c199300546001600160a01b031690565b6107676040518060e001604052805f6001600160a01b03168152602001606081526020016060815260200160608152602001606081526020015f151581526020015f6001600160801b031681525090565b6001600160a01b038281165f908152602081905260409020541661079e57604051636530af2360e01b815260040160405180910390fd5b6001600160a01b038083165f9081526020818152604091829020825160e0810190935280549093168252600183018054929392918401916107de90610e0c565b80601f016020809104026020016040519081016040528092919081815260200182805461080a90610e0c565b80156108555780601f1061082c57610100808354040283529160200191610855565b820191905f5260205f20905b81548152906001019060200180831161083857829003601f168201915b5050505050815260200160028201805461086e90610e0c565b80601f016020809104026020016040519081016040528092919081815260200182805461089a90610e0c565b80156108e55780601f106108bc576101008083540402835291602001916108e5565b820191905f5260205f20905b8154815290600101906020018083116108c857829003601f168201915b505050505081526020016003820180546108fe90610e0c565b80601f016020809104026020016040519081016040528092919081815260200182805461092a90610e0c565b80156109755780601f1061094c57610100808354040283529160200191610975565b820191905f5260205f20905b81548152906001019060200180831161095857829003601f168201915b5050505050815260200160048201805461098e90610e0c565b80601f01602080910402602001604051908101604052809291908181526020018280546109ba90610e0c565b8015610a055780601f106109dc57610100808354040283529160200191610a05565b820191905f5260205f20905b8154815290600101906020018083116109e857829003601f168201915b50505091835250506005919091015460ff81161515602083015261010090046001600160801b031660409091015292915050565b610a41610a8c565b6001600160a01b038116610a6f57604051631e4fbdf760e01b81525f60048201526024015b60405180910390fd5b610a7881610abe565b50565b610a83610b2e565b610a7881610b77565b33610a956106e8565b6001600160a01b0316146106e65760405163118cdaa760e01b8152336004820152602401610a66565b7f9016d09d72d40fdae2fd8ceac6b6234c7706214fd39c1cd1e609a0528c19930080546001600160a01b031981166001600160a01b03848116918217845560405192169182907f8be0079c531659141344cd1fd0a4f28419497f9722a3daafe3b4186f6b6457e0905f90a3505050565b7ff0c57e16840df040f15088dc2f81fe391c3923bec73e23a9662efc9c229c6a0054600160401b900460ff166106e657604051631afcd79f60e31b815260040160405180910390fd5b610a41610b2e565b80356001600160a01b0381168114610b95575f5ffd5b919050565b5f60208284031215610baa575f5ffd5b610bb382610b7f565b9392505050565b5f5f83601f840112610bca575f5ffd5b50813567ffffffffffffffff811115610be1575f5ffd5b602083019150836020828501011115610bf8575f5ffd5b9250929050565b5f5f5f5f5f5f5f5f5f60a08a8c031215610c17575f5ffd5b610c208a610b7f565b985060208a013567ffffffffffffffff811115610c3b575f5ffd5b610c478c828d01610bba565b90995097505060408a013567ffffffffffffffff811115610c66575f5ffd5b610c728c828d01610bba565b90975095505060608a013567ffffffffffffffff811115610c91575f5ffd5b610c9d8c828d01610bba565b90955093505060808a013567ffffffffffffffff811115610cbc575f5ffd5b610cc88c828d01610bba565b915080935050809150509295985092959850929598565b5f5f60408385031215610cf0575f5ffd5b610cf983610b7f565b9150610d0760208401610b7f565b90509250929050565b5f81518084528060208401602086015e5f602082860101526020601f19601f83011685010191505092915050565b602080825282516001600160a01b03168282015282015160e060408301525f90610d6c610100840182610d10565b90506040840151601f19848303016060850152610d898282610d10565b9150506060840151601f19848303016080850152610da78282610d10565b9150506080840151601f198483030160a0850152610dc58282610d10565b91505060a0840151610ddb60c085018215159052565b5060c08401516001600160801b03811660e0850152509392505050565b634e487b7160e01b5f52604160045260245ffd5b600181811c90821680610e2057607f821691505b602082108103610e3e57634e487b7160e01b5f52602260045260245ffd5b50919050565b601f821115610e8b57805f5260205f20601f840160051c81016020851015610e695750805b601f840160051c820191505b81811015610e88575f8155600101610e75565b50505b505050565b67ffffffffffffffff831115610ea857610ea8610df8565b610ebc83610eb68354610e0c565b83610e44565b5f601f841160018114610eed575f8515610ed65750838201355b5f19600387901b1c1916600186901b178355610e88565b5f83815260208120601f198716915b82811015610f1c5786850135825560209485019460019092019101610efc565b5086821015610f38575f1960f88860031b161c19848701351681555b505060018560011b0183555050505050565b81835281816020850137505f828201602090810191909152601f909101601f19169091010190565b604081525f610f85604083018587610f4a565b90506001600160801b0383166020830152949350505050565b602081525f610fb1602083018486610f4a565b94935050505056fea26469706673582212209944a08a3b14e36af66e18303894fdeecc92759af7f21b7be41fc933a27f6ca264736f6c634300081e0033",
					"opcodes": "PUSH1 0x80 PUSH1 0x40 MSTORE CALLVALUE DUP1 ISZERO PUSH1 0xE JUMPI PUSH0 PUSH0 REVERT JUMPDEST POP PUSH2 0xFEF DUP1 PUSH2 0x1C PUSH0 CODECOPY PUSH0 RETURN INVALID PUSH1 0x80 PUSH1 0x40 MSTORE CALLVALUE DUP1 ISZERO PUSH2 0xF JUMPI PUSH0 PUSH0 REVERT JUMPDEST POP PUSH1 0x4 CALLDATASIZE LT PUSH2 0x9B JUMPI PUSH0 CALLDATALOAD PUSH1 0xE0 SHR DUP1 PUSH4 0x715018A6 GT PUSH2 0x63 JUMPI DUP1 PUSH4 0x715018A6 EQ PUSH2 0x12F JUMPI DUP1 PUSH4 0x832DBDD9 EQ PUSH2 0x137 JUMPI DUP1 PUSH4 0x8DA5CB5B EQ PUSH2 0x162 JUMPI DUP1 PUSH4 0x987EE156 EQ PUSH2 0x16A JUMPI DUP1 PUSH4 0xF2FDE38B EQ PUSH2 0x18A JUMPI PUSH0 PUSH0 REVERT JUMPDEST DUP1 PUSH4 0xD07E910 EQ PUSH2 0x9F JUMPI DUP1 PUSH4 0x11ADCF32 EQ PUSH2 0xB4 JUMPI DUP1 PUSH4 0x241481D3 EQ PUSH2 0xC7 JUMPI DUP1 PUSH4 0x485CC955 EQ PUSH2 0xDA JUMPI DUP1 PUSH4 0x5215608B EQ PUSH2 0xED JUMPI JUMPDEST PUSH0 PUSH0 REVERT JUMPDEST PUSH2 0xB2 PUSH2 0xAD CALLDATASIZE PUSH1 0x4 PUSH2 0xB9A JUMP JUMPDEST PUSH2 0x19D JUMP JUMPDEST STOP JUMPDEST PUSH2 0xB2 PUSH2 0xC2 CALLDATASIZE PUSH1 0x4 PUSH2 0xBFF JUMP JUMPDEST PUSH2 0x29F JUMP JUMPDEST PUSH2 0xB2 PUSH2 0xD5 CALLDATASIZE PUSH1 0x4 PUSH2 0xB9A JUMP JUMPDEST PUSH2 0x47C JUMP JUMPDEST PUSH2 0xB2 PUSH2 0xE8 CALLDATASIZE PUSH1 0x4 PUSH2 0xCDF JUMP JUMPDEST PUSH2 0x570 JUMP JUMPDEST PUSH2 0x11A PUSH2 0xFB CALLDATASIZE PUSH1 0x4 PUSH2 0xB9A JUMP JUMPDEST PUSH1 0x1 PUSH1 0x1 PUSH1 0xA0 SHL SUB SWAP1 DUP2 AND PUSH0 SWAP1 DUP2 MSTORE PUSH1 0x20 DUP2 SWAP1 MSTORE PUSH1 0x40 SWAP1 KECCAK256 SLOAD AND ISZERO ISZERO SWAP1 JUMP JUMPDEST PUSH1 0x40 MLOAD SWAP1 ISZERO ISZERO DUP2 MSTORE PUSH1 0x20 ADD JUMPDEST PUSH1 0x40 MLOAD DUP1 SWAP2 SUB SWAP1 RETURN JUMPDEST PUSH2 0xB2 PUSH2 0x6D5 JUMP JUMPDEST PUSH1 0x1 SLOAD PUSH2 0x14A SWAP1 PUSH1 0x1 PUSH1 0x1 PUSH1 0xA0 SHL SUB AND DUP2 JUMP JUMPDEST PUSH1 0x40 MLOAD PUSH1 0x1 PUSH1 0x1 PUSH1 0xA0 SHL SUB SWAP1 SWAP2 AND DUP2 MSTORE PUSH1 0x20 ADD PUSH2 0x126 JUMP JUMPDEST PUSH2 0x14A PUSH2 0x6E8 JUMP JUMPDEST PUSH2 0x17D PUSH2 0x178 CALLDATASIZE PUSH1 0x4 PUSH2 0xB9A JUMP JUMPDEST PUSH2 0x716 JUMP JUMPDEST PUSH1 0x40 MLOAD PUSH2 0x126 SWAP2 SWAP1 PUSH2 0xD3E JUMP JUMPDEST PUSH2 0xB2 PUSH2 0x198 CALLDATASIZE PUSH1 0x4 PUSH2 0xB9A JUMP JUMPDEST PUSH2 0xA39 JUMP JUMPDEST PUSH1 0x1 SLOAD PUSH1 0x1 PUSH1 0x1 PUSH1 0xA0 SHL SUB AND CALLER EQ DUP1 ISZERO SWAP1 PUSH2 0x1D1 JUMPI POP PUSH2 0x1BB PUSH2 0x6E8 JUMP JUMPDEST PUSH1 0x1 PUSH1 0x1 PUSH1 0xA0 SHL SUB AND CALLER PUSH1 0x1 PUSH1 0x1 PUSH1 0xA0 SHL SUB AND EQ ISZERO JUMPDEST ISZERO PUSH2 0x1EF JUMPI PUSH1 0x40 MLOAD PUSH4 0xFAEEA92D PUSH1 0xE0 SHL DUP2 MSTORE PUSH1 0x4 ADD PUSH1 0x40 MLOAD DUP1 SWAP2 SUB SWAP1 REVERT JUMPDEST PUSH1 0x1 PUSH1 0x1 PUSH1 0xA0 SHL SUB DUP2 DUP2 AND PUSH0 SWAP1 DUP2 MSTORE PUSH1 0x20 DUP2 SWAP1 MSTORE PUSH1 0x40 SWAP1 KECCAK256 SLOAD AND PUSH2 0x226 JUMPI PUSH1 0x40 MLOAD PUSH4 0x6530AF23 PUSH1 0xE0 SHL DUP2 MSTORE PUSH1 0x4 ADD PUSH1 0x40 MLOAD DUP1 SWAP2 SUB SWAP1 REVERT JUMPDEST PUSH1 0x1 PUSH1 0x1 PUSH1 0xA0 SHL SUB DUP2 AND PUSH0 SWAP1 DUP2 MSTORE PUSH1 0x20 DUP2 SWAP1 MSTORE PUSH1 0x40 SWAP1 KECCAK256 PUSH1 0x5 DUP2 ADD SLOAD PUSH1 0xFF AND PUSH2 0x29B JUMPI PUSH1 0x5 DUP2 ADD DUP1 SLOAD PUSH1 0xFF NOT AND PUSH1 0x1 SWAP1 DUP2 OR SWAP1 SWAP2 SSTORE PUSH1 0x40 MLOAD SWAP1 DUP2 MSTORE PUSH1 0x1 PUSH1 0x1 PUSH1 0xA0 SHL SUB DUP4 AND SWAP1 PUSH32 0x27583A161EEF08FB4BD59931B3E7993E8EA1902767C936BC2BD1D938C82B3F51 SWAP1 PUSH1 0x20 ADD JUMPDEST PUSH1 0x40 MLOAD DUP1 SWAP2 SUB SWAP1 LOG2 JUMPDEST POP POP JUMP JUMPDEST PUSH1 0x1 SLOAD PUSH1 0x1 PUSH1 0x1 PUSH1 0xA0 SHL SUB AND CALLER EQ PUSH2 0x2CA JUMPI PUSH1 0x40 MLOAD PUSH4 0xFAEEA92D PUSH1 0xE0 SHL DUP2 MSTORE PUSH1 0x4 ADD PUSH1 0x40 MLOAD DUP1 SWAP2 SUB SWAP1 REVERT JUMPDEST PUSH1 0x1 PUSH1 0x1 PUSH1 0xA0 SHL SUB DUP10 AND PUSH2 0x2F1 JUMPI PUSH1 0x40 MLOAD PUSH4 0x237EF5AB PUSH1 0xE1 SHL DUP2 MSTORE PUSH1 0x4 ADD PUSH1 0x40 MLOAD DUP1 SWAP2 SUB SWAP1 REVERT JUMPDEST PUSH0 DUP8 SWAP1 SUB PUSH2 0x312 JUMPI PUSH1 0x40 MLOAD PUSH4 0x12352313 PUSH1 0xE3 SHL DUP2 MSTORE PUSH1 0x4 ADD PUSH1 0x40 MLOAD DUP1 SWAP2 SUB SWAP1 REVERT JUMPDEST PUSH1 0x1 PUSH1 0x1 PUSH1 0xA0 SHL SUB DUP1 DUP11 AND PUSH0 DUP2 DUP2 MSTORE PUSH1 0x20 DUP2 SWAP1 MSTORE PUSH1 0x40 SWAP1 KECCAK256 DUP1 SLOAD PUSH1 0x1 PUSH1 0x1 PUSH1 0xA0 SHL SUB NOT DUP2 AND SWAP1 SWAP3 OR DUP2 SSTORE SWAP2 AND ISZERO PUSH1 0x1 DUP3 ADD PUSH2 0x34E DUP11 DUP13 DUP4 PUSH2 0xE90 JUMP JUMPDEST POP PUSH1 0x2 DUP3 ADD PUSH2 0x35E DUP9 DUP11 DUP4 PUSH2 0xE90 JUMP JUMPDEST POP PUSH1 0x3 DUP3 ADD PUSH2 0x36E DUP7 DUP9 DUP4 PUSH2 0xE90 JUMP JUMPDEST POP PUSH1 0x4 DUP3 ADD PUSH2 0x37E DUP5 DUP7 DUP4 PUSH2 0xE90 JUMP JUMPDEST POP DUP1 ISZERO PUSH2 0x42B JUMPI PUSH1 0x1 DUP3 PUSH1 0x5 ADD PUSH0 PUSH2 0x100 EXP DUP2 SLOAD DUP2 PUSH1 0xFF MUL NOT AND SWAP1 DUP4 ISZERO ISZERO MUL OR SWAP1 SSTORE POP TIMESTAMP DUP3 PUSH1 0x5 ADD PUSH1 0x1 PUSH2 0x100 EXP DUP2 SLOAD DUP2 PUSH1 0x1 PUSH1 0x1 PUSH1 0x80 SHL SUB MUL NOT AND SWAP1 DUP4 PUSH1 0x1 PUSH1 0x1 PUSH1 0x80 SHL SUB AND MUL OR SWAP1 SSTORE POP DUP11 PUSH1 0x1 PUSH1 0x1 PUSH1 0xA0 SHL SUB AND PUSH32 0x606649D52F1C4A1BD149734A160B5E6CDDAE125F8C4C4966C91872E1F6B0389B DUP12 DUP12 DUP6 PUSH1 0x5 ADD PUSH1 0x1 SWAP1 SLOAD SWAP1 PUSH2 0x100 EXP SWAP1 DIV PUSH1 0x1 PUSH1 0x1 PUSH1 0x80 SHL SUB AND PUSH1 0x40 MLOAD PUSH2 0x41E SWAP4 SWAP3 SWAP2 SWAP1 PUSH2 0xF72 JUMP JUMPDEST PUSH1 0x40 MLOAD DUP1 SWAP2 SUB SWAP1 LOG2 PUSH2 0x46F JUMP JUMPDEST DUP11 PUSH1 0x1 PUSH1 0x1 PUSH1 0xA0 SHL SUB AND PUSH32 0x9AB5B01C08788936FB2B48DA858665AFE9FA06D32E17DC49E0510C24BA05C983 DUP12 DUP12 PUSH1 0x40 MLOAD PUSH2 0x466 SWAP3 SWAP2 SWAP1 PUSH2 0xF9E JUMP JUMPDEST PUSH1 0x40 MLOAD DUP1 SWAP2 SUB SWAP1 LOG2 JUMPDEST POP POP POP POP POP POP POP POP POP POP POP JUMP JUMPDEST PUSH1 0x1 SLOAD PUSH1 0x1 PUSH1 0x1 PUSH1 0xA0 SHL SUB AND CALLER EQ DUP1 ISZERO SWAP1 PUSH2 0x4B0 JUMPI POP PUSH2 0x49A PUSH2 0x6E8 JUMP JUMPDEST PUSH1 0x1 PUSH1 0x1 PUSH1 0xA0 SHL SUB AND CALLER PUSH1 0x1 PUSH1 0x1 PUSH1 0xA0 SHL SUB AND EQ ISZERO JUMPDEST ISZERO PUSH2 0x4CE JUMPI PUSH1 0x40 MLOAD PUSH4 0xFAEEA92D PUSH1 0xE0 SHL DUP2 MSTORE PUSH1 0x4 ADD PUSH1 0x40 MLOAD DUP1 SWAP2 SUB SWAP1 REVERT JUMPDEST PUSH1 0x1 PUSH1 0x1 PUSH1 0xA0 SHL SUB DUP2 DUP2 AND PUSH0 SWAP1 DUP2 MSTORE PUSH1 0x20 DUP2 SWAP1 MSTORE PUSH1 0x40 SWAP1 KECCAK256 SLOAD AND PUSH2 0x505 JUMPI PUSH1 0x40 MLOAD PUSH4 0x6530AF23 PUSH1 0xE0 SHL DUP2 MSTORE PUSH1 0x4 ADD PUSH1 0x40 MLOAD DUP1 SWAP2 SUB SWAP1 REVERT JUMPDEST PUSH1 0x1 PUSH1 0x1 PUSH1 0xA0 SHL SUB DUP2 AND PUSH0 SWAP1 DUP2 MSTORE PUSH1 0x20 DUP2 SWAP1 MSTORE PUSH1 0x40 SWAP1 KECCAK256 PUSH1 0x5 DUP2 ADD SLOAD PUSH1 0xFF AND ISZERO PUSH2 0x29B JUMPI PUSH1 0x5 DUP2 ADD DUP1 SLOAD PUSH1 0xFF NOT AND SWAP1 SSTORE PUSH1 0x40 MLOAD PUSH0 DUP2 MSTORE PUSH1 0x1 PUSH1 0x1 PUSH1 0xA0 SHL SUB DUP4 AND SWAP1 PUSH32 0x27583A161EEF08FB4BD59931B3E7993E8EA1902767C936BC2BD1D938C82B3F51 SWAP1 PUSH1 0x20 ADD PUSH2 0x292 JUMP JUMPDEST PUSH32 0xF0C57E16840DF040F15088DC2F81FE391C3923BEC73E23A9662EFC9C229C6A00 DUP1 SLOAD PUSH1 0x1 PUSH1 0x40 SHL DUP2 DIV PUSH1 0xFF AND ISZERO SWAP1 PUSH8 0xFFFFFFFFFFFFFFFF AND PUSH0 DUP2 ISZERO DUP1 ISZERO PUSH2 0x5B5 JUMPI POP DUP3 JUMPDEST SWAP1 POP PUSH0 DUP3 PUSH8 0xFFFFFFFFFFFFFFFF AND PUSH1 0x1 EQ DUP1 ISZERO PUSH2 0x5D1 JUMPI POP ADDRESS EXTCODESIZE ISZERO JUMPDEST SWAP1 POP DUP2 ISZERO DUP1 ISZERO PUSH2 0x5DF JUMPI POP DUP1 ISZERO JUMPDEST ISZERO PUSH2 0x5FD JUMPI PUSH1 0x40 MLOAD PUSH4 0xF92EE8A9 PUSH1 0xE0 SHL DUP2 MSTORE PUSH1 0x4 ADD PUSH1 0x40 MLOAD DUP1 SWAP2 SUB SWAP1 REVERT JUMPDEST DUP5 SLOAD PUSH8 0xFFFFFFFFFFFFFFFF NOT AND PUSH1 0x1 OR DUP6 SSTORE DUP4 ISZERO PUSH2 0x627 JUMPI DUP5 SLOAD PUSH1 0xFF PUSH1 0x40 SHL NOT AND PUSH1 0x1 PUSH1 0x40 SHL OR DUP6 SSTORE JUMPDEST PUSH1 0x1 PUSH1 0x1 PUSH1 0xA0 SHL SUB DUP8 AND ISZERO DUP1 PUSH2 0x644 JUMPI POP PUSH1 0x1 PUSH1 0x1 PUSH1 0xA0 SHL SUB DUP7 AND ISZERO JUMPDEST ISZERO PUSH2 0x662 JUMPI PUSH1 0x40 MLOAD PUSH4 0x237EF5AB PUSH1 0xE1 SHL DUP2 MSTORE PUSH1 0x4 ADD PUSH1 0x40 MLOAD DUP1 SWAP2 SUB SWAP1 REVERT JUMPDEST PUSH2 0x66B DUP7 PUSH2 0xA7B JUMP JUMPDEST PUSH1 0x1 DUP1 SLOAD PUSH1 0x1 PUSH1 0x1 PUSH1 0xA0 SHL SUB NOT AND PUSH1 0x1 PUSH1 0x1 PUSH1 0xA0 SHL SUB DUP10 AND OR SWAP1 SSTORE DUP4 ISZERO PUSH2 0x6CC JUMPI DUP5 SLOAD PUSH1 0xFF PUSH1 0x40 SHL NOT AND DUP6 SSTORE PUSH1 0x40 MLOAD PUSH1 0x1 DUP2 MSTORE PUSH32 0xC7F505B2F371AE2175EE4913F4499E1F2633A7B5936321EED1CDAEB6115181D2 SWAP1 PUSH1 0x20 ADD PUSH1 0x40 MLOAD DUP1 SWAP2 SUB SWAP1 LOG1 JUMPDEST POP POP POP POP POP POP POP JUMP JUMPDEST PUSH2 0x6DD PUSH2 0xA8C JUMP JUMPDEST PUSH2 0x6E6 PUSH0 PUSH2 0xABE JUMP JUMPDEST JUMP JUMPDEST PUSH32 0x9016D09D72D40FDAE2FD8CEAC6B6234C7706214FD39C1CD1E609A0528C199300 SLOAD PUSH1 0x1 PUSH1 0x1 PUSH1 0xA0 SHL SUB AND SWAP1 JUMP JUMPDEST PUSH2 0x767 PUSH1 0x40 MLOAD DUP1 PUSH1 0xE0 ADD PUSH1 0x40 MSTORE DUP1 PUSH0 PUSH1 0x1 PUSH1 0x1 PUSH1 0xA0 SHL SUB AND DUP2 MSTORE PUSH1 0x20 ADD PUSH1 0x60 DUP2 MSTORE PUSH1 0x20 ADD PUSH1 0x60 DUP2 MSTORE PUSH1 0x20 ADD PUSH1 0x60 DUP2 MSTORE PUSH1 0x20 ADD PUSH1 0x60 DUP2 MSTORE PUSH1 0x20 ADD PUSH0 ISZERO ISZERO DUP2 MSTORE PUSH1 0x20 ADD PUSH0 PUSH1 0x1 PUSH1 0x1 PUSH1 0x80 SHL SUB AND DUP2 MSTORE POP SWAP1 JUMP JUMPDEST PUSH1 0x1 PUSH1 0x1 PUSH1 0xA0 SHL SUB DUP3 DUP2 AND PUSH0 SWAP1 DUP2 MSTORE PUSH1 0x20 DUP2 SWAP1 MSTORE PUSH1 0x40 SWAP1 KECCAK256 SLOAD AND PUSH2 0x79E JUMPI PUSH1 0x40 MLOAD PUSH4 0x6530AF23 PUSH1 0xE0 SHL DUP2 MSTORE PUSH1 0x4 ADD PUSH1 0x40 MLOAD DUP1 SWAP2 SUB SWAP1 REVERT JUMPDEST PUSH1 0x1 PUSH1 0x1 PUSH1 0xA0 SHL SUB DUP1 DUP4 AND PUSH0 SWAP1 DUP2 MSTORE PUSH1 0x20 DUP2 DUP2 MSTORE PUSH1 0x40 SWAP2 DUP3 SWAP1 KECCAK256 DUP3 MLOAD PUSH1 0xE0 DUP2 ADD SWAP1 SWAP4 MSTORE DUP1 SLOAD SWAP1 SWAP4 AND DUP3 MSTORE PUSH1 0x1 DUP4 ADD DUP1 SLOAD SWAP3 SWAP4 SWAP3 SWAP2 DUP5 ADD SWAP2 PUSH2 0x7DE SWAP1 PUSH2 0xE0C JUMP JUMPDEST DUP1 PUSH1 0x1F ADD PUSH1 0x20 DUP1 SWAP2 DIV MUL PUSH1 0x20 ADD PUSH1 0x40 MLOAD SWAP1 DUP2 ADD PUSH1 0x40 MSTORE DUP1 SWAP3 SWAP2 SWAP1 DUP2 DUP2 MSTORE PUSH1 0x20 ADD DUP3 DUP1 SLOAD PUSH2 0x80A SWAP1 PUSH2 0xE0C JUMP JUMPDEST DUP1 ISZERO PUSH2 0x855 JUMPI DUP1 PUSH1 0x1F LT PUSH2 0x82C JUMPI PUSH2 0x100 DUP1 DUP4 SLOAD DIV MUL DUP4 MSTORE SWAP2 PUSH1 0x20 ADD SWAP2 PUSH2 0x855 JUMP JUMPDEST DUP3 ADD SWAP2 SWAP1 PUSH0 MSTORE PUSH1 0x20 PUSH0 KECCAK256 SWAP1 JUMPDEST DUP2 SLOAD DUP2 MSTORE SWAP1 PUSH1 0x1 ADD SWAP1 PUSH1 0x20 ADD DUP1 DUP4 GT PUSH2 0x838 JUMPI DUP3 SWAP1 SUB PUSH1 0x1F AND DUP3 ADD SWAP2 JUMPDEST POP POP POP POP POP DUP2 MSTORE PUSH1 0x20 ADD PUSH1 0x2 DUP3 ADD DUP1 SLOAD PUSH2 0x86E SWAP1 PUSH2 0xE0C JUMP JUMPDEST DUP1 PUSH1 0x1F ADD PUSH1 0x20 DUP1 SWAP2 DIV MUL PUSH1 0x20 ADD PUSH1 0x40 MLOAD SWAP1 DUP2 ADD PUSH1 0x40 MSTORE DUP1 SWAP3 SWAP2 SWAP1 DUP2 DUP2 MSTORE PUSH1 0x20 ADD DUP3 DUP1 SLOAD PUSH2 0x89A SWAP1 PUSH2 0xE0C JUMP JUMPDEST DUP1 ISZERO PUSH2 0x8E5 JUMPI DUP1 PUSH1 0x1F LT PUSH2 0x8BC JUMPI PUSH2 0x100 DUP1 DUP4 SLOAD DIV MUL DUP4 MSTORE SWAP2 PUSH1 0x20 ADD SWAP2 PUSH2 0x8E5 JUMP JUMPDEST DUP3 ADD SWAP2 SWAP1 PUSH0 MSTORE PUSH1 0x20 PUSH0 KECCAK256 SWAP1 JUMPDEST DUP2 SLOAD DUP2 MSTORE SWAP1 PUSH1 0x1 ADD SWAP1 PUSH1 0x20 ADD DUP1 DUP4 GT PUSH2 0x8C8 JUMPI DUP3 SWAP1 SUB PUSH1 0x1F AND DUP3 ADD SWAP2 JUMPDEST POP POP POP POP POP DUP2 MSTORE PUSH1 0x20 ADD PUSH1 0x3 DUP3 ADD DUP1 SLOAD PUSH2 0x8FE SWAP1 PUSH2 0xE0C JUMP JUMPDEST DUP1 PUSH1 0x1F ADD PUSH1 0x20 DUP1 SWAP2 DIV MUL PUSH1 0x20 ADD PUSH1 0x40 MLOAD SWAP1 DUP2 ADD PUSH1 0x40 MSTORE DUP1 SWAP3 SWAP2 SWAP1 DUP2 DUP2 MSTORE PUSH1 0x20 ADD DUP3 DUP1 SLOAD PUSH2 0x92A SWAP1 PUSH2 0xE0C JUMP JUMPDEST DUP1 ISZERO PUSH2 0x975 JUMPI DUP1 PUSH1 0x1F LT PUSH2 0x94C JUMPI PUSH2 0x100 DUP1 DUP4 SLOAD DIV MUL DUP4 MSTORE SWAP2 PUSH1 0x20 ADD SWAP2 PUSH2 0x975 JUMP JUMPDEST DUP3 ADD SWAP2 SWAP1 PUSH0 MSTORE PUSH1 0x20 PUSH0 KECCAK256 SWAP1 JUMPDEST DUP2 SLOAD DUP2 MSTORE SWAP1 PUSH1 0x1 ADD SWAP1 PUSH1 0x20 ADD DUP1 DUP4 GT PUSH2 0x958 JUMPI DUP3 SWAP1 SUB PUSH1 0x1F AND DUP3 ADD SWAP2 JUMPDEST POP POP POP POP POP DUP2 MSTORE PUSH1 0x20 ADD PUSH1 0x4 DUP3 ADD DUP1 SLOAD PUSH2 0x98E SWAP1 PUSH2 0xE0C JUMP JUMPDEST DUP1 PUSH1 0x1F ADD PUSH1 0x20 DUP1 SWAP2 DIV MUL PUSH1 0x20 ADD PUSH1 0x40 MLOAD SWAP1 DUP2 ADD PUSH1 0x40 MSTORE DUP1 SWAP3 SWAP2 SWAP1 DUP2 DUP2 MSTORE PUSH1 0x20 ADD DUP3 DUP1 SLOAD PUSH2 0x9BA SWAP1 PUSH2 0xE0C JUMP JUMPDEST DUP1 ISZERO PUSH2 0xA05 JUMPI DUP1 PUSH1 0x1F LT PUSH2 0x9DC JUMPI PUSH2 0x100 DUP1 DUP4 SLOAD DIV MUL DUP4 MSTORE SWAP2 PUSH1 0x20 ADD SWAP2 PUSH2 0xA05 JUMP JUMPDEST DUP3 ADD SWAP2 SWAP1 PUSH0 MSTORE PUSH1 0x20 PUSH0 KECCAK256 SWAP1 JUMPDEST DUP2 SLOAD DUP2 MSTORE SWAP1 PUSH1 0x1 ADD SWAP1 PUSH1 0x20 ADD DUP1 DUP4 GT PUSH2 0x9E8 JUMPI DUP3 SWAP1 SUB PUSH1 0x1F AND DUP3 ADD SWAP2 JUMPDEST POP POP POP SWAP2 DUP4 MSTORE POP POP PUSH1 0x5 SWAP2 SWAP1 SWAP2 ADD SLOAD PUSH1 0xFF DUP2 AND ISZERO ISZERO PUSH1 0x20 DUP4 ADD MSTORE PUSH2 0x100 SWAP1 DIV PUSH1 0x1 PUSH1 0x1 PUSH1 0x80 SHL SUB AND PUSH1 0x40 SWAP1 SWAP2 ADD MSTORE SWAP3 SWAP2 POP POP JUMP JUMPDEST PUSH2 0xA41 PUSH2 0xA8C JUMP JUMPDEST PUSH1 0x1 PUSH1 0x1 PUSH1 0xA0 SHL SUB DUP2 AND PUSH2 0xA6F JUMPI PUSH1 0x40 MLOAD PUSH4 0x1E4FBDF7 PUSH1 0xE0 SHL DUP2 MSTORE PUSH0 PUSH1 0x4 DUP3 ADD MSTORE PUSH1 0x24 ADD JUMPDEST PUSH1 0x40 MLOAD DUP1 SWAP2 SUB SWAP1 REVERT JUMPDEST PUSH2 0xA78 DUP2 PUSH2 0xABE JUMP JUMPDEST POP JUMP JUMPDEST PUSH2 0xA83 PUSH2 0xB2E JUMP JUMPDEST PUSH2 0xA78 DUP2 PUSH2 0xB77 JUMP JUMPDEST CALLER PUSH2 0xA95 PUSH2 0x6E8 JUMP JUMPDEST PUSH1 0x1 PUSH1 0x1 PUSH1 0xA0 SHL SUB AND EQ PUSH2 0x6E6 JUMPI PUSH1 0x40 MLOAD PUSH4 0x118CDAA7 PUSH1 0xE0 SHL DUP2 MSTORE CALLER PUSH1 0x4 DUP3 ADD MSTORE PUSH1 0x24 ADD PUSH2 0xA66 JUMP JUMPDEST PUSH32 0x9016D09D72D40FDAE2FD8CEAC6B6234C7706214FD39C1CD1E609A0528C199300 DUP1 SLOAD PUSH1 0x1 PUSH1 0x1 PUSH1 0xA0 SHL SUB NOT DUP2 AND PUSH1 0x1 PUSH1 0x1 PUSH1 0xA0 SHL SUB DUP5 DUP2 AND SWAP2 DUP3 OR DUP5 SSTORE PUSH1 0x40 MLOAD SWAP3 AND SWAP2 DUP3 SWAP1 PUSH32 0x8BE0079C531659141344CD1FD0A4F28419497F9722A3DAAFE3B4186F6B6457E0 SWAP1 PUSH0 SWAP1 LOG3 POP POP POP JUMP JUMPDEST PUSH32 0xF0C57E16840DF040F15088DC2F81FE391C3923BEC73E23A9662EFC9C229C6A00 SLOAD PUSH1 0x1 PUSH1 0x40 SHL SWAP1 DIV PUSH1 0xFF AND PUSH2 0x6E6 JUMPI PUSH1 0x40 MLOAD PUSH4 0x1AFCD79F PUSH1 0xE3 SHL DUP2 MSTORE PUSH1 0x4 ADD PUSH1 0x40 MLOAD DUP1 SWAP2 SUB SWAP1 REVERT JUMPDEST PUSH2 0xA41 PUSH2 0xB2E JUMP JUMPDEST DUP1 CALLDATALOAD PUSH1 0x1 PUSH1 0x1 PUSH1 0xA0 SHL SUB DUP2 AND DUP2 EQ PUSH2 0xB95 JUMPI PUSH0 PUSH0 REVERT JUMPDEST SWAP2 SWAP1 POP JUMP JUMPDEST PUSH0 PUSH1 0x20 DUP3 DUP5 SUB SLT ISZERO PUSH2 0xBAA JUMPI PUSH0 PUSH0 REVERT JUMPDEST PUSH2 0xBB3 DUP3 PUSH2 0xB7F JUMP JUMPDEST SWAP4 SWAP3 POP POP POP JUMP JUMPDEST PUSH0 PUSH0 DUP4 PUSH1 0x1F DUP5 ADD SLT PUSH2 0xBCA JUMPI PUSH0 PUSH0 REVERT JUMPDEST POP DUP2 CALLDATALOAD PUSH8 0xFFFFFFFFFFFFFFFF DUP2 GT ISZERO PUSH2 0xBE1 JUMPI PUSH0 PUSH0 REVERT JUMPDEST PUSH1 0x20 DUP4 ADD SWAP2 POP DUP4 PUSH1 0x20 DUP3 DUP6 ADD ADD GT ISZERO PUSH2 0xBF8 JUMPI PUSH0 PUSH0 REVERT JUMPDEST SWAP3 POP SWAP3 SWAP1 POP JUMP JUMPDEST PUSH0 PUSH0 PUSH0 PUSH0 PUSH0 PUSH0 PUSH0 PUSH0 PUSH0 PUSH1 0xA0 DUP11 DUP13 SUB SLT ISZERO PUSH2 0xC17 JUMPI PUSH0 PUSH0 REVERT JUMPDEST PUSH2 0xC20 DUP11 PUSH2 0xB7F JUMP JUMPDEST SWAP9 POP PUSH1 0x20 DUP11 ADD CALLDATALOAD PUSH8 0xFFFFFFFFFFFFFFFF DUP2 GT ISZERO PUSH2 0xC3B JUMPI PUSH0 PUSH0 REVERT JUMPDEST PUSH2 0xC47 DUP13 DUP3 DUP14 ADD PUSH2 0xBBA JUMP JUMPDEST SWAP1 SWAP10 POP SWAP8 POP POP PUSH1 0x40 DUP11 ADD CALLDATALOAD PUSH8 0xFFFFFFFFFFFFFFFF DUP2 GT ISZERO PUSH2 0xC66 JUMPI PUSH0 PUSH0 REVERT JUMPDEST PUSH2 0xC72 DUP13 DUP3 DUP14 ADD PUSH2 0xBBA JUMP JUMPDEST SWAP1 SWAP8 POP SWAP6 POP POP PUSH1 0x60 DUP11 ADD CALLDATALOAD PUSH8 0xFFFFFFFFFFFFFFFF DUP2 GT ISZERO PUSH2 0xC91 JUMPI PUSH0 PUSH0 REVERT JUMPDEST PUSH2 0xC9D DUP13 DUP3 DUP14 ADD PUSH2 0xBBA JUMP JUMPDEST SWAP1 SWAP6 POP SWAP4 POP POP PUSH1 0x80 DUP11 ADD CALLDATALOAD PUSH8 0xFFFFFFFFFFFFFFFF DUP2 GT ISZERO PUSH2 0xCBC JUMPI PUSH0 PUSH0 REVERT JUMPDEST PUSH2 0xCC8 DUP13 DUP3 DUP14 ADD PUSH2 0xBBA JUMP JUMPDEST SWAP2 POP DUP1 SWAP4 POP POP DUP1 SWAP2 POP POP SWAP3 SWAP6 SWAP9 POP SWAP3 SWAP6 SWAP9 POP SWAP3 SWAP6 SWAP9 JUMP JUMPDEST PUSH0 PUSH0 PUSH1 0x40 DUP4 DUP6 SUB SLT ISZERO PUSH2 0xCF0 JUMPI PUSH0 PUSH0 REVERT JUMPDEST PUSH2 0xCF9 DUP4 PUSH2 0xB7F JUMP JUMPDEST SWAP2 POP PUSH2 0xD07 PUSH1 0x20 DUP5 ADD PUSH2 0xB7F JUMP JUMPDEST SWAP1 POP SWAP3 POP SWAP3 SWAP1 POP JUMP JUMPDEST PUSH0 DUP2 MLOAD DUP1 DUP5 MSTORE DUP1 PUSH1 0x20 DUP5 ADD PUSH1 0x20 DUP7 ADD MCOPY PUSH0 PUSH1 0x20 DUP3 DUP7 ADD ADD MSTORE PUSH1 0x20 PUSH1 0x1F NOT PUSH1 0x1F DUP4 ADD AND DUP6 ADD ADD SWAP2 POP POP SWAP3 SWAP2 POP POP JUMP JUMPDEST PUSH1 0x20 DUP1 DUP3 MSTORE DUP3 MLOAD PUSH1 0x1 PUSH1 0x1 PUSH1 0xA0 SHL SUB AND DUP3 DUP3 ADD MSTORE DUP3 ADD MLOAD PUSH1 0xE0 PUSH1 0x40 DUP4 ADD MSTORE PUSH0 SWAP1 PUSH2 0xD6C PUSH2 0x100 DUP5 ADD DUP3 PUSH2 0xD10 JUMP JUMPDEST SWAP1 POP PUSH1 0x40 DUP5 ADD MLOAD PUSH1 0x1F NOT DUP5 DUP4 SUB ADD PUSH1 0x60 DUP6 ADD MSTORE PUSH2 0xD89 DUP3 DUP3 PUSH2 0xD10 JUMP JUMPDEST SWAP2 POP POP PUSH1 0x60 DUP5 ADD MLOAD PUSH1 0x1F NOT DUP5 DUP4 SUB ADD PUSH1 0x80 DUP6 ADD MSTORE PUSH2 0xDA7 DUP3 DUP3 PUSH2 0xD10 JUMP JUMPDEST SWAP2 POP POP PUSH1 0x80 DUP5 ADD MLOAD PUSH1 0x1F NOT DUP5 DUP4 SUB ADD PUSH1 0xA0 DUP6 ADD MSTORE PUSH2 0xDC5 DUP3 DUP3 PUSH2 0xD10 JUMP JUMPDEST SWAP2 POP POP PUSH1 0xA0 DUP5 ADD MLOAD PUSH2 0xDDB PUSH1 0xC0 DUP6 ADD DUP3 ISZERO ISZERO SWAP1 MSTORE JUMP JUMPDEST POP PUSH1 0xC0 DUP5 ADD MLOAD PUSH1 0x1 PUSH1 0x1 PUSH1 0x80 SHL SUB DUP2 AND PUSH1 0xE0 DUP6 ADD MSTORE POP SWAP4 SWAP3 POP POP POP JUMP JUMPDEST PUSH4 0x4E487B71 PUSH1 0xE0 SHL PUSH0 MSTORE PUSH1 0x41 PUSH1 0x4 MSTORE PUSH1 0x24 PUSH0 REVERT JUMPDEST PUSH1 0x1 DUP2 DUP2 SHR SWAP1 DUP3 AND DUP1 PUSH2 0xE20 JUMPI PUSH1 0x7F DUP3 AND SWAP2 POP JUMPDEST PUSH1 0x20 DUP3 LT DUP2 SUB PUSH2 0xE3E JUMPI PUSH4 0x4E487B71 PUSH1 0xE0 SHL PUSH0 MSTORE PUSH1 0x22 PUSH1 0x4 MSTORE PUSH1 0x24 PUSH0 REVERT JUMPDEST POP SWAP2 SWAP1 POP JUMP JUMPDEST PUSH1 0x1F DUP3 GT ISZERO PUSH2 0xE8B JUMPI DUP1 PUSH0 MSTORE PUSH1 0x20 PUSH0 KECCAK256 PUSH1 0x1F DUP5 ADD PUSH1 0x5 SHR DUP2 ADD PUSH1 0x20 DUP6 LT ISZERO PUSH2 0xE69 JUMPI POP DUP1 JUMPDEST PUSH1 0x1F DUP5 ADD PUSH1 0x5 SHR DUP3 ADD SWAP2 POP JUMPDEST DUP2 DUP2 LT ISZERO PUSH2 0xE88 JUMPI PUSH0 DUP2 SSTORE PUSH1 0x1 ADD PUSH2 0xE75 JUMP JUMPDEST POP POP JUMPDEST POP POP POP JUMP JUMPDEST PUSH8 0xFFFFFFFFFFFFFFFF DUP4 GT ISZERO PUSH2 0xEA8 JUMPI PUSH2 0xEA8 PUSH2 0xDF8 JUMP JUMPDEST PUSH2 0xEBC DUP4 PUSH2 0xEB6 DUP4 SLOAD PUSH2 0xE0C JUMP JUMPDEST DUP4 PUSH2 0xE44 JUMP JUMPDEST PUSH0 PUSH1 0x1F DUP5 GT PUSH1 0x1 DUP2 EQ PUSH2 0xEED JUMPI PUSH0 DUP6 ISZERO PUSH2 0xED6 JUMPI POP DUP4 DUP3 ADD CALLDATALOAD JUMPDEST PUSH0 NOT PUSH1 0x3 DUP8 SWAP1 SHL SHR NOT AND PUSH1 0x1 DUP7 SWAP1 SHL OR DUP4 SSTORE PUSH2 0xE88 JUMP JUMPDEST PUSH0 DUP4 DUP2 MSTORE PUSH1 0x20 DUP2 KECCAK256 PUSH1 0x1F NOT DUP8 AND SWAP2 JUMPDEST DUP3 DUP2 LT ISZERO PUSH2 0xF1C JUMPI DUP7 DUP6 ADD CALLDATALOAD DUP3 SSTORE PUSH1 0x20 SWAP5 DUP6 ADD SWAP5 PUSH1 0x1 SWAP1 SWAP3 ADD SWAP2 ADD PUSH2 0xEFC JUMP JUMPDEST POP DUP7 DUP3 LT ISZERO PUSH2 0xF38 JUMPI PUSH0 NOT PUSH1 0xF8 DUP9 PUSH1 0x3 SHL AND SHR NOT DUP5 DUP8 ADD CALLDATALOAD AND DUP2 SSTORE JUMPDEST POP POP PUSH1 0x1 DUP6 PUSH1 0x1 SHL ADD DUP4 SSTORE POP POP POP POP POP JUMP JUMPDEST DUP2 DUP4 MSTORE DUP2 DUP2 PUSH1 0x20 DUP6 ADD CALLDATACOPY POP PUSH0 DUP3 DUP3 ADD PUSH1 0x20 SWAP1 DUP2 ADD SWAP2 SWAP1 SWAP2 MSTORE PUSH1 0x1F SWAP1 SWAP2 ADD PUSH1 0x1F NOT AND SWAP1 SWAP2 ADD ADD SWAP1 JUMP JUMPDEST PUSH1 0x40 DUP2 MSTORE PUSH0 PUSH2 0xF85 PUSH1 0x40 DUP4 ADD DUP6 DUP8 PUSH2 0xF4A JUMP JUMPDEST SWAP1 POP PUSH1 0x1 PUSH1 0x1 PUSH1 0x80 SHL SUB DUP4 AND PUSH1 0x20 DUP4 ADD MSTORE SWAP5 SWAP4 POP POP POP POP JUMP JUMPDEST PUSH1 0x20 DUP2 MSTORE PUSH0 PUSH2 0xFB1 PUSH1 0x20 DUP4 ADD DUP5 DUP7 PUSH2 0xF4A JUMP JUMPDEST SWAP5 SWAP4 POP POP POP POP JUMP INVALID LOG2 PUSH5 0x6970667358 0x22 SLT KECCAK256 SWAP10 PREVRANDAO LOG0 DUP11 EXTCODESIZE EQ CALLF 0x6AF6 PUSH15 0x18303894FDEECC92759AF7F21B7BE4 0x1F 0xC9 CALLER LOG2 PUSH32 0x6CA264736F6C634300081E003300000000000000000000000000000000000000 "
				},
				"gasEstimates": {
					"creation": {
						"codeDepositCost": "815800",
						"executionCost": "849",
						"totalCost": "816649"
					},
					"external": {
						"activateUserProfile(address)": "34794",
						"createOrUpdateUserProfile(address,string,string,string,string)": "infinite",
						"deactivateUserProfile(address)": "34836",
						"foodAppContractAddress()": "2358",
						"getUserProfile(address)": "infinite",
						"initialize(address,address)": "infinite",
						"owner()": "2389",
						"renounceOwnership()": "infinite",
						"transferOwnership(address)": "28465",
						"userProfileExists(address)": "2636"
					}
				},
				"methodIdentifiers": {
					"activateUserProfile(address)": "0d07e910",
					"createOrUpdateUserProfile(address,string,string,string,string)": "11adcf32",
					"deactivateUserProfile(address)": "241481d3",
					"foodAppContractAddress()": "832dbdd9",
					"getUserProfile(address)": "987ee156",
					"initialize(address,address)": "485cc955",
					"owner()": "8da5cb5b",
					"renounceOwnership()": "715018a6",
					"transferOwnership(address)": "f2fde38b",
					"userProfileExists(address)": "5215608b"
				}
			},
			"storageLayout": {
				"storage": [
					{
						"astId": 525,
						"contract": "contracts/UserProfileManager.sol:UserProfileManager",
						"label": "_userProfiles",
						"offset": 0,
						"slot": "0",
						"type": "t_mapping(t_address,t_struct(UserProfile)1094_storage)"
					},
					{
						"astId": 527,
						"contract": "contracts/UserProfileManager.sol:UserProfileManager",
						"label": "foodAppContractAddress",
						"offset": 0,
						"slot": "1",
						"type": "t_address"
					}
				],
				"types": {
					"t_address": {
						"encoding": "inplace",
						"label": "address",
						"numberOfBytes": "20"
					},
					"t_bool": {
						"encoding": "inplace",
						"label": "bool",
						"numberOfBytes": "1"
					},
					"t_mapping(t_address,t_struct(UserProfile)1094_storage)": {
						"encoding": "mapping",
						"key": "t_address",
						"label": "mapping(address => struct UserProfile)",
						"numberOfBytes": "32",
						"value": "t_struct(UserProfile)1094_storage"
					},
					"t_string_storage": {
						"encoding": "bytes",
						"label": "string",
						"numberOfBytes": "32"
					},
					"t_struct(UserProfile)1094_storage": {
						"encoding": "inplace",
						"label": "struct UserProfile",
						"members": [
							{
								"astId": 1081,
								"contract": "contracts/UserProfileManager.sol:UserProfileManager",
								"label": "userAddress",
								"offset": 0,
								"slot": "0",
								"type": "t_address"
							},
							{
								"astId": 1083,
								"contract": "contracts/UserProfileManager.sol:UserProfileManager",
								"label": "name",
								"offset": 0,
								"slot": "1",
								"type": "t_string_storage"
							},
							{
								"astId": 1085,
								"contract": "contracts/UserProfileManager.sol:UserProfileManager",
								"label": "phoneNumber",
								"offset": 0,
								"slot": "2",
								"type": "t_string_storage"
							},
							{
								"astId": 1087,
								"contract": "contracts/UserProfileManager.sol:UserProfileManager",
								"label": "email",
								"offset": 0,
								"slot": "3",
								"type": "t_string_storage"
							},
							{
								"astId": 1089,
								"contract": "contracts/UserProfileManager.sol:UserProfileManager",
								"label": "imageUrl",
								"offset": 0,
								"slot": "4",
								"type": "t_string_storage"
							},
							{
								"astId": 1091,
								"contract": "contracts/UserProfileManager.sol:UserProfileManager",
								"label": "isActive",
								"offset": 0,
								"slot": "5",
								"type": "t_bool"
							},
							{
								"astId": 1093,
								"contract": "contracts/UserProfileManager.sol:UserProfileManager",
								"label": "registrationDate",
								"offset": 1,
								"slot": "5",
								"type": "t_uint128"
							}
						],
						"numberOfBytes": "192"
					},
					"t_uint128": {
						"encoding": "inplace",
						"label": "uint128",
						"numberOfBytes": "16"
					}
				}
			},
			"userdoc": {
				"kind": "user",
				"methods": {},
				"version": 1
			}
		}
	}
}