{
	"contracts/RestaurantManager.sol": {
		"RestaurantManager": {
			"abi": [
				{
					"inputs": [],
					"name": "InvalidInitialization",
					"type": "error"
				},
				{
					"inputs": [],
					"name": "NotInitializing",
					"type": "error"
				},
				{
					"inputs": [
						{
							"internalType": "address",
							"name": "owner",
							"type": "address"
						}
					],
					"name": "OwnableInvalidOwner",
					"type": "error"
				},
				{
					"inputs": [
						{
							"internalType": "address",
							"name": "account",
							"type": "address"
						}
					],
					"name": "OwnableUnauthorizedAccount",
					"type": "error"
				},
				{
					"inputs": [],
					"name": "RestaurantManager__InvalidAddress",
					"type": "error"
				},
				{
					"inputs": [],
					"name": "RestaurantManager__NotFoodApp",
					"type": "error"
				},
				{
					"inputs": [],
					"name": "RestaurantManager__RestaurantNotFound",
					"type": "error"
				},
				{
					"anonymous": false,
					"inputs": [
						{
							"indexed": false,
							"internalType": "uint64",
							"name": "version",
							"type": "uint64"
						}
					],
					"name": "Initialized",
					"type": "event"
				},
				{
					"anonymous": false,
					"inputs": [
						{
							"indexed": true,
							"internalType": "address",
							"name": "previousOwner",
							"type": "address"
						},
						{
							"indexed": true,
							"internalType": "address",
							"name": "newOwner",
							"type": "address"
						}
					],
					"name": "OwnershipTransferred",
					"type": "event"
				},
				{
					"anonymous": false,
					"inputs": [
						{
							"indexed": true,
							"internalType": "uint128",
							"name": "restaurantId",
							"type": "uint128"
						},
						{
							"indexed": true,
							"internalType": "address",
							"name": "owner",
							"type": "address"
						},
						{
							"indexed": false,
							"internalType": "string",
							"name": "name",
							"type": "string"
						}
					],
					"name": "RestaurantRegistered",
					"type": "event"
				},
				{
					"inputs": [],
					"name": "foodAppContractAddress",
					"outputs": [
						{
							"internalType": "address",
							"name": "",
							"type": "address"
						}
					],
					"stateMutability": "view",
					"type": "function"
				},
				{
					"inputs": [
						{
							"internalType": "uint128",
							"name": "restaurantId",
							"type": "uint128"
						}
					],
					"name": "getRestaurantOwner",
					"outputs": [
						{
							"internalType": "address",
							"name": "",
							"type": "address"
						}
					],
					"stateMutability": "view",
					"type": "function"
				},
				{
					"inputs": [
						{
							"internalType": "address",
							"name": "_foodAppContract",
							"type": "address"
						},
						{
							"internalType": "address",
							"name": "_factoryOwner",
							"type": "address"
						}
					],
					"name": "initialize",
					"outputs": [],
					"stateMutability": "nonpayable",
					"type": "function"
				},
				{
					"inputs": [],
					"name": "nextRestaurantId",
					"outputs": [
						{
							"internalType": "uint128",
							"name": "",
							"type": "uint128"
						}
					],
					"stateMutability": "view",
					"type": "function"
				},
				{
					"inputs": [],
					"name": "owner",
					"outputs": [
						{
							"internalType": "address",
							"name": "",
							"type": "address"
						}
					],
					"stateMutability": "view",
					"type": "function"
				},
				{
					"inputs": [
						{
							"internalType": "address",
							"name": "restaurantActualOwner",
							"type": "address"
						}
					],
					"name": "registerRestaurant",
					"outputs": [
						{
							"internalType": "uint128",
							"name": "",
							"type": "uint128"
						}
					],
					"stateMutability": "nonpayable",
					"type": "function"
				},
				{
					"inputs": [],
					"name": "renounceOwnership",
					"outputs": [],
					"stateMutability": "nonpayable",
					"type": "function"
				},
				{
					"inputs": [
						{
							"internalType": "uint128",
							"name": "restaurantId",
							"type": "uint128"
						}
					],
					"name": "restaurantExists",
					"outputs": [
						{
							"internalType": "bool",
							"name": "",
							"type": "bool"
						}
					],
					"stateMutability": "view",
					"type": "function"
				},
				{
					"inputs": [
						{
							"internalType": "uint128",
							"name": "",
							"type": "uint128"
						}
					],
					"name": "restaurants",
					"outputs": [
						{
							"internalType": "uint128",
							"name": "id",
							"type": "uint128"
						},
						{
							"internalType": "address",
							"name": "owner",
							"type": "address"
						},
						{
							"internalType": "string",
							"name": "name",
							"type": "string"
						}
					],
					"stateMutability": "view",
					"type": "function"
				},
				{
					"inputs": [
						{
							"internalType": "address",
							"name": "",
							"type": "address"
						},
						{
							"internalType": "uint256",
							"name": "",
							"type": "uint256"
						}
					],
					"name": "restaurantsByOwner",
					"outputs": [
						{
							"internalType": "uint128",
							"name": "",
							"type": "uint128"
						}
					],
					"stateMutability": "view",
					"type": "function"
				},
				{
					"inputs": [
						{
							"internalType": "address",
							"name": "newOwner",
							"type": "address"
						}
					],
					"name": "transferOwnership",
					"outputs": [],
					"stateMutability": "nonpayable",
					"type": "function"
				}
			],
			"devdoc": {
				"errors": {
					"InvalidInitialization()": [
						{
							"details": "The contract is already initialized."
						}
					],
					"NotInitializing()": [
						{
							"details": "The contract is not initializing."
						}
					],
					"OwnableInvalidOwner(address)": [
						{
							"details": "The owner is not a valid owner account. (eg. `address(0)`)"
						}
					],
					"OwnableUnauthorizedAccount(address)": [
						{
							"details": "The caller account is not authorized to perform an operation."
						}
					]
				},
				"events": {
					"Initialized(uint64)": {
						"details": "Triggered when the contract has been initialized or reinitialized."
					}
				},
				"kind": "dev",
				"methods": {
					"owner()": {
						"details": "Returns the address of the current owner."
					},
					"renounceOwnership()": {
						"details": "Leaves the contract without owner. It will not be possible to call `onlyOwner` functions. Can only be called by the current owner. NOTE: Renouncing ownership will leave the contract without an owner, thereby disabling any functionality that is only available to the owner."
					},
					"transferOwnership(address)": {
						"details": "Transfers ownership of the contract to a new account (`newOwner`). Can only be called by the current owner."
					}
				},
				"version": 1
			},
			"evm": {
				"assembly": "    /* \"contracts/RestaurantManager.sol\":224:2650  contract RestaurantManager is OwnableUpgradeable, IRestaurantManager {... */\n  mstore(0x40, 0x80)\n  callvalue\n  dup1\n  iszero\n  tag_1\n  jumpi\n  revert(0x00, 0x00)\ntag_1:\n  pop\n  dataSize(sub_0)\n  dup1\n  dataOffset(sub_0)\n  0x00\n  codecopy\n  0x00\n  return\nstop\n\nsub_0: assembly {\n        /* \"contracts/RestaurantManager.sol\":224:2650  contract RestaurantManager is OwnableUpgradeable, IRestaurantManager {... */\n      mstore(0x40, 0x80)\n      callvalue\n      dup1\n      iszero\n      tag_1\n      jumpi\n      revert(0x00, 0x00)\n    tag_1:\n      pop\n      jumpi(tag_2, lt(calldatasize, 0x04))\n      shr(0xe0, calldataload(0x00))\n      dup1\n      0x832dbdd9\n      gt\n      tag_14\n      jumpi\n      dup1\n      0x832dbdd9\n      eq\n      tag_8\n      jumpi\n      dup1\n      0x8da5cb5b\n      eq\n      tag_9\n      jumpi\n      dup1\n      0xb2a6cb63\n      eq\n      tag_10\n      jumpi\n      dup1\n      0xb9588327\n      eq\n      tag_11\n      jumpi\n      dup1\n      0xbc5dd530\n      eq\n      tag_12\n      jumpi\n      dup1\n      0xf2fde38b\n      eq\n      tag_13\n      jumpi\n      revert(0x00, 0x00)\n    tag_14:\n      dup1\n      0x011eaad2\n      eq\n      tag_3\n      jumpi\n      dup1\n      0x36744f45\n      eq\n      tag_4\n      jumpi\n      dup1\n      0x46bd8077\n      eq\n      tag_5\n      jumpi\n      dup1\n      0x485cc955\n      eq\n      tag_6\n      jumpi\n      dup1\n      0x715018a6\n      eq\n      tag_7\n      jumpi\n    tag_2:\n      revert(0x00, 0x00)\n        /* \"contracts/RestaurantManager.sol\":338:387  mapping(uint128 => Restaurant) public restaurants */\n    tag_3:\n      tag_15\n      tag_16\n      calldatasize\n      0x04\n      tag_17\n      jump\t// in\n    tag_16:\n      tag_18\n      jump\t// in\n    tag_15:\n      mload(0x40)\n      tag_19\n      swap4\n      swap3\n      swap2\n      swap1\n      tag_20\n      jump\t// in\n    tag_19:\n      mload(0x40)\n      dup1\n      swap2\n      sub\n      swap1\n      return\n        /* \"contracts/RestaurantManager.sol\":395:450  mapping(address => uint128[]) public restaurantsByOwner */\n    tag_4:\n      tag_21\n      tag_22\n      calldatasize\n      0x04\n      tag_23\n      jump\t// in\n    tag_22:\n      tag_24\n      jump\t// in\n    tag_21:\n      mload(0x40)\n      sub(shl(0x80, 0x01), 0x01)\n        /* \"#utility.yul\":1556:1603   */\n      swap1\n      swap2\n      and\n        /* \"#utility.yul\":1538:1604   */\n      dup2\n      mstore\n        /* \"#utility.yul\":1526:1528   */\n      0x20\n        /* \"#utility.yul\":1511:1529   */\n      add\n        /* \"contracts/RestaurantManager.sol\":395:450  mapping(address => uint128[]) public restaurantsByOwner */\n      tag_19\n        /* \"#utility.yul\":1392:1610   */\n      jump\n        /* \"contracts/RestaurantManager.sol\":300:331  uint128 public nextRestaurantId */\n    tag_5:\n      sload(0x00)\n      tag_21\n      swap1\n      sub(shl(0x80, 0x01), 0x01)\n      and\n      dup2\n      jump\n        /* \"contracts/RestaurantManager.sol\":902:1297  function initialize(address _foodAppContract, address _factoryOwner) public initializer {... */\n    tag_6:\n      tag_30\n      tag_31\n      calldatasize\n      0x04\n      tag_32\n      jump\t// in\n    tag_31:\n      tag_33\n      jump\t// in\n    tag_30:\n      stop\n        /* \"@openzeppelin/contracts-upgradeable/access/OwnableUpgradeable.sol\":3155:3256  function renounceOwnership() public virtual onlyOwner {... */\n    tag_7:\n      tag_30\n      tag_35\n      jump\t// in\n        /* \"contracts/RestaurantManager.sol\":459:496  address public foodAppContractAddress */\n    tag_8:\n      sload(0x03)\n      tag_36\n      swap1\n      sub(shl(0xa0, 0x01), 0x01)\n      and\n      dup2\n      jump\n    tag_36:\n      mload(0x40)\n      sub(shl(0xa0, 0x01), 0x01)\n        /* \"#utility.yul\":2044:2076   */\n      swap1\n      swap2\n      and\n        /* \"#utility.yul\":2026:2077   */\n      dup2\n      mstore\n        /* \"#utility.yul\":2014:2016   */\n      0x20\n        /* \"#utility.yul\":1999:2017   */\n      add\n        /* \"contracts/RestaurantManager.sol\":459:496  address public foodAppContractAddress */\n      tag_19\n        /* \"#utility.yul\":1880:2083   */\n      jump\n        /* \"@openzeppelin/contracts-upgradeable/access/OwnableUpgradeable.sol\":2441:2585  function owner() public view virtual returns (address) {... */\n    tag_9:\n        /* \"@openzeppelin/contracts-upgradeable/access/OwnableUpgradeable.sol\":1313:1335  OwnableStorageLocation */\n      0x9016d09d72d40fdae2fd8ceac6b6234c7706214fd39c1cd1e609a0528c199300\n        /* \"@openzeppelin/contracts-upgradeable/access/OwnableUpgradeable.sol\":2570:2578  $._owner */\n      sload\n      sub(shl(0xa0, 0x01), 0x01)\n      and\n        /* \"@openzeppelin/contracts-upgradeable/access/OwnableUpgradeable.sol\":2441:2585  function owner() public view virtual returns (address) {... */\n      jump(tag_36)\n        /* \"contracts/RestaurantManager.sol\":2036:2181  function restaurantExists(uint128 restaurantId) external view override returns (bool) {... */\n    tag_10:\n      tag_43\n      tag_44\n      calldatasize\n      0x04\n      tag_17\n      jump\t// in\n    tag_44:\n      sub(shl(0x80, 0x01), 0x01)\n        /* \"contracts/RestaurantManager.sol\":2140:2165  restaurants[restaurantId] */\n      swap1\n      dup2\n      and\n        /* \"contracts/RestaurantManager.sol\":2116:2120  bool */\n      0x00\n        /* \"contracts/RestaurantManager.sol\":2140:2165  restaurants[restaurantId] */\n      swap1\n      dup2\n      mstore\n        /* \"contracts/RestaurantManager.sol\":2140:2151  restaurants */\n      0x01\n        /* \"contracts/RestaurantManager.sol\":2140:2165  restaurants[restaurantId] */\n      0x20\n      mstore\n      0x40\n      swap1\n      keccak256\n        /* \"contracts/RestaurantManager.sol\":2140:2168  restaurants[restaurantId].id */\n      sload\n      and\n        /* \"contracts/RestaurantManager.sol\":2140:2173  restaurants[restaurantId].id != 0 */\n      iszero\n      iszero\n      swap1\n        /* \"contracts/RestaurantManager.sol\":2036:2181  function restaurantExists(uint128 restaurantId) external view override returns (bool) {... */\n      jump\n    tag_43:\n      mload(0x40)\n        /* \"#utility.yul\":2253:2267   */\n      swap1\n      iszero\n        /* \"#utility.yul\":2246:2268   */\n      iszero\n        /* \"#utility.yul\":2228:2269   */\n      dup2\n      mstore\n        /* \"#utility.yul\":2216:2218   */\n      0x20\n        /* \"#utility.yul\":2201:2219   */\n      add\n        /* \"contracts/RestaurantManager.sol\":2036:2181  function restaurantExists(uint128 restaurantId) external view override returns (bool) {... */\n      tag_19\n        /* \"#utility.yul\":2088:2275   */\n      jump\n        /* \"contracts/RestaurantManager.sol\":2189:2433  function getRestaurantOwner(uint128 restaurantId) external view override returns (address) {... */\n    tag_11:\n      tag_36\n      tag_49\n      calldatasize\n      0x04\n      tag_17\n      jump\t// in\n    tag_49:\n      tag_50\n      jump\t// in\n        /* \"contracts/RestaurantManager.sol\":1390:2028  function registerRestaurant(address restaurantActualOwner) external override onlyFoodAppContract returns (uint128) {... */\n    tag_12:\n      tag_21\n      tag_53\n      calldatasize\n      0x04\n      tag_54\n      jump\t// in\n    tag_53:\n      tag_55\n      jump\t// in\n        /* \"@openzeppelin/contracts-upgradeable/access/OwnableUpgradeable.sol\":3405:3620  function transferOwnership(address newOwner) public virtual onlyOwner {... */\n    tag_13:\n      tag_30\n      tag_58\n      calldatasize\n      0x04\n      tag_54\n      jump\t// in\n    tag_58:\n      tag_59\n      jump\t// in\n        /* \"contracts/RestaurantManager.sol\":338:387  mapping(uint128 => Restaurant) public restaurants */\n    tag_18:\n      0x01\n      0x20\n      dup2\n      swap1\n      mstore\n      0x00\n      swap2\n      dup3\n      mstore\n      0x40\n      swap1\n      swap2\n      keccak256\n      dup1\n      sload\n      swap2\n      dup2\n      add\n      sload\n      0x02\n      dup3\n      add\n      dup1\n      sload\n      sub(shl(0x80, 0x01), 0x01)\n      swap1\n      swap5\n      and\n      swap4\n      sub(shl(0xa0, 0x01), 0x01)\n      swap1\n      swap3\n      and\n      swap3\n      swap2\n      tag_60\n      swap1\n      tag_61\n      jump\t// in\n    tag_60:\n      dup1\n      0x1f\n      add\n      0x20\n      dup1\n      swap2\n      div\n      mul\n      0x20\n      add\n      mload(0x40)\n      swap1\n      dup2\n      add\n      0x40\n      mstore\n      dup1\n      swap3\n      swap2\n      swap1\n      dup2\n      dup2\n      mstore\n      0x20\n      add\n      dup3\n      dup1\n      sload\n      tag_62\n      swap1\n      tag_61\n      jump\t// in\n    tag_62:\n      dup1\n      iszero\n      tag_63\n      jumpi\n      dup1\n      0x1f\n      lt\n      tag_64\n      jumpi\n      0x0100\n      dup1\n      dup4\n      sload\n      div\n      mul\n      dup4\n      mstore\n      swap2\n      0x20\n      add\n      swap2\n      jump(tag_63)\n    tag_64:\n      dup3\n      add\n      swap2\n      swap1\n      0x00\n      mstore\n      keccak256(0x00, 0x20)\n      swap1\n    tag_65:\n      dup2\n      sload\n      dup2\n      mstore\n      swap1\n      0x01\n      add\n      swap1\n      0x20\n      add\n      dup1\n      dup4\n      gt\n      tag_65\n      jumpi\n      dup3\n      swap1\n      sub\n      0x1f\n      and\n      dup3\n      add\n      swap2\n    tag_63:\n      pop\n      pop\n      pop\n      pop\n      pop\n      swap1\n      pop\n      dup4\n      jump\t// out\n        /* \"contracts/RestaurantManager.sol\":395:450  mapping(address => uint128[]) public restaurantsByOwner */\n    tag_24:\n      mstore(0x20, 0x02)\n      dup2\n      0x00\n      mstore\n      keccak256(0x00, 0x40)\n      dup2\n      dup2\n      sload\n      dup2\n      lt\n      tag_66\n      jumpi\n      0x00\n      dup1\n      revert\n    tag_66:\n      swap1\n      0x00\n      mstore\n      keccak256(0x00, 0x20)\n      swap1\n      0x02\n      swap2\n      dup3\n      dup3\n      div\n      add\n      swap2\n      swap1\n      mod\n      0x10\n      mul\n      swap2\n      pop\n      swap2\n      pop\n      swap1\n      sload\n      swap1\n      0x0100\n      exp\n      swap1\n      div\n      sub(shl(0x80, 0x01), 0x01)\n      and\n      dup2\n      jump\t// out\n        /* \"contracts/RestaurantManager.sol\":902:1297  function initialize(address _foodAppContract, address _factoryOwner) public initializer {... */\n    tag_33:\n        /* \"@openzeppelin/contracts-upgradeable/proxy/utils/Initializable.sol\":3147:3213  0xf0c57e16840df040f15088dc2f81fe391c3923bec73e23a9662efc9c229c6a00 */\n      0xf0c57e16840df040f15088dc2f81fe391c3923bec73e23a9662efc9c229c6a00\n        /* \"@openzeppelin/contracts-upgradeable/proxy/utils/Initializable.sol\":4302:4317  $._initializing */\n      dup1\n      sload\n      shl(0x40, 0x01)\n      dup2\n      div\n      0xff\n      and\n        /* \"@openzeppelin/contracts-upgradeable/proxy/utils/Initializable.sol\":4301:4317  !$._initializing */\n      iszero\n      swap1\n        /* \"@openzeppelin/contracts-upgradeable/proxy/utils/Initializable.sol\":4348:4362  $._initialized */\n      0xffffffffffffffff\n      and\n        /* \"@openzeppelin/contracts-upgradeable/proxy/utils/Initializable.sol\":4158:4188  InitializableStorage storage $ */\n      0x00\n        /* \"@openzeppelin/contracts-upgradeable/proxy/utils/Initializable.sol\":4724:4740  initialized == 0 */\n      dup2\n      iszero\n        /* \"@openzeppelin/contracts-upgradeable/proxy/utils/Initializable.sol\":4724:4758  initialized == 0 && isTopLevelCall */\n      dup1\n      iszero\n      tag_71\n      jumpi\n      pop\n        /* \"@openzeppelin/contracts-upgradeable/proxy/utils/Initializable.sol\":4744:4758  isTopLevelCall */\n      dup3\n        /* \"@openzeppelin/contracts-upgradeable/proxy/utils/Initializable.sol\":4724:4758  initialized == 0 && isTopLevelCall */\n    tag_71:\n        /* \"@openzeppelin/contracts-upgradeable/proxy/utils/Initializable.sol\":4704:4758  bool initialSetup = initialized == 0 && isTopLevelCall */\n      swap1\n      pop\n        /* \"@openzeppelin/contracts-upgradeable/proxy/utils/Initializable.sol\":4768:4785  bool construction */\n      0x00\n        /* \"@openzeppelin/contracts-upgradeable/proxy/utils/Initializable.sol\":4788:4799  initialized */\n      dup3\n        /* \"@openzeppelin/contracts-upgradeable/proxy/utils/Initializable.sol\":4788:4804  initialized == 1 */\n      0xffffffffffffffff\n      and\n        /* \"@openzeppelin/contracts-upgradeable/proxy/utils/Initializable.sol\":4803:4804  1 */\n      0x01\n        /* \"@openzeppelin/contracts-upgradeable/proxy/utils/Initializable.sol\":4788:4804  initialized == 1 */\n      eq\n        /* \"@openzeppelin/contracts-upgradeable/proxy/utils/Initializable.sol\":4788:4838  initialized == 1 && address(this).code.length == 0 */\n      dup1\n      iszero\n      tag_72\n      jumpi\n      pop\n        /* \"@openzeppelin/contracts-upgradeable/proxy/utils/Initializable.sol\":4816:4820  this */\n      address\n        /* \"@openzeppelin/contracts-upgradeable/proxy/utils/Initializable.sol\":4808:4833  address(this).code.length */\n      extcodesize\n        /* \"@openzeppelin/contracts-upgradeable/proxy/utils/Initializable.sol\":4808:4838  address(this).code.length == 0 */\n      iszero\n        /* \"@openzeppelin/contracts-upgradeable/proxy/utils/Initializable.sol\":4788:4838  initialized == 1 && address(this).code.length == 0 */\n    tag_72:\n        /* \"@openzeppelin/contracts-upgradeable/proxy/utils/Initializable.sol\":4768:4838  bool construction = initialized == 1 && address(this).code.length == 0 */\n      swap1\n      pop\n        /* \"@openzeppelin/contracts-upgradeable/proxy/utils/Initializable.sol\":4854:4866  initialSetup */\n      dup2\n        /* \"@openzeppelin/contracts-upgradeable/proxy/utils/Initializable.sol\":4853:4866  !initialSetup */\n      iszero\n        /* \"@openzeppelin/contracts-upgradeable/proxy/utils/Initializable.sol\":4853:4883  !initialSetup && !construction */\n      dup1\n      iszero\n      tag_73\n      jumpi\n      pop\n        /* \"@openzeppelin/contracts-upgradeable/proxy/utils/Initializable.sol\":4871:4883  construction */\n      dup1\n        /* \"@openzeppelin/contracts-upgradeable/proxy/utils/Initializable.sol\":4870:4883  !construction */\n      iszero\n        /* \"@openzeppelin/contracts-upgradeable/proxy/utils/Initializable.sol\":4853:4883  !initialSetup && !construction */\n    tag_73:\n        /* \"@openzeppelin/contracts-upgradeable/proxy/utils/Initializable.sol\":4849:4940  if (!initialSetup && !construction) {... */\n      iszero\n      tag_74\n      jumpi\n        /* \"@openzeppelin/contracts-upgradeable/proxy/utils/Initializable.sol\":4906:4929  InvalidInitialization() */\n      mload(0x40)\n      shl(0xe0, 0xf92ee8a9)\n      dup2\n      mstore\n      0x04\n      add\n      mload(0x40)\n      dup1\n      swap2\n      sub\n      swap1\n      revert\n        /* \"@openzeppelin/contracts-upgradeable/proxy/utils/Initializable.sol\":4849:4940  if (!initialSetup && !construction) {... */\n    tag_74:\n        /* \"@openzeppelin/contracts-upgradeable/proxy/utils/Initializable.sol\":4949:4967  $._initialized = 1 */\n      dup5\n      sload\n      not(0xffffffffffffffff)\n      and\n        /* \"@openzeppelin/contracts-upgradeable/proxy/utils/Initializable.sol\":4966:4967  1 */\n      0x01\n        /* \"@openzeppelin/contracts-upgradeable/proxy/utils/Initializable.sol\":4949:4967  $._initialized = 1 */\n      or\n      dup6\n      sstore\n        /* \"@openzeppelin/contracts-upgradeable/proxy/utils/Initializable.sol\":4977:5044  if (isTopLevelCall) {... */\n      dup4\n      iszero\n      tag_75\n      jumpi\n        /* \"@openzeppelin/contracts-upgradeable/proxy/utils/Initializable.sol\":5011:5033  $._initializing = true */\n      dup5\n      sload\n      not(shl(0x40, 0xff))\n      and\n      shl(0x40, 0x01)\n      or\n      dup6\n      sstore\n        /* \"@openzeppelin/contracts-upgradeable/proxy/utils/Initializable.sol\":4977:5044  if (isTopLevelCall) {... */\n    tag_75:\n      sub(shl(0xa0, 0x01), 0x01)\n        /* \"contracts/RestaurantManager.sol\":1005:1035  _foodAppContract == address(0) */\n      dup8\n      and\n        /* \"contracts/RestaurantManager.sol\":1001:1079  if (_foodAppContract == address(0)) revert RestaurantManager__InvalidAddress() */\n      tag_77\n      jumpi\n        /* \"contracts/RestaurantManager.sol\":1044:1079  RestaurantManager__InvalidAddress() */\n      mload(0x40)\n      shl(0xe0, 0xbfbbae8d)\n      dup2\n      mstore\n      0x04\n      add\n      mload(0x40)\n      dup1\n      swap2\n      sub\n      swap1\n      revert\n        /* \"contracts/RestaurantManager.sol\":1001:1079  if (_foodAppContract == address(0)) revert RestaurantManager__InvalidAddress() */\n    tag_77:\n      sub(shl(0xa0, 0x01), 0x01)\n        /* \"contracts/RestaurantManager.sol\":1094:1121  _factoryOwner == address(0) */\n      dup7\n      and\n        /* \"contracts/RestaurantManager.sol\":1090:1165  if (_factoryOwner == address(0)) revert RestaurantManager__InvalidAddress() */\n      tag_78\n      jumpi\n        /* \"contracts/RestaurantManager.sol\":1130:1165  RestaurantManager__InvalidAddress() */\n      mload(0x40)\n      shl(0xe0, 0xbfbbae8d)\n      dup2\n      mstore\n      0x04\n      add\n      mload(0x40)\n      dup1\n      swap2\n      sub\n      swap1\n      revert\n        /* \"contracts/RestaurantManager.sol\":1090:1165  if (_factoryOwner == address(0)) revert RestaurantManager__InvalidAddress() */\n    tag_78:\n        /* \"contracts/RestaurantManager.sol\":1176:1205  __Ownable_init(_factoryOwner) */\n      tag_79\n        /* \"contracts/RestaurantManager.sol\":1191:1204  _factoryOwner */\n      dup7\n        /* \"contracts/RestaurantManager.sol\":1176:1190  __Ownable_init */\n      tag_80\n        /* \"contracts/RestaurantManager.sol\":1176:1205  __Ownable_init(_factoryOwner) */\n      jump\t// in\n    tag_79:\n        /* \"contracts/RestaurantManager.sol\":1217:1239  foodAppContractAddress */\n      0x03\n        /* \"contracts/RestaurantManager.sol\":1217:1258  foodAppContractAddress = _foodAppContract */\n      dup1\n      sload\n      not(sub(shl(0xa0, 0x01), 0x01))\n      and\n      sub(shl(0xa0, 0x01), 0x01)\n      dup10\n      and\n      or\n      swap1\n      sstore\n      0x00\n        /* \"contracts/RestaurantManager.sol\":1269:1289  nextRestaurantId = 1 */\n      dup1\n      sload\n      not(sub(shl(0x80, 0x01), 0x01))\n      and\n      0x01\n      or\n      swap1\n      sstore\n        /* \"@openzeppelin/contracts-upgradeable/proxy/utils/Initializable.sol\":5064:5165  if (isTopLevelCall) {... */\n      dup4\n      iszero\n      tag_81\n      jumpi\n        /* \"@openzeppelin/contracts-upgradeable/proxy/utils/Initializable.sol\":5098:5121  $._initializing = false */\n      dup5\n      sload\n      not(shl(0x40, 0xff))\n      and\n      dup6\n      sstore\n        /* \"@openzeppelin/contracts-upgradeable/proxy/utils/Initializable.sol\":5140:5154  Initialized(1) */\n      mload(0x40)\n      0x01\n        /* \"#utility.yul\":3009:3059   */\n      dup2\n      mstore\n        /* \"@openzeppelin/contracts-upgradeable/proxy/utils/Initializable.sol\":5140:5154  Initialized(1) */\n      0xc7f505b2f371ae2175ee4913f4499e1f2633a7b5936321eed1cdaeb6115181d2\n      swap1\n        /* \"#utility.yul\":2997:2999   */\n      0x20\n        /* \"#utility.yul\":2982:3000   */\n      add\n        /* \"@openzeppelin/contracts-upgradeable/proxy/utils/Initializable.sol\":5140:5154  Initialized(1) */\n      mload(0x40)\n      dup1\n      swap2\n      sub\n      swap1\n      log1\n        /* \"@openzeppelin/contracts-upgradeable/proxy/utils/Initializable.sol\":5064:5165  if (isTopLevelCall) {... */\n    tag_81:\n        /* \"@openzeppelin/contracts-upgradeable/proxy/utils/Initializable.sol\":4092:5171  {... */\n      pop\n      pop\n      pop\n      pop\n      pop\n        /* \"contracts/RestaurantManager.sol\":902:1297  function initialize(address _foodAppContract, address _factoryOwner) public initializer {... */\n      pop\n      pop\n      jump\t// out\n        /* \"@openzeppelin/contracts-upgradeable/access/OwnableUpgradeable.sol\":3155:3256  function renounceOwnership() public virtual onlyOwner {... */\n    tag_35:\n        /* \"@openzeppelin/contracts-upgradeable/access/OwnableUpgradeable.sol\":2334:2347  _checkOwner() */\n      tag_85\n        /* \"@openzeppelin/contracts-upgradeable/access/OwnableUpgradeable.sol\":2334:2345  _checkOwner */\n      tag_86\n        /* \"@openzeppelin/contracts-upgradeable/access/OwnableUpgradeable.sol\":2334:2347  _checkOwner() */\n      jump\t// in\n    tag_85:\n        /* \"@openzeppelin/contracts-upgradeable/access/OwnableUpgradeable.sol\":3219:3249  _transferOwnership(address(0)) */\n      tag_88\n        /* \"@openzeppelin/contracts-upgradeable/access/OwnableUpgradeable.sol\":3246:3247  0 */\n      0x00\n        /* \"@openzeppelin/contracts-upgradeable/access/OwnableUpgradeable.sol\":3219:3237  _transferOwnership */\n      tag_89\n        /* \"@openzeppelin/contracts-upgradeable/access/OwnableUpgradeable.sol\":3219:3249  _transferOwnership(address(0)) */\n      jump\t// in\n    tag_88:\n        /* \"@openzeppelin/contracts-upgradeable/access/OwnableUpgradeable.sol\":3155:3256  function renounceOwnership() public virtual onlyOwner {... */\n      jump\t// out\n        /* \"contracts/RestaurantManager.sol\":2189:2433  function getRestaurantOwner(uint128 restaurantId) external view override returns (address) {... */\n    tag_50:\n      sub(shl(0x80, 0x01), 0x01)\n        /* \"contracts/RestaurantManager.sol\":2295:2320  restaurants[restaurantId] */\n      dup1\n      dup3\n      and\n        /* \"contracts/RestaurantManager.sol\":2271:2278  address */\n      0x00\n        /* \"contracts/RestaurantManager.sol\":2295:2320  restaurants[restaurantId] */\n      swap1\n      dup2\n      mstore\n        /* \"contracts/RestaurantManager.sol\":2295:2306  restaurants */\n      0x01\n        /* \"contracts/RestaurantManager.sol\":2295:2320  restaurants[restaurantId] */\n      0x20\n      mstore\n      0x40\n      dup2\n      keccak256\n        /* \"contracts/RestaurantManager.sol\":2295:2323  restaurants[restaurantId].id */\n      sload\n        /* \"contracts/RestaurantManager.sol\":2271:2278  address */\n      swap1\n      swap2\n        /* \"contracts/RestaurantManager.sol\":2295:2323  restaurants[restaurantId].id */\n      and\n        /* \"contracts/RestaurantManager.sol\":2295:2328  restaurants[restaurantId].id == 0 */\n      dup2\n      sub\n        /* \"contracts/RestaurantManager.sol\":2291:2376  if (restaurants[restaurantId].id == 0) revert RestaurantManager__RestaurantNotFound() */\n      tag_95\n      jumpi\n        /* \"contracts/RestaurantManager.sol\":2337:2376  RestaurantManager__RestaurantNotFound() */\n      mload(0x40)\n      shl(0xe0, 0x8763070b)\n      dup2\n      mstore\n      0x04\n      add\n      mload(0x40)\n      dup1\n      swap2\n      sub\n      swap1\n      revert\n        /* \"contracts/RestaurantManager.sol\":2291:2376  if (restaurants[restaurantId].id == 0) revert RestaurantManager__RestaurantNotFound() */\n    tag_95:\n      pop\n      sub(shl(0x80, 0x01), 0x01)\n        /* \"contracts/RestaurantManager.sol\":2394:2419  restaurants[restaurantId] */\n      and\n      0x00\n      swap1\n      dup2\n      mstore\n        /* \"contracts/RestaurantManager.sol\":2394:2405  restaurants */\n      0x01\n        /* \"contracts/RestaurantManager.sol\":2394:2419  restaurants[restaurantId] */\n      0x20\n      dup2\n      swap1\n      mstore\n      0x40\n      swap1\n      swap2\n      keccak256\n        /* \"contracts/RestaurantManager.sol\":2394:2425  restaurants[restaurantId].owner */\n      add\n      sload\n      sub(shl(0xa0, 0x01), 0x01)\n      and\n      swap1\n        /* \"contracts/RestaurantManager.sol\":2189:2433  function getRestaurantOwner(uint128 restaurantId) external view override returns (address) {... */\n      jump\t// out\n        /* \"contracts/RestaurantManager.sol\":1390:2028  function registerRestaurant(address restaurantActualOwner) external override onlyFoodAppContract returns (uint128) {... */\n    tag_55:\n        /* \"contracts/RestaurantManager.sol\":812:834  foodAppContractAddress */\n      sload(0x03)\n        /* \"contracts/RestaurantManager.sol\":1496:1503  uint128 */\n      0x00\n      swap1\n      sub(shl(0xa0, 0x01), 0x01)\n        /* \"contracts/RestaurantManager.sol\":812:834  foodAppContractAddress */\n      and\n        /* \"contracts/RestaurantManager.sol\":798:808  msg.sender */\n      caller\n        /* \"contracts/RestaurantManager.sol\":798:834  msg.sender != foodAppContractAddress */\n      eq\n        /* \"contracts/RestaurantManager.sol\":794:874  if (msg.sender != foodAppContractAddress) revert RestaurantManager__NotFoodApp() */\n      tag_97\n      jumpi\n        /* \"contracts/RestaurantManager.sol\":843:874  RestaurantManager__NotFoodApp() */\n      mload(0x40)\n      shl(0xe0, 0x2fa1780d)\n      dup2\n      mstore\n      0x04\n      add\n      mload(0x40)\n      dup1\n      swap2\n      sub\n      swap1\n      revert\n        /* \"contracts/RestaurantManager.sol\":794:874  if (msg.sender != foodAppContractAddress) revert RestaurantManager__NotFoodApp() */\n    tag_97:\n      sub(shl(0xa0, 0x01), 0x01)\n        /* \"contracts/RestaurantManager.sol\":1520:1555  restaurantActualOwner == address(0) */\n      dup3\n      and\n        /* \"contracts/RestaurantManager.sol\":1516:1599  if (restaurantActualOwner == address(0)) revert RestaurantManager__InvalidAddress() */\n      tag_99\n      jumpi\n        /* \"contracts/RestaurantManager.sol\":1564:1599  RestaurantManager__InvalidAddress() */\n      mload(0x40)\n      shl(0xe0, 0xbfbbae8d)\n      dup2\n      mstore\n      0x04\n      add\n      mload(0x40)\n      dup1\n      swap2\n      sub\n      swap1\n      revert\n        /* \"contracts/RestaurantManager.sol\":1516:1599  if (restaurantActualOwner == address(0)) revert RestaurantManager__InvalidAddress() */\n    tag_99:\n        /* \"contracts/RestaurantManager.sol\":1612:1632  uint128 restaurantId */\n      0x00\n        /* \"contracts/RestaurantManager.sol\":1635:1651  nextRestaurantId */\n      dup1\n      sload\n        /* \"contracts/RestaurantManager.sol\":1690:1811  Restaurant({... */\n      0x40\n      dup1\n      mload\n      0x60\n      dup2\n      add\n      dup3\n      mstore\n      sub(shl(0x80, 0x01), 0x01)\n        /* \"contracts/RestaurantManager.sol\":1635:1651  nextRestaurantId */\n      swap3\n      dup4\n      and\n        /* \"contracts/RestaurantManager.sol\":1690:1811  Restaurant({... */\n      dup1\n      dup3\n      mstore\n      sub(shl(0xa0, 0x01), 0x01)\n      dup8\n      dup2\n      and\n      0x20\n      dup1\n      dup6\n      add\n      swap2\n      dup3\n      mstore\n      dup6\n      mload\n      dup1\n      dup3\n      add\n      dup8\n      mstore\n      dup9\n      dup2\n      mstore\n      dup6\n      dup8\n      add\n      swap1\n      dup2\n      mstore\n        /* \"contracts/RestaurantManager.sol\":1662:1687  restaurants[restaurantId] */\n      dup5\n      dup10\n      mstore\n        /* \"contracts/RestaurantManager.sol\":1635:1651  nextRestaurantId */\n      0x01\n        /* \"contracts/RestaurantManager.sol\":1662:1687  restaurants[restaurantId] */\n      swap2\n      dup3\n      swap1\n      mstore\n      swap6\n      swap1\n      swap8\n      keccak256\n        /* \"contracts/RestaurantManager.sol\":1662:1811  restaurants[restaurantId] = Restaurant({... */\n      dup5\n      mload\n      dup2\n      sload\n      not(sub(shl(0x80, 0x01), 0x01))\n      and\n      swap8\n      and\n      swap7\n      swap1\n      swap7\n      or\n      dup7\n      sstore\n      mload\n      swap6\n      dup6\n      add\n      dup1\n      sload\n      not(sub(shl(0xa0, 0x01), 0x01))\n      and\n      swap7\n      swap1\n      swap2\n      and\n      swap6\n      swap1\n      swap6\n      or\n      swap1\n      swap5\n      sstore\n      swap1\n      mload\n        /* \"contracts/RestaurantManager.sol\":1690:1811  Restaurant({... */\n      swap1\n      swap2\n        /* \"contracts/RestaurantManager.sol\":1662:1687  restaurants[restaurantId] */\n      swap1\n        /* \"contracts/RestaurantManager.sol\":1662:1811  restaurants[restaurantId] = Restaurant({... */\n      0x02\n      dup3\n      add\n      swap1\n      tag_100\n      swap1\n      dup3\n      tag_101\n      jump\t// in\n    tag_100:\n      pop\n      pop\n      pop\n      sub(shl(0xa0, 0x01), 0x01)\n        /* \"contracts/RestaurantManager.sol\":1822:1863  restaurantsByOwner[restaurantActualOwner] */\n      dup4\n      and\n      0x00\n      dup2\n      dup2\n      mstore\n        /* \"contracts/RestaurantManager.sol\":1822:1840  restaurantsByOwner */\n      0x02\n        /* \"contracts/RestaurantManager.sol\":1822:1863  restaurantsByOwner[restaurantActualOwner] */\n      0x20\n      dup2\n      dup2\n      mstore\n      0x40\n      dup1\n      dup5\n      keccak256\n        /* \"contracts/RestaurantManager.sol\":1822:1882  restaurantsByOwner[restaurantActualOwner].push(restaurantId) */\n      dup1\n      sload\n      0x01\n      dup2\n      dup2\n      add\n      dup4\n      sstore\n      swap2\n      dup7\n      mstore\n      swap3\n      swap1\n      swap5\n      keccak256\n      swap3\n      dup3\n      div\n      swap1\n      swap3\n      add\n      dup1\n      sload\n      sub(shl(0x80, 0x01), 0x01)\n      dup1\n      dup9\n      and\n      0x10\n      swap5\n      swap1\n      swap7\n      and\n      swap4\n      swap1\n      swap4\n      mul\n      0x0100\n      exp\n      dup6\n      dup2\n      mul\n      swap4\n      mul\n      not\n      and\n      swap2\n      swap1\n      swap2\n      or\n      swap1\n      sstore\n        /* \"contracts/RestaurantManager.sol\":1900:1961  RestaurantRegistered(restaurantId, restaurantActualOwner, \"\") */\n      mload\n      0xf46a6bac04f25a61ebd7973da97ee1e0727e75123d284bc1e1383ae8082133b6\n      swap1\n      tag_103\n      swap1\n        /* \"#utility.yul\":5528:5530   */\n      0x20\n        /* \"#utility.yul\":5510:5531   */\n      dup1\n      dup3\n      mstore\n        /* \"#utility.yul\":5567:5568   */\n      0x00\n        /* \"#utility.yul\":5547:5565   */\n      swap1\n      dup3\n      add\n        /* \"#utility.yul\":5540:5569   */\n      mstore\n        /* \"#utility.yul\":5601:5603   */\n      0x40\n        /* \"#utility.yul\":5586:5604   */\n      add\n      swap1\n        /* \"#utility.yul\":5326:5610   */\n      jump\n        /* \"contracts/RestaurantManager.sol\":1900:1961  RestaurantRegistered(restaurantId, restaurantActualOwner, \"\") */\n    tag_103:\n      mload(0x40)\n      dup1\n      swap2\n      sub\n      swap1\n      log3\n        /* \"contracts/RestaurantManager.sol\":1972:1988  nextRestaurantId */\n      0x00\n        /* \"contracts/RestaurantManager.sol\":1972:1990  nextRestaurantId++ */\n      dup1\n      sload\n      sub(shl(0x80, 0x01), 0x01)\n      and\n      swap1\n        /* \"contracts/RestaurantManager.sol\":1972:1988  nextRestaurantId */\n      dup1\n        /* \"contracts/RestaurantManager.sol\":1972:1990  nextRestaurantId++ */\n      tag_105\n      dup4\n      tag_106\n      jump\t// in\n    tag_105:\n      swap2\n      swap1\n      0x0100\n      exp\n      dup2\n      sload\n      dup2\n      sub(shl(0x80, 0x01), 0x01)\n      mul\n      not\n      and\n      swap1\n      dup4\n      sub(shl(0x80, 0x01), 0x01)\n      and\n      mul\n      or\n      swap1\n      sstore\n      pop\n      pop\n        /* \"contracts/RestaurantManager.sol\":2008:2020  restaurantId */\n      dup1\n        /* \"contracts/RestaurantManager.sol\":2001:2020  return restaurantId */\n      swap2\n      pop\n      pop\n        /* \"contracts/RestaurantManager.sol\":885:886  _ */\n    tag_98:\n        /* \"contracts/RestaurantManager.sol\":1390:2028  function registerRestaurant(address restaurantActualOwner) external override onlyFoodAppContract returns (uint128) {... */\n      swap2\n      swap1\n      pop\n      jump\t// out\n        /* \"@openzeppelin/contracts-upgradeable/access/OwnableUpgradeable.sol\":3405:3620  function transferOwnership(address newOwner) public virtual onlyOwner {... */\n    tag_59:\n        /* \"@openzeppelin/contracts-upgradeable/access/OwnableUpgradeable.sol\":2334:2347  _checkOwner() */\n      tag_108\n        /* \"@openzeppelin/contracts-upgradeable/access/OwnableUpgradeable.sol\":2334:2345  _checkOwner */\n      tag_86\n        /* \"@openzeppelin/contracts-upgradeable/access/OwnableUpgradeable.sol\":2334:2347  _checkOwner() */\n      jump\t// in\n    tag_108:\n      sub(shl(0xa0, 0x01), 0x01)\n        /* \"@openzeppelin/contracts-upgradeable/access/OwnableUpgradeable.sol\":3489:3511  newOwner == address(0) */\n      dup2\n      and\n        /* \"@openzeppelin/contracts-upgradeable/access/OwnableUpgradeable.sol\":3485:3576  if (newOwner == address(0)) {... */\n      tag_110\n      jumpi\n        /* \"@openzeppelin/contracts-upgradeable/access/OwnableUpgradeable.sol\":3534:3565  OwnableInvalidOwner(address(0)) */\n      mload(0x40)\n      shl(0xe0, 0x1e4fbdf7)\n      dup2\n      mstore\n        /* \"@openzeppelin/contracts-upgradeable/access/OwnableUpgradeable.sol\":3562:3563  0 */\n      0x00\n        /* \"@openzeppelin/contracts-upgradeable/access/OwnableUpgradeable.sol\":3534:3565  OwnableInvalidOwner(address(0)) */\n      0x04\n      dup3\n      add\n        /* \"#utility.yul\":2026:2077   */\n      mstore\n        /* \"#utility.yul\":1999:2017   */\n      0x24\n      add\n        /* \"@openzeppelin/contracts-upgradeable/access/OwnableUpgradeable.sol\":3534:3565  OwnableInvalidOwner(address(0)) */\n    tag_111:\n      mload(0x40)\n      dup1\n      swap2\n      sub\n      swap1\n      revert\n        /* \"@openzeppelin/contracts-upgradeable/access/OwnableUpgradeable.sol\":3485:3576  if (newOwner == address(0)) {... */\n    tag_110:\n        /* \"@openzeppelin/contracts-upgradeable/access/OwnableUpgradeable.sol\":3585:3613  _transferOwnership(newOwner) */\n      tag_112\n        /* \"@openzeppelin/contracts-upgradeable/access/OwnableUpgradeable.sol\":3604:3612  newOwner */\n      dup2\n        /* \"@openzeppelin/contracts-upgradeable/access/OwnableUpgradeable.sol\":3585:3603  _transferOwnership */\n      tag_89\n        /* \"@openzeppelin/contracts-upgradeable/access/OwnableUpgradeable.sol\":3585:3613  _transferOwnership(newOwner) */\n      jump\t// in\n    tag_112:\n        /* \"@openzeppelin/contracts-upgradeable/access/OwnableUpgradeable.sol\":3405:3620  function transferOwnership(address newOwner) public virtual onlyOwner {... */\n      pop\n      jump\t// out\n        /* \"@openzeppelin/contracts-upgradeable/access/OwnableUpgradeable.sol\":1847:1974  function __Ownable_init(address initialOwner) internal onlyInitializing {... */\n    tag_80:\n        /* \"@openzeppelin/contracts-upgradeable/proxy/utils/Initializable.sol\":6929:6949  _checkInitializing() */\n      tag_117\n        /* \"@openzeppelin/contracts-upgradeable/proxy/utils/Initializable.sol\":6929:6947  _checkInitializing */\n      tag_118\n        /* \"@openzeppelin/contracts-upgradeable/proxy/utils/Initializable.sol\":6929:6949  _checkInitializing() */\n      jump\t// in\n    tag_117:\n        /* \"@openzeppelin/contracts-upgradeable/access/OwnableUpgradeable.sol\":1929:1967  __Ownable_init_unchained(initialOwner) */\n      tag_112\n        /* \"@openzeppelin/contracts-upgradeable/access/OwnableUpgradeable.sol\":1954:1966  initialOwner */\n      dup2\n        /* \"@openzeppelin/contracts-upgradeable/access/OwnableUpgradeable.sol\":1929:1953  __Ownable_init_unchained */\n      tag_121\n        /* \"@openzeppelin/contracts-upgradeable/access/OwnableUpgradeable.sol\":1929:1967  __Ownable_init_unchained(initialOwner) */\n      jump\t// in\n        /* \"@openzeppelin/contracts-upgradeable/access/OwnableUpgradeable.sol\":2658:2820  function _checkOwner() internal view virtual {... */\n    tag_86:\n        /* \"@openzeppelin/contracts-upgradeable/utils/ContextUpgradeable.sol\":966:976  msg.sender */\n      caller\n        /* \"@openzeppelin/contracts-upgradeable/access/OwnableUpgradeable.sol\":2717:2724  owner() */\n      tag_125\n        /* \"@openzeppelin/contracts-upgradeable/access/OwnableUpgradeable.sol\":1313:1335  OwnableStorageLocation */\n      0x9016d09d72d40fdae2fd8ceac6b6234c7706214fd39c1cd1e609a0528c199300\n        /* \"@openzeppelin/contracts-upgradeable/access/OwnableUpgradeable.sol\":2570:2578  $._owner */\n      sload\n      sub(shl(0xa0, 0x01), 0x01)\n      and\n      swap1\n        /* \"@openzeppelin/contracts-upgradeable/access/OwnableUpgradeable.sol\":2441:2585  function owner() public view virtual returns (address) {... */\n      jump\n        /* \"@openzeppelin/contracts-upgradeable/access/OwnableUpgradeable.sol\":2717:2724  owner() */\n    tag_125:\n      sub(shl(0xa0, 0x01), 0x01)\n        /* \"@openzeppelin/contracts-upgradeable/access/OwnableUpgradeable.sol\":2717:2740  owner() != _msgSender() */\n      and\n      eq\n        /* \"@openzeppelin/contracts-upgradeable/access/OwnableUpgradeable.sol\":2713:2814  if (owner() != _msgSender()) {... */\n      tag_88\n      jumpi\n        /* \"@openzeppelin/contracts-upgradeable/access/OwnableUpgradeable.sol\":2763:2803  OwnableUnauthorizedAccount(_msgSender()) */\n      mload(0x40)\n      shl(0xe0, 0x118cdaa7)\n      dup2\n      mstore\n        /* \"@openzeppelin/contracts-upgradeable/utils/ContextUpgradeable.sol\":966:976  msg.sender */\n      caller\n        /* \"@openzeppelin/contracts-upgradeable/access/OwnableUpgradeable.sol\":2763:2803  OwnableUnauthorizedAccount(_msgSender()) */\n      0x04\n      dup3\n      add\n        /* \"#utility.yul\":2026:2077   */\n      mstore\n        /* \"#utility.yul\":1999:2017   */\n      0x24\n      add\n        /* \"@openzeppelin/contracts-upgradeable/access/OwnableUpgradeable.sol\":2763:2803  OwnableUnauthorizedAccount(_msgSender()) */\n      tag_111\n        /* \"#utility.yul\":1880:2083   */\n      jump\n        /* \"@openzeppelin/contracts-upgradeable/access/OwnableUpgradeable.sol\":3774:4022  function _transferOwnership(address newOwner) internal virtual {... */\n    tag_89:\n        /* \"@openzeppelin/contracts-upgradeable/access/OwnableUpgradeable.sol\":1313:1335  OwnableStorageLocation */\n      0x9016d09d72d40fdae2fd8ceac6b6234c7706214fd39c1cd1e609a0528c199300\n        /* \"@openzeppelin/contracts-upgradeable/access/OwnableUpgradeable.sol\":3923:3931  $._owner */\n      dup1\n      sload\n      not(sub(shl(0xa0, 0x01), 0x01))\n        /* \"@openzeppelin/contracts-upgradeable/access/OwnableUpgradeable.sol\":3941:3960  $._owner = newOwner */\n      dup2\n      and\n      sub(shl(0xa0, 0x01), 0x01)\n      dup5\n      dup2\n      and\n      swap2\n      dup3\n      or\n      dup5\n      sstore\n        /* \"@openzeppelin/contracts-upgradeable/access/OwnableUpgradeable.sol\":3975:4015  OwnershipTransferred(oldOwner, newOwner) */\n      mload(0x40)\n        /* \"@openzeppelin/contracts-upgradeable/access/OwnableUpgradeable.sol\":3923:3931  $._owner */\n      swap3\n      and\n      swap2\n      dup3\n      swap1\n        /* \"@openzeppelin/contracts-upgradeable/access/OwnableUpgradeable.sol\":3975:4015  OwnershipTransferred(oldOwner, newOwner) */\n      0x8be0079c531659141344cd1fd0a4f28419497f9722a3daafe3b4186f6b6457e0\n      swap1\n        /* \"@openzeppelin/contracts-upgradeable/access/OwnableUpgradeable.sol\":3847:3871  OwnableStorage storage $ */\n      0x00\n      swap1\n        /* \"@openzeppelin/contracts-upgradeable/access/OwnableUpgradeable.sol\":3975:4015  OwnershipTransferred(oldOwner, newOwner) */\n      log3\n        /* \"@openzeppelin/contracts-upgradeable/access/OwnableUpgradeable.sol\":3837:4022  {... */\n      pop\n      pop\n        /* \"@openzeppelin/contracts-upgradeable/access/OwnableUpgradeable.sol\":3774:4022  function _transferOwnership(address newOwner) internal virtual {... */\n      pop\n      jump\t// out\n        /* \"@openzeppelin/contracts-upgradeable/proxy/utils/Initializable.sol\":7082:7223  function _checkInitializing() internal view virtual {... */\n    tag_118:\n        /* \"@openzeppelin/contracts-upgradeable/proxy/utils/Initializable.sol\":3147:3213  0xf0c57e16840df040f15088dc2f81fe391c3923bec73e23a9662efc9c229c6a00 */\n      0xf0c57e16840df040f15088dc2f81fe391c3923bec73e23a9662efc9c229c6a00\n        /* \"@openzeppelin/contracts-upgradeable/proxy/utils/Initializable.sol\":8558:8598  _getInitializableStorage()._initializing */\n      sload\n      shl(0x40, 0x01)\n      swap1\n      div\n      0xff\n      and\n        /* \"@openzeppelin/contracts-upgradeable/proxy/utils/Initializable.sol\":7144:7217  if (!_isInitializing()) {... */\n      tag_88\n      jumpi\n        /* \"@openzeppelin/contracts-upgradeable/proxy/utils/Initializable.sol\":7189:7206  NotInitializing() */\n      mload(0x40)\n      shl(0xe3, 0x1afcd79f)\n      dup2\n      mstore\n      0x04\n      add\n      mload(0x40)\n      dup1\n      swap2\n      sub\n      swap1\n      revert\n        /* \"@openzeppelin/contracts-upgradeable/access/OwnableUpgradeable.sol\":1980:2215  function __Ownable_init_unchained(address initialOwner) internal onlyInitializing {... */\n    tag_121:\n        /* \"@openzeppelin/contracts-upgradeable/proxy/utils/Initializable.sol\":6929:6949  _checkInitializing() */\n      tag_108\n        /* \"@openzeppelin/contracts-upgradeable/proxy/utils/Initializable.sol\":6929:6947  _checkInitializing */\n      tag_118\n        /* \"@openzeppelin/contracts-upgradeable/proxy/utils/Initializable.sol\":6929:6949  _checkInitializing() */\n      jump\t// in\n        /* \"#utility.yul\":14:315   */\n    tag_17:\n        /* \"#utility.yul\":73:79   */\n      0x00\n        /* \"#utility.yul\":126:128   */\n      0x20\n        /* \"#utility.yul\":114:123   */\n      dup3\n        /* \"#utility.yul\":105:112   */\n      dup5\n        /* \"#utility.yul\":101:124   */\n      sub\n        /* \"#utility.yul\":97:129   */\n      slt\n        /* \"#utility.yul\":94:146   */\n      iszero\n      tag_153\n      jumpi\n        /* \"#utility.yul\":142:143   */\n      0x00\n        /* \"#utility.yul\":139:140   */\n      0x00\n        /* \"#utility.yul\":132:144   */\n      revert\n        /* \"#utility.yul\":94:146   */\n    tag_153:\n        /* \"#utility.yul\":181:190   */\n      dup2\n        /* \"#utility.yul\":168:191   */\n      calldataload\n      sub(shl(0x80, 0x01), 0x01)\n        /* \"#utility.yul\":224:229   */\n      dup2\n        /* \"#utility.yul\":220:266   */\n      and\n        /* \"#utility.yul\":213:218   */\n      dup2\n        /* \"#utility.yul\":210:267   */\n      eq\n        /* \"#utility.yul\":200:285   */\n      tag_154\n      jumpi\n        /* \"#utility.yul\":281:282   */\n      0x00\n        /* \"#utility.yul\":278:279   */\n      0x00\n        /* \"#utility.yul\":271:283   */\n      revert\n        /* \"#utility.yul\":200:285   */\n    tag_154:\n        /* \"#utility.yul\":304:309   */\n      swap4\n        /* \"#utility.yul\":14:315   */\n      swap3\n      pop\n      pop\n      pop\n      jump\t// out\n        /* \"#utility.yul\":320:950   */\n    tag_20:\n      sub(shl(0x80, 0x01), 0x01)\n        /* \"#utility.yul\":529:535   */\n      dup5\n        /* \"#utility.yul\":525:572   */\n      and\n        /* \"#utility.yul\":514:523   */\n      dup2\n        /* \"#utility.yul\":507:573   */\n      mstore\n        /* \"#utility.yul\":638:639   */\n      0x01\n        /* \"#utility.yul\":634:635   */\n      dup1\n        /* \"#utility.yul\":629:632   */\n      0xa0\n        /* \"#utility.yul\":625:636   */\n      shl\n        /* \"#utility.yul\":621:640   */\n      sub\n        /* \"#utility.yul\":613:619   */\n      dup4\n        /* \"#utility.yul\":609:641   */\n      and\n        /* \"#utility.yul\":604:606   */\n      0x20\n        /* \"#utility.yul\":593:602   */\n      dup3\n        /* \"#utility.yul\":589:607   */\n      add\n        /* \"#utility.yul\":582:642   */\n      mstore\n        /* \"#utility.yul\":678:680   */\n      0x60\n        /* \"#utility.yul\":673:675   */\n      0x40\n        /* \"#utility.yul\":662:671   */\n      dup3\n        /* \"#utility.yul\":658:676   */\n      add\n        /* \"#utility.yul\":651:681   */\n      mstore\n        /* \"#utility.yul\":488:492   */\n      0x00\n        /* \"#utility.yul\":710:716   */\n      dup3\n        /* \"#utility.yul\":704:717   */\n      mload\n        /* \"#utility.yul\":753:759   */\n      dup1\n        /* \"#utility.yul\":748:750   */\n      0x60\n        /* \"#utility.yul\":737:746   */\n      dup5\n        /* \"#utility.yul\":733:751   */\n      add\n        /* \"#utility.yul\":726:760   */\n      mstore\n        /* \"#utility.yul\":813:819   */\n      dup1\n        /* \"#utility.yul\":808:810   */\n      0x20\n        /* \"#utility.yul\":800:806   */\n      dup6\n        /* \"#utility.yul\":796:811   */\n      add\n        /* \"#utility.yul\":790:793   */\n      0x80\n        /* \"#utility.yul\":779:788   */\n      dup6\n        /* \"#utility.yul\":775:794   */\n      add\n        /* \"#utility.yul\":769:820   */\n      mcopy\n        /* \"#utility.yul\":870:871   */\n      0x00\n        /* \"#utility.yul\":864:867   */\n      0x80\n        /* \"#utility.yul\":855:861   */\n      dup3\n        /* \"#utility.yul\":844:853   */\n      dup6\n        /* \"#utility.yul\":840:862   */\n      add\n        /* \"#utility.yul\":836:868   */\n      add\n        /* \"#utility.yul\":829:872   */\n      mstore\n        /* \"#utility.yul\":940:943   */\n      0x80\n        /* \"#utility.yul\":933:935   */\n      0x1f\n        /* \"#utility.yul\":929:936   */\n      not\n        /* \"#utility.yul\":924:926   */\n      0x1f\n        /* \"#utility.yul\":916:922   */\n      dup4\n        /* \"#utility.yul\":912:927   */\n      add\n        /* \"#utility.yul\":908:937   */\n      and\n        /* \"#utility.yul\":897:906   */\n      dup5\n        /* \"#utility.yul\":893:938   */\n      add\n        /* \"#utility.yul\":889:944   */\n      add\n        /* \"#utility.yul\":881:944   */\n      swap2\n      pop\n      pop\n        /* \"#utility.yul\":320:950   */\n      swap5\n      swap4\n      pop\n      pop\n      pop\n      pop\n      jump\t// out\n        /* \"#utility.yul\":955:1128   */\n    tag_146:\n        /* \"#utility.yul\":1023:1043   */\n      dup1\n      calldataload\n      sub(shl(0xa0, 0x01), 0x01)\n        /* \"#utility.yul\":1072:1103   */\n      dup2\n      and\n        /* \"#utility.yul\":1062:1104   */\n      dup2\n      eq\n        /* \"#utility.yul\":1052:1122   */\n      tag_98\n      jumpi\n        /* \"#utility.yul\":1118:1119   */\n      0x00\n        /* \"#utility.yul\":1115:1116   */\n      0x00\n        /* \"#utility.yul\":1108:1120   */\n      revert\n        /* \"#utility.yul\":1133:1387   */\n    tag_23:\n        /* \"#utility.yul\":1201:1207   */\n      0x00\n        /* \"#utility.yul\":1209:1215   */\n      0x00\n        /* \"#utility.yul\":1262:1264   */\n      0x40\n        /* \"#utility.yul\":1250:1259   */\n      dup4\n        /* \"#utility.yul\":1241:1248   */\n      dup6\n        /* \"#utility.yul\":1237:1260   */\n      sub\n        /* \"#utility.yul\":1233:1265   */\n      slt\n        /* \"#utility.yul\":1230:1282   */\n      iszero\n      tag_159\n      jumpi\n        /* \"#utility.yul\":1278:1279   */\n      0x00\n        /* \"#utility.yul\":1275:1276   */\n      0x00\n        /* \"#utility.yul\":1268:1280   */\n      revert\n        /* \"#utility.yul\":1230:1282   */\n    tag_159:\n        /* \"#utility.yul\":1301:1330   */\n      tag_160\n        /* \"#utility.yul\":1320:1329   */\n      dup4\n        /* \"#utility.yul\":1301:1330   */\n      tag_146\n      jump\t// in\n    tag_160:\n        /* \"#utility.yul\":1291:1330   */\n      swap5\n        /* \"#utility.yul\":1377:1379   */\n      0x20\n        /* \"#utility.yul\":1362:1380   */\n      swap4\n      swap1\n      swap4\n      add\n        /* \"#utility.yul\":1349:1381   */\n      calldataload\n      swap4\n      pop\n      pop\n      pop\n        /* \"#utility.yul\":1133:1387   */\n      jump\t// out\n        /* \"#utility.yul\":1615:1875   */\n    tag_32:\n        /* \"#utility.yul\":1683:1689   */\n      0x00\n        /* \"#utility.yul\":1691:1697   */\n      0x00\n        /* \"#utility.yul\":1744:1746   */\n      0x40\n        /* \"#utility.yul\":1732:1741   */\n      dup4\n        /* \"#utility.yul\":1723:1730   */\n      dup6\n        /* \"#utility.yul\":1719:1742   */\n      sub\n        /* \"#utility.yul\":1715:1747   */\n      slt\n        /* \"#utility.yul\":1712:1764   */\n      iszero\n      tag_163\n      jumpi\n        /* \"#utility.yul\":1760:1761   */\n      0x00\n        /* \"#utility.yul\":1757:1758   */\n      0x00\n        /* \"#utility.yul\":1750:1762   */\n      revert\n        /* \"#utility.yul\":1712:1764   */\n    tag_163:\n        /* \"#utility.yul\":1783:1812   */\n      tag_164\n        /* \"#utility.yul\":1802:1811   */\n      dup4\n        /* \"#utility.yul\":1783:1812   */\n      tag_146\n      jump\t// in\n    tag_164:\n        /* \"#utility.yul\":1773:1812   */\n      swap2\n      pop\n        /* \"#utility.yul\":1831:1869   */\n      tag_165\n        /* \"#utility.yul\":1865:1867   */\n      0x20\n        /* \"#utility.yul\":1854:1863   */\n      dup5\n        /* \"#utility.yul\":1850:1868   */\n      add\n        /* \"#utility.yul\":1831:1869   */\n      tag_146\n      jump\t// in\n    tag_165:\n        /* \"#utility.yul\":1821:1869   */\n      swap1\n      pop\n        /* \"#utility.yul\":1615:1875   */\n      swap3\n      pop\n      swap3\n      swap1\n      pop\n      jump\t// out\n        /* \"#utility.yul\":2280:2466   */\n    tag_54:\n        /* \"#utility.yul\":2339:2345   */\n      0x00\n        /* \"#utility.yul\":2392:2394   */\n      0x20\n        /* \"#utility.yul\":2380:2389   */\n      dup3\n        /* \"#utility.yul\":2371:2378   */\n      dup5\n        /* \"#utility.yul\":2367:2390   */\n      sub\n        /* \"#utility.yul\":2363:2395   */\n      slt\n        /* \"#utility.yul\":2360:2412   */\n      iszero\n      tag_169\n      jumpi\n        /* \"#utility.yul\":2408:2409   */\n      0x00\n        /* \"#utility.yul\":2405:2406   */\n      0x00\n        /* \"#utility.yul\":2398:2410   */\n      revert\n        /* \"#utility.yul\":2360:2412   */\n    tag_169:\n        /* \"#utility.yul\":2431:2460   */\n      tag_154\n        /* \"#utility.yul\":2450:2459   */\n      dup3\n        /* \"#utility.yul\":2431:2460   */\n      tag_146\n      jump\t// in\n        /* \"#utility.yul\":2471:2851   */\n    tag_61:\n        /* \"#utility.yul\":2550:2551   */\n      0x01\n        /* \"#utility.yul\":2546:2558   */\n      dup2\n      dup2\n      shr\n      swap1\n        /* \"#utility.yul\":2593:2605   */\n      dup3\n      and\n      dup1\n        /* \"#utility.yul\":2614:2675   */\n      tag_172\n      jumpi\n        /* \"#utility.yul\":2668:2672   */\n      0x7f\n        /* \"#utility.yul\":2660:2666   */\n      dup3\n        /* \"#utility.yul\":2656:2673   */\n      and\n        /* \"#utility.yul\":2646:2673   */\n      swap2\n      pop\n        /* \"#utility.yul\":2614:2675   */\n    tag_172:\n        /* \"#utility.yul\":2721:2723   */\n      0x20\n        /* \"#utility.yul\":2713:2719   */\n      dup3\n        /* \"#utility.yul\":2710:2724   */\n      lt\n        /* \"#utility.yul\":2690:2708   */\n      dup2\n        /* \"#utility.yul\":2687:2725   */\n      sub\n        /* \"#utility.yul\":2684:2845   */\n      tag_173\n      jumpi\n        /* \"#utility.yul\":2767:2777   */\n      0x4e487b71\n        /* \"#utility.yul\":2762:2765   */\n      0xe0\n        /* \"#utility.yul\":2758:2778   */\n      shl\n        /* \"#utility.yul\":2755:2756   */\n      0x00\n        /* \"#utility.yul\":2748:2779   */\n      mstore\n        /* \"#utility.yul\":2802:2806   */\n      0x22\n        /* \"#utility.yul\":2799:2800   */\n      0x04\n        /* \"#utility.yul\":2792:2807   */\n      mstore\n        /* \"#utility.yul\":2830:2834   */\n      0x24\n        /* \"#utility.yul\":2827:2828   */\n      0x00\n        /* \"#utility.yul\":2820:2835   */\n      revert\n        /* \"#utility.yul\":2684:2845   */\n    tag_173:\n      pop\n        /* \"#utility.yul\":2471:2851   */\n      swap2\n      swap1\n      pop\n      jump\t// out\n        /* \"#utility.yul\":3070:3197   */\n    tag_147:\n        /* \"#utility.yul\":3131:3141   */\n      0x4e487b71\n        /* \"#utility.yul\":3126:3129   */\n      0xe0\n        /* \"#utility.yul\":3122:3142   */\n      shl\n        /* \"#utility.yul\":3119:3120   */\n      0x00\n        /* \"#utility.yul\":3112:3143   */\n      mstore\n        /* \"#utility.yul\":3162:3166   */\n      0x41\n        /* \"#utility.yul\":3159:3160   */\n      0x04\n        /* \"#utility.yul\":3152:3167   */\n      mstore\n        /* \"#utility.yul\":3186:3190   */\n      0x24\n        /* \"#utility.yul\":3183:3184   */\n      0x00\n        /* \"#utility.yul\":3176:3191   */\n      revert\n        /* \"#utility.yul\":3328:3846   */\n    tag_149:\n        /* \"#utility.yul\":3430:3432   */\n      0x1f\n        /* \"#utility.yul\":3425:3428   */\n      dup3\n        /* \"#utility.yul\":3422:3433   */\n      gt\n        /* \"#utility.yul\":3419:3840   */\n      iszero\n      tag_178\n      jumpi\n        /* \"#utility.yul\":3466:3471   */\n      dup1\n        /* \"#utility.yul\":3463:3464   */\n      0x00\n        /* \"#utility.yul\":3456:3472   */\n      mstore\n        /* \"#utility.yul\":3510:3514   */\n      0x20\n        /* \"#utility.yul\":3507:3508   */\n      0x00\n        /* \"#utility.yul\":3497:3515   */\n      keccak256\n        /* \"#utility.yul\":3580:3582   */\n      0x1f\n        /* \"#utility.yul\":3568:3578   */\n      dup5\n        /* \"#utility.yul\":3564:3583   */\n      add\n        /* \"#utility.yul\":3561:3562   */\n      0x05\n        /* \"#utility.yul\":3557:3584   */\n      shr\n        /* \"#utility.yul\":3551:3555   */\n      dup2\n        /* \"#utility.yul\":3547:3585   */\n      add\n        /* \"#utility.yul\":3616:3620   */\n      0x20\n        /* \"#utility.yul\":3604:3614   */\n      dup6\n        /* \"#utility.yul\":3601:3621   */\n      lt\n        /* \"#utility.yul\":3598:3645   */\n      iszero\n      tag_179\n      jumpi\n      pop\n        /* \"#utility.yul\":3639:3643   */\n      dup1\n        /* \"#utility.yul\":3598:3645   */\n    tag_179:\n        /* \"#utility.yul\":3694:3696   */\n      0x1f\n        /* \"#utility.yul\":3689:3692   */\n      dup5\n        /* \"#utility.yul\":3685:3697   */\n      add\n        /* \"#utility.yul\":3682:3683   */\n      0x05\n        /* \"#utility.yul\":3678:3698   */\n      shr\n        /* \"#utility.yul\":3672:3676   */\n      dup3\n        /* \"#utility.yul\":3668:3699   */\n      add\n        /* \"#utility.yul\":3658:3699   */\n      swap2\n      pop\n        /* \"#utility.yul\":3749:3830   */\n    tag_180:\n        /* \"#utility.yul\":3767:3769   */\n      dup2\n        /* \"#utility.yul\":3760:3765   */\n      dup2\n        /* \"#utility.yul\":3757:3770   */\n      lt\n        /* \"#utility.yul\":3749:3830   */\n      iszero\n      tag_182\n      jumpi\n        /* \"#utility.yul\":3826:3827   */\n      0x00\n        /* \"#utility.yul\":3812:3828   */\n      dup2\n      sstore\n        /* \"#utility.yul\":3793:3794   */\n      0x01\n        /* \"#utility.yul\":3782:3795   */\n      add\n        /* \"#utility.yul\":3749:3830   */\n      jump(tag_180)\n    tag_182:\n        /* \"#utility.yul\":3753:3756   */\n      pop\n      pop\n        /* \"#utility.yul\":3419:3840   */\n    tag_178:\n        /* \"#utility.yul\":3328:3846   */\n      pop\n      pop\n      pop\n      jump\t// out\n        /* \"#utility.yul\":4022:5321   */\n    tag_101:\n        /* \"#utility.yul\":4148:4151   */\n      dup2\n        /* \"#utility.yul\":4142:4152   */\n      mload\n        /* \"#utility.yul\":4175:4193   */\n      0xffffffffffffffff\n        /* \"#utility.yul\":4167:4173   */\n      dup2\n        /* \"#utility.yul\":4164:4194   */\n      gt\n        /* \"#utility.yul\":4161:4217   */\n      iszero\n      tag_186\n      jumpi\n        /* \"#utility.yul\":4197:4215   */\n      tag_186\n      tag_147\n      jump\t// in\n    tag_186:\n        /* \"#utility.yul\":4226:4323   */\n      tag_187\n        /* \"#utility.yul\":4316:4322   */\n      dup2\n        /* \"#utility.yul\":4276:4314   */\n      tag_188\n        /* \"#utility.yul\":4308:4312   */\n      dup5\n        /* \"#utility.yul\":4302:4313   */\n      sload\n        /* \"#utility.yul\":4276:4314   */\n      tag_61\n      jump\t// in\n    tag_188:\n        /* \"#utility.yul\":4270:4274   */\n      dup5\n        /* \"#utility.yul\":4226:4323   */\n      tag_149\n      jump\t// in\n    tag_187:\n        /* \"#utility.yul\":4372:4376   */\n      0x20\n        /* \"#utility.yul\":4403:4405   */\n      0x1f\n        /* \"#utility.yul\":4392:4406   */\n      dup3\n      gt\n        /* \"#utility.yul\":4420:4421   */\n      0x01\n        /* \"#utility.yul\":4415:5064   */\n      dup2\n      eq\n      tag_190\n      jumpi\n        /* \"#utility.yul\":5108:5109   */\n      0x00\n        /* \"#utility.yul\":5125:5131   */\n      dup4\n        /* \"#utility.yul\":5122:5211   */\n      iszero\n      tag_191\n      jumpi\n      pop\n        /* \"#utility.yul\":5177:5196   */\n      dup5\n      dup3\n      add\n        /* \"#utility.yul\":5171:5197   */\n      mload\n        /* \"#utility.yul\":5122:5211   */\n    tag_191:\n      not(0x00)\n        /* \"#utility.yul\":3979:3980   */\n      0x03\n        /* \"#utility.yul\":3975:3986   */\n      dup6\n      swap1\n      shl\n        /* \"#utility.yul\":3971:3995   */\n      shr\n        /* \"#utility.yul\":3967:3996   */\n      not\n        /* \"#utility.yul\":3957:3997   */\n      and\n        /* \"#utility.yul\":4003:4004   */\n      0x01\n        /* \"#utility.yul\":3999:4010   */\n      dup5\n      swap1\n      shl\n        /* \"#utility.yul\":3954:4011   */\n      or\n        /* \"#utility.yul\":5224:5305   */\n      dup5\n      sstore\n        /* \"#utility.yul\":4385:5315   */\n      jump(tag_182)\n        /* \"#utility.yul\":4415:5064   */\n    tag_190:\n        /* \"#utility.yul\":3275:3276   */\n      0x00\n        /* \"#utility.yul\":3268:3282   */\n      dup5\n      dup2\n      mstore\n        /* \"#utility.yul\":3312:3316   */\n      0x20\n        /* \"#utility.yul\":3299:3317   */\n      dup2\n      keccak256\n      not(0x1f)\n        /* \"#utility.yul\":4451:4471   */\n      dup6\n      and\n      swap2\n        /* \"#utility.yul\":4569:4791   */\n    tag_194:\n        /* \"#utility.yul\":4583:4590   */\n      dup3\n        /* \"#utility.yul\":4580:4581   */\n      dup2\n        /* \"#utility.yul\":4577:4591   */\n      lt\n        /* \"#utility.yul\":4569:4791   */\n      iszero\n      tag_196\n      jumpi\n        /* \"#utility.yul\":4665:4684   */\n      dup8\n      dup6\n      add\n        /* \"#utility.yul\":4659:4685   */\n      mload\n        /* \"#utility.yul\":4644:4686   */\n      dup3\n      sstore\n        /* \"#utility.yul\":4772:4776   */\n      0x20\n        /* \"#utility.yul\":4757:4777   */\n      swap5\n      dup6\n      add\n      swap5\n        /* \"#utility.yul\":4725:4726   */\n      0x01\n        /* \"#utility.yul\":4713:4727   */\n      swap1\n      swap3\n      add\n      swap2\n        /* \"#utility.yul\":4599:4611   */\n      add\n        /* \"#utility.yul\":4569:4791   */\n      jump(tag_194)\n    tag_196:\n        /* \"#utility.yul\":4573:4576   */\n      pop\n        /* \"#utility.yul\":4819:4825   */\n      dup5\n        /* \"#utility.yul\":4810:4817   */\n      dup3\n        /* \"#utility.yul\":4807:4826   */\n      lt\n        /* \"#utility.yul\":4804:5005   */\n      iszero\n      tag_197\n      jumpi\n        /* \"#utility.yul\":4880:4899   */\n      dup7\n      dup5\n      add\n        /* \"#utility.yul\":4874:4900   */\n      mload\n      not(0x00)\n        /* \"#utility.yul\":4963:4964   */\n      0x03\n        /* \"#utility.yul\":4959:4973   */\n      dup8\n      swap1\n      shl\n        /* \"#utility.yul\":4975:4978   */\n      0xf8\n        /* \"#utility.yul\":4955:4979   */\n      and\n        /* \"#utility.yul\":4951:4988   */\n      shr\n        /* \"#utility.yul\":4947:4989   */\n      not\n        /* \"#utility.yul\":4932:4990   */\n      and\n        /* \"#utility.yul\":4917:4991   */\n      dup2\n      sstore\n        /* \"#utility.yul\":4804:5005   */\n    tag_197:\n      pop\n      pop\n      pop\n      pop\n        /* \"#utility.yul\":5051:5052   */\n      0x01\n        /* \"#utility.yul\":5035:5049   */\n      swap1\n      dup2\n      shl\n        /* \"#utility.yul\":5031:5053   */\n      add\n        /* \"#utility.yul\":5018:5054   */\n      swap1\n      sstore\n      pop\n        /* \"#utility.yul\":4022:5321   */\n      jump\t// out\n        /* \"#utility.yul\":5615:5949   */\n    tag_106:\n        /* \"#utility.yul\":5654:5657   */\n      0x00\n      sub(shl(0x80, 0x01), 0x01)\n        /* \"#utility.yul\":5691:5696   */\n      dup3\n        /* \"#utility.yul\":5687:5733   */\n      and\n      sub(shl(0x80, 0x01), 0x01)\n        /* \"#utility.yul\":5748:5755   */\n      dup2\n        /* \"#utility.yul\":5745:5792   */\n      sub\n        /* \"#utility.yul\":5742:5912   */\n      tag_200\n      jumpi\n        /* \"#utility.yul\":5834:5844   */\n      0x4e487b71\n        /* \"#utility.yul\":5829:5832   */\n      0xe0\n        /* \"#utility.yul\":5825:5845   */\n      shl\n        /* \"#utility.yul\":5822:5823   */\n      0x00\n        /* \"#utility.yul\":5815:5846   */\n      mstore\n        /* \"#utility.yul\":5869:5873   */\n      0x11\n        /* \"#utility.yul\":5866:5867   */\n      0x04\n        /* \"#utility.yul\":5859:5874   */\n      mstore\n        /* \"#utility.yul\":5897:5901   */\n      0x24\n        /* \"#utility.yul\":5894:5895   */\n      0x00\n        /* \"#utility.yul\":5887:5902   */\n      revert\n        /* \"#utility.yul\":5742:5912   */\n    tag_200:\n        /* \"#utility.yul\":5941:5942   */\n      0x01\n        /* \"#utility.yul\":5928:5943   */\n      add\n      swap3\n        /* \"#utility.yul\":5615:5949   */\n      swap2\n      pop\n      pop\n      jump\t// out\n\n    auxdata: 0xa2646970667358221220ded32f47c9d869e41f3e037ac67ed0b8ad6c4b8f6bf00d46b824defb1345572b64736f6c634300081e0033\n}\n",
				"bytecode": {
					"linkReferences": {},
					"object": "6080604052348015600e575f5ffd5b50610b018061001c5f395ff3fe608060405234801561000f575f5ffd5b50600436106100a6575f3560e01c8063832dbdd91161006e578063832dbdd91461012f5780638da5cb5b1461015a578063b2a6cb631461018a578063b9588327146101c7578063bc5dd530146101da578063f2fde38b146101ed575f5ffd5b8063011eaad2146100aa57806336744f45146100d557806346bd807714610100578063485cc95514610112578063715018a614610127575b5f5ffd5b6100bd6100b8366004610839565b610200565b6040516100cc93929190610866565b60405180910390f35b6100e86100e33660046108d0565b6102bf565b6040516001600160801b0390911681526020016100cc565b5f546100e8906001600160801b031681565b6101256101203660046108f8565b610306565b005b610125610490565b600354610142906001600160a01b031681565b6040516001600160a01b0390911681526020016100cc565b7f9016d09d72d40fdae2fd8ceac6b6234c7706214fd39c1cd1e609a0528c199300546001600160a01b0316610142565b6101b7610198366004610839565b6001600160801b039081165f9081526001602052604090205416151590565b60405190151581526020016100cc565b6101426101d5366004610839565b6104a3565b6100e86101e8366004610929565b610506565b6101256101fb366004610929565b6106ca565b600160208190525f91825260409091208054918101546002820180546001600160801b03909416936001600160a01b03909216929161023e90610942565b80601f016020809104026020016040519081016040528092919081815260200182805461026a90610942565b80156102b55780601f1061028c576101008083540402835291602001916102b5565b820191905f5260205f20905b81548152906001019060200180831161029857829003601f168201915b5050505050905083565b6002602052815f5260405f2081815481106102d8575f80fd5b905f5260205f209060029182820401919006601002915091509054906101000a90046001600160801b031681565b7ff0c57e16840df040f15088dc2f81fe391c3923bec73e23a9662efc9c229c6a008054600160401b810460ff16159067ffffffffffffffff165f8115801561034b5750825b90505f8267ffffffffffffffff1660011480156103675750303b155b905081158015610375575080155b156103935760405163f92ee8a960e01b815260040160405180910390fd5b845467ffffffffffffffff1916600117855583156103bd57845460ff60401b1916600160401b1785555b6001600160a01b0387166103e45760405163bfbbae8d60e01b815260040160405180910390fd5b6001600160a01b03861661040b5760405163bfbbae8d60e01b815260040160405180910390fd5b6104148661070c565b600380546001600160a01b0319166001600160a01b0389161790555f80546001600160801b0319166001179055831561048757845460ff60401b19168555604051600181527fc7f505b2f371ae2175ee4913f4499e1f2633a7b5936321eed1cdaeb6115181d29060200160405180910390a15b50505050505050565b61049861071d565b6104a15f610778565b565b6001600160801b038082165f9081526001602052604081205490911681036104de57604051638763070b60e01b815260040160405180910390fd5b506001600160801b03165f90815260016020819052604090912001546001600160a01b031690565b6003545f906001600160a01b0316331461053357604051632fa1780d60e01b815260040160405180910390fd5b6001600160a01b03821661055a5760405163bfbbae8d60e01b815260040160405180910390fd5b5f8054604080516060810182526001600160801b039283168082526001600160a01b0387811660208085019182528551808201875288815285870190815284895260019182905295909720845181546001600160801b03191697169690961786555195850180546001600160a01b0319169690911695909517909455905190919060028201906105ea90826109da565b5050506001600160a01b0383165f8181526002602081815260408084208054600181810183559186529290942092820490920180546001600160801b03808816601094909616939093026101000a85810293021916919091179055517ff46a6bac04f25a61ebd7973da97ee1e0727e75123d284bc1e1383ae8082133b69061067c9060208082525f9082015260400190565b60405180910390a35f80546001600160801b0316908061069b83610a95565b91906101000a8154816001600160801b0302191690836001600160801b0316021790555050809150505b919050565b6106d261071d565b6001600160a01b03811661070057604051631e4fbdf760e01b81525f60048201526024015b60405180910390fd5b61070981610778565b50565b6107146107e8565b61070981610831565b3361074f7f9016d09d72d40fdae2fd8ceac6b6234c7706214fd39c1cd1e609a0528c199300546001600160a01b031690565b6001600160a01b0316146104a15760405163118cdaa760e01b81523360048201526024016106f7565b7f9016d09d72d40fdae2fd8ceac6b6234c7706214fd39c1cd1e609a0528c19930080546001600160a01b031981166001600160a01b03848116918217845560405192169182907f8be0079c531659141344cd1fd0a4f28419497f9722a3daafe3b4186f6b6457e0905f90a3505050565b7ff0c57e16840df040f15088dc2f81fe391c3923bec73e23a9662efc9c229c6a0054600160401b900460ff166104a157604051631afcd79f60e31b815260040160405180910390fd5b6106d26107e8565b5f60208284031215610849575f5ffd5b81356001600160801b038116811461085f575f5ffd5b9392505050565b6001600160801b038416815260018060a01b0383166020820152606060408201525f82518060608401528060208501608085015e5f608082850101526080601f19601f830116840101915050949350505050565b80356001600160a01b03811681146106c5575f5ffd5b5f5f604083850312156108e1575f5ffd5b6108ea836108ba565b946020939093013593505050565b5f5f60408385031215610909575f5ffd5b610912836108ba565b9150610920602084016108ba565b90509250929050565b5f60208284031215610939575f5ffd5b61085f826108ba565b600181811c9082168061095657607f821691505b60208210810361097457634e487b7160e01b5f52602260045260245ffd5b50919050565b634e487b7160e01b5f52604160045260245ffd5b601f8211156109d557805f5260205f20601f840160051c810160208510156109b35750805b601f840160051c820191505b818110156109d2575f81556001016109bf565b50505b505050565b815167ffffffffffffffff8111156109f4576109f461097a565b610a0881610a028454610942565b8461098e565b6020601f821160018114610a3a575f8315610a235750848201515b5f19600385901b1c1916600184901b1784556109d2565b5f84815260208120601f198516915b82811015610a695787850151825560209485019460019092019101610a49565b5084821015610a8657868401515f19600387901b60f8161c191681555b50505050600190811b01905550565b5f6001600160801b0382166001600160801b038103610ac257634e487b7160e01b5f52601160045260245ffd5b6001019291505056fea2646970667358221220ded32f47c9d869e41f3e037ac67ed0b8ad6c4b8f6bf00d46b824defb1345572b64736f6c634300081e0033",
					"opcodes": "PUSH1 0x80 PUSH1 0x40 MSTORE CALLVALUE DUP1 ISZERO PUSH1 0xE JUMPI PUSH0 PUSH0 REVERT JUMPDEST POP PUSH2 0xB01 DUP1 PUSH2 0x1C PUSH0 CODECOPY PUSH0 RETURN INVALID PUSH1 0x80 PUSH1 0x40 MSTORE CALLVALUE DUP1 ISZERO PUSH2 0xF JUMPI PUSH0 PUSH0 REVERT JUMPDEST POP PUSH1 0x4 CALLDATASIZE LT PUSH2 0xA6 JUMPI PUSH0 CALLDATALOAD PUSH1 0xE0 SHR DUP1 PUSH4 0x832DBDD9 GT PUSH2 0x6E JUMPI DUP1 PUSH4 0x832DBDD9 EQ PUSH2 0x12F JUMPI DUP1 PUSH4 0x8DA5CB5B EQ PUSH2 0x15A JUMPI DUP1 PUSH4 0xB2A6CB63 EQ PUSH2 0x18A JUMPI DUP1 PUSH4 0xB9588327 EQ PUSH2 0x1C7 JUMPI DUP1 PUSH4 0xBC5DD530 EQ PUSH2 0x1DA JUMPI DUP1 PUSH4 0xF2FDE38B EQ PUSH2 0x1ED JUMPI PUSH0 PUSH0 REVERT JUMPDEST DUP1 PUSH4 0x11EAAD2 EQ PUSH2 0xAA JUMPI DUP1 PUSH4 0x36744F45 EQ PUSH2 0xD5 JUMPI DUP1 PUSH4 0x46BD8077 EQ PUSH2 0x100 JUMPI DUP1 PUSH4 0x485CC955 EQ PUSH2 0x112 JUMPI DUP1 PUSH4 0x715018A6 EQ PUSH2 0x127 JUMPI JUMPDEST PUSH0 PUSH0 REVERT JUMPDEST PUSH2 0xBD PUSH2 0xB8 CALLDATASIZE PUSH1 0x4 PUSH2 0x839 JUMP JUMPDEST PUSH2 0x200 JUMP JUMPDEST PUSH1 0x40 MLOAD PUSH2 0xCC SWAP4 SWAP3 SWAP2 SWAP1 PUSH2 0x866 JUMP JUMPDEST PUSH1 0x40 MLOAD DUP1 SWAP2 SUB SWAP1 RETURN JUMPDEST PUSH2 0xE8 PUSH2 0xE3 CALLDATASIZE PUSH1 0x4 PUSH2 0x8D0 JUMP JUMPDEST PUSH2 0x2BF JUMP JUMPDEST PUSH1 0x40 MLOAD PUSH1 0x1 PUSH1 0x1 PUSH1 0x80 SHL SUB SWAP1 SWAP2 AND DUP2 MSTORE PUSH1 0x20 ADD PUSH2 0xCC JUMP JUMPDEST PUSH0 SLOAD PUSH2 0xE8 SWAP1 PUSH1 0x1 PUSH1 0x1 PUSH1 0x80 SHL SUB AND DUP2 JUMP JUMPDEST PUSH2 0x125 PUSH2 0x120 CALLDATASIZE PUSH1 0x4 PUSH2 0x8F8 JUMP JUMPDEST PUSH2 0x306 JUMP JUMPDEST STOP JUMPDEST PUSH2 0x125 PUSH2 0x490 JUMP JUMPDEST PUSH1 0x3 SLOAD PUSH2 0x142 SWAP1 PUSH1 0x1 PUSH1 0x1 PUSH1 0xA0 SHL SUB AND DUP2 JUMP JUMPDEST PUSH1 0x40 MLOAD PUSH1 0x1 PUSH1 0x1 PUSH1 0xA0 SHL SUB SWAP1 SWAP2 AND DUP2 MSTORE PUSH1 0x20 ADD PUSH2 0xCC JUMP JUMPDEST PUSH32 0x9016D09D72D40FDAE2FD8CEAC6B6234C7706214FD39C1CD1E609A0528C199300 SLOAD PUSH1 0x1 PUSH1 0x1 PUSH1 0xA0 SHL SUB AND PUSH2 0x142 JUMP JUMPDEST PUSH2 0x1B7 PUSH2 0x198 CALLDATASIZE PUSH1 0x4 PUSH2 0x839 JUMP JUMPDEST PUSH1 0x1 PUSH1 0x1 PUSH1 0x80 SHL SUB SWAP1 DUP2 AND PUSH0 SWAP1 DUP2 MSTORE PUSH1 0x1 PUSH1 0x20 MSTORE PUSH1 0x40 SWAP1 KECCAK256 SLOAD AND ISZERO ISZERO SWAP1 JUMP JUMPDEST PUSH1 0x40 MLOAD SWAP1 ISZERO ISZERO DUP2 MSTORE PUSH1 0x20 ADD PUSH2 0xCC JUMP JUMPDEST PUSH2 0x142 PUSH2 0x1D5 CALLDATASIZE PUSH1 0x4 PUSH2 0x839 JUMP JUMPDEST PUSH2 0x4A3 JUMP JUMPDEST PUSH2 0xE8 PUSH2 0x1E8 CALLDATASIZE PUSH1 0x4 PUSH2 0x929 JUMP JUMPDEST PUSH2 0x506 JUMP JUMPDEST PUSH2 0x125 PUSH2 0x1FB CALLDATASIZE PUSH1 0x4 PUSH2 0x929 JUMP JUMPDEST PUSH2 0x6CA JUMP JUMPDEST PUSH1 0x1 PUSH1 0x20 DUP2 SWAP1 MSTORE PUSH0 SWAP2 DUP3 MSTORE PUSH1 0x40 SWAP1 SWAP2 KECCAK256 DUP1 SLOAD SWAP2 DUP2 ADD SLOAD PUSH1 0x2 DUP3 ADD DUP1 SLOAD PUSH1 0x1 PUSH1 0x1 PUSH1 0x80 SHL SUB SWAP1 SWAP5 AND SWAP4 PUSH1 0x1 PUSH1 0x1 PUSH1 0xA0 SHL SUB SWAP1 SWAP3 AND SWAP3 SWAP2 PUSH2 0x23E SWAP1 PUSH2 0x942 JUMP JUMPDEST DUP1 PUSH1 0x1F ADD PUSH1 0x20 DUP1 SWAP2 DIV MUL PUSH1 0x20 ADD PUSH1 0x40 MLOAD SWAP1 DUP2 ADD PUSH1 0x40 MSTORE DUP1 SWAP3 SWAP2 SWAP1 DUP2 DUP2 MSTORE PUSH1 0x20 ADD DUP3 DUP1 SLOAD PUSH2 0x26A SWAP1 PUSH2 0x942 JUMP JUMPDEST DUP1 ISZERO PUSH2 0x2B5 JUMPI DUP1 PUSH1 0x1F LT PUSH2 0x28C JUMPI PUSH2 0x100 DUP1 DUP4 SLOAD DIV MUL DUP4 MSTORE SWAP2 PUSH1 0x20 ADD SWAP2 PUSH2 0x2B5 JUMP JUMPDEST DUP3 ADD SWAP2 SWAP1 PUSH0 MSTORE PUSH1 0x20 PUSH0 KECCAK256 SWAP1 JUMPDEST DUP2 SLOAD DUP2 MSTORE SWAP1 PUSH1 0x1 ADD SWAP1 PUSH1 0x20 ADD DUP1 DUP4 GT PUSH2 0x298 JUMPI DUP3 SWAP1 SUB PUSH1 0x1F AND DUP3 ADD SWAP2 JUMPDEST POP POP POP POP POP SWAP1 POP DUP4 JUMP JUMPDEST PUSH1 0x2 PUSH1 0x20 MSTORE DUP2 PUSH0 MSTORE PUSH1 0x40 PUSH0 KECCAK256 DUP2 DUP2 SLOAD DUP2 LT PUSH2 0x2D8 JUMPI PUSH0 DUP1 REVERT JUMPDEST SWAP1 PUSH0 MSTORE PUSH1 0x20 PUSH0 KECCAK256 SWAP1 PUSH1 0x2 SWAP2 DUP3 DUP3 DIV ADD SWAP2 SWAP1 MOD PUSH1 0x10 MUL SWAP2 POP SWAP2 POP SWAP1 SLOAD SWAP1 PUSH2 0x100 EXP SWAP1 DIV PUSH1 0x1 PUSH1 0x1 PUSH1 0x80 SHL SUB AND DUP2 JUMP JUMPDEST PUSH32 0xF0C57E16840DF040F15088DC2F81FE391C3923BEC73E23A9662EFC9C229C6A00 DUP1 SLOAD PUSH1 0x1 PUSH1 0x40 SHL DUP2 DIV PUSH1 0xFF AND ISZERO SWAP1 PUSH8 0xFFFFFFFFFFFFFFFF AND PUSH0 DUP2 ISZERO DUP1 ISZERO PUSH2 0x34B JUMPI POP DUP3 JUMPDEST SWAP1 POP PUSH0 DUP3 PUSH8 0xFFFFFFFFFFFFFFFF AND PUSH1 0x1 EQ DUP1 ISZERO PUSH2 0x367 JUMPI POP ADDRESS EXTCODESIZE ISZERO JUMPDEST SWAP1 POP DUP2 ISZERO DUP1 ISZERO PUSH2 0x375 JUMPI POP DUP1 ISZERO JUMPDEST ISZERO PUSH2 0x393 JUMPI PUSH1 0x40 MLOAD PUSH4 0xF92EE8A9 PUSH1 0xE0 SHL DUP2 MSTORE PUSH1 0x4 ADD PUSH1 0x40 MLOAD DUP1 SWAP2 SUB SWAP1 REVERT JUMPDEST DUP5 SLOAD PUSH8 0xFFFFFFFFFFFFFFFF NOT AND PUSH1 0x1 OR DUP6 SSTORE DUP4 ISZERO PUSH2 0x3BD JUMPI DUP5 SLOAD PUSH1 0xFF PUSH1 0x40 SHL NOT AND PUSH1 0x1 PUSH1 0x40 SHL OR DUP6 SSTORE JUMPDEST PUSH1 0x1 PUSH1 0x1 PUSH1 0xA0 SHL SUB DUP8 AND PUSH2 0x3E4 JUMPI PUSH1 0x40 MLOAD PUSH4 0xBFBBAE8D PUSH1 0xE0 SHL DUP2 MSTORE PUSH1 0x4 ADD PUSH1 0x40 MLOAD DUP1 SWAP2 SUB SWAP1 REVERT JUMPDEST PUSH1 0x1 PUSH1 0x1 PUSH1 0xA0 SHL SUB DUP7 AND PUSH2 0x40B JUMPI PUSH1 0x40 MLOAD PUSH4 0xBFBBAE8D PUSH1 0xE0 SHL DUP2 MSTORE PUSH1 0x4 ADD PUSH1 0x40 MLOAD DUP1 SWAP2 SUB SWAP1 REVERT JUMPDEST PUSH2 0x414 DUP7 PUSH2 0x70C JUMP JUMPDEST PUSH1 0x3 DUP1 SLOAD PUSH1 0x1 PUSH1 0x1 PUSH1 0xA0 SHL SUB NOT AND PUSH1 0x1 PUSH1 0x1 PUSH1 0xA0 SHL SUB DUP10 AND OR SWAP1 SSTORE PUSH0 DUP1 SLOAD PUSH1 0x1 PUSH1 0x1 PUSH1 0x80 SHL SUB NOT AND PUSH1 0x1 OR SWAP1 SSTORE DUP4 ISZERO PUSH2 0x487 JUMPI DUP5 SLOAD PUSH1 0xFF PUSH1 0x40 SHL NOT AND DUP6 SSTORE PUSH1 0x40 MLOAD PUSH1 0x1 DUP2 MSTORE PUSH32 0xC7F505B2F371AE2175EE4913F4499E1F2633A7B5936321EED1CDAEB6115181D2 SWAP1 PUSH1 0x20 ADD PUSH1 0x40 MLOAD DUP1 SWAP2 SUB SWAP1 LOG1 JUMPDEST POP POP POP POP POP POP POP JUMP JUMPDEST PUSH2 0x498 PUSH2 0x71D JUMP JUMPDEST PUSH2 0x4A1 PUSH0 PUSH2 0x778 JUMP JUMPDEST JUMP JUMPDEST PUSH1 0x1 PUSH1 0x1 PUSH1 0x80 SHL SUB DUP1 DUP3 AND PUSH0 SWAP1 DUP2 MSTORE PUSH1 0x1 PUSH1 0x20 MSTORE PUSH1 0x40 DUP2 KECCAK256 SLOAD SWAP1 SWAP2 AND DUP2 SUB PUSH2 0x4DE JUMPI PUSH1 0x40 MLOAD PUSH4 0x8763070B PUSH1 0xE0 SHL DUP2 MSTORE PUSH1 0x4 ADD PUSH1 0x40 MLOAD DUP1 SWAP2 SUB SWAP1 REVERT JUMPDEST POP PUSH1 0x1 PUSH1 0x1 PUSH1 0x80 SHL SUB AND PUSH0 SWAP1 DUP2 MSTORE PUSH1 0x1 PUSH1 0x20 DUP2 SWAP1 MSTORE PUSH1 0x40 SWAP1 SWAP2 KECCAK256 ADD SLOAD PUSH1 0x1 PUSH1 0x1 PUSH1 0xA0 SHL SUB AND SWAP1 JUMP JUMPDEST PUSH1 0x3 SLOAD PUSH0 SWAP1 PUSH1 0x1 PUSH1 0x1 PUSH1 0xA0 SHL SUB AND CALLER EQ PUSH2 0x533 JUMPI PUSH1 0x40 MLOAD PUSH4 0x2FA1780D PUSH1 0xE0 SHL DUP2 MSTORE PUSH1 0x4 ADD PUSH1 0x40 MLOAD DUP1 SWAP2 SUB SWAP1 REVERT JUMPDEST PUSH1 0x1 PUSH1 0x1 PUSH1 0xA0 SHL SUB DUP3 AND PUSH2 0x55A JUMPI PUSH1 0x40 MLOAD PUSH4 0xBFBBAE8D PUSH1 0xE0 SHL DUP2 MSTORE PUSH1 0x4 ADD PUSH1 0x40 MLOAD DUP1 SWAP2 SUB SWAP1 REVERT JUMPDEST PUSH0 DUP1 SLOAD PUSH1 0x40 DUP1 MLOAD PUSH1 0x60 DUP2 ADD DUP3 MSTORE PUSH1 0x1 PUSH1 0x1 PUSH1 0x80 SHL SUB SWAP3 DUP4 AND DUP1 DUP3 MSTORE PUSH1 0x1 PUSH1 0x1 PUSH1 0xA0 SHL SUB DUP8 DUP2 AND PUSH1 0x20 DUP1 DUP6 ADD SWAP2 DUP3 MSTORE DUP6 MLOAD DUP1 DUP3 ADD DUP8 MSTORE DUP9 DUP2 MSTORE DUP6 DUP8 ADD SWAP1 DUP2 MSTORE DUP5 DUP10 MSTORE PUSH1 0x1 SWAP2 DUP3 SWAP1 MSTORE SWAP6 SWAP1 SWAP8 KECCAK256 DUP5 MLOAD DUP2 SLOAD PUSH1 0x1 PUSH1 0x1 PUSH1 0x80 SHL SUB NOT AND SWAP8 AND SWAP7 SWAP1 SWAP7 OR DUP7 SSTORE MLOAD SWAP6 DUP6 ADD DUP1 SLOAD PUSH1 0x1 PUSH1 0x1 PUSH1 0xA0 SHL SUB NOT AND SWAP7 SWAP1 SWAP2 AND SWAP6 SWAP1 SWAP6 OR SWAP1 SWAP5 SSTORE SWAP1 MLOAD SWAP1 SWAP2 SWAP1 PUSH1 0x2 DUP3 ADD SWAP1 PUSH2 0x5EA SWAP1 DUP3 PUSH2 0x9DA JUMP JUMPDEST POP POP POP PUSH1 0x1 PUSH1 0x1 PUSH1 0xA0 SHL SUB DUP4 AND PUSH0 DUP2 DUP2 MSTORE PUSH1 0x2 PUSH1 0x20 DUP2 DUP2 MSTORE PUSH1 0x40 DUP1 DUP5 KECCAK256 DUP1 SLOAD PUSH1 0x1 DUP2 DUP2 ADD DUP4 SSTORE SWAP2 DUP7 MSTORE SWAP3 SWAP1 SWAP5 KECCAK256 SWAP3 DUP3 DIV SWAP1 SWAP3 ADD DUP1 SLOAD PUSH1 0x1 PUSH1 0x1 PUSH1 0x80 SHL SUB DUP1 DUP9 AND PUSH1 0x10 SWAP5 SWAP1 SWAP7 AND SWAP4 SWAP1 SWAP4 MUL PUSH2 0x100 EXP DUP6 DUP2 MUL SWAP4 MUL NOT AND SWAP2 SWAP1 SWAP2 OR SWAP1 SSTORE MLOAD PUSH32 0xF46A6BAC04F25A61EBD7973DA97EE1E0727E75123D284BC1E1383AE8082133B6 SWAP1 PUSH2 0x67C SWAP1 PUSH1 0x20 DUP1 DUP3 MSTORE PUSH0 SWAP1 DUP3 ADD MSTORE PUSH1 0x40 ADD SWAP1 JUMP JUMPDEST PUSH1 0x40 MLOAD DUP1 SWAP2 SUB SWAP1 LOG3 PUSH0 DUP1 SLOAD PUSH1 0x1 PUSH1 0x1 PUSH1 0x80 SHL SUB AND SWAP1 DUP1 PUSH2 0x69B DUP4 PUSH2 0xA95 JUMP JUMPDEST SWAP2 SWAP1 PUSH2 0x100 EXP DUP2 SLOAD DUP2 PUSH1 0x1 PUSH1 0x1 PUSH1 0x80 SHL SUB MUL NOT AND SWAP1 DUP4 PUSH1 0x1 PUSH1 0x1 PUSH1 0x80 SHL SUB AND MUL OR SWAP1 SSTORE POP POP DUP1 SWAP2 POP POP JUMPDEST SWAP2 SWAP1 POP JUMP JUMPDEST PUSH2 0x6D2 PUSH2 0x71D JUMP JUMPDEST PUSH1 0x1 PUSH1 0x1 PUSH1 0xA0 SHL SUB DUP2 AND PUSH2 0x700 JUMPI PUSH1 0x40 MLOAD PUSH4 0x1E4FBDF7 PUSH1 0xE0 SHL DUP2 MSTORE PUSH0 PUSH1 0x4 DUP3 ADD MSTORE PUSH1 0x24 ADD JUMPDEST PUSH1 0x40 MLOAD DUP1 SWAP2 SUB SWAP1 REVERT JUMPDEST PUSH2 0x709 DUP2 PUSH2 0x778 JUMP JUMPDEST POP JUMP JUMPDEST PUSH2 0x714 PUSH2 0x7E8 JUMP JUMPDEST PUSH2 0x709 DUP2 PUSH2 0x831 JUMP JUMPDEST CALLER PUSH2 0x74F PUSH32 0x9016D09D72D40FDAE2FD8CEAC6B6234C7706214FD39C1CD1E609A0528C199300 SLOAD PUSH1 0x1 PUSH1 0x1 PUSH1 0xA0 SHL SUB AND SWAP1 JUMP JUMPDEST PUSH1 0x1 PUSH1 0x1 PUSH1 0xA0 SHL SUB AND EQ PUSH2 0x4A1 JUMPI PUSH1 0x40 MLOAD PUSH4 0x118CDAA7 PUSH1 0xE0 SHL DUP2 MSTORE CALLER PUSH1 0x4 DUP3 ADD MSTORE PUSH1 0x24 ADD PUSH2 0x6F7 JUMP JUMPDEST PUSH32 0x9016D09D72D40FDAE2FD8CEAC6B6234C7706214FD39C1CD1E609A0528C199300 DUP1 SLOAD PUSH1 0x1 PUSH1 0x1 PUSH1 0xA0 SHL SUB NOT DUP2 AND PUSH1 0x1 PUSH1 0x1 PUSH1 0xA0 SHL SUB DUP5 DUP2 AND SWAP2 DUP3 OR DUP5 SSTORE PUSH1 0x40 MLOAD SWAP3 AND SWAP2 DUP3 SWAP1 PUSH32 0x8BE0079C531659141344CD1FD0A4F28419497F9722A3DAAFE3B4186F6B6457E0 SWAP1 PUSH0 SWAP1 LOG3 POP POP POP JUMP JUMPDEST PUSH32 0xF0C57E16840DF040F15088DC2F81FE391C3923BEC73E23A9662EFC9C229C6A00 SLOAD PUSH1 0x1 PUSH1 0x40 SHL SWAP1 DIV PUSH1 0xFF AND PUSH2 0x4A1 JUMPI PUSH1 0x40 MLOAD PUSH4 0x1AFCD79F PUSH1 0xE3 SHL DUP2 MSTORE PUSH1 0x4 ADD PUSH1 0x40 MLOAD DUP1 SWAP2 SUB SWAP1 REVERT JUMPDEST PUSH2 0x6D2 PUSH2 0x7E8 JUMP JUMPDEST PUSH0 PUSH1 0x20 DUP3 DUP5 SUB SLT ISZERO PUSH2 0x849 JUMPI PUSH0 PUSH0 REVERT JUMPDEST DUP2 CALLDATALOAD PUSH1 0x1 PUSH1 0x1 PUSH1 0x80 SHL SUB DUP2 AND DUP2 EQ PUSH2 0x85F JUMPI PUSH0 PUSH0 REVERT JUMPDEST SWAP4 SWAP3 POP POP POP JUMP JUMPDEST PUSH1 0x1 PUSH1 0x1 PUSH1 0x80 SHL SUB DUP5 AND DUP2 MSTORE PUSH1 0x1 DUP1 PUSH1 0xA0 SHL SUB DUP4 AND PUSH1 0x20 DUP3 ADD MSTORE PUSH1 0x60 PUSH1 0x40 DUP3 ADD MSTORE PUSH0 DUP3 MLOAD DUP1 PUSH1 0x60 DUP5 ADD MSTORE DUP1 PUSH1 0x20 DUP6 ADD PUSH1 0x80 DUP6 ADD MCOPY PUSH0 PUSH1 0x80 DUP3 DUP6 ADD ADD MSTORE PUSH1 0x80 PUSH1 0x1F NOT PUSH1 0x1F DUP4 ADD AND DUP5 ADD ADD SWAP2 POP POP SWAP5 SWAP4 POP POP POP POP JUMP JUMPDEST DUP1 CALLDATALOAD PUSH1 0x1 PUSH1 0x1 PUSH1 0xA0 SHL SUB DUP2 AND DUP2 EQ PUSH2 0x6C5 JUMPI PUSH0 PUSH0 REVERT JUMPDEST PUSH0 PUSH0 PUSH1 0x40 DUP4 DUP6 SUB SLT ISZERO PUSH2 0x8E1 JUMPI PUSH0 PUSH0 REVERT JUMPDEST PUSH2 0x8EA DUP4 PUSH2 0x8BA JUMP JUMPDEST SWAP5 PUSH1 0x20 SWAP4 SWAP1 SWAP4 ADD CALLDATALOAD SWAP4 POP POP POP JUMP JUMPDEST PUSH0 PUSH0 PUSH1 0x40 DUP4 DUP6 SUB SLT ISZERO PUSH2 0x909 JUMPI PUSH0 PUSH0 REVERT JUMPDEST PUSH2 0x912 DUP4 PUSH2 0x8BA JUMP JUMPDEST SWAP2 POP PUSH2 0x920 PUSH1 0x20 DUP5 ADD PUSH2 0x8BA JUMP JUMPDEST SWAP1 POP SWAP3 POP SWAP3 SWAP1 POP JUMP JUMPDEST PUSH0 PUSH1 0x20 DUP3 DUP5 SUB SLT ISZERO PUSH2 0x939 JUMPI PUSH0 PUSH0 REVERT JUMPDEST PUSH2 0x85F DUP3 PUSH2 0x8BA JUMP JUMPDEST PUSH1 0x1 DUP2 DUP2 SHR SWAP1 DUP3 AND DUP1 PUSH2 0x956 JUMPI PUSH1 0x7F DUP3 AND SWAP2 POP JUMPDEST PUSH1 0x20 DUP3 LT DUP2 SUB PUSH2 0x974 JUMPI PUSH4 0x4E487B71 PUSH1 0xE0 SHL PUSH0 MSTORE PUSH1 0x22 PUSH1 0x4 MSTORE PUSH1 0x24 PUSH0 REVERT JUMPDEST POP SWAP2 SWAP1 POP JUMP JUMPDEST PUSH4 0x4E487B71 PUSH1 0xE0 SHL PUSH0 MSTORE PUSH1 0x41 PUSH1 0x4 MSTORE PUSH1 0x24 PUSH0 REVERT JUMPDEST PUSH1 0x1F DUP3 GT ISZERO PUSH2 0x9D5 JUMPI DUP1 PUSH0 MSTORE PUSH1 0x20 PUSH0 KECCAK256 PUSH1 0x1F DUP5 ADD PUSH1 0x5 SHR DUP2 ADD PUSH1 0x20 DUP6 LT ISZERO PUSH2 0x9B3 JUMPI POP DUP1 JUMPDEST PUSH1 0x1F DUP5 ADD PUSH1 0x5 SHR DUP3 ADD SWAP2 POP JUMPDEST DUP2 DUP2 LT ISZERO PUSH2 0x9D2 JUMPI PUSH0 DUP2 SSTORE PUSH1 0x1 ADD PUSH2 0x9BF JUMP JUMPDEST POP POP JUMPDEST POP POP POP JUMP JUMPDEST DUP2 MLOAD PUSH8 0xFFFFFFFFFFFFFFFF DUP2 GT ISZERO PUSH2 0x9F4 JUMPI PUSH2 0x9F4 PUSH2 0x97A JUMP JUMPDEST PUSH2 0xA08 DUP2 PUSH2 0xA02 DUP5 SLOAD PUSH2 0x942 JUMP JUMPDEST DUP5 PUSH2 0x98E JUMP JUMPDEST PUSH1 0x20 PUSH1 0x1F DUP3 GT PUSH1 0x1 DUP2 EQ PUSH2 0xA3A JUMPI PUSH0 DUP4 ISZERO PUSH2 0xA23 JUMPI POP DUP5 DUP3 ADD MLOAD JUMPDEST PUSH0 NOT PUSH1 0x3 DUP6 SWAP1 SHL SHR NOT AND PUSH1 0x1 DUP5 SWAP1 SHL OR DUP5 SSTORE PUSH2 0x9D2 JUMP JUMPDEST PUSH0 DUP5 DUP2 MSTORE PUSH1 0x20 DUP2 KECCAK256 PUSH1 0x1F NOT DUP6 AND SWAP2 JUMPDEST DUP3 DUP2 LT ISZERO PUSH2 0xA69 JUMPI DUP8 DUP6 ADD MLOAD DUP3 SSTORE PUSH1 0x20 SWAP5 DUP6 ADD SWAP5 PUSH1 0x1 SWAP1 SWAP3 ADD SWAP2 ADD PUSH2 0xA49 JUMP JUMPDEST POP DUP5 DUP3 LT ISZERO PUSH2 0xA86 JUMPI DUP7 DUP5 ADD MLOAD PUSH0 NOT PUSH1 0x3 DUP8 SWAP1 SHL PUSH1 0xF8 AND SHR NOT AND DUP2 SSTORE JUMPDEST POP POP POP POP PUSH1 0x1 SWAP1 DUP2 SHL ADD SWAP1 SSTORE POP JUMP JUMPDEST PUSH0 PUSH1 0x1 PUSH1 0x1 PUSH1 0x80 SHL SUB DUP3 AND PUSH1 0x1 PUSH1 0x1 PUSH1 0x80 SHL SUB DUP2 SUB PUSH2 0xAC2 JUMPI PUSH4 0x4E487B71 PUSH1 0xE0 SHL PUSH0 MSTORE PUSH1 0x11 PUSH1 0x4 MSTORE PUSH1 0x24 PUSH0 REVERT JUMPDEST PUSH1 0x1 ADD SWAP3 SWAP2 POP POP JUMP INVALID LOG2 PUSH5 0x6970667358 0x22 SLT KECCAK256 0xDE 0xD3 0x2F SELFBALANCE 0xC9 0xD8 PUSH10 0xE41F3E037AC67ED0B8AD PUSH13 0x4B8F6BF00D46B824DEFB134557 0x2B PUSH5 0x736F6C6343 STOP ADDMOD 0x1E STOP CALLER "
				},
				"gasEstimates": {
					"creation": {
						"codeDepositCost": "563400",
						"executionCost": "598",
						"totalCost": "563998"
					},
					"external": {
						"foodAppContractAddress()": "2336",
						"getRestaurantOwner(uint128)": "4851",
						"initialize(address,address)": "infinite",
						"nextRestaurantId()": "2380",
						"owner()": "2352",
						"registerRestaurant(address)": "infinite",
						"renounceOwnership()": "infinite",
						"restaurantExists(uint128)": "2564",
						"restaurants(uint128)": "infinite",
						"restaurantsByOwner(address,uint256)": "6460",
						"transferOwnership(address)": "28475"
					}
				},
				"methodIdentifiers": {
					"foodAppContractAddress()": "832dbdd9",
					"getRestaurantOwner(uint128)": "b9588327",
					"initialize(address,address)": "485cc955",
					"nextRestaurantId()": "46bd8077",
					"owner()": "8da5cb5b",
					"registerRestaurant(address)": "bc5dd530",
					"renounceOwnership()": "715018a6",
					"restaurantExists(uint128)": "b2a6cb63",
					"restaurants(uint128)": "011eaad2",
					"restaurantsByOwner(address,uint256)": "36744f45",
					"transferOwnership(address)": "f2fde38b"
				}
			},
			"storageLayout": {
				"storage": [
					{
						"astId": 519,
						"contract": "contracts/RestaurantManager.sol:RestaurantManager",
						"label": "nextRestaurantId",
						"offset": 0,
						"slot": "0",
						"type": "t_uint128"
					},
					{
						"astId": 524,
						"contract": "contracts/RestaurantManager.sol:RestaurantManager",
						"label": "restaurants",
						"offset": 0,
						"slot": "1",
						"type": "t_mapping(t_uint128,t_struct(Restaurant)824_storage)"
					},
					{
						"astId": 529,
						"contract": "contracts/RestaurantManager.sol:RestaurantManager",
						"label": "restaurantsByOwner",
						"offset": 0,
						"slot": "2",
						"type": "t_mapping(t_address,t_array(t_uint128)dyn_storage)"
					},
					{
						"astId": 531,
						"contract": "contracts/RestaurantManager.sol:RestaurantManager",
						"label": "foodAppContractAddress",
						"offset": 0,
						"slot": "3",
						"type": "t_address"
					}
				],
				"types": {
					"t_address": {
						"encoding": "inplace",
						"label": "address",
						"numberOfBytes": "20"
					},
					"t_array(t_uint128)dyn_storage": {
						"base": "t_uint128",
						"encoding": "dynamic_array",
						"label": "uint128[]",
						"numberOfBytes": "32"
					},
					"t_mapping(t_address,t_array(t_uint128)dyn_storage)": {
						"encoding": "mapping",
						"key": "t_address",
						"label": "mapping(address => uint128[])",
						"numberOfBytes": "32",
						"value": "t_array(t_uint128)dyn_storage"
					},
					"t_mapping(t_uint128,t_struct(Restaurant)824_storage)": {
						"encoding": "mapping",
						"key": "t_uint128",
						"label": "mapping(uint128 => struct Restaurant)",
						"numberOfBytes": "32",
						"value": "t_struct(Restaurant)824_storage"
					},
					"t_string_storage": {
						"encoding": "bytes",
						"label": "string",
						"numberOfBytes": "32"
					},
					"t_struct(Restaurant)824_storage": {
						"encoding": "inplace",
						"label": "struct Restaurant",
						"members": [
							{
								"astId": 819,
								"contract": "contracts/RestaurantManager.sol:RestaurantManager",
								"label": "id",
								"offset": 0,
								"slot": "0",
								"type": "t_uint128"
							},
							{
								"astId": 821,
								"contract": "contracts/RestaurantManager.sol:RestaurantManager",
								"label": "owner",
								"offset": 0,
								"slot": "1",
								"type": "t_address"
							},
							{
								"astId": 823,
								"contract": "contracts/RestaurantManager.sol:RestaurantManager",
								"label": "name",
								"offset": 0,
								"slot": "2",
								"type": "t_string_storage"
							}
						],
						"numberOfBytes": "96"
					},
					"t_uint128": {
						"encoding": "inplace",
						"label": "uint128",
						"numberOfBytes": "16"
					}
				}
			},
			"userdoc": {
				"kind": "user",
				"methods": {},
				"version": 1
			}
		}
	}
}