{
	"data": {
		"bytecode": {
			"linkReferences": {},
			"object": "6080604052348015600e575f5ffd5b505f80546001600160a01b03191633179055610c8c8061002d5f395ff3fe608060405234801561000f575f5ffd5b5060043610610076575f3560e01c806302cfeaca1461007a5780630471219c146100b857806306419fe5146100cd578063698fb38c146100e0578063a8511f5a14610124578063dee893c214610137578063e03317e21461014a578063f851a4401461017c575b5f5ffd5b6100a26100883660046109b6565b60016020525f90815260409020546001600160a01b031681565b6040516100af91906109cd565b60405180910390f35b6100cb6100c63660046109fc565b61018e565b005b6100cb6100db366004610a60565b610263565b6100a26100ee366004610ac3565b600260209081525f928352604090922081518083018401805192815290840192909301919091209152546001600160a01b031681565b6100a2610132366004610b84565b610338565b6100a2610145366004610bc2565b6108af565b61016c6101583660046109fc565b60036020525f908152604090205460ff1681565b60405190151581526020016100af565b5f546100a2906001600160a01b031681565b5f546001600160a01b031633146101b857604051632333856760e11b815260040160405180910390fd5b6001600160a01b0381166101df5760405163b92c660560e01b815260040160405180910390fd5b6001600160a01b0381165f9081526003602052604090205460ff1615610218576040516305e42d8160e51b815260040160405180910390fd5b6001600160a01b0381165f81815260036020526040808220805460ff19166001179055517f40acd6a6e0976dabb14ff6b8b6ec06632812f9090d84b768d5c2a7bcda8539be9190a250565b5f546001600160a01b0316331461028d57604051632333856760e11b815260040160405180910390fd5b6001600160a01b0381166102b45760405163b92c660560e01b815260040160405180910390fd5b5f83836040516020016102c8929190610c10565b60408051808303601f1901815282825280516020918201205f818152600190925291812080546001600160a01b0319166001600160a01b038716908117909155919350909183917f4b4ee1a8c5ce94bc0300190d8e5d93808c513dbac15879dc51c1b5a3f73ae6a891a350505050565b335f8181526003602052604081205490919060ff1661036a5760405163577d4b8560e01b815260040160405180910390fd5b5f848460405160200161037e929190610c10565b60408051601f1981840301815282825280516020918201206001600160a01b0386165f9081526002909252918120919350916103bd9088908890610c10565b908152604051908190036020019020546001600160a01b0316146103f4576040516351a4ffef60e11b815260040160405180910390fd5b5f818152600160205260409020546001600160a01b0316806104295760405163820ee9e360e01b815260040160405180910390fd5b5f610433826108f8565b9050307ff094f37b69fb531c65b81278199f5c0867e4e81326f9caff6417f5dc86a7ee3984016104bd5760405163485cc95560e01b81526001600160a01b0383169063485cc9559061048b9088908590600401610c1f565b5f604051808303815f87803b1580156104a2575f5ffd5b505af11580156104b4573d5f5f3e3d5ffd5b505050506107f3565b7ff1e0aeb668bac4fc558624925de4edc3dfb7e138b35fbf1274918a9e51223e5884036105125760405163485cc95560e01b81526001600160a01b0383169063485cc9559061048b9088908590600401610c1f565b7f2335b578f972333fd9ef2743a6722bf46f16c3f49a604e771a495dce08428edc84036106bc576001600160a01b0385165f9081526002602052604080822090516a26b2b73aa6b0b730b3b2b960a91b8152600b019081526040805160209281900383018120546001600160a01b038a81165f90815260029095529284209216935061059d90610c39565b908152604051908190036020019020546001600160a01b03908116915082166105fc57604051630adc4dc760e41b815260206004820152600b60248201526a26b2b73aa6b0b730b3b2b960a91b60448201526064015b60405180910390fd5b6001600160a01b03811661064757604051630adc4dc760e41b81526020600482015260116024820152702932b9ba30bab930b73a26b0b730b3b2b960791b60448201526064016105f3565b604051637c643b2f60e11b81526001600160a01b03888116600483015283811660248301528281166044830152848116606483015285169063f8c8765e906084015f604051808303815f87803b15801561069f575f5ffd5b505af11580156106b1573d5f5f3e3d5ffd5b5050505050506107f3565b7f8bbf664581ba9b490e4c7bc54dcab50600ac9f4ea500db4ccfa4a065d91bb92e84036107da576001600160a01b0385165f90815260026020526040808220905161070690610c39565b908152604051908190036020019020546001600160a01b031690508061076e57604051630adc4dc760e41b815260206004820152601c60248201527b52657374617572616e744d616e6167657220666f722052657669657760201b60448201526064016105f3565b60405163c0c53b8b60e01b81526001600160a01b0387811660048301528281166024830152838116604483015284169063c0c53b8b906064015f604051808303815f87803b1580156107be575f5ffd5b505af11580156107d0573d5f5f3e3d5ffd5b50505050506107f3565b6040516338b87c4360e11b815260040160405180910390fd5b6001600160a01b0385165f9081526002602052604090819020905183919061081e908b908b90610c10565b90815260405190819003602001812080546001600160a01b03939093166001600160a01b03199093169290921790915561085b9089908990610c10565b6040518091039020856001600160a01b03167fc5dce3b4e11c1d8d79fdcfdc67f11ff335c6e47140ec01ee655b4f18ac3990758460405161089c91906109cd565b60405180910390a3509695505050505050565b6001600160a01b0383165f9081526002602052604080822090516108d69085908590610c10565b908152604051908190036020019020546001600160a01b031690509392505050565b604051733d602d80600a3d3981f3363d3d373d3d3d363d7360601b60208201526001600160601b0319606083901b1660348201526e5af43d82803e903d91602b57fd5bf360881b60488201525f90819060570160405160208183030381529060405290508051602082015ff091506001600160a01b0382166109b05760405162461bcd60e51b815260206004820152601160248201527011195c1b1bde5b595b9d0819985a5b1959607a1b60448201526064016105f3565b50919050565b5f602082840312156109c6575f5ffd5b5035919050565b6001600160a01b0391909116815260200190565b80356001600160a01b03811681146109f7575f5ffd5b919050565b5f60208284031215610a0c575f5ffd5b610a15826109e1565b9392505050565b5f5f83601f840112610a2c575f5ffd5b5081356001600160401b03811115610a42575f5ffd5b602083019150836020828501011115610a59575f5ffd5b9250929050565b5f5f5f60408486031215610a72575f5ffd5b83356001600160401b03811115610a87575f5ffd5b610a9386828701610a1c565b9094509250610aa69050602085016109e1565b90509250925092565b634e487b7160e01b5f52604160045260245ffd5b5f5f60408385031215610ad4575f5ffd5b610add836109e1565b915060208301356001600160401b03811115610af7575f5ffd5b8301601f81018513610b07575f5ffd5b80356001600160401b03811115610b2057610b20610aaf565b604051601f8201601f19908116603f011681016001600160401b0381118282101715610b4e57610b4e610aaf565b604052818152828201602001871015610b65575f5ffd5b816020840160208301375f602083830101528093505050509250929050565b5f5f60208385031215610b95575f5ffd5b82356001600160401b03811115610baa575f5ffd5b610bb685828601610a1c565b90969095509350505050565b5f5f5f60408486031215610bd4575f5ffd5b610bdd846109e1565b925060208401356001600160401b03811115610bf7575f5ffd5b610c0386828701610a1c565b9497909650939450505050565b818382375f9101908152919050565b6001600160a01b0392831681529116602082015260400190565b702932b9ba30bab930b73a26b0b730b3b2b960791b81526011019056fea26469706673582212209798ace9f690f40cf8d81b1ea99fd7656984d2d207f61ae05bb7a52016a0c9d064736f6c634300081e0033",
			"opcodes": "PUSH1 0x80 PUSH1 0x40 MSTORE CALLVALUE DUP1 ISZERO PUSH1 0xE JUMPI PUSH0 PUSH0 REVERT JUMPDEST POP PUSH0 DUP1 SLOAD PUSH1 0x1 PUSH1 0x1 PUSH1 0xA0 SHL SUB NOT AND CALLER OR SWAP1 SSTORE PUSH2 0xC8C DUP1 PUSH2 0x2D PUSH0 CODECOPY PUSH0 RETURN INVALID PUSH1 0x80 PUSH1 0x40 MSTORE CALLVALUE DUP1 ISZERO PUSH2 0xF JUMPI PUSH0 PUSH0 REVERT JUMPDEST POP PUSH1 0x4 CALLDATASIZE LT PUSH2 0x76 JUMPI PUSH0 CALLDATALOAD PUSH1 0xE0 SHR DUP1 PUSH4 0x2CFEACA EQ PUSH2 0x7A JUMPI DUP1 PUSH4 0x471219C EQ PUSH2 0xB8 JUMPI DUP1 PUSH4 0x6419FE5 EQ PUSH2 0xCD JUMPI DUP1 PUSH4 0x698FB38C EQ PUSH2 0xE0 JUMPI DUP1 PUSH4 0xA8511F5A EQ PUSH2 0x124 JUMPI DUP1 PUSH4 0xDEE893C2 EQ PUSH2 0x137 JUMPI DUP1 PUSH4 0xE03317E2 EQ PUSH2 0x14A JUMPI DUP1 PUSH4 0xF851A440 EQ PUSH2 0x17C JUMPI JUMPDEST PUSH0 PUSH0 REVERT JUMPDEST PUSH2 0xA2 PUSH2 0x88 CALLDATASIZE PUSH1 0x4 PUSH2 0x9B6 JUMP JUMPDEST PUSH1 0x1 PUSH1 0x20 MSTORE PUSH0 SWAP1 DUP2 MSTORE PUSH1 0x40 SWAP1 KECCAK256 SLOAD PUSH1 0x1 PUSH1 0x1 PUSH1 0xA0 SHL SUB AND DUP2 JUMP JUMPDEST PUSH1 0x40 MLOAD PUSH2 0xAF SWAP2 SWAP1 PUSH2 0x9CD JUMP JUMPDEST PUSH1 0x40 MLOAD DUP1 SWAP2 SUB SWAP1 RETURN JUMPDEST PUSH2 0xCB PUSH2 0xC6 CALLDATASIZE PUSH1 0x4 PUSH2 0x9FC JUMP JUMPDEST PUSH2 0x18E JUMP JUMPDEST STOP JUMPDEST PUSH2 0xCB PUSH2 0xDB CALLDATASIZE PUSH1 0x4 PUSH2 0xA60 JUMP JUMPDEST PUSH2 0x263 JUMP JUMPDEST PUSH2 0xA2 PUSH2 0xEE CALLDATASIZE PUSH1 0x4 PUSH2 0xAC3 JUMP JUMPDEST PUSH1 0x2 PUSH1 0x20 SWAP1 DUP2 MSTORE PUSH0 SWAP3 DUP4 MSTORE PUSH1 0x40 SWAP1 SWAP3 KECCAK256 DUP2 MLOAD DUP1 DUP4 ADD DUP5 ADD DUP1 MLOAD SWAP3 DUP2 MSTORE SWAP1 DUP5 ADD SWAP3 SWAP1 SWAP4 ADD SWAP2 SWAP1 SWAP2 KECCAK256 SWAP2 MSTORE SLOAD PUSH1 0x1 PUSH1 0x1 PUSH1 0xA0 SHL SUB AND DUP2 JUMP JUMPDEST PUSH2 0xA2 PUSH2 0x132 CALLDATASIZE PUSH1 0x4 PUSH2 0xB84 JUMP JUMPDEST PUSH2 0x338 JUMP JUMPDEST PUSH2 0xA2 PUSH2 0x145 CALLDATASIZE PUSH1 0x4 PUSH2 0xBC2 JUMP JUMPDEST PUSH2 0x8AF JUMP JUMPDEST PUSH2 0x16C PUSH2 0x158 CALLDATASIZE PUSH1 0x4 PUSH2 0x9FC JUMP JUMPDEST PUSH1 0x3 PUSH1 0x20 MSTORE PUSH0 SWAP1 DUP2 MSTORE PUSH1 0x40 SWAP1 KECCAK256 SLOAD PUSH1 0xFF AND DUP2 JUMP JUMPDEST PUSH1 0x40 MLOAD SWAP1 ISZERO ISZERO DUP2 MSTORE PUSH1 0x20 ADD PUSH2 0xAF JUMP JUMPDEST PUSH0 SLOAD PUSH2 0xA2 SWAP1 PUSH1 0x1 PUSH1 0x1 PUSH1 0xA0 SHL SUB AND DUP2 JUMP JUMPDEST PUSH0 SLOAD PUSH1 0x1 PUSH1 0x1 PUSH1 0xA0 SHL SUB AND CALLER EQ PUSH2 0x1B8 JUMPI PUSH1 0x40 MLOAD PUSH4 0x23338567 PUSH1 0xE1 SHL DUP2 MSTORE PUSH1 0x4 ADD PUSH1 0x40 MLOAD DUP1 SWAP2 SUB SWAP1 REVERT JUMPDEST PUSH1 0x1 PUSH1 0x1 PUSH1 0xA0 SHL SUB DUP2 AND PUSH2 0x1DF JUMPI PUSH1 0x40 MLOAD PUSH4 0xB92C6605 PUSH1 0xE0 SHL DUP2 MSTORE PUSH1 0x4 ADD PUSH1 0x40 MLOAD DUP1 SWAP2 SUB SWAP1 REVERT JUMPDEST PUSH1 0x1 PUSH1 0x1 PUSH1 0xA0 SHL SUB DUP2 AND PUSH0 SWAP1 DUP2 MSTORE PUSH1 0x3 PUSH1 0x20 MSTORE PUSH1 0x40 SWAP1 KECCAK256 SLOAD PUSH1 0xFF AND ISZERO PUSH2 0x218 JUMPI PUSH1 0x40 MLOAD PUSH4 0x5E42D81 PUSH1 0xE5 SHL DUP2 MSTORE PUSH1 0x4 ADD PUSH1 0x40 MLOAD DUP1 SWAP2 SUB SWAP1 REVERT JUMPDEST PUSH1 0x1 PUSH1 0x1 PUSH1 0xA0 SHL SUB DUP2 AND PUSH0 DUP2 DUP2 MSTORE PUSH1 0x3 PUSH1 0x20 MSTORE PUSH1 0x40 DUP1 DUP3 KECCAK256 DUP1 SLOAD PUSH1 0xFF NOT AND PUSH1 0x1 OR SWAP1 SSTORE MLOAD PUSH32 0x40ACD6A6E0976DABB14FF6B8B6EC06632812F9090D84B768D5C2A7BCDA8539BE SWAP2 SWAP1 LOG2 POP JUMP JUMPDEST PUSH0 SLOAD PUSH1 0x1 PUSH1 0x1 PUSH1 0xA0 SHL SUB AND CALLER EQ PUSH2 0x28D JUMPI PUSH1 0x40 MLOAD PUSH4 0x23338567 PUSH1 0xE1 SHL DUP2 MSTORE PUSH1 0x4 ADD PUSH1 0x40 MLOAD DUP1 SWAP2 SUB SWAP1 REVERT JUMPDEST PUSH1 0x1 PUSH1 0x1 PUSH1 0xA0 SHL SUB DUP2 AND PUSH2 0x2B4 JUMPI PUSH1 0x40 MLOAD PUSH4 0xB92C6605 PUSH1 0xE0 SHL DUP2 MSTORE PUSH1 0x4 ADD PUSH1 0x40 MLOAD DUP1 SWAP2 SUB SWAP1 REVERT JUMPDEST PUSH0 DUP4 DUP4 PUSH1 0x40 MLOAD PUSH1 0x20 ADD PUSH2 0x2C8 SWAP3 SWAP2 SWAP1 PUSH2 0xC10 JUMP JUMPDEST PUSH1 0x40 DUP1 MLOAD DUP1 DUP4 SUB PUSH1 0x1F NOT ADD DUP2 MSTORE DUP3 DUP3 MSTORE DUP1 MLOAD PUSH1 0x20 SWAP2 DUP3 ADD KECCAK256 PUSH0 DUP2 DUP2 MSTORE PUSH1 0x1 SWAP1 SWAP3 MSTORE SWAP2 DUP2 KECCAK256 DUP1 SLOAD PUSH1 0x1 PUSH1 0x1 PUSH1 0xA0 SHL SUB NOT AND PUSH1 0x1 PUSH1 0x1 PUSH1 0xA0 SHL SUB DUP8 AND SWAP1 DUP2 OR SWAP1 SWAP2 SSTORE SWAP2 SWAP4 POP SWAP1 SWAP2 DUP4 SWAP2 PUSH32 0x4B4EE1A8C5CE94BC0300190D8E5D93808C513DBAC15879DC51C1B5A3F73AE6A8 SWAP2 LOG3 POP POP POP POP JUMP JUMPDEST CALLER PUSH0 DUP2 DUP2 MSTORE PUSH1 0x3 PUSH1 0x20 MSTORE PUSH1 0x40 DUP2 KECCAK256 SLOAD SWAP1 SWAP2 SWAP1 PUSH1 0xFF AND PUSH2 0x36A JUMPI PUSH1 0x40 MLOAD PUSH4 0x577D4B85 PUSH1 0xE0 SHL DUP2 MSTORE PUSH1 0x4 ADD PUSH1 0x40 MLOAD DUP1 SWAP2 SUB SWAP1 REVERT JUMPDEST PUSH0 DUP5 DUP5 PUSH1 0x40 MLOAD PUSH1 0x20 ADD PUSH2 0x37E SWAP3 SWAP2 SWAP1 PUSH2 0xC10 JUMP JUMPDEST PUSH1 0x40 DUP1 MLOAD PUSH1 0x1F NOT DUP2 DUP5 SUB ADD DUP2 MSTORE DUP3 DUP3 MSTORE DUP1 MLOAD PUSH1 0x20 SWAP2 DUP3 ADD KECCAK256 PUSH1 0x1 PUSH1 0x1 PUSH1 0xA0 SHL SUB DUP7 AND PUSH0 SWAP1 DUP2 MSTORE PUSH1 0x2 SWAP1 SWAP3 MSTORE SWAP2 DUP2 KECCAK256 SWAP2 SWAP4 POP SWAP2 PUSH2 0x3BD SWAP1 DUP9 SWAP1 DUP9 SWAP1 PUSH2 0xC10 JUMP JUMPDEST SWAP1 DUP2 MSTORE PUSH1 0x40 MLOAD SWAP1 DUP2 SWAP1 SUB PUSH1 0x20 ADD SWAP1 KECCAK256 SLOAD PUSH1 0x1 PUSH1 0x1 PUSH1 0xA0 SHL SUB AND EQ PUSH2 0x3F4 JUMPI PUSH1 0x40 MLOAD PUSH4 0x51A4FFEF PUSH1 0xE1 SHL DUP2 MSTORE PUSH1 0x4 ADD PUSH1 0x40 MLOAD DUP1 SWAP2 SUB SWAP1 REVERT JUMPDEST PUSH0 DUP2 DUP2 MSTORE PUSH1 0x1 PUSH1 0x20 MSTORE PUSH1 0x40 SWAP1 KECCAK256 SLOAD PUSH1 0x1 PUSH1 0x1 PUSH1 0xA0 SHL SUB AND DUP1 PUSH2 0x429 JUMPI PUSH1 0x40 MLOAD PUSH4 0x820EE9E3 PUSH1 0xE0 SHL DUP2 MSTORE PUSH1 0x4 ADD PUSH1 0x40 MLOAD DUP1 SWAP2 SUB SWAP1 REVERT JUMPDEST PUSH0 PUSH2 0x433 DUP3 PUSH2 0x8F8 JUMP JUMPDEST SWAP1 POP ADDRESS PUSH32 0xF094F37B69FB531C65B81278199F5C0867E4E81326F9CAFF6417F5DC86A7EE39 DUP5 ADD PUSH2 0x4BD JUMPI PUSH1 0x40 MLOAD PUSH4 0x485CC955 PUSH1 0xE0 SHL DUP2 MSTORE PUSH1 0x1 PUSH1 0x1 PUSH1 0xA0 SHL SUB DUP4 AND SWAP1 PUSH4 0x485CC955 SWAP1 PUSH2 0x48B SWAP1 DUP9 SWAP1 DUP6 SWAP1 PUSH1 0x4 ADD PUSH2 0xC1F JUMP JUMPDEST PUSH0 PUSH1 0x40 MLOAD DUP1 DUP4 SUB DUP2 PUSH0 DUP8 DUP1 EXTCODESIZE ISZERO DUP1 ISZERO PUSH2 0x4A2 JUMPI PUSH0 PUSH0 REVERT JUMPDEST POP GAS CALL ISZERO DUP1 ISZERO PUSH2 0x4B4 JUMPI RETURNDATASIZE PUSH0 PUSH0 RETURNDATACOPY RETURNDATASIZE PUSH0 REVERT JUMPDEST POP POP POP POP PUSH2 0x7F3 JUMP JUMPDEST PUSH32 0xF1E0AEB668BAC4FC558624925DE4EDC3DFB7E138B35FBF1274918A9E51223E58 DUP5 SUB PUSH2 0x512 JUMPI PUSH1 0x40 MLOAD PUSH4 0x485CC955 PUSH1 0xE0 SHL DUP2 MSTORE PUSH1 0x1 PUSH1 0x1 PUSH1 0xA0 SHL SUB DUP4 AND SWAP1 PUSH4 0x485CC955 SWAP1 PUSH2 0x48B SWAP1 DUP9 SWAP1 DUP6 SWAP1 PUSH1 0x4 ADD PUSH2 0xC1F JUMP JUMPDEST PUSH32 0x2335B578F972333FD9EF2743A6722BF46F16C3F49A604E771A495DCE08428EDC DUP5 SUB PUSH2 0x6BC JUMPI PUSH1 0x1 PUSH1 0x1 PUSH1 0xA0 SHL SUB DUP6 AND PUSH0 SWAP1 DUP2 MSTORE PUSH1 0x2 PUSH1 0x20 MSTORE PUSH1 0x40 DUP1 DUP3 KECCAK256 SWAP1 MLOAD PUSH11 0x26B2B73AA6B0B730B3B2B9 PUSH1 0xA9 SHL DUP2 MSTORE PUSH1 0xB ADD SWAP1 DUP2 MSTORE PUSH1 0x40 DUP1 MLOAD PUSH1 0x20 SWAP3 DUP2 SWAP1 SUB DUP4 ADD DUP2 KECCAK256 SLOAD PUSH1 0x1 PUSH1 0x1 PUSH1 0xA0 SHL SUB DUP11 DUP2 AND PUSH0 SWAP1 DUP2 MSTORE PUSH1 0x2 SWAP1 SWAP6 MSTORE SWAP3 DUP5 KECCAK256 SWAP3 AND SWAP4 POP PUSH2 0x59D SWAP1 PUSH2 0xC39 JUMP JUMPDEST SWAP1 DUP2 MSTORE PUSH1 0x40 MLOAD SWAP1 DUP2 SWAP1 SUB PUSH1 0x20 ADD SWAP1 KECCAK256 SLOAD PUSH1 0x1 PUSH1 0x1 PUSH1 0xA0 SHL SUB SWAP1 DUP2 AND SWAP2 POP DUP3 AND PUSH2 0x5FC JUMPI PUSH1 0x40 MLOAD PUSH4 0xADC4DC7 PUSH1 0xE4 SHL DUP2 MSTORE PUSH1 0x20 PUSH1 0x4 DUP3 ADD MSTORE PUSH1 0xB PUSH1 0x24 DUP3 ADD MSTORE PUSH11 0x26B2B73AA6B0B730B3B2B9 PUSH1 0xA9 SHL PUSH1 0x44 DUP3 ADD MSTORE PUSH1 0x64 ADD JUMPDEST PUSH1 0x40 MLOAD DUP1 SWAP2 SUB SWAP1 REVERT JUMPDEST PUSH1 0x1 PUSH1 0x1 PUSH1 0xA0 SHL SUB DUP2 AND PUSH2 0x647 JUMPI PUSH1 0x40 MLOAD PUSH4 0xADC4DC7 PUSH1 0xE4 SHL DUP2 MSTORE PUSH1 0x20 PUSH1 0x4 DUP3 ADD MSTORE PUSH1 0x11 PUSH1 0x24 DUP3 ADD MSTORE PUSH17 0x2932B9BA30BAB930B73A26B0B730B3B2B9 PUSH1 0x79 SHL PUSH1 0x44 DUP3 ADD MSTORE PUSH1 0x64 ADD PUSH2 0x5F3 JUMP JUMPDEST PUSH1 0x40 MLOAD PUSH4 0x7C643B2F PUSH1 0xE1 SHL DUP2 MSTORE PUSH1 0x1 PUSH1 0x1 PUSH1 0xA0 SHL SUB DUP9 DUP2 AND PUSH1 0x4 DUP4 ADD MSTORE DUP4 DUP2 AND PUSH1 0x24 DUP4 ADD MSTORE DUP3 DUP2 AND PUSH1 0x44 DUP4 ADD MSTORE DUP5 DUP2 AND PUSH1 0x64 DUP4 ADD MSTORE DUP6 AND SWAP1 PUSH4 0xF8C8765E SWAP1 PUSH1 0x84 ADD PUSH0 PUSH1 0x40 MLOAD DUP1 DUP4 SUB DUP2 PUSH0 DUP8 DUP1 EXTCODESIZE ISZERO DUP1 ISZERO PUSH2 0x69F JUMPI PUSH0 PUSH0 REVERT JUMPDEST POP GAS CALL ISZERO DUP1 ISZERO PUSH2 0x6B1 JUMPI RETURNDATASIZE PUSH0 PUSH0 RETURNDATACOPY RETURNDATASIZE PUSH0 REVERT JUMPDEST POP POP POP POP POP POP PUSH2 0x7F3 JUMP JUMPDEST PUSH32 0x8BBF664581BA9B490E4C7BC54DCAB50600AC9F4EA500DB4CCFA4A065D91BB92E DUP5 SUB PUSH2 0x7DA JUMPI PUSH1 0x1 PUSH1 0x1 PUSH1 0xA0 SHL SUB DUP6 AND PUSH0 SWAP1 DUP2 MSTORE PUSH1 0x2 PUSH1 0x20 MSTORE PUSH1 0x40 DUP1 DUP3 KECCAK256 SWAP1 MLOAD PUSH2 0x706 SWAP1 PUSH2 0xC39 JUMP JUMPDEST SWAP1 DUP2 MSTORE PUSH1 0x40 MLOAD SWAP1 DUP2 SWAP1 SUB PUSH1 0x20 ADD SWAP1 KECCAK256 SLOAD PUSH1 0x1 PUSH1 0x1 PUSH1 0xA0 SHL SUB AND SWAP1 POP DUP1 PUSH2 0x76E JUMPI PUSH1 0x40 MLOAD PUSH4 0xADC4DC7 PUSH1 0xE4 SHL DUP2 MSTORE PUSH1 0x20 PUSH1 0x4 DUP3 ADD MSTORE PUSH1 0x1C PUSH1 0x24 DUP3 ADD MSTORE PUSH28 0x52657374617572616E744D616E6167657220666F7220526576696577 PUSH1 0x20 SHL PUSH1 0x44 DUP3 ADD MSTORE PUSH1 0x64 ADD PUSH2 0x5F3 JUMP JUMPDEST PUSH1 0x40 MLOAD PUSH4 0xC0C53B8B PUSH1 0xE0 SHL DUP2 MSTORE PUSH1 0x1 PUSH1 0x1 PUSH1 0xA0 SHL SUB DUP8 DUP2 AND PUSH1 0x4 DUP4 ADD MSTORE DUP3 DUP2 AND PUSH1 0x24 DUP4 ADD MSTORE DUP4 DUP2 AND PUSH1 0x44 DUP4 ADD MSTORE DUP5 AND SWAP1 PUSH4 0xC0C53B8B SWAP1 PUSH1 0x64 ADD PUSH0 PUSH1 0x40 MLOAD DUP1 DUP4 SUB DUP2 PUSH0 DUP8 DUP1 EXTCODESIZE ISZERO DUP1 ISZERO PUSH2 0x7BE JUMPI PUSH0 PUSH0 REVERT JUMPDEST POP GAS CALL ISZERO DUP1 ISZERO PUSH2 0x7D0 JUMPI RETURNDATASIZE PUSH0 PUSH0 RETURNDATACOPY RETURNDATASIZE PUSH0 REVERT JUMPDEST POP POP POP POP POP PUSH2 0x7F3 JUMP JUMPDEST PUSH1 0x40 MLOAD PUSH4 0x38B87C43 PUSH1 0xE1 SHL DUP2 MSTORE PUSH1 0x4 ADD PUSH1 0x40 MLOAD DUP1 SWAP2 SUB SWAP1 REVERT JUMPDEST PUSH1 0x1 PUSH1 0x1 PUSH1 0xA0 SHL SUB DUP6 AND PUSH0 SWAP1 DUP2 MSTORE PUSH1 0x2 PUSH1 0x20 MSTORE PUSH1 0x40 SWAP1 DUP2 SWAP1 KECCAK256 SWAP1 MLOAD DUP4 SWAP2 SWAP1 PUSH2 0x81E SWAP1 DUP12 SWAP1 DUP12 SWAP1 PUSH2 0xC10 JUMP JUMPDEST SWAP1 DUP2 MSTORE PUSH1 0x40 MLOAD SWAP1 DUP2 SWAP1 SUB PUSH1 0x20 ADD DUP2 KECCAK256 DUP1 SLOAD PUSH1 0x1 PUSH1 0x1 PUSH1 0xA0 SHL SUB SWAP4 SWAP1 SWAP4 AND PUSH1 0x1 PUSH1 0x1 PUSH1 0xA0 SHL SUB NOT SWAP1 SWAP4 AND SWAP3 SWAP1 SWAP3 OR SWAP1 SWAP2 SSTORE PUSH2 0x85B SWAP1 DUP10 SWAP1 DUP10 SWAP1 PUSH2 0xC10 JUMP JUMPDEST PUSH1 0x40 MLOAD DUP1 SWAP2 SUB SWAP1 KECCAK256 DUP6 PUSH1 0x1 PUSH1 0x1 PUSH1 0xA0 SHL SUB AND PUSH32 0xC5DCE3B4E11C1D8D79FDCFDC67F11FF335C6E47140EC01EE655B4F18AC399075 DUP5 PUSH1 0x40 MLOAD PUSH2 0x89C SWAP2 SWAP1 PUSH2 0x9CD JUMP JUMPDEST PUSH1 0x40 MLOAD DUP1 SWAP2 SUB SWAP1 LOG3 POP SWAP7 SWAP6 POP POP POP POP POP POP JUMP JUMPDEST PUSH1 0x1 PUSH1 0x1 PUSH1 0xA0 SHL SUB DUP4 AND PUSH0 SWAP1 DUP2 MSTORE PUSH1 0x2 PUSH1 0x20 MSTORE PUSH1 0x40 DUP1 DUP3 KECCAK256 SWAP1 MLOAD PUSH2 0x8D6 SWAP1 DUP6 SWAP1 DUP6 SWAP1 PUSH2 0xC10 JUMP JUMPDEST SWAP1 DUP2 MSTORE PUSH1 0x40 MLOAD SWAP1 DUP2 SWAP1 SUB PUSH1 0x20 ADD SWAP1 KECCAK256 SLOAD PUSH1 0x1 PUSH1 0x1 PUSH1 0xA0 SHL SUB AND SWAP1 POP SWAP4 SWAP3 POP POP POP JUMP JUMPDEST PUSH1 0x40 MLOAD PUSH20 0x3D602D80600A3D3981F3363D3D373D3D3D363D73 PUSH1 0x60 SHL PUSH1 0x20 DUP3 ADD MSTORE PUSH1 0x1 PUSH1 0x1 PUSH1 0x60 SHL SUB NOT PUSH1 0x60 DUP4 SWAP1 SHL AND PUSH1 0x34 DUP3 ADD MSTORE PUSH15 0x5AF43D82803E903D91602B57FD5BF3 PUSH1 0x88 SHL PUSH1 0x48 DUP3 ADD MSTORE PUSH0 SWAP1 DUP2 SWAP1 PUSH1 0x57 ADD PUSH1 0x40 MLOAD PUSH1 0x20 DUP2 DUP4 SUB SUB DUP2 MSTORE SWAP1 PUSH1 0x40 MSTORE SWAP1 POP DUP1 MLOAD PUSH1 0x20 DUP3 ADD PUSH0 CREATE SWAP2 POP PUSH1 0x1 PUSH1 0x1 PUSH1 0xA0 SHL SUB DUP3 AND PUSH2 0x9B0 JUMPI PUSH1 0x40 MLOAD PUSH3 0x461BCD PUSH1 0xE5 SHL DUP2 MSTORE PUSH1 0x20 PUSH1 0x4 DUP3 ADD MSTORE PUSH1 0x11 PUSH1 0x24 DUP3 ADD MSTORE PUSH17 0x11195C1B1BDE5B595B9D0819985A5B1959 PUSH1 0x7A SHL PUSH1 0x44 DUP3 ADD MSTORE PUSH1 0x64 ADD PUSH2 0x5F3 JUMP JUMPDEST POP SWAP2 SWAP1 POP JUMP JUMPDEST PUSH0 PUSH1 0x20 DUP3 DUP5 SUB SLT ISZERO PUSH2 0x9C6 JUMPI PUSH0 PUSH0 REVERT JUMPDEST POP CALLDATALOAD SWAP2 SWAP1 POP JUMP JUMPDEST PUSH1 0x1 PUSH1 0x1 PUSH1 0xA0 SHL SUB SWAP2 SWAP1 SWAP2 AND DUP2 MSTORE PUSH1 0x20 ADD SWAP1 JUMP JUMPDEST DUP1 CALLDATALOAD PUSH1 0x1 PUSH1 0x1 PUSH1 0xA0 SHL SUB DUP2 AND DUP2 EQ PUSH2 0x9F7 JUMPI PUSH0 PUSH0 REVERT JUMPDEST SWAP2 SWAP1 POP JUMP JUMPDEST PUSH0 PUSH1 0x20 DUP3 DUP5 SUB SLT ISZERO PUSH2 0xA0C JUMPI PUSH0 PUSH0 REVERT JUMPDEST PUSH2 0xA15 DUP3 PUSH2 0x9E1 JUMP JUMPDEST SWAP4 SWAP3 POP POP POP JUMP JUMPDEST PUSH0 PUSH0 DUP4 PUSH1 0x1F DUP5 ADD SLT PUSH2 0xA2C JUMPI PUSH0 PUSH0 REVERT JUMPDEST POP DUP2 CALLDATALOAD PUSH1 0x1 PUSH1 0x1 PUSH1 0x40 SHL SUB DUP2 GT ISZERO PUSH2 0xA42 JUMPI PUSH0 PUSH0 REVERT JUMPDEST PUSH1 0x20 DUP4 ADD SWAP2 POP DUP4 PUSH1 0x20 DUP3 DUP6 ADD ADD GT ISZERO PUSH2 0xA59 JUMPI PUSH0 PUSH0 REVERT JUMPDEST SWAP3 POP SWAP3 SWAP1 POP JUMP JUMPDEST PUSH0 PUSH0 PUSH0 PUSH1 0x40 DUP5 DUP7 SUB SLT ISZERO PUSH2 0xA72 JUMPI PUSH0 PUSH0 REVERT JUMPDEST DUP4 CALLDATALOAD PUSH1 0x1 PUSH1 0x1 PUSH1 0x40 SHL SUB DUP2 GT ISZERO PUSH2 0xA87 JUMPI PUSH0 PUSH0 REVERT JUMPDEST PUSH2 0xA93 DUP7 DUP3 DUP8 ADD PUSH2 0xA1C JUMP JUMPDEST SWAP1 SWAP5 POP SWAP3 POP PUSH2 0xAA6 SWAP1 POP PUSH1 0x20 DUP6 ADD PUSH2 0x9E1 JUMP JUMPDEST SWAP1 POP SWAP3 POP SWAP3 POP SWAP3 JUMP JUMPDEST PUSH4 0x4E487B71 PUSH1 0xE0 SHL PUSH0 MSTORE PUSH1 0x41 PUSH1 0x4 MSTORE PUSH1 0x24 PUSH0 REVERT JUMPDEST PUSH0 PUSH0 PUSH1 0x40 DUP4 DUP6 SUB SLT ISZERO PUSH2 0xAD4 JUMPI PUSH0 PUSH0 REVERT JUMPDEST PUSH2 0xADD DUP4 PUSH2 0x9E1 JUMP JUMPDEST SWAP2 POP PUSH1 0x20 DUP4 ADD CALLDATALOAD PUSH1 0x1 PUSH1 0x1 PUSH1 0x40 SHL SUB DUP2 GT ISZERO PUSH2 0xAF7 JUMPI PUSH0 PUSH0 REVERT JUMPDEST DUP4 ADD PUSH1 0x1F DUP2 ADD DUP6 SGT PUSH2 0xB07 JUMPI PUSH0 PUSH0 REVERT JUMPDEST DUP1 CALLDATALOAD PUSH1 0x1 PUSH1 0x1 PUSH1 0x40 SHL SUB DUP2 GT ISZERO PUSH2 0xB20 JUMPI PUSH2 0xB20 PUSH2 0xAAF JUMP JUMPDEST PUSH1 0x40 MLOAD PUSH1 0x1F DUP3 ADD PUSH1 0x1F NOT SWAP1 DUP2 AND PUSH1 0x3F ADD AND DUP2 ADD PUSH1 0x1 PUSH1 0x1 PUSH1 0x40 SHL SUB DUP2 GT DUP3 DUP3 LT OR ISZERO PUSH2 0xB4E JUMPI PUSH2 0xB4E PUSH2 0xAAF JUMP JUMPDEST PUSH1 0x40 MSTORE DUP2 DUP2 MSTORE DUP3 DUP3 ADD PUSH1 0x20 ADD DUP8 LT ISZERO PUSH2 0xB65 JUMPI PUSH0 PUSH0 REVERT JUMPDEST DUP2 PUSH1 0x20 DUP5 ADD PUSH1 0x20 DUP4 ADD CALLDATACOPY PUSH0 PUSH1 0x20 DUP4 DUP4 ADD ADD MSTORE DUP1 SWAP4 POP POP POP POP SWAP3 POP SWAP3 SWAP1 POP JUMP JUMPDEST PUSH0 PUSH0 PUSH1 0x20 DUP4 DUP6 SUB SLT ISZERO PUSH2 0xB95 JUMPI PUSH0 PUSH0 REVERT JUMPDEST DUP3 CALLDATALOAD PUSH1 0x1 PUSH1 0x1 PUSH1 0x40 SHL SUB DUP2 GT ISZERO PUSH2 0xBAA JUMPI PUSH0 PUSH0 REVERT JUMPDEST PUSH2 0xBB6 DUP6 DUP3 DUP7 ADD PUSH2 0xA1C JUMP JUMPDEST SWAP1 SWAP7 SWAP1 SWAP6 POP SWAP4 POP POP POP POP JUMP JUMPDEST PUSH0 PUSH0 PUSH0 PUSH1 0x40 DUP5 DUP7 SUB SLT ISZERO PUSH2 0xBD4 JUMPI PUSH0 PUSH0 REVERT JUMPDEST PUSH2 0xBDD DUP5 PUSH2 0x9E1 JUMP JUMPDEST SWAP3 POP PUSH1 0x20 DUP5 ADD CALLDATALOAD PUSH1 0x1 PUSH1 0x1 PUSH1 0x40 SHL SUB DUP2 GT ISZERO PUSH2 0xBF7 JUMPI PUSH0 PUSH0 REVERT JUMPDEST PUSH2 0xC03 DUP7 DUP3 DUP8 ADD PUSH2 0xA1C JUMP JUMPDEST SWAP5 SWAP8 SWAP1 SWAP7 POP SWAP4 SWAP5 POP POP POP POP JUMP JUMPDEST DUP2 DUP4 DUP3 CALLDATACOPY PUSH0 SWAP2 ADD SWAP1 DUP2 MSTORE SWAP2 SWAP1 POP JUMP JUMPDEST PUSH1 0x1 PUSH1 0x1 PUSH1 0xA0 SHL SUB SWAP3 DUP4 AND DUP2 MSTORE SWAP2 AND PUSH1 0x20 DUP3 ADD MSTORE PUSH1 0x40 ADD SWAP1 JUMP JUMPDEST PUSH17 0x2932B9BA30BAB930B73A26B0B730B3B2B9 PUSH1 0x79 SHL DUP2 MSTORE PUSH1 0x11 ADD SWAP1 JUMP INVALID LOG2 PUSH5 0x6970667358 0x22 SLT KECCAK256 SWAP8 SWAP9 0xAC 0xE9 0xF6 SWAP1 DELEGATECALL 0xC EXTCALL 0xD8 SHL 0x1E 0xA9 SWAP16 0xD7 PUSH6 0x6984D2D207F6 BYTE RJUMP 0x5BB7 0xA5 KECCAK256 AND LOG0 0xC9 0xD0 PUSH5 0x736F6C6343 STOP ADDMOD 0x1E STOP CALLER "
		},
		"gasEstimates": {
			"creation": {
				"codeDepositCost": "642400",
				"executionCost": "24908",
				"totalCost": "667308"
			},
			"external": {
				"admin()": "2491",
				"deployManager(string)": "infinite",
				"getManager(address,string)": "infinite",
				"implementations(bytes32)": "2476",
				"isFoodApp(address)": "2638",
				"managers(address,string)": "infinite",
				"registerFoodApp(address)": "30138",
				"setImplementation(string,address)": "infinite"
			}
		},
		"methodIdentifiers": {
			"admin()": "f851a440",
			"deployManager(string)": "a8511f5a",
			"getManager(address,string)": "dee893c2",
			"implementations(bytes32)": "02cfeaca",
			"isFoodApp(address)": "e03317e2",
			"managers(address,string)": "698fb38c",
			"registerFoodApp(address)": "0471219c",
			"setImplementation(string,address)": "06419fe5"
		}
	},
	"abi": [
		{
			"inputs": [],
			"stateMutability": "nonpayable",
			"type": "constructor"
		},
		{
			"inputs": [],
			"name": "FoodAppFactory__AlreadyRegistered",
			"type": "error"
		},
		{
			"inputs": [
				{
					"internalType": "string",
					"name": "dependency",
					"type": "string"
				}
			],
			"name": "FoodAppFactory__DependencyNotDeployed",
			"type": "error"
		},
		{
			"inputs": [],
			"name": "FoodAppFactory__ImplementationNotSet",
			"type": "error"
		},
		{
			"inputs": [],
			"name": "FoodAppFactory__InvalidAddress",
			"type": "error"
		},
		{
			"inputs": [],
			"name": "FoodAppFactory__ManagerAlreadyDeployed",
			"type": "error"
		},
		{
			"inputs": [],
			"name": "FoodAppFactory__NotRegisteredFoodApp",
			"type": "error"
		},
		{
			"inputs": [],
			"name": "FoodAppFactory__OnlyAdmin",
			"type": "error"
		},
		{
			"inputs": [],
			"name": "FoodAppFactory__UnknownManagerType",
			"type": "error"
		},
		{
			"anonymous": false,
			"inputs": [
				{
					"indexed": true,
					"internalType": "address",
					"name": "foodApp",
					"type": "address"
				}
			],
			"name": "FoodAppRegistered",
			"type": "event"
		},
		{
			"anonymous": false,
			"inputs": [
				{
					"indexed": true,
					"internalType": "bytes32",
					"name": "managerTypeHash",
					"type": "bytes32"
				},
				{
					"indexed": true,
					"internalType": "address",
					"name": "implementationAddress",
					"type": "address"
				}
			],
			"name": "ImplementationSet",
			"type": "event"
		},
		{
			"anonymous": false,
			"inputs": [
				{
					"indexed": true,
					"internalType": "address",
					"name": "foodApp",
					"type": "address"
				},
				{
					"indexed": true,
					"internalType": "string",
					"name": "managerType",
					"type": "string"
				},
				{
					"indexed": false,
					"internalType": "address",
					"name": "manager",
					"type": "address"
				}
			],
			"name": "ManagerDeployed",
			"type": "event"
		},
		{
			"inputs": [],
			"name": "admin",
			"outputs": [
				{
					"internalType": "address",
					"name": "",
					"type": "address"
				}
			],
			"stateMutability": "view",
			"type": "function"
		},
		{
			"inputs": [
				{
					"internalType": "string",
					"name": "managerType",
					"type": "string"
				}
			],
			"name": "deployManager",
			"outputs": [
				{
					"internalType": "address",
					"name": "",
					"type": "address"
				}
			],
			"stateMutability": "nonpayable",
			"type": "function"
		},
		{
			"inputs": [
				{
					"internalType": "address",
					"name": "foodApp",
					"type": "address"
				},
				{
					"internalType": "string",
					"name": "managerType",
					"type": "string"
				}
			],
			"name": "getManager",
			"outputs": [
				{
					"internalType": "address",
					"name": "",
					"type": "address"
				}
			],
			"stateMutability": "view",
			"type": "function"
		},
		{
			"inputs": [
				{
					"internalType": "bytes32",
					"name": "",
					"type": "bytes32"
				}
			],
			"name": "implementations",
			"outputs": [
				{
					"internalType": "address",
					"name": "",
					"type": "address"
				}
			],
			"stateMutability": "view",
			"type": "function"
		},
		{
			"inputs": [
				{
					"internalType": "address",
					"name": "",
					"type": "address"
				}
			],
			"name": "isFoodApp",
			"outputs": [
				{
					"internalType": "bool",
					"name": "",
					"type": "bool"
				}
			],
			"stateMutability": "view",
			"type": "function"
		},
		{
			"inputs": [
				{
					"internalType": "address",
					"name": "",
					"type": "address"
				},
				{
					"internalType": "string",
					"name": "",
					"type": "string"
				}
			],
			"name": "managers",
			"outputs": [
				{
					"internalType": "address",
					"name": "",
					"type": "address"
				}
			],
			"stateMutability": "view",
			"type": "function"
		},
		{
			"inputs": [
				{
					"internalType": "address",
					"name": "_foodApp",
					"type": "address"
				}
			],
			"name": "registerFoodApp",
			"outputs": [],
			"stateMutability": "nonpayable",
			"type": "function"
		},
		{
			"inputs": [
				{
					"internalType": "string",
					"name": "managerType",
					"type": "string"
				},
				{
					"internalType": "address",
					"name": "implementationAddress",
					"type": "address"
				}
			],
			"name": "setImplementation",
			"outputs": [],
			"stateMutability": "nonpayable",
			"type": "function"
		}
	]
}