{
	"data": {
		"bytecode": {
			"linkReferences": {},
			"object": "6080604052348015600e575f5ffd5b50613ba78061001c5f395ff3fe608060405260043610610192575f3560e01c80629d2013146101965780631bb91f9f146101b75780632134b6f6146101cb57806323a336f51461020057806327c4a7a11461021f578063287128c41461024b578063294ac1a714610277578063319ba6031461028b5780633cd3741d146102aa5780633e840236146102c9578063485cc955146102e85780635059e95b14610307578063520dd0461461032657806366fab191146103455780636c5f005c146103645780636e398f01146103785780636e92ae5214610397578063715018a6146103b657806380e52e3f146103ca5780638da5cb5b146103e957806399374642146103fd57806399eaeaba14610438578063a096b94b14610457578063addfa35314610476578063bfc72e8b14610495578063c45a0155146104b4578063c7f9704d146104d3578063c9b81583146104e7578063ce4cf9cb14610506578063e0ed2ece1461054f578063e47667361461057b578063ea38d06d1461058e578063f2fde38b146105ad578063f8505e7f146105cc578063f9b6117f146105eb575b5f5ffd5b3480156101a1575f5ffd5b506101b56101b0366004612a89565b61060a565b005b3480156101c2575f5ffd5b506101b56106ed565b3480156101d6575f5ffd5b506037546101ea906001600160a01b031681565b6040516101f79190612ac0565b60405180910390f35b34801561020b575f5ffd5b506101b561021a366004612bfe565b6107d1565b34801561022a575f5ffd5b5061023e610239366004612c60565b61097d565b6040516101f79190612d83565b348015610256575f5ffd5b5061026a610265366004612e27565b610ae1565b6040516101f79190612e42565b348015610282575f5ffd5b506101b5610c0d565b348015610296575f5ffd5b506101b56102a5366004612c60565b610da3565b3480156102b5575f5ffd5b506101b56102c4366004612c60565b610eb8565b3480156102d4575f5ffd5b506101b56102e3366004612e64565b611006565b3480156102f3575f5ffd5b506101b5610302366004612e97565b6110a0565b348015610312575f5ffd5b506038546101ea906001600160a01b031681565b348015610331575f5ffd5b506101b5610340366004612ecf565b6111e9565b348015610350575f5ffd5b506101b561035f366004612e27565b61132d565b34801561036f575f5ffd5b506101b561137e565b348015610383575f5ffd5b506101b5610392366004612f13565b611458565b3480156103a2575f5ffd5b506035546101ea906001600160a01b031681565b3480156103c1575f5ffd5b506101b5611732565b3480156103d5575f5ffd5b506101b56103e4366004612e27565b611745565b3480156103f4575f5ffd5b506101ea6117dd565b348015610408575f5ffd5b5061042b610417366004612e27565b60326020525f908152604090205460ff1681565b6040516101f79190613029565b348015610443575f5ffd5b506101b5610452366004613037565b6117f7565b348015610462575f5ffd5b506101b5610471366004613053565b611a9c565b348015610481575f5ffd5b506101b5610490366004613138565b611d50565b3480156104a0575f5ffd5b506101b56104af366004612a89565b61201c565b3480156104bf575f5ffd5b506036546101ea906001600160a01b031681565b3480156104de575f5ffd5b506101b5612123565b3480156104f2575f5ffd5b50603a546101ea906001600160a01b031681565b348015610511575f5ffd5b5061053f610520366004612a89565b603360209081525f928352604080842090915290825290205460ff1681565b60405190151581526020016101f7565b34801561055a575f5ffd5b5061056e610569366004613037565b612262565b6040516101f7919061317c565b6101b5610589366004613309565b612361565b348015610599575f5ffd5b506101b56105a8366004612e64565b612521565b3480156105b8575f5ffd5b506101b56105c7366004612e27565b6125bc565b3480156105d7575f5ffd5b506101b56105e6366004613138565b6125f6565b3480156105f6575f5ffd5b506039546101ea906001600160a01b031681565b6034546001600160a01b0316331461063557604051631a31054160e11b815260040160405180910390fd5b6001600160a01b0382165f9081526033602090815260408083206001600160801b038516845290915290205460ff1661068e5781816040516358cce33760e01b8152600401610685929190613373565b60405180910390fd5b6001600160a01b0382165f8181526033602090815260408083206001600160801b0386168085529252808320805460ff19169055519092917f2091a7a9f4bd1d3537c45c3143a470b7c349709a4b0b9e9b2a8f3e37c9de0e2591a35050565b6106f56127a0565b6038546001600160a01b03161561071f57604051638bf2c4a560e01b8152600401610685906133b3565b6036546040516354288fad60e11b81526001600160a01b039091169063a8511f5a9061074d906004016133b3565b6020604051808303815f875af1158015610769573d5f5f3e3d5ffd5b505050506040513d601f19601f8201168201806040525081019061078d91906133cf565b603880546001600160a01b0319166001600160a01b039290921691821790556040515f516020613b325f395f51905f52916107c7916133ea565b60405180910390a1565b6002335f9081526032602052604090205460ff1660048111156107f6576107f6612d5b565b1415801561082757506001335f9081526032602052604090205460ff16600481111561082457610824612d5b565b14155b1561084a573360026040516345c1994960e11b8152600401610685929190613415565b603a546001600160a01b03166108735760405163729a9dfb60e01b815260040161068590613452565b6037546001600160a01b031615806108f7575060375460405163b2a6cb6360e01b81526001600160a01b039091169063b2a6cb63906108b6908690600401612e42565b602060405180830381865afa1580156108d1573d5f5f3e3d5ffd5b505050506040513d601f19601f820116820180604052508101906108f5919061346e565b155b156109155760405163125a05ed60e21b815260040160405180910390fd5b603a5460405163df808ac560e01b81526001600160a01b039091169063df808ac59061094b903390879087908790600401613489565b5f604051808303815f87803b158015610962575f5ffd5b505af1158015610974573d5f5f3e3d5ffd5b50505050505050565b60408051610100810182525f808252602082018190529181018290526060808201526080810182905260a0810182905260c0810182905260e08101919091526039546001600160a01b03166109e55760405163729a9dfb60e01b8152600401610685906134ed565b60395460405163022fa82560e31b81525f916001600160a01b03169063117d412890610a15908690600401612e42565b5f60405180830381865afa158015610a2f573d5f5f3e3d5ffd5b505050506040513d5f823e601f3d908101601f19168201604052610a569190810190613655565b60208101519091506001600160a01b031633145f6001335f9081526032602052604090205460ff166004811115610a8f57610a8f612d5b565b1490505f610aa13385604001516127d2565b905082158015610aaf575081155b8015610ab9575080155b15610ad7576040516306361f0560e01b815260040160405180910390fd5b5091949350505050565b5f6001335f9081526032602052604090205460ff166004811115610b0757610b07612d5b565b14610b2a573360016040516345c1994960e11b8152600401610685929190613415565b6037546001600160a01b0316610b535760405163729a9dfb60e01b815260040161068590613754565b603754604051630bc5dd5360e41b81525f916001600160a01b03169063bc5dd53090610b83908690600401612ac0565b6020604051808303815f875af1158015610b9f573d5f5f3e3d5ffd5b505050506040513d601f19601f82011682018060405250810190610bc39190613765565b9050826001600160a01b0316816001600160801b03167f4f1538341a9d6974853fc26bd053e8a59e7b5c8676ec6ff1fd68a8908fc73b4d60405160405180910390a390505b919050565b610c156127a0565b6039546001600160a01b031615610c3f57604051638bf2c4a560e01b8152600401610685906134ed565b6038546001600160a01b0316610c9757604051637271502f60e11b815260206004820152601c60248201527b26b2b73aa6b0b730b3b2b9103337b91027b93232b926b0b730b3b2b960211b6044820152606401610685565b6037546001600160a01b0316610cfb57604051637271502f60e11b815260206004820152602260248201527f52657374617572616e744d616e6167657220666f72204f726465724d616e616760448201526132b960f11b6064820152608401610685565b6036546040516354288fad60e11b81526001600160a01b039091169063a8511f5a90610d29906004016134ed565b6020604051808303815f875af1158015610d45573d5f5f3e3d5ffd5b505050506040513d601f19601f82011682018060405250810190610d6991906133cf565b603980546001600160a01b0319166001600160a01b039290921691821790556040515f516020613b325f395f51905f52916107c791613780565b6002335f9081526032602052604090205460ff166004811115610dc857610dc8612d5b565b14158015610df957506001335f9081526032602052604090205460ff166004811115610df657610df6612d5b565b14155b15610e1c573360026040516345c1994960e11b8152600401610685929190613415565b610e24612892565b6039546001600160a01b0316610e4d5760405163729a9dfb60e01b8152600401610685906134ed565b603954604051630da12bfb60e11b81526001600160a01b0390911690631b4257f690610e7f9033908590600401613373565b5f604051808303815f87803b158015610e96575f5ffd5b505af1158015610ea8573d5f5f3e3d5ffd5b50505050610eb560015f55565b50565b610ec0612892565b6039546001600160a01b0316610ee95760405163729a9dfb60e01b8152600401610685906134ed565b60395460405163022fa82560e31b81525f916001600160a01b03169063117d412890610f19908590600401612e42565b5f60405180830381865afa158015610f33573d5f5f3e3d5ffd5b505050506040513d5f823e601f3d908101601f19168201604052610f5a9190810190613655565b9050610f6a3382604001516127d2565b610f8757604051630931954760e01b815260040160405180910390fd5b6039546040828101519051636798fda360e11b81523360048201526001600160801b03808616602483015290911660448201526001600160a01b039091169063cf31fb46906064015f604051808303815f87803b158015610fe6575f5ffd5b505af1158015610ff8573d5f5f3e3d5ffd5b5050505050610eb560015f55565b6034546001600160a01b0316331461103157604051631a31054160e11b815260040160405180910390fd5b6001600160a01b0382165f908152603260205260409020805482919060ff1916600183600481111561106557611065612d5b565b021790555080600481111561107c5761107c612d5b565b6040516001600160a01b038416905f516020613b525f395f51905f52905f90a35050565b5f6110a96128ef565b805490915060ff600160401b82041615906001600160401b03165f811580156110cf5750825b90505f826001600160401b031660011480156110ea5750303b155b9050811580156110f8575080155b156111165760405163f92ee8a960e01b815260040160405180910390fd5b84546001600160401b0319166001178555831561113f57845460ff60401b1916600160401b1785555b61114887612917565b611150612928565b61115987612938565b6001600160a01b03861661118057604051630bdd68c160e11b815260040160405180910390fd5b603680546001600160a01b0319166001600160a01b038816179055831561097457845460ff60401b19168555604051600181527fc7f505b2f371ae2175ee4913f4499e1f2633a7b5936321eed1cdaeb6115181d29060200160405180910390a150505050505050565b6111f1612892565b6039546001600160a01b031661121a5760405163729a9dfb60e01b8152600401610685906134ed565b60395460405163022fa82560e31b81525f916001600160a01b03169063117d41289061124a908690600401612e42565b5f60405180830381865afa158015611264573d5f5f3e3d5ffd5b505050506040513d5f823e601f3d908101601f1916820160405261128b9190810190613655565b905061129b3382604001516127d2565b6112b857604051630931954760e01b815260040160405180910390fd5b60395460408083015190516319c8ccef60e01b81526001600160a01b03909216916319c8ccef916112f29133918891889190600401613791565b5f604051808303815f87803b158015611309575f5ffd5b505af115801561131b573d5f5f3e3d5ffd5b505050505061132960015f55565b5050565b6001335f9081526032602052604090205460ff16600481111561135257611352612d5b565b14611375573360016040516345c1994960e11b8152600401610685929190613415565b610eb581611745565b6113866127a0565b6037546001600160a01b0316156113b057604051638bf2c4a560e01b815260040161068590613754565b6036546040516354288fad60e11b81526001600160a01b039091169063a8511f5a906113de90600401613754565b6020604051808303815f875af11580156113fa573d5f5f3e3d5ffd5b505050506040513d601f19601f8201168201806040525081019061141e91906133cf565b603780546001600160a01b0319166001600160a01b039290921691821790556040515f516020613b325f395f51905f52916107c7916137d7565b885f6001335f9081526032602052604090205460ff16600481111561147f5761147f612d5b565b603754911491505f906001600160a01b031615801590611509575060375460405163b2a6cb6360e01b81526001600160a01b039091169063b2a6cb63906114ca908690600401612e42565b602060405180830381865afa1580156114e5573d5f5f3e3d5ffd5b505050506040513d601f19601f82011682018060405250810190611509919061346e565b1561158a5760375460405163b958832760e01b815233916001600160a01b03169063b95883279061153e908790600401612e42565b602060405180830381865afa158015611559573d5f5f3e3d5ffd5b505050506040513d601f19601f8201168201806040525081019061157d91906133cf565b6001600160a01b03161490505b5f61159533856127d2565b9050821580156115a3575081155b80156115ad575080155b156115cb576040516306361f0560e01b815260040160405180910390fd5b6038546001600160a01b03166115f45760405163729a9dfb60e01b8152600401610685906133b3565b6037546001600160a01b03161580611688575060375f9054906101000a90046001600160a01b03166001600160a01b031663b2a6cb638e6040518263ffffffff1660e01b81526004016116479190612e42565b602060405180830381865afa158015611662573d5f5f3e3d5ffd5b505050506040513d601f19601f82011682018060405250810190611686919061346e565b155b156116a65760405163125a05ed60e21b815260040160405180910390fd5b60385f9054906101000a90046001600160a01b03166001600160a01b031663fa9d2bec8e8e8e8e8e8e8e8e8e6040518a63ffffffff1660e01b81526004016116f6999897969594939291906137e8565b5f604051808303815f87803b15801561170d575f5ffd5b505af115801561171f573d5f5f3e3d5ffd5b5050505050505050505050505050505050565b61173a6127a0565b6117435f61298a565b565b6034546001600160a01b0316331461177057604051631a31054160e11b815260040160405180910390fd5b6001600160a01b0381165f908152603260205260409020805460ff19811690915560ff168060048111156117a6576117a6612d5b565b6040516001600160a01b038416907f34a1009b84e077aee5bc8197faf7105e54f9ba6879e2a51a716e4156ea9ad769905f90a35050565b5f5f6117e76129e4565b546001600160a01b031692915050565b815f6001335f9081526032602052604090205460ff16600481111561181e5761181e612d5b565b603754911491505f906001600160a01b0316158015906118a8575060375460405163b2a6cb6360e01b81526001600160a01b039091169063b2a6cb6390611869908690600401612e42565b602060405180830381865afa158015611884573d5f5f3e3d5ffd5b505050506040513d601f19601f820116820180604052508101906118a8919061346e565b156119295760375460405163b958832760e01b815233916001600160a01b03169063b9588327906118dd908790600401612e42565b602060405180830381865afa1580156118f8573d5f5f3e3d5ffd5b505050506040513d601f19601f8201168201806040525081019061191c91906133cf565b6001600160a01b03161490505b5f61193433856127d2565b905082158015611942575081155b801561194c575080155b1561196a576040516306361f0560e01b815260040160405180910390fd5b6038546001600160a01b03166119935760405163729a9dfb60e01b8152600401610685906133b3565b6037546001600160a01b03161580611a17575060375460405163b2a6cb6360e01b81526001600160a01b039091169063b2a6cb63906119d6908990600401612e42565b602060405180830381865afa1580156119f1573d5f5f3e3d5ffd5b505050506040513d601f19601f82011682018060405250810190611a15919061346e565b155b15611a355760405163125a05ed60e21b815260040160405180910390fd5b603854604051635b94ea5d60e01b81526001600160a01b0390911690635b94ea5d90611a679089908990600401613885565b5f604051808303815f87803b158015611a7e575f5ffd5b505af1158015611a90573d5f5f3e3d5ffd5b50505050505050505050565b865f6001335f9081526032602052604090205460ff166004811115611ac357611ac3612d5b565b603754911491505f906001600160a01b031615801590611b4d575060375460405163b2a6cb6360e01b81526001600160a01b039091169063b2a6cb6390611b0e908690600401612e42565b602060405180830381865afa158015611b29573d5f5f3e3d5ffd5b505050506040513d601f19601f82011682018060405250810190611b4d919061346e565b15611bce5760375460405163b958832760e01b815233916001600160a01b03169063b958832790611b82908790600401612e42565b602060405180830381865afa158015611b9d573d5f5f3e3d5ffd5b505050506040513d601f19601f82011682018060405250810190611bc191906133cf565b6001600160a01b03161490505b5f611bd933856127d2565b905082158015611be7575081155b8015611bf1575080155b15611c0f576040516306361f0560e01b815260040160405180910390fd5b6038546001600160a01b0316611c385760405163729a9dfb60e01b8152600401610685906133b3565b6037546001600160a01b03161580611cbc575060375460405163b2a6cb6360e01b81526001600160a01b039091169063b2a6cb6390611c7b908e90600401612e42565b602060405180830381865afa158015611c96573d5f5f3e3d5ffd5b505050506040513d601f19601f82011682018060405250810190611cba919061346e565b155b15611cda5760405163125a05ed60e21b815260040160405180910390fd5b603854604051636ef07f0360e01b81526001600160a01b0390911690636ef07f0390611d16908e908e908e908e908e908e908e9060040161389f565b5f604051808303815f87803b158015611d2d575f5ffd5b505af1158015611d3f573d5f5f3e3d5ffd5b505050505050505050505050505050565b6034546001600160a01b03163314611d7b57604051631a31054160e11b815260040160405180910390fd5b6003816004811115611d8f57611d8f612d5b565b14158015611daf57506004816004811115611dac57611dac612d5b565b14155b15611dd15782816040516345c1994960e11b8152600401610685929190613415565b816001600160801b03165f03611dfa576040516334abfc6760e21b815260040160405180910390fd5b6001600160a01b0383165f9081526032602052604081205460ff166004811115611e2657611e26612d5b565b1480611e95575060036001600160a01b0384165f9081526032602052604090205460ff166004811115611e5b57611e5b612d5b565b14158015611e95575060046001600160a01b0384165f9081526032602052604090205460ff166004811115611e9257611e92612d5b565b14155b15611f0a576001600160a01b0383165f908152603260205260409020805482919060ff19166001836004811115611ece57611ece612d5b565b0217905550806004811115611ee557611ee5612d5b565b6040516001600160a01b038516905f516020613b525f395f51905f52905f90a3611fb9565b806004811115611f1c57611f1c612d5b565b6001600160a01b0384165f9081526032602052604090205460ff166004811115611f4857611f48612d5b565b14611fb9576001600160a01b0383165f908152603260205260409020805482919060ff19166001836004811115611f8157611f81612d5b565b0217905550806004811115611f9857611f98612d5b565b6040516001600160a01b038516905f516020613b525f395f51905f52905f90a35b6001600160a01b0383165f8181526033602090815260408083206001600160801b0387168085529252808320805460ff19166001179055519092917fa7a040419689ac3001a2b7e46b4cc55aa49833559239a3d51e72e097cd28a98f91a3505050565b6001335f9081526032602052604090205460ff16600481111561204157612041612d5b565b14612064573360016040516345c1994960e11b8152600401610685929190613415565b6037546001600160a01b031661208d5760405163729a9dfb60e01b815260040161068590613754565b60375460405163b2a6cb6360e01b81526001600160a01b039091169063b2a6cb63906120bd908490600401612e42565b602060405180830381865afa1580156120d8573d5f5f3e3d5ffd5b505050506040513d601f19601f820116820180604052508101906120fc919061346e565b6121195760405163125a05ed60e21b815260040160405180910390fd5b611329828261060a565b61212b6127a0565b603a546001600160a01b03161561215557604051638bf2c4a560e01b815260040161068590613452565b6037546001600160a01b03166121ba57604051637271502f60e11b815260206004820152602360248201527f52657374617572616e744d616e6167657220666f72205265766965774d616e6160448201526233b2b960e91b6064820152608401610685565b6036546040516354288fad60e11b81526001600160a01b039091169063a8511f5a906121e890600401613452565b6020604051808303815f875af1158015612204573d5f5f3e3d5ffd5b505050506040513d601f19601f8201168201806040525081019061222891906133cf565b603a80546001600160a01b0319166001600160a01b039290921691821790556040515f516020613b325f395f51905f52916107c791613928565b60408051610160810182525f8082526020820181905260609282018390528282018390526080820181905260a0820181905260c0820183905260e0820192909252610100810182905261012081018290526101408101919091526038546001600160a01b03166122e55760405163729a9dfb60e01b8152600401610685906133b3565b60385460405163018a512d60e31b81526001600160a01b0390911690630c528968906123179086908690600401613885565b5f60405180830381865afa158015612331573d5f5f3e3d5ffd5b505050506040513d5f823e601f3d908101601f191682016040526123589190810190613939565b90505b92915050565b6002335f9081526032602052604090205460ff16600481111561238657612386612d5b565b141580156123b757506001335f9081526032602052604090205460ff1660048111156123b4576123b4612d5b565b14155b156123da573360026040516345c1994960e11b8152600401610685929190613415565b6123e2612892565b6039546001600160a01b031661240b5760405163729a9dfb60e01b8152600401610685906134ed565b6037546001600160a01b0316158061248f575060375460405163b2a6cb6360e01b81526001600160a01b039091169063b2a6cb639061244e908690600401612e42565b602060405180830381865afa158015612469573d5f5f3e3d5ffd5b505050506040513d601f19601f8201168201806040525081019061248d919061346e565b155b156124ad5760405163125a05ed60e21b815260040160405180910390fd5b60395460405163c60c14d960e01b81526001600160a01b039091169063c60c14d99034906124e5903390889088908890600401613ae2565b5f604051808303818588803b1580156124fc575f5ffd5b505af115801561250e573d5f5f3e3d5ffd5b505050505061251c60015f55565b505050565b6001335f9081526032602052604090205460ff16600481111561254657612546612d5b565b14612569573360016040516345c1994960e11b8152600401610685929190613415565b6125738282611006565b80600481111561258557612585612d5b565b6040516001600160a01b038416907f5926935de1a61db7d72b9866401a45c62948e03020ac97cc0ae07a7b19f421ed905f90a35050565b6125c46127a0565b6001600160a01b0381166125ed575f604051631e4fbdf760e01b81526004016106859190612ac0565b610eb58161298a565b6001335f9081526032602052604090205460ff16600481111561261b5761261b612d5b565b1461263e573360016040516345c1994960e11b8152600401610685929190613415565b6037546001600160a01b03166126675760405163729a9dfb60e01b815260040161068590613754565b60375460405163b2a6cb6360e01b81526001600160a01b039091169063b2a6cb6390612697908590600401612e42565b602060405180830381865afa1580156126b2573d5f5f3e3d5ffd5b505050506040513d601f19601f820116820180604052508101906126d6919061346e565b6126f35760405163125a05ed60e21b815260040160405180910390fd5b600381600481111561270757612707612d5b565b141580156127275750600481600481111561272457612724612d5b565b14155b15612745576040516331f73e8560e01b815260040160405180910390fd5b612750838383611d50565b816001600160801b0316836001600160a01b03167fe08ec346f8f66ca96be0d1bd59dcd4efc2ac497666992fd76934ace44ab59c8f836040516127939190613029565b60405180910390a3505050565b336127a96117dd565b6001600160a01b031614611743573360405163118cdaa760e01b81526004016106859190612ac0565b5f816001600160801b03165f036127ea57505f61235b565b5f60036001600160a01b0385165f9081526032602052604090205460ff16600481111561281957612819612d5b565b1480612850575060046001600160a01b0385165f9081526032602052604090205460ff16600481111561284e5761284e612d5b565b145b905080801561288a57506001600160a01b0384165f9081526033602090815260408083206001600160801b038716845290915290205460ff165b949350505050565b60025f54036128e35760405162461bcd60e51b815260206004820152601f60248201527f5265656e7472616e637947756172643a207265656e7472616e742063616c6c006044820152606401610685565b60025f55565b60015f55565b5f807ff0c57e16840df040f15088dc2f81fe391c3923bec73e23a9662efc9c229c6a0061235b565b61291f612a08565b610eb581612a2d565b612930612a08565b611743612a35565b603480546001600160a01b0319166001600160a01b0383169081179091555f81815260326020526040808220805460ff1916600190811790915590519092915f516020613b525f395f51905f5291a350565b5f6129936129e4565b80546001600160a01b038481166001600160a01b031983168117845560405193945091169182907f8be0079c531659141344cd1fd0a4f28419497f9722a3daafe3b4186f6b6457e0905f90a3505050565b7f9016d09d72d40fdae2fd8ceac6b6234c7706214fd39c1cd1e609a0528c19930090565b612a10612a3d565b61174357604051631afcd79f60e31b815260040160405180910390fd5b6125c4612a08565b6128e9612a08565b5f612a466128ef565b54600160401b900460ff16919050565b6001600160a01b0381168114610eb5575f5ffd5b6001600160801b0381168114610eb5575f5ffd5b8035610c0881612a6a565b5f5f60408385031215612a9a575f5ffd5b8235612aa581612a56565b91506020830135612ab581612a6a565b809150509250929050565b6001600160a01b0391909116815260200190565b634e487b7160e01b5f52604160045260245ffd5b604051608081016001600160401b0381118282101715612b0a57612b0a612ad4565b60405290565b60405161010081016001600160401b0381118282101715612b0a57612b0a612ad4565b60405161016081016001600160401b0381118282101715612b0a57612b0a612ad4565b604051601f8201601f191681016001600160401b0381118282101715612b7e57612b7e612ad4565b604052919050565b5f6001600160401b03821115612b9e57612b9e612ad4565b50601f01601f191660200190565b5f82601f830112612bbb575f5ffd5b8135612bce612bc982612b86565b612b56565b818152846020838601011115612be2575f5ffd5b816020850160208301375f918101602001919091529392505050565b5f5f5f60608486031215612c10575f5ffd5b8335612c1b81612a6a565b9250602084013560ff81168114612c30575f5ffd5b915060408401356001600160401b03811115612c4a575f5ffd5b612c5686828701612bac565b9150509250925092565b5f60208284031215612c70575f5ffd5b8135612c7b81612a6a565b9392505050565b6001600160801b03169052565b5f81518084528060208401602086015e5f602082860101526020601f19601f83011685010191505092915050565b5f82825180855260208501945060208160051b830101602085015f5b83811015612d4f57848303601f19018852815180516001600160801b03168452602080820151608091860182905290612d1490860182612c8f565b6040838101516001600160801b0390811691880191909152606093840151169290950191909152506020978801979190910190600101612cd9565b50909695505050505050565b634e487b7160e01b5f52602160045260245ffd5b60078110612d7f57612d7f612d5b565b9052565b602080825282516001600160801b0316828201528201516001600160a01b03166040808301919091528201515f90612dbe6060840182612c82565b5060608301516101006080840152612dda610120840182612cbd565b9050608084015160a084015260a0840151612df860c0850182612d6f565b5060c0840151612e0b60e0850182612c82565b5060e0840151612e1f610100850182612c82565b509392505050565b5f60208284031215612e37575f5ffd5b8135612c7b81612a56565b6001600160801b0391909116815260200190565b803560058110610c08575f5ffd5b5f5f60408385031215612e75575f5ffd5b8235612e8081612a56565b9150612e8e60208401612e56565b90509250929050565b5f5f60408385031215612ea8575f5ffd5b8235612eb381612a56565b91506020830135612ab581612a56565b60078110610eb5575f5ffd5b5f5f60408385031215612ee0575f5ffd5b8235612eeb81612a6a565b91506020830135612ab581612ec3565b8015158114610eb5575f5ffd5b8035610c0881612efb565b5f5f5f5f5f5f5f5f5f6101208a8c031215612f2c575f5ffd5b612f358a612a7e565b9850612f4360208b01612a7e565b975060408a01356001600160401b03811115612f5d575f5ffd5b612f698c828d01612bac565b97505060608a01356001600160401b03811115612f84575f5ffd5b612f908c828d01612bac565b965050612f9f60808b01612a7e565b9450612fad60a08b01612f08565b935060c08a01356001600160401b03811115612fc7575f5ffd5b612fd38c828d01612bac565b93505060e08a01356001600160401b03811115612fee575f5ffd5b612ffa8c828d01612bac565b92505061300a6101008b01612a7e565b90509295985092959850929598565b60058110612d7f57612d7f612d5b565b6020810161235b8284613019565b5f5f60408385031215613048575f5ffd5b8235612aa581612a6a565b5f5f5f5f5f5f5f60e0888a031215613069575f5ffd5b61307288612a7e565b965060208801356001600160401b0381111561308c575f5ffd5b6130988a828b01612bac565b96505060408801356001600160401b038111156130b3575f5ffd5b6130bf8a828b01612bac565b9550506130ce60608901612a7e565b935060808801356001600160401b038111156130e8575f5ffd5b6130f48a828b01612bac565b93505060a08801356001600160401b0381111561310f575f5ffd5b61311b8a828b01612bac565b92505061312a60c08901612a7e565b905092959891949750929550565b5f5f5f6060848603121561314a575f5ffd5b833561315581612a56565b9250602084013561316581612a6a565b915061317360408501612e56565b90509250925092565b6020815261318e602082018351612c82565b5f60208301516131a16040840182612c82565b50604083015161016060608401526131bd610180840182612c8f565b90506060840151601f198483030160808501526131da8282612c8f565b91505060808401516131ef60a0850182612c82565b5060a084015180151560c08501525060c0840151838203601f190160e08501526132198282612c8f565b91505060e0840151601f19848303016101008501526132388282612c8f565b91505061010084015161324f610120850182612c82565b50610120840151613264610140850182612c82565b50610140840151612e1f610160850182612c82565b5f6001600160401b0382111561329157613291612ad4565b5060051b60200190565b5f82601f8301126132aa575f5ffd5b81356132b8612bc982613279565b8082825260208201915060208360051b8601019250858311156132d9575f5ffd5b602085015b838110156132ff5780356132f181612a6a565b8352602092830192016132de565b5095945050505050565b5f5f5f6060848603121561331b575f5ffd5b833561332681612a6a565b925060208401356001600160401b03811115613340575f5ffd5b61334c8682870161329b565b92505060408401356001600160401b03811115613367575f5ffd5b612c568682870161329b565b6001600160a01b039290921682526001600160801b0316602082015260400190565b600b81526a26b2b73aa6b0b730b3b2b960a91b602082015260400190565b602081525f61235b60208301613395565b8051610c0881612a56565b5f602082840312156133df575f5ffd5b8151612c7b81612a56565b604081525f6133fb60408301613395565b6001600160a01b0393909316602092909201919091525090565b6001600160a01b038316815260408101612c7b6020830184613019565b600d81526c2932bb34b2bba6b0b730b3b2b960991b602082015260400190565b602081525f61235b60208301613432565b8051610c0881612efb565b5f6020828403121561347e575f5ffd5b8151612c7b81612efb565b6001600160a01b03851681526001600160801b038416602082015260ff831660408201526080606082018190525f906134c490830184612c8f565b9695505050505050565b600c81526b27b93232b926b0b730b3b2b960a11b602082015260400190565b602081525f61235b602083016134ce565b8051610c0881612a6a565b5f82601f830112613518575f5ffd5b8151613526612bc982612b86565b81815284602083860101111561353a575f5ffd5b8160208501602083015e5f918101602001919091529392505050565b5f82601f830112613565575f5ffd5b8151613573612bc982613279565b8082825260208201915060208360051b860101925085831115613594575f5ffd5b602085015b838110156132ff5780516001600160401b038111156135b6575f5ffd5b86016080818903601f190112156135cb575f5ffd5b6135d3612ae8565b60208201516135e181612a6a565b815260408201516001600160401b038111156135fb575f5ffd5b61360a8a602083860101613509565b602083015250606082015161361e81612a6a565b6040820152608091909101519061363482612a6a565b6060810191909152835260209283019201613599565b8051610c0881612ec3565b5f60208284031215613665575f5ffd5b81516001600160401b0381111561367a575f5ffd5b8201610100818503121561368c575f5ffd5b613694612b10565b61369d826134fe565b81526136ab602083016133c4565b60208201526136bc604083016134fe565b604082015260608201516001600160401b038111156136d9575f5ffd5b6136e586828501613556565b6060830152506080828101519082015261370160a0830161364a565b60a082015261371260c083016134fe565b60c082015261372360e083016134fe565b60e0820152949350505050565b60118152702932b9ba30bab930b73a26b0b730b3b2b960791b602082015260400190565b602081525f61235b60208301613730565b5f60208284031215613775575f5ffd5b8151612c7b81612a6a565b604081525f6133fb604083016134ce565b6001600160a01b03851681526001600160801b0384166020820152608081016137bd6040830185612d6f565b6001600160801b0392909216606091909101529392505050565b604081525f6133fb60408301613730565b6001600160801b038a8116825289166020820152610120604082018190525f906138149083018a612c8f565b8281036060840152613826818a612c8f565b6001600160801b038916608085015287151560a085015283810360c085015290506138518187612c8f565b905082810360e08401526138658186612c8f565b91505060018060801b0383166101008301529a9950505050505050505050565b6001600160801b0392831681529116602082015260400190565b6001600160801b038816815260e0602082018190525f906138c290830189612c8f565b82810360408401526138d48189612c8f565b6001600160801b0388166060850152838103608085015290506138f78187612c8f565b905082810360a084015261390b8186612c8f565b91505060018060801b03831660c083015298975050505050505050565b604081525f6133fb60408301613432565b5f60208284031215613949575f5ffd5b81516001600160401b0381111561395e575f5ffd5b82016101608185031215613970575f5ffd5b613978612b33565b613981826134fe565b815261398f602083016134fe565b602082015260408201516001600160401b038111156139ac575f5ffd5b6139b886828501613509565b60408301525060608201516001600160401b038111156139d6575f5ffd5b6139e286828501613509565b6060830152506139f4608083016134fe565b6080820152613a0560a08301613463565b60a082015260c08201516001600160401b03811115613a22575f5ffd5b613a2e86828501613509565b60c08301525060e08201516001600160401b03811115613a4c575f5ffd5b613a5886828501613509565b60e083015250613a6b61010083016134fe565b610100820152613a7e61012083016134fe565b610120820152613a9161014083016134fe565b610140820152949350505050565b5f8151808452602084019350602083015f5b82811015613ad85781516001600160801b0316865260209586019590910190600101613ab1565b5093949350505050565b6001600160a01b03851681526001600160801b03841660208201526080604082018190525f90613b1490830185613a9f565b8281036060840152613b268185613a9f565b97965050505050505056fe0747a1b334584ba14144e8e28f18c787d5f98446da96bfb2fda12de6d8c50034aa259565575c834bc07e74dca784b4071676133ac78513b431afb6ee7edae121a26469706673582212200d3e6b2ab470b99f5e0abbaa698c0d0012de3e043abd83abacc136005d2757e464736f6c634300081e0033",
			"opcodes": "PUSH1 0x80 PUSH1 0x40 MSTORE CALLVALUE DUP1 ISZERO PUSH1 0xE JUMPI PUSH0 PUSH0 REVERT JUMPDEST POP PUSH2 0x3BA7 DUP1 PUSH2 0x1C PUSH0 CODECOPY PUSH0 RETURN INVALID PUSH1 0x80 PUSH1 0x40 MSTORE PUSH1 0x4 CALLDATASIZE LT PUSH2 0x192 JUMPI PUSH0 CALLDATALOAD PUSH1 0xE0 SHR DUP1 PUSH3 0x9D2013 EQ PUSH2 0x196 JUMPI DUP1 PUSH4 0x1BB91F9F EQ PUSH2 0x1B7 JUMPI DUP1 PUSH4 0x2134B6F6 EQ PUSH2 0x1CB JUMPI DUP1 PUSH4 0x23A336F5 EQ PUSH2 0x200 JUMPI DUP1 PUSH4 0x27C4A7A1 EQ PUSH2 0x21F JUMPI DUP1 PUSH4 0x287128C4 EQ PUSH2 0x24B JUMPI DUP1 PUSH4 0x294AC1A7 EQ PUSH2 0x277 JUMPI DUP1 PUSH4 0x319BA603 EQ PUSH2 0x28B JUMPI DUP1 PUSH4 0x3CD3741D EQ PUSH2 0x2AA JUMPI DUP1 PUSH4 0x3E840236 EQ PUSH2 0x2C9 JUMPI DUP1 PUSH4 0x485CC955 EQ PUSH2 0x2E8 JUMPI DUP1 PUSH4 0x5059E95B EQ PUSH2 0x307 JUMPI DUP1 PUSH4 0x520DD046 EQ PUSH2 0x326 JUMPI DUP1 PUSH4 0x66FAB191 EQ PUSH2 0x345 JUMPI DUP1 PUSH4 0x6C5F005C EQ PUSH2 0x364 JUMPI DUP1 PUSH4 0x6E398F01 EQ PUSH2 0x378 JUMPI DUP1 PUSH4 0x6E92AE52 EQ PUSH2 0x397 JUMPI DUP1 PUSH4 0x715018A6 EQ PUSH2 0x3B6 JUMPI DUP1 PUSH4 0x80E52E3F EQ PUSH2 0x3CA JUMPI DUP1 PUSH4 0x8DA5CB5B EQ PUSH2 0x3E9 JUMPI DUP1 PUSH4 0x99374642 EQ PUSH2 0x3FD JUMPI DUP1 PUSH4 0x99EAEABA EQ PUSH2 0x438 JUMPI DUP1 PUSH4 0xA096B94B EQ PUSH2 0x457 JUMPI DUP1 PUSH4 0xADDFA353 EQ PUSH2 0x476 JUMPI DUP1 PUSH4 0xBFC72E8B EQ PUSH2 0x495 JUMPI DUP1 PUSH4 0xC45A0155 EQ PUSH2 0x4B4 JUMPI DUP1 PUSH4 0xC7F9704D EQ PUSH2 0x4D3 JUMPI DUP1 PUSH4 0xC9B81583 EQ PUSH2 0x4E7 JUMPI DUP1 PUSH4 0xCE4CF9CB EQ PUSH2 0x506 JUMPI DUP1 PUSH4 0xE0ED2ECE EQ PUSH2 0x54F JUMPI DUP1 PUSH4 0xE4766736 EQ PUSH2 0x57B JUMPI DUP1 PUSH4 0xEA38D06D EQ PUSH2 0x58E JUMPI DUP1 PUSH4 0xF2FDE38B EQ PUSH2 0x5AD JUMPI DUP1 PUSH4 0xF8505E7F EQ PUSH2 0x5CC JUMPI DUP1 PUSH4 0xF9B6117F EQ PUSH2 0x5EB JUMPI JUMPDEST PUSH0 PUSH0 REVERT JUMPDEST CALLVALUE DUP1 ISZERO PUSH2 0x1A1 JUMPI PUSH0 PUSH0 REVERT JUMPDEST POP PUSH2 0x1B5 PUSH2 0x1B0 CALLDATASIZE PUSH1 0x4 PUSH2 0x2A89 JUMP JUMPDEST PUSH2 0x60A JUMP JUMPDEST STOP JUMPDEST CALLVALUE DUP1 ISZERO PUSH2 0x1C2 JUMPI PUSH0 PUSH0 REVERT JUMPDEST POP PUSH2 0x1B5 PUSH2 0x6ED JUMP JUMPDEST CALLVALUE DUP1 ISZERO PUSH2 0x1D6 JUMPI PUSH0 PUSH0 REVERT JUMPDEST POP PUSH1 0x37 SLOAD PUSH2 0x1EA SWAP1 PUSH1 0x1 PUSH1 0x1 PUSH1 0xA0 SHL SUB AND DUP2 JUMP JUMPDEST PUSH1 0x40 MLOAD PUSH2 0x1F7 SWAP2 SWAP1 PUSH2 0x2AC0 JUMP JUMPDEST PUSH1 0x40 MLOAD DUP1 SWAP2 SUB SWAP1 RETURN JUMPDEST CALLVALUE DUP1 ISZERO PUSH2 0x20B JUMPI PUSH0 PUSH0 REVERT JUMPDEST POP PUSH2 0x1B5 PUSH2 0x21A CALLDATASIZE PUSH1 0x4 PUSH2 0x2BFE JUMP JUMPDEST PUSH2 0x7D1 JUMP JUMPDEST CALLVALUE DUP1 ISZERO PUSH2 0x22A JUMPI PUSH0 PUSH0 REVERT JUMPDEST POP PUSH2 0x23E PUSH2 0x239 CALLDATASIZE PUSH1 0x4 PUSH2 0x2C60 JUMP JUMPDEST PUSH2 0x97D JUMP JUMPDEST PUSH1 0x40 MLOAD PUSH2 0x1F7 SWAP2 SWAP1 PUSH2 0x2D83 JUMP JUMPDEST CALLVALUE DUP1 ISZERO PUSH2 0x256 JUMPI PUSH0 PUSH0 REVERT JUMPDEST POP PUSH2 0x26A PUSH2 0x265 CALLDATASIZE PUSH1 0x4 PUSH2 0x2E27 JUMP JUMPDEST PUSH2 0xAE1 JUMP JUMPDEST PUSH1 0x40 MLOAD PUSH2 0x1F7 SWAP2 SWAP1 PUSH2 0x2E42 JUMP JUMPDEST CALLVALUE DUP1 ISZERO PUSH2 0x282 JUMPI PUSH0 PUSH0 REVERT JUMPDEST POP PUSH2 0x1B5 PUSH2 0xC0D JUMP JUMPDEST CALLVALUE DUP1 ISZERO PUSH2 0x296 JUMPI PUSH0 PUSH0 REVERT JUMPDEST POP PUSH2 0x1B5 PUSH2 0x2A5 CALLDATASIZE PUSH1 0x4 PUSH2 0x2C60 JUMP JUMPDEST PUSH2 0xDA3 JUMP JUMPDEST CALLVALUE DUP1 ISZERO PUSH2 0x2B5 JUMPI PUSH0 PUSH0 REVERT JUMPDEST POP PUSH2 0x1B5 PUSH2 0x2C4 CALLDATASIZE PUSH1 0x4 PUSH2 0x2C60 JUMP JUMPDEST PUSH2 0xEB8 JUMP JUMPDEST CALLVALUE DUP1 ISZERO PUSH2 0x2D4 JUMPI PUSH0 PUSH0 REVERT JUMPDEST POP PUSH2 0x1B5 PUSH2 0x2E3 CALLDATASIZE PUSH1 0x4 PUSH2 0x2E64 JUMP JUMPDEST PUSH2 0x1006 JUMP JUMPDEST CALLVALUE DUP1 ISZERO PUSH2 0x2F3 JUMPI PUSH0 PUSH0 REVERT JUMPDEST POP PUSH2 0x1B5 PUSH2 0x302 CALLDATASIZE PUSH1 0x4 PUSH2 0x2E97 JUMP JUMPDEST PUSH2 0x10A0 JUMP JUMPDEST CALLVALUE DUP1 ISZERO PUSH2 0x312 JUMPI PUSH0 PUSH0 REVERT JUMPDEST POP PUSH1 0x38 SLOAD PUSH2 0x1EA SWAP1 PUSH1 0x1 PUSH1 0x1 PUSH1 0xA0 SHL SUB AND DUP2 JUMP JUMPDEST CALLVALUE DUP1 ISZERO PUSH2 0x331 JUMPI PUSH0 PUSH0 REVERT JUMPDEST POP PUSH2 0x1B5 PUSH2 0x340 CALLDATASIZE PUSH1 0x4 PUSH2 0x2ECF JUMP JUMPDEST PUSH2 0x11E9 JUMP JUMPDEST CALLVALUE DUP1 ISZERO PUSH2 0x350 JUMPI PUSH0 PUSH0 REVERT JUMPDEST POP PUSH2 0x1B5 PUSH2 0x35F CALLDATASIZE PUSH1 0x4 PUSH2 0x2E27 JUMP JUMPDEST PUSH2 0x132D JUMP JUMPDEST CALLVALUE DUP1 ISZERO PUSH2 0x36F JUMPI PUSH0 PUSH0 REVERT JUMPDEST POP PUSH2 0x1B5 PUSH2 0x137E JUMP JUMPDEST CALLVALUE DUP1 ISZERO PUSH2 0x383 JUMPI PUSH0 PUSH0 REVERT JUMPDEST POP PUSH2 0x1B5 PUSH2 0x392 CALLDATASIZE PUSH1 0x4 PUSH2 0x2F13 JUMP JUMPDEST PUSH2 0x1458 JUMP JUMPDEST CALLVALUE DUP1 ISZERO PUSH2 0x3A2 JUMPI PUSH0 PUSH0 REVERT JUMPDEST POP PUSH1 0x35 SLOAD PUSH2 0x1EA SWAP1 PUSH1 0x1 PUSH1 0x1 PUSH1 0xA0 SHL SUB AND DUP2 JUMP JUMPDEST CALLVALUE DUP1 ISZERO PUSH2 0x3C1 JUMPI PUSH0 PUSH0 REVERT JUMPDEST POP PUSH2 0x1B5 PUSH2 0x1732 JUMP JUMPDEST CALLVALUE DUP1 ISZERO PUSH2 0x3D5 JUMPI PUSH0 PUSH0 REVERT JUMPDEST POP PUSH2 0x1B5 PUSH2 0x3E4 CALLDATASIZE PUSH1 0x4 PUSH2 0x2E27 JUMP JUMPDEST PUSH2 0x1745 JUMP JUMPDEST CALLVALUE DUP1 ISZERO PUSH2 0x3F4 JUMPI PUSH0 PUSH0 REVERT JUMPDEST POP PUSH2 0x1EA PUSH2 0x17DD JUMP JUMPDEST CALLVALUE DUP1 ISZERO PUSH2 0x408 JUMPI PUSH0 PUSH0 REVERT JUMPDEST POP PUSH2 0x42B PUSH2 0x417 CALLDATASIZE PUSH1 0x4 PUSH2 0x2E27 JUMP JUMPDEST PUSH1 0x32 PUSH1 0x20 MSTORE PUSH0 SWAP1 DUP2 MSTORE PUSH1 0x40 SWAP1 KECCAK256 SLOAD PUSH1 0xFF AND DUP2 JUMP JUMPDEST PUSH1 0x40 MLOAD PUSH2 0x1F7 SWAP2 SWAP1 PUSH2 0x3029 JUMP JUMPDEST CALLVALUE DUP1 ISZERO PUSH2 0x443 JUMPI PUSH0 PUSH0 REVERT JUMPDEST POP PUSH2 0x1B5 PUSH2 0x452 CALLDATASIZE PUSH1 0x4 PUSH2 0x3037 JUMP JUMPDEST PUSH2 0x17F7 JUMP JUMPDEST CALLVALUE DUP1 ISZERO PUSH2 0x462 JUMPI PUSH0 PUSH0 REVERT JUMPDEST POP PUSH2 0x1B5 PUSH2 0x471 CALLDATASIZE PUSH1 0x4 PUSH2 0x3053 JUMP JUMPDEST PUSH2 0x1A9C JUMP JUMPDEST CALLVALUE DUP1 ISZERO PUSH2 0x481 JUMPI PUSH0 PUSH0 REVERT JUMPDEST POP PUSH2 0x1B5 PUSH2 0x490 CALLDATASIZE PUSH1 0x4 PUSH2 0x3138 JUMP JUMPDEST PUSH2 0x1D50 JUMP JUMPDEST CALLVALUE DUP1 ISZERO PUSH2 0x4A0 JUMPI PUSH0 PUSH0 REVERT JUMPDEST POP PUSH2 0x1B5 PUSH2 0x4AF CALLDATASIZE PUSH1 0x4 PUSH2 0x2A89 JUMP JUMPDEST PUSH2 0x201C JUMP JUMPDEST CALLVALUE DUP1 ISZERO PUSH2 0x4BF JUMPI PUSH0 PUSH0 REVERT JUMPDEST POP PUSH1 0x36 SLOAD PUSH2 0x1EA SWAP1 PUSH1 0x1 PUSH1 0x1 PUSH1 0xA0 SHL SUB AND DUP2 JUMP JUMPDEST CALLVALUE DUP1 ISZERO PUSH2 0x4DE JUMPI PUSH0 PUSH0 REVERT JUMPDEST POP PUSH2 0x1B5 PUSH2 0x2123 JUMP JUMPDEST CALLVALUE DUP1 ISZERO PUSH2 0x4F2 JUMPI PUSH0 PUSH0 REVERT JUMPDEST POP PUSH1 0x3A SLOAD PUSH2 0x1EA SWAP1 PUSH1 0x1 PUSH1 0x1 PUSH1 0xA0 SHL SUB AND DUP2 JUMP JUMPDEST CALLVALUE DUP1 ISZERO PUSH2 0x511 JUMPI PUSH0 PUSH0 REVERT JUMPDEST POP PUSH2 0x53F PUSH2 0x520 CALLDATASIZE PUSH1 0x4 PUSH2 0x2A89 JUMP JUMPDEST PUSH1 0x33 PUSH1 0x20 SWAP1 DUP2 MSTORE PUSH0 SWAP3 DUP4 MSTORE PUSH1 0x40 DUP1 DUP5 KECCAK256 SWAP1 SWAP2 MSTORE SWAP1 DUP3 MSTORE SWAP1 KECCAK256 SLOAD PUSH1 0xFF AND DUP2 JUMP JUMPDEST PUSH1 0x40 MLOAD SWAP1 ISZERO ISZERO DUP2 MSTORE PUSH1 0x20 ADD PUSH2 0x1F7 JUMP JUMPDEST CALLVALUE DUP1 ISZERO PUSH2 0x55A JUMPI PUSH0 PUSH0 REVERT JUMPDEST POP PUSH2 0x56E PUSH2 0x569 CALLDATASIZE PUSH1 0x4 PUSH2 0x3037 JUMP JUMPDEST PUSH2 0x2262 JUMP JUMPDEST PUSH1 0x40 MLOAD PUSH2 0x1F7 SWAP2 SWAP1 PUSH2 0x317C JUMP JUMPDEST PUSH2 0x1B5 PUSH2 0x589 CALLDATASIZE PUSH1 0x4 PUSH2 0x3309 JUMP JUMPDEST PUSH2 0x2361 JUMP JUMPDEST CALLVALUE DUP1 ISZERO PUSH2 0x599 JUMPI PUSH0 PUSH0 REVERT JUMPDEST POP PUSH2 0x1B5 PUSH2 0x5A8 CALLDATASIZE PUSH1 0x4 PUSH2 0x2E64 JUMP JUMPDEST PUSH2 0x2521 JUMP JUMPDEST CALLVALUE DUP1 ISZERO PUSH2 0x5B8 JUMPI PUSH0 PUSH0 REVERT JUMPDEST POP PUSH2 0x1B5 PUSH2 0x5C7 CALLDATASIZE PUSH1 0x4 PUSH2 0x2E27 JUMP JUMPDEST PUSH2 0x25BC JUMP JUMPDEST CALLVALUE DUP1 ISZERO PUSH2 0x5D7 JUMPI PUSH0 PUSH0 REVERT JUMPDEST POP PUSH2 0x1B5 PUSH2 0x5E6 CALLDATASIZE PUSH1 0x4 PUSH2 0x3138 JUMP JUMPDEST PUSH2 0x25F6 JUMP JUMPDEST CALLVALUE DUP1 ISZERO PUSH2 0x5F6 JUMPI PUSH0 PUSH0 REVERT JUMPDEST POP PUSH1 0x39 SLOAD PUSH2 0x1EA SWAP1 PUSH1 0x1 PUSH1 0x1 PUSH1 0xA0 SHL SUB AND DUP2 JUMP JUMPDEST PUSH1 0x34 SLOAD PUSH1 0x1 PUSH1 0x1 PUSH1 0xA0 SHL SUB AND CALLER EQ PUSH2 0x635 JUMPI PUSH1 0x40 MLOAD PUSH4 0x1A310541 PUSH1 0xE1 SHL DUP2 MSTORE PUSH1 0x4 ADD PUSH1 0x40 MLOAD DUP1 SWAP2 SUB SWAP1 REVERT JUMPDEST PUSH1 0x1 PUSH1 0x1 PUSH1 0xA0 SHL SUB DUP3 AND PUSH0 SWAP1 DUP2 MSTORE PUSH1 0x33 PUSH1 0x20 SWAP1 DUP2 MSTORE PUSH1 0x40 DUP1 DUP4 KECCAK256 PUSH1 0x1 PUSH1 0x1 PUSH1 0x80 SHL SUB DUP6 AND DUP5 MSTORE SWAP1 SWAP2 MSTORE SWAP1 KECCAK256 SLOAD PUSH1 0xFF AND PUSH2 0x68E JUMPI DUP2 DUP2 PUSH1 0x40 MLOAD PUSH4 0x58CCE337 PUSH1 0xE0 SHL DUP2 MSTORE PUSH1 0x4 ADD PUSH2 0x685 SWAP3 SWAP2 SWAP1 PUSH2 0x3373 JUMP JUMPDEST PUSH1 0x40 MLOAD DUP1 SWAP2 SUB SWAP1 REVERT JUMPDEST PUSH1 0x1 PUSH1 0x1 PUSH1 0xA0 SHL SUB DUP3 AND PUSH0 DUP2 DUP2 MSTORE PUSH1 0x33 PUSH1 0x20 SWAP1 DUP2 MSTORE PUSH1 0x40 DUP1 DUP4 KECCAK256 PUSH1 0x1 PUSH1 0x1 PUSH1 0x80 SHL SUB DUP7 AND DUP1 DUP6 MSTORE SWAP3 MSTORE DUP1 DUP4 KECCAK256 DUP1 SLOAD PUSH1 0xFF NOT AND SWAP1 SSTORE MLOAD SWAP1 SWAP3 SWAP2 PUSH32 0x2091A7A9F4BD1D3537C45C3143A470B7C349709A4B0B9E9B2A8F3E37C9DE0E25 SWAP2 LOG3 POP POP JUMP JUMPDEST PUSH2 0x6F5 PUSH2 0x27A0 JUMP JUMPDEST PUSH1 0x38 SLOAD PUSH1 0x1 PUSH1 0x1 PUSH1 0xA0 SHL SUB AND ISZERO PUSH2 0x71F JUMPI PUSH1 0x40 MLOAD PUSH4 0x8BF2C4A5 PUSH1 0xE0 SHL DUP2 MSTORE PUSH1 0x4 ADD PUSH2 0x685 SWAP1 PUSH2 0x33B3 JUMP JUMPDEST PUSH1 0x36 SLOAD PUSH1 0x40 MLOAD PUSH4 0x54288FAD PUSH1 0xE1 SHL DUP2 MSTORE PUSH1 0x1 PUSH1 0x1 PUSH1 0xA0 SHL SUB SWAP1 SWAP2 AND SWAP1 PUSH4 0xA8511F5A SWAP1 PUSH2 0x74D SWAP1 PUSH1 0x4 ADD PUSH2 0x33B3 JUMP JUMPDEST PUSH1 0x20 PUSH1 0x40 MLOAD DUP1 DUP4 SUB DUP2 PUSH0 DUP8 GAS CALL ISZERO DUP1 ISZERO PUSH2 0x769 JUMPI RETURNDATASIZE PUSH0 PUSH0 RETURNDATACOPY RETURNDATASIZE PUSH0 REVERT JUMPDEST POP POP POP POP PUSH1 0x40 MLOAD RETURNDATASIZE PUSH1 0x1F NOT PUSH1 0x1F DUP3 ADD AND DUP3 ADD DUP1 PUSH1 0x40 MSTORE POP DUP2 ADD SWAP1 PUSH2 0x78D SWAP2 SWAP1 PUSH2 0x33CF JUMP JUMPDEST PUSH1 0x38 DUP1 SLOAD PUSH1 0x1 PUSH1 0x1 PUSH1 0xA0 SHL SUB NOT AND PUSH1 0x1 PUSH1 0x1 PUSH1 0xA0 SHL SUB SWAP3 SWAP1 SWAP3 AND SWAP2 DUP3 OR SWAP1 SSTORE PUSH1 0x40 MLOAD PUSH0 MLOAD PUSH1 0x20 PUSH2 0x3B32 PUSH0 CODECOPY PUSH0 MLOAD SWAP1 PUSH0 MSTORE SWAP2 PUSH2 0x7C7 SWAP2 PUSH2 0x33EA JUMP JUMPDEST PUSH1 0x40 MLOAD DUP1 SWAP2 SUB SWAP1 LOG1 JUMP JUMPDEST PUSH1 0x2 CALLER PUSH0 SWAP1 DUP2 MSTORE PUSH1 0x32 PUSH1 0x20 MSTORE PUSH1 0x40 SWAP1 KECCAK256 SLOAD PUSH1 0xFF AND PUSH1 0x4 DUP2 GT ISZERO PUSH2 0x7F6 JUMPI PUSH2 0x7F6 PUSH2 0x2D5B JUMP JUMPDEST EQ ISZERO DUP1 ISZERO PUSH2 0x827 JUMPI POP PUSH1 0x1 CALLER PUSH0 SWAP1 DUP2 MSTORE PUSH1 0x32 PUSH1 0x20 MSTORE PUSH1 0x40 SWAP1 KECCAK256 SLOAD PUSH1 0xFF AND PUSH1 0x4 DUP2 GT ISZERO PUSH2 0x824 JUMPI PUSH2 0x824 PUSH2 0x2D5B JUMP JUMPDEST EQ ISZERO JUMPDEST ISZERO PUSH2 0x84A JUMPI CALLER PUSH1 0x2 PUSH1 0x40 MLOAD PUSH4 0x45C19949 PUSH1 0xE1 SHL DUP2 MSTORE PUSH1 0x4 ADD PUSH2 0x685 SWAP3 SWAP2 SWAP1 PUSH2 0x3415 JUMP JUMPDEST PUSH1 0x3A SLOAD PUSH1 0x1 PUSH1 0x1 PUSH1 0xA0 SHL SUB AND PUSH2 0x873 JUMPI PUSH1 0x40 MLOAD PUSH4 0x729A9DFB PUSH1 0xE0 SHL DUP2 MSTORE PUSH1 0x4 ADD PUSH2 0x685 SWAP1 PUSH2 0x3452 JUMP JUMPDEST PUSH1 0x37 SLOAD PUSH1 0x1 PUSH1 0x1 PUSH1 0xA0 SHL SUB AND ISZERO DUP1 PUSH2 0x8F7 JUMPI POP PUSH1 0x37 SLOAD PUSH1 0x40 MLOAD PUSH4 0xB2A6CB63 PUSH1 0xE0 SHL DUP2 MSTORE PUSH1 0x1 PUSH1 0x1 PUSH1 0xA0 SHL SUB SWAP1 SWAP2 AND SWAP1 PUSH4 0xB2A6CB63 SWAP1 PUSH2 0x8B6 SWAP1 DUP7 SWAP1 PUSH1 0x4 ADD PUSH2 0x2E42 JUMP JUMPDEST PUSH1 0x20 PUSH1 0x40 MLOAD DUP1 DUP4 SUB DUP2 DUP7 GAS STATICCALL ISZERO DUP1 ISZERO PUSH2 0x8D1 JUMPI RETURNDATASIZE PUSH0 PUSH0 RETURNDATACOPY RETURNDATASIZE PUSH0 REVERT JUMPDEST POP POP POP POP PUSH1 0x40 MLOAD RETURNDATASIZE PUSH1 0x1F NOT PUSH1 0x1F DUP3 ADD AND DUP3 ADD DUP1 PUSH1 0x40 MSTORE POP DUP2 ADD SWAP1 PUSH2 0x8F5 SWAP2 SWAP1 PUSH2 0x346E JUMP JUMPDEST ISZERO JUMPDEST ISZERO PUSH2 0x915 JUMPI PUSH1 0x40 MLOAD PUSH4 0x125A05ED PUSH1 0xE2 SHL DUP2 MSTORE PUSH1 0x4 ADD PUSH1 0x40 MLOAD DUP1 SWAP2 SUB SWAP1 REVERT JUMPDEST PUSH1 0x3A SLOAD PUSH1 0x40 MLOAD PUSH4 0xDF808AC5 PUSH1 0xE0 SHL DUP2 MSTORE PUSH1 0x1 PUSH1 0x1 PUSH1 0xA0 SHL SUB SWAP1 SWAP2 AND SWAP1 PUSH4 0xDF808AC5 SWAP1 PUSH2 0x94B SWAP1 CALLER SWAP1 DUP8 SWAP1 DUP8 SWAP1 DUP8 SWAP1 PUSH1 0x4 ADD PUSH2 0x3489 JUMP JUMPDEST PUSH0 PUSH1 0x40 MLOAD DUP1 DUP4 SUB DUP2 PUSH0 DUP8 DUP1 EXTCODESIZE ISZERO DUP1 ISZERO PUSH2 0x962 JUMPI PUSH0 PUSH0 REVERT JUMPDEST POP GAS CALL ISZERO DUP1 ISZERO PUSH2 0x974 JUMPI RETURNDATASIZE PUSH0 PUSH0 RETURNDATACOPY RETURNDATASIZE PUSH0 REVERT JUMPDEST POP POP POP POP POP POP POP JUMP JUMPDEST PUSH1 0x40 DUP1 MLOAD PUSH2 0x100 DUP2 ADD DUP3 MSTORE PUSH0 DUP1 DUP3 MSTORE PUSH1 0x20 DUP3 ADD DUP2 SWAP1 MSTORE SWAP2 DUP2 ADD DUP3 SWAP1 MSTORE PUSH1 0x60 DUP1 DUP3 ADD MSTORE PUSH1 0x80 DUP2 ADD DUP3 SWAP1 MSTORE PUSH1 0xA0 DUP2 ADD DUP3 SWAP1 MSTORE PUSH1 0xC0 DUP2 ADD DUP3 SWAP1 MSTORE PUSH1 0xE0 DUP2 ADD SWAP2 SWAP1 SWAP2 MSTORE PUSH1 0x39 SLOAD PUSH1 0x1 PUSH1 0x1 PUSH1 0xA0 SHL SUB AND PUSH2 0x9E5 JUMPI PUSH1 0x40 MLOAD PUSH4 0x729A9DFB PUSH1 0xE0 SHL DUP2 MSTORE PUSH1 0x4 ADD PUSH2 0x685 SWAP1 PUSH2 0x34ED JUMP JUMPDEST PUSH1 0x39 SLOAD PUSH1 0x40 MLOAD PUSH4 0x22FA825 PUSH1 0xE3 SHL DUP2 MSTORE PUSH0 SWAP2 PUSH1 0x1 PUSH1 0x1 PUSH1 0xA0 SHL SUB AND SWAP1 PUSH4 0x117D4128 SWAP1 PUSH2 0xA15 SWAP1 DUP7 SWAP1 PUSH1 0x4 ADD PUSH2 0x2E42 JUMP JUMPDEST PUSH0 PUSH1 0x40 MLOAD DUP1 DUP4 SUB DUP2 DUP7 GAS STATICCALL ISZERO DUP1 ISZERO PUSH2 0xA2F JUMPI RETURNDATASIZE PUSH0 PUSH0 RETURNDATACOPY RETURNDATASIZE PUSH0 REVERT JUMPDEST POP POP POP POP PUSH1 0x40 MLOAD RETURNDATASIZE PUSH0 DUP3 RETURNDATACOPY PUSH1 0x1F RETURNDATASIZE SWAP1 DUP2 ADD PUSH1 0x1F NOT AND DUP3 ADD PUSH1 0x40 MSTORE PUSH2 0xA56 SWAP2 SWAP1 DUP2 ADD SWAP1 PUSH2 0x3655 JUMP JUMPDEST PUSH1 0x20 DUP2 ADD MLOAD SWAP1 SWAP2 POP PUSH1 0x1 PUSH1 0x1 PUSH1 0xA0 SHL SUB AND CALLER EQ PUSH0 PUSH1 0x1 CALLER PUSH0 SWAP1 DUP2 MSTORE PUSH1 0x32 PUSH1 0x20 MSTORE PUSH1 0x40 SWAP1 KECCAK256 SLOAD PUSH1 0xFF AND PUSH1 0x4 DUP2 GT ISZERO PUSH2 0xA8F JUMPI PUSH2 0xA8F PUSH2 0x2D5B JUMP JUMPDEST EQ SWAP1 POP PUSH0 PUSH2 0xAA1 CALLER DUP6 PUSH1 0x40 ADD MLOAD PUSH2 0x27D2 JUMP JUMPDEST SWAP1 POP DUP3 ISZERO DUP1 ISZERO PUSH2 0xAAF JUMPI POP DUP2 ISZERO JUMPDEST DUP1 ISZERO PUSH2 0xAB9 JUMPI POP DUP1 ISZERO JUMPDEST ISZERO PUSH2 0xAD7 JUMPI PUSH1 0x40 MLOAD PUSH4 0x6361F05 PUSH1 0xE0 SHL DUP2 MSTORE PUSH1 0x4 ADD PUSH1 0x40 MLOAD DUP1 SWAP2 SUB SWAP1 REVERT JUMPDEST POP SWAP2 SWAP5 SWAP4 POP POP POP POP JUMP JUMPDEST PUSH0 PUSH1 0x1 CALLER PUSH0 SWAP1 DUP2 MSTORE PUSH1 0x32 PUSH1 0x20 MSTORE PUSH1 0x40 SWAP1 KECCAK256 SLOAD PUSH1 0xFF AND PUSH1 0x4 DUP2 GT ISZERO PUSH2 0xB07 JUMPI PUSH2 0xB07 PUSH2 0x2D5B JUMP JUMPDEST EQ PUSH2 0xB2A JUMPI CALLER PUSH1 0x1 PUSH1 0x40 MLOAD PUSH4 0x45C19949 PUSH1 0xE1 SHL DUP2 MSTORE PUSH1 0x4 ADD PUSH2 0x685 SWAP3 SWAP2 SWAP1 PUSH2 0x3415 JUMP JUMPDEST PUSH1 0x37 SLOAD PUSH1 0x1 PUSH1 0x1 PUSH1 0xA0 SHL SUB AND PUSH2 0xB53 JUMPI PUSH1 0x40 MLOAD PUSH4 0x729A9DFB PUSH1 0xE0 SHL DUP2 MSTORE PUSH1 0x4 ADD PUSH2 0x685 SWAP1 PUSH2 0x3754 JUMP JUMPDEST PUSH1 0x37 SLOAD PUSH1 0x40 MLOAD PUSH4 0xBC5DD53 PUSH1 0xE4 SHL DUP2 MSTORE PUSH0 SWAP2 PUSH1 0x1 PUSH1 0x1 PUSH1 0xA0 SHL SUB AND SWAP1 PUSH4 0xBC5DD530 SWAP1 PUSH2 0xB83 SWAP1 DUP7 SWAP1 PUSH1 0x4 ADD PUSH2 0x2AC0 JUMP JUMPDEST PUSH1 0x20 PUSH1 0x40 MLOAD DUP1 DUP4 SUB DUP2 PUSH0 DUP8 GAS CALL ISZERO DUP1 ISZERO PUSH2 0xB9F JUMPI RETURNDATASIZE PUSH0 PUSH0 RETURNDATACOPY RETURNDATASIZE PUSH0 REVERT JUMPDEST POP POP POP POP PUSH1 0x40 MLOAD RETURNDATASIZE PUSH1 0x1F NOT PUSH1 0x1F DUP3 ADD AND DUP3 ADD DUP1 PUSH1 0x40 MSTORE POP DUP2 ADD SWAP1 PUSH2 0xBC3 SWAP2 SWAP1 PUSH2 0x3765 JUMP JUMPDEST SWAP1 POP DUP3 PUSH1 0x1 PUSH1 0x1 PUSH1 0xA0 SHL SUB AND DUP2 PUSH1 0x1 PUSH1 0x1 PUSH1 0x80 SHL SUB AND PUSH32 0x4F1538341A9D6974853FC26BD053E8A59E7B5C8676EC6FF1FD68A8908FC73B4D PUSH1 0x40 MLOAD PUSH1 0x40 MLOAD DUP1 SWAP2 SUB SWAP1 LOG3 SWAP1 POP JUMPDEST SWAP2 SWAP1 POP JUMP JUMPDEST PUSH2 0xC15 PUSH2 0x27A0 JUMP JUMPDEST PUSH1 0x39 SLOAD PUSH1 0x1 PUSH1 0x1 PUSH1 0xA0 SHL SUB AND ISZERO PUSH2 0xC3F JUMPI PUSH1 0x40 MLOAD PUSH4 0x8BF2C4A5 PUSH1 0xE0 SHL DUP2 MSTORE PUSH1 0x4 ADD PUSH2 0x685 SWAP1 PUSH2 0x34ED JUMP JUMPDEST PUSH1 0x38 SLOAD PUSH1 0x1 PUSH1 0x1 PUSH1 0xA0 SHL SUB AND PUSH2 0xC97 JUMPI PUSH1 0x40 MLOAD PUSH4 0x7271502F PUSH1 0xE1 SHL DUP2 MSTORE PUSH1 0x20 PUSH1 0x4 DUP3 ADD MSTORE PUSH1 0x1C PUSH1 0x24 DUP3 ADD MSTORE PUSH28 0x26B2B73AA6B0B730B3B2B9103337B91027B93232B926B0B730B3B2B9 PUSH1 0x21 SHL PUSH1 0x44 DUP3 ADD MSTORE PUSH1 0x64 ADD PUSH2 0x685 JUMP JUMPDEST PUSH1 0x37 SLOAD PUSH1 0x1 PUSH1 0x1 PUSH1 0xA0 SHL SUB AND PUSH2 0xCFB JUMPI PUSH1 0x40 MLOAD PUSH4 0x7271502F PUSH1 0xE1 SHL DUP2 MSTORE PUSH1 0x20 PUSH1 0x4 DUP3 ADD MSTORE PUSH1 0x22 PUSH1 0x24 DUP3 ADD MSTORE PUSH32 0x52657374617572616E744D616E6167657220666F72204F726465724D616E6167 PUSH1 0x44 DUP3 ADD MSTORE PUSH2 0x32B9 PUSH1 0xF1 SHL PUSH1 0x64 DUP3 ADD MSTORE PUSH1 0x84 ADD PUSH2 0x685 JUMP JUMPDEST PUSH1 0x36 SLOAD PUSH1 0x40 MLOAD PUSH4 0x54288FAD PUSH1 0xE1 SHL DUP2 MSTORE PUSH1 0x1 PUSH1 0x1 PUSH1 0xA0 SHL SUB SWAP1 SWAP2 AND SWAP1 PUSH4 0xA8511F5A SWAP1 PUSH2 0xD29 SWAP1 PUSH1 0x4 ADD PUSH2 0x34ED JUMP JUMPDEST PUSH1 0x20 PUSH1 0x40 MLOAD DUP1 DUP4 SUB DUP2 PUSH0 DUP8 GAS CALL ISZERO DUP1 ISZERO PUSH2 0xD45 JUMPI RETURNDATASIZE PUSH0 PUSH0 RETURNDATACOPY RETURNDATASIZE PUSH0 REVERT JUMPDEST POP POP POP POP PUSH1 0x40 MLOAD RETURNDATASIZE PUSH1 0x1F NOT PUSH1 0x1F DUP3 ADD AND DUP3 ADD DUP1 PUSH1 0x40 MSTORE POP DUP2 ADD SWAP1 PUSH2 0xD69 SWAP2 SWAP1 PUSH2 0x33CF JUMP JUMPDEST PUSH1 0x39 DUP1 SLOAD PUSH1 0x1 PUSH1 0x1 PUSH1 0xA0 SHL SUB NOT AND PUSH1 0x1 PUSH1 0x1 PUSH1 0xA0 SHL SUB SWAP3 SWAP1 SWAP3 AND SWAP2 DUP3 OR SWAP1 SSTORE PUSH1 0x40 MLOAD PUSH0 MLOAD PUSH1 0x20 PUSH2 0x3B32 PUSH0 CODECOPY PUSH0 MLOAD SWAP1 PUSH0 MSTORE SWAP2 PUSH2 0x7C7 SWAP2 PUSH2 0x3780 JUMP JUMPDEST PUSH1 0x2 CALLER PUSH0 SWAP1 DUP2 MSTORE PUSH1 0x32 PUSH1 0x20 MSTORE PUSH1 0x40 SWAP1 KECCAK256 SLOAD PUSH1 0xFF AND PUSH1 0x4 DUP2 GT ISZERO PUSH2 0xDC8 JUMPI PUSH2 0xDC8 PUSH2 0x2D5B JUMP JUMPDEST EQ ISZERO DUP1 ISZERO PUSH2 0xDF9 JUMPI POP PUSH1 0x1 CALLER PUSH0 SWAP1 DUP2 MSTORE PUSH1 0x32 PUSH1 0x20 MSTORE PUSH1 0x40 SWAP1 KECCAK256 SLOAD PUSH1 0xFF AND PUSH1 0x4 DUP2 GT ISZERO PUSH2 0xDF6 JUMPI PUSH2 0xDF6 PUSH2 0x2D5B JUMP JUMPDEST EQ ISZERO JUMPDEST ISZERO PUSH2 0xE1C JUMPI CALLER PUSH1 0x2 PUSH1 0x40 MLOAD PUSH4 0x45C19949 PUSH1 0xE1 SHL DUP2 MSTORE PUSH1 0x4 ADD PUSH2 0x685 SWAP3 SWAP2 SWAP1 PUSH2 0x3415 JUMP JUMPDEST PUSH2 0xE24 PUSH2 0x2892 JUMP JUMPDEST PUSH1 0x39 SLOAD PUSH1 0x1 PUSH1 0x1 PUSH1 0xA0 SHL SUB AND PUSH2 0xE4D JUMPI PUSH1 0x40 MLOAD PUSH4 0x729A9DFB PUSH1 0xE0 SHL DUP2 MSTORE PUSH1 0x4 ADD PUSH2 0x685 SWAP1 PUSH2 0x34ED JUMP JUMPDEST PUSH1 0x39 SLOAD PUSH1 0x40 MLOAD PUSH4 0xDA12BFB PUSH1 0xE1 SHL DUP2 MSTORE PUSH1 0x1 PUSH1 0x1 PUSH1 0xA0 SHL SUB SWAP1 SWAP2 AND SWAP1 PUSH4 0x1B4257F6 SWAP1 PUSH2 0xE7F SWAP1 CALLER SWAP1 DUP6 SWAP1 PUSH1 0x4 ADD PUSH2 0x3373 JUMP JUMPDEST PUSH0 PUSH1 0x40 MLOAD DUP1 DUP4 SUB DUP2 PUSH0 DUP8 DUP1 EXTCODESIZE ISZERO DUP1 ISZERO PUSH2 0xE96 JUMPI PUSH0 PUSH0 REVERT JUMPDEST POP GAS CALL ISZERO DUP1 ISZERO PUSH2 0xEA8 JUMPI RETURNDATASIZE PUSH0 PUSH0 RETURNDATACOPY RETURNDATASIZE PUSH0 REVERT JUMPDEST POP POP POP POP PUSH2 0xEB5 PUSH1 0x1 PUSH0 SSTORE JUMP JUMPDEST POP JUMP JUMPDEST PUSH2 0xEC0 PUSH2 0x2892 JUMP JUMPDEST PUSH1 0x39 SLOAD PUSH1 0x1 PUSH1 0x1 PUSH1 0xA0 SHL SUB AND PUSH2 0xEE9 JUMPI PUSH1 0x40 MLOAD PUSH4 0x729A9DFB PUSH1 0xE0 SHL DUP2 MSTORE PUSH1 0x4 ADD PUSH2 0x685 SWAP1 PUSH2 0x34ED JUMP JUMPDEST PUSH1 0x39 SLOAD PUSH1 0x40 MLOAD PUSH4 0x22FA825 PUSH1 0xE3 SHL DUP2 MSTORE PUSH0 SWAP2 PUSH1 0x1 PUSH1 0x1 PUSH1 0xA0 SHL SUB AND SWAP1 PUSH4 0x117D4128 SWAP1 PUSH2 0xF19 SWAP1 DUP6 SWAP1 PUSH1 0x4 ADD PUSH2 0x2E42 JUMP JUMPDEST PUSH0 PUSH1 0x40 MLOAD DUP1 DUP4 SUB DUP2 DUP7 GAS STATICCALL ISZERO DUP1 ISZERO PUSH2 0xF33 JUMPI RETURNDATASIZE PUSH0 PUSH0 RETURNDATACOPY RETURNDATASIZE PUSH0 REVERT JUMPDEST POP POP POP POP PUSH1 0x40 MLOAD RETURNDATASIZE PUSH0 DUP3 RETURNDATACOPY PUSH1 0x1F RETURNDATASIZE SWAP1 DUP2 ADD PUSH1 0x1F NOT AND DUP3 ADD PUSH1 0x40 MSTORE PUSH2 0xF5A SWAP2 SWAP1 DUP2 ADD SWAP1 PUSH2 0x3655 JUMP JUMPDEST SWAP1 POP PUSH2 0xF6A CALLER DUP3 PUSH1 0x40 ADD MLOAD PUSH2 0x27D2 JUMP JUMPDEST PUSH2 0xF87 JUMPI PUSH1 0x40 MLOAD PUSH4 0x9319547 PUSH1 0xE0 SHL DUP2 MSTORE PUSH1 0x4 ADD PUSH1 0x40 MLOAD DUP1 SWAP2 SUB SWAP1 REVERT JUMPDEST PUSH1 0x39 SLOAD PUSH1 0x40 DUP3 DUP2 ADD MLOAD SWAP1 MLOAD PUSH4 0x6798FDA3 PUSH1 0xE1 SHL DUP2 MSTORE CALLER PUSH1 0x4 DUP3 ADD MSTORE PUSH1 0x1 PUSH1 0x1 PUSH1 0x80 SHL SUB DUP1 DUP7 AND PUSH1 0x24 DUP4 ADD MSTORE SWAP1 SWAP2 AND PUSH1 0x44 DUP3 ADD MSTORE PUSH1 0x1 PUSH1 0x1 PUSH1 0xA0 SHL SUB SWAP1 SWAP2 AND SWAP1 PUSH4 0xCF31FB46 SWAP1 PUSH1 0x64 ADD PUSH0 PUSH1 0x40 MLOAD DUP1 DUP4 SUB DUP2 PUSH0 DUP8 DUP1 EXTCODESIZE ISZERO DUP1 ISZERO PUSH2 0xFE6 JUMPI PUSH0 PUSH0 REVERT JUMPDEST POP GAS CALL ISZERO DUP1 ISZERO PUSH2 0xFF8 JUMPI RETURNDATASIZE PUSH0 PUSH0 RETURNDATACOPY RETURNDATASIZE PUSH0 REVERT JUMPDEST POP POP POP POP POP PUSH2 0xEB5 PUSH1 0x1 PUSH0 SSTORE JUMP JUMPDEST PUSH1 0x34 SLOAD PUSH1 0x1 PUSH1 0x1 PUSH1 0xA0 SHL SUB AND CALLER EQ PUSH2 0x1031 JUMPI PUSH1 0x40 MLOAD PUSH4 0x1A310541 PUSH1 0xE1 SHL DUP2 MSTORE PUSH1 0x4 ADD PUSH1 0x40 MLOAD DUP1 SWAP2 SUB SWAP1 REVERT JUMPDEST PUSH1 0x1 PUSH1 0x1 PUSH1 0xA0 SHL SUB DUP3 AND PUSH0 SWAP1 DUP2 MSTORE PUSH1 0x32 PUSH1 0x20 MSTORE PUSH1 0x40 SWAP1 KECCAK256 DUP1 SLOAD DUP3 SWAP2 SWAP1 PUSH1 0xFF NOT AND PUSH1 0x1 DUP4 PUSH1 0x4 DUP2 GT ISZERO PUSH2 0x1065 JUMPI PUSH2 0x1065 PUSH2 0x2D5B JUMP JUMPDEST MUL OR SWAP1 SSTORE POP DUP1 PUSH1 0x4 DUP2 GT ISZERO PUSH2 0x107C JUMPI PUSH2 0x107C PUSH2 0x2D5B JUMP JUMPDEST PUSH1 0x40 MLOAD PUSH1 0x1 PUSH1 0x1 PUSH1 0xA0 SHL SUB DUP5 AND SWAP1 PUSH0 MLOAD PUSH1 0x20 PUSH2 0x3B52 PUSH0 CODECOPY PUSH0 MLOAD SWAP1 PUSH0 MSTORE SWAP1 PUSH0 SWAP1 LOG3 POP POP JUMP JUMPDEST PUSH0 PUSH2 0x10A9 PUSH2 0x28EF JUMP JUMPDEST DUP1 SLOAD SWAP1 SWAP2 POP PUSH1 0xFF PUSH1 0x1 PUSH1 0x40 SHL DUP3 DIV AND ISZERO SWAP1 PUSH1 0x1 PUSH1 0x1 PUSH1 0x40 SHL SUB AND PUSH0 DUP2 ISZERO DUP1 ISZERO PUSH2 0x10CF JUMPI POP DUP3 JUMPDEST SWAP1 POP PUSH0 DUP3 PUSH1 0x1 PUSH1 0x1 PUSH1 0x40 SHL SUB AND PUSH1 0x1 EQ DUP1 ISZERO PUSH2 0x10EA JUMPI POP ADDRESS EXTCODESIZE ISZERO JUMPDEST SWAP1 POP DUP2 ISZERO DUP1 ISZERO PUSH2 0x10F8 JUMPI POP DUP1 ISZERO JUMPDEST ISZERO PUSH2 0x1116 JUMPI PUSH1 0x40 MLOAD PUSH4 0xF92EE8A9 PUSH1 0xE0 SHL DUP2 MSTORE PUSH1 0x4 ADD PUSH1 0x40 MLOAD DUP1 SWAP2 SUB SWAP1 REVERT JUMPDEST DUP5 SLOAD PUSH1 0x1 PUSH1 0x1 PUSH1 0x40 SHL SUB NOT AND PUSH1 0x1 OR DUP6 SSTORE DUP4 ISZERO PUSH2 0x113F JUMPI DUP5 SLOAD PUSH1 0xFF PUSH1 0x40 SHL NOT AND PUSH1 0x1 PUSH1 0x40 SHL OR DUP6 SSTORE JUMPDEST PUSH2 0x1148 DUP8 PUSH2 0x2917 JUMP JUMPDEST PUSH2 0x1150 PUSH2 0x2928 JUMP JUMPDEST PUSH2 0x1159 DUP8 PUSH2 0x2938 JUMP JUMPDEST PUSH1 0x1 PUSH1 0x1 PUSH1 0xA0 SHL SUB DUP7 AND PUSH2 0x1180 JUMPI PUSH1 0x40 MLOAD PUSH4 0xBDD68C1 PUSH1 0xE1 SHL DUP2 MSTORE PUSH1 0x4 ADD PUSH1 0x40 MLOAD DUP1 SWAP2 SUB SWAP1 REVERT JUMPDEST PUSH1 0x36 DUP1 SLOAD PUSH1 0x1 PUSH1 0x1 PUSH1 0xA0 SHL SUB NOT AND PUSH1 0x1 PUSH1 0x1 PUSH1 0xA0 SHL SUB DUP9 AND OR SWAP1 SSTORE DUP4 ISZERO PUSH2 0x974 JUMPI DUP5 SLOAD PUSH1 0xFF PUSH1 0x40 SHL NOT AND DUP6 SSTORE PUSH1 0x40 MLOAD PUSH1 0x1 DUP2 MSTORE PUSH32 0xC7F505B2F371AE2175EE4913F4499E1F2633A7B5936321EED1CDAEB6115181D2 SWAP1 PUSH1 0x20 ADD PUSH1 0x40 MLOAD DUP1 SWAP2 SUB SWAP1 LOG1 POP POP POP POP POP POP POP JUMP JUMPDEST PUSH2 0x11F1 PUSH2 0x2892 JUMP JUMPDEST PUSH1 0x39 SLOAD PUSH1 0x1 PUSH1 0x1 PUSH1 0xA0 SHL SUB AND PUSH2 0x121A JUMPI PUSH1 0x40 MLOAD PUSH4 0x729A9DFB PUSH1 0xE0 SHL DUP2 MSTORE PUSH1 0x4 ADD PUSH2 0x685 SWAP1 PUSH2 0x34ED JUMP JUMPDEST PUSH1 0x39 SLOAD PUSH1 0x40 MLOAD PUSH4 0x22FA825 PUSH1 0xE3 SHL DUP2 MSTORE PUSH0 SWAP2 PUSH1 0x1 PUSH1 0x1 PUSH1 0xA0 SHL SUB AND SWAP1 PUSH4 0x117D4128 SWAP1 PUSH2 0x124A SWAP1 DUP7 SWAP1 PUSH1 0x4 ADD PUSH2 0x2E42 JUMP JUMPDEST PUSH0 PUSH1 0x40 MLOAD DUP1 DUP4 SUB DUP2 DUP7 GAS STATICCALL ISZERO DUP1 ISZERO PUSH2 0x1264 JUMPI RETURNDATASIZE PUSH0 PUSH0 RETURNDATACOPY RETURNDATASIZE PUSH0 REVERT JUMPDEST POP POP POP POP PUSH1 0x40 MLOAD RETURNDATASIZE PUSH0 DUP3 RETURNDATACOPY PUSH1 0x1F RETURNDATASIZE SWAP1 DUP2 ADD PUSH1 0x1F NOT AND DUP3 ADD PUSH1 0x40 MSTORE PUSH2 0x128B SWAP2 SWAP1 DUP2 ADD SWAP1 PUSH2 0x3655 JUMP JUMPDEST SWAP1 POP PUSH2 0x129B CALLER DUP3 PUSH1 0x40 ADD MLOAD PUSH2 0x27D2 JUMP JUMPDEST PUSH2 0x12B8 JUMPI PUSH1 0x40 MLOAD PUSH4 0x9319547 PUSH1 0xE0 SHL DUP2 MSTORE PUSH1 0x4 ADD PUSH1 0x40 MLOAD DUP1 SWAP2 SUB SWAP1 REVERT JUMPDEST PUSH1 0x39 SLOAD PUSH1 0x40 DUP1 DUP4 ADD MLOAD SWAP1 MLOAD PUSH4 0x19C8CCEF PUSH1 0xE0 SHL DUP2 MSTORE PUSH1 0x1 PUSH1 0x1 PUSH1 0xA0 SHL SUB SWAP1 SWAP3 AND SWAP2 PUSH4 0x19C8CCEF SWAP2 PUSH2 0x12F2 SWAP2 CALLER SWAP2 DUP9 SWAP2 DUP9 SWAP2 SWAP1 PUSH1 0x4 ADD PUSH2 0x3791 JUMP JUMPDEST PUSH0 PUSH1 0x40 MLOAD DUP1 DUP4 SUB DUP2 PUSH0 DUP8 DUP1 EXTCODESIZE ISZERO DUP1 ISZERO PUSH2 0x1309 JUMPI PUSH0 PUSH0 REVERT JUMPDEST POP GAS CALL ISZERO DUP1 ISZERO PUSH2 0x131B JUMPI RETURNDATASIZE PUSH0 PUSH0 RETURNDATACOPY RETURNDATASIZE PUSH0 REVERT JUMPDEST POP POP POP POP POP PUSH2 0x1329 PUSH1 0x1 PUSH0 SSTORE JUMP JUMPDEST POP POP JUMP JUMPDEST PUSH1 0x1 CALLER PUSH0 SWAP1 DUP2 MSTORE PUSH1 0x32 PUSH1 0x20 MSTORE PUSH1 0x40 SWAP1 KECCAK256 SLOAD PUSH1 0xFF AND PUSH1 0x4 DUP2 GT ISZERO PUSH2 0x1352 JUMPI PUSH2 0x1352 PUSH2 0x2D5B JUMP JUMPDEST EQ PUSH2 0x1375 JUMPI CALLER PUSH1 0x1 PUSH1 0x40 MLOAD PUSH4 0x45C19949 PUSH1 0xE1 SHL DUP2 MSTORE PUSH1 0x4 ADD PUSH2 0x685 SWAP3 SWAP2 SWAP1 PUSH2 0x3415 JUMP JUMPDEST PUSH2 0xEB5 DUP2 PUSH2 0x1745 JUMP JUMPDEST PUSH2 0x1386 PUSH2 0x27A0 JUMP JUMPDEST PUSH1 0x37 SLOAD PUSH1 0x1 PUSH1 0x1 PUSH1 0xA0 SHL SUB AND ISZERO PUSH2 0x13B0 JUMPI PUSH1 0x40 MLOAD PUSH4 0x8BF2C4A5 PUSH1 0xE0 SHL DUP2 MSTORE PUSH1 0x4 ADD PUSH2 0x685 SWAP1 PUSH2 0x3754 JUMP JUMPDEST PUSH1 0x36 SLOAD PUSH1 0x40 MLOAD PUSH4 0x54288FAD PUSH1 0xE1 SHL DUP2 MSTORE PUSH1 0x1 PUSH1 0x1 PUSH1 0xA0 SHL SUB SWAP1 SWAP2 AND SWAP1 PUSH4 0xA8511F5A SWAP1 PUSH2 0x13DE SWAP1 PUSH1 0x4 ADD PUSH2 0x3754 JUMP JUMPDEST PUSH1 0x20 PUSH1 0x40 MLOAD DUP1 DUP4 SUB DUP2 PUSH0 DUP8 GAS CALL ISZERO DUP1 ISZERO PUSH2 0x13FA JUMPI RETURNDATASIZE PUSH0 PUSH0 RETURNDATACOPY RETURNDATASIZE PUSH0 REVERT JUMPDEST POP POP POP POP PUSH1 0x40 MLOAD RETURNDATASIZE PUSH1 0x1F NOT PUSH1 0x1F DUP3 ADD AND DUP3 ADD DUP1 PUSH1 0x40 MSTORE POP DUP2 ADD SWAP1 PUSH2 0x141E SWAP2 SWAP1 PUSH2 0x33CF JUMP JUMPDEST PUSH1 0x37 DUP1 SLOAD PUSH1 0x1 PUSH1 0x1 PUSH1 0xA0 SHL SUB NOT AND PUSH1 0x1 PUSH1 0x1 PUSH1 0xA0 SHL SUB SWAP3 SWAP1 SWAP3 AND SWAP2 DUP3 OR SWAP1 SSTORE PUSH1 0x40 MLOAD PUSH0 MLOAD PUSH1 0x20 PUSH2 0x3B32 PUSH0 CODECOPY PUSH0 MLOAD SWAP1 PUSH0 MSTORE SWAP2 PUSH2 0x7C7 SWAP2 PUSH2 0x37D7 JUMP JUMPDEST DUP9 PUSH0 PUSH1 0x1 CALLER PUSH0 SWAP1 DUP2 MSTORE PUSH1 0x32 PUSH1 0x20 MSTORE PUSH1 0x40 SWAP1 KECCAK256 SLOAD PUSH1 0xFF AND PUSH1 0x4 DUP2 GT ISZERO PUSH2 0x147F JUMPI PUSH2 0x147F PUSH2 0x2D5B JUMP JUMPDEST PUSH1 0x37 SLOAD SWAP2 EQ SWAP2 POP PUSH0 SWAP1 PUSH1 0x1 PUSH1 0x1 PUSH1 0xA0 SHL SUB AND ISZERO DUP1 ISZERO SWAP1 PUSH2 0x1509 JUMPI POP PUSH1 0x37 SLOAD PUSH1 0x40 MLOAD PUSH4 0xB2A6CB63 PUSH1 0xE0 SHL DUP2 MSTORE PUSH1 0x1 PUSH1 0x1 PUSH1 0xA0 SHL SUB SWAP1 SWAP2 AND SWAP1 PUSH4 0xB2A6CB63 SWAP1 PUSH2 0x14CA SWAP1 DUP7 SWAP1 PUSH1 0x4 ADD PUSH2 0x2E42 JUMP JUMPDEST PUSH1 0x20 PUSH1 0x40 MLOAD DUP1 DUP4 SUB DUP2 DUP7 GAS STATICCALL ISZERO DUP1 ISZERO PUSH2 0x14E5 JUMPI RETURNDATASIZE PUSH0 PUSH0 RETURNDATACOPY RETURNDATASIZE PUSH0 REVERT JUMPDEST POP POP POP POP PUSH1 0x40 MLOAD RETURNDATASIZE PUSH1 0x1F NOT PUSH1 0x1F DUP3 ADD AND DUP3 ADD DUP1 PUSH1 0x40 MSTORE POP DUP2 ADD SWAP1 PUSH2 0x1509 SWAP2 SWAP1 PUSH2 0x346E JUMP JUMPDEST ISZERO PUSH2 0x158A JUMPI PUSH1 0x37 SLOAD PUSH1 0x40 MLOAD PUSH4 0xB9588327 PUSH1 0xE0 SHL DUP2 MSTORE CALLER SWAP2 PUSH1 0x1 PUSH1 0x1 PUSH1 0xA0 SHL SUB AND SWAP1 PUSH4 0xB9588327 SWAP1 PUSH2 0x153E SWAP1 DUP8 SWAP1 PUSH1 0x4 ADD PUSH2 0x2E42 JUMP JUMPDEST PUSH1 0x20 PUSH1 0x40 MLOAD DUP1 DUP4 SUB DUP2 DUP7 GAS STATICCALL ISZERO DUP1 ISZERO PUSH2 0x1559 JUMPI RETURNDATASIZE PUSH0 PUSH0 RETURNDATACOPY RETURNDATASIZE PUSH0 REVERT JUMPDEST POP POP POP POP PUSH1 0x40 MLOAD RETURNDATASIZE PUSH1 0x1F NOT PUSH1 0x1F DUP3 ADD AND DUP3 ADD DUP1 PUSH1 0x40 MSTORE POP DUP2 ADD SWAP1 PUSH2 0x157D SWAP2 SWAP1 PUSH2 0x33CF JUMP JUMPDEST PUSH1 0x1 PUSH1 0x1 PUSH1 0xA0 SHL SUB AND EQ SWAP1 POP JUMPDEST PUSH0 PUSH2 0x1595 CALLER DUP6 PUSH2 0x27D2 JUMP JUMPDEST SWAP1 POP DUP3 ISZERO DUP1 ISZERO PUSH2 0x15A3 JUMPI POP DUP2 ISZERO JUMPDEST DUP1 ISZERO PUSH2 0x15AD JUMPI POP DUP1 ISZERO JUMPDEST ISZERO PUSH2 0x15CB JUMPI PUSH1 0x40 MLOAD PUSH4 0x6361F05 PUSH1 0xE0 SHL DUP2 MSTORE PUSH1 0x4 ADD PUSH1 0x40 MLOAD DUP1 SWAP2 SUB SWAP1 REVERT JUMPDEST PUSH1 0x38 SLOAD PUSH1 0x1 PUSH1 0x1 PUSH1 0xA0 SHL SUB AND PUSH2 0x15F4 JUMPI PUSH1 0x40 MLOAD PUSH4 0x729A9DFB PUSH1 0xE0 SHL DUP2 MSTORE PUSH1 0x4 ADD PUSH2 0x685 SWAP1 PUSH2 0x33B3 JUMP JUMPDEST PUSH1 0x37 SLOAD PUSH1 0x1 PUSH1 0x1 PUSH1 0xA0 SHL SUB AND ISZERO DUP1 PUSH2 0x1688 JUMPI POP PUSH1 0x37 PUSH0 SWAP1 SLOAD SWAP1 PUSH2 0x100 EXP SWAP1 DIV PUSH1 0x1 PUSH1 0x1 PUSH1 0xA0 SHL SUB AND PUSH1 0x1 PUSH1 0x1 PUSH1 0xA0 SHL SUB AND PUSH4 0xB2A6CB63 DUP15 PUSH1 0x40 MLOAD DUP3 PUSH4 0xFFFFFFFF AND PUSH1 0xE0 SHL DUP2 MSTORE PUSH1 0x4 ADD PUSH2 0x1647 SWAP2 SWAP1 PUSH2 0x2E42 JUMP JUMPDEST PUSH1 0x20 PUSH1 0x40 MLOAD DUP1 DUP4 SUB DUP2 DUP7 GAS STATICCALL ISZERO DUP1 ISZERO PUSH2 0x1662 JUMPI RETURNDATASIZE PUSH0 PUSH0 RETURNDATACOPY RETURNDATASIZE PUSH0 REVERT JUMPDEST POP POP POP POP PUSH1 0x40 MLOAD RETURNDATASIZE PUSH1 0x1F NOT PUSH1 0x1F DUP3 ADD AND DUP3 ADD DUP1 PUSH1 0x40 MSTORE POP DUP2 ADD SWAP1 PUSH2 0x1686 SWAP2 SWAP1 PUSH2 0x346E JUMP JUMPDEST ISZERO JUMPDEST ISZERO PUSH2 0x16A6 JUMPI PUSH1 0x40 MLOAD PUSH4 0x125A05ED PUSH1 0xE2 SHL DUP2 MSTORE PUSH1 0x4 ADD PUSH1 0x40 MLOAD DUP1 SWAP2 SUB SWAP1 REVERT JUMPDEST PUSH1 0x38 PUSH0 SWAP1 SLOAD SWAP1 PUSH2 0x100 EXP SWAP1 DIV PUSH1 0x1 PUSH1 0x1 PUSH1 0xA0 SHL SUB AND PUSH1 0x1 PUSH1 0x1 PUSH1 0xA0 SHL SUB AND PUSH4 0xFA9D2BEC DUP15 DUP15 DUP15 DUP15 DUP15 DUP15 DUP15 DUP15 DUP15 PUSH1 0x40 MLOAD DUP11 PUSH4 0xFFFFFFFF AND PUSH1 0xE0 SHL DUP2 MSTORE PUSH1 0x4 ADD PUSH2 0x16F6 SWAP10 SWAP9 SWAP8 SWAP7 SWAP6 SWAP5 SWAP4 SWAP3 SWAP2 SWAP1 PUSH2 0x37E8 JUMP JUMPDEST PUSH0 PUSH1 0x40 MLOAD DUP1 DUP4 SUB DUP2 PUSH0 DUP8 DUP1 EXTCODESIZE ISZERO DUP1 ISZERO PUSH2 0x170D JUMPI PUSH0 PUSH0 REVERT JUMPDEST POP GAS CALL ISZERO DUP1 ISZERO PUSH2 0x171F JUMPI RETURNDATASIZE PUSH0 PUSH0 RETURNDATACOPY RETURNDATASIZE PUSH0 REVERT JUMPDEST POP POP POP POP POP POP POP POP POP POP POP POP POP POP POP POP POP JUMP JUMPDEST PUSH2 0x173A PUSH2 0x27A0 JUMP JUMPDEST PUSH2 0x1743 PUSH0 PUSH2 0x298A JUMP JUMPDEST JUMP JUMPDEST PUSH1 0x34 SLOAD PUSH1 0x1 PUSH1 0x1 PUSH1 0xA0 SHL SUB AND CALLER EQ PUSH2 0x1770 JUMPI PUSH1 0x40 MLOAD PUSH4 0x1A310541 PUSH1 0xE1 SHL DUP2 MSTORE PUSH1 0x4 ADD PUSH1 0x40 MLOAD DUP1 SWAP2 SUB SWAP1 REVERT JUMPDEST PUSH1 0x1 PUSH1 0x1 PUSH1 0xA0 SHL SUB DUP2 AND PUSH0 SWAP1 DUP2 MSTORE PUSH1 0x32 PUSH1 0x20 MSTORE PUSH1 0x40 SWAP1 KECCAK256 DUP1 SLOAD PUSH1 0xFF NOT DUP2 AND SWAP1 SWAP2 SSTORE PUSH1 0xFF AND DUP1 PUSH1 0x4 DUP2 GT ISZERO PUSH2 0x17A6 JUMPI PUSH2 0x17A6 PUSH2 0x2D5B JUMP JUMPDEST PUSH1 0x40 MLOAD PUSH1 0x1 PUSH1 0x1 PUSH1 0xA0 SHL SUB DUP5 AND SWAP1 PUSH32 0x34A1009B84E077AEE5BC8197FAF7105E54F9BA6879E2A51A716E4156EA9AD769 SWAP1 PUSH0 SWAP1 LOG3 POP POP JUMP JUMPDEST PUSH0 PUSH0 PUSH2 0x17E7 PUSH2 0x29E4 JUMP JUMPDEST SLOAD PUSH1 0x1 PUSH1 0x1 PUSH1 0xA0 SHL SUB AND SWAP3 SWAP2 POP POP JUMP JUMPDEST DUP2 PUSH0 PUSH1 0x1 CALLER PUSH0 SWAP1 DUP2 MSTORE PUSH1 0x32 PUSH1 0x20 MSTORE PUSH1 0x40 SWAP1 KECCAK256 SLOAD PUSH1 0xFF AND PUSH1 0x4 DUP2 GT ISZERO PUSH2 0x181E JUMPI PUSH2 0x181E PUSH2 0x2D5B JUMP JUMPDEST PUSH1 0x37 SLOAD SWAP2 EQ SWAP2 POP PUSH0 SWAP1 PUSH1 0x1 PUSH1 0x1 PUSH1 0xA0 SHL SUB AND ISZERO DUP1 ISZERO SWAP1 PUSH2 0x18A8 JUMPI POP PUSH1 0x37 SLOAD PUSH1 0x40 MLOAD PUSH4 0xB2A6CB63 PUSH1 0xE0 SHL DUP2 MSTORE PUSH1 0x1 PUSH1 0x1 PUSH1 0xA0 SHL SUB SWAP1 SWAP2 AND SWAP1 PUSH4 0xB2A6CB63 SWAP1 PUSH2 0x1869 SWAP1 DUP7 SWAP1 PUSH1 0x4 ADD PUSH2 0x2E42 JUMP JUMPDEST PUSH1 0x20 PUSH1 0x40 MLOAD DUP1 DUP4 SUB DUP2 DUP7 GAS STATICCALL ISZERO DUP1 ISZERO PUSH2 0x1884 JUMPI RETURNDATASIZE PUSH0 PUSH0 RETURNDATACOPY RETURNDATASIZE PUSH0 REVERT JUMPDEST POP POP POP POP PUSH1 0x40 MLOAD RETURNDATASIZE PUSH1 0x1F NOT PUSH1 0x1F DUP3 ADD AND DUP3 ADD DUP1 PUSH1 0x40 MSTORE POP DUP2 ADD SWAP1 PUSH2 0x18A8 SWAP2 SWAP1 PUSH2 0x346E JUMP JUMPDEST ISZERO PUSH2 0x1929 JUMPI PUSH1 0x37 SLOAD PUSH1 0x40 MLOAD PUSH4 0xB9588327 PUSH1 0xE0 SHL DUP2 MSTORE CALLER SWAP2 PUSH1 0x1 PUSH1 0x1 PUSH1 0xA0 SHL SUB AND SWAP1 PUSH4 0xB9588327 SWAP1 PUSH2 0x18DD SWAP1 DUP8 SWAP1 PUSH1 0x4 ADD PUSH2 0x2E42 JUMP JUMPDEST PUSH1 0x20 PUSH1 0x40 MLOAD DUP1 DUP4 SUB DUP2 DUP7 GAS STATICCALL ISZERO DUP1 ISZERO PUSH2 0x18F8 JUMPI RETURNDATASIZE PUSH0 PUSH0 RETURNDATACOPY RETURNDATASIZE PUSH0 REVERT JUMPDEST POP POP POP POP PUSH1 0x40 MLOAD RETURNDATASIZE PUSH1 0x1F NOT PUSH1 0x1F DUP3 ADD AND DUP3 ADD DUP1 PUSH1 0x40 MSTORE POP DUP2 ADD SWAP1 PUSH2 0x191C SWAP2 SWAP1 PUSH2 0x33CF JUMP JUMPDEST PUSH1 0x1 PUSH1 0x1 PUSH1 0xA0 SHL SUB AND EQ SWAP1 POP JUMPDEST PUSH0 PUSH2 0x1934 CALLER DUP6 PUSH2 0x27D2 JUMP JUMPDEST SWAP1 POP DUP3 ISZERO DUP1 ISZERO PUSH2 0x1942 JUMPI POP DUP2 ISZERO JUMPDEST DUP1 ISZERO PUSH2 0x194C JUMPI POP DUP1 ISZERO JUMPDEST ISZERO PUSH2 0x196A JUMPI PUSH1 0x40 MLOAD PUSH4 0x6361F05 PUSH1 0xE0 SHL DUP2 MSTORE PUSH1 0x4 ADD PUSH1 0x40 MLOAD DUP1 SWAP2 SUB SWAP1 REVERT JUMPDEST PUSH1 0x38 SLOAD PUSH1 0x1 PUSH1 0x1 PUSH1 0xA0 SHL SUB AND PUSH2 0x1993 JUMPI PUSH1 0x40 MLOAD PUSH4 0x729A9DFB PUSH1 0xE0 SHL DUP2 MSTORE PUSH1 0x4 ADD PUSH2 0x685 SWAP1 PUSH2 0x33B3 JUMP JUMPDEST PUSH1 0x37 SLOAD PUSH1 0x1 PUSH1 0x1 PUSH1 0xA0 SHL SUB AND ISZERO DUP1 PUSH2 0x1A17 JUMPI POP PUSH1 0x37 SLOAD PUSH1 0x40 MLOAD PUSH4 0xB2A6CB63 PUSH1 0xE0 SHL DUP2 MSTORE PUSH1 0x1 PUSH1 0x1 PUSH1 0xA0 SHL SUB SWAP1 SWAP2 AND SWAP1 PUSH4 0xB2A6CB63 SWAP1 PUSH2 0x19D6 SWAP1 DUP10 SWAP1 PUSH1 0x4 ADD PUSH2 0x2E42 JUMP JUMPDEST PUSH1 0x20 PUSH1 0x40 MLOAD DUP1 DUP4 SUB DUP2 DUP7 GAS STATICCALL ISZERO DUP1 ISZERO PUSH2 0x19F1 JUMPI RETURNDATASIZE PUSH0 PUSH0 RETURNDATACOPY RETURNDATASIZE PUSH0 REVERT JUMPDEST POP POP POP POP PUSH1 0x40 MLOAD RETURNDATASIZE PUSH1 0x1F NOT PUSH1 0x1F DUP3 ADD AND DUP3 ADD DUP1 PUSH1 0x40 MSTORE POP DUP2 ADD SWAP1 PUSH2 0x1A15 SWAP2 SWAP1 PUSH2 0x346E JUMP JUMPDEST ISZERO JUMPDEST ISZERO PUSH2 0x1A35 JUMPI PUSH1 0x40 MLOAD PUSH4 0x125A05ED PUSH1 0xE2 SHL DUP2 MSTORE PUSH1 0x4 ADD PUSH1 0x40 MLOAD DUP1 SWAP2 SUB SWAP1 REVERT JUMPDEST PUSH1 0x38 SLOAD PUSH1 0x40 MLOAD PUSH4 0x5B94EA5D PUSH1 0xE0 SHL DUP2 MSTORE PUSH1 0x1 PUSH1 0x1 PUSH1 0xA0 SHL SUB SWAP1 SWAP2 AND SWAP1 PUSH4 0x5B94EA5D SWAP1 PUSH2 0x1A67 SWAP1 DUP10 SWAP1 DUP10 SWAP1 PUSH1 0x4 ADD PUSH2 0x3885 JUMP JUMPDEST PUSH0 PUSH1 0x40 MLOAD DUP1 DUP4 SUB DUP2 PUSH0 DUP8 DUP1 EXTCODESIZE ISZERO DUP1 ISZERO PUSH2 0x1A7E JUMPI PUSH0 PUSH0 REVERT JUMPDEST POP GAS CALL ISZERO DUP1 ISZERO PUSH2 0x1A90 JUMPI RETURNDATASIZE PUSH0 PUSH0 RETURNDATACOPY RETURNDATASIZE PUSH0 REVERT JUMPDEST POP POP POP POP POP POP POP POP POP POP JUMP JUMPDEST DUP7 PUSH0 PUSH1 0x1 CALLER PUSH0 SWAP1 DUP2 MSTORE PUSH1 0x32 PUSH1 0x20 MSTORE PUSH1 0x40 SWAP1 KECCAK256 SLOAD PUSH1 0xFF AND PUSH1 0x4 DUP2 GT ISZERO PUSH2 0x1AC3 JUMPI PUSH2 0x1AC3 PUSH2 0x2D5B JUMP JUMPDEST PUSH1 0x37 SLOAD SWAP2 EQ SWAP2 POP PUSH0 SWAP1 PUSH1 0x1 PUSH1 0x1 PUSH1 0xA0 SHL SUB AND ISZERO DUP1 ISZERO SWAP1 PUSH2 0x1B4D JUMPI POP PUSH1 0x37 SLOAD PUSH1 0x40 MLOAD PUSH4 0xB2A6CB63 PUSH1 0xE0 SHL DUP2 MSTORE PUSH1 0x1 PUSH1 0x1 PUSH1 0xA0 SHL SUB SWAP1 SWAP2 AND SWAP1 PUSH4 0xB2A6CB63 SWAP1 PUSH2 0x1B0E SWAP1 DUP7 SWAP1 PUSH1 0x4 ADD PUSH2 0x2E42 JUMP JUMPDEST PUSH1 0x20 PUSH1 0x40 MLOAD DUP1 DUP4 SUB DUP2 DUP7 GAS STATICCALL ISZERO DUP1 ISZERO PUSH2 0x1B29 JUMPI RETURNDATASIZE PUSH0 PUSH0 RETURNDATACOPY RETURNDATASIZE PUSH0 REVERT JUMPDEST POP POP POP POP PUSH1 0x40 MLOAD RETURNDATASIZE PUSH1 0x1F NOT PUSH1 0x1F DUP3 ADD AND DUP3 ADD DUP1 PUSH1 0x40 MSTORE POP DUP2 ADD SWAP1 PUSH2 0x1B4D SWAP2 SWAP1 PUSH2 0x346E JUMP JUMPDEST ISZERO PUSH2 0x1BCE JUMPI PUSH1 0x37 SLOAD PUSH1 0x40 MLOAD PUSH4 0xB9588327 PUSH1 0xE0 SHL DUP2 MSTORE CALLER SWAP2 PUSH1 0x1 PUSH1 0x1 PUSH1 0xA0 SHL SUB AND SWAP1 PUSH4 0xB9588327 SWAP1 PUSH2 0x1B82 SWAP1 DUP8 SWAP1 PUSH1 0x4 ADD PUSH2 0x2E42 JUMP JUMPDEST PUSH1 0x20 PUSH1 0x40 MLOAD DUP1 DUP4 SUB DUP2 DUP7 GAS STATICCALL ISZERO DUP1 ISZERO PUSH2 0x1B9D JUMPI RETURNDATASIZE PUSH0 PUSH0 RETURNDATACOPY RETURNDATASIZE PUSH0 REVERT JUMPDEST POP POP POP POP PUSH1 0x40 MLOAD RETURNDATASIZE PUSH1 0x1F NOT PUSH1 0x1F DUP3 ADD AND DUP3 ADD DUP1 PUSH1 0x40 MSTORE POP DUP2 ADD SWAP1 PUSH2 0x1BC1 SWAP2 SWAP1 PUSH2 0x33CF JUMP JUMPDEST PUSH1 0x1 PUSH1 0x1 PUSH1 0xA0 SHL SUB AND EQ SWAP1 POP JUMPDEST PUSH0 PUSH2 0x1BD9 CALLER DUP6 PUSH2 0x27D2 JUMP JUMPDEST SWAP1 POP DUP3 ISZERO DUP1 ISZERO PUSH2 0x1BE7 JUMPI POP DUP2 ISZERO JUMPDEST DUP1 ISZERO PUSH2 0x1BF1 JUMPI POP DUP1 ISZERO JUMPDEST ISZERO PUSH2 0x1C0F JUMPI PUSH1 0x40 MLOAD PUSH4 0x6361F05 PUSH1 0xE0 SHL DUP2 MSTORE PUSH1 0x4 ADD PUSH1 0x40 MLOAD DUP1 SWAP2 SUB SWAP1 REVERT JUMPDEST PUSH1 0x38 SLOAD PUSH1 0x1 PUSH1 0x1 PUSH1 0xA0 SHL SUB AND PUSH2 0x1C38 JUMPI PUSH1 0x40 MLOAD PUSH4 0x729A9DFB PUSH1 0xE0 SHL DUP2 MSTORE PUSH1 0x4 ADD PUSH2 0x685 SWAP1 PUSH2 0x33B3 JUMP JUMPDEST PUSH1 0x37 SLOAD PUSH1 0x1 PUSH1 0x1 PUSH1 0xA0 SHL SUB AND ISZERO DUP1 PUSH2 0x1CBC JUMPI POP PUSH1 0x37 SLOAD PUSH1 0x40 MLOAD PUSH4 0xB2A6CB63 PUSH1 0xE0 SHL DUP2 MSTORE PUSH1 0x1 PUSH1 0x1 PUSH1 0xA0 SHL SUB SWAP1 SWAP2 AND SWAP1 PUSH4 0xB2A6CB63 SWAP1 PUSH2 0x1C7B SWAP1 DUP15 SWAP1 PUSH1 0x4 ADD PUSH2 0x2E42 JUMP JUMPDEST PUSH1 0x20 PUSH1 0x40 MLOAD DUP1 DUP4 SUB DUP2 DUP7 GAS STATICCALL ISZERO DUP1 ISZERO PUSH2 0x1C96 JUMPI RETURNDATASIZE PUSH0 PUSH0 RETURNDATACOPY RETURNDATASIZE PUSH0 REVERT JUMPDEST POP POP POP POP PUSH1 0x40 MLOAD RETURNDATASIZE PUSH1 0x1F NOT PUSH1 0x1F DUP3 ADD AND DUP3 ADD DUP1 PUSH1 0x40 MSTORE POP DUP2 ADD SWAP1 PUSH2 0x1CBA SWAP2 SWAP1 PUSH2 0x346E JUMP JUMPDEST ISZERO JUMPDEST ISZERO PUSH2 0x1CDA JUMPI PUSH1 0x40 MLOAD PUSH4 0x125A05ED PUSH1 0xE2 SHL DUP2 MSTORE PUSH1 0x4 ADD PUSH1 0x40 MLOAD DUP1 SWAP2 SUB SWAP1 REVERT JUMPDEST PUSH1 0x38 SLOAD PUSH1 0x40 MLOAD PUSH4 0x6EF07F03 PUSH1 0xE0 SHL DUP2 MSTORE PUSH1 0x1 PUSH1 0x1 PUSH1 0xA0 SHL SUB SWAP1 SWAP2 AND SWAP1 PUSH4 0x6EF07F03 SWAP1 PUSH2 0x1D16 SWAP1 DUP15 SWAP1 DUP15 SWAP1 DUP15 SWAP1 DUP15 SWAP1 DUP15 SWAP1 DUP15 SWAP1 DUP15 SWAP1 PUSH1 0x4 ADD PUSH2 0x389F JUMP JUMPDEST PUSH0 PUSH1 0x40 MLOAD DUP1 DUP4 SUB DUP2 PUSH0 DUP8 DUP1 EXTCODESIZE ISZERO DUP1 ISZERO PUSH2 0x1D2D JUMPI PUSH0 PUSH0 REVERT JUMPDEST POP GAS CALL ISZERO DUP1 ISZERO PUSH2 0x1D3F JUMPI RETURNDATASIZE PUSH0 PUSH0 RETURNDATACOPY RETURNDATASIZE PUSH0 REVERT JUMPDEST POP POP POP POP POP POP POP POP POP POP POP POP POP POP POP JUMP JUMPDEST PUSH1 0x34 SLOAD PUSH1 0x1 PUSH1 0x1 PUSH1 0xA0 SHL SUB AND CALLER EQ PUSH2 0x1D7B JUMPI PUSH1 0x40 MLOAD PUSH4 0x1A310541 PUSH1 0xE1 SHL DUP2 MSTORE PUSH1 0x4 ADD PUSH1 0x40 MLOAD DUP1 SWAP2 SUB SWAP1 REVERT JUMPDEST PUSH1 0x3 DUP2 PUSH1 0x4 DUP2 GT ISZERO PUSH2 0x1D8F JUMPI PUSH2 0x1D8F PUSH2 0x2D5B JUMP JUMPDEST EQ ISZERO DUP1 ISZERO PUSH2 0x1DAF JUMPI POP PUSH1 0x4 DUP2 PUSH1 0x4 DUP2 GT ISZERO PUSH2 0x1DAC JUMPI PUSH2 0x1DAC PUSH2 0x2D5B JUMP JUMPDEST EQ ISZERO JUMPDEST ISZERO PUSH2 0x1DD1 JUMPI DUP3 DUP2 PUSH1 0x40 MLOAD PUSH4 0x45C19949 PUSH1 0xE1 SHL DUP2 MSTORE PUSH1 0x4 ADD PUSH2 0x685 SWAP3 SWAP2 SWAP1 PUSH2 0x3415 JUMP JUMPDEST DUP2 PUSH1 0x1 PUSH1 0x1 PUSH1 0x80 SHL SUB AND PUSH0 SUB PUSH2 0x1DFA JUMPI PUSH1 0x40 MLOAD PUSH4 0x34ABFC67 PUSH1 0xE2 SHL DUP2 MSTORE PUSH1 0x4 ADD PUSH1 0x40 MLOAD DUP1 SWAP2 SUB SWAP1 REVERT JUMPDEST PUSH1 0x1 PUSH1 0x1 PUSH1 0xA0 SHL SUB DUP4 AND PUSH0 SWAP1 DUP2 MSTORE PUSH1 0x32 PUSH1 0x20 MSTORE PUSH1 0x40 DUP2 KECCAK256 SLOAD PUSH1 0xFF AND PUSH1 0x4 DUP2 GT ISZERO PUSH2 0x1E26 JUMPI PUSH2 0x1E26 PUSH2 0x2D5B JUMP JUMPDEST EQ DUP1 PUSH2 0x1E95 JUMPI POP PUSH1 0x3 PUSH1 0x1 PUSH1 0x1 PUSH1 0xA0 SHL SUB DUP5 AND PUSH0 SWAP1 DUP2 MSTORE PUSH1 0x32 PUSH1 0x20 MSTORE PUSH1 0x40 SWAP1 KECCAK256 SLOAD PUSH1 0xFF AND PUSH1 0x4 DUP2 GT ISZERO PUSH2 0x1E5B JUMPI PUSH2 0x1E5B PUSH2 0x2D5B JUMP JUMPDEST EQ ISZERO DUP1 ISZERO PUSH2 0x1E95 JUMPI POP PUSH1 0x4 PUSH1 0x1 PUSH1 0x1 PUSH1 0xA0 SHL SUB DUP5 AND PUSH0 SWAP1 DUP2 MSTORE PUSH1 0x32 PUSH1 0x20 MSTORE PUSH1 0x40 SWAP1 KECCAK256 SLOAD PUSH1 0xFF AND PUSH1 0x4 DUP2 GT ISZERO PUSH2 0x1E92 JUMPI PUSH2 0x1E92 PUSH2 0x2D5B JUMP JUMPDEST EQ ISZERO JUMPDEST ISZERO PUSH2 0x1F0A JUMPI PUSH1 0x1 PUSH1 0x1 PUSH1 0xA0 SHL SUB DUP4 AND PUSH0 SWAP1 DUP2 MSTORE PUSH1 0x32 PUSH1 0x20 MSTORE PUSH1 0x40 SWAP1 KECCAK256 DUP1 SLOAD DUP3 SWAP2 SWAP1 PUSH1 0xFF NOT AND PUSH1 0x1 DUP4 PUSH1 0x4 DUP2 GT ISZERO PUSH2 0x1ECE JUMPI PUSH2 0x1ECE PUSH2 0x2D5B JUMP JUMPDEST MUL OR SWAP1 SSTORE POP DUP1 PUSH1 0x4 DUP2 GT ISZERO PUSH2 0x1EE5 JUMPI PUSH2 0x1EE5 PUSH2 0x2D5B JUMP JUMPDEST PUSH1 0x40 MLOAD PUSH1 0x1 PUSH1 0x1 PUSH1 0xA0 SHL SUB DUP6 AND SWAP1 PUSH0 MLOAD PUSH1 0x20 PUSH2 0x3B52 PUSH0 CODECOPY PUSH0 MLOAD SWAP1 PUSH0 MSTORE SWAP1 PUSH0 SWAP1 LOG3 PUSH2 0x1FB9 JUMP JUMPDEST DUP1 PUSH1 0x4 DUP2 GT ISZERO PUSH2 0x1F1C JUMPI PUSH2 0x1F1C PUSH2 0x2D5B JUMP JUMPDEST PUSH1 0x1 PUSH1 0x1 PUSH1 0xA0 SHL SUB DUP5 AND PUSH0 SWAP1 DUP2 MSTORE PUSH1 0x32 PUSH1 0x20 MSTORE PUSH1 0x40 SWAP1 KECCAK256 SLOAD PUSH1 0xFF AND PUSH1 0x4 DUP2 GT ISZERO PUSH2 0x1F48 JUMPI PUSH2 0x1F48 PUSH2 0x2D5B JUMP JUMPDEST EQ PUSH2 0x1FB9 JUMPI PUSH1 0x1 PUSH1 0x1 PUSH1 0xA0 SHL SUB DUP4 AND PUSH0 SWAP1 DUP2 MSTORE PUSH1 0x32 PUSH1 0x20 MSTORE PUSH1 0x40 SWAP1 KECCAK256 DUP1 SLOAD DUP3 SWAP2 SWAP1 PUSH1 0xFF NOT AND PUSH1 0x1 DUP4 PUSH1 0x4 DUP2 GT ISZERO PUSH2 0x1F81 JUMPI PUSH2 0x1F81 PUSH2 0x2D5B JUMP JUMPDEST MUL OR SWAP1 SSTORE POP DUP1 PUSH1 0x4 DUP2 GT ISZERO PUSH2 0x1F98 JUMPI PUSH2 0x1F98 PUSH2 0x2D5B JUMP JUMPDEST PUSH1 0x40 MLOAD PUSH1 0x1 PUSH1 0x1 PUSH1 0xA0 SHL SUB DUP6 AND SWAP1 PUSH0 MLOAD PUSH1 0x20 PUSH2 0x3B52 PUSH0 CODECOPY PUSH0 MLOAD SWAP1 PUSH0 MSTORE SWAP1 PUSH0 SWAP1 LOG3 JUMPDEST PUSH1 0x1 PUSH1 0x1 PUSH1 0xA0 SHL SUB DUP4 AND PUSH0 DUP2 DUP2 MSTORE PUSH1 0x33 PUSH1 0x20 SWAP1 DUP2 MSTORE PUSH1 0x40 DUP1 DUP4 KECCAK256 PUSH1 0x1 PUSH1 0x1 PUSH1 0x80 SHL SUB DUP8 AND DUP1 DUP6 MSTORE SWAP3 MSTORE DUP1 DUP4 KECCAK256 DUP1 SLOAD PUSH1 0xFF NOT AND PUSH1 0x1 OR SWAP1 SSTORE MLOAD SWAP1 SWAP3 SWAP2 PUSH32 0xA7A040419689AC3001A2B7E46B4CC55AA49833559239A3D51E72E097CD28A98F SWAP2 LOG3 POP POP POP JUMP JUMPDEST PUSH1 0x1 CALLER PUSH0 SWAP1 DUP2 MSTORE PUSH1 0x32 PUSH1 0x20 MSTORE PUSH1 0x40 SWAP1 KECCAK256 SLOAD PUSH1 0xFF AND PUSH1 0x4 DUP2 GT ISZERO PUSH2 0x2041 JUMPI PUSH2 0x2041 PUSH2 0x2D5B JUMP JUMPDEST EQ PUSH2 0x2064 JUMPI CALLER PUSH1 0x1 PUSH1 0x40 MLOAD PUSH4 0x45C19949 PUSH1 0xE1 SHL DUP2 MSTORE PUSH1 0x4 ADD PUSH2 0x685 SWAP3 SWAP2 SWAP1 PUSH2 0x3415 JUMP JUMPDEST PUSH1 0x37 SLOAD PUSH1 0x1 PUSH1 0x1 PUSH1 0xA0 SHL SUB AND PUSH2 0x208D JUMPI PUSH1 0x40 MLOAD PUSH4 0x729A9DFB PUSH1 0xE0 SHL DUP2 MSTORE PUSH1 0x4 ADD PUSH2 0x685 SWAP1 PUSH2 0x3754 JUMP JUMPDEST PUSH1 0x37 SLOAD PUSH1 0x40 MLOAD PUSH4 0xB2A6CB63 PUSH1 0xE0 SHL DUP2 MSTORE PUSH1 0x1 PUSH1 0x1 PUSH1 0xA0 SHL SUB SWAP1 SWAP2 AND SWAP1 PUSH4 0xB2A6CB63 SWAP1 PUSH2 0x20BD SWAP1 DUP5 SWAP1 PUSH1 0x4 ADD PUSH2 0x2E42 JUMP JUMPDEST PUSH1 0x20 PUSH1 0x40 MLOAD DUP1 DUP4 SUB DUP2 DUP7 GAS STATICCALL ISZERO DUP1 ISZERO PUSH2 0x20D8 JUMPI RETURNDATASIZE PUSH0 PUSH0 RETURNDATACOPY RETURNDATASIZE PUSH0 REVERT JUMPDEST POP POP POP POP PUSH1 0x40 MLOAD RETURNDATASIZE PUSH1 0x1F NOT PUSH1 0x1F DUP3 ADD AND DUP3 ADD DUP1 PUSH1 0x40 MSTORE POP DUP2 ADD SWAP1 PUSH2 0x20FC SWAP2 SWAP1 PUSH2 0x346E JUMP JUMPDEST PUSH2 0x2119 JUMPI PUSH1 0x40 MLOAD PUSH4 0x125A05ED PUSH1 0xE2 SHL DUP2 MSTORE PUSH1 0x4 ADD PUSH1 0x40 MLOAD DUP1 SWAP2 SUB SWAP1 REVERT JUMPDEST PUSH2 0x1329 DUP3 DUP3 PUSH2 0x60A JUMP JUMPDEST PUSH2 0x212B PUSH2 0x27A0 JUMP JUMPDEST PUSH1 0x3A SLOAD PUSH1 0x1 PUSH1 0x1 PUSH1 0xA0 SHL SUB AND ISZERO PUSH2 0x2155 JUMPI PUSH1 0x40 MLOAD PUSH4 0x8BF2C4A5 PUSH1 0xE0 SHL DUP2 MSTORE PUSH1 0x4 ADD PUSH2 0x685 SWAP1 PUSH2 0x3452 JUMP JUMPDEST PUSH1 0x37 SLOAD PUSH1 0x1 PUSH1 0x1 PUSH1 0xA0 SHL SUB AND PUSH2 0x21BA JUMPI PUSH1 0x40 MLOAD PUSH4 0x7271502F PUSH1 0xE1 SHL DUP2 MSTORE PUSH1 0x20 PUSH1 0x4 DUP3 ADD MSTORE PUSH1 0x23 PUSH1 0x24 DUP3 ADD MSTORE PUSH32 0x52657374617572616E744D616E6167657220666F72205265766965774D616E61 PUSH1 0x44 DUP3 ADD MSTORE PUSH3 0x33B2B9 PUSH1 0xE9 SHL PUSH1 0x64 DUP3 ADD MSTORE PUSH1 0x84 ADD PUSH2 0x685 JUMP JUMPDEST PUSH1 0x36 SLOAD PUSH1 0x40 MLOAD PUSH4 0x54288FAD PUSH1 0xE1 SHL DUP2 MSTORE PUSH1 0x1 PUSH1 0x1 PUSH1 0xA0 SHL SUB SWAP1 SWAP2 AND SWAP1 PUSH4 0xA8511F5A SWAP1 PUSH2 0x21E8 SWAP1 PUSH1 0x4 ADD PUSH2 0x3452 JUMP JUMPDEST PUSH1 0x20 PUSH1 0x40 MLOAD DUP1 DUP4 SUB DUP2 PUSH0 DUP8 GAS CALL ISZERO DUP1 ISZERO PUSH2 0x2204 JUMPI RETURNDATASIZE PUSH0 PUSH0 RETURNDATACOPY RETURNDATASIZE PUSH0 REVERT JUMPDEST POP POP POP POP PUSH1 0x40 MLOAD RETURNDATASIZE PUSH1 0x1F NOT PUSH1 0x1F DUP3 ADD AND DUP3 ADD DUP1 PUSH1 0x40 MSTORE POP DUP2 ADD SWAP1 PUSH2 0x2228 SWAP2 SWAP1 PUSH2 0x33CF JUMP JUMPDEST PUSH1 0x3A DUP1 SLOAD PUSH1 0x1 PUSH1 0x1 PUSH1 0xA0 SHL SUB NOT AND PUSH1 0x1 PUSH1 0x1 PUSH1 0xA0 SHL SUB SWAP3 SWAP1 SWAP3 AND SWAP2 DUP3 OR SWAP1 SSTORE PUSH1 0x40 MLOAD PUSH0 MLOAD PUSH1 0x20 PUSH2 0x3B32 PUSH0 CODECOPY PUSH0 MLOAD SWAP1 PUSH0 MSTORE SWAP2 PUSH2 0x7C7 SWAP2 PUSH2 0x3928 JUMP JUMPDEST PUSH1 0x40 DUP1 MLOAD PUSH2 0x160 DUP2 ADD DUP3 MSTORE PUSH0 DUP1 DUP3 MSTORE PUSH1 0x20 DUP3 ADD DUP2 SWAP1 MSTORE PUSH1 0x60 SWAP3 DUP3 ADD DUP4 SWAP1 MSTORE DUP3 DUP3 ADD DUP4 SWAP1 MSTORE PUSH1 0x80 DUP3 ADD DUP2 SWAP1 MSTORE PUSH1 0xA0 DUP3 ADD DUP2 SWAP1 MSTORE PUSH1 0xC0 DUP3 ADD DUP4 SWAP1 MSTORE PUSH1 0xE0 DUP3 ADD SWAP3 SWAP1 SWAP3 MSTORE PUSH2 0x100 DUP2 ADD DUP3 SWAP1 MSTORE PUSH2 0x120 DUP2 ADD DUP3 SWAP1 MSTORE PUSH2 0x140 DUP2 ADD SWAP2 SWAP1 SWAP2 MSTORE PUSH1 0x38 SLOAD PUSH1 0x1 PUSH1 0x1 PUSH1 0xA0 SHL SUB AND PUSH2 0x22E5 JUMPI PUSH1 0x40 MLOAD PUSH4 0x729A9DFB PUSH1 0xE0 SHL DUP2 MSTORE PUSH1 0x4 ADD PUSH2 0x685 SWAP1 PUSH2 0x33B3 JUMP JUMPDEST PUSH1 0x38 SLOAD PUSH1 0x40 MLOAD PUSH4 0x18A512D PUSH1 0xE3 SHL DUP2 MSTORE PUSH1 0x1 PUSH1 0x1 PUSH1 0xA0 SHL SUB SWAP1 SWAP2 AND SWAP1 PUSH4 0xC528968 SWAP1 PUSH2 0x2317 SWAP1 DUP7 SWAP1 DUP7 SWAP1 PUSH1 0x4 ADD PUSH2 0x3885 JUMP JUMPDEST PUSH0 PUSH1 0x40 MLOAD DUP1 DUP4 SUB DUP2 DUP7 GAS STATICCALL ISZERO DUP1 ISZERO PUSH2 0x2331 JUMPI RETURNDATASIZE PUSH0 PUSH0 RETURNDATACOPY RETURNDATASIZE PUSH0 REVERT JUMPDEST POP POP POP POP PUSH1 0x40 MLOAD RETURNDATASIZE PUSH0 DUP3 RETURNDATACOPY PUSH1 0x1F RETURNDATASIZE SWAP1 DUP2 ADD PUSH1 0x1F NOT AND DUP3 ADD PUSH1 0x40 MSTORE PUSH2 0x2358 SWAP2 SWAP1 DUP2 ADD SWAP1 PUSH2 0x3939 JUMP JUMPDEST SWAP1 POP JUMPDEST SWAP3 SWAP2 POP POP JUMP JUMPDEST PUSH1 0x2 CALLER PUSH0 SWAP1 DUP2 MSTORE PUSH1 0x32 PUSH1 0x20 MSTORE PUSH1 0x40 SWAP1 KECCAK256 SLOAD PUSH1 0xFF AND PUSH1 0x4 DUP2 GT ISZERO PUSH2 0x2386 JUMPI PUSH2 0x2386 PUSH2 0x2D5B JUMP JUMPDEST EQ ISZERO DUP1 ISZERO PUSH2 0x23B7 JUMPI POP PUSH1 0x1 CALLER PUSH0 SWAP1 DUP2 MSTORE PUSH1 0x32 PUSH1 0x20 MSTORE PUSH1 0x40 SWAP1 KECCAK256 SLOAD PUSH1 0xFF AND PUSH1 0x4 DUP2 GT ISZERO PUSH2 0x23B4 JUMPI PUSH2 0x23B4 PUSH2 0x2D5B JUMP JUMPDEST EQ ISZERO JUMPDEST ISZERO PUSH2 0x23DA JUMPI CALLER PUSH1 0x2 PUSH1 0x40 MLOAD PUSH4 0x45C19949 PUSH1 0xE1 SHL DUP2 MSTORE PUSH1 0x4 ADD PUSH2 0x685 SWAP3 SWAP2 SWAP1 PUSH2 0x3415 JUMP JUMPDEST PUSH2 0x23E2 PUSH2 0x2892 JUMP JUMPDEST PUSH1 0x39 SLOAD PUSH1 0x1 PUSH1 0x1 PUSH1 0xA0 SHL SUB AND PUSH2 0x240B JUMPI PUSH1 0x40 MLOAD PUSH4 0x729A9DFB PUSH1 0xE0 SHL DUP2 MSTORE PUSH1 0x4 ADD PUSH2 0x685 SWAP1 PUSH2 0x34ED JUMP JUMPDEST PUSH1 0x37 SLOAD PUSH1 0x1 PUSH1 0x1 PUSH1 0xA0 SHL SUB AND ISZERO DUP1 PUSH2 0x248F JUMPI POP PUSH1 0x37 SLOAD PUSH1 0x40 MLOAD PUSH4 0xB2A6CB63 PUSH1 0xE0 SHL DUP2 MSTORE PUSH1 0x1 PUSH1 0x1 PUSH1 0xA0 SHL SUB SWAP1 SWAP2 AND SWAP1 PUSH4 0xB2A6CB63 SWAP1 PUSH2 0x244E SWAP1 DUP7 SWAP1 PUSH1 0x4 ADD PUSH2 0x2E42 JUMP JUMPDEST PUSH1 0x20 PUSH1 0x40 MLOAD DUP1 DUP4 SUB DUP2 DUP7 GAS STATICCALL ISZERO DUP1 ISZERO PUSH2 0x2469 JUMPI RETURNDATASIZE PUSH0 PUSH0 RETURNDATACOPY RETURNDATASIZE PUSH0 REVERT JUMPDEST POP POP POP POP PUSH1 0x40 MLOAD RETURNDATASIZE PUSH1 0x1F NOT PUSH1 0x1F DUP3 ADD AND DUP3 ADD DUP1 PUSH1 0x40 MSTORE POP DUP2 ADD SWAP1 PUSH2 0x248D SWAP2 SWAP1 PUSH2 0x346E JUMP JUMPDEST ISZERO JUMPDEST ISZERO PUSH2 0x24AD JUMPI PUSH1 0x40 MLOAD PUSH4 0x125A05ED PUSH1 0xE2 SHL DUP2 MSTORE PUSH1 0x4 ADD PUSH1 0x40 MLOAD DUP1 SWAP2 SUB SWAP1 REVERT JUMPDEST PUSH1 0x39 SLOAD PUSH1 0x40 MLOAD PUSH4 0xC60C14D9 PUSH1 0xE0 SHL DUP2 MSTORE PUSH1 0x1 PUSH1 0x1 PUSH1 0xA0 SHL SUB SWAP1 SWAP2 AND SWAP1 PUSH4 0xC60C14D9 SWAP1 CALLVALUE SWAP1 PUSH2 0x24E5 SWAP1 CALLER SWAP1 DUP9 SWAP1 DUP9 SWAP1 DUP9 SWAP1 PUSH1 0x4 ADD PUSH2 0x3AE2 JUMP JUMPDEST PUSH0 PUSH1 0x40 MLOAD DUP1 DUP4 SUB DUP2 DUP6 DUP9 DUP1 EXTCODESIZE ISZERO DUP1 ISZERO PUSH2 0x24FC JUMPI PUSH0 PUSH0 REVERT JUMPDEST POP GAS CALL ISZERO DUP1 ISZERO PUSH2 0x250E JUMPI RETURNDATASIZE PUSH0 PUSH0 RETURNDATACOPY RETURNDATASIZE PUSH0 REVERT JUMPDEST POP POP POP POP POP PUSH2 0x251C PUSH1 0x1 PUSH0 SSTORE JUMP JUMPDEST POP POP POP JUMP JUMPDEST PUSH1 0x1 CALLER PUSH0 SWAP1 DUP2 MSTORE PUSH1 0x32 PUSH1 0x20 MSTORE PUSH1 0x40 SWAP1 KECCAK256 SLOAD PUSH1 0xFF AND PUSH1 0x4 DUP2 GT ISZERO PUSH2 0x2546 JUMPI PUSH2 0x2546 PUSH2 0x2D5B JUMP JUMPDEST EQ PUSH2 0x2569 JUMPI CALLER PUSH1 0x1 PUSH1 0x40 MLOAD PUSH4 0x45C19949 PUSH1 0xE1 SHL DUP2 MSTORE PUSH1 0x4 ADD PUSH2 0x685 SWAP3 SWAP2 SWAP1 PUSH2 0x3415 JUMP JUMPDEST PUSH2 0x2573 DUP3 DUP3 PUSH2 0x1006 JUMP JUMPDEST DUP1 PUSH1 0x4 DUP2 GT ISZERO PUSH2 0x2585 JUMPI PUSH2 0x2585 PUSH2 0x2D5B JUMP JUMPDEST PUSH1 0x40 MLOAD PUSH1 0x1 PUSH1 0x1 PUSH1 0xA0 SHL SUB DUP5 AND SWAP1 PUSH32 0x5926935DE1A61DB7D72B9866401A45C62948E03020AC97CC0AE07A7B19F421ED SWAP1 PUSH0 SWAP1 LOG3 POP POP JUMP JUMPDEST PUSH2 0x25C4 PUSH2 0x27A0 JUMP JUMPDEST PUSH1 0x1 PUSH1 0x1 PUSH1 0xA0 SHL SUB DUP2 AND PUSH2 0x25ED JUMPI PUSH0 PUSH1 0x40 MLOAD PUSH4 0x1E4FBDF7 PUSH1 0xE0 SHL DUP2 MSTORE PUSH1 0x4 ADD PUSH2 0x685 SWAP2 SWAP1 PUSH2 0x2AC0 JUMP JUMPDEST PUSH2 0xEB5 DUP2 PUSH2 0x298A JUMP JUMPDEST PUSH1 0x1 CALLER PUSH0 SWAP1 DUP2 MSTORE PUSH1 0x32 PUSH1 0x20 MSTORE PUSH1 0x40 SWAP1 KECCAK256 SLOAD PUSH1 0xFF AND PUSH1 0x4 DUP2 GT ISZERO PUSH2 0x261B JUMPI PUSH2 0x261B PUSH2 0x2D5B JUMP JUMPDEST EQ PUSH2 0x263E JUMPI CALLER PUSH1 0x1 PUSH1 0x40 MLOAD PUSH4 0x45C19949 PUSH1 0xE1 SHL DUP2 MSTORE PUSH1 0x4 ADD PUSH2 0x685 SWAP3 SWAP2 SWAP1 PUSH2 0x3415 JUMP JUMPDEST PUSH1 0x37 SLOAD PUSH1 0x1 PUSH1 0x1 PUSH1 0xA0 SHL SUB AND PUSH2 0x2667 JUMPI PUSH1 0x40 MLOAD PUSH4 0x729A9DFB PUSH1 0xE0 SHL DUP2 MSTORE PUSH1 0x4 ADD PUSH2 0x685 SWAP1 PUSH2 0x3754 JUMP JUMPDEST PUSH1 0x37 SLOAD PUSH1 0x40 MLOAD PUSH4 0xB2A6CB63 PUSH1 0xE0 SHL DUP2 MSTORE PUSH1 0x1 PUSH1 0x1 PUSH1 0xA0 SHL SUB SWAP1 SWAP2 AND SWAP1 PUSH4 0xB2A6CB63 SWAP1 PUSH2 0x2697 SWAP1 DUP6 SWAP1 PUSH1 0x4 ADD PUSH2 0x2E42 JUMP JUMPDEST PUSH1 0x20 PUSH1 0x40 MLOAD DUP1 DUP4 SUB DUP2 DUP7 GAS STATICCALL ISZERO DUP1 ISZERO PUSH2 0x26B2 JUMPI RETURNDATASIZE PUSH0 PUSH0 RETURNDATACOPY RETURNDATASIZE PUSH0 REVERT JUMPDEST POP POP POP POP PUSH1 0x40 MLOAD RETURNDATASIZE PUSH1 0x1F NOT PUSH1 0x1F DUP3 ADD AND DUP3 ADD DUP1 PUSH1 0x40 MSTORE POP DUP2 ADD SWAP1 PUSH2 0x26D6 SWAP2 SWAP1 PUSH2 0x346E JUMP JUMPDEST PUSH2 0x26F3 JUMPI PUSH1 0x40 MLOAD PUSH4 0x125A05ED PUSH1 0xE2 SHL DUP2 MSTORE PUSH1 0x4 ADD PUSH1 0x40 MLOAD DUP1 SWAP2 SUB SWAP1 REVERT JUMPDEST PUSH1 0x3 DUP2 PUSH1 0x4 DUP2 GT ISZERO PUSH2 0x2707 JUMPI PUSH2 0x2707 PUSH2 0x2D5B JUMP JUMPDEST EQ ISZERO DUP1 ISZERO PUSH2 0x2727 JUMPI POP PUSH1 0x4 DUP2 PUSH1 0x4 DUP2 GT ISZERO PUSH2 0x2724 JUMPI PUSH2 0x2724 PUSH2 0x2D5B JUMP JUMPDEST EQ ISZERO JUMPDEST ISZERO PUSH2 0x2745 JUMPI PUSH1 0x40 MLOAD PUSH4 0x31F73E85 PUSH1 0xE0 SHL DUP2 MSTORE PUSH1 0x4 ADD PUSH1 0x40 MLOAD DUP1 SWAP2 SUB SWAP1 REVERT JUMPDEST PUSH2 0x2750 DUP4 DUP4 DUP4 PUSH2 0x1D50 JUMP JUMPDEST DUP2 PUSH1 0x1 PUSH1 0x1 PUSH1 0x80 SHL SUB AND DUP4 PUSH1 0x1 PUSH1 0x1 PUSH1 0xA0 SHL SUB AND PUSH32 0xE08EC346F8F66CA96BE0D1BD59DCD4EFC2AC497666992FD76934ACE44AB59C8F DUP4 PUSH1 0x40 MLOAD PUSH2 0x2793 SWAP2 SWAP1 PUSH2 0x3029 JUMP JUMPDEST PUSH1 0x40 MLOAD DUP1 SWAP2 SUB SWAP1 LOG3 POP POP POP JUMP JUMPDEST CALLER PUSH2 0x27A9 PUSH2 0x17DD JUMP JUMPDEST PUSH1 0x1 PUSH1 0x1 PUSH1 0xA0 SHL SUB AND EQ PUSH2 0x1743 JUMPI CALLER PUSH1 0x40 MLOAD PUSH4 0x118CDAA7 PUSH1 0xE0 SHL DUP2 MSTORE PUSH1 0x4 ADD PUSH2 0x685 SWAP2 SWAP1 PUSH2 0x2AC0 JUMP JUMPDEST PUSH0 DUP2 PUSH1 0x1 PUSH1 0x1 PUSH1 0x80 SHL SUB AND PUSH0 SUB PUSH2 0x27EA JUMPI POP PUSH0 PUSH2 0x235B JUMP JUMPDEST PUSH0 PUSH1 0x3 PUSH1 0x1 PUSH1 0x1 PUSH1 0xA0 SHL SUB DUP6 AND PUSH0 SWAP1 DUP2 MSTORE PUSH1 0x32 PUSH1 0x20 MSTORE PUSH1 0x40 SWAP1 KECCAK256 SLOAD PUSH1 0xFF AND PUSH1 0x4 DUP2 GT ISZERO PUSH2 0x2819 JUMPI PUSH2 0x2819 PUSH2 0x2D5B JUMP JUMPDEST EQ DUP1 PUSH2 0x2850 JUMPI POP PUSH1 0x4 PUSH1 0x1 PUSH1 0x1 PUSH1 0xA0 SHL SUB DUP6 AND PUSH0 SWAP1 DUP2 MSTORE PUSH1 0x32 PUSH1 0x20 MSTORE PUSH1 0x40 SWAP1 KECCAK256 SLOAD PUSH1 0xFF AND PUSH1 0x4 DUP2 GT ISZERO PUSH2 0x284E JUMPI PUSH2 0x284E PUSH2 0x2D5B JUMP JUMPDEST EQ JUMPDEST SWAP1 POP DUP1 DUP1 ISZERO PUSH2 0x288A JUMPI POP PUSH1 0x1 PUSH1 0x1 PUSH1 0xA0 SHL SUB DUP5 AND PUSH0 SWAP1 DUP2 MSTORE PUSH1 0x33 PUSH1 0x20 SWAP1 DUP2 MSTORE PUSH1 0x40 DUP1 DUP4 KECCAK256 PUSH1 0x1 PUSH1 0x1 PUSH1 0x80 SHL SUB DUP8 AND DUP5 MSTORE SWAP1 SWAP2 MSTORE SWAP1 KECCAK256 SLOAD PUSH1 0xFF AND JUMPDEST SWAP5 SWAP4 POP POP POP POP JUMP JUMPDEST PUSH1 0x2 PUSH0 SLOAD SUB PUSH2 0x28E3 JUMPI PUSH1 0x40 MLOAD PUSH3 0x461BCD PUSH1 0xE5 SHL DUP2 MSTORE PUSH1 0x20 PUSH1 0x4 DUP3 ADD MSTORE PUSH1 0x1F PUSH1 0x24 DUP3 ADD MSTORE PUSH32 0x5265656E7472616E637947756172643A207265656E7472616E742063616C6C00 PUSH1 0x44 DUP3 ADD MSTORE PUSH1 0x64 ADD PUSH2 0x685 JUMP JUMPDEST PUSH1 0x2 PUSH0 SSTORE JUMP JUMPDEST PUSH1 0x1 PUSH0 SSTORE JUMP JUMPDEST PUSH0 DUP1 PUSH32 0xF0C57E16840DF040F15088DC2F81FE391C3923BEC73E23A9662EFC9C229C6A00 PUSH2 0x235B JUMP JUMPDEST PUSH2 0x291F PUSH2 0x2A08 JUMP JUMPDEST PUSH2 0xEB5 DUP2 PUSH2 0x2A2D JUMP JUMPDEST PUSH2 0x2930 PUSH2 0x2A08 JUMP JUMPDEST PUSH2 0x1743 PUSH2 0x2A35 JUMP JUMPDEST PUSH1 0x34 DUP1 SLOAD PUSH1 0x1 PUSH1 0x1 PUSH1 0xA0 SHL SUB NOT AND PUSH1 0x1 PUSH1 0x1 PUSH1 0xA0 SHL SUB DUP4 AND SWAP1 DUP2 OR SWAP1 SWAP2 SSTORE PUSH0 DUP2 DUP2 MSTORE PUSH1 0x32 PUSH1 0x20 MSTORE PUSH1 0x40 DUP1 DUP3 KECCAK256 DUP1 SLOAD PUSH1 0xFF NOT AND PUSH1 0x1 SWAP1 DUP2 OR SWAP1 SWAP2 SSTORE SWAP1 MLOAD SWAP1 SWAP3 SWAP2 PUSH0 MLOAD PUSH1 0x20 PUSH2 0x3B52 PUSH0 CODECOPY PUSH0 MLOAD SWAP1 PUSH0 MSTORE SWAP2 LOG3 POP JUMP JUMPDEST PUSH0 PUSH2 0x2993 PUSH2 0x29E4 JUMP JUMPDEST DUP1 SLOAD PUSH1 0x1 PUSH1 0x1 PUSH1 0xA0 SHL SUB DUP5 DUP2 AND PUSH1 0x1 PUSH1 0x1 PUSH1 0xA0 SHL SUB NOT DUP4 AND DUP2 OR DUP5 SSTORE PUSH1 0x40 MLOAD SWAP4 SWAP5 POP SWAP2 AND SWAP2 DUP3 SWAP1 PUSH32 0x8BE0079C531659141344CD1FD0A4F28419497F9722A3DAAFE3B4186F6B6457E0 SWAP1 PUSH0 SWAP1 LOG3 POP POP POP JUMP JUMPDEST PUSH32 0x9016D09D72D40FDAE2FD8CEAC6B6234C7706214FD39C1CD1E609A0528C199300 SWAP1 JUMP JUMPDEST PUSH2 0x2A10 PUSH2 0x2A3D JUMP JUMPDEST PUSH2 0x1743 JUMPI PUSH1 0x40 MLOAD PUSH4 0x1AFCD79F PUSH1 0xE3 SHL DUP2 MSTORE PUSH1 0x4 ADD PUSH1 0x40 MLOAD DUP1 SWAP2 SUB SWAP1 REVERT JUMPDEST PUSH2 0x25C4 PUSH2 0x2A08 JUMP JUMPDEST PUSH2 0x28E9 PUSH2 0x2A08 JUMP JUMPDEST PUSH0 PUSH2 0x2A46 PUSH2 0x28EF JUMP JUMPDEST SLOAD PUSH1 0x1 PUSH1 0x40 SHL SWAP1 DIV PUSH1 0xFF AND SWAP2 SWAP1 POP JUMP JUMPDEST PUSH1 0x1 PUSH1 0x1 PUSH1 0xA0 SHL SUB DUP2 AND DUP2 EQ PUSH2 0xEB5 JUMPI PUSH0 PUSH0 REVERT JUMPDEST PUSH1 0x1 PUSH1 0x1 PUSH1 0x80 SHL SUB DUP2 AND DUP2 EQ PUSH2 0xEB5 JUMPI PUSH0 PUSH0 REVERT JUMPDEST DUP1 CALLDATALOAD PUSH2 0xC08 DUP2 PUSH2 0x2A6A JUMP JUMPDEST PUSH0 PUSH0 PUSH1 0x40 DUP4 DUP6 SUB SLT ISZERO PUSH2 0x2A9A JUMPI PUSH0 PUSH0 REVERT JUMPDEST DUP3 CALLDATALOAD PUSH2 0x2AA5 DUP2 PUSH2 0x2A56 JUMP JUMPDEST SWAP2 POP PUSH1 0x20 DUP4 ADD CALLDATALOAD PUSH2 0x2AB5 DUP2 PUSH2 0x2A6A JUMP JUMPDEST DUP1 SWAP2 POP POP SWAP3 POP SWAP3 SWAP1 POP JUMP JUMPDEST PUSH1 0x1 PUSH1 0x1 PUSH1 0xA0 SHL SUB SWAP2 SWAP1 SWAP2 AND DUP2 MSTORE PUSH1 0x20 ADD SWAP1 JUMP JUMPDEST PUSH4 0x4E487B71 PUSH1 0xE0 SHL PUSH0 MSTORE PUSH1 0x41 PUSH1 0x4 MSTORE PUSH1 0x24 PUSH0 REVERT JUMPDEST PUSH1 0x40 MLOAD PUSH1 0x80 DUP2 ADD PUSH1 0x1 PUSH1 0x1 PUSH1 0x40 SHL SUB DUP2 GT DUP3 DUP3 LT OR ISZERO PUSH2 0x2B0A JUMPI PUSH2 0x2B0A PUSH2 0x2AD4 JUMP JUMPDEST PUSH1 0x40 MSTORE SWAP1 JUMP JUMPDEST PUSH1 0x40 MLOAD PUSH2 0x100 DUP2 ADD PUSH1 0x1 PUSH1 0x1 PUSH1 0x40 SHL SUB DUP2 GT DUP3 DUP3 LT OR ISZERO PUSH2 0x2B0A JUMPI PUSH2 0x2B0A PUSH2 0x2AD4 JUMP JUMPDEST PUSH1 0x40 MLOAD PUSH2 0x160 DUP2 ADD PUSH1 0x1 PUSH1 0x1 PUSH1 0x40 SHL SUB DUP2 GT DUP3 DUP3 LT OR ISZERO PUSH2 0x2B0A JUMPI PUSH2 0x2B0A PUSH2 0x2AD4 JUMP JUMPDEST PUSH1 0x40 MLOAD PUSH1 0x1F DUP3 ADD PUSH1 0x1F NOT AND DUP2 ADD PUSH1 0x1 PUSH1 0x1 PUSH1 0x40 SHL SUB DUP2 GT DUP3 DUP3 LT OR ISZERO PUSH2 0x2B7E JUMPI PUSH2 0x2B7E PUSH2 0x2AD4 JUMP JUMPDEST PUSH1 0x40 MSTORE SWAP2 SWAP1 POP JUMP JUMPDEST PUSH0 PUSH1 0x1 PUSH1 0x1 PUSH1 0x40 SHL SUB DUP3 GT ISZERO PUSH2 0x2B9E JUMPI PUSH2 0x2B9E PUSH2 0x2AD4 JUMP JUMPDEST POP PUSH1 0x1F ADD PUSH1 0x1F NOT AND PUSH1 0x20 ADD SWAP1 JUMP JUMPDEST PUSH0 DUP3 PUSH1 0x1F DUP4 ADD SLT PUSH2 0x2BBB JUMPI PUSH0 PUSH0 REVERT JUMPDEST DUP2 CALLDATALOAD PUSH2 0x2BCE PUSH2 0x2BC9 DUP3 PUSH2 0x2B86 JUMP JUMPDEST PUSH2 0x2B56 JUMP JUMPDEST DUP2 DUP2 MSTORE DUP5 PUSH1 0x20 DUP4 DUP7 ADD ADD GT ISZERO PUSH2 0x2BE2 JUMPI PUSH0 PUSH0 REVERT JUMPDEST DUP2 PUSH1 0x20 DUP6 ADD PUSH1 0x20 DUP4 ADD CALLDATACOPY PUSH0 SWAP2 DUP2 ADD PUSH1 0x20 ADD SWAP2 SWAP1 SWAP2 MSTORE SWAP4 SWAP3 POP POP POP JUMP JUMPDEST PUSH0 PUSH0 PUSH0 PUSH1 0x60 DUP5 DUP7 SUB SLT ISZERO PUSH2 0x2C10 JUMPI PUSH0 PUSH0 REVERT JUMPDEST DUP4 CALLDATALOAD PUSH2 0x2C1B DUP2 PUSH2 0x2A6A JUMP JUMPDEST SWAP3 POP PUSH1 0x20 DUP5 ADD CALLDATALOAD PUSH1 0xFF DUP2 AND DUP2 EQ PUSH2 0x2C30 JUMPI PUSH0 PUSH0 REVERT JUMPDEST SWAP2 POP PUSH1 0x40 DUP5 ADD CALLDATALOAD PUSH1 0x1 PUSH1 0x1 PUSH1 0x40 SHL SUB DUP2 GT ISZERO PUSH2 0x2C4A JUMPI PUSH0 PUSH0 REVERT JUMPDEST PUSH2 0x2C56 DUP7 DUP3 DUP8 ADD PUSH2 0x2BAC JUMP JUMPDEST SWAP2 POP POP SWAP3 POP SWAP3 POP SWAP3 JUMP JUMPDEST PUSH0 PUSH1 0x20 DUP3 DUP5 SUB SLT ISZERO PUSH2 0x2C70 JUMPI PUSH0 PUSH0 REVERT JUMPDEST DUP2 CALLDATALOAD PUSH2 0x2C7B DUP2 PUSH2 0x2A6A JUMP JUMPDEST SWAP4 SWAP3 POP POP POP JUMP JUMPDEST PUSH1 0x1 PUSH1 0x1 PUSH1 0x80 SHL SUB AND SWAP1 MSTORE JUMP JUMPDEST PUSH0 DUP2 MLOAD DUP1 DUP5 MSTORE DUP1 PUSH1 0x20 DUP5 ADD PUSH1 0x20 DUP7 ADD MCOPY PUSH0 PUSH1 0x20 DUP3 DUP7 ADD ADD MSTORE PUSH1 0x20 PUSH1 0x1F NOT PUSH1 0x1F DUP4 ADD AND DUP6 ADD ADD SWAP2 POP POP SWAP3 SWAP2 POP POP JUMP JUMPDEST PUSH0 DUP3 DUP3 MLOAD DUP1 DUP6 MSTORE PUSH1 0x20 DUP6 ADD SWAP5 POP PUSH1 0x20 DUP2 PUSH1 0x5 SHL DUP4 ADD ADD PUSH1 0x20 DUP6 ADD PUSH0 JUMPDEST DUP4 DUP2 LT ISZERO PUSH2 0x2D4F JUMPI DUP5 DUP4 SUB PUSH1 0x1F NOT ADD DUP9 MSTORE DUP2 MLOAD DUP1 MLOAD PUSH1 0x1 PUSH1 0x1 PUSH1 0x80 SHL SUB AND DUP5 MSTORE PUSH1 0x20 DUP1 DUP3 ADD MLOAD PUSH1 0x80 SWAP2 DUP7 ADD DUP3 SWAP1 MSTORE SWAP1 PUSH2 0x2D14 SWAP1 DUP7 ADD DUP3 PUSH2 0x2C8F JUMP JUMPDEST PUSH1 0x40 DUP4 DUP2 ADD MLOAD PUSH1 0x1 PUSH1 0x1 PUSH1 0x80 SHL SUB SWAP1 DUP2 AND SWAP2 DUP9 ADD SWAP2 SWAP1 SWAP2 MSTORE PUSH1 0x60 SWAP4 DUP5 ADD MLOAD AND SWAP3 SWAP1 SWAP6 ADD SWAP2 SWAP1 SWAP2 MSTORE POP PUSH1 0x20 SWAP8 DUP9 ADD SWAP8 SWAP2 SWAP1 SWAP2 ADD SWAP1 PUSH1 0x1 ADD PUSH2 0x2CD9 JUMP JUMPDEST POP SWAP1 SWAP7 SWAP6 POP POP POP POP POP POP JUMP JUMPDEST PUSH4 0x4E487B71 PUSH1 0xE0 SHL PUSH0 MSTORE PUSH1 0x21 PUSH1 0x4 MSTORE PUSH1 0x24 PUSH0 REVERT JUMPDEST PUSH1 0x7 DUP2 LT PUSH2 0x2D7F JUMPI PUSH2 0x2D7F PUSH2 0x2D5B JUMP JUMPDEST SWAP1 MSTORE JUMP JUMPDEST PUSH1 0x20 DUP1 DUP3 MSTORE DUP3 MLOAD PUSH1 0x1 PUSH1 0x1 PUSH1 0x80 SHL SUB AND DUP3 DUP3 ADD MSTORE DUP3 ADD MLOAD PUSH1 0x1 PUSH1 0x1 PUSH1 0xA0 SHL SUB AND PUSH1 0x40 DUP1 DUP4 ADD SWAP2 SWAP1 SWAP2 MSTORE DUP3 ADD MLOAD PUSH0 SWAP1 PUSH2 0x2DBE PUSH1 0x60 DUP5 ADD DUP3 PUSH2 0x2C82 JUMP JUMPDEST POP PUSH1 0x60 DUP4 ADD MLOAD PUSH2 0x100 PUSH1 0x80 DUP5 ADD MSTORE PUSH2 0x2DDA PUSH2 0x120 DUP5 ADD DUP3 PUSH2 0x2CBD JUMP JUMPDEST SWAP1 POP PUSH1 0x80 DUP5 ADD MLOAD PUSH1 0xA0 DUP5 ADD MSTORE PUSH1 0xA0 DUP5 ADD MLOAD PUSH2 0x2DF8 PUSH1 0xC0 DUP6 ADD DUP3 PUSH2 0x2D6F JUMP JUMPDEST POP PUSH1 0xC0 DUP5 ADD MLOAD PUSH2 0x2E0B PUSH1 0xE0 DUP6 ADD DUP3 PUSH2 0x2C82 JUMP JUMPDEST POP PUSH1 0xE0 DUP5 ADD MLOAD PUSH2 0x2E1F PUSH2 0x100 DUP6 ADD DUP3 PUSH2 0x2C82 JUMP JUMPDEST POP SWAP4 SWAP3 POP POP POP JUMP JUMPDEST PUSH0 PUSH1 0x20 DUP3 DUP5 SUB SLT ISZERO PUSH2 0x2E37 JUMPI PUSH0 PUSH0 REVERT JUMPDEST DUP2 CALLDATALOAD PUSH2 0x2C7B DUP2 PUSH2 0x2A56 JUMP JUMPDEST PUSH1 0x1 PUSH1 0x1 PUSH1 0x80 SHL SUB SWAP2 SWAP1 SWAP2 AND DUP2 MSTORE PUSH1 0x20 ADD SWAP1 JUMP JUMPDEST DUP1 CALLDATALOAD PUSH1 0x5 DUP2 LT PUSH2 0xC08 JUMPI PUSH0 PUSH0 REVERT JUMPDEST PUSH0 PUSH0 PUSH1 0x40 DUP4 DUP6 SUB SLT ISZERO PUSH2 0x2E75 JUMPI PUSH0 PUSH0 REVERT JUMPDEST DUP3 CALLDATALOAD PUSH2 0x2E80 DUP2 PUSH2 0x2A56 JUMP JUMPDEST SWAP2 POP PUSH2 0x2E8E PUSH1 0x20 DUP5 ADD PUSH2 0x2E56 JUMP JUMPDEST SWAP1 POP SWAP3 POP SWAP3 SWAP1 POP JUMP JUMPDEST PUSH0 PUSH0 PUSH1 0x40 DUP4 DUP6 SUB SLT ISZERO PUSH2 0x2EA8 JUMPI PUSH0 PUSH0 REVERT JUMPDEST DUP3 CALLDATALOAD PUSH2 0x2EB3 DUP2 PUSH2 0x2A56 JUMP JUMPDEST SWAP2 POP PUSH1 0x20 DUP4 ADD CALLDATALOAD PUSH2 0x2AB5 DUP2 PUSH2 0x2A56 JUMP JUMPDEST PUSH1 0x7 DUP2 LT PUSH2 0xEB5 JUMPI PUSH0 PUSH0 REVERT JUMPDEST PUSH0 PUSH0 PUSH1 0x40 DUP4 DUP6 SUB SLT ISZERO PUSH2 0x2EE0 JUMPI PUSH0 PUSH0 REVERT JUMPDEST DUP3 CALLDATALOAD PUSH2 0x2EEB DUP2 PUSH2 0x2A6A JUMP JUMPDEST SWAP2 POP PUSH1 0x20 DUP4 ADD CALLDATALOAD PUSH2 0x2AB5 DUP2 PUSH2 0x2EC3 JUMP JUMPDEST DUP1 ISZERO ISZERO DUP2 EQ PUSH2 0xEB5 JUMPI PUSH0 PUSH0 REVERT JUMPDEST DUP1 CALLDATALOAD PUSH2 0xC08 DUP2 PUSH2 0x2EFB JUMP JUMPDEST PUSH0 PUSH0 PUSH0 PUSH0 PUSH0 PUSH0 PUSH0 PUSH0 PUSH0 PUSH2 0x120 DUP11 DUP13 SUB SLT ISZERO PUSH2 0x2F2C JUMPI PUSH0 PUSH0 REVERT JUMPDEST PUSH2 0x2F35 DUP11 PUSH2 0x2A7E JUMP JUMPDEST SWAP9 POP PUSH2 0x2F43 PUSH1 0x20 DUP12 ADD PUSH2 0x2A7E JUMP JUMPDEST SWAP8 POP PUSH1 0x40 DUP11 ADD CALLDATALOAD PUSH1 0x1 PUSH1 0x1 PUSH1 0x40 SHL SUB DUP2 GT ISZERO PUSH2 0x2F5D JUMPI PUSH0 PUSH0 REVERT JUMPDEST PUSH2 0x2F69 DUP13 DUP3 DUP14 ADD PUSH2 0x2BAC JUMP JUMPDEST SWAP8 POP POP PUSH1 0x60 DUP11 ADD CALLDATALOAD PUSH1 0x1 PUSH1 0x1 PUSH1 0x40 SHL SUB DUP2 GT ISZERO PUSH2 0x2F84 JUMPI PUSH0 PUSH0 REVERT JUMPDEST PUSH2 0x2F90 DUP13 DUP3 DUP14 ADD PUSH2 0x2BAC JUMP JUMPDEST SWAP7 POP POP PUSH2 0x2F9F PUSH1 0x80 DUP12 ADD PUSH2 0x2A7E JUMP JUMPDEST SWAP5 POP PUSH2 0x2FAD PUSH1 0xA0 DUP12 ADD PUSH2 0x2F08 JUMP JUMPDEST SWAP4 POP PUSH1 0xC0 DUP11 ADD CALLDATALOAD PUSH1 0x1 PUSH1 0x1 PUSH1 0x40 SHL SUB DUP2 GT ISZERO PUSH2 0x2FC7 JUMPI PUSH0 PUSH0 REVERT JUMPDEST PUSH2 0x2FD3 DUP13 DUP3 DUP14 ADD PUSH2 0x2BAC JUMP JUMPDEST SWAP4 POP POP PUSH1 0xE0 DUP11 ADD CALLDATALOAD PUSH1 0x1 PUSH1 0x1 PUSH1 0x40 SHL SUB DUP2 GT ISZERO PUSH2 0x2FEE JUMPI PUSH0 PUSH0 REVERT JUMPDEST PUSH2 0x2FFA DUP13 DUP3 DUP14 ADD PUSH2 0x2BAC JUMP JUMPDEST SWAP3 POP POP PUSH2 0x300A PUSH2 0x100 DUP12 ADD PUSH2 0x2A7E JUMP JUMPDEST SWAP1 POP SWAP3 SWAP6 SWAP9 POP SWAP3 SWAP6 SWAP9 POP SWAP3 SWAP6 SWAP9 JUMP JUMPDEST PUSH1 0x5 DUP2 LT PUSH2 0x2D7F JUMPI PUSH2 0x2D7F PUSH2 0x2D5B JUMP JUMPDEST PUSH1 0x20 DUP2 ADD PUSH2 0x235B DUP3 DUP5 PUSH2 0x3019 JUMP JUMPDEST PUSH0 PUSH0 PUSH1 0x40 DUP4 DUP6 SUB SLT ISZERO PUSH2 0x3048 JUMPI PUSH0 PUSH0 REVERT JUMPDEST DUP3 CALLDATALOAD PUSH2 0x2AA5 DUP2 PUSH2 0x2A6A JUMP JUMPDEST PUSH0 PUSH0 PUSH0 PUSH0 PUSH0 PUSH0 PUSH0 PUSH1 0xE0 DUP9 DUP11 SUB SLT ISZERO PUSH2 0x3069 JUMPI PUSH0 PUSH0 REVERT JUMPDEST PUSH2 0x3072 DUP9 PUSH2 0x2A7E JUMP JUMPDEST SWAP7 POP PUSH1 0x20 DUP9 ADD CALLDATALOAD PUSH1 0x1 PUSH1 0x1 PUSH1 0x40 SHL SUB DUP2 GT ISZERO PUSH2 0x308C JUMPI PUSH0 PUSH0 REVERT JUMPDEST PUSH2 0x3098 DUP11 DUP3 DUP12 ADD PUSH2 0x2BAC JUMP JUMPDEST SWAP7 POP POP PUSH1 0x40 DUP9 ADD CALLDATALOAD PUSH1 0x1 PUSH1 0x1 PUSH1 0x40 SHL SUB DUP2 GT ISZERO PUSH2 0x30B3 JUMPI PUSH0 PUSH0 REVERT JUMPDEST PUSH2 0x30BF DUP11 DUP3 DUP12 ADD PUSH2 0x2BAC JUMP JUMPDEST SWAP6 POP POP PUSH2 0x30CE PUSH1 0x60 DUP10 ADD PUSH2 0x2A7E JUMP JUMPDEST SWAP4 POP PUSH1 0x80 DUP9 ADD CALLDATALOAD PUSH1 0x1 PUSH1 0x1 PUSH1 0x40 SHL SUB DUP2 GT ISZERO PUSH2 0x30E8 JUMPI PUSH0 PUSH0 REVERT JUMPDEST PUSH2 0x30F4 DUP11 DUP3 DUP12 ADD PUSH2 0x2BAC JUMP JUMPDEST SWAP4 POP POP PUSH1 0xA0 DUP9 ADD CALLDATALOAD PUSH1 0x1 PUSH1 0x1 PUSH1 0x40 SHL SUB DUP2 GT ISZERO PUSH2 0x310F JUMPI PUSH0 PUSH0 REVERT JUMPDEST PUSH2 0x311B DUP11 DUP3 DUP12 ADD PUSH2 0x2BAC JUMP JUMPDEST SWAP3 POP POP PUSH2 0x312A PUSH1 0xC0 DUP10 ADD PUSH2 0x2A7E JUMP JUMPDEST SWAP1 POP SWAP3 SWAP6 SWAP9 SWAP2 SWAP5 SWAP8 POP SWAP3 SWAP6 POP JUMP JUMPDEST PUSH0 PUSH0 PUSH0 PUSH1 0x60 DUP5 DUP7 SUB SLT ISZERO PUSH2 0x314A JUMPI PUSH0 PUSH0 REVERT JUMPDEST DUP4 CALLDATALOAD PUSH2 0x3155 DUP2 PUSH2 0x2A56 JUMP JUMPDEST SWAP3 POP PUSH1 0x20 DUP5 ADD CALLDATALOAD PUSH2 0x3165 DUP2 PUSH2 0x2A6A JUMP JUMPDEST SWAP2 POP PUSH2 0x3173 PUSH1 0x40 DUP6 ADD PUSH2 0x2E56 JUMP JUMPDEST SWAP1 POP SWAP3 POP SWAP3 POP SWAP3 JUMP JUMPDEST PUSH1 0x20 DUP2 MSTORE PUSH2 0x318E PUSH1 0x20 DUP3 ADD DUP4 MLOAD PUSH2 0x2C82 JUMP JUMPDEST PUSH0 PUSH1 0x20 DUP4 ADD MLOAD PUSH2 0x31A1 PUSH1 0x40 DUP5 ADD DUP3 PUSH2 0x2C82 JUMP JUMPDEST POP PUSH1 0x40 DUP4 ADD MLOAD PUSH2 0x160 PUSH1 0x60 DUP5 ADD MSTORE PUSH2 0x31BD PUSH2 0x180 DUP5 ADD DUP3 PUSH2 0x2C8F JUMP JUMPDEST SWAP1 POP PUSH1 0x60 DUP5 ADD MLOAD PUSH1 0x1F NOT DUP5 DUP4 SUB ADD PUSH1 0x80 DUP6 ADD MSTORE PUSH2 0x31DA DUP3 DUP3 PUSH2 0x2C8F JUMP JUMPDEST SWAP2 POP POP PUSH1 0x80 DUP5 ADD MLOAD PUSH2 0x31EF PUSH1 0xA0 DUP6 ADD DUP3 PUSH2 0x2C82 JUMP JUMPDEST POP PUSH1 0xA0 DUP5 ADD MLOAD DUP1 ISZERO ISZERO PUSH1 0xC0 DUP6 ADD MSTORE POP PUSH1 0xC0 DUP5 ADD MLOAD DUP4 DUP3 SUB PUSH1 0x1F NOT ADD PUSH1 0xE0 DUP6 ADD MSTORE PUSH2 0x3219 DUP3 DUP3 PUSH2 0x2C8F JUMP JUMPDEST SWAP2 POP POP PUSH1 0xE0 DUP5 ADD MLOAD PUSH1 0x1F NOT DUP5 DUP4 SUB ADD PUSH2 0x100 DUP6 ADD MSTORE PUSH2 0x3238 DUP3 DUP3 PUSH2 0x2C8F JUMP JUMPDEST SWAP2 POP POP PUSH2 0x100 DUP5 ADD MLOAD PUSH2 0x324F PUSH2 0x120 DUP6 ADD DUP3 PUSH2 0x2C82 JUMP JUMPDEST POP PUSH2 0x120 DUP5 ADD MLOAD PUSH2 0x3264 PUSH2 0x140 DUP6 ADD DUP3 PUSH2 0x2C82 JUMP JUMPDEST POP PUSH2 0x140 DUP5 ADD MLOAD PUSH2 0x2E1F PUSH2 0x160 DUP6 ADD DUP3 PUSH2 0x2C82 JUMP JUMPDEST PUSH0 PUSH1 0x1 PUSH1 0x1 PUSH1 0x40 SHL SUB DUP3 GT ISZERO PUSH2 0x3291 JUMPI PUSH2 0x3291 PUSH2 0x2AD4 JUMP JUMPDEST POP PUSH1 0x5 SHL PUSH1 0x20 ADD SWAP1 JUMP JUMPDEST PUSH0 DUP3 PUSH1 0x1F DUP4 ADD SLT PUSH2 0x32AA JUMPI PUSH0 PUSH0 REVERT JUMPDEST DUP2 CALLDATALOAD PUSH2 0x32B8 PUSH2 0x2BC9 DUP3 PUSH2 0x3279 JUMP JUMPDEST DUP1 DUP3 DUP3 MSTORE PUSH1 0x20 DUP3 ADD SWAP2 POP PUSH1 0x20 DUP4 PUSH1 0x5 SHL DUP7 ADD ADD SWAP3 POP DUP6 DUP4 GT ISZERO PUSH2 0x32D9 JUMPI PUSH0 PUSH0 REVERT JUMPDEST PUSH1 0x20 DUP6 ADD JUMPDEST DUP4 DUP2 LT ISZERO PUSH2 0x32FF JUMPI DUP1 CALLDATALOAD PUSH2 0x32F1 DUP2 PUSH2 0x2A6A JUMP JUMPDEST DUP4 MSTORE PUSH1 0x20 SWAP3 DUP4 ADD SWAP3 ADD PUSH2 0x32DE JUMP JUMPDEST POP SWAP6 SWAP5 POP POP POP POP POP JUMP JUMPDEST PUSH0 PUSH0 PUSH0 PUSH1 0x60 DUP5 DUP7 SUB SLT ISZERO PUSH2 0x331B JUMPI PUSH0 PUSH0 REVERT JUMPDEST DUP4 CALLDATALOAD PUSH2 0x3326 DUP2 PUSH2 0x2A6A JUMP JUMPDEST SWAP3 POP PUSH1 0x20 DUP5 ADD CALLDATALOAD PUSH1 0x1 PUSH1 0x1 PUSH1 0x40 SHL SUB DUP2 GT ISZERO PUSH2 0x3340 JUMPI PUSH0 PUSH0 REVERT JUMPDEST PUSH2 0x334C DUP7 DUP3 DUP8 ADD PUSH2 0x329B JUMP JUMPDEST SWAP3 POP POP PUSH1 0x40 DUP5 ADD CALLDATALOAD PUSH1 0x1 PUSH1 0x1 PUSH1 0x40 SHL SUB DUP2 GT ISZERO PUSH2 0x3367 JUMPI PUSH0 PUSH0 REVERT JUMPDEST PUSH2 0x2C56 DUP7 DUP3 DUP8 ADD PUSH2 0x329B JUMP JUMPDEST PUSH1 0x1 PUSH1 0x1 PUSH1 0xA0 SHL SUB SWAP3 SWAP1 SWAP3 AND DUP3 MSTORE PUSH1 0x1 PUSH1 0x1 PUSH1 0x80 SHL SUB AND PUSH1 0x20 DUP3 ADD MSTORE PUSH1 0x40 ADD SWAP1 JUMP JUMPDEST PUSH1 0xB DUP2 MSTORE PUSH11 0x26B2B73AA6B0B730B3B2B9 PUSH1 0xA9 SHL PUSH1 0x20 DUP3 ADD MSTORE PUSH1 0x40 ADD SWAP1 JUMP JUMPDEST PUSH1 0x20 DUP2 MSTORE PUSH0 PUSH2 0x235B PUSH1 0x20 DUP4 ADD PUSH2 0x3395 JUMP JUMPDEST DUP1 MLOAD PUSH2 0xC08 DUP2 PUSH2 0x2A56 JUMP JUMPDEST PUSH0 PUSH1 0x20 DUP3 DUP5 SUB SLT ISZERO PUSH2 0x33DF JUMPI PUSH0 PUSH0 REVERT JUMPDEST DUP2 MLOAD PUSH2 0x2C7B DUP2 PUSH2 0x2A56 JUMP JUMPDEST PUSH1 0x40 DUP2 MSTORE PUSH0 PUSH2 0x33FB PUSH1 0x40 DUP4 ADD PUSH2 0x3395 JUMP JUMPDEST PUSH1 0x1 PUSH1 0x1 PUSH1 0xA0 SHL SUB SWAP4 SWAP1 SWAP4 AND PUSH1 0x20 SWAP3 SWAP1 SWAP3 ADD SWAP2 SWAP1 SWAP2 MSTORE POP SWAP1 JUMP JUMPDEST PUSH1 0x1 PUSH1 0x1 PUSH1 0xA0 SHL SUB DUP4 AND DUP2 MSTORE PUSH1 0x40 DUP2 ADD PUSH2 0x2C7B PUSH1 0x20 DUP4 ADD DUP5 PUSH2 0x3019 JUMP JUMPDEST PUSH1 0xD DUP2 MSTORE PUSH13 0x2932BB34B2BBA6B0B730B3B2B9 PUSH1 0x99 SHL PUSH1 0x20 DUP3 ADD MSTORE PUSH1 0x40 ADD SWAP1 JUMP JUMPDEST PUSH1 0x20 DUP2 MSTORE PUSH0 PUSH2 0x235B PUSH1 0x20 DUP4 ADD PUSH2 0x3432 JUMP JUMPDEST DUP1 MLOAD PUSH2 0xC08 DUP2 PUSH2 0x2EFB JUMP JUMPDEST PUSH0 PUSH1 0x20 DUP3 DUP5 SUB SLT ISZERO PUSH2 0x347E JUMPI PUSH0 PUSH0 REVERT JUMPDEST DUP2 MLOAD PUSH2 0x2C7B DUP2 PUSH2 0x2EFB JUMP JUMPDEST PUSH1 0x1 PUSH1 0x1 PUSH1 0xA0 SHL SUB DUP6 AND DUP2 MSTORE PUSH1 0x1 PUSH1 0x1 PUSH1 0x80 SHL SUB DUP5 AND PUSH1 0x20 DUP3 ADD MSTORE PUSH1 0xFF DUP4 AND PUSH1 0x40 DUP3 ADD MSTORE PUSH1 0x80 PUSH1 0x60 DUP3 ADD DUP2 SWAP1 MSTORE PUSH0 SWAP1 PUSH2 0x34C4 SWAP1 DUP4 ADD DUP5 PUSH2 0x2C8F JUMP JUMPDEST SWAP7 SWAP6 POP POP POP POP POP POP JUMP JUMPDEST PUSH1 0xC DUP2 MSTORE PUSH12 0x27B93232B926B0B730B3B2B9 PUSH1 0xA1 SHL PUSH1 0x20 DUP3 ADD MSTORE PUSH1 0x40 ADD SWAP1 JUMP JUMPDEST PUSH1 0x20 DUP2 MSTORE PUSH0 PUSH2 0x235B PUSH1 0x20 DUP4 ADD PUSH2 0x34CE JUMP JUMPDEST DUP1 MLOAD PUSH2 0xC08 DUP2 PUSH2 0x2A6A JUMP JUMPDEST PUSH0 DUP3 PUSH1 0x1F DUP4 ADD SLT PUSH2 0x3518 JUMPI PUSH0 PUSH0 REVERT JUMPDEST DUP2 MLOAD PUSH2 0x3526 PUSH2 0x2BC9 DUP3 PUSH2 0x2B86 JUMP JUMPDEST DUP2 DUP2 MSTORE DUP5 PUSH1 0x20 DUP4 DUP7 ADD ADD GT ISZERO PUSH2 0x353A JUMPI PUSH0 PUSH0 REVERT JUMPDEST DUP2 PUSH1 0x20 DUP6 ADD PUSH1 0x20 DUP4 ADD MCOPY PUSH0 SWAP2 DUP2 ADD PUSH1 0x20 ADD SWAP2 SWAP1 SWAP2 MSTORE SWAP4 SWAP3 POP POP POP JUMP JUMPDEST PUSH0 DUP3 PUSH1 0x1F DUP4 ADD SLT PUSH2 0x3565 JUMPI PUSH0 PUSH0 REVERT JUMPDEST DUP2 MLOAD PUSH2 0x3573 PUSH2 0x2BC9 DUP3 PUSH2 0x3279 JUMP JUMPDEST DUP1 DUP3 DUP3 MSTORE PUSH1 0x20 DUP3 ADD SWAP2 POP PUSH1 0x20 DUP4 PUSH1 0x5 SHL DUP7 ADD ADD SWAP3 POP DUP6 DUP4 GT ISZERO PUSH2 0x3594 JUMPI PUSH0 PUSH0 REVERT JUMPDEST PUSH1 0x20 DUP6 ADD JUMPDEST DUP4 DUP2 LT ISZERO PUSH2 0x32FF JUMPI DUP1 MLOAD PUSH1 0x1 PUSH1 0x1 PUSH1 0x40 SHL SUB DUP2 GT ISZERO PUSH2 0x35B6 JUMPI PUSH0 PUSH0 REVERT JUMPDEST DUP7 ADD PUSH1 0x80 DUP2 DUP10 SUB PUSH1 0x1F NOT ADD SLT ISZERO PUSH2 0x35CB JUMPI PUSH0 PUSH0 REVERT JUMPDEST PUSH2 0x35D3 PUSH2 0x2AE8 JUMP JUMPDEST PUSH1 0x20 DUP3 ADD MLOAD PUSH2 0x35E1 DUP2 PUSH2 0x2A6A JUMP JUMPDEST DUP2 MSTORE PUSH1 0x40 DUP3 ADD MLOAD PUSH1 0x1 PUSH1 0x1 PUSH1 0x40 SHL SUB DUP2 GT ISZERO PUSH2 0x35FB JUMPI PUSH0 PUSH0 REVERT JUMPDEST PUSH2 0x360A DUP11 PUSH1 0x20 DUP4 DUP7 ADD ADD PUSH2 0x3509 JUMP JUMPDEST PUSH1 0x20 DUP4 ADD MSTORE POP PUSH1 0x60 DUP3 ADD MLOAD PUSH2 0x361E DUP2 PUSH2 0x2A6A JUMP JUMPDEST PUSH1 0x40 DUP3 ADD MSTORE PUSH1 0x80 SWAP2 SWAP1 SWAP2 ADD MLOAD SWAP1 PUSH2 0x3634 DUP3 PUSH2 0x2A6A JUMP JUMPDEST PUSH1 0x60 DUP2 ADD SWAP2 SWAP1 SWAP2 MSTORE DUP4 MSTORE PUSH1 0x20 SWAP3 DUP4 ADD SWAP3 ADD PUSH2 0x3599 JUMP JUMPDEST DUP1 MLOAD PUSH2 0xC08 DUP2 PUSH2 0x2EC3 JUMP JUMPDEST PUSH0 PUSH1 0x20 DUP3 DUP5 SUB SLT ISZERO PUSH2 0x3665 JUMPI PUSH0 PUSH0 REVERT JUMPDEST DUP2 MLOAD PUSH1 0x1 PUSH1 0x1 PUSH1 0x40 SHL SUB DUP2 GT ISZERO PUSH2 0x367A JUMPI PUSH0 PUSH0 REVERT JUMPDEST DUP3 ADD PUSH2 0x100 DUP2 DUP6 SUB SLT ISZERO PUSH2 0x368C JUMPI PUSH0 PUSH0 REVERT JUMPDEST PUSH2 0x3694 PUSH2 0x2B10 JUMP JUMPDEST PUSH2 0x369D DUP3 PUSH2 0x34FE JUMP JUMPDEST DUP2 MSTORE PUSH2 0x36AB PUSH1 0x20 DUP4 ADD PUSH2 0x33C4 JUMP JUMPDEST PUSH1 0x20 DUP3 ADD MSTORE PUSH2 0x36BC PUSH1 0x40 DUP4 ADD PUSH2 0x34FE JUMP JUMPDEST PUSH1 0x40 DUP3 ADD MSTORE PUSH1 0x60 DUP3 ADD MLOAD PUSH1 0x1 PUSH1 0x1 PUSH1 0x40 SHL SUB DUP2 GT ISZERO PUSH2 0x36D9 JUMPI PUSH0 PUSH0 REVERT JUMPDEST PUSH2 0x36E5 DUP7 DUP3 DUP6 ADD PUSH2 0x3556 JUMP JUMPDEST PUSH1 0x60 DUP4 ADD MSTORE POP PUSH1 0x80 DUP3 DUP2 ADD MLOAD SWAP1 DUP3 ADD MSTORE PUSH2 0x3701 PUSH1 0xA0 DUP4 ADD PUSH2 0x364A JUMP JUMPDEST PUSH1 0xA0 DUP3 ADD MSTORE PUSH2 0x3712 PUSH1 0xC0 DUP4 ADD PUSH2 0x34FE JUMP JUMPDEST PUSH1 0xC0 DUP3 ADD MSTORE PUSH2 0x3723 PUSH1 0xE0 DUP4 ADD PUSH2 0x34FE JUMP JUMPDEST PUSH1 0xE0 DUP3 ADD MSTORE SWAP5 SWAP4 POP POP POP POP JUMP JUMPDEST PUSH1 0x11 DUP2 MSTORE PUSH17 0x2932B9BA30BAB930B73A26B0B730B3B2B9 PUSH1 0x79 SHL PUSH1 0x20 DUP3 ADD MSTORE PUSH1 0x40 ADD SWAP1 JUMP JUMPDEST PUSH1 0x20 DUP2 MSTORE PUSH0 PUSH2 0x235B PUSH1 0x20 DUP4 ADD PUSH2 0x3730 JUMP JUMPDEST PUSH0 PUSH1 0x20 DUP3 DUP5 SUB SLT ISZERO PUSH2 0x3775 JUMPI PUSH0 PUSH0 REVERT JUMPDEST DUP2 MLOAD PUSH2 0x2C7B DUP2 PUSH2 0x2A6A JUMP JUMPDEST PUSH1 0x40 DUP2 MSTORE PUSH0 PUSH2 0x33FB PUSH1 0x40 DUP4 ADD PUSH2 0x34CE JUMP JUMPDEST PUSH1 0x1 PUSH1 0x1 PUSH1 0xA0 SHL SUB DUP6 AND DUP2 MSTORE PUSH1 0x1 PUSH1 0x1 PUSH1 0x80 SHL SUB DUP5 AND PUSH1 0x20 DUP3 ADD MSTORE PUSH1 0x80 DUP2 ADD PUSH2 0x37BD PUSH1 0x40 DUP4 ADD DUP6 PUSH2 0x2D6F JUMP JUMPDEST PUSH1 0x1 PUSH1 0x1 PUSH1 0x80 SHL SUB SWAP3 SWAP1 SWAP3 AND PUSH1 0x60 SWAP2 SWAP1 SWAP2 ADD MSTORE SWAP4 SWAP3 POP POP POP JUMP JUMPDEST PUSH1 0x40 DUP2 MSTORE PUSH0 PUSH2 0x33FB PUSH1 0x40 DUP4 ADD PUSH2 0x3730 JUMP JUMPDEST PUSH1 0x1 PUSH1 0x1 PUSH1 0x80 SHL SUB DUP11 DUP2 AND DUP3 MSTORE DUP10 AND PUSH1 0x20 DUP3 ADD MSTORE PUSH2 0x120 PUSH1 0x40 DUP3 ADD DUP2 SWAP1 MSTORE PUSH0 SWAP1 PUSH2 0x3814 SWAP1 DUP4 ADD DUP11 PUSH2 0x2C8F JUMP JUMPDEST DUP3 DUP2 SUB PUSH1 0x60 DUP5 ADD MSTORE PUSH2 0x3826 DUP2 DUP11 PUSH2 0x2C8F JUMP JUMPDEST PUSH1 0x1 PUSH1 0x1 PUSH1 0x80 SHL SUB DUP10 AND PUSH1 0x80 DUP6 ADD MSTORE DUP8 ISZERO ISZERO PUSH1 0xA0 DUP6 ADD MSTORE DUP4 DUP2 SUB PUSH1 0xC0 DUP6 ADD MSTORE SWAP1 POP PUSH2 0x3851 DUP2 DUP8 PUSH2 0x2C8F JUMP JUMPDEST SWAP1 POP DUP3 DUP2 SUB PUSH1 0xE0 DUP5 ADD MSTORE PUSH2 0x3865 DUP2 DUP7 PUSH2 0x2C8F JUMP JUMPDEST SWAP2 POP POP PUSH1 0x1 DUP1 PUSH1 0x80 SHL SUB DUP4 AND PUSH2 0x100 DUP4 ADD MSTORE SWAP11 SWAP10 POP POP POP POP POP POP POP POP POP POP JUMP JUMPDEST PUSH1 0x1 PUSH1 0x1 PUSH1 0x80 SHL SUB SWAP3 DUP4 AND DUP2 MSTORE SWAP2 AND PUSH1 0x20 DUP3 ADD MSTORE PUSH1 0x40 ADD SWAP1 JUMP JUMPDEST PUSH1 0x1 PUSH1 0x1 PUSH1 0x80 SHL SUB DUP9 AND DUP2 MSTORE PUSH1 0xE0 PUSH1 0x20 DUP3 ADD DUP2 SWAP1 MSTORE PUSH0 SWAP1 PUSH2 0x38C2 SWAP1 DUP4 ADD DUP10 PUSH2 0x2C8F JUMP JUMPDEST DUP3 DUP2 SUB PUSH1 0x40 DUP5 ADD MSTORE PUSH2 0x38D4 DUP2 DUP10 PUSH2 0x2C8F JUMP JUMPDEST PUSH1 0x1 PUSH1 0x1 PUSH1 0x80 SHL SUB DUP9 AND PUSH1 0x60 DUP6 ADD MSTORE DUP4 DUP2 SUB PUSH1 0x80 DUP6 ADD MSTORE SWAP1 POP PUSH2 0x38F7 DUP2 DUP8 PUSH2 0x2C8F JUMP JUMPDEST SWAP1 POP DUP3 DUP2 SUB PUSH1 0xA0 DUP5 ADD MSTORE PUSH2 0x390B DUP2 DUP7 PUSH2 0x2C8F JUMP JUMPDEST SWAP2 POP POP PUSH1 0x1 DUP1 PUSH1 0x80 SHL SUB DUP4 AND PUSH1 0xC0 DUP4 ADD MSTORE SWAP9 SWAP8 POP POP POP POP POP POP POP POP JUMP JUMPDEST PUSH1 0x40 DUP2 MSTORE PUSH0 PUSH2 0x33FB PUSH1 0x40 DUP4 ADD PUSH2 0x3432 JUMP JUMPDEST PUSH0 PUSH1 0x20 DUP3 DUP5 SUB SLT ISZERO PUSH2 0x3949 JUMPI PUSH0 PUSH0 REVERT JUMPDEST DUP2 MLOAD PUSH1 0x1 PUSH1 0x1 PUSH1 0x40 SHL SUB DUP2 GT ISZERO PUSH2 0x395E JUMPI PUSH0 PUSH0 REVERT JUMPDEST DUP3 ADD PUSH2 0x160 DUP2 DUP6 SUB SLT ISZERO PUSH2 0x3970 JUMPI PUSH0 PUSH0 REVERT JUMPDEST PUSH2 0x3978 PUSH2 0x2B33 JUMP JUMPDEST PUSH2 0x3981 DUP3 PUSH2 0x34FE JUMP JUMPDEST DUP2 MSTORE PUSH2 0x398F PUSH1 0x20 DUP4 ADD PUSH2 0x34FE JUMP JUMPDEST PUSH1 0x20 DUP3 ADD MSTORE PUSH1 0x40 DUP3 ADD MLOAD PUSH1 0x1 PUSH1 0x1 PUSH1 0x40 SHL SUB DUP2 GT ISZERO PUSH2 0x39AC JUMPI PUSH0 PUSH0 REVERT JUMPDEST PUSH2 0x39B8 DUP7 DUP3 DUP6 ADD PUSH2 0x3509 JUMP JUMPDEST PUSH1 0x40 DUP4 ADD MSTORE POP PUSH1 0x60 DUP3 ADD MLOAD PUSH1 0x1 PUSH1 0x1 PUSH1 0x40 SHL SUB DUP2 GT ISZERO PUSH2 0x39D6 JUMPI PUSH0 PUSH0 REVERT JUMPDEST PUSH2 0x39E2 DUP7 DUP3 DUP6 ADD PUSH2 0x3509 JUMP JUMPDEST PUSH1 0x60 DUP4 ADD MSTORE POP PUSH2 0x39F4 PUSH1 0x80 DUP4 ADD PUSH2 0x34FE JUMP JUMPDEST PUSH1 0x80 DUP3 ADD MSTORE PUSH2 0x3A05 PUSH1 0xA0 DUP4 ADD PUSH2 0x3463 JUMP JUMPDEST PUSH1 0xA0 DUP3 ADD MSTORE PUSH1 0xC0 DUP3 ADD MLOAD PUSH1 0x1 PUSH1 0x1 PUSH1 0x40 SHL SUB DUP2 GT ISZERO PUSH2 0x3A22 JUMPI PUSH0 PUSH0 REVERT JUMPDEST PUSH2 0x3A2E DUP7 DUP3 DUP6 ADD PUSH2 0x3509 JUMP JUMPDEST PUSH1 0xC0 DUP4 ADD MSTORE POP PUSH1 0xE0 DUP3 ADD MLOAD PUSH1 0x1 PUSH1 0x1 PUSH1 0x40 SHL SUB DUP2 GT ISZERO PUSH2 0x3A4C JUMPI PUSH0 PUSH0 REVERT JUMPDEST PUSH2 0x3A58 DUP7 DUP3 DUP6 ADD PUSH2 0x3509 JUMP JUMPDEST PUSH1 0xE0 DUP4 ADD MSTORE POP PUSH2 0x3A6B PUSH2 0x100 DUP4 ADD PUSH2 0x34FE JUMP JUMPDEST PUSH2 0x100 DUP3 ADD MSTORE PUSH2 0x3A7E PUSH2 0x120 DUP4 ADD PUSH2 0x34FE JUMP JUMPDEST PUSH2 0x120 DUP3 ADD MSTORE PUSH2 0x3A91 PUSH2 0x140 DUP4 ADD PUSH2 0x34FE JUMP JUMPDEST PUSH2 0x140 DUP3 ADD MSTORE SWAP5 SWAP4 POP POP POP POP JUMP JUMPDEST PUSH0 DUP2 MLOAD DUP1 DUP5 MSTORE PUSH1 0x20 DUP5 ADD SWAP4 POP PUSH1 0x20 DUP4 ADD PUSH0 JUMPDEST DUP3 DUP2 LT ISZERO PUSH2 0x3AD8 JUMPI DUP2 MLOAD PUSH1 0x1 PUSH1 0x1 PUSH1 0x80 SHL SUB AND DUP7 MSTORE PUSH1 0x20 SWAP6 DUP7 ADD SWAP6 SWAP1 SWAP2 ADD SWAP1 PUSH1 0x1 ADD PUSH2 0x3AB1 JUMP JUMPDEST POP SWAP4 SWAP5 SWAP4 POP POP POP POP JUMP JUMPDEST PUSH1 0x1 PUSH1 0x1 PUSH1 0xA0 SHL SUB DUP6 AND DUP2 MSTORE PUSH1 0x1 PUSH1 0x1 PUSH1 0x80 SHL SUB DUP5 AND PUSH1 0x20 DUP3 ADD MSTORE PUSH1 0x80 PUSH1 0x40 DUP3 ADD DUP2 SWAP1 MSTORE PUSH0 SWAP1 PUSH2 0x3B14 SWAP1 DUP4 ADD DUP6 PUSH2 0x3A9F JUMP JUMPDEST DUP3 DUP2 SUB PUSH1 0x60 DUP5 ADD MSTORE PUSH2 0x3B26 DUP2 DUP6 PUSH2 0x3A9F JUMP JUMPDEST SWAP8 SWAP7 POP POP POP POP POP POP POP JUMP INVALID SMOD SELFBALANCE LOG1 0xB3 CALLVALUE PC 0x4B LOG1 COINBASE PREVRANDAO 0xE8 0xE2 DUP16 XOR 0xC7 DUP8 0xD5 EXTDELEGATECALL DUP5 CHAINID 0xDA SWAP7 0xBF 0xB2 REVERT LOG1 0x2D DUPN 0xD8 0xC5 STOP CALLVALUE 0xAA 0x25 SWAP6 PUSH6 0x575C834BC07E PUSH21 0xDCA784B4071676133AC78513B431AFB6EE7EDAE121 LOG2 PUSH5 0x6970667358 0x22 SLT KECCAK256 0xD RETURNDATACOPY PUSH12 0x2AB470B99F5E0ABBAA698C0D STOP SLT 0xDE RETURNDATACOPY DIV GASPRICE 0xBD DUP4 0xAB 0xAC 0xC1 CALLDATASIZE STOP TSTORE 0x27 JUMPI RETF PUSH5 0x736F6C6343 STOP ADDMOD 0x1E STOP CALLER "
		},
		"gasEstimates": {
			"creation": {
				"codeDepositCost": "3054200",
				"executionCost": "3363",
				"totalCost": "3057563"
			},
			"external": {
				"addMenuItemToRestaurant(uint128,string,string,uint128,string,string,uint128)": "infinite",
				"assignStaffMemberToRestaurant(address,uint128,uint8)": "infinite",
				"assignStaffToRestaurant(address,uint128,uint8)": "infinite",
				"cancelCustomerOrder(uint128)": "infinite",
				"completeStaffOrder(uint128)": "infinite",
				"deployMenuManager()": "infinite",
				"deployOrderManager()": "infinite",
				"deployRestaurantManager()": "infinite",
				"deployReviewManager()": "infinite",
				"factory()": "2888",
				"foodApp()": "2690",
				"getCustomerOrder(uint128)": "infinite",
				"getMenuItemFromRestaurant(uint128,uint128)": "infinite",
				"grantAppRole(address,uint8)": "32961",
				"grantRole(address,uint8)": "28651",
				"initialize(address,address)": "infinite",
				"menuManager()": "2580",
				"orderManager()": "3086",
				"owner()": "2803",
				"placeCustomerOrder(uint128,uint128[],uint128[])": "infinite",
				"rateExistingRestaurant(uint128,uint8,string)": "infinite",
				"registerNewRestaurant(address)": "infinite",
				"removeMenuItemFromRestaurant(uint128,uint128)": "infinite",
				"removeStaffFromRestaurant(address,uint128)": "infinite",
				"removeStaffMemberFromRestaurant(address,uint128)": "infinite",
				"renounceOwnership()": "infinite",
				"restaurantManager()": "2382",
				"reviewManager()": "2932",
				"revokeAppRole(address)": "infinite",
				"revokeRole(address)": "28698",
				"roles(address)": "3015",
				"staffAssignments(address,uint128)": "infinite",
				"transferOwnership(address)": "infinite",
				"updateMenuItemDetails(uint128,uint128,string,string,uint128,bool,string,string,uint128)": "infinite",
				"updateStaffOrderStatus(uint128,uint8)": "infinite"
			}
		},
		"methodIdentifiers": {
			"addMenuItemToRestaurant(uint128,string,string,uint128,string,string,uint128)": "a096b94b",
			"assignStaffMemberToRestaurant(address,uint128,uint8)": "f8505e7f",
			"assignStaffToRestaurant(address,uint128,uint8)": "addfa353",
			"cancelCustomerOrder(uint128)": "319ba603",
			"completeStaffOrder(uint128)": "3cd3741d",
			"deployMenuManager()": "1bb91f9f",
			"deployOrderManager()": "294ac1a7",
			"deployRestaurantManager()": "6c5f005c",
			"deployReviewManager()": "c7f9704d",
			"factory()": "c45a0155",
			"foodApp()": "6e92ae52",
			"getCustomerOrder(uint128)": "27c4a7a1",
			"getMenuItemFromRestaurant(uint128,uint128)": "e0ed2ece",
			"grantAppRole(address,uint8)": "ea38d06d",
			"grantRole(address,uint8)": "3e840236",
			"initialize(address,address)": "485cc955",
			"menuManager()": "5059e95b",
			"orderManager()": "f9b6117f",
			"owner()": "8da5cb5b",
			"placeCustomerOrder(uint128,uint128[],uint128[])": "e4766736",
			"rateExistingRestaurant(uint128,uint8,string)": "23a336f5",
			"registerNewRestaurant(address)": "287128c4",
			"removeMenuItemFromRestaurant(uint128,uint128)": "99eaeaba",
			"removeStaffFromRestaurant(address,uint128)": "009d2013",
			"removeStaffMemberFromRestaurant(address,uint128)": "bfc72e8b",
			"renounceOwnership()": "715018a6",
			"restaurantManager()": "2134b6f6",
			"reviewManager()": "c9b81583",
			"revokeAppRole(address)": "66fab191",
			"revokeRole(address)": "80e52e3f",
			"roles(address)": "99374642",
			"staffAssignments(address,uint128)": "ce4cf9cb",
			"transferOwnership(address)": "f2fde38b",
			"updateMenuItemDetails(uint128,uint128,string,string,uint128,bool,string,string,uint128)": "6e398f01",
			"updateStaffOrderStatus(uint128,uint8)": "520dd046"
		}
	},
	"abi": [
		{
			"inputs": [],
			"name": "FoodApp__ActionNotAllowedForRole",
			"type": "error"
		},
		{
			"inputs": [
				{
					"internalType": "string",
					"name": "managerType",
					"type": "string"
				}
			],
			"name": "FoodApp__DependencyNotDeployed",
			"type": "error"
		},
		{
			"inputs": [],
			"name": "FoodApp__InvalidFactoryAddress",
			"type": "error"
		},
		{
			"inputs": [],
			"name": "FoodApp__InvalidRestaurantId",
			"type": "error"
		},
		{
			"inputs": [
				{
					"internalType": "string",
					"name": "managerType",
					"type": "string"
				}
			],
			"name": "FoodApp__ManagerAlreadyDeployed",
			"type": "error"
		},
		{
			"inputs": [
				{
					"internalType": "string",
					"name": "managerType",
					"type": "string"
				}
			],
			"name": "FoodApp__ManagerNotSet",
			"type": "error"
		},
		{
			"inputs": [],
			"name": "FoodApp__NotAuthorized",
			"type": "error"
		},
		{
			"inputs": [],
			"name": "FoodApp__NotRestaurantStaff",
			"type": "error"
		},
		{
			"inputs": [],
			"name": "InvalidInitialization",
			"type": "error"
		},
		{
			"inputs": [],
			"name": "NotInitializing",
			"type": "error"
		},
		{
			"inputs": [
				{
					"internalType": "address",
					"name": "owner",
					"type": "address"
				}
			],
			"name": "OwnableInvalidOwner",
			"type": "error"
		},
		{
			"inputs": [
				{
					"internalType": "address",
					"name": "account",
					"type": "address"
				}
			],
			"name": "OwnableUnauthorizedAccount",
			"type": "error"
		},
		{
			"inputs": [
				{
					"internalType": "address",
					"name": "account",
					"type": "address"
				},
				{
					"internalType": "enum RoleAccess.Role",
					"name": "role",
					"type": "uint8"
				}
			],
			"name": "RoleAccess__AlreadyHasRole",
			"type": "error"
		},
		{
			"inputs": [],
			"name": "RoleAccess__InvalidRestaurantId",
			"type": "error"
		},
		{
			"inputs": [],
			"name": "RoleAccess__NotAdmin",
			"type": "error"
		},
		{
			"inputs": [
				{
					"internalType": "address",
					"name": "account",
					"type": "address"
				},
				{
					"internalType": "enum RoleAccess.Role",
					"name": "requiredRole",
					"type": "uint8"
				}
			],
			"name": "RoleAccess__NotSpecificRole",
			"type": "error"
		},
		{
			"inputs": [
				{
					"internalType": "address",
					"name": "staff",
					"type": "address"
				},
				{
					"internalType": "uint128",
					"name": "restaurantId",
					"type": "uint128"
				}
			],
			"name": "RoleAccess__NotStaffOfRestaurant",
			"type": "error"
		},
		{
			"anonymous": false,
			"inputs": [
				{
					"indexed": false,
					"internalType": "uint64",
					"name": "version",
					"type": "uint64"
				}
			],
			"name": "Initialized",
			"type": "event"
		},
		{
			"anonymous": false,
			"inputs": [
				{
					"indexed": false,
					"internalType": "string",
					"name": "managerType",
					"type": "string"
				},
				{
					"indexed": false,
					"internalType": "address",
					"name": "managerAddress",
					"type": "address"
				}
			],
			"name": "ManagerDeployed",
			"type": "event"
		},
		{
			"anonymous": false,
			"inputs": [
				{
					"indexed": true,
					"internalType": "address",
					"name": "previousOwner",
					"type": "address"
				},
				{
					"indexed": true,
					"internalType": "address",
					"name": "newOwner",
					"type": "address"
				}
			],
			"name": "OwnershipTransferred",
			"type": "event"
		},
		{
			"anonymous": false,
			"inputs": [
				{
					"indexed": true,
					"internalType": "uint128",
					"name": "restaurantId",
					"type": "uint128"
				},
				{
					"indexed": true,
					"internalType": "address",
					"name": "owner",
					"type": "address"
				}
			],
			"name": "RestaurantRegisteredInApp",
			"type": "event"
		},
		{
			"anonymous": false,
			"inputs": [
				{
					"indexed": true,
					"internalType": "address",
					"name": "account",
					"type": "address"
				},
				{
					"indexed": true,
					"internalType": "enum RoleAccess.Role",
					"name": "role",
					"type": "uint8"
				}
			],
			"name": "RoleGranted",
			"type": "event"
		},
		{
			"anonymous": false,
			"inputs": [
				{
					"indexed": true,
					"internalType": "address",
					"name": "account",
					"type": "address"
				},
				{
					"indexed": true,
					"internalType": "enum RoleAccess.Role",
					"name": "role",
					"type": "uint8"
				}
			],
			"name": "RoleGrantedInApp",
			"type": "event"
		},
		{
			"anonymous": false,
			"inputs": [
				{
					"indexed": true,
					"internalType": "address",
					"name": "account",
					"type": "address"
				},
				{
					"indexed": true,
					"internalType": "enum RoleAccess.Role",
					"name": "oldRole",
					"type": "uint8"
				}
			],
			"name": "RoleRevoked",
			"type": "event"
		},
		{
			"anonymous": false,
			"inputs": [
				{
					"indexed": true,
					"internalType": "address",
					"name": "staff",
					"type": "address"
				},
				{
					"indexed": true,
					"internalType": "uint128",
					"name": "restaurantId",
					"type": "uint128"
				},
				{
					"indexed": false,
					"internalType": "enum RoleAccess.Role",
					"name": "staffRole",
					"type": "uint8"
				}
			],
			"name": "StaffAssignedInApp",
			"type": "event"
		},
		{
			"anonymous": false,
			"inputs": [
				{
					"indexed": true,
					"internalType": "address",
					"name": "staff",
					"type": "address"
				},
				{
					"indexed": true,
					"internalType": "uint128",
					"name": "restaurantId",
					"type": "uint128"
				}
			],
			"name": "StaffAssignedToRestaurant",
			"type": "event"
		},
		{
			"anonymous": false,
			"inputs": [
				{
					"indexed": true,
					"internalType": "address",
					"name": "staff",
					"type": "address"
				},
				{
					"indexed": true,
					"internalType": "uint128",
					"name": "restaurantId",
					"type": "uint128"
				}
			],
			"name": "StaffRemovedFromRestaurant",
			"type": "event"
		},
		{
			"inputs": [
				{
					"internalType": "uint128",
					"name": "restaurantId",
					"type": "uint128"
				},
				{
					"internalType": "string",
					"name": "name",
					"type": "string"
				},
				{
					"internalType": "string",
					"name": "menuTitle",
					"type": "string"
				},
				{
					"internalType": "uint128",
					"name": "price",
					"type": "uint128"
				},
				{
					"internalType": "string",
					"name": "description",
					"type": "string"
				},
				{
					"internalType": "string",
					"name": "category",
					"type": "string"
				},
				{
					"internalType": "uint128",
					"name": "preparationTime",
					"type": "uint128"
				}
			],
			"name": "addMenuItemToRestaurant",
			"outputs": [],
			"stateMutability": "nonpayable",
			"type": "function"
		},
		{
			"inputs": [
				{
					"internalType": "address",
					"name": "staffAccount",
					"type": "address"
				},
				{
					"internalType": "uint128",
					"name": "restaurantId",
					"type": "uint128"
				},
				{
					"internalType": "enum RoleAccess.Role",
					"name": "staffRole",
					"type": "uint8"
				}
			],
			"name": "assignStaffMemberToRestaurant",
			"outputs": [],
			"stateMutability": "nonpayable",
			"type": "function"
		},
		{
			"inputs": [
				{
					"internalType": "address",
					"name": "staffAccount",
					"type": "address"
				},
				{
					"internalType": "uint128",
					"name": "restaurantId",
					"type": "uint128"
				},
				{
					"internalType": "enum RoleAccess.Role",
					"name": "staffRole",
					"type": "uint8"
				}
			],
			"name": "assignStaffToRestaurant",
			"outputs": [],
			"stateMutability": "nonpayable",
			"type": "function"
		},
		{
			"inputs": [
				{
					"internalType": "uint128",
					"name": "orderId",
					"type": "uint128"
				}
			],
			"name": "cancelCustomerOrder",
			"outputs": [],
			"stateMutability": "nonpayable",
			"type": "function"
		},
		{
			"inputs": [
				{
					"internalType": "uint128",
					"name": "orderId",
					"type": "uint128"
				}
			],
			"name": "completeStaffOrder",
			"outputs": [],
			"stateMutability": "nonpayable",
			"type": "function"
		},
		{
			"inputs": [],
			"name": "deployMenuManager",
			"outputs": [],
			"stateMutability": "nonpayable",
			"type": "function"
		},
		{
			"inputs": [],
			"name": "deployOrderManager",
			"outputs": [],
			"stateMutability": "nonpayable",
			"type": "function"
		},
		{
			"inputs": [],
			"name": "deployRestaurantManager",
			"outputs": [],
			"stateMutability": "nonpayable",
			"type": "function"
		},
		{
			"inputs": [],
			"name": "deployReviewManager",
			"outputs": [],
			"stateMutability": "nonpayable",
			"type": "function"
		},
		{
			"inputs": [],
			"name": "factory",
			"outputs": [
				{
					"internalType": "contract FoodAppFactory",
					"name": "",
					"type": "address"
				}
			],
			"stateMutability": "view",
			"type": "function"
		},
		{
			"inputs": [],
			"name": "foodApp",
			"outputs": [
				{
					"internalType": "address",
					"name": "",
					"type": "address"
				}
			],
			"stateMutability": "view",
			"type": "function"
		},
		{
			"inputs": [
				{
					"internalType": "uint128",
					"name": "orderId",
					"type": "uint128"
				}
			],
			"name": "getCustomerOrder",
			"outputs": [
				{
					"components": [
						{
							"internalType": "uint128",
							"name": "id",
							"type": "uint128"
						},
						{
							"internalType": "address",
							"name": "customer",
							"type": "address"
						},
						{
							"internalType": "uint128",
							"name": "restaurantId",
							"type": "uint128"
						},
						{
							"components": [
								{
									"internalType": "uint128",
									"name": "menuItemId",
									"type": "uint128"
								},
								{
									"internalType": "string",
									"name": "name",
									"type": "string"
								},
								{
									"internalType": "uint128",
									"name": "pricePerUnit",
									"type": "uint128"
								},
								{
									"internalType": "uint128",
									"name": "quantity",
									"type": "uint128"
								}
							],
							"internalType": "struct OrderItemDetail[]",
							"name": "itemsDetail",
							"type": "tuple[]"
						},
						{
							"internalType": "uint256",
							"name": "totalPrice",
							"type": "uint256"
						},
						{
							"internalType": "enum OrderStatus",
							"name": "status",
							"type": "uint8"
						},
						{
							"internalType": "uint128",
							"name": "timestamp",
							"type": "uint128"
						},
						{
							"internalType": "uint128",
							"name": "preparationTime",
							"type": "uint128"
						}
					],
					"internalType": "struct Order",
					"name": "",
					"type": "tuple"
				}
			],
			"stateMutability": "view",
			"type": "function"
		},
		{
			"inputs": [
				{
					"internalType": "uint128",
					"name": "restaurantId",
					"type": "uint128"
				},
				{
					"internalType": "uint128",
					"name": "menuId",
					"type": "uint128"
				}
			],
			"name": "getMenuItemFromRestaurant",
			"outputs": [
				{
					"components": [
						{
							"internalType": "uint128",
							"name": "id",
							"type": "uint128"
						},
						{
							"internalType": "uint128",
							"name": "restaurantId",
							"type": "uint128"
						},
						{
							"internalType": "string",
							"name": "name",
							"type": "string"
						},
						{
							"internalType": "string",
							"name": "menuTitle",
							"type": "string"
						},
						{
							"internalType": "uint128",
							"name": "price",
							"type": "uint128"
						},
						{
							"internalType": "bool",
							"name": "available",
							"type": "bool"
						},
						{
							"internalType": "string",
							"name": "description",
							"type": "string"
						},
						{
							"internalType": "string",
							"name": "category",
							"type": "string"
						},
						{
							"internalType": "uint128",
							"name": "totalRating",
							"type": "uint128"
						},
						{
							"internalType": "uint128",
							"name": "ratingCount",
							"type": "uint128"
						},
						{
							"internalType": "uint128",
							"name": "preparationTime",
							"type": "uint128"
						}
					],
					"internalType": "struct MenuItem",
					"name": "",
					"type": "tuple"
				}
			],
			"stateMutability": "view",
			"type": "function"
		},
		{
			"inputs": [
				{
					"internalType": "address",
					"name": "account",
					"type": "address"
				},
				{
					"internalType": "enum RoleAccess.Role",
					"name": "role",
					"type": "uint8"
				}
			],
			"name": "grantAppRole",
			"outputs": [],
			"stateMutability": "nonpayable",
			"type": "function"
		},
		{
			"inputs": [
				{
					"internalType": "address",
					"name": "account",
					"type": "address"
				},
				{
					"internalType": "enum RoleAccess.Role",
					"name": "role",
					"type": "uint8"
				}
			],
			"name": "grantRole",
			"outputs": [],
			"stateMutability": "nonpayable",
			"type": "function"
		},
		{
			"inputs": [
				{
					"internalType": "address",
					"name": "_appAdmin",
					"type": "address"
				},
				{
					"internalType": "address",
					"name": "_factoryAddress",
					"type": "address"
				}
			],
			"name": "initialize",
			"outputs": [],
			"stateMutability": "nonpayable",
			"type": "function"
		},
		{
			"inputs": [],
			"name": "menuManager",
			"outputs": [
				{
					"internalType": "address",
					"name": "",
					"type": "address"
				}
			],
			"stateMutability": "view",
			"type": "function"
		},
		{
			"inputs": [],
			"name": "orderManager",
			"outputs": [
				{
					"internalType": "address",
					"name": "",
					"type": "address"
				}
			],
			"stateMutability": "view",
			"type": "function"
		},
		{
			"inputs": [],
			"name": "owner",
			"outputs": [
				{
					"internalType": "address",
					"name": "",
					"type": "address"
				}
			],
			"stateMutability": "view",
			"type": "function"
		},
		{
			"inputs": [
				{
					"internalType": "uint128",
					"name": "restaurantId",
					"type": "uint128"
				},
				{
					"internalType": "uint128[]",
					"name": "itemIds",
					"type": "uint128[]"
				},
				{
					"internalType": "uint128[]",
					"name": "quantities",
					"type": "uint128[]"
				}
			],
			"name": "placeCustomerOrder",
			"outputs": [],
			"stateMutability": "payable",
			"type": "function"
		},
		{
			"inputs": [
				{
					"internalType": "uint128",
					"name": "restaurantId",
					"type": "uint128"
				},
				{
					"internalType": "uint8",
					"name": "rating",
					"type": "uint8"
				},
				{
					"internalType": "string",
					"name": "comment",
					"type": "string"
				}
			],
			"name": "rateExistingRestaurant",
			"outputs": [],
			"stateMutability": "nonpayable",
			"type": "function"
		},
		{
			"inputs": [
				{
					"internalType": "address",
					"name": "restaurantActualOwner",
					"type": "address"
				}
			],
			"name": "registerNewRestaurant",
			"outputs": [
				{
					"internalType": "uint128",
					"name": "",
					"type": "uint128"
				}
			],
			"stateMutability": "nonpayable",
			"type": "function"
		},
		{
			"inputs": [
				{
					"internalType": "uint128",
					"name": "restaurantId",
					"type": "uint128"
				},
				{
					"internalType": "uint128",
					"name": "menuId",
					"type": "uint128"
				}
			],
			"name": "removeMenuItemFromRestaurant",
			"outputs": [],
			"stateMutability": "nonpayable",
			"type": "function"
		},
		{
			"inputs": [
				{
					"internalType": "address",
					"name": "staffAccount",
					"type": "address"
				},
				{
					"internalType": "uint128",
					"name": "restaurantId",
					"type": "uint128"
				}
			],
			"name": "removeStaffFromRestaurant",
			"outputs": [],
			"stateMutability": "nonpayable",
			"type": "function"
		},
		{
			"inputs": [
				{
					"internalType": "address",
					"name": "staffAccount",
					"type": "address"
				},
				{
					"internalType": "uint128",
					"name": "restaurantId",
					"type": "uint128"
				}
			],
			"name": "removeStaffMemberFromRestaurant",
			"outputs": [],
			"stateMutability": "nonpayable",
			"type": "function"
		},
		{
			"inputs": [],
			"name": "renounceOwnership",
			"outputs": [],
			"stateMutability": "nonpayable",
			"type": "function"
		},
		{
			"inputs": [],
			"name": "restaurantManager",
			"outputs": [
				{
					"internalType": "address",
					"name": "",
					"type": "address"
				}
			],
			"stateMutability": "view",
			"type": "function"
		},
		{
			"inputs": [],
			"name": "reviewManager",
			"outputs": [
				{
					"internalType": "address",
					"name": "",
					"type": "address"
				}
			],
			"stateMutability": "view",
			"type": "function"
		},
		{
			"inputs": [
				{
					"internalType": "address",
					"name": "account",
					"type": "address"
				}
			],
			"name": "revokeAppRole",
			"outputs": [],
			"stateMutability": "nonpayable",
			"type": "function"
		},
		{
			"inputs": [
				{
					"internalType": "address",
					"name": "account",
					"type": "address"
				}
			],
			"name": "revokeRole",
			"outputs": [],
			"stateMutability": "nonpayable",
			"type": "function"
		},
		{
			"inputs": [
				{
					"internalType": "address",
					"name": "",
					"type": "address"
				}
			],
			"name": "roles",
			"outputs": [
				{
					"internalType": "enum RoleAccess.Role",
					"name": "",
					"type": "uint8"
				}
			],
			"stateMutability": "view",
			"type": "function"
		},
		{
			"inputs": [
				{
					"internalType": "address",
					"name": "",
					"type": "address"
				},
				{
					"internalType": "uint128",
					"name": "",
					"type": "uint128"
				}
			],
			"name": "staffAssignments",
			"outputs": [
				{
					"internalType": "bool",
					"name": "",
					"type": "bool"
				}
			],
			"stateMutability": "view",
			"type": "function"
		},
		{
			"inputs": [
				{
					"internalType": "address",
					"name": "newOwner",
					"type": "address"
				}
			],
			"name": "transferOwnership",
			"outputs": [],
			"stateMutability": "nonpayable",
			"type": "function"
		},
		{
			"inputs": [
				{
					"internalType": "uint128",
					"name": "restaurantId",
					"type": "uint128"
				},
				{
					"internalType": "uint128",
					"name": "menuId",
					"type": "uint128"
				},
				{
					"internalType": "string",
					"name": "name",
					"type": "string"
				},
				{
					"internalType": "string",
					"name": "menuTitle",
					"type": "string"
				},
				{
					"internalType": "uint128",
					"name": "price",
					"type": "uint128"
				},
				{
					"internalType": "bool",
					"name": "available",
					"type": "bool"
				},
				{
					"internalType": "string",
					"name": "description",
					"type": "string"
				},
				{
					"internalType": "string",
					"name": "category",
					"type": "string"
				},
				{
					"internalType": "uint128",
					"name": "preparationTime",
					"type": "uint128"
				}
			],
			"name": "updateMenuItemDetails",
			"outputs": [],
			"stateMutability": "nonpayable",
			"type": "function"
		},
		{
			"inputs": [
				{
					"internalType": "uint128",
					"name": "orderId",
					"type": "uint128"
				},
				{
					"internalType": "enum OrderStatus",
					"name": "newStatus",
					"type": "uint8"
				}
			],
			"name": "updateStaffOrderStatus",
			"outputs": [],
			"stateMutability": "nonpayable",
			"type": "function"
		}
	]
}