{
	"data": {
		"bytecode": {
			"linkReferences": {},
			"object": "6080604052348015600e575f5ffd5b50615c508061001c5f395ff3fe608060405260043610610274575f3560e01c80636df370981161014a578063bfc72e8b116100be578063e476673611610078578063e476673614610832578063e77036d614610845578063ea38d06d14610859578063ee2be2a814610878578063f2fde38b14610897578063f9b6117f146108b6575f5ffd5b8063bfc72e8b1461074c578063c45a01551461076b578063c7f9704d1461078a578063c9b815831461079e578063ce4cf9cb146107bd578063e0ed2ece14610806575f5ffd5b806398e8d8021161010f57806398e8d8021461068157806399374642146106a05780639c8d9b82146106db578063a7903f52146106ef578063addfa3531461070e578063b95883271461072d575f5ffd5b80636df37098146105a7578063715018a6146105e657806378e025f9146105fa5780638da5cb5b146106195780638e5332c814610655575f5ffd5b806336d004a8116101ec578063515f72ce116101a6578063515f72ce146104dd578063520dd046146104fc5780635464462b1461051b57806366fab191146105475780636bf299d9146105665780636c5f005c14610593575f5ffd5b806336d004a8146104095780633cd3741d146104355780633f6c73471461045457806341f02d7b14610480578063485cc9551461049f5780635059e95b146104be575f5ffd5b8063257fbda51161023d578063257fbda51461032757806327c4a7a114610354578063287128c414610380578063294ac1a7146103b757806329757982146103cb578063319ba603146103ea575f5ffd5b80629d2013146102785780630327c705146102995780630e7d52e5146102b85780631bb91f9f146102d75780632134b6f6146102eb575b5f5ffd5b348015610283575f5ffd5b50610297610292366004613edc565b6108d5565b005b3480156102a4575f5ffd5b506102976102b336600461405f565b6109ca565b3480156102c3575f5ffd5b506102976102d236600461417c565b610c72565b3480156102e2575f5ffd5b50610297610ea0565b3480156102f6575f5ffd5b5060365461030a906001600160a01b031681565b6040516001600160a01b0390911681526020015b60405180910390f35b348015610332575f5ffd5b506103466103413660046141ec565b610f84565b60405190815260200161031e565b34801561035f575f5ffd5b5061037361036e36600461420e565b61106a565b60405161031e91906143fc565b34801561038b575f5ffd5b5061039f61039a3660046141ec565b6111da565b6040516001600160801b03909116815260200161031e565b3480156103c2575f5ffd5b50610297611301565b3480156103d6575f5ffd5b50603a5461030a906001600160a01b031681565b3480156103f5575f5ffd5b5061029761040436600461420e565b611498565b348015610414575f5ffd5b5061042861042336600461420e565b6115e2565b60405161031e9190614543565b348015610440575f5ffd5b5061029761044f36600461420e565b611729565b34801561045f575f5ffd5b5061047361046e3660046141ec565b61187b565b60405161031e91906145a6565b34801561048b575f5ffd5b5061029761049a3660046146a5565b611915565b3480156104aa575f5ffd5b506102976104b9366004614837565b611bac565b3480156104c9575f5ffd5b5060375461030a906001600160a01b031681565b3480156104e8575f5ffd5b506102976104f7366004614863565b611cf7565b348015610507575f5ffd5b506102976105163660046148cc565b611ecb565b348015610526575f5ffd5b5061053a61053536600461420e565b612013565b60405161031e919061493b565b348015610552575f5ffd5b506102976105613660046141ec565b61215a565b348015610571575f5ffd5b5061058561058036600461494d565b6121ab565b60405161031e92919061497f565b34801561059e575f5ffd5b506102976122a7565b3480156105b2575f5ffd5b506105c66105c136600461420e565b612381565b604080516001600160801b0393841681529290911660208301520161031e565b3480156105f1575f5ffd5b5061029761242a565b348015610605575f5ffd5b506105856106143660046149ea565b61243d565b348015610624575f5ffd5b507f9016d09d72d40fdae2fd8ceac6b6234c7706214fd39c1cd1e609a0528c199300546001600160a01b031661030a565b348015610660575f5ffd5b5061067461066f36600461420e565b612595565b60405161031e9190614a0a565b34801561068c575f5ffd5b506105c661069b3660046141ec565b612636565b3480156106ab575f5ffd5b506106ce6106ba3660046141ec565b60326020525f908152604090205460ff1681565b60405161031e9190614af1565b3480156106e6575f5ffd5b50610346612695565b3480156106fa575f5ffd5b50610297610709366004614aff565b6127d4565b348015610719575f5ffd5b50610297610728366004614b2b565b612bb3565b348015610738575f5ffd5b5061030a61074736600461420e565b612e7f565b348015610757575f5ffd5b50610297610766366004613edc565b612f1d565b348015610776575f5ffd5b5060355461030a906001600160a01b031681565b348015610795575f5ffd5b50610297613028565b3480156107a9575f5ffd5b5060395461030a906001600160a01b031681565b3480156107c8575f5ffd5b506107f66107d7366004613edc565b603360209081525f928352604080842090915290825290205460ff1681565b604051901515815260200161031e565b348015610811575f5ffd5b50610825610820366004614b6f565b613154565b60405161031e9190614b8b565b610297610840366004614c2d565b613265565b348015610850575f5ffd5b50610297613663565b348015610864575f5ffd5b50610297610873366004614c97565b613766565b348015610883575f5ffd5b50610297610892366004614d07565b613801565b3480156108a2575f5ffd5b506102976108b13660046141ec565b613ab7565b3480156108c1575f5ffd5b5060385461030a906001600160a01b031681565b6034546001600160a01b0316331461090057604051631a31054160e11b815260040160405180910390fd5b6001600160a01b0382165f9081526033602090815260408083206001600160801b038516845290915290205460ff1661096b576040516358cce33760e01b81526001600160a01b03831660048201526001600160801b03821660248201526044015b60405180910390fd5b6001600160a01b0382165f8181526033602090815260408083206001600160801b0386168085529252808320805460ff19169055519092917f2091a7a9f4bd1d3537c45c3143a470b7c349709a4b0b9e9b2a8f3e37c9de0e2591a35050565b876001335f9081526032602052604090205460ff1660048111156109f0576109f06142fc565b14610b2d576036546001600160a01b031615801590610a7d575060365460405163b2a6cb6360e01b81526001600160801b03831660048201526001600160a01b039091169063b2a6cb6390602401602060405180830381865afa158015610a59573d5f5f3e3d5ffd5b505050506040513d601f19601f82011682018060405250810190610a7d9190614e0f565b8015610b02575060365460405163b958832760e01b81526001600160801b038316600482015233916001600160a01b03169063b958832790602401602060405180830381865afa158015610ad3573d5f5f3e3d5ffd5b505050506040513d601f19601f82011682018060405250810190610af79190614e35565b6001600160a01b0316145b610b2d57610b103382613af1565b610b2d576040516306361f0560e01b815260040160405180910390fd5b6037546001600160a01b0316610b565760405163729a9dfb60e01b815260040161096290614e50565b6036546001600160a01b03161580610bde575060365460405163b2a6cb6360e01b81526001600160801b038b1660048201526001600160a01b039091169063b2a6cb6390602401602060405180830381865afa158015610bb8573d5f5f3e3d5ffd5b505050506040513d601f19601f82011682018060405250810190610bdc9190614e0f565b155b15610bfc5760405163125a05ed60e21b815260040160405180910390fd5b60375460405163d5d2768b60e01b81526001600160a01b039091169063d5d2768b90610c3a908c908c908c908c908c908c908c908c90600401614e7a565b5f604051808303815f87803b158015610c51575f5ffd5b505af1158015610c63573d5f5f3e3d5ffd5b50505050505050505050505050565b6002335f9081526032602052604090205460ff166004811115610c9757610c976142fc565b14158015610cc857506001335f9081526032602052604090205460ff166004811115610cc557610cc56142fc565b14155b8015610cf55750335f9081526032602052604081205460ff166004811115610cf257610cf26142fc565b14155b15610d18573360026040516345c1994960e11b8152600401610962929190614f19565b6039546001600160a01b0316610d415760405163729a9dfb60e01b815260040161096290614f36565b6036546001600160a01b03161580610dc9575060365460405163b2a6cb6360e01b81526001600160801b03851660048201526001600160a01b039091169063b2a6cb6390602401602060405180830381865afa158015610da3573d5f5f3e3d5ffd5b505050506040513d601f19601f82011682018060405250810190610dc79190614e0f565b155b15610de75760405163125a05ed60e21b815260040160405180910390fd5b6001600160a01b038416610e0e576040516306361f0560e01b815260040160405180910390fd5b610e188484613af1565b610e3557604051630931954760e01b815260040160405180910390fd5b603954604051633e5c9c2f60e11b81526001600160a01b0390911690637cb9385e90610e6d9033908890889088908890600401614f62565b5f604051808303815f87803b158015610e84575f5ffd5b505af1158015610e96573d5f5f3e3d5ffd5b5050505050505050565b610ea8613bb1565b6037546001600160a01b031615610ed257604051638bf2c4a560e01b815260040161096290614e50565b6035546040516354288fad60e11b81526001600160a01b039091169063a8511f5a90610f0090600401614e50565b6020604051808303815f875af1158015610f1c573d5f5f3e3d5ffd5b505050506040513d601f19601f82011682018060405250810190610f409190614e35565b603780546001600160a01b0319166001600160a01b039290921691821790556040515f516020615bdb5f395f51905f5291610f7a91614fb0565b60405180910390a1565b5f6001335f9081526032602052604090205460ff166004811115610faa57610faa6142fc565b14610fcd573360016040516345c1994960e11b8152600401610962929190614f19565b6038546001600160a01b0316610ff65760405163729a9dfb60e01b815260040161096290614ff4565b60385460405163399c62d560e11b81526001600160a01b03848116600483015290911690637338c5aa90602401602060405180830381865afa15801561103e573d5f5f3e3d5ffd5b505050506040513d601f19601f82011682018060405250810190611062919061501f565b90505b919050565b60408051610120810182525f808252602082018190529181018290526060808201526080810182905260a0810182905260c0810182905260e081018290526101008101919091526038546001600160a01b03166110da5760405163729a9dfb60e01b815260040161096290614ff4565b60385460405163022fa82560e31b81526001600160801b03841660048201525f916001600160a01b03169063117d4128906024015f60405180830381865afa158015611128573d5f5f3e3d5ffd5b505050506040513d5f823e601f3d908101601f1916820160405261114f9190810190615255565b60208101519091506001600160a01b031633145f6001335f9081526032602052604090205460ff166004811115611188576111886142fc565b1490505f61119a338560400151613af1565b9050821580156111a8575081155b80156111b2575080155b156111d0576040516306361f0560e01b815260040160405180910390fd5b5091949350505050565b5f6001335f9081526032602052604090205460ff166004811115611200576112006142fc565b14611223573360016040516345c1994960e11b8152600401610962929190614f19565b6036546001600160a01b031661124c5760405163729a9dfb60e01b815260040161096290615286565b603654604051630bc5dd5360e41b81526001600160a01b0384811660048301525f92169063bc5dd530906024016020604051808303815f875af1158015611295573d5f5f3e3d5ffd5b505050506040513d601f19601f820116820180604052508101906112b991906152b6565b9050826001600160a01b0316816001600160801b03167f4f1538341a9d6974853fc26bd053e8a59e7b5c8676ec6ff1fd68a8908fc73b4d60405160405180910390a392915050565b611309613bb1565b6038546001600160a01b03161561133357604051638bf2c4a560e01b815260040161096290614ff4565b6037546001600160a01b031661138c57604051637271502f60e11b815260206004820152601c60248201527f4d656e754d616e6167657220666f72204f726465724d616e61676572000000006044820152606401610962565b6036546001600160a01b03166113f057604051637271502f60e11b815260206004820152602260248201527f52657374617572616e744d616e6167657220666f72204f726465724d616e616760448201526132b960f11b6064820152608401610962565b6035546040516354288fad60e11b81526001600160a01b039091169063a8511f5a9061141e90600401614ff4565b6020604051808303815f875af115801561143a573d5f5f3e3d5ffd5b505050506040513d601f19601f8201168201806040525081019061145e9190614e35565b603880546001600160a01b0319166001600160a01b039290921691821790556040515f516020615bdb5f395f51905f5291610f7a916152d1565b6002335f9081526032602052604090205460ff1660048111156114bd576114bd6142fc565b141580156114ee57506001335f9081526032602052604090205460ff1660048111156114eb576114eb6142fc565b14155b801561151b5750335f9081526032602052604081205460ff166004811115611518576115186142fc565b14155b1561153e573360026040516345c1994960e11b8152600401610962929190614f19565b611546613c0c565b6038546001600160a01b031661156f5760405163729a9dfb60e01b815260040161096290614ff4565b603854604051630da12bfb60e11b81523360048201526001600160801b03831660248201526001600160a01b0390911690631b4257f6906044015f604051808303815f87803b1580156115c0575f5ffd5b505af11580156115d2573d5f5f3e3d5ffd5b505050506115df60015f55565b50565b6037546060906001600160a01b031661160e5760405163729a9dfb60e01b815260040161096290614e50565b6036546001600160a01b03161580611696575060365460405163b2a6cb6360e01b81526001600160801b03841660048201526001600160a01b039091169063b2a6cb6390602401602060405180830381865afa158015611670573d5f5f3e3d5ffd5b505050506040513d601f19601f820116820180604052508101906116949190614e0f565b155b156116b45760405163125a05ed60e21b815260040160405180910390fd5b6037546040516330ee6eed60e11b81526001600160801b03841660048201526001600160a01b03909116906361dcddda906024015f60405180830381865afa158015611702573d5f5f3e3d5ffd5b505050506040513d5f823e601f3d908101601f191682016040526110629190810190615468565b611731613c0c565b6038546001600160a01b031661175a5760405163729a9dfb60e01b815260040161096290614ff4565b60385460405163022fa82560e31b81526001600160801b03831660048201525f916001600160a01b03169063117d4128906024015f60405180830381865afa1580156117a8573d5f5f3e3d5ffd5b505050506040513d5f823e601f3d908101601f191682016040526117cf9190810190615255565b90506117df338260400151613af1565b6117fc57604051630931954760e01b815260040160405180910390fd5b6038546040828101519051636798fda360e11b81523360048201526001600160801b03808616602483015290911660448201526001600160a01b039091169063cf31fb46906064015f604051808303815f87803b15801561185b575f5ffd5b505af115801561186d573d5f5f3e3d5ffd5b50505050506115df60015f55565b6039546060906001600160a01b03166118a75760405163729a9dfb60e01b815260040161096290614f36565b603954604051633f6c734760e01b81526001600160a01b03848116600483015290911690633f6c7347906024015f60405180830381865afa1580156118ee573d5f5f3e3d5ffd5b505050506040513d5f823e601f3d908101601f191682016040526110629190810190615522565b80516001335f9081526032602052604090205460ff16600481111561193c5761193c6142fc565b14611a79576036546001600160a01b0316158015906119c9575060365460405163b2a6cb6360e01b81526001600160801b03831660048201526001600160a01b039091169063b2a6cb6390602401602060405180830381865afa1580156119a5573d5f5f3e3d5ffd5b505050506040513d601f19601f820116820180604052508101906119c99190614e0f565b8015611a4e575060365460405163b958832760e01b81526001600160801b038316600482015233916001600160a01b03169063b958832790602401602060405180830381865afa158015611a1f573d5f5f3e3d5ffd5b505050506040513d601f19601f82011682018060405250810190611a439190614e35565b6001600160a01b0316145b611a7957611a5c3382613af1565b611a79576040516306361f0560e01b815260040160405180910390fd5b6037546001600160a01b0316611aa25760405163729a9dfb60e01b815260040161096290614e50565b6036546001600160a01b03161580611b2d5750603654825160405163b2a6cb6360e01b81526001600160801b0390911660048201526001600160a01b039091169063b2a6cb6390602401602060405180830381865afa158015611b07573d5f5f3e3d5ffd5b505050506040513d601f19601f82011682018060405250810190611b2b9190614e0f565b155b15611b4b5760405163125a05ed60e21b815260040160405180910390fd5b6037546040516325147e4f60e01b81526001600160a01b03909116906325147e4f90611b7b908590600401614b8b565b5f604051808303815f87803b158015611b92575f5ffd5b505af1158015611ba4573d5f5f3e3d5ffd5b505050505050565b5f611bb5613c69565b805490915060ff600160401b82041615906001600160401b03165f81158015611bdb5750825b90505f826001600160401b03166001148015611bf65750303b155b905081158015611c04575080155b15611c225760405163f92ee8a960e01b815260040160405180910390fd5b845467ffffffffffffffff191660011785558315611c4c57845460ff60401b1916600160401b1785555b611c5587613c91565b611c5d613ca2565b611c6687613cb2565b6001600160a01b038616611c8d57604051630bdd68c160e11b815260040160405180910390fd5b603580546001600160a01b0319166001600160a01b0388161790558315611cee57845460ff60401b19168555604051600181527fc7f505b2f371ae2175ee4913f4499e1f2633a7b5936321eed1cdaeb6115181d29060200160405180910390a15b50505050505050565b6002335f9081526032602052604090205460ff166004811115611d1c57611d1c6142fc565b14158015611d4d57506001335f9081526032602052604090205460ff166004811115611d4a57611d4a6142fc565b14155b8015611d7a5750335f9081526032602052604081205460ff166004811115611d7757611d776142fc565b14155b15611d9d573360026040516345c1994960e11b8152600401610962929190614f19565b6039546001600160a01b0316611dc65760405163729a9dfb60e01b815260040161096290614f36565b6036546001600160a01b03161580611e4e575060365460405163b2a6cb6360e01b81526001600160801b03851660048201526001600160a01b039091169063b2a6cb6390602401602060405180830381865afa158015611e28573d5f5f3e3d5ffd5b505050506040513d601f19601f82011682018060405250810190611e4c9190614e0f565b155b15611e6c5760405163125a05ed60e21b815260040160405180910390fd5b60395460405163df808ac560e01b81526001600160a01b039091169063df808ac590611ea2903390879087908790600401615664565b5f604051808303815f87803b158015611eb9575f5ffd5b505af1158015611cee573d5f5f3e3d5ffd5b611ed3613c0c565b6038546001600160a01b0316611efc5760405163729a9dfb60e01b815260040161096290614ff4565b60385460405163022fa82560e31b81526001600160801b03841660048201525f916001600160a01b03169063117d4128906024015f60405180830381865afa158015611f4a573d5f5f3e3d5ffd5b505050506040513d5f823e601f3d908101601f19168201604052611f719190810190615255565b9050611f81338260400151613af1565b611f9e57604051630931954760e01b815260040160405180910390fd5b60385460408083015190516319c8ccef60e01b81526001600160a01b03909216916319c8ccef91611fd891339188918891906004016156a9565b5f604051808303815f87803b158015611fef575f5ffd5b505af1158015612001573d5f5f3e3d5ffd5b505050505061200f60015f55565b5050565b6037546060906001600160a01b031661203f5760405163729a9dfb60e01b815260040161096290614e50565b6036546001600160a01b031615806120c7575060365460405163b2a6cb6360e01b81526001600160801b03841660048201526001600160a01b039091169063b2a6cb6390602401602060405180830381865afa1580156120a1573d5f5f3e3d5ffd5b505050506040513d601f19601f820116820180604052508101906120c59190614e0f565b155b156120e55760405163125a05ed60e21b815260040160405180910390fd5b603754604051636b88cde560e01b81526001600160801b03841660048201526001600160a01b0390911690636b88cde5906024015f60405180830381865afa158015612133573d5f5f3e3d5ffd5b505050506040513d5f823e601f3d908101601f1916820160405261106291908101906156ed565b6001335f9081526032602052604090205460ff16600481111561217f5761217f6142fc565b146121a2573360016040516345c1994960e11b8152600401610962929190614f19565b6115df81613d04565b60605f6001335f9081526032602052604090205460ff1660048111156121d3576121d36142fc565b146121f6573360016040516345c1994960e11b8152600401610962929190614f19565b6038546001600160a01b031661221f5760405163729a9dfb60e01b815260040161096290614ff4565b603854604051632fae209560e01b81526001600160a01b038781166004830152602482018790526044820186905290911690632fae2095906064015f60405180830381865afa158015612274573d5f5f3e3d5ffd5b505050506040513d5f823e601f3d908101601f1916820160405261229b919081019061577c565b91509150935093915050565b6122af613bb1565b6036546001600160a01b0316156122d957604051638bf2c4a560e01b815260040161096290615286565b6035546040516354288fad60e11b81526001600160a01b039091169063a8511f5a9061230790600401615286565b6020604051808303815f875af1158015612323573d5f5f3e3d5ffd5b505050506040513d601f19601f820116820180604052508101906123479190614e35565b603680546001600160a01b0319166001600160a01b039290921691821790556040515f516020615bdb5f395f51905f5291610f7a91615835565b6039545f9081906001600160a01b03166123ae5760405163729a9dfb60e01b815260040161096290614f36565b603954604051630dbe6e1360e31b81526001600160801b03851660048201526001600160a01b0390911690636df37098906024015b6040805180830381865afa1580156123fd573d5f5f3e3d5ffd5b505050506040513d601f19601f820116820180604052508101906124219190615865565b91509150915091565b612432613bb1565b61243b5f613d71565b565b60605f6002335f9081526032602052604090205460ff166004811115612465576124656142fc565b1415801561249657506001335f9081526032602052604090205460ff166004811115612493576124936142fc565b14155b80156124c35750335f9081526032602052604081205460ff1660048111156124c0576124c06142fc565b14155b156124e6573360026040516345c1994960e11b8152600401610962929190614f19565b6038546001600160a01b031661250f5760405163729a9dfb60e01b815260040161096290614ff4565b603854604051632fae209560e01b815233600482015260248101869052604481018590526001600160a01b0390911690632fae2095906064015f60405180830381865afa158015612562573d5f5f3e3d5ffd5b505050506040513d5f823e601f3d908101601f19168201604052612589919081019061577c565b915091505b9250929050565b6039546060906001600160a01b03166125c15760405163729a9dfb60e01b815260040161096290614f36565b6039546040516311ca665960e31b81526001600160801b03841660048201526001600160a01b0390911690638e5332c8906024015f60405180830381865afa15801561260f573d5f5f3e3d5ffd5b505050506040513d5f823e601f3d908101601f191682016040526110629190810190615892565b6039545f9081906001600160a01b03166126635760405163729a9dfb60e01b815260040161096290614f36565b603954604051634c746c0160e11b81526001600160a01b038581166004830152909116906398e8d802906024016123e3565b5f6002335f9081526032602052604090205460ff1660048111156126bb576126bb6142fc565b141580156126ec57506001335f9081526032602052604090205460ff1660048111156126e9576126e96142fc565b14155b80156127195750335f9081526032602052604081205460ff166004811115612716576127166142fc565b14155b1561273c573360026040516345c1994960e11b8152600401610962929190614f19565b6038546001600160a01b03166127655760405163729a9dfb60e01b815260040161096290614ff4565b60385460405163399c62d560e11b81523360048201526001600160a01b0390911690637338c5aa90602401602060405180830381865afa1580156127ab573d5f5f3e3d5ffd5b505050506040513d601f19601f820116820180604052508101906127cf919061501f565b905090565b6002335f9081526032602052604090205460ff1660048111156127f9576127f96142fc565b1415801561282a57506001335f9081526032602052604090205460ff166004811115612827576128276142fc565b14155b80156128575750335f9081526032602052604081205460ff166004811115612854576128546142fc565b14155b1561287a573360026040516345c1994960e11b8152600401610962929190614f19565b6039546001600160a01b03166128a35760405163729a9dfb60e01b815260040161096290614f36565b6036546001600160a01b03166128cc5760405163729a9dfb60e01b815260040161096290615286565b60365460405163b2a6cb6360e01b81526001600160801b03861660048201526001600160a01b039091169063b2a6cb6390602401602060405180830381865afa15801561291b573d5f5f3e3d5ffd5b505050506040513d601f19601f8201168201806040525081019061293f9190614e0f565b61295c5760405163125a05ed60e21b815260040160405180910390fd5b6037546001600160a01b03166129855760405163729a9dfb60e01b815260040161096290614e50565b60375460405163018a512d60e31b81526001600160801b038087166004830152851660248201525f916001600160a01b031690630c528968906044015f60405180830381865afa1580156129db573d5f5f3e3d5ffd5b505050506040513d5f823e601f3d908101601f19168201604052612a0291908101906159d4565b80519091506001600160801b03165f03612a4257604051630e187dc960e41b81526001600160801b03808716600483015285166024820152604401610962565b6039546040516373429ec560e11b81525f9182916001600160a01b039091169063e6853d8a90612a7e9033908b908b908b908b90600401615a05565b60408051808303815f875af1158015612a99573d5f5f3e3d5ffd5b505050506040513d601f19601f82011682018060405250810190612abd9190615865565b60408051610180810182526001600160801b03808c1682528a811660208301528783015182840152606080890151908301526080808901519083015260a08089015182169083015260c08089015115159083015260e0808901519083015261010080890151908301526101608089015182166101208401528186166101408401529084169082015260375491516325147e4f60e01b815293955091935090916001600160a01b03909116906325147e4f90612b7c908490600401614b8b565b5f604051808303815f87803b158015612b93575f5ffd5b505af1158015612ba5573d5f5f3e3d5ffd5b505050505050505050505050565b6034546001600160a01b03163314612bde57604051631a31054160e11b815260040160405180910390fd5b6003816004811115612bf257612bf26142fc565b14158015612c1257506004816004811115612c0f57612c0f6142fc565b14155b15612c345782816040516345c1994960e11b8152600401610962929190614f19565b816001600160801b03165f03612c5d576040516334abfc6760e21b815260040160405180910390fd5b6001600160a01b0383165f9081526032602052604081205460ff166004811115612c8957612c896142fc565b1480612cf8575060036001600160a01b0384165f9081526032602052604090205460ff166004811115612cbe57612cbe6142fc565b14158015612cf8575060046001600160a01b0384165f9081526032602052604090205460ff166004811115612cf557612cf56142fc565b14155b15612d6d576001600160a01b0383165f908152603260205260409020805482919060ff19166001836004811115612d3157612d316142fc565b0217905550806004811115612d4857612d486142fc565b6040516001600160a01b038516905f516020615bfb5f395f51905f52905f90a3612e1c565b806004811115612d7f57612d7f6142fc565b6001600160a01b0384165f9081526032602052604090205460ff166004811115612dab57612dab6142fc565b14612e1c576001600160a01b0383165f908152603260205260409020805482919060ff19166001836004811115612de457612de46142fc565b0217905550806004811115612dfb57612dfb6142fc565b6040516001600160a01b038516905f516020615bfb5f395f51905f52905f90a35b6001600160a01b0383165f8181526033602090815260408083206001600160801b0387168085529252808320805460ff19166001179055519092917fa7a040419689ac3001a2b7e46b4cc55aa49833559239a3d51e72e097cd28a98f91a3505050565b6036545f906001600160a01b0316612eaa5760405163729a9dfb60e01b815260040161096290615286565b60365460405163b958832760e01b81526001600160801b03841660048201526001600160a01b039091169063b958832790602401602060405180830381865afa158015612ef9573d5f5f3e3d5ffd5b505050506040513d601f19601f820116820180604052508101906110629190614e35565b6001335f9081526032602052604090205460ff166004811115612f4257612f426142fc565b14612f65573360016040516345c1994960e11b8152600401610962929190614f19565b6036546001600160a01b0316612f8e5760405163729a9dfb60e01b815260040161096290615286565b60365460405163b2a6cb6360e01b81526001600160801b03831660048201526001600160a01b039091169063b2a6cb6390602401602060405180830381865afa158015612fdd573d5f5f3e3d5ffd5b505050506040513d601f19601f820116820180604052508101906130019190614e0f565b61301e5760405163125a05ed60e21b815260040160405180910390fd5b61200f82826108d5565b613030613bb1565b6039546001600160a01b03161561305a57604051638bf2c4a560e01b815260040161096290614f36565b6036546001600160a01b031661308357604051637271502f60e11b815260040161096290615286565b6037546001600160a01b03166130ac57604051637271502f60e11b815260040161096290614e50565b6035546040516354288fad60e11b81526001600160a01b039091169063a8511f5a906130da90600401614f36565b6020604051808303815f875af11580156130f6573d5f5f3e3d5ffd5b505050506040513d601f19601f8201168201806040525081019061311a9190614e35565b603980546001600160a01b0319166001600160a01b039290921691821790556040515f516020615bdb5f395f51905f5291610f7a91615a48565b60408051610180810182525f8082526020820181905260609282018390528282018390526080820183905260a0820181905260c0820181905260e08201839052610100820192909252610120810182905261014081018290526101608101919091526037546001600160a01b03166131df5760405163729a9dfb60e01b815260040161096290614e50565b60375460405163018a512d60e31b81526001600160801b038086166004830152841660248201526001600160a01b0390911690630c528968906044015f60405180830381865afa158015613235573d5f5f3e3d5ffd5b505050506040513d5f823e601f3d908101601f1916820160405261325c91908101906159d4565b90505b92915050565b5f6001335f9081526032602052604090205460ff16600481111561328b5761328b6142fc565b1490505f6002335f9081526032602052604090205460ff1660048111156132b4576132b46142fc565b149050811580156132c3575080155b1561334557335f9081526032602052604081205460ff1660048111156132eb576132eb6142fc565b0361332c576132fb336002613de1565b600260405133907f5926935de1a61db7d72b9866401a45c62948e03020ac97cc0ae07a7b19f421ed905f90a3613345565b6040516331f73e8560e01b815260040160405180910390fd5b61334d613c0c565b6038546001600160a01b03166133765760405163729a9dfb60e01b815260040161096290614ff4565b6037546001600160a01b031661339f5760405163729a9dfb60e01b815260040161096290614e50565b6036546001600160a01b03161580613427575060365460405163b2a6cb6360e01b81526001600160801b03871660048201526001600160a01b039091169063b2a6cb6390602401602060405180830381865afa158015613401573d5f5f3e3d5ffd5b505050506040513d601f19601f820116820180604052508101906134259190614e0f565b155b156134455760405163125a05ed60e21b815260040160405180910390fd5b5f5b84518110156135ec5760375485515f916001600160a01b031690630c52896890899089908690811061347b5761347b615a74565b60200260200101516040518363ffffffff1660e01b81526004016134b59291906001600160801b0392831681529116602082015260400190565b5f60405180830381865afa1580156134cf573d5f5f3e3d5ffd5b505050506040513d5f823e601f3d908101601f191682016040526134f691908101906159d4565b80519091506001600160801b03165f03613555578686838151811061351d5761351d615a74565b6020026020010151604051630e187dc960e41b81526004016109629291906001600160801b0392831681529116602082015260400190565b8060c001516135a15785828151811061357057613570615a74565b60200260200101516040516313f6408160e21b815260040161096291906001600160801b0391909116815260200190565b8482815181106135b3576135b3615a74565b60200260200101516001600160801b03165f036135e35760405163344343d160e01b815260040160405180910390fd5b50600101613447565b5060385460405163c60c14d960e01b81526001600160a01b039091169063c60c14d99034906136259033908a908a908a90600401615a88565b5f604051808303818588803b15801561363c575f5ffd5b505af115801561364e573d5f5f3e3d5ffd5b505050505061365c60015f55565b5050505050565b61366b613bb1565b603a546001600160a01b03161561369557604051638bf2c4a560e01b815260040161096290615acc565b6035546001600160a01b03166136be57604051630bdd68c160e11b815260040160405180910390fd5b6035546040516354288fad60e11b81526001600160a01b039091169063a8511f5a906136ec90600401615acc565b6020604051808303815f875af1158015613708573d5f5f3e3d5ffd5b505050506040513d601f19601f8201168201806040525081019061372c9190614e35565b603a80546001600160a01b0319166001600160a01b039290921691821790556040515f516020615bdb5f395f51905f5291610f7a91615afd565b6001335f9081526032602052604090205460ff16600481111561378b5761378b6142fc565b146137ae573360016040516345c1994960e11b8152600401610962929190614f19565b6137b88282613de1565b8060048111156137ca576137ca6142fc565b6040516001600160a01b038416907f5926935de1a61db7d72b9866401a45c62948e03020ac97cc0ae07a7b19f421ed905f90a35050565b6001335f9081526032602052604090205460ff166004811115613826576138266142fc565b14613849573360016040516345c1994960e11b8152600401610962929190614f19565b6036546001600160a01b03166138725760405163729a9dfb60e01b815260040161096290615286565b60365460405163b2a6cb6360e01b81526001600160801b038c1660048201526001600160a01b039091169063b2a6cb6390602401602060405180830381865afa1580156138c1573d5f5f3e3d5ffd5b505050506040513d601f19601f820116820180604052508101906138e59190614e0f565b6139025760405163125a05ed60e21b815260040160405180910390fd5b6003896004811115613916576139166142fc565b1415801561393657506004896004811115613933576139336142fc565b14155b15613954576040516331f73e8560e01b815260040160405180910390fd5b6001600160a01b038b1661397b576040516306361f0560e01b815260040160405180910390fd5b603a546001600160a01b03166139a45760405163fd531dad60e01b815260040160405180910390fd5b603a546040516308d6e79960e11b81526001600160a01b03909116906311adcf32906139e4908e908c908c908c908c908c908c908c908c90600401615b56565b5f604051808303815f87803b1580156139fb575f5ffd5b505af1158015613a0d573d5f5f3e3d5ffd5b505050508a6001600160a01b03167fda393af7aeccb4bff9b430abd101b6338e48d7863211d1ac6ea1e4af5ac585c28989604051613a4c929190615bc7565b60405180910390a2613a5f8b8b8b612bb3565b896001600160801b03168b6001600160a01b03167fe08ec346f8f66ca96be0d1bd59dcd4efc2ac497666992fd76934ace44ab59c8f8b604051613aa29190614af1565b60405180910390a35050505050505050505050565b613abf613bb1565b6001600160a01b038116613ae857604051631e4fbdf760e01b81525f6004820152602401610962565b6115df81613d71565b5f816001600160801b03165f03613b0957505f61325f565b5f60036001600160a01b0385165f9081526032602052604090205460ff166004811115613b3857613b386142fc565b1480613b6f575060046001600160a01b0385165f9081526032602052604090205460ff166004811115613b6d57613b6d6142fc565b145b9050808015613ba957506001600160a01b0384165f9081526033602090815260408083206001600160801b038716845290915290205460ff165b949350505050565b33613be37f9016d09d72d40fdae2fd8ceac6b6234c7706214fd39c1cd1e609a0528c199300546001600160a01b031690565b6001600160a01b03161461243b5760405163118cdaa760e01b8152336004820152602401610962565b60025f5403613c5d5760405162461bcd60e51b815260206004820152601f60248201527f5265656e7472616e637947756172643a207265656e7472616e742063616c6c006044820152606401610962565b60025f55565b60015f55565b5f807ff0c57e16840df040f15088dc2f81fe391c3923bec73e23a9662efc9c229c6a0061325f565b613c99613e50565b6115df81613e75565b613caa613e50565b61243b613e7d565b603480546001600160a01b0319166001600160a01b0383169081179091555f81815260326020526040808220805460ff1916600190811790915590519092915f516020615bfb5f395f51905f5291a350565b6001600160a01b0381165f908152603260205260409020805460ff19811690915560ff16806004811115613d3a57613d3a6142fc565b6040516001600160a01b038416907f34a1009b84e077aee5bc8197faf7105e54f9ba6879e2a51a716e4156ea9ad769905f90a35050565b7f9016d09d72d40fdae2fd8ceac6b6234c7706214fd39c1cd1e609a0528c19930080546001600160a01b031981166001600160a01b03848116918217845560405192169182907f8be0079c531659141344cd1fd0a4f28419497f9722a3daafe3b4186f6b6457e0905f90a3505050565b6001600160a01b0382165f908152603260205260409020805482919060ff19166001836004811115613e1557613e156142fc565b0217905550806004811115613e2c57613e2c6142fc565b6040516001600160a01b038416905f516020615bfb5f395f51905f52905f90a35050565b613e58613e85565b61243b57604051631afcd79f60e31b815260040160405180910390fd5b613abf613e50565b613c63613e50565b5f613e8e613c69565b54600160401b900460ff16919050565b6001600160a01b03811681146115df575f5ffd5b803561106581613e9e565b6001600160801b03811681146115df575f5ffd5b803561106581613ebd565b5f5f60408385031215613eed575f5ffd5b8235613ef881613e9e565b91506020830135613f0881613ebd565b809150509250929050565b634e487b7160e01b5f52604160045260245ffd5b60405161018081016001600160401b0381118282101715613f4a57613f4a613f13565b60405290565b604051608081016001600160401b0381118282101715613f4a57613f4a613f13565b60405161012081016001600160401b0381118282101715613f4a57613f4a613f13565b60405160e081016001600160401b0381118282101715613f4a57613f4a613f13565b604051601f8201601f191681016001600160401b0381118282101715613fdf57613fdf613f13565b604052919050565b5f6001600160401b03821115613fff57613fff613f13565b50601f01601f191660200190565b5f82601f83011261401c575f5ffd5b813561402f61402a82613fe7565b613fb7565b818152846020838601011115614043575f5ffd5b816020850160208301375f918101602001919091529392505050565b5f5f5f5f5f5f5f5f610100898b031215614077575f5ffd5b61408089613ed1565b975060208901356001600160401b0381111561409a575f5ffd5b6140a68b828c0161400d565b97505060408901356001600160401b038111156140c1575f5ffd5b6140cd8b828c0161400d565b96505060608901356001600160401b038111156140e8575f5ffd5b6140f48b828c0161400d565b95505061410360808a01613ed1565b935060a08901356001600160401b0381111561411d575f5ffd5b6141298b828c0161400d565b93505060c08901356001600160401b03811115614144575f5ffd5b6141508b828c0161400d565b92505061415f60e08a01613ed1565b90509295985092959890939650565b60ff811681146115df575f5ffd5b5f5f5f5f6080858703121561418f575f5ffd5b843561419a81613e9e565b935060208501356141aa81613ebd565b925060408501356141ba8161416e565b915060608501356001600160401b038111156141d4575f5ffd5b6141e08782880161400d565b91505092959194509250565b5f602082840312156141fc575f5ffd5b813561420781613e9e565b9392505050565b5f6020828403121561421e575f5ffd5b813561420781613ebd565b5f81518084528060208401602086015e5f602082860101526020601f19601f83011685010191505092915050565b5f82825180855260208501945060208160051b830101602085015f5b838110156142f057601f1985840301885281516001600160801b0381511684526020810151608060208601526142ac6080860182614229565b90506001600160801b0360408301511660408601526001600160801b0360608301511660608601528094505050602082019150602088019750600181019050614273565b50909695505050505050565b634e487b7160e01b5f52602160045260245ffd5b60078110614320576143206142fc565b9052565b80516001600160801b031682525f602082015161434c60208501826001600160a01b03169052565b50604082015161436760408501826001600160801b03169052565b5060608201516101206060850152614383610120850182614257565b90506080830151608085015260a08301516143a160a0860182614310565b5060c08301516143bc60c08601826001600160801b03169052565b5060e08301516143d760e08601826001600160801b03169052565b506101008301516143f46101008601826001600160801b03169052565b509392505050565b602081525f61325c6020830184614324565b80516001600160801b031682525f602082015161443660208501826001600160801b03169052565b5060408201516101806040850152614452610180850182614229565b90506060830151848203606086015261446b8282614229565b915050608083015184820360808601526144858282614229565b91505060a08301516144a260a08601826001600160801b03169052565b5060c08301516144b660c086018215159052565b5060e083015184820360e08601526144ce8282614229565b9150506101008301518482036101008601526144ea8282614229565b9150506101208301516145096101208601826001600160801b03169052565b506101408301516145266101408601826001600160801b03169052565b506101608301516143f46101608601826001600160801b03169052565b5f602082016020835280845180835260408501915060408160051b8601019250602086015f5b8281101561459a57603f1987860301845261458585835161440e565b94506020938401939190910190600101614569565b50929695505050505050565b5f602082016020835280845180835260408501915060408160051b8601019250602086015f5b8281101561459a57603f1987860301845281516001600160801b03815116865260018060a01b03602082015116602087015260018060a01b036040820151166040870152606081015161462a60608801826001600160801b03169052565b50608081015161463f608088018260ff169052565b5060a081015160e060a088015261465960e0880182614229565b905060c0820151915061467760c08801836001600160801b03169052565b95505060209384019391909101906001016145cc565b80151581146115df575f5ffd5b80356110658161468d565b5f602082840312156146b5575f5ffd5b81356001600160401b038111156146ca575f5ffd5b820161018081850312156146dc575f5ffd5b6146e4613f27565b6146ed82613ed1565b81526146fb60208301613ed1565b602082015260408201356001600160401b03811115614718575f5ffd5b6147248682850161400d565b60408301525060608201356001600160401b03811115614742575f5ffd5b61474e8682850161400d565b60608301525060808201356001600160401b0381111561476c575f5ffd5b6147788682850161400d565b60808301525061478a60a08301613ed1565b60a082015261479b60c0830161469a565b60c082015260e08201356001600160401b038111156147b8575f5ffd5b6147c48682850161400d565b60e0830152506101008201356001600160401b038111156147e3575f5ffd5b6147ef8682850161400d565b610100830152506148036101208301613ed1565b6101208201526148166101408301613ed1565b6101408201526148296101608301613ed1565b610160820152949350505050565b5f5f60408385031215614848575f5ffd5b823561485381613e9e565b91506020830135613f0881613e9e565b5f5f5f60608486031215614875575f5ffd5b833561488081613ebd565b925060208401356148908161416e565b915060408401356001600160401b038111156148aa575f5ffd5b6148b68682870161400d565b9150509250925092565b600781106115df575f5ffd5b5f5f604083850312156148dd575f5ffd5b82356148e881613ebd565b91506020830135613f08816148c0565b5f8151808452602084019350602083015f5b828110156149315781516001600160801b031686526020958601959091019060010161490a565b5093949350505050565b602081525f61325c60208301846148f8565b5f5f5f6060848603121561495f575f5ffd5b833561496a81613e9e565b95602085013595506040909401359392505050565b5f604082016040835280855180835260608501915060608160051b8601019250602087015f5b828110156149d657605f198786030184526149c1858351614324565b945060209384019391909101906001016149a5565b505050506020929092019290925292915050565b5f5f604083850312156149fb575f5ffd5b50508035926020909101359150565b5f602082016020835280845180835260408501915060408160051b8601019250602086015f5b8281101561459a57868503603f19018452815180516001600160801b0390811687526020808301516001600160a01b03169088015260408083015182169088015260608083015191821690880152506080810151614a93608088018260ff169052565b5060a081015160e060a0880152614aad60e0880182614229565b905060c08201519150614acb60c08801836001600160801b03169052565b9550506020938401939190910190600101614a30565b60058110614320576143206142fc565b6020810161325f8284614ae1565b5f5f5f5f60808587031215614b12575f5ffd5b843561419a81613ebd565b803560058110611065575f5ffd5b5f5f5f60608486031215614b3d575f5ffd5b8335614b4881613e9e565b92506020840135614b5881613ebd565b9150614b6660408501614b1d565b90509250925092565b5f5f60408385031215614b80575f5ffd5b8235613ef881613ebd565b602081525f61325c602083018461440e565b5f6001600160401b03821115614bb557614bb5613f13565b5060051b60200190565b5f82601f830112614bce575f5ffd5b8135614bdc61402a82614b9d565b8082825260208201915060208360051b860101925085831115614bfd575f5ffd5b602085015b83811015614c23578035614c1581613ebd565b835260209283019201614c02565b5095945050505050565b5f5f5f60608486031215614c3f575f5ffd5b8335614c4a81613ebd565b925060208401356001600160401b03811115614c64575f5ffd5b614c7086828701614bbf565b92505060408401356001600160401b03811115614c8b575f5ffd5b6148b686828701614bbf565b5f5f60408385031215614ca8575f5ffd5b8235614cb381613e9e565b9150614cc160208401614b1d565b90509250929050565b5f5f83601f840112614cda575f5ffd5b5081356001600160401b03811115614cf0575f5ffd5b60208301915083602082850101111561258e575f5ffd5b5f5f5f5f5f5f5f5f5f5f5f60e08c8e031215614d21575f5ffd5b614d2a8c613eb2565b9a50614d3860208d01613ed1565b9950614d4660408d01614b1d565b985060608c01356001600160401b03811115614d60575f5ffd5b614d6c8e828f01614cca565b90995097505060808c01356001600160401b03811115614d8a575f5ffd5b614d968e828f01614cca565b90975095505060a08c01356001600160401b03811115614db4575f5ffd5b614dc08e828f01614cca565b90955093505060c08c01356001600160401b03811115614dde575f5ffd5b614dea8e828f01614cca565b915080935050809150509295989b509295989b9093969950565b80516110658161468d565b5f60208284031215614e1f575f5ffd5b81516142078161468d565b805161106581613e9e565b5f60208284031215614e45575f5ffd5b815161420781613e9e565b602081525f61106260208301600b81526a26b2b73aa6b0b730b3b2b960a91b602082015260400190565b6001600160801b038916815261010060208201525f614e9d61010083018a614229565b8281036040840152614eaf818a614229565b90508281036060840152614ec38189614229565b90506001600160801b038716608084015282810360a0840152614ee68187614229565b905082810360c0840152614efa8186614229565b9150506001600160801b03831660e08301529998505050505050505050565b6001600160a01b0383168152604081016142076020830184614ae1565b602081525f61106260208301600d81526c2932bb34b2bba6b0b730b3b2b960991b602082015260400190565b6001600160a01b038681168252851660208201526001600160801b038416604082015260ff8316606082015260a0608082018190525f90614fa590830184614229565b979650505050505050565b604081525f614fda60408301600b81526a26b2b73aa6b0b730b3b2b960a91b602082015260400190565b6001600160a01b0393909316602092909201919091525090565b602081525f61106260208301600c81526b27b93232b926b0b730b3b2b960a11b602082015260400190565b5f6020828403121561502f575f5ffd5b5051919050565b805161106581613ebd565b5f82601f830112615050575f5ffd5b815161505e61402a82613fe7565b818152846020838601011115615072575f5ffd5b8160208501602083015e5f918101602001919091529392505050565b5f82601f83011261509d575f5ffd5b81516150ab61402a82614b9d565b8082825260208201915060208360051b8601019250858311156150cc575f5ffd5b602085015b83811015614c235780516001600160401b038111156150ee575f5ffd5b86016080818903601f19011215615103575f5ffd5b61510b613f50565b602082015161511981613ebd565b815260408201516001600160401b03811115615133575f5ffd5b6151428a602083860101615041565b602083015250606082015161515681613ebd565b6040820152608091909101519061516c82613ebd565b60608101919091528352602092830192016150d1565b8051611065816148c0565b5f610120828403121561519e575f5ffd5b6151a6613f72565b90506151b182615036565b81526151bf60208301614e2a565b60208201526151d060408301615036565b604082015260608201516001600160401b038111156151ed575f5ffd5b6151f98482850161508e565b6060830152506080828101519082015261521560a08301615182565b60a082015261522660c08301615036565b60c082015261523760e08301615036565b60e08201526152496101008301615036565b61010082015292915050565b5f60208284031215615265575f5ffd5b81516001600160401b0381111561527a575f5ffd5b613ba98482850161518d565b602081525f6110626020830160118152702932b9ba30bab930b73a26b0b730b3b2b960791b602082015260400190565b5f602082840312156152c6575f5ffd5b815161420781613ebd565b604081525f614fda60408301600c81526b27b93232b926b0b730b3b2b960a11b602082015260400190565b5f610180828403121561530d575f5ffd5b615315613f27565b905061532082615036565b815261532e60208301615036565b602082015260408201516001600160401b0381111561534b575f5ffd5b61535784828501615041565b60408301525060608201516001600160401b03811115615375575f5ffd5b61538184828501615041565b60608301525060808201516001600160401b0381111561539f575f5ffd5b6153ab84828501615041565b6080830152506153bd60a08301615036565b60a08201526153ce60c08301614e04565b60c082015260e08201516001600160401b038111156153eb575f5ffd5b6153f784828501615041565b60e0830152506101008201516001600160401b03811115615416575f5ffd5b61542284828501615041565b610100830152506154366101208301615036565b6101208201526154496101408301615036565b61014082015261545c6101608301615036565b61016082015292915050565b5f60208284031215615478575f5ffd5b81516001600160401b0381111561548d575f5ffd5b8201601f8101841361549d575f5ffd5b80516154ab61402a82614b9d565b8082825260208201915060208360051b8501019250868311156154cc575f5ffd5b602084015b8381101561550c5780516001600160401b038111156154ee575f5ffd5b6154fd896020838901016152fc565b845250602092830192016154d1565b509695505050505050565b80516110658161416e565b5f60208284031215615532575f5ffd5b81516001600160401b03811115615547575f5ffd5b8201601f81018413615557575f5ffd5b805161556561402a82614b9d565b8082825260208201915060208360051b850101925086831115615586575f5ffd5b602084015b8381101561550c5780516001600160401b038111156155a8575f5ffd5b850160e0818a03601f190112156155bd575f5ffd5b6155c5613f95565b6155d160208301615036565b81526155df60408301614e2a565b60208201526155f060608301614e2a565b604082015261560160808301615036565b606082015261561260a08301615517565b608082015260c08201516001600160401b0381111561562f575f5ffd5b61563e8b602083860101615041565b60a08301525061565060e08301615036565b60c08201528452506020928301920161558b565b6001600160a01b03851681526001600160801b038416602082015260ff831660408201526080606082018190525f9061569f90830184614229565b9695505050505050565b6001600160a01b03851681526001600160801b0384166020820152608081016156d56040830185614310565b6001600160801b038316606083015295945050505050565b5f602082840312156156fd575f5ffd5b81516001600160401b03811115615712575f5ffd5b8201601f81018413615722575f5ffd5b805161573061402a82614b9d565b8082825260208201915060208360051b850101925086831115615751575f5ffd5b6020840193505b8284101561569f57835161576b81613ebd565b825260209384019390910190615758565b5f5f6040838503121561578d575f5ffd5b82516001600160401b038111156157a2575f5ffd5b8301601f810185136157b2575f5ffd5b80516157c061402a82614b9d565b8082825260208201915060208360051b8501019250878311156157e1575f5ffd5b602084015b838110156158215780516001600160401b03811115615803575f5ffd5b6158128a60208389010161518d565b845250602092830192016157e6565b506020969096015195979596505050505050565b604081525f614fda6040830160118152702932b9ba30bab930b73a26b0b730b3b2b960791b602082015260400190565b5f5f60408385031215615876575f5ffd5b825161588181613ebd565b6020840151909250613f0881613ebd565b5f602082840312156158a2575f5ffd5b81516001600160401b038111156158b7575f5ffd5b8201601f810184136158c7575f5ffd5b80516158d561402a82614b9d565b8082825260208201915060208360051b8501019250868311156158f6575f5ffd5b602084015b8381101561550c5780516001600160401b03811115615918575f5ffd5b850160e0818a03601f1901121561592d575f5ffd5b615935613f95565b61594160208301615036565b815261594f60408301614e2a565b602082015261596060608301615036565b604082015261597160808301615036565b606082015261598260a08301615517565b608082015260c08201516001600160401b0381111561599f575f5ffd5b6159ae8b602083860101615041565b60a0830152506159c060e08301615036565b60c0820152845250602092830192016158fb565b5f602082840312156159e4575f5ffd5b81516001600160401b038111156159f9575f5ffd5b613ba9848285016152fc565b6001600160a01b03861681526001600160801b0385811660208301528416604082015260ff8316606082015260a0608082018190525f90614fa590830184614229565b604081525f614fda60408301600d81526c2932bb34b2bba6b0b730b3b2b960991b602082015260400190565b634e487b7160e01b5f52603260045260245ffd5b6001600160a01b03851681526001600160801b03841660208201526080604082018190525f90615aba908301856148f8565b8281036060840152614fa581856148f8565b602081525f6110626020830160128152712ab9b2b9283937b334b632a6b0b730b3b2b960711b602082015260400190565b604081525f614fda6040830160128152712ab9b2b9283937b334b632a6b0b730b3b2b960711b602082015260400190565b81835281816020850137505f828201602090810191909152601f909101601f19169091010190565b6001600160a01b038a16815260a0602082018190525f90615b7a9083018a8c615b2e565b8281036040840152615b8d81898b615b2e565b90508281036060840152615ba2818789615b2e565b90508281036080840152615bb7818587615b2e565b9c9b505050505050505050505050565b602081525f613ba9602083018486615b2e56fe0747a1b334584ba14144e8e28f18c787d5f98446da96bfb2fda12de6d8c50034aa259565575c834bc07e74dca784b4071676133ac78513b431afb6ee7edae121a26469706673582212200606722b89b7121c62caf965a29af745aa1e20a00d9bbf6cc0b7963f72102aff64736f6c634300081e0033",
			"opcodes": "PUSH1 0x80 PUSH1 0x40 MSTORE CALLVALUE DUP1 ISZERO PUSH1 0xE JUMPI PUSH0 PUSH0 REVERT JUMPDEST POP PUSH2 0x5C50 DUP1 PUSH2 0x1C PUSH0 CODECOPY PUSH0 RETURN INVALID PUSH1 0x80 PUSH1 0x40 MSTORE PUSH1 0x4 CALLDATASIZE LT PUSH2 0x274 JUMPI PUSH0 CALLDATALOAD PUSH1 0xE0 SHR DUP1 PUSH4 0x6DF37098 GT PUSH2 0x14A JUMPI DUP1 PUSH4 0xBFC72E8B GT PUSH2 0xBE JUMPI DUP1 PUSH4 0xE4766736 GT PUSH2 0x78 JUMPI DUP1 PUSH4 0xE4766736 EQ PUSH2 0x832 JUMPI DUP1 PUSH4 0xE77036D6 EQ PUSH2 0x845 JUMPI DUP1 PUSH4 0xEA38D06D EQ PUSH2 0x859 JUMPI DUP1 PUSH4 0xEE2BE2A8 EQ PUSH2 0x878 JUMPI DUP1 PUSH4 0xF2FDE38B EQ PUSH2 0x897 JUMPI DUP1 PUSH4 0xF9B6117F EQ PUSH2 0x8B6 JUMPI PUSH0 PUSH0 REVERT JUMPDEST DUP1 PUSH4 0xBFC72E8B EQ PUSH2 0x74C JUMPI DUP1 PUSH4 0xC45A0155 EQ PUSH2 0x76B JUMPI DUP1 PUSH4 0xC7F9704D EQ PUSH2 0x78A JUMPI DUP1 PUSH4 0xC9B81583 EQ PUSH2 0x79E JUMPI DUP1 PUSH4 0xCE4CF9CB EQ PUSH2 0x7BD JUMPI DUP1 PUSH4 0xE0ED2ECE EQ PUSH2 0x806 JUMPI PUSH0 PUSH0 REVERT JUMPDEST DUP1 PUSH4 0x98E8D802 GT PUSH2 0x10F JUMPI DUP1 PUSH4 0x98E8D802 EQ PUSH2 0x681 JUMPI DUP1 PUSH4 0x99374642 EQ PUSH2 0x6A0 JUMPI DUP1 PUSH4 0x9C8D9B82 EQ PUSH2 0x6DB JUMPI DUP1 PUSH4 0xA7903F52 EQ PUSH2 0x6EF JUMPI DUP1 PUSH4 0xADDFA353 EQ PUSH2 0x70E JUMPI DUP1 PUSH4 0xB9588327 EQ PUSH2 0x72D JUMPI PUSH0 PUSH0 REVERT JUMPDEST DUP1 PUSH4 0x6DF37098 EQ PUSH2 0x5A7 JUMPI DUP1 PUSH4 0x715018A6 EQ PUSH2 0x5E6 JUMPI DUP1 PUSH4 0x78E025F9 EQ PUSH2 0x5FA JUMPI DUP1 PUSH4 0x8DA5CB5B EQ PUSH2 0x619 JUMPI DUP1 PUSH4 0x8E5332C8 EQ PUSH2 0x655 JUMPI PUSH0 PUSH0 REVERT JUMPDEST DUP1 PUSH4 0x36D004A8 GT PUSH2 0x1EC JUMPI DUP1 PUSH4 0x515F72CE GT PUSH2 0x1A6 JUMPI DUP1 PUSH4 0x515F72CE EQ PUSH2 0x4DD JUMPI DUP1 PUSH4 0x520DD046 EQ PUSH2 0x4FC JUMPI DUP1 PUSH4 0x5464462B EQ PUSH2 0x51B JUMPI DUP1 PUSH4 0x66FAB191 EQ PUSH2 0x547 JUMPI DUP1 PUSH4 0x6BF299D9 EQ PUSH2 0x566 JUMPI DUP1 PUSH4 0x6C5F005C EQ PUSH2 0x593 JUMPI PUSH0 PUSH0 REVERT JUMPDEST DUP1 PUSH4 0x36D004A8 EQ PUSH2 0x409 JUMPI DUP1 PUSH4 0x3CD3741D EQ PUSH2 0x435 JUMPI DUP1 PUSH4 0x3F6C7347 EQ PUSH2 0x454 JUMPI DUP1 PUSH4 0x41F02D7B EQ PUSH2 0x480 JUMPI DUP1 PUSH4 0x485CC955 EQ PUSH2 0x49F JUMPI DUP1 PUSH4 0x5059E95B EQ PUSH2 0x4BE JUMPI PUSH0 PUSH0 REVERT JUMPDEST DUP1 PUSH4 0x257FBDA5 GT PUSH2 0x23D JUMPI DUP1 PUSH4 0x257FBDA5 EQ PUSH2 0x327 JUMPI DUP1 PUSH4 0x27C4A7A1 EQ PUSH2 0x354 JUMPI DUP1 PUSH4 0x287128C4 EQ PUSH2 0x380 JUMPI DUP1 PUSH4 0x294AC1A7 EQ PUSH2 0x3B7 JUMPI DUP1 PUSH4 0x29757982 EQ PUSH2 0x3CB JUMPI DUP1 PUSH4 0x319BA603 EQ PUSH2 0x3EA JUMPI PUSH0 PUSH0 REVERT JUMPDEST DUP1 PUSH3 0x9D2013 EQ PUSH2 0x278 JUMPI DUP1 PUSH4 0x327C705 EQ PUSH2 0x299 JUMPI DUP1 PUSH4 0xE7D52E5 EQ PUSH2 0x2B8 JUMPI DUP1 PUSH4 0x1BB91F9F EQ PUSH2 0x2D7 JUMPI DUP1 PUSH4 0x2134B6F6 EQ PUSH2 0x2EB JUMPI JUMPDEST PUSH0 PUSH0 REVERT JUMPDEST CALLVALUE DUP1 ISZERO PUSH2 0x283 JUMPI PUSH0 PUSH0 REVERT JUMPDEST POP PUSH2 0x297 PUSH2 0x292 CALLDATASIZE PUSH1 0x4 PUSH2 0x3EDC JUMP JUMPDEST PUSH2 0x8D5 JUMP JUMPDEST STOP JUMPDEST CALLVALUE DUP1 ISZERO PUSH2 0x2A4 JUMPI PUSH0 PUSH0 REVERT JUMPDEST POP PUSH2 0x297 PUSH2 0x2B3 CALLDATASIZE PUSH1 0x4 PUSH2 0x405F JUMP JUMPDEST PUSH2 0x9CA JUMP JUMPDEST CALLVALUE DUP1 ISZERO PUSH2 0x2C3 JUMPI PUSH0 PUSH0 REVERT JUMPDEST POP PUSH2 0x297 PUSH2 0x2D2 CALLDATASIZE PUSH1 0x4 PUSH2 0x417C JUMP JUMPDEST PUSH2 0xC72 JUMP JUMPDEST CALLVALUE DUP1 ISZERO PUSH2 0x2E2 JUMPI PUSH0 PUSH0 REVERT JUMPDEST POP PUSH2 0x297 PUSH2 0xEA0 JUMP JUMPDEST CALLVALUE DUP1 ISZERO PUSH2 0x2F6 JUMPI PUSH0 PUSH0 REVERT JUMPDEST POP PUSH1 0x36 SLOAD PUSH2 0x30A SWAP1 PUSH1 0x1 PUSH1 0x1 PUSH1 0xA0 SHL SUB AND DUP2 JUMP JUMPDEST PUSH1 0x40 MLOAD PUSH1 0x1 PUSH1 0x1 PUSH1 0xA0 SHL SUB SWAP1 SWAP2 AND DUP2 MSTORE PUSH1 0x20 ADD JUMPDEST PUSH1 0x40 MLOAD DUP1 SWAP2 SUB SWAP1 RETURN JUMPDEST CALLVALUE DUP1 ISZERO PUSH2 0x332 JUMPI PUSH0 PUSH0 REVERT JUMPDEST POP PUSH2 0x346 PUSH2 0x341 CALLDATASIZE PUSH1 0x4 PUSH2 0x41EC JUMP JUMPDEST PUSH2 0xF84 JUMP JUMPDEST PUSH1 0x40 MLOAD SWAP1 DUP2 MSTORE PUSH1 0x20 ADD PUSH2 0x31E JUMP JUMPDEST CALLVALUE DUP1 ISZERO PUSH2 0x35F JUMPI PUSH0 PUSH0 REVERT JUMPDEST POP PUSH2 0x373 PUSH2 0x36E CALLDATASIZE PUSH1 0x4 PUSH2 0x420E JUMP JUMPDEST PUSH2 0x106A JUMP JUMPDEST PUSH1 0x40 MLOAD PUSH2 0x31E SWAP2 SWAP1 PUSH2 0x43FC JUMP JUMPDEST CALLVALUE DUP1 ISZERO PUSH2 0x38B JUMPI PUSH0 PUSH0 REVERT JUMPDEST POP PUSH2 0x39F PUSH2 0x39A CALLDATASIZE PUSH1 0x4 PUSH2 0x41EC JUMP JUMPDEST PUSH2 0x11DA JUMP JUMPDEST PUSH1 0x40 MLOAD PUSH1 0x1 PUSH1 0x1 PUSH1 0x80 SHL SUB SWAP1 SWAP2 AND DUP2 MSTORE PUSH1 0x20 ADD PUSH2 0x31E JUMP JUMPDEST CALLVALUE DUP1 ISZERO PUSH2 0x3C2 JUMPI PUSH0 PUSH0 REVERT JUMPDEST POP PUSH2 0x297 PUSH2 0x1301 JUMP JUMPDEST CALLVALUE DUP1 ISZERO PUSH2 0x3D6 JUMPI PUSH0 PUSH0 REVERT JUMPDEST POP PUSH1 0x3A SLOAD PUSH2 0x30A SWAP1 PUSH1 0x1 PUSH1 0x1 PUSH1 0xA0 SHL SUB AND DUP2 JUMP JUMPDEST CALLVALUE DUP1 ISZERO PUSH2 0x3F5 JUMPI PUSH0 PUSH0 REVERT JUMPDEST POP PUSH2 0x297 PUSH2 0x404 CALLDATASIZE PUSH1 0x4 PUSH2 0x420E JUMP JUMPDEST PUSH2 0x1498 JUMP JUMPDEST CALLVALUE DUP1 ISZERO PUSH2 0x414 JUMPI PUSH0 PUSH0 REVERT JUMPDEST POP PUSH2 0x428 PUSH2 0x423 CALLDATASIZE PUSH1 0x4 PUSH2 0x420E JUMP JUMPDEST PUSH2 0x15E2 JUMP JUMPDEST PUSH1 0x40 MLOAD PUSH2 0x31E SWAP2 SWAP1 PUSH2 0x4543 JUMP JUMPDEST CALLVALUE DUP1 ISZERO PUSH2 0x440 JUMPI PUSH0 PUSH0 REVERT JUMPDEST POP PUSH2 0x297 PUSH2 0x44F CALLDATASIZE PUSH1 0x4 PUSH2 0x420E JUMP JUMPDEST PUSH2 0x1729 JUMP JUMPDEST CALLVALUE DUP1 ISZERO PUSH2 0x45F JUMPI PUSH0 PUSH0 REVERT JUMPDEST POP PUSH2 0x473 PUSH2 0x46E CALLDATASIZE PUSH1 0x4 PUSH2 0x41EC JUMP JUMPDEST PUSH2 0x187B JUMP JUMPDEST PUSH1 0x40 MLOAD PUSH2 0x31E SWAP2 SWAP1 PUSH2 0x45A6 JUMP JUMPDEST CALLVALUE DUP1 ISZERO PUSH2 0x48B JUMPI PUSH0 PUSH0 REVERT JUMPDEST POP PUSH2 0x297 PUSH2 0x49A CALLDATASIZE PUSH1 0x4 PUSH2 0x46A5 JUMP JUMPDEST PUSH2 0x1915 JUMP JUMPDEST CALLVALUE DUP1 ISZERO PUSH2 0x4AA JUMPI PUSH0 PUSH0 REVERT JUMPDEST POP PUSH2 0x297 PUSH2 0x4B9 CALLDATASIZE PUSH1 0x4 PUSH2 0x4837 JUMP JUMPDEST PUSH2 0x1BAC JUMP JUMPDEST CALLVALUE DUP1 ISZERO PUSH2 0x4C9 JUMPI PUSH0 PUSH0 REVERT JUMPDEST POP PUSH1 0x37 SLOAD PUSH2 0x30A SWAP1 PUSH1 0x1 PUSH1 0x1 PUSH1 0xA0 SHL SUB AND DUP2 JUMP JUMPDEST CALLVALUE DUP1 ISZERO PUSH2 0x4E8 JUMPI PUSH0 PUSH0 REVERT JUMPDEST POP PUSH2 0x297 PUSH2 0x4F7 CALLDATASIZE PUSH1 0x4 PUSH2 0x4863 JUMP JUMPDEST PUSH2 0x1CF7 JUMP JUMPDEST CALLVALUE DUP1 ISZERO PUSH2 0x507 JUMPI PUSH0 PUSH0 REVERT JUMPDEST POP PUSH2 0x297 PUSH2 0x516 CALLDATASIZE PUSH1 0x4 PUSH2 0x48CC JUMP JUMPDEST PUSH2 0x1ECB JUMP JUMPDEST CALLVALUE DUP1 ISZERO PUSH2 0x526 JUMPI PUSH0 PUSH0 REVERT JUMPDEST POP PUSH2 0x53A PUSH2 0x535 CALLDATASIZE PUSH1 0x4 PUSH2 0x420E JUMP JUMPDEST PUSH2 0x2013 JUMP JUMPDEST PUSH1 0x40 MLOAD PUSH2 0x31E SWAP2 SWAP1 PUSH2 0x493B JUMP JUMPDEST CALLVALUE DUP1 ISZERO PUSH2 0x552 JUMPI PUSH0 PUSH0 REVERT JUMPDEST POP PUSH2 0x297 PUSH2 0x561 CALLDATASIZE PUSH1 0x4 PUSH2 0x41EC JUMP JUMPDEST PUSH2 0x215A JUMP JUMPDEST CALLVALUE DUP1 ISZERO PUSH2 0x571 JUMPI PUSH0 PUSH0 REVERT JUMPDEST POP PUSH2 0x585 PUSH2 0x580 CALLDATASIZE PUSH1 0x4 PUSH2 0x494D JUMP JUMPDEST PUSH2 0x21AB JUMP JUMPDEST PUSH1 0x40 MLOAD PUSH2 0x31E SWAP3 SWAP2 SWAP1 PUSH2 0x497F JUMP JUMPDEST CALLVALUE DUP1 ISZERO PUSH2 0x59E JUMPI PUSH0 PUSH0 REVERT JUMPDEST POP PUSH2 0x297 PUSH2 0x22A7 JUMP JUMPDEST CALLVALUE DUP1 ISZERO PUSH2 0x5B2 JUMPI PUSH0 PUSH0 REVERT JUMPDEST POP PUSH2 0x5C6 PUSH2 0x5C1 CALLDATASIZE PUSH1 0x4 PUSH2 0x420E JUMP JUMPDEST PUSH2 0x2381 JUMP JUMPDEST PUSH1 0x40 DUP1 MLOAD PUSH1 0x1 PUSH1 0x1 PUSH1 0x80 SHL SUB SWAP4 DUP5 AND DUP2 MSTORE SWAP3 SWAP1 SWAP2 AND PUSH1 0x20 DUP4 ADD MSTORE ADD PUSH2 0x31E JUMP JUMPDEST CALLVALUE DUP1 ISZERO PUSH2 0x5F1 JUMPI PUSH0 PUSH0 REVERT JUMPDEST POP PUSH2 0x297 PUSH2 0x242A JUMP JUMPDEST CALLVALUE DUP1 ISZERO PUSH2 0x605 JUMPI PUSH0 PUSH0 REVERT JUMPDEST POP PUSH2 0x585 PUSH2 0x614 CALLDATASIZE PUSH1 0x4 PUSH2 0x49EA JUMP JUMPDEST PUSH2 0x243D JUMP JUMPDEST CALLVALUE DUP1 ISZERO PUSH2 0x624 JUMPI PUSH0 PUSH0 REVERT JUMPDEST POP PUSH32 0x9016D09D72D40FDAE2FD8CEAC6B6234C7706214FD39C1CD1E609A0528C199300 SLOAD PUSH1 0x1 PUSH1 0x1 PUSH1 0xA0 SHL SUB AND PUSH2 0x30A JUMP JUMPDEST CALLVALUE DUP1 ISZERO PUSH2 0x660 JUMPI PUSH0 PUSH0 REVERT JUMPDEST POP PUSH2 0x674 PUSH2 0x66F CALLDATASIZE PUSH1 0x4 PUSH2 0x420E JUMP JUMPDEST PUSH2 0x2595 JUMP JUMPDEST PUSH1 0x40 MLOAD PUSH2 0x31E SWAP2 SWAP1 PUSH2 0x4A0A JUMP JUMPDEST CALLVALUE DUP1 ISZERO PUSH2 0x68C JUMPI PUSH0 PUSH0 REVERT JUMPDEST POP PUSH2 0x5C6 PUSH2 0x69B CALLDATASIZE PUSH1 0x4 PUSH2 0x41EC JUMP JUMPDEST PUSH2 0x2636 JUMP JUMPDEST CALLVALUE DUP1 ISZERO PUSH2 0x6AB JUMPI PUSH0 PUSH0 REVERT JUMPDEST POP PUSH2 0x6CE PUSH2 0x6BA CALLDATASIZE PUSH1 0x4 PUSH2 0x41EC JUMP JUMPDEST PUSH1 0x32 PUSH1 0x20 MSTORE PUSH0 SWAP1 DUP2 MSTORE PUSH1 0x40 SWAP1 KECCAK256 SLOAD PUSH1 0xFF AND DUP2 JUMP JUMPDEST PUSH1 0x40 MLOAD PUSH2 0x31E SWAP2 SWAP1 PUSH2 0x4AF1 JUMP JUMPDEST CALLVALUE DUP1 ISZERO PUSH2 0x6E6 JUMPI PUSH0 PUSH0 REVERT JUMPDEST POP PUSH2 0x346 PUSH2 0x2695 JUMP JUMPDEST CALLVALUE DUP1 ISZERO PUSH2 0x6FA JUMPI PUSH0 PUSH0 REVERT JUMPDEST POP PUSH2 0x297 PUSH2 0x709 CALLDATASIZE PUSH1 0x4 PUSH2 0x4AFF JUMP JUMPDEST PUSH2 0x27D4 JUMP JUMPDEST CALLVALUE DUP1 ISZERO PUSH2 0x719 JUMPI PUSH0 PUSH0 REVERT JUMPDEST POP PUSH2 0x297 PUSH2 0x728 CALLDATASIZE PUSH1 0x4 PUSH2 0x4B2B JUMP JUMPDEST PUSH2 0x2BB3 JUMP JUMPDEST CALLVALUE DUP1 ISZERO PUSH2 0x738 JUMPI PUSH0 PUSH0 REVERT JUMPDEST POP PUSH2 0x30A PUSH2 0x747 CALLDATASIZE PUSH1 0x4 PUSH2 0x420E JUMP JUMPDEST PUSH2 0x2E7F JUMP JUMPDEST CALLVALUE DUP1 ISZERO PUSH2 0x757 JUMPI PUSH0 PUSH0 REVERT JUMPDEST POP PUSH2 0x297 PUSH2 0x766 CALLDATASIZE PUSH1 0x4 PUSH2 0x3EDC JUMP JUMPDEST PUSH2 0x2F1D JUMP JUMPDEST CALLVALUE DUP1 ISZERO PUSH2 0x776 JUMPI PUSH0 PUSH0 REVERT JUMPDEST POP PUSH1 0x35 SLOAD PUSH2 0x30A SWAP1 PUSH1 0x1 PUSH1 0x1 PUSH1 0xA0 SHL SUB AND DUP2 JUMP JUMPDEST CALLVALUE DUP1 ISZERO PUSH2 0x795 JUMPI PUSH0 PUSH0 REVERT JUMPDEST POP PUSH2 0x297 PUSH2 0x3028 JUMP JUMPDEST CALLVALUE DUP1 ISZERO PUSH2 0x7A9 JUMPI PUSH0 PUSH0 REVERT JUMPDEST POP PUSH1 0x39 SLOAD PUSH2 0x30A SWAP1 PUSH1 0x1 PUSH1 0x1 PUSH1 0xA0 SHL SUB AND DUP2 JUMP JUMPDEST CALLVALUE DUP1 ISZERO PUSH2 0x7C8 JUMPI PUSH0 PUSH0 REVERT JUMPDEST POP PUSH2 0x7F6 PUSH2 0x7D7 CALLDATASIZE PUSH1 0x4 PUSH2 0x3EDC JUMP JUMPDEST PUSH1 0x33 PUSH1 0x20 SWAP1 DUP2 MSTORE PUSH0 SWAP3 DUP4 MSTORE PUSH1 0x40 DUP1 DUP5 KECCAK256 SWAP1 SWAP2 MSTORE SWAP1 DUP3 MSTORE SWAP1 KECCAK256 SLOAD PUSH1 0xFF AND DUP2 JUMP JUMPDEST PUSH1 0x40 MLOAD SWAP1 ISZERO ISZERO DUP2 MSTORE PUSH1 0x20 ADD PUSH2 0x31E JUMP JUMPDEST CALLVALUE DUP1 ISZERO PUSH2 0x811 JUMPI PUSH0 PUSH0 REVERT JUMPDEST POP PUSH2 0x825 PUSH2 0x820 CALLDATASIZE PUSH1 0x4 PUSH2 0x4B6F JUMP JUMPDEST PUSH2 0x3154 JUMP JUMPDEST PUSH1 0x40 MLOAD PUSH2 0x31E SWAP2 SWAP1 PUSH2 0x4B8B JUMP JUMPDEST PUSH2 0x297 PUSH2 0x840 CALLDATASIZE PUSH1 0x4 PUSH2 0x4C2D JUMP JUMPDEST PUSH2 0x3265 JUMP JUMPDEST CALLVALUE DUP1 ISZERO PUSH2 0x850 JUMPI PUSH0 PUSH0 REVERT JUMPDEST POP PUSH2 0x297 PUSH2 0x3663 JUMP JUMPDEST CALLVALUE DUP1 ISZERO PUSH2 0x864 JUMPI PUSH0 PUSH0 REVERT JUMPDEST POP PUSH2 0x297 PUSH2 0x873 CALLDATASIZE PUSH1 0x4 PUSH2 0x4C97 JUMP JUMPDEST PUSH2 0x3766 JUMP JUMPDEST CALLVALUE DUP1 ISZERO PUSH2 0x883 JUMPI PUSH0 PUSH0 REVERT JUMPDEST POP PUSH2 0x297 PUSH2 0x892 CALLDATASIZE PUSH1 0x4 PUSH2 0x4D07 JUMP JUMPDEST PUSH2 0x3801 JUMP JUMPDEST CALLVALUE DUP1 ISZERO PUSH2 0x8A2 JUMPI PUSH0 PUSH0 REVERT JUMPDEST POP PUSH2 0x297 PUSH2 0x8B1 CALLDATASIZE PUSH1 0x4 PUSH2 0x41EC JUMP JUMPDEST PUSH2 0x3AB7 JUMP JUMPDEST CALLVALUE DUP1 ISZERO PUSH2 0x8C1 JUMPI PUSH0 PUSH0 REVERT JUMPDEST POP PUSH1 0x38 SLOAD PUSH2 0x30A SWAP1 PUSH1 0x1 PUSH1 0x1 PUSH1 0xA0 SHL SUB AND DUP2 JUMP JUMPDEST PUSH1 0x34 SLOAD PUSH1 0x1 PUSH1 0x1 PUSH1 0xA0 SHL SUB AND CALLER EQ PUSH2 0x900 JUMPI PUSH1 0x40 MLOAD PUSH4 0x1A310541 PUSH1 0xE1 SHL DUP2 MSTORE PUSH1 0x4 ADD PUSH1 0x40 MLOAD DUP1 SWAP2 SUB SWAP1 REVERT JUMPDEST PUSH1 0x1 PUSH1 0x1 PUSH1 0xA0 SHL SUB DUP3 AND PUSH0 SWAP1 DUP2 MSTORE PUSH1 0x33 PUSH1 0x20 SWAP1 DUP2 MSTORE PUSH1 0x40 DUP1 DUP4 KECCAK256 PUSH1 0x1 PUSH1 0x1 PUSH1 0x80 SHL SUB DUP6 AND DUP5 MSTORE SWAP1 SWAP2 MSTORE SWAP1 KECCAK256 SLOAD PUSH1 0xFF AND PUSH2 0x96B JUMPI PUSH1 0x40 MLOAD PUSH4 0x58CCE337 PUSH1 0xE0 SHL DUP2 MSTORE PUSH1 0x1 PUSH1 0x1 PUSH1 0xA0 SHL SUB DUP4 AND PUSH1 0x4 DUP3 ADD MSTORE PUSH1 0x1 PUSH1 0x1 PUSH1 0x80 SHL SUB DUP3 AND PUSH1 0x24 DUP3 ADD MSTORE PUSH1 0x44 ADD JUMPDEST PUSH1 0x40 MLOAD DUP1 SWAP2 SUB SWAP1 REVERT JUMPDEST PUSH1 0x1 PUSH1 0x1 PUSH1 0xA0 SHL SUB DUP3 AND PUSH0 DUP2 DUP2 MSTORE PUSH1 0x33 PUSH1 0x20 SWAP1 DUP2 MSTORE PUSH1 0x40 DUP1 DUP4 KECCAK256 PUSH1 0x1 PUSH1 0x1 PUSH1 0x80 SHL SUB DUP7 AND DUP1 DUP6 MSTORE SWAP3 MSTORE DUP1 DUP4 KECCAK256 DUP1 SLOAD PUSH1 0xFF NOT AND SWAP1 SSTORE MLOAD SWAP1 SWAP3 SWAP2 PUSH32 0x2091A7A9F4BD1D3537C45C3143A470B7C349709A4B0B9E9B2A8F3E37C9DE0E25 SWAP2 LOG3 POP POP JUMP JUMPDEST DUP8 PUSH1 0x1 CALLER PUSH0 SWAP1 DUP2 MSTORE PUSH1 0x32 PUSH1 0x20 MSTORE PUSH1 0x40 SWAP1 KECCAK256 SLOAD PUSH1 0xFF AND PUSH1 0x4 DUP2 GT ISZERO PUSH2 0x9F0 JUMPI PUSH2 0x9F0 PUSH2 0x42FC JUMP JUMPDEST EQ PUSH2 0xB2D JUMPI PUSH1 0x36 SLOAD PUSH1 0x1 PUSH1 0x1 PUSH1 0xA0 SHL SUB AND ISZERO DUP1 ISZERO SWAP1 PUSH2 0xA7D JUMPI POP PUSH1 0x36 SLOAD PUSH1 0x40 MLOAD PUSH4 0xB2A6CB63 PUSH1 0xE0 SHL DUP2 MSTORE PUSH1 0x1 PUSH1 0x1 PUSH1 0x80 SHL SUB DUP4 AND PUSH1 0x4 DUP3 ADD MSTORE PUSH1 0x1 PUSH1 0x1 PUSH1 0xA0 SHL SUB SWAP1 SWAP2 AND SWAP1 PUSH4 0xB2A6CB63 SWAP1 PUSH1 0x24 ADD PUSH1 0x20 PUSH1 0x40 MLOAD DUP1 DUP4 SUB DUP2 DUP7 GAS STATICCALL ISZERO DUP1 ISZERO PUSH2 0xA59 JUMPI RETURNDATASIZE PUSH0 PUSH0 RETURNDATACOPY RETURNDATASIZE PUSH0 REVERT JUMPDEST POP POP POP POP PUSH1 0x40 MLOAD RETURNDATASIZE PUSH1 0x1F NOT PUSH1 0x1F DUP3 ADD AND DUP3 ADD DUP1 PUSH1 0x40 MSTORE POP DUP2 ADD SWAP1 PUSH2 0xA7D SWAP2 SWAP1 PUSH2 0x4E0F JUMP JUMPDEST DUP1 ISZERO PUSH2 0xB02 JUMPI POP PUSH1 0x36 SLOAD PUSH1 0x40 MLOAD PUSH4 0xB9588327 PUSH1 0xE0 SHL DUP2 MSTORE PUSH1 0x1 PUSH1 0x1 PUSH1 0x80 SHL SUB DUP4 AND PUSH1 0x4 DUP3 ADD MSTORE CALLER SWAP2 PUSH1 0x1 PUSH1 0x1 PUSH1 0xA0 SHL SUB AND SWAP1 PUSH4 0xB9588327 SWAP1 PUSH1 0x24 ADD PUSH1 0x20 PUSH1 0x40 MLOAD DUP1 DUP4 SUB DUP2 DUP7 GAS STATICCALL ISZERO DUP1 ISZERO PUSH2 0xAD3 JUMPI RETURNDATASIZE PUSH0 PUSH0 RETURNDATACOPY RETURNDATASIZE PUSH0 REVERT JUMPDEST POP POP POP POP PUSH1 0x40 MLOAD RETURNDATASIZE PUSH1 0x1F NOT PUSH1 0x1F DUP3 ADD AND DUP3 ADD DUP1 PUSH1 0x40 MSTORE POP DUP2 ADD SWAP1 PUSH2 0xAF7 SWAP2 SWAP1 PUSH2 0x4E35 JUMP JUMPDEST PUSH1 0x1 PUSH1 0x1 PUSH1 0xA0 SHL SUB AND EQ JUMPDEST PUSH2 0xB2D JUMPI PUSH2 0xB10 CALLER DUP3 PUSH2 0x3AF1 JUMP JUMPDEST PUSH2 0xB2D JUMPI PUSH1 0x40 MLOAD PUSH4 0x6361F05 PUSH1 0xE0 SHL DUP2 MSTORE PUSH1 0x4 ADD PUSH1 0x40 MLOAD DUP1 SWAP2 SUB SWAP1 REVERT JUMPDEST PUSH1 0x37 SLOAD PUSH1 0x1 PUSH1 0x1 PUSH1 0xA0 SHL SUB AND PUSH2 0xB56 JUMPI PUSH1 0x40 MLOAD PUSH4 0x729A9DFB PUSH1 0xE0 SHL DUP2 MSTORE PUSH1 0x4 ADD PUSH2 0x962 SWAP1 PUSH2 0x4E50 JUMP JUMPDEST PUSH1 0x36 SLOAD PUSH1 0x1 PUSH1 0x1 PUSH1 0xA0 SHL SUB AND ISZERO DUP1 PUSH2 0xBDE JUMPI POP PUSH1 0x36 SLOAD PUSH1 0x40 MLOAD PUSH4 0xB2A6CB63 PUSH1 0xE0 SHL DUP2 MSTORE PUSH1 0x1 PUSH1 0x1 PUSH1 0x80 SHL SUB DUP12 AND PUSH1 0x4 DUP3 ADD MSTORE PUSH1 0x1 PUSH1 0x1 PUSH1 0xA0 SHL SUB SWAP1 SWAP2 AND SWAP1 PUSH4 0xB2A6CB63 SWAP1 PUSH1 0x24 ADD PUSH1 0x20 PUSH1 0x40 MLOAD DUP1 DUP4 SUB DUP2 DUP7 GAS STATICCALL ISZERO DUP1 ISZERO PUSH2 0xBB8 JUMPI RETURNDATASIZE PUSH0 PUSH0 RETURNDATACOPY RETURNDATASIZE PUSH0 REVERT JUMPDEST POP POP POP POP PUSH1 0x40 MLOAD RETURNDATASIZE PUSH1 0x1F NOT PUSH1 0x1F DUP3 ADD AND DUP3 ADD DUP1 PUSH1 0x40 MSTORE POP DUP2 ADD SWAP1 PUSH2 0xBDC SWAP2 SWAP1 PUSH2 0x4E0F JUMP JUMPDEST ISZERO JUMPDEST ISZERO PUSH2 0xBFC JUMPI PUSH1 0x40 MLOAD PUSH4 0x125A05ED PUSH1 0xE2 SHL DUP2 MSTORE PUSH1 0x4 ADD PUSH1 0x40 MLOAD DUP1 SWAP2 SUB SWAP1 REVERT JUMPDEST PUSH1 0x37 SLOAD PUSH1 0x40 MLOAD PUSH4 0xD5D2768B PUSH1 0xE0 SHL DUP2 MSTORE PUSH1 0x1 PUSH1 0x1 PUSH1 0xA0 SHL SUB SWAP1 SWAP2 AND SWAP1 PUSH4 0xD5D2768B SWAP1 PUSH2 0xC3A SWAP1 DUP13 SWAP1 DUP13 SWAP1 DUP13 SWAP1 DUP13 SWAP1 DUP13 SWAP1 DUP13 SWAP1 DUP13 SWAP1 DUP13 SWAP1 PUSH1 0x4 ADD PUSH2 0x4E7A JUMP JUMPDEST PUSH0 PUSH1 0x40 MLOAD DUP1 DUP4 SUB DUP2 PUSH0 DUP8 DUP1 EXTCODESIZE ISZERO DUP1 ISZERO PUSH2 0xC51 JUMPI PUSH0 PUSH0 REVERT JUMPDEST POP GAS CALL ISZERO DUP1 ISZERO PUSH2 0xC63 JUMPI RETURNDATASIZE PUSH0 PUSH0 RETURNDATACOPY RETURNDATASIZE PUSH0 REVERT JUMPDEST POP POP POP POP POP POP POP POP POP POP POP POP POP JUMP JUMPDEST PUSH1 0x2 CALLER PUSH0 SWAP1 DUP2 MSTORE PUSH1 0x32 PUSH1 0x20 MSTORE PUSH1 0x40 SWAP1 KECCAK256 SLOAD PUSH1 0xFF AND PUSH1 0x4 DUP2 GT ISZERO PUSH2 0xC97 JUMPI PUSH2 0xC97 PUSH2 0x42FC JUMP JUMPDEST EQ ISZERO DUP1 ISZERO PUSH2 0xCC8 JUMPI POP PUSH1 0x1 CALLER PUSH0 SWAP1 DUP2 MSTORE PUSH1 0x32 PUSH1 0x20 MSTORE PUSH1 0x40 SWAP1 KECCAK256 SLOAD PUSH1 0xFF AND PUSH1 0x4 DUP2 GT ISZERO PUSH2 0xCC5 JUMPI PUSH2 0xCC5 PUSH2 0x42FC JUMP JUMPDEST EQ ISZERO JUMPDEST DUP1 ISZERO PUSH2 0xCF5 JUMPI POP CALLER PUSH0 SWAP1 DUP2 MSTORE PUSH1 0x32 PUSH1 0x20 MSTORE PUSH1 0x40 DUP2 KECCAK256 SLOAD PUSH1 0xFF AND PUSH1 0x4 DUP2 GT ISZERO PUSH2 0xCF2 JUMPI PUSH2 0xCF2 PUSH2 0x42FC JUMP JUMPDEST EQ ISZERO JUMPDEST ISZERO PUSH2 0xD18 JUMPI CALLER PUSH1 0x2 PUSH1 0x40 MLOAD PUSH4 0x45C19949 PUSH1 0xE1 SHL DUP2 MSTORE PUSH1 0x4 ADD PUSH2 0x962 SWAP3 SWAP2 SWAP1 PUSH2 0x4F19 JUMP JUMPDEST PUSH1 0x39 SLOAD PUSH1 0x1 PUSH1 0x1 PUSH1 0xA0 SHL SUB AND PUSH2 0xD41 JUMPI PUSH1 0x40 MLOAD PUSH4 0x729A9DFB PUSH1 0xE0 SHL DUP2 MSTORE PUSH1 0x4 ADD PUSH2 0x962 SWAP1 PUSH2 0x4F36 JUMP JUMPDEST PUSH1 0x36 SLOAD PUSH1 0x1 PUSH1 0x1 PUSH1 0xA0 SHL SUB AND ISZERO DUP1 PUSH2 0xDC9 JUMPI POP PUSH1 0x36 SLOAD PUSH1 0x40 MLOAD PUSH4 0xB2A6CB63 PUSH1 0xE0 SHL DUP2 MSTORE PUSH1 0x1 PUSH1 0x1 PUSH1 0x80 SHL SUB DUP6 AND PUSH1 0x4 DUP3 ADD MSTORE PUSH1 0x1 PUSH1 0x1 PUSH1 0xA0 SHL SUB SWAP1 SWAP2 AND SWAP1 PUSH4 0xB2A6CB63 SWAP1 PUSH1 0x24 ADD PUSH1 0x20 PUSH1 0x40 MLOAD DUP1 DUP4 SUB DUP2 DUP7 GAS STATICCALL ISZERO DUP1 ISZERO PUSH2 0xDA3 JUMPI RETURNDATASIZE PUSH0 PUSH0 RETURNDATACOPY RETURNDATASIZE PUSH0 REVERT JUMPDEST POP POP POP POP PUSH1 0x40 MLOAD RETURNDATASIZE PUSH1 0x1F NOT PUSH1 0x1F DUP3 ADD AND DUP3 ADD DUP1 PUSH1 0x40 MSTORE POP DUP2 ADD SWAP1 PUSH2 0xDC7 SWAP2 SWAP1 PUSH2 0x4E0F JUMP JUMPDEST ISZERO JUMPDEST ISZERO PUSH2 0xDE7 JUMPI PUSH1 0x40 MLOAD PUSH4 0x125A05ED PUSH1 0xE2 SHL DUP2 MSTORE PUSH1 0x4 ADD PUSH1 0x40 MLOAD DUP1 SWAP2 SUB SWAP1 REVERT JUMPDEST PUSH1 0x1 PUSH1 0x1 PUSH1 0xA0 SHL SUB DUP5 AND PUSH2 0xE0E JUMPI PUSH1 0x40 MLOAD PUSH4 0x6361F05 PUSH1 0xE0 SHL DUP2 MSTORE PUSH1 0x4 ADD PUSH1 0x40 MLOAD DUP1 SWAP2 SUB SWAP1 REVERT JUMPDEST PUSH2 0xE18 DUP5 DUP5 PUSH2 0x3AF1 JUMP JUMPDEST PUSH2 0xE35 JUMPI PUSH1 0x40 MLOAD PUSH4 0x9319547 PUSH1 0xE0 SHL DUP2 MSTORE PUSH1 0x4 ADD PUSH1 0x40 MLOAD DUP1 SWAP2 SUB SWAP1 REVERT JUMPDEST PUSH1 0x39 SLOAD PUSH1 0x40 MLOAD PUSH4 0x3E5C9C2F PUSH1 0xE1 SHL DUP2 MSTORE PUSH1 0x1 PUSH1 0x1 PUSH1 0xA0 SHL SUB SWAP1 SWAP2 AND SWAP1 PUSH4 0x7CB9385E SWAP1 PUSH2 0xE6D SWAP1 CALLER SWAP1 DUP9 SWAP1 DUP9 SWAP1 DUP9 SWAP1 DUP9 SWAP1 PUSH1 0x4 ADD PUSH2 0x4F62 JUMP JUMPDEST PUSH0 PUSH1 0x40 MLOAD DUP1 DUP4 SUB DUP2 PUSH0 DUP8 DUP1 EXTCODESIZE ISZERO DUP1 ISZERO PUSH2 0xE84 JUMPI PUSH0 PUSH0 REVERT JUMPDEST POP GAS CALL ISZERO DUP1 ISZERO PUSH2 0xE96 JUMPI RETURNDATASIZE PUSH0 PUSH0 RETURNDATACOPY RETURNDATASIZE PUSH0 REVERT JUMPDEST POP POP POP POP POP POP POP POP JUMP JUMPDEST PUSH2 0xEA8 PUSH2 0x3BB1 JUMP JUMPDEST PUSH1 0x37 SLOAD PUSH1 0x1 PUSH1 0x1 PUSH1 0xA0 SHL SUB AND ISZERO PUSH2 0xED2 JUMPI PUSH1 0x40 MLOAD PUSH4 0x8BF2C4A5 PUSH1 0xE0 SHL DUP2 MSTORE PUSH1 0x4 ADD PUSH2 0x962 SWAP1 PUSH2 0x4E50 JUMP JUMPDEST PUSH1 0x35 SLOAD PUSH1 0x40 MLOAD PUSH4 0x54288FAD PUSH1 0xE1 SHL DUP2 MSTORE PUSH1 0x1 PUSH1 0x1 PUSH1 0xA0 SHL SUB SWAP1 SWAP2 AND SWAP1 PUSH4 0xA8511F5A SWAP1 PUSH2 0xF00 SWAP1 PUSH1 0x4 ADD PUSH2 0x4E50 JUMP JUMPDEST PUSH1 0x20 PUSH1 0x40 MLOAD DUP1 DUP4 SUB DUP2 PUSH0 DUP8 GAS CALL ISZERO DUP1 ISZERO PUSH2 0xF1C JUMPI RETURNDATASIZE PUSH0 PUSH0 RETURNDATACOPY RETURNDATASIZE PUSH0 REVERT JUMPDEST POP POP POP POP PUSH1 0x40 MLOAD RETURNDATASIZE PUSH1 0x1F NOT PUSH1 0x1F DUP3 ADD AND DUP3 ADD DUP1 PUSH1 0x40 MSTORE POP DUP2 ADD SWAP1 PUSH2 0xF40 SWAP2 SWAP1 PUSH2 0x4E35 JUMP JUMPDEST PUSH1 0x37 DUP1 SLOAD PUSH1 0x1 PUSH1 0x1 PUSH1 0xA0 SHL SUB NOT AND PUSH1 0x1 PUSH1 0x1 PUSH1 0xA0 SHL SUB SWAP3 SWAP1 SWAP3 AND SWAP2 DUP3 OR SWAP1 SSTORE PUSH1 0x40 MLOAD PUSH0 MLOAD PUSH1 0x20 PUSH2 0x5BDB PUSH0 CODECOPY PUSH0 MLOAD SWAP1 PUSH0 MSTORE SWAP2 PUSH2 0xF7A SWAP2 PUSH2 0x4FB0 JUMP JUMPDEST PUSH1 0x40 MLOAD DUP1 SWAP2 SUB SWAP1 LOG1 JUMP JUMPDEST PUSH0 PUSH1 0x1 CALLER PUSH0 SWAP1 DUP2 MSTORE PUSH1 0x32 PUSH1 0x20 MSTORE PUSH1 0x40 SWAP1 KECCAK256 SLOAD PUSH1 0xFF AND PUSH1 0x4 DUP2 GT ISZERO PUSH2 0xFAA JUMPI PUSH2 0xFAA PUSH2 0x42FC JUMP JUMPDEST EQ PUSH2 0xFCD JUMPI CALLER PUSH1 0x1 PUSH1 0x40 MLOAD PUSH4 0x45C19949 PUSH1 0xE1 SHL DUP2 MSTORE PUSH1 0x4 ADD PUSH2 0x962 SWAP3 SWAP2 SWAP1 PUSH2 0x4F19 JUMP JUMPDEST PUSH1 0x38 SLOAD PUSH1 0x1 PUSH1 0x1 PUSH1 0xA0 SHL SUB AND PUSH2 0xFF6 JUMPI PUSH1 0x40 MLOAD PUSH4 0x729A9DFB PUSH1 0xE0 SHL DUP2 MSTORE PUSH1 0x4 ADD PUSH2 0x962 SWAP1 PUSH2 0x4FF4 JUMP JUMPDEST PUSH1 0x38 SLOAD PUSH1 0x40 MLOAD PUSH4 0x399C62D5 PUSH1 0xE1 SHL DUP2 MSTORE PUSH1 0x1 PUSH1 0x1 PUSH1 0xA0 SHL SUB DUP5 DUP2 AND PUSH1 0x4 DUP4 ADD MSTORE SWAP1 SWAP2 AND SWAP1 PUSH4 0x7338C5AA SWAP1 PUSH1 0x24 ADD PUSH1 0x20 PUSH1 0x40 MLOAD DUP1 DUP4 SUB DUP2 DUP7 GAS STATICCALL ISZERO DUP1 ISZERO PUSH2 0x103E JUMPI RETURNDATASIZE PUSH0 PUSH0 RETURNDATACOPY RETURNDATASIZE PUSH0 REVERT JUMPDEST POP POP POP POP PUSH1 0x40 MLOAD RETURNDATASIZE PUSH1 0x1F NOT PUSH1 0x1F DUP3 ADD AND DUP3 ADD DUP1 PUSH1 0x40 MSTORE POP DUP2 ADD SWAP1 PUSH2 0x1062 SWAP2 SWAP1 PUSH2 0x501F JUMP JUMPDEST SWAP1 POP JUMPDEST SWAP2 SWAP1 POP JUMP JUMPDEST PUSH1 0x40 DUP1 MLOAD PUSH2 0x120 DUP2 ADD DUP3 MSTORE PUSH0 DUP1 DUP3 MSTORE PUSH1 0x20 DUP3 ADD DUP2 SWAP1 MSTORE SWAP2 DUP2 ADD DUP3 SWAP1 MSTORE PUSH1 0x60 DUP1 DUP3 ADD MSTORE PUSH1 0x80 DUP2 ADD DUP3 SWAP1 MSTORE PUSH1 0xA0 DUP2 ADD DUP3 SWAP1 MSTORE PUSH1 0xC0 DUP2 ADD DUP3 SWAP1 MSTORE PUSH1 0xE0 DUP2 ADD DUP3 SWAP1 MSTORE PUSH2 0x100 DUP2 ADD SWAP2 SWAP1 SWAP2 MSTORE PUSH1 0x38 SLOAD PUSH1 0x1 PUSH1 0x1 PUSH1 0xA0 SHL SUB AND PUSH2 0x10DA JUMPI PUSH1 0x40 MLOAD PUSH4 0x729A9DFB PUSH1 0xE0 SHL DUP2 MSTORE PUSH1 0x4 ADD PUSH2 0x962 SWAP1 PUSH2 0x4FF4 JUMP JUMPDEST PUSH1 0x38 SLOAD PUSH1 0x40 MLOAD PUSH4 0x22FA825 PUSH1 0xE3 SHL DUP2 MSTORE PUSH1 0x1 PUSH1 0x1 PUSH1 0x80 SHL SUB DUP5 AND PUSH1 0x4 DUP3 ADD MSTORE PUSH0 SWAP2 PUSH1 0x1 PUSH1 0x1 PUSH1 0xA0 SHL SUB AND SWAP1 PUSH4 0x117D4128 SWAP1 PUSH1 0x24 ADD PUSH0 PUSH1 0x40 MLOAD DUP1 DUP4 SUB DUP2 DUP7 GAS STATICCALL ISZERO DUP1 ISZERO PUSH2 0x1128 JUMPI RETURNDATASIZE PUSH0 PUSH0 RETURNDATACOPY RETURNDATASIZE PUSH0 REVERT JUMPDEST POP POP POP POP PUSH1 0x40 MLOAD RETURNDATASIZE PUSH0 DUP3 RETURNDATACOPY PUSH1 0x1F RETURNDATASIZE SWAP1 DUP2 ADD PUSH1 0x1F NOT AND DUP3 ADD PUSH1 0x40 MSTORE PUSH2 0x114F SWAP2 SWAP1 DUP2 ADD SWAP1 PUSH2 0x5255 JUMP JUMPDEST PUSH1 0x20 DUP2 ADD MLOAD SWAP1 SWAP2 POP PUSH1 0x1 PUSH1 0x1 PUSH1 0xA0 SHL SUB AND CALLER EQ PUSH0 PUSH1 0x1 CALLER PUSH0 SWAP1 DUP2 MSTORE PUSH1 0x32 PUSH1 0x20 MSTORE PUSH1 0x40 SWAP1 KECCAK256 SLOAD PUSH1 0xFF AND PUSH1 0x4 DUP2 GT ISZERO PUSH2 0x1188 JUMPI PUSH2 0x1188 PUSH2 0x42FC JUMP JUMPDEST EQ SWAP1 POP PUSH0 PUSH2 0x119A CALLER DUP6 PUSH1 0x40 ADD MLOAD PUSH2 0x3AF1 JUMP JUMPDEST SWAP1 POP DUP3 ISZERO DUP1 ISZERO PUSH2 0x11A8 JUMPI POP DUP2 ISZERO JUMPDEST DUP1 ISZERO PUSH2 0x11B2 JUMPI POP DUP1 ISZERO JUMPDEST ISZERO PUSH2 0x11D0 JUMPI PUSH1 0x40 MLOAD PUSH4 0x6361F05 PUSH1 0xE0 SHL DUP2 MSTORE PUSH1 0x4 ADD PUSH1 0x40 MLOAD DUP1 SWAP2 SUB SWAP1 REVERT JUMPDEST POP SWAP2 SWAP5 SWAP4 POP POP POP POP JUMP JUMPDEST PUSH0 PUSH1 0x1 CALLER PUSH0 SWAP1 DUP2 MSTORE PUSH1 0x32 PUSH1 0x20 MSTORE PUSH1 0x40 SWAP1 KECCAK256 SLOAD PUSH1 0xFF AND PUSH1 0x4 DUP2 GT ISZERO PUSH2 0x1200 JUMPI PUSH2 0x1200 PUSH2 0x42FC JUMP JUMPDEST EQ PUSH2 0x1223 JUMPI CALLER PUSH1 0x1 PUSH1 0x40 MLOAD PUSH4 0x45C19949 PUSH1 0xE1 SHL DUP2 MSTORE PUSH1 0x4 ADD PUSH2 0x962 SWAP3 SWAP2 SWAP1 PUSH2 0x4F19 JUMP JUMPDEST PUSH1 0x36 SLOAD PUSH1 0x1 PUSH1 0x1 PUSH1 0xA0 SHL SUB AND PUSH2 0x124C JUMPI PUSH1 0x40 MLOAD PUSH4 0x729A9DFB PUSH1 0xE0 SHL DUP2 MSTORE PUSH1 0x4 ADD PUSH2 0x962 SWAP1 PUSH2 0x5286 JUMP JUMPDEST PUSH1 0x36 SLOAD PUSH1 0x40 MLOAD PUSH4 0xBC5DD53 PUSH1 0xE4 SHL DUP2 MSTORE PUSH1 0x1 PUSH1 0x1 PUSH1 0xA0 SHL SUB DUP5 DUP2 AND PUSH1 0x4 DUP4 ADD MSTORE PUSH0 SWAP3 AND SWAP1 PUSH4 0xBC5DD530 SWAP1 PUSH1 0x24 ADD PUSH1 0x20 PUSH1 0x40 MLOAD DUP1 DUP4 SUB DUP2 PUSH0 DUP8 GAS CALL ISZERO DUP1 ISZERO PUSH2 0x1295 JUMPI RETURNDATASIZE PUSH0 PUSH0 RETURNDATACOPY RETURNDATASIZE PUSH0 REVERT JUMPDEST POP POP POP POP PUSH1 0x40 MLOAD RETURNDATASIZE PUSH1 0x1F NOT PUSH1 0x1F DUP3 ADD AND DUP3 ADD DUP1 PUSH1 0x40 MSTORE POP DUP2 ADD SWAP1 PUSH2 0x12B9 SWAP2 SWAP1 PUSH2 0x52B6 JUMP JUMPDEST SWAP1 POP DUP3 PUSH1 0x1 PUSH1 0x1 PUSH1 0xA0 SHL SUB AND DUP2 PUSH1 0x1 PUSH1 0x1 PUSH1 0x80 SHL SUB AND PUSH32 0x4F1538341A9D6974853FC26BD053E8A59E7B5C8676EC6FF1FD68A8908FC73B4D PUSH1 0x40 MLOAD PUSH1 0x40 MLOAD DUP1 SWAP2 SUB SWAP1 LOG3 SWAP3 SWAP2 POP POP JUMP JUMPDEST PUSH2 0x1309 PUSH2 0x3BB1 JUMP JUMPDEST PUSH1 0x38 SLOAD PUSH1 0x1 PUSH1 0x1 PUSH1 0xA0 SHL SUB AND ISZERO PUSH2 0x1333 JUMPI PUSH1 0x40 MLOAD PUSH4 0x8BF2C4A5 PUSH1 0xE0 SHL DUP2 MSTORE PUSH1 0x4 ADD PUSH2 0x962 SWAP1 PUSH2 0x4FF4 JUMP JUMPDEST PUSH1 0x37 SLOAD PUSH1 0x1 PUSH1 0x1 PUSH1 0xA0 SHL SUB AND PUSH2 0x138C JUMPI PUSH1 0x40 MLOAD PUSH4 0x7271502F PUSH1 0xE1 SHL DUP2 MSTORE PUSH1 0x20 PUSH1 0x4 DUP3 ADD MSTORE PUSH1 0x1C PUSH1 0x24 DUP3 ADD MSTORE PUSH32 0x4D656E754D616E6167657220666F72204F726465724D616E6167657200000000 PUSH1 0x44 DUP3 ADD MSTORE PUSH1 0x64 ADD PUSH2 0x962 JUMP JUMPDEST PUSH1 0x36 SLOAD PUSH1 0x1 PUSH1 0x1 PUSH1 0xA0 SHL SUB AND PUSH2 0x13F0 JUMPI PUSH1 0x40 MLOAD PUSH4 0x7271502F PUSH1 0xE1 SHL DUP2 MSTORE PUSH1 0x20 PUSH1 0x4 DUP3 ADD MSTORE PUSH1 0x22 PUSH1 0x24 DUP3 ADD MSTORE PUSH32 0x52657374617572616E744D616E6167657220666F72204F726465724D616E6167 PUSH1 0x44 DUP3 ADD MSTORE PUSH2 0x32B9 PUSH1 0xF1 SHL PUSH1 0x64 DUP3 ADD MSTORE PUSH1 0x84 ADD PUSH2 0x962 JUMP JUMPDEST PUSH1 0x35 SLOAD PUSH1 0x40 MLOAD PUSH4 0x54288FAD PUSH1 0xE1 SHL DUP2 MSTORE PUSH1 0x1 PUSH1 0x1 PUSH1 0xA0 SHL SUB SWAP1 SWAP2 AND SWAP1 PUSH4 0xA8511F5A SWAP1 PUSH2 0x141E SWAP1 PUSH1 0x4 ADD PUSH2 0x4FF4 JUMP JUMPDEST PUSH1 0x20 PUSH1 0x40 MLOAD DUP1 DUP4 SUB DUP2 PUSH0 DUP8 GAS CALL ISZERO DUP1 ISZERO PUSH2 0x143A JUMPI RETURNDATASIZE PUSH0 PUSH0 RETURNDATACOPY RETURNDATASIZE PUSH0 REVERT JUMPDEST POP POP POP POP PUSH1 0x40 MLOAD RETURNDATASIZE PUSH1 0x1F NOT PUSH1 0x1F DUP3 ADD AND DUP3 ADD DUP1 PUSH1 0x40 MSTORE POP DUP2 ADD SWAP1 PUSH2 0x145E SWAP2 SWAP1 PUSH2 0x4E35 JUMP JUMPDEST PUSH1 0x38 DUP1 SLOAD PUSH1 0x1 PUSH1 0x1 PUSH1 0xA0 SHL SUB NOT AND PUSH1 0x1 PUSH1 0x1 PUSH1 0xA0 SHL SUB SWAP3 SWAP1 SWAP3 AND SWAP2 DUP3 OR SWAP1 SSTORE PUSH1 0x40 MLOAD PUSH0 MLOAD PUSH1 0x20 PUSH2 0x5BDB PUSH0 CODECOPY PUSH0 MLOAD SWAP1 PUSH0 MSTORE SWAP2 PUSH2 0xF7A SWAP2 PUSH2 0x52D1 JUMP JUMPDEST PUSH1 0x2 CALLER PUSH0 SWAP1 DUP2 MSTORE PUSH1 0x32 PUSH1 0x20 MSTORE PUSH1 0x40 SWAP1 KECCAK256 SLOAD PUSH1 0xFF AND PUSH1 0x4 DUP2 GT ISZERO PUSH2 0x14BD JUMPI PUSH2 0x14BD PUSH2 0x42FC JUMP JUMPDEST EQ ISZERO DUP1 ISZERO PUSH2 0x14EE JUMPI POP PUSH1 0x1 CALLER PUSH0 SWAP1 DUP2 MSTORE PUSH1 0x32 PUSH1 0x20 MSTORE PUSH1 0x40 SWAP1 KECCAK256 SLOAD PUSH1 0xFF AND PUSH1 0x4 DUP2 GT ISZERO PUSH2 0x14EB JUMPI PUSH2 0x14EB PUSH2 0x42FC JUMP JUMPDEST EQ ISZERO JUMPDEST DUP1 ISZERO PUSH2 0x151B JUMPI POP CALLER PUSH0 SWAP1 DUP2 MSTORE PUSH1 0x32 PUSH1 0x20 MSTORE PUSH1 0x40 DUP2 KECCAK256 SLOAD PUSH1 0xFF AND PUSH1 0x4 DUP2 GT ISZERO PUSH2 0x1518 JUMPI PUSH2 0x1518 PUSH2 0x42FC JUMP JUMPDEST EQ ISZERO JUMPDEST ISZERO PUSH2 0x153E JUMPI CALLER PUSH1 0x2 PUSH1 0x40 MLOAD PUSH4 0x45C19949 PUSH1 0xE1 SHL DUP2 MSTORE PUSH1 0x4 ADD PUSH2 0x962 SWAP3 SWAP2 SWAP1 PUSH2 0x4F19 JUMP JUMPDEST PUSH2 0x1546 PUSH2 0x3C0C JUMP JUMPDEST PUSH1 0x38 SLOAD PUSH1 0x1 PUSH1 0x1 PUSH1 0xA0 SHL SUB AND PUSH2 0x156F JUMPI PUSH1 0x40 MLOAD PUSH4 0x729A9DFB PUSH1 0xE0 SHL DUP2 MSTORE PUSH1 0x4 ADD PUSH2 0x962 SWAP1 PUSH2 0x4FF4 JUMP JUMPDEST PUSH1 0x38 SLOAD PUSH1 0x40 MLOAD PUSH4 0xDA12BFB PUSH1 0xE1 SHL DUP2 MSTORE CALLER PUSH1 0x4 DUP3 ADD MSTORE PUSH1 0x1 PUSH1 0x1 PUSH1 0x80 SHL SUB DUP4 AND PUSH1 0x24 DUP3 ADD MSTORE PUSH1 0x1 PUSH1 0x1 PUSH1 0xA0 SHL SUB SWAP1 SWAP2 AND SWAP1 PUSH4 0x1B4257F6 SWAP1 PUSH1 0x44 ADD PUSH0 PUSH1 0x40 MLOAD DUP1 DUP4 SUB DUP2 PUSH0 DUP8 DUP1 EXTCODESIZE ISZERO DUP1 ISZERO PUSH2 0x15C0 JUMPI PUSH0 PUSH0 REVERT JUMPDEST POP GAS CALL ISZERO DUP1 ISZERO PUSH2 0x15D2 JUMPI RETURNDATASIZE PUSH0 PUSH0 RETURNDATACOPY RETURNDATASIZE PUSH0 REVERT JUMPDEST POP POP POP POP PUSH2 0x15DF PUSH1 0x1 PUSH0 SSTORE JUMP JUMPDEST POP JUMP JUMPDEST PUSH1 0x37 SLOAD PUSH1 0x60 SWAP1 PUSH1 0x1 PUSH1 0x1 PUSH1 0xA0 SHL SUB AND PUSH2 0x160E JUMPI PUSH1 0x40 MLOAD PUSH4 0x729A9DFB PUSH1 0xE0 SHL DUP2 MSTORE PUSH1 0x4 ADD PUSH2 0x962 SWAP1 PUSH2 0x4E50 JUMP JUMPDEST PUSH1 0x36 SLOAD PUSH1 0x1 PUSH1 0x1 PUSH1 0xA0 SHL SUB AND ISZERO DUP1 PUSH2 0x1696 JUMPI POP PUSH1 0x36 SLOAD PUSH1 0x40 MLOAD PUSH4 0xB2A6CB63 PUSH1 0xE0 SHL DUP2 MSTORE PUSH1 0x1 PUSH1 0x1 PUSH1 0x80 SHL SUB DUP5 AND PUSH1 0x4 DUP3 ADD MSTORE PUSH1 0x1 PUSH1 0x1 PUSH1 0xA0 SHL SUB SWAP1 SWAP2 AND SWAP1 PUSH4 0xB2A6CB63 SWAP1 PUSH1 0x24 ADD PUSH1 0x20 PUSH1 0x40 MLOAD DUP1 DUP4 SUB DUP2 DUP7 GAS STATICCALL ISZERO DUP1 ISZERO PUSH2 0x1670 JUMPI RETURNDATASIZE PUSH0 PUSH0 RETURNDATACOPY RETURNDATASIZE PUSH0 REVERT JUMPDEST POP POP POP POP PUSH1 0x40 MLOAD RETURNDATASIZE PUSH1 0x1F NOT PUSH1 0x1F DUP3 ADD AND DUP3 ADD DUP1 PUSH1 0x40 MSTORE POP DUP2 ADD SWAP1 PUSH2 0x1694 SWAP2 SWAP1 PUSH2 0x4E0F JUMP JUMPDEST ISZERO JUMPDEST ISZERO PUSH2 0x16B4 JUMPI PUSH1 0x40 MLOAD PUSH4 0x125A05ED PUSH1 0xE2 SHL DUP2 MSTORE PUSH1 0x4 ADD PUSH1 0x40 MLOAD DUP1 SWAP2 SUB SWAP1 REVERT JUMPDEST PUSH1 0x37 SLOAD PUSH1 0x40 MLOAD PUSH4 0x30EE6EED PUSH1 0xE1 SHL DUP2 MSTORE PUSH1 0x1 PUSH1 0x1 PUSH1 0x80 SHL SUB DUP5 AND PUSH1 0x4 DUP3 ADD MSTORE PUSH1 0x1 PUSH1 0x1 PUSH1 0xA0 SHL SUB SWAP1 SWAP2 AND SWAP1 PUSH4 0x61DCDDDA SWAP1 PUSH1 0x24 ADD PUSH0 PUSH1 0x40 MLOAD DUP1 DUP4 SUB DUP2 DUP7 GAS STATICCALL ISZERO DUP1 ISZERO PUSH2 0x1702 JUMPI RETURNDATASIZE PUSH0 PUSH0 RETURNDATACOPY RETURNDATASIZE PUSH0 REVERT JUMPDEST POP POP POP POP PUSH1 0x40 MLOAD RETURNDATASIZE PUSH0 DUP3 RETURNDATACOPY PUSH1 0x1F RETURNDATASIZE SWAP1 DUP2 ADD PUSH1 0x1F NOT AND DUP3 ADD PUSH1 0x40 MSTORE PUSH2 0x1062 SWAP2 SWAP1 DUP2 ADD SWAP1 PUSH2 0x5468 JUMP JUMPDEST PUSH2 0x1731 PUSH2 0x3C0C JUMP JUMPDEST PUSH1 0x38 SLOAD PUSH1 0x1 PUSH1 0x1 PUSH1 0xA0 SHL SUB AND PUSH2 0x175A JUMPI PUSH1 0x40 MLOAD PUSH4 0x729A9DFB PUSH1 0xE0 SHL DUP2 MSTORE PUSH1 0x4 ADD PUSH2 0x962 SWAP1 PUSH2 0x4FF4 JUMP JUMPDEST PUSH1 0x38 SLOAD PUSH1 0x40 MLOAD PUSH4 0x22FA825 PUSH1 0xE3 SHL DUP2 MSTORE PUSH1 0x1 PUSH1 0x1 PUSH1 0x80 SHL SUB DUP4 AND PUSH1 0x4 DUP3 ADD MSTORE PUSH0 SWAP2 PUSH1 0x1 PUSH1 0x1 PUSH1 0xA0 SHL SUB AND SWAP1 PUSH4 0x117D4128 SWAP1 PUSH1 0x24 ADD PUSH0 PUSH1 0x40 MLOAD DUP1 DUP4 SUB DUP2 DUP7 GAS STATICCALL ISZERO DUP1 ISZERO PUSH2 0x17A8 JUMPI RETURNDATASIZE PUSH0 PUSH0 RETURNDATACOPY RETURNDATASIZE PUSH0 REVERT JUMPDEST POP POP POP POP PUSH1 0x40 MLOAD RETURNDATASIZE PUSH0 DUP3 RETURNDATACOPY PUSH1 0x1F RETURNDATASIZE SWAP1 DUP2 ADD PUSH1 0x1F NOT AND DUP3 ADD PUSH1 0x40 MSTORE PUSH2 0x17CF SWAP2 SWAP1 DUP2 ADD SWAP1 PUSH2 0x5255 JUMP JUMPDEST SWAP1 POP PUSH2 0x17DF CALLER DUP3 PUSH1 0x40 ADD MLOAD PUSH2 0x3AF1 JUMP JUMPDEST PUSH2 0x17FC JUMPI PUSH1 0x40 MLOAD PUSH4 0x9319547 PUSH1 0xE0 SHL DUP2 MSTORE PUSH1 0x4 ADD PUSH1 0x40 MLOAD DUP1 SWAP2 SUB SWAP1 REVERT JUMPDEST PUSH1 0x38 SLOAD PUSH1 0x40 DUP3 DUP2 ADD MLOAD SWAP1 MLOAD PUSH4 0x6798FDA3 PUSH1 0xE1 SHL DUP2 MSTORE CALLER PUSH1 0x4 DUP3 ADD MSTORE PUSH1 0x1 PUSH1 0x1 PUSH1 0x80 SHL SUB DUP1 DUP7 AND PUSH1 0x24 DUP4 ADD MSTORE SWAP1 SWAP2 AND PUSH1 0x44 DUP3 ADD MSTORE PUSH1 0x1 PUSH1 0x1 PUSH1 0xA0 SHL SUB SWAP1 SWAP2 AND SWAP1 PUSH4 0xCF31FB46 SWAP1 PUSH1 0x64 ADD PUSH0 PUSH1 0x40 MLOAD DUP1 DUP4 SUB DUP2 PUSH0 DUP8 DUP1 EXTCODESIZE ISZERO DUP1 ISZERO PUSH2 0x185B JUMPI PUSH0 PUSH0 REVERT JUMPDEST POP GAS CALL ISZERO DUP1 ISZERO PUSH2 0x186D JUMPI RETURNDATASIZE PUSH0 PUSH0 RETURNDATACOPY RETURNDATASIZE PUSH0 REVERT JUMPDEST POP POP POP POP POP PUSH2 0x15DF PUSH1 0x1 PUSH0 SSTORE JUMP JUMPDEST PUSH1 0x39 SLOAD PUSH1 0x60 SWAP1 PUSH1 0x1 PUSH1 0x1 PUSH1 0xA0 SHL SUB AND PUSH2 0x18A7 JUMPI PUSH1 0x40 MLOAD PUSH4 0x729A9DFB PUSH1 0xE0 SHL DUP2 MSTORE PUSH1 0x4 ADD PUSH2 0x962 SWAP1 PUSH2 0x4F36 JUMP JUMPDEST PUSH1 0x39 SLOAD PUSH1 0x40 MLOAD PUSH4 0x3F6C7347 PUSH1 0xE0 SHL DUP2 MSTORE PUSH1 0x1 PUSH1 0x1 PUSH1 0xA0 SHL SUB DUP5 DUP2 AND PUSH1 0x4 DUP4 ADD MSTORE SWAP1 SWAP2 AND SWAP1 PUSH4 0x3F6C7347 SWAP1 PUSH1 0x24 ADD PUSH0 PUSH1 0x40 MLOAD DUP1 DUP4 SUB DUP2 DUP7 GAS STATICCALL ISZERO DUP1 ISZERO PUSH2 0x18EE JUMPI RETURNDATASIZE PUSH0 PUSH0 RETURNDATACOPY RETURNDATASIZE PUSH0 REVERT JUMPDEST POP POP POP POP PUSH1 0x40 MLOAD RETURNDATASIZE PUSH0 DUP3 RETURNDATACOPY PUSH1 0x1F RETURNDATASIZE SWAP1 DUP2 ADD PUSH1 0x1F NOT AND DUP3 ADD PUSH1 0x40 MSTORE PUSH2 0x1062 SWAP2 SWAP1 DUP2 ADD SWAP1 PUSH2 0x5522 JUMP JUMPDEST DUP1 MLOAD PUSH1 0x1 CALLER PUSH0 SWAP1 DUP2 MSTORE PUSH1 0x32 PUSH1 0x20 MSTORE PUSH1 0x40 SWAP1 KECCAK256 SLOAD PUSH1 0xFF AND PUSH1 0x4 DUP2 GT ISZERO PUSH2 0x193C JUMPI PUSH2 0x193C PUSH2 0x42FC JUMP JUMPDEST EQ PUSH2 0x1A79 JUMPI PUSH1 0x36 SLOAD PUSH1 0x1 PUSH1 0x1 PUSH1 0xA0 SHL SUB AND ISZERO DUP1 ISZERO SWAP1 PUSH2 0x19C9 JUMPI POP PUSH1 0x36 SLOAD PUSH1 0x40 MLOAD PUSH4 0xB2A6CB63 PUSH1 0xE0 SHL DUP2 MSTORE PUSH1 0x1 PUSH1 0x1 PUSH1 0x80 SHL SUB DUP4 AND PUSH1 0x4 DUP3 ADD MSTORE PUSH1 0x1 PUSH1 0x1 PUSH1 0xA0 SHL SUB SWAP1 SWAP2 AND SWAP1 PUSH4 0xB2A6CB63 SWAP1 PUSH1 0x24 ADD PUSH1 0x20 PUSH1 0x40 MLOAD DUP1 DUP4 SUB DUP2 DUP7 GAS STATICCALL ISZERO DUP1 ISZERO PUSH2 0x19A5 JUMPI RETURNDATASIZE PUSH0 PUSH0 RETURNDATACOPY RETURNDATASIZE PUSH0 REVERT JUMPDEST POP POP POP POP PUSH1 0x40 MLOAD RETURNDATASIZE PUSH1 0x1F NOT PUSH1 0x1F DUP3 ADD AND DUP3 ADD DUP1 PUSH1 0x40 MSTORE POP DUP2 ADD SWAP1 PUSH2 0x19C9 SWAP2 SWAP1 PUSH2 0x4E0F JUMP JUMPDEST DUP1 ISZERO PUSH2 0x1A4E JUMPI POP PUSH1 0x36 SLOAD PUSH1 0x40 MLOAD PUSH4 0xB9588327 PUSH1 0xE0 SHL DUP2 MSTORE PUSH1 0x1 PUSH1 0x1 PUSH1 0x80 SHL SUB DUP4 AND PUSH1 0x4 DUP3 ADD MSTORE CALLER SWAP2 PUSH1 0x1 PUSH1 0x1 PUSH1 0xA0 SHL SUB AND SWAP1 PUSH4 0xB9588327 SWAP1 PUSH1 0x24 ADD PUSH1 0x20 PUSH1 0x40 MLOAD DUP1 DUP4 SUB DUP2 DUP7 GAS STATICCALL ISZERO DUP1 ISZERO PUSH2 0x1A1F JUMPI RETURNDATASIZE PUSH0 PUSH0 RETURNDATACOPY RETURNDATASIZE PUSH0 REVERT JUMPDEST POP POP POP POP PUSH1 0x40 MLOAD RETURNDATASIZE PUSH1 0x1F NOT PUSH1 0x1F DUP3 ADD AND DUP3 ADD DUP1 PUSH1 0x40 MSTORE POP DUP2 ADD SWAP1 PUSH2 0x1A43 SWAP2 SWAP1 PUSH2 0x4E35 JUMP JUMPDEST PUSH1 0x1 PUSH1 0x1 PUSH1 0xA0 SHL SUB AND EQ JUMPDEST PUSH2 0x1A79 JUMPI PUSH2 0x1A5C CALLER DUP3 PUSH2 0x3AF1 JUMP JUMPDEST PUSH2 0x1A79 JUMPI PUSH1 0x40 MLOAD PUSH4 0x6361F05 PUSH1 0xE0 SHL DUP2 MSTORE PUSH1 0x4 ADD PUSH1 0x40 MLOAD DUP1 SWAP2 SUB SWAP1 REVERT JUMPDEST PUSH1 0x37 SLOAD PUSH1 0x1 PUSH1 0x1 PUSH1 0xA0 SHL SUB AND PUSH2 0x1AA2 JUMPI PUSH1 0x40 MLOAD PUSH4 0x729A9DFB PUSH1 0xE0 SHL DUP2 MSTORE PUSH1 0x4 ADD PUSH2 0x962 SWAP1 PUSH2 0x4E50 JUMP JUMPDEST PUSH1 0x36 SLOAD PUSH1 0x1 PUSH1 0x1 PUSH1 0xA0 SHL SUB AND ISZERO DUP1 PUSH2 0x1B2D JUMPI POP PUSH1 0x36 SLOAD DUP3 MLOAD PUSH1 0x40 MLOAD PUSH4 0xB2A6CB63 PUSH1 0xE0 SHL DUP2 MSTORE PUSH1 0x1 PUSH1 0x1 PUSH1 0x80 SHL SUB SWAP1 SWAP2 AND PUSH1 0x4 DUP3 ADD MSTORE PUSH1 0x1 PUSH1 0x1 PUSH1 0xA0 SHL SUB SWAP1 SWAP2 AND SWAP1 PUSH4 0xB2A6CB63 SWAP1 PUSH1 0x24 ADD PUSH1 0x20 PUSH1 0x40 MLOAD DUP1 DUP4 SUB DUP2 DUP7 GAS STATICCALL ISZERO DUP1 ISZERO PUSH2 0x1B07 JUMPI RETURNDATASIZE PUSH0 PUSH0 RETURNDATACOPY RETURNDATASIZE PUSH0 REVERT JUMPDEST POP POP POP POP PUSH1 0x40 MLOAD RETURNDATASIZE PUSH1 0x1F NOT PUSH1 0x1F DUP3 ADD AND DUP3 ADD DUP1 PUSH1 0x40 MSTORE POP DUP2 ADD SWAP1 PUSH2 0x1B2B SWAP2 SWAP1 PUSH2 0x4E0F JUMP JUMPDEST ISZERO JUMPDEST ISZERO PUSH2 0x1B4B JUMPI PUSH1 0x40 MLOAD PUSH4 0x125A05ED PUSH1 0xE2 SHL DUP2 MSTORE PUSH1 0x4 ADD PUSH1 0x40 MLOAD DUP1 SWAP2 SUB SWAP1 REVERT JUMPDEST PUSH1 0x37 SLOAD PUSH1 0x40 MLOAD PUSH4 0x25147E4F PUSH1 0xE0 SHL DUP2 MSTORE PUSH1 0x1 PUSH1 0x1 PUSH1 0xA0 SHL SUB SWAP1 SWAP2 AND SWAP1 PUSH4 0x25147E4F SWAP1 PUSH2 0x1B7B SWAP1 DUP6 SWAP1 PUSH1 0x4 ADD PUSH2 0x4B8B JUMP JUMPDEST PUSH0 PUSH1 0x40 MLOAD DUP1 DUP4 SUB DUP2 PUSH0 DUP8 DUP1 EXTCODESIZE ISZERO DUP1 ISZERO PUSH2 0x1B92 JUMPI PUSH0 PUSH0 REVERT JUMPDEST POP GAS CALL ISZERO DUP1 ISZERO PUSH2 0x1BA4 JUMPI RETURNDATASIZE PUSH0 PUSH0 RETURNDATACOPY RETURNDATASIZE PUSH0 REVERT JUMPDEST POP POP POP POP POP POP JUMP JUMPDEST PUSH0 PUSH2 0x1BB5 PUSH2 0x3C69 JUMP JUMPDEST DUP1 SLOAD SWAP1 SWAP2 POP PUSH1 0xFF PUSH1 0x1 PUSH1 0x40 SHL DUP3 DIV AND ISZERO SWAP1 PUSH1 0x1 PUSH1 0x1 PUSH1 0x40 SHL SUB AND PUSH0 DUP2 ISZERO DUP1 ISZERO PUSH2 0x1BDB JUMPI POP DUP3 JUMPDEST SWAP1 POP PUSH0 DUP3 PUSH1 0x1 PUSH1 0x1 PUSH1 0x40 SHL SUB AND PUSH1 0x1 EQ DUP1 ISZERO PUSH2 0x1BF6 JUMPI POP ADDRESS EXTCODESIZE ISZERO JUMPDEST SWAP1 POP DUP2 ISZERO DUP1 ISZERO PUSH2 0x1C04 JUMPI POP DUP1 ISZERO JUMPDEST ISZERO PUSH2 0x1C22 JUMPI PUSH1 0x40 MLOAD PUSH4 0xF92EE8A9 PUSH1 0xE0 SHL DUP2 MSTORE PUSH1 0x4 ADD PUSH1 0x40 MLOAD DUP1 SWAP2 SUB SWAP1 REVERT JUMPDEST DUP5 SLOAD PUSH8 0xFFFFFFFFFFFFFFFF NOT AND PUSH1 0x1 OR DUP6 SSTORE DUP4 ISZERO PUSH2 0x1C4C JUMPI DUP5 SLOAD PUSH1 0xFF PUSH1 0x40 SHL NOT AND PUSH1 0x1 PUSH1 0x40 SHL OR DUP6 SSTORE JUMPDEST PUSH2 0x1C55 DUP8 PUSH2 0x3C91 JUMP JUMPDEST PUSH2 0x1C5D PUSH2 0x3CA2 JUMP JUMPDEST PUSH2 0x1C66 DUP8 PUSH2 0x3CB2 JUMP JUMPDEST PUSH1 0x1 PUSH1 0x1 PUSH1 0xA0 SHL SUB DUP7 AND PUSH2 0x1C8D JUMPI PUSH1 0x40 MLOAD PUSH4 0xBDD68C1 PUSH1 0xE1 SHL DUP2 MSTORE PUSH1 0x4 ADD PUSH1 0x40 MLOAD DUP1 SWAP2 SUB SWAP1 REVERT JUMPDEST PUSH1 0x35 DUP1 SLOAD PUSH1 0x1 PUSH1 0x1 PUSH1 0xA0 SHL SUB NOT AND PUSH1 0x1 PUSH1 0x1 PUSH1 0xA0 SHL SUB DUP9 AND OR SWAP1 SSTORE DUP4 ISZERO PUSH2 0x1CEE JUMPI DUP5 SLOAD PUSH1 0xFF PUSH1 0x40 SHL NOT AND DUP6 SSTORE PUSH1 0x40 MLOAD PUSH1 0x1 DUP2 MSTORE PUSH32 0xC7F505B2F371AE2175EE4913F4499E1F2633A7B5936321EED1CDAEB6115181D2 SWAP1 PUSH1 0x20 ADD PUSH1 0x40 MLOAD DUP1 SWAP2 SUB SWAP1 LOG1 JUMPDEST POP POP POP POP POP POP POP JUMP JUMPDEST PUSH1 0x2 CALLER PUSH0 SWAP1 DUP2 MSTORE PUSH1 0x32 PUSH1 0x20 MSTORE PUSH1 0x40 SWAP1 KECCAK256 SLOAD PUSH1 0xFF AND PUSH1 0x4 DUP2 GT ISZERO PUSH2 0x1D1C JUMPI PUSH2 0x1D1C PUSH2 0x42FC JUMP JUMPDEST EQ ISZERO DUP1 ISZERO PUSH2 0x1D4D JUMPI POP PUSH1 0x1 CALLER PUSH0 SWAP1 DUP2 MSTORE PUSH1 0x32 PUSH1 0x20 MSTORE PUSH1 0x40 SWAP1 KECCAK256 SLOAD PUSH1 0xFF AND PUSH1 0x4 DUP2 GT ISZERO PUSH2 0x1D4A JUMPI PUSH2 0x1D4A PUSH2 0x42FC JUMP JUMPDEST EQ ISZERO JUMPDEST DUP1 ISZERO PUSH2 0x1D7A JUMPI POP CALLER PUSH0 SWAP1 DUP2 MSTORE PUSH1 0x32 PUSH1 0x20 MSTORE PUSH1 0x40 DUP2 KECCAK256 SLOAD PUSH1 0xFF AND PUSH1 0x4 DUP2 GT ISZERO PUSH2 0x1D77 JUMPI PUSH2 0x1D77 PUSH2 0x42FC JUMP JUMPDEST EQ ISZERO JUMPDEST ISZERO PUSH2 0x1D9D JUMPI CALLER PUSH1 0x2 PUSH1 0x40 MLOAD PUSH4 0x45C19949 PUSH1 0xE1 SHL DUP2 MSTORE PUSH1 0x4 ADD PUSH2 0x962 SWAP3 SWAP2 SWAP1 PUSH2 0x4F19 JUMP JUMPDEST PUSH1 0x39 SLOAD PUSH1 0x1 PUSH1 0x1 PUSH1 0xA0 SHL SUB AND PUSH2 0x1DC6 JUMPI PUSH1 0x40 MLOAD PUSH4 0x729A9DFB PUSH1 0xE0 SHL DUP2 MSTORE PUSH1 0x4 ADD PUSH2 0x962 SWAP1 PUSH2 0x4F36 JUMP JUMPDEST PUSH1 0x36 SLOAD PUSH1 0x1 PUSH1 0x1 PUSH1 0xA0 SHL SUB AND ISZERO DUP1 PUSH2 0x1E4E JUMPI POP PUSH1 0x36 SLOAD PUSH1 0x40 MLOAD PUSH4 0xB2A6CB63 PUSH1 0xE0 SHL DUP2 MSTORE PUSH1 0x1 PUSH1 0x1 PUSH1 0x80 SHL SUB DUP6 AND PUSH1 0x4 DUP3 ADD MSTORE PUSH1 0x1 PUSH1 0x1 PUSH1 0xA0 SHL SUB SWAP1 SWAP2 AND SWAP1 PUSH4 0xB2A6CB63 SWAP1 PUSH1 0x24 ADD PUSH1 0x20 PUSH1 0x40 MLOAD DUP1 DUP4 SUB DUP2 DUP7 GAS STATICCALL ISZERO DUP1 ISZERO PUSH2 0x1E28 JUMPI RETURNDATASIZE PUSH0 PUSH0 RETURNDATACOPY RETURNDATASIZE PUSH0 REVERT JUMPDEST POP POP POP POP PUSH1 0x40 MLOAD RETURNDATASIZE PUSH1 0x1F NOT PUSH1 0x1F DUP3 ADD AND DUP3 ADD DUP1 PUSH1 0x40 MSTORE POP DUP2 ADD SWAP1 PUSH2 0x1E4C SWAP2 SWAP1 PUSH2 0x4E0F JUMP JUMPDEST ISZERO JUMPDEST ISZERO PUSH2 0x1E6C JUMPI PUSH1 0x40 MLOAD PUSH4 0x125A05ED PUSH1 0xE2 SHL DUP2 MSTORE PUSH1 0x4 ADD PUSH1 0x40 MLOAD DUP1 SWAP2 SUB SWAP1 REVERT JUMPDEST PUSH1 0x39 SLOAD PUSH1 0x40 MLOAD PUSH4 0xDF808AC5 PUSH1 0xE0 SHL DUP2 MSTORE PUSH1 0x1 PUSH1 0x1 PUSH1 0xA0 SHL SUB SWAP1 SWAP2 AND SWAP1 PUSH4 0xDF808AC5 SWAP1 PUSH2 0x1EA2 SWAP1 CALLER SWAP1 DUP8 SWAP1 DUP8 SWAP1 DUP8 SWAP1 PUSH1 0x4 ADD PUSH2 0x5664 JUMP JUMPDEST PUSH0 PUSH1 0x40 MLOAD DUP1 DUP4 SUB DUP2 PUSH0 DUP8 DUP1 EXTCODESIZE ISZERO DUP1 ISZERO PUSH2 0x1EB9 JUMPI PUSH0 PUSH0 REVERT JUMPDEST POP GAS CALL ISZERO DUP1 ISZERO PUSH2 0x1CEE JUMPI RETURNDATASIZE PUSH0 PUSH0 RETURNDATACOPY RETURNDATASIZE PUSH0 REVERT JUMPDEST PUSH2 0x1ED3 PUSH2 0x3C0C JUMP JUMPDEST PUSH1 0x38 SLOAD PUSH1 0x1 PUSH1 0x1 PUSH1 0xA0 SHL SUB AND PUSH2 0x1EFC JUMPI PUSH1 0x40 MLOAD PUSH4 0x729A9DFB PUSH1 0xE0 SHL DUP2 MSTORE PUSH1 0x4 ADD PUSH2 0x962 SWAP1 PUSH2 0x4FF4 JUMP JUMPDEST PUSH1 0x38 SLOAD PUSH1 0x40 MLOAD PUSH4 0x22FA825 PUSH1 0xE3 SHL DUP2 MSTORE PUSH1 0x1 PUSH1 0x1 PUSH1 0x80 SHL SUB DUP5 AND PUSH1 0x4 DUP3 ADD MSTORE PUSH0 SWAP2 PUSH1 0x1 PUSH1 0x1 PUSH1 0xA0 SHL SUB AND SWAP1 PUSH4 0x117D4128 SWAP1 PUSH1 0x24 ADD PUSH0 PUSH1 0x40 MLOAD DUP1 DUP4 SUB DUP2 DUP7 GAS STATICCALL ISZERO DUP1 ISZERO PUSH2 0x1F4A JUMPI RETURNDATASIZE PUSH0 PUSH0 RETURNDATACOPY RETURNDATASIZE PUSH0 REVERT JUMPDEST POP POP POP POP PUSH1 0x40 MLOAD RETURNDATASIZE PUSH0 DUP3 RETURNDATACOPY PUSH1 0x1F RETURNDATASIZE SWAP1 DUP2 ADD PUSH1 0x1F NOT AND DUP3 ADD PUSH1 0x40 MSTORE PUSH2 0x1F71 SWAP2 SWAP1 DUP2 ADD SWAP1 PUSH2 0x5255 JUMP JUMPDEST SWAP1 POP PUSH2 0x1F81 CALLER DUP3 PUSH1 0x40 ADD MLOAD PUSH2 0x3AF1 JUMP JUMPDEST PUSH2 0x1F9E JUMPI PUSH1 0x40 MLOAD PUSH4 0x9319547 PUSH1 0xE0 SHL DUP2 MSTORE PUSH1 0x4 ADD PUSH1 0x40 MLOAD DUP1 SWAP2 SUB SWAP1 REVERT JUMPDEST PUSH1 0x38 SLOAD PUSH1 0x40 DUP1 DUP4 ADD MLOAD SWAP1 MLOAD PUSH4 0x19C8CCEF PUSH1 0xE0 SHL DUP2 MSTORE PUSH1 0x1 PUSH1 0x1 PUSH1 0xA0 SHL SUB SWAP1 SWAP3 AND SWAP2 PUSH4 0x19C8CCEF SWAP2 PUSH2 0x1FD8 SWAP2 CALLER SWAP2 DUP9 SWAP2 DUP9 SWAP2 SWAP1 PUSH1 0x4 ADD PUSH2 0x56A9 JUMP JUMPDEST PUSH0 PUSH1 0x40 MLOAD DUP1 DUP4 SUB DUP2 PUSH0 DUP8 DUP1 EXTCODESIZE ISZERO DUP1 ISZERO PUSH2 0x1FEF JUMPI PUSH0 PUSH0 REVERT JUMPDEST POP GAS CALL ISZERO DUP1 ISZERO PUSH2 0x2001 JUMPI RETURNDATASIZE PUSH0 PUSH0 RETURNDATACOPY RETURNDATASIZE PUSH0 REVERT JUMPDEST POP POP POP POP POP PUSH2 0x200F PUSH1 0x1 PUSH0 SSTORE JUMP JUMPDEST POP POP JUMP JUMPDEST PUSH1 0x37 SLOAD PUSH1 0x60 SWAP1 PUSH1 0x1 PUSH1 0x1 PUSH1 0xA0 SHL SUB AND PUSH2 0x203F JUMPI PUSH1 0x40 MLOAD PUSH4 0x729A9DFB PUSH1 0xE0 SHL DUP2 MSTORE PUSH1 0x4 ADD PUSH2 0x962 SWAP1 PUSH2 0x4E50 JUMP JUMPDEST PUSH1 0x36 SLOAD PUSH1 0x1 PUSH1 0x1 PUSH1 0xA0 SHL SUB AND ISZERO DUP1 PUSH2 0x20C7 JUMPI POP PUSH1 0x36 SLOAD PUSH1 0x40 MLOAD PUSH4 0xB2A6CB63 PUSH1 0xE0 SHL DUP2 MSTORE PUSH1 0x1 PUSH1 0x1 PUSH1 0x80 SHL SUB DUP5 AND PUSH1 0x4 DUP3 ADD MSTORE PUSH1 0x1 PUSH1 0x1 PUSH1 0xA0 SHL SUB SWAP1 SWAP2 AND SWAP1 PUSH4 0xB2A6CB63 SWAP1 PUSH1 0x24 ADD PUSH1 0x20 PUSH1 0x40 MLOAD DUP1 DUP4 SUB DUP2 DUP7 GAS STATICCALL ISZERO DUP1 ISZERO PUSH2 0x20A1 JUMPI RETURNDATASIZE PUSH0 PUSH0 RETURNDATACOPY RETURNDATASIZE PUSH0 REVERT JUMPDEST POP POP POP POP PUSH1 0x40 MLOAD RETURNDATASIZE PUSH1 0x1F NOT PUSH1 0x1F DUP3 ADD AND DUP3 ADD DUP1 PUSH1 0x40 MSTORE POP DUP2 ADD SWAP1 PUSH2 0x20C5 SWAP2 SWAP1 PUSH2 0x4E0F JUMP JUMPDEST ISZERO JUMPDEST ISZERO PUSH2 0x20E5 JUMPI PUSH1 0x40 MLOAD PUSH4 0x125A05ED PUSH1 0xE2 SHL DUP2 MSTORE PUSH1 0x4 ADD PUSH1 0x40 MLOAD DUP1 SWAP2 SUB SWAP1 REVERT JUMPDEST PUSH1 0x37 SLOAD PUSH1 0x40 MLOAD PUSH4 0x6B88CDE5 PUSH1 0xE0 SHL DUP2 MSTORE PUSH1 0x1 PUSH1 0x1 PUSH1 0x80 SHL SUB DUP5 AND PUSH1 0x4 DUP3 ADD MSTORE PUSH1 0x1 PUSH1 0x1 PUSH1 0xA0 SHL SUB SWAP1 SWAP2 AND SWAP1 PUSH4 0x6B88CDE5 SWAP1 PUSH1 0x24 ADD PUSH0 PUSH1 0x40 MLOAD DUP1 DUP4 SUB DUP2 DUP7 GAS STATICCALL ISZERO DUP1 ISZERO PUSH2 0x2133 JUMPI RETURNDATASIZE PUSH0 PUSH0 RETURNDATACOPY RETURNDATASIZE PUSH0 REVERT JUMPDEST POP POP POP POP PUSH1 0x40 MLOAD RETURNDATASIZE PUSH0 DUP3 RETURNDATACOPY PUSH1 0x1F RETURNDATASIZE SWAP1 DUP2 ADD PUSH1 0x1F NOT AND DUP3 ADD PUSH1 0x40 MSTORE PUSH2 0x1062 SWAP2 SWAP1 DUP2 ADD SWAP1 PUSH2 0x56ED JUMP JUMPDEST PUSH1 0x1 CALLER PUSH0 SWAP1 DUP2 MSTORE PUSH1 0x32 PUSH1 0x20 MSTORE PUSH1 0x40 SWAP1 KECCAK256 SLOAD PUSH1 0xFF AND PUSH1 0x4 DUP2 GT ISZERO PUSH2 0x217F JUMPI PUSH2 0x217F PUSH2 0x42FC JUMP JUMPDEST EQ PUSH2 0x21A2 JUMPI CALLER PUSH1 0x1 PUSH1 0x40 MLOAD PUSH4 0x45C19949 PUSH1 0xE1 SHL DUP2 MSTORE PUSH1 0x4 ADD PUSH2 0x962 SWAP3 SWAP2 SWAP1 PUSH2 0x4F19 JUMP JUMPDEST PUSH2 0x15DF DUP2 PUSH2 0x3D04 JUMP JUMPDEST PUSH1 0x60 PUSH0 PUSH1 0x1 CALLER PUSH0 SWAP1 DUP2 MSTORE PUSH1 0x32 PUSH1 0x20 MSTORE PUSH1 0x40 SWAP1 KECCAK256 SLOAD PUSH1 0xFF AND PUSH1 0x4 DUP2 GT ISZERO PUSH2 0x21D3 JUMPI PUSH2 0x21D3 PUSH2 0x42FC JUMP JUMPDEST EQ PUSH2 0x21F6 JUMPI CALLER PUSH1 0x1 PUSH1 0x40 MLOAD PUSH4 0x45C19949 PUSH1 0xE1 SHL DUP2 MSTORE PUSH1 0x4 ADD PUSH2 0x962 SWAP3 SWAP2 SWAP1 PUSH2 0x4F19 JUMP JUMPDEST PUSH1 0x38 SLOAD PUSH1 0x1 PUSH1 0x1 PUSH1 0xA0 SHL SUB AND PUSH2 0x221F JUMPI PUSH1 0x40 MLOAD PUSH4 0x729A9DFB PUSH1 0xE0 SHL DUP2 MSTORE PUSH1 0x4 ADD PUSH2 0x962 SWAP1 PUSH2 0x4FF4 JUMP JUMPDEST PUSH1 0x38 SLOAD PUSH1 0x40 MLOAD PUSH4 0x2FAE2095 PUSH1 0xE0 SHL DUP2 MSTORE PUSH1 0x1 PUSH1 0x1 PUSH1 0xA0 SHL SUB DUP8 DUP2 AND PUSH1 0x4 DUP4 ADD MSTORE PUSH1 0x24 DUP3 ADD DUP8 SWAP1 MSTORE PUSH1 0x44 DUP3 ADD DUP7 SWAP1 MSTORE SWAP1 SWAP2 AND SWAP1 PUSH4 0x2FAE2095 SWAP1 PUSH1 0x64 ADD PUSH0 PUSH1 0x40 MLOAD DUP1 DUP4 SUB DUP2 DUP7 GAS STATICCALL ISZERO DUP1 ISZERO PUSH2 0x2274 JUMPI RETURNDATASIZE PUSH0 PUSH0 RETURNDATACOPY RETURNDATASIZE PUSH0 REVERT JUMPDEST POP POP POP POP PUSH1 0x40 MLOAD RETURNDATASIZE PUSH0 DUP3 RETURNDATACOPY PUSH1 0x1F RETURNDATASIZE SWAP1 DUP2 ADD PUSH1 0x1F NOT AND DUP3 ADD PUSH1 0x40 MSTORE PUSH2 0x229B SWAP2 SWAP1 DUP2 ADD SWAP1 PUSH2 0x577C JUMP JUMPDEST SWAP2 POP SWAP2 POP SWAP4 POP SWAP4 SWAP2 POP POP JUMP JUMPDEST PUSH2 0x22AF PUSH2 0x3BB1 JUMP JUMPDEST PUSH1 0x36 SLOAD PUSH1 0x1 PUSH1 0x1 PUSH1 0xA0 SHL SUB AND ISZERO PUSH2 0x22D9 JUMPI PUSH1 0x40 MLOAD PUSH4 0x8BF2C4A5 PUSH1 0xE0 SHL DUP2 MSTORE PUSH1 0x4 ADD PUSH2 0x962 SWAP1 PUSH2 0x5286 JUMP JUMPDEST PUSH1 0x35 SLOAD PUSH1 0x40 MLOAD PUSH4 0x54288FAD PUSH1 0xE1 SHL DUP2 MSTORE PUSH1 0x1 PUSH1 0x1 PUSH1 0xA0 SHL SUB SWAP1 SWAP2 AND SWAP1 PUSH4 0xA8511F5A SWAP1 PUSH2 0x2307 SWAP1 PUSH1 0x4 ADD PUSH2 0x5286 JUMP JUMPDEST PUSH1 0x20 PUSH1 0x40 MLOAD DUP1 DUP4 SUB DUP2 PUSH0 DUP8 GAS CALL ISZERO DUP1 ISZERO PUSH2 0x2323 JUMPI RETURNDATASIZE PUSH0 PUSH0 RETURNDATACOPY RETURNDATASIZE PUSH0 REVERT JUMPDEST POP POP POP POP PUSH1 0x40 MLOAD RETURNDATASIZE PUSH1 0x1F NOT PUSH1 0x1F DUP3 ADD AND DUP3 ADD DUP1 PUSH1 0x40 MSTORE POP DUP2 ADD SWAP1 PUSH2 0x2347 SWAP2 SWAP1 PUSH2 0x4E35 JUMP JUMPDEST PUSH1 0x36 DUP1 SLOAD PUSH1 0x1 PUSH1 0x1 PUSH1 0xA0 SHL SUB NOT AND PUSH1 0x1 PUSH1 0x1 PUSH1 0xA0 SHL SUB SWAP3 SWAP1 SWAP3 AND SWAP2 DUP3 OR SWAP1 SSTORE PUSH1 0x40 MLOAD PUSH0 MLOAD PUSH1 0x20 PUSH2 0x5BDB PUSH0 CODECOPY PUSH0 MLOAD SWAP1 PUSH0 MSTORE SWAP2 PUSH2 0xF7A SWAP2 PUSH2 0x5835 JUMP JUMPDEST PUSH1 0x39 SLOAD PUSH0 SWAP1 DUP2 SWAP1 PUSH1 0x1 PUSH1 0x1 PUSH1 0xA0 SHL SUB AND PUSH2 0x23AE JUMPI PUSH1 0x40 MLOAD PUSH4 0x729A9DFB PUSH1 0xE0 SHL DUP2 MSTORE PUSH1 0x4 ADD PUSH2 0x962 SWAP1 PUSH2 0x4F36 JUMP JUMPDEST PUSH1 0x39 SLOAD PUSH1 0x40 MLOAD PUSH4 0xDBE6E13 PUSH1 0xE3 SHL DUP2 MSTORE PUSH1 0x1 PUSH1 0x1 PUSH1 0x80 SHL SUB DUP6 AND PUSH1 0x4 DUP3 ADD MSTORE PUSH1 0x1 PUSH1 0x1 PUSH1 0xA0 SHL SUB SWAP1 SWAP2 AND SWAP1 PUSH4 0x6DF37098 SWAP1 PUSH1 0x24 ADD JUMPDEST PUSH1 0x40 DUP1 MLOAD DUP1 DUP4 SUB DUP2 DUP7 GAS STATICCALL ISZERO DUP1 ISZERO PUSH2 0x23FD JUMPI RETURNDATASIZE PUSH0 PUSH0 RETURNDATACOPY RETURNDATASIZE PUSH0 REVERT JUMPDEST POP POP POP POP PUSH1 0x40 MLOAD RETURNDATASIZE PUSH1 0x1F NOT PUSH1 0x1F DUP3 ADD AND DUP3 ADD DUP1 PUSH1 0x40 MSTORE POP DUP2 ADD SWAP1 PUSH2 0x2421 SWAP2 SWAP1 PUSH2 0x5865 JUMP JUMPDEST SWAP2 POP SWAP2 POP SWAP2 POP SWAP2 JUMP JUMPDEST PUSH2 0x2432 PUSH2 0x3BB1 JUMP JUMPDEST PUSH2 0x243B PUSH0 PUSH2 0x3D71 JUMP JUMPDEST JUMP JUMPDEST PUSH1 0x60 PUSH0 PUSH1 0x2 CALLER PUSH0 SWAP1 DUP2 MSTORE PUSH1 0x32 PUSH1 0x20 MSTORE PUSH1 0x40 SWAP1 KECCAK256 SLOAD PUSH1 0xFF AND PUSH1 0x4 DUP2 GT ISZERO PUSH2 0x2465 JUMPI PUSH2 0x2465 PUSH2 0x42FC JUMP JUMPDEST EQ ISZERO DUP1 ISZERO PUSH2 0x2496 JUMPI POP PUSH1 0x1 CALLER PUSH0 SWAP1 DUP2 MSTORE PUSH1 0x32 PUSH1 0x20 MSTORE PUSH1 0x40 SWAP1 KECCAK256 SLOAD PUSH1 0xFF AND PUSH1 0x4 DUP2 GT ISZERO PUSH2 0x2493 JUMPI PUSH2 0x2493 PUSH2 0x42FC JUMP JUMPDEST EQ ISZERO JUMPDEST DUP1 ISZERO PUSH2 0x24C3 JUMPI POP CALLER PUSH0 SWAP1 DUP2 MSTORE PUSH1 0x32 PUSH1 0x20 MSTORE PUSH1 0x40 DUP2 KECCAK256 SLOAD PUSH1 0xFF AND PUSH1 0x4 DUP2 GT ISZERO PUSH2 0x24C0 JUMPI PUSH2 0x24C0 PUSH2 0x42FC JUMP JUMPDEST EQ ISZERO JUMPDEST ISZERO PUSH2 0x24E6 JUMPI CALLER PUSH1 0x2 PUSH1 0x40 MLOAD PUSH4 0x45C19949 PUSH1 0xE1 SHL DUP2 MSTORE PUSH1 0x4 ADD PUSH2 0x962 SWAP3 SWAP2 SWAP1 PUSH2 0x4F19 JUMP JUMPDEST PUSH1 0x38 SLOAD PUSH1 0x1 PUSH1 0x1 PUSH1 0xA0 SHL SUB AND PUSH2 0x250F JUMPI PUSH1 0x40 MLOAD PUSH4 0x729A9DFB PUSH1 0xE0 SHL DUP2 MSTORE PUSH1 0x4 ADD PUSH2 0x962 SWAP1 PUSH2 0x4FF4 JUMP JUMPDEST PUSH1 0x38 SLOAD PUSH1 0x40 MLOAD PUSH4 0x2FAE2095 PUSH1 0xE0 SHL DUP2 MSTORE CALLER PUSH1 0x4 DUP3 ADD MSTORE PUSH1 0x24 DUP2 ADD DUP7 SWAP1 MSTORE PUSH1 0x44 DUP2 ADD DUP6 SWAP1 MSTORE PUSH1 0x1 PUSH1 0x1 PUSH1 0xA0 SHL SUB SWAP1 SWAP2 AND SWAP1 PUSH4 0x2FAE2095 SWAP1 PUSH1 0x64 ADD PUSH0 PUSH1 0x40 MLOAD DUP1 DUP4 SUB DUP2 DUP7 GAS STATICCALL ISZERO DUP1 ISZERO PUSH2 0x2562 JUMPI RETURNDATASIZE PUSH0 PUSH0 RETURNDATACOPY RETURNDATASIZE PUSH0 REVERT JUMPDEST POP POP POP POP PUSH1 0x40 MLOAD RETURNDATASIZE PUSH0 DUP3 RETURNDATACOPY PUSH1 0x1F RETURNDATASIZE SWAP1 DUP2 ADD PUSH1 0x1F NOT AND DUP3 ADD PUSH1 0x40 MSTORE PUSH2 0x2589 SWAP2 SWAP1 DUP2 ADD SWAP1 PUSH2 0x577C JUMP JUMPDEST SWAP2 POP SWAP2 POP JUMPDEST SWAP3 POP SWAP3 SWAP1 POP JUMP JUMPDEST PUSH1 0x39 SLOAD PUSH1 0x60 SWAP1 PUSH1 0x1 PUSH1 0x1 PUSH1 0xA0 SHL SUB AND PUSH2 0x25C1 JUMPI PUSH1 0x40 MLOAD PUSH4 0x729A9DFB PUSH1 0xE0 SHL DUP2 MSTORE PUSH1 0x4 ADD PUSH2 0x962 SWAP1 PUSH2 0x4F36 JUMP JUMPDEST PUSH1 0x39 SLOAD PUSH1 0x40 MLOAD PUSH4 0x11CA6659 PUSH1 0xE3 SHL DUP2 MSTORE PUSH1 0x1 PUSH1 0x1 PUSH1 0x80 SHL SUB DUP5 AND PUSH1 0x4 DUP3 ADD MSTORE PUSH1 0x1 PUSH1 0x1 PUSH1 0xA0 SHL SUB SWAP1 SWAP2 AND SWAP1 PUSH4 0x8E5332C8 SWAP1 PUSH1 0x24 ADD PUSH0 PUSH1 0x40 MLOAD DUP1 DUP4 SUB DUP2 DUP7 GAS STATICCALL ISZERO DUP1 ISZERO PUSH2 0x260F JUMPI RETURNDATASIZE PUSH0 PUSH0 RETURNDATACOPY RETURNDATASIZE PUSH0 REVERT JUMPDEST POP POP POP POP PUSH1 0x40 MLOAD RETURNDATASIZE PUSH0 DUP3 RETURNDATACOPY PUSH1 0x1F RETURNDATASIZE SWAP1 DUP2 ADD PUSH1 0x1F NOT AND DUP3 ADD PUSH1 0x40 MSTORE PUSH2 0x1062 SWAP2 SWAP1 DUP2 ADD SWAP1 PUSH2 0x5892 JUMP JUMPDEST PUSH1 0x39 SLOAD PUSH0 SWAP1 DUP2 SWAP1 PUSH1 0x1 PUSH1 0x1 PUSH1 0xA0 SHL SUB AND PUSH2 0x2663 JUMPI PUSH1 0x40 MLOAD PUSH4 0x729A9DFB PUSH1 0xE0 SHL DUP2 MSTORE PUSH1 0x4 ADD PUSH2 0x962 SWAP1 PUSH2 0x4F36 JUMP JUMPDEST PUSH1 0x39 SLOAD PUSH1 0x40 MLOAD PUSH4 0x4C746C01 PUSH1 0xE1 SHL DUP2 MSTORE PUSH1 0x1 PUSH1 0x1 PUSH1 0xA0 SHL SUB DUP6 DUP2 AND PUSH1 0x4 DUP4 ADD MSTORE SWAP1 SWAP2 AND SWAP1 PUSH4 0x98E8D802 SWAP1 PUSH1 0x24 ADD PUSH2 0x23E3 JUMP JUMPDEST PUSH0 PUSH1 0x2 CALLER PUSH0 SWAP1 DUP2 MSTORE PUSH1 0x32 PUSH1 0x20 MSTORE PUSH1 0x40 SWAP1 KECCAK256 SLOAD PUSH1 0xFF AND PUSH1 0x4 DUP2 GT ISZERO PUSH2 0x26BB JUMPI PUSH2 0x26BB PUSH2 0x42FC JUMP JUMPDEST EQ ISZERO DUP1 ISZERO PUSH2 0x26EC JUMPI POP PUSH1 0x1 CALLER PUSH0 SWAP1 DUP2 MSTORE PUSH1 0x32 PUSH1 0x20 MSTORE PUSH1 0x40 SWAP1 KECCAK256 SLOAD PUSH1 0xFF AND PUSH1 0x4 DUP2 GT ISZERO PUSH2 0x26E9 JUMPI PUSH2 0x26E9 PUSH2 0x42FC JUMP JUMPDEST EQ ISZERO JUMPDEST DUP1 ISZERO PUSH2 0x2719 JUMPI POP CALLER PUSH0 SWAP1 DUP2 MSTORE PUSH1 0x32 PUSH1 0x20 MSTORE PUSH1 0x40 DUP2 KECCAK256 SLOAD PUSH1 0xFF AND PUSH1 0x4 DUP2 GT ISZERO PUSH2 0x2716 JUMPI PUSH2 0x2716 PUSH2 0x42FC JUMP JUMPDEST EQ ISZERO JUMPDEST ISZERO PUSH2 0x273C JUMPI CALLER PUSH1 0x2 PUSH1 0x40 MLOAD PUSH4 0x45C19949 PUSH1 0xE1 SHL DUP2 MSTORE PUSH1 0x4 ADD PUSH2 0x962 SWAP3 SWAP2 SWAP1 PUSH2 0x4F19 JUMP JUMPDEST PUSH1 0x38 SLOAD PUSH1 0x1 PUSH1 0x1 PUSH1 0xA0 SHL SUB AND PUSH2 0x2765 JUMPI PUSH1 0x40 MLOAD PUSH4 0x729A9DFB PUSH1 0xE0 SHL DUP2 MSTORE PUSH1 0x4 ADD PUSH2 0x962 SWAP1 PUSH2 0x4FF4 JUMP JUMPDEST PUSH1 0x38 SLOAD PUSH1 0x40 MLOAD PUSH4 0x399C62D5 PUSH1 0xE1 SHL DUP2 MSTORE CALLER PUSH1 0x4 DUP3 ADD MSTORE PUSH1 0x1 PUSH1 0x1 PUSH1 0xA0 SHL SUB SWAP1 SWAP2 AND SWAP1 PUSH4 0x7338C5AA SWAP1 PUSH1 0x24 ADD PUSH1 0x20 PUSH1 0x40 MLOAD DUP1 DUP4 SUB DUP2 DUP7 GAS STATICCALL ISZERO DUP1 ISZERO PUSH2 0x27AB JUMPI RETURNDATASIZE PUSH0 PUSH0 RETURNDATACOPY RETURNDATASIZE PUSH0 REVERT JUMPDEST POP POP POP POP PUSH1 0x40 MLOAD RETURNDATASIZE PUSH1 0x1F NOT PUSH1 0x1F DUP3 ADD AND DUP3 ADD DUP1 PUSH1 0x40 MSTORE POP DUP2 ADD SWAP1 PUSH2 0x27CF SWAP2 SWAP1 PUSH2 0x501F JUMP JUMPDEST SWAP1 POP SWAP1 JUMP JUMPDEST PUSH1 0x2 CALLER PUSH0 SWAP1 DUP2 MSTORE PUSH1 0x32 PUSH1 0x20 MSTORE PUSH1 0x40 SWAP1 KECCAK256 SLOAD PUSH1 0xFF AND PUSH1 0x4 DUP2 GT ISZERO PUSH2 0x27F9 JUMPI PUSH2 0x27F9 PUSH2 0x42FC JUMP JUMPDEST EQ ISZERO DUP1 ISZERO PUSH2 0x282A JUMPI POP PUSH1 0x1 CALLER PUSH0 SWAP1 DUP2 MSTORE PUSH1 0x32 PUSH1 0x20 MSTORE PUSH1 0x40 SWAP1 KECCAK256 SLOAD PUSH1 0xFF AND PUSH1 0x4 DUP2 GT ISZERO PUSH2 0x2827 JUMPI PUSH2 0x2827 PUSH2 0x42FC JUMP JUMPDEST EQ ISZERO JUMPDEST DUP1 ISZERO PUSH2 0x2857 JUMPI POP CALLER PUSH0 SWAP1 DUP2 MSTORE PUSH1 0x32 PUSH1 0x20 MSTORE PUSH1 0x40 DUP2 KECCAK256 SLOAD PUSH1 0xFF AND PUSH1 0x4 DUP2 GT ISZERO PUSH2 0x2854 JUMPI PUSH2 0x2854 PUSH2 0x42FC JUMP JUMPDEST EQ ISZERO JUMPDEST ISZERO PUSH2 0x287A JUMPI CALLER PUSH1 0x2 PUSH1 0x40 MLOAD PUSH4 0x45C19949 PUSH1 0xE1 SHL DUP2 MSTORE PUSH1 0x4 ADD PUSH2 0x962 SWAP3 SWAP2 SWAP1 PUSH2 0x4F19 JUMP JUMPDEST PUSH1 0x39 SLOAD PUSH1 0x1 PUSH1 0x1 PUSH1 0xA0 SHL SUB AND PUSH2 0x28A3 JUMPI PUSH1 0x40 MLOAD PUSH4 0x729A9DFB PUSH1 0xE0 SHL DUP2 MSTORE PUSH1 0x4 ADD PUSH2 0x962 SWAP1 PUSH2 0x4F36 JUMP JUMPDEST PUSH1 0x36 SLOAD PUSH1 0x1 PUSH1 0x1 PUSH1 0xA0 SHL SUB AND PUSH2 0x28CC JUMPI PUSH1 0x40 MLOAD PUSH4 0x729A9DFB PUSH1 0xE0 SHL DUP2 MSTORE PUSH1 0x4 ADD PUSH2 0x962 SWAP1 PUSH2 0x5286 JUMP JUMPDEST PUSH1 0x36 SLOAD PUSH1 0x40 MLOAD PUSH4 0xB2A6CB63 PUSH1 0xE0 SHL DUP2 MSTORE PUSH1 0x1 PUSH1 0x1 PUSH1 0x80 SHL SUB DUP7 AND PUSH1 0x4 DUP3 ADD MSTORE PUSH1 0x1 PUSH1 0x1 PUSH1 0xA0 SHL SUB SWAP1 SWAP2 AND SWAP1 PUSH4 0xB2A6CB63 SWAP1 PUSH1 0x24 ADD PUSH1 0x20 PUSH1 0x40 MLOAD DUP1 DUP4 SUB DUP2 DUP7 GAS STATICCALL ISZERO DUP1 ISZERO PUSH2 0x291B JUMPI RETURNDATASIZE PUSH0 PUSH0 RETURNDATACOPY RETURNDATASIZE PUSH0 REVERT JUMPDEST POP POP POP POP PUSH1 0x40 MLOAD RETURNDATASIZE PUSH1 0x1F NOT PUSH1 0x1F DUP3 ADD AND DUP3 ADD DUP1 PUSH1 0x40 MSTORE POP DUP2 ADD SWAP1 PUSH2 0x293F SWAP2 SWAP1 PUSH2 0x4E0F JUMP JUMPDEST PUSH2 0x295C JUMPI PUSH1 0x40 MLOAD PUSH4 0x125A05ED PUSH1 0xE2 SHL DUP2 MSTORE PUSH1 0x4 ADD PUSH1 0x40 MLOAD DUP1 SWAP2 SUB SWAP1 REVERT JUMPDEST PUSH1 0x37 SLOAD PUSH1 0x1 PUSH1 0x1 PUSH1 0xA0 SHL SUB AND PUSH2 0x2985 JUMPI PUSH1 0x40 MLOAD PUSH4 0x729A9DFB PUSH1 0xE0 SHL DUP2 MSTORE PUSH1 0x4 ADD PUSH2 0x962 SWAP1 PUSH2 0x4E50 JUMP JUMPDEST PUSH1 0x37 SLOAD PUSH1 0x40 MLOAD PUSH4 0x18A512D PUSH1 0xE3 SHL DUP2 MSTORE PUSH1 0x1 PUSH1 0x1 PUSH1 0x80 SHL SUB DUP1 DUP8 AND PUSH1 0x4 DUP4 ADD MSTORE DUP6 AND PUSH1 0x24 DUP3 ADD MSTORE PUSH0 SWAP2 PUSH1 0x1 PUSH1 0x1 PUSH1 0xA0 SHL SUB AND SWAP1 PUSH4 0xC528968 SWAP1 PUSH1 0x44 ADD PUSH0 PUSH1 0x40 MLOAD DUP1 DUP4 SUB DUP2 DUP7 GAS STATICCALL ISZERO DUP1 ISZERO PUSH2 0x29DB JUMPI RETURNDATASIZE PUSH0 PUSH0 RETURNDATACOPY RETURNDATASIZE PUSH0 REVERT JUMPDEST POP POP POP POP PUSH1 0x40 MLOAD RETURNDATASIZE PUSH0 DUP3 RETURNDATACOPY PUSH1 0x1F RETURNDATASIZE SWAP1 DUP2 ADD PUSH1 0x1F NOT AND DUP3 ADD PUSH1 0x40 MSTORE PUSH2 0x2A02 SWAP2 SWAP1 DUP2 ADD SWAP1 PUSH2 0x59D4 JUMP JUMPDEST DUP1 MLOAD SWAP1 SWAP2 POP PUSH1 0x1 PUSH1 0x1 PUSH1 0x80 SHL SUB AND PUSH0 SUB PUSH2 0x2A42 JUMPI PUSH1 0x40 MLOAD PUSH4 0xE187DC9 PUSH1 0xE4 SHL DUP2 MSTORE PUSH1 0x1 PUSH1 0x1 PUSH1 0x80 SHL SUB DUP1 DUP8 AND PUSH1 0x4 DUP4 ADD MSTORE DUP6 AND PUSH1 0x24 DUP3 ADD MSTORE PUSH1 0x44 ADD PUSH2 0x962 JUMP JUMPDEST PUSH1 0x39 SLOAD PUSH1 0x40 MLOAD PUSH4 0x73429EC5 PUSH1 0xE1 SHL DUP2 MSTORE PUSH0 SWAP2 DUP3 SWAP2 PUSH1 0x1 PUSH1 0x1 PUSH1 0xA0 SHL SUB SWAP1 SWAP2 AND SWAP1 PUSH4 0xE6853D8A SWAP1 PUSH2 0x2A7E SWAP1 CALLER SWAP1 DUP12 SWAP1 DUP12 SWAP1 DUP12 SWAP1 DUP12 SWAP1 PUSH1 0x4 ADD PUSH2 0x5A05 JUMP JUMPDEST PUSH1 0x40 DUP1 MLOAD DUP1 DUP4 SUB DUP2 PUSH0 DUP8 GAS CALL ISZERO DUP1 ISZERO PUSH2 0x2A99 JUMPI RETURNDATASIZE PUSH0 PUSH0 RETURNDATACOPY RETURNDATASIZE PUSH0 REVERT JUMPDEST POP POP POP POP PUSH1 0x40 MLOAD RETURNDATASIZE PUSH1 0x1F NOT PUSH1 0x1F DUP3 ADD AND DUP3 ADD DUP1 PUSH1 0x40 MSTORE POP DUP2 ADD SWAP1 PUSH2 0x2ABD SWAP2 SWAP1 PUSH2 0x5865 JUMP JUMPDEST PUSH1 0x40 DUP1 MLOAD PUSH2 0x180 DUP2 ADD DUP3 MSTORE PUSH1 0x1 PUSH1 0x1 PUSH1 0x80 SHL SUB DUP1 DUP13 AND DUP3 MSTORE DUP11 DUP2 AND PUSH1 0x20 DUP4 ADD MSTORE DUP8 DUP4 ADD MLOAD DUP3 DUP5 ADD MSTORE PUSH1 0x60 DUP1 DUP10 ADD MLOAD SWAP1 DUP4 ADD MSTORE PUSH1 0x80 DUP1 DUP10 ADD MLOAD SWAP1 DUP4 ADD MSTORE PUSH1 0xA0 DUP1 DUP10 ADD MLOAD DUP3 AND SWAP1 DUP4 ADD MSTORE PUSH1 0xC0 DUP1 DUP10 ADD MLOAD ISZERO ISZERO SWAP1 DUP4 ADD MSTORE PUSH1 0xE0 DUP1 DUP10 ADD MLOAD SWAP1 DUP4 ADD MSTORE PUSH2 0x100 DUP1 DUP10 ADD MLOAD SWAP1 DUP4 ADD MSTORE PUSH2 0x160 DUP1 DUP10 ADD MLOAD DUP3 AND PUSH2 0x120 DUP5 ADD MSTORE DUP2 DUP7 AND PUSH2 0x140 DUP5 ADD MSTORE SWAP1 DUP5 AND SWAP1 DUP3 ADD MSTORE PUSH1 0x37 SLOAD SWAP2 MLOAD PUSH4 0x25147E4F PUSH1 0xE0 SHL DUP2 MSTORE SWAP4 SWAP6 POP SWAP2 SWAP4 POP SWAP1 SWAP2 PUSH1 0x1 PUSH1 0x1 PUSH1 0xA0 SHL SUB SWAP1 SWAP2 AND SWAP1 PUSH4 0x25147E4F SWAP1 PUSH2 0x2B7C SWAP1 DUP5 SWAP1 PUSH1 0x4 ADD PUSH2 0x4B8B JUMP JUMPDEST PUSH0 PUSH1 0x40 MLOAD DUP1 DUP4 SUB DUP2 PUSH0 DUP8 DUP1 EXTCODESIZE ISZERO DUP1 ISZERO PUSH2 0x2B93 JUMPI PUSH0 PUSH0 REVERT JUMPDEST POP GAS CALL ISZERO DUP1 ISZERO PUSH2 0x2BA5 JUMPI RETURNDATASIZE PUSH0 PUSH0 RETURNDATACOPY RETURNDATASIZE PUSH0 REVERT JUMPDEST POP POP POP POP POP POP POP POP POP POP POP POP JUMP JUMPDEST PUSH1 0x34 SLOAD PUSH1 0x1 PUSH1 0x1 PUSH1 0xA0 SHL SUB AND CALLER EQ PUSH2 0x2BDE JUMPI PUSH1 0x40 MLOAD PUSH4 0x1A310541 PUSH1 0xE1 SHL DUP2 MSTORE PUSH1 0x4 ADD PUSH1 0x40 MLOAD DUP1 SWAP2 SUB SWAP1 REVERT JUMPDEST PUSH1 0x3 DUP2 PUSH1 0x4 DUP2 GT ISZERO PUSH2 0x2BF2 JUMPI PUSH2 0x2BF2 PUSH2 0x42FC JUMP JUMPDEST EQ ISZERO DUP1 ISZERO PUSH2 0x2C12 JUMPI POP PUSH1 0x4 DUP2 PUSH1 0x4 DUP2 GT ISZERO PUSH2 0x2C0F JUMPI PUSH2 0x2C0F PUSH2 0x42FC JUMP JUMPDEST EQ ISZERO JUMPDEST ISZERO PUSH2 0x2C34 JUMPI DUP3 DUP2 PUSH1 0x40 MLOAD PUSH4 0x45C19949 PUSH1 0xE1 SHL DUP2 MSTORE PUSH1 0x4 ADD PUSH2 0x962 SWAP3 SWAP2 SWAP1 PUSH2 0x4F19 JUMP JUMPDEST DUP2 PUSH1 0x1 PUSH1 0x1 PUSH1 0x80 SHL SUB AND PUSH0 SUB PUSH2 0x2C5D JUMPI PUSH1 0x40 MLOAD PUSH4 0x34ABFC67 PUSH1 0xE2 SHL DUP2 MSTORE PUSH1 0x4 ADD PUSH1 0x40 MLOAD DUP1 SWAP2 SUB SWAP1 REVERT JUMPDEST PUSH1 0x1 PUSH1 0x1 PUSH1 0xA0 SHL SUB DUP4 AND PUSH0 SWAP1 DUP2 MSTORE PUSH1 0x32 PUSH1 0x20 MSTORE PUSH1 0x40 DUP2 KECCAK256 SLOAD PUSH1 0xFF AND PUSH1 0x4 DUP2 GT ISZERO PUSH2 0x2C89 JUMPI PUSH2 0x2C89 PUSH2 0x42FC JUMP JUMPDEST EQ DUP1 PUSH2 0x2CF8 JUMPI POP PUSH1 0x3 PUSH1 0x1 PUSH1 0x1 PUSH1 0xA0 SHL SUB DUP5 AND PUSH0 SWAP1 DUP2 MSTORE PUSH1 0x32 PUSH1 0x20 MSTORE PUSH1 0x40 SWAP1 KECCAK256 SLOAD PUSH1 0xFF AND PUSH1 0x4 DUP2 GT ISZERO PUSH2 0x2CBE JUMPI PUSH2 0x2CBE PUSH2 0x42FC JUMP JUMPDEST EQ ISZERO DUP1 ISZERO PUSH2 0x2CF8 JUMPI POP PUSH1 0x4 PUSH1 0x1 PUSH1 0x1 PUSH1 0xA0 SHL SUB DUP5 AND PUSH0 SWAP1 DUP2 MSTORE PUSH1 0x32 PUSH1 0x20 MSTORE PUSH1 0x40 SWAP1 KECCAK256 SLOAD PUSH1 0xFF AND PUSH1 0x4 DUP2 GT ISZERO PUSH2 0x2CF5 JUMPI PUSH2 0x2CF5 PUSH2 0x42FC JUMP JUMPDEST EQ ISZERO JUMPDEST ISZERO PUSH2 0x2D6D JUMPI PUSH1 0x1 PUSH1 0x1 PUSH1 0xA0 SHL SUB DUP4 AND PUSH0 SWAP1 DUP2 MSTORE PUSH1 0x32 PUSH1 0x20 MSTORE PUSH1 0x40 SWAP1 KECCAK256 DUP1 SLOAD DUP3 SWAP2 SWAP1 PUSH1 0xFF NOT AND PUSH1 0x1 DUP4 PUSH1 0x4 DUP2 GT ISZERO PUSH2 0x2D31 JUMPI PUSH2 0x2D31 PUSH2 0x42FC JUMP JUMPDEST MUL OR SWAP1 SSTORE POP DUP1 PUSH1 0x4 DUP2 GT ISZERO PUSH2 0x2D48 JUMPI PUSH2 0x2D48 PUSH2 0x42FC JUMP JUMPDEST PUSH1 0x40 MLOAD PUSH1 0x1 PUSH1 0x1 PUSH1 0xA0 SHL SUB DUP6 AND SWAP1 PUSH0 MLOAD PUSH1 0x20 PUSH2 0x5BFB PUSH0 CODECOPY PUSH0 MLOAD SWAP1 PUSH0 MSTORE SWAP1 PUSH0 SWAP1 LOG3 PUSH2 0x2E1C JUMP JUMPDEST DUP1 PUSH1 0x4 DUP2 GT ISZERO PUSH2 0x2D7F JUMPI PUSH2 0x2D7F PUSH2 0x42FC JUMP JUMPDEST PUSH1 0x1 PUSH1 0x1 PUSH1 0xA0 SHL SUB DUP5 AND PUSH0 SWAP1 DUP2 MSTORE PUSH1 0x32 PUSH1 0x20 MSTORE PUSH1 0x40 SWAP1 KECCAK256 SLOAD PUSH1 0xFF AND PUSH1 0x4 DUP2 GT ISZERO PUSH2 0x2DAB JUMPI PUSH2 0x2DAB PUSH2 0x42FC JUMP JUMPDEST EQ PUSH2 0x2E1C JUMPI PUSH1 0x1 PUSH1 0x1 PUSH1 0xA0 SHL SUB DUP4 AND PUSH0 SWAP1 DUP2 MSTORE PUSH1 0x32 PUSH1 0x20 MSTORE PUSH1 0x40 SWAP1 KECCAK256 DUP1 SLOAD DUP3 SWAP2 SWAP1 PUSH1 0xFF NOT AND PUSH1 0x1 DUP4 PUSH1 0x4 DUP2 GT ISZERO PUSH2 0x2DE4 JUMPI PUSH2 0x2DE4 PUSH2 0x42FC JUMP JUMPDEST MUL OR SWAP1 SSTORE POP DUP1 PUSH1 0x4 DUP2 GT ISZERO PUSH2 0x2DFB JUMPI PUSH2 0x2DFB PUSH2 0x42FC JUMP JUMPDEST PUSH1 0x40 MLOAD PUSH1 0x1 PUSH1 0x1 PUSH1 0xA0 SHL SUB DUP6 AND SWAP1 PUSH0 MLOAD PUSH1 0x20 PUSH2 0x5BFB PUSH0 CODECOPY PUSH0 MLOAD SWAP1 PUSH0 MSTORE SWAP1 PUSH0 SWAP1 LOG3 JUMPDEST PUSH1 0x1 PUSH1 0x1 PUSH1 0xA0 SHL SUB DUP4 AND PUSH0 DUP2 DUP2 MSTORE PUSH1 0x33 PUSH1 0x20 SWAP1 DUP2 MSTORE PUSH1 0x40 DUP1 DUP4 KECCAK256 PUSH1 0x1 PUSH1 0x1 PUSH1 0x80 SHL SUB DUP8 AND DUP1 DUP6 MSTORE SWAP3 MSTORE DUP1 DUP4 KECCAK256 DUP1 SLOAD PUSH1 0xFF NOT AND PUSH1 0x1 OR SWAP1 SSTORE MLOAD SWAP1 SWAP3 SWAP2 PUSH32 0xA7A040419689AC3001A2B7E46B4CC55AA49833559239A3D51E72E097CD28A98F SWAP2 LOG3 POP POP POP JUMP JUMPDEST PUSH1 0x36 SLOAD PUSH0 SWAP1 PUSH1 0x1 PUSH1 0x1 PUSH1 0xA0 SHL SUB AND PUSH2 0x2EAA JUMPI PUSH1 0x40 MLOAD PUSH4 0x729A9DFB PUSH1 0xE0 SHL DUP2 MSTORE PUSH1 0x4 ADD PUSH2 0x962 SWAP1 PUSH2 0x5286 JUMP JUMPDEST PUSH1 0x36 SLOAD PUSH1 0x40 MLOAD PUSH4 0xB9588327 PUSH1 0xE0 SHL DUP2 MSTORE PUSH1 0x1 PUSH1 0x1 PUSH1 0x80 SHL SUB DUP5 AND PUSH1 0x4 DUP3 ADD MSTORE PUSH1 0x1 PUSH1 0x1 PUSH1 0xA0 SHL SUB SWAP1 SWAP2 AND SWAP1 PUSH4 0xB9588327 SWAP1 PUSH1 0x24 ADD PUSH1 0x20 PUSH1 0x40 MLOAD DUP1 DUP4 SUB DUP2 DUP7 GAS STATICCALL ISZERO DUP1 ISZERO PUSH2 0x2EF9 JUMPI RETURNDATASIZE PUSH0 PUSH0 RETURNDATACOPY RETURNDATASIZE PUSH0 REVERT JUMPDEST POP POP POP POP PUSH1 0x40 MLOAD RETURNDATASIZE PUSH1 0x1F NOT PUSH1 0x1F DUP3 ADD AND DUP3 ADD DUP1 PUSH1 0x40 MSTORE POP DUP2 ADD SWAP1 PUSH2 0x1062 SWAP2 SWAP1 PUSH2 0x4E35 JUMP JUMPDEST PUSH1 0x1 CALLER PUSH0 SWAP1 DUP2 MSTORE PUSH1 0x32 PUSH1 0x20 MSTORE PUSH1 0x40 SWAP1 KECCAK256 SLOAD PUSH1 0xFF AND PUSH1 0x4 DUP2 GT ISZERO PUSH2 0x2F42 JUMPI PUSH2 0x2F42 PUSH2 0x42FC JUMP JUMPDEST EQ PUSH2 0x2F65 JUMPI CALLER PUSH1 0x1 PUSH1 0x40 MLOAD PUSH4 0x45C19949 PUSH1 0xE1 SHL DUP2 MSTORE PUSH1 0x4 ADD PUSH2 0x962 SWAP3 SWAP2 SWAP1 PUSH2 0x4F19 JUMP JUMPDEST PUSH1 0x36 SLOAD PUSH1 0x1 PUSH1 0x1 PUSH1 0xA0 SHL SUB AND PUSH2 0x2F8E JUMPI PUSH1 0x40 MLOAD PUSH4 0x729A9DFB PUSH1 0xE0 SHL DUP2 MSTORE PUSH1 0x4 ADD PUSH2 0x962 SWAP1 PUSH2 0x5286 JUMP JUMPDEST PUSH1 0x36 SLOAD PUSH1 0x40 MLOAD PUSH4 0xB2A6CB63 PUSH1 0xE0 SHL DUP2 MSTORE PUSH1 0x1 PUSH1 0x1 PUSH1 0x80 SHL SUB DUP4 AND PUSH1 0x4 DUP3 ADD MSTORE PUSH1 0x1 PUSH1 0x1 PUSH1 0xA0 SHL SUB SWAP1 SWAP2 AND SWAP1 PUSH4 0xB2A6CB63 SWAP1 PUSH1 0x24 ADD PUSH1 0x20 PUSH1 0x40 MLOAD DUP1 DUP4 SUB DUP2 DUP7 GAS STATICCALL ISZERO DUP1 ISZERO PUSH2 0x2FDD JUMPI RETURNDATASIZE PUSH0 PUSH0 RETURNDATACOPY RETURNDATASIZE PUSH0 REVERT JUMPDEST POP POP POP POP PUSH1 0x40 MLOAD RETURNDATASIZE PUSH1 0x1F NOT PUSH1 0x1F DUP3 ADD AND DUP3 ADD DUP1 PUSH1 0x40 MSTORE POP DUP2 ADD SWAP1 PUSH2 0x3001 SWAP2 SWAP1 PUSH2 0x4E0F JUMP JUMPDEST PUSH2 0x301E JUMPI PUSH1 0x40 MLOAD PUSH4 0x125A05ED PUSH1 0xE2 SHL DUP2 MSTORE PUSH1 0x4 ADD PUSH1 0x40 MLOAD DUP1 SWAP2 SUB SWAP1 REVERT JUMPDEST PUSH2 0x200F DUP3 DUP3 PUSH2 0x8D5 JUMP JUMPDEST PUSH2 0x3030 PUSH2 0x3BB1 JUMP JUMPDEST PUSH1 0x39 SLOAD PUSH1 0x1 PUSH1 0x1 PUSH1 0xA0 SHL SUB AND ISZERO PUSH2 0x305A JUMPI PUSH1 0x40 MLOAD PUSH4 0x8BF2C4A5 PUSH1 0xE0 SHL DUP2 MSTORE PUSH1 0x4 ADD PUSH2 0x962 SWAP1 PUSH2 0x4F36 JUMP JUMPDEST PUSH1 0x36 SLOAD PUSH1 0x1 PUSH1 0x1 PUSH1 0xA0 SHL SUB AND PUSH2 0x3083 JUMPI PUSH1 0x40 MLOAD PUSH4 0x7271502F PUSH1 0xE1 SHL DUP2 MSTORE PUSH1 0x4 ADD PUSH2 0x962 SWAP1 PUSH2 0x5286 JUMP JUMPDEST PUSH1 0x37 SLOAD PUSH1 0x1 PUSH1 0x1 PUSH1 0xA0 SHL SUB AND PUSH2 0x30AC JUMPI PUSH1 0x40 MLOAD PUSH4 0x7271502F PUSH1 0xE1 SHL DUP2 MSTORE PUSH1 0x4 ADD PUSH2 0x962 SWAP1 PUSH2 0x4E50 JUMP JUMPDEST PUSH1 0x35 SLOAD PUSH1 0x40 MLOAD PUSH4 0x54288FAD PUSH1 0xE1 SHL DUP2 MSTORE PUSH1 0x1 PUSH1 0x1 PUSH1 0xA0 SHL SUB SWAP1 SWAP2 AND SWAP1 PUSH4 0xA8511F5A SWAP1 PUSH2 0x30DA SWAP1 PUSH1 0x4 ADD PUSH2 0x4F36 JUMP JUMPDEST PUSH1 0x20 PUSH1 0x40 MLOAD DUP1 DUP4 SUB DUP2 PUSH0 DUP8 GAS CALL ISZERO DUP1 ISZERO PUSH2 0x30F6 JUMPI RETURNDATASIZE PUSH0 PUSH0 RETURNDATACOPY RETURNDATASIZE PUSH0 REVERT JUMPDEST POP POP POP POP PUSH1 0x40 MLOAD RETURNDATASIZE PUSH1 0x1F NOT PUSH1 0x1F DUP3 ADD AND DUP3 ADD DUP1 PUSH1 0x40 MSTORE POP DUP2 ADD SWAP1 PUSH2 0x311A SWAP2 SWAP1 PUSH2 0x4E35 JUMP JUMPDEST PUSH1 0x39 DUP1 SLOAD PUSH1 0x1 PUSH1 0x1 PUSH1 0xA0 SHL SUB NOT AND PUSH1 0x1 PUSH1 0x1 PUSH1 0xA0 SHL SUB SWAP3 SWAP1 SWAP3 AND SWAP2 DUP3 OR SWAP1 SSTORE PUSH1 0x40 MLOAD PUSH0 MLOAD PUSH1 0x20 PUSH2 0x5BDB PUSH0 CODECOPY PUSH0 MLOAD SWAP1 PUSH0 MSTORE SWAP2 PUSH2 0xF7A SWAP2 PUSH2 0x5A48 JUMP JUMPDEST PUSH1 0x40 DUP1 MLOAD PUSH2 0x180 DUP2 ADD DUP3 MSTORE PUSH0 DUP1 DUP3 MSTORE PUSH1 0x20 DUP3 ADD DUP2 SWAP1 MSTORE PUSH1 0x60 SWAP3 DUP3 ADD DUP4 SWAP1 MSTORE DUP3 DUP3 ADD DUP4 SWAP1 MSTORE PUSH1 0x80 DUP3 ADD DUP4 SWAP1 MSTORE PUSH1 0xA0 DUP3 ADD DUP2 SWAP1 MSTORE PUSH1 0xC0 DUP3 ADD DUP2 SWAP1 MSTORE PUSH1 0xE0 DUP3 ADD DUP4 SWAP1 MSTORE PUSH2 0x100 DUP3 ADD SWAP3 SWAP1 SWAP3 MSTORE PUSH2 0x120 DUP2 ADD DUP3 SWAP1 MSTORE PUSH2 0x140 DUP2 ADD DUP3 SWAP1 MSTORE PUSH2 0x160 DUP2 ADD SWAP2 SWAP1 SWAP2 MSTORE PUSH1 0x37 SLOAD PUSH1 0x1 PUSH1 0x1 PUSH1 0xA0 SHL SUB AND PUSH2 0x31DF JUMPI PUSH1 0x40 MLOAD PUSH4 0x729A9DFB PUSH1 0xE0 SHL DUP2 MSTORE PUSH1 0x4 ADD PUSH2 0x962 SWAP1 PUSH2 0x4E50 JUMP JUMPDEST PUSH1 0x37 SLOAD PUSH1 0x40 MLOAD PUSH4 0x18A512D PUSH1 0xE3 SHL DUP2 MSTORE PUSH1 0x1 PUSH1 0x1 PUSH1 0x80 SHL SUB DUP1 DUP7 AND PUSH1 0x4 DUP4 ADD MSTORE DUP5 AND PUSH1 0x24 DUP3 ADD MSTORE PUSH1 0x1 PUSH1 0x1 PUSH1 0xA0 SHL SUB SWAP1 SWAP2 AND SWAP1 PUSH4 0xC528968 SWAP1 PUSH1 0x44 ADD PUSH0 PUSH1 0x40 MLOAD DUP1 DUP4 SUB DUP2 DUP7 GAS STATICCALL ISZERO DUP1 ISZERO PUSH2 0x3235 JUMPI RETURNDATASIZE PUSH0 PUSH0 RETURNDATACOPY RETURNDATASIZE PUSH0 REVERT JUMPDEST POP POP POP POP PUSH1 0x40 MLOAD RETURNDATASIZE PUSH0 DUP3 RETURNDATACOPY PUSH1 0x1F RETURNDATASIZE SWAP1 DUP2 ADD PUSH1 0x1F NOT AND DUP3 ADD PUSH1 0x40 MSTORE PUSH2 0x325C SWAP2 SWAP1 DUP2 ADD SWAP1 PUSH2 0x59D4 JUMP JUMPDEST SWAP1 POP JUMPDEST SWAP3 SWAP2 POP POP JUMP JUMPDEST PUSH0 PUSH1 0x1 CALLER PUSH0 SWAP1 DUP2 MSTORE PUSH1 0x32 PUSH1 0x20 MSTORE PUSH1 0x40 SWAP1 KECCAK256 SLOAD PUSH1 0xFF AND PUSH1 0x4 DUP2 GT ISZERO PUSH2 0x328B JUMPI PUSH2 0x328B PUSH2 0x42FC JUMP JUMPDEST EQ SWAP1 POP PUSH0 PUSH1 0x2 CALLER PUSH0 SWAP1 DUP2 MSTORE PUSH1 0x32 PUSH1 0x20 MSTORE PUSH1 0x40 SWAP1 KECCAK256 SLOAD PUSH1 0xFF AND PUSH1 0x4 DUP2 GT ISZERO PUSH2 0x32B4 JUMPI PUSH2 0x32B4 PUSH2 0x42FC JUMP JUMPDEST EQ SWAP1 POP DUP2 ISZERO DUP1 ISZERO PUSH2 0x32C3 JUMPI POP DUP1 ISZERO JUMPDEST ISZERO PUSH2 0x3345 JUMPI CALLER PUSH0 SWAP1 DUP2 MSTORE PUSH1 0x32 PUSH1 0x20 MSTORE PUSH1 0x40 DUP2 KECCAK256 SLOAD PUSH1 0xFF AND PUSH1 0x4 DUP2 GT ISZERO PUSH2 0x32EB JUMPI PUSH2 0x32EB PUSH2 0x42FC JUMP JUMPDEST SUB PUSH2 0x332C JUMPI PUSH2 0x32FB CALLER PUSH1 0x2 PUSH2 0x3DE1 JUMP JUMPDEST PUSH1 0x2 PUSH1 0x40 MLOAD CALLER SWAP1 PUSH32 0x5926935DE1A61DB7D72B9866401A45C62948E03020AC97CC0AE07A7B19F421ED SWAP1 PUSH0 SWAP1 LOG3 PUSH2 0x3345 JUMP JUMPDEST PUSH1 0x40 MLOAD PUSH4 0x31F73E85 PUSH1 0xE0 SHL DUP2 MSTORE PUSH1 0x4 ADD PUSH1 0x40 MLOAD DUP1 SWAP2 SUB SWAP1 REVERT JUMPDEST PUSH2 0x334D PUSH2 0x3C0C JUMP JUMPDEST PUSH1 0x38 SLOAD PUSH1 0x1 PUSH1 0x1 PUSH1 0xA0 SHL SUB AND PUSH2 0x3376 JUMPI PUSH1 0x40 MLOAD PUSH4 0x729A9DFB PUSH1 0xE0 SHL DUP2 MSTORE PUSH1 0x4 ADD PUSH2 0x962 SWAP1 PUSH2 0x4FF4 JUMP JUMPDEST PUSH1 0x37 SLOAD PUSH1 0x1 PUSH1 0x1 PUSH1 0xA0 SHL SUB AND PUSH2 0x339F JUMPI PUSH1 0x40 MLOAD PUSH4 0x729A9DFB PUSH1 0xE0 SHL DUP2 MSTORE PUSH1 0x4 ADD PUSH2 0x962 SWAP1 PUSH2 0x4E50 JUMP JUMPDEST PUSH1 0x36 SLOAD PUSH1 0x1 PUSH1 0x1 PUSH1 0xA0 SHL SUB AND ISZERO DUP1 PUSH2 0x3427 JUMPI POP PUSH1 0x36 SLOAD PUSH1 0x40 MLOAD PUSH4 0xB2A6CB63 PUSH1 0xE0 SHL DUP2 MSTORE PUSH1 0x1 PUSH1 0x1 PUSH1 0x80 SHL SUB DUP8 AND PUSH1 0x4 DUP3 ADD MSTORE PUSH1 0x1 PUSH1 0x1 PUSH1 0xA0 SHL SUB SWAP1 SWAP2 AND SWAP1 PUSH4 0xB2A6CB63 SWAP1 PUSH1 0x24 ADD PUSH1 0x20 PUSH1 0x40 MLOAD DUP1 DUP4 SUB DUP2 DUP7 GAS STATICCALL ISZERO DUP1 ISZERO PUSH2 0x3401 JUMPI RETURNDATASIZE PUSH0 PUSH0 RETURNDATACOPY RETURNDATASIZE PUSH0 REVERT JUMPDEST POP POP POP POP PUSH1 0x40 MLOAD RETURNDATASIZE PUSH1 0x1F NOT PUSH1 0x1F DUP3 ADD AND DUP3 ADD DUP1 PUSH1 0x40 MSTORE POP DUP2 ADD SWAP1 PUSH2 0x3425 SWAP2 SWAP1 PUSH2 0x4E0F JUMP JUMPDEST ISZERO JUMPDEST ISZERO PUSH2 0x3445 JUMPI PUSH1 0x40 MLOAD PUSH4 0x125A05ED PUSH1 0xE2 SHL DUP2 MSTORE PUSH1 0x4 ADD PUSH1 0x40 MLOAD DUP1 SWAP2 SUB SWAP1 REVERT JUMPDEST PUSH0 JUMPDEST DUP5 MLOAD DUP2 LT ISZERO PUSH2 0x35EC JUMPI PUSH1 0x37 SLOAD DUP6 MLOAD PUSH0 SWAP2 PUSH1 0x1 PUSH1 0x1 PUSH1 0xA0 SHL SUB AND SWAP1 PUSH4 0xC528968 SWAP1 DUP10 SWAP1 DUP10 SWAP1 DUP7 SWAP1 DUP2 LT PUSH2 0x347B JUMPI PUSH2 0x347B PUSH2 0x5A74 JUMP JUMPDEST PUSH1 0x20 MUL PUSH1 0x20 ADD ADD MLOAD PUSH1 0x40 MLOAD DUP4 PUSH4 0xFFFFFFFF AND PUSH1 0xE0 SHL DUP2 MSTORE PUSH1 0x4 ADD PUSH2 0x34B5 SWAP3 SWAP2 SWAP1 PUSH1 0x1 PUSH1 0x1 PUSH1 0x80 SHL SUB SWAP3 DUP4 AND DUP2 MSTORE SWAP2 AND PUSH1 0x20 DUP3 ADD MSTORE PUSH1 0x40 ADD SWAP1 JUMP JUMPDEST PUSH0 PUSH1 0x40 MLOAD DUP1 DUP4 SUB DUP2 DUP7 GAS STATICCALL ISZERO DUP1 ISZERO PUSH2 0x34CF JUMPI RETURNDATASIZE PUSH0 PUSH0 RETURNDATACOPY RETURNDATASIZE PUSH0 REVERT JUMPDEST POP POP POP POP PUSH1 0x40 MLOAD RETURNDATASIZE PUSH0 DUP3 RETURNDATACOPY PUSH1 0x1F RETURNDATASIZE SWAP1 DUP2 ADD PUSH1 0x1F NOT AND DUP3 ADD PUSH1 0x40 MSTORE PUSH2 0x34F6 SWAP2 SWAP1 DUP2 ADD SWAP1 PUSH2 0x59D4 JUMP JUMPDEST DUP1 MLOAD SWAP1 SWAP2 POP PUSH1 0x1 PUSH1 0x1 PUSH1 0x80 SHL SUB AND PUSH0 SUB PUSH2 0x3555 JUMPI DUP7 DUP7 DUP4 DUP2 MLOAD DUP2 LT PUSH2 0x351D JUMPI PUSH2 0x351D PUSH2 0x5A74 JUMP JUMPDEST PUSH1 0x20 MUL PUSH1 0x20 ADD ADD MLOAD PUSH1 0x40 MLOAD PUSH4 0xE187DC9 PUSH1 0xE4 SHL DUP2 MSTORE PUSH1 0x4 ADD PUSH2 0x962 SWAP3 SWAP2 SWAP1 PUSH1 0x1 PUSH1 0x1 PUSH1 0x80 SHL SUB SWAP3 DUP4 AND DUP2 MSTORE SWAP2 AND PUSH1 0x20 DUP3 ADD MSTORE PUSH1 0x40 ADD SWAP1 JUMP JUMPDEST DUP1 PUSH1 0xC0 ADD MLOAD PUSH2 0x35A1 JUMPI DUP6 DUP3 DUP2 MLOAD DUP2 LT PUSH2 0x3570 JUMPI PUSH2 0x3570 PUSH2 0x5A74 JUMP JUMPDEST PUSH1 0x20 MUL PUSH1 0x20 ADD ADD MLOAD PUSH1 0x40 MLOAD PUSH4 0x13F64081 PUSH1 0xE2 SHL DUP2 MSTORE PUSH1 0x4 ADD PUSH2 0x962 SWAP2 SWAP1 PUSH1 0x1 PUSH1 0x1 PUSH1 0x80 SHL SUB SWAP2 SWAP1 SWAP2 AND DUP2 MSTORE PUSH1 0x20 ADD SWAP1 JUMP JUMPDEST DUP5 DUP3 DUP2 MLOAD DUP2 LT PUSH2 0x35B3 JUMPI PUSH2 0x35B3 PUSH2 0x5A74 JUMP JUMPDEST PUSH1 0x20 MUL PUSH1 0x20 ADD ADD MLOAD PUSH1 0x1 PUSH1 0x1 PUSH1 0x80 SHL SUB AND PUSH0 SUB PUSH2 0x35E3 JUMPI PUSH1 0x40 MLOAD PUSH4 0x344343D1 PUSH1 0xE0 SHL DUP2 MSTORE PUSH1 0x4 ADD PUSH1 0x40 MLOAD DUP1 SWAP2 SUB SWAP1 REVERT JUMPDEST POP PUSH1 0x1 ADD PUSH2 0x3447 JUMP JUMPDEST POP PUSH1 0x38 SLOAD PUSH1 0x40 MLOAD PUSH4 0xC60C14D9 PUSH1 0xE0 SHL DUP2 MSTORE PUSH1 0x1 PUSH1 0x1 PUSH1 0xA0 SHL SUB SWAP1 SWAP2 AND SWAP1 PUSH4 0xC60C14D9 SWAP1 CALLVALUE SWAP1 PUSH2 0x3625 SWAP1 CALLER SWAP1 DUP11 SWAP1 DUP11 SWAP1 DUP11 SWAP1 PUSH1 0x4 ADD PUSH2 0x5A88 JUMP JUMPDEST PUSH0 PUSH1 0x40 MLOAD DUP1 DUP4 SUB DUP2 DUP6 DUP9 DUP1 EXTCODESIZE ISZERO DUP1 ISZERO PUSH2 0x363C JUMPI PUSH0 PUSH0 REVERT JUMPDEST POP GAS CALL ISZERO DUP1 ISZERO PUSH2 0x364E JUMPI RETURNDATASIZE PUSH0 PUSH0 RETURNDATACOPY RETURNDATASIZE PUSH0 REVERT JUMPDEST POP POP POP POP POP PUSH2 0x365C PUSH1 0x1 PUSH0 SSTORE JUMP JUMPDEST POP POP POP POP POP JUMP JUMPDEST PUSH2 0x366B PUSH2 0x3BB1 JUMP JUMPDEST PUSH1 0x3A SLOAD PUSH1 0x1 PUSH1 0x1 PUSH1 0xA0 SHL SUB AND ISZERO PUSH2 0x3695 JUMPI PUSH1 0x40 MLOAD PUSH4 0x8BF2C4A5 PUSH1 0xE0 SHL DUP2 MSTORE PUSH1 0x4 ADD PUSH2 0x962 SWAP1 PUSH2 0x5ACC JUMP JUMPDEST PUSH1 0x35 SLOAD PUSH1 0x1 PUSH1 0x1 PUSH1 0xA0 SHL SUB AND PUSH2 0x36BE JUMPI PUSH1 0x40 MLOAD PUSH4 0xBDD68C1 PUSH1 0xE1 SHL DUP2 MSTORE PUSH1 0x4 ADD PUSH1 0x40 MLOAD DUP1 SWAP2 SUB SWAP1 REVERT JUMPDEST PUSH1 0x35 SLOAD PUSH1 0x40 MLOAD PUSH4 0x54288FAD PUSH1 0xE1 SHL DUP2 MSTORE PUSH1 0x1 PUSH1 0x1 PUSH1 0xA0 SHL SUB SWAP1 SWAP2 AND SWAP1 PUSH4 0xA8511F5A SWAP1 PUSH2 0x36EC SWAP1 PUSH1 0x4 ADD PUSH2 0x5ACC JUMP JUMPDEST PUSH1 0x20 PUSH1 0x40 MLOAD DUP1 DUP4 SUB DUP2 PUSH0 DUP8 GAS CALL ISZERO DUP1 ISZERO PUSH2 0x3708 JUMPI RETURNDATASIZE PUSH0 PUSH0 RETURNDATACOPY RETURNDATASIZE PUSH0 REVERT JUMPDEST POP POP POP POP PUSH1 0x40 MLOAD RETURNDATASIZE PUSH1 0x1F NOT PUSH1 0x1F DUP3 ADD AND DUP3 ADD DUP1 PUSH1 0x40 MSTORE POP DUP2 ADD SWAP1 PUSH2 0x372C SWAP2 SWAP1 PUSH2 0x4E35 JUMP JUMPDEST PUSH1 0x3A DUP1 SLOAD PUSH1 0x1 PUSH1 0x1 PUSH1 0xA0 SHL SUB NOT AND PUSH1 0x1 PUSH1 0x1 PUSH1 0xA0 SHL SUB SWAP3 SWAP1 SWAP3 AND SWAP2 DUP3 OR SWAP1 SSTORE PUSH1 0x40 MLOAD PUSH0 MLOAD PUSH1 0x20 PUSH2 0x5BDB PUSH0 CODECOPY PUSH0 MLOAD SWAP1 PUSH0 MSTORE SWAP2 PUSH2 0xF7A SWAP2 PUSH2 0x5AFD JUMP JUMPDEST PUSH1 0x1 CALLER PUSH0 SWAP1 DUP2 MSTORE PUSH1 0x32 PUSH1 0x20 MSTORE PUSH1 0x40 SWAP1 KECCAK256 SLOAD PUSH1 0xFF AND PUSH1 0x4 DUP2 GT ISZERO PUSH2 0x378B JUMPI PUSH2 0x378B PUSH2 0x42FC JUMP JUMPDEST EQ PUSH2 0x37AE JUMPI CALLER PUSH1 0x1 PUSH1 0x40 MLOAD PUSH4 0x45C19949 PUSH1 0xE1 SHL DUP2 MSTORE PUSH1 0x4 ADD PUSH2 0x962 SWAP3 SWAP2 SWAP1 PUSH2 0x4F19 JUMP JUMPDEST PUSH2 0x37B8 DUP3 DUP3 PUSH2 0x3DE1 JUMP JUMPDEST DUP1 PUSH1 0x4 DUP2 GT ISZERO PUSH2 0x37CA JUMPI PUSH2 0x37CA PUSH2 0x42FC JUMP JUMPDEST PUSH1 0x40 MLOAD PUSH1 0x1 PUSH1 0x1 PUSH1 0xA0 SHL SUB DUP5 AND SWAP1 PUSH32 0x5926935DE1A61DB7D72B9866401A45C62948E03020AC97CC0AE07A7B19F421ED SWAP1 PUSH0 SWAP1 LOG3 POP POP JUMP JUMPDEST PUSH1 0x1 CALLER PUSH0 SWAP1 DUP2 MSTORE PUSH1 0x32 PUSH1 0x20 MSTORE PUSH1 0x40 SWAP1 KECCAK256 SLOAD PUSH1 0xFF AND PUSH1 0x4 DUP2 GT ISZERO PUSH2 0x3826 JUMPI PUSH2 0x3826 PUSH2 0x42FC JUMP JUMPDEST EQ PUSH2 0x3849 JUMPI CALLER PUSH1 0x1 PUSH1 0x40 MLOAD PUSH4 0x45C19949 PUSH1 0xE1 SHL DUP2 MSTORE PUSH1 0x4 ADD PUSH2 0x962 SWAP3 SWAP2 SWAP1 PUSH2 0x4F19 JUMP JUMPDEST PUSH1 0x36 SLOAD PUSH1 0x1 PUSH1 0x1 PUSH1 0xA0 SHL SUB AND PUSH2 0x3872 JUMPI PUSH1 0x40 MLOAD PUSH4 0x729A9DFB PUSH1 0xE0 SHL DUP2 MSTORE PUSH1 0x4 ADD PUSH2 0x962 SWAP1 PUSH2 0x5286 JUMP JUMPDEST PUSH1 0x36 SLOAD PUSH1 0x40 MLOAD PUSH4 0xB2A6CB63 PUSH1 0xE0 SHL DUP2 MSTORE PUSH1 0x1 PUSH1 0x1 PUSH1 0x80 SHL SUB DUP13 AND PUSH1 0x4 DUP3 ADD MSTORE PUSH1 0x1 PUSH1 0x1 PUSH1 0xA0 SHL SUB SWAP1 SWAP2 AND SWAP1 PUSH4 0xB2A6CB63 SWAP1 PUSH1 0x24 ADD PUSH1 0x20 PUSH1 0x40 MLOAD DUP1 DUP4 SUB DUP2 DUP7 GAS STATICCALL ISZERO DUP1 ISZERO PUSH2 0x38C1 JUMPI RETURNDATASIZE PUSH0 PUSH0 RETURNDATACOPY RETURNDATASIZE PUSH0 REVERT JUMPDEST POP POP POP POP PUSH1 0x40 MLOAD RETURNDATASIZE PUSH1 0x1F NOT PUSH1 0x1F DUP3 ADD AND DUP3 ADD DUP1 PUSH1 0x40 MSTORE POP DUP2 ADD SWAP1 PUSH2 0x38E5 SWAP2 SWAP1 PUSH2 0x4E0F JUMP JUMPDEST PUSH2 0x3902 JUMPI PUSH1 0x40 MLOAD PUSH4 0x125A05ED PUSH1 0xE2 SHL DUP2 MSTORE PUSH1 0x4 ADD PUSH1 0x40 MLOAD DUP1 SWAP2 SUB SWAP1 REVERT JUMPDEST PUSH1 0x3 DUP10 PUSH1 0x4 DUP2 GT ISZERO PUSH2 0x3916 JUMPI PUSH2 0x3916 PUSH2 0x42FC JUMP JUMPDEST EQ ISZERO DUP1 ISZERO PUSH2 0x3936 JUMPI POP PUSH1 0x4 DUP10 PUSH1 0x4 DUP2 GT ISZERO PUSH2 0x3933 JUMPI PUSH2 0x3933 PUSH2 0x42FC JUMP JUMPDEST EQ ISZERO JUMPDEST ISZERO PUSH2 0x3954 JUMPI PUSH1 0x40 MLOAD PUSH4 0x31F73E85 PUSH1 0xE0 SHL DUP2 MSTORE PUSH1 0x4 ADD PUSH1 0x40 MLOAD DUP1 SWAP2 SUB SWAP1 REVERT JUMPDEST PUSH1 0x1 PUSH1 0x1 PUSH1 0xA0 SHL SUB DUP12 AND PUSH2 0x397B JUMPI PUSH1 0x40 MLOAD PUSH4 0x6361F05 PUSH1 0xE0 SHL DUP2 MSTORE PUSH1 0x4 ADD PUSH1 0x40 MLOAD DUP1 SWAP2 SUB SWAP1 REVERT JUMPDEST PUSH1 0x3A SLOAD PUSH1 0x1 PUSH1 0x1 PUSH1 0xA0 SHL SUB AND PUSH2 0x39A4 JUMPI PUSH1 0x40 MLOAD PUSH4 0xFD531DAD PUSH1 0xE0 SHL DUP2 MSTORE PUSH1 0x4 ADD PUSH1 0x40 MLOAD DUP1 SWAP2 SUB SWAP1 REVERT JUMPDEST PUSH1 0x3A SLOAD PUSH1 0x40 MLOAD PUSH4 0x8D6E799 PUSH1 0xE1 SHL DUP2 MSTORE PUSH1 0x1 PUSH1 0x1 PUSH1 0xA0 SHL SUB SWAP1 SWAP2 AND SWAP1 PUSH4 0x11ADCF32 SWAP1 PUSH2 0x39E4 SWAP1 DUP15 SWAP1 DUP13 SWAP1 DUP13 SWAP1 DUP13 SWAP1 DUP13 SWAP1 DUP13 SWAP1 DUP13 SWAP1 DUP13 SWAP1 DUP13 SWAP1 PUSH1 0x4 ADD PUSH2 0x5B56 JUMP JUMPDEST PUSH0 PUSH1 0x40 MLOAD DUP1 DUP4 SUB DUP2 PUSH0 DUP8 DUP1 EXTCODESIZE ISZERO DUP1 ISZERO PUSH2 0x39FB JUMPI PUSH0 PUSH0 REVERT JUMPDEST POP GAS CALL ISZERO DUP1 ISZERO PUSH2 0x3A0D JUMPI RETURNDATASIZE PUSH0 PUSH0 RETURNDATACOPY RETURNDATASIZE PUSH0 REVERT JUMPDEST POP POP POP POP DUP11 PUSH1 0x1 PUSH1 0x1 PUSH1 0xA0 SHL SUB AND PUSH32 0xDA393AF7AECCB4BFF9B430ABD101B6338E48D7863211D1AC6EA1E4AF5AC585C2 DUP10 DUP10 PUSH1 0x40 MLOAD PUSH2 0x3A4C SWAP3 SWAP2 SWAP1 PUSH2 0x5BC7 JUMP JUMPDEST PUSH1 0x40 MLOAD DUP1 SWAP2 SUB SWAP1 LOG2 PUSH2 0x3A5F DUP12 DUP12 DUP12 PUSH2 0x2BB3 JUMP JUMPDEST DUP10 PUSH1 0x1 PUSH1 0x1 PUSH1 0x80 SHL SUB AND DUP12 PUSH1 0x1 PUSH1 0x1 PUSH1 0xA0 SHL SUB AND PUSH32 0xE08EC346F8F66CA96BE0D1BD59DCD4EFC2AC497666992FD76934ACE44AB59C8F DUP12 PUSH1 0x40 MLOAD PUSH2 0x3AA2 SWAP2 SWAP1 PUSH2 0x4AF1 JUMP JUMPDEST PUSH1 0x40 MLOAD DUP1 SWAP2 SUB SWAP1 LOG3 POP POP POP POP POP POP POP POP POP POP POP JUMP JUMPDEST PUSH2 0x3ABF PUSH2 0x3BB1 JUMP JUMPDEST PUSH1 0x1 PUSH1 0x1 PUSH1 0xA0 SHL SUB DUP2 AND PUSH2 0x3AE8 JUMPI PUSH1 0x40 MLOAD PUSH4 0x1E4FBDF7 PUSH1 0xE0 SHL DUP2 MSTORE PUSH0 PUSH1 0x4 DUP3 ADD MSTORE PUSH1 0x24 ADD PUSH2 0x962 JUMP JUMPDEST PUSH2 0x15DF DUP2 PUSH2 0x3D71 JUMP JUMPDEST PUSH0 DUP2 PUSH1 0x1 PUSH1 0x1 PUSH1 0x80 SHL SUB AND PUSH0 SUB PUSH2 0x3B09 JUMPI POP PUSH0 PUSH2 0x325F JUMP JUMPDEST PUSH0 PUSH1 0x3 PUSH1 0x1 PUSH1 0x1 PUSH1 0xA0 SHL SUB DUP6 AND PUSH0 SWAP1 DUP2 MSTORE PUSH1 0x32 PUSH1 0x20 MSTORE PUSH1 0x40 SWAP1 KECCAK256 SLOAD PUSH1 0xFF AND PUSH1 0x4 DUP2 GT ISZERO PUSH2 0x3B38 JUMPI PUSH2 0x3B38 PUSH2 0x42FC JUMP JUMPDEST EQ DUP1 PUSH2 0x3B6F JUMPI POP PUSH1 0x4 PUSH1 0x1 PUSH1 0x1 PUSH1 0xA0 SHL SUB DUP6 AND PUSH0 SWAP1 DUP2 MSTORE PUSH1 0x32 PUSH1 0x20 MSTORE PUSH1 0x40 SWAP1 KECCAK256 SLOAD PUSH1 0xFF AND PUSH1 0x4 DUP2 GT ISZERO PUSH2 0x3B6D JUMPI PUSH2 0x3B6D PUSH2 0x42FC JUMP JUMPDEST EQ JUMPDEST SWAP1 POP DUP1 DUP1 ISZERO PUSH2 0x3BA9 JUMPI POP PUSH1 0x1 PUSH1 0x1 PUSH1 0xA0 SHL SUB DUP5 AND PUSH0 SWAP1 DUP2 MSTORE PUSH1 0x33 PUSH1 0x20 SWAP1 DUP2 MSTORE PUSH1 0x40 DUP1 DUP4 KECCAK256 PUSH1 0x1 PUSH1 0x1 PUSH1 0x80 SHL SUB DUP8 AND DUP5 MSTORE SWAP1 SWAP2 MSTORE SWAP1 KECCAK256 SLOAD PUSH1 0xFF AND JUMPDEST SWAP5 SWAP4 POP POP POP POP JUMP JUMPDEST CALLER PUSH2 0x3BE3 PUSH32 0x9016D09D72D40FDAE2FD8CEAC6B6234C7706214FD39C1CD1E609A0528C199300 SLOAD PUSH1 0x1 PUSH1 0x1 PUSH1 0xA0 SHL SUB AND SWAP1 JUMP JUMPDEST PUSH1 0x1 PUSH1 0x1 PUSH1 0xA0 SHL SUB AND EQ PUSH2 0x243B JUMPI PUSH1 0x40 MLOAD PUSH4 0x118CDAA7 PUSH1 0xE0 SHL DUP2 MSTORE CALLER PUSH1 0x4 DUP3 ADD MSTORE PUSH1 0x24 ADD PUSH2 0x962 JUMP JUMPDEST PUSH1 0x2 PUSH0 SLOAD SUB PUSH2 0x3C5D JUMPI PUSH1 0x40 MLOAD PUSH3 0x461BCD PUSH1 0xE5 SHL DUP2 MSTORE PUSH1 0x20 PUSH1 0x4 DUP3 ADD MSTORE PUSH1 0x1F PUSH1 0x24 DUP3 ADD MSTORE PUSH32 0x5265656E7472616E637947756172643A207265656E7472616E742063616C6C00 PUSH1 0x44 DUP3 ADD MSTORE PUSH1 0x64 ADD PUSH2 0x962 JUMP JUMPDEST PUSH1 0x2 PUSH0 SSTORE JUMP JUMPDEST PUSH1 0x1 PUSH0 SSTORE JUMP JUMPDEST PUSH0 DUP1 PUSH32 0xF0C57E16840DF040F15088DC2F81FE391C3923BEC73E23A9662EFC9C229C6A00 PUSH2 0x325F JUMP JUMPDEST PUSH2 0x3C99 PUSH2 0x3E50 JUMP JUMPDEST PUSH2 0x15DF DUP2 PUSH2 0x3E75 JUMP JUMPDEST PUSH2 0x3CAA PUSH2 0x3E50 JUMP JUMPDEST PUSH2 0x243B PUSH2 0x3E7D JUMP JUMPDEST PUSH1 0x34 DUP1 SLOAD PUSH1 0x1 PUSH1 0x1 PUSH1 0xA0 SHL SUB NOT AND PUSH1 0x1 PUSH1 0x1 PUSH1 0xA0 SHL SUB DUP4 AND SWAP1 DUP2 OR SWAP1 SWAP2 SSTORE PUSH0 DUP2 DUP2 MSTORE PUSH1 0x32 PUSH1 0x20 MSTORE PUSH1 0x40 DUP1 DUP3 KECCAK256 DUP1 SLOAD PUSH1 0xFF NOT AND PUSH1 0x1 SWAP1 DUP2 OR SWAP1 SWAP2 SSTORE SWAP1 MLOAD SWAP1 SWAP3 SWAP2 PUSH0 MLOAD PUSH1 0x20 PUSH2 0x5BFB PUSH0 CODECOPY PUSH0 MLOAD SWAP1 PUSH0 MSTORE SWAP2 LOG3 POP JUMP JUMPDEST PUSH1 0x1 PUSH1 0x1 PUSH1 0xA0 SHL SUB DUP2 AND PUSH0 SWAP1 DUP2 MSTORE PUSH1 0x32 PUSH1 0x20 MSTORE PUSH1 0x40 SWAP1 KECCAK256 DUP1 SLOAD PUSH1 0xFF NOT DUP2 AND SWAP1 SWAP2 SSTORE PUSH1 0xFF AND DUP1 PUSH1 0x4 DUP2 GT ISZERO PUSH2 0x3D3A JUMPI PUSH2 0x3D3A PUSH2 0x42FC JUMP JUMPDEST PUSH1 0x40 MLOAD PUSH1 0x1 PUSH1 0x1 PUSH1 0xA0 SHL SUB DUP5 AND SWAP1 PUSH32 0x34A1009B84E077AEE5BC8197FAF7105E54F9BA6879E2A51A716E4156EA9AD769 SWAP1 PUSH0 SWAP1 LOG3 POP POP JUMP JUMPDEST PUSH32 0x9016D09D72D40FDAE2FD8CEAC6B6234C7706214FD39C1CD1E609A0528C199300 DUP1 SLOAD PUSH1 0x1 PUSH1 0x1 PUSH1 0xA0 SHL SUB NOT DUP2 AND PUSH1 0x1 PUSH1 0x1 PUSH1 0xA0 SHL SUB DUP5 DUP2 AND SWAP2 DUP3 OR DUP5 SSTORE PUSH1 0x40 MLOAD SWAP3 AND SWAP2 DUP3 SWAP1 PUSH32 0x8BE0079C531659141344CD1FD0A4F28419497F9722A3DAAFE3B4186F6B6457E0 SWAP1 PUSH0 SWAP1 LOG3 POP POP POP JUMP JUMPDEST PUSH1 0x1 PUSH1 0x1 PUSH1 0xA0 SHL SUB DUP3 AND PUSH0 SWAP1 DUP2 MSTORE PUSH1 0x32 PUSH1 0x20 MSTORE PUSH1 0x40 SWAP1 KECCAK256 DUP1 SLOAD DUP3 SWAP2 SWAP1 PUSH1 0xFF NOT AND PUSH1 0x1 DUP4 PUSH1 0x4 DUP2 GT ISZERO PUSH2 0x3E15 JUMPI PUSH2 0x3E15 PUSH2 0x42FC JUMP JUMPDEST MUL OR SWAP1 SSTORE POP DUP1 PUSH1 0x4 DUP2 GT ISZERO PUSH2 0x3E2C JUMPI PUSH2 0x3E2C PUSH2 0x42FC JUMP JUMPDEST PUSH1 0x40 MLOAD PUSH1 0x1 PUSH1 0x1 PUSH1 0xA0 SHL SUB DUP5 AND SWAP1 PUSH0 MLOAD PUSH1 0x20 PUSH2 0x5BFB PUSH0 CODECOPY PUSH0 MLOAD SWAP1 PUSH0 MSTORE SWAP1 PUSH0 SWAP1 LOG3 POP POP JUMP JUMPDEST PUSH2 0x3E58 PUSH2 0x3E85 JUMP JUMPDEST PUSH2 0x243B JUMPI PUSH1 0x40 MLOAD PUSH4 0x1AFCD79F PUSH1 0xE3 SHL DUP2 MSTORE PUSH1 0x4 ADD PUSH1 0x40 MLOAD DUP1 SWAP2 SUB SWAP1 REVERT JUMPDEST PUSH2 0x3ABF PUSH2 0x3E50 JUMP JUMPDEST PUSH2 0x3C63 PUSH2 0x3E50 JUMP JUMPDEST PUSH0 PUSH2 0x3E8E PUSH2 0x3C69 JUMP JUMPDEST SLOAD PUSH1 0x1 PUSH1 0x40 SHL SWAP1 DIV PUSH1 0xFF AND SWAP2 SWAP1 POP JUMP JUMPDEST PUSH1 0x1 PUSH1 0x1 PUSH1 0xA0 SHL SUB DUP2 AND DUP2 EQ PUSH2 0x15DF JUMPI PUSH0 PUSH0 REVERT JUMPDEST DUP1 CALLDATALOAD PUSH2 0x1065 DUP2 PUSH2 0x3E9E JUMP JUMPDEST PUSH1 0x1 PUSH1 0x1 PUSH1 0x80 SHL SUB DUP2 AND DUP2 EQ PUSH2 0x15DF JUMPI PUSH0 PUSH0 REVERT JUMPDEST DUP1 CALLDATALOAD PUSH2 0x1065 DUP2 PUSH2 0x3EBD JUMP JUMPDEST PUSH0 PUSH0 PUSH1 0x40 DUP4 DUP6 SUB SLT ISZERO PUSH2 0x3EED JUMPI PUSH0 PUSH0 REVERT JUMPDEST DUP3 CALLDATALOAD PUSH2 0x3EF8 DUP2 PUSH2 0x3E9E JUMP JUMPDEST SWAP2 POP PUSH1 0x20 DUP4 ADD CALLDATALOAD PUSH2 0x3F08 DUP2 PUSH2 0x3EBD JUMP JUMPDEST DUP1 SWAP2 POP POP SWAP3 POP SWAP3 SWAP1 POP JUMP JUMPDEST PUSH4 0x4E487B71 PUSH1 0xE0 SHL PUSH0 MSTORE PUSH1 0x41 PUSH1 0x4 MSTORE PUSH1 0x24 PUSH0 REVERT JUMPDEST PUSH1 0x40 MLOAD PUSH2 0x180 DUP2 ADD PUSH1 0x1 PUSH1 0x1 PUSH1 0x40 SHL SUB DUP2 GT DUP3 DUP3 LT OR ISZERO PUSH2 0x3F4A JUMPI PUSH2 0x3F4A PUSH2 0x3F13 JUMP JUMPDEST PUSH1 0x40 MSTORE SWAP1 JUMP JUMPDEST PUSH1 0x40 MLOAD PUSH1 0x80 DUP2 ADD PUSH1 0x1 PUSH1 0x1 PUSH1 0x40 SHL SUB DUP2 GT DUP3 DUP3 LT OR ISZERO PUSH2 0x3F4A JUMPI PUSH2 0x3F4A PUSH2 0x3F13 JUMP JUMPDEST PUSH1 0x40 MLOAD PUSH2 0x120 DUP2 ADD PUSH1 0x1 PUSH1 0x1 PUSH1 0x40 SHL SUB DUP2 GT DUP3 DUP3 LT OR ISZERO PUSH2 0x3F4A JUMPI PUSH2 0x3F4A PUSH2 0x3F13 JUMP JUMPDEST PUSH1 0x40 MLOAD PUSH1 0xE0 DUP2 ADD PUSH1 0x1 PUSH1 0x1 PUSH1 0x40 SHL SUB DUP2 GT DUP3 DUP3 LT OR ISZERO PUSH2 0x3F4A JUMPI PUSH2 0x3F4A PUSH2 0x3F13 JUMP JUMPDEST PUSH1 0x40 MLOAD PUSH1 0x1F DUP3 ADD PUSH1 0x1F NOT AND DUP2 ADD PUSH1 0x1 PUSH1 0x1 PUSH1 0x40 SHL SUB DUP2 GT DUP3 DUP3 LT OR ISZERO PUSH2 0x3FDF JUMPI PUSH2 0x3FDF PUSH2 0x3F13 JUMP JUMPDEST PUSH1 0x40 MSTORE SWAP2 SWAP1 POP JUMP JUMPDEST PUSH0 PUSH1 0x1 PUSH1 0x1 PUSH1 0x40 SHL SUB DUP3 GT ISZERO PUSH2 0x3FFF JUMPI PUSH2 0x3FFF PUSH2 0x3F13 JUMP JUMPDEST POP PUSH1 0x1F ADD PUSH1 0x1F NOT AND PUSH1 0x20 ADD SWAP1 JUMP JUMPDEST PUSH0 DUP3 PUSH1 0x1F DUP4 ADD SLT PUSH2 0x401C JUMPI PUSH0 PUSH0 REVERT JUMPDEST DUP2 CALLDATALOAD PUSH2 0x402F PUSH2 0x402A DUP3 PUSH2 0x3FE7 JUMP JUMPDEST PUSH2 0x3FB7 JUMP JUMPDEST DUP2 DUP2 MSTORE DUP5 PUSH1 0x20 DUP4 DUP7 ADD ADD GT ISZERO PUSH2 0x4043 JUMPI PUSH0 PUSH0 REVERT JUMPDEST DUP2 PUSH1 0x20 DUP6 ADD PUSH1 0x20 DUP4 ADD CALLDATACOPY PUSH0 SWAP2 DUP2 ADD PUSH1 0x20 ADD SWAP2 SWAP1 SWAP2 MSTORE SWAP4 SWAP3 POP POP POP JUMP JUMPDEST PUSH0 PUSH0 PUSH0 PUSH0 PUSH0 PUSH0 PUSH0 PUSH0 PUSH2 0x100 DUP10 DUP12 SUB SLT ISZERO PUSH2 0x4077 JUMPI PUSH0 PUSH0 REVERT JUMPDEST PUSH2 0x4080 DUP10 PUSH2 0x3ED1 JUMP JUMPDEST SWAP8 POP PUSH1 0x20 DUP10 ADD CALLDATALOAD PUSH1 0x1 PUSH1 0x1 PUSH1 0x40 SHL SUB DUP2 GT ISZERO PUSH2 0x409A JUMPI PUSH0 PUSH0 REVERT JUMPDEST PUSH2 0x40A6 DUP12 DUP3 DUP13 ADD PUSH2 0x400D JUMP JUMPDEST SWAP8 POP POP PUSH1 0x40 DUP10 ADD CALLDATALOAD PUSH1 0x1 PUSH1 0x1 PUSH1 0x40 SHL SUB DUP2 GT ISZERO PUSH2 0x40C1 JUMPI PUSH0 PUSH0 REVERT JUMPDEST PUSH2 0x40CD DUP12 DUP3 DUP13 ADD PUSH2 0x400D JUMP JUMPDEST SWAP7 POP POP PUSH1 0x60 DUP10 ADD CALLDATALOAD PUSH1 0x1 PUSH1 0x1 PUSH1 0x40 SHL SUB DUP2 GT ISZERO PUSH2 0x40E8 JUMPI PUSH0 PUSH0 REVERT JUMPDEST PUSH2 0x40F4 DUP12 DUP3 DUP13 ADD PUSH2 0x400D JUMP JUMPDEST SWAP6 POP POP PUSH2 0x4103 PUSH1 0x80 DUP11 ADD PUSH2 0x3ED1 JUMP JUMPDEST SWAP4 POP PUSH1 0xA0 DUP10 ADD CALLDATALOAD PUSH1 0x1 PUSH1 0x1 PUSH1 0x40 SHL SUB DUP2 GT ISZERO PUSH2 0x411D JUMPI PUSH0 PUSH0 REVERT JUMPDEST PUSH2 0x4129 DUP12 DUP3 DUP13 ADD PUSH2 0x400D JUMP JUMPDEST SWAP4 POP POP PUSH1 0xC0 DUP10 ADD CALLDATALOAD PUSH1 0x1 PUSH1 0x1 PUSH1 0x40 SHL SUB DUP2 GT ISZERO PUSH2 0x4144 JUMPI PUSH0 PUSH0 REVERT JUMPDEST PUSH2 0x4150 DUP12 DUP3 DUP13 ADD PUSH2 0x400D JUMP JUMPDEST SWAP3 POP POP PUSH2 0x415F PUSH1 0xE0 DUP11 ADD PUSH2 0x3ED1 JUMP JUMPDEST SWAP1 POP SWAP3 SWAP6 SWAP9 POP SWAP3 SWAP6 SWAP9 SWAP1 SWAP4 SWAP7 POP JUMP JUMPDEST PUSH1 0xFF DUP2 AND DUP2 EQ PUSH2 0x15DF JUMPI PUSH0 PUSH0 REVERT JUMPDEST PUSH0 PUSH0 PUSH0 PUSH0 PUSH1 0x80 DUP6 DUP8 SUB SLT ISZERO PUSH2 0x418F JUMPI PUSH0 PUSH0 REVERT JUMPDEST DUP5 CALLDATALOAD PUSH2 0x419A DUP2 PUSH2 0x3E9E JUMP JUMPDEST SWAP4 POP PUSH1 0x20 DUP6 ADD CALLDATALOAD PUSH2 0x41AA DUP2 PUSH2 0x3EBD JUMP JUMPDEST SWAP3 POP PUSH1 0x40 DUP6 ADD CALLDATALOAD PUSH2 0x41BA DUP2 PUSH2 0x416E JUMP JUMPDEST SWAP2 POP PUSH1 0x60 DUP6 ADD CALLDATALOAD PUSH1 0x1 PUSH1 0x1 PUSH1 0x40 SHL SUB DUP2 GT ISZERO PUSH2 0x41D4 JUMPI PUSH0 PUSH0 REVERT JUMPDEST PUSH2 0x41E0 DUP8 DUP3 DUP9 ADD PUSH2 0x400D JUMP JUMPDEST SWAP2 POP POP SWAP3 SWAP6 SWAP2 SWAP5 POP SWAP3 POP JUMP JUMPDEST PUSH0 PUSH1 0x20 DUP3 DUP5 SUB SLT ISZERO PUSH2 0x41FC JUMPI PUSH0 PUSH0 REVERT JUMPDEST DUP2 CALLDATALOAD PUSH2 0x4207 DUP2 PUSH2 0x3E9E JUMP JUMPDEST SWAP4 SWAP3 POP POP POP JUMP JUMPDEST PUSH0 PUSH1 0x20 DUP3 DUP5 SUB SLT ISZERO PUSH2 0x421E JUMPI PUSH0 PUSH0 REVERT JUMPDEST DUP2 CALLDATALOAD PUSH2 0x4207 DUP2 PUSH2 0x3EBD JUMP JUMPDEST PUSH0 DUP2 MLOAD DUP1 DUP5 MSTORE DUP1 PUSH1 0x20 DUP5 ADD PUSH1 0x20 DUP7 ADD MCOPY PUSH0 PUSH1 0x20 DUP3 DUP7 ADD ADD MSTORE PUSH1 0x20 PUSH1 0x1F NOT PUSH1 0x1F DUP4 ADD AND DUP6 ADD ADD SWAP2 POP POP SWAP3 SWAP2 POP POP JUMP JUMPDEST PUSH0 DUP3 DUP3 MLOAD DUP1 DUP6 MSTORE PUSH1 0x20 DUP6 ADD SWAP5 POP PUSH1 0x20 DUP2 PUSH1 0x5 SHL DUP4 ADD ADD PUSH1 0x20 DUP6 ADD PUSH0 JUMPDEST DUP4 DUP2 LT ISZERO PUSH2 0x42F0 JUMPI PUSH1 0x1F NOT DUP6 DUP5 SUB ADD DUP9 MSTORE DUP2 MLOAD PUSH1 0x1 PUSH1 0x1 PUSH1 0x80 SHL SUB DUP2 MLOAD AND DUP5 MSTORE PUSH1 0x20 DUP2 ADD MLOAD PUSH1 0x80 PUSH1 0x20 DUP7 ADD MSTORE PUSH2 0x42AC PUSH1 0x80 DUP7 ADD DUP3 PUSH2 0x4229 JUMP JUMPDEST SWAP1 POP PUSH1 0x1 PUSH1 0x1 PUSH1 0x80 SHL SUB PUSH1 0x40 DUP4 ADD MLOAD AND PUSH1 0x40 DUP7 ADD MSTORE PUSH1 0x1 PUSH1 0x1 PUSH1 0x80 SHL SUB PUSH1 0x60 DUP4 ADD MLOAD AND PUSH1 0x60 DUP7 ADD MSTORE DUP1 SWAP5 POP POP POP PUSH1 0x20 DUP3 ADD SWAP2 POP PUSH1 0x20 DUP9 ADD SWAP8 POP PUSH1 0x1 DUP2 ADD SWAP1 POP PUSH2 0x4273 JUMP JUMPDEST POP SWAP1 SWAP7 SWAP6 POP POP POP POP POP POP JUMP JUMPDEST PUSH4 0x4E487B71 PUSH1 0xE0 SHL PUSH0 MSTORE PUSH1 0x21 PUSH1 0x4 MSTORE PUSH1 0x24 PUSH0 REVERT JUMPDEST PUSH1 0x7 DUP2 LT PUSH2 0x4320 JUMPI PUSH2 0x4320 PUSH2 0x42FC JUMP JUMPDEST SWAP1 MSTORE JUMP JUMPDEST DUP1 MLOAD PUSH1 0x1 PUSH1 0x1 PUSH1 0x80 SHL SUB AND DUP3 MSTORE PUSH0 PUSH1 0x20 DUP3 ADD MLOAD PUSH2 0x434C PUSH1 0x20 DUP6 ADD DUP3 PUSH1 0x1 PUSH1 0x1 PUSH1 0xA0 SHL SUB AND SWAP1 MSTORE JUMP JUMPDEST POP PUSH1 0x40 DUP3 ADD MLOAD PUSH2 0x4367 PUSH1 0x40 DUP6 ADD DUP3 PUSH1 0x1 PUSH1 0x1 PUSH1 0x80 SHL SUB AND SWAP1 MSTORE JUMP JUMPDEST POP PUSH1 0x60 DUP3 ADD MLOAD PUSH2 0x120 PUSH1 0x60 DUP6 ADD MSTORE PUSH2 0x4383 PUSH2 0x120 DUP6 ADD DUP3 PUSH2 0x4257 JUMP JUMPDEST SWAP1 POP PUSH1 0x80 DUP4 ADD MLOAD PUSH1 0x80 DUP6 ADD MSTORE PUSH1 0xA0 DUP4 ADD MLOAD PUSH2 0x43A1 PUSH1 0xA0 DUP7 ADD DUP3 PUSH2 0x4310 JUMP JUMPDEST POP PUSH1 0xC0 DUP4 ADD MLOAD PUSH2 0x43BC PUSH1 0xC0 DUP7 ADD DUP3 PUSH1 0x1 PUSH1 0x1 PUSH1 0x80 SHL SUB AND SWAP1 MSTORE JUMP JUMPDEST POP PUSH1 0xE0 DUP4 ADD MLOAD PUSH2 0x43D7 PUSH1 0xE0 DUP7 ADD DUP3 PUSH1 0x1 PUSH1 0x1 PUSH1 0x80 SHL SUB AND SWAP1 MSTORE JUMP JUMPDEST POP PUSH2 0x100 DUP4 ADD MLOAD PUSH2 0x43F4 PUSH2 0x100 DUP7 ADD DUP3 PUSH1 0x1 PUSH1 0x1 PUSH1 0x80 SHL SUB AND SWAP1 MSTORE JUMP JUMPDEST POP SWAP4 SWAP3 POP POP POP JUMP JUMPDEST PUSH1 0x20 DUP2 MSTORE PUSH0 PUSH2 0x325C PUSH1 0x20 DUP4 ADD DUP5 PUSH2 0x4324 JUMP JUMPDEST DUP1 MLOAD PUSH1 0x1 PUSH1 0x1 PUSH1 0x80 SHL SUB AND DUP3 MSTORE PUSH0 PUSH1 0x20 DUP3 ADD MLOAD PUSH2 0x4436 PUSH1 0x20 DUP6 ADD DUP3 PUSH1 0x1 PUSH1 0x1 PUSH1 0x80 SHL SUB AND SWAP1 MSTORE JUMP JUMPDEST POP PUSH1 0x40 DUP3 ADD MLOAD PUSH2 0x180 PUSH1 0x40 DUP6 ADD MSTORE PUSH2 0x4452 PUSH2 0x180 DUP6 ADD DUP3 PUSH2 0x4229 JUMP JUMPDEST SWAP1 POP PUSH1 0x60 DUP4 ADD MLOAD DUP5 DUP3 SUB PUSH1 0x60 DUP7 ADD MSTORE PUSH2 0x446B DUP3 DUP3 PUSH2 0x4229 JUMP JUMPDEST SWAP2 POP POP PUSH1 0x80 DUP4 ADD MLOAD DUP5 DUP3 SUB PUSH1 0x80 DUP7 ADD MSTORE PUSH2 0x4485 DUP3 DUP3 PUSH2 0x4229 JUMP JUMPDEST SWAP2 POP POP PUSH1 0xA0 DUP4 ADD MLOAD PUSH2 0x44A2 PUSH1 0xA0 DUP7 ADD DUP3 PUSH1 0x1 PUSH1 0x1 PUSH1 0x80 SHL SUB AND SWAP1 MSTORE JUMP JUMPDEST POP PUSH1 0xC0 DUP4 ADD MLOAD PUSH2 0x44B6 PUSH1 0xC0 DUP7 ADD DUP3 ISZERO ISZERO SWAP1 MSTORE JUMP JUMPDEST POP PUSH1 0xE0 DUP4 ADD MLOAD DUP5 DUP3 SUB PUSH1 0xE0 DUP7 ADD MSTORE PUSH2 0x44CE DUP3 DUP3 PUSH2 0x4229 JUMP JUMPDEST SWAP2 POP POP PUSH2 0x100 DUP4 ADD MLOAD DUP5 DUP3 SUB PUSH2 0x100 DUP7 ADD MSTORE PUSH2 0x44EA DUP3 DUP3 PUSH2 0x4229 JUMP JUMPDEST SWAP2 POP POP PUSH2 0x120 DUP4 ADD MLOAD PUSH2 0x4509 PUSH2 0x120 DUP7 ADD DUP3 PUSH1 0x1 PUSH1 0x1 PUSH1 0x80 SHL SUB AND SWAP1 MSTORE JUMP JUMPDEST POP PUSH2 0x140 DUP4 ADD MLOAD PUSH2 0x4526 PUSH2 0x140 DUP7 ADD DUP3 PUSH1 0x1 PUSH1 0x1 PUSH1 0x80 SHL SUB AND SWAP1 MSTORE JUMP JUMPDEST POP PUSH2 0x160 DUP4 ADD MLOAD PUSH2 0x43F4 PUSH2 0x160 DUP7 ADD DUP3 PUSH1 0x1 PUSH1 0x1 PUSH1 0x80 SHL SUB AND SWAP1 MSTORE JUMP JUMPDEST PUSH0 PUSH1 0x20 DUP3 ADD PUSH1 0x20 DUP4 MSTORE DUP1 DUP5 MLOAD DUP1 DUP4 MSTORE PUSH1 0x40 DUP6 ADD SWAP2 POP PUSH1 0x40 DUP2 PUSH1 0x5 SHL DUP7 ADD ADD SWAP3 POP PUSH1 0x20 DUP7 ADD PUSH0 JUMPDEST DUP3 DUP2 LT ISZERO PUSH2 0x459A JUMPI PUSH1 0x3F NOT DUP8 DUP7 SUB ADD DUP5 MSTORE PUSH2 0x4585 DUP6 DUP4 MLOAD PUSH2 0x440E JUMP JUMPDEST SWAP5 POP PUSH1 0x20 SWAP4 DUP5 ADD SWAP4 SWAP2 SWAP1 SWAP2 ADD SWAP1 PUSH1 0x1 ADD PUSH2 0x4569 JUMP JUMPDEST POP SWAP3 SWAP7 SWAP6 POP POP POP POP POP POP JUMP JUMPDEST PUSH0 PUSH1 0x20 DUP3 ADD PUSH1 0x20 DUP4 MSTORE DUP1 DUP5 MLOAD DUP1 DUP4 MSTORE PUSH1 0x40 DUP6 ADD SWAP2 POP PUSH1 0x40 DUP2 PUSH1 0x5 SHL DUP7 ADD ADD SWAP3 POP PUSH1 0x20 DUP7 ADD PUSH0 JUMPDEST DUP3 DUP2 LT ISZERO PUSH2 0x459A JUMPI PUSH1 0x3F NOT DUP8 DUP7 SUB ADD DUP5 MSTORE DUP2 MLOAD PUSH1 0x1 PUSH1 0x1 PUSH1 0x80 SHL SUB DUP2 MLOAD AND DUP7 MSTORE PUSH1 0x1 DUP1 PUSH1 0xA0 SHL SUB PUSH1 0x20 DUP3 ADD MLOAD AND PUSH1 0x20 DUP8 ADD MSTORE PUSH1 0x1 DUP1 PUSH1 0xA0 SHL SUB PUSH1 0x40 DUP3 ADD MLOAD AND PUSH1 0x40 DUP8 ADD MSTORE PUSH1 0x60 DUP2 ADD MLOAD PUSH2 0x462A PUSH1 0x60 DUP9 ADD DUP3 PUSH1 0x1 PUSH1 0x1 PUSH1 0x80 SHL SUB AND SWAP1 MSTORE JUMP JUMPDEST POP PUSH1 0x80 DUP2 ADD MLOAD PUSH2 0x463F PUSH1 0x80 DUP9 ADD DUP3 PUSH1 0xFF AND SWAP1 MSTORE JUMP JUMPDEST POP PUSH1 0xA0 DUP2 ADD MLOAD PUSH1 0xE0 PUSH1 0xA0 DUP9 ADD MSTORE PUSH2 0x4659 PUSH1 0xE0 DUP9 ADD DUP3 PUSH2 0x4229 JUMP JUMPDEST SWAP1 POP PUSH1 0xC0 DUP3 ADD MLOAD SWAP2 POP PUSH2 0x4677 PUSH1 0xC0 DUP9 ADD DUP4 PUSH1 0x1 PUSH1 0x1 PUSH1 0x80 SHL SUB AND SWAP1 MSTORE JUMP JUMPDEST SWAP6 POP POP PUSH1 0x20 SWAP4 DUP5 ADD SWAP4 SWAP2 SWAP1 SWAP2 ADD SWAP1 PUSH1 0x1 ADD PUSH2 0x45CC JUMP JUMPDEST DUP1 ISZERO ISZERO DUP2 EQ PUSH2 0x15DF JUMPI PUSH0 PUSH0 REVERT JUMPDEST DUP1 CALLDATALOAD PUSH2 0x1065 DUP2 PUSH2 0x468D JUMP JUMPDEST PUSH0 PUSH1 0x20 DUP3 DUP5 SUB SLT ISZERO PUSH2 0x46B5 JUMPI PUSH0 PUSH0 REVERT JUMPDEST DUP2 CALLDATALOAD PUSH1 0x1 PUSH1 0x1 PUSH1 0x40 SHL SUB DUP2 GT ISZERO PUSH2 0x46CA JUMPI PUSH0 PUSH0 REVERT JUMPDEST DUP3 ADD PUSH2 0x180 DUP2 DUP6 SUB SLT ISZERO PUSH2 0x46DC JUMPI PUSH0 PUSH0 REVERT JUMPDEST PUSH2 0x46E4 PUSH2 0x3F27 JUMP JUMPDEST PUSH2 0x46ED DUP3 PUSH2 0x3ED1 JUMP JUMPDEST DUP2 MSTORE PUSH2 0x46FB PUSH1 0x20 DUP4 ADD PUSH2 0x3ED1 JUMP JUMPDEST PUSH1 0x20 DUP3 ADD MSTORE PUSH1 0x40 DUP3 ADD CALLDATALOAD PUSH1 0x1 PUSH1 0x1 PUSH1 0x40 SHL SUB DUP2 GT ISZERO PUSH2 0x4718 JUMPI PUSH0 PUSH0 REVERT JUMPDEST PUSH2 0x4724 DUP7 DUP3 DUP6 ADD PUSH2 0x400D JUMP JUMPDEST PUSH1 0x40 DUP4 ADD MSTORE POP PUSH1 0x60 DUP3 ADD CALLDATALOAD PUSH1 0x1 PUSH1 0x1 PUSH1 0x40 SHL SUB DUP2 GT ISZERO PUSH2 0x4742 JUMPI PUSH0 PUSH0 REVERT JUMPDEST PUSH2 0x474E DUP7 DUP3 DUP6 ADD PUSH2 0x400D JUMP JUMPDEST PUSH1 0x60 DUP4 ADD MSTORE POP PUSH1 0x80 DUP3 ADD CALLDATALOAD PUSH1 0x1 PUSH1 0x1 PUSH1 0x40 SHL SUB DUP2 GT ISZERO PUSH2 0x476C JUMPI PUSH0 PUSH0 REVERT JUMPDEST PUSH2 0x4778 DUP7 DUP3 DUP6 ADD PUSH2 0x400D JUMP JUMPDEST PUSH1 0x80 DUP4 ADD MSTORE POP PUSH2 0x478A PUSH1 0xA0 DUP4 ADD PUSH2 0x3ED1 JUMP JUMPDEST PUSH1 0xA0 DUP3 ADD MSTORE PUSH2 0x479B PUSH1 0xC0 DUP4 ADD PUSH2 0x469A JUMP JUMPDEST PUSH1 0xC0 DUP3 ADD MSTORE PUSH1 0xE0 DUP3 ADD CALLDATALOAD PUSH1 0x1 PUSH1 0x1 PUSH1 0x40 SHL SUB DUP2 GT ISZERO PUSH2 0x47B8 JUMPI PUSH0 PUSH0 REVERT JUMPDEST PUSH2 0x47C4 DUP7 DUP3 DUP6 ADD PUSH2 0x400D JUMP JUMPDEST PUSH1 0xE0 DUP4 ADD MSTORE POP PUSH2 0x100 DUP3 ADD CALLDATALOAD PUSH1 0x1 PUSH1 0x1 PUSH1 0x40 SHL SUB DUP2 GT ISZERO PUSH2 0x47E3 JUMPI PUSH0 PUSH0 REVERT JUMPDEST PUSH2 0x47EF DUP7 DUP3 DUP6 ADD PUSH2 0x400D JUMP JUMPDEST PUSH2 0x100 DUP4 ADD MSTORE POP PUSH2 0x4803 PUSH2 0x120 DUP4 ADD PUSH2 0x3ED1 JUMP JUMPDEST PUSH2 0x120 DUP3 ADD MSTORE PUSH2 0x4816 PUSH2 0x140 DUP4 ADD PUSH2 0x3ED1 JUMP JUMPDEST PUSH2 0x140 DUP3 ADD MSTORE PUSH2 0x4829 PUSH2 0x160 DUP4 ADD PUSH2 0x3ED1 JUMP JUMPDEST PUSH2 0x160 DUP3 ADD MSTORE SWAP5 SWAP4 POP POP POP POP JUMP JUMPDEST PUSH0 PUSH0 PUSH1 0x40 DUP4 DUP6 SUB SLT ISZERO PUSH2 0x4848 JUMPI PUSH0 PUSH0 REVERT JUMPDEST DUP3 CALLDATALOAD PUSH2 0x4853 DUP2 PUSH2 0x3E9E JUMP JUMPDEST SWAP2 POP PUSH1 0x20 DUP4 ADD CALLDATALOAD PUSH2 0x3F08 DUP2 PUSH2 0x3E9E JUMP JUMPDEST PUSH0 PUSH0 PUSH0 PUSH1 0x60 DUP5 DUP7 SUB SLT ISZERO PUSH2 0x4875 JUMPI PUSH0 PUSH0 REVERT JUMPDEST DUP4 CALLDATALOAD PUSH2 0x4880 DUP2 PUSH2 0x3EBD JUMP JUMPDEST SWAP3 POP PUSH1 0x20 DUP5 ADD CALLDATALOAD PUSH2 0x4890 DUP2 PUSH2 0x416E JUMP JUMPDEST SWAP2 POP PUSH1 0x40 DUP5 ADD CALLDATALOAD PUSH1 0x1 PUSH1 0x1 PUSH1 0x40 SHL SUB DUP2 GT ISZERO PUSH2 0x48AA JUMPI PUSH0 PUSH0 REVERT JUMPDEST PUSH2 0x48B6 DUP7 DUP3 DUP8 ADD PUSH2 0x400D JUMP JUMPDEST SWAP2 POP POP SWAP3 POP SWAP3 POP SWAP3 JUMP JUMPDEST PUSH1 0x7 DUP2 LT PUSH2 0x15DF JUMPI PUSH0 PUSH0 REVERT JUMPDEST PUSH0 PUSH0 PUSH1 0x40 DUP4 DUP6 SUB SLT ISZERO PUSH2 0x48DD JUMPI PUSH0 PUSH0 REVERT JUMPDEST DUP3 CALLDATALOAD PUSH2 0x48E8 DUP2 PUSH2 0x3EBD JUMP JUMPDEST SWAP2 POP PUSH1 0x20 DUP4 ADD CALLDATALOAD PUSH2 0x3F08 DUP2 PUSH2 0x48C0 JUMP JUMPDEST PUSH0 DUP2 MLOAD DUP1 DUP5 MSTORE PUSH1 0x20 DUP5 ADD SWAP4 POP PUSH1 0x20 DUP4 ADD PUSH0 JUMPDEST DUP3 DUP2 LT ISZERO PUSH2 0x4931 JUMPI DUP2 MLOAD PUSH1 0x1 PUSH1 0x1 PUSH1 0x80 SHL SUB AND DUP7 MSTORE PUSH1 0x20 SWAP6 DUP7 ADD SWAP6 SWAP1 SWAP2 ADD SWAP1 PUSH1 0x1 ADD PUSH2 0x490A JUMP JUMPDEST POP SWAP4 SWAP5 SWAP4 POP POP POP POP JUMP JUMPDEST PUSH1 0x20 DUP2 MSTORE PUSH0 PUSH2 0x325C PUSH1 0x20 DUP4 ADD DUP5 PUSH2 0x48F8 JUMP JUMPDEST PUSH0 PUSH0 PUSH0 PUSH1 0x60 DUP5 DUP7 SUB SLT ISZERO PUSH2 0x495F JUMPI PUSH0 PUSH0 REVERT JUMPDEST DUP4 CALLDATALOAD PUSH2 0x496A DUP2 PUSH2 0x3E9E JUMP JUMPDEST SWAP6 PUSH1 0x20 DUP6 ADD CALLDATALOAD SWAP6 POP PUSH1 0x40 SWAP1 SWAP5 ADD CALLDATALOAD SWAP4 SWAP3 POP POP POP JUMP JUMPDEST PUSH0 PUSH1 0x40 DUP3 ADD PUSH1 0x40 DUP4 MSTORE DUP1 DUP6 MLOAD DUP1 DUP4 MSTORE PUSH1 0x60 DUP6 ADD SWAP2 POP PUSH1 0x60 DUP2 PUSH1 0x5 SHL DUP7 ADD ADD SWAP3 POP PUSH1 0x20 DUP8 ADD PUSH0 JUMPDEST DUP3 DUP2 LT ISZERO PUSH2 0x49D6 JUMPI PUSH1 0x5F NOT DUP8 DUP7 SUB ADD DUP5 MSTORE PUSH2 0x49C1 DUP6 DUP4 MLOAD PUSH2 0x4324 JUMP JUMPDEST SWAP5 POP PUSH1 0x20 SWAP4 DUP5 ADD SWAP4 SWAP2 SWAP1 SWAP2 ADD SWAP1 PUSH1 0x1 ADD PUSH2 0x49A5 JUMP JUMPDEST POP POP POP POP PUSH1 0x20 SWAP3 SWAP1 SWAP3 ADD SWAP3 SWAP1 SWAP3 MSTORE SWAP3 SWAP2 POP POP JUMP JUMPDEST PUSH0 PUSH0 PUSH1 0x40 DUP4 DUP6 SUB SLT ISZERO PUSH2 0x49FB JUMPI PUSH0 PUSH0 REVERT JUMPDEST POP POP DUP1 CALLDATALOAD SWAP3 PUSH1 0x20 SWAP1 SWAP2 ADD CALLDATALOAD SWAP2 POP JUMP JUMPDEST PUSH0 PUSH1 0x20 DUP3 ADD PUSH1 0x20 DUP4 MSTORE DUP1 DUP5 MLOAD DUP1 DUP4 MSTORE PUSH1 0x40 DUP6 ADD SWAP2 POP PUSH1 0x40 DUP2 PUSH1 0x5 SHL DUP7 ADD ADD SWAP3 POP PUSH1 0x20 DUP7 ADD PUSH0 JUMPDEST DUP3 DUP2 LT ISZERO PUSH2 0x459A JUMPI DUP7 DUP6 SUB PUSH1 0x3F NOT ADD DUP5 MSTORE DUP2 MLOAD DUP1 MLOAD PUSH1 0x1 PUSH1 0x1 PUSH1 0x80 SHL SUB SWAP1 DUP2 AND DUP8 MSTORE PUSH1 0x20 DUP1 DUP4 ADD MLOAD PUSH1 0x1 PUSH1 0x1 PUSH1 0xA0 SHL SUB AND SWAP1 DUP9 ADD MSTORE PUSH1 0x40 DUP1 DUP4 ADD MLOAD DUP3 AND SWAP1 DUP9 ADD MSTORE PUSH1 0x60 DUP1 DUP4 ADD MLOAD SWAP2 DUP3 AND SWAP1 DUP9 ADD MSTORE POP PUSH1 0x80 DUP2 ADD MLOAD PUSH2 0x4A93 PUSH1 0x80 DUP9 ADD DUP3 PUSH1 0xFF AND SWAP1 MSTORE JUMP JUMPDEST POP PUSH1 0xA0 DUP2 ADD MLOAD PUSH1 0xE0 PUSH1 0xA0 DUP9 ADD MSTORE PUSH2 0x4AAD PUSH1 0xE0 DUP9 ADD DUP3 PUSH2 0x4229 JUMP JUMPDEST SWAP1 POP PUSH1 0xC0 DUP3 ADD MLOAD SWAP2 POP PUSH2 0x4ACB PUSH1 0xC0 DUP9 ADD DUP4 PUSH1 0x1 PUSH1 0x1 PUSH1 0x80 SHL SUB AND SWAP1 MSTORE JUMP JUMPDEST SWAP6 POP POP PUSH1 0x20 SWAP4 DUP5 ADD SWAP4 SWAP2 SWAP1 SWAP2 ADD SWAP1 PUSH1 0x1 ADD PUSH2 0x4A30 JUMP JUMPDEST PUSH1 0x5 DUP2 LT PUSH2 0x4320 JUMPI PUSH2 0x4320 PUSH2 0x42FC JUMP JUMPDEST PUSH1 0x20 DUP2 ADD PUSH2 0x325F DUP3 DUP5 PUSH2 0x4AE1 JUMP JUMPDEST PUSH0 PUSH0 PUSH0 PUSH0 PUSH1 0x80 DUP6 DUP8 SUB SLT ISZERO PUSH2 0x4B12 JUMPI PUSH0 PUSH0 REVERT JUMPDEST DUP5 CALLDATALOAD PUSH2 0x419A DUP2 PUSH2 0x3EBD JUMP JUMPDEST DUP1 CALLDATALOAD PUSH1 0x5 DUP2 LT PUSH2 0x1065 JUMPI PUSH0 PUSH0 REVERT JUMPDEST PUSH0 PUSH0 PUSH0 PUSH1 0x60 DUP5 DUP7 SUB SLT ISZERO PUSH2 0x4B3D JUMPI PUSH0 PUSH0 REVERT JUMPDEST DUP4 CALLDATALOAD PUSH2 0x4B48 DUP2 PUSH2 0x3E9E JUMP JUMPDEST SWAP3 POP PUSH1 0x20 DUP5 ADD CALLDATALOAD PUSH2 0x4B58 DUP2 PUSH2 0x3EBD JUMP JUMPDEST SWAP2 POP PUSH2 0x4B66 PUSH1 0x40 DUP6 ADD PUSH2 0x4B1D JUMP JUMPDEST SWAP1 POP SWAP3 POP SWAP3 POP SWAP3 JUMP JUMPDEST PUSH0 PUSH0 PUSH1 0x40 DUP4 DUP6 SUB SLT ISZERO PUSH2 0x4B80 JUMPI PUSH0 PUSH0 REVERT JUMPDEST DUP3 CALLDATALOAD PUSH2 0x3EF8 DUP2 PUSH2 0x3EBD JUMP JUMPDEST PUSH1 0x20 DUP2 MSTORE PUSH0 PUSH2 0x325C PUSH1 0x20 DUP4 ADD DUP5 PUSH2 0x440E JUMP JUMPDEST PUSH0 PUSH1 0x1 PUSH1 0x1 PUSH1 0x40 SHL SUB DUP3 GT ISZERO PUSH2 0x4BB5 JUMPI PUSH2 0x4BB5 PUSH2 0x3F13 JUMP JUMPDEST POP PUSH1 0x5 SHL PUSH1 0x20 ADD SWAP1 JUMP JUMPDEST PUSH0 DUP3 PUSH1 0x1F DUP4 ADD SLT PUSH2 0x4BCE JUMPI PUSH0 PUSH0 REVERT JUMPDEST DUP2 CALLDATALOAD PUSH2 0x4BDC PUSH2 0x402A DUP3 PUSH2 0x4B9D JUMP JUMPDEST DUP1 DUP3 DUP3 MSTORE PUSH1 0x20 DUP3 ADD SWAP2 POP PUSH1 0x20 DUP4 PUSH1 0x5 SHL DUP7 ADD ADD SWAP3 POP DUP6 DUP4 GT ISZERO PUSH2 0x4BFD JUMPI PUSH0 PUSH0 REVERT JUMPDEST PUSH1 0x20 DUP6 ADD JUMPDEST DUP4 DUP2 LT ISZERO PUSH2 0x4C23 JUMPI DUP1 CALLDATALOAD PUSH2 0x4C15 DUP2 PUSH2 0x3EBD JUMP JUMPDEST DUP4 MSTORE PUSH1 0x20 SWAP3 DUP4 ADD SWAP3 ADD PUSH2 0x4C02 JUMP JUMPDEST POP SWAP6 SWAP5 POP POP POP POP POP JUMP JUMPDEST PUSH0 PUSH0 PUSH0 PUSH1 0x60 DUP5 DUP7 SUB SLT ISZERO PUSH2 0x4C3F JUMPI PUSH0 PUSH0 REVERT JUMPDEST DUP4 CALLDATALOAD PUSH2 0x4C4A DUP2 PUSH2 0x3EBD JUMP JUMPDEST SWAP3 POP PUSH1 0x20 DUP5 ADD CALLDATALOAD PUSH1 0x1 PUSH1 0x1 PUSH1 0x40 SHL SUB DUP2 GT ISZERO PUSH2 0x4C64 JUMPI PUSH0 PUSH0 REVERT JUMPDEST PUSH2 0x4C70 DUP7 DUP3 DUP8 ADD PUSH2 0x4BBF JUMP JUMPDEST SWAP3 POP POP PUSH1 0x40 DUP5 ADD CALLDATALOAD PUSH1 0x1 PUSH1 0x1 PUSH1 0x40 SHL SUB DUP2 GT ISZERO PUSH2 0x4C8B JUMPI PUSH0 PUSH0 REVERT JUMPDEST PUSH2 0x48B6 DUP7 DUP3 DUP8 ADD PUSH2 0x4BBF JUMP JUMPDEST PUSH0 PUSH0 PUSH1 0x40 DUP4 DUP6 SUB SLT ISZERO PUSH2 0x4CA8 JUMPI PUSH0 PUSH0 REVERT JUMPDEST DUP3 CALLDATALOAD PUSH2 0x4CB3 DUP2 PUSH2 0x3E9E JUMP JUMPDEST SWAP2 POP PUSH2 0x4CC1 PUSH1 0x20 DUP5 ADD PUSH2 0x4B1D JUMP JUMPDEST SWAP1 POP SWAP3 POP SWAP3 SWAP1 POP JUMP JUMPDEST PUSH0 PUSH0 DUP4 PUSH1 0x1F DUP5 ADD SLT PUSH2 0x4CDA JUMPI PUSH0 PUSH0 REVERT JUMPDEST POP DUP2 CALLDATALOAD PUSH1 0x1 PUSH1 0x1 PUSH1 0x40 SHL SUB DUP2 GT ISZERO PUSH2 0x4CF0 JUMPI PUSH0 PUSH0 REVERT JUMPDEST PUSH1 0x20 DUP4 ADD SWAP2 POP DUP4 PUSH1 0x20 DUP3 DUP6 ADD ADD GT ISZERO PUSH2 0x258E JUMPI PUSH0 PUSH0 REVERT JUMPDEST PUSH0 PUSH0 PUSH0 PUSH0 PUSH0 PUSH0 PUSH0 PUSH0 PUSH0 PUSH0 PUSH0 PUSH1 0xE0 DUP13 DUP15 SUB SLT ISZERO PUSH2 0x4D21 JUMPI PUSH0 PUSH0 REVERT JUMPDEST PUSH2 0x4D2A DUP13 PUSH2 0x3EB2 JUMP JUMPDEST SWAP11 POP PUSH2 0x4D38 PUSH1 0x20 DUP14 ADD PUSH2 0x3ED1 JUMP JUMPDEST SWAP10 POP PUSH2 0x4D46 PUSH1 0x40 DUP14 ADD PUSH2 0x4B1D JUMP JUMPDEST SWAP9 POP PUSH1 0x60 DUP13 ADD CALLDATALOAD PUSH1 0x1 PUSH1 0x1 PUSH1 0x40 SHL SUB DUP2 GT ISZERO PUSH2 0x4D60 JUMPI PUSH0 PUSH0 REVERT JUMPDEST PUSH2 0x4D6C DUP15 DUP3 DUP16 ADD PUSH2 0x4CCA JUMP JUMPDEST SWAP1 SWAP10 POP SWAP8 POP POP PUSH1 0x80 DUP13 ADD CALLDATALOAD PUSH1 0x1 PUSH1 0x1 PUSH1 0x40 SHL SUB DUP2 GT ISZERO PUSH2 0x4D8A JUMPI PUSH0 PUSH0 REVERT JUMPDEST PUSH2 0x4D96 DUP15 DUP3 DUP16 ADD PUSH2 0x4CCA JUMP JUMPDEST SWAP1 SWAP8 POP SWAP6 POP POP PUSH1 0xA0 DUP13 ADD CALLDATALOAD PUSH1 0x1 PUSH1 0x1 PUSH1 0x40 SHL SUB DUP2 GT ISZERO PUSH2 0x4DB4 JUMPI PUSH0 PUSH0 REVERT JUMPDEST PUSH2 0x4DC0 DUP15 DUP3 DUP16 ADD PUSH2 0x4CCA JUMP JUMPDEST SWAP1 SWAP6 POP SWAP4 POP POP PUSH1 0xC0 DUP13 ADD CALLDATALOAD PUSH1 0x1 PUSH1 0x1 PUSH1 0x40 SHL SUB DUP2 GT ISZERO PUSH2 0x4DDE JUMPI PUSH0 PUSH0 REVERT JUMPDEST PUSH2 0x4DEA DUP15 DUP3 DUP16 ADD PUSH2 0x4CCA JUMP JUMPDEST SWAP2 POP DUP1 SWAP4 POP POP DUP1 SWAP2 POP POP SWAP3 SWAP6 SWAP9 SWAP12 POP SWAP3 SWAP6 SWAP9 SWAP12 SWAP1 SWAP4 SWAP7 SWAP10 POP JUMP JUMPDEST DUP1 MLOAD PUSH2 0x1065 DUP2 PUSH2 0x468D JUMP JUMPDEST PUSH0 PUSH1 0x20 DUP3 DUP5 SUB SLT ISZERO PUSH2 0x4E1F JUMPI PUSH0 PUSH0 REVERT JUMPDEST DUP2 MLOAD PUSH2 0x4207 DUP2 PUSH2 0x468D JUMP JUMPDEST DUP1 MLOAD PUSH2 0x1065 DUP2 PUSH2 0x3E9E JUMP JUMPDEST PUSH0 PUSH1 0x20 DUP3 DUP5 SUB SLT ISZERO PUSH2 0x4E45 JUMPI PUSH0 PUSH0 REVERT JUMPDEST DUP2 MLOAD PUSH2 0x4207 DUP2 PUSH2 0x3E9E JUMP JUMPDEST PUSH1 0x20 DUP2 MSTORE PUSH0 PUSH2 0x1062 PUSH1 0x20 DUP4 ADD PUSH1 0xB DUP2 MSTORE PUSH11 0x26B2B73AA6B0B730B3B2B9 PUSH1 0xA9 SHL PUSH1 0x20 DUP3 ADD MSTORE PUSH1 0x40 ADD SWAP1 JUMP JUMPDEST PUSH1 0x1 PUSH1 0x1 PUSH1 0x80 SHL SUB DUP10 AND DUP2 MSTORE PUSH2 0x100 PUSH1 0x20 DUP3 ADD MSTORE PUSH0 PUSH2 0x4E9D PUSH2 0x100 DUP4 ADD DUP11 PUSH2 0x4229 JUMP JUMPDEST DUP3 DUP2 SUB PUSH1 0x40 DUP5 ADD MSTORE PUSH2 0x4EAF DUP2 DUP11 PUSH2 0x4229 JUMP JUMPDEST SWAP1 POP DUP3 DUP2 SUB PUSH1 0x60 DUP5 ADD MSTORE PUSH2 0x4EC3 DUP2 DUP10 PUSH2 0x4229 JUMP JUMPDEST SWAP1 POP PUSH1 0x1 PUSH1 0x1 PUSH1 0x80 SHL SUB DUP8 AND PUSH1 0x80 DUP5 ADD MSTORE DUP3 DUP2 SUB PUSH1 0xA0 DUP5 ADD MSTORE PUSH2 0x4EE6 DUP2 DUP8 PUSH2 0x4229 JUMP JUMPDEST SWAP1 POP DUP3 DUP2 SUB PUSH1 0xC0 DUP5 ADD MSTORE PUSH2 0x4EFA DUP2 DUP7 PUSH2 0x4229 JUMP JUMPDEST SWAP2 POP POP PUSH1 0x1 PUSH1 0x1 PUSH1 0x80 SHL SUB DUP4 AND PUSH1 0xE0 DUP4 ADD MSTORE SWAP10 SWAP9 POP POP POP POP POP POP POP POP POP JUMP JUMPDEST PUSH1 0x1 PUSH1 0x1 PUSH1 0xA0 SHL SUB DUP4 AND DUP2 MSTORE PUSH1 0x40 DUP2 ADD PUSH2 0x4207 PUSH1 0x20 DUP4 ADD DUP5 PUSH2 0x4AE1 JUMP JUMPDEST PUSH1 0x20 DUP2 MSTORE PUSH0 PUSH2 0x1062 PUSH1 0x20 DUP4 ADD PUSH1 0xD DUP2 MSTORE PUSH13 0x2932BB34B2BBA6B0B730B3B2B9 PUSH1 0x99 SHL PUSH1 0x20 DUP3 ADD MSTORE PUSH1 0x40 ADD SWAP1 JUMP JUMPDEST PUSH1 0x1 PUSH1 0x1 PUSH1 0xA0 SHL SUB DUP7 DUP2 AND DUP3 MSTORE DUP6 AND PUSH1 0x20 DUP3 ADD MSTORE PUSH1 0x1 PUSH1 0x1 PUSH1 0x80 SHL SUB DUP5 AND PUSH1 0x40 DUP3 ADD MSTORE PUSH1 0xFF DUP4 AND PUSH1 0x60 DUP3 ADD MSTORE PUSH1 0xA0 PUSH1 0x80 DUP3 ADD DUP2 SWAP1 MSTORE PUSH0 SWAP1 PUSH2 0x4FA5 SWAP1 DUP4 ADD DUP5 PUSH2 0x4229 JUMP JUMPDEST SWAP8 SWAP7 POP POP POP POP POP POP POP JUMP JUMPDEST PUSH1 0x40 DUP2 MSTORE PUSH0 PUSH2 0x4FDA PUSH1 0x40 DUP4 ADD PUSH1 0xB DUP2 MSTORE PUSH11 0x26B2B73AA6B0B730B3B2B9 PUSH1 0xA9 SHL PUSH1 0x20 DUP3 ADD MSTORE PUSH1 0x40 ADD SWAP1 JUMP JUMPDEST PUSH1 0x1 PUSH1 0x1 PUSH1 0xA0 SHL SUB SWAP4 SWAP1 SWAP4 AND PUSH1 0x20 SWAP3 SWAP1 SWAP3 ADD SWAP2 SWAP1 SWAP2 MSTORE POP SWAP1 JUMP JUMPDEST PUSH1 0x20 DUP2 MSTORE PUSH0 PUSH2 0x1062 PUSH1 0x20 DUP4 ADD PUSH1 0xC DUP2 MSTORE PUSH12 0x27B93232B926B0B730B3B2B9 PUSH1 0xA1 SHL PUSH1 0x20 DUP3 ADD MSTORE PUSH1 0x40 ADD SWAP1 JUMP JUMPDEST PUSH0 PUSH1 0x20 DUP3 DUP5 SUB SLT ISZERO PUSH2 0x502F JUMPI PUSH0 PUSH0 REVERT JUMPDEST POP MLOAD SWAP2 SWAP1 POP JUMP JUMPDEST DUP1 MLOAD PUSH2 0x1065 DUP2 PUSH2 0x3EBD JUMP JUMPDEST PUSH0 DUP3 PUSH1 0x1F DUP4 ADD SLT PUSH2 0x5050 JUMPI PUSH0 PUSH0 REVERT JUMPDEST DUP2 MLOAD PUSH2 0x505E PUSH2 0x402A DUP3 PUSH2 0x3FE7 JUMP JUMPDEST DUP2 DUP2 MSTORE DUP5 PUSH1 0x20 DUP4 DUP7 ADD ADD GT ISZERO PUSH2 0x5072 JUMPI PUSH0 PUSH0 REVERT JUMPDEST DUP2 PUSH1 0x20 DUP6 ADD PUSH1 0x20 DUP4 ADD MCOPY PUSH0 SWAP2 DUP2 ADD PUSH1 0x20 ADD SWAP2 SWAP1 SWAP2 MSTORE SWAP4 SWAP3 POP POP POP JUMP JUMPDEST PUSH0 DUP3 PUSH1 0x1F DUP4 ADD SLT PUSH2 0x509D JUMPI PUSH0 PUSH0 REVERT JUMPDEST DUP2 MLOAD PUSH2 0x50AB PUSH2 0x402A DUP3 PUSH2 0x4B9D JUMP JUMPDEST DUP1 DUP3 DUP3 MSTORE PUSH1 0x20 DUP3 ADD SWAP2 POP PUSH1 0x20 DUP4 PUSH1 0x5 SHL DUP7 ADD ADD SWAP3 POP DUP6 DUP4 GT ISZERO PUSH2 0x50CC JUMPI PUSH0 PUSH0 REVERT JUMPDEST PUSH1 0x20 DUP6 ADD JUMPDEST DUP4 DUP2 LT ISZERO PUSH2 0x4C23 JUMPI DUP1 MLOAD PUSH1 0x1 PUSH1 0x1 PUSH1 0x40 SHL SUB DUP2 GT ISZERO PUSH2 0x50EE JUMPI PUSH0 PUSH0 REVERT JUMPDEST DUP7 ADD PUSH1 0x80 DUP2 DUP10 SUB PUSH1 0x1F NOT ADD SLT ISZERO PUSH2 0x5103 JUMPI PUSH0 PUSH0 REVERT JUMPDEST PUSH2 0x510B PUSH2 0x3F50 JUMP JUMPDEST PUSH1 0x20 DUP3 ADD MLOAD PUSH2 0x5119 DUP2 PUSH2 0x3EBD JUMP JUMPDEST DUP2 MSTORE PUSH1 0x40 DUP3 ADD MLOAD PUSH1 0x1 PUSH1 0x1 PUSH1 0x40 SHL SUB DUP2 GT ISZERO PUSH2 0x5133 JUMPI PUSH0 PUSH0 REVERT JUMPDEST PUSH2 0x5142 DUP11 PUSH1 0x20 DUP4 DUP7 ADD ADD PUSH2 0x5041 JUMP JUMPDEST PUSH1 0x20 DUP4 ADD MSTORE POP PUSH1 0x60 DUP3 ADD MLOAD PUSH2 0x5156 DUP2 PUSH2 0x3EBD JUMP JUMPDEST PUSH1 0x40 DUP3 ADD MSTORE PUSH1 0x80 SWAP2 SWAP1 SWAP2 ADD MLOAD SWAP1 PUSH2 0x516C DUP3 PUSH2 0x3EBD JUMP JUMPDEST PUSH1 0x60 DUP2 ADD SWAP2 SWAP1 SWAP2 MSTORE DUP4 MSTORE PUSH1 0x20 SWAP3 DUP4 ADD SWAP3 ADD PUSH2 0x50D1 JUMP JUMPDEST DUP1 MLOAD PUSH2 0x1065 DUP2 PUSH2 0x48C0 JUMP JUMPDEST PUSH0 PUSH2 0x120 DUP3 DUP5 SUB SLT ISZERO PUSH2 0x519E JUMPI PUSH0 PUSH0 REVERT JUMPDEST PUSH2 0x51A6 PUSH2 0x3F72 JUMP JUMPDEST SWAP1 POP PUSH2 0x51B1 DUP3 PUSH2 0x5036 JUMP JUMPDEST DUP2 MSTORE PUSH2 0x51BF PUSH1 0x20 DUP4 ADD PUSH2 0x4E2A JUMP JUMPDEST PUSH1 0x20 DUP3 ADD MSTORE PUSH2 0x51D0 PUSH1 0x40 DUP4 ADD PUSH2 0x5036 JUMP JUMPDEST PUSH1 0x40 DUP3 ADD MSTORE PUSH1 0x60 DUP3 ADD MLOAD PUSH1 0x1 PUSH1 0x1 PUSH1 0x40 SHL SUB DUP2 GT ISZERO PUSH2 0x51ED JUMPI PUSH0 PUSH0 REVERT JUMPDEST PUSH2 0x51F9 DUP5 DUP3 DUP6 ADD PUSH2 0x508E JUMP JUMPDEST PUSH1 0x60 DUP4 ADD MSTORE POP PUSH1 0x80 DUP3 DUP2 ADD MLOAD SWAP1 DUP3 ADD MSTORE PUSH2 0x5215 PUSH1 0xA0 DUP4 ADD PUSH2 0x5182 JUMP JUMPDEST PUSH1 0xA0 DUP3 ADD MSTORE PUSH2 0x5226 PUSH1 0xC0 DUP4 ADD PUSH2 0x5036 JUMP JUMPDEST PUSH1 0xC0 DUP3 ADD MSTORE PUSH2 0x5237 PUSH1 0xE0 DUP4 ADD PUSH2 0x5036 JUMP JUMPDEST PUSH1 0xE0 DUP3 ADD MSTORE PUSH2 0x5249 PUSH2 0x100 DUP4 ADD PUSH2 0x5036 JUMP JUMPDEST PUSH2 0x100 DUP3 ADD MSTORE SWAP3 SWAP2 POP POP JUMP JUMPDEST PUSH0 PUSH1 0x20 DUP3 DUP5 SUB SLT ISZERO PUSH2 0x5265 JUMPI PUSH0 PUSH0 REVERT JUMPDEST DUP2 MLOAD PUSH1 0x1 PUSH1 0x1 PUSH1 0x40 SHL SUB DUP2 GT ISZERO PUSH2 0x527A JUMPI PUSH0 PUSH0 REVERT JUMPDEST PUSH2 0x3BA9 DUP5 DUP3 DUP6 ADD PUSH2 0x518D JUMP JUMPDEST PUSH1 0x20 DUP2 MSTORE PUSH0 PUSH2 0x1062 PUSH1 0x20 DUP4 ADD PUSH1 0x11 DUP2 MSTORE PUSH17 0x2932B9BA30BAB930B73A26B0B730B3B2B9 PUSH1 0x79 SHL PUSH1 0x20 DUP3 ADD MSTORE PUSH1 0x40 ADD SWAP1 JUMP JUMPDEST PUSH0 PUSH1 0x20 DUP3 DUP5 SUB SLT ISZERO PUSH2 0x52C6 JUMPI PUSH0 PUSH0 REVERT JUMPDEST DUP2 MLOAD PUSH2 0x4207 DUP2 PUSH2 0x3EBD JUMP JUMPDEST PUSH1 0x40 DUP2 MSTORE PUSH0 PUSH2 0x4FDA PUSH1 0x40 DUP4 ADD PUSH1 0xC DUP2 MSTORE PUSH12 0x27B93232B926B0B730B3B2B9 PUSH1 0xA1 SHL PUSH1 0x20 DUP3 ADD MSTORE PUSH1 0x40 ADD SWAP1 JUMP JUMPDEST PUSH0 PUSH2 0x180 DUP3 DUP5 SUB SLT ISZERO PUSH2 0x530D JUMPI PUSH0 PUSH0 REVERT JUMPDEST PUSH2 0x5315 PUSH2 0x3F27 JUMP JUMPDEST SWAP1 POP PUSH2 0x5320 DUP3 PUSH2 0x5036 JUMP JUMPDEST DUP2 MSTORE PUSH2 0x532E PUSH1 0x20 DUP4 ADD PUSH2 0x5036 JUMP JUMPDEST PUSH1 0x20 DUP3 ADD MSTORE PUSH1 0x40 DUP3 ADD MLOAD PUSH1 0x1 PUSH1 0x1 PUSH1 0x40 SHL SUB DUP2 GT ISZERO PUSH2 0x534B JUMPI PUSH0 PUSH0 REVERT JUMPDEST PUSH2 0x5357 DUP5 DUP3 DUP6 ADD PUSH2 0x5041 JUMP JUMPDEST PUSH1 0x40 DUP4 ADD MSTORE POP PUSH1 0x60 DUP3 ADD MLOAD PUSH1 0x1 PUSH1 0x1 PUSH1 0x40 SHL SUB DUP2 GT ISZERO PUSH2 0x5375 JUMPI PUSH0 PUSH0 REVERT JUMPDEST PUSH2 0x5381 DUP5 DUP3 DUP6 ADD PUSH2 0x5041 JUMP JUMPDEST PUSH1 0x60 DUP4 ADD MSTORE POP PUSH1 0x80 DUP3 ADD MLOAD PUSH1 0x1 PUSH1 0x1 PUSH1 0x40 SHL SUB DUP2 GT ISZERO PUSH2 0x539F JUMPI PUSH0 PUSH0 REVERT JUMPDEST PUSH2 0x53AB DUP5 DUP3 DUP6 ADD PUSH2 0x5041 JUMP JUMPDEST PUSH1 0x80 DUP4 ADD MSTORE POP PUSH2 0x53BD PUSH1 0xA0 DUP4 ADD PUSH2 0x5036 JUMP JUMPDEST PUSH1 0xA0 DUP3 ADD MSTORE PUSH2 0x53CE PUSH1 0xC0 DUP4 ADD PUSH2 0x4E04 JUMP JUMPDEST PUSH1 0xC0 DUP3 ADD MSTORE PUSH1 0xE0 DUP3 ADD MLOAD PUSH1 0x1 PUSH1 0x1 PUSH1 0x40 SHL SUB DUP2 GT ISZERO PUSH2 0x53EB JUMPI PUSH0 PUSH0 REVERT JUMPDEST PUSH2 0x53F7 DUP5 DUP3 DUP6 ADD PUSH2 0x5041 JUMP JUMPDEST PUSH1 0xE0 DUP4 ADD MSTORE POP PUSH2 0x100 DUP3 ADD MLOAD PUSH1 0x1 PUSH1 0x1 PUSH1 0x40 SHL SUB DUP2 GT ISZERO PUSH2 0x5416 JUMPI PUSH0 PUSH0 REVERT JUMPDEST PUSH2 0x5422 DUP5 DUP3 DUP6 ADD PUSH2 0x5041 JUMP JUMPDEST PUSH2 0x100 DUP4 ADD MSTORE POP PUSH2 0x5436 PUSH2 0x120 DUP4 ADD PUSH2 0x5036 JUMP JUMPDEST PUSH2 0x120 DUP3 ADD MSTORE PUSH2 0x5449 PUSH2 0x140 DUP4 ADD PUSH2 0x5036 JUMP JUMPDEST PUSH2 0x140 DUP3 ADD MSTORE PUSH2 0x545C PUSH2 0x160 DUP4 ADD PUSH2 0x5036 JUMP JUMPDEST PUSH2 0x160 DUP3 ADD MSTORE SWAP3 SWAP2 POP POP JUMP JUMPDEST PUSH0 PUSH1 0x20 DUP3 DUP5 SUB SLT ISZERO PUSH2 0x5478 JUMPI PUSH0 PUSH0 REVERT JUMPDEST DUP2 MLOAD PUSH1 0x1 PUSH1 0x1 PUSH1 0x40 SHL SUB DUP2 GT ISZERO PUSH2 0x548D JUMPI PUSH0 PUSH0 REVERT JUMPDEST DUP3 ADD PUSH1 0x1F DUP2 ADD DUP5 SGT PUSH2 0x549D JUMPI PUSH0 PUSH0 REVERT JUMPDEST DUP1 MLOAD PUSH2 0x54AB PUSH2 0x402A DUP3 PUSH2 0x4B9D JUMP JUMPDEST DUP1 DUP3 DUP3 MSTORE PUSH1 0x20 DUP3 ADD SWAP2 POP PUSH1 0x20 DUP4 PUSH1 0x5 SHL DUP6 ADD ADD SWAP3 POP DUP7 DUP4 GT ISZERO PUSH2 0x54CC JUMPI PUSH0 PUSH0 REVERT JUMPDEST PUSH1 0x20 DUP5 ADD JUMPDEST DUP4 DUP2 LT ISZERO PUSH2 0x550C JUMPI DUP1 MLOAD PUSH1 0x1 PUSH1 0x1 PUSH1 0x40 SHL SUB DUP2 GT ISZERO PUSH2 0x54EE JUMPI PUSH0 PUSH0 REVERT JUMPDEST PUSH2 0x54FD DUP10 PUSH1 0x20 DUP4 DUP10 ADD ADD PUSH2 0x52FC JUMP JUMPDEST DUP5 MSTORE POP PUSH1 0x20 SWAP3 DUP4 ADD SWAP3 ADD PUSH2 0x54D1 JUMP JUMPDEST POP SWAP7 SWAP6 POP POP POP POP POP POP JUMP JUMPDEST DUP1 MLOAD PUSH2 0x1065 DUP2 PUSH2 0x416E JUMP JUMPDEST PUSH0 PUSH1 0x20 DUP3 DUP5 SUB SLT ISZERO PUSH2 0x5532 JUMPI PUSH0 PUSH0 REVERT JUMPDEST DUP2 MLOAD PUSH1 0x1 PUSH1 0x1 PUSH1 0x40 SHL SUB DUP2 GT ISZERO PUSH2 0x5547 JUMPI PUSH0 PUSH0 REVERT JUMPDEST DUP3 ADD PUSH1 0x1F DUP2 ADD DUP5 SGT PUSH2 0x5557 JUMPI PUSH0 PUSH0 REVERT JUMPDEST DUP1 MLOAD PUSH2 0x5565 PUSH2 0x402A DUP3 PUSH2 0x4B9D JUMP JUMPDEST DUP1 DUP3 DUP3 MSTORE PUSH1 0x20 DUP3 ADD SWAP2 POP PUSH1 0x20 DUP4 PUSH1 0x5 SHL DUP6 ADD ADD SWAP3 POP DUP7 DUP4 GT ISZERO PUSH2 0x5586 JUMPI PUSH0 PUSH0 REVERT JUMPDEST PUSH1 0x20 DUP5 ADD JUMPDEST DUP4 DUP2 LT ISZERO PUSH2 0x550C JUMPI DUP1 MLOAD PUSH1 0x1 PUSH1 0x1 PUSH1 0x40 SHL SUB DUP2 GT ISZERO PUSH2 0x55A8 JUMPI PUSH0 PUSH0 REVERT JUMPDEST DUP6 ADD PUSH1 0xE0 DUP2 DUP11 SUB PUSH1 0x1F NOT ADD SLT ISZERO PUSH2 0x55BD JUMPI PUSH0 PUSH0 REVERT JUMPDEST PUSH2 0x55C5 PUSH2 0x3F95 JUMP JUMPDEST PUSH2 0x55D1 PUSH1 0x20 DUP4 ADD PUSH2 0x5036 JUMP JUMPDEST DUP2 MSTORE PUSH2 0x55DF PUSH1 0x40 DUP4 ADD PUSH2 0x4E2A JUMP JUMPDEST PUSH1 0x20 DUP3 ADD MSTORE PUSH2 0x55F0 PUSH1 0x60 DUP4 ADD PUSH2 0x4E2A JUMP JUMPDEST PUSH1 0x40 DUP3 ADD MSTORE PUSH2 0x5601 PUSH1 0x80 DUP4 ADD PUSH2 0x5036 JUMP JUMPDEST PUSH1 0x60 DUP3 ADD MSTORE PUSH2 0x5612 PUSH1 0xA0 DUP4 ADD PUSH2 0x5517 JUMP JUMPDEST PUSH1 0x80 DUP3 ADD MSTORE PUSH1 0xC0 DUP3 ADD MLOAD PUSH1 0x1 PUSH1 0x1 PUSH1 0x40 SHL SUB DUP2 GT ISZERO PUSH2 0x562F JUMPI PUSH0 PUSH0 REVERT JUMPDEST PUSH2 0x563E DUP12 PUSH1 0x20 DUP4 DUP7 ADD ADD PUSH2 0x5041 JUMP JUMPDEST PUSH1 0xA0 DUP4 ADD MSTORE POP PUSH2 0x5650 PUSH1 0xE0 DUP4 ADD PUSH2 0x5036 JUMP JUMPDEST PUSH1 0xC0 DUP3 ADD MSTORE DUP5 MSTORE POP PUSH1 0x20 SWAP3 DUP4 ADD SWAP3 ADD PUSH2 0x558B JUMP JUMPDEST PUSH1 0x1 PUSH1 0x1 PUSH1 0xA0 SHL SUB DUP6 AND DUP2 MSTORE PUSH1 0x1 PUSH1 0x1 PUSH1 0x80 SHL SUB DUP5 AND PUSH1 0x20 DUP3 ADD MSTORE PUSH1 0xFF DUP4 AND PUSH1 0x40 DUP3 ADD MSTORE PUSH1 0x80 PUSH1 0x60 DUP3 ADD DUP2 SWAP1 MSTORE PUSH0 SWAP1 PUSH2 0x569F SWAP1 DUP4 ADD DUP5 PUSH2 0x4229 JUMP JUMPDEST SWAP7 SWAP6 POP POP POP POP POP POP JUMP JUMPDEST PUSH1 0x1 PUSH1 0x1 PUSH1 0xA0 SHL SUB DUP6 AND DUP2 MSTORE PUSH1 0x1 PUSH1 0x1 PUSH1 0x80 SHL SUB DUP5 AND PUSH1 0x20 DUP3 ADD MSTORE PUSH1 0x80 DUP2 ADD PUSH2 0x56D5 PUSH1 0x40 DUP4 ADD DUP6 PUSH2 0x4310 JUMP JUMPDEST PUSH1 0x1 PUSH1 0x1 PUSH1 0x80 SHL SUB DUP4 AND PUSH1 0x60 DUP4 ADD MSTORE SWAP6 SWAP5 POP POP POP POP POP JUMP JUMPDEST PUSH0 PUSH1 0x20 DUP3 DUP5 SUB SLT ISZERO PUSH2 0x56FD JUMPI PUSH0 PUSH0 REVERT JUMPDEST DUP2 MLOAD PUSH1 0x1 PUSH1 0x1 PUSH1 0x40 SHL SUB DUP2 GT ISZERO PUSH2 0x5712 JUMPI PUSH0 PUSH0 REVERT JUMPDEST DUP3 ADD PUSH1 0x1F DUP2 ADD DUP5 SGT PUSH2 0x5722 JUMPI PUSH0 PUSH0 REVERT JUMPDEST DUP1 MLOAD PUSH2 0x5730 PUSH2 0x402A DUP3 PUSH2 0x4B9D JUMP JUMPDEST DUP1 DUP3 DUP3 MSTORE PUSH1 0x20 DUP3 ADD SWAP2 POP PUSH1 0x20 DUP4 PUSH1 0x5 SHL DUP6 ADD ADD SWAP3 POP DUP7 DUP4 GT ISZERO PUSH2 0x5751 JUMPI PUSH0 PUSH0 REVERT JUMPDEST PUSH1 0x20 DUP5 ADD SWAP4 POP JUMPDEST DUP3 DUP5 LT ISZERO PUSH2 0x569F JUMPI DUP4 MLOAD PUSH2 0x576B DUP2 PUSH2 0x3EBD JUMP JUMPDEST DUP3 MSTORE PUSH1 0x20 SWAP4 DUP5 ADD SWAP4 SWAP1 SWAP2 ADD SWAP1 PUSH2 0x5758 JUMP JUMPDEST PUSH0 PUSH0 PUSH1 0x40 DUP4 DUP6 SUB SLT ISZERO PUSH2 0x578D JUMPI PUSH0 PUSH0 REVERT JUMPDEST DUP3 MLOAD PUSH1 0x1 PUSH1 0x1 PUSH1 0x40 SHL SUB DUP2 GT ISZERO PUSH2 0x57A2 JUMPI PUSH0 PUSH0 REVERT JUMPDEST DUP4 ADD PUSH1 0x1F DUP2 ADD DUP6 SGT PUSH2 0x57B2 JUMPI PUSH0 PUSH0 REVERT JUMPDEST DUP1 MLOAD PUSH2 0x57C0 PUSH2 0x402A DUP3 PUSH2 0x4B9D JUMP JUMPDEST DUP1 DUP3 DUP3 MSTORE PUSH1 0x20 DUP3 ADD SWAP2 POP PUSH1 0x20 DUP4 PUSH1 0x5 SHL DUP6 ADD ADD SWAP3 POP DUP8 DUP4 GT ISZERO PUSH2 0x57E1 JUMPI PUSH0 PUSH0 REVERT JUMPDEST PUSH1 0x20 DUP5 ADD JUMPDEST DUP4 DUP2 LT ISZERO PUSH2 0x5821 JUMPI DUP1 MLOAD PUSH1 0x1 PUSH1 0x1 PUSH1 0x40 SHL SUB DUP2 GT ISZERO PUSH2 0x5803 JUMPI PUSH0 PUSH0 REVERT JUMPDEST PUSH2 0x5812 DUP11 PUSH1 0x20 DUP4 DUP10 ADD ADD PUSH2 0x518D JUMP JUMPDEST DUP5 MSTORE POP PUSH1 0x20 SWAP3 DUP4 ADD SWAP3 ADD PUSH2 0x57E6 JUMP JUMPDEST POP PUSH1 0x20 SWAP7 SWAP1 SWAP7 ADD MLOAD SWAP6 SWAP8 SWAP6 SWAP7 POP POP POP POP POP POP JUMP JUMPDEST PUSH1 0x40 DUP2 MSTORE PUSH0 PUSH2 0x4FDA PUSH1 0x40 DUP4 ADD PUSH1 0x11 DUP2 MSTORE PUSH17 0x2932B9BA30BAB930B73A26B0B730B3B2B9 PUSH1 0x79 SHL PUSH1 0x20 DUP3 ADD MSTORE PUSH1 0x40 ADD SWAP1 JUMP JUMPDEST PUSH0 PUSH0 PUSH1 0x40 DUP4 DUP6 SUB SLT ISZERO PUSH2 0x5876 JUMPI PUSH0 PUSH0 REVERT JUMPDEST DUP3 MLOAD PUSH2 0x5881 DUP2 PUSH2 0x3EBD JUMP JUMPDEST PUSH1 0x20 DUP5 ADD MLOAD SWAP1 SWAP3 POP PUSH2 0x3F08 DUP2 PUSH2 0x3EBD JUMP JUMPDEST PUSH0 PUSH1 0x20 DUP3 DUP5 SUB SLT ISZERO PUSH2 0x58A2 JUMPI PUSH0 PUSH0 REVERT JUMPDEST DUP2 MLOAD PUSH1 0x1 PUSH1 0x1 PUSH1 0x40 SHL SUB DUP2 GT ISZERO PUSH2 0x58B7 JUMPI PUSH0 PUSH0 REVERT JUMPDEST DUP3 ADD PUSH1 0x1F DUP2 ADD DUP5 SGT PUSH2 0x58C7 JUMPI PUSH0 PUSH0 REVERT JUMPDEST DUP1 MLOAD PUSH2 0x58D5 PUSH2 0x402A DUP3 PUSH2 0x4B9D JUMP JUMPDEST DUP1 DUP3 DUP3 MSTORE PUSH1 0x20 DUP3 ADD SWAP2 POP PUSH1 0x20 DUP4 PUSH1 0x5 SHL DUP6 ADD ADD SWAP3 POP DUP7 DUP4 GT ISZERO PUSH2 0x58F6 JUMPI PUSH0 PUSH0 REVERT JUMPDEST PUSH1 0x20 DUP5 ADD JUMPDEST DUP4 DUP2 LT ISZERO PUSH2 0x550C JUMPI DUP1 MLOAD PUSH1 0x1 PUSH1 0x1 PUSH1 0x40 SHL SUB DUP2 GT ISZERO PUSH2 0x5918 JUMPI PUSH0 PUSH0 REVERT JUMPDEST DUP6 ADD PUSH1 0xE0 DUP2 DUP11 SUB PUSH1 0x1F NOT ADD SLT ISZERO PUSH2 0x592D JUMPI PUSH0 PUSH0 REVERT JUMPDEST PUSH2 0x5935 PUSH2 0x3F95 JUMP JUMPDEST PUSH2 0x5941 PUSH1 0x20 DUP4 ADD PUSH2 0x5036 JUMP JUMPDEST DUP2 MSTORE PUSH2 0x594F PUSH1 0x40 DUP4 ADD PUSH2 0x4E2A JUMP JUMPDEST PUSH1 0x20 DUP3 ADD MSTORE PUSH2 0x5960 PUSH1 0x60 DUP4 ADD PUSH2 0x5036 JUMP JUMPDEST PUSH1 0x40 DUP3 ADD MSTORE PUSH2 0x5971 PUSH1 0x80 DUP4 ADD PUSH2 0x5036 JUMP JUMPDEST PUSH1 0x60 DUP3 ADD MSTORE PUSH2 0x5982 PUSH1 0xA0 DUP4 ADD PUSH2 0x5517 JUMP JUMPDEST PUSH1 0x80 DUP3 ADD MSTORE PUSH1 0xC0 DUP3 ADD MLOAD PUSH1 0x1 PUSH1 0x1 PUSH1 0x40 SHL SUB DUP2 GT ISZERO PUSH2 0x599F JUMPI PUSH0 PUSH0 REVERT JUMPDEST PUSH2 0x59AE DUP12 PUSH1 0x20 DUP4 DUP7 ADD ADD PUSH2 0x5041 JUMP JUMPDEST PUSH1 0xA0 DUP4 ADD MSTORE POP PUSH2 0x59C0 PUSH1 0xE0 DUP4 ADD PUSH2 0x5036 JUMP JUMPDEST PUSH1 0xC0 DUP3 ADD MSTORE DUP5 MSTORE POP PUSH1 0x20 SWAP3 DUP4 ADD SWAP3 ADD PUSH2 0x58FB JUMP JUMPDEST PUSH0 PUSH1 0x20 DUP3 DUP5 SUB SLT ISZERO PUSH2 0x59E4 JUMPI PUSH0 PUSH0 REVERT JUMPDEST DUP2 MLOAD PUSH1 0x1 PUSH1 0x1 PUSH1 0x40 SHL SUB DUP2 GT ISZERO PUSH2 0x59F9 JUMPI PUSH0 PUSH0 REVERT JUMPDEST PUSH2 0x3BA9 DUP5 DUP3 DUP6 ADD PUSH2 0x52FC JUMP JUMPDEST PUSH1 0x1 PUSH1 0x1 PUSH1 0xA0 SHL SUB DUP7 AND DUP2 MSTORE PUSH1 0x1 PUSH1 0x1 PUSH1 0x80 SHL SUB DUP6 DUP2 AND PUSH1 0x20 DUP4 ADD MSTORE DUP5 AND PUSH1 0x40 DUP3 ADD MSTORE PUSH1 0xFF DUP4 AND PUSH1 0x60 DUP3 ADD MSTORE PUSH1 0xA0 PUSH1 0x80 DUP3 ADD DUP2 SWAP1 MSTORE PUSH0 SWAP1 PUSH2 0x4FA5 SWAP1 DUP4 ADD DUP5 PUSH2 0x4229 JUMP JUMPDEST PUSH1 0x40 DUP2 MSTORE PUSH0 PUSH2 0x4FDA PUSH1 0x40 DUP4 ADD PUSH1 0xD DUP2 MSTORE PUSH13 0x2932BB34B2BBA6B0B730B3B2B9 PUSH1 0x99 SHL PUSH1 0x20 DUP3 ADD MSTORE PUSH1 0x40 ADD SWAP1 JUMP JUMPDEST PUSH4 0x4E487B71 PUSH1 0xE0 SHL PUSH0 MSTORE PUSH1 0x32 PUSH1 0x4 MSTORE PUSH1 0x24 PUSH0 REVERT JUMPDEST PUSH1 0x1 PUSH1 0x1 PUSH1 0xA0 SHL SUB DUP6 AND DUP2 MSTORE PUSH1 0x1 PUSH1 0x1 PUSH1 0x80 SHL SUB DUP5 AND PUSH1 0x20 DUP3 ADD MSTORE PUSH1 0x80 PUSH1 0x40 DUP3 ADD DUP2 SWAP1 MSTORE PUSH0 SWAP1 PUSH2 0x5ABA SWAP1 DUP4 ADD DUP6 PUSH2 0x48F8 JUMP JUMPDEST DUP3 DUP2 SUB PUSH1 0x60 DUP5 ADD MSTORE PUSH2 0x4FA5 DUP2 DUP6 PUSH2 0x48F8 JUMP JUMPDEST PUSH1 0x20 DUP2 MSTORE PUSH0 PUSH2 0x1062 PUSH1 0x20 DUP4 ADD PUSH1 0x12 DUP2 MSTORE PUSH18 0x2AB9B2B9283937B334B632A6B0B730B3B2B9 PUSH1 0x71 SHL PUSH1 0x20 DUP3 ADD MSTORE PUSH1 0x40 ADD SWAP1 JUMP JUMPDEST PUSH1 0x40 DUP2 MSTORE PUSH0 PUSH2 0x4FDA PUSH1 0x40 DUP4 ADD PUSH1 0x12 DUP2 MSTORE PUSH18 0x2AB9B2B9283937B334B632A6B0B730B3B2B9 PUSH1 0x71 SHL PUSH1 0x20 DUP3 ADD MSTORE PUSH1 0x40 ADD SWAP1 JUMP JUMPDEST DUP2 DUP4 MSTORE DUP2 DUP2 PUSH1 0x20 DUP6 ADD CALLDATACOPY POP PUSH0 DUP3 DUP3 ADD PUSH1 0x20 SWAP1 DUP2 ADD SWAP2 SWAP1 SWAP2 MSTORE PUSH1 0x1F SWAP1 SWAP2 ADD PUSH1 0x1F NOT AND SWAP1 SWAP2 ADD ADD SWAP1 JUMP JUMPDEST PUSH1 0x1 PUSH1 0x1 PUSH1 0xA0 SHL SUB DUP11 AND DUP2 MSTORE PUSH1 0xA0 PUSH1 0x20 DUP3 ADD DUP2 SWAP1 MSTORE PUSH0 SWAP1 PUSH2 0x5B7A SWAP1 DUP4 ADD DUP11 DUP13 PUSH2 0x5B2E JUMP JUMPDEST DUP3 DUP2 SUB PUSH1 0x40 DUP5 ADD MSTORE PUSH2 0x5B8D DUP2 DUP10 DUP12 PUSH2 0x5B2E JUMP JUMPDEST SWAP1 POP DUP3 DUP2 SUB PUSH1 0x60 DUP5 ADD MSTORE PUSH2 0x5BA2 DUP2 DUP8 DUP10 PUSH2 0x5B2E JUMP JUMPDEST SWAP1 POP DUP3 DUP2 SUB PUSH1 0x80 DUP5 ADD MSTORE PUSH2 0x5BB7 DUP2 DUP6 DUP8 PUSH2 0x5B2E JUMP JUMPDEST SWAP13 SWAP12 POP POP POP POP POP POP POP POP POP POP POP POP JUMP JUMPDEST PUSH1 0x20 DUP2 MSTORE PUSH0 PUSH2 0x3BA9 PUSH1 0x20 DUP4 ADD DUP5 DUP7 PUSH2 0x5B2E JUMP INVALID SMOD SELFBALANCE LOG1 0xB3 CALLVALUE PC 0x4B LOG1 COINBASE PREVRANDAO 0xE8 0xE2 DUP16 XOR 0xC7 DUP8 0xD5 EXTDELEGATECALL DUP5 CHAINID 0xDA SWAP7 0xBF 0xB2 REVERT LOG1 0x2D DUPN 0xD8 0xC5 STOP CALLVALUE 0xAA 0x25 SWAP6 PUSH6 0x575C834BC07E PUSH21 0xDCA784B4071676133AC78513B431AFB6EE7EDAE121 LOG2 PUSH5 0x6970667358 0x22 SLT KECCAK256 MOD MOD PUSH19 0x2B89B7121C62CAF965A29AF745AA1E20A00D9B 0xBF PUSH13 0xC0B7963F72102AFF64736F6C63 NUMBER STOP ADDMOD 0x1E STOP CALLER "
		},
		"gasEstimates": {
			"creation": {
				"codeDepositCost": "4726400",
				"executionCost": "5549",
				"totalCost": "4731949"
			},
			"external": {
				"addMenuItemToRestaurant(uint128,string,string,string,uint128,string,string,uint128)": "infinite",
				"assignStaffMemberToRestaurant(address,uint128,uint8,string,string,string,string)": "infinite",
				"assignStaffToRestaurant(address,uint128,uint8)": "infinite",
				"cancelCustomerOrder(uint128)": "infinite",
				"completeStaffOrder(uint128)": "infinite",
				"deployMenuManager()": "infinite",
				"deployOrderManager()": "infinite",
				"deployRestaurantManager()": "infinite",
				"deployReviewManager()": "infinite",
				"deployUserProfileManager()": "infinite",
				"factory()": "2392",
				"getAllMenuItemIdsOfRestaurant(uint128)": "infinite",
				"getAllMenuItemsOfRestaurant(uint128)": "infinite",
				"getAverageMenuItemRating(uint128)": "infinite",
				"getAverageStaffRating(address)": "infinite",
				"getCustomerOrder(uint128)": "infinite",
				"getMenuItemFromRestaurant(uint128,uint128)": "infinite",
				"getMenuItemReviews(uint128)": "infinite",
				"getMyOrderCount()": "infinite",
				"getMyOrders(uint256,uint256)": "infinite",
				"getOrderCountForSpecificCustomer(address)": "infinite",
				"getOrdersForSpecificCustomer(address,uint256,uint256)": "infinite",
				"getRestaurantOwner(uint128)": "infinite",
				"getStaffReviews(address)": "infinite",
				"grantAppRole(address,uint8)": "30249",
				"initialize(address,address)": "infinite",
				"menuManager()": "2481",
				"orderManager()": "2479",
				"owner()": "2431",
				"placeCustomerOrder(uint128,uint128[],uint128[])": "infinite",
				"rateMenuItem(uint128,uint128,uint8,string)": "infinite",
				"rateRestaurant(uint128,uint8,string)": "infinite",
				"rateStaff(address,uint128,uint8,string)": "infinite",
				"registerNewRestaurant(address)": "infinite",
				"removeStaffFromRestaurant(address,uint128)": "infinite",
				"removeStaffMemberFromRestaurant(address,uint128)": "infinite",
				"renounceOwnership()": "infinite",
				"restaurantManager()": "2460",
				"reviewManager()": "2436",
				"revokeAppRole(address)": "infinite",
				"roles(address)": "2664",
				"staffAssignments(address,uint128)": "infinite",
				"transferOwnership(address)": "infinite",
				"updateMenuItemDetails((uint128,uint128,string,string,string,uint128,bool,string,string,uint128,uint128,uint128))": "infinite",
				"updateStaffOrderStatus(uint128,uint8)": "infinite",
				"userProfileManager()": "2459"
			}
		},
		"methodIdentifiers": {
			"addMenuItemToRestaurant(uint128,string,string,string,uint128,string,string,uint128)": "0327c705",
			"assignStaffMemberToRestaurant(address,uint128,uint8,string,string,string,string)": "ee2be2a8",
			"assignStaffToRestaurant(address,uint128,uint8)": "addfa353",
			"cancelCustomerOrder(uint128)": "319ba603",
			"completeStaffOrder(uint128)": "3cd3741d",
			"deployMenuManager()": "1bb91f9f",
			"deployOrderManager()": "294ac1a7",
			"deployRestaurantManager()": "6c5f005c",
			"deployReviewManager()": "c7f9704d",
			"deployUserProfileManager()": "e77036d6",
			"factory()": "c45a0155",
			"getAllMenuItemIdsOfRestaurant(uint128)": "5464462b",
			"getAllMenuItemsOfRestaurant(uint128)": "36d004a8",
			"getAverageMenuItemRating(uint128)": "6df37098",
			"getAverageStaffRating(address)": "98e8d802",
			"getCustomerOrder(uint128)": "27c4a7a1",
			"getMenuItemFromRestaurant(uint128,uint128)": "e0ed2ece",
			"getMenuItemReviews(uint128)": "8e5332c8",
			"getMyOrderCount()": "9c8d9b82",
			"getMyOrders(uint256,uint256)": "78e025f9",
			"getOrderCountForSpecificCustomer(address)": "257fbda5",
			"getOrdersForSpecificCustomer(address,uint256,uint256)": "6bf299d9",
			"getRestaurantOwner(uint128)": "b9588327",
			"getStaffReviews(address)": "3f6c7347",
			"grantAppRole(address,uint8)": "ea38d06d",
			"initialize(address,address)": "485cc955",
			"menuManager()": "5059e95b",
			"orderManager()": "f9b6117f",
			"owner()": "8da5cb5b",
			"placeCustomerOrder(uint128,uint128[],uint128[])": "e4766736",
			"rateMenuItem(uint128,uint128,uint8,string)": "a7903f52",
			"rateRestaurant(uint128,uint8,string)": "515f72ce",
			"rateStaff(address,uint128,uint8,string)": "0e7d52e5",
			"registerNewRestaurant(address)": "287128c4",
			"removeStaffFromRestaurant(address,uint128)": "009d2013",
			"removeStaffMemberFromRestaurant(address,uint128)": "bfc72e8b",
			"renounceOwnership()": "715018a6",
			"restaurantManager()": "2134b6f6",
			"reviewManager()": "c9b81583",
			"revokeAppRole(address)": "66fab191",
			"roles(address)": "99374642",
			"staffAssignments(address,uint128)": "ce4cf9cb",
			"transferOwnership(address)": "f2fde38b",
			"updateMenuItemDetails((uint128,uint128,string,string,string,uint128,bool,string,string,uint128,uint128,uint128))": "41f02d7b",
			"updateStaffOrderStatus(uint128,uint8)": "520dd046",
			"userProfileManager()": "29757982"
		}
	},
	"abi": [
		{
			"inputs": [],
			"name": "FoodApp__ActionNotAllowedForRole",
			"type": "error"
		},
		{
			"inputs": [
				{
					"internalType": "string",
					"name": "managerType",
					"type": "string"
				}
			],
			"name": "FoodApp__DependencyNotDeployed",
			"type": "error"
		},
		{
			"inputs": [],
			"name": "FoodApp__InvalidFactoryAddress",
			"type": "error"
		},
		{
			"inputs": [],
			"name": "FoodApp__InvalidOrderData",
			"type": "error"
		},
		{
			"inputs": [],
			"name": "FoodApp__InvalidRestaurantId",
			"type": "error"
		},
		{
			"inputs": [
				{
					"internalType": "string",
					"name": "managerType",
					"type": "string"
				}
			],
			"name": "FoodApp__ManagerAlreadyDeployed",
			"type": "error"
		},
		{
			"inputs": [
				{
					"internalType": "string",
					"name": "managerType",
					"type": "string"
				}
			],
			"name": "FoodApp__ManagerNotSet",
			"type": "error"
		},
		{
			"inputs": [
				{
					"internalType": "uint128",
					"name": "menuItemId",
					"type": "uint128"
				}
			],
			"name": "FoodApp__MenuItemNotAvailable",
			"type": "error"
		},
		{
			"inputs": [
				{
					"internalType": "uint128",
					"name": "restaurantId",
					"type": "uint128"
				},
				{
					"internalType": "uint128",
					"name": "menuItemId",
					"type": "uint128"
				}
			],
			"name": "FoodApp__MenuItemNotFound",
			"type": "error"
		},
		{
			"inputs": [],
			"name": "FoodApp__NotAuthorized",
			"type": "error"
		},
		{
			"inputs": [],
			"name": "FoodApp__NotRestaurantStaff",
			"type": "error"
		},
		{
			"inputs": [],
			"name": "FoodApp__UserProfileManagerNotSet",
			"type": "error"
		},
		{
			"inputs": [],
			"name": "InvalidInitialization",
			"type": "error"
		},
		{
			"inputs": [],
			"name": "NotInitializing",
			"type": "error"
		},
		{
			"inputs": [
				{
					"internalType": "address",
					"name": "owner",
					"type": "address"
				}
			],
			"name": "OwnableInvalidOwner",
			"type": "error"
		},
		{
			"inputs": [
				{
					"internalType": "address",
					"name": "account",
					"type": "address"
				}
			],
			"name": "OwnableUnauthorizedAccount",
			"type": "error"
		},
		{
			"inputs": [
				{
					"internalType": "address",
					"name": "account",
					"type": "address"
				},
				{
					"internalType": "enum RoleAccess.Role",
					"name": "role",
					"type": "uint8"
				}
			],
			"name": "RoleAccess__AlreadyHasRole",
			"type": "error"
		},
		{
			"inputs": [],
			"name": "RoleAccess__InvalidRestaurantId",
			"type": "error"
		},
		{
			"inputs": [],
			"name": "RoleAccess__NotAdmin",
			"type": "error"
		},
		{
			"inputs": [],
			"name": "RoleAccess__NotFoodApp",
			"type": "error"
		},
		{
			"inputs": [
				{
					"internalType": "address",
					"name": "account",
					"type": "address"
				},
				{
					"internalType": "enum RoleAccess.Role",
					"name": "requiredRole",
					"type": "uint8"
				}
			],
			"name": "RoleAccess__NotSpecificRole",
			"type": "error"
		},
		{
			"inputs": [
				{
					"internalType": "address",
					"name": "staff",
					"type": "address"
				},
				{
					"internalType": "uint128",
					"name": "restaurantId",
					"type": "uint128"
				}
			],
			"name": "RoleAccess__NotStaffOfRestaurant",
			"type": "error"
		},
		{
			"anonymous": false,
			"inputs": [
				{
					"indexed": false,
					"internalType": "uint64",
					"name": "version",
					"type": "uint64"
				}
			],
			"name": "Initialized",
			"type": "event"
		},
		{
			"anonymous": false,
			"inputs": [
				{
					"indexed": false,
					"internalType": "string",
					"name": "managerType",
					"type": "string"
				},
				{
					"indexed": false,
					"internalType": "address",
					"name": "managerAddress",
					"type": "address"
				}
			],
			"name": "ManagerDeployed",
			"type": "event"
		},
		{
			"anonymous": false,
			"inputs": [
				{
					"indexed": true,
					"internalType": "address",
					"name": "previousOwner",
					"type": "address"
				},
				{
					"indexed": true,
					"internalType": "address",
					"name": "newOwner",
					"type": "address"
				}
			],
			"name": "OwnershipTransferred",
			"type": "event"
		},
		{
			"anonymous": false,
			"inputs": [
				{
					"indexed": true,
					"internalType": "uint128",
					"name": "restaurantId",
					"type": "uint128"
				},
				{
					"indexed": true,
					"internalType": "address",
					"name": "owner",
					"type": "address"
				}
			],
			"name": "RestaurantRegisteredInApp",
			"type": "event"
		},
		{
			"anonymous": false,
			"inputs": [
				{
					"indexed": true,
					"internalType": "address",
					"name": "account",
					"type": "address"
				},
				{
					"indexed": true,
					"internalType": "enum RoleAccess.Role",
					"name": "role",
					"type": "uint8"
				}
			],
			"name": "RoleGranted",
			"type": "event"
		},
		{
			"anonymous": false,
			"inputs": [
				{
					"indexed": true,
					"internalType": "address",
					"name": "account",
					"type": "address"
				},
				{
					"indexed": true,
					"internalType": "enum RoleAccess.Role",
					"name": "role",
					"type": "uint8"
				}
			],
			"name": "RoleGrantedInApp",
			"type": "event"
		},
		{
			"anonymous": false,
			"inputs": [
				{
					"indexed": true,
					"internalType": "address",
					"name": "account",
					"type": "address"
				},
				{
					"indexed": true,
					"internalType": "enum RoleAccess.Role",
					"name": "oldRole",
					"type": "uint8"
				}
			],
			"name": "RoleRevoked",
			"type": "event"
		},
		{
			"anonymous": false,
			"inputs": [
				{
					"indexed": true,
					"internalType": "address",
					"name": "staff",
					"type": "address"
				},
				{
					"indexed": true,
					"internalType": "uint128",
					"name": "restaurantId",
					"type": "uint128"
				},
				{
					"indexed": false,
					"internalType": "enum RoleAccess.Role",
					"name": "staffRole",
					"type": "uint8"
				}
			],
			"name": "StaffAssignedInApp",
			"type": "event"
		},
		{
			"anonymous": false,
			"inputs": [
				{
					"indexed": true,
					"internalType": "address",
					"name": "staff",
					"type": "address"
				},
				{
					"indexed": true,
					"internalType": "uint128",
					"name": "restaurantId",
					"type": "uint128"
				}
			],
			"name": "StaffAssignedToRestaurant",
			"type": "event"
		},
		{
			"anonymous": false,
			"inputs": [
				{
					"indexed": true,
					"internalType": "address",
					"name": "staffAccount",
					"type": "address"
				},
				{
					"indexed": false,
					"internalType": "string",
					"name": "staffName",
					"type": "string"
				}
			],
			"name": "StaffProfileCreatedOrUpdated",
			"type": "event"
		},
		{
			"anonymous": false,
			"inputs": [
				{
					"indexed": true,
					"internalType": "address",
					"name": "staff",
					"type": "address"
				},
				{
					"indexed": true,
					"internalType": "uint128",
					"name": "restaurantId",
					"type": "uint128"
				}
			],
			"name": "StaffRemovedFromRestaurant",
			"type": "event"
		},
		{
			"inputs": [
				{
					"internalType": "uint128",
					"name": "restaurantId",
					"type": "uint128"
				},
				{
					"internalType": "string",
					"name": "name",
					"type": "string"
				},
				{
					"internalType": "string",
					"name": "menuTitle",
					"type": "string"
				},
				{
					"internalType": "string",
					"name": "imageUrl",
					"type": "string"
				},
				{
					"internalType": "uint128",
					"name": "price",
					"type": "uint128"
				},
				{
					"internalType": "string",
					"name": "description",
					"type": "string"
				},
				{
					"internalType": "string",
					"name": "category",
					"type": "string"
				},
				{
					"internalType": "uint128",
					"name": "preparationTime",
					"type": "uint128"
				}
			],
			"name": "addMenuItemToRestaurant",
			"outputs": [],
			"stateMutability": "nonpayable",
			"type": "function"
		},
		{
			"inputs": [
				{
					"internalType": "address",
					"name": "staffAccount",
					"type": "address"
				},
				{
					"internalType": "uint128",
					"name": "restaurantId",
					"type": "uint128"
				},
				{
					"internalType": "enum RoleAccess.Role",
					"name": "staffRole",
					"type": "uint8"
				},
				{
					"internalType": "string",
					"name": "staffName",
					"type": "string"
				},
				{
					"internalType": "string",
					"name": "staffPhoneNumber",
					"type": "string"
				},
				{
					"internalType": "string",
					"name": "staffEmail",
					"type": "string"
				},
				{
					"internalType": "string",
					"name": "staffImageUrl",
					"type": "string"
				}
			],
			"name": "assignStaffMemberToRestaurant",
			"outputs": [],
			"stateMutability": "nonpayable",
			"type": "function"
		},
		{
			"inputs": [
				{
					"internalType": "address",
					"name": "staffAccount",
					"type": "address"
				},
				{
					"internalType": "uint128",
					"name": "restaurantId",
					"type": "uint128"
				},
				{
					"internalType": "enum RoleAccess.Role",
					"name": "staffRole",
					"type": "uint8"
				}
			],
			"name": "assignStaffToRestaurant",
			"outputs": [],
			"stateMutability": "nonpayable",
			"type": "function"
		},
		{
			"inputs": [
				{
					"internalType": "uint128",
					"name": "orderId",
					"type": "uint128"
				}
			],
			"name": "cancelCustomerOrder",
			"outputs": [],
			"stateMutability": "nonpayable",
			"type": "function"
		},
		{
			"inputs": [
				{
					"internalType": "uint128",
					"name": "orderId",
					"type": "uint128"
				}
			],
			"name": "completeStaffOrder",
			"outputs": [],
			"stateMutability": "nonpayable",
			"type": "function"
		},
		{
			"inputs": [],
			"name": "deployMenuManager",
			"outputs": [],
			"stateMutability": "nonpayable",
			"type": "function"
		},
		{
			"inputs": [],
			"name": "deployOrderManager",
			"outputs": [],
			"stateMutability": "nonpayable",
			"type": "function"
		},
		{
			"inputs": [],
			"name": "deployRestaurantManager",
			"outputs": [],
			"stateMutability": "nonpayable",
			"type": "function"
		},
		{
			"inputs": [],
			"name": "deployReviewManager",
			"outputs": [],
			"stateMutability": "nonpayable",
			"type": "function"
		},
		{
			"inputs": [],
			"name": "deployUserProfileManager",
			"outputs": [],
			"stateMutability": "nonpayable",
			"type": "function"
		},
		{
			"inputs": [],
			"name": "factory",
			"outputs": [
				{
					"internalType": "contract FoodAppFactory",
					"name": "",
					"type": "address"
				}
			],
			"stateMutability": "view",
			"type": "function"
		},
		{
			"inputs": [
				{
					"internalType": "uint128",
					"name": "restaurantId",
					"type": "uint128"
				}
			],
			"name": "getAllMenuItemIdsOfRestaurant",
			"outputs": [
				{
					"internalType": "uint128[]",
					"name": "",
					"type": "uint128[]"
				}
			],
			"stateMutability": "view",
			"type": "function"
		},
		{
			"inputs": [
				{
					"internalType": "uint128",
					"name": "restaurantId",
					"type": "uint128"
				}
			],
			"name": "getAllMenuItemsOfRestaurant",
			"outputs": [
				{
					"components": [
						{
							"internalType": "uint128",
							"name": "id",
							"type": "uint128"
						},
						{
							"internalType": "uint128",
							"name": "restaurantId",
							"type": "uint128"
						},
						{
							"internalType": "string",
							"name": "name",
							"type": "string"
						},
						{
							"internalType": "string",
							"name": "menuTitle",
							"type": "string"
						},
						{
							"internalType": "string",
							"name": "imageUrl",
							"type": "string"
						},
						{
							"internalType": "uint128",
							"name": "price",
							"type": "uint128"
						},
						{
							"internalType": "bool",
							"name": "available",
							"type": "bool"
						},
						{
							"internalType": "string",
							"name": "description",
							"type": "string"
						},
						{
							"internalType": "string",
							"name": "category",
							"type": "string"
						},
						{
							"internalType": "uint128",
							"name": "totalRating",
							"type": "uint128"
						},
						{
							"internalType": "uint128",
							"name": "ratingCount",
							"type": "uint128"
						},
						{
							"internalType": "uint128",
							"name": "preparationTime",
							"type": "uint128"
						}
					],
					"internalType": "struct MenuItem[]",
					"name": "",
					"type": "tuple[]"
				}
			],
			"stateMutability": "view",
			"type": "function"
		},
		{
			"inputs": [
				{
					"internalType": "uint128",
					"name": "menuItemId",
					"type": "uint128"
				}
			],
			"name": "getAverageMenuItemRating",
			"outputs": [
				{
					"internalType": "uint128",
					"name": "averageRating",
					"type": "uint128"
				},
				{
					"internalType": "uint128",
					"name": "ratingCount",
					"type": "uint128"
				}
			],
			"stateMutability": "view",
			"type": "function"
		},
		{
			"inputs": [
				{
					"internalType": "address",
					"name": "staff",
					"type": "address"
				}
			],
			"name": "getAverageStaffRating",
			"outputs": [
				{
					"internalType": "uint128",
					"name": "averageRating",
					"type": "uint128"
				},
				{
					"internalType": "uint128",
					"name": "ratingCount",
					"type": "uint128"
				}
			],
			"stateMutability": "view",
			"type": "function"
		},
		{
			"inputs": [
				{
					"internalType": "uint128",
					"name": "orderId",
					"type": "uint128"
				}
			],
			"name": "getCustomerOrder",
			"outputs": [
				{
					"components": [
						{
							"internalType": "uint128",
							"name": "id",
							"type": "uint128"
						},
						{
							"internalType": "address",
							"name": "customer",
							"type": "address"
						},
						{
							"internalType": "uint128",
							"name": "restaurantId",
							"type": "uint128"
						},
						{
							"components": [
								{
									"internalType": "uint128",
									"name": "menuItemId",
									"type": "uint128"
								},
								{
									"internalType": "string",
									"name": "name",
									"type": "string"
								},
								{
									"internalType": "uint128",
									"name": "pricePerUnit",
									"type": "uint128"
								},
								{
									"internalType": "uint128",
									"name": "quantity",
									"type": "uint128"
								}
							],
							"internalType": "struct OrderItemDetail[]",
							"name": "itemsDetail",
							"type": "tuple[]"
						},
						{
							"internalType": "uint256",
							"name": "totalPrice",
							"type": "uint256"
						},
						{
							"internalType": "enum OrderStatus",
							"name": "status",
							"type": "uint8"
						},
						{
							"internalType": "uint128",
							"name": "timestamp",
							"type": "uint128"
						},
						{
							"internalType": "uint128",
							"name": "preparationTime",
							"type": "uint128"
						},
						{
							"internalType": "uint128",
							"name": "quantity",
							"type": "uint128"
						}
					],
					"internalType": "struct Order",
					"name": "",
					"type": "tuple"
				}
			],
			"stateMutability": "view",
			"type": "function"
		},
		{
			"inputs": [
				{
					"internalType": "uint128",
					"name": "restaurantId",
					"type": "uint128"
				},
				{
					"internalType": "uint128",
					"name": "menuId",
					"type": "uint128"
				}
			],
			"name": "getMenuItemFromRestaurant",
			"outputs": [
				{
					"components": [
						{
							"internalType": "uint128",
							"name": "id",
							"type": "uint128"
						},
						{
							"internalType": "uint128",
							"name": "restaurantId",
							"type": "uint128"
						},
						{
							"internalType": "string",
							"name": "name",
							"type": "string"
						},
						{
							"internalType": "string",
							"name": "menuTitle",
							"type": "string"
						},
						{
							"internalType": "string",
							"name": "imageUrl",
							"type": "string"
						},
						{
							"internalType": "uint128",
							"name": "price",
							"type": "uint128"
						},
						{
							"internalType": "bool",
							"name": "available",
							"type": "bool"
						},
						{
							"internalType": "string",
							"name": "description",
							"type": "string"
						},
						{
							"internalType": "string",
							"name": "category",
							"type": "string"
						},
						{
							"internalType": "uint128",
							"name": "totalRating",
							"type": "uint128"
						},
						{
							"internalType": "uint128",
							"name": "ratingCount",
							"type": "uint128"
						},
						{
							"internalType": "uint128",
							"name": "preparationTime",
							"type": "uint128"
						}
					],
					"internalType": "struct MenuItem",
					"name": "",
					"type": "tuple"
				}
			],
			"stateMutability": "view",
			"type": "function"
		},
		{
			"inputs": [
				{
					"internalType": "uint128",
					"name": "menuItemId",
					"type": "uint128"
				}
			],
			"name": "getMenuItemReviews",
			"outputs": [
				{
					"components": [
						{
							"internalType": "uint128",
							"name": "id",
							"type": "uint128"
						},
						{
							"internalType": "address",
							"name": "customer",
							"type": "address"
						},
						{
							"internalType": "uint128",
							"name": "menuItemId",
							"type": "uint128"
						},
						{
							"internalType": "uint128",
							"name": "restaurantId",
							"type": "uint128"
						},
						{
							"internalType": "uint8",
							"name": "rating",
							"type": "uint8"
						},
						{
							"internalType": "string",
							"name": "comment",
							"type": "string"
						},
						{
							"internalType": "uint128",
							"name": "timestamp",
							"type": "uint128"
						}
					],
					"internalType": "struct MenuItemReview[]",
					"name": "",
					"type": "tuple[]"
				}
			],
			"stateMutability": "view",
			"type": "function"
		},
		{
			"inputs": [],
			"name": "getMyOrderCount",
			"outputs": [
				{
					"internalType": "uint256",
					"name": "",
					"type": "uint256"
				}
			],
			"stateMutability": "view",
			"type": "function"
		},
		{
			"inputs": [
				{
					"internalType": "uint256",
					"name": "startIndex",
					"type": "uint256"
				},
				{
					"internalType": "uint256",
					"name": "limit",
					"type": "uint256"
				}
			],
			"name": "getMyOrders",
			"outputs": [
				{
					"components": [
						{
							"internalType": "uint128",
							"name": "id",
							"type": "uint128"
						},
						{
							"internalType": "address",
							"name": "customer",
							"type": "address"
						},
						{
							"internalType": "uint128",
							"name": "restaurantId",
							"type": "uint128"
						},
						{
							"components": [
								{
									"internalType": "uint128",
									"name": "menuItemId",
									"type": "uint128"
								},
								{
									"internalType": "string",
									"name": "name",
									"type": "string"
								},
								{
									"internalType": "uint128",
									"name": "pricePerUnit",
									"type": "uint128"
								},
								{
									"internalType": "uint128",
									"name": "quantity",
									"type": "uint128"
								}
							],
							"internalType": "struct OrderItemDetail[]",
							"name": "itemsDetail",
							"type": "tuple[]"
						},
						{
							"internalType": "uint256",
							"name": "totalPrice",
							"type": "uint256"
						},
						{
							"internalType": "enum OrderStatus",
							"name": "status",
							"type": "uint8"
						},
						{
							"internalType": "uint128",
							"name": "timestamp",
							"type": "uint128"
						},
						{
							"internalType": "uint128",
							"name": "preparationTime",
							"type": "uint128"
						},
						{
							"internalType": "uint128",
							"name": "quantity",
							"type": "uint128"
						}
					],
					"internalType": "struct Order[]",
					"name": "ordersAn",
					"type": "tuple[]"
				},
				{
					"internalType": "uint256",
					"name": "nextStartIndex",
					"type": "uint256"
				}
			],
			"stateMutability": "view",
			"type": "function"
		},
		{
			"inputs": [
				{
					"internalType": "address",
					"name": "customerEoa",
					"type": "address"
				}
			],
			"name": "getOrderCountForSpecificCustomer",
			"outputs": [
				{
					"internalType": "uint256",
					"name": "",
					"type": "uint256"
				}
			],
			"stateMutability": "view",
			"type": "function"
		},
		{
			"inputs": [
				{
					"internalType": "address",
					"name": "customerEoa",
					"type": "address"
				},
				{
					"internalType": "uint256",
					"name": "startIndex",
					"type": "uint256"
				},
				{
					"internalType": "uint256",
					"name": "limit",
					"type": "uint256"
				}
			],
			"name": "getOrdersForSpecificCustomer",
			"outputs": [
				{
					"components": [
						{
							"internalType": "uint128",
							"name": "id",
							"type": "uint128"
						},
						{
							"internalType": "address",
							"name": "customer",
							"type": "address"
						},
						{
							"internalType": "uint128",
							"name": "restaurantId",
							"type": "uint128"
						},
						{
							"components": [
								{
									"internalType": "uint128",
									"name": "menuItemId",
									"type": "uint128"
								},
								{
									"internalType": "string",
									"name": "name",
									"type": "string"
								},
								{
									"internalType": "uint128",
									"name": "pricePerUnit",
									"type": "uint128"
								},
								{
									"internalType": "uint128",
									"name": "quantity",
									"type": "uint128"
								}
							],
							"internalType": "struct OrderItemDetail[]",
							"name": "itemsDetail",
							"type": "tuple[]"
						},
						{
							"internalType": "uint256",
							"name": "totalPrice",
							"type": "uint256"
						},
						{
							"internalType": "enum OrderStatus",
							"name": "status",
							"type": "uint8"
						},
						{
							"internalType": "uint128",
							"name": "timestamp",
							"type": "uint128"
						},
						{
							"internalType": "uint128",
							"name": "preparationTime",
							"type": "uint128"
						},
						{
							"internalType": "uint128",
							"name": "quantity",
							"type": "uint128"
						}
					],
					"internalType": "struct Order[]",
					"name": "ordersAn",
					"type": "tuple[]"
				},
				{
					"internalType": "uint256",
					"name": "nextStartIndex",
					"type": "uint256"
				}
			],
			"stateMutability": "view",
			"type": "function"
		},
		{
			"inputs": [
				{
					"internalType": "uint128",
					"name": "restaurantId",
					"type": "uint128"
				}
			],
			"name": "getRestaurantOwner",
			"outputs": [
				{
					"internalType": "address",
					"name": "",
					"type": "address"
				}
			],
			"stateMutability": "view",
			"type": "function"
		},
		{
			"inputs": [
				{
					"internalType": "address",
					"name": "staff",
					"type": "address"
				}
			],
			"name": "getStaffReviews",
			"outputs": [
				{
					"components": [
						{
							"internalType": "uint128",
							"name": "id",
							"type": "uint128"
						},
						{
							"internalType": "address",
							"name": "customer",
							"type": "address"
						},
						{
							"internalType": "address",
							"name": "staff",
							"type": "address"
						},
						{
							"internalType": "uint128",
							"name": "restaurantId",
							"type": "uint128"
						},
						{
							"internalType": "uint8",
							"name": "rating",
							"type": "uint8"
						},
						{
							"internalType": "string",
							"name": "comment",
							"type": "string"
						},
						{
							"internalType": "uint128",
							"name": "timestamp",
							"type": "uint128"
						}
					],
					"internalType": "struct StaffReview[]",
					"name": "",
					"type": "tuple[]"
				}
			],
			"stateMutability": "view",
			"type": "function"
		},
		{
			"inputs": [
				{
					"internalType": "address",
					"name": "account",
					"type": "address"
				},
				{
					"internalType": "enum RoleAccess.Role",
					"name": "role",
					"type": "uint8"
				}
			],
			"name": "grantAppRole",
			"outputs": [],
			"stateMutability": "nonpayable",
			"type": "function"
		},
		{
			"inputs": [
				{
					"internalType": "address",
					"name": "_appAdmin",
					"type": "address"
				},
				{
					"internalType": "address",
					"name": "_factoryAddress",
					"type": "address"
				}
			],
			"name": "initialize",
			"outputs": [],
			"stateMutability": "nonpayable",
			"type": "function"
		},
		{
			"inputs": [],
			"name": "menuManager",
			"outputs": [
				{
					"internalType": "address",
					"name": "",
					"type": "address"
				}
			],
			"stateMutability": "view",
			"type": "function"
		},
		{
			"inputs": [],
			"name": "orderManager",
			"outputs": [
				{
					"internalType": "address",
					"name": "",
					"type": "address"
				}
			],
			"stateMutability": "view",
			"type": "function"
		},
		{
			"inputs": [],
			"name": "owner",
			"outputs": [
				{
					"internalType": "address",
					"name": "",
					"type": "address"
				}
			],
			"stateMutability": "view",
			"type": "function"
		},
		{
			"inputs": [
				{
					"internalType": "uint128",
					"name": "restaurantId",
					"type": "uint128"
				},
				{
					"internalType": "uint128[]",
					"name": "itemIds",
					"type": "uint128[]"
				},
				{
					"internalType": "uint128[]",
					"name": "quantities",
					"type": "uint128[]"
				}
			],
			"name": "placeCustomerOrder",
			"outputs": [],
			"stateMutability": "payable",
			"type": "function"
		},
		{
			"inputs": [
				{
					"internalType": "uint128",
					"name": "restaurantId",
					"type": "uint128"
				},
				{
					"internalType": "uint128",
					"name": "menuItemId",
					"type": "uint128"
				},
				{
					"internalType": "uint8",
					"name": "rating",
					"type": "uint8"
				},
				{
					"internalType": "string",
					"name": "comment",
					"type": "string"
				}
			],
			"name": "rateMenuItem",
			"outputs": [],
			"stateMutability": "nonpayable",
			"type": "function"
		},
		{
			"inputs": [
				{
					"internalType": "uint128",
					"name": "restaurantId",
					"type": "uint128"
				},
				{
					"internalType": "uint8",
					"name": "rating",
					"type": "uint8"
				},
				{
					"internalType": "string",
					"name": "comment",
					"type": "string"
				}
			],
			"name": "rateRestaurant",
			"outputs": [],
			"stateMutability": "nonpayable",
			"type": "function"
		},
		{
			"inputs": [
				{
					"internalType": "address",
					"name": "staff",
					"type": "address"
				},
				{
					"internalType": "uint128",
					"name": "restaurantId",
					"type": "uint128"
				},
				{
					"internalType": "uint8",
					"name": "rating",
					"type": "uint8"
				},
				{
					"internalType": "string",
					"name": "comment",
					"type": "string"
				}
			],
			"name": "rateStaff",
			"outputs": [],
			"stateMutability": "nonpayable",
			"type": "function"
		},
		{
			"inputs": [
				{
					"internalType": "address",
					"name": "restaurantActualOwner",
					"type": "address"
				}
			],
			"name": "registerNewRestaurant",
			"outputs": [
				{
					"internalType": "uint128",
					"name": "",
					"type": "uint128"
				}
			],
			"stateMutability": "nonpayable",
			"type": "function"
		},
		{
			"inputs": [
				{
					"internalType": "address",
					"name": "staffAccount",
					"type": "address"
				},
				{
					"internalType": "uint128",
					"name": "restaurantId",
					"type": "uint128"
				}
			],
			"name": "removeStaffFromRestaurant",
			"outputs": [],
			"stateMutability": "nonpayable",
			"type": "function"
		},
		{
			"inputs": [
				{
					"internalType": "address",
					"name": "staffAccount",
					"type": "address"
				},
				{
					"internalType": "uint128",
					"name": "restaurantId",
					"type": "uint128"
				}
			],
			"name": "removeStaffMemberFromRestaurant",
			"outputs": [],
			"stateMutability": "nonpayable",
			"type": "function"
		},
		{
			"inputs": [],
			"name": "renounceOwnership",
			"outputs": [],
			"stateMutability": "nonpayable",
			"type": "function"
		},
		{
			"inputs": [],
			"name": "restaurantManager",
			"outputs": [
				{
					"internalType": "address",
					"name": "",
					"type": "address"
				}
			],
			"stateMutability": "view",
			"type": "function"
		},
		{
			"inputs": [],
			"name": "reviewManager",
			"outputs": [
				{
					"internalType": "address",
					"name": "",
					"type": "address"
				}
			],
			"stateMutability": "view",
			"type": "function"
		},
		{
			"inputs": [
				{
					"internalType": "address",
					"name": "account",
					"type": "address"
				}
			],
			"name": "revokeAppRole",
			"outputs": [],
			"stateMutability": "nonpayable",
			"type": "function"
		},
		{
			"inputs": [
				{
					"internalType": "address",
					"name": "",
					"type": "address"
				}
			],
			"name": "roles",
			"outputs": [
				{
					"internalType": "enum RoleAccess.Role",
					"name": "",
					"type": "uint8"
				}
			],
			"stateMutability": "view",
			"type": "function"
		},
		{
			"inputs": [
				{
					"internalType": "address",
					"name": "",
					"type": "address"
				},
				{
					"internalType": "uint128",
					"name": "",
					"type": "uint128"
				}
			],
			"name": "staffAssignments",
			"outputs": [
				{
					"internalType": "bool",
					"name": "",
					"type": "bool"
				}
			],
			"stateMutability": "view",
			"type": "function"
		},
		{
			"inputs": [
				{
					"internalType": "address",
					"name": "newOwner",
					"type": "address"
				}
			],
			"name": "transferOwnership",
			"outputs": [],
			"stateMutability": "nonpayable",
			"type": "function"
		},
		{
			"inputs": [
				{
					"components": [
						{
							"internalType": "uint128",
							"name": "restaurantId",
							"type": "uint128"
						},
						{
							"internalType": "uint128",
							"name": "menuId",
							"type": "uint128"
						},
						{
							"internalType": "string",
							"name": "name",
							"type": "string"
						},
						{
							"internalType": "string",
							"name": "menuTitle",
							"type": "string"
						},
						{
							"internalType": "string",
							"name": "imageUrl",
							"type": "string"
						},
						{
							"internalType": "uint128",
							"name": "price",
							"type": "uint128"
						},
						{
							"internalType": "bool",
							"name": "available",
							"type": "bool"
						},
						{
							"internalType": "string",
							"name": "description",
							"type": "string"
						},
						{
							"internalType": "string",
							"name": "category",
							"type": "string"
						},
						{
							"internalType": "uint128",
							"name": "preparationTime",
							"type": "uint128"
						},
						{
							"internalType": "uint128",
							"name": "totalRating",
							"type": "uint128"
						},
						{
							"internalType": "uint128",
							"name": "ratingCount",
							"type": "uint128"
						}
					],
					"internalType": "struct UpdateMenuItemParams",
					"name": "params",
					"type": "tuple"
				}
			],
			"name": "updateMenuItemDetails",
			"outputs": [],
			"stateMutability": "nonpayable",
			"type": "function"
		},
		{
			"inputs": [
				{
					"internalType": "uint128",
					"name": "orderId",
					"type": "uint128"
				},
				{
					"internalType": "enum OrderStatus",
					"name": "newStatus",
					"type": "uint8"
				}
			],
			"name": "updateStaffOrderStatus",
			"outputs": [],
			"stateMutability": "nonpayable",
			"type": "function"
		},
		{
			"inputs": [],
			"name": "userProfileManager",
			"outputs": [
				{
					"internalType": "address",
					"name": "",
					"type": "address"
				}
			],
			"stateMutability": "view",
			"type": "function"
		}
	]
}