{
	"data": {
		"bytecode": {
			"linkReferences": {},
			"object": "6080604052348015600e575f5ffd5b506118a28061001c5f395ff3fe608060405234801561000f575f5ffd5b5060043610610097575f3560e01c80630c5289681461009b57806321bc7543146100c4578063485cc955146101045780635b94ea5d146101195780636ef07f031461012c578063715018a61461013f57806375fab3e014610147578063832dbdd9146101715780638da5cb5b14610191578063f2fde38b14610199578063fa9d2bec146101ac575b5f5ffd5b6100ae6100a9366004611156565b6101bf565b6040516100bb91906111c2565b60405180910390f35b6100ec6100d23660046112c7565b60016020525f90815260409020546001600160801b031681565b6040516001600160801b0390911681526020016100bb565b6101176101123660046112f6565b61055c565b005b610117610127366004611156565b610695565b61011761013a3660046113bb565b6107cb565b610117610b1d565b61015a610155366004611156565b610b30565b6040516100bb9b9a999897969594939291906114a0565b600254610184906001600160a01b031681565b6040516100bb919061155a565b610184610dd4565b6101176101a736600461156e565b610dee565b6101176101ba366004611596565b610e34565b6040805161016080820183525f808352602080840182905260608486018190528085018190526080850183905260a0850183905260c0850181905260e08501526101008401829052610120840182905261014084018290526001600160801b038781168352828252858320878216845282528583208651948501875280548083168652600160801b90049091169184019190915260018101805494959294919284019161026b9061169c565b80601f01602080910402602001604051908101604052809291908181526020018280546102979061169c565b80156102e25780601f106102b9576101008083540402835291602001916102e2565b820191905f5260205f20905b8154815290600101906020018083116102c557829003601f168201915b505050505081526020016002820180546102fb9061169c565b80601f01602080910402602001604051908101604052809291908181526020018280546103279061169c565b80156103725780601f1061034957610100808354040283529160200191610372565b820191905f5260205f20905b81548152906001019060200180831161035557829003601f168201915b505050918352505060038201546001600160801b0381166020830152600160801b900460ff16151560408201526004820180546060909201916103b49061169c565b80601f01602080910402602001604051908101604052809291908181526020018280546103e09061169c565b801561042b5780601f106104025761010080835404028352916020019161042b565b820191905f5260205f20905b81548152906001019060200180831161040e57829003601f168201915b505050505081526020016005820180546104449061169c565b80601f01602080910402602001604051908101604052809291908181526020018280546104709061169c565b80156104bb5780601f10610492576101008083540402835291602001916104bb565b820191905f5260205f20905b81548152906001019060200180831161049e57829003601f168201915b505050918352505060068201546001600160801b038082166020840152600160801b9091048116604083015260079092015482166060909101528151919250165f03610555576001600160801b038085165f90815260016020526040812054909116900361053c57604051634d8a9ce560e11b815260040160405180910390fd5b604051630b464e2960e21b815260040160405180910390fd5b9392505050565b5f610565610fc6565b805490915060ff600160401b82041615906001600160401b03165f8115801561058b5750825b90505f826001600160401b031660011480156105a65750303b155b9050811580156105b4575080155b156105d25760405163f92ee8a960e01b815260040160405180910390fd5b84546001600160401b031916600117855583156105fb57845460ff60401b1916600160401b1785555b6001600160a01b03871661062257604051631d46ecc360e21b815260040160405180910390fd5b61062b86610fea565b600280546001600160a01b0319166001600160a01b038916179055831561068c57845460ff60401b19168555604051600181527fc7f505b2f371ae2175ee4913f4499e1f2633a7b5936321eed1cdaeb6115181d29060200160405180910390a15b50505050505050565b6002546001600160a01b031633146106c057604051630a8784c160e41b815260040160405180910390fd5b6001600160801b038083165f908152602081815260408083208585168452909152812054909116900361070657604051630b464e2960e21b815260040160405180910390fd5b6001600160801b038083165f9081526020818152604080832093851683529290529081208181559061073b60018301826110f1565b610748600283015f6110f1565b6003820180546001600160881b0319169055610767600483015f6110f1565b610774600583015f6110f1565b505f60068201819055600790910180546001600160801b03191690556040516001600160801b0383811692908516917fef8be83dbb6f8277052c0376cffaaf8133437ac2e149a58d953f03d6442d1fde9190a35050565b6002546001600160a01b031633146107f657604051630a8784c160e41b815260040160405180910390fd5b85515f0361081757604051630dc3561760e41b815260040160405180910390fd5b836001600160801b03165f03610840576040516314315ecf60e21b815260040160405180910390fd5b6001600160801b038088165f90815260016020526040812054909116900361088e576001600160801b0387165f90815260016020819052604090912080546001600160801b03191690911790555b6001600160801b038088165f90815260016020526040812080549092169182916108b7836116d4565b91906101000a8154816001600160801b0302191690836001600160801b0316021790555050604051806101600160405280826001600160801b03168152602001896001600160801b03168152602001888152602001878152602001866001600160801b031681526020016001151581526020018581526020018481526020015f6001600160801b031681526020015f6001600160801b03168152602001836001600160801b03168152505f5f8a6001600160801b03166001600160801b031681526020019081526020015f205f836001600160801b03166001600160801b031681526020019081526020015f205f820151815f015f6101000a8154816001600160801b0302191690836001600160801b031602179055506020820151815f0160106101000a8154816001600160801b0302191690836001600160801b031602179055506040820151816001019081610a0f9190611757565b5060608201516002820190610a249082611757565b50608082015160038201805460a08501511515600160801b026001600160881b03199091166001600160801b039093169290921791909117905560c08201516004820190610a729082611757565b5060e08201516005820190610a879082611757565b506101008201516101208301516001600160801b03918216600160801b9183169190910217600683015561014090920151600790910180546001600160801b031916918316919091179055604051828216918a16907f4b78e675e6619216a7d91d2dc26de2461bd1ffe2788087eb2ee126924517a00f90610b0b908b908a90611811565b60405180910390a35050505050505050565b610b25610ffb565b610b2e5f61102d565b565b5f602081815292815260408082209093529081522080546001820180546001600160801b0380841694600160801b90940416929190610b6e9061169c565b80601f0160208091040260200160405190810160405280929190818152602001828054610b9a9061169c565b8015610be55780601f10610bbc57610100808354040283529160200191610be5565b820191905f5260205f20905b815481529060010190602001808311610bc857829003601f168201915b505050505090806002018054610bfa9061169c565b80601f0160208091040260200160405190810160405280929190818152602001828054610c269061169c565b8015610c715780601f10610c4857610100808354040283529160200191610c71565b820191905f5260205f20905b815481529060010190602001808311610c5457829003601f168201915b50505050600383015460048401805493946001600160801b03831694600160801b90930460ff16935091610ca49061169c565b80601f0160208091040260200160405190810160405280929190818152602001828054610cd09061169c565b8015610d1b5780601f10610cf257610100808354040283529160200191610d1b565b820191905f5260205f20905b815481529060010190602001808311610cfe57829003601f168201915b505050505090806005018054610d309061169c565b80601f0160208091040260200160405190810160405280929190818152602001828054610d5c9061169c565b8015610da75780601f10610d7e57610100808354040283529160200191610da7565b820191905f5260205f20905b815481529060010190602001808311610d8a57829003601f168201915b50505050600683015460079093015491926001600160801b0380821693600160801b90920481169250168b565b5f5f610dde611087565b546001600160a01b031692915050565b610df6610ffb565b6001600160a01b038116610e28575f604051631e4fbdf760e01b8152600401610e1f919061155a565b60405180910390fd5b610e318161102d565b50565b6002546001600160a01b03163314610e5f57604051630a8784c160e41b815260040160405180910390fd5b6001600160801b03808a165f908152602081815260408083208c85168452909152812080549092169003610ea657604051630b464e2960e21b815260040160405180910390fd5b87515f03610ec757604051630dc3561760e41b815260040160405180910390fd5b856001600160801b03165f03610ef0576040516314315ecf60e21b815260040160405180910390fd5b60018101610efe8982611757565b5060028101610f0d8882611757565b50600381018054861515600160801b026001600160881b03199091166001600160801b0389161717905560048101610f458582611757565b5060058101610f548482611757565b506007810180546001600160801b0319166001600160801b03848116919091179091556040518a8216918c16907ffe3a76e2715db6f604f640adbbb5bd6dc99b7720b1d7a3fd9ed73c16a4d7ba7490610fb2908c908b908b9061183a565b60405180910390a350505050505050505050565b7ff0c57e16840df040f15088dc2f81fe391c3923bec73e23a9662efc9c229c6a0090565b610ff26110ab565b610e31816110d0565b33611004610dd4565b6001600160a01b031614610b2e573360405163118cdaa760e01b8152600401610e1f919061155a565b5f611036611087565b80546001600160a01b038481166001600160a01b031983168117845560405193945091169182907f8be0079c531659141344cd1fd0a4f28419497f9722a3daafe3b4186f6b6457e0905f90a3505050565b7f9016d09d72d40fdae2fd8ceac6b6234c7706214fd39c1cd1e609a0528c19930090565b6110b36110d8565b610b2e57604051631afcd79f60e31b815260040160405180910390fd5b610df66110ab565b5f6110e1610fc6565b54600160401b900460ff16919050565b5080546110fd9061169c565b5f825580601f1061110c575050565b601f0160209004905f5260205f2090810190610e3191905b80821115611137575f8155600101611124565b5090565b80356001600160801b0381168114611151575f5ffd5b919050565b5f5f60408385031215611167575f5ffd5b6111708361113b565b915061117e6020840161113b565b90509250929050565b6001600160801b03169052565b5f81518084528060208401602086015e5f602082860101526020601f19601f83011685010191505092915050565b602081526111d4602082018351611187565b5f60208301516111e76040840182611187565b5060408301516101606060840152611203610180840182611194565b90506060840151601f198483030160808501526112208282611194565b915050608084015161123560a0850182611187565b5060a084015180151560c08501525060c0840151838203601f190160e085015261125f8282611194565b91505060e0840151601f198483030161010085015261127e8282611194565b915050610100840151611295610120850182611187565b506101208401516112aa610140850182611187565b506101408401516112bf610160850182611187565b509392505050565b5f602082840312156112d7575f5ffd5b6105558261113b565b80356001600160a01b0381168114611151575f5ffd5b5f5f60408385031215611307575f5ffd5b611310836112e0565b915061117e602084016112e0565b634e487b7160e01b5f52604160045260245ffd5b5f82601f830112611341575f5ffd5b81356001600160401b0381111561135a5761135a61131e565b604051601f8201601f19908116603f011681016001600160401b03811182821017156113885761138861131e565b60405281815283820160200185101561139f575f5ffd5b816020850160208301375f918101602001919091529392505050565b5f5f5f5f5f5f5f60e0888a0312156113d1575f5ffd5b6113da8861113b565b965060208801356001600160401b038111156113f4575f5ffd5b6114008a828b01611332565b96505060408801356001600160401b0381111561141b575f5ffd5b6114278a828b01611332565b9550506114366060890161113b565b935060808801356001600160401b03811115611450575f5ffd5b61145c8a828b01611332565b93505060a08801356001600160401b03811115611477575f5ffd5b6114838a828b01611332565b92505061149260c0890161113b565b905092959891949750929550565b6001600160801b038c811682528b166020820152610160604082018190525f906114cc9083018c611194565b82810360608401526114de818c611194565b6001600160801b038b16608085015289151560a0850152905082810360c08401526115098189611194565b905082810360e084015261151d8188611194565b91505061152e610100830186611187565b61153c610120830185611187565b61154a610140830184611187565b9c9b505050505050505050505050565b6001600160a01b0391909116815260200190565b5f6020828403121561157e575f5ffd5b610555826112e0565b80358015158114611151575f5ffd5b5f5f5f5f5f5f5f5f5f6101208a8c0312156115af575f5ffd5b6115b88a61113b565b98506115c660208b0161113b565b975060408a01356001600160401b038111156115e0575f5ffd5b6115ec8c828d01611332565b97505060608a01356001600160401b03811115611607575f5ffd5b6116138c828d01611332565b96505061162260808b0161113b565b945061163060a08b01611587565b935060c08a01356001600160401b0381111561164a575f5ffd5b6116568c828d01611332565b93505060e08a01356001600160401b03811115611671575f5ffd5b61167d8c828d01611332565b92505061168d6101008b0161113b565b90509295985092959850929598565b600181811c908216806116b057607f821691505b6020821081036116ce57634e487b7160e01b5f52602260045260245ffd5b50919050565b5f6001600160801b0382166002600160801b0319810161170257634e487b7160e01b5f52601160045260245ffd5b60010192915050565b601f82111561175257805f5260205f20601f840160051c810160208510156117305750805b601f840160051c820191505b8181101561174f575f815560010161173c565b50505b505050565b81516001600160401b038111156117705761177061131e565b6117848161177e845461169c565b8461170b565b6020601f8211600181146117b6575f831561179f5750848201515b5f19600385901b1c1916600184901b17845561174f565b5f84815260208120601f198516915b828110156117e557878501518255602094850194600190920191016117c5565b508482101561180257868401515f19600387901b60f8161c191681555b50505050600190811b01905550565b604081525f6118236040830185611194565b905060018060801b03831660208301529392505050565b606081525f61184c6060830186611194565b6001600160801b039490941660208301525090151560409091015291905056fea26469706673582212205a85b8c9e76aab9f93b7085395ac98faa77dd33ebe1faa2c572f214c2f102cc864736f6c634300081e0033",
			"opcodes": "PUSH1 0x80 PUSH1 0x40 MSTORE CALLVALUE DUP1 ISZERO PUSH1 0xE JUMPI PUSH0 PUSH0 REVERT JUMPDEST POP PUSH2 0x18A2 DUP1 PUSH2 0x1C PUSH0 CODECOPY PUSH0 RETURN INVALID PUSH1 0x80 PUSH1 0x40 MSTORE CALLVALUE DUP1 ISZERO PUSH2 0xF JUMPI PUSH0 PUSH0 REVERT JUMPDEST POP PUSH1 0x4 CALLDATASIZE LT PUSH2 0x97 JUMPI PUSH0 CALLDATALOAD PUSH1 0xE0 SHR DUP1 PUSH4 0xC528968 EQ PUSH2 0x9B JUMPI DUP1 PUSH4 0x21BC7543 EQ PUSH2 0xC4 JUMPI DUP1 PUSH4 0x485CC955 EQ PUSH2 0x104 JUMPI DUP1 PUSH4 0x5B94EA5D EQ PUSH2 0x119 JUMPI DUP1 PUSH4 0x6EF07F03 EQ PUSH2 0x12C JUMPI DUP1 PUSH4 0x715018A6 EQ PUSH2 0x13F JUMPI DUP1 PUSH4 0x75FAB3E0 EQ PUSH2 0x147 JUMPI DUP1 PUSH4 0x832DBDD9 EQ PUSH2 0x171 JUMPI DUP1 PUSH4 0x8DA5CB5B EQ PUSH2 0x191 JUMPI DUP1 PUSH4 0xF2FDE38B EQ PUSH2 0x199 JUMPI DUP1 PUSH4 0xFA9D2BEC EQ PUSH2 0x1AC JUMPI JUMPDEST PUSH0 PUSH0 REVERT JUMPDEST PUSH2 0xAE PUSH2 0xA9 CALLDATASIZE PUSH1 0x4 PUSH2 0x1156 JUMP JUMPDEST PUSH2 0x1BF JUMP JUMPDEST PUSH1 0x40 MLOAD PUSH2 0xBB SWAP2 SWAP1 PUSH2 0x11C2 JUMP JUMPDEST PUSH1 0x40 MLOAD DUP1 SWAP2 SUB SWAP1 RETURN JUMPDEST PUSH2 0xEC PUSH2 0xD2 CALLDATASIZE PUSH1 0x4 PUSH2 0x12C7 JUMP JUMPDEST PUSH1 0x1 PUSH1 0x20 MSTORE PUSH0 SWAP1 DUP2 MSTORE PUSH1 0x40 SWAP1 KECCAK256 SLOAD PUSH1 0x1 PUSH1 0x1 PUSH1 0x80 SHL SUB AND DUP2 JUMP JUMPDEST PUSH1 0x40 MLOAD PUSH1 0x1 PUSH1 0x1 PUSH1 0x80 SHL SUB SWAP1 SWAP2 AND DUP2 MSTORE PUSH1 0x20 ADD PUSH2 0xBB JUMP JUMPDEST PUSH2 0x117 PUSH2 0x112 CALLDATASIZE PUSH1 0x4 PUSH2 0x12F6 JUMP JUMPDEST PUSH2 0x55C JUMP JUMPDEST STOP JUMPDEST PUSH2 0x117 PUSH2 0x127 CALLDATASIZE PUSH1 0x4 PUSH2 0x1156 JUMP JUMPDEST PUSH2 0x695 JUMP JUMPDEST PUSH2 0x117 PUSH2 0x13A CALLDATASIZE PUSH1 0x4 PUSH2 0x13BB JUMP JUMPDEST PUSH2 0x7CB JUMP JUMPDEST PUSH2 0x117 PUSH2 0xB1D JUMP JUMPDEST PUSH2 0x15A PUSH2 0x155 CALLDATASIZE PUSH1 0x4 PUSH2 0x1156 JUMP JUMPDEST PUSH2 0xB30 JUMP JUMPDEST PUSH1 0x40 MLOAD PUSH2 0xBB SWAP12 SWAP11 SWAP10 SWAP9 SWAP8 SWAP7 SWAP6 SWAP5 SWAP4 SWAP3 SWAP2 SWAP1 PUSH2 0x14A0 JUMP JUMPDEST PUSH1 0x2 SLOAD PUSH2 0x184 SWAP1 PUSH1 0x1 PUSH1 0x1 PUSH1 0xA0 SHL SUB AND DUP2 JUMP JUMPDEST PUSH1 0x40 MLOAD PUSH2 0xBB SWAP2 SWAP1 PUSH2 0x155A JUMP JUMPDEST PUSH2 0x184 PUSH2 0xDD4 JUMP JUMPDEST PUSH2 0x117 PUSH2 0x1A7 CALLDATASIZE PUSH1 0x4 PUSH2 0x156E JUMP JUMPDEST PUSH2 0xDEE JUMP JUMPDEST PUSH2 0x117 PUSH2 0x1BA CALLDATASIZE PUSH1 0x4 PUSH2 0x1596 JUMP JUMPDEST PUSH2 0xE34 JUMP JUMPDEST PUSH1 0x40 DUP1 MLOAD PUSH2 0x160 DUP1 DUP3 ADD DUP4 MSTORE PUSH0 DUP1 DUP4 MSTORE PUSH1 0x20 DUP1 DUP5 ADD DUP3 SWAP1 MSTORE PUSH1 0x60 DUP5 DUP7 ADD DUP2 SWAP1 MSTORE DUP1 DUP6 ADD DUP2 SWAP1 MSTORE PUSH1 0x80 DUP6 ADD DUP4 SWAP1 MSTORE PUSH1 0xA0 DUP6 ADD DUP4 SWAP1 MSTORE PUSH1 0xC0 DUP6 ADD DUP2 SWAP1 MSTORE PUSH1 0xE0 DUP6 ADD MSTORE PUSH2 0x100 DUP5 ADD DUP3 SWAP1 MSTORE PUSH2 0x120 DUP5 ADD DUP3 SWAP1 MSTORE PUSH2 0x140 DUP5 ADD DUP3 SWAP1 MSTORE PUSH1 0x1 PUSH1 0x1 PUSH1 0x80 SHL SUB DUP8 DUP2 AND DUP4 MSTORE DUP3 DUP3 MSTORE DUP6 DUP4 KECCAK256 DUP8 DUP3 AND DUP5 MSTORE DUP3 MSTORE DUP6 DUP4 KECCAK256 DUP7 MLOAD SWAP5 DUP6 ADD DUP8 MSTORE DUP1 SLOAD DUP1 DUP4 AND DUP7 MSTORE PUSH1 0x1 PUSH1 0x80 SHL SWAP1 DIV SWAP1 SWAP2 AND SWAP2 DUP5 ADD SWAP2 SWAP1 SWAP2 MSTORE PUSH1 0x1 DUP2 ADD DUP1 SLOAD SWAP5 SWAP6 SWAP3 SWAP5 SWAP2 SWAP3 DUP5 ADD SWAP2 PUSH2 0x26B SWAP1 PUSH2 0x169C JUMP JUMPDEST DUP1 PUSH1 0x1F ADD PUSH1 0x20 DUP1 SWAP2 DIV MUL PUSH1 0x20 ADD PUSH1 0x40 MLOAD SWAP1 DUP2 ADD PUSH1 0x40 MSTORE DUP1 SWAP3 SWAP2 SWAP1 DUP2 DUP2 MSTORE PUSH1 0x20 ADD DUP3 DUP1 SLOAD PUSH2 0x297 SWAP1 PUSH2 0x169C JUMP JUMPDEST DUP1 ISZERO PUSH2 0x2E2 JUMPI DUP1 PUSH1 0x1F LT PUSH2 0x2B9 JUMPI PUSH2 0x100 DUP1 DUP4 SLOAD DIV MUL DUP4 MSTORE SWAP2 PUSH1 0x20 ADD SWAP2 PUSH2 0x2E2 JUMP JUMPDEST DUP3 ADD SWAP2 SWAP1 PUSH0 MSTORE PUSH1 0x20 PUSH0 KECCAK256 SWAP1 JUMPDEST DUP2 SLOAD DUP2 MSTORE SWAP1 PUSH1 0x1 ADD SWAP1 PUSH1 0x20 ADD DUP1 DUP4 GT PUSH2 0x2C5 JUMPI DUP3 SWAP1 SUB PUSH1 0x1F AND DUP3 ADD SWAP2 JUMPDEST POP POP POP POP POP DUP2 MSTORE PUSH1 0x20 ADD PUSH1 0x2 DUP3 ADD DUP1 SLOAD PUSH2 0x2FB SWAP1 PUSH2 0x169C JUMP JUMPDEST DUP1 PUSH1 0x1F ADD PUSH1 0x20 DUP1 SWAP2 DIV MUL PUSH1 0x20 ADD PUSH1 0x40 MLOAD SWAP1 DUP2 ADD PUSH1 0x40 MSTORE DUP1 SWAP3 SWAP2 SWAP1 DUP2 DUP2 MSTORE PUSH1 0x20 ADD DUP3 DUP1 SLOAD PUSH2 0x327 SWAP1 PUSH2 0x169C JUMP JUMPDEST DUP1 ISZERO PUSH2 0x372 JUMPI DUP1 PUSH1 0x1F LT PUSH2 0x349 JUMPI PUSH2 0x100 DUP1 DUP4 SLOAD DIV MUL DUP4 MSTORE SWAP2 PUSH1 0x20 ADD SWAP2 PUSH2 0x372 JUMP JUMPDEST DUP3 ADD SWAP2 SWAP1 PUSH0 MSTORE PUSH1 0x20 PUSH0 KECCAK256 SWAP1 JUMPDEST DUP2 SLOAD DUP2 MSTORE SWAP1 PUSH1 0x1 ADD SWAP1 PUSH1 0x20 ADD DUP1 DUP4 GT PUSH2 0x355 JUMPI DUP3 SWAP1 SUB PUSH1 0x1F AND DUP3 ADD SWAP2 JUMPDEST POP POP POP SWAP2 DUP4 MSTORE POP POP PUSH1 0x3 DUP3 ADD SLOAD PUSH1 0x1 PUSH1 0x1 PUSH1 0x80 SHL SUB DUP2 AND PUSH1 0x20 DUP4 ADD MSTORE PUSH1 0x1 PUSH1 0x80 SHL SWAP1 DIV PUSH1 0xFF AND ISZERO ISZERO PUSH1 0x40 DUP3 ADD MSTORE PUSH1 0x4 DUP3 ADD DUP1 SLOAD PUSH1 0x60 SWAP1 SWAP3 ADD SWAP2 PUSH2 0x3B4 SWAP1 PUSH2 0x169C JUMP JUMPDEST DUP1 PUSH1 0x1F ADD PUSH1 0x20 DUP1 SWAP2 DIV MUL PUSH1 0x20 ADD PUSH1 0x40 MLOAD SWAP1 DUP2 ADD PUSH1 0x40 MSTORE DUP1 SWAP3 SWAP2 SWAP1 DUP2 DUP2 MSTORE PUSH1 0x20 ADD DUP3 DUP1 SLOAD PUSH2 0x3E0 SWAP1 PUSH2 0x169C JUMP JUMPDEST DUP1 ISZERO PUSH2 0x42B JUMPI DUP1 PUSH1 0x1F LT PUSH2 0x402 JUMPI PUSH2 0x100 DUP1 DUP4 SLOAD DIV MUL DUP4 MSTORE SWAP2 PUSH1 0x20 ADD SWAP2 PUSH2 0x42B JUMP JUMPDEST DUP3 ADD SWAP2 SWAP1 PUSH0 MSTORE PUSH1 0x20 PUSH0 KECCAK256 SWAP1 JUMPDEST DUP2 SLOAD DUP2 MSTORE SWAP1 PUSH1 0x1 ADD SWAP1 PUSH1 0x20 ADD DUP1 DUP4 GT PUSH2 0x40E JUMPI DUP3 SWAP1 SUB PUSH1 0x1F AND DUP3 ADD SWAP2 JUMPDEST POP POP POP POP POP DUP2 MSTORE PUSH1 0x20 ADD PUSH1 0x5 DUP3 ADD DUP1 SLOAD PUSH2 0x444 SWAP1 PUSH2 0x169C JUMP JUMPDEST DUP1 PUSH1 0x1F ADD PUSH1 0x20 DUP1 SWAP2 DIV MUL PUSH1 0x20 ADD PUSH1 0x40 MLOAD SWAP1 DUP2 ADD PUSH1 0x40 MSTORE DUP1 SWAP3 SWAP2 SWAP1 DUP2 DUP2 MSTORE PUSH1 0x20 ADD DUP3 DUP1 SLOAD PUSH2 0x470 SWAP1 PUSH2 0x169C JUMP JUMPDEST DUP1 ISZERO PUSH2 0x4BB JUMPI DUP1 PUSH1 0x1F LT PUSH2 0x492 JUMPI PUSH2 0x100 DUP1 DUP4 SLOAD DIV MUL DUP4 MSTORE SWAP2 PUSH1 0x20 ADD SWAP2 PUSH2 0x4BB JUMP JUMPDEST DUP3 ADD SWAP2 SWAP1 PUSH0 MSTORE PUSH1 0x20 PUSH0 KECCAK256 SWAP1 JUMPDEST DUP2 SLOAD DUP2 MSTORE SWAP1 PUSH1 0x1 ADD SWAP1 PUSH1 0x20 ADD DUP1 DUP4 GT PUSH2 0x49E JUMPI DUP3 SWAP1 SUB PUSH1 0x1F AND DUP3 ADD SWAP2 JUMPDEST POP POP POP SWAP2 DUP4 MSTORE POP POP PUSH1 0x6 DUP3 ADD SLOAD PUSH1 0x1 PUSH1 0x1 PUSH1 0x80 SHL SUB DUP1 DUP3 AND PUSH1 0x20 DUP5 ADD MSTORE PUSH1 0x1 PUSH1 0x80 SHL SWAP1 SWAP2 DIV DUP2 AND PUSH1 0x40 DUP4 ADD MSTORE PUSH1 0x7 SWAP1 SWAP3 ADD SLOAD DUP3 AND PUSH1 0x60 SWAP1 SWAP2 ADD MSTORE DUP2 MLOAD SWAP2 SWAP3 POP AND PUSH0 SUB PUSH2 0x555 JUMPI PUSH1 0x1 PUSH1 0x1 PUSH1 0x80 SHL SUB DUP1 DUP6 AND PUSH0 SWAP1 DUP2 MSTORE PUSH1 0x1 PUSH1 0x20 MSTORE PUSH1 0x40 DUP2 KECCAK256 SLOAD SWAP1 SWAP2 AND SWAP1 SUB PUSH2 0x53C JUMPI PUSH1 0x40 MLOAD PUSH4 0x4D8A9CE5 PUSH1 0xE1 SHL DUP2 MSTORE PUSH1 0x4 ADD PUSH1 0x40 MLOAD DUP1 SWAP2 SUB SWAP1 REVERT JUMPDEST PUSH1 0x40 MLOAD PUSH4 0xB464E29 PUSH1 0xE2 SHL DUP2 MSTORE PUSH1 0x4 ADD PUSH1 0x40 MLOAD DUP1 SWAP2 SUB SWAP1 REVERT JUMPDEST SWAP4 SWAP3 POP POP POP JUMP JUMPDEST PUSH0 PUSH2 0x565 PUSH2 0xFC6 JUMP JUMPDEST DUP1 SLOAD SWAP1 SWAP2 POP PUSH1 0xFF PUSH1 0x1 PUSH1 0x40 SHL DUP3 DIV AND ISZERO SWAP1 PUSH1 0x1 PUSH1 0x1 PUSH1 0x40 SHL SUB AND PUSH0 DUP2 ISZERO DUP1 ISZERO PUSH2 0x58B JUMPI POP DUP3 JUMPDEST SWAP1 POP PUSH0 DUP3 PUSH1 0x1 PUSH1 0x1 PUSH1 0x40 SHL SUB AND PUSH1 0x1 EQ DUP1 ISZERO PUSH2 0x5A6 JUMPI POP ADDRESS EXTCODESIZE ISZERO JUMPDEST SWAP1 POP DUP2 ISZERO DUP1 ISZERO PUSH2 0x5B4 JUMPI POP DUP1 ISZERO JUMPDEST ISZERO PUSH2 0x5D2 JUMPI PUSH1 0x40 MLOAD PUSH4 0xF92EE8A9 PUSH1 0xE0 SHL DUP2 MSTORE PUSH1 0x4 ADD PUSH1 0x40 MLOAD DUP1 SWAP2 SUB SWAP1 REVERT JUMPDEST DUP5 SLOAD PUSH1 0x1 PUSH1 0x1 PUSH1 0x40 SHL SUB NOT AND PUSH1 0x1 OR DUP6 SSTORE DUP4 ISZERO PUSH2 0x5FB JUMPI DUP5 SLOAD PUSH1 0xFF PUSH1 0x40 SHL NOT AND PUSH1 0x1 PUSH1 0x40 SHL OR DUP6 SSTORE JUMPDEST PUSH1 0x1 PUSH1 0x1 PUSH1 0xA0 SHL SUB DUP8 AND PUSH2 0x622 JUMPI PUSH1 0x40 MLOAD PUSH4 0x1D46ECC3 PUSH1 0xE2 SHL DUP2 MSTORE PUSH1 0x4 ADD PUSH1 0x40 MLOAD DUP1 SWAP2 SUB SWAP1 REVERT JUMPDEST PUSH2 0x62B DUP7 PUSH2 0xFEA JUMP JUMPDEST PUSH1 0x2 DUP1 SLOAD PUSH1 0x1 PUSH1 0x1 PUSH1 0xA0 SHL SUB NOT AND PUSH1 0x1 PUSH1 0x1 PUSH1 0xA0 SHL SUB DUP10 AND OR SWAP1 SSTORE DUP4 ISZERO PUSH2 0x68C JUMPI DUP5 SLOAD PUSH1 0xFF PUSH1 0x40 SHL NOT AND DUP6 SSTORE PUSH1 0x40 MLOAD PUSH1 0x1 DUP2 MSTORE PUSH32 0xC7F505B2F371AE2175EE4913F4499E1F2633A7B5936321EED1CDAEB6115181D2 SWAP1 PUSH1 0x20 ADD PUSH1 0x40 MLOAD DUP1 SWAP2 SUB SWAP1 LOG1 JUMPDEST POP POP POP POP POP POP POP JUMP JUMPDEST PUSH1 0x2 SLOAD PUSH1 0x1 PUSH1 0x1 PUSH1 0xA0 SHL SUB AND CALLER EQ PUSH2 0x6C0 JUMPI PUSH1 0x40 MLOAD PUSH4 0xA8784C1 PUSH1 0xE4 SHL DUP2 MSTORE PUSH1 0x4 ADD PUSH1 0x40 MLOAD DUP1 SWAP2 SUB SWAP1 REVERT JUMPDEST PUSH1 0x1 PUSH1 0x1 PUSH1 0x80 SHL SUB DUP1 DUP4 AND PUSH0 SWAP1 DUP2 MSTORE PUSH1 0x20 DUP2 DUP2 MSTORE PUSH1 0x40 DUP1 DUP4 KECCAK256 DUP6 DUP6 AND DUP5 MSTORE SWAP1 SWAP2 MSTORE DUP2 KECCAK256 SLOAD SWAP1 SWAP2 AND SWAP1 SUB PUSH2 0x706 JUMPI PUSH1 0x40 MLOAD PUSH4 0xB464E29 PUSH1 0xE2 SHL DUP2 MSTORE PUSH1 0x4 ADD PUSH1 0x40 MLOAD DUP1 SWAP2 SUB SWAP1 REVERT JUMPDEST PUSH1 0x1 PUSH1 0x1 PUSH1 0x80 SHL SUB DUP1 DUP4 AND PUSH0 SWAP1 DUP2 MSTORE PUSH1 0x20 DUP2 DUP2 MSTORE PUSH1 0x40 DUP1 DUP4 KECCAK256 SWAP4 DUP6 AND DUP4 MSTORE SWAP3 SWAP1 MSTORE SWAP1 DUP2 KECCAK256 DUP2 DUP2 SSTORE SWAP1 PUSH2 0x73B PUSH1 0x1 DUP4 ADD DUP3 PUSH2 0x10F1 JUMP JUMPDEST PUSH2 0x748 PUSH1 0x2 DUP4 ADD PUSH0 PUSH2 0x10F1 JUMP JUMPDEST PUSH1 0x3 DUP3 ADD DUP1 SLOAD PUSH1 0x1 PUSH1 0x1 PUSH1 0x88 SHL SUB NOT AND SWAP1 SSTORE PUSH2 0x767 PUSH1 0x4 DUP4 ADD PUSH0 PUSH2 0x10F1 JUMP JUMPDEST PUSH2 0x774 PUSH1 0x5 DUP4 ADD PUSH0 PUSH2 0x10F1 JUMP JUMPDEST POP PUSH0 PUSH1 0x6 DUP3 ADD DUP2 SWAP1 SSTORE PUSH1 0x7 SWAP1 SWAP2 ADD DUP1 SLOAD PUSH1 0x1 PUSH1 0x1 PUSH1 0x80 SHL SUB NOT AND SWAP1 SSTORE PUSH1 0x40 MLOAD PUSH1 0x1 PUSH1 0x1 PUSH1 0x80 SHL SUB DUP4 DUP2 AND SWAP3 SWAP1 DUP6 AND SWAP2 PUSH32 0xEF8BE83DBB6F8277052C0376CFFAAF8133437AC2E149A58D953F03D6442D1FDE SWAP2 SWAP1 LOG3 POP POP JUMP JUMPDEST PUSH1 0x2 SLOAD PUSH1 0x1 PUSH1 0x1 PUSH1 0xA0 SHL SUB AND CALLER EQ PUSH2 0x7F6 JUMPI PUSH1 0x40 MLOAD PUSH4 0xA8784C1 PUSH1 0xE4 SHL DUP2 MSTORE PUSH1 0x4 ADD PUSH1 0x40 MLOAD DUP1 SWAP2 SUB SWAP1 REVERT JUMPDEST DUP6 MLOAD PUSH0 SUB PUSH2 0x817 JUMPI PUSH1 0x40 MLOAD PUSH4 0xDC35617 PUSH1 0xE4 SHL DUP2 MSTORE PUSH1 0x4 ADD PUSH1 0x40 MLOAD DUP1 SWAP2 SUB SWAP1 REVERT JUMPDEST DUP4 PUSH1 0x1 PUSH1 0x1 PUSH1 0x80 SHL SUB AND PUSH0 SUB PUSH2 0x840 JUMPI PUSH1 0x40 MLOAD PUSH4 0x14315ECF PUSH1 0xE2 SHL DUP2 MSTORE PUSH1 0x4 ADD PUSH1 0x40 MLOAD DUP1 SWAP2 SUB SWAP1 REVERT JUMPDEST PUSH1 0x1 PUSH1 0x1 PUSH1 0x80 SHL SUB DUP1 DUP9 AND PUSH0 SWAP1 DUP2 MSTORE PUSH1 0x1 PUSH1 0x20 MSTORE PUSH1 0x40 DUP2 KECCAK256 SLOAD SWAP1 SWAP2 AND SWAP1 SUB PUSH2 0x88E JUMPI PUSH1 0x1 PUSH1 0x1 PUSH1 0x80 SHL SUB DUP8 AND PUSH0 SWAP1 DUP2 MSTORE PUSH1 0x1 PUSH1 0x20 DUP2 SWAP1 MSTORE PUSH1 0x40 SWAP1 SWAP2 KECCAK256 DUP1 SLOAD PUSH1 0x1 PUSH1 0x1 PUSH1 0x80 SHL SUB NOT AND SWAP1 SWAP2 OR SWAP1 SSTORE JUMPDEST PUSH1 0x1 PUSH1 0x1 PUSH1 0x80 SHL SUB DUP1 DUP9 AND PUSH0 SWAP1 DUP2 MSTORE PUSH1 0x1 PUSH1 0x20 MSTORE PUSH1 0x40 DUP2 KECCAK256 DUP1 SLOAD SWAP1 SWAP3 AND SWAP2 DUP3 SWAP2 PUSH2 0x8B7 DUP4 PUSH2 0x16D4 JUMP JUMPDEST SWAP2 SWAP1 PUSH2 0x100 EXP DUP2 SLOAD DUP2 PUSH1 0x1 PUSH1 0x1 PUSH1 0x80 SHL SUB MUL NOT AND SWAP1 DUP4 PUSH1 0x1 PUSH1 0x1 PUSH1 0x80 SHL SUB AND MUL OR SWAP1 SSTORE POP POP PUSH1 0x40 MLOAD DUP1 PUSH2 0x160 ADD PUSH1 0x40 MSTORE DUP1 DUP3 PUSH1 0x1 PUSH1 0x1 PUSH1 0x80 SHL SUB AND DUP2 MSTORE PUSH1 0x20 ADD DUP10 PUSH1 0x1 PUSH1 0x1 PUSH1 0x80 SHL SUB AND DUP2 MSTORE PUSH1 0x20 ADD DUP9 DUP2 MSTORE PUSH1 0x20 ADD DUP8 DUP2 MSTORE PUSH1 0x20 ADD DUP7 PUSH1 0x1 PUSH1 0x1 PUSH1 0x80 SHL SUB AND DUP2 MSTORE PUSH1 0x20 ADD PUSH1 0x1 ISZERO ISZERO DUP2 MSTORE PUSH1 0x20 ADD DUP6 DUP2 MSTORE PUSH1 0x20 ADD DUP5 DUP2 MSTORE PUSH1 0x20 ADD PUSH0 PUSH1 0x1 PUSH1 0x1 PUSH1 0x80 SHL SUB AND DUP2 MSTORE PUSH1 0x20 ADD PUSH0 PUSH1 0x1 PUSH1 0x1 PUSH1 0x80 SHL SUB AND DUP2 MSTORE PUSH1 0x20 ADD DUP4 PUSH1 0x1 PUSH1 0x1 PUSH1 0x80 SHL SUB AND DUP2 MSTORE POP PUSH0 PUSH0 DUP11 PUSH1 0x1 PUSH1 0x1 PUSH1 0x80 SHL SUB AND PUSH1 0x1 PUSH1 0x1 PUSH1 0x80 SHL SUB AND DUP2 MSTORE PUSH1 0x20 ADD SWAP1 DUP2 MSTORE PUSH1 0x20 ADD PUSH0 KECCAK256 PUSH0 DUP4 PUSH1 0x1 PUSH1 0x1 PUSH1 0x80 SHL SUB AND PUSH1 0x1 PUSH1 0x1 PUSH1 0x80 SHL SUB AND DUP2 MSTORE PUSH1 0x20 ADD SWAP1 DUP2 MSTORE PUSH1 0x20 ADD PUSH0 KECCAK256 PUSH0 DUP3 ADD MLOAD DUP2 PUSH0 ADD PUSH0 PUSH2 0x100 EXP DUP2 SLOAD DUP2 PUSH1 0x1 PUSH1 0x1 PUSH1 0x80 SHL SUB MUL NOT AND SWAP1 DUP4 PUSH1 0x1 PUSH1 0x1 PUSH1 0x80 SHL SUB AND MUL OR SWAP1 SSTORE POP PUSH1 0x20 DUP3 ADD MLOAD DUP2 PUSH0 ADD PUSH1 0x10 PUSH2 0x100 EXP DUP2 SLOAD DUP2 PUSH1 0x1 PUSH1 0x1 PUSH1 0x80 SHL SUB MUL NOT AND SWAP1 DUP4 PUSH1 0x1 PUSH1 0x1 PUSH1 0x80 SHL SUB AND MUL OR SWAP1 SSTORE POP PUSH1 0x40 DUP3 ADD MLOAD DUP2 PUSH1 0x1 ADD SWAP1 DUP2 PUSH2 0xA0F SWAP2 SWAP1 PUSH2 0x1757 JUMP JUMPDEST POP PUSH1 0x60 DUP3 ADD MLOAD PUSH1 0x2 DUP3 ADD SWAP1 PUSH2 0xA24 SWAP1 DUP3 PUSH2 0x1757 JUMP JUMPDEST POP PUSH1 0x80 DUP3 ADD MLOAD PUSH1 0x3 DUP3 ADD DUP1 SLOAD PUSH1 0xA0 DUP6 ADD MLOAD ISZERO ISZERO PUSH1 0x1 PUSH1 0x80 SHL MUL PUSH1 0x1 PUSH1 0x1 PUSH1 0x88 SHL SUB NOT SWAP1 SWAP2 AND PUSH1 0x1 PUSH1 0x1 PUSH1 0x80 SHL SUB SWAP1 SWAP4 AND SWAP3 SWAP1 SWAP3 OR SWAP2 SWAP1 SWAP2 OR SWAP1 SSTORE PUSH1 0xC0 DUP3 ADD MLOAD PUSH1 0x4 DUP3 ADD SWAP1 PUSH2 0xA72 SWAP1 DUP3 PUSH2 0x1757 JUMP JUMPDEST POP PUSH1 0xE0 DUP3 ADD MLOAD PUSH1 0x5 DUP3 ADD SWAP1 PUSH2 0xA87 SWAP1 DUP3 PUSH2 0x1757 JUMP JUMPDEST POP PUSH2 0x100 DUP3 ADD MLOAD PUSH2 0x120 DUP4 ADD MLOAD PUSH1 0x1 PUSH1 0x1 PUSH1 0x80 SHL SUB SWAP2 DUP3 AND PUSH1 0x1 PUSH1 0x80 SHL SWAP2 DUP4 AND SWAP2 SWAP1 SWAP2 MUL OR PUSH1 0x6 DUP4 ADD SSTORE PUSH2 0x140 SWAP1 SWAP3 ADD MLOAD PUSH1 0x7 SWAP1 SWAP2 ADD DUP1 SLOAD PUSH1 0x1 PUSH1 0x1 PUSH1 0x80 SHL SUB NOT AND SWAP2 DUP4 AND SWAP2 SWAP1 SWAP2 OR SWAP1 SSTORE PUSH1 0x40 MLOAD DUP3 DUP3 AND SWAP2 DUP11 AND SWAP1 PUSH32 0x4B78E675E6619216A7D91D2DC26DE2461BD1FFE2788087EB2EE126924517A00F SWAP1 PUSH2 0xB0B SWAP1 DUP12 SWAP1 DUP11 SWAP1 PUSH2 0x1811 JUMP JUMPDEST PUSH1 0x40 MLOAD DUP1 SWAP2 SUB SWAP1 LOG3 POP POP POP POP POP POP POP POP JUMP JUMPDEST PUSH2 0xB25 PUSH2 0xFFB JUMP JUMPDEST PUSH2 0xB2E PUSH0 PUSH2 0x102D JUMP JUMPDEST JUMP JUMPDEST PUSH0 PUSH1 0x20 DUP2 DUP2 MSTORE SWAP3 DUP2 MSTORE PUSH1 0x40 DUP1 DUP3 KECCAK256 SWAP1 SWAP4 MSTORE SWAP1 DUP2 MSTORE KECCAK256 DUP1 SLOAD PUSH1 0x1 DUP3 ADD DUP1 SLOAD PUSH1 0x1 PUSH1 0x1 PUSH1 0x80 SHL SUB DUP1 DUP5 AND SWAP5 PUSH1 0x1 PUSH1 0x80 SHL SWAP1 SWAP5 DIV AND SWAP3 SWAP2 SWAP1 PUSH2 0xB6E SWAP1 PUSH2 0x169C JUMP JUMPDEST DUP1 PUSH1 0x1F ADD PUSH1 0x20 DUP1 SWAP2 DIV MUL PUSH1 0x20 ADD PUSH1 0x40 MLOAD SWAP1 DUP2 ADD PUSH1 0x40 MSTORE DUP1 SWAP3 SWAP2 SWAP1 DUP2 DUP2 MSTORE PUSH1 0x20 ADD DUP3 DUP1 SLOAD PUSH2 0xB9A SWAP1 PUSH2 0x169C JUMP JUMPDEST DUP1 ISZERO PUSH2 0xBE5 JUMPI DUP1 PUSH1 0x1F LT PUSH2 0xBBC JUMPI PUSH2 0x100 DUP1 DUP4 SLOAD DIV MUL DUP4 MSTORE SWAP2 PUSH1 0x20 ADD SWAP2 PUSH2 0xBE5 JUMP JUMPDEST DUP3 ADD SWAP2 SWAP1 PUSH0 MSTORE PUSH1 0x20 PUSH0 KECCAK256 SWAP1 JUMPDEST DUP2 SLOAD DUP2 MSTORE SWAP1 PUSH1 0x1 ADD SWAP1 PUSH1 0x20 ADD DUP1 DUP4 GT PUSH2 0xBC8 JUMPI DUP3 SWAP1 SUB PUSH1 0x1F AND DUP3 ADD SWAP2 JUMPDEST POP POP POP POP POP SWAP1 DUP1 PUSH1 0x2 ADD DUP1 SLOAD PUSH2 0xBFA SWAP1 PUSH2 0x169C JUMP JUMPDEST DUP1 PUSH1 0x1F ADD PUSH1 0x20 DUP1 SWAP2 DIV MUL PUSH1 0x20 ADD PUSH1 0x40 MLOAD SWAP1 DUP2 ADD PUSH1 0x40 MSTORE DUP1 SWAP3 SWAP2 SWAP1 DUP2 DUP2 MSTORE PUSH1 0x20 ADD DUP3 DUP1 SLOAD PUSH2 0xC26 SWAP1 PUSH2 0x169C JUMP JUMPDEST DUP1 ISZERO PUSH2 0xC71 JUMPI DUP1 PUSH1 0x1F LT PUSH2 0xC48 JUMPI PUSH2 0x100 DUP1 DUP4 SLOAD DIV MUL DUP4 MSTORE SWAP2 PUSH1 0x20 ADD SWAP2 PUSH2 0xC71 JUMP JUMPDEST DUP3 ADD SWAP2 SWAP1 PUSH0 MSTORE PUSH1 0x20 PUSH0 KECCAK256 SWAP1 JUMPDEST DUP2 SLOAD DUP2 MSTORE SWAP1 PUSH1 0x1 ADD SWAP1 PUSH1 0x20 ADD DUP1 DUP4 GT PUSH2 0xC54 JUMPI DUP3 SWAP1 SUB PUSH1 0x1F AND DUP3 ADD SWAP2 JUMPDEST POP POP POP POP PUSH1 0x3 DUP4 ADD SLOAD PUSH1 0x4 DUP5 ADD DUP1 SLOAD SWAP4 SWAP5 PUSH1 0x1 PUSH1 0x1 PUSH1 0x80 SHL SUB DUP4 AND SWAP5 PUSH1 0x1 PUSH1 0x80 SHL SWAP1 SWAP4 DIV PUSH1 0xFF AND SWAP4 POP SWAP2 PUSH2 0xCA4 SWAP1 PUSH2 0x169C JUMP JUMPDEST DUP1 PUSH1 0x1F ADD PUSH1 0x20 DUP1 SWAP2 DIV MUL PUSH1 0x20 ADD PUSH1 0x40 MLOAD SWAP1 DUP2 ADD PUSH1 0x40 MSTORE DUP1 SWAP3 SWAP2 SWAP1 DUP2 DUP2 MSTORE PUSH1 0x20 ADD DUP3 DUP1 SLOAD PUSH2 0xCD0 SWAP1 PUSH2 0x169C JUMP JUMPDEST DUP1 ISZERO PUSH2 0xD1B JUMPI DUP1 PUSH1 0x1F LT PUSH2 0xCF2 JUMPI PUSH2 0x100 DUP1 DUP4 SLOAD DIV MUL DUP4 MSTORE SWAP2 PUSH1 0x20 ADD SWAP2 PUSH2 0xD1B JUMP JUMPDEST DUP3 ADD SWAP2 SWAP1 PUSH0 MSTORE PUSH1 0x20 PUSH0 KECCAK256 SWAP1 JUMPDEST DUP2 SLOAD DUP2 MSTORE SWAP1 PUSH1 0x1 ADD SWAP1 PUSH1 0x20 ADD DUP1 DUP4 GT PUSH2 0xCFE JUMPI DUP3 SWAP1 SUB PUSH1 0x1F AND DUP3 ADD SWAP2 JUMPDEST POP POP POP POP POP SWAP1 DUP1 PUSH1 0x5 ADD DUP1 SLOAD PUSH2 0xD30 SWAP1 PUSH2 0x169C JUMP JUMPDEST DUP1 PUSH1 0x1F ADD PUSH1 0x20 DUP1 SWAP2 DIV MUL PUSH1 0x20 ADD PUSH1 0x40 MLOAD SWAP1 DUP2 ADD PUSH1 0x40 MSTORE DUP1 SWAP3 SWAP2 SWAP1 DUP2 DUP2 MSTORE PUSH1 0x20 ADD DUP3 DUP1 SLOAD PUSH2 0xD5C SWAP1 PUSH2 0x169C JUMP JUMPDEST DUP1 ISZERO PUSH2 0xDA7 JUMPI DUP1 PUSH1 0x1F LT PUSH2 0xD7E JUMPI PUSH2 0x100 DUP1 DUP4 SLOAD DIV MUL DUP4 MSTORE SWAP2 PUSH1 0x20 ADD SWAP2 PUSH2 0xDA7 JUMP JUMPDEST DUP3 ADD SWAP2 SWAP1 PUSH0 MSTORE PUSH1 0x20 PUSH0 KECCAK256 SWAP1 JUMPDEST DUP2 SLOAD DUP2 MSTORE SWAP1 PUSH1 0x1 ADD SWAP1 PUSH1 0x20 ADD DUP1 DUP4 GT PUSH2 0xD8A JUMPI DUP3 SWAP1 SUB PUSH1 0x1F AND DUP3 ADD SWAP2 JUMPDEST POP POP POP POP PUSH1 0x6 DUP4 ADD SLOAD PUSH1 0x7 SWAP1 SWAP4 ADD SLOAD SWAP2 SWAP3 PUSH1 0x1 PUSH1 0x1 PUSH1 0x80 SHL SUB DUP1 DUP3 AND SWAP4 PUSH1 0x1 PUSH1 0x80 SHL SWAP1 SWAP3 DIV DUP2 AND SWAP3 POP AND DUP12 JUMP JUMPDEST PUSH0 PUSH0 PUSH2 0xDDE PUSH2 0x1087 JUMP JUMPDEST SLOAD PUSH1 0x1 PUSH1 0x1 PUSH1 0xA0 SHL SUB AND SWAP3 SWAP2 POP POP JUMP JUMPDEST PUSH2 0xDF6 PUSH2 0xFFB JUMP JUMPDEST PUSH1 0x1 PUSH1 0x1 PUSH1 0xA0 SHL SUB DUP2 AND PUSH2 0xE28 JUMPI PUSH0 PUSH1 0x40 MLOAD PUSH4 0x1E4FBDF7 PUSH1 0xE0 SHL DUP2 MSTORE PUSH1 0x4 ADD PUSH2 0xE1F SWAP2 SWAP1 PUSH2 0x155A JUMP JUMPDEST PUSH1 0x40 MLOAD DUP1 SWAP2 SUB SWAP1 REVERT JUMPDEST PUSH2 0xE31 DUP2 PUSH2 0x102D JUMP JUMPDEST POP JUMP JUMPDEST PUSH1 0x2 SLOAD PUSH1 0x1 PUSH1 0x1 PUSH1 0xA0 SHL SUB AND CALLER EQ PUSH2 0xE5F JUMPI PUSH1 0x40 MLOAD PUSH4 0xA8784C1 PUSH1 0xE4 SHL DUP2 MSTORE PUSH1 0x4 ADD PUSH1 0x40 MLOAD DUP1 SWAP2 SUB SWAP1 REVERT JUMPDEST PUSH1 0x1 PUSH1 0x1 PUSH1 0x80 SHL SUB DUP1 DUP11 AND PUSH0 SWAP1 DUP2 MSTORE PUSH1 0x20 DUP2 DUP2 MSTORE PUSH1 0x40 DUP1 DUP4 KECCAK256 DUP13 DUP6 AND DUP5 MSTORE SWAP1 SWAP2 MSTORE DUP2 KECCAK256 DUP1 SLOAD SWAP1 SWAP3 AND SWAP1 SUB PUSH2 0xEA6 JUMPI PUSH1 0x40 MLOAD PUSH4 0xB464E29 PUSH1 0xE2 SHL DUP2 MSTORE PUSH1 0x4 ADD PUSH1 0x40 MLOAD DUP1 SWAP2 SUB SWAP1 REVERT JUMPDEST DUP8 MLOAD PUSH0 SUB PUSH2 0xEC7 JUMPI PUSH1 0x40 MLOAD PUSH4 0xDC35617 PUSH1 0xE4 SHL DUP2 MSTORE PUSH1 0x4 ADD PUSH1 0x40 MLOAD DUP1 SWAP2 SUB SWAP1 REVERT JUMPDEST DUP6 PUSH1 0x1 PUSH1 0x1 PUSH1 0x80 SHL SUB AND PUSH0 SUB PUSH2 0xEF0 JUMPI PUSH1 0x40 MLOAD PUSH4 0x14315ECF PUSH1 0xE2 SHL DUP2 MSTORE PUSH1 0x4 ADD PUSH1 0x40 MLOAD DUP1 SWAP2 SUB SWAP1 REVERT JUMPDEST PUSH1 0x1 DUP2 ADD PUSH2 0xEFE DUP10 DUP3 PUSH2 0x1757 JUMP JUMPDEST POP PUSH1 0x2 DUP2 ADD PUSH2 0xF0D DUP9 DUP3 PUSH2 0x1757 JUMP JUMPDEST POP PUSH1 0x3 DUP2 ADD DUP1 SLOAD DUP7 ISZERO ISZERO PUSH1 0x1 PUSH1 0x80 SHL MUL PUSH1 0x1 PUSH1 0x1 PUSH1 0x88 SHL SUB NOT SWAP1 SWAP2 AND PUSH1 0x1 PUSH1 0x1 PUSH1 0x80 SHL SUB DUP10 AND OR OR SWAP1 SSTORE PUSH1 0x4 DUP2 ADD PUSH2 0xF45 DUP6 DUP3 PUSH2 0x1757 JUMP JUMPDEST POP PUSH1 0x5 DUP2 ADD PUSH2 0xF54 DUP5 DUP3 PUSH2 0x1757 JUMP JUMPDEST POP PUSH1 0x7 DUP2 ADD DUP1 SLOAD PUSH1 0x1 PUSH1 0x1 PUSH1 0x80 SHL SUB NOT AND PUSH1 0x1 PUSH1 0x1 PUSH1 0x80 SHL SUB DUP5 DUP2 AND SWAP2 SWAP1 SWAP2 OR SWAP1 SWAP2 SSTORE PUSH1 0x40 MLOAD DUP11 DUP3 AND SWAP2 DUP13 AND SWAP1 PUSH32 0xFE3A76E2715DB6F604F640ADBBB5BD6DC99B7720B1D7A3FD9ED73C16A4D7BA74 SWAP1 PUSH2 0xFB2 SWAP1 DUP13 SWAP1 DUP12 SWAP1 DUP12 SWAP1 PUSH2 0x183A JUMP JUMPDEST PUSH1 0x40 MLOAD DUP1 SWAP2 SUB SWAP1 LOG3 POP POP POP POP POP POP POP POP POP POP JUMP JUMPDEST PUSH32 0xF0C57E16840DF040F15088DC2F81FE391C3923BEC73E23A9662EFC9C229C6A00 SWAP1 JUMP JUMPDEST PUSH2 0xFF2 PUSH2 0x10AB JUMP JUMPDEST PUSH2 0xE31 DUP2 PUSH2 0x10D0 JUMP JUMPDEST CALLER PUSH2 0x1004 PUSH2 0xDD4 JUMP JUMPDEST PUSH1 0x1 PUSH1 0x1 PUSH1 0xA0 SHL SUB AND EQ PUSH2 0xB2E JUMPI CALLER PUSH1 0x40 MLOAD PUSH4 0x118CDAA7 PUSH1 0xE0 SHL DUP2 MSTORE PUSH1 0x4 ADD PUSH2 0xE1F SWAP2 SWAP1 PUSH2 0x155A JUMP JUMPDEST PUSH0 PUSH2 0x1036 PUSH2 0x1087 JUMP JUMPDEST DUP1 SLOAD PUSH1 0x1 PUSH1 0x1 PUSH1 0xA0 SHL SUB DUP5 DUP2 AND PUSH1 0x1 PUSH1 0x1 PUSH1 0xA0 SHL SUB NOT DUP4 AND DUP2 OR DUP5 SSTORE PUSH1 0x40 MLOAD SWAP4 SWAP5 POP SWAP2 AND SWAP2 DUP3 SWAP1 PUSH32 0x8BE0079C531659141344CD1FD0A4F28419497F9722A3DAAFE3B4186F6B6457E0 SWAP1 PUSH0 SWAP1 LOG3 POP POP POP JUMP JUMPDEST PUSH32 0x9016D09D72D40FDAE2FD8CEAC6B6234C7706214FD39C1CD1E609A0528C199300 SWAP1 JUMP JUMPDEST PUSH2 0x10B3 PUSH2 0x10D8 JUMP JUMPDEST PUSH2 0xB2E JUMPI PUSH1 0x40 MLOAD PUSH4 0x1AFCD79F PUSH1 0xE3 SHL DUP2 MSTORE PUSH1 0x4 ADD PUSH1 0x40 MLOAD DUP1 SWAP2 SUB SWAP1 REVERT JUMPDEST PUSH2 0xDF6 PUSH2 0x10AB JUMP JUMPDEST PUSH0 PUSH2 0x10E1 PUSH2 0xFC6 JUMP JUMPDEST SLOAD PUSH1 0x1 PUSH1 0x40 SHL SWAP1 DIV PUSH1 0xFF AND SWAP2 SWAP1 POP JUMP JUMPDEST POP DUP1 SLOAD PUSH2 0x10FD SWAP1 PUSH2 0x169C JUMP JUMPDEST PUSH0 DUP3 SSTORE DUP1 PUSH1 0x1F LT PUSH2 0x110C JUMPI POP POP JUMP JUMPDEST PUSH1 0x1F ADD PUSH1 0x20 SWAP1 DIV SWAP1 PUSH0 MSTORE PUSH1 0x20 PUSH0 KECCAK256 SWAP1 DUP2 ADD SWAP1 PUSH2 0xE31 SWAP2 SWAP1 JUMPDEST DUP1 DUP3 GT ISZERO PUSH2 0x1137 JUMPI PUSH0 DUP2 SSTORE PUSH1 0x1 ADD PUSH2 0x1124 JUMP JUMPDEST POP SWAP1 JUMP JUMPDEST DUP1 CALLDATALOAD PUSH1 0x1 PUSH1 0x1 PUSH1 0x80 SHL SUB DUP2 AND DUP2 EQ PUSH2 0x1151 JUMPI PUSH0 PUSH0 REVERT JUMPDEST SWAP2 SWAP1 POP JUMP JUMPDEST PUSH0 PUSH0 PUSH1 0x40 DUP4 DUP6 SUB SLT ISZERO PUSH2 0x1167 JUMPI PUSH0 PUSH0 REVERT JUMPDEST PUSH2 0x1170 DUP4 PUSH2 0x113B JUMP JUMPDEST SWAP2 POP PUSH2 0x117E PUSH1 0x20 DUP5 ADD PUSH2 0x113B JUMP JUMPDEST SWAP1 POP SWAP3 POP SWAP3 SWAP1 POP JUMP JUMPDEST PUSH1 0x1 PUSH1 0x1 PUSH1 0x80 SHL SUB AND SWAP1 MSTORE JUMP JUMPDEST PUSH0 DUP2 MLOAD DUP1 DUP5 MSTORE DUP1 PUSH1 0x20 DUP5 ADD PUSH1 0x20 DUP7 ADD MCOPY PUSH0 PUSH1 0x20 DUP3 DUP7 ADD ADD MSTORE PUSH1 0x20 PUSH1 0x1F NOT PUSH1 0x1F DUP4 ADD AND DUP6 ADD ADD SWAP2 POP POP SWAP3 SWAP2 POP POP JUMP JUMPDEST PUSH1 0x20 DUP2 MSTORE PUSH2 0x11D4 PUSH1 0x20 DUP3 ADD DUP4 MLOAD PUSH2 0x1187 JUMP JUMPDEST PUSH0 PUSH1 0x20 DUP4 ADD MLOAD PUSH2 0x11E7 PUSH1 0x40 DUP5 ADD DUP3 PUSH2 0x1187 JUMP JUMPDEST POP PUSH1 0x40 DUP4 ADD MLOAD PUSH2 0x160 PUSH1 0x60 DUP5 ADD MSTORE PUSH2 0x1203 PUSH2 0x180 DUP5 ADD DUP3 PUSH2 0x1194 JUMP JUMPDEST SWAP1 POP PUSH1 0x60 DUP5 ADD MLOAD PUSH1 0x1F NOT DUP5 DUP4 SUB ADD PUSH1 0x80 DUP6 ADD MSTORE PUSH2 0x1220 DUP3 DUP3 PUSH2 0x1194 JUMP JUMPDEST SWAP2 POP POP PUSH1 0x80 DUP5 ADD MLOAD PUSH2 0x1235 PUSH1 0xA0 DUP6 ADD DUP3 PUSH2 0x1187 JUMP JUMPDEST POP PUSH1 0xA0 DUP5 ADD MLOAD DUP1 ISZERO ISZERO PUSH1 0xC0 DUP6 ADD MSTORE POP PUSH1 0xC0 DUP5 ADD MLOAD DUP4 DUP3 SUB PUSH1 0x1F NOT ADD PUSH1 0xE0 DUP6 ADD MSTORE PUSH2 0x125F DUP3 DUP3 PUSH2 0x1194 JUMP JUMPDEST SWAP2 POP POP PUSH1 0xE0 DUP5 ADD MLOAD PUSH1 0x1F NOT DUP5 DUP4 SUB ADD PUSH2 0x100 DUP6 ADD MSTORE PUSH2 0x127E DUP3 DUP3 PUSH2 0x1194 JUMP JUMPDEST SWAP2 POP POP PUSH2 0x100 DUP5 ADD MLOAD PUSH2 0x1295 PUSH2 0x120 DUP6 ADD DUP3 PUSH2 0x1187 JUMP JUMPDEST POP PUSH2 0x120 DUP5 ADD MLOAD PUSH2 0x12AA PUSH2 0x140 DUP6 ADD DUP3 PUSH2 0x1187 JUMP JUMPDEST POP PUSH2 0x140 DUP5 ADD MLOAD PUSH2 0x12BF PUSH2 0x160 DUP6 ADD DUP3 PUSH2 0x1187 JUMP JUMPDEST POP SWAP4 SWAP3 POP POP POP JUMP JUMPDEST PUSH0 PUSH1 0x20 DUP3 DUP5 SUB SLT ISZERO PUSH2 0x12D7 JUMPI PUSH0 PUSH0 REVERT JUMPDEST PUSH2 0x555 DUP3 PUSH2 0x113B JUMP JUMPDEST DUP1 CALLDATALOAD PUSH1 0x1 PUSH1 0x1 PUSH1 0xA0 SHL SUB DUP2 AND DUP2 EQ PUSH2 0x1151 JUMPI PUSH0 PUSH0 REVERT JUMPDEST PUSH0 PUSH0 PUSH1 0x40 DUP4 DUP6 SUB SLT ISZERO PUSH2 0x1307 JUMPI PUSH0 PUSH0 REVERT JUMPDEST PUSH2 0x1310 DUP4 PUSH2 0x12E0 JUMP JUMPDEST SWAP2 POP PUSH2 0x117E PUSH1 0x20 DUP5 ADD PUSH2 0x12E0 JUMP JUMPDEST PUSH4 0x4E487B71 PUSH1 0xE0 SHL PUSH0 MSTORE PUSH1 0x41 PUSH1 0x4 MSTORE PUSH1 0x24 PUSH0 REVERT JUMPDEST PUSH0 DUP3 PUSH1 0x1F DUP4 ADD SLT PUSH2 0x1341 JUMPI PUSH0 PUSH0 REVERT JUMPDEST DUP2 CALLDATALOAD PUSH1 0x1 PUSH1 0x1 PUSH1 0x40 SHL SUB DUP2 GT ISZERO PUSH2 0x135A JUMPI PUSH2 0x135A PUSH2 0x131E JUMP JUMPDEST PUSH1 0x40 MLOAD PUSH1 0x1F DUP3 ADD PUSH1 0x1F NOT SWAP1 DUP2 AND PUSH1 0x3F ADD AND DUP2 ADD PUSH1 0x1 PUSH1 0x1 PUSH1 0x40 SHL SUB DUP2 GT DUP3 DUP3 LT OR ISZERO PUSH2 0x1388 JUMPI PUSH2 0x1388 PUSH2 0x131E JUMP JUMPDEST PUSH1 0x40 MSTORE DUP2 DUP2 MSTORE DUP4 DUP3 ADD PUSH1 0x20 ADD DUP6 LT ISZERO PUSH2 0x139F JUMPI PUSH0 PUSH0 REVERT JUMPDEST DUP2 PUSH1 0x20 DUP6 ADD PUSH1 0x20 DUP4 ADD CALLDATACOPY PUSH0 SWAP2 DUP2 ADD PUSH1 0x20 ADD SWAP2 SWAP1 SWAP2 MSTORE SWAP4 SWAP3 POP POP POP JUMP JUMPDEST PUSH0 PUSH0 PUSH0 PUSH0 PUSH0 PUSH0 PUSH0 PUSH1 0xE0 DUP9 DUP11 SUB SLT ISZERO PUSH2 0x13D1 JUMPI PUSH0 PUSH0 REVERT JUMPDEST PUSH2 0x13DA DUP9 PUSH2 0x113B JUMP JUMPDEST SWAP7 POP PUSH1 0x20 DUP9 ADD CALLDATALOAD PUSH1 0x1 PUSH1 0x1 PUSH1 0x40 SHL SUB DUP2 GT ISZERO PUSH2 0x13F4 JUMPI PUSH0 PUSH0 REVERT JUMPDEST PUSH2 0x1400 DUP11 DUP3 DUP12 ADD PUSH2 0x1332 JUMP JUMPDEST SWAP7 POP POP PUSH1 0x40 DUP9 ADD CALLDATALOAD PUSH1 0x1 PUSH1 0x1 PUSH1 0x40 SHL SUB DUP2 GT ISZERO PUSH2 0x141B JUMPI PUSH0 PUSH0 REVERT JUMPDEST PUSH2 0x1427 DUP11 DUP3 DUP12 ADD PUSH2 0x1332 JUMP JUMPDEST SWAP6 POP POP PUSH2 0x1436 PUSH1 0x60 DUP10 ADD PUSH2 0x113B JUMP JUMPDEST SWAP4 POP PUSH1 0x80 DUP9 ADD CALLDATALOAD PUSH1 0x1 PUSH1 0x1 PUSH1 0x40 SHL SUB DUP2 GT ISZERO PUSH2 0x1450 JUMPI PUSH0 PUSH0 REVERT JUMPDEST PUSH2 0x145C DUP11 DUP3 DUP12 ADD PUSH2 0x1332 JUMP JUMPDEST SWAP4 POP POP PUSH1 0xA0 DUP9 ADD CALLDATALOAD PUSH1 0x1 PUSH1 0x1 PUSH1 0x40 SHL SUB DUP2 GT ISZERO PUSH2 0x1477 JUMPI PUSH0 PUSH0 REVERT JUMPDEST PUSH2 0x1483 DUP11 DUP3 DUP12 ADD PUSH2 0x1332 JUMP JUMPDEST SWAP3 POP POP PUSH2 0x1492 PUSH1 0xC0 DUP10 ADD PUSH2 0x113B JUMP JUMPDEST SWAP1 POP SWAP3 SWAP6 SWAP9 SWAP2 SWAP5 SWAP8 POP SWAP3 SWAP6 POP JUMP JUMPDEST PUSH1 0x1 PUSH1 0x1 PUSH1 0x80 SHL SUB DUP13 DUP2 AND DUP3 MSTORE DUP12 AND PUSH1 0x20 DUP3 ADD MSTORE PUSH2 0x160 PUSH1 0x40 DUP3 ADD DUP2 SWAP1 MSTORE PUSH0 SWAP1 PUSH2 0x14CC SWAP1 DUP4 ADD DUP13 PUSH2 0x1194 JUMP JUMPDEST DUP3 DUP2 SUB PUSH1 0x60 DUP5 ADD MSTORE PUSH2 0x14DE DUP2 DUP13 PUSH2 0x1194 JUMP JUMPDEST PUSH1 0x1 PUSH1 0x1 PUSH1 0x80 SHL SUB DUP12 AND PUSH1 0x80 DUP6 ADD MSTORE DUP10 ISZERO ISZERO PUSH1 0xA0 DUP6 ADD MSTORE SWAP1 POP DUP3 DUP2 SUB PUSH1 0xC0 DUP5 ADD MSTORE PUSH2 0x1509 DUP2 DUP10 PUSH2 0x1194 JUMP JUMPDEST SWAP1 POP DUP3 DUP2 SUB PUSH1 0xE0 DUP5 ADD MSTORE PUSH2 0x151D DUP2 DUP9 PUSH2 0x1194 JUMP JUMPDEST SWAP2 POP POP PUSH2 0x152E PUSH2 0x100 DUP4 ADD DUP7 PUSH2 0x1187 JUMP JUMPDEST PUSH2 0x153C PUSH2 0x120 DUP4 ADD DUP6 PUSH2 0x1187 JUMP JUMPDEST PUSH2 0x154A PUSH2 0x140 DUP4 ADD DUP5 PUSH2 0x1187 JUMP JUMPDEST SWAP13 SWAP12 POP POP POP POP POP POP POP POP POP POP POP POP JUMP JUMPDEST PUSH1 0x1 PUSH1 0x1 PUSH1 0xA0 SHL SUB SWAP2 SWAP1 SWAP2 AND DUP2 MSTORE PUSH1 0x20 ADD SWAP1 JUMP JUMPDEST PUSH0 PUSH1 0x20 DUP3 DUP5 SUB SLT ISZERO PUSH2 0x157E JUMPI PUSH0 PUSH0 REVERT JUMPDEST PUSH2 0x555 DUP3 PUSH2 0x12E0 JUMP JUMPDEST DUP1 CALLDATALOAD DUP1 ISZERO ISZERO DUP2 EQ PUSH2 0x1151 JUMPI PUSH0 PUSH0 REVERT JUMPDEST PUSH0 PUSH0 PUSH0 PUSH0 PUSH0 PUSH0 PUSH0 PUSH0 PUSH0 PUSH2 0x120 DUP11 DUP13 SUB SLT ISZERO PUSH2 0x15AF JUMPI PUSH0 PUSH0 REVERT JUMPDEST PUSH2 0x15B8 DUP11 PUSH2 0x113B JUMP JUMPDEST SWAP9 POP PUSH2 0x15C6 PUSH1 0x20 DUP12 ADD PUSH2 0x113B JUMP JUMPDEST SWAP8 POP PUSH1 0x40 DUP11 ADD CALLDATALOAD PUSH1 0x1 PUSH1 0x1 PUSH1 0x40 SHL SUB DUP2 GT ISZERO PUSH2 0x15E0 JUMPI PUSH0 PUSH0 REVERT JUMPDEST PUSH2 0x15EC DUP13 DUP3 DUP14 ADD PUSH2 0x1332 JUMP JUMPDEST SWAP8 POP POP PUSH1 0x60 DUP11 ADD CALLDATALOAD PUSH1 0x1 PUSH1 0x1 PUSH1 0x40 SHL SUB DUP2 GT ISZERO PUSH2 0x1607 JUMPI PUSH0 PUSH0 REVERT JUMPDEST PUSH2 0x1613 DUP13 DUP3 DUP14 ADD PUSH2 0x1332 JUMP JUMPDEST SWAP7 POP POP PUSH2 0x1622 PUSH1 0x80 DUP12 ADD PUSH2 0x113B JUMP JUMPDEST SWAP5 POP PUSH2 0x1630 PUSH1 0xA0 DUP12 ADD PUSH2 0x1587 JUMP JUMPDEST SWAP4 POP PUSH1 0xC0 DUP11 ADD CALLDATALOAD PUSH1 0x1 PUSH1 0x1 PUSH1 0x40 SHL SUB DUP2 GT ISZERO PUSH2 0x164A JUMPI PUSH0 PUSH0 REVERT JUMPDEST PUSH2 0x1656 DUP13 DUP3 DUP14 ADD PUSH2 0x1332 JUMP JUMPDEST SWAP4 POP POP PUSH1 0xE0 DUP11 ADD CALLDATALOAD PUSH1 0x1 PUSH1 0x1 PUSH1 0x40 SHL SUB DUP2 GT ISZERO PUSH2 0x1671 JUMPI PUSH0 PUSH0 REVERT JUMPDEST PUSH2 0x167D DUP13 DUP3 DUP14 ADD PUSH2 0x1332 JUMP JUMPDEST SWAP3 POP POP PUSH2 0x168D PUSH2 0x100 DUP12 ADD PUSH2 0x113B JUMP JUMPDEST SWAP1 POP SWAP3 SWAP6 SWAP9 POP SWAP3 SWAP6 SWAP9 POP SWAP3 SWAP6 SWAP9 JUMP JUMPDEST PUSH1 0x1 DUP2 DUP2 SHR SWAP1 DUP3 AND DUP1 PUSH2 0x16B0 JUMPI PUSH1 0x7F DUP3 AND SWAP2 POP JUMPDEST PUSH1 0x20 DUP3 LT DUP2 SUB PUSH2 0x16CE JUMPI PUSH4 0x4E487B71 PUSH1 0xE0 SHL PUSH0 MSTORE PUSH1 0x22 PUSH1 0x4 MSTORE PUSH1 0x24 PUSH0 REVERT JUMPDEST POP SWAP2 SWAP1 POP JUMP JUMPDEST PUSH0 PUSH1 0x1 PUSH1 0x1 PUSH1 0x80 SHL SUB DUP3 AND PUSH1 0x2 PUSH1 0x1 PUSH1 0x80 SHL SUB NOT DUP2 ADD PUSH2 0x1702 JUMPI PUSH4 0x4E487B71 PUSH1 0xE0 SHL PUSH0 MSTORE PUSH1 0x11 PUSH1 0x4 MSTORE PUSH1 0x24 PUSH0 REVERT JUMPDEST PUSH1 0x1 ADD SWAP3 SWAP2 POP POP JUMP JUMPDEST PUSH1 0x1F DUP3 GT ISZERO PUSH2 0x1752 JUMPI DUP1 PUSH0 MSTORE PUSH1 0x20 PUSH0 KECCAK256 PUSH1 0x1F DUP5 ADD PUSH1 0x5 SHR DUP2 ADD PUSH1 0x20 DUP6 LT ISZERO PUSH2 0x1730 JUMPI POP DUP1 JUMPDEST PUSH1 0x1F DUP5 ADD PUSH1 0x5 SHR DUP3 ADD SWAP2 POP JUMPDEST DUP2 DUP2 LT ISZERO PUSH2 0x174F JUMPI PUSH0 DUP2 SSTORE PUSH1 0x1 ADD PUSH2 0x173C JUMP JUMPDEST POP POP JUMPDEST POP POP POP JUMP JUMPDEST DUP2 MLOAD PUSH1 0x1 PUSH1 0x1 PUSH1 0x40 SHL SUB DUP2 GT ISZERO PUSH2 0x1770 JUMPI PUSH2 0x1770 PUSH2 0x131E JUMP JUMPDEST PUSH2 0x1784 DUP2 PUSH2 0x177E DUP5 SLOAD PUSH2 0x169C JUMP JUMPDEST DUP5 PUSH2 0x170B JUMP JUMPDEST PUSH1 0x20 PUSH1 0x1F DUP3 GT PUSH1 0x1 DUP2 EQ PUSH2 0x17B6 JUMPI PUSH0 DUP4 ISZERO PUSH2 0x179F JUMPI POP DUP5 DUP3 ADD MLOAD JUMPDEST PUSH0 NOT PUSH1 0x3 DUP6 SWAP1 SHL SHR NOT AND PUSH1 0x1 DUP5 SWAP1 SHL OR DUP5 SSTORE PUSH2 0x174F JUMP JUMPDEST PUSH0 DUP5 DUP2 MSTORE PUSH1 0x20 DUP2 KECCAK256 PUSH1 0x1F NOT DUP6 AND SWAP2 JUMPDEST DUP3 DUP2 LT ISZERO PUSH2 0x17E5 JUMPI DUP8 DUP6 ADD MLOAD DUP3 SSTORE PUSH1 0x20 SWAP5 DUP6 ADD SWAP5 PUSH1 0x1 SWAP1 SWAP3 ADD SWAP2 ADD PUSH2 0x17C5 JUMP JUMPDEST POP DUP5 DUP3 LT ISZERO PUSH2 0x1802 JUMPI DUP7 DUP5 ADD MLOAD PUSH0 NOT PUSH1 0x3 DUP8 SWAP1 SHL PUSH1 0xF8 AND SHR NOT AND DUP2 SSTORE JUMPDEST POP POP POP POP PUSH1 0x1 SWAP1 DUP2 SHL ADD SWAP1 SSTORE POP JUMP JUMPDEST PUSH1 0x40 DUP2 MSTORE PUSH0 PUSH2 0x1823 PUSH1 0x40 DUP4 ADD DUP6 PUSH2 0x1194 JUMP JUMPDEST SWAP1 POP PUSH1 0x1 DUP1 PUSH1 0x80 SHL SUB DUP4 AND PUSH1 0x20 DUP4 ADD MSTORE SWAP4 SWAP3 POP POP POP JUMP JUMPDEST PUSH1 0x60 DUP2 MSTORE PUSH0 PUSH2 0x184C PUSH1 0x60 DUP4 ADD DUP7 PUSH2 0x1194 JUMP JUMPDEST PUSH1 0x1 PUSH1 0x1 PUSH1 0x80 SHL SUB SWAP5 SWAP1 SWAP5 AND PUSH1 0x20 DUP4 ADD MSTORE POP SWAP1 ISZERO ISZERO PUSH1 0x40 SWAP1 SWAP2 ADD MSTORE SWAP2 SWAP1 POP JUMP INVALID LOG2 PUSH5 0x6970667358 0x22 SLT KECCAK256 GAS DUP6 0xB8 0xC9 SWAPN 0x6A 0xAB SWAP16 SWAP4 0xB7 ADDMOD MSTORE8 SWAP6 0xAC SWAP9 STATICCALL 0xA7 PUSH30 0xD33EBE1FAA2C572F214C2F102CC864736F6C634300081E00330000000000 "
		},
		"gasEstimates": {
			"creation": {
				"codeDepositCost": "1261200",
				"executionCost": "1313",
				"totalCost": "1262513"
			},
			"external": {
				"addMenuItem(uint128,string,string,uint128,string,string,uint128)": "infinite",
				"foodAppContractAddress()": "2492",
				"getMenuItem(uint128,uint128)": "infinite",
				"initialize(address,address)": "infinite",
				"menuItems(uint128,uint128)": "infinite",
				"nextMenuIds(uint128)": "2555",
				"owner()": "2561",
				"removeMenuItem(uint128,uint128)": "infinite",
				"renounceOwnership()": "infinite",
				"transferOwnership(address)": "infinite",
				"updateMenuItem(uint128,uint128,string,string,uint128,bool,string,string,uint128)": "infinite"
			}
		},
		"methodIdentifiers": {
			"addMenuItem(uint128,string,string,uint128,string,string,uint128)": "6ef07f03",
			"foodAppContractAddress()": "832dbdd9",
			"getMenuItem(uint128,uint128)": "0c528968",
			"initialize(address,address)": "485cc955",
			"menuItems(uint128,uint128)": "75fab3e0",
			"nextMenuIds(uint128)": "21bc7543",
			"owner()": "8da5cb5b",
			"removeMenuItem(uint128,uint128)": "5b94ea5d",
			"renounceOwnership()": "715018a6",
			"transferOwnership(address)": "f2fde38b",
			"updateMenuItem(uint128,uint128,string,string,uint128,bool,string,string,uint128)": "fa9d2bec"
		}
	},
	"abi": [
		{
			"inputs": [],
			"name": "InvalidInitialization",
			"type": "error"
		},
		{
			"inputs": [],
			"name": "MenuManager__InvalidAddress",
			"type": "error"
		},
		{
			"inputs": [],
			"name": "MenuManager__InvalidPrice",
			"type": "error"
		},
		{
			"inputs": [],
			"name": "MenuManager__MenuItemNotFound",
			"type": "error"
		},
		{
			"inputs": [],
			"name": "MenuManager__NameRequired",
			"type": "error"
		},
		{
			"inputs": [],
			"name": "MenuManager__NotFoodApp",
			"type": "error"
		},
		{
			"inputs": [],
			"name": "MenuManager__RestaurantHasNoMenuYet",
			"type": "error"
		},
		{
			"inputs": [],
			"name": "NotInitializing",
			"type": "error"
		},
		{
			"inputs": [
				{
					"internalType": "address",
					"name": "owner",
					"type": "address"
				}
			],
			"name": "OwnableInvalidOwner",
			"type": "error"
		},
		{
			"inputs": [
				{
					"internalType": "address",
					"name": "account",
					"type": "address"
				}
			],
			"name": "OwnableUnauthorizedAccount",
			"type": "error"
		},
		{
			"anonymous": false,
			"inputs": [
				{
					"indexed": false,
					"internalType": "uint64",
					"name": "version",
					"type": "uint64"
				}
			],
			"name": "Initialized",
			"type": "event"
		},
		{
			"anonymous": false,
			"inputs": [
				{
					"indexed": true,
					"internalType": "uint128",
					"name": "restaurantId",
					"type": "uint128"
				},
				{
					"indexed": true,
					"internalType": "uint128",
					"name": "menuId",
					"type": "uint128"
				},
				{
					"indexed": false,
					"internalType": "string",
					"name": "name",
					"type": "string"
				},
				{
					"indexed": false,
					"internalType": "uint128",
					"name": "price",
					"type": "uint128"
				}
			],
			"name": "MenuItemAdded",
			"type": "event"
		},
		{
			"anonymous": false,
			"inputs": [
				{
					"indexed": true,
					"internalType": "uint128",
					"name": "restaurantId",
					"type": "uint128"
				},
				{
					"indexed": true,
					"internalType": "uint128",
					"name": "menuId",
					"type": "uint128"
				}
			],
			"name": "MenuItemRemoved",
			"type": "event"
		},
		{
			"anonymous": false,
			"inputs": [
				{
					"indexed": true,
					"internalType": "uint128",
					"name": "restaurantId",
					"type": "uint128"
				},
				{
					"indexed": true,
					"internalType": "uint128",
					"name": "menuId",
					"type": "uint128"
				},
				{
					"indexed": false,
					"internalType": "string",
					"name": "name",
					"type": "string"
				},
				{
					"indexed": false,
					"internalType": "uint128",
					"name": "price",
					"type": "uint128"
				},
				{
					"indexed": false,
					"internalType": "bool",
					"name": "available",
					"type": "bool"
				}
			],
			"name": "MenuItemUpdated",
			"type": "event"
		},
		{
			"anonymous": false,
			"inputs": [
				{
					"indexed": true,
					"internalType": "address",
					"name": "previousOwner",
					"type": "address"
				},
				{
					"indexed": true,
					"internalType": "address",
					"name": "newOwner",
					"type": "address"
				}
			],
			"name": "OwnershipTransferred",
			"type": "event"
		},
		{
			"inputs": [
				{
					"internalType": "uint128",
					"name": "restaurantId",
					"type": "uint128"
				},
				{
					"internalType": "string",
					"name": "name",
					"type": "string"
				},
				{
					"internalType": "string",
					"name": "menuTitle",
					"type": "string"
				},
				{
					"internalType": "uint128",
					"name": "price",
					"type": "uint128"
				},
				{
					"internalType": "string",
					"name": "description",
					"type": "string"
				},
				{
					"internalType": "string",
					"name": "category",
					"type": "string"
				},
				{
					"internalType": "uint128",
					"name": "preparationTime",
					"type": "uint128"
				}
			],
			"name": "addMenuItem",
			"outputs": [],
			"stateMutability": "nonpayable",
			"type": "function"
		},
		{
			"inputs": [],
			"name": "foodAppContractAddress",
			"outputs": [
				{
					"internalType": "address",
					"name": "",
					"type": "address"
				}
			],
			"stateMutability": "view",
			"type": "function"
		},
		{
			"inputs": [
				{
					"internalType": "uint128",
					"name": "restaurantId",
					"type": "uint128"
				},
				{
					"internalType": "uint128",
					"name": "menuId",
					"type": "uint128"
				}
			],
			"name": "getMenuItem",
			"outputs": [
				{
					"components": [
						{
							"internalType": "uint128",
							"name": "id",
							"type": "uint128"
						},
						{
							"internalType": "uint128",
							"name": "restaurantId",
							"type": "uint128"
						},
						{
							"internalType": "string",
							"name": "name",
							"type": "string"
						},
						{
							"internalType": "string",
							"name": "menuTitle",
							"type": "string"
						},
						{
							"internalType": "uint128",
							"name": "price",
							"type": "uint128"
						},
						{
							"internalType": "bool",
							"name": "available",
							"type": "bool"
						},
						{
							"internalType": "string",
							"name": "description",
							"type": "string"
						},
						{
							"internalType": "string",
							"name": "category",
							"type": "string"
						},
						{
							"internalType": "uint128",
							"name": "totalRating",
							"type": "uint128"
						},
						{
							"internalType": "uint128",
							"name": "ratingCount",
							"type": "uint128"
						},
						{
							"internalType": "uint128",
							"name": "preparationTime",
							"type": "uint128"
						}
					],
					"internalType": "struct MenuItem",
					"name": "",
					"type": "tuple"
				}
			],
			"stateMutability": "view",
			"type": "function"
		},
		{
			"inputs": [
				{
					"internalType": "address",
					"name": "_foodAppContract",
					"type": "address"
				},
				{
					"internalType": "address",
					"name": "_factoryOwner",
					"type": "address"
				}
			],
			"name": "initialize",
			"outputs": [],
			"stateMutability": "nonpayable",
			"type": "function"
		},
		{
			"inputs": [
				{
					"internalType": "uint128",
					"name": "",
					"type": "uint128"
				},
				{
					"internalType": "uint128",
					"name": "",
					"type": "uint128"
				}
			],
			"name": "menuItems",
			"outputs": [
				{
					"internalType": "uint128",
					"name": "id",
					"type": "uint128"
				},
				{
					"internalType": "uint128",
					"name": "restaurantId",
					"type": "uint128"
				},
				{
					"internalType": "string",
					"name": "name",
					"type": "string"
				},
				{
					"internalType": "string",
					"name": "menuTitle",
					"type": "string"
				},
				{
					"internalType": "uint128",
					"name": "price",
					"type": "uint128"
				},
				{
					"internalType": "bool",
					"name": "available",
					"type": "bool"
				},
				{
					"internalType": "string",
					"name": "description",
					"type": "string"
				},
				{
					"internalType": "string",
					"name": "category",
					"type": "string"
				},
				{
					"internalType": "uint128",
					"name": "totalRating",
					"type": "uint128"
				},
				{
					"internalType": "uint128",
					"name": "ratingCount",
					"type": "uint128"
				},
				{
					"internalType": "uint128",
					"name": "preparationTime",
					"type": "uint128"
				}
			],
			"stateMutability": "view",
			"type": "function"
		},
		{
			"inputs": [
				{
					"internalType": "uint128",
					"name": "",
					"type": "uint128"
				}
			],
			"name": "nextMenuIds",
			"outputs": [
				{
					"internalType": "uint128",
					"name": "",
					"type": "uint128"
				}
			],
			"stateMutability": "view",
			"type": "function"
		},
		{
			"inputs": [],
			"name": "owner",
			"outputs": [
				{
					"internalType": "address",
					"name": "",
					"type": "address"
				}
			],
			"stateMutability": "view",
			"type": "function"
		},
		{
			"inputs": [
				{
					"internalType": "uint128",
					"name": "restaurantId",
					"type": "uint128"
				},
				{
					"internalType": "uint128",
					"name": "menuId",
					"type": "uint128"
				}
			],
			"name": "removeMenuItem",
			"outputs": [],
			"stateMutability": "nonpayable",
			"type": "function"
		},
		{
			"inputs": [],
			"name": "renounceOwnership",
			"outputs": [],
			"stateMutability": "nonpayable",
			"type": "function"
		},
		{
			"inputs": [
				{
					"internalType": "address",
					"name": "newOwner",
					"type": "address"
				}
			],
			"name": "transferOwnership",
			"outputs": [],
			"stateMutability": "nonpayable",
			"type": "function"
		},
		{
			"inputs": [
				{
					"internalType": "uint128",
					"name": "restaurantId",
					"type": "uint128"
				},
				{
					"internalType": "uint128",
					"name": "menuId",
					"type": "uint128"
				},
				{
					"internalType": "string",
					"name": "name",
					"type": "string"
				},
				{
					"internalType": "string",
					"name": "menuTitle",
					"type": "string"
				},
				{
					"internalType": "uint128",
					"name": "price",
					"type": "uint128"
				},
				{
					"internalType": "bool",
					"name": "available",
					"type": "bool"
				},
				{
					"internalType": "string",
					"name": "description",
					"type": "string"
				},
				{
					"internalType": "string",
					"name": "category",
					"type": "string"
				},
				{
					"internalType": "uint128",
					"name": "preparationTime",
					"type": "uint128"
				}
			],
			"name": "updateMenuItem",
			"outputs": [],
			"stateMutability": "nonpayable",
			"type": "function"
		}
	]
}