{
	"data": {
		"bytecode": {
			"linkReferences": {},
			"object": "6080604052348015600e575f5ffd5b5061252d8061001c5f395ff3fe608060405234801561000f575f5ffd5b50600436106100cb575f3560e01c80636b88cde511610088578063832dbdd911610063578063832dbdd9146101e65780638da5cb5b14610211578063d5d2768b14610241578063f2fde38b14610254575f5ffd5b80636b88cde514610193578063715018a6146101b357806375fab3e0146101bb575f5ffd5b80630c528968146100cf57806321bc7543146100f857806325147e4f14610138578063485cc9551461014d5780635b94ea5d1461016057806361dcddda14610173575b5f5ffd5b6100e26100dd366004611bc1565b610267565b6040516100ef9190611d55565b60405180910390f35b610120610106366004611d6e565b60016020525f90815260409020546001600160801b031681565b6040516001600160801b0390911681526020016100ef565b61014b610146366004611e5c565b610691565b005b61014b61015b366004612004565b61087c565b61014b61016e366004611bc1565b6109dd565b610186610181366004611d6e565b610c9b565b6040516100ef919061202c565b6101a66101a1366004611d6e565b61116b565b6040516100ef919061208f565b61014b611249565b6101ce6101c9366004611bc1565b61125c565b6040516100ef9c9b9a999897969594939291906120da565b6003546101f9906001600160a01b031681565b6040516001600160a01b0390911681526020016100ef565b7f9016d09d72d40fdae2fd8ceac6b6234c7706214fd39c1cd1e609a0528c199300546001600160a01b03166101f9565b61014b61024f3660046121bc565b61158c565b61014b6102623660046122cb565b61193e565b61026f611aca565b6001600160801b038084165f908152602081815260408083208685168452825280832081516101808101835281548087168252600160801b900490951692850192909252600182018054939493918401916102c9906122e4565b80601f01602080910402602001604051908101604052809291908181526020018280546102f5906122e4565b80156103405780601f1061031757610100808354040283529160200191610340565b820191905f5260205f20905b81548152906001019060200180831161032357829003601f168201915b50505050508152602001600282018054610359906122e4565b80601f0160208091040260200160405190810160405280929190818152602001828054610385906122e4565b80156103d05780601f106103a7576101008083540402835291602001916103d0565b820191905f5260205f20905b8154815290600101906020018083116103b357829003601f168201915b505050505081526020016003820180546103e9906122e4565b80601f0160208091040260200160405190810160405280929190818152602001828054610415906122e4565b80156104605780601f1061043757610100808354040283529160200191610460565b820191905f5260205f20905b81548152906001019060200180831161044357829003601f168201915b505050918352505060048201546001600160801b0381166020830152600160801b900460ff16151560408201526005820180546060909201916104a2906122e4565b80601f01602080910402602001604051908101604052809291908181526020018280546104ce906122e4565b80156105195780601f106104f057610100808354040283529160200191610519565b820191905f5260205f20905b8154815290600101906020018083116104fc57829003601f168201915b50505050508152602001600682018054610532906122e4565b80601f016020809104026020016040519081016040528092919081815260200182805461055e906122e4565b80156105a95780601f10610580576101008083540402835291602001916105a9565b820191905f5260205f20905b81548152906001019060200180831161058c57829003601f168201915b505050918352505060078201546001600160801b038082166020840152600160801b9091048116604083015260089092015482166060909101528151919250165f03610688576001600160801b0384165f9081526002602052604090205415801561065157506001600160801b038085165f9081526001602052604090205416158061065157506001600160801b038085165f90815260016020819052604090912054909116145b1561066f57604051634d8a9ce560e11b815260040160405180910390fd5b604051630b464e2960e21b815260040160405180910390fd5b90505b92915050565b6003546001600160a01b031633146106bc57604051630a8784c160e41b815260040160405180910390fd5b80516001600160801b039081165f90815260208181526040808320828601518516845290915281208054909216900361070857604051630b464e2960e21b815260040160405180910390fd5b8160400151515f0361072d57604051630dc3561760e41b815260040160405180910390fd5b8160a001516001600160801b03165f0361075a576040516314315ecf60e21b815260040160405180910390fd5b6040820151600182019061076e9082612368565b50606082015160028201906107839082612368565b50608082015160038201906107989082612368565b5060a082015160048201805460c08501511515600160801b026001600160881b03199091166001600160801b039093169290921791909117905560e082015160058201906107e69082612368565b5061010082015160068201906107fc9082612368565b506101208201516008820180546001600160801b0319166001600160801b039283161790556020830151835160408086015160a087015160c088015192519486169593909316937ffe3a76e2715db6f604f640adbbb5bd6dc99b7720b1d7a3fd9ed73c16a4d7ba7493610870939091612422565b60405180910390a35050565b5f610885611980565b805490915060ff600160401b82041615906001600160401b03165f811580156108ab5750825b90505f826001600160401b031660011480156108c65750303b155b9050811580156108d4575080155b156108f25760405163f92ee8a960e01b815260040160405180910390fd5b845467ffffffffffffffff19166001178555831561091c57845460ff60401b1916600160401b1785555b6001600160a01b03871661094357604051631d46ecc360e21b815260040160405180910390fd5b6001600160a01b03861661096a57604051631d46ecc360e21b815260040160405180910390fd5b610973866119a8565b600380546001600160a01b0319166001600160a01b03891617905583156109d457845460ff60401b19168555604051600181527fc7f505b2f371ae2175ee4913f4499e1f2633a7b5936321eed1cdaeb6115181d29060200160405180910390a15b50505050505050565b6003546001600160a01b03163314610a0857604051630a8784c160e41b815260040160405180910390fd5b6001600160801b038083165f9081526020818152604080832085851684529091528120549091169003610a4e57604051630b464e2960e21b815260040160405180910390fd5b6001600160801b038083165f90815260208181526040808320938516835292905290812081815590610a836001830182611b5c565b610a90600283015f611b5c565b610a9d600383015f611b5c565b6004820180546001600160881b0319169055610abc600583015f611b5c565b610ac9600683015f611b5c565b505f60078201819055600890910180546001600160801b03191690556001600160801b0383168152600260205260408120905f19905b8254811015610c2e57836001600160801b0316838281548110610b2457610b24612454565b5f918252602090912060028204015460019091166010026101000a90046001600160801b031603610c265782548390610b5f9060019061247c565b81548110610b6f57610b6f612454565b905f5260205f2090600291828204019190066010029054906101000a90046001600160801b0316838281548110610ba857610ba8612454565b905f5260205f2090600291828204019190066010026101000a8154816001600160801b0302191690836001600160801b0316021790555082805480610bef57610bef61248f565b5f8281526020902060025f199092019182040180546001600160801b03601060018516026101000a02191690559055905080610c2e565b600101610aff565b505f198103610c5057604051630b464e2960e21b815260040160405180910390fd5b6040516001600160801b03828116825280851691908616907f8d71c5afd7a0f7fbd09e9dfd0bf5b47e59048f35cc2e712e78f7ce3e15ee71f69060200160405180910390a350505050565b6001600160801b0381165f9081526002602052604081208054606092819003610cf757604080515f8082526020820190925290610cee565b610cdb611aca565b815260200190600190039081610cd35790505b50949350505050565b5f816001600160401b03811115610d1057610d10611d87565b604051908082528060200260200182016040528015610d4957816020015b610d36611aca565b815260200190600190039081610d2e5790505b5090505f5b82816001600160801b03161015610cee575f84826001600160801b031681548110610d7b57610d7b612454565b5f91825260208083206002830401546001600160801b038b81168552848352604080862060019095166010026101000a909204811680865293909252909220549092501615611158576001600160801b038088165f90815260208181526040808320858516845282529182902082516101808101845281548086168252600160801b9004909416918401919091526001810180549192840191610e1d906122e4565b80601f0160208091040260200160405190810160405280929190818152602001828054610e49906122e4565b8015610e945780601f10610e6b57610100808354040283529160200191610e94565b820191905f5260205f20905b815481529060010190602001808311610e7757829003601f168201915b50505050508152602001600282018054610ead906122e4565b80601f0160208091040260200160405190810160405280929190818152602001828054610ed9906122e4565b8015610f245780601f10610efb57610100808354040283529160200191610f24565b820191905f5260205f20905b815481529060010190602001808311610f0757829003601f168201915b50505050508152602001600382018054610f3d906122e4565b80601f0160208091040260200160405190810160405280929190818152602001828054610f69906122e4565b8015610fb45780601f10610f8b57610100808354040283529160200191610fb4565b820191905f5260205f20905b815481529060010190602001808311610f9757829003601f168201915b505050918352505060048201546001600160801b0381166020830152600160801b900460ff1615156040820152600582018054606090920191610ff6906122e4565b80601f0160208091040260200160405190810160405280929190818152602001828054611022906122e4565b801561106d5780601f106110445761010080835404028352916020019161106d565b820191905f5260205f20905b81548152906001019060200180831161105057829003601f168201915b50505050508152602001600682018054611086906122e4565b80601f01602080910402602001604051908101604052809291908181526020018280546110b2906122e4565b80156110fd5780601f106110d4576101008083540402835291602001916110fd565b820191905f5260205f20905b8154815290600101906020018083116110e057829003601f168201915b505050918352505060078201546001600160801b038082166020840152600160801b90910481166040830152600890920154821660609091015284518591851690811061114c5761114c612454565b60200260200101819052505b5080611163816124a3565b915050610d4e565b6001600160801b0381165f9081526002602052604081208054606092906001600160401b0381111561119f5761119f611d87565b6040519080825280602002602001820160405280156111c8578160200160208202803683370190505b5090505f5b8254811015611241578281815481106111e8576111e8612454565b905f5260205f2090600291828204019190066010029054906101000a90046001600160801b031682828151811061122157611221612454565b6001600160801b03909216602092830291909101909101526001016111cd565b509392505050565b6112516119b9565b61125a5f611a14565b565b5f602081815292815260408082209093529081522080546001820180546001600160801b0380841694600160801b9094041692919061129a906122e4565b80601f01602080910402602001604051908101604052809291908181526020018280546112c6906122e4565b80156113115780601f106112e857610100808354040283529160200191611311565b820191905f5260205f20905b8154815290600101906020018083116112f457829003601f168201915b505050505090806002018054611326906122e4565b80601f0160208091040260200160405190810160405280929190818152602001828054611352906122e4565b801561139d5780601f106113745761010080835404028352916020019161139d565b820191905f5260205f20905b81548152906001019060200180831161138057829003601f168201915b5050505050908060030180546113b2906122e4565b80601f01602080910402602001604051908101604052809291908181526020018280546113de906122e4565b80156114295780601f1061140057610100808354040283529160200191611429565b820191905f5260205f20905b81548152906001019060200180831161140c57829003601f168201915b50505050600483015460058401805493946001600160801b03831694600160801b90930460ff1693509161145c906122e4565b80601f0160208091040260200160405190810160405280929190818152602001828054611488906122e4565b80156114d35780601f106114aa576101008083540402835291602001916114d3565b820191905f5260205f20905b8154815290600101906020018083116114b657829003601f168201915b5050505050908060060180546114e8906122e4565b80601f0160208091040260200160405190810160405280929190818152602001828054611514906122e4565b801561155f5780601f106115365761010080835404028352916020019161155f565b820191905f5260205f20905b81548152906001019060200180831161154257829003601f168201915b50505050600783015460089093015491926001600160801b0380821693600160801b90920481169250168c565b6003546001600160a01b031633146115b757604051630a8784c160e41b815260040160405180910390fd5b86515f036115d857604051630dc3561760e41b815260040160405180910390fd5b836001600160801b03165f03611601576040516314315ecf60e21b815260040160405180910390fd5b6001600160801b038089165f90815260016020526040812054909116900361164f576001600160801b0388165f90815260016020819052604090912080546001600160801b03191690911790555b6001600160801b038089165f9081526001602052604081208054909216918291611678836124a3565b91906101000a8154816001600160801b0302191690836001600160801b0316021790555050604051806101800160405280826001600160801b031681526020018a6001600160801b03168152602001898152602001888152602001878152602001866001600160801b031681526020016001151581526020018581526020018481526020015f6001600160801b031681526020015f6001600160801b03168152602001836001600160801b03168152505f5f8b6001600160801b03166001600160801b031681526020019081526020015f205f836001600160801b03166001600160801b031681526020019081526020015f205f820151815f015f6101000a8154816001600160801b0302191690836001600160801b031602179055506020820151815f0160106101000a8154816001600160801b0302191690836001600160801b0316021790555060408201518160010190816117d69190612368565b50606082015160028201906117eb9082612368565b50608082015160038201906118009082612368565b5060a082015160048201805460c08501511515600160801b026001600160881b03199091166001600160801b039093169290921791909117905560e0820151600582019061184e9082612368565b5061010082015160068201906118649082612368565b506101208201516101408301516001600160801b03908116600160801b0291811691909117600783015561016090920151600890910180549183166001600160801b0319929092169190911790558981165f818152600260208181526040808420805460018181018355918652929094209282049092018054878716929094166010026101000a82810296021990931694909417909155517f4b78e675e6619216a7d91d2dc26de2461bd1ffe2788087eb2ee126924517a00f9061192b908c908a906124cd565b60405180910390a3505050505050505050565b6119466119b9565b6001600160a01b03811661197457604051631e4fbdf760e01b81525f60048201526024015b60405180910390fd5b61197d81611a14565b50565b5f807ff0c57e16840df040f15088dc2f81fe391c3923bec73e23a9662efc9c229c6a0061068b565b6119b0611a84565b61197d81611aa9565b336119eb7f9016d09d72d40fdae2fd8ceac6b6234c7706214fd39c1cd1e609a0528c199300546001600160a01b031690565b6001600160a01b03161461125a5760405163118cdaa760e01b815233600482015260240161196b565b7f9016d09d72d40fdae2fd8ceac6b6234c7706214fd39c1cd1e609a0528c19930080546001600160a01b031981166001600160a01b03848116918217845560405192169182907f8be0079c531659141344cd1fd0a4f28419497f9722a3daafe3b4186f6b6457e0905f90a3505050565b611a8c611ab1565b61125a57604051631afcd79f60e31b815260040160405180910390fd5b611946611a84565b5f611aba611980565b54600160401b900460ff16919050565b6040518061018001604052805f6001600160801b031681526020015f6001600160801b031681526020016060815260200160608152602001606081526020015f6001600160801b031681526020015f1515815260200160608152602001606081526020015f6001600160801b031681526020015f6001600160801b031681526020015f6001600160801b031681525090565b508054611b68906122e4565b5f825580601f10611b77575050565b601f0160209004905f5260205f209081019061197d91905b80821115611ba2575f8155600101611b8f565b5090565b80356001600160801b0381168114611bbc575f5ffd5b919050565b5f5f60408385031215611bd2575f5ffd5b611bdb83611ba6565b9150611be960208401611ba6565b90509250929050565b5f81518084528060208401602086015e5f602082860101526020601f19601f83011685010191505092915050565b80516001600160801b031682525f6020820151611c4860208501826001600160801b03169052565b5060408201516101806040850152611c64610180850182611bf2565b905060608301518482036060860152611c7d8282611bf2565b91505060808301518482036080860152611c978282611bf2565b91505060a0830151611cb460a08601826001600160801b03169052565b5060c0830151611cc860c086018215159052565b5060e083015184820360e0860152611ce08282611bf2565b915050610100830151848203610100860152611cfc8282611bf2565b915050610120830151611d1b6101208601826001600160801b03169052565b50610140830151611d386101408601826001600160801b03169052565b506101608301516112416101608601826001600160801b03169052565b602081525f611d676020830184611c20565b9392505050565b5f60208284031215611d7e575f5ffd5b611d6782611ba6565b634e487b7160e01b5f52604160045260245ffd5b60405161018081016001600160401b0381118282101715611dbe57611dbe611d87565b60405290565b5f82601f830112611dd3575f5ffd5b81356001600160401b03811115611dec57611dec611d87565b604051601f8201601f19908116603f011681016001600160401b0381118282101715611e1a57611e1a611d87565b604052818152838201602001851015611e31575f5ffd5b816020850160208301375f918101602001919091529392505050565b80358015158114611bbc575f5ffd5b5f60208284031215611e6c575f5ffd5b81356001600160401b03811115611e81575f5ffd5b82016101808185031215611e93575f5ffd5b611e9b611d9b565b611ea482611ba6565b8152611eb260208301611ba6565b602082015260408201356001600160401b03811115611ecf575f5ffd5b611edb86828501611dc4565b60408301525060608201356001600160401b03811115611ef9575f5ffd5b611f0586828501611dc4565b60608301525060808201356001600160401b03811115611f23575f5ffd5b611f2f86828501611dc4565b608083015250611f4160a08301611ba6565b60a0820152611f5260c08301611e4d565b60c082015260e08201356001600160401b03811115611f6f575f5ffd5b611f7b86828501611dc4565b60e0830152506101008201356001600160401b03811115611f9a575f5ffd5b611fa686828501611dc4565b61010083015250611fba6101208301611ba6565b610120820152611fcd6101408301611ba6565b610140820152611fe06101608301611ba6565b610160820152949350505050565b80356001600160a01b0381168114611bbc575f5ffd5b5f5f60408385031215612015575f5ffd5b61201e83611fee565b9150611be960208401611fee565b5f602082016020835280845180835260408501915060408160051b8601019250602086015f5b8281101561208357603f1987860301845261206e858351611c20565b94506020938401939190910190600101612052565b50929695505050505050565b602080825282518282018190525f918401906040840190835b818110156120cf5783516001600160801b03168352602093840193909201916001016120a8565b509095945050505050565b6001600160801b038d1681526001600160801b038c16602082015261018060408201525f61210c61018083018d611bf2565b828103606084015261211e818d611bf2565b90508281036080840152612132818c611bf2565b6001600160801b038b1660a0850152905088151560c084015282810360e084015261215d8189611bf2565b90508281036101008401526121728188611bf2565b91505061218b6101208301866001600160801b03169052565b6001600160801b0384166101408301526001600160801b0383166101608301529d9c50505050505050505050505050565b5f5f5f5f5f5f5f5f610100898b0312156121d4575f5ffd5b6121dd89611ba6565b975060208901356001600160401b038111156121f7575f5ffd5b6122038b828c01611dc4565b97505060408901356001600160401b0381111561221e575f5ffd5b61222a8b828c01611dc4565b96505060608901356001600160401b03811115612245575f5ffd5b6122518b828c01611dc4565b95505061226060808a01611ba6565b935060a08901356001600160401b0381111561227a575f5ffd5b6122868b828c01611dc4565b93505060c08901356001600160401b038111156122a1575f5ffd5b6122ad8b828c01611dc4565b9250506122bc60e08a01611ba6565b90509295985092959890939650565b5f602082840312156122db575f5ffd5b611d6782611fee565b600181811c908216806122f857607f821691505b60208210810361231657634e487b7160e01b5f52602260045260245ffd5b50919050565b601f82111561236357805f5260205f20601f840160051c810160208510156123415750805b601f840160051c820191505b81811015612360575f815560010161234d565b50505b505050565b81516001600160401b0381111561238157612381611d87565b6123958161238f84546122e4565b8461231c565b6020601f8211600181146123c7575f83156123b05750848201515b5f19600385901b1c1916600184901b178455612360565b5f84815260208120601f198516915b828110156123f657878501518255602094850194600190920191016123d6565b508482101561241357868401515f19600387901b60f8161c191681555b50505050600190811b01905550565b606081525f6124346060830186611bf2565b6001600160801b0394909416602083015250901515604090910152919050565b634e487b7160e01b5f52603260045260245ffd5b634e487b7160e01b5f52601160045260245ffd5b8181038181111561068b5761068b612468565b634e487b7160e01b5f52603160045260245ffd5b5f6001600160801b0382166001600160801b0381036124c4576124c4612468565b60010192915050565b604081525f6124df6040830185611bf2565b90506001600160801b0383166020830152939250505056fea2646970667358221220a5994d2da9fa5ec9dec267cc6ec67944a2575bffb2f3929582692c84b5938d6364736f6c634300081e0033",
			"opcodes": "PUSH1 0x80 PUSH1 0x40 MSTORE CALLVALUE DUP1 ISZERO PUSH1 0xE JUMPI PUSH0 PUSH0 REVERT JUMPDEST POP PUSH2 0x252D DUP1 PUSH2 0x1C PUSH0 CODECOPY PUSH0 RETURN INVALID PUSH1 0x80 PUSH1 0x40 MSTORE CALLVALUE DUP1 ISZERO PUSH2 0xF JUMPI PUSH0 PUSH0 REVERT JUMPDEST POP PUSH1 0x4 CALLDATASIZE LT PUSH2 0xCB JUMPI PUSH0 CALLDATALOAD PUSH1 0xE0 SHR DUP1 PUSH4 0x6B88CDE5 GT PUSH2 0x88 JUMPI DUP1 PUSH4 0x832DBDD9 GT PUSH2 0x63 JUMPI DUP1 PUSH4 0x832DBDD9 EQ PUSH2 0x1E6 JUMPI DUP1 PUSH4 0x8DA5CB5B EQ PUSH2 0x211 JUMPI DUP1 PUSH4 0xD5D2768B EQ PUSH2 0x241 JUMPI DUP1 PUSH4 0xF2FDE38B EQ PUSH2 0x254 JUMPI PUSH0 PUSH0 REVERT JUMPDEST DUP1 PUSH4 0x6B88CDE5 EQ PUSH2 0x193 JUMPI DUP1 PUSH4 0x715018A6 EQ PUSH2 0x1B3 JUMPI DUP1 PUSH4 0x75FAB3E0 EQ PUSH2 0x1BB JUMPI PUSH0 PUSH0 REVERT JUMPDEST DUP1 PUSH4 0xC528968 EQ PUSH2 0xCF JUMPI DUP1 PUSH4 0x21BC7543 EQ PUSH2 0xF8 JUMPI DUP1 PUSH4 0x25147E4F EQ PUSH2 0x138 JUMPI DUP1 PUSH4 0x485CC955 EQ PUSH2 0x14D JUMPI DUP1 PUSH4 0x5B94EA5D EQ PUSH2 0x160 JUMPI DUP1 PUSH4 0x61DCDDDA EQ PUSH2 0x173 JUMPI JUMPDEST PUSH0 PUSH0 REVERT JUMPDEST PUSH2 0xE2 PUSH2 0xDD CALLDATASIZE PUSH1 0x4 PUSH2 0x1BC1 JUMP JUMPDEST PUSH2 0x267 JUMP JUMPDEST PUSH1 0x40 MLOAD PUSH2 0xEF SWAP2 SWAP1 PUSH2 0x1D55 JUMP JUMPDEST PUSH1 0x40 MLOAD DUP1 SWAP2 SUB SWAP1 RETURN JUMPDEST PUSH2 0x120 PUSH2 0x106 CALLDATASIZE PUSH1 0x4 PUSH2 0x1D6E JUMP JUMPDEST PUSH1 0x1 PUSH1 0x20 MSTORE PUSH0 SWAP1 DUP2 MSTORE PUSH1 0x40 SWAP1 KECCAK256 SLOAD PUSH1 0x1 PUSH1 0x1 PUSH1 0x80 SHL SUB AND DUP2 JUMP JUMPDEST PUSH1 0x40 MLOAD PUSH1 0x1 PUSH1 0x1 PUSH1 0x80 SHL SUB SWAP1 SWAP2 AND DUP2 MSTORE PUSH1 0x20 ADD PUSH2 0xEF JUMP JUMPDEST PUSH2 0x14B PUSH2 0x146 CALLDATASIZE PUSH1 0x4 PUSH2 0x1E5C JUMP JUMPDEST PUSH2 0x691 JUMP JUMPDEST STOP JUMPDEST PUSH2 0x14B PUSH2 0x15B CALLDATASIZE PUSH1 0x4 PUSH2 0x2004 JUMP JUMPDEST PUSH2 0x87C JUMP JUMPDEST PUSH2 0x14B PUSH2 0x16E CALLDATASIZE PUSH1 0x4 PUSH2 0x1BC1 JUMP JUMPDEST PUSH2 0x9DD JUMP JUMPDEST PUSH2 0x186 PUSH2 0x181 CALLDATASIZE PUSH1 0x4 PUSH2 0x1D6E JUMP JUMPDEST PUSH2 0xC9B JUMP JUMPDEST PUSH1 0x40 MLOAD PUSH2 0xEF SWAP2 SWAP1 PUSH2 0x202C JUMP JUMPDEST PUSH2 0x1A6 PUSH2 0x1A1 CALLDATASIZE PUSH1 0x4 PUSH2 0x1D6E JUMP JUMPDEST PUSH2 0x116B JUMP JUMPDEST PUSH1 0x40 MLOAD PUSH2 0xEF SWAP2 SWAP1 PUSH2 0x208F JUMP JUMPDEST PUSH2 0x14B PUSH2 0x1249 JUMP JUMPDEST PUSH2 0x1CE PUSH2 0x1C9 CALLDATASIZE PUSH1 0x4 PUSH2 0x1BC1 JUMP JUMPDEST PUSH2 0x125C JUMP JUMPDEST PUSH1 0x40 MLOAD PUSH2 0xEF SWAP13 SWAP12 SWAP11 SWAP10 SWAP9 SWAP8 SWAP7 SWAP6 SWAP5 SWAP4 SWAP3 SWAP2 SWAP1 PUSH2 0x20DA JUMP JUMPDEST PUSH1 0x3 SLOAD PUSH2 0x1F9 SWAP1 PUSH1 0x1 PUSH1 0x1 PUSH1 0xA0 SHL SUB AND DUP2 JUMP JUMPDEST PUSH1 0x40 MLOAD PUSH1 0x1 PUSH1 0x1 PUSH1 0xA0 SHL SUB SWAP1 SWAP2 AND DUP2 MSTORE PUSH1 0x20 ADD PUSH2 0xEF JUMP JUMPDEST PUSH32 0x9016D09D72D40FDAE2FD8CEAC6B6234C7706214FD39C1CD1E609A0528C199300 SLOAD PUSH1 0x1 PUSH1 0x1 PUSH1 0xA0 SHL SUB AND PUSH2 0x1F9 JUMP JUMPDEST PUSH2 0x14B PUSH2 0x24F CALLDATASIZE PUSH1 0x4 PUSH2 0x21BC JUMP JUMPDEST PUSH2 0x158C JUMP JUMPDEST PUSH2 0x14B PUSH2 0x262 CALLDATASIZE PUSH1 0x4 PUSH2 0x22CB JUMP JUMPDEST PUSH2 0x193E JUMP JUMPDEST PUSH2 0x26F PUSH2 0x1ACA JUMP JUMPDEST PUSH1 0x1 PUSH1 0x1 PUSH1 0x80 SHL SUB DUP1 DUP5 AND PUSH0 SWAP1 DUP2 MSTORE PUSH1 0x20 DUP2 DUP2 MSTORE PUSH1 0x40 DUP1 DUP4 KECCAK256 DUP7 DUP6 AND DUP5 MSTORE DUP3 MSTORE DUP1 DUP4 KECCAK256 DUP2 MLOAD PUSH2 0x180 DUP2 ADD DUP4 MSTORE DUP2 SLOAD DUP1 DUP8 AND DUP3 MSTORE PUSH1 0x1 PUSH1 0x80 SHL SWAP1 DIV SWAP1 SWAP6 AND SWAP3 DUP6 ADD SWAP3 SWAP1 SWAP3 MSTORE PUSH1 0x1 DUP3 ADD DUP1 SLOAD SWAP4 SWAP5 SWAP4 SWAP2 DUP5 ADD SWAP2 PUSH2 0x2C9 SWAP1 PUSH2 0x22E4 JUMP JUMPDEST DUP1 PUSH1 0x1F ADD PUSH1 0x20 DUP1 SWAP2 DIV MUL PUSH1 0x20 ADD PUSH1 0x40 MLOAD SWAP1 DUP2 ADD PUSH1 0x40 MSTORE DUP1 SWAP3 SWAP2 SWAP1 DUP2 DUP2 MSTORE PUSH1 0x20 ADD DUP3 DUP1 SLOAD PUSH2 0x2F5 SWAP1 PUSH2 0x22E4 JUMP JUMPDEST DUP1 ISZERO PUSH2 0x340 JUMPI DUP1 PUSH1 0x1F LT PUSH2 0x317 JUMPI PUSH2 0x100 DUP1 DUP4 SLOAD DIV MUL DUP4 MSTORE SWAP2 PUSH1 0x20 ADD SWAP2 PUSH2 0x340 JUMP JUMPDEST DUP3 ADD SWAP2 SWAP1 PUSH0 MSTORE PUSH1 0x20 PUSH0 KECCAK256 SWAP1 JUMPDEST DUP2 SLOAD DUP2 MSTORE SWAP1 PUSH1 0x1 ADD SWAP1 PUSH1 0x20 ADD DUP1 DUP4 GT PUSH2 0x323 JUMPI DUP3 SWAP1 SUB PUSH1 0x1F AND DUP3 ADD SWAP2 JUMPDEST POP POP POP POP POP DUP2 MSTORE PUSH1 0x20 ADD PUSH1 0x2 DUP3 ADD DUP1 SLOAD PUSH2 0x359 SWAP1 PUSH2 0x22E4 JUMP JUMPDEST DUP1 PUSH1 0x1F ADD PUSH1 0x20 DUP1 SWAP2 DIV MUL PUSH1 0x20 ADD PUSH1 0x40 MLOAD SWAP1 DUP2 ADD PUSH1 0x40 MSTORE DUP1 SWAP3 SWAP2 SWAP1 DUP2 DUP2 MSTORE PUSH1 0x20 ADD DUP3 DUP1 SLOAD PUSH2 0x385 SWAP1 PUSH2 0x22E4 JUMP JUMPDEST DUP1 ISZERO PUSH2 0x3D0 JUMPI DUP1 PUSH1 0x1F LT PUSH2 0x3A7 JUMPI PUSH2 0x100 DUP1 DUP4 SLOAD DIV MUL DUP4 MSTORE SWAP2 PUSH1 0x20 ADD SWAP2 PUSH2 0x3D0 JUMP JUMPDEST DUP3 ADD SWAP2 SWAP1 PUSH0 MSTORE PUSH1 0x20 PUSH0 KECCAK256 SWAP1 JUMPDEST DUP2 SLOAD DUP2 MSTORE SWAP1 PUSH1 0x1 ADD SWAP1 PUSH1 0x20 ADD DUP1 DUP4 GT PUSH2 0x3B3 JUMPI DUP3 SWAP1 SUB PUSH1 0x1F AND DUP3 ADD SWAP2 JUMPDEST POP POP POP POP POP DUP2 MSTORE PUSH1 0x20 ADD PUSH1 0x3 DUP3 ADD DUP1 SLOAD PUSH2 0x3E9 SWAP1 PUSH2 0x22E4 JUMP JUMPDEST DUP1 PUSH1 0x1F ADD PUSH1 0x20 DUP1 SWAP2 DIV MUL PUSH1 0x20 ADD PUSH1 0x40 MLOAD SWAP1 DUP2 ADD PUSH1 0x40 MSTORE DUP1 SWAP3 SWAP2 SWAP1 DUP2 DUP2 MSTORE PUSH1 0x20 ADD DUP3 DUP1 SLOAD PUSH2 0x415 SWAP1 PUSH2 0x22E4 JUMP JUMPDEST DUP1 ISZERO PUSH2 0x460 JUMPI DUP1 PUSH1 0x1F LT PUSH2 0x437 JUMPI PUSH2 0x100 DUP1 DUP4 SLOAD DIV MUL DUP4 MSTORE SWAP2 PUSH1 0x20 ADD SWAP2 PUSH2 0x460 JUMP JUMPDEST DUP3 ADD SWAP2 SWAP1 PUSH0 MSTORE PUSH1 0x20 PUSH0 KECCAK256 SWAP1 JUMPDEST DUP2 SLOAD DUP2 MSTORE SWAP1 PUSH1 0x1 ADD SWAP1 PUSH1 0x20 ADD DUP1 DUP4 GT PUSH2 0x443 JUMPI DUP3 SWAP1 SUB PUSH1 0x1F AND DUP3 ADD SWAP2 JUMPDEST POP POP POP SWAP2 DUP4 MSTORE POP POP PUSH1 0x4 DUP3 ADD SLOAD PUSH1 0x1 PUSH1 0x1 PUSH1 0x80 SHL SUB DUP2 AND PUSH1 0x20 DUP4 ADD MSTORE PUSH1 0x1 PUSH1 0x80 SHL SWAP1 DIV PUSH1 0xFF AND ISZERO ISZERO PUSH1 0x40 DUP3 ADD MSTORE PUSH1 0x5 DUP3 ADD DUP1 SLOAD PUSH1 0x60 SWAP1 SWAP3 ADD SWAP2 PUSH2 0x4A2 SWAP1 PUSH2 0x22E4 JUMP JUMPDEST DUP1 PUSH1 0x1F ADD PUSH1 0x20 DUP1 SWAP2 DIV MUL PUSH1 0x20 ADD PUSH1 0x40 MLOAD SWAP1 DUP2 ADD PUSH1 0x40 MSTORE DUP1 SWAP3 SWAP2 SWAP1 DUP2 DUP2 MSTORE PUSH1 0x20 ADD DUP3 DUP1 SLOAD PUSH2 0x4CE SWAP1 PUSH2 0x22E4 JUMP JUMPDEST DUP1 ISZERO PUSH2 0x519 JUMPI DUP1 PUSH1 0x1F LT PUSH2 0x4F0 JUMPI PUSH2 0x100 DUP1 DUP4 SLOAD DIV MUL DUP4 MSTORE SWAP2 PUSH1 0x20 ADD SWAP2 PUSH2 0x519 JUMP JUMPDEST DUP3 ADD SWAP2 SWAP1 PUSH0 MSTORE PUSH1 0x20 PUSH0 KECCAK256 SWAP1 JUMPDEST DUP2 SLOAD DUP2 MSTORE SWAP1 PUSH1 0x1 ADD SWAP1 PUSH1 0x20 ADD DUP1 DUP4 GT PUSH2 0x4FC JUMPI DUP3 SWAP1 SUB PUSH1 0x1F AND DUP3 ADD SWAP2 JUMPDEST POP POP POP POP POP DUP2 MSTORE PUSH1 0x20 ADD PUSH1 0x6 DUP3 ADD DUP1 SLOAD PUSH2 0x532 SWAP1 PUSH2 0x22E4 JUMP JUMPDEST DUP1 PUSH1 0x1F ADD PUSH1 0x20 DUP1 SWAP2 DIV MUL PUSH1 0x20 ADD PUSH1 0x40 MLOAD SWAP1 DUP2 ADD PUSH1 0x40 MSTORE DUP1 SWAP3 SWAP2 SWAP1 DUP2 DUP2 MSTORE PUSH1 0x20 ADD DUP3 DUP1 SLOAD PUSH2 0x55E SWAP1 PUSH2 0x22E4 JUMP JUMPDEST DUP1 ISZERO PUSH2 0x5A9 JUMPI DUP1 PUSH1 0x1F LT PUSH2 0x580 JUMPI PUSH2 0x100 DUP1 DUP4 SLOAD DIV MUL DUP4 MSTORE SWAP2 PUSH1 0x20 ADD SWAP2 PUSH2 0x5A9 JUMP JUMPDEST DUP3 ADD SWAP2 SWAP1 PUSH0 MSTORE PUSH1 0x20 PUSH0 KECCAK256 SWAP1 JUMPDEST DUP2 SLOAD DUP2 MSTORE SWAP1 PUSH1 0x1 ADD SWAP1 PUSH1 0x20 ADD DUP1 DUP4 GT PUSH2 0x58C JUMPI DUP3 SWAP1 SUB PUSH1 0x1F AND DUP3 ADD SWAP2 JUMPDEST POP POP POP SWAP2 DUP4 MSTORE POP POP PUSH1 0x7 DUP3 ADD SLOAD PUSH1 0x1 PUSH1 0x1 PUSH1 0x80 SHL SUB DUP1 DUP3 AND PUSH1 0x20 DUP5 ADD MSTORE PUSH1 0x1 PUSH1 0x80 SHL SWAP1 SWAP2 DIV DUP2 AND PUSH1 0x40 DUP4 ADD MSTORE PUSH1 0x8 SWAP1 SWAP3 ADD SLOAD DUP3 AND PUSH1 0x60 SWAP1 SWAP2 ADD MSTORE DUP2 MLOAD SWAP2 SWAP3 POP AND PUSH0 SUB PUSH2 0x688 JUMPI PUSH1 0x1 PUSH1 0x1 PUSH1 0x80 SHL SUB DUP5 AND PUSH0 SWAP1 DUP2 MSTORE PUSH1 0x2 PUSH1 0x20 MSTORE PUSH1 0x40 SWAP1 KECCAK256 SLOAD ISZERO DUP1 ISZERO PUSH2 0x651 JUMPI POP PUSH1 0x1 PUSH1 0x1 PUSH1 0x80 SHL SUB DUP1 DUP6 AND PUSH0 SWAP1 DUP2 MSTORE PUSH1 0x1 PUSH1 0x20 MSTORE PUSH1 0x40 SWAP1 KECCAK256 SLOAD AND ISZERO DUP1 PUSH2 0x651 JUMPI POP PUSH1 0x1 PUSH1 0x1 PUSH1 0x80 SHL SUB DUP1 DUP6 AND PUSH0 SWAP1 DUP2 MSTORE PUSH1 0x1 PUSH1 0x20 DUP2 SWAP1 MSTORE PUSH1 0x40 SWAP1 SWAP2 KECCAK256 SLOAD SWAP1 SWAP2 AND EQ JUMPDEST ISZERO PUSH2 0x66F JUMPI PUSH1 0x40 MLOAD PUSH4 0x4D8A9CE5 PUSH1 0xE1 SHL DUP2 MSTORE PUSH1 0x4 ADD PUSH1 0x40 MLOAD DUP1 SWAP2 SUB SWAP1 REVERT JUMPDEST PUSH1 0x40 MLOAD PUSH4 0xB464E29 PUSH1 0xE2 SHL DUP2 MSTORE PUSH1 0x4 ADD PUSH1 0x40 MLOAD DUP1 SWAP2 SUB SWAP1 REVERT JUMPDEST SWAP1 POP JUMPDEST SWAP3 SWAP2 POP POP JUMP JUMPDEST PUSH1 0x3 SLOAD PUSH1 0x1 PUSH1 0x1 PUSH1 0xA0 SHL SUB AND CALLER EQ PUSH2 0x6BC JUMPI PUSH1 0x40 MLOAD PUSH4 0xA8784C1 PUSH1 0xE4 SHL DUP2 MSTORE PUSH1 0x4 ADD PUSH1 0x40 MLOAD DUP1 SWAP2 SUB SWAP1 REVERT JUMPDEST DUP1 MLOAD PUSH1 0x1 PUSH1 0x1 PUSH1 0x80 SHL SUB SWAP1 DUP2 AND PUSH0 SWAP1 DUP2 MSTORE PUSH1 0x20 DUP2 DUP2 MSTORE PUSH1 0x40 DUP1 DUP4 KECCAK256 DUP3 DUP7 ADD MLOAD DUP6 AND DUP5 MSTORE SWAP1 SWAP2 MSTORE DUP2 KECCAK256 DUP1 SLOAD SWAP1 SWAP3 AND SWAP1 SUB PUSH2 0x708 JUMPI PUSH1 0x40 MLOAD PUSH4 0xB464E29 PUSH1 0xE2 SHL DUP2 MSTORE PUSH1 0x4 ADD PUSH1 0x40 MLOAD DUP1 SWAP2 SUB SWAP1 REVERT JUMPDEST DUP2 PUSH1 0x40 ADD MLOAD MLOAD PUSH0 SUB PUSH2 0x72D JUMPI PUSH1 0x40 MLOAD PUSH4 0xDC35617 PUSH1 0xE4 SHL DUP2 MSTORE PUSH1 0x4 ADD PUSH1 0x40 MLOAD DUP1 SWAP2 SUB SWAP1 REVERT JUMPDEST DUP2 PUSH1 0xA0 ADD MLOAD PUSH1 0x1 PUSH1 0x1 PUSH1 0x80 SHL SUB AND PUSH0 SUB PUSH2 0x75A JUMPI PUSH1 0x40 MLOAD PUSH4 0x14315ECF PUSH1 0xE2 SHL DUP2 MSTORE PUSH1 0x4 ADD PUSH1 0x40 MLOAD DUP1 SWAP2 SUB SWAP1 REVERT JUMPDEST PUSH1 0x40 DUP3 ADD MLOAD PUSH1 0x1 DUP3 ADD SWAP1 PUSH2 0x76E SWAP1 DUP3 PUSH2 0x2368 JUMP JUMPDEST POP PUSH1 0x60 DUP3 ADD MLOAD PUSH1 0x2 DUP3 ADD SWAP1 PUSH2 0x783 SWAP1 DUP3 PUSH2 0x2368 JUMP JUMPDEST POP PUSH1 0x80 DUP3 ADD MLOAD PUSH1 0x3 DUP3 ADD SWAP1 PUSH2 0x798 SWAP1 DUP3 PUSH2 0x2368 JUMP JUMPDEST POP PUSH1 0xA0 DUP3 ADD MLOAD PUSH1 0x4 DUP3 ADD DUP1 SLOAD PUSH1 0xC0 DUP6 ADD MLOAD ISZERO ISZERO PUSH1 0x1 PUSH1 0x80 SHL MUL PUSH1 0x1 PUSH1 0x1 PUSH1 0x88 SHL SUB NOT SWAP1 SWAP2 AND PUSH1 0x1 PUSH1 0x1 PUSH1 0x80 SHL SUB SWAP1 SWAP4 AND SWAP3 SWAP1 SWAP3 OR SWAP2 SWAP1 SWAP2 OR SWAP1 SSTORE PUSH1 0xE0 DUP3 ADD MLOAD PUSH1 0x5 DUP3 ADD SWAP1 PUSH2 0x7E6 SWAP1 DUP3 PUSH2 0x2368 JUMP JUMPDEST POP PUSH2 0x100 DUP3 ADD MLOAD PUSH1 0x6 DUP3 ADD SWAP1 PUSH2 0x7FC SWAP1 DUP3 PUSH2 0x2368 JUMP JUMPDEST POP PUSH2 0x120 DUP3 ADD MLOAD PUSH1 0x8 DUP3 ADD DUP1 SLOAD PUSH1 0x1 PUSH1 0x1 PUSH1 0x80 SHL SUB NOT AND PUSH1 0x1 PUSH1 0x1 PUSH1 0x80 SHL SUB SWAP3 DUP4 AND OR SWAP1 SSTORE PUSH1 0x20 DUP4 ADD MLOAD DUP4 MLOAD PUSH1 0x40 DUP1 DUP7 ADD MLOAD PUSH1 0xA0 DUP8 ADD MLOAD PUSH1 0xC0 DUP9 ADD MLOAD SWAP3 MLOAD SWAP5 DUP7 AND SWAP6 SWAP4 SWAP1 SWAP4 AND SWAP4 PUSH32 0xFE3A76E2715DB6F604F640ADBBB5BD6DC99B7720B1D7A3FD9ED73C16A4D7BA74 SWAP4 PUSH2 0x870 SWAP4 SWAP1 SWAP2 PUSH2 0x2422 JUMP JUMPDEST PUSH1 0x40 MLOAD DUP1 SWAP2 SUB SWAP1 LOG3 POP POP JUMP JUMPDEST PUSH0 PUSH2 0x885 PUSH2 0x1980 JUMP JUMPDEST DUP1 SLOAD SWAP1 SWAP2 POP PUSH1 0xFF PUSH1 0x1 PUSH1 0x40 SHL DUP3 DIV AND ISZERO SWAP1 PUSH1 0x1 PUSH1 0x1 PUSH1 0x40 SHL SUB AND PUSH0 DUP2 ISZERO DUP1 ISZERO PUSH2 0x8AB JUMPI POP DUP3 JUMPDEST SWAP1 POP PUSH0 DUP3 PUSH1 0x1 PUSH1 0x1 PUSH1 0x40 SHL SUB AND PUSH1 0x1 EQ DUP1 ISZERO PUSH2 0x8C6 JUMPI POP ADDRESS EXTCODESIZE ISZERO JUMPDEST SWAP1 POP DUP2 ISZERO DUP1 ISZERO PUSH2 0x8D4 JUMPI POP DUP1 ISZERO JUMPDEST ISZERO PUSH2 0x8F2 JUMPI PUSH1 0x40 MLOAD PUSH4 0xF92EE8A9 PUSH1 0xE0 SHL DUP2 MSTORE PUSH1 0x4 ADD PUSH1 0x40 MLOAD DUP1 SWAP2 SUB SWAP1 REVERT JUMPDEST DUP5 SLOAD PUSH8 0xFFFFFFFFFFFFFFFF NOT AND PUSH1 0x1 OR DUP6 SSTORE DUP4 ISZERO PUSH2 0x91C JUMPI DUP5 SLOAD PUSH1 0xFF PUSH1 0x40 SHL NOT AND PUSH1 0x1 PUSH1 0x40 SHL OR DUP6 SSTORE JUMPDEST PUSH1 0x1 PUSH1 0x1 PUSH1 0xA0 SHL SUB DUP8 AND PUSH2 0x943 JUMPI PUSH1 0x40 MLOAD PUSH4 0x1D46ECC3 PUSH1 0xE2 SHL DUP2 MSTORE PUSH1 0x4 ADD PUSH1 0x40 MLOAD DUP1 SWAP2 SUB SWAP1 REVERT JUMPDEST PUSH1 0x1 PUSH1 0x1 PUSH1 0xA0 SHL SUB DUP7 AND PUSH2 0x96A JUMPI PUSH1 0x40 MLOAD PUSH4 0x1D46ECC3 PUSH1 0xE2 SHL DUP2 MSTORE PUSH1 0x4 ADD PUSH1 0x40 MLOAD DUP1 SWAP2 SUB SWAP1 REVERT JUMPDEST PUSH2 0x973 DUP7 PUSH2 0x19A8 JUMP JUMPDEST PUSH1 0x3 DUP1 SLOAD PUSH1 0x1 PUSH1 0x1 PUSH1 0xA0 SHL SUB NOT AND PUSH1 0x1 PUSH1 0x1 PUSH1 0xA0 SHL SUB DUP10 AND OR SWAP1 SSTORE DUP4 ISZERO PUSH2 0x9D4 JUMPI DUP5 SLOAD PUSH1 0xFF PUSH1 0x40 SHL NOT AND DUP6 SSTORE PUSH1 0x40 MLOAD PUSH1 0x1 DUP2 MSTORE PUSH32 0xC7F505B2F371AE2175EE4913F4499E1F2633A7B5936321EED1CDAEB6115181D2 SWAP1 PUSH1 0x20 ADD PUSH1 0x40 MLOAD DUP1 SWAP2 SUB SWAP1 LOG1 JUMPDEST POP POP POP POP POP POP POP JUMP JUMPDEST PUSH1 0x3 SLOAD PUSH1 0x1 PUSH1 0x1 PUSH1 0xA0 SHL SUB AND CALLER EQ PUSH2 0xA08 JUMPI PUSH1 0x40 MLOAD PUSH4 0xA8784C1 PUSH1 0xE4 SHL DUP2 MSTORE PUSH1 0x4 ADD PUSH1 0x40 MLOAD DUP1 SWAP2 SUB SWAP1 REVERT JUMPDEST PUSH1 0x1 PUSH1 0x1 PUSH1 0x80 SHL SUB DUP1 DUP4 AND PUSH0 SWAP1 DUP2 MSTORE PUSH1 0x20 DUP2 DUP2 MSTORE PUSH1 0x40 DUP1 DUP4 KECCAK256 DUP6 DUP6 AND DUP5 MSTORE SWAP1 SWAP2 MSTORE DUP2 KECCAK256 SLOAD SWAP1 SWAP2 AND SWAP1 SUB PUSH2 0xA4E JUMPI PUSH1 0x40 MLOAD PUSH4 0xB464E29 PUSH1 0xE2 SHL DUP2 MSTORE PUSH1 0x4 ADD PUSH1 0x40 MLOAD DUP1 SWAP2 SUB SWAP1 REVERT JUMPDEST PUSH1 0x1 PUSH1 0x1 PUSH1 0x80 SHL SUB DUP1 DUP4 AND PUSH0 SWAP1 DUP2 MSTORE PUSH1 0x20 DUP2 DUP2 MSTORE PUSH1 0x40 DUP1 DUP4 KECCAK256 SWAP4 DUP6 AND DUP4 MSTORE SWAP3 SWAP1 MSTORE SWAP1 DUP2 KECCAK256 DUP2 DUP2 SSTORE SWAP1 PUSH2 0xA83 PUSH1 0x1 DUP4 ADD DUP3 PUSH2 0x1B5C JUMP JUMPDEST PUSH2 0xA90 PUSH1 0x2 DUP4 ADD PUSH0 PUSH2 0x1B5C JUMP JUMPDEST PUSH2 0xA9D PUSH1 0x3 DUP4 ADD PUSH0 PUSH2 0x1B5C JUMP JUMPDEST PUSH1 0x4 DUP3 ADD DUP1 SLOAD PUSH1 0x1 PUSH1 0x1 PUSH1 0x88 SHL SUB NOT AND SWAP1 SSTORE PUSH2 0xABC PUSH1 0x5 DUP4 ADD PUSH0 PUSH2 0x1B5C JUMP JUMPDEST PUSH2 0xAC9 PUSH1 0x6 DUP4 ADD PUSH0 PUSH2 0x1B5C JUMP JUMPDEST POP PUSH0 PUSH1 0x7 DUP3 ADD DUP2 SWAP1 SSTORE PUSH1 0x8 SWAP1 SWAP2 ADD DUP1 SLOAD PUSH1 0x1 PUSH1 0x1 PUSH1 0x80 SHL SUB NOT AND SWAP1 SSTORE PUSH1 0x1 PUSH1 0x1 PUSH1 0x80 SHL SUB DUP4 AND DUP2 MSTORE PUSH1 0x2 PUSH1 0x20 MSTORE PUSH1 0x40 DUP2 KECCAK256 SWAP1 PUSH0 NOT SWAP1 JUMPDEST DUP3 SLOAD DUP2 LT ISZERO PUSH2 0xC2E JUMPI DUP4 PUSH1 0x1 PUSH1 0x1 PUSH1 0x80 SHL SUB AND DUP4 DUP3 DUP2 SLOAD DUP2 LT PUSH2 0xB24 JUMPI PUSH2 0xB24 PUSH2 0x2454 JUMP JUMPDEST PUSH0 SWAP2 DUP3 MSTORE PUSH1 0x20 SWAP1 SWAP2 KECCAK256 PUSH1 0x2 DUP3 DIV ADD SLOAD PUSH1 0x1 SWAP1 SWAP2 AND PUSH1 0x10 MUL PUSH2 0x100 EXP SWAP1 DIV PUSH1 0x1 PUSH1 0x1 PUSH1 0x80 SHL SUB AND SUB PUSH2 0xC26 JUMPI DUP3 SLOAD DUP4 SWAP1 PUSH2 0xB5F SWAP1 PUSH1 0x1 SWAP1 PUSH2 0x247C JUMP JUMPDEST DUP2 SLOAD DUP2 LT PUSH2 0xB6F JUMPI PUSH2 0xB6F PUSH2 0x2454 JUMP JUMPDEST SWAP1 PUSH0 MSTORE PUSH1 0x20 PUSH0 KECCAK256 SWAP1 PUSH1 0x2 SWAP2 DUP3 DUP3 DIV ADD SWAP2 SWAP1 MOD PUSH1 0x10 MUL SWAP1 SLOAD SWAP1 PUSH2 0x100 EXP SWAP1 DIV PUSH1 0x1 PUSH1 0x1 PUSH1 0x80 SHL SUB AND DUP4 DUP3 DUP2 SLOAD DUP2 LT PUSH2 0xBA8 JUMPI PUSH2 0xBA8 PUSH2 0x2454 JUMP JUMPDEST SWAP1 PUSH0 MSTORE PUSH1 0x20 PUSH0 KECCAK256 SWAP1 PUSH1 0x2 SWAP2 DUP3 DUP3 DIV ADD SWAP2 SWAP1 MOD PUSH1 0x10 MUL PUSH2 0x100 EXP DUP2 SLOAD DUP2 PUSH1 0x1 PUSH1 0x1 PUSH1 0x80 SHL SUB MUL NOT AND SWAP1 DUP4 PUSH1 0x1 PUSH1 0x1 PUSH1 0x80 SHL SUB AND MUL OR SWAP1 SSTORE POP DUP3 DUP1 SLOAD DUP1 PUSH2 0xBEF JUMPI PUSH2 0xBEF PUSH2 0x248F JUMP JUMPDEST PUSH0 DUP3 DUP2 MSTORE PUSH1 0x20 SWAP1 KECCAK256 PUSH1 0x2 PUSH0 NOT SWAP1 SWAP3 ADD SWAP2 DUP3 DIV ADD DUP1 SLOAD PUSH1 0x1 PUSH1 0x1 PUSH1 0x80 SHL SUB PUSH1 0x10 PUSH1 0x1 DUP6 AND MUL PUSH2 0x100 EXP MUL NOT AND SWAP1 SSTORE SWAP1 SSTORE SWAP1 POP DUP1 PUSH2 0xC2E JUMP JUMPDEST PUSH1 0x1 ADD PUSH2 0xAFF JUMP JUMPDEST POP PUSH0 NOT DUP2 SUB PUSH2 0xC50 JUMPI PUSH1 0x40 MLOAD PUSH4 0xB464E29 PUSH1 0xE2 SHL DUP2 MSTORE PUSH1 0x4 ADD PUSH1 0x40 MLOAD DUP1 SWAP2 SUB SWAP1 REVERT JUMPDEST PUSH1 0x40 MLOAD PUSH1 0x1 PUSH1 0x1 PUSH1 0x80 SHL SUB DUP3 DUP2 AND DUP3 MSTORE DUP1 DUP6 AND SWAP2 SWAP1 DUP7 AND SWAP1 PUSH32 0x8D71C5AFD7A0F7FBD09E9DFD0BF5B47E59048F35CC2E712E78F7CE3E15EE71F6 SWAP1 PUSH1 0x20 ADD PUSH1 0x40 MLOAD DUP1 SWAP2 SUB SWAP1 LOG3 POP POP POP POP JUMP JUMPDEST PUSH1 0x1 PUSH1 0x1 PUSH1 0x80 SHL SUB DUP2 AND PUSH0 SWAP1 DUP2 MSTORE PUSH1 0x2 PUSH1 0x20 MSTORE PUSH1 0x40 DUP2 KECCAK256 DUP1 SLOAD PUSH1 0x60 SWAP3 DUP2 SWAP1 SUB PUSH2 0xCF7 JUMPI PUSH1 0x40 DUP1 MLOAD PUSH0 DUP1 DUP3 MSTORE PUSH1 0x20 DUP3 ADD SWAP1 SWAP3 MSTORE SWAP1 PUSH2 0xCEE JUMP JUMPDEST PUSH2 0xCDB PUSH2 0x1ACA JUMP JUMPDEST DUP2 MSTORE PUSH1 0x20 ADD SWAP1 PUSH1 0x1 SWAP1 SUB SWAP1 DUP2 PUSH2 0xCD3 JUMPI SWAP1 POP JUMPDEST POP SWAP5 SWAP4 POP POP POP POP JUMP JUMPDEST PUSH0 DUP2 PUSH1 0x1 PUSH1 0x1 PUSH1 0x40 SHL SUB DUP2 GT ISZERO PUSH2 0xD10 JUMPI PUSH2 0xD10 PUSH2 0x1D87 JUMP JUMPDEST PUSH1 0x40 MLOAD SWAP1 DUP1 DUP3 MSTORE DUP1 PUSH1 0x20 MUL PUSH1 0x20 ADD DUP3 ADD PUSH1 0x40 MSTORE DUP1 ISZERO PUSH2 0xD49 JUMPI DUP2 PUSH1 0x20 ADD JUMPDEST PUSH2 0xD36 PUSH2 0x1ACA JUMP JUMPDEST DUP2 MSTORE PUSH1 0x20 ADD SWAP1 PUSH1 0x1 SWAP1 SUB SWAP1 DUP2 PUSH2 0xD2E JUMPI SWAP1 POP JUMPDEST POP SWAP1 POP PUSH0 JUMPDEST DUP3 DUP2 PUSH1 0x1 PUSH1 0x1 PUSH1 0x80 SHL SUB AND LT ISZERO PUSH2 0xCEE JUMPI PUSH0 DUP5 DUP3 PUSH1 0x1 PUSH1 0x1 PUSH1 0x80 SHL SUB AND DUP2 SLOAD DUP2 LT PUSH2 0xD7B JUMPI PUSH2 0xD7B PUSH2 0x2454 JUMP JUMPDEST PUSH0 SWAP2 DUP3 MSTORE PUSH1 0x20 DUP1 DUP4 KECCAK256 PUSH1 0x2 DUP4 DIV ADD SLOAD PUSH1 0x1 PUSH1 0x1 PUSH1 0x80 SHL SUB DUP12 DUP2 AND DUP6 MSTORE DUP5 DUP4 MSTORE PUSH1 0x40 DUP1 DUP7 KECCAK256 PUSH1 0x1 SWAP1 SWAP6 AND PUSH1 0x10 MUL PUSH2 0x100 EXP SWAP1 SWAP3 DIV DUP2 AND DUP1 DUP7 MSTORE SWAP4 SWAP1 SWAP3 MSTORE SWAP1 SWAP3 KECCAK256 SLOAD SWAP1 SWAP3 POP AND ISZERO PUSH2 0x1158 JUMPI PUSH1 0x1 PUSH1 0x1 PUSH1 0x80 SHL SUB DUP1 DUP9 AND PUSH0 SWAP1 DUP2 MSTORE PUSH1 0x20 DUP2 DUP2 MSTORE PUSH1 0x40 DUP1 DUP4 KECCAK256 DUP6 DUP6 AND DUP5 MSTORE DUP3 MSTORE SWAP2 DUP3 SWAP1 KECCAK256 DUP3 MLOAD PUSH2 0x180 DUP2 ADD DUP5 MSTORE DUP2 SLOAD DUP1 DUP7 AND DUP3 MSTORE PUSH1 0x1 PUSH1 0x80 SHL SWAP1 DIV SWAP1 SWAP5 AND SWAP2 DUP5 ADD SWAP2 SWAP1 SWAP2 MSTORE PUSH1 0x1 DUP2 ADD DUP1 SLOAD SWAP2 SWAP3 DUP5 ADD SWAP2 PUSH2 0xE1D SWAP1 PUSH2 0x22E4 JUMP JUMPDEST DUP1 PUSH1 0x1F ADD PUSH1 0x20 DUP1 SWAP2 DIV MUL PUSH1 0x20 ADD PUSH1 0x40 MLOAD SWAP1 DUP2 ADD PUSH1 0x40 MSTORE DUP1 SWAP3 SWAP2 SWAP1 DUP2 DUP2 MSTORE PUSH1 0x20 ADD DUP3 DUP1 SLOAD PUSH2 0xE49 SWAP1 PUSH2 0x22E4 JUMP JUMPDEST DUP1 ISZERO PUSH2 0xE94 JUMPI DUP1 PUSH1 0x1F LT PUSH2 0xE6B JUMPI PUSH2 0x100 DUP1 DUP4 SLOAD DIV MUL DUP4 MSTORE SWAP2 PUSH1 0x20 ADD SWAP2 PUSH2 0xE94 JUMP JUMPDEST DUP3 ADD SWAP2 SWAP1 PUSH0 MSTORE PUSH1 0x20 PUSH0 KECCAK256 SWAP1 JUMPDEST DUP2 SLOAD DUP2 MSTORE SWAP1 PUSH1 0x1 ADD SWAP1 PUSH1 0x20 ADD DUP1 DUP4 GT PUSH2 0xE77 JUMPI DUP3 SWAP1 SUB PUSH1 0x1F AND DUP3 ADD SWAP2 JUMPDEST POP POP POP POP POP DUP2 MSTORE PUSH1 0x20 ADD PUSH1 0x2 DUP3 ADD DUP1 SLOAD PUSH2 0xEAD SWAP1 PUSH2 0x22E4 JUMP JUMPDEST DUP1 PUSH1 0x1F ADD PUSH1 0x20 DUP1 SWAP2 DIV MUL PUSH1 0x20 ADD PUSH1 0x40 MLOAD SWAP1 DUP2 ADD PUSH1 0x40 MSTORE DUP1 SWAP3 SWAP2 SWAP1 DUP2 DUP2 MSTORE PUSH1 0x20 ADD DUP3 DUP1 SLOAD PUSH2 0xED9 SWAP1 PUSH2 0x22E4 JUMP JUMPDEST DUP1 ISZERO PUSH2 0xF24 JUMPI DUP1 PUSH1 0x1F LT PUSH2 0xEFB JUMPI PUSH2 0x100 DUP1 DUP4 SLOAD DIV MUL DUP4 MSTORE SWAP2 PUSH1 0x20 ADD SWAP2 PUSH2 0xF24 JUMP JUMPDEST DUP3 ADD SWAP2 SWAP1 PUSH0 MSTORE PUSH1 0x20 PUSH0 KECCAK256 SWAP1 JUMPDEST DUP2 SLOAD DUP2 MSTORE SWAP1 PUSH1 0x1 ADD SWAP1 PUSH1 0x20 ADD DUP1 DUP4 GT PUSH2 0xF07 JUMPI DUP3 SWAP1 SUB PUSH1 0x1F AND DUP3 ADD SWAP2 JUMPDEST POP POP POP POP POP DUP2 MSTORE PUSH1 0x20 ADD PUSH1 0x3 DUP3 ADD DUP1 SLOAD PUSH2 0xF3D SWAP1 PUSH2 0x22E4 JUMP JUMPDEST DUP1 PUSH1 0x1F ADD PUSH1 0x20 DUP1 SWAP2 DIV MUL PUSH1 0x20 ADD PUSH1 0x40 MLOAD SWAP1 DUP2 ADD PUSH1 0x40 MSTORE DUP1 SWAP3 SWAP2 SWAP1 DUP2 DUP2 MSTORE PUSH1 0x20 ADD DUP3 DUP1 SLOAD PUSH2 0xF69 SWAP1 PUSH2 0x22E4 JUMP JUMPDEST DUP1 ISZERO PUSH2 0xFB4 JUMPI DUP1 PUSH1 0x1F LT PUSH2 0xF8B JUMPI PUSH2 0x100 DUP1 DUP4 SLOAD DIV MUL DUP4 MSTORE SWAP2 PUSH1 0x20 ADD SWAP2 PUSH2 0xFB4 JUMP JUMPDEST DUP3 ADD SWAP2 SWAP1 PUSH0 MSTORE PUSH1 0x20 PUSH0 KECCAK256 SWAP1 JUMPDEST DUP2 SLOAD DUP2 MSTORE SWAP1 PUSH1 0x1 ADD SWAP1 PUSH1 0x20 ADD DUP1 DUP4 GT PUSH2 0xF97 JUMPI DUP3 SWAP1 SUB PUSH1 0x1F AND DUP3 ADD SWAP2 JUMPDEST POP POP POP SWAP2 DUP4 MSTORE POP POP PUSH1 0x4 DUP3 ADD SLOAD PUSH1 0x1 PUSH1 0x1 PUSH1 0x80 SHL SUB DUP2 AND PUSH1 0x20 DUP4 ADD MSTORE PUSH1 0x1 PUSH1 0x80 SHL SWAP1 DIV PUSH1 0xFF AND ISZERO ISZERO PUSH1 0x40 DUP3 ADD MSTORE PUSH1 0x5 DUP3 ADD DUP1 SLOAD PUSH1 0x60 SWAP1 SWAP3 ADD SWAP2 PUSH2 0xFF6 SWAP1 PUSH2 0x22E4 JUMP JUMPDEST DUP1 PUSH1 0x1F ADD PUSH1 0x20 DUP1 SWAP2 DIV MUL PUSH1 0x20 ADD PUSH1 0x40 MLOAD SWAP1 DUP2 ADD PUSH1 0x40 MSTORE DUP1 SWAP3 SWAP2 SWAP1 DUP2 DUP2 MSTORE PUSH1 0x20 ADD DUP3 DUP1 SLOAD PUSH2 0x1022 SWAP1 PUSH2 0x22E4 JUMP JUMPDEST DUP1 ISZERO PUSH2 0x106D JUMPI DUP1 PUSH1 0x1F LT PUSH2 0x1044 JUMPI PUSH2 0x100 DUP1 DUP4 SLOAD DIV MUL DUP4 MSTORE SWAP2 PUSH1 0x20 ADD SWAP2 PUSH2 0x106D JUMP JUMPDEST DUP3 ADD SWAP2 SWAP1 PUSH0 MSTORE PUSH1 0x20 PUSH0 KECCAK256 SWAP1 JUMPDEST DUP2 SLOAD DUP2 MSTORE SWAP1 PUSH1 0x1 ADD SWAP1 PUSH1 0x20 ADD DUP1 DUP4 GT PUSH2 0x1050 JUMPI DUP3 SWAP1 SUB PUSH1 0x1F AND DUP3 ADD SWAP2 JUMPDEST POP POP POP POP POP DUP2 MSTORE PUSH1 0x20 ADD PUSH1 0x6 DUP3 ADD DUP1 SLOAD PUSH2 0x1086 SWAP1 PUSH2 0x22E4 JUMP JUMPDEST DUP1 PUSH1 0x1F ADD PUSH1 0x20 DUP1 SWAP2 DIV MUL PUSH1 0x20 ADD PUSH1 0x40 MLOAD SWAP1 DUP2 ADD PUSH1 0x40 MSTORE DUP1 SWAP3 SWAP2 SWAP1 DUP2 DUP2 MSTORE PUSH1 0x20 ADD DUP3 DUP1 SLOAD PUSH2 0x10B2 SWAP1 PUSH2 0x22E4 JUMP JUMPDEST DUP1 ISZERO PUSH2 0x10FD JUMPI DUP1 PUSH1 0x1F LT PUSH2 0x10D4 JUMPI PUSH2 0x100 DUP1 DUP4 SLOAD DIV MUL DUP4 MSTORE SWAP2 PUSH1 0x20 ADD SWAP2 PUSH2 0x10FD JUMP JUMPDEST DUP3 ADD SWAP2 SWAP1 PUSH0 MSTORE PUSH1 0x20 PUSH0 KECCAK256 SWAP1 JUMPDEST DUP2 SLOAD DUP2 MSTORE SWAP1 PUSH1 0x1 ADD SWAP1 PUSH1 0x20 ADD DUP1 DUP4 GT PUSH2 0x10E0 JUMPI DUP3 SWAP1 SUB PUSH1 0x1F AND DUP3 ADD SWAP2 JUMPDEST POP POP POP SWAP2 DUP4 MSTORE POP POP PUSH1 0x7 DUP3 ADD SLOAD PUSH1 0x1 PUSH1 0x1 PUSH1 0x80 SHL SUB DUP1 DUP3 AND PUSH1 0x20 DUP5 ADD MSTORE PUSH1 0x1 PUSH1 0x80 SHL SWAP1 SWAP2 DIV DUP2 AND PUSH1 0x40 DUP4 ADD MSTORE PUSH1 0x8 SWAP1 SWAP3 ADD SLOAD DUP3 AND PUSH1 0x60 SWAP1 SWAP2 ADD MSTORE DUP5 MLOAD DUP6 SWAP2 DUP6 AND SWAP1 DUP2 LT PUSH2 0x114C JUMPI PUSH2 0x114C PUSH2 0x2454 JUMP JUMPDEST PUSH1 0x20 MUL PUSH1 0x20 ADD ADD DUP2 SWAP1 MSTORE POP JUMPDEST POP DUP1 PUSH2 0x1163 DUP2 PUSH2 0x24A3 JUMP JUMPDEST SWAP2 POP POP PUSH2 0xD4E JUMP JUMPDEST PUSH1 0x1 PUSH1 0x1 PUSH1 0x80 SHL SUB DUP2 AND PUSH0 SWAP1 DUP2 MSTORE PUSH1 0x2 PUSH1 0x20 MSTORE PUSH1 0x40 DUP2 KECCAK256 DUP1 SLOAD PUSH1 0x60 SWAP3 SWAP1 PUSH1 0x1 PUSH1 0x1 PUSH1 0x40 SHL SUB DUP2 GT ISZERO PUSH2 0x119F JUMPI PUSH2 0x119F PUSH2 0x1D87 JUMP JUMPDEST PUSH1 0x40 MLOAD SWAP1 DUP1 DUP3 MSTORE DUP1 PUSH1 0x20 MUL PUSH1 0x20 ADD DUP3 ADD PUSH1 0x40 MSTORE DUP1 ISZERO PUSH2 0x11C8 JUMPI DUP2 PUSH1 0x20 ADD PUSH1 0x20 DUP3 MUL DUP1 CALLDATASIZE DUP4 CALLDATACOPY ADD SWAP1 POP JUMPDEST POP SWAP1 POP PUSH0 JUMPDEST DUP3 SLOAD DUP2 LT ISZERO PUSH2 0x1241 JUMPI DUP3 DUP2 DUP2 SLOAD DUP2 LT PUSH2 0x11E8 JUMPI PUSH2 0x11E8 PUSH2 0x2454 JUMP JUMPDEST SWAP1 PUSH0 MSTORE PUSH1 0x20 PUSH0 KECCAK256 SWAP1 PUSH1 0x2 SWAP2 DUP3 DUP3 DIV ADD SWAP2 SWAP1 MOD PUSH1 0x10 MUL SWAP1 SLOAD SWAP1 PUSH2 0x100 EXP SWAP1 DIV PUSH1 0x1 PUSH1 0x1 PUSH1 0x80 SHL SUB AND DUP3 DUP3 DUP2 MLOAD DUP2 LT PUSH2 0x1221 JUMPI PUSH2 0x1221 PUSH2 0x2454 JUMP JUMPDEST PUSH1 0x1 PUSH1 0x1 PUSH1 0x80 SHL SUB SWAP1 SWAP3 AND PUSH1 0x20 SWAP3 DUP4 MUL SWAP2 SWAP1 SWAP2 ADD SWAP1 SWAP2 ADD MSTORE PUSH1 0x1 ADD PUSH2 0x11CD JUMP JUMPDEST POP SWAP4 SWAP3 POP POP POP JUMP JUMPDEST PUSH2 0x1251 PUSH2 0x19B9 JUMP JUMPDEST PUSH2 0x125A PUSH0 PUSH2 0x1A14 JUMP JUMPDEST JUMP JUMPDEST PUSH0 PUSH1 0x20 DUP2 DUP2 MSTORE SWAP3 DUP2 MSTORE PUSH1 0x40 DUP1 DUP3 KECCAK256 SWAP1 SWAP4 MSTORE SWAP1 DUP2 MSTORE KECCAK256 DUP1 SLOAD PUSH1 0x1 DUP3 ADD DUP1 SLOAD PUSH1 0x1 PUSH1 0x1 PUSH1 0x80 SHL SUB DUP1 DUP5 AND SWAP5 PUSH1 0x1 PUSH1 0x80 SHL SWAP1 SWAP5 DIV AND SWAP3 SWAP2 SWAP1 PUSH2 0x129A SWAP1 PUSH2 0x22E4 JUMP JUMPDEST DUP1 PUSH1 0x1F ADD PUSH1 0x20 DUP1 SWAP2 DIV MUL PUSH1 0x20 ADD PUSH1 0x40 MLOAD SWAP1 DUP2 ADD PUSH1 0x40 MSTORE DUP1 SWAP3 SWAP2 SWAP1 DUP2 DUP2 MSTORE PUSH1 0x20 ADD DUP3 DUP1 SLOAD PUSH2 0x12C6 SWAP1 PUSH2 0x22E4 JUMP JUMPDEST DUP1 ISZERO PUSH2 0x1311 JUMPI DUP1 PUSH1 0x1F LT PUSH2 0x12E8 JUMPI PUSH2 0x100 DUP1 DUP4 SLOAD DIV MUL DUP4 MSTORE SWAP2 PUSH1 0x20 ADD SWAP2 PUSH2 0x1311 JUMP JUMPDEST DUP3 ADD SWAP2 SWAP1 PUSH0 MSTORE PUSH1 0x20 PUSH0 KECCAK256 SWAP1 JUMPDEST DUP2 SLOAD DUP2 MSTORE SWAP1 PUSH1 0x1 ADD SWAP1 PUSH1 0x20 ADD DUP1 DUP4 GT PUSH2 0x12F4 JUMPI DUP3 SWAP1 SUB PUSH1 0x1F AND DUP3 ADD SWAP2 JUMPDEST POP POP POP POP POP SWAP1 DUP1 PUSH1 0x2 ADD DUP1 SLOAD PUSH2 0x1326 SWAP1 PUSH2 0x22E4 JUMP JUMPDEST DUP1 PUSH1 0x1F ADD PUSH1 0x20 DUP1 SWAP2 DIV MUL PUSH1 0x20 ADD PUSH1 0x40 MLOAD SWAP1 DUP2 ADD PUSH1 0x40 MSTORE DUP1 SWAP3 SWAP2 SWAP1 DUP2 DUP2 MSTORE PUSH1 0x20 ADD DUP3 DUP1 SLOAD PUSH2 0x1352 SWAP1 PUSH2 0x22E4 JUMP JUMPDEST DUP1 ISZERO PUSH2 0x139D JUMPI DUP1 PUSH1 0x1F LT PUSH2 0x1374 JUMPI PUSH2 0x100 DUP1 DUP4 SLOAD DIV MUL DUP4 MSTORE SWAP2 PUSH1 0x20 ADD SWAP2 PUSH2 0x139D JUMP JUMPDEST DUP3 ADD SWAP2 SWAP1 PUSH0 MSTORE PUSH1 0x20 PUSH0 KECCAK256 SWAP1 JUMPDEST DUP2 SLOAD DUP2 MSTORE SWAP1 PUSH1 0x1 ADD SWAP1 PUSH1 0x20 ADD DUP1 DUP4 GT PUSH2 0x1380 JUMPI DUP3 SWAP1 SUB PUSH1 0x1F AND DUP3 ADD SWAP2 JUMPDEST POP POP POP POP POP SWAP1 DUP1 PUSH1 0x3 ADD DUP1 SLOAD PUSH2 0x13B2 SWAP1 PUSH2 0x22E4 JUMP JUMPDEST DUP1 PUSH1 0x1F ADD PUSH1 0x20 DUP1 SWAP2 DIV MUL PUSH1 0x20 ADD PUSH1 0x40 MLOAD SWAP1 DUP2 ADD PUSH1 0x40 MSTORE DUP1 SWAP3 SWAP2 SWAP1 DUP2 DUP2 MSTORE PUSH1 0x20 ADD DUP3 DUP1 SLOAD PUSH2 0x13DE SWAP1 PUSH2 0x22E4 JUMP JUMPDEST DUP1 ISZERO PUSH2 0x1429 JUMPI DUP1 PUSH1 0x1F LT PUSH2 0x1400 JUMPI PUSH2 0x100 DUP1 DUP4 SLOAD DIV MUL DUP4 MSTORE SWAP2 PUSH1 0x20 ADD SWAP2 PUSH2 0x1429 JUMP JUMPDEST DUP3 ADD SWAP2 SWAP1 PUSH0 MSTORE PUSH1 0x20 PUSH0 KECCAK256 SWAP1 JUMPDEST DUP2 SLOAD DUP2 MSTORE SWAP1 PUSH1 0x1 ADD SWAP1 PUSH1 0x20 ADD DUP1 DUP4 GT PUSH2 0x140C JUMPI DUP3 SWAP1 SUB PUSH1 0x1F AND DUP3 ADD SWAP2 JUMPDEST POP POP POP POP PUSH1 0x4 DUP4 ADD SLOAD PUSH1 0x5 DUP5 ADD DUP1 SLOAD SWAP4 SWAP5 PUSH1 0x1 PUSH1 0x1 PUSH1 0x80 SHL SUB DUP4 AND SWAP5 PUSH1 0x1 PUSH1 0x80 SHL SWAP1 SWAP4 DIV PUSH1 0xFF AND SWAP4 POP SWAP2 PUSH2 0x145C SWAP1 PUSH2 0x22E4 JUMP JUMPDEST DUP1 PUSH1 0x1F ADD PUSH1 0x20 DUP1 SWAP2 DIV MUL PUSH1 0x20 ADD PUSH1 0x40 MLOAD SWAP1 DUP2 ADD PUSH1 0x40 MSTORE DUP1 SWAP3 SWAP2 SWAP1 DUP2 DUP2 MSTORE PUSH1 0x20 ADD DUP3 DUP1 SLOAD PUSH2 0x1488 SWAP1 PUSH2 0x22E4 JUMP JUMPDEST DUP1 ISZERO PUSH2 0x14D3 JUMPI DUP1 PUSH1 0x1F LT PUSH2 0x14AA JUMPI PUSH2 0x100 DUP1 DUP4 SLOAD DIV MUL DUP4 MSTORE SWAP2 PUSH1 0x20 ADD SWAP2 PUSH2 0x14D3 JUMP JUMPDEST DUP3 ADD SWAP2 SWAP1 PUSH0 MSTORE PUSH1 0x20 PUSH0 KECCAK256 SWAP1 JUMPDEST DUP2 SLOAD DUP2 MSTORE SWAP1 PUSH1 0x1 ADD SWAP1 PUSH1 0x20 ADD DUP1 DUP4 GT PUSH2 0x14B6 JUMPI DUP3 SWAP1 SUB PUSH1 0x1F AND DUP3 ADD SWAP2 JUMPDEST POP POP POP POP POP SWAP1 DUP1 PUSH1 0x6 ADD DUP1 SLOAD PUSH2 0x14E8 SWAP1 PUSH2 0x22E4 JUMP JUMPDEST DUP1 PUSH1 0x1F ADD PUSH1 0x20 DUP1 SWAP2 DIV MUL PUSH1 0x20 ADD PUSH1 0x40 MLOAD SWAP1 DUP2 ADD PUSH1 0x40 MSTORE DUP1 SWAP3 SWAP2 SWAP1 DUP2 DUP2 MSTORE PUSH1 0x20 ADD DUP3 DUP1 SLOAD PUSH2 0x1514 SWAP1 PUSH2 0x22E4 JUMP JUMPDEST DUP1 ISZERO PUSH2 0x155F JUMPI DUP1 PUSH1 0x1F LT PUSH2 0x1536 JUMPI PUSH2 0x100 DUP1 DUP4 SLOAD DIV MUL DUP4 MSTORE SWAP2 PUSH1 0x20 ADD SWAP2 PUSH2 0x155F JUMP JUMPDEST DUP3 ADD SWAP2 SWAP1 PUSH0 MSTORE PUSH1 0x20 PUSH0 KECCAK256 SWAP1 JUMPDEST DUP2 SLOAD DUP2 MSTORE SWAP1 PUSH1 0x1 ADD SWAP1 PUSH1 0x20 ADD DUP1 DUP4 GT PUSH2 0x1542 JUMPI DUP3 SWAP1 SUB PUSH1 0x1F AND DUP3 ADD SWAP2 JUMPDEST POP POP POP POP PUSH1 0x7 DUP4 ADD SLOAD PUSH1 0x8 SWAP1 SWAP4 ADD SLOAD SWAP2 SWAP3 PUSH1 0x1 PUSH1 0x1 PUSH1 0x80 SHL SUB DUP1 DUP3 AND SWAP4 PUSH1 0x1 PUSH1 0x80 SHL SWAP1 SWAP3 DIV DUP2 AND SWAP3 POP AND DUP13 JUMP JUMPDEST PUSH1 0x3 SLOAD PUSH1 0x1 PUSH1 0x1 PUSH1 0xA0 SHL SUB AND CALLER EQ PUSH2 0x15B7 JUMPI PUSH1 0x40 MLOAD PUSH4 0xA8784C1 PUSH1 0xE4 SHL DUP2 MSTORE PUSH1 0x4 ADD PUSH1 0x40 MLOAD DUP1 SWAP2 SUB SWAP1 REVERT JUMPDEST DUP7 MLOAD PUSH0 SUB PUSH2 0x15D8 JUMPI PUSH1 0x40 MLOAD PUSH4 0xDC35617 PUSH1 0xE4 SHL DUP2 MSTORE PUSH1 0x4 ADD PUSH1 0x40 MLOAD DUP1 SWAP2 SUB SWAP1 REVERT JUMPDEST DUP4 PUSH1 0x1 PUSH1 0x1 PUSH1 0x80 SHL SUB AND PUSH0 SUB PUSH2 0x1601 JUMPI PUSH1 0x40 MLOAD PUSH4 0x14315ECF PUSH1 0xE2 SHL DUP2 MSTORE PUSH1 0x4 ADD PUSH1 0x40 MLOAD DUP1 SWAP2 SUB SWAP1 REVERT JUMPDEST PUSH1 0x1 PUSH1 0x1 PUSH1 0x80 SHL SUB DUP1 DUP10 AND PUSH0 SWAP1 DUP2 MSTORE PUSH1 0x1 PUSH1 0x20 MSTORE PUSH1 0x40 DUP2 KECCAK256 SLOAD SWAP1 SWAP2 AND SWAP1 SUB PUSH2 0x164F JUMPI PUSH1 0x1 PUSH1 0x1 PUSH1 0x80 SHL SUB DUP9 AND PUSH0 SWAP1 DUP2 MSTORE PUSH1 0x1 PUSH1 0x20 DUP2 SWAP1 MSTORE PUSH1 0x40 SWAP1 SWAP2 KECCAK256 DUP1 SLOAD PUSH1 0x1 PUSH1 0x1 PUSH1 0x80 SHL SUB NOT AND SWAP1 SWAP2 OR SWAP1 SSTORE JUMPDEST PUSH1 0x1 PUSH1 0x1 PUSH1 0x80 SHL SUB DUP1 DUP10 AND PUSH0 SWAP1 DUP2 MSTORE PUSH1 0x1 PUSH1 0x20 MSTORE PUSH1 0x40 DUP2 KECCAK256 DUP1 SLOAD SWAP1 SWAP3 AND SWAP2 DUP3 SWAP2 PUSH2 0x1678 DUP4 PUSH2 0x24A3 JUMP JUMPDEST SWAP2 SWAP1 PUSH2 0x100 EXP DUP2 SLOAD DUP2 PUSH1 0x1 PUSH1 0x1 PUSH1 0x80 SHL SUB MUL NOT AND SWAP1 DUP4 PUSH1 0x1 PUSH1 0x1 PUSH1 0x80 SHL SUB AND MUL OR SWAP1 SSTORE POP POP PUSH1 0x40 MLOAD DUP1 PUSH2 0x180 ADD PUSH1 0x40 MSTORE DUP1 DUP3 PUSH1 0x1 PUSH1 0x1 PUSH1 0x80 SHL SUB AND DUP2 MSTORE PUSH1 0x20 ADD DUP11 PUSH1 0x1 PUSH1 0x1 PUSH1 0x80 SHL SUB AND DUP2 MSTORE PUSH1 0x20 ADD DUP10 DUP2 MSTORE PUSH1 0x20 ADD DUP9 DUP2 MSTORE PUSH1 0x20 ADD DUP8 DUP2 MSTORE PUSH1 0x20 ADD DUP7 PUSH1 0x1 PUSH1 0x1 PUSH1 0x80 SHL SUB AND DUP2 MSTORE PUSH1 0x20 ADD PUSH1 0x1 ISZERO ISZERO DUP2 MSTORE PUSH1 0x20 ADD DUP6 DUP2 MSTORE PUSH1 0x20 ADD DUP5 DUP2 MSTORE PUSH1 0x20 ADD PUSH0 PUSH1 0x1 PUSH1 0x1 PUSH1 0x80 SHL SUB AND DUP2 MSTORE PUSH1 0x20 ADD PUSH0 PUSH1 0x1 PUSH1 0x1 PUSH1 0x80 SHL SUB AND DUP2 MSTORE PUSH1 0x20 ADD DUP4 PUSH1 0x1 PUSH1 0x1 PUSH1 0x80 SHL SUB AND DUP2 MSTORE POP PUSH0 PUSH0 DUP12 PUSH1 0x1 PUSH1 0x1 PUSH1 0x80 SHL SUB AND PUSH1 0x1 PUSH1 0x1 PUSH1 0x80 SHL SUB AND DUP2 MSTORE PUSH1 0x20 ADD SWAP1 DUP2 MSTORE PUSH1 0x20 ADD PUSH0 KECCAK256 PUSH0 DUP4 PUSH1 0x1 PUSH1 0x1 PUSH1 0x80 SHL SUB AND PUSH1 0x1 PUSH1 0x1 PUSH1 0x80 SHL SUB AND DUP2 MSTORE PUSH1 0x20 ADD SWAP1 DUP2 MSTORE PUSH1 0x20 ADD PUSH0 KECCAK256 PUSH0 DUP3 ADD MLOAD DUP2 PUSH0 ADD PUSH0 PUSH2 0x100 EXP DUP2 SLOAD DUP2 PUSH1 0x1 PUSH1 0x1 PUSH1 0x80 SHL SUB MUL NOT AND SWAP1 DUP4 PUSH1 0x1 PUSH1 0x1 PUSH1 0x80 SHL SUB AND MUL OR SWAP1 SSTORE POP PUSH1 0x20 DUP3 ADD MLOAD DUP2 PUSH0 ADD PUSH1 0x10 PUSH2 0x100 EXP DUP2 SLOAD DUP2 PUSH1 0x1 PUSH1 0x1 PUSH1 0x80 SHL SUB MUL NOT AND SWAP1 DUP4 PUSH1 0x1 PUSH1 0x1 PUSH1 0x80 SHL SUB AND MUL OR SWAP1 SSTORE POP PUSH1 0x40 DUP3 ADD MLOAD DUP2 PUSH1 0x1 ADD SWAP1 DUP2 PUSH2 0x17D6 SWAP2 SWAP1 PUSH2 0x2368 JUMP JUMPDEST POP PUSH1 0x60 DUP3 ADD MLOAD PUSH1 0x2 DUP3 ADD SWAP1 PUSH2 0x17EB SWAP1 DUP3 PUSH2 0x2368 JUMP JUMPDEST POP PUSH1 0x80 DUP3 ADD MLOAD PUSH1 0x3 DUP3 ADD SWAP1 PUSH2 0x1800 SWAP1 DUP3 PUSH2 0x2368 JUMP JUMPDEST POP PUSH1 0xA0 DUP3 ADD MLOAD PUSH1 0x4 DUP3 ADD DUP1 SLOAD PUSH1 0xC0 DUP6 ADD MLOAD ISZERO ISZERO PUSH1 0x1 PUSH1 0x80 SHL MUL PUSH1 0x1 PUSH1 0x1 PUSH1 0x88 SHL SUB NOT SWAP1 SWAP2 AND PUSH1 0x1 PUSH1 0x1 PUSH1 0x80 SHL SUB SWAP1 SWAP4 AND SWAP3 SWAP1 SWAP3 OR SWAP2 SWAP1 SWAP2 OR SWAP1 SSTORE PUSH1 0xE0 DUP3 ADD MLOAD PUSH1 0x5 DUP3 ADD SWAP1 PUSH2 0x184E SWAP1 DUP3 PUSH2 0x2368 JUMP JUMPDEST POP PUSH2 0x100 DUP3 ADD MLOAD PUSH1 0x6 DUP3 ADD SWAP1 PUSH2 0x1864 SWAP1 DUP3 PUSH2 0x2368 JUMP JUMPDEST POP PUSH2 0x120 DUP3 ADD MLOAD PUSH2 0x140 DUP4 ADD MLOAD PUSH1 0x1 PUSH1 0x1 PUSH1 0x80 SHL SUB SWAP1 DUP2 AND PUSH1 0x1 PUSH1 0x80 SHL MUL SWAP2 DUP2 AND SWAP2 SWAP1 SWAP2 OR PUSH1 0x7 DUP4 ADD SSTORE PUSH2 0x160 SWAP1 SWAP3 ADD MLOAD PUSH1 0x8 SWAP1 SWAP2 ADD DUP1 SLOAD SWAP2 DUP4 AND PUSH1 0x1 PUSH1 0x1 PUSH1 0x80 SHL SUB NOT SWAP3 SWAP1 SWAP3 AND SWAP2 SWAP1 SWAP2 OR SWAP1 SSTORE DUP10 DUP2 AND PUSH0 DUP2 DUP2 MSTORE PUSH1 0x2 PUSH1 0x20 DUP2 DUP2 MSTORE PUSH1 0x40 DUP1 DUP5 KECCAK256 DUP1 SLOAD PUSH1 0x1 DUP2 DUP2 ADD DUP4 SSTORE SWAP2 DUP7 MSTORE SWAP3 SWAP1 SWAP5 KECCAK256 SWAP3 DUP3 DIV SWAP1 SWAP3 ADD DUP1 SLOAD DUP8 DUP8 AND SWAP3 SWAP1 SWAP5 AND PUSH1 0x10 MUL PUSH2 0x100 EXP DUP3 DUP2 MUL SWAP7 MUL NOT SWAP1 SWAP4 AND SWAP5 SWAP1 SWAP5 OR SWAP1 SWAP2 SSTORE MLOAD PUSH32 0x4B78E675E6619216A7D91D2DC26DE2461BD1FFE2788087EB2EE126924517A00F SWAP1 PUSH2 0x192B SWAP1 DUP13 SWAP1 DUP11 SWAP1 PUSH2 0x24CD JUMP JUMPDEST PUSH1 0x40 MLOAD DUP1 SWAP2 SUB SWAP1 LOG3 POP POP POP POP POP POP POP POP POP JUMP JUMPDEST PUSH2 0x1946 PUSH2 0x19B9 JUMP JUMPDEST PUSH1 0x1 PUSH1 0x1 PUSH1 0xA0 SHL SUB DUP2 AND PUSH2 0x1974 JUMPI PUSH1 0x40 MLOAD PUSH4 0x1E4FBDF7 PUSH1 0xE0 SHL DUP2 MSTORE PUSH0 PUSH1 0x4 DUP3 ADD MSTORE PUSH1 0x24 ADD JUMPDEST PUSH1 0x40 MLOAD DUP1 SWAP2 SUB SWAP1 REVERT JUMPDEST PUSH2 0x197D DUP2 PUSH2 0x1A14 JUMP JUMPDEST POP JUMP JUMPDEST PUSH0 DUP1 PUSH32 0xF0C57E16840DF040F15088DC2F81FE391C3923BEC73E23A9662EFC9C229C6A00 PUSH2 0x68B JUMP JUMPDEST PUSH2 0x19B0 PUSH2 0x1A84 JUMP JUMPDEST PUSH2 0x197D DUP2 PUSH2 0x1AA9 JUMP JUMPDEST CALLER PUSH2 0x19EB PUSH32 0x9016D09D72D40FDAE2FD8CEAC6B6234C7706214FD39C1CD1E609A0528C199300 SLOAD PUSH1 0x1 PUSH1 0x1 PUSH1 0xA0 SHL SUB AND SWAP1 JUMP JUMPDEST PUSH1 0x1 PUSH1 0x1 PUSH1 0xA0 SHL SUB AND EQ PUSH2 0x125A JUMPI PUSH1 0x40 MLOAD PUSH4 0x118CDAA7 PUSH1 0xE0 SHL DUP2 MSTORE CALLER PUSH1 0x4 DUP3 ADD MSTORE PUSH1 0x24 ADD PUSH2 0x196B JUMP JUMPDEST PUSH32 0x9016D09D72D40FDAE2FD8CEAC6B6234C7706214FD39C1CD1E609A0528C199300 DUP1 SLOAD PUSH1 0x1 PUSH1 0x1 PUSH1 0xA0 SHL SUB NOT DUP2 AND PUSH1 0x1 PUSH1 0x1 PUSH1 0xA0 SHL SUB DUP5 DUP2 AND SWAP2 DUP3 OR DUP5 SSTORE PUSH1 0x40 MLOAD SWAP3 AND SWAP2 DUP3 SWAP1 PUSH32 0x8BE0079C531659141344CD1FD0A4F28419497F9722A3DAAFE3B4186F6B6457E0 SWAP1 PUSH0 SWAP1 LOG3 POP POP POP JUMP JUMPDEST PUSH2 0x1A8C PUSH2 0x1AB1 JUMP JUMPDEST PUSH2 0x125A JUMPI PUSH1 0x40 MLOAD PUSH4 0x1AFCD79F PUSH1 0xE3 SHL DUP2 MSTORE PUSH1 0x4 ADD PUSH1 0x40 MLOAD DUP1 SWAP2 SUB SWAP1 REVERT JUMPDEST PUSH2 0x1946 PUSH2 0x1A84 JUMP JUMPDEST PUSH0 PUSH2 0x1ABA PUSH2 0x1980 JUMP JUMPDEST SLOAD PUSH1 0x1 PUSH1 0x40 SHL SWAP1 DIV PUSH1 0xFF AND SWAP2 SWAP1 POP JUMP JUMPDEST PUSH1 0x40 MLOAD DUP1 PUSH2 0x180 ADD PUSH1 0x40 MSTORE DUP1 PUSH0 PUSH1 0x1 PUSH1 0x1 PUSH1 0x80 SHL SUB AND DUP2 MSTORE PUSH1 0x20 ADD PUSH0 PUSH1 0x1 PUSH1 0x1 PUSH1 0x80 SHL SUB AND DUP2 MSTORE PUSH1 0x20 ADD PUSH1 0x60 DUP2 MSTORE PUSH1 0x20 ADD PUSH1 0x60 DUP2 MSTORE PUSH1 0x20 ADD PUSH1 0x60 DUP2 MSTORE PUSH1 0x20 ADD PUSH0 PUSH1 0x1 PUSH1 0x1 PUSH1 0x80 SHL SUB AND DUP2 MSTORE PUSH1 0x20 ADD PUSH0 ISZERO ISZERO DUP2 MSTORE PUSH1 0x20 ADD PUSH1 0x60 DUP2 MSTORE PUSH1 0x20 ADD PUSH1 0x60 DUP2 MSTORE PUSH1 0x20 ADD PUSH0 PUSH1 0x1 PUSH1 0x1 PUSH1 0x80 SHL SUB AND DUP2 MSTORE PUSH1 0x20 ADD PUSH0 PUSH1 0x1 PUSH1 0x1 PUSH1 0x80 SHL SUB AND DUP2 MSTORE PUSH1 0x20 ADD PUSH0 PUSH1 0x1 PUSH1 0x1 PUSH1 0x80 SHL SUB AND DUP2 MSTORE POP SWAP1 JUMP JUMPDEST POP DUP1 SLOAD PUSH2 0x1B68 SWAP1 PUSH2 0x22E4 JUMP JUMPDEST PUSH0 DUP3 SSTORE DUP1 PUSH1 0x1F LT PUSH2 0x1B77 JUMPI POP POP JUMP JUMPDEST PUSH1 0x1F ADD PUSH1 0x20 SWAP1 DIV SWAP1 PUSH0 MSTORE PUSH1 0x20 PUSH0 KECCAK256 SWAP1 DUP2 ADD SWAP1 PUSH2 0x197D SWAP2 SWAP1 JUMPDEST DUP1 DUP3 GT ISZERO PUSH2 0x1BA2 JUMPI PUSH0 DUP2 SSTORE PUSH1 0x1 ADD PUSH2 0x1B8F JUMP JUMPDEST POP SWAP1 JUMP JUMPDEST DUP1 CALLDATALOAD PUSH1 0x1 PUSH1 0x1 PUSH1 0x80 SHL SUB DUP2 AND DUP2 EQ PUSH2 0x1BBC JUMPI PUSH0 PUSH0 REVERT JUMPDEST SWAP2 SWAP1 POP JUMP JUMPDEST PUSH0 PUSH0 PUSH1 0x40 DUP4 DUP6 SUB SLT ISZERO PUSH2 0x1BD2 JUMPI PUSH0 PUSH0 REVERT JUMPDEST PUSH2 0x1BDB DUP4 PUSH2 0x1BA6 JUMP JUMPDEST SWAP2 POP PUSH2 0x1BE9 PUSH1 0x20 DUP5 ADD PUSH2 0x1BA6 JUMP JUMPDEST SWAP1 POP SWAP3 POP SWAP3 SWAP1 POP JUMP JUMPDEST PUSH0 DUP2 MLOAD DUP1 DUP5 MSTORE DUP1 PUSH1 0x20 DUP5 ADD PUSH1 0x20 DUP7 ADD MCOPY PUSH0 PUSH1 0x20 DUP3 DUP7 ADD ADD MSTORE PUSH1 0x20 PUSH1 0x1F NOT PUSH1 0x1F DUP4 ADD AND DUP6 ADD ADD SWAP2 POP POP SWAP3 SWAP2 POP POP JUMP JUMPDEST DUP1 MLOAD PUSH1 0x1 PUSH1 0x1 PUSH1 0x80 SHL SUB AND DUP3 MSTORE PUSH0 PUSH1 0x20 DUP3 ADD MLOAD PUSH2 0x1C48 PUSH1 0x20 DUP6 ADD DUP3 PUSH1 0x1 PUSH1 0x1 PUSH1 0x80 SHL SUB AND SWAP1 MSTORE JUMP JUMPDEST POP PUSH1 0x40 DUP3 ADD MLOAD PUSH2 0x180 PUSH1 0x40 DUP6 ADD MSTORE PUSH2 0x1C64 PUSH2 0x180 DUP6 ADD DUP3 PUSH2 0x1BF2 JUMP JUMPDEST SWAP1 POP PUSH1 0x60 DUP4 ADD MLOAD DUP5 DUP3 SUB PUSH1 0x60 DUP7 ADD MSTORE PUSH2 0x1C7D DUP3 DUP3 PUSH2 0x1BF2 JUMP JUMPDEST SWAP2 POP POP PUSH1 0x80 DUP4 ADD MLOAD DUP5 DUP3 SUB PUSH1 0x80 DUP7 ADD MSTORE PUSH2 0x1C97 DUP3 DUP3 PUSH2 0x1BF2 JUMP JUMPDEST SWAP2 POP POP PUSH1 0xA0 DUP4 ADD MLOAD PUSH2 0x1CB4 PUSH1 0xA0 DUP7 ADD DUP3 PUSH1 0x1 PUSH1 0x1 PUSH1 0x80 SHL SUB AND SWAP1 MSTORE JUMP JUMPDEST POP PUSH1 0xC0 DUP4 ADD MLOAD PUSH2 0x1CC8 PUSH1 0xC0 DUP7 ADD DUP3 ISZERO ISZERO SWAP1 MSTORE JUMP JUMPDEST POP PUSH1 0xE0 DUP4 ADD MLOAD DUP5 DUP3 SUB PUSH1 0xE0 DUP7 ADD MSTORE PUSH2 0x1CE0 DUP3 DUP3 PUSH2 0x1BF2 JUMP JUMPDEST SWAP2 POP POP PUSH2 0x100 DUP4 ADD MLOAD DUP5 DUP3 SUB PUSH2 0x100 DUP7 ADD MSTORE PUSH2 0x1CFC DUP3 DUP3 PUSH2 0x1BF2 JUMP JUMPDEST SWAP2 POP POP PUSH2 0x120 DUP4 ADD MLOAD PUSH2 0x1D1B PUSH2 0x120 DUP7 ADD DUP3 PUSH1 0x1 PUSH1 0x1 PUSH1 0x80 SHL SUB AND SWAP1 MSTORE JUMP JUMPDEST POP PUSH2 0x140 DUP4 ADD MLOAD PUSH2 0x1D38 PUSH2 0x140 DUP7 ADD DUP3 PUSH1 0x1 PUSH1 0x1 PUSH1 0x80 SHL SUB AND SWAP1 MSTORE JUMP JUMPDEST POP PUSH2 0x160 DUP4 ADD MLOAD PUSH2 0x1241 PUSH2 0x160 DUP7 ADD DUP3 PUSH1 0x1 PUSH1 0x1 PUSH1 0x80 SHL SUB AND SWAP1 MSTORE JUMP JUMPDEST PUSH1 0x20 DUP2 MSTORE PUSH0 PUSH2 0x1D67 PUSH1 0x20 DUP4 ADD DUP5 PUSH2 0x1C20 JUMP JUMPDEST SWAP4 SWAP3 POP POP POP JUMP JUMPDEST PUSH0 PUSH1 0x20 DUP3 DUP5 SUB SLT ISZERO PUSH2 0x1D7E JUMPI PUSH0 PUSH0 REVERT JUMPDEST PUSH2 0x1D67 DUP3 PUSH2 0x1BA6 JUMP JUMPDEST PUSH4 0x4E487B71 PUSH1 0xE0 SHL PUSH0 MSTORE PUSH1 0x41 PUSH1 0x4 MSTORE PUSH1 0x24 PUSH0 REVERT JUMPDEST PUSH1 0x40 MLOAD PUSH2 0x180 DUP2 ADD PUSH1 0x1 PUSH1 0x1 PUSH1 0x40 SHL SUB DUP2 GT DUP3 DUP3 LT OR ISZERO PUSH2 0x1DBE JUMPI PUSH2 0x1DBE PUSH2 0x1D87 JUMP JUMPDEST PUSH1 0x40 MSTORE SWAP1 JUMP JUMPDEST PUSH0 DUP3 PUSH1 0x1F DUP4 ADD SLT PUSH2 0x1DD3 JUMPI PUSH0 PUSH0 REVERT JUMPDEST DUP2 CALLDATALOAD PUSH1 0x1 PUSH1 0x1 PUSH1 0x40 SHL SUB DUP2 GT ISZERO PUSH2 0x1DEC JUMPI PUSH2 0x1DEC PUSH2 0x1D87 JUMP JUMPDEST PUSH1 0x40 MLOAD PUSH1 0x1F DUP3 ADD PUSH1 0x1F NOT SWAP1 DUP2 AND PUSH1 0x3F ADD AND DUP2 ADD PUSH1 0x1 PUSH1 0x1 PUSH1 0x40 SHL SUB DUP2 GT DUP3 DUP3 LT OR ISZERO PUSH2 0x1E1A JUMPI PUSH2 0x1E1A PUSH2 0x1D87 JUMP JUMPDEST PUSH1 0x40 MSTORE DUP2 DUP2 MSTORE DUP4 DUP3 ADD PUSH1 0x20 ADD DUP6 LT ISZERO PUSH2 0x1E31 JUMPI PUSH0 PUSH0 REVERT JUMPDEST DUP2 PUSH1 0x20 DUP6 ADD PUSH1 0x20 DUP4 ADD CALLDATACOPY PUSH0 SWAP2 DUP2 ADD PUSH1 0x20 ADD SWAP2 SWAP1 SWAP2 MSTORE SWAP4 SWAP3 POP POP POP JUMP JUMPDEST DUP1 CALLDATALOAD DUP1 ISZERO ISZERO DUP2 EQ PUSH2 0x1BBC JUMPI PUSH0 PUSH0 REVERT JUMPDEST PUSH0 PUSH1 0x20 DUP3 DUP5 SUB SLT ISZERO PUSH2 0x1E6C JUMPI PUSH0 PUSH0 REVERT JUMPDEST DUP2 CALLDATALOAD PUSH1 0x1 PUSH1 0x1 PUSH1 0x40 SHL SUB DUP2 GT ISZERO PUSH2 0x1E81 JUMPI PUSH0 PUSH0 REVERT JUMPDEST DUP3 ADD PUSH2 0x180 DUP2 DUP6 SUB SLT ISZERO PUSH2 0x1E93 JUMPI PUSH0 PUSH0 REVERT JUMPDEST PUSH2 0x1E9B PUSH2 0x1D9B JUMP JUMPDEST PUSH2 0x1EA4 DUP3 PUSH2 0x1BA6 JUMP JUMPDEST DUP2 MSTORE PUSH2 0x1EB2 PUSH1 0x20 DUP4 ADD PUSH2 0x1BA6 JUMP JUMPDEST PUSH1 0x20 DUP3 ADD MSTORE PUSH1 0x40 DUP3 ADD CALLDATALOAD PUSH1 0x1 PUSH1 0x1 PUSH1 0x40 SHL SUB DUP2 GT ISZERO PUSH2 0x1ECF JUMPI PUSH0 PUSH0 REVERT JUMPDEST PUSH2 0x1EDB DUP7 DUP3 DUP6 ADD PUSH2 0x1DC4 JUMP JUMPDEST PUSH1 0x40 DUP4 ADD MSTORE POP PUSH1 0x60 DUP3 ADD CALLDATALOAD PUSH1 0x1 PUSH1 0x1 PUSH1 0x40 SHL SUB DUP2 GT ISZERO PUSH2 0x1EF9 JUMPI PUSH0 PUSH0 REVERT JUMPDEST PUSH2 0x1F05 DUP7 DUP3 DUP6 ADD PUSH2 0x1DC4 JUMP JUMPDEST PUSH1 0x60 DUP4 ADD MSTORE POP PUSH1 0x80 DUP3 ADD CALLDATALOAD PUSH1 0x1 PUSH1 0x1 PUSH1 0x40 SHL SUB DUP2 GT ISZERO PUSH2 0x1F23 JUMPI PUSH0 PUSH0 REVERT JUMPDEST PUSH2 0x1F2F DUP7 DUP3 DUP6 ADD PUSH2 0x1DC4 JUMP JUMPDEST PUSH1 0x80 DUP4 ADD MSTORE POP PUSH2 0x1F41 PUSH1 0xA0 DUP4 ADD PUSH2 0x1BA6 JUMP JUMPDEST PUSH1 0xA0 DUP3 ADD MSTORE PUSH2 0x1F52 PUSH1 0xC0 DUP4 ADD PUSH2 0x1E4D JUMP JUMPDEST PUSH1 0xC0 DUP3 ADD MSTORE PUSH1 0xE0 DUP3 ADD CALLDATALOAD PUSH1 0x1 PUSH1 0x1 PUSH1 0x40 SHL SUB DUP2 GT ISZERO PUSH2 0x1F6F JUMPI PUSH0 PUSH0 REVERT JUMPDEST PUSH2 0x1F7B DUP7 DUP3 DUP6 ADD PUSH2 0x1DC4 JUMP JUMPDEST PUSH1 0xE0 DUP4 ADD MSTORE POP PUSH2 0x100 DUP3 ADD CALLDATALOAD PUSH1 0x1 PUSH1 0x1 PUSH1 0x40 SHL SUB DUP2 GT ISZERO PUSH2 0x1F9A JUMPI PUSH0 PUSH0 REVERT JUMPDEST PUSH2 0x1FA6 DUP7 DUP3 DUP6 ADD PUSH2 0x1DC4 JUMP JUMPDEST PUSH2 0x100 DUP4 ADD MSTORE POP PUSH2 0x1FBA PUSH2 0x120 DUP4 ADD PUSH2 0x1BA6 JUMP JUMPDEST PUSH2 0x120 DUP3 ADD MSTORE PUSH2 0x1FCD PUSH2 0x140 DUP4 ADD PUSH2 0x1BA6 JUMP JUMPDEST PUSH2 0x140 DUP3 ADD MSTORE PUSH2 0x1FE0 PUSH2 0x160 DUP4 ADD PUSH2 0x1BA6 JUMP JUMPDEST PUSH2 0x160 DUP3 ADD MSTORE SWAP5 SWAP4 POP POP POP POP JUMP JUMPDEST DUP1 CALLDATALOAD PUSH1 0x1 PUSH1 0x1 PUSH1 0xA0 SHL SUB DUP2 AND DUP2 EQ PUSH2 0x1BBC JUMPI PUSH0 PUSH0 REVERT JUMPDEST PUSH0 PUSH0 PUSH1 0x40 DUP4 DUP6 SUB SLT ISZERO PUSH2 0x2015 JUMPI PUSH0 PUSH0 REVERT JUMPDEST PUSH2 0x201E DUP4 PUSH2 0x1FEE JUMP JUMPDEST SWAP2 POP PUSH2 0x1BE9 PUSH1 0x20 DUP5 ADD PUSH2 0x1FEE JUMP JUMPDEST PUSH0 PUSH1 0x20 DUP3 ADD PUSH1 0x20 DUP4 MSTORE DUP1 DUP5 MLOAD DUP1 DUP4 MSTORE PUSH1 0x40 DUP6 ADD SWAP2 POP PUSH1 0x40 DUP2 PUSH1 0x5 SHL DUP7 ADD ADD SWAP3 POP PUSH1 0x20 DUP7 ADD PUSH0 JUMPDEST DUP3 DUP2 LT ISZERO PUSH2 0x2083 JUMPI PUSH1 0x3F NOT DUP8 DUP7 SUB ADD DUP5 MSTORE PUSH2 0x206E DUP6 DUP4 MLOAD PUSH2 0x1C20 JUMP JUMPDEST SWAP5 POP PUSH1 0x20 SWAP4 DUP5 ADD SWAP4 SWAP2 SWAP1 SWAP2 ADD SWAP1 PUSH1 0x1 ADD PUSH2 0x2052 JUMP JUMPDEST POP SWAP3 SWAP7 SWAP6 POP POP POP POP POP POP JUMP JUMPDEST PUSH1 0x20 DUP1 DUP3 MSTORE DUP3 MLOAD DUP3 DUP3 ADD DUP2 SWAP1 MSTORE PUSH0 SWAP2 DUP5 ADD SWAP1 PUSH1 0x40 DUP5 ADD SWAP1 DUP4 JUMPDEST DUP2 DUP2 LT ISZERO PUSH2 0x20CF JUMPI DUP4 MLOAD PUSH1 0x1 PUSH1 0x1 PUSH1 0x80 SHL SUB AND DUP4 MSTORE PUSH1 0x20 SWAP4 DUP5 ADD SWAP4 SWAP1 SWAP3 ADD SWAP2 PUSH1 0x1 ADD PUSH2 0x20A8 JUMP JUMPDEST POP SWAP1 SWAP6 SWAP5 POP POP POP POP POP JUMP JUMPDEST PUSH1 0x1 PUSH1 0x1 PUSH1 0x80 SHL SUB DUP14 AND DUP2 MSTORE PUSH1 0x1 PUSH1 0x1 PUSH1 0x80 SHL SUB DUP13 AND PUSH1 0x20 DUP3 ADD MSTORE PUSH2 0x180 PUSH1 0x40 DUP3 ADD MSTORE PUSH0 PUSH2 0x210C PUSH2 0x180 DUP4 ADD DUP14 PUSH2 0x1BF2 JUMP JUMPDEST DUP3 DUP2 SUB PUSH1 0x60 DUP5 ADD MSTORE PUSH2 0x211E DUP2 DUP14 PUSH2 0x1BF2 JUMP JUMPDEST SWAP1 POP DUP3 DUP2 SUB PUSH1 0x80 DUP5 ADD MSTORE PUSH2 0x2132 DUP2 DUP13 PUSH2 0x1BF2 JUMP JUMPDEST PUSH1 0x1 PUSH1 0x1 PUSH1 0x80 SHL SUB DUP12 AND PUSH1 0xA0 DUP6 ADD MSTORE SWAP1 POP DUP9 ISZERO ISZERO PUSH1 0xC0 DUP5 ADD MSTORE DUP3 DUP2 SUB PUSH1 0xE0 DUP5 ADD MSTORE PUSH2 0x215D DUP2 DUP10 PUSH2 0x1BF2 JUMP JUMPDEST SWAP1 POP DUP3 DUP2 SUB PUSH2 0x100 DUP5 ADD MSTORE PUSH2 0x2172 DUP2 DUP9 PUSH2 0x1BF2 JUMP JUMPDEST SWAP2 POP POP PUSH2 0x218B PUSH2 0x120 DUP4 ADD DUP7 PUSH1 0x1 PUSH1 0x1 PUSH1 0x80 SHL SUB AND SWAP1 MSTORE JUMP JUMPDEST PUSH1 0x1 PUSH1 0x1 PUSH1 0x80 SHL SUB DUP5 AND PUSH2 0x140 DUP4 ADD MSTORE PUSH1 0x1 PUSH1 0x1 PUSH1 0x80 SHL SUB DUP4 AND PUSH2 0x160 DUP4 ADD MSTORE SWAP14 SWAP13 POP POP POP POP POP POP POP POP POP POP POP POP POP JUMP JUMPDEST PUSH0 PUSH0 PUSH0 PUSH0 PUSH0 PUSH0 PUSH0 PUSH0 PUSH2 0x100 DUP10 DUP12 SUB SLT ISZERO PUSH2 0x21D4 JUMPI PUSH0 PUSH0 REVERT JUMPDEST PUSH2 0x21DD DUP10 PUSH2 0x1BA6 JUMP JUMPDEST SWAP8 POP PUSH1 0x20 DUP10 ADD CALLDATALOAD PUSH1 0x1 PUSH1 0x1 PUSH1 0x40 SHL SUB DUP2 GT ISZERO PUSH2 0x21F7 JUMPI PUSH0 PUSH0 REVERT JUMPDEST PUSH2 0x2203 DUP12 DUP3 DUP13 ADD PUSH2 0x1DC4 JUMP JUMPDEST SWAP8 POP POP PUSH1 0x40 DUP10 ADD CALLDATALOAD PUSH1 0x1 PUSH1 0x1 PUSH1 0x40 SHL SUB DUP2 GT ISZERO PUSH2 0x221E JUMPI PUSH0 PUSH0 REVERT JUMPDEST PUSH2 0x222A DUP12 DUP3 DUP13 ADD PUSH2 0x1DC4 JUMP JUMPDEST SWAP7 POP POP PUSH1 0x60 DUP10 ADD CALLDATALOAD PUSH1 0x1 PUSH1 0x1 PUSH1 0x40 SHL SUB DUP2 GT ISZERO PUSH2 0x2245 JUMPI PUSH0 PUSH0 REVERT JUMPDEST PUSH2 0x2251 DUP12 DUP3 DUP13 ADD PUSH2 0x1DC4 JUMP JUMPDEST SWAP6 POP POP PUSH2 0x2260 PUSH1 0x80 DUP11 ADD PUSH2 0x1BA6 JUMP JUMPDEST SWAP4 POP PUSH1 0xA0 DUP10 ADD CALLDATALOAD PUSH1 0x1 PUSH1 0x1 PUSH1 0x40 SHL SUB DUP2 GT ISZERO PUSH2 0x227A JUMPI PUSH0 PUSH0 REVERT JUMPDEST PUSH2 0x2286 DUP12 DUP3 DUP13 ADD PUSH2 0x1DC4 JUMP JUMPDEST SWAP4 POP POP PUSH1 0xC0 DUP10 ADD CALLDATALOAD PUSH1 0x1 PUSH1 0x1 PUSH1 0x40 SHL SUB DUP2 GT ISZERO PUSH2 0x22A1 JUMPI PUSH0 PUSH0 REVERT JUMPDEST PUSH2 0x22AD DUP12 DUP3 DUP13 ADD PUSH2 0x1DC4 JUMP JUMPDEST SWAP3 POP POP PUSH2 0x22BC PUSH1 0xE0 DUP11 ADD PUSH2 0x1BA6 JUMP JUMPDEST SWAP1 POP SWAP3 SWAP6 SWAP9 POP SWAP3 SWAP6 SWAP9 SWAP1 SWAP4 SWAP7 POP JUMP JUMPDEST PUSH0 PUSH1 0x20 DUP3 DUP5 SUB SLT ISZERO PUSH2 0x22DB JUMPI PUSH0 PUSH0 REVERT JUMPDEST PUSH2 0x1D67 DUP3 PUSH2 0x1FEE JUMP JUMPDEST PUSH1 0x1 DUP2 DUP2 SHR SWAP1 DUP3 AND DUP1 PUSH2 0x22F8 JUMPI PUSH1 0x7F DUP3 AND SWAP2 POP JUMPDEST PUSH1 0x20 DUP3 LT DUP2 SUB PUSH2 0x2316 JUMPI PUSH4 0x4E487B71 PUSH1 0xE0 SHL PUSH0 MSTORE PUSH1 0x22 PUSH1 0x4 MSTORE PUSH1 0x24 PUSH0 REVERT JUMPDEST POP SWAP2 SWAP1 POP JUMP JUMPDEST PUSH1 0x1F DUP3 GT ISZERO PUSH2 0x2363 JUMPI DUP1 PUSH0 MSTORE PUSH1 0x20 PUSH0 KECCAK256 PUSH1 0x1F DUP5 ADD PUSH1 0x5 SHR DUP2 ADD PUSH1 0x20 DUP6 LT ISZERO PUSH2 0x2341 JUMPI POP DUP1 JUMPDEST PUSH1 0x1F DUP5 ADD PUSH1 0x5 SHR DUP3 ADD SWAP2 POP JUMPDEST DUP2 DUP2 LT ISZERO PUSH2 0x2360 JUMPI PUSH0 DUP2 SSTORE PUSH1 0x1 ADD PUSH2 0x234D JUMP JUMPDEST POP POP JUMPDEST POP POP POP JUMP JUMPDEST DUP2 MLOAD PUSH1 0x1 PUSH1 0x1 PUSH1 0x40 SHL SUB DUP2 GT ISZERO PUSH2 0x2381 JUMPI PUSH2 0x2381 PUSH2 0x1D87 JUMP JUMPDEST PUSH2 0x2395 DUP2 PUSH2 0x238F DUP5 SLOAD PUSH2 0x22E4 JUMP JUMPDEST DUP5 PUSH2 0x231C JUMP JUMPDEST PUSH1 0x20 PUSH1 0x1F DUP3 GT PUSH1 0x1 DUP2 EQ PUSH2 0x23C7 JUMPI PUSH0 DUP4 ISZERO PUSH2 0x23B0 JUMPI POP DUP5 DUP3 ADD MLOAD JUMPDEST PUSH0 NOT PUSH1 0x3 DUP6 SWAP1 SHL SHR NOT AND PUSH1 0x1 DUP5 SWAP1 SHL OR DUP5 SSTORE PUSH2 0x2360 JUMP JUMPDEST PUSH0 DUP5 DUP2 MSTORE PUSH1 0x20 DUP2 KECCAK256 PUSH1 0x1F NOT DUP6 AND SWAP2 JUMPDEST DUP3 DUP2 LT ISZERO PUSH2 0x23F6 JUMPI DUP8 DUP6 ADD MLOAD DUP3 SSTORE PUSH1 0x20 SWAP5 DUP6 ADD SWAP5 PUSH1 0x1 SWAP1 SWAP3 ADD SWAP2 ADD PUSH2 0x23D6 JUMP JUMPDEST POP DUP5 DUP3 LT ISZERO PUSH2 0x2413 JUMPI DUP7 DUP5 ADD MLOAD PUSH0 NOT PUSH1 0x3 DUP8 SWAP1 SHL PUSH1 0xF8 AND SHR NOT AND DUP2 SSTORE JUMPDEST POP POP POP POP PUSH1 0x1 SWAP1 DUP2 SHL ADD SWAP1 SSTORE POP JUMP JUMPDEST PUSH1 0x60 DUP2 MSTORE PUSH0 PUSH2 0x2434 PUSH1 0x60 DUP4 ADD DUP7 PUSH2 0x1BF2 JUMP JUMPDEST PUSH1 0x1 PUSH1 0x1 PUSH1 0x80 SHL SUB SWAP5 SWAP1 SWAP5 AND PUSH1 0x20 DUP4 ADD MSTORE POP SWAP1 ISZERO ISZERO PUSH1 0x40 SWAP1 SWAP2 ADD MSTORE SWAP2 SWAP1 POP JUMP JUMPDEST PUSH4 0x4E487B71 PUSH1 0xE0 SHL PUSH0 MSTORE PUSH1 0x32 PUSH1 0x4 MSTORE PUSH1 0x24 PUSH0 REVERT JUMPDEST PUSH4 0x4E487B71 PUSH1 0xE0 SHL PUSH0 MSTORE PUSH1 0x11 PUSH1 0x4 MSTORE PUSH1 0x24 PUSH0 REVERT JUMPDEST DUP2 DUP2 SUB DUP2 DUP2 GT ISZERO PUSH2 0x68B JUMPI PUSH2 0x68B PUSH2 0x2468 JUMP JUMPDEST PUSH4 0x4E487B71 PUSH1 0xE0 SHL PUSH0 MSTORE PUSH1 0x31 PUSH1 0x4 MSTORE PUSH1 0x24 PUSH0 REVERT JUMPDEST PUSH0 PUSH1 0x1 PUSH1 0x1 PUSH1 0x80 SHL SUB DUP3 AND PUSH1 0x1 PUSH1 0x1 PUSH1 0x80 SHL SUB DUP2 SUB PUSH2 0x24C4 JUMPI PUSH2 0x24C4 PUSH2 0x2468 JUMP JUMPDEST PUSH1 0x1 ADD SWAP3 SWAP2 POP POP JUMP JUMPDEST PUSH1 0x40 DUP2 MSTORE PUSH0 PUSH2 0x24DF PUSH1 0x40 DUP4 ADD DUP6 PUSH2 0x1BF2 JUMP JUMPDEST SWAP1 POP PUSH1 0x1 PUSH1 0x1 PUSH1 0x80 SHL SUB DUP4 AND PUSH1 0x20 DUP4 ADD MSTORE SWAP4 SWAP3 POP POP POP JUMP INVALID LOG2 PUSH5 0x6970667358 0x22 SLT KECCAK256 0xA5 SWAP10 0x4D 0x2D 0xA9 STATICCALL MCOPY 0xC9 0xDE 0xC2 PUSH8 0xCC6EC67944A2575B SELFDESTRUCT 0xB2 RETURN SWAP3 SWAP6 DUP3 PUSH10 0x2C84B5938D6364736F6C PUSH4 0x4300081E STOP CALLER "
		},
		"gasEstimates": {
			"creation": {
				"codeDepositCost": "1903400",
				"executionCost": "2010",
				"totalCost": "1905410"
			},
			"external": {
				"addMenuItem(uint128,string,string,string,uint128,string,string,uint128)": "infinite",
				"foodAppContractAddress()": "2358",
				"getMenuItem(uint128,uint128)": "infinite",
				"getMenuItemIdsByRestaurant(uint128)": "infinite",
				"getMenuItemsByRestaurant(uint128)": "infinite",
				"initialize(address,address)": "infinite",
				"menuItems(uint128,uint128)": "infinite",
				"nextMenuIds(uint128)": "2578",
				"owner()": "2374",
				"removeMenuItem(uint128,uint128)": "infinite",
				"renounceOwnership()": "infinite",
				"transferOwnership(address)": "28453",
				"updateMenuItem((uint128,uint128,string,string,string,uint128,bool,string,string,uint128,uint128,uint128))": "infinite"
			}
		},
		"methodIdentifiers": {
			"addMenuItem(uint128,string,string,string,uint128,string,string,uint128)": "d5d2768b",
			"foodAppContractAddress()": "832dbdd9",
			"getMenuItem(uint128,uint128)": "0c528968",
			"getMenuItemIdsByRestaurant(uint128)": "6b88cde5",
			"getMenuItemsByRestaurant(uint128)": "61dcddda",
			"initialize(address,address)": "485cc955",
			"menuItems(uint128,uint128)": "75fab3e0",
			"nextMenuIds(uint128)": "21bc7543",
			"owner()": "8da5cb5b",
			"removeMenuItem(uint128,uint128)": "5b94ea5d",
			"renounceOwnership()": "715018a6",
			"transferOwnership(address)": "f2fde38b",
			"updateMenuItem((uint128,uint128,string,string,string,uint128,bool,string,string,uint128,uint128,uint128))": "25147e4f"
		}
	},
	"abi": [
		{
			"inputs": [],
			"name": "InvalidInitialization",
			"type": "error"
		},
		{
			"inputs": [
				{
					"internalType": "uint128",
					"name": "menuItemId",
					"type": "uint128"
				},
				{
					"internalType": "uint128",
					"name": "requestedQuantity",
					"type": "uint128"
				},
				{
					"internalType": "uint128",
					"name": "availableQuantity",
					"type": "uint128"
				}
			],
			"name": "MenuManager__InsufficientQuantity",
			"type": "error"
		},
		{
			"inputs": [],
			"name": "MenuManager__InvalidAddress",
			"type": "error"
		},
		{
			"inputs": [],
			"name": "MenuManager__InvalidPrice",
			"type": "error"
		},
		{
			"inputs": [],
			"name": "MenuManager__MenuItemNotFound",
			"type": "error"
		},
		{
			"inputs": [],
			"name": "MenuManager__NameRequired",
			"type": "error"
		},
		{
			"inputs": [],
			"name": "MenuManager__NotFoodApp",
			"type": "error"
		},
		{
			"inputs": [],
			"name": "MenuManager__RestaurantHasNoMenuYet",
			"type": "error"
		},
		{
			"inputs": [],
			"name": "NotInitializing",
			"type": "error"
		},
		{
			"inputs": [
				{
					"internalType": "address",
					"name": "owner",
					"type": "address"
				}
			],
			"name": "OwnableInvalidOwner",
			"type": "error"
		},
		{
			"inputs": [
				{
					"internalType": "address",
					"name": "account",
					"type": "address"
				}
			],
			"name": "OwnableUnauthorizedAccount",
			"type": "error"
		},
		{
			"anonymous": false,
			"inputs": [
				{
					"indexed": false,
					"internalType": "uint64",
					"name": "version",
					"type": "uint64"
				}
			],
			"name": "Initialized",
			"type": "event"
		},
		{
			"anonymous": false,
			"inputs": [
				{
					"indexed": true,
					"internalType": "uint128",
					"name": "restaurantId",
					"type": "uint128"
				},
				{
					"indexed": true,
					"internalType": "uint128",
					"name": "menuId",
					"type": "uint128"
				},
				{
					"indexed": false,
					"internalType": "string",
					"name": "name",
					"type": "string"
				},
				{
					"indexed": false,
					"internalType": "uint128",
					"name": "price",
					"type": "uint128"
				}
			],
			"name": "MenuItemAdded",
			"type": "event"
		},
		{
			"anonymous": false,
			"inputs": [
				{
					"indexed": true,
					"internalType": "uint128",
					"name": "restaurantId",
					"type": "uint128"
				},
				{
					"indexed": true,
					"internalType": "uint128",
					"name": "menuId",
					"type": "uint128"
				},
				{
					"indexed": false,
					"internalType": "uint128",
					"name": "removedIndex",
					"type": "uint128"
				}
			],
			"name": "MenuItemRemoved",
			"type": "event"
		},
		{
			"anonymous": false,
			"inputs": [
				{
					"indexed": true,
					"internalType": "uint128",
					"name": "restaurantId",
					"type": "uint128"
				},
				{
					"indexed": true,
					"internalType": "uint128",
					"name": "menuId",
					"type": "uint128"
				},
				{
					"indexed": false,
					"internalType": "string",
					"name": "name",
					"type": "string"
				},
				{
					"indexed": false,
					"internalType": "uint128",
					"name": "price",
					"type": "uint128"
				},
				{
					"indexed": false,
					"internalType": "bool",
					"name": "available",
					"type": "bool"
				}
			],
			"name": "MenuItemUpdated",
			"type": "event"
		},
		{
			"anonymous": false,
			"inputs": [
				{
					"indexed": true,
					"internalType": "address",
					"name": "previousOwner",
					"type": "address"
				},
				{
					"indexed": true,
					"internalType": "address",
					"name": "newOwner",
					"type": "address"
				}
			],
			"name": "OwnershipTransferred",
			"type": "event"
		},
		{
			"inputs": [
				{
					"internalType": "uint128",
					"name": "restaurantId",
					"type": "uint128"
				},
				{
					"internalType": "string",
					"name": "name",
					"type": "string"
				},
				{
					"internalType": "string",
					"name": "menuTitle",
					"type": "string"
				},
				{
					"internalType": "string",
					"name": "imageUrl",
					"type": "string"
				},
				{
					"internalType": "uint128",
					"name": "price",
					"type": "uint128"
				},
				{
					"internalType": "string",
					"name": "description",
					"type": "string"
				},
				{
					"internalType": "string",
					"name": "category",
					"type": "string"
				},
				{
					"internalType": "uint128",
					"name": "preparationTime",
					"type": "uint128"
				}
			],
			"name": "addMenuItem",
			"outputs": [],
			"stateMutability": "nonpayable",
			"type": "function"
		},
		{
			"inputs": [],
			"name": "foodAppContractAddress",
			"outputs": [
				{
					"internalType": "address",
					"name": "",
					"type": "address"
				}
			],
			"stateMutability": "view",
			"type": "function"
		},
		{
			"inputs": [
				{
					"internalType": "uint128",
					"name": "restaurantId",
					"type": "uint128"
				},
				{
					"internalType": "uint128",
					"name": "menuId",
					"type": "uint128"
				}
			],
			"name": "getMenuItem",
			"outputs": [
				{
					"components": [
						{
							"internalType": "uint128",
							"name": "id",
							"type": "uint128"
						},
						{
							"internalType": "uint128",
							"name": "restaurantId",
							"type": "uint128"
						},
						{
							"internalType": "string",
							"name": "name",
							"type": "string"
						},
						{
							"internalType": "string",
							"name": "menuTitle",
							"type": "string"
						},
						{
							"internalType": "string",
							"name": "imageUrl",
							"type": "string"
						},
						{
							"internalType": "uint128",
							"name": "price",
							"type": "uint128"
						},
						{
							"internalType": "bool",
							"name": "available",
							"type": "bool"
						},
						{
							"internalType": "string",
							"name": "description",
							"type": "string"
						},
						{
							"internalType": "string",
							"name": "category",
							"type": "string"
						},
						{
							"internalType": "uint128",
							"name": "totalRating",
							"type": "uint128"
						},
						{
							"internalType": "uint128",
							"name": "ratingCount",
							"type": "uint128"
						},
						{
							"internalType": "uint128",
							"name": "preparationTime",
							"type": "uint128"
						}
					],
					"internalType": "struct MenuItem",
					"name": "",
					"type": "tuple"
				}
			],
			"stateMutability": "view",
			"type": "function"
		},
		{
			"inputs": [
				{
					"internalType": "uint128",
					"name": "restaurantId",
					"type": "uint128"
				}
			],
			"name": "getMenuItemIdsByRestaurant",
			"outputs": [
				{
					"internalType": "uint128[]",
					"name": "",
					"type": "uint128[]"
				}
			],
			"stateMutability": "view",
			"type": "function"
		},
		{
			"inputs": [
				{
					"internalType": "uint128",
					"name": "restaurantId",
					"type": "uint128"
				}
			],
			"name": "getMenuItemsByRestaurant",
			"outputs": [
				{
					"components": [
						{
							"internalType": "uint128",
							"name": "id",
							"type": "uint128"
						},
						{
							"internalType": "uint128",
							"name": "restaurantId",
							"type": "uint128"
						},
						{
							"internalType": "string",
							"name": "name",
							"type": "string"
						},
						{
							"internalType": "string",
							"name": "menuTitle",
							"type": "string"
						},
						{
							"internalType": "string",
							"name": "imageUrl",
							"type": "string"
						},
						{
							"internalType": "uint128",
							"name": "price",
							"type": "uint128"
						},
						{
							"internalType": "bool",
							"name": "available",
							"type": "bool"
						},
						{
							"internalType": "string",
							"name": "description",
							"type": "string"
						},
						{
							"internalType": "string",
							"name": "category",
							"type": "string"
						},
						{
							"internalType": "uint128",
							"name": "totalRating",
							"type": "uint128"
						},
						{
							"internalType": "uint128",
							"name": "ratingCount",
							"type": "uint128"
						},
						{
							"internalType": "uint128",
							"name": "preparationTime",
							"type": "uint128"
						}
					],
					"internalType": "struct MenuItem[]",
					"name": "",
					"type": "tuple[]"
				}
			],
			"stateMutability": "view",
			"type": "function"
		},
		{
			"inputs": [
				{
					"internalType": "address",
					"name": "_foodAppContract",
					"type": "address"
				},
				{
					"internalType": "address",
					"name": "_owner",
					"type": "address"
				}
			],
			"name": "initialize",
			"outputs": [],
			"stateMutability": "nonpayable",
			"type": "function"
		},
		{
			"inputs": [
				{
					"internalType": "uint128",
					"name": "",
					"type": "uint128"
				},
				{
					"internalType": "uint128",
					"name": "",
					"type": "uint128"
				}
			],
			"name": "menuItems",
			"outputs": [
				{
					"internalType": "uint128",
					"name": "id",
					"type": "uint128"
				},
				{
					"internalType": "uint128",
					"name": "restaurantId",
					"type": "uint128"
				},
				{
					"internalType": "string",
					"name": "name",
					"type": "string"
				},
				{
					"internalType": "string",
					"name": "menuTitle",
					"type": "string"
				},
				{
					"internalType": "string",
					"name": "imageUrl",
					"type": "string"
				},
				{
					"internalType": "uint128",
					"name": "price",
					"type": "uint128"
				},
				{
					"internalType": "bool",
					"name": "available",
					"type": "bool"
				},
				{
					"internalType": "string",
					"name": "description",
					"type": "string"
				},
				{
					"internalType": "string",
					"name": "category",
					"type": "string"
				},
				{
					"internalType": "uint128",
					"name": "totalRating",
					"type": "uint128"
				},
				{
					"internalType": "uint128",
					"name": "ratingCount",
					"type": "uint128"
				},
				{
					"internalType": "uint128",
					"name": "preparationTime",
					"type": "uint128"
				}
			],
			"stateMutability": "view",
			"type": "function"
		},
		{
			"inputs": [
				{
					"internalType": "uint128",
					"name": "",
					"type": "uint128"
				}
			],
			"name": "nextMenuIds",
			"outputs": [
				{
					"internalType": "uint128",
					"name": "",
					"type": "uint128"
				}
			],
			"stateMutability": "view",
			"type": "function"
		},
		{
			"inputs": [],
			"name": "owner",
			"outputs": [
				{
					"internalType": "address",
					"name": "",
					"type": "address"
				}
			],
			"stateMutability": "view",
			"type": "function"
		},
		{
			"inputs": [
				{
					"internalType": "uint128",
					"name": "restaurantId",
					"type": "uint128"
				},
				{
					"internalType": "uint128",
					"name": "menuId",
					"type": "uint128"
				}
			],
			"name": "removeMenuItem",
			"outputs": [],
			"stateMutability": "nonpayable",
			"type": "function"
		},
		{
			"inputs": [],
			"name": "renounceOwnership",
			"outputs": [],
			"stateMutability": "nonpayable",
			"type": "function"
		},
		{
			"inputs": [
				{
					"internalType": "address",
					"name": "newOwner",
					"type": "address"
				}
			],
			"name": "transferOwnership",
			"outputs": [],
			"stateMutability": "nonpayable",
			"type": "function"
		},
		{
			"inputs": [
				{
					"components": [
						{
							"internalType": "uint128",
							"name": "restaurantId",
							"type": "uint128"
						},
						{
							"internalType": "uint128",
							"name": "menuId",
							"type": "uint128"
						},
						{
							"internalType": "string",
							"name": "name",
							"type": "string"
						},
						{
							"internalType": "string",
							"name": "menuTitle",
							"type": "string"
						},
						{
							"internalType": "string",
							"name": "imageUrl",
							"type": "string"
						},
						{
							"internalType": "uint128",
							"name": "price",
							"type": "uint128"
						},
						{
							"internalType": "bool",
							"name": "available",
							"type": "bool"
						},
						{
							"internalType": "string",
							"name": "description",
							"type": "string"
						},
						{
							"internalType": "string",
							"name": "category",
							"type": "string"
						},
						{
							"internalType": "uint128",
							"name": "preparationTime",
							"type": "uint128"
						},
						{
							"internalType": "uint128",
							"name": "totalRating",
							"type": "uint128"
						},
						{
							"internalType": "uint128",
							"name": "ratingCount",
							"type": "uint128"
						}
					],
					"internalType": "struct UpdateMenuItemParams",
					"name": "params",
					"type": "tuple"
				}
			],
			"name": "updateMenuItem",
			"outputs": [],
			"stateMutability": "nonpayable",
			"type": "function"
		}
	]
}