{
	"data": {
		"bytecode": {
			"linkReferences": {},
			"object": "6080604052348015600e575f5ffd5b5060015f5561225a806100205f395ff3fe6080604052600436106100c2575f3560e01c8063117d4128146100c657806312e8e2c3146100fb57806319c8ccef1461011c5780631b4257f61461013b5780632134b6f61461015a5780632a58b330146101865780635059e95b146101b2578063715018a6146101d1578063832dbdd9146101e55780638c639a85146102045780638da5cb5b14610227578063c60c14d91461023b578063cf31fb461461024e578063f2fde38b1461026d578063f8c8765e1461028c578063ff8ddee3146102ab575b5f5ffd5b3480156100d1575f5ffd5b506100e56100e03660046117d7565b610331565b6040516100f291906118f4565b60405180910390f35b348015610106575f5ffd5b5061011a610115366004611998565b61057f565b005b348015610127575f5ffd5b5061011a6101363660046119c3565b6105ed565b348015610146575f5ffd5b5061011a610155366004611a1f565b61079e565b348015610165575f5ffd5b50600454610179906001600160a01b031681565b6040516100f29190611a56565b348015610191575f5ffd5b506001546101a5906001600160801b031681565b6040516100f29190611a6a565b3480156101bd575f5ffd5b50600354610179906001600160a01b031681565b3480156101dc575f5ffd5b5061011a6109ec565b3480156101f0575f5ffd5b50600554610179906001600160a01b031681565b34801561020f575f5ffd5b5061021960065481565b6040519081526020016100f2565b348015610232575f5ffd5b506101796109ff565b61011a610249366004611b73565b610a19565b348015610259575f5ffd5b5061011a610268366004611bfa565b6110e6565b348015610278575f5ffd5b5061011a610287366004611c42565b611431565b348015610297575f5ffd5b5061011a6102a6366004611c5d565b61146e565b3480156102b6575f5ffd5b5061031e6102c53660046117d7565b600260208190525f91825260409091208054600182015492820154600483015460058401546006909401546001600160801b03938416956001600160a01b03169492841693919260ff8116926101009091048116911687565b6040516100f29796959493929190611cab565b60408051610100810182525f808252602082018190529181018290526060808201526080810182905260a0810182905260c0810182905260e08101919091526001600160801b038083165f90815260026020818152604080842081516101008101835281548716815260018201546001600160a01b0316818501529381015490951683820152600385018054825181850281018501909352808352949593946060860193879084015b828210156104de575f84815260209081902060408051608081019091526003850290910180546001600160801b03168252600181018054929391929184019161042290611d0c565b80601f016020809104026020016040519081016040528092919081815260200182805461044e90611d0c565b80156104995780601f1061047057610100808354040283529160200191610499565b820191905f5260205f20905b81548152906001019060200180831161047c57829003601f168201915b5050509183525050600291909101546001600160801b03808216602080850191909152600160801b9092041660409092019190915290825260019290920191016103da565b5050509082525060048201546020820152600582015460409091019060ff16600681111561050e5761050e6118c0565b600681111561051f5761051f6118c0565b815260058201546001600160801b036101009091048116602083015260069092015482166040909101528151919250165f0361057957826040516305e8f38560e41b81526004016105709190611a6a565b60405180910390fd5b92915050565b61058761166c565b60328111156105ac57604051632be52f1560e21b815260048101829052602401610570565b60065460408051918252602082018390527fd347e206f25a89b917fc9482f1a2d294d749baa4dc9bde7fb495ee11fe491643910160405180910390a1600655565b6005546001600160a01b03163314610618576040516392b2f95960e01b815260040160405180910390fd5b6001600160801b038084165f9081526002602052604081208054909216900361065657836040516305e8f38560e41b81526004016105709190611a6a565b60028101546001600160801b0383811691161461069b57600281015460405163d52781e960e01b81526105709187916001600160801b03909116908590600401611d44565b60058082015460ff1660068111156106b5576106b56118c0565b14806106d957506006600582015460ff1660068111156106d7576106d76118c0565b145b1561070057600581015460405163388a923d60e01b81526105709160ff1690600401611d6e565b5f836006811115610713576107136118c0565b0361073c5760058101546040516314fdbd5f60e11b81526105709160ff16908590600401611dae565b60058101805460ff811691859160ff19166001836006811115610761576107616118c0565b0217905550846001600160801b03165f5160206122055f395f51905f52828660405161078e929190611dae565b60405180910390a2505050505050565b6005546001600160a01b031633146107c9576040516392b2f95960e01b815260040160405180910390fd5b6107d161169e565b6001600160801b038082165f9081526002602052604081208054909216900361080f57816040516305e8f38560e41b81526004016105709190611a6a565b60018101546001600160a01b03848116911614610859576040516371c4943f60e01b81526001600160a01b03841660048201526001600160801b0383166024820152604401610570565b5f600582015460ff166006811115610873576108736118c0565b1415801561089a57506001600582015460ff166006811115610897576108976118c0565b14155b156108c157600581015460405163388a923d60e01b81526105709160ff1690600401611dc9565b60058101805460ff198116600617909155600482015460ff909116901561095b57600182015460048301546040515f926001600160a01b031691908381818185875af1925050503d805f8114610932576040519150601f19603f3d011682016040523d82523d5f602084013e610937565b606091505b505090508061095957604051634239e21d60e11b815260040160405180910390fd5b505b836001600160a01b0316836001600160801b03167f70af4296e6226c6ef4207be3522ff55647a797b6dc909d2d31f67551e9adac5d84600401546040516109a491815260200190565b60405180910390a3826001600160801b03165f5160206122055f395f51905f528260066040516109d5929190611dae565b60405180910390a250506109e860015f55565b5050565b6109f461166c565b6109fd5f6116c6565b565b5f5f610a09611720565b546001600160a01b031692915050565b6005546001600160a01b03163314610a44576040516392b2f95960e01b815260040160405180910390fd5b610a4c61169e565b80518251141580610a5c57508151155b15610a7a57604051634482f20960e11b815260040160405180910390fd5b6001600160a01b038416610aa157604051632b84073560e11b815260040160405180910390fd5b81515f90819081906001600160401b03811115610ac057610ac0611a7e565b604051908082528060200260200182016040528015610b1057816020015b604080516080810182525f8082526060602080840182905293830182905282015282525f19909201910181610ade5790505b5090505f5b8551816001600160801b03161015610dc05760035486515f916001600160a01b031690630c528968908a908a906001600160801b038716908110610b5b57610b5b611df9565b60200260200101516040518363ffffffff1660e01b8152600401610b80929190611e0d565b5f60405180830381865afa158015610b9a573d5f5f3e3d5ffd5b505050506040513d5f823e601f3d908101601f19168201604052610bc19190810190611eb1565b80519091506001600160801b03165f03610c14578787836001600160801b031681518110610bf157610bf1611df9565b6020026020010151604051632489e14f60e01b8152600401610570929190611e0d565b8060a00151610c5a5786826001600160801b031681518110610c3857610c38611df9565b60200260200101516040516303c719bb60e51b81526004016105709190611a6a565b85826001600160801b031681518110610c7557610c75611df9565b60200260200101516001600160801b03165f03610ca557604051634482f20960e11b815260040160405180910390fd5b85826001600160801b031681518110610cc057610cc0611df9565b60200260200101516001600160801b031681608001516001600160801b0316610ce9919061202b565b610cf39086612042565b9450836001600160801b03168161014001516001600160801b03161115610d1d5780610140015193505b6040518060800160405280825f01516001600160801b031681526020018260400151815260200182608001516001600160801b0316815260200187846001600160801b031681518110610d7257610d72611df9565b60200260200101516001600160801b031681525083836001600160801b031681518110610da157610da1611df9565b6020026020010181905250508080610db890612055565b915050610b15565b5082341015610deb57604051635bb4793160e11b815260048101849052346024820152604401610570565b82341115610e6a575f6001600160a01b038816610e088534612080565b6040515f81818185875af1925050503d805f8114610e41576040519150601f19603f3d011682016040523d82523d5f602084013e610e46565b606091505b5050905080610e6857604051634239e21d60e11b815260040160405180910390fd5b505b5f60015f9054906101000a90046001600160801b031690505f60025f836001600160801b03166001600160801b031681526020019081526020015f20905081815f015f6101000a8154816001600160801b0302191690836001600160801b0316021790555088816001015f6101000a8154816001600160a01b0302191690836001600160a01b0316021790555087816002015f6101000a8154816001600160801b0302191690836001600160801b031602179055508481600401819055505f816005015f6101000a81548160ff02191690836006811115610f4d57610f4d6118c0565b02179055506005810180546001600160801b0342811661010002610100600160881b0319909216919091179091556006820180549186166001600160801b03199092169190911790555f5b835181101561103d5781600301848281518110610fb757610fb7611df9565b6020908102919091018101518254600180820185555f94855293839020825160039092020180546001600160801b0319166001600160801b0390921691909117815591810151909282019061100c90826120de565b5060408201516060909201516001600160801b03908116600160801b02921691909117600290910155600101610f98565b50876001600160801b0316896001600160a01b0316836001600160801b03167f6ce2bb89bf47987f896a72756397a4441f5be463c46b39a4102f8108d5ade5e08860405161108d91815260200190565b60405180910390a4600180546001600160801b0316905f6110ad83612055565b91906101000a8154816001600160801b0302191690836001600160801b031602179055505050505050506110e060015f55565b50505050565b6005546001600160a01b03163314611111576040516392b2f95960e01b815260040160405180910390fd5b61111961169e565b6001600160801b038083165f9081526002602052604081208054909216900361115757826040516305e8f38560e41b81526004016105709190611a6a565b60028101546001600160801b0383811691161461119c57600281015460405163d52781e960e01b81526105709186916001600160801b03909116908590600401611d44565b6003600582015460ff1660068111156111b7576111b76118c0565b141580156111de57506004600582015460ff1660068111156111db576111db6118c0565b14155b1561120557600581015460405163388a923d60e01b81526105709160ff1690600401612198565b6005818101805460ff198116909217905560048054600284015460405163b958832760e01b815260ff909416935f936001600160a01b039093169263b95883279261125c926001600160801b039091169101611a6a565b602060405180830381865afa158015611277573d5f5f3e3d5ffd5b505050506040513d601f19601f8201168201806040525081019061129b91906121ca565b90506001600160a01b0381166112d35760028301546040516310de8dc560e31b8152610570916001600160801b031690600401611a6a565b60048301546006545f90158015906112ee5750606460065411155b156113265760646006548660040154611307919061202b565b61131191906121e5565b90508085600401546113239190612080565b91505b811561139e575f836001600160a01b0316836040515f6040518083038185875af1925050503d805f8114611375576040519150601f19603f3d011682016040523d82523d5f602084013e61137a565b606091505b505090508061139c57604051634239e21d60e11b815260040160405180910390fd5b505b60408051838152602081018390526001600160a01b038516916001600160801b038a16917fd2a6aee9265d7e28b871c25501abe610595eecb7dd2f5dde2d7c55a5ce7f644f910160405180910390a3866001600160801b03165f5160206122055f395f51905f52856005604051611416929190611dae565b60405180910390a2505050505061142c60015f55565b505050565b61143961166c565b6001600160a01b038116611462575f604051631e4fbdf760e01b81526004016105709190611a56565b61146b816116c6565b50565b5f611477611744565b805490915060ff600160401b82041615906001600160401b03165f8115801561149d5750825b90505f826001600160401b031660011480156114b85750303b155b9050811580156114c6575080155b156114e45760405163f92ee8a960e01b815260040160405180910390fd5b84546001600160401b0319166001178555831561150d57845460ff60401b1916600160401b1785555b6001600160a01b03891661153457604051632b84073560e11b815260040160405180910390fd5b6001600160a01b03881661157957604051631f7ecdff60e31b815260206004820152600b60248201526a26b2b73aa6b0b730b3b2b960a91b6044820152606401610570565b6001600160a01b0387166115c457604051631f7ecdff60e31b81526020600482015260116024820152702932b9ba30bab930b73a26b0b730b3b2b960791b6044820152606401610570565b6115cd8661176c565b600580546001600160a01b03808c166001600160a01b0319928316178355600380548c831690841617905560048054918b1691909216179055600180546001600160801b03191681179055600655831561166157845460ff60401b19168555604051600181527fc7f505b2f371ae2175ee4913f4499e1f2633a7b5936321eed1cdaeb6115181d29060200160405180910390a15b505050505050505050565b336116756109ff565b6001600160a01b0316146109fd573360405163118cdaa760e01b81526004016105709190611a56565b60025f54036116c057604051633ee5aeb560e01b815260040160405180910390fd5b60025f55565b5f6116cf611720565b80546001600160a01b038481166001600160a01b031983168117845560405193945091169182907f8be0079c531659141344cd1fd0a4f28419497f9722a3daafe3b4186f6b6457e0905f90a3505050565b7f9016d09d72d40fdae2fd8ceac6b6234c7706214fd39c1cd1e609a0528c19930090565b5f807ff0c57e16840df040f15088dc2f81fe391c3923bec73e23a9662efc9c229c6a00610579565b61177461177d565b61146b816117a2565b6117856117aa565b6109fd57604051631afcd79f60e31b815260040160405180910390fd5b61143961177d565b5f6117b3611744565b54600160401b900460ff16919050565b6001600160801b038116811461146b575f5ffd5b5f602082840312156117e7575f5ffd5b81356117f2816117c3565b9392505050565b6001600160801b03169052565b5f82825180855260208501945060208160051b830101602085015f5b838110156118b457601f19858403018852815160018060801b0381511684526020810151608060208601528051806080870152806020830160a088015e5f60a0828801015260018060801b03604084015116604087015260018060801b03606084015116606087015260a0601f19601f8301168701019550505050602082019150602088019750600181019050611822565b50909695505050505050565b634e487b7160e01b5f52602160045260245ffd5b600781106118f057634e487b7160e01b5f52602160045260245ffd5b9052565b602080825282516001600160801b0316828201528201516001600160a01b03166040808301919091528201515f9061192f60608401826117f9565b506060830151610100608084015261194b610120840182611806565b9050608084015160a084015260a084015161196960c08501826118d4565b5060c084015161197c60e08501826117f9565b5060e08401516119906101008501826117f9565b509392505050565b5f602082840312156119a8575f5ffd5b5035919050565b6001600160a01b038116811461146b575f5ffd5b5f5f5f5f608085870312156119d6575f5ffd5b84356119e1816119af565b935060208501356119f1816117c3565b9250604085013560078110611a04575f5ffd5b91506060850135611a14816117c3565b939692955090935050565b5f5f60408385031215611a30575f5ffd5b8235611a3b816119af565b91506020830135611a4b816117c3565b809150509250929050565b6001600160a01b0391909116815260200190565b6001600160801b0391909116815260200190565b634e487b7160e01b5f52604160045260245ffd5b60405161016081016001600160401b0381118282101715611ab557611ab5611a7e565b60405290565b604051601f8201601f191681016001600160401b0381118282101715611ae357611ae3611a7e565b604052919050565b5f82601f830112611afa575f5ffd5b81356001600160401b03811115611b1357611b13611a7e565b8060051b611b2360208201611abb565b91825260208185018101929081019086841115611b3e575f5ffd5b6020860192505b83831015611b69578235611b58816117c3565b825260209283019290910190611b45565b9695505050505050565b5f5f5f5f60808587031215611b86575f5ffd5b8435611b91816119af565b93506020850135611ba1816117c3565b925060408501356001600160401b03811115611bbb575f5ffd5b611bc787828801611aeb565b92505060608501356001600160401b03811115611be2575f5ffd5b611bee87828801611aeb565b91505092959194509250565b5f5f5f60608486031215611c0c575f5ffd5b8335611c17816119af565b92506020840135611c27816117c3565b91506040840135611c37816117c3565b809150509250925092565b5f60208284031215611c52575f5ffd5b81356117f2816119af565b5f5f5f5f60808587031215611c70575f5ffd5b8435611c7b816119af565b93506020850135611c8b816119af565b92506040850135611c9b816119af565b91506060850135611a14816119af565b6001600160801b0388811682526001600160a01b0388166020830152861660408201526060810185905260e08101611ce660808301866118d4565b6001600160801b0393841660a08301529190921660c09092019190915295945050505050565b600181811c90821680611d2057607f821691505b602082108103611d3e57634e487b7160e01b5f52602260045260245ffd5b50919050565b6001600160a01b039390931683526001600160801b03918216602084015216604082015260600190565b611d7881836118d4565b604060208201819052601690820152757570646174652028616c72656164792066696e616c2960501b6060820152608001919050565b60408101611dbc82856118d4565b6117f260208301846118d4565b611dd381836118d4565b6040602082018190526006908201526518d85b98d95b60d21b6060820152608001919050565b634e487b7160e01b5f52603260045260245ffd5b6001600160801b0392831681529116602082015260400190565b8051611e32816117c3565b919050565b5f82601f830112611e46575f5ffd5b81516001600160401b03811115611e5f57611e5f611a7e565b611e72601f8201601f1916602001611abb565b818152846020838601011115611e86575f5ffd5b8160208501602083015e5f918101602001919091529392505050565b80518015158114611e32575f5ffd5b5f60208284031215611ec1575f5ffd5b81516001600160401b03811115611ed6575f5ffd5b82016101608185031215611ee8575f5ffd5b611ef0611a92565b611ef982611e27565b8152611f0760208301611e27565b602082015260408201516001600160401b03811115611f24575f5ffd5b611f3086828501611e37565b60408301525060608201516001600160401b03811115611f4e575f5ffd5b611f5a86828501611e37565b606083015250611f6c60808301611e27565b6080820152611f7d60a08301611ea2565b60a082015260c08201516001600160401b03811115611f9a575f5ffd5b611fa686828501611e37565b60c08301525060e08201516001600160401b03811115611fc4575f5ffd5b611fd086828501611e37565b60e083015250611fe36101008301611e27565b610100820152611ff66101208301611e27565b6101208201526120096101408301611e27565b610140820152949350505050565b634e487b7160e01b5f52601160045260245ffd5b808202811582820484141761057957610579612017565b8082018082111561057957610579612017565b5f6001600160801b0382166002600160801b0319810161207757612077612017565b60010192915050565b8181038181111561057957610579612017565b601f82111561142c57805f5260205f20601f840160051c810160208510156120b85750805b601f840160051c820191505b818110156120d7575f81556001016120c4565b5050505050565b81516001600160401b038111156120f7576120f7611a7e565b61210b816121058454611d0c565b84612093565b6020601f82116001811461213d575f83156121265750848201515b5f19600385901b1c1916600184901b1784556120d7565b5f84815260208120601f198516915b8281101561216c578785015182556020948501946001909201910161214c565b508482101561218957868401515f19600387901b60f8161c191681555b50505050600190811b01905550565b6121a281836118d4565b60406020820181905260089082015267636f6d706c65746560c01b6060820152608001919050565b5f602082840312156121da575f5ffd5b81516117f2816119af565b5f826121ff57634e487b7160e01b5f52601260045260245ffd5b50049056fe8c649b2ad43b6449bbeee9487a5efe9f7fcded9570a17906d76f159a34713011a26469706673582212208fc8ef6955f925c9216853481e7ef0d7826fc7b06d6377e948d38b5845d1f4b464736f6c634300081e0033",
			"opcodes": "PUSH1 0x80 PUSH1 0x40 MSTORE CALLVALUE DUP1 ISZERO PUSH1 0xE JUMPI PUSH0 PUSH0 REVERT JUMPDEST POP PUSH1 0x1 PUSH0 SSTORE PUSH2 0x225A DUP1 PUSH2 0x20 PUSH0 CODECOPY PUSH0 RETURN INVALID PUSH1 0x80 PUSH1 0x40 MSTORE PUSH1 0x4 CALLDATASIZE LT PUSH2 0xC2 JUMPI PUSH0 CALLDATALOAD PUSH1 0xE0 SHR DUP1 PUSH4 0x117D4128 EQ PUSH2 0xC6 JUMPI DUP1 PUSH4 0x12E8E2C3 EQ PUSH2 0xFB JUMPI DUP1 PUSH4 0x19C8CCEF EQ PUSH2 0x11C JUMPI DUP1 PUSH4 0x1B4257F6 EQ PUSH2 0x13B JUMPI DUP1 PUSH4 0x2134B6F6 EQ PUSH2 0x15A JUMPI DUP1 PUSH4 0x2A58B330 EQ PUSH2 0x186 JUMPI DUP1 PUSH4 0x5059E95B EQ PUSH2 0x1B2 JUMPI DUP1 PUSH4 0x715018A6 EQ PUSH2 0x1D1 JUMPI DUP1 PUSH4 0x832DBDD9 EQ PUSH2 0x1E5 JUMPI DUP1 PUSH4 0x8C639A85 EQ PUSH2 0x204 JUMPI DUP1 PUSH4 0x8DA5CB5B EQ PUSH2 0x227 JUMPI DUP1 PUSH4 0xC60C14D9 EQ PUSH2 0x23B JUMPI DUP1 PUSH4 0xCF31FB46 EQ PUSH2 0x24E JUMPI DUP1 PUSH4 0xF2FDE38B EQ PUSH2 0x26D JUMPI DUP1 PUSH4 0xF8C8765E EQ PUSH2 0x28C JUMPI DUP1 PUSH4 0xFF8DDEE3 EQ PUSH2 0x2AB JUMPI JUMPDEST PUSH0 PUSH0 REVERT JUMPDEST CALLVALUE DUP1 ISZERO PUSH2 0xD1 JUMPI PUSH0 PUSH0 REVERT JUMPDEST POP PUSH2 0xE5 PUSH2 0xE0 CALLDATASIZE PUSH1 0x4 PUSH2 0x17D7 JUMP JUMPDEST PUSH2 0x331 JUMP JUMPDEST PUSH1 0x40 MLOAD PUSH2 0xF2 SWAP2 SWAP1 PUSH2 0x18F4 JUMP JUMPDEST PUSH1 0x40 MLOAD DUP1 SWAP2 SUB SWAP1 RETURN JUMPDEST CALLVALUE DUP1 ISZERO PUSH2 0x106 JUMPI PUSH0 PUSH0 REVERT JUMPDEST POP PUSH2 0x11A PUSH2 0x115 CALLDATASIZE PUSH1 0x4 PUSH2 0x1998 JUMP JUMPDEST PUSH2 0x57F JUMP JUMPDEST STOP JUMPDEST CALLVALUE DUP1 ISZERO PUSH2 0x127 JUMPI PUSH0 PUSH0 REVERT JUMPDEST POP PUSH2 0x11A PUSH2 0x136 CALLDATASIZE PUSH1 0x4 PUSH2 0x19C3 JUMP JUMPDEST PUSH2 0x5ED JUMP JUMPDEST CALLVALUE DUP1 ISZERO PUSH2 0x146 JUMPI PUSH0 PUSH0 REVERT JUMPDEST POP PUSH2 0x11A PUSH2 0x155 CALLDATASIZE PUSH1 0x4 PUSH2 0x1A1F JUMP JUMPDEST PUSH2 0x79E JUMP JUMPDEST CALLVALUE DUP1 ISZERO PUSH2 0x165 JUMPI PUSH0 PUSH0 REVERT JUMPDEST POP PUSH1 0x4 SLOAD PUSH2 0x179 SWAP1 PUSH1 0x1 PUSH1 0x1 PUSH1 0xA0 SHL SUB AND DUP2 JUMP JUMPDEST PUSH1 0x40 MLOAD PUSH2 0xF2 SWAP2 SWAP1 PUSH2 0x1A56 JUMP JUMPDEST CALLVALUE DUP1 ISZERO PUSH2 0x191 JUMPI PUSH0 PUSH0 REVERT JUMPDEST POP PUSH1 0x1 SLOAD PUSH2 0x1A5 SWAP1 PUSH1 0x1 PUSH1 0x1 PUSH1 0x80 SHL SUB AND DUP2 JUMP JUMPDEST PUSH1 0x40 MLOAD PUSH2 0xF2 SWAP2 SWAP1 PUSH2 0x1A6A JUMP JUMPDEST CALLVALUE DUP1 ISZERO PUSH2 0x1BD JUMPI PUSH0 PUSH0 REVERT JUMPDEST POP PUSH1 0x3 SLOAD PUSH2 0x179 SWAP1 PUSH1 0x1 PUSH1 0x1 PUSH1 0xA0 SHL SUB AND DUP2 JUMP JUMPDEST CALLVALUE DUP1 ISZERO PUSH2 0x1DC JUMPI PUSH0 PUSH0 REVERT JUMPDEST POP PUSH2 0x11A PUSH2 0x9EC JUMP JUMPDEST CALLVALUE DUP1 ISZERO PUSH2 0x1F0 JUMPI PUSH0 PUSH0 REVERT JUMPDEST POP PUSH1 0x5 SLOAD PUSH2 0x179 SWAP1 PUSH1 0x1 PUSH1 0x1 PUSH1 0xA0 SHL SUB AND DUP2 JUMP JUMPDEST CALLVALUE DUP1 ISZERO PUSH2 0x20F JUMPI PUSH0 PUSH0 REVERT JUMPDEST POP PUSH2 0x219 PUSH1 0x6 SLOAD DUP2 JUMP JUMPDEST PUSH1 0x40 MLOAD SWAP1 DUP2 MSTORE PUSH1 0x20 ADD PUSH2 0xF2 JUMP JUMPDEST CALLVALUE DUP1 ISZERO PUSH2 0x232 JUMPI PUSH0 PUSH0 REVERT JUMPDEST POP PUSH2 0x179 PUSH2 0x9FF JUMP JUMPDEST PUSH2 0x11A PUSH2 0x249 CALLDATASIZE PUSH1 0x4 PUSH2 0x1B73 JUMP JUMPDEST PUSH2 0xA19 JUMP JUMPDEST CALLVALUE DUP1 ISZERO PUSH2 0x259 JUMPI PUSH0 PUSH0 REVERT JUMPDEST POP PUSH2 0x11A PUSH2 0x268 CALLDATASIZE PUSH1 0x4 PUSH2 0x1BFA JUMP JUMPDEST PUSH2 0x10E6 JUMP JUMPDEST CALLVALUE DUP1 ISZERO PUSH2 0x278 JUMPI PUSH0 PUSH0 REVERT JUMPDEST POP PUSH2 0x11A PUSH2 0x287 CALLDATASIZE PUSH1 0x4 PUSH2 0x1C42 JUMP JUMPDEST PUSH2 0x1431 JUMP JUMPDEST CALLVALUE DUP1 ISZERO PUSH2 0x297 JUMPI PUSH0 PUSH0 REVERT JUMPDEST POP PUSH2 0x11A PUSH2 0x2A6 CALLDATASIZE PUSH1 0x4 PUSH2 0x1C5D JUMP JUMPDEST PUSH2 0x146E JUMP JUMPDEST CALLVALUE DUP1 ISZERO PUSH2 0x2B6 JUMPI PUSH0 PUSH0 REVERT JUMPDEST POP PUSH2 0x31E PUSH2 0x2C5 CALLDATASIZE PUSH1 0x4 PUSH2 0x17D7 JUMP JUMPDEST PUSH1 0x2 PUSH1 0x20 DUP2 SWAP1 MSTORE PUSH0 SWAP2 DUP3 MSTORE PUSH1 0x40 SWAP1 SWAP2 KECCAK256 DUP1 SLOAD PUSH1 0x1 DUP3 ADD SLOAD SWAP3 DUP3 ADD SLOAD PUSH1 0x4 DUP4 ADD SLOAD PUSH1 0x5 DUP5 ADD SLOAD PUSH1 0x6 SWAP1 SWAP5 ADD SLOAD PUSH1 0x1 PUSH1 0x1 PUSH1 0x80 SHL SUB SWAP4 DUP5 AND SWAP6 PUSH1 0x1 PUSH1 0x1 PUSH1 0xA0 SHL SUB AND SWAP5 SWAP3 DUP5 AND SWAP4 SWAP2 SWAP3 PUSH1 0xFF DUP2 AND SWAP3 PUSH2 0x100 SWAP1 SWAP2 DIV DUP2 AND SWAP2 AND DUP8 JUMP JUMPDEST PUSH1 0x40 MLOAD PUSH2 0xF2 SWAP8 SWAP7 SWAP6 SWAP5 SWAP4 SWAP3 SWAP2 SWAP1 PUSH2 0x1CAB JUMP JUMPDEST PUSH1 0x40 DUP1 MLOAD PUSH2 0x100 DUP2 ADD DUP3 MSTORE PUSH0 DUP1 DUP3 MSTORE PUSH1 0x20 DUP3 ADD DUP2 SWAP1 MSTORE SWAP2 DUP2 ADD DUP3 SWAP1 MSTORE PUSH1 0x60 DUP1 DUP3 ADD MSTORE PUSH1 0x80 DUP2 ADD DUP3 SWAP1 MSTORE PUSH1 0xA0 DUP2 ADD DUP3 SWAP1 MSTORE PUSH1 0xC0 DUP2 ADD DUP3 SWAP1 MSTORE PUSH1 0xE0 DUP2 ADD SWAP2 SWAP1 SWAP2 MSTORE PUSH1 0x1 PUSH1 0x1 PUSH1 0x80 SHL SUB DUP1 DUP4 AND PUSH0 SWAP1 DUP2 MSTORE PUSH1 0x2 PUSH1 0x20 DUP2 DUP2 MSTORE PUSH1 0x40 DUP1 DUP5 KECCAK256 DUP2 MLOAD PUSH2 0x100 DUP2 ADD DUP4 MSTORE DUP2 SLOAD DUP8 AND DUP2 MSTORE PUSH1 0x1 DUP3 ADD SLOAD PUSH1 0x1 PUSH1 0x1 PUSH1 0xA0 SHL SUB AND DUP2 DUP6 ADD MSTORE SWAP4 DUP2 ADD SLOAD SWAP1 SWAP6 AND DUP4 DUP3 ADD MSTORE PUSH1 0x3 DUP6 ADD DUP1 SLOAD DUP3 MLOAD DUP2 DUP6 MUL DUP2 ADD DUP6 ADD SWAP1 SWAP4 MSTORE DUP1 DUP4 MSTORE SWAP5 SWAP6 SWAP4 SWAP5 PUSH1 0x60 DUP7 ADD SWAP4 DUP8 SWAP1 DUP5 ADD JUMPDEST DUP3 DUP3 LT ISZERO PUSH2 0x4DE JUMPI PUSH0 DUP5 DUP2 MSTORE PUSH1 0x20 SWAP1 DUP2 SWAP1 KECCAK256 PUSH1 0x40 DUP1 MLOAD PUSH1 0x80 DUP2 ADD SWAP1 SWAP2 MSTORE PUSH1 0x3 DUP6 MUL SWAP1 SWAP2 ADD DUP1 SLOAD PUSH1 0x1 PUSH1 0x1 PUSH1 0x80 SHL SUB AND DUP3 MSTORE PUSH1 0x1 DUP2 ADD DUP1 SLOAD SWAP3 SWAP4 SWAP2 SWAP3 SWAP2 DUP5 ADD SWAP2 PUSH2 0x422 SWAP1 PUSH2 0x1D0C JUMP JUMPDEST DUP1 PUSH1 0x1F ADD PUSH1 0x20 DUP1 SWAP2 DIV MUL PUSH1 0x20 ADD PUSH1 0x40 MLOAD SWAP1 DUP2 ADD PUSH1 0x40 MSTORE DUP1 SWAP3 SWAP2 SWAP1 DUP2 DUP2 MSTORE PUSH1 0x20 ADD DUP3 DUP1 SLOAD PUSH2 0x44E SWAP1 PUSH2 0x1D0C JUMP JUMPDEST DUP1 ISZERO PUSH2 0x499 JUMPI DUP1 PUSH1 0x1F LT PUSH2 0x470 JUMPI PUSH2 0x100 DUP1 DUP4 SLOAD DIV MUL DUP4 MSTORE SWAP2 PUSH1 0x20 ADD SWAP2 PUSH2 0x499 JUMP JUMPDEST DUP3 ADD SWAP2 SWAP1 PUSH0 MSTORE PUSH1 0x20 PUSH0 KECCAK256 SWAP1 JUMPDEST DUP2 SLOAD DUP2 MSTORE SWAP1 PUSH1 0x1 ADD SWAP1 PUSH1 0x20 ADD DUP1 DUP4 GT PUSH2 0x47C JUMPI DUP3 SWAP1 SUB PUSH1 0x1F AND DUP3 ADD SWAP2 JUMPDEST POP POP POP SWAP2 DUP4 MSTORE POP POP PUSH1 0x2 SWAP2 SWAP1 SWAP2 ADD SLOAD PUSH1 0x1 PUSH1 0x1 PUSH1 0x80 SHL SUB DUP1 DUP3 AND PUSH1 0x20 DUP1 DUP6 ADD SWAP2 SWAP1 SWAP2 MSTORE PUSH1 0x1 PUSH1 0x80 SHL SWAP1 SWAP3 DIV AND PUSH1 0x40 SWAP1 SWAP3 ADD SWAP2 SWAP1 SWAP2 MSTORE SWAP1 DUP3 MSTORE PUSH1 0x1 SWAP3 SWAP1 SWAP3 ADD SWAP2 ADD PUSH2 0x3DA JUMP JUMPDEST POP POP POP SWAP1 DUP3 MSTORE POP PUSH1 0x4 DUP3 ADD SLOAD PUSH1 0x20 DUP3 ADD MSTORE PUSH1 0x5 DUP3 ADD SLOAD PUSH1 0x40 SWAP1 SWAP2 ADD SWAP1 PUSH1 0xFF AND PUSH1 0x6 DUP2 GT ISZERO PUSH2 0x50E JUMPI PUSH2 0x50E PUSH2 0x18C0 JUMP JUMPDEST PUSH1 0x6 DUP2 GT ISZERO PUSH2 0x51F JUMPI PUSH2 0x51F PUSH2 0x18C0 JUMP JUMPDEST DUP2 MSTORE PUSH1 0x5 DUP3 ADD SLOAD PUSH1 0x1 PUSH1 0x1 PUSH1 0x80 SHL SUB PUSH2 0x100 SWAP1 SWAP2 DIV DUP2 AND PUSH1 0x20 DUP4 ADD MSTORE PUSH1 0x6 SWAP1 SWAP3 ADD SLOAD DUP3 AND PUSH1 0x40 SWAP1 SWAP2 ADD MSTORE DUP2 MLOAD SWAP2 SWAP3 POP AND PUSH0 SUB PUSH2 0x579 JUMPI DUP3 PUSH1 0x40 MLOAD PUSH4 0x5E8F385 PUSH1 0xE4 SHL DUP2 MSTORE PUSH1 0x4 ADD PUSH2 0x570 SWAP2 SWAP1 PUSH2 0x1A6A JUMP JUMPDEST PUSH1 0x40 MLOAD DUP1 SWAP2 SUB SWAP1 REVERT JUMPDEST SWAP3 SWAP2 POP POP JUMP JUMPDEST PUSH2 0x587 PUSH2 0x166C JUMP JUMPDEST PUSH1 0x32 DUP2 GT ISZERO PUSH2 0x5AC JUMPI PUSH1 0x40 MLOAD PUSH4 0x2BE52F15 PUSH1 0xE2 SHL DUP2 MSTORE PUSH1 0x4 DUP2 ADD DUP3 SWAP1 MSTORE PUSH1 0x24 ADD PUSH2 0x570 JUMP JUMPDEST PUSH1 0x6 SLOAD PUSH1 0x40 DUP1 MLOAD SWAP2 DUP3 MSTORE PUSH1 0x20 DUP3 ADD DUP4 SWAP1 MSTORE PUSH32 0xD347E206F25A89B917FC9482F1A2D294D749BAA4DC9BDE7FB495EE11FE491643 SWAP2 ADD PUSH1 0x40 MLOAD DUP1 SWAP2 SUB SWAP1 LOG1 PUSH1 0x6 SSTORE JUMP JUMPDEST PUSH1 0x5 SLOAD PUSH1 0x1 PUSH1 0x1 PUSH1 0xA0 SHL SUB AND CALLER EQ PUSH2 0x618 JUMPI PUSH1 0x40 MLOAD PUSH4 0x92B2F959 PUSH1 0xE0 SHL DUP2 MSTORE PUSH1 0x4 ADD PUSH1 0x40 MLOAD DUP1 SWAP2 SUB SWAP1 REVERT JUMPDEST PUSH1 0x1 PUSH1 0x1 PUSH1 0x80 SHL SUB DUP1 DUP5 AND PUSH0 SWAP1 DUP2 MSTORE PUSH1 0x2 PUSH1 0x20 MSTORE PUSH1 0x40 DUP2 KECCAK256 DUP1 SLOAD SWAP1 SWAP3 AND SWAP1 SUB PUSH2 0x656 JUMPI DUP4 PUSH1 0x40 MLOAD PUSH4 0x5E8F385 PUSH1 0xE4 SHL DUP2 MSTORE PUSH1 0x4 ADD PUSH2 0x570 SWAP2 SWAP1 PUSH2 0x1A6A JUMP JUMPDEST PUSH1 0x2 DUP2 ADD SLOAD PUSH1 0x1 PUSH1 0x1 PUSH1 0x80 SHL SUB DUP4 DUP2 AND SWAP2 AND EQ PUSH2 0x69B JUMPI PUSH1 0x2 DUP2 ADD SLOAD PUSH1 0x40 MLOAD PUSH4 0xD52781E9 PUSH1 0xE0 SHL DUP2 MSTORE PUSH2 0x570 SWAP2 DUP8 SWAP2 PUSH1 0x1 PUSH1 0x1 PUSH1 0x80 SHL SUB SWAP1 SWAP2 AND SWAP1 DUP6 SWAP1 PUSH1 0x4 ADD PUSH2 0x1D44 JUMP JUMPDEST PUSH1 0x5 DUP1 DUP3 ADD SLOAD PUSH1 0xFF AND PUSH1 0x6 DUP2 GT ISZERO PUSH2 0x6B5 JUMPI PUSH2 0x6B5 PUSH2 0x18C0 JUMP JUMPDEST EQ DUP1 PUSH2 0x6D9 JUMPI POP PUSH1 0x6 PUSH1 0x5 DUP3 ADD SLOAD PUSH1 0xFF AND PUSH1 0x6 DUP2 GT ISZERO PUSH2 0x6D7 JUMPI PUSH2 0x6D7 PUSH2 0x18C0 JUMP JUMPDEST EQ JUMPDEST ISZERO PUSH2 0x700 JUMPI PUSH1 0x5 DUP2 ADD SLOAD PUSH1 0x40 MLOAD PUSH4 0x388A923D PUSH1 0xE0 SHL DUP2 MSTORE PUSH2 0x570 SWAP2 PUSH1 0xFF AND SWAP1 PUSH1 0x4 ADD PUSH2 0x1D6E JUMP JUMPDEST PUSH0 DUP4 PUSH1 0x6 DUP2 GT ISZERO PUSH2 0x713 JUMPI PUSH2 0x713 PUSH2 0x18C0 JUMP JUMPDEST SUB PUSH2 0x73C JUMPI PUSH1 0x5 DUP2 ADD SLOAD PUSH1 0x40 MLOAD PUSH4 0x14FDBD5F PUSH1 0xE1 SHL DUP2 MSTORE PUSH2 0x570 SWAP2 PUSH1 0xFF AND SWAP1 DUP6 SWAP1 PUSH1 0x4 ADD PUSH2 0x1DAE JUMP JUMPDEST PUSH1 0x5 DUP2 ADD DUP1 SLOAD PUSH1 0xFF DUP2 AND SWAP2 DUP6 SWAP2 PUSH1 0xFF NOT AND PUSH1 0x1 DUP4 PUSH1 0x6 DUP2 GT ISZERO PUSH2 0x761 JUMPI PUSH2 0x761 PUSH2 0x18C0 JUMP JUMPDEST MUL OR SWAP1 SSTORE POP DUP5 PUSH1 0x1 PUSH1 0x1 PUSH1 0x80 SHL SUB AND PUSH0 MLOAD PUSH1 0x20 PUSH2 0x2205 PUSH0 CODECOPY PUSH0 MLOAD SWAP1 PUSH0 MSTORE DUP3 DUP7 PUSH1 0x40 MLOAD PUSH2 0x78E SWAP3 SWAP2 SWAP1 PUSH2 0x1DAE JUMP JUMPDEST PUSH1 0x40 MLOAD DUP1 SWAP2 SUB SWAP1 LOG2 POP POP POP POP POP POP JUMP JUMPDEST PUSH1 0x5 SLOAD PUSH1 0x1 PUSH1 0x1 PUSH1 0xA0 SHL SUB AND CALLER EQ PUSH2 0x7C9 JUMPI PUSH1 0x40 MLOAD PUSH4 0x92B2F959 PUSH1 0xE0 SHL DUP2 MSTORE PUSH1 0x4 ADD PUSH1 0x40 MLOAD DUP1 SWAP2 SUB SWAP1 REVERT JUMPDEST PUSH2 0x7D1 PUSH2 0x169E JUMP JUMPDEST PUSH1 0x1 PUSH1 0x1 PUSH1 0x80 SHL SUB DUP1 DUP3 AND PUSH0 SWAP1 DUP2 MSTORE PUSH1 0x2 PUSH1 0x20 MSTORE PUSH1 0x40 DUP2 KECCAK256 DUP1 SLOAD SWAP1 SWAP3 AND SWAP1 SUB PUSH2 0x80F JUMPI DUP2 PUSH1 0x40 MLOAD PUSH4 0x5E8F385 PUSH1 0xE4 SHL DUP2 MSTORE PUSH1 0x4 ADD PUSH2 0x570 SWAP2 SWAP1 PUSH2 0x1A6A JUMP JUMPDEST PUSH1 0x1 DUP2 ADD SLOAD PUSH1 0x1 PUSH1 0x1 PUSH1 0xA0 SHL SUB DUP5 DUP2 AND SWAP2 AND EQ PUSH2 0x859 JUMPI PUSH1 0x40 MLOAD PUSH4 0x71C4943F PUSH1 0xE0 SHL DUP2 MSTORE PUSH1 0x1 PUSH1 0x1 PUSH1 0xA0 SHL SUB DUP5 AND PUSH1 0x4 DUP3 ADD MSTORE PUSH1 0x1 PUSH1 0x1 PUSH1 0x80 SHL SUB DUP4 AND PUSH1 0x24 DUP3 ADD MSTORE PUSH1 0x44 ADD PUSH2 0x570 JUMP JUMPDEST PUSH0 PUSH1 0x5 DUP3 ADD SLOAD PUSH1 0xFF AND PUSH1 0x6 DUP2 GT ISZERO PUSH2 0x873 JUMPI PUSH2 0x873 PUSH2 0x18C0 JUMP JUMPDEST EQ ISZERO DUP1 ISZERO PUSH2 0x89A JUMPI POP PUSH1 0x1 PUSH1 0x5 DUP3 ADD SLOAD PUSH1 0xFF AND PUSH1 0x6 DUP2 GT ISZERO PUSH2 0x897 JUMPI PUSH2 0x897 PUSH2 0x18C0 JUMP JUMPDEST EQ ISZERO JUMPDEST ISZERO PUSH2 0x8C1 JUMPI PUSH1 0x5 DUP2 ADD SLOAD PUSH1 0x40 MLOAD PUSH4 0x388A923D PUSH1 0xE0 SHL DUP2 MSTORE PUSH2 0x570 SWAP2 PUSH1 0xFF AND SWAP1 PUSH1 0x4 ADD PUSH2 0x1DC9 JUMP JUMPDEST PUSH1 0x5 DUP2 ADD DUP1 SLOAD PUSH1 0xFF NOT DUP2 AND PUSH1 0x6 OR SWAP1 SWAP2 SSTORE PUSH1 0x4 DUP3 ADD SLOAD PUSH1 0xFF SWAP1 SWAP2 AND SWAP1 ISZERO PUSH2 0x95B JUMPI PUSH1 0x1 DUP3 ADD SLOAD PUSH1 0x4 DUP4 ADD SLOAD PUSH1 0x40 MLOAD PUSH0 SWAP3 PUSH1 0x1 PUSH1 0x1 PUSH1 0xA0 SHL SUB AND SWAP2 SWAP1 DUP4 DUP2 DUP2 DUP2 DUP6 DUP8 GAS CALL SWAP3 POP POP POP RETURNDATASIZE DUP1 PUSH0 DUP2 EQ PUSH2 0x932 JUMPI PUSH1 0x40 MLOAD SWAP2 POP PUSH1 0x1F NOT PUSH1 0x3F RETURNDATASIZE ADD AND DUP3 ADD PUSH1 0x40 MSTORE RETURNDATASIZE DUP3 MSTORE RETURNDATASIZE PUSH0 PUSH1 0x20 DUP5 ADD RETURNDATACOPY PUSH2 0x937 JUMP JUMPDEST PUSH1 0x60 SWAP2 POP JUMPDEST POP POP SWAP1 POP DUP1 PUSH2 0x959 JUMPI PUSH1 0x40 MLOAD PUSH4 0x4239E21D PUSH1 0xE1 SHL DUP2 MSTORE PUSH1 0x4 ADD PUSH1 0x40 MLOAD DUP1 SWAP2 SUB SWAP1 REVERT JUMPDEST POP JUMPDEST DUP4 PUSH1 0x1 PUSH1 0x1 PUSH1 0xA0 SHL SUB AND DUP4 PUSH1 0x1 PUSH1 0x1 PUSH1 0x80 SHL SUB AND PUSH32 0x70AF4296E6226C6EF4207BE3522FF55647A797B6DC909D2D31F67551E9ADAC5D DUP5 PUSH1 0x4 ADD SLOAD PUSH1 0x40 MLOAD PUSH2 0x9A4 SWAP2 DUP2 MSTORE PUSH1 0x20 ADD SWAP1 JUMP JUMPDEST PUSH1 0x40 MLOAD DUP1 SWAP2 SUB SWAP1 LOG3 DUP3 PUSH1 0x1 PUSH1 0x1 PUSH1 0x80 SHL SUB AND PUSH0 MLOAD PUSH1 0x20 PUSH2 0x2205 PUSH0 CODECOPY PUSH0 MLOAD SWAP1 PUSH0 MSTORE DUP3 PUSH1 0x6 PUSH1 0x40 MLOAD PUSH2 0x9D5 SWAP3 SWAP2 SWAP1 PUSH2 0x1DAE JUMP JUMPDEST PUSH1 0x40 MLOAD DUP1 SWAP2 SUB SWAP1 LOG2 POP POP PUSH2 0x9E8 PUSH1 0x1 PUSH0 SSTORE JUMP JUMPDEST POP POP JUMP JUMPDEST PUSH2 0x9F4 PUSH2 0x166C JUMP JUMPDEST PUSH2 0x9FD PUSH0 PUSH2 0x16C6 JUMP JUMPDEST JUMP JUMPDEST PUSH0 PUSH0 PUSH2 0xA09 PUSH2 0x1720 JUMP JUMPDEST SLOAD PUSH1 0x1 PUSH1 0x1 PUSH1 0xA0 SHL SUB AND SWAP3 SWAP2 POP POP JUMP JUMPDEST PUSH1 0x5 SLOAD PUSH1 0x1 PUSH1 0x1 PUSH1 0xA0 SHL SUB AND CALLER EQ PUSH2 0xA44 JUMPI PUSH1 0x40 MLOAD PUSH4 0x92B2F959 PUSH1 0xE0 SHL DUP2 MSTORE PUSH1 0x4 ADD PUSH1 0x40 MLOAD DUP1 SWAP2 SUB SWAP1 REVERT JUMPDEST PUSH2 0xA4C PUSH2 0x169E JUMP JUMPDEST DUP1 MLOAD DUP3 MLOAD EQ ISZERO DUP1 PUSH2 0xA5C JUMPI POP DUP2 MLOAD ISZERO JUMPDEST ISZERO PUSH2 0xA7A JUMPI PUSH1 0x40 MLOAD PUSH4 0x4482F209 PUSH1 0xE1 SHL DUP2 MSTORE PUSH1 0x4 ADD PUSH1 0x40 MLOAD DUP1 SWAP2 SUB SWAP1 REVERT JUMPDEST PUSH1 0x1 PUSH1 0x1 PUSH1 0xA0 SHL SUB DUP5 AND PUSH2 0xAA1 JUMPI PUSH1 0x40 MLOAD PUSH4 0x2B840735 PUSH1 0xE1 SHL DUP2 MSTORE PUSH1 0x4 ADD PUSH1 0x40 MLOAD DUP1 SWAP2 SUB SWAP1 REVERT JUMPDEST DUP2 MLOAD PUSH0 SWAP1 DUP2 SWAP1 DUP2 SWAP1 PUSH1 0x1 PUSH1 0x1 PUSH1 0x40 SHL SUB DUP2 GT ISZERO PUSH2 0xAC0 JUMPI PUSH2 0xAC0 PUSH2 0x1A7E JUMP JUMPDEST PUSH1 0x40 MLOAD SWAP1 DUP1 DUP3 MSTORE DUP1 PUSH1 0x20 MUL PUSH1 0x20 ADD DUP3 ADD PUSH1 0x40 MSTORE DUP1 ISZERO PUSH2 0xB10 JUMPI DUP2 PUSH1 0x20 ADD JUMPDEST PUSH1 0x40 DUP1 MLOAD PUSH1 0x80 DUP2 ADD DUP3 MSTORE PUSH0 DUP1 DUP3 MSTORE PUSH1 0x60 PUSH1 0x20 DUP1 DUP5 ADD DUP3 SWAP1 MSTORE SWAP4 DUP4 ADD DUP3 SWAP1 MSTORE DUP3 ADD MSTORE DUP3 MSTORE PUSH0 NOT SWAP1 SWAP3 ADD SWAP2 ADD DUP2 PUSH2 0xADE JUMPI SWAP1 POP JUMPDEST POP SWAP1 POP PUSH0 JUMPDEST DUP6 MLOAD DUP2 PUSH1 0x1 PUSH1 0x1 PUSH1 0x80 SHL SUB AND LT ISZERO PUSH2 0xDC0 JUMPI PUSH1 0x3 SLOAD DUP7 MLOAD PUSH0 SWAP2 PUSH1 0x1 PUSH1 0x1 PUSH1 0xA0 SHL SUB AND SWAP1 PUSH4 0xC528968 SWAP1 DUP11 SWAP1 DUP11 SWAP1 PUSH1 0x1 PUSH1 0x1 PUSH1 0x80 SHL SUB DUP8 AND SWAP1 DUP2 LT PUSH2 0xB5B JUMPI PUSH2 0xB5B PUSH2 0x1DF9 JUMP JUMPDEST PUSH1 0x20 MUL PUSH1 0x20 ADD ADD MLOAD PUSH1 0x40 MLOAD DUP4 PUSH4 0xFFFFFFFF AND PUSH1 0xE0 SHL DUP2 MSTORE PUSH1 0x4 ADD PUSH2 0xB80 SWAP3 SWAP2 SWAP1 PUSH2 0x1E0D JUMP JUMPDEST PUSH0 PUSH1 0x40 MLOAD DUP1 DUP4 SUB DUP2 DUP7 GAS STATICCALL ISZERO DUP1 ISZERO PUSH2 0xB9A JUMPI RETURNDATASIZE PUSH0 PUSH0 RETURNDATACOPY RETURNDATASIZE PUSH0 REVERT JUMPDEST POP POP POP POP PUSH1 0x40 MLOAD RETURNDATASIZE PUSH0 DUP3 RETURNDATACOPY PUSH1 0x1F RETURNDATASIZE SWAP1 DUP2 ADD PUSH1 0x1F NOT AND DUP3 ADD PUSH1 0x40 MSTORE PUSH2 0xBC1 SWAP2 SWAP1 DUP2 ADD SWAP1 PUSH2 0x1EB1 JUMP JUMPDEST DUP1 MLOAD SWAP1 SWAP2 POP PUSH1 0x1 PUSH1 0x1 PUSH1 0x80 SHL SUB AND PUSH0 SUB PUSH2 0xC14 JUMPI DUP8 DUP8 DUP4 PUSH1 0x1 PUSH1 0x1 PUSH1 0x80 SHL SUB AND DUP2 MLOAD DUP2 LT PUSH2 0xBF1 JUMPI PUSH2 0xBF1 PUSH2 0x1DF9 JUMP JUMPDEST PUSH1 0x20 MUL PUSH1 0x20 ADD ADD MLOAD PUSH1 0x40 MLOAD PUSH4 0x2489E14F PUSH1 0xE0 SHL DUP2 MSTORE PUSH1 0x4 ADD PUSH2 0x570 SWAP3 SWAP2 SWAP1 PUSH2 0x1E0D JUMP JUMPDEST DUP1 PUSH1 0xA0 ADD MLOAD PUSH2 0xC5A JUMPI DUP7 DUP3 PUSH1 0x1 PUSH1 0x1 PUSH1 0x80 SHL SUB AND DUP2 MLOAD DUP2 LT PUSH2 0xC38 JUMPI PUSH2 0xC38 PUSH2 0x1DF9 JUMP JUMPDEST PUSH1 0x20 MUL PUSH1 0x20 ADD ADD MLOAD PUSH1 0x40 MLOAD PUSH4 0x3C719BB PUSH1 0xE5 SHL DUP2 MSTORE PUSH1 0x4 ADD PUSH2 0x570 SWAP2 SWAP1 PUSH2 0x1A6A JUMP JUMPDEST DUP6 DUP3 PUSH1 0x1 PUSH1 0x1 PUSH1 0x80 SHL SUB AND DUP2 MLOAD DUP2 LT PUSH2 0xC75 JUMPI PUSH2 0xC75 PUSH2 0x1DF9 JUMP JUMPDEST PUSH1 0x20 MUL PUSH1 0x20 ADD ADD MLOAD PUSH1 0x1 PUSH1 0x1 PUSH1 0x80 SHL SUB AND PUSH0 SUB PUSH2 0xCA5 JUMPI PUSH1 0x40 MLOAD PUSH4 0x4482F209 PUSH1 0xE1 SHL DUP2 MSTORE PUSH1 0x4 ADD PUSH1 0x40 MLOAD DUP1 SWAP2 SUB SWAP1 REVERT JUMPDEST DUP6 DUP3 PUSH1 0x1 PUSH1 0x1 PUSH1 0x80 SHL SUB AND DUP2 MLOAD DUP2 LT PUSH2 0xCC0 JUMPI PUSH2 0xCC0 PUSH2 0x1DF9 JUMP JUMPDEST PUSH1 0x20 MUL PUSH1 0x20 ADD ADD MLOAD PUSH1 0x1 PUSH1 0x1 PUSH1 0x80 SHL SUB AND DUP2 PUSH1 0x80 ADD MLOAD PUSH1 0x1 PUSH1 0x1 PUSH1 0x80 SHL SUB AND PUSH2 0xCE9 SWAP2 SWAP1 PUSH2 0x202B JUMP JUMPDEST PUSH2 0xCF3 SWAP1 DUP7 PUSH2 0x2042 JUMP JUMPDEST SWAP5 POP DUP4 PUSH1 0x1 PUSH1 0x1 PUSH1 0x80 SHL SUB AND DUP2 PUSH2 0x140 ADD MLOAD PUSH1 0x1 PUSH1 0x1 PUSH1 0x80 SHL SUB AND GT ISZERO PUSH2 0xD1D JUMPI DUP1 PUSH2 0x140 ADD MLOAD SWAP4 POP JUMPDEST PUSH1 0x40 MLOAD DUP1 PUSH1 0x80 ADD PUSH1 0x40 MSTORE DUP1 DUP3 PUSH0 ADD MLOAD PUSH1 0x1 PUSH1 0x1 PUSH1 0x80 SHL SUB AND DUP2 MSTORE PUSH1 0x20 ADD DUP3 PUSH1 0x40 ADD MLOAD DUP2 MSTORE PUSH1 0x20 ADD DUP3 PUSH1 0x80 ADD MLOAD PUSH1 0x1 PUSH1 0x1 PUSH1 0x80 SHL SUB AND DUP2 MSTORE PUSH1 0x20 ADD DUP8 DUP5 PUSH1 0x1 PUSH1 0x1 PUSH1 0x80 SHL SUB AND DUP2 MLOAD DUP2 LT PUSH2 0xD72 JUMPI PUSH2 0xD72 PUSH2 0x1DF9 JUMP JUMPDEST PUSH1 0x20 MUL PUSH1 0x20 ADD ADD MLOAD PUSH1 0x1 PUSH1 0x1 PUSH1 0x80 SHL SUB AND DUP2 MSTORE POP DUP4 DUP4 PUSH1 0x1 PUSH1 0x1 PUSH1 0x80 SHL SUB AND DUP2 MLOAD DUP2 LT PUSH2 0xDA1 JUMPI PUSH2 0xDA1 PUSH2 0x1DF9 JUMP JUMPDEST PUSH1 0x20 MUL PUSH1 0x20 ADD ADD DUP2 SWAP1 MSTORE POP POP DUP1 DUP1 PUSH2 0xDB8 SWAP1 PUSH2 0x2055 JUMP JUMPDEST SWAP2 POP POP PUSH2 0xB15 JUMP JUMPDEST POP DUP3 CALLVALUE LT ISZERO PUSH2 0xDEB JUMPI PUSH1 0x40 MLOAD PUSH4 0x5BB47931 PUSH1 0xE1 SHL DUP2 MSTORE PUSH1 0x4 DUP2 ADD DUP5 SWAP1 MSTORE CALLVALUE PUSH1 0x24 DUP3 ADD MSTORE PUSH1 0x44 ADD PUSH2 0x570 JUMP JUMPDEST DUP3 CALLVALUE GT ISZERO PUSH2 0xE6A JUMPI PUSH0 PUSH1 0x1 PUSH1 0x1 PUSH1 0xA0 SHL SUB DUP9 AND PUSH2 0xE08 DUP6 CALLVALUE PUSH2 0x2080 JUMP JUMPDEST PUSH1 0x40 MLOAD PUSH0 DUP2 DUP2 DUP2 DUP6 DUP8 GAS CALL SWAP3 POP POP POP RETURNDATASIZE DUP1 PUSH0 DUP2 EQ PUSH2 0xE41 JUMPI PUSH1 0x40 MLOAD SWAP2 POP PUSH1 0x1F NOT PUSH1 0x3F RETURNDATASIZE ADD AND DUP3 ADD PUSH1 0x40 MSTORE RETURNDATASIZE DUP3 MSTORE RETURNDATASIZE PUSH0 PUSH1 0x20 DUP5 ADD RETURNDATACOPY PUSH2 0xE46 JUMP JUMPDEST PUSH1 0x60 SWAP2 POP JUMPDEST POP POP SWAP1 POP DUP1 PUSH2 0xE68 JUMPI PUSH1 0x40 MLOAD PUSH4 0x4239E21D PUSH1 0xE1 SHL DUP2 MSTORE PUSH1 0x4 ADD PUSH1 0x40 MLOAD DUP1 SWAP2 SUB SWAP1 REVERT JUMPDEST POP JUMPDEST PUSH0 PUSH1 0x1 PUSH0 SWAP1 SLOAD SWAP1 PUSH2 0x100 EXP SWAP1 DIV PUSH1 0x1 PUSH1 0x1 PUSH1 0x80 SHL SUB AND SWAP1 POP PUSH0 PUSH1 0x2 PUSH0 DUP4 PUSH1 0x1 PUSH1 0x1 PUSH1 0x80 SHL SUB AND PUSH1 0x1 PUSH1 0x1 PUSH1 0x80 SHL SUB AND DUP2 MSTORE PUSH1 0x20 ADD SWAP1 DUP2 MSTORE PUSH1 0x20 ADD PUSH0 KECCAK256 SWAP1 POP DUP2 DUP2 PUSH0 ADD PUSH0 PUSH2 0x100 EXP DUP2 SLOAD DUP2 PUSH1 0x1 PUSH1 0x1 PUSH1 0x80 SHL SUB MUL NOT AND SWAP1 DUP4 PUSH1 0x1 PUSH1 0x1 PUSH1 0x80 SHL SUB AND MUL OR SWAP1 SSTORE POP DUP9 DUP2 PUSH1 0x1 ADD PUSH0 PUSH2 0x100 EXP DUP2 SLOAD DUP2 PUSH1 0x1 PUSH1 0x1 PUSH1 0xA0 SHL SUB MUL NOT AND SWAP1 DUP4 PUSH1 0x1 PUSH1 0x1 PUSH1 0xA0 SHL SUB AND MUL OR SWAP1 SSTORE POP DUP8 DUP2 PUSH1 0x2 ADD PUSH0 PUSH2 0x100 EXP DUP2 SLOAD DUP2 PUSH1 0x1 PUSH1 0x1 PUSH1 0x80 SHL SUB MUL NOT AND SWAP1 DUP4 PUSH1 0x1 PUSH1 0x1 PUSH1 0x80 SHL SUB AND MUL OR SWAP1 SSTORE POP DUP5 DUP2 PUSH1 0x4 ADD DUP2 SWAP1 SSTORE POP PUSH0 DUP2 PUSH1 0x5 ADD PUSH0 PUSH2 0x100 EXP DUP2 SLOAD DUP2 PUSH1 0xFF MUL NOT AND SWAP1 DUP4 PUSH1 0x6 DUP2 GT ISZERO PUSH2 0xF4D JUMPI PUSH2 0xF4D PUSH2 0x18C0 JUMP JUMPDEST MUL OR SWAP1 SSTORE POP PUSH1 0x5 DUP2 ADD DUP1 SLOAD PUSH1 0x1 PUSH1 0x1 PUSH1 0x80 SHL SUB TIMESTAMP DUP2 AND PUSH2 0x100 MUL PUSH2 0x100 PUSH1 0x1 PUSH1 0x88 SHL SUB NOT SWAP1 SWAP3 AND SWAP2 SWAP1 SWAP2 OR SWAP1 SWAP2 SSTORE PUSH1 0x6 DUP3 ADD DUP1 SLOAD SWAP2 DUP7 AND PUSH1 0x1 PUSH1 0x1 PUSH1 0x80 SHL SUB NOT SWAP1 SWAP3 AND SWAP2 SWAP1 SWAP2 OR SWAP1 SSTORE PUSH0 JUMPDEST DUP4 MLOAD DUP2 LT ISZERO PUSH2 0x103D JUMPI DUP2 PUSH1 0x3 ADD DUP5 DUP3 DUP2 MLOAD DUP2 LT PUSH2 0xFB7 JUMPI PUSH2 0xFB7 PUSH2 0x1DF9 JUMP JUMPDEST PUSH1 0x20 SWAP1 DUP2 MUL SWAP2 SWAP1 SWAP2 ADD DUP2 ADD MLOAD DUP3 SLOAD PUSH1 0x1 DUP1 DUP3 ADD DUP6 SSTORE PUSH0 SWAP5 DUP6 MSTORE SWAP4 DUP4 SWAP1 KECCAK256 DUP3 MLOAD PUSH1 0x3 SWAP1 SWAP3 MUL ADD DUP1 SLOAD PUSH1 0x1 PUSH1 0x1 PUSH1 0x80 SHL SUB NOT AND PUSH1 0x1 PUSH1 0x1 PUSH1 0x80 SHL SUB SWAP1 SWAP3 AND SWAP2 SWAP1 SWAP2 OR DUP2 SSTORE SWAP2 DUP2 ADD MLOAD SWAP1 SWAP3 DUP3 ADD SWAP1 PUSH2 0x100C SWAP1 DUP3 PUSH2 0x20DE JUMP JUMPDEST POP PUSH1 0x40 DUP3 ADD MLOAD PUSH1 0x60 SWAP1 SWAP3 ADD MLOAD PUSH1 0x1 PUSH1 0x1 PUSH1 0x80 SHL SUB SWAP1 DUP2 AND PUSH1 0x1 PUSH1 0x80 SHL MUL SWAP3 AND SWAP2 SWAP1 SWAP2 OR PUSH1 0x2 SWAP1 SWAP2 ADD SSTORE PUSH1 0x1 ADD PUSH2 0xF98 JUMP JUMPDEST POP DUP8 PUSH1 0x1 PUSH1 0x1 PUSH1 0x80 SHL SUB AND DUP10 PUSH1 0x1 PUSH1 0x1 PUSH1 0xA0 SHL SUB AND DUP4 PUSH1 0x1 PUSH1 0x1 PUSH1 0x80 SHL SUB AND PUSH32 0x6CE2BB89BF47987F896A72756397A4441F5BE463C46B39A4102F8108D5ADE5E0 DUP9 PUSH1 0x40 MLOAD PUSH2 0x108D SWAP2 DUP2 MSTORE PUSH1 0x20 ADD SWAP1 JUMP JUMPDEST PUSH1 0x40 MLOAD DUP1 SWAP2 SUB SWAP1 LOG4 PUSH1 0x1 DUP1 SLOAD PUSH1 0x1 PUSH1 0x1 PUSH1 0x80 SHL SUB AND SWAP1 PUSH0 PUSH2 0x10AD DUP4 PUSH2 0x2055 JUMP JUMPDEST SWAP2 SWAP1 PUSH2 0x100 EXP DUP2 SLOAD DUP2 PUSH1 0x1 PUSH1 0x1 PUSH1 0x80 SHL SUB MUL NOT AND SWAP1 DUP4 PUSH1 0x1 PUSH1 0x1 PUSH1 0x80 SHL SUB AND MUL OR SWAP1 SSTORE POP POP POP POP POP POP POP PUSH2 0x10E0 PUSH1 0x1 PUSH0 SSTORE JUMP JUMPDEST POP POP POP POP JUMP JUMPDEST PUSH1 0x5 SLOAD PUSH1 0x1 PUSH1 0x1 PUSH1 0xA0 SHL SUB AND CALLER EQ PUSH2 0x1111 JUMPI PUSH1 0x40 MLOAD PUSH4 0x92B2F959 PUSH1 0xE0 SHL DUP2 MSTORE PUSH1 0x4 ADD PUSH1 0x40 MLOAD DUP1 SWAP2 SUB SWAP1 REVERT JUMPDEST PUSH2 0x1119 PUSH2 0x169E JUMP JUMPDEST PUSH1 0x1 PUSH1 0x1 PUSH1 0x80 SHL SUB DUP1 DUP4 AND PUSH0 SWAP1 DUP2 MSTORE PUSH1 0x2 PUSH1 0x20 MSTORE PUSH1 0x40 DUP2 KECCAK256 DUP1 SLOAD SWAP1 SWAP3 AND SWAP1 SUB PUSH2 0x1157 JUMPI DUP3 PUSH1 0x40 MLOAD PUSH4 0x5E8F385 PUSH1 0xE4 SHL DUP2 MSTORE PUSH1 0x4 ADD PUSH2 0x570 SWAP2 SWAP1 PUSH2 0x1A6A JUMP JUMPDEST PUSH1 0x2 DUP2 ADD SLOAD PUSH1 0x1 PUSH1 0x1 PUSH1 0x80 SHL SUB DUP4 DUP2 AND SWAP2 AND EQ PUSH2 0x119C JUMPI PUSH1 0x2 DUP2 ADD SLOAD PUSH1 0x40 MLOAD PUSH4 0xD52781E9 PUSH1 0xE0 SHL DUP2 MSTORE PUSH2 0x570 SWAP2 DUP7 SWAP2 PUSH1 0x1 PUSH1 0x1 PUSH1 0x80 SHL SUB SWAP1 SWAP2 AND SWAP1 DUP6 SWAP1 PUSH1 0x4 ADD PUSH2 0x1D44 JUMP JUMPDEST PUSH1 0x3 PUSH1 0x5 DUP3 ADD SLOAD PUSH1 0xFF AND PUSH1 0x6 DUP2 GT ISZERO PUSH2 0x11B7 JUMPI PUSH2 0x11B7 PUSH2 0x18C0 JUMP JUMPDEST EQ ISZERO DUP1 ISZERO PUSH2 0x11DE JUMPI POP PUSH1 0x4 PUSH1 0x5 DUP3 ADD SLOAD PUSH1 0xFF AND PUSH1 0x6 DUP2 GT ISZERO PUSH2 0x11DB JUMPI PUSH2 0x11DB PUSH2 0x18C0 JUMP JUMPDEST EQ ISZERO JUMPDEST ISZERO PUSH2 0x1205 JUMPI PUSH1 0x5 DUP2 ADD SLOAD PUSH1 0x40 MLOAD PUSH4 0x388A923D PUSH1 0xE0 SHL DUP2 MSTORE PUSH2 0x570 SWAP2 PUSH1 0xFF AND SWAP1 PUSH1 0x4 ADD PUSH2 0x2198 JUMP JUMPDEST PUSH1 0x5 DUP2 DUP2 ADD DUP1 SLOAD PUSH1 0xFF NOT DUP2 AND SWAP1 SWAP3 OR SWAP1 SSTORE PUSH1 0x4 DUP1 SLOAD PUSH1 0x2 DUP5 ADD SLOAD PUSH1 0x40 MLOAD PUSH4 0xB9588327 PUSH1 0xE0 SHL DUP2 MSTORE PUSH1 0xFF SWAP1 SWAP5 AND SWAP4 PUSH0 SWAP4 PUSH1 0x1 PUSH1 0x1 PUSH1 0xA0 SHL SUB SWAP1 SWAP4 AND SWAP3 PUSH4 0xB9588327 SWAP3 PUSH2 0x125C SWAP3 PUSH1 0x1 PUSH1 0x1 PUSH1 0x80 SHL SUB SWAP1 SWAP2 AND SWAP2 ADD PUSH2 0x1A6A JUMP JUMPDEST PUSH1 0x20 PUSH1 0x40 MLOAD DUP1 DUP4 SUB DUP2 DUP7 GAS STATICCALL ISZERO DUP1 ISZERO PUSH2 0x1277 JUMPI RETURNDATASIZE PUSH0 PUSH0 RETURNDATACOPY RETURNDATASIZE PUSH0 REVERT JUMPDEST POP POP POP POP PUSH1 0x40 MLOAD RETURNDATASIZE PUSH1 0x1F NOT PUSH1 0x1F DUP3 ADD AND DUP3 ADD DUP1 PUSH1 0x40 MSTORE POP DUP2 ADD SWAP1 PUSH2 0x129B SWAP2 SWAP1 PUSH2 0x21CA JUMP JUMPDEST SWAP1 POP PUSH1 0x1 PUSH1 0x1 PUSH1 0xA0 SHL SUB DUP2 AND PUSH2 0x12D3 JUMPI PUSH1 0x2 DUP4 ADD SLOAD PUSH1 0x40 MLOAD PUSH4 0x10DE8DC5 PUSH1 0xE3 SHL DUP2 MSTORE PUSH2 0x570 SWAP2 PUSH1 0x1 PUSH1 0x1 PUSH1 0x80 SHL SUB AND SWAP1 PUSH1 0x4 ADD PUSH2 0x1A6A JUMP JUMPDEST PUSH1 0x4 DUP4 ADD SLOAD PUSH1 0x6 SLOAD PUSH0 SWAP1 ISZERO DUP1 ISZERO SWAP1 PUSH2 0x12EE JUMPI POP PUSH1 0x64 PUSH1 0x6 SLOAD GT ISZERO JUMPDEST ISZERO PUSH2 0x1326 JUMPI PUSH1 0x64 PUSH1 0x6 SLOAD DUP7 PUSH1 0x4 ADD SLOAD PUSH2 0x1307 SWAP2 SWAP1 PUSH2 0x202B JUMP JUMPDEST PUSH2 0x1311 SWAP2 SWAP1 PUSH2 0x21E5 JUMP JUMPDEST SWAP1 POP DUP1 DUP6 PUSH1 0x4 ADD SLOAD PUSH2 0x1323 SWAP2 SWAP1 PUSH2 0x2080 JUMP JUMPDEST SWAP2 POP JUMPDEST DUP2 ISZERO PUSH2 0x139E JUMPI PUSH0 DUP4 PUSH1 0x1 PUSH1 0x1 PUSH1 0xA0 SHL SUB AND DUP4 PUSH1 0x40 MLOAD PUSH0 PUSH1 0x40 MLOAD DUP1 DUP4 SUB DUP2 DUP6 DUP8 GAS CALL SWAP3 POP POP POP RETURNDATASIZE DUP1 PUSH0 DUP2 EQ PUSH2 0x1375 JUMPI PUSH1 0x40 MLOAD SWAP2 POP PUSH1 0x1F NOT PUSH1 0x3F RETURNDATASIZE ADD AND DUP3 ADD PUSH1 0x40 MSTORE RETURNDATASIZE DUP3 MSTORE RETURNDATASIZE PUSH0 PUSH1 0x20 DUP5 ADD RETURNDATACOPY PUSH2 0x137A JUMP JUMPDEST PUSH1 0x60 SWAP2 POP JUMPDEST POP POP SWAP1 POP DUP1 PUSH2 0x139C JUMPI PUSH1 0x40 MLOAD PUSH4 0x4239E21D PUSH1 0xE1 SHL DUP2 MSTORE PUSH1 0x4 ADD PUSH1 0x40 MLOAD DUP1 SWAP2 SUB SWAP1 REVERT JUMPDEST POP JUMPDEST PUSH1 0x40 DUP1 MLOAD DUP4 DUP2 MSTORE PUSH1 0x20 DUP2 ADD DUP4 SWAP1 MSTORE PUSH1 0x1 PUSH1 0x1 PUSH1 0xA0 SHL SUB DUP6 AND SWAP2 PUSH1 0x1 PUSH1 0x1 PUSH1 0x80 SHL SUB DUP11 AND SWAP2 PUSH32 0xD2A6AEE9265D7E28B871C25501ABE610595EECB7DD2F5DDE2D7C55A5CE7F644F SWAP2 ADD PUSH1 0x40 MLOAD DUP1 SWAP2 SUB SWAP1 LOG3 DUP7 PUSH1 0x1 PUSH1 0x1 PUSH1 0x80 SHL SUB AND PUSH0 MLOAD PUSH1 0x20 PUSH2 0x2205 PUSH0 CODECOPY PUSH0 MLOAD SWAP1 PUSH0 MSTORE DUP6 PUSH1 0x5 PUSH1 0x40 MLOAD PUSH2 0x1416 SWAP3 SWAP2 SWAP1 PUSH2 0x1DAE JUMP JUMPDEST PUSH1 0x40 MLOAD DUP1 SWAP2 SUB SWAP1 LOG2 POP POP POP POP POP PUSH2 0x142C PUSH1 0x1 PUSH0 SSTORE JUMP JUMPDEST POP POP POP JUMP JUMPDEST PUSH2 0x1439 PUSH2 0x166C JUMP JUMPDEST PUSH1 0x1 PUSH1 0x1 PUSH1 0xA0 SHL SUB DUP2 AND PUSH2 0x1462 JUMPI PUSH0 PUSH1 0x40 MLOAD PUSH4 0x1E4FBDF7 PUSH1 0xE0 SHL DUP2 MSTORE PUSH1 0x4 ADD PUSH2 0x570 SWAP2 SWAP1 PUSH2 0x1A56 JUMP JUMPDEST PUSH2 0x146B DUP2 PUSH2 0x16C6 JUMP JUMPDEST POP JUMP JUMPDEST PUSH0 PUSH2 0x1477 PUSH2 0x1744 JUMP JUMPDEST DUP1 SLOAD SWAP1 SWAP2 POP PUSH1 0xFF PUSH1 0x1 PUSH1 0x40 SHL DUP3 DIV AND ISZERO SWAP1 PUSH1 0x1 PUSH1 0x1 PUSH1 0x40 SHL SUB AND PUSH0 DUP2 ISZERO DUP1 ISZERO PUSH2 0x149D JUMPI POP DUP3 JUMPDEST SWAP1 POP PUSH0 DUP3 PUSH1 0x1 PUSH1 0x1 PUSH1 0x40 SHL SUB AND PUSH1 0x1 EQ DUP1 ISZERO PUSH2 0x14B8 JUMPI POP ADDRESS EXTCODESIZE ISZERO JUMPDEST SWAP1 POP DUP2 ISZERO DUP1 ISZERO PUSH2 0x14C6 JUMPI POP DUP1 ISZERO JUMPDEST ISZERO PUSH2 0x14E4 JUMPI PUSH1 0x40 MLOAD PUSH4 0xF92EE8A9 PUSH1 0xE0 SHL DUP2 MSTORE PUSH1 0x4 ADD PUSH1 0x40 MLOAD DUP1 SWAP2 SUB SWAP1 REVERT JUMPDEST DUP5 SLOAD PUSH1 0x1 PUSH1 0x1 PUSH1 0x40 SHL SUB NOT AND PUSH1 0x1 OR DUP6 SSTORE DUP4 ISZERO PUSH2 0x150D JUMPI DUP5 SLOAD PUSH1 0xFF PUSH1 0x40 SHL NOT AND PUSH1 0x1 PUSH1 0x40 SHL OR DUP6 SSTORE JUMPDEST PUSH1 0x1 PUSH1 0x1 PUSH1 0xA0 SHL SUB DUP10 AND PUSH2 0x1534 JUMPI PUSH1 0x40 MLOAD PUSH4 0x2B840735 PUSH1 0xE1 SHL DUP2 MSTORE PUSH1 0x4 ADD PUSH1 0x40 MLOAD DUP1 SWAP2 SUB SWAP1 REVERT JUMPDEST PUSH1 0x1 PUSH1 0x1 PUSH1 0xA0 SHL SUB DUP9 AND PUSH2 0x1579 JUMPI PUSH1 0x40 MLOAD PUSH4 0x1F7ECDFF PUSH1 0xE3 SHL DUP2 MSTORE PUSH1 0x20 PUSH1 0x4 DUP3 ADD MSTORE PUSH1 0xB PUSH1 0x24 DUP3 ADD MSTORE PUSH11 0x26B2B73AA6B0B730B3B2B9 PUSH1 0xA9 SHL PUSH1 0x44 DUP3 ADD MSTORE PUSH1 0x64 ADD PUSH2 0x570 JUMP JUMPDEST PUSH1 0x1 PUSH1 0x1 PUSH1 0xA0 SHL SUB DUP8 AND PUSH2 0x15C4 JUMPI PUSH1 0x40 MLOAD PUSH4 0x1F7ECDFF PUSH1 0xE3 SHL DUP2 MSTORE PUSH1 0x20 PUSH1 0x4 DUP3 ADD MSTORE PUSH1 0x11 PUSH1 0x24 DUP3 ADD MSTORE PUSH17 0x2932B9BA30BAB930B73A26B0B730B3B2B9 PUSH1 0x79 SHL PUSH1 0x44 DUP3 ADD MSTORE PUSH1 0x64 ADD PUSH2 0x570 JUMP JUMPDEST PUSH2 0x15CD DUP7 PUSH2 0x176C JUMP JUMPDEST PUSH1 0x5 DUP1 SLOAD PUSH1 0x1 PUSH1 0x1 PUSH1 0xA0 SHL SUB DUP1 DUP13 AND PUSH1 0x1 PUSH1 0x1 PUSH1 0xA0 SHL SUB NOT SWAP3 DUP4 AND OR DUP4 SSTORE PUSH1 0x3 DUP1 SLOAD DUP13 DUP4 AND SWAP1 DUP5 AND OR SWAP1 SSTORE PUSH1 0x4 DUP1 SLOAD SWAP2 DUP12 AND SWAP2 SWAP1 SWAP3 AND OR SWAP1 SSTORE PUSH1 0x1 DUP1 SLOAD PUSH1 0x1 PUSH1 0x1 PUSH1 0x80 SHL SUB NOT AND DUP2 OR SWAP1 SSTORE PUSH1 0x6 SSTORE DUP4 ISZERO PUSH2 0x1661 JUMPI DUP5 SLOAD PUSH1 0xFF PUSH1 0x40 SHL NOT AND DUP6 SSTORE PUSH1 0x40 MLOAD PUSH1 0x1 DUP2 MSTORE PUSH32 0xC7F505B2F371AE2175EE4913F4499E1F2633A7B5936321EED1CDAEB6115181D2 SWAP1 PUSH1 0x20 ADD PUSH1 0x40 MLOAD DUP1 SWAP2 SUB SWAP1 LOG1 JUMPDEST POP POP POP POP POP POP POP POP POP JUMP JUMPDEST CALLER PUSH2 0x1675 PUSH2 0x9FF JUMP JUMPDEST PUSH1 0x1 PUSH1 0x1 PUSH1 0xA0 SHL SUB AND EQ PUSH2 0x9FD JUMPI CALLER PUSH1 0x40 MLOAD PUSH4 0x118CDAA7 PUSH1 0xE0 SHL DUP2 MSTORE PUSH1 0x4 ADD PUSH2 0x570 SWAP2 SWAP1 PUSH2 0x1A56 JUMP JUMPDEST PUSH1 0x2 PUSH0 SLOAD SUB PUSH2 0x16C0 JUMPI PUSH1 0x40 MLOAD PUSH4 0x3EE5AEB5 PUSH1 0xE0 SHL DUP2 MSTORE PUSH1 0x4 ADD PUSH1 0x40 MLOAD DUP1 SWAP2 SUB SWAP1 REVERT JUMPDEST PUSH1 0x2 PUSH0 SSTORE JUMP JUMPDEST PUSH0 PUSH2 0x16CF PUSH2 0x1720 JUMP JUMPDEST DUP1 SLOAD PUSH1 0x1 PUSH1 0x1 PUSH1 0xA0 SHL SUB DUP5 DUP2 AND PUSH1 0x1 PUSH1 0x1 PUSH1 0xA0 SHL SUB NOT DUP4 AND DUP2 OR DUP5 SSTORE PUSH1 0x40 MLOAD SWAP4 SWAP5 POP SWAP2 AND SWAP2 DUP3 SWAP1 PUSH32 0x8BE0079C531659141344CD1FD0A4F28419497F9722A3DAAFE3B4186F6B6457E0 SWAP1 PUSH0 SWAP1 LOG3 POP POP POP JUMP JUMPDEST PUSH32 0x9016D09D72D40FDAE2FD8CEAC6B6234C7706214FD39C1CD1E609A0528C199300 SWAP1 JUMP JUMPDEST PUSH0 DUP1 PUSH32 0xF0C57E16840DF040F15088DC2F81FE391C3923BEC73E23A9662EFC9C229C6A00 PUSH2 0x579 JUMP JUMPDEST PUSH2 0x1774 PUSH2 0x177D JUMP JUMPDEST PUSH2 0x146B DUP2 PUSH2 0x17A2 JUMP JUMPDEST PUSH2 0x1785 PUSH2 0x17AA JUMP JUMPDEST PUSH2 0x9FD JUMPI PUSH1 0x40 MLOAD PUSH4 0x1AFCD79F PUSH1 0xE3 SHL DUP2 MSTORE PUSH1 0x4 ADD PUSH1 0x40 MLOAD DUP1 SWAP2 SUB SWAP1 REVERT JUMPDEST PUSH2 0x1439 PUSH2 0x177D JUMP JUMPDEST PUSH0 PUSH2 0x17B3 PUSH2 0x1744 JUMP JUMPDEST SLOAD PUSH1 0x1 PUSH1 0x40 SHL SWAP1 DIV PUSH1 0xFF AND SWAP2 SWAP1 POP JUMP JUMPDEST PUSH1 0x1 PUSH1 0x1 PUSH1 0x80 SHL SUB DUP2 AND DUP2 EQ PUSH2 0x146B JUMPI PUSH0 PUSH0 REVERT JUMPDEST PUSH0 PUSH1 0x20 DUP3 DUP5 SUB SLT ISZERO PUSH2 0x17E7 JUMPI PUSH0 PUSH0 REVERT JUMPDEST DUP2 CALLDATALOAD PUSH2 0x17F2 DUP2 PUSH2 0x17C3 JUMP JUMPDEST SWAP4 SWAP3 POP POP POP JUMP JUMPDEST PUSH1 0x1 PUSH1 0x1 PUSH1 0x80 SHL SUB AND SWAP1 MSTORE JUMP JUMPDEST PUSH0 DUP3 DUP3 MLOAD DUP1 DUP6 MSTORE PUSH1 0x20 DUP6 ADD SWAP5 POP PUSH1 0x20 DUP2 PUSH1 0x5 SHL DUP4 ADD ADD PUSH1 0x20 DUP6 ADD PUSH0 JUMPDEST DUP4 DUP2 LT ISZERO PUSH2 0x18B4 JUMPI PUSH1 0x1F NOT DUP6 DUP5 SUB ADD DUP9 MSTORE DUP2 MLOAD PUSH1 0x1 DUP1 PUSH1 0x80 SHL SUB DUP2 MLOAD AND DUP5 MSTORE PUSH1 0x20 DUP2 ADD MLOAD PUSH1 0x80 PUSH1 0x20 DUP7 ADD MSTORE DUP1 MLOAD DUP1 PUSH1 0x80 DUP8 ADD MSTORE DUP1 PUSH1 0x20 DUP4 ADD PUSH1 0xA0 DUP9 ADD MCOPY PUSH0 PUSH1 0xA0 DUP3 DUP9 ADD ADD MSTORE PUSH1 0x1 DUP1 PUSH1 0x80 SHL SUB PUSH1 0x40 DUP5 ADD MLOAD AND PUSH1 0x40 DUP8 ADD MSTORE PUSH1 0x1 DUP1 PUSH1 0x80 SHL SUB PUSH1 0x60 DUP5 ADD MLOAD AND PUSH1 0x60 DUP8 ADD MSTORE PUSH1 0xA0 PUSH1 0x1F NOT PUSH1 0x1F DUP4 ADD AND DUP8 ADD ADD SWAP6 POP POP POP POP PUSH1 0x20 DUP3 ADD SWAP2 POP PUSH1 0x20 DUP9 ADD SWAP8 POP PUSH1 0x1 DUP2 ADD SWAP1 POP PUSH2 0x1822 JUMP JUMPDEST POP SWAP1 SWAP7 SWAP6 POP POP POP POP POP POP JUMP JUMPDEST PUSH4 0x4E487B71 PUSH1 0xE0 SHL PUSH0 MSTORE PUSH1 0x21 PUSH1 0x4 MSTORE PUSH1 0x24 PUSH0 REVERT JUMPDEST PUSH1 0x7 DUP2 LT PUSH2 0x18F0 JUMPI PUSH4 0x4E487B71 PUSH1 0xE0 SHL PUSH0 MSTORE PUSH1 0x21 PUSH1 0x4 MSTORE PUSH1 0x24 PUSH0 REVERT JUMPDEST SWAP1 MSTORE JUMP JUMPDEST PUSH1 0x20 DUP1 DUP3 MSTORE DUP3 MLOAD PUSH1 0x1 PUSH1 0x1 PUSH1 0x80 SHL SUB AND DUP3 DUP3 ADD MSTORE DUP3 ADD MLOAD PUSH1 0x1 PUSH1 0x1 PUSH1 0xA0 SHL SUB AND PUSH1 0x40 DUP1 DUP4 ADD SWAP2 SWAP1 SWAP2 MSTORE DUP3 ADD MLOAD PUSH0 SWAP1 PUSH2 0x192F PUSH1 0x60 DUP5 ADD DUP3 PUSH2 0x17F9 JUMP JUMPDEST POP PUSH1 0x60 DUP4 ADD MLOAD PUSH2 0x100 PUSH1 0x80 DUP5 ADD MSTORE PUSH2 0x194B PUSH2 0x120 DUP5 ADD DUP3 PUSH2 0x1806 JUMP JUMPDEST SWAP1 POP PUSH1 0x80 DUP5 ADD MLOAD PUSH1 0xA0 DUP5 ADD MSTORE PUSH1 0xA0 DUP5 ADD MLOAD PUSH2 0x1969 PUSH1 0xC0 DUP6 ADD DUP3 PUSH2 0x18D4 JUMP JUMPDEST POP PUSH1 0xC0 DUP5 ADD MLOAD PUSH2 0x197C PUSH1 0xE0 DUP6 ADD DUP3 PUSH2 0x17F9 JUMP JUMPDEST POP PUSH1 0xE0 DUP5 ADD MLOAD PUSH2 0x1990 PUSH2 0x100 DUP6 ADD DUP3 PUSH2 0x17F9 JUMP JUMPDEST POP SWAP4 SWAP3 POP POP POP JUMP JUMPDEST PUSH0 PUSH1 0x20 DUP3 DUP5 SUB SLT ISZERO PUSH2 0x19A8 JUMPI PUSH0 PUSH0 REVERT JUMPDEST POP CALLDATALOAD SWAP2 SWAP1 POP JUMP JUMPDEST PUSH1 0x1 PUSH1 0x1 PUSH1 0xA0 SHL SUB DUP2 AND DUP2 EQ PUSH2 0x146B JUMPI PUSH0 PUSH0 REVERT JUMPDEST PUSH0 PUSH0 PUSH0 PUSH0 PUSH1 0x80 DUP6 DUP8 SUB SLT ISZERO PUSH2 0x19D6 JUMPI PUSH0 PUSH0 REVERT JUMPDEST DUP5 CALLDATALOAD PUSH2 0x19E1 DUP2 PUSH2 0x19AF JUMP JUMPDEST SWAP4 POP PUSH1 0x20 DUP6 ADD CALLDATALOAD PUSH2 0x19F1 DUP2 PUSH2 0x17C3 JUMP JUMPDEST SWAP3 POP PUSH1 0x40 DUP6 ADD CALLDATALOAD PUSH1 0x7 DUP2 LT PUSH2 0x1A04 JUMPI PUSH0 PUSH0 REVERT JUMPDEST SWAP2 POP PUSH1 0x60 DUP6 ADD CALLDATALOAD PUSH2 0x1A14 DUP2 PUSH2 0x17C3 JUMP JUMPDEST SWAP4 SWAP7 SWAP3 SWAP6 POP SWAP1 SWAP4 POP POP JUMP JUMPDEST PUSH0 PUSH0 PUSH1 0x40 DUP4 DUP6 SUB SLT ISZERO PUSH2 0x1A30 JUMPI PUSH0 PUSH0 REVERT JUMPDEST DUP3 CALLDATALOAD PUSH2 0x1A3B DUP2 PUSH2 0x19AF JUMP JUMPDEST SWAP2 POP PUSH1 0x20 DUP4 ADD CALLDATALOAD PUSH2 0x1A4B DUP2 PUSH2 0x17C3 JUMP JUMPDEST DUP1 SWAP2 POP POP SWAP3 POP SWAP3 SWAP1 POP JUMP JUMPDEST PUSH1 0x1 PUSH1 0x1 PUSH1 0xA0 SHL SUB SWAP2 SWAP1 SWAP2 AND DUP2 MSTORE PUSH1 0x20 ADD SWAP1 JUMP JUMPDEST PUSH1 0x1 PUSH1 0x1 PUSH1 0x80 SHL SUB SWAP2 SWAP1 SWAP2 AND DUP2 MSTORE PUSH1 0x20 ADD SWAP1 JUMP JUMPDEST PUSH4 0x4E487B71 PUSH1 0xE0 SHL PUSH0 MSTORE PUSH1 0x41 PUSH1 0x4 MSTORE PUSH1 0x24 PUSH0 REVERT JUMPDEST PUSH1 0x40 MLOAD PUSH2 0x160 DUP2 ADD PUSH1 0x1 PUSH1 0x1 PUSH1 0x40 SHL SUB DUP2 GT DUP3 DUP3 LT OR ISZERO PUSH2 0x1AB5 JUMPI PUSH2 0x1AB5 PUSH2 0x1A7E JUMP JUMPDEST PUSH1 0x40 MSTORE SWAP1 JUMP JUMPDEST PUSH1 0x40 MLOAD PUSH1 0x1F DUP3 ADD PUSH1 0x1F NOT AND DUP2 ADD PUSH1 0x1 PUSH1 0x1 PUSH1 0x40 SHL SUB DUP2 GT DUP3 DUP3 LT OR ISZERO PUSH2 0x1AE3 JUMPI PUSH2 0x1AE3 PUSH2 0x1A7E JUMP JUMPDEST PUSH1 0x40 MSTORE SWAP2 SWAP1 POP JUMP JUMPDEST PUSH0 DUP3 PUSH1 0x1F DUP4 ADD SLT PUSH2 0x1AFA JUMPI PUSH0 PUSH0 REVERT JUMPDEST DUP2 CALLDATALOAD PUSH1 0x1 PUSH1 0x1 PUSH1 0x40 SHL SUB DUP2 GT ISZERO PUSH2 0x1B13 JUMPI PUSH2 0x1B13 PUSH2 0x1A7E JUMP JUMPDEST DUP1 PUSH1 0x5 SHL PUSH2 0x1B23 PUSH1 0x20 DUP3 ADD PUSH2 0x1ABB JUMP JUMPDEST SWAP2 DUP3 MSTORE PUSH1 0x20 DUP2 DUP6 ADD DUP2 ADD SWAP3 SWAP1 DUP2 ADD SWAP1 DUP7 DUP5 GT ISZERO PUSH2 0x1B3E JUMPI PUSH0 PUSH0 REVERT JUMPDEST PUSH1 0x20 DUP7 ADD SWAP3 POP JUMPDEST DUP4 DUP4 LT ISZERO PUSH2 0x1B69 JUMPI DUP3 CALLDATALOAD PUSH2 0x1B58 DUP2 PUSH2 0x17C3 JUMP JUMPDEST DUP3 MSTORE PUSH1 0x20 SWAP3 DUP4 ADD SWAP3 SWAP1 SWAP2 ADD SWAP1 PUSH2 0x1B45 JUMP JUMPDEST SWAP7 SWAP6 POP POP POP POP POP POP JUMP JUMPDEST PUSH0 PUSH0 PUSH0 PUSH0 PUSH1 0x80 DUP6 DUP8 SUB SLT ISZERO PUSH2 0x1B86 JUMPI PUSH0 PUSH0 REVERT JUMPDEST DUP5 CALLDATALOAD PUSH2 0x1B91 DUP2 PUSH2 0x19AF JUMP JUMPDEST SWAP4 POP PUSH1 0x20 DUP6 ADD CALLDATALOAD PUSH2 0x1BA1 DUP2 PUSH2 0x17C3 JUMP JUMPDEST SWAP3 POP PUSH1 0x40 DUP6 ADD CALLDATALOAD PUSH1 0x1 PUSH1 0x1 PUSH1 0x40 SHL SUB DUP2 GT ISZERO PUSH2 0x1BBB JUMPI PUSH0 PUSH0 REVERT JUMPDEST PUSH2 0x1BC7 DUP8 DUP3 DUP9 ADD PUSH2 0x1AEB JUMP JUMPDEST SWAP3 POP POP PUSH1 0x60 DUP6 ADD CALLDATALOAD PUSH1 0x1 PUSH1 0x1 PUSH1 0x40 SHL SUB DUP2 GT ISZERO PUSH2 0x1BE2 JUMPI PUSH0 PUSH0 REVERT JUMPDEST PUSH2 0x1BEE DUP8 DUP3 DUP9 ADD PUSH2 0x1AEB JUMP JUMPDEST SWAP2 POP POP SWAP3 SWAP6 SWAP2 SWAP5 POP SWAP3 POP JUMP JUMPDEST PUSH0 PUSH0 PUSH0 PUSH1 0x60 DUP5 DUP7 SUB SLT ISZERO PUSH2 0x1C0C JUMPI PUSH0 PUSH0 REVERT JUMPDEST DUP4 CALLDATALOAD PUSH2 0x1C17 DUP2 PUSH2 0x19AF JUMP JUMPDEST SWAP3 POP PUSH1 0x20 DUP5 ADD CALLDATALOAD PUSH2 0x1C27 DUP2 PUSH2 0x17C3 JUMP JUMPDEST SWAP2 POP PUSH1 0x40 DUP5 ADD CALLDATALOAD PUSH2 0x1C37 DUP2 PUSH2 0x17C3 JUMP JUMPDEST DUP1 SWAP2 POP POP SWAP3 POP SWAP3 POP SWAP3 JUMP JUMPDEST PUSH0 PUSH1 0x20 DUP3 DUP5 SUB SLT ISZERO PUSH2 0x1C52 JUMPI PUSH0 PUSH0 REVERT JUMPDEST DUP2 CALLDATALOAD PUSH2 0x17F2 DUP2 PUSH2 0x19AF JUMP JUMPDEST PUSH0 PUSH0 PUSH0 PUSH0 PUSH1 0x80 DUP6 DUP8 SUB SLT ISZERO PUSH2 0x1C70 JUMPI PUSH0 PUSH0 REVERT JUMPDEST DUP5 CALLDATALOAD PUSH2 0x1C7B DUP2 PUSH2 0x19AF JUMP JUMPDEST SWAP4 POP PUSH1 0x20 DUP6 ADD CALLDATALOAD PUSH2 0x1C8B DUP2 PUSH2 0x19AF JUMP JUMPDEST SWAP3 POP PUSH1 0x40 DUP6 ADD CALLDATALOAD PUSH2 0x1C9B DUP2 PUSH2 0x19AF JUMP JUMPDEST SWAP2 POP PUSH1 0x60 DUP6 ADD CALLDATALOAD PUSH2 0x1A14 DUP2 PUSH2 0x19AF JUMP JUMPDEST PUSH1 0x1 PUSH1 0x1 PUSH1 0x80 SHL SUB DUP9 DUP2 AND DUP3 MSTORE PUSH1 0x1 PUSH1 0x1 PUSH1 0xA0 SHL SUB DUP9 AND PUSH1 0x20 DUP4 ADD MSTORE DUP7 AND PUSH1 0x40 DUP3 ADD MSTORE PUSH1 0x60 DUP2 ADD DUP6 SWAP1 MSTORE PUSH1 0xE0 DUP2 ADD PUSH2 0x1CE6 PUSH1 0x80 DUP4 ADD DUP7 PUSH2 0x18D4 JUMP JUMPDEST PUSH1 0x1 PUSH1 0x1 PUSH1 0x80 SHL SUB SWAP4 DUP5 AND PUSH1 0xA0 DUP4 ADD MSTORE SWAP2 SWAP1 SWAP3 AND PUSH1 0xC0 SWAP1 SWAP3 ADD SWAP2 SWAP1 SWAP2 MSTORE SWAP6 SWAP5 POP POP POP POP POP JUMP JUMPDEST PUSH1 0x1 DUP2 DUP2 SHR SWAP1 DUP3 AND DUP1 PUSH2 0x1D20 JUMPI PUSH1 0x7F DUP3 AND SWAP2 POP JUMPDEST PUSH1 0x20 DUP3 LT DUP2 SUB PUSH2 0x1D3E JUMPI PUSH4 0x4E487B71 PUSH1 0xE0 SHL PUSH0 MSTORE PUSH1 0x22 PUSH1 0x4 MSTORE PUSH1 0x24 PUSH0 REVERT JUMPDEST POP SWAP2 SWAP1 POP JUMP JUMPDEST PUSH1 0x1 PUSH1 0x1 PUSH1 0xA0 SHL SUB SWAP4 SWAP1 SWAP4 AND DUP4 MSTORE PUSH1 0x1 PUSH1 0x1 PUSH1 0x80 SHL SUB SWAP2 DUP3 AND PUSH1 0x20 DUP5 ADD MSTORE AND PUSH1 0x40 DUP3 ADD MSTORE PUSH1 0x60 ADD SWAP1 JUMP JUMPDEST PUSH2 0x1D78 DUP2 DUP4 PUSH2 0x18D4 JUMP JUMPDEST PUSH1 0x40 PUSH1 0x20 DUP3 ADD DUP2 SWAP1 MSTORE PUSH1 0x16 SWAP1 DUP3 ADD MSTORE PUSH22 0x7570646174652028616C72656164792066696E616C29 PUSH1 0x50 SHL PUSH1 0x60 DUP3 ADD MSTORE PUSH1 0x80 ADD SWAP2 SWAP1 POP JUMP JUMPDEST PUSH1 0x40 DUP2 ADD PUSH2 0x1DBC DUP3 DUP6 PUSH2 0x18D4 JUMP JUMPDEST PUSH2 0x17F2 PUSH1 0x20 DUP4 ADD DUP5 PUSH2 0x18D4 JUMP JUMPDEST PUSH2 0x1DD3 DUP2 DUP4 PUSH2 0x18D4 JUMP JUMPDEST PUSH1 0x40 PUSH1 0x20 DUP3 ADD DUP2 SWAP1 MSTORE PUSH1 0x6 SWAP1 DUP3 ADD MSTORE PUSH6 0x18D85B98D95B PUSH1 0xD2 SHL PUSH1 0x60 DUP3 ADD MSTORE PUSH1 0x80 ADD SWAP2 SWAP1 POP JUMP JUMPDEST PUSH4 0x4E487B71 PUSH1 0xE0 SHL PUSH0 MSTORE PUSH1 0x32 PUSH1 0x4 MSTORE PUSH1 0x24 PUSH0 REVERT JUMPDEST PUSH1 0x1 PUSH1 0x1 PUSH1 0x80 SHL SUB SWAP3 DUP4 AND DUP2 MSTORE SWAP2 AND PUSH1 0x20 DUP3 ADD MSTORE PUSH1 0x40 ADD SWAP1 JUMP JUMPDEST DUP1 MLOAD PUSH2 0x1E32 DUP2 PUSH2 0x17C3 JUMP JUMPDEST SWAP2 SWAP1 POP JUMP JUMPDEST PUSH0 DUP3 PUSH1 0x1F DUP4 ADD SLT PUSH2 0x1E46 JUMPI PUSH0 PUSH0 REVERT JUMPDEST DUP2 MLOAD PUSH1 0x1 PUSH1 0x1 PUSH1 0x40 SHL SUB DUP2 GT ISZERO PUSH2 0x1E5F JUMPI PUSH2 0x1E5F PUSH2 0x1A7E JUMP JUMPDEST PUSH2 0x1E72 PUSH1 0x1F DUP3 ADD PUSH1 0x1F NOT AND PUSH1 0x20 ADD PUSH2 0x1ABB JUMP JUMPDEST DUP2 DUP2 MSTORE DUP5 PUSH1 0x20 DUP4 DUP7 ADD ADD GT ISZERO PUSH2 0x1E86 JUMPI PUSH0 PUSH0 REVERT JUMPDEST DUP2 PUSH1 0x20 DUP6 ADD PUSH1 0x20 DUP4 ADD MCOPY PUSH0 SWAP2 DUP2 ADD PUSH1 0x20 ADD SWAP2 SWAP1 SWAP2 MSTORE SWAP4 SWAP3 POP POP POP JUMP JUMPDEST DUP1 MLOAD DUP1 ISZERO ISZERO DUP2 EQ PUSH2 0x1E32 JUMPI PUSH0 PUSH0 REVERT JUMPDEST PUSH0 PUSH1 0x20 DUP3 DUP5 SUB SLT ISZERO PUSH2 0x1EC1 JUMPI PUSH0 PUSH0 REVERT JUMPDEST DUP2 MLOAD PUSH1 0x1 PUSH1 0x1 PUSH1 0x40 SHL SUB DUP2 GT ISZERO PUSH2 0x1ED6 JUMPI PUSH0 PUSH0 REVERT JUMPDEST DUP3 ADD PUSH2 0x160 DUP2 DUP6 SUB SLT ISZERO PUSH2 0x1EE8 JUMPI PUSH0 PUSH0 REVERT JUMPDEST PUSH2 0x1EF0 PUSH2 0x1A92 JUMP JUMPDEST PUSH2 0x1EF9 DUP3 PUSH2 0x1E27 JUMP JUMPDEST DUP2 MSTORE PUSH2 0x1F07 PUSH1 0x20 DUP4 ADD PUSH2 0x1E27 JUMP JUMPDEST PUSH1 0x20 DUP3 ADD MSTORE PUSH1 0x40 DUP3 ADD MLOAD PUSH1 0x1 PUSH1 0x1 PUSH1 0x40 SHL SUB DUP2 GT ISZERO PUSH2 0x1F24 JUMPI PUSH0 PUSH0 REVERT JUMPDEST PUSH2 0x1F30 DUP7 DUP3 DUP6 ADD PUSH2 0x1E37 JUMP JUMPDEST PUSH1 0x40 DUP4 ADD MSTORE POP PUSH1 0x60 DUP3 ADD MLOAD PUSH1 0x1 PUSH1 0x1 PUSH1 0x40 SHL SUB DUP2 GT ISZERO PUSH2 0x1F4E JUMPI PUSH0 PUSH0 REVERT JUMPDEST PUSH2 0x1F5A DUP7 DUP3 DUP6 ADD PUSH2 0x1E37 JUMP JUMPDEST PUSH1 0x60 DUP4 ADD MSTORE POP PUSH2 0x1F6C PUSH1 0x80 DUP4 ADD PUSH2 0x1E27 JUMP JUMPDEST PUSH1 0x80 DUP3 ADD MSTORE PUSH2 0x1F7D PUSH1 0xA0 DUP4 ADD PUSH2 0x1EA2 JUMP JUMPDEST PUSH1 0xA0 DUP3 ADD MSTORE PUSH1 0xC0 DUP3 ADD MLOAD PUSH1 0x1 PUSH1 0x1 PUSH1 0x40 SHL SUB DUP2 GT ISZERO PUSH2 0x1F9A JUMPI PUSH0 PUSH0 REVERT JUMPDEST PUSH2 0x1FA6 DUP7 DUP3 DUP6 ADD PUSH2 0x1E37 JUMP JUMPDEST PUSH1 0xC0 DUP4 ADD MSTORE POP PUSH1 0xE0 DUP3 ADD MLOAD PUSH1 0x1 PUSH1 0x1 PUSH1 0x40 SHL SUB DUP2 GT ISZERO PUSH2 0x1FC4 JUMPI PUSH0 PUSH0 REVERT JUMPDEST PUSH2 0x1FD0 DUP7 DUP3 DUP6 ADD PUSH2 0x1E37 JUMP JUMPDEST PUSH1 0xE0 DUP4 ADD MSTORE POP PUSH2 0x1FE3 PUSH2 0x100 DUP4 ADD PUSH2 0x1E27 JUMP JUMPDEST PUSH2 0x100 DUP3 ADD MSTORE PUSH2 0x1FF6 PUSH2 0x120 DUP4 ADD PUSH2 0x1E27 JUMP JUMPDEST PUSH2 0x120 DUP3 ADD MSTORE PUSH2 0x2009 PUSH2 0x140 DUP4 ADD PUSH2 0x1E27 JUMP JUMPDEST PUSH2 0x140 DUP3 ADD MSTORE SWAP5 SWAP4 POP POP POP POP JUMP JUMPDEST PUSH4 0x4E487B71 PUSH1 0xE0 SHL PUSH0 MSTORE PUSH1 0x11 PUSH1 0x4 MSTORE PUSH1 0x24 PUSH0 REVERT JUMPDEST DUP1 DUP3 MUL DUP2 ISZERO DUP3 DUP3 DIV DUP5 EQ OR PUSH2 0x579 JUMPI PUSH2 0x579 PUSH2 0x2017 JUMP JUMPDEST DUP1 DUP3 ADD DUP1 DUP3 GT ISZERO PUSH2 0x579 JUMPI PUSH2 0x579 PUSH2 0x2017 JUMP JUMPDEST PUSH0 PUSH1 0x1 PUSH1 0x1 PUSH1 0x80 SHL SUB DUP3 AND PUSH1 0x2 PUSH1 0x1 PUSH1 0x80 SHL SUB NOT DUP2 ADD PUSH2 0x2077 JUMPI PUSH2 0x2077 PUSH2 0x2017 JUMP JUMPDEST PUSH1 0x1 ADD SWAP3 SWAP2 POP POP JUMP JUMPDEST DUP2 DUP2 SUB DUP2 DUP2 GT ISZERO PUSH2 0x579 JUMPI PUSH2 0x579 PUSH2 0x2017 JUMP JUMPDEST PUSH1 0x1F DUP3 GT ISZERO PUSH2 0x142C JUMPI DUP1 PUSH0 MSTORE PUSH1 0x20 PUSH0 KECCAK256 PUSH1 0x1F DUP5 ADD PUSH1 0x5 SHR DUP2 ADD PUSH1 0x20 DUP6 LT ISZERO PUSH2 0x20B8 JUMPI POP DUP1 JUMPDEST PUSH1 0x1F DUP5 ADD PUSH1 0x5 SHR DUP3 ADD SWAP2 POP JUMPDEST DUP2 DUP2 LT ISZERO PUSH2 0x20D7 JUMPI PUSH0 DUP2 SSTORE PUSH1 0x1 ADD PUSH2 0x20C4 JUMP JUMPDEST POP POP POP POP POP JUMP JUMPDEST DUP2 MLOAD PUSH1 0x1 PUSH1 0x1 PUSH1 0x40 SHL SUB DUP2 GT ISZERO PUSH2 0x20F7 JUMPI PUSH2 0x20F7 PUSH2 0x1A7E JUMP JUMPDEST PUSH2 0x210B DUP2 PUSH2 0x2105 DUP5 SLOAD PUSH2 0x1D0C JUMP JUMPDEST DUP5 PUSH2 0x2093 JUMP JUMPDEST PUSH1 0x20 PUSH1 0x1F DUP3 GT PUSH1 0x1 DUP2 EQ PUSH2 0x213D JUMPI PUSH0 DUP4 ISZERO PUSH2 0x2126 JUMPI POP DUP5 DUP3 ADD MLOAD JUMPDEST PUSH0 NOT PUSH1 0x3 DUP6 SWAP1 SHL SHR NOT AND PUSH1 0x1 DUP5 SWAP1 SHL OR DUP5 SSTORE PUSH2 0x20D7 JUMP JUMPDEST PUSH0 DUP5 DUP2 MSTORE PUSH1 0x20 DUP2 KECCAK256 PUSH1 0x1F NOT DUP6 AND SWAP2 JUMPDEST DUP3 DUP2 LT ISZERO PUSH2 0x216C JUMPI DUP8 DUP6 ADD MLOAD DUP3 SSTORE PUSH1 0x20 SWAP5 DUP6 ADD SWAP5 PUSH1 0x1 SWAP1 SWAP3 ADD SWAP2 ADD PUSH2 0x214C JUMP JUMPDEST POP DUP5 DUP3 LT ISZERO PUSH2 0x2189 JUMPI DUP7 DUP5 ADD MLOAD PUSH0 NOT PUSH1 0x3 DUP8 SWAP1 SHL PUSH1 0xF8 AND SHR NOT AND DUP2 SSTORE JUMPDEST POP POP POP POP PUSH1 0x1 SWAP1 DUP2 SHL ADD SWAP1 SSTORE POP JUMP JUMPDEST PUSH2 0x21A2 DUP2 DUP4 PUSH2 0x18D4 JUMP JUMPDEST PUSH1 0x40 PUSH1 0x20 DUP3 ADD DUP2 SWAP1 MSTORE PUSH1 0x8 SWAP1 DUP3 ADD MSTORE PUSH8 0x636F6D706C657465 PUSH1 0xC0 SHL PUSH1 0x60 DUP3 ADD MSTORE PUSH1 0x80 ADD SWAP2 SWAP1 POP JUMP JUMPDEST PUSH0 PUSH1 0x20 DUP3 DUP5 SUB SLT ISZERO PUSH2 0x21DA JUMPI PUSH0 PUSH0 REVERT JUMPDEST DUP2 MLOAD PUSH2 0x17F2 DUP2 PUSH2 0x19AF JUMP JUMPDEST PUSH0 DUP3 PUSH2 0x21FF JUMPI PUSH4 0x4E487B71 PUSH1 0xE0 SHL PUSH0 MSTORE PUSH1 0x12 PUSH1 0x4 MSTORE PUSH1 0x24 PUSH0 REVERT JUMPDEST POP DIV SWAP1 JUMP INVALID DUP13 PUSH5 0x9B2AD43B64 BLOBHASH 0xBB RETURNCONTRACT 0xE9 BASEFEE PUSH27 0x5EFE9F7FCDED9570A17906D76F159A34713011A264697066735822 SLT KECCAK256 DUP16 0xC8 0xEF PUSH10 0x55F925C9216853481E7E CREATE 0xD7 DUP3 PUSH16 0xC7B06D6377E948D38B5845D1F4B46473 PUSH16 0x6C634300081E00330000000000000000 "
		},
		"gasEstimates": {
			"creation": {
				"codeDepositCost": "1758800",
				"executionCost": "23951",
				"totalCost": "1782751"
			},
			"external": {
				"cancelOrder(address,uint128)": "infinite",
				"completeOrder(address,uint128,uint128)": "infinite",
				"foodAppContractAddress()": "2514",
				"getOrder(uint128)": "infinite",
				"initialize(address,address,address,address)": "infinite",
				"menuManager()": "2470",
				"nextOrderId()": "2448",
				"orders(uint128)": "13782",
				"owner()": "2605",
				"placeOrder(address,uint128,uint128[],uint128[])": "infinite",
				"platformFeePercent()": "2470",
				"renounceOwnership()": "infinite",
				"restaurantManager()": "2426",
				"setPlatformFee(uint256)": "28032",
				"transferOwnership(address)": "infinite",
				"updateOrderStatus(address,uint128,uint8,uint128)": "infinite"
			}
		},
		"methodIdentifiers": {
			"cancelOrder(address,uint128)": "1b4257f6",
			"completeOrder(address,uint128,uint128)": "cf31fb46",
			"foodAppContractAddress()": "832dbdd9",
			"getOrder(uint128)": "117d4128",
			"initialize(address,address,address,address)": "f8c8765e",
			"menuManager()": "5059e95b",
			"nextOrderId()": "2a58b330",
			"orders(uint128)": "ff8ddee3",
			"owner()": "8da5cb5b",
			"placeOrder(address,uint128,uint128[],uint128[])": "c60c14d9",
			"platformFeePercent()": "8c639a85",
			"renounceOwnership()": "715018a6",
			"restaurantManager()": "2134b6f6",
			"setPlatformFee(uint256)": "12e8e2c3",
			"transferOwnership(address)": "f2fde38b",
			"updateOrderStatus(address,uint128,uint8,uint128)": "19c8ccef"
		}
	},
	"abi": [
		{
			"inputs": [],
			"name": "InvalidInitialization",
			"type": "error"
		},
		{
			"inputs": [],
			"name": "NotInitializing",
			"type": "error"
		},
		{
			"inputs": [
				{
					"internalType": "address",
					"name": "caller",
					"type": "address"
				},
				{
					"internalType": "uint128",
					"name": "orderRestaurantId",
					"type": "uint128"
				},
				{
					"internalType": "uint128",
					"name": "staffRestaurantId",
					"type": "uint128"
				}
			],
			"name": "OrderManager__CallerNotRestaurantStaff",
			"type": "error"
		},
		{
			"inputs": [
				{
					"internalType": "uint256",
					"name": "required",
					"type": "uint256"
				},
				{
					"internalType": "uint256",
					"name": "sent",
					"type": "uint256"
				}
			],
			"name": "OrderManager__InsufficientPayment",
			"type": "error"
		},
		{
			"inputs": [],
			"name": "OrderManager__InvalidAddress",
			"type": "error"
		},
		{
			"inputs": [
				{
					"internalType": "string",
					"name": "dependencyName",
					"type": "string"
				}
			],
			"name": "OrderManager__InvalidDependencyAddress",
			"type": "error"
		},
		{
			"inputs": [],
			"name": "OrderManager__InvalidOrderData",
			"type": "error"
		},
		{
			"inputs": [
				{
					"internalType": "enum OrderStatus",
					"name": "currentStatus",
					"type": "uint8"
				},
				{
					"internalType": "string",
					"name": "action",
					"type": "string"
				}
			],
			"name": "OrderManager__InvalidOrderStatusForAction",
			"type": "error"
		},
		{
			"inputs": [
				{
					"internalType": "enum OrderStatus",
					"name": "from",
					"type": "uint8"
				},
				{
					"internalType": "enum OrderStatus",
					"name": "to",
					"type": "uint8"
				}
			],
			"name": "OrderManager__InvalidOrderStatusTransition",
			"type": "error"
		},
		{
			"inputs": [
				{
					"internalType": "uint128",
					"name": "menuItemId",
					"type": "uint128"
				}
			],
			"name": "OrderManager__MenuItemNotAvailable",
			"type": "error"
		},
		{
			"inputs": [
				{
					"internalType": "uint128",
					"name": "restaurantId",
					"type": "uint128"
				},
				{
					"internalType": "uint128",
					"name": "menuItemId",
					"type": "uint128"
				}
			],
			"name": "OrderManager__MenuItemNotFound",
			"type": "error"
		},
		{
			"inputs": [],
			"name": "OrderManager__NotFoodApp",
			"type": "error"
		},
		{
			"inputs": [
				{
					"internalType": "address",
					"name": "caller",
					"type": "address"
				},
				{
					"internalType": "uint128",
					"name": "orderId",
					"type": "uint128"
				}
			],
			"name": "OrderManager__NotOrderOwner",
			"type": "error"
		},
		{
			"inputs": [
				{
					"internalType": "uint128",
					"name": "orderId",
					"type": "uint128"
				}
			],
			"name": "OrderManager__OrderNotFound",
			"type": "error"
		},
		{
			"inputs": [
				{
					"internalType": "uint256",
					"name": "feePercent",
					"type": "uint256"
				}
			],
			"name": "OrderManager__PlatformFeeTooHigh",
			"type": "error"
		},
		{
			"inputs": [
				{
					"internalType": "uint128",
					"name": "restaurantId",
					"type": "uint128"
				}
			],
			"name": "OrderManager__RestaurantOwnerNotFound",
			"type": "error"
		},
		{
			"inputs": [],
			"name": "OrderManager__TransferFailed",
			"type": "error"
		},
		{
			"inputs": [
				{
					"internalType": "address",
					"name": "owner",
					"type": "address"
				}
			],
			"name": "OwnableInvalidOwner",
			"type": "error"
		},
		{
			"inputs": [
				{
					"internalType": "address",
					"name": "account",
					"type": "address"
				}
			],
			"name": "OwnableUnauthorizedAccount",
			"type": "error"
		},
		{
			"inputs": [],
			"name": "ReentrancyGuardReentrantCall",
			"type": "error"
		},
		{
			"anonymous": false,
			"inputs": [
				{
					"indexed": false,
					"internalType": "uint64",
					"name": "version",
					"type": "uint64"
				}
			],
			"name": "Initialized",
			"type": "event"
		},
		{
			"anonymous": false,
			"inputs": [
				{
					"indexed": true,
					"internalType": "uint128",
					"name": "orderId",
					"type": "uint128"
				},
				{
					"indexed": true,
					"internalType": "address",
					"name": "customerEoa",
					"type": "address"
				},
				{
					"indexed": false,
					"internalType": "uint256",
					"name": "refundAmount",
					"type": "uint256"
				}
			],
			"name": "OrderCancelled",
			"type": "event"
		},
		{
			"anonymous": false,
			"inputs": [
				{
					"indexed": true,
					"internalType": "uint128",
					"name": "orderId",
					"type": "uint128"
				},
				{
					"indexed": true,
					"internalType": "address",
					"name": "restaurantOwner",
					"type": "address"
				},
				{
					"indexed": false,
					"internalType": "uint256",
					"name": "amountToRestaurant",
					"type": "uint256"
				},
				{
					"indexed": false,
					"internalType": "uint256",
					"name": "platformFee",
					"type": "uint256"
				}
			],
			"name": "OrderCompleted",
			"type": "event"
		},
		{
			"anonymous": false,
			"inputs": [
				{
					"indexed": true,
					"internalType": "uint128",
					"name": "orderId",
					"type": "uint128"
				},
				{
					"indexed": true,
					"internalType": "address",
					"name": "customerEoa",
					"type": "address"
				},
				{
					"indexed": true,
					"internalType": "uint128",
					"name": "restaurantId",
					"type": "uint128"
				},
				{
					"indexed": false,
					"internalType": "uint256",
					"name": "totalPrice",
					"type": "uint256"
				}
			],
			"name": "OrderPlaced",
			"type": "event"
		},
		{
			"anonymous": false,
			"inputs": [
				{
					"indexed": true,
					"internalType": "uint128",
					"name": "orderId",
					"type": "uint128"
				},
				{
					"indexed": false,
					"internalType": "enum OrderStatus",
					"name": "oldStatus",
					"type": "uint8"
				},
				{
					"indexed": false,
					"internalType": "enum OrderStatus",
					"name": "newStatus",
					"type": "uint8"
				}
			],
			"name": "OrderStatusUpdated",
			"type": "event"
		},
		{
			"anonymous": false,
			"inputs": [
				{
					"indexed": true,
					"internalType": "address",
					"name": "previousOwner",
					"type": "address"
				},
				{
					"indexed": true,
					"internalType": "address",
					"name": "newOwner",
					"type": "address"
				}
			],
			"name": "OwnershipTransferred",
			"type": "event"
		},
		{
			"anonymous": false,
			"inputs": [
				{
					"indexed": false,
					"internalType": "uint256",
					"name": "oldFeePercent",
					"type": "uint256"
				},
				{
					"indexed": false,
					"internalType": "uint256",
					"name": "newFeePercent",
					"type": "uint256"
				}
			],
			"name": "PlatformFeeUpdated",
			"type": "event"
		},
		{
			"inputs": [
				{
					"internalType": "address",
					"name": "customerEoa",
					"type": "address"
				},
				{
					"internalType": "uint128",
					"name": "orderId",
					"type": "uint128"
				}
			],
			"name": "cancelOrder",
			"outputs": [],
			"stateMutability": "nonpayable",
			"type": "function"
		},
		{
			"inputs": [
				{
					"internalType": "address",
					"name": "staffEoa",
					"type": "address"
				},
				{
					"internalType": "uint128",
					"name": "orderId",
					"type": "uint128"
				},
				{
					"internalType": "uint128",
					"name": "staffRestaurantId",
					"type": "uint128"
				}
			],
			"name": "completeOrder",
			"outputs": [],
			"stateMutability": "nonpayable",
			"type": "function"
		},
		{
			"inputs": [],
			"name": "foodAppContractAddress",
			"outputs": [
				{
					"internalType": "address",
					"name": "",
					"type": "address"
				}
			],
			"stateMutability": "view",
			"type": "function"
		},
		{
			"inputs": [
				{
					"internalType": "uint128",
					"name": "orderId",
					"type": "uint128"
				}
			],
			"name": "getOrder",
			"outputs": [
				{
					"components": [
						{
							"internalType": "uint128",
							"name": "id",
							"type": "uint128"
						},
						{
							"internalType": "address",
							"name": "customer",
							"type": "address"
						},
						{
							"internalType": "uint128",
							"name": "restaurantId",
							"type": "uint128"
						},
						{
							"components": [
								{
									"internalType": "uint128",
									"name": "menuItemId",
									"type": "uint128"
								},
								{
									"internalType": "string",
									"name": "name",
									"type": "string"
								},
								{
									"internalType": "uint128",
									"name": "pricePerUnit",
									"type": "uint128"
								},
								{
									"internalType": "uint128",
									"name": "quantity",
									"type": "uint128"
								}
							],
							"internalType": "struct OrderItemDetail[]",
							"name": "itemsDetail",
							"type": "tuple[]"
						},
						{
							"internalType": "uint256",
							"name": "totalPrice",
							"type": "uint256"
						},
						{
							"internalType": "enum OrderStatus",
							"name": "status",
							"type": "uint8"
						},
						{
							"internalType": "uint128",
							"name": "timestamp",
							"type": "uint128"
						},
						{
							"internalType": "uint128",
							"name": "preparationTime",
							"type": "uint128"
						}
					],
					"internalType": "struct Order",
					"name": "",
					"type": "tuple"
				}
			],
			"stateMutability": "view",
			"type": "function"
		},
		{
			"inputs": [
				{
					"internalType": "address",
					"name": "_foodAppContract",
					"type": "address"
				},
				{
					"internalType": "address",
					"name": "_menuManagerAddress",
					"type": "address"
				},
				{
					"internalType": "address",
					"name": "_restaurantManagerAddress",
					"type": "address"
				},
				{
					"internalType": "address",
					"name": "_factoryOwner",
					"type": "address"
				}
			],
			"name": "initialize",
			"outputs": [],
			"stateMutability": "nonpayable",
			"type": "function"
		},
		{
			"inputs": [],
			"name": "menuManager",
			"outputs": [
				{
					"internalType": "contract IMenuManager",
					"name": "",
					"type": "address"
				}
			],
			"stateMutability": "view",
			"type": "function"
		},
		{
			"inputs": [],
			"name": "nextOrderId",
			"outputs": [
				{
					"internalType": "uint128",
					"name": "",
					"type": "uint128"
				}
			],
			"stateMutability": "view",
			"type": "function"
		},
		{
			"inputs": [
				{
					"internalType": "uint128",
					"name": "",
					"type": "uint128"
				}
			],
			"name": "orders",
			"outputs": [
				{
					"internalType": "uint128",
					"name": "id",
					"type": "uint128"
				},
				{
					"internalType": "address",
					"name": "customer",
					"type": "address"
				},
				{
					"internalType": "uint128",
					"name": "restaurantId",
					"type": "uint128"
				},
				{
					"internalType": "uint256",
					"name": "totalPrice",
					"type": "uint256"
				},
				{
					"internalType": "enum OrderStatus",
					"name": "status",
					"type": "uint8"
				},
				{
					"internalType": "uint128",
					"name": "timestamp",
					"type": "uint128"
				},
				{
					"internalType": "uint128",
					"name": "preparationTime",
					"type": "uint128"
				}
			],
			"stateMutability": "view",
			"type": "function"
		},
		{
			"inputs": [],
			"name": "owner",
			"outputs": [
				{
					"internalType": "address",
					"name": "",
					"type": "address"
				}
			],
			"stateMutability": "view",
			"type": "function"
		},
		{
			"inputs": [
				{
					"internalType": "address",
					"name": "customerEoa",
					"type": "address"
				},
				{
					"internalType": "uint128",
					"name": "restaurantId",
					"type": "uint128"
				},
				{
					"internalType": "uint128[]",
					"name": "itemIds",
					"type": "uint128[]"
				},
				{
					"internalType": "uint128[]",
					"name": "quantities",
					"type": "uint128[]"
				}
			],
			"name": "placeOrder",
			"outputs": [],
			"stateMutability": "payable",
			"type": "function"
		},
		{
			"inputs": [],
			"name": "platformFeePercent",
			"outputs": [
				{
					"internalType": "uint256",
					"name": "",
					"type": "uint256"
				}
			],
			"stateMutability": "view",
			"type": "function"
		},
		{
			"inputs": [],
			"name": "renounceOwnership",
			"outputs": [],
			"stateMutability": "nonpayable",
			"type": "function"
		},
		{
			"inputs": [],
			"name": "restaurantManager",
			"outputs": [
				{
					"internalType": "contract IRestaurantManager",
					"name": "",
					"type": "address"
				}
			],
			"stateMutability": "view",
			"type": "function"
		},
		{
			"inputs": [
				{
					"internalType": "uint256",
					"name": "_newFeePercent",
					"type": "uint256"
				}
			],
			"name": "setPlatformFee",
			"outputs": [],
			"stateMutability": "nonpayable",
			"type": "function"
		},
		{
			"inputs": [
				{
					"internalType": "address",
					"name": "newOwner",
					"type": "address"
				}
			],
			"name": "transferOwnership",
			"outputs": [],
			"stateMutability": "nonpayable",
			"type": "function"
		},
		{
			"inputs": [
				{
					"internalType": "address",
					"name": "staffEoa",
					"type": "address"
				},
				{
					"internalType": "uint128",
					"name": "orderId",
					"type": "uint128"
				},
				{
					"internalType": "enum OrderStatus",
					"name": "newStatus",
					"type": "uint8"
				},
				{
					"internalType": "uint128",
					"name": "staffRestaurantId",
					"type": "uint128"
				}
			],
			"name": "updateOrderStatus",
			"outputs": [],
			"stateMutability": "nonpayable",
			"type": "function"
		}
	]
}