{
	"data": {
		"bytecode": {
			"linkReferences": {},
			"object": "6080604052600780546001600160881b0319167005000000000000000000000000000000011790553480156031575f5ffd5b5060015f553380605a57604051631e4fbdf760e01b81525f600482015260240160405180910390fd5b6061816082565b50335f908152600260208190526040909120805460ff1916909117905560d3565b600180546001600160a01b038381166001600160a01b0319831681179093556040519116919082907f8be0079c531659141344cd1fd0a4f28419497f9722a3daafe3b4186f6b6457e0905f90a35050565b615f92806100e05f395ff3fe6080604052600436106101d5575f3560e01c80630659ae68146101d957806314d90e1b146102135780631600c6cd1461023957806321d1aae11461027057806326912883146102915780632a58b330146102bd5780632fb8229b146102dc578063388f20a8146102fb57806349392b3d1461031a578063515f72ce146103395780635b94ea5d14610358578063603ef649146103775780636761dc8c146103975780636b813675146103c65780636e1f4b75146103f4578063715018a6146104205780637914d2fa1461043457806388ee189b146104535780638da5cb5b1461049257806390a815a9146104b357806398d88075146104df57806399374642146104f2578063aa620ce81461052d578063abca88f01461054c578063ae9a465514610580578063bab5933a1461059f578063d74b3c20146105b3578063d76d571a146105df578063d9a85e63146105fe578063dac4a25514610634578063dbc9139614610653578063ddb0c22f14610672578063e28d7a1814610691578063f2fde38b146106c5578063f3f43703146106e4578063f4340e9c14610718578063f50ddbc714610748578063f79372821461077c578063fa20fca71461079b578063fb727088146107af578063ff8ddee3146107d5575b5f5ffd5b3480156101e4575f5ffd5b506101f86101f3366004614c83565b610855565b60405161020a96959493929190614ce6565b60405180910390f35b34801561021e575f5ffd5b50610227601481565b60405160ff909116815260200161020a565b348015610244575f5ffd5b50610258610253366004614c83565b610955565b6040516001600160801b03909116815260200161020a565b34801561027b575f5ffd5b5061028f61028a366004614e09565b61099c565b005b34801561029c575f5ffd5b506102b06102ab366004614f07565b610cd5565b60405161020a9190615057565b3480156102c8575f5ffd5b50600654610258906001600160801b031681565b3480156102e7575f5ffd5b506102586102f63660046150ba565b61100f565b348015610306575f5ffd5b5061028f6103153660046150d4565b611028565b348015610325575f5ffd5b5061028f6103343660046150fd565b611254565b348015610344575f5ffd5b5061028f610353366004615167565b61155f565b348015610363575f5ffd5b5061028f610372366004614f07565b611769565b348015610382575f5ffd5b5060075461022790600160801b900460ff1681565b3480156103a2575f5ffd5b506103b66103b13660046150ba565b611983565b60405161020a94939291906151c0565b3480156103d1575f5ffd5b506103e56103e03660046150d4565b611a61565b60405161020a93929190615346565b3480156103ff575f5ffd5b5061041361040e3660046150d4565b61224f565b60405161020a91906153b8565b34801561042b575f5ffd5b5061028f6123de565b34801561043f575f5ffd5b5061025861044e366004614f07565b6123f1565b34801561045e575f5ffd5b5061025861046d366004614f07565b600d60209081525f92835260408084209091529082529020546001600160801b031681565b34801561049d575f5ffd5b506104a66124f5565b60405161020a9190615465565b3480156104be575f5ffd5b506104d26104cd366004615479565b612504565b60405161020a9190615492565b61028f6104ed3660046155ca565b61265c565b3480156104fd575f5ffd5b5061052061050c366004615479565b60026020525f908152604090205460ff1681565b60405161020a9190615632565b348015610538575f5ffd5b5061028f61054736600461565b565b612f14565b348015610557575f5ffd5b506104a66105663660046150d4565b60046020525f90815260409020546001600160a01b031681565b34801561058b575f5ffd5b5061028f61059a36600461577a565b61317b565b3480156105aa575f5ffd5b506102b06132ee565b3480156105be575f5ffd5b506105d26105cd366004615794565b6135e5565b60405161020a91906157d4565b3480156105ea575f5ffd5b506102586105f9366004614c83565b613b26565b348015610609575f5ffd5b5061061d610618366004614f07565b613b3f565b60405161020a9b9a999897969594939291906157e6565b34801561063f575f5ffd5b5061028f61064e3660046158a5565b613e69565b34801561065e575f5ffd5b5061028f61066d3660046150d4565b614057565b34801561067d575f5ffd5b5061028f61068c3660046158dc565b61428d565b34801561069c575f5ffd5b506102586106ab366004615479565b60036020525f90815260409020546001600160801b031681565b3480156106d0575f5ffd5b5061028f6106df366004615479565b614616565b3480156106ef575f5ffd5b506102586106fe366004615479565b60096020525f90815260409020546001600160801b031681565b348015610723575f5ffd5b506107376107323660046150ba565b614650565b60405161020a959493929190615914565b348015610753575f5ffd5b50610258610762366004615479565b600b6020525f90815260409020546001600160801b031681565b348015610787575f5ffd5b5061028f610796366004615969565b614744565b3480156107a6575f5ffd5b50610258614825565b3480156107ba575f5ffd5b5060065461025890600160801b90046001600160801b031681565b3480156107e0575f5ffd5b506108436107ef3660046150d4565b60086020525f9081526040902080546001820154600283015460058401546006909401546001600160801b03938416946001600160a01b03909316939182169282811692600160801b90910460ff16911686565b60405161020a96959493929190615982565b6010602052815f5260405f20818154811061086e575f80fd5b5f91825260209091206005909102018054600182015460028301546003840180546001600160a01b0394851697509390921694506001600160801b03811693600160801b90910460ff16929091906108c5906159da565b80601f01602080910402602001604051908101604052809291908181526020018280546108f1906159da565b801561093c5780601f106109135761010080835404028352916020019161093c565b820191905f5260205f20905b81548152906001019060200180831161091f57829003601f168201915b505050600490930154919250506001600160801b031686565b600a602052815f5260405f20818154811061096e575f80fd5b905f5260205f209060029182820401919006601002915091509054906101000a90046001600160801b031681565b866001335f9081526002602081905260409091205460ff16908111156109c4576109c4614f7b565b1480156109ea5750335f908152600360205260409020546001600160801b038281169116145b80610a175750335f9081526002602081905260409091205460ff1681811115610a1557610a15614f7b565b145b80610a4157506001600160801b0381165f908152600460205260409020546001600160a01b031633145b610a665760405162461bcd60e51b8152600401610a5d90615a12565b60405180910390fd5b5f8751118015610a7e57505f846001600160801b0316115b610a9a5760405162461bcd60e51b8152600401610a5d90615a5b565b6001600160801b0388165f908152600460205260409020546001600160a01b0316610ad75760405162461bcd60e51b8152600401610a5d90615a81565b60408051610160810182526006546001600160801b03600160801b9182900481168084528c821660208086018281528688018f8152606088018f9052608088018e90528c861660a0890152600160c0890181905260e089018d905261010089018c90525f6101208a018190526101408a0181905294855260058452898520958552949092529690912085519651841690940295909216949094178255519192909190820190610b869082615aff565b5060608201516002820190610b9b9082615aff565b5060808201516003820190610bb09082615aff565b5060a082015160048201805460c08501511515600160801b026001600160881b03199091166001600160801b039093169290921791909117905560e08201516005820190610bfe9082615aff565b506101008201516006820190610c149082615aff565b50610120820151610140909201516001600160801b03928316600160801b918416820217600792909201919091556006546040517f16c3bb758075933856ebc4132418c1e40e2757b27275fa2fd2de8c38e4e54b8e93610c7e93909204909116908b908b90615bb9565b60405180910390a160068054600160801b90046001600160801b0316906010610ca683615c01565b91906101000a8154816001600160801b0302191690836001600160801b03160217905550505050505050505050565b60606002335f9081526002602081905260409091205460ff1690811115610cfe57610cfe614f7b565b14610d1b5760405162461bcd60e51b8152600401610a5d90615c2c565b6006545f906001600160801b0380861691610d399160019116615c5e565b6001600160801b031611610d4d575f610d71565b6006548490610d67906001906001600160801b0316615c5e565b610d719190615c5e565b9050826001600160801b0316816001600160801b03161115610d905750815b5f816001600160801b03166001600160401b03811115610db257610db2614d5a565b604051908082528060200260200182016040528015610deb57816020015b610dd8614aa3565b815260200190600190039081610dd05790505b5090505f5b826001600160801b0316816001600160801b031610156110045760085f610e178389615c7d565b610e22906001615c7d565b6001600160801b03908116825260208083019390935260409182015f2082516101008101845281548316815260018201546001600160a01b0316818601526002820154909216828401526003810180548451818702810187019095528085529294919360608601939092830182828015610eea57602002820191905f5260205f20905f905b82829054906101000a90046001600160801b03166001600160801b031681526020019060100190602082600f01049283019260010382029150808411610ea75790505b5050505050815260200160048201805480602002602001604051908101604052809291908181526020018280548015610f7157602002820191905f5260205f20905f905b82829054906101000a90046001600160801b03166001600160801b031681526020019060100190602082600f01049283019260010382029150808411610f2e5790505b50505091835250506005828101546001600160801b0381166020840152604090920191600160801b900460ff1690811115610fae57610fae614f7b565b6005811115610fbf57610fbf614f7b565b8152600691909101546001600160801b03908116602090920191909152835184918416908110610ff157610ff1615c9c565b6020908102919091010152600101610df0565b509150505b92915050565b600f602052815f5260405f20818154811061096e575f80fd5b335f9081526002602081905260409091205460ff168181111561104d5761104d614f7b565b148061107a5750335f90815260026020819052604082205460ff169081111561107857611078614f7b565b145b6110965760405162461bcd60e51b8152600401610a5d90615cb0565b61109e61490e565b805f816001600160801b03161180156110c557506006546001600160801b03908116908216105b6110e15760405162461bcd60e51b8152600401610a5d90615ce0565b6001600160801b0382165f90815260086020526040902060018101546001600160a01b031633146111245760405162461bcd60e51b8152600401610a5d90615d0a565b6003600582810154600160801b900460ff169081111561114657611146614f7b565b146111855760405162461bcd60e51b815260206004820152600f60248201526e4f72646572206e6f7420726561647960881b6044820152606401610a5d565b60058101805460ff60801b1916600560801b179055335f908152600b602052604081208054600a92906111c29084906001600160801b0316615c7d565b92506101000a8154816001600160801b0302191690836001600160801b031602179055507f02b43caf6e380609ec1e8a3eea0e53325c84f3efb96e5d9d4de1b5f30ff51e008333604051611217929190615d32565b60405180910390a15f516020615f3d5f395f51905f5283600560405161123e929190615d54565b60405180910390a1505061125160015f55565b50565b335f90815260026020819052604082205460ff169081111561127857611278614f7b565b14806112a857506001335f9081526002602081905260409091205460ff16908111156112a6576112a6614f7b565b145b6113005760405162461bcd60e51b8152602060048201526024808201527f556e617574686f72697a65643a205374616666206f7220437573746f6d6572206044820152636f6e6c7960e01b6064820152608401610a5d565b60018260ff1610158015611318575060058260ff1611155b6113345760405162461bcd60e51b8152600401610a5d90615d71565b6001600160801b0383165f908152600460205260409020546001600160a01b03166113715760405162461bcd60e51b8152600401610a5d90615a81565b60016001600160a01b0385165f9081526002602081905260409091205460ff16908111156113a1576113a1614f7b565b1480156113d057506001600160a01b0384165f908152600360205260409020546001600160801b038481169116145b61140f5760405162461bcd60e51b815260206004820152601060248201526f496e76616c696420656d706c6f79656560801b6044820152606401610a5d565b6040805160c0810182523381526001600160a01b0386811660208084018281526001600160801b03808a1686880190815260ff808b1660608901908152608089018b815242851660a08b01525f9788526010875299872080546001818101835591895296909720895160059097020180549689166001600160a01b03199788161781559451968501805497909816969095169590951790955593516002820180549351909416600160801b026001600160881b031990931694169390931717905591519091829160038201906114e59082615aff565b5060a09190910151600490910180546001600160801b0319166001600160801b0390921691909117905560405133906001600160a01b038716907f1711e3e66efa00ed25f58ffe8e0d8b7c1b29c2cbea7d708710a5a467ef74d21f9061155090889088908890615da8565b60405180910390a35050505050565b335f9081526002602081905260409091205460ff168181111561158457611584614f7b565b14806115b15750335f90815260026020819052604082205460ff16908111156115af576115af614f7b565b145b6115cd5760405162461bcd60e51b8152600401610a5d90615cb0565b60018260ff16101580156115e5575060058260ff1611155b6116015760405162461bcd60e51b8152600401610a5d90615d71565b6001600160801b0383165f908152600460205260409020546001600160a01b031661163e5760405162461bcd60e51b8152600401610a5d90615a81565b6040805160a0810182523381526001600160801b03808616602080840182815260ff8089168688019081526060870189815242871660808901525f9586526011855297852080546001818101835591875294909520875160049095020180546001600160a01b03959095166001600160a01b0319909516949094178455915193830180549251909116600160801b026001600160881b031990921693909416929092179190911790915591519091829160028201906116fd9082615aff565b5060809190910151600390910180546001600160801b0319166001600160801b0392831617905560405133918616907f8da348b329ec9cb5f933f377db6d8d5e57e2d8c1f3ba6f02ca2b1f147120da6a9061175b9087908790615dd4565b60405180910390a350505050565b816001335f9081526002602081905260409091205460ff169081111561179157611791614f7b565b1480156117b75750335f908152600360205260409020546001600160801b038281169116145b806117e45750335f9081526002602081905260409091205460ff16818111156117e2576117e2614f7b565b145b8061180e57506001600160801b0381165f908152600460205260409020546001600160a01b031633145b61182a5760405162461bcd60e51b8152600401610a5d90615a12565b82825f816001600160801b031611801561185957506006546001600160801b03600160801b9091048116908216105b6118755760405162461bcd60e51b8152600401610a5d90615df7565b6001600160801b038083165f908152600560209081526040808320858516845290915281205490911690036118bc5760405162461bcd60e51b8152600401610a5d90615e25565b6001600160801b038086165f9081526005602090815260408083209388168352929052908120818155906118f36001830182614ae5565b611900600283015f614ae5565b61190d600383015f614ae5565b6004820180546001600160881b031916905561192c600583015f614ae5565b611939600683015f614ae5565b505f600791909101556040517fef8be83dbb6f8277052c0376cffaaf8133437ac2e149a58d953f03d6442d1fde906119749086908890615e57565b60405180910390a15050505050565b600c602052815f5260405f20818154811061199c575f80fd5b5f9182526020909120600390910201805460018201546002830180546001600160801b038085169750600160801b909404841695509290911692916119e0906159da565b80601f0160208091040260200160405190810160405280929190818152602001828054611a0c906159da565b8015611a575780601f10611a2e57610100808354040283529160200191611a57565b820191905f5260205f20905b815481529060010190602001808311611a3a57829003601f168201915b5050505050905084565b611a69614aa3565b606080835f816001600160801b0316118015611a9357506006546001600160801b03908116908216105b611aaf5760405162461bcd60e51b8152600401610a5d90615ce0565b6001600160801b038086165f9081526008602090815260409182902082516101008101845281548516815260018201546001600160a01b03168184015260028201549094168484015260038101805484518185028101850190955280855291936060860193909290830182828015611b7557602002820191905f5260205f20905f905b82829054906101000a90046001600160801b03166001600160801b031681526020019060100190602082600f01049283019260010382029150808411611b325790505b5050505050815260200160048201805480602002602001604051908101604052809291908181526020018280548015611bfc57602002820191905f5260205f20905f905b82829054906101000a90046001600160801b03166001600160801b031681526020019060100190602082600f01049283019260010382029150808411611bb95790505b50505091835250506005828101546001600160801b0381166020840152604090920191600160801b900460ff1690811115611c3957611c39614f7b565b6005811115611c4a57611c4a614f7b565b8152600691909101546001600160801b0390811660209283015287165f908152600c82526040808220805482518186028101860190935280835294985091939092849084015b82821015611d86575f848152602090819020604080516080810182526003860290920180546001600160801b038082168552600160801b909104811694840194909452600181015490931690820152600282018054919291606084019190611cf7906159da565b80601f0160208091040260200160405190810160405280929190818152602001828054611d23906159da565b8015611d6e5780601f10611d4557610100808354040283529160200191611d6e565b820191905f5260205f20905b815481529060010190602001808311611d5157829003601f168201915b50505050508152505081526020019060010190611c90565b50505050905080516001600160401b03811115611da557611da5614d5a565b604051908082528060200260200182016040528015611dde57816020015b611dcb614b1c565b815260200190600190039081611dc35790505b50935080516001600160401b03811115611dfa57611dfa614d5a565b604051908082528060200260200182016040528015611e23578160200160208202803683370190505b5092505f5b81518110156122455760055f87604001516001600160801b03166001600160801b031681526020019081526020015f205f838381518110611e6b57611e6b615c9c565b602090810291909101810151516001600160801b0390811683528282019390935260409182015f2082516101608101845281548086168252600160801b9004909416918401919091526001810180549192840191611ec8906159da565b80601f0160208091040260200160405190810160405280929190818152602001828054611ef4906159da565b8015611f3f5780601f10611f1657610100808354040283529160200191611f3f565b820191905f5260205f20905b815481529060010190602001808311611f2257829003601f168201915b50505050508152602001600282018054611f58906159da565b80601f0160208091040260200160405190810160405280929190818152602001828054611f84906159da565b8015611fcf5780601f10611fa657610100808354040283529160200191611fcf565b820191905f5260205f20905b815481529060010190602001808311611fb257829003601f168201915b50505050508152602001600382018054611fe8906159da565b80601f0160208091040260200160405190810160405280929190818152602001828054612014906159da565b801561205f5780601f106120365761010080835404028352916020019161205f565b820191905f5260205f20905b81548152906001019060200180831161204257829003601f168201915b505050918352505060048201546001600160801b0381166020830152600160801b900460ff16151560408201526005820180546060909201916120a1906159da565b80601f01602080910402602001604051908101604052809291908181526020018280546120cd906159da565b80156121185780601f106120ef57610100808354040283529160200191612118565b820191905f5260205f20905b8154815290600101906020018083116120fb57829003601f168201915b50505050508152602001600682018054612131906159da565b80601f016020809104026020016040519081016040528092919081815260200182805461215d906159da565b80156121a85780601f1061217f576101008083540402835291602001916121a8565b820191905f5260205f20905b81548152906001019060200180831161218b57829003601f168201915b5050509183525050600791909101546001600160801b038082166020840152600160801b9091041660409091015285518690839081106121ea576121ea615c9c565b602002602001018190525081818151811061220757612207615c9c565b60200260200101516020015184828151811061222557612225615c9c565b6001600160801b0390921660209283029190910190910152600101611e28565b5050509193909250565b6001600160801b0381165f908152600460205260409020546060906001600160a01b031661228f5760405162461bcd60e51b8152600401610a5d90615a81565b6001600160801b0382165f90815260116020908152604080832080548251818502810185019093528083529193909284015b828210156123d3575f8481526020908190206040805160a0810182526004860290920180546001600160a01b0316835260018101546001600160801b03811694840194909452600160801b90930460ff169082015260028201805491929160608401919061232e906159da565b80601f016020809104026020016040519081016040528092919081815260200182805461235a906159da565b80156123a55780601f1061237c576101008083540402835291602001916123a5565b820191905f5260205f20905b81548152906001019060200180831161238857829003601f168201915b5050509183525050600391909101546001600160801b031660209182015290825260019290920191016122c1565b505050509050919050565b6123e6614965565b6123ef5f614997565b565b5f82825f816001600160801b031611801561242157506006546001600160801b03600160801b9091048116908216105b61243d5760405162461bcd60e51b8152600401610a5d90615df7565b6001600160801b038083165f908152600560209081526040808320858516845290915281205490911690036124845760405162461bcd60e51b8152600401610a5d90615e25565b6001600160801b038086165f9081526005602090815260408083208885168452909152812060078101549092600160801b9091041690036124c8575f9350506124ed565b60078101546124e9906001600160801b03600160801b820481169116615e71565b9350505b505092915050565b6001546001600160a01b031690565b6001600160a01b0381165f908152601060209081526040808320805482518185028101850190935280835260609492939192909184015b828210156123d3575f8481526020908190206040805160c0810182526005860290920180546001600160a01b0390811684526001820154169383019390935260028301546001600160801b03811691830191909152600160801b900460ff1660608201526003820180549192916080840191906125b7906159da565b80601f01602080910402602001604051908101604052809291908181526020018280546125e3906159da565b801561262e5780601f106126055761010080835404028352916020019161262e565b820191905f5260205f20905b81548152906001019060200180831161261157829003601f168201915b5050509183525050600491909101546001600160801b0316602091820152908252600192909201910161253b565b335f9081526002602081905260409091205460ff168181111561268157612681614f7b565b14806126ae5750335f90815260026020819052604082205460ff16908111156126ac576126ac614f7b565b145b6126ca5760405162461bcd60e51b8152600401610a5d90615cb0565b6126d261490e565b5f82511180156126e3575080518251145b61271f5760405162461bcd60e51b815260206004820152600d60248201526c125b9d985b1a59081a5b9c1d5d609a1b6044820152606401610a5d565b6001600160801b0383165f908152600460205260409020546001600160a01b031661275c5760405162461bcd60e51b8152600401610a5d90615a81565b81515f9081906001600160401b0381111561277957612779614d5a565b6040519080825280602002602001820160405280156127c857816020015b604080516080810182525f80825260208083018290529282015260608082015282525f199092019101816127975790505b5090505f5b8451811015612af9576001600160801b0386165f9081526005602052604081208651829088908590811061280357612803615c9c565b60200260200101516001600160801b03166001600160801b031681526020019081526020015f2090508060040160109054906101000a900460ff1661287d5760405162461bcd60e51b815260206004820152601060248201526f4974656d20756e617661696c61626c6560801b6044820152606401610a5d565b80546001600160801b03888116600160801b90920416146128eb5760405162461bcd60e51b815260206004820152602260248201527f4974656d20646f6573206e6f742062656c6f6e6720746f2072657374617572616044820152611b9d60f21b6064820152608401610a5d565b8482815181106128fd576128fd615c9c565b6020908102919091010151600482015461292091906001600160801b0316615eab565b61292a9085615c7d565b935084828151811061293e5761293e615c9c565b6020908102919091018101516006546001600160801b03165f908152600d9092526040822088519192909189908690811061297b5761297b615c9c565b60200260200101516001600160801b03166001600160801b031681526020019081526020015f205f6101000a8154816001600160801b0302191690836001600160801b0316021790555060405180608001604052808784815181106129e2576129e2615c9c565b60200260200101516001600160801b03168152602001868481518110612a0a57612a0a615c9c565b60200260200101516001600160801b03168152602001826004015f9054906101000a90046001600160801b03166001600160801b03168152602001826001018054612a54906159da565b80601f0160208091040260200160405190810160405280929190818152602001828054612a80906159da565b8015612acb5780601f10612aa257610100808354040283529160200191612acb565b820191905f5260205f20905b815481529060010190602001808311612aae57829003601f168201915b5050505050815250838381518110612ae557612ae5615c9c565b6020908102919091010152506001016127cd565b506007545f90606490612b1690600160801b900460ff1685615eab565b612b209190615e71565b90505f612b2d8285615c7d565b9050806001600160801b0316341015612b7f5760405162461bcd60e51b8152602060048201526014602482015273125b9cdd59999a58da595b9d081c185e5b595b9d60621b6044820152606401610a5d565b806001600160801b0316341115612bad57612bad612ba66001600160801b03831634615ed4565b33906149e8565b60408051610100810182526006546001600160801b039081168083523360208085019182528c8416858701908152606086018d8152608087018d90528b861660a08801525f60c0880181905242871660e08901529485526008835296909320855181546001600160801b031990811691871691909117825592516001820180546001600160a01b0319166001600160a01b039092169190911790559251600284018054909316941693909317905592518051929392612c729260038501920190614b9f565b5060808201518051612c8e916004840191602090910190614b9f565b5060a0820151600580830180546001600160801b039093166001600160801b031984168117825560c08601519391926001600160881b03199092161790600160801b908490811115612ce257612ce2614f7b565b021790555060e09190910151600690910180546001600160801b0319166001600160801b039092169190911790555f5b8351811015612dcd576006546001600160801b03165f908152600c602052604090208451859083908110612d4857612d48615c9c565b6020908102919091018101518254600180820185555f948552938390208251938301516001600160801b03948516600160801b9186169190910217600390920201908155604082015193810180546001600160801b031916949093169390931790915560608101519091906002820190612dc29082615aff565b505050600101612d12565b50335f908152600a60209081526040822060065481546001818101845592855292842060028404018054601094909316939093026101000a6001600160801b0391821681029102199091161790558290600990612e286124f5565b6001600160a01b0316815260208101919091526040015f9081208054909190612e5b9084906001600160801b0316615c7d565b82546101009290920a6001600160801b03818102199093169183160217909155600654604080519183168252336020830152918716918101919091527f705f23a83cf14e64bd1c38a913e0c43e880bbbf23a0dd3716eeacfb634ca814b915060600160405180910390a1600680546001600160801b0316905f612edd83615c01565b91906101000a8154816001600160801b0302191690836001600160801b031602179055505050505050612f0f60015f55565b505050565b886001335f9081526002602081905260409091205460ff1690811115612f3c57612f3c614f7b565b148015612f625750335f908152600360205260409020546001600160801b038281169116145b80612f8f5750335f9081526002602081905260409091205460ff1681811115612f8d57612f8d614f7b565b145b80612fb957506001600160801b0381165f908152600460205260409020546001600160a01b031633145b612fd55760405162461bcd60e51b8152600401610a5d90615a12565b89895f816001600160801b031611801561300457506006546001600160801b03600160801b9091048116908216105b6130205760405162461bcd60e51b8152600401610a5d90615df7565b6001600160801b038083165f908152600560209081526040808320858516845290915281205490911690036130675760405162461bcd60e51b8152600401610a5d90615e25565b5f8a5111801561307f57505f876001600160801b0316115b61309b5760405162461bcd60e51b8152600401610a5d90615a5b565b6001600160801b03808d165f908152600560209081526040808320938f16835292905220600181016130cd8c82615aff565b50600281016130dc8b82615aff565b50600381016130eb8a82615aff565b50600481018054881515600160801b026001600160881b03199091166001600160801b038b1617179055600581016131238782615aff565b50600681016131328682615aff565b507fce43b91b59c691cdac567984a49ce1b6001f3a8781ede9d3f567cc3ab69f3cb08c8e604051613164929190615e57565b60405180910390a150505050505050505050505050565b6001600160801b0381165f9081526004602052604090205481906001600160a01b031633146131e35760405162461bcd60e51b81526020600482015260146024820152732737ba103932b9ba30bab930b73a1037bbb732b960611b6044820152606401610a5d565b6001600160a01b03831661322b5760405162461bcd60e51b815260206004820152600f60248201526e496e76616c6964206164647265737360881b6044820152606401610a5d565b6001600160801b0382165f908152600460205260409020546001600160a01b03166132685760405162461bcd60e51b8152600401610a5d90615a81565b6001600160a01b0383165f908152600260209081526040808320805460ff1916600117905560039091529081902080546001600160801b0385166001600160801b0319909116179055517f69a85d8f30649b59eeb2b4393ea9eb9c9ed001f6974226d94a7fa2dfd562f15b906132e19085908590615ee7565b60405180910390a1505050565b60606002335f9081526002602081905260409091205460ff169081111561331757613317614f7b565b14806133445750335f90815260026020819052604082205460ff169081111561334257613342614f7b565b145b6133605760405162461bcd60e51b8152600401610a5d90615cb0565b335f908152600a6020526040812080549091906001600160401b0381111561338a5761338a614d5a565b6040519080825280602002602001820160405280156133c357816020015b6133b0614aa3565b8152602001906001900390816133a85790505b5090505f5b82548110156135de5760085f8483815481106133e6576133e6615c9c565b5f91825260208083206002808404909101546001600160801b03601060019586160261010090810a9092048116875286840197909752604095860190942085519485018652805487168552928301546001600160a01b0316848301528201549094168284015260038101805484518187028101870190955280855292949193606086019390928301828280156134ca57602002820191905f5260205f20905f905b82829054906101000a90046001600160801b03166001600160801b031681526020019060100190602082600f010492830192600103820291508084116134875790505b505050505081526020016004820180548060200260200160405190810160405280929190818152602001828054801561355157602002820191905f5260205f20905f905b82829054906101000a90046001600160801b03166001600160801b031681526020019060100190602082600f0104928301926001038202915080841161350e5790505b50505091835250506005828101546001600160801b0381166020840152604090920191600160801b900460ff169081111561358e5761358e614f7b565b600581111561359f5761359f614f7b565b8152600691909101546001600160801b031660209091015282518390839081106135cb576135cb615c9c565b60209081029190910101526001016133c8565b5091505090565b60605f806135f4856001615c7d565b90505b6006546001600160801b03600160801b90910481169082161180159061363857506136228486615c7d565b6001600160801b0316816001600160801b031611155b15613689576001600160801b038087165f90815260056020908152604080832085851684529091529020541615613677578161367381615c01565b9250505b8061368181615c01565b9150506135f7565b505f816001600160801b03166001600160401b038111156136ac576136ac614d5a565b6040519080825280602002602001820160405280156136e557816020015b6136d2614b1c565b8152602001906001900390816136ca5790505b5090505f806136f5876001615c7d565b90505b6006546001600160801b03600160801b90910481169082161180159061373957506137238688615c7d565b6001600160801b0316816001600160801b031611155b15613b18576001600160801b038089165f90815260056020908152604080832085851684529091529020541615613b06576001600160801b038089165f908152600560209081526040808320858516845282529182902082516101608101845281548086168252600160801b90049094169184019190915260018101805491928401916137c5906159da565b80601f01602080910402602001604051908101604052809291908181526020018280546137f1906159da565b801561383c5780601f106138135761010080835404028352916020019161383c565b820191905f5260205f20905b81548152906001019060200180831161381f57829003601f168201915b50505050508152602001600282018054613855906159da565b80601f0160208091040260200160405190810160405280929190818152602001828054613881906159da565b80156138cc5780601f106138a3576101008083540402835291602001916138cc565b820191905f5260205f20905b8154815290600101906020018083116138af57829003601f168201915b505050505081526020016003820180546138e5906159da565b80601f0160208091040260200160405190810160405280929190818152602001828054613911906159da565b801561395c5780601f106139335761010080835404028352916020019161395c565b820191905f5260205f20905b81548152906001019060200180831161393f57829003601f168201915b505050918352505060048201546001600160801b0381166020830152600160801b900460ff161515604082015260058201805460609092019161399e906159da565b80601f01602080910402602001604051908101604052809291908181526020018280546139ca906159da565b8015613a155780601f106139ec57610100808354040283529160200191613a15565b820191905f5260205f20905b8154815290600101906020018083116139f857829003601f168201915b50505050508152602001600682018054613a2e906159da565b80601f0160208091040260200160405190810160405280929190818152602001828054613a5a906159da565b8015613aa55780601f10613a7c57610100808354040283529160200191613aa5565b820191905f5260205f20905b815481529060010190602001808311613a8857829003601f168201915b5050509183525050600791909101546001600160801b038082166020840152600160801b9091048116604090920191909152845185918516908110613aec57613aec615c9c565b60200260200101819052508180613b0290615c01565b9250505b80613b1081615c01565b9150506136f8565b5090925050505b9392505050565b600e602052815f5260405f20818154811061096e575f80fd5b600560209081525f9283526040808420909152908252902080546001820180546001600160801b0380841694600160801b90940416929190613b80906159da565b80601f0160208091040260200160405190810160405280929190818152602001828054613bac906159da565b8015613bf75780601f10613bce57610100808354040283529160200191613bf7565b820191905f5260205f20905b815481529060010190602001808311613bda57829003601f168201915b505050505090806002018054613c0c906159da565b80601f0160208091040260200160405190810160405280929190818152602001828054613c38906159da565b8015613c835780601f10613c5a57610100808354040283529160200191613c83565b820191905f5260205f20905b815481529060010190602001808311613c6657829003601f168201915b505050505090806003018054613c98906159da565b80601f0160208091040260200160405190810160405280929190818152602001828054613cc4906159da565b8015613d0f5780601f10613ce657610100808354040283529160200191613d0f565b820191905f5260205f20905b815481529060010190602001808311613cf257829003601f168201915b50505050600483015460058401805493946001600160801b03831694600160801b90930460ff16935091613d42906159da565b80601f0160208091040260200160405190810160405280929190818152602001828054613d6e906159da565b8015613db95780601f10613d9057610100808354040283529160200191613db9565b820191905f5260205f20905b815481529060010190602001808311613d9c57829003601f168201915b505050505090806006018054613dce906159da565b80601f0160208091040260200160405190810160405280929190818152602001828054613dfa906159da565b8015613e455780601f10613e1c57610100808354040283529160200191613e45565b820191905f5260205f20905b815481529060010190602001808311613e2857829003601f168201915b505050600790930154919250506001600160801b0380821691600160801b9004168b565b82825f816001600160801b0316118015613e9857506006546001600160801b03600160801b9091048116908216105b613eb45760405162461bcd60e51b8152600401610a5d90615df7565b6001600160801b038083165f90815260056020908152604080832085851684529091528120549091169003613efb5760405162461bcd60e51b8152600401610a5d90615e25565b60018360ff1610158015613f13575060058360ff1611155b613f505760405162461bcd60e51b815260206004820152600e60248201526d496e76616c696420726174696e6760901b6044820152606401610a5d565b6001600160801b038086165f90815260056020908152604080832088851684529091528120600781018054919360ff8816939192613f9091859116615c7d565b92506101000a8154816001600160801b0302191690836001600160801b0316021790555060018160070160108282829054906101000a90046001600160801b0316613fdb9190615c7d565b92506101000a8154816001600160801b0302191690836001600160801b031602179055507fdb324f7fef3c53dae6fd57e82dfa6fc22235609f2039c48367051c6ad5b2faef85856040516140479291906001600160801b0392909216825260ff16602082015260400190565b60405180910390a1505050505050565b335f90815260026020819052604082205460ff169081111561407b5761407b614f7b565b146140c65760405162461bcd60e51b815260206004820152601b60248201527a556e617574686f72697a65643a20437573746f6d6572206f6e6c7960281b6044820152606401610a5d565b6140ce61490e565b805f816001600160801b03161180156140f557506006546001600160801b03908116908216105b6141115760405162461bcd60e51b8152600401610a5d90615ce0565b6001600160801b0382165f90815260086020526040902060018101546001600160a01b031633146141545760405162461bcd60e51b8152600401610a5d90615d0a565b5f600582810154600160801b900460ff169081111561417557614175614f7b565b14806141a057506001600582810154600160801b900460ff169081111561419e5761419e614f7b565b145b6141ea5760405162461bcd60e51b815260206004820152601b60248201527a43616e6e6f742063616e63656c206174207468697320737461676560281b6044820152606401610a5d565b600581018054600160821b60ff60801b198216179091556142159033906001600160801b03166149e8565b7f1912970d6b925634e2ccfaff5edb3a3fa0f2b9f36fc281eb8266688b89606ac18333604051614246929190615d32565b60405180910390a160058101546040517f1acf2c59d6610cf0f250c9bc70adb692b2319de3640e791ab8a33a3b8931df279161123e9133916001600160801b031690615ee7565b6001600160801b038083165f90815260086020526040902060020154166001335f9081526002602081905260409091205460ff16908111156142d1576142d1614f7b565b1480156142f75750335f908152600360205260409020546001600160801b038281169116145b806143245750335f9081526002602081905260409091205460ff168181111561432257614322614f7b565b145b8061434e57506001600160801b0381165f908152600460205260409020546001600160a01b031633145b61436a5760405162461bcd60e51b8152600401610a5d90615a12565b61437261490e565b825f816001600160801b031611801561439957506006546001600160801b03908116908216105b6143b55760405162461bcd60e51b8152600401610a5d90615ce0565b6001600160801b0384165f9081526008602052604090206004600582810154600160801b900460ff16908111156143ee576143ee614f7b565b036144305760405162461bcd60e51b815260206004820152601260248201527113dc99195c881a5cc818d85b98d95b1b195960721b6044820152606401610a5d565b60058082810154600160801b900460ff169081111561445157614451614f7b565b036144985760405162461bcd60e51b815260206004820152601760248201527613dc99195c88185b1c9958591e4818dbdb5c1b195d1959604a1b6044820152606401610a5d565b60018460058111156144ac576144ac614f7b565b036144f5575f5b600582810154600160801b900460ff16908111156144d3576144d3614f7b565b146144f05760405162461bcd60e51b8152600401610a5d90615f09565b6145ba565b600284600581111561450957614509614f7b565b0361455a575f5b600582810154600160801b900460ff169081111561453057614530614f7b565b148061453e575060016144b3565b6144f05760405162461bcd60e51b8152600401610a5d90615f09565b600384600581111561456e5761456e614f7b565b0361457a576002614510565b60405162461bcd60e51b8152602060048201526015602482015274496e76616c6964207374617475732075706461746560581b6044820152606401610a5d565b838160050160106101000a81548160ff021916908360058111156145e0576145e0614f7b565b02179055505f516020615f3d5f395f51905f528585604051614603929190615d54565b60405180910390a15050612f0f60015f55565b61461e614965565b6001600160a01b038116614647575f604051631e4fbdf760e01b8152600401610a5d9190615465565b61125181614997565b6011602052815f5260405f208181548110614669575f80fd5b5f9182526020909120600490910201805460018201546002830180546001600160a01b0390931695506001600160801b0382169450600160801b90910460ff1692916146b4906159da565b80601f01602080910402602001604051908101604052809291908181526020018280546146e0906159da565b801561472b5780601f106147025761010080835404028352916020019161472b565b820191905f5260205f20905b81548152906001019060200180831161470e57829003601f168201915b505050600390930154919250506001600160801b031685565b335f9081526002602081905260409091205460ff168181111561476957614769614f7b565b146147865760405162461bcd60e51b8152600401610a5d90615c2c565b601460ff821611156147d15760405162461bcd60e51b81526020600482015260146024820152730a6cae4ecd2c6ca40cccaca40e8dede40d0d2ced60631b6044820152606401610a5d565b6007805460ff60801b1916600160801b60ff8416908102919091179091556040519081527fc2e7293b347ac956898a90e36061ef247c8d3516f25e87a91009be115ce27ac49060200160405180910390a150565b6007546001600160801b039081165f81815260046020908152604080832080546001600160a01b03191633908117909155808452600e835281842080546001818101835591865293852060028504018054601095909216949094026101000a80870297021916959095179091555190927fbafbc0bfd4afd8a222b8cd09b01ce310b06b0beb42503ea91a76135e6a532e92916148c2918491615d32565b60405180910390a1600780546001600160801b0316905f6148e283615c01565b91906101000a8154816001600160801b0302191690836001600160801b03160217905550508091505090565b60025f540361495f5760405162461bcd60e51b815260206004820152601f60248201527f5265656e7472616e637947756172643a207265656e7472616e742063616c6c006044820152606401610a5d565b60025f55565b3361496e6124f5565b6001600160a01b0316146123ef573360405163118cdaa760e01b8152600401610a5d9190615465565b600180546001600160a01b038381166001600160a01b0319831681179093556040519116919082907f8be0079c531659141344cd1fd0a4f28419497f9722a3daafe3b4186f6b6457e0905f90a35050565b80471015614a125760405163cf47918160e01b815247600482015260248101829052604401610a5d565b5f5f836001600160a01b0316836040515f6040518083038185875af1925050503d805f8114614a5c576040519150601f19603f3d011682016040523d82523d5f602084013e614a61565b606091505b509150915081614a7457614a7481614a7a565b50505050565b805115614a8a5780518082602001fd5b60405163d6bda27560e01b815260040160405180910390fd5b60408051610100810182525f808252602082018190529181018290526060808201819052608082015260a081018290529060c082019081525f60209091015290565b508054614af1906159da565b5f825580601f10614b00575050565b601f0160209004905f5260205f20908101906112519190614c54565b6040518061016001604052805f6001600160801b031681526020015f6001600160801b031681526020016060815260200160608152602001606081526020015f6001600160801b031681526020015f1515815260200160608152602001606081526020015f6001600160801b031681526020015f6001600160801b031681525090565b828054828255905f5260205f2090600101600290048101928215614c44579160200282015f5b83821115614c0f57835183826101000a8154816001600160801b0302191690836001600160801b031602179055509260200192601001602081600f01049283019260010302614bc5565b8015614c425782816101000a8154906001600160801b030219169055601001602081600f01049283019260010302614c0f565b505b50614c50929150614c54565b5090565b5b80821115614c50575f8155600101614c55565b80356001600160a01b0381168114614c7e575f5ffd5b919050565b5f5f60408385031215614c94575f5ffd5b614c9d83614c68565b946020939093013593505050565b6001600160801b03169052565b5f81518084528060208401602086015e5f602082860101526020601f19601f83011685010191505092915050565b6001600160a01b038781168252861660208201526001600160801b038516604082015260ff8416606082015260c0608082018190525f90614d2990830185614cb8565b905060018060801b03831660a0830152979650505050505050565b80356001600160801b0381168114614c7e575f5ffd5b634e487b7160e01b5f52604160045260245ffd5b604051601f8201601f191681016001600160401b0381118282101715614d9657614d96614d5a565b604052919050565b5f82601f830112614dad575f5ffd5b81356001600160401b03811115614dc657614dc6614d5a565b614dd9601f8201601f1916602001614d6e565b818152846020838601011115614ded575f5ffd5b816020850160208301375f918101602001919091529392505050565b5f5f5f5f5f5f5f60e0888a031215614e1f575f5ffd5b614e2888614d44565b965060208801356001600160401b03811115614e42575f5ffd5b614e4e8a828b01614d9e565b96505060408801356001600160401b03811115614e69575f5ffd5b614e758a828b01614d9e565b95505060608801356001600160401b03811115614e90575f5ffd5b614e9c8a828b01614d9e565b945050614eab60808901614d44565b925060a08801356001600160401b03811115614ec5575f5ffd5b614ed18a828b01614d9e565b92505060c08801356001600160401b03811115614eec575f5ffd5b614ef88a828b01614d9e565b91505092959891949750929550565b5f5f60408385031215614f18575f5ffd5b614f2183614d44565b9150614f2f60208401614d44565b90509250929050565b5f8151808452602084019350602083015f5b82811015614f715781516001600160801b0316865260209586019590910190600101614f4a565b5093949350505050565b634e487b7160e01b5f52602160045260245ffd5b60068110614f9f57614f9f614f7b565b9052565b80516001600160801b031682526020808201515f91614fcc908501826001600160a01b03169052565b506040820151614fdf6040850182614cab565b5060608201516101006060850152614ffb610100850182614f38565b9050608083015184820360808601526150148282614f38565b91505060a083015161502960a0860182614cab565b5060c083015161503c60c0860182614f8f565b5060e083015161504f60e0860182614cab565b509392505050565b5f602082016020835280845180835260408501915060408160051b8601019250602086015f5b828110156150ae57603f19878603018452615099858351614fa3565b9450602093840193919091019060010161507d565b50929695505050505050565b5f5f604083850312156150cb575f5ffd5b614c9d83614d44565b5f602082840312156150e4575f5ffd5b613b1f82614d44565b803560ff81168114614c7e575f5ffd5b5f5f5f5f60808587031215615110575f5ffd5b61511985614c68565b935061512760208601614d44565b9250615135604086016150ed565b915060608501356001600160401b0381111561514f575f5ffd5b61515b87828801614d9e565b91505092959194509250565b5f5f5f60608486031215615179575f5ffd5b61518284614d44565b9250615190602085016150ed565b915060408401356001600160401b038111156151aa575f5ffd5b6151b686828701614d9e565b9150509250925092565b6001600160801b0385811682528481166020830152831660408201526080606082018190525f906151f390830184614cb8565b9695505050505050565b5f82825180855260208501945060208160051b830101602085015f5b8381101561533a57601f198584030188528151615237848251614cab565b60208101516152496020860182614cab565b5060408101516101606040860152615265610160860182614cb8565b90506060820151858203606087015261527e8282614cb8565b915050608082015185820360808701526152988282614cb8565b91505060a08201516152ad60a0870182614cab565b5060c08201516152c160c087018215159052565b5060e082015185820360e08701526152d98282614cb8565b9150506101008201518582036101008701526152f58282614cb8565b91505061012082015161530c610120870182614cab565b506101408201519150615323610140860183614cab565b6020998a0199909450929092019150600101615219565b50909695505050505050565b606081525f6153586060830186614fa3565b828103602084015261536a81866151fd565b8381036040850152845180825260208087019350909101905f5b818110156153ab5783516001600160801b0316835260209384019390920191600101615384565b5090979650505050505050565b5f602082016020835280845180835260408501915060408160051b8601019250602086015f5b828110156150ae57868503603f19018452815180516001600160a01b031686526020808201516001600160801b03169087015260408082015160ff169087015260608082015160a09188018290529061543990880182614cb8565b6080928301516001600160801b03169790920196909652945060209384019391909101906001016153de565b6001600160a01b0391909116815260200190565b5f60208284031215615489575f5ffd5b613b1f82614c68565b5f602082016020835280845180835260408501915060408160051b8601019250602086015f5b828110156150ae57868503603f19018452815180516001600160a01b039081168752602080830151909116908701526040808201516001600160801b03169087015260608082015160ff169087015260808082015160c09188018290529061552290880182614cb8565b60a0928301516001600160801b03169790920196909652945060209384019391909101906001016154b8565b5f82601f83011261555d575f5ffd5b81356001600160401b0381111561557657615576614d5a565b8060051b61558660208201614d6e565b918252602081850181019290810190868411156155a1575f5ffd5b6020860192505b838310156151f3576155b983614d44565b8252602092830192909101906155a8565b5f5f5f606084860312156155dc575f5ffd5b6155e584614d44565b925060208401356001600160401b038111156155ff575f5ffd5b61560b8682870161554e565b92505060408401356001600160401b03811115615626575f5ffd5b6151b68682870161554e565b602081016003831061564657615646614f7b565b91905290565b80358015158114614c7e575f5ffd5b5f5f5f5f5f5f5f5f5f6101208a8c031215615674575f5ffd5b61567d8a614d44565b985061568b60208b01614d44565b975060408a01356001600160401b038111156156a5575f5ffd5b6156b18c828d01614d9e565b97505060608a01356001600160401b038111156156cc575f5ffd5b6156d88c828d01614d9e565b96505060808a01356001600160401b038111156156f3575f5ffd5b6156ff8c828d01614d9e565b95505061570e60a08b01614d44565b935061571c60c08b0161564c565b925060e08a01356001600160401b03811115615736575f5ffd5b6157428c828d01614d9e565b9250506101008a01356001600160401b0381111561575e575f5ffd5b61576a8c828d01614d9e565b9150509295985092959850929598565b5f5f6040838503121561578b575f5ffd5b614f2183614c68565b5f5f5f606084860312156157a6575f5ffd5b6157af84614d44565b92506157bd60208501614d44565b91506157cb60408501614d44565b90509250925092565b602081525f613b1f60208301846151fd565b6001600160801b038c811682528b166020820152610160604082018190525f906158129083018c614cb8565b8281036060840152615824818c614cb8565b90508281036080840152615838818b614cb8565b905061584760a084018a614cab565b87151560c084015282810360e08401526158618188614cb8565b90508281036101008401526158768187614cb8565b915050615887610120830185614cab565b615895610140830184614cab565b9c9b505050505050505050505050565b5f5f5f606084860312156158b7575f5ffd5b6158c084614d44565b92506158ce60208501614d44565b91506157cb604085016150ed565b5f5f604083850312156158ed575f5ffd5b6158f683614d44565b9150602083013560068110615909575f5ffd5b809150509250929050565b6001600160a01b03861681526001600160801b038516602082015260ff8416604082015260a0606082018190525f9061594f90830185614cb8565b905060018060801b03831660808301529695505050505050565b5f60208284031215615979575f5ffd5b613b1f826150ed565b6001600160801b0387811682526001600160a01b038716602083015285811660408301528416606082015260c081016159be6080830185614f8f565b6001600160801b039290921660a0919091015295945050505050565b600181811c908216806159ee57607f821691505b602082108103615a0c57634e487b7160e01b5f52602260045260245ffd5b50919050565b60208082526029908201527f556e617574686f72697a65643a2053746166662c2041646d696e2c206f72204f604082015268776e6572206f6e6c7960b81b606082015260800190565b6020808252600c908201526b496e76616c6964206461746160a01b604082015260600190565b60208082526019908201527814995cdd185d5c985b9d08191bd95cc81b9bdd08195e1a5cdd603a1b604082015260600190565b601f821115612f0f57805f5260205f20601f840160051c81016020851015615ad95750805b601f840160051c820191505b81811015615af8575f8155600101615ae5565b5050505050565b81516001600160401b03811115615b1857615b18614d5a565b615b2c81615b2684546159da565b84615ab4565b6020601f821160018114615b5e575f8315615b475750848201515b5f19600385901b1c1916600184901b178455615af8565b5f84815260208120601f198516915b82811015615b8d5787850151825560209485019460019092019101615b6d565b5084821015615baa57868401515f19600387901b60f8161c191681555b50505050600190811b01905550565b6001600160801b038481168252831660208201526060604082018190525f90615be490830184614cb8565b95945050505050565b634e487b7160e01b5f52601160045260245ffd5b5f6001600160801b0382166002600160801b03198101615c2357615c23615bed565b60010192915050565b602080825260189082015277556e617574686f72697a65643a2041646d696e206f6e6c7960401b604082015260600190565b6001600160801b03828116828216039081111561100957611009615bed565b6001600160801b03818116838216019081111561100957611009615bed565b634e487b7160e01b5f52603260045260245ffd5b60208082526016908201527527b7363c9030b236b4b71037b91031bab9ba37b6b2b960511b604082015260600190565b60208082526010908201526f125b9d985b1a59081bdc99195c88125160821b604082015260600190565b6020808252600e908201526d2737ba103cb7bab91037b93232b960911b604082015260600190565b6001600160801b039290921682526001600160a01b0316602082015260400190565b6001600160801b038316815260408101613b1f6020830184614f8f565b6020808252601e908201527f526174696e67206d757374206265206265747765656e203120616e6420350000604082015260600190565b6001600160801b038416815260ff831660208201526060604082018190525f90615be490830184614cb8565b60ff83168152604060208201525f615def6040830184614cb8565b949350505050565b602080825260149082015273125b9d985b1a59081b595b9d481a5d195b48125160621b604082015260600190565b60208082526018908201527713595b9d481a5d195b48191bd95cc81b9bdd08195e1a5cdd60421b604082015260600190565b6001600160801b0392831681529116602082015260400190565b5f6001600160801b03831680615e9557634e487b7160e01b5f52601260045260245ffd5b6001600160801b03929092169190910492915050565b6001600160801b038181168382160290811690818114615ecd57615ecd615bed565b5092915050565b8181038181111561100957611009615bed565b6001600160a01b039290921682526001600160801b0316602082015260400190565b60208082526019908201527824b73b30b634b21039ba30ba3ab9903a3930b739b4ba34b7b760391b60408201526060019056fe398e222575905caececb6ca7c365b9049abf41cc7cc060ec170a711233f32d08a2646970667358221220f4ff53eb6804887a56db4724f55e602e103246c260683fdeb0ad26f5edf49eb164736f6c634300081e0033",
			"opcodes": "PUSH1 0x80 PUSH1 0x40 MSTORE PUSH1 0x7 DUP1 SLOAD PUSH1 0x1 PUSH1 0x1 PUSH1 0x88 SHL SUB NOT AND PUSH17 0x500000000000000000000000000000001 OR SWAP1 SSTORE CALLVALUE DUP1 ISZERO PUSH1 0x31 JUMPI PUSH0 PUSH0 REVERT JUMPDEST POP PUSH1 0x1 PUSH0 SSTORE CALLER DUP1 PUSH1 0x5A JUMPI PUSH1 0x40 MLOAD PUSH4 0x1E4FBDF7 PUSH1 0xE0 SHL DUP2 MSTORE PUSH0 PUSH1 0x4 DUP3 ADD MSTORE PUSH1 0x24 ADD PUSH1 0x40 MLOAD DUP1 SWAP2 SUB SWAP1 REVERT JUMPDEST PUSH1 0x61 DUP2 PUSH1 0x82 JUMP JUMPDEST POP CALLER PUSH0 SWAP1 DUP2 MSTORE PUSH1 0x2 PUSH1 0x20 DUP2 SWAP1 MSTORE PUSH1 0x40 SWAP1 SWAP2 KECCAK256 DUP1 SLOAD PUSH1 0xFF NOT AND SWAP1 SWAP2 OR SWAP1 SSTORE PUSH1 0xD3 JUMP JUMPDEST PUSH1 0x1 DUP1 SLOAD PUSH1 0x1 PUSH1 0x1 PUSH1 0xA0 SHL SUB DUP4 DUP2 AND PUSH1 0x1 PUSH1 0x1 PUSH1 0xA0 SHL SUB NOT DUP4 AND DUP2 OR SWAP1 SWAP4 SSTORE PUSH1 0x40 MLOAD SWAP2 AND SWAP2 SWAP1 DUP3 SWAP1 PUSH32 0x8BE0079C531659141344CD1FD0A4F28419497F9722A3DAAFE3B4186F6B6457E0 SWAP1 PUSH0 SWAP1 LOG3 POP POP JUMP JUMPDEST PUSH2 0x5F92 DUP1 PUSH2 0xE0 PUSH0 CODECOPY PUSH0 RETURN INVALID PUSH1 0x80 PUSH1 0x40 MSTORE PUSH1 0x4 CALLDATASIZE LT PUSH2 0x1D5 JUMPI PUSH0 CALLDATALOAD PUSH1 0xE0 SHR DUP1 PUSH4 0x659AE68 EQ PUSH2 0x1D9 JUMPI DUP1 PUSH4 0x14D90E1B EQ PUSH2 0x213 JUMPI DUP1 PUSH4 0x1600C6CD EQ PUSH2 0x239 JUMPI DUP1 PUSH4 0x21D1AAE1 EQ PUSH2 0x270 JUMPI DUP1 PUSH4 0x26912883 EQ PUSH2 0x291 JUMPI DUP1 PUSH4 0x2A58B330 EQ PUSH2 0x2BD JUMPI DUP1 PUSH4 0x2FB8229B EQ PUSH2 0x2DC JUMPI DUP1 PUSH4 0x388F20A8 EQ PUSH2 0x2FB JUMPI DUP1 PUSH4 0x49392B3D EQ PUSH2 0x31A JUMPI DUP1 PUSH4 0x515F72CE EQ PUSH2 0x339 JUMPI DUP1 PUSH4 0x5B94EA5D EQ PUSH2 0x358 JUMPI DUP1 PUSH4 0x603EF649 EQ PUSH2 0x377 JUMPI DUP1 PUSH4 0x6761DC8C EQ PUSH2 0x397 JUMPI DUP1 PUSH4 0x6B813675 EQ PUSH2 0x3C6 JUMPI DUP1 PUSH4 0x6E1F4B75 EQ PUSH2 0x3F4 JUMPI DUP1 PUSH4 0x715018A6 EQ PUSH2 0x420 JUMPI DUP1 PUSH4 0x7914D2FA EQ PUSH2 0x434 JUMPI DUP1 PUSH4 0x88EE189B EQ PUSH2 0x453 JUMPI DUP1 PUSH4 0x8DA5CB5B EQ PUSH2 0x492 JUMPI DUP1 PUSH4 0x90A815A9 EQ PUSH2 0x4B3 JUMPI DUP1 PUSH4 0x98D88075 EQ PUSH2 0x4DF JUMPI DUP1 PUSH4 0x99374642 EQ PUSH2 0x4F2 JUMPI DUP1 PUSH4 0xAA620CE8 EQ PUSH2 0x52D JUMPI DUP1 PUSH4 0xABCA88F0 EQ PUSH2 0x54C JUMPI DUP1 PUSH4 0xAE9A4655 EQ PUSH2 0x580 JUMPI DUP1 PUSH4 0xBAB5933A EQ PUSH2 0x59F JUMPI DUP1 PUSH4 0xD74B3C20 EQ PUSH2 0x5B3 JUMPI DUP1 PUSH4 0xD76D571A EQ PUSH2 0x5DF JUMPI DUP1 PUSH4 0xD9A85E63 EQ PUSH2 0x5FE JUMPI DUP1 PUSH4 0xDAC4A255 EQ PUSH2 0x634 JUMPI DUP1 PUSH4 0xDBC91396 EQ PUSH2 0x653 JUMPI DUP1 PUSH4 0xDDB0C22F EQ PUSH2 0x672 JUMPI DUP1 PUSH4 0xE28D7A18 EQ PUSH2 0x691 JUMPI DUP1 PUSH4 0xF2FDE38B EQ PUSH2 0x6C5 JUMPI DUP1 PUSH4 0xF3F43703 EQ PUSH2 0x6E4 JUMPI DUP1 PUSH4 0xF4340E9C EQ PUSH2 0x718 JUMPI DUP1 PUSH4 0xF50DDBC7 EQ PUSH2 0x748 JUMPI DUP1 PUSH4 0xF7937282 EQ PUSH2 0x77C JUMPI DUP1 PUSH4 0xFA20FCA7 EQ PUSH2 0x79B JUMPI DUP1 PUSH4 0xFB727088 EQ PUSH2 0x7AF JUMPI DUP1 PUSH4 0xFF8DDEE3 EQ PUSH2 0x7D5 JUMPI JUMPDEST PUSH0 PUSH0 REVERT JUMPDEST CALLVALUE DUP1 ISZERO PUSH2 0x1E4 JUMPI PUSH0 PUSH0 REVERT JUMPDEST POP PUSH2 0x1F8 PUSH2 0x1F3 CALLDATASIZE PUSH1 0x4 PUSH2 0x4C83 JUMP JUMPDEST PUSH2 0x855 JUMP JUMPDEST PUSH1 0x40 MLOAD PUSH2 0x20A SWAP7 SWAP6 SWAP5 SWAP4 SWAP3 SWAP2 SWAP1 PUSH2 0x4CE6 JUMP JUMPDEST PUSH1 0x40 MLOAD DUP1 SWAP2 SUB SWAP1 RETURN JUMPDEST CALLVALUE DUP1 ISZERO PUSH2 0x21E JUMPI PUSH0 PUSH0 REVERT JUMPDEST POP PUSH2 0x227 PUSH1 0x14 DUP2 JUMP JUMPDEST PUSH1 0x40 MLOAD PUSH1 0xFF SWAP1 SWAP2 AND DUP2 MSTORE PUSH1 0x20 ADD PUSH2 0x20A JUMP JUMPDEST CALLVALUE DUP1 ISZERO PUSH2 0x244 JUMPI PUSH0 PUSH0 REVERT JUMPDEST POP PUSH2 0x258 PUSH2 0x253 CALLDATASIZE PUSH1 0x4 PUSH2 0x4C83 JUMP JUMPDEST PUSH2 0x955 JUMP JUMPDEST PUSH1 0x40 MLOAD PUSH1 0x1 PUSH1 0x1 PUSH1 0x80 SHL SUB SWAP1 SWAP2 AND DUP2 MSTORE PUSH1 0x20 ADD PUSH2 0x20A JUMP JUMPDEST CALLVALUE DUP1 ISZERO PUSH2 0x27B JUMPI PUSH0 PUSH0 REVERT JUMPDEST POP PUSH2 0x28F PUSH2 0x28A CALLDATASIZE PUSH1 0x4 PUSH2 0x4E09 JUMP JUMPDEST PUSH2 0x99C JUMP JUMPDEST STOP JUMPDEST CALLVALUE DUP1 ISZERO PUSH2 0x29C JUMPI PUSH0 PUSH0 REVERT JUMPDEST POP PUSH2 0x2B0 PUSH2 0x2AB CALLDATASIZE PUSH1 0x4 PUSH2 0x4F07 JUMP JUMPDEST PUSH2 0xCD5 JUMP JUMPDEST PUSH1 0x40 MLOAD PUSH2 0x20A SWAP2 SWAP1 PUSH2 0x5057 JUMP JUMPDEST CALLVALUE DUP1 ISZERO PUSH2 0x2C8 JUMPI PUSH0 PUSH0 REVERT JUMPDEST POP PUSH1 0x6 SLOAD PUSH2 0x258 SWAP1 PUSH1 0x1 PUSH1 0x1 PUSH1 0x80 SHL SUB AND DUP2 JUMP JUMPDEST CALLVALUE DUP1 ISZERO PUSH2 0x2E7 JUMPI PUSH0 PUSH0 REVERT JUMPDEST POP PUSH2 0x258 PUSH2 0x2F6 CALLDATASIZE PUSH1 0x4 PUSH2 0x50BA JUMP JUMPDEST PUSH2 0x100F JUMP JUMPDEST CALLVALUE DUP1 ISZERO PUSH2 0x306 JUMPI PUSH0 PUSH0 REVERT JUMPDEST POP PUSH2 0x28F PUSH2 0x315 CALLDATASIZE PUSH1 0x4 PUSH2 0x50D4 JUMP JUMPDEST PUSH2 0x1028 JUMP JUMPDEST CALLVALUE DUP1 ISZERO PUSH2 0x325 JUMPI PUSH0 PUSH0 REVERT JUMPDEST POP PUSH2 0x28F PUSH2 0x334 CALLDATASIZE PUSH1 0x4 PUSH2 0x50FD JUMP JUMPDEST PUSH2 0x1254 JUMP JUMPDEST CALLVALUE DUP1 ISZERO PUSH2 0x344 JUMPI PUSH0 PUSH0 REVERT JUMPDEST POP PUSH2 0x28F PUSH2 0x353 CALLDATASIZE PUSH1 0x4 PUSH2 0x5167 JUMP JUMPDEST PUSH2 0x155F JUMP JUMPDEST CALLVALUE DUP1 ISZERO PUSH2 0x363 JUMPI PUSH0 PUSH0 REVERT JUMPDEST POP PUSH2 0x28F PUSH2 0x372 CALLDATASIZE PUSH1 0x4 PUSH2 0x4F07 JUMP JUMPDEST PUSH2 0x1769 JUMP JUMPDEST CALLVALUE DUP1 ISZERO PUSH2 0x382 JUMPI PUSH0 PUSH0 REVERT JUMPDEST POP PUSH1 0x7 SLOAD PUSH2 0x227 SWAP1 PUSH1 0x1 PUSH1 0x80 SHL SWAP1 DIV PUSH1 0xFF AND DUP2 JUMP JUMPDEST CALLVALUE DUP1 ISZERO PUSH2 0x3A2 JUMPI PUSH0 PUSH0 REVERT JUMPDEST POP PUSH2 0x3B6 PUSH2 0x3B1 CALLDATASIZE PUSH1 0x4 PUSH2 0x50BA JUMP JUMPDEST PUSH2 0x1983 JUMP JUMPDEST PUSH1 0x40 MLOAD PUSH2 0x20A SWAP5 SWAP4 SWAP3 SWAP2 SWAP1 PUSH2 0x51C0 JUMP JUMPDEST CALLVALUE DUP1 ISZERO PUSH2 0x3D1 JUMPI PUSH0 PUSH0 REVERT JUMPDEST POP PUSH2 0x3E5 PUSH2 0x3E0 CALLDATASIZE PUSH1 0x4 PUSH2 0x50D4 JUMP JUMPDEST PUSH2 0x1A61 JUMP JUMPDEST PUSH1 0x40 MLOAD PUSH2 0x20A SWAP4 SWAP3 SWAP2 SWAP1 PUSH2 0x5346 JUMP JUMPDEST CALLVALUE DUP1 ISZERO PUSH2 0x3FF JUMPI PUSH0 PUSH0 REVERT JUMPDEST POP PUSH2 0x413 PUSH2 0x40E CALLDATASIZE PUSH1 0x4 PUSH2 0x50D4 JUMP JUMPDEST PUSH2 0x224F JUMP JUMPDEST PUSH1 0x40 MLOAD PUSH2 0x20A SWAP2 SWAP1 PUSH2 0x53B8 JUMP JUMPDEST CALLVALUE DUP1 ISZERO PUSH2 0x42B JUMPI PUSH0 PUSH0 REVERT JUMPDEST POP PUSH2 0x28F PUSH2 0x23DE JUMP JUMPDEST CALLVALUE DUP1 ISZERO PUSH2 0x43F JUMPI PUSH0 PUSH0 REVERT JUMPDEST POP PUSH2 0x258 PUSH2 0x44E CALLDATASIZE PUSH1 0x4 PUSH2 0x4F07 JUMP JUMPDEST PUSH2 0x23F1 JUMP JUMPDEST CALLVALUE DUP1 ISZERO PUSH2 0x45E JUMPI PUSH0 PUSH0 REVERT JUMPDEST POP PUSH2 0x258 PUSH2 0x46D CALLDATASIZE PUSH1 0x4 PUSH2 0x4F07 JUMP JUMPDEST PUSH1 0xD PUSH1 0x20 SWAP1 DUP2 MSTORE PUSH0 SWAP3 DUP4 MSTORE PUSH1 0x40 DUP1 DUP5 KECCAK256 SWAP1 SWAP2 MSTORE SWAP1 DUP3 MSTORE SWAP1 KECCAK256 SLOAD PUSH1 0x1 PUSH1 0x1 PUSH1 0x80 SHL SUB AND DUP2 JUMP JUMPDEST CALLVALUE DUP1 ISZERO PUSH2 0x49D JUMPI PUSH0 PUSH0 REVERT JUMPDEST POP PUSH2 0x4A6 PUSH2 0x24F5 JUMP JUMPDEST PUSH1 0x40 MLOAD PUSH2 0x20A SWAP2 SWAP1 PUSH2 0x5465 JUMP JUMPDEST CALLVALUE DUP1 ISZERO PUSH2 0x4BE JUMPI PUSH0 PUSH0 REVERT JUMPDEST POP PUSH2 0x4D2 PUSH2 0x4CD CALLDATASIZE PUSH1 0x4 PUSH2 0x5479 JUMP JUMPDEST PUSH2 0x2504 JUMP JUMPDEST PUSH1 0x40 MLOAD PUSH2 0x20A SWAP2 SWAP1 PUSH2 0x5492 JUMP JUMPDEST PUSH2 0x28F PUSH2 0x4ED CALLDATASIZE PUSH1 0x4 PUSH2 0x55CA JUMP JUMPDEST PUSH2 0x265C JUMP JUMPDEST CALLVALUE DUP1 ISZERO PUSH2 0x4FD JUMPI PUSH0 PUSH0 REVERT JUMPDEST POP PUSH2 0x520 PUSH2 0x50C CALLDATASIZE PUSH1 0x4 PUSH2 0x5479 JUMP JUMPDEST PUSH1 0x2 PUSH1 0x20 MSTORE PUSH0 SWAP1 DUP2 MSTORE PUSH1 0x40 SWAP1 KECCAK256 SLOAD PUSH1 0xFF AND DUP2 JUMP JUMPDEST PUSH1 0x40 MLOAD PUSH2 0x20A SWAP2 SWAP1 PUSH2 0x5632 JUMP JUMPDEST CALLVALUE DUP1 ISZERO PUSH2 0x538 JUMPI PUSH0 PUSH0 REVERT JUMPDEST POP PUSH2 0x28F PUSH2 0x547 CALLDATASIZE PUSH1 0x4 PUSH2 0x565B JUMP JUMPDEST PUSH2 0x2F14 JUMP JUMPDEST CALLVALUE DUP1 ISZERO PUSH2 0x557 JUMPI PUSH0 PUSH0 REVERT JUMPDEST POP PUSH2 0x4A6 PUSH2 0x566 CALLDATASIZE PUSH1 0x4 PUSH2 0x50D4 JUMP JUMPDEST PUSH1 0x4 PUSH1 0x20 MSTORE PUSH0 SWAP1 DUP2 MSTORE PUSH1 0x40 SWAP1 KECCAK256 SLOAD PUSH1 0x1 PUSH1 0x1 PUSH1 0xA0 SHL SUB AND DUP2 JUMP JUMPDEST CALLVALUE DUP1 ISZERO PUSH2 0x58B JUMPI PUSH0 PUSH0 REVERT JUMPDEST POP PUSH2 0x28F PUSH2 0x59A CALLDATASIZE PUSH1 0x4 PUSH2 0x577A JUMP JUMPDEST PUSH2 0x317B JUMP JUMPDEST CALLVALUE DUP1 ISZERO PUSH2 0x5AA JUMPI PUSH0 PUSH0 REVERT JUMPDEST POP PUSH2 0x2B0 PUSH2 0x32EE JUMP JUMPDEST CALLVALUE DUP1 ISZERO PUSH2 0x5BE JUMPI PUSH0 PUSH0 REVERT JUMPDEST POP PUSH2 0x5D2 PUSH2 0x5CD CALLDATASIZE PUSH1 0x4 PUSH2 0x5794 JUMP JUMPDEST PUSH2 0x35E5 JUMP JUMPDEST PUSH1 0x40 MLOAD PUSH2 0x20A SWAP2 SWAP1 PUSH2 0x57D4 JUMP JUMPDEST CALLVALUE DUP1 ISZERO PUSH2 0x5EA JUMPI PUSH0 PUSH0 REVERT JUMPDEST POP PUSH2 0x258 PUSH2 0x5F9 CALLDATASIZE PUSH1 0x4 PUSH2 0x4C83 JUMP JUMPDEST PUSH2 0x3B26 JUMP JUMPDEST CALLVALUE DUP1 ISZERO PUSH2 0x609 JUMPI PUSH0 PUSH0 REVERT JUMPDEST POP PUSH2 0x61D PUSH2 0x618 CALLDATASIZE PUSH1 0x4 PUSH2 0x4F07 JUMP JUMPDEST PUSH2 0x3B3F JUMP JUMPDEST PUSH1 0x40 MLOAD PUSH2 0x20A SWAP12 SWAP11 SWAP10 SWAP9 SWAP8 SWAP7 SWAP6 SWAP5 SWAP4 SWAP3 SWAP2 SWAP1 PUSH2 0x57E6 JUMP JUMPDEST CALLVALUE DUP1 ISZERO PUSH2 0x63F JUMPI PUSH0 PUSH0 REVERT JUMPDEST POP PUSH2 0x28F PUSH2 0x64E CALLDATASIZE PUSH1 0x4 PUSH2 0x58A5 JUMP JUMPDEST PUSH2 0x3E69 JUMP JUMPDEST CALLVALUE DUP1 ISZERO PUSH2 0x65E JUMPI PUSH0 PUSH0 REVERT JUMPDEST POP PUSH2 0x28F PUSH2 0x66D CALLDATASIZE PUSH1 0x4 PUSH2 0x50D4 JUMP JUMPDEST PUSH2 0x4057 JUMP JUMPDEST CALLVALUE DUP1 ISZERO PUSH2 0x67D JUMPI PUSH0 PUSH0 REVERT JUMPDEST POP PUSH2 0x28F PUSH2 0x68C CALLDATASIZE PUSH1 0x4 PUSH2 0x58DC JUMP JUMPDEST PUSH2 0x428D JUMP JUMPDEST CALLVALUE DUP1 ISZERO PUSH2 0x69C JUMPI PUSH0 PUSH0 REVERT JUMPDEST POP PUSH2 0x258 PUSH2 0x6AB CALLDATASIZE PUSH1 0x4 PUSH2 0x5479 JUMP JUMPDEST PUSH1 0x3 PUSH1 0x20 MSTORE PUSH0 SWAP1 DUP2 MSTORE PUSH1 0x40 SWAP1 KECCAK256 SLOAD PUSH1 0x1 PUSH1 0x1 PUSH1 0x80 SHL SUB AND DUP2 JUMP JUMPDEST CALLVALUE DUP1 ISZERO PUSH2 0x6D0 JUMPI PUSH0 PUSH0 REVERT JUMPDEST POP PUSH2 0x28F PUSH2 0x6DF CALLDATASIZE PUSH1 0x4 PUSH2 0x5479 JUMP JUMPDEST PUSH2 0x4616 JUMP JUMPDEST CALLVALUE DUP1 ISZERO PUSH2 0x6EF JUMPI PUSH0 PUSH0 REVERT JUMPDEST POP PUSH2 0x258 PUSH2 0x6FE CALLDATASIZE PUSH1 0x4 PUSH2 0x5479 JUMP JUMPDEST PUSH1 0x9 PUSH1 0x20 MSTORE PUSH0 SWAP1 DUP2 MSTORE PUSH1 0x40 SWAP1 KECCAK256 SLOAD PUSH1 0x1 PUSH1 0x1 PUSH1 0x80 SHL SUB AND DUP2 JUMP JUMPDEST CALLVALUE DUP1 ISZERO PUSH2 0x723 JUMPI PUSH0 PUSH0 REVERT JUMPDEST POP PUSH2 0x737 PUSH2 0x732 CALLDATASIZE PUSH1 0x4 PUSH2 0x50BA JUMP JUMPDEST PUSH2 0x4650 JUMP JUMPDEST PUSH1 0x40 MLOAD PUSH2 0x20A SWAP6 SWAP5 SWAP4 SWAP3 SWAP2 SWAP1 PUSH2 0x5914 JUMP JUMPDEST CALLVALUE DUP1 ISZERO PUSH2 0x753 JUMPI PUSH0 PUSH0 REVERT JUMPDEST POP PUSH2 0x258 PUSH2 0x762 CALLDATASIZE PUSH1 0x4 PUSH2 0x5479 JUMP JUMPDEST PUSH1 0xB PUSH1 0x20 MSTORE PUSH0 SWAP1 DUP2 MSTORE PUSH1 0x40 SWAP1 KECCAK256 SLOAD PUSH1 0x1 PUSH1 0x1 PUSH1 0x80 SHL SUB AND DUP2 JUMP JUMPDEST CALLVALUE DUP1 ISZERO PUSH2 0x787 JUMPI PUSH0 PUSH0 REVERT JUMPDEST POP PUSH2 0x28F PUSH2 0x796 CALLDATASIZE PUSH1 0x4 PUSH2 0x5969 JUMP JUMPDEST PUSH2 0x4744 JUMP JUMPDEST CALLVALUE DUP1 ISZERO PUSH2 0x7A6 JUMPI PUSH0 PUSH0 REVERT JUMPDEST POP PUSH2 0x258 PUSH2 0x4825 JUMP JUMPDEST CALLVALUE DUP1 ISZERO PUSH2 0x7BA JUMPI PUSH0 PUSH0 REVERT JUMPDEST POP PUSH1 0x6 SLOAD PUSH2 0x258 SWAP1 PUSH1 0x1 PUSH1 0x80 SHL SWAP1 DIV PUSH1 0x1 PUSH1 0x1 PUSH1 0x80 SHL SUB AND DUP2 JUMP JUMPDEST CALLVALUE DUP1 ISZERO PUSH2 0x7E0 JUMPI PUSH0 PUSH0 REVERT JUMPDEST POP PUSH2 0x843 PUSH2 0x7EF CALLDATASIZE PUSH1 0x4 PUSH2 0x50D4 JUMP JUMPDEST PUSH1 0x8 PUSH1 0x20 MSTORE PUSH0 SWAP1 DUP2 MSTORE PUSH1 0x40 SWAP1 KECCAK256 DUP1 SLOAD PUSH1 0x1 DUP3 ADD SLOAD PUSH1 0x2 DUP4 ADD SLOAD PUSH1 0x5 DUP5 ADD SLOAD PUSH1 0x6 SWAP1 SWAP5 ADD SLOAD PUSH1 0x1 PUSH1 0x1 PUSH1 0x80 SHL SUB SWAP4 DUP5 AND SWAP5 PUSH1 0x1 PUSH1 0x1 PUSH1 0xA0 SHL SUB SWAP1 SWAP4 AND SWAP4 SWAP2 DUP3 AND SWAP3 DUP3 DUP2 AND SWAP3 PUSH1 0x1 PUSH1 0x80 SHL SWAP1 SWAP2 DIV PUSH1 0xFF AND SWAP2 AND DUP7 JUMP JUMPDEST PUSH1 0x40 MLOAD PUSH2 0x20A SWAP7 SWAP6 SWAP5 SWAP4 SWAP3 SWAP2 SWAP1 PUSH2 0x5982 JUMP JUMPDEST PUSH1 0x10 PUSH1 0x20 MSTORE DUP2 PUSH0 MSTORE PUSH1 0x40 PUSH0 KECCAK256 DUP2 DUP2 SLOAD DUP2 LT PUSH2 0x86E JUMPI PUSH0 DUP1 REVERT JUMPDEST PUSH0 SWAP2 DUP3 MSTORE PUSH1 0x20 SWAP1 SWAP2 KECCAK256 PUSH1 0x5 SWAP1 SWAP2 MUL ADD DUP1 SLOAD PUSH1 0x1 DUP3 ADD SLOAD PUSH1 0x2 DUP4 ADD SLOAD PUSH1 0x3 DUP5 ADD DUP1 SLOAD PUSH1 0x1 PUSH1 0x1 PUSH1 0xA0 SHL SUB SWAP5 DUP6 AND SWAP8 POP SWAP4 SWAP1 SWAP3 AND SWAP5 POP PUSH1 0x1 PUSH1 0x1 PUSH1 0x80 SHL SUB DUP2 AND SWAP4 PUSH1 0x1 PUSH1 0x80 SHL SWAP1 SWAP2 DIV PUSH1 0xFF AND SWAP3 SWAP1 SWAP2 SWAP1 PUSH2 0x8C5 SWAP1 PUSH2 0x59DA JUMP JUMPDEST DUP1 PUSH1 0x1F ADD PUSH1 0x20 DUP1 SWAP2 DIV MUL PUSH1 0x20 ADD PUSH1 0x40 MLOAD SWAP1 DUP2 ADD PUSH1 0x40 MSTORE DUP1 SWAP3 SWAP2 SWAP1 DUP2 DUP2 MSTORE PUSH1 0x20 ADD DUP3 DUP1 SLOAD PUSH2 0x8F1 SWAP1 PUSH2 0x59DA JUMP JUMPDEST DUP1 ISZERO PUSH2 0x93C JUMPI DUP1 PUSH1 0x1F LT PUSH2 0x913 JUMPI PUSH2 0x100 DUP1 DUP4 SLOAD DIV MUL DUP4 MSTORE SWAP2 PUSH1 0x20 ADD SWAP2 PUSH2 0x93C JUMP JUMPDEST DUP3 ADD SWAP2 SWAP1 PUSH0 MSTORE PUSH1 0x20 PUSH0 KECCAK256 SWAP1 JUMPDEST DUP2 SLOAD DUP2 MSTORE SWAP1 PUSH1 0x1 ADD SWAP1 PUSH1 0x20 ADD DUP1 DUP4 GT PUSH2 0x91F JUMPI DUP3 SWAP1 SUB PUSH1 0x1F AND DUP3 ADD SWAP2 JUMPDEST POP POP POP PUSH1 0x4 SWAP1 SWAP4 ADD SLOAD SWAP2 SWAP3 POP POP PUSH1 0x1 PUSH1 0x1 PUSH1 0x80 SHL SUB AND DUP7 JUMP JUMPDEST PUSH1 0xA PUSH1 0x20 MSTORE DUP2 PUSH0 MSTORE PUSH1 0x40 PUSH0 KECCAK256 DUP2 DUP2 SLOAD DUP2 LT PUSH2 0x96E JUMPI PUSH0 DUP1 REVERT JUMPDEST SWAP1 PUSH0 MSTORE PUSH1 0x20 PUSH0 KECCAK256 SWAP1 PUSH1 0x2 SWAP2 DUP3 DUP3 DIV ADD SWAP2 SWAP1 MOD PUSH1 0x10 MUL SWAP2 POP SWAP2 POP SWAP1 SLOAD SWAP1 PUSH2 0x100 EXP SWAP1 DIV PUSH1 0x1 PUSH1 0x1 PUSH1 0x80 SHL SUB AND DUP2 JUMP JUMPDEST DUP7 PUSH1 0x1 CALLER PUSH0 SWAP1 DUP2 MSTORE PUSH1 0x2 PUSH1 0x20 DUP2 SWAP1 MSTORE PUSH1 0x40 SWAP1 SWAP2 KECCAK256 SLOAD PUSH1 0xFF AND SWAP1 DUP2 GT ISZERO PUSH2 0x9C4 JUMPI PUSH2 0x9C4 PUSH2 0x4F7B JUMP JUMPDEST EQ DUP1 ISZERO PUSH2 0x9EA JUMPI POP CALLER PUSH0 SWAP1 DUP2 MSTORE PUSH1 0x3 PUSH1 0x20 MSTORE PUSH1 0x40 SWAP1 KECCAK256 SLOAD PUSH1 0x1 PUSH1 0x1 PUSH1 0x80 SHL SUB DUP3 DUP2 AND SWAP2 AND EQ JUMPDEST DUP1 PUSH2 0xA17 JUMPI POP CALLER PUSH0 SWAP1 DUP2 MSTORE PUSH1 0x2 PUSH1 0x20 DUP2 SWAP1 MSTORE PUSH1 0x40 SWAP1 SWAP2 KECCAK256 SLOAD PUSH1 0xFF AND DUP2 DUP2 GT ISZERO PUSH2 0xA15 JUMPI PUSH2 0xA15 PUSH2 0x4F7B JUMP JUMPDEST EQ JUMPDEST DUP1 PUSH2 0xA41 JUMPI POP PUSH1 0x1 PUSH1 0x1 PUSH1 0x80 SHL SUB DUP2 AND PUSH0 SWAP1 DUP2 MSTORE PUSH1 0x4 PUSH1 0x20 MSTORE PUSH1 0x40 SWAP1 KECCAK256 SLOAD PUSH1 0x1 PUSH1 0x1 PUSH1 0xA0 SHL SUB AND CALLER EQ JUMPDEST PUSH2 0xA66 JUMPI PUSH1 0x40 MLOAD PUSH3 0x461BCD PUSH1 0xE5 SHL DUP2 MSTORE PUSH1 0x4 ADD PUSH2 0xA5D SWAP1 PUSH2 0x5A12 JUMP JUMPDEST PUSH1 0x40 MLOAD DUP1 SWAP2 SUB SWAP1 REVERT JUMPDEST PUSH0 DUP8 MLOAD GT DUP1 ISZERO PUSH2 0xA7E JUMPI POP PUSH0 DUP5 PUSH1 0x1 PUSH1 0x1 PUSH1 0x80 SHL SUB AND GT JUMPDEST PUSH2 0xA9A JUMPI PUSH1 0x40 MLOAD PUSH3 0x461BCD PUSH1 0xE5 SHL DUP2 MSTORE PUSH1 0x4 ADD PUSH2 0xA5D SWAP1 PUSH2 0x5A5B JUMP JUMPDEST PUSH1 0x1 PUSH1 0x1 PUSH1 0x80 SHL SUB DUP9 AND PUSH0 SWAP1 DUP2 MSTORE PUSH1 0x4 PUSH1 0x20 MSTORE PUSH1 0x40 SWAP1 KECCAK256 SLOAD PUSH1 0x1 PUSH1 0x1 PUSH1 0xA0 SHL SUB AND PUSH2 0xAD7 JUMPI PUSH1 0x40 MLOAD PUSH3 0x461BCD PUSH1 0xE5 SHL DUP2 MSTORE PUSH1 0x4 ADD PUSH2 0xA5D SWAP1 PUSH2 0x5A81 JUMP JUMPDEST PUSH1 0x40 DUP1 MLOAD PUSH2 0x160 DUP2 ADD DUP3 MSTORE PUSH1 0x6 SLOAD PUSH1 0x1 PUSH1 0x1 PUSH1 0x80 SHL SUB PUSH1 0x1 PUSH1 0x80 SHL SWAP2 DUP3 SWAP1 DIV DUP2 AND DUP1 DUP5 MSTORE DUP13 DUP3 AND PUSH1 0x20 DUP1 DUP7 ADD DUP3 DUP2 MSTORE DUP7 DUP9 ADD DUP16 DUP2 MSTORE PUSH1 0x60 DUP9 ADD DUP16 SWAP1 MSTORE PUSH1 0x80 DUP9 ADD DUP15 SWAP1 MSTORE DUP13 DUP7 AND PUSH1 0xA0 DUP10 ADD MSTORE PUSH1 0x1 PUSH1 0xC0 DUP10 ADD DUP2 SWAP1 MSTORE PUSH1 0xE0 DUP10 ADD DUP14 SWAP1 MSTORE PUSH2 0x100 DUP10 ADD DUP13 SWAP1 MSTORE PUSH0 PUSH2 0x120 DUP11 ADD DUP2 SWAP1 MSTORE PUSH2 0x140 DUP11 ADD DUP2 SWAP1 MSTORE SWAP5 DUP6 MSTORE PUSH1 0x5 DUP5 MSTORE DUP10 DUP6 KECCAK256 SWAP6 DUP6 MSTORE SWAP5 SWAP1 SWAP3 MSTORE SWAP7 SWAP1 SWAP2 KECCAK256 DUP6 MLOAD SWAP7 MLOAD DUP5 AND SWAP1 SWAP5 MUL SWAP6 SWAP1 SWAP3 AND SWAP5 SWAP1 SWAP5 OR DUP3 SSTORE MLOAD SWAP2 SWAP3 SWAP1 SWAP2 SWAP1 DUP3 ADD SWAP1 PUSH2 0xB86 SWAP1 DUP3 PUSH2 0x5AFF JUMP JUMPDEST POP PUSH1 0x60 DUP3 ADD MLOAD PUSH1 0x2 DUP3 ADD SWAP1 PUSH2 0xB9B SWAP1 DUP3 PUSH2 0x5AFF JUMP JUMPDEST POP PUSH1 0x80 DUP3 ADD MLOAD PUSH1 0x3 DUP3 ADD SWAP1 PUSH2 0xBB0 SWAP1 DUP3 PUSH2 0x5AFF JUMP JUMPDEST POP PUSH1 0xA0 DUP3 ADD MLOAD PUSH1 0x4 DUP3 ADD DUP1 SLOAD PUSH1 0xC0 DUP6 ADD MLOAD ISZERO ISZERO PUSH1 0x1 PUSH1 0x80 SHL MUL PUSH1 0x1 PUSH1 0x1 PUSH1 0x88 SHL SUB NOT SWAP1 SWAP2 AND PUSH1 0x1 PUSH1 0x1 PUSH1 0x80 SHL SUB SWAP1 SWAP4 AND SWAP3 SWAP1 SWAP3 OR SWAP2 SWAP1 SWAP2 OR SWAP1 SSTORE PUSH1 0xE0 DUP3 ADD MLOAD PUSH1 0x5 DUP3 ADD SWAP1 PUSH2 0xBFE SWAP1 DUP3 PUSH2 0x5AFF JUMP JUMPDEST POP PUSH2 0x100 DUP3 ADD MLOAD PUSH1 0x6 DUP3 ADD SWAP1 PUSH2 0xC14 SWAP1 DUP3 PUSH2 0x5AFF JUMP JUMPDEST POP PUSH2 0x120 DUP3 ADD MLOAD PUSH2 0x140 SWAP1 SWAP3 ADD MLOAD PUSH1 0x1 PUSH1 0x1 PUSH1 0x80 SHL SUB SWAP3 DUP4 AND PUSH1 0x1 PUSH1 0x80 SHL SWAP2 DUP5 AND DUP3 MUL OR PUSH1 0x7 SWAP3 SWAP1 SWAP3 ADD SWAP2 SWAP1 SWAP2 SSTORE PUSH1 0x6 SLOAD PUSH1 0x40 MLOAD PUSH32 0x16C3BB758075933856EBC4132418C1E40E2757B27275FA2FD2DE8C38E4E54B8E SWAP4 PUSH2 0xC7E SWAP4 SWAP1 SWAP3 DIV SWAP1 SWAP2 AND SWAP1 DUP12 SWAP1 DUP12 SWAP1 PUSH2 0x5BB9 JUMP JUMPDEST PUSH1 0x40 MLOAD DUP1 SWAP2 SUB SWAP1 LOG1 PUSH1 0x6 DUP1 SLOAD PUSH1 0x1 PUSH1 0x80 SHL SWAP1 DIV PUSH1 0x1 PUSH1 0x1 PUSH1 0x80 SHL SUB AND SWAP1 PUSH1 0x10 PUSH2 0xCA6 DUP4 PUSH2 0x5C01 JUMP JUMPDEST SWAP2 SWAP1 PUSH2 0x100 EXP DUP2 SLOAD DUP2 PUSH1 0x1 PUSH1 0x1 PUSH1 0x80 SHL SUB MUL NOT AND SWAP1 DUP4 PUSH1 0x1 PUSH1 0x1 PUSH1 0x80 SHL SUB AND MUL OR SWAP1 SSTORE POP POP POP POP POP POP POP POP POP POP JUMP JUMPDEST PUSH1 0x60 PUSH1 0x2 CALLER PUSH0 SWAP1 DUP2 MSTORE PUSH1 0x2 PUSH1 0x20 DUP2 SWAP1 MSTORE PUSH1 0x40 SWAP1 SWAP2 KECCAK256 SLOAD PUSH1 0xFF AND SWAP1 DUP2 GT ISZERO PUSH2 0xCFE JUMPI PUSH2 0xCFE PUSH2 0x4F7B JUMP JUMPDEST EQ PUSH2 0xD1B JUMPI PUSH1 0x40 MLOAD PUSH3 0x461BCD PUSH1 0xE5 SHL DUP2 MSTORE PUSH1 0x4 ADD PUSH2 0xA5D SWAP1 PUSH2 0x5C2C JUMP JUMPDEST PUSH1 0x6 SLOAD PUSH0 SWAP1 PUSH1 0x1 PUSH1 0x1 PUSH1 0x80 SHL SUB DUP1 DUP7 AND SWAP2 PUSH2 0xD39 SWAP2 PUSH1 0x1 SWAP2 AND PUSH2 0x5C5E JUMP JUMPDEST PUSH1 0x1 PUSH1 0x1 PUSH1 0x80 SHL SUB AND GT PUSH2 0xD4D JUMPI PUSH0 PUSH2 0xD71 JUMP JUMPDEST PUSH1 0x6 SLOAD DUP5 SWAP1 PUSH2 0xD67 SWAP1 PUSH1 0x1 SWAP1 PUSH1 0x1 PUSH1 0x1 PUSH1 0x80 SHL SUB AND PUSH2 0x5C5E JUMP JUMPDEST PUSH2 0xD71 SWAP2 SWAP1 PUSH2 0x5C5E JUMP JUMPDEST SWAP1 POP DUP3 PUSH1 0x1 PUSH1 0x1 PUSH1 0x80 SHL SUB AND DUP2 PUSH1 0x1 PUSH1 0x1 PUSH1 0x80 SHL SUB AND GT ISZERO PUSH2 0xD90 JUMPI POP DUP2 JUMPDEST PUSH0 DUP2 PUSH1 0x1 PUSH1 0x1 PUSH1 0x80 SHL SUB AND PUSH1 0x1 PUSH1 0x1 PUSH1 0x40 SHL SUB DUP2 GT ISZERO PUSH2 0xDB2 JUMPI PUSH2 0xDB2 PUSH2 0x4D5A JUMP JUMPDEST PUSH1 0x40 MLOAD SWAP1 DUP1 DUP3 MSTORE DUP1 PUSH1 0x20 MUL PUSH1 0x20 ADD DUP3 ADD PUSH1 0x40 MSTORE DUP1 ISZERO PUSH2 0xDEB JUMPI DUP2 PUSH1 0x20 ADD JUMPDEST PUSH2 0xDD8 PUSH2 0x4AA3 JUMP JUMPDEST DUP2 MSTORE PUSH1 0x20 ADD SWAP1 PUSH1 0x1 SWAP1 SUB SWAP1 DUP2 PUSH2 0xDD0 JUMPI SWAP1 POP JUMPDEST POP SWAP1 POP PUSH0 JUMPDEST DUP3 PUSH1 0x1 PUSH1 0x1 PUSH1 0x80 SHL SUB AND DUP2 PUSH1 0x1 PUSH1 0x1 PUSH1 0x80 SHL SUB AND LT ISZERO PUSH2 0x1004 JUMPI PUSH1 0x8 PUSH0 PUSH2 0xE17 DUP4 DUP10 PUSH2 0x5C7D JUMP JUMPDEST PUSH2 0xE22 SWAP1 PUSH1 0x1 PUSH2 0x5C7D JUMP JUMPDEST PUSH1 0x1 PUSH1 0x1 PUSH1 0x80 SHL SUB SWAP1 DUP2 AND DUP3 MSTORE PUSH1 0x20 DUP1 DUP4 ADD SWAP4 SWAP1 SWAP4 MSTORE PUSH1 0x40 SWAP2 DUP3 ADD PUSH0 KECCAK256 DUP3 MLOAD PUSH2 0x100 DUP2 ADD DUP5 MSTORE DUP2 SLOAD DUP4 AND DUP2 MSTORE PUSH1 0x1 DUP3 ADD SLOAD PUSH1 0x1 PUSH1 0x1 PUSH1 0xA0 SHL SUB AND DUP2 DUP7 ADD MSTORE PUSH1 0x2 DUP3 ADD SLOAD SWAP1 SWAP3 AND DUP3 DUP5 ADD MSTORE PUSH1 0x3 DUP2 ADD DUP1 SLOAD DUP5 MLOAD DUP2 DUP8 MUL DUP2 ADD DUP8 ADD SWAP1 SWAP6 MSTORE DUP1 DUP6 MSTORE SWAP3 SWAP5 SWAP2 SWAP4 PUSH1 0x60 DUP7 ADD SWAP4 SWAP1 SWAP3 DUP4 ADD DUP3 DUP3 DUP1 ISZERO PUSH2 0xEEA JUMPI PUSH1 0x20 MUL DUP3 ADD SWAP2 SWAP1 PUSH0 MSTORE PUSH1 0x20 PUSH0 KECCAK256 SWAP1 PUSH0 SWAP1 JUMPDEST DUP3 DUP3 SWAP1 SLOAD SWAP1 PUSH2 0x100 EXP SWAP1 DIV PUSH1 0x1 PUSH1 0x1 PUSH1 0x80 SHL SUB AND PUSH1 0x1 PUSH1 0x1 PUSH1 0x80 SHL SUB AND DUP2 MSTORE PUSH1 0x20 ADD SWAP1 PUSH1 0x10 ADD SWAP1 PUSH1 0x20 DUP3 PUSH1 0xF ADD DIV SWAP3 DUP4 ADD SWAP3 PUSH1 0x1 SUB DUP3 MUL SWAP2 POP DUP1 DUP5 GT PUSH2 0xEA7 JUMPI SWAP1 POP JUMPDEST POP POP POP POP POP DUP2 MSTORE PUSH1 0x20 ADD PUSH1 0x4 DUP3 ADD DUP1 SLOAD DUP1 PUSH1 0x20 MUL PUSH1 0x20 ADD PUSH1 0x40 MLOAD SWAP1 DUP2 ADD PUSH1 0x40 MSTORE DUP1 SWAP3 SWAP2 SWAP1 DUP2 DUP2 MSTORE PUSH1 0x20 ADD DUP3 DUP1 SLOAD DUP1 ISZERO PUSH2 0xF71 JUMPI PUSH1 0x20 MUL DUP3 ADD SWAP2 SWAP1 PUSH0 MSTORE PUSH1 0x20 PUSH0 KECCAK256 SWAP1 PUSH0 SWAP1 JUMPDEST DUP3 DUP3 SWAP1 SLOAD SWAP1 PUSH2 0x100 EXP SWAP1 DIV PUSH1 0x1 PUSH1 0x1 PUSH1 0x80 SHL SUB AND PUSH1 0x1 PUSH1 0x1 PUSH1 0x80 SHL SUB AND DUP2 MSTORE PUSH1 0x20 ADD SWAP1 PUSH1 0x10 ADD SWAP1 PUSH1 0x20 DUP3 PUSH1 0xF ADD DIV SWAP3 DUP4 ADD SWAP3 PUSH1 0x1 SUB DUP3 MUL SWAP2 POP DUP1 DUP5 GT PUSH2 0xF2E JUMPI SWAP1 POP JUMPDEST POP POP POP SWAP2 DUP4 MSTORE POP POP PUSH1 0x5 DUP3 DUP2 ADD SLOAD PUSH1 0x1 PUSH1 0x1 PUSH1 0x80 SHL SUB DUP2 AND PUSH1 0x20 DUP5 ADD MSTORE PUSH1 0x40 SWAP1 SWAP3 ADD SWAP2 PUSH1 0x1 PUSH1 0x80 SHL SWAP1 DIV PUSH1 0xFF AND SWAP1 DUP2 GT ISZERO PUSH2 0xFAE JUMPI PUSH2 0xFAE PUSH2 0x4F7B JUMP JUMPDEST PUSH1 0x5 DUP2 GT ISZERO PUSH2 0xFBF JUMPI PUSH2 0xFBF PUSH2 0x4F7B JUMP JUMPDEST DUP2 MSTORE PUSH1 0x6 SWAP2 SWAP1 SWAP2 ADD SLOAD PUSH1 0x1 PUSH1 0x1 PUSH1 0x80 SHL SUB SWAP1 DUP2 AND PUSH1 0x20 SWAP1 SWAP3 ADD SWAP2 SWAP1 SWAP2 MSTORE DUP4 MLOAD DUP5 SWAP2 DUP5 AND SWAP1 DUP2 LT PUSH2 0xFF1 JUMPI PUSH2 0xFF1 PUSH2 0x5C9C JUMP JUMPDEST PUSH1 0x20 SWAP1 DUP2 MUL SWAP2 SWAP1 SWAP2 ADD ADD MSTORE PUSH1 0x1 ADD PUSH2 0xDF0 JUMP JUMPDEST POP SWAP2 POP POP JUMPDEST SWAP3 SWAP2 POP POP JUMP JUMPDEST PUSH1 0xF PUSH1 0x20 MSTORE DUP2 PUSH0 MSTORE PUSH1 0x40 PUSH0 KECCAK256 DUP2 DUP2 SLOAD DUP2 LT PUSH2 0x96E JUMPI PUSH0 DUP1 REVERT JUMPDEST CALLER PUSH0 SWAP1 DUP2 MSTORE PUSH1 0x2 PUSH1 0x20 DUP2 SWAP1 MSTORE PUSH1 0x40 SWAP1 SWAP2 KECCAK256 SLOAD PUSH1 0xFF AND DUP2 DUP2 GT ISZERO PUSH2 0x104D JUMPI PUSH2 0x104D PUSH2 0x4F7B JUMP JUMPDEST EQ DUP1 PUSH2 0x107A JUMPI POP CALLER PUSH0 SWAP1 DUP2 MSTORE PUSH1 0x2 PUSH1 0x20 DUP2 SWAP1 MSTORE PUSH1 0x40 DUP3 KECCAK256 SLOAD PUSH1 0xFF AND SWAP1 DUP2 GT ISZERO PUSH2 0x1078 JUMPI PUSH2 0x1078 PUSH2 0x4F7B JUMP JUMPDEST EQ JUMPDEST PUSH2 0x1096 JUMPI PUSH1 0x40 MLOAD PUSH3 0x461BCD PUSH1 0xE5 SHL DUP2 MSTORE PUSH1 0x4 ADD PUSH2 0xA5D SWAP1 PUSH2 0x5CB0 JUMP JUMPDEST PUSH2 0x109E PUSH2 0x490E JUMP JUMPDEST DUP1 PUSH0 DUP2 PUSH1 0x1 PUSH1 0x1 PUSH1 0x80 SHL SUB AND GT DUP1 ISZERO PUSH2 0x10C5 JUMPI POP PUSH1 0x6 SLOAD PUSH1 0x1 PUSH1 0x1 PUSH1 0x80 SHL SUB SWAP1 DUP2 AND SWAP1 DUP3 AND LT JUMPDEST PUSH2 0x10E1 JUMPI PUSH1 0x40 MLOAD PUSH3 0x461BCD PUSH1 0xE5 SHL DUP2 MSTORE PUSH1 0x4 ADD PUSH2 0xA5D SWAP1 PUSH2 0x5CE0 JUMP JUMPDEST PUSH1 0x1 PUSH1 0x1 PUSH1 0x80 SHL SUB DUP3 AND PUSH0 SWAP1 DUP2 MSTORE PUSH1 0x8 PUSH1 0x20 MSTORE PUSH1 0x40 SWAP1 KECCAK256 PUSH1 0x1 DUP2 ADD SLOAD PUSH1 0x1 PUSH1 0x1 PUSH1 0xA0 SHL SUB AND CALLER EQ PUSH2 0x1124 JUMPI PUSH1 0x40 MLOAD PUSH3 0x461BCD PUSH1 0xE5 SHL DUP2 MSTORE PUSH1 0x4 ADD PUSH2 0xA5D SWAP1 PUSH2 0x5D0A JUMP JUMPDEST PUSH1 0x3 PUSH1 0x5 DUP3 DUP2 ADD SLOAD PUSH1 0x1 PUSH1 0x80 SHL SWAP1 DIV PUSH1 0xFF AND SWAP1 DUP2 GT ISZERO PUSH2 0x1146 JUMPI PUSH2 0x1146 PUSH2 0x4F7B JUMP JUMPDEST EQ PUSH2 0x1185 JUMPI PUSH1 0x40 MLOAD PUSH3 0x461BCD PUSH1 0xE5 SHL DUP2 MSTORE PUSH1 0x20 PUSH1 0x4 DUP3 ADD MSTORE PUSH1 0xF PUSH1 0x24 DUP3 ADD MSTORE PUSH15 0x4F72646572206E6F74207265616479 PUSH1 0x88 SHL PUSH1 0x44 DUP3 ADD MSTORE PUSH1 0x64 ADD PUSH2 0xA5D JUMP JUMPDEST PUSH1 0x5 DUP2 ADD DUP1 SLOAD PUSH1 0xFF PUSH1 0x80 SHL NOT AND PUSH1 0x5 PUSH1 0x80 SHL OR SWAP1 SSTORE CALLER PUSH0 SWAP1 DUP2 MSTORE PUSH1 0xB PUSH1 0x20 MSTORE PUSH1 0x40 DUP2 KECCAK256 DUP1 SLOAD PUSH1 0xA SWAP3 SWAP1 PUSH2 0x11C2 SWAP1 DUP5 SWAP1 PUSH1 0x1 PUSH1 0x1 PUSH1 0x80 SHL SUB AND PUSH2 0x5C7D JUMP JUMPDEST SWAP3 POP PUSH2 0x100 EXP DUP2 SLOAD DUP2 PUSH1 0x1 PUSH1 0x1 PUSH1 0x80 SHL SUB MUL NOT AND SWAP1 DUP4 PUSH1 0x1 PUSH1 0x1 PUSH1 0x80 SHL SUB AND MUL OR SWAP1 SSTORE POP PUSH32 0x2B43CAF6E380609EC1E8A3EEA0E53325C84F3EFB96E5D9D4DE1B5F30FF51E00 DUP4 CALLER PUSH1 0x40 MLOAD PUSH2 0x1217 SWAP3 SWAP2 SWAP1 PUSH2 0x5D32 JUMP JUMPDEST PUSH1 0x40 MLOAD DUP1 SWAP2 SUB SWAP1 LOG1 PUSH0 MLOAD PUSH1 0x20 PUSH2 0x5F3D PUSH0 CODECOPY PUSH0 MLOAD SWAP1 PUSH0 MSTORE DUP4 PUSH1 0x5 PUSH1 0x40 MLOAD PUSH2 0x123E SWAP3 SWAP2 SWAP1 PUSH2 0x5D54 JUMP JUMPDEST PUSH1 0x40 MLOAD DUP1 SWAP2 SUB SWAP1 LOG1 POP POP PUSH2 0x1251 PUSH1 0x1 PUSH0 SSTORE JUMP JUMPDEST POP JUMP JUMPDEST CALLER PUSH0 SWAP1 DUP2 MSTORE PUSH1 0x2 PUSH1 0x20 DUP2 SWAP1 MSTORE PUSH1 0x40 DUP3 KECCAK256 SLOAD PUSH1 0xFF AND SWAP1 DUP2 GT ISZERO PUSH2 0x1278 JUMPI PUSH2 0x1278 PUSH2 0x4F7B JUMP JUMPDEST EQ DUP1 PUSH2 0x12A8 JUMPI POP PUSH1 0x1 CALLER PUSH0 SWAP1 DUP2 MSTORE PUSH1 0x2 PUSH1 0x20 DUP2 SWAP1 MSTORE PUSH1 0x40 SWAP1 SWAP2 KECCAK256 SLOAD PUSH1 0xFF AND SWAP1 DUP2 GT ISZERO PUSH2 0x12A6 JUMPI PUSH2 0x12A6 PUSH2 0x4F7B JUMP JUMPDEST EQ JUMPDEST PUSH2 0x1300 JUMPI PUSH1 0x40 MLOAD PUSH3 0x461BCD PUSH1 0xE5 SHL DUP2 MSTORE PUSH1 0x20 PUSH1 0x4 DUP3 ADD MSTORE PUSH1 0x24 DUP1 DUP3 ADD MSTORE PUSH32 0x556E617574686F72697A65643A205374616666206F7220437573746F6D657220 PUSH1 0x44 DUP3 ADD MSTORE PUSH4 0x6F6E6C79 PUSH1 0xE0 SHL PUSH1 0x64 DUP3 ADD MSTORE PUSH1 0x84 ADD PUSH2 0xA5D JUMP JUMPDEST PUSH1 0x1 DUP3 PUSH1 0xFF AND LT ISZERO DUP1 ISZERO PUSH2 0x1318 JUMPI POP PUSH1 0x5 DUP3 PUSH1 0xFF AND GT ISZERO JUMPDEST PUSH2 0x1334 JUMPI PUSH1 0x40 MLOAD PUSH3 0x461BCD PUSH1 0xE5 SHL DUP2 MSTORE PUSH1 0x4 ADD PUSH2 0xA5D SWAP1 PUSH2 0x5D71 JUMP JUMPDEST PUSH1 0x1 PUSH1 0x1 PUSH1 0x80 SHL SUB DUP4 AND PUSH0 SWAP1 DUP2 MSTORE PUSH1 0x4 PUSH1 0x20 MSTORE PUSH1 0x40 SWAP1 KECCAK256 SLOAD PUSH1 0x1 PUSH1 0x1 PUSH1 0xA0 SHL SUB AND PUSH2 0x1371 JUMPI PUSH1 0x40 MLOAD PUSH3 0x461BCD PUSH1 0xE5 SHL DUP2 MSTORE PUSH1 0x4 ADD PUSH2 0xA5D SWAP1 PUSH2 0x5A81 JUMP JUMPDEST PUSH1 0x1 PUSH1 0x1 PUSH1 0x1 PUSH1 0xA0 SHL SUB DUP6 AND PUSH0 SWAP1 DUP2 MSTORE PUSH1 0x2 PUSH1 0x20 DUP2 SWAP1 MSTORE PUSH1 0x40 SWAP1 SWAP2 KECCAK256 SLOAD PUSH1 0xFF AND SWAP1 DUP2 GT ISZERO PUSH2 0x13A1 JUMPI PUSH2 0x13A1 PUSH2 0x4F7B JUMP JUMPDEST EQ DUP1 ISZERO PUSH2 0x13D0 JUMPI POP PUSH1 0x1 PUSH1 0x1 PUSH1 0xA0 SHL SUB DUP5 AND PUSH0 SWAP1 DUP2 MSTORE PUSH1 0x3 PUSH1 0x20 MSTORE PUSH1 0x40 SWAP1 KECCAK256 SLOAD PUSH1 0x1 PUSH1 0x1 PUSH1 0x80 SHL SUB DUP5 DUP2 AND SWAP2 AND EQ JUMPDEST PUSH2 0x140F JUMPI PUSH1 0x40 MLOAD PUSH3 0x461BCD PUSH1 0xE5 SHL DUP2 MSTORE PUSH1 0x20 PUSH1 0x4 DUP3 ADD MSTORE PUSH1 0x10 PUSH1 0x24 DUP3 ADD MSTORE PUSH16 0x496E76616C696420656D706C6F796565 PUSH1 0x80 SHL PUSH1 0x44 DUP3 ADD MSTORE PUSH1 0x64 ADD PUSH2 0xA5D JUMP JUMPDEST PUSH1 0x40 DUP1 MLOAD PUSH1 0xC0 DUP2 ADD DUP3 MSTORE CALLER DUP2 MSTORE PUSH1 0x1 PUSH1 0x1 PUSH1 0xA0 SHL SUB DUP7 DUP2 AND PUSH1 0x20 DUP1 DUP5 ADD DUP3 DUP2 MSTORE PUSH1 0x1 PUSH1 0x1 PUSH1 0x80 SHL SUB DUP1 DUP11 AND DUP7 DUP9 ADD SWAP1 DUP2 MSTORE PUSH1 0xFF DUP1 DUP12 AND PUSH1 0x60 DUP10 ADD SWAP1 DUP2 MSTORE PUSH1 0x80 DUP10 ADD DUP12 DUP2 MSTORE TIMESTAMP DUP6 AND PUSH1 0xA0 DUP12 ADD MSTORE PUSH0 SWAP8 DUP9 MSTORE PUSH1 0x10 DUP8 MSTORE SWAP10 DUP8 KECCAK256 DUP1 SLOAD PUSH1 0x1 DUP2 DUP2 ADD DUP4 SSTORE SWAP2 DUP10 MSTORE SWAP7 SWAP1 SWAP8 KECCAK256 DUP10 MLOAD PUSH1 0x5 SWAP1 SWAP8 MUL ADD DUP1 SLOAD SWAP7 DUP10 AND PUSH1 0x1 PUSH1 0x1 PUSH1 0xA0 SHL SUB NOT SWAP8 DUP9 AND OR DUP2 SSTORE SWAP5 MLOAD SWAP7 DUP6 ADD DUP1 SLOAD SWAP8 SWAP1 SWAP9 AND SWAP7 SWAP1 SWAP6 AND SWAP6 SWAP1 SWAP6 OR SWAP1 SWAP6 SSTORE SWAP4 MLOAD PUSH1 0x2 DUP3 ADD DUP1 SLOAD SWAP4 MLOAD SWAP1 SWAP5 AND PUSH1 0x1 PUSH1 0x80 SHL MUL PUSH1 0x1 PUSH1 0x1 PUSH1 0x88 SHL SUB NOT SWAP1 SWAP4 AND SWAP5 AND SWAP4 SWAP1 SWAP4 OR OR SWAP1 SSTORE SWAP2 MLOAD SWAP1 SWAP2 DUP3 SWAP2 PUSH1 0x3 DUP3 ADD SWAP1 PUSH2 0x14E5 SWAP1 DUP3 PUSH2 0x5AFF JUMP JUMPDEST POP PUSH1 0xA0 SWAP2 SWAP1 SWAP2 ADD MLOAD PUSH1 0x4 SWAP1 SWAP2 ADD DUP1 SLOAD PUSH1 0x1 PUSH1 0x1 PUSH1 0x80 SHL SUB NOT AND PUSH1 0x1 PUSH1 0x1 PUSH1 0x80 SHL SUB SWAP1 SWAP3 AND SWAP2 SWAP1 SWAP2 OR SWAP1 SSTORE PUSH1 0x40 MLOAD CALLER SWAP1 PUSH1 0x1 PUSH1 0x1 PUSH1 0xA0 SHL SUB DUP8 AND SWAP1 PUSH32 0x1711E3E66EFA00ED25F58FFE8E0D8B7C1B29C2CBEA7D708710A5A467EF74D21F SWAP1 PUSH2 0x1550 SWAP1 DUP9 SWAP1 DUP9 SWAP1 DUP9 SWAP1 PUSH2 0x5DA8 JUMP JUMPDEST PUSH1 0x40 MLOAD DUP1 SWAP2 SUB SWAP1 LOG3 POP POP POP POP POP JUMP JUMPDEST CALLER PUSH0 SWAP1 DUP2 MSTORE PUSH1 0x2 PUSH1 0x20 DUP2 SWAP1 MSTORE PUSH1 0x40 SWAP1 SWAP2 KECCAK256 SLOAD PUSH1 0xFF AND DUP2 DUP2 GT ISZERO PUSH2 0x1584 JUMPI PUSH2 0x1584 PUSH2 0x4F7B JUMP JUMPDEST EQ DUP1 PUSH2 0x15B1 JUMPI POP CALLER PUSH0 SWAP1 DUP2 MSTORE PUSH1 0x2 PUSH1 0x20 DUP2 SWAP1 MSTORE PUSH1 0x40 DUP3 KECCAK256 SLOAD PUSH1 0xFF AND SWAP1 DUP2 GT ISZERO PUSH2 0x15AF JUMPI PUSH2 0x15AF PUSH2 0x4F7B JUMP JUMPDEST EQ JUMPDEST PUSH2 0x15CD JUMPI PUSH1 0x40 MLOAD PUSH3 0x461BCD PUSH1 0xE5 SHL DUP2 MSTORE PUSH1 0x4 ADD PUSH2 0xA5D SWAP1 PUSH2 0x5CB0 JUMP JUMPDEST PUSH1 0x1 DUP3 PUSH1 0xFF AND LT ISZERO DUP1 ISZERO PUSH2 0x15E5 JUMPI POP PUSH1 0x5 DUP3 PUSH1 0xFF AND GT ISZERO JUMPDEST PUSH2 0x1601 JUMPI PUSH1 0x40 MLOAD PUSH3 0x461BCD PUSH1 0xE5 SHL DUP2 MSTORE PUSH1 0x4 ADD PUSH2 0xA5D SWAP1 PUSH2 0x5D71 JUMP JUMPDEST PUSH1 0x1 PUSH1 0x1 PUSH1 0x80 SHL SUB DUP4 AND PUSH0 SWAP1 DUP2 MSTORE PUSH1 0x4 PUSH1 0x20 MSTORE PUSH1 0x40 SWAP1 KECCAK256 SLOAD PUSH1 0x1 PUSH1 0x1 PUSH1 0xA0 SHL SUB AND PUSH2 0x163E JUMPI PUSH1 0x40 MLOAD PUSH3 0x461BCD PUSH1 0xE5 SHL DUP2 MSTORE PUSH1 0x4 ADD PUSH2 0xA5D SWAP1 PUSH2 0x5A81 JUMP JUMPDEST PUSH1 0x40 DUP1 MLOAD PUSH1 0xA0 DUP2 ADD DUP3 MSTORE CALLER DUP2 MSTORE PUSH1 0x1 PUSH1 0x1 PUSH1 0x80 SHL SUB DUP1 DUP7 AND PUSH1 0x20 DUP1 DUP5 ADD DUP3 DUP2 MSTORE PUSH1 0xFF DUP1 DUP10 AND DUP7 DUP9 ADD SWAP1 DUP2 MSTORE PUSH1 0x60 DUP8 ADD DUP10 DUP2 MSTORE TIMESTAMP DUP8 AND PUSH1 0x80 DUP10 ADD MSTORE PUSH0 SWAP6 DUP7 MSTORE PUSH1 0x11 DUP6 MSTORE SWAP8 DUP6 KECCAK256 DUP1 SLOAD PUSH1 0x1 DUP2 DUP2 ADD DUP4 SSTORE SWAP2 DUP8 MSTORE SWAP5 SWAP1 SWAP6 KECCAK256 DUP8 MLOAD PUSH1 0x4 SWAP1 SWAP6 MUL ADD DUP1 SLOAD PUSH1 0x1 PUSH1 0x1 PUSH1 0xA0 SHL SUB SWAP6 SWAP1 SWAP6 AND PUSH1 0x1 PUSH1 0x1 PUSH1 0xA0 SHL SUB NOT SWAP1 SWAP6 AND SWAP5 SWAP1 SWAP5 OR DUP5 SSTORE SWAP2 MLOAD SWAP4 DUP4 ADD DUP1 SLOAD SWAP3 MLOAD SWAP1 SWAP2 AND PUSH1 0x1 PUSH1 0x80 SHL MUL PUSH1 0x1 PUSH1 0x1 PUSH1 0x88 SHL SUB NOT SWAP1 SWAP3 AND SWAP4 SWAP1 SWAP5 AND SWAP3 SWAP1 SWAP3 OR SWAP2 SWAP1 SWAP2 OR SWAP1 SWAP2 SSTORE SWAP2 MLOAD SWAP1 SWAP2 DUP3 SWAP2 PUSH1 0x2 DUP3 ADD SWAP1 PUSH2 0x16FD SWAP1 DUP3 PUSH2 0x5AFF JUMP JUMPDEST POP PUSH1 0x80 SWAP2 SWAP1 SWAP2 ADD MLOAD PUSH1 0x3 SWAP1 SWAP2 ADD DUP1 SLOAD PUSH1 0x1 PUSH1 0x1 PUSH1 0x80 SHL SUB NOT AND PUSH1 0x1 PUSH1 0x1 PUSH1 0x80 SHL SUB SWAP3 DUP4 AND OR SWAP1 SSTORE PUSH1 0x40 MLOAD CALLER SWAP2 DUP7 AND SWAP1 PUSH32 0x8DA348B329EC9CB5F933F377DB6D8D5E57E2D8C1F3BA6F02CA2B1F147120DA6A SWAP1 PUSH2 0x175B SWAP1 DUP8 SWAP1 DUP8 SWAP1 PUSH2 0x5DD4 JUMP JUMPDEST PUSH1 0x40 MLOAD DUP1 SWAP2 SUB SWAP1 LOG3 POP POP POP POP JUMP JUMPDEST DUP2 PUSH1 0x1 CALLER PUSH0 SWAP1 DUP2 MSTORE PUSH1 0x2 PUSH1 0x20 DUP2 SWAP1 MSTORE PUSH1 0x40 SWAP1 SWAP2 KECCAK256 SLOAD PUSH1 0xFF AND SWAP1 DUP2 GT ISZERO PUSH2 0x1791 JUMPI PUSH2 0x1791 PUSH2 0x4F7B JUMP JUMPDEST EQ DUP1 ISZERO PUSH2 0x17B7 JUMPI POP CALLER PUSH0 SWAP1 DUP2 MSTORE PUSH1 0x3 PUSH1 0x20 MSTORE PUSH1 0x40 SWAP1 KECCAK256 SLOAD PUSH1 0x1 PUSH1 0x1 PUSH1 0x80 SHL SUB DUP3 DUP2 AND SWAP2 AND EQ JUMPDEST DUP1 PUSH2 0x17E4 JUMPI POP CALLER PUSH0 SWAP1 DUP2 MSTORE PUSH1 0x2 PUSH1 0x20 DUP2 SWAP1 MSTORE PUSH1 0x40 SWAP1 SWAP2 KECCAK256 SLOAD PUSH1 0xFF AND DUP2 DUP2 GT ISZERO PUSH2 0x17E2 JUMPI PUSH2 0x17E2 PUSH2 0x4F7B JUMP JUMPDEST EQ JUMPDEST DUP1 PUSH2 0x180E JUMPI POP PUSH1 0x1 PUSH1 0x1 PUSH1 0x80 SHL SUB DUP2 AND PUSH0 SWAP1 DUP2 MSTORE PUSH1 0x4 PUSH1 0x20 MSTORE PUSH1 0x40 SWAP1 KECCAK256 SLOAD PUSH1 0x1 PUSH1 0x1 PUSH1 0xA0 SHL SUB AND CALLER EQ JUMPDEST PUSH2 0x182A JUMPI PUSH1 0x40 MLOAD PUSH3 0x461BCD PUSH1 0xE5 SHL DUP2 MSTORE PUSH1 0x4 ADD PUSH2 0xA5D SWAP1 PUSH2 0x5A12 JUMP JUMPDEST DUP3 DUP3 PUSH0 DUP2 PUSH1 0x1 PUSH1 0x1 PUSH1 0x80 SHL SUB AND GT DUP1 ISZERO PUSH2 0x1859 JUMPI POP PUSH1 0x6 SLOAD PUSH1 0x1 PUSH1 0x1 PUSH1 0x80 SHL SUB PUSH1 0x1 PUSH1 0x80 SHL SWAP1 SWAP2 DIV DUP2 AND SWAP1 DUP3 AND LT JUMPDEST PUSH2 0x1875 JUMPI PUSH1 0x40 MLOAD PUSH3 0x461BCD PUSH1 0xE5 SHL DUP2 MSTORE PUSH1 0x4 ADD PUSH2 0xA5D SWAP1 PUSH2 0x5DF7 JUMP JUMPDEST PUSH1 0x1 PUSH1 0x1 PUSH1 0x80 SHL SUB DUP1 DUP4 AND PUSH0 SWAP1 DUP2 MSTORE PUSH1 0x5 PUSH1 0x20 SWAP1 DUP2 MSTORE PUSH1 0x40 DUP1 DUP4 KECCAK256 DUP6 DUP6 AND DUP5 MSTORE SWAP1 SWAP2 MSTORE DUP2 KECCAK256 SLOAD SWAP1 SWAP2 AND SWAP1 SUB PUSH2 0x18BC JUMPI PUSH1 0x40 MLOAD PUSH3 0x461BCD PUSH1 0xE5 SHL DUP2 MSTORE PUSH1 0x4 ADD PUSH2 0xA5D SWAP1 PUSH2 0x5E25 JUMP JUMPDEST PUSH1 0x1 PUSH1 0x1 PUSH1 0x80 SHL SUB DUP1 DUP7 AND PUSH0 SWAP1 DUP2 MSTORE PUSH1 0x5 PUSH1 0x20 SWAP1 DUP2 MSTORE PUSH1 0x40 DUP1 DUP4 KECCAK256 SWAP4 DUP9 AND DUP4 MSTORE SWAP3 SWAP1 MSTORE SWAP1 DUP2 KECCAK256 DUP2 DUP2 SSTORE SWAP1 PUSH2 0x18F3 PUSH1 0x1 DUP4 ADD DUP3 PUSH2 0x4AE5 JUMP JUMPDEST PUSH2 0x1900 PUSH1 0x2 DUP4 ADD PUSH0 PUSH2 0x4AE5 JUMP JUMPDEST PUSH2 0x190D PUSH1 0x3 DUP4 ADD PUSH0 PUSH2 0x4AE5 JUMP JUMPDEST PUSH1 0x4 DUP3 ADD DUP1 SLOAD PUSH1 0x1 PUSH1 0x1 PUSH1 0x88 SHL SUB NOT AND SWAP1 SSTORE PUSH2 0x192C PUSH1 0x5 DUP4 ADD PUSH0 PUSH2 0x4AE5 JUMP JUMPDEST PUSH2 0x1939 PUSH1 0x6 DUP4 ADD PUSH0 PUSH2 0x4AE5 JUMP JUMPDEST POP PUSH0 PUSH1 0x7 SWAP2 SWAP1 SWAP2 ADD SSTORE PUSH1 0x40 MLOAD PUSH32 0xEF8BE83DBB6F8277052C0376CFFAAF8133437AC2E149A58D953F03D6442D1FDE SWAP1 PUSH2 0x1974 SWAP1 DUP7 SWAP1 DUP9 SWAP1 PUSH2 0x5E57 JUMP JUMPDEST PUSH1 0x40 MLOAD DUP1 SWAP2 SUB SWAP1 LOG1 POP POP POP POP POP JUMP JUMPDEST PUSH1 0xC PUSH1 0x20 MSTORE DUP2 PUSH0 MSTORE PUSH1 0x40 PUSH0 KECCAK256 DUP2 DUP2 SLOAD DUP2 LT PUSH2 0x199C JUMPI PUSH0 DUP1 REVERT JUMPDEST PUSH0 SWAP2 DUP3 MSTORE PUSH1 0x20 SWAP1 SWAP2 KECCAK256 PUSH1 0x3 SWAP1 SWAP2 MUL ADD DUP1 SLOAD PUSH1 0x1 DUP3 ADD SLOAD PUSH1 0x2 DUP4 ADD DUP1 SLOAD PUSH1 0x1 PUSH1 0x1 PUSH1 0x80 SHL SUB DUP1 DUP6 AND SWAP8 POP PUSH1 0x1 PUSH1 0x80 SHL SWAP1 SWAP5 DIV DUP5 AND SWAP6 POP SWAP3 SWAP1 SWAP2 AND SWAP3 SWAP2 PUSH2 0x19E0 SWAP1 PUSH2 0x59DA JUMP JUMPDEST DUP1 PUSH1 0x1F ADD PUSH1 0x20 DUP1 SWAP2 DIV MUL PUSH1 0x20 ADD PUSH1 0x40 MLOAD SWAP1 DUP2 ADD PUSH1 0x40 MSTORE DUP1 SWAP3 SWAP2 SWAP1 DUP2 DUP2 MSTORE PUSH1 0x20 ADD DUP3 DUP1 SLOAD PUSH2 0x1A0C SWAP1 PUSH2 0x59DA JUMP JUMPDEST DUP1 ISZERO PUSH2 0x1A57 JUMPI DUP1 PUSH1 0x1F LT PUSH2 0x1A2E JUMPI PUSH2 0x100 DUP1 DUP4 SLOAD DIV MUL DUP4 MSTORE SWAP2 PUSH1 0x20 ADD SWAP2 PUSH2 0x1A57 JUMP JUMPDEST DUP3 ADD SWAP2 SWAP1 PUSH0 MSTORE PUSH1 0x20 PUSH0 KECCAK256 SWAP1 JUMPDEST DUP2 SLOAD DUP2 MSTORE SWAP1 PUSH1 0x1 ADD SWAP1 PUSH1 0x20 ADD DUP1 DUP4 GT PUSH2 0x1A3A JUMPI DUP3 SWAP1 SUB PUSH1 0x1F AND DUP3 ADD SWAP2 JUMPDEST POP POP POP POP POP SWAP1 POP DUP5 JUMP JUMPDEST PUSH2 0x1A69 PUSH2 0x4AA3 JUMP JUMPDEST PUSH1 0x60 DUP1 DUP4 PUSH0 DUP2 PUSH1 0x1 PUSH1 0x1 PUSH1 0x80 SHL SUB AND GT DUP1 ISZERO PUSH2 0x1A93 JUMPI POP PUSH1 0x6 SLOAD PUSH1 0x1 PUSH1 0x1 PUSH1 0x80 SHL SUB SWAP1 DUP2 AND SWAP1 DUP3 AND LT JUMPDEST PUSH2 0x1AAF JUMPI PUSH1 0x40 MLOAD PUSH3 0x461BCD PUSH1 0xE5 SHL DUP2 MSTORE PUSH1 0x4 ADD PUSH2 0xA5D SWAP1 PUSH2 0x5CE0 JUMP JUMPDEST PUSH1 0x1 PUSH1 0x1 PUSH1 0x80 SHL SUB DUP1 DUP7 AND PUSH0 SWAP1 DUP2 MSTORE PUSH1 0x8 PUSH1 0x20 SWAP1 DUP2 MSTORE PUSH1 0x40 SWAP2 DUP3 SWAP1 KECCAK256 DUP3 MLOAD PUSH2 0x100 DUP2 ADD DUP5 MSTORE DUP2 SLOAD DUP6 AND DUP2 MSTORE PUSH1 0x1 DUP3 ADD SLOAD PUSH1 0x1 PUSH1 0x1 PUSH1 0xA0 SHL SUB AND DUP2 DUP5 ADD MSTORE PUSH1 0x2 DUP3 ADD SLOAD SWAP1 SWAP5 AND DUP5 DUP5 ADD MSTORE PUSH1 0x3 DUP2 ADD DUP1 SLOAD DUP5 MLOAD DUP2 DUP6 MUL DUP2 ADD DUP6 ADD SWAP1 SWAP6 MSTORE DUP1 DUP6 MSTORE SWAP2 SWAP4 PUSH1 0x60 DUP7 ADD SWAP4 SWAP1 SWAP3 SWAP1 DUP4 ADD DUP3 DUP3 DUP1 ISZERO PUSH2 0x1B75 JUMPI PUSH1 0x20 MUL DUP3 ADD SWAP2 SWAP1 PUSH0 MSTORE PUSH1 0x20 PUSH0 KECCAK256 SWAP1 PUSH0 SWAP1 JUMPDEST DUP3 DUP3 SWAP1 SLOAD SWAP1 PUSH2 0x100 EXP SWAP1 DIV PUSH1 0x1 PUSH1 0x1 PUSH1 0x80 SHL SUB AND PUSH1 0x1 PUSH1 0x1 PUSH1 0x80 SHL SUB AND DUP2 MSTORE PUSH1 0x20 ADD SWAP1 PUSH1 0x10 ADD SWAP1 PUSH1 0x20 DUP3 PUSH1 0xF ADD DIV SWAP3 DUP4 ADD SWAP3 PUSH1 0x1 SUB DUP3 MUL SWAP2 POP DUP1 DUP5 GT PUSH2 0x1B32 JUMPI SWAP1 POP JUMPDEST POP POP POP POP POP DUP2 MSTORE PUSH1 0x20 ADD PUSH1 0x4 DUP3 ADD DUP1 SLOAD DUP1 PUSH1 0x20 MUL PUSH1 0x20 ADD PUSH1 0x40 MLOAD SWAP1 DUP2 ADD PUSH1 0x40 MSTORE DUP1 SWAP3 SWAP2 SWAP1 DUP2 DUP2 MSTORE PUSH1 0x20 ADD DUP3 DUP1 SLOAD DUP1 ISZERO PUSH2 0x1BFC JUMPI PUSH1 0x20 MUL DUP3 ADD SWAP2 SWAP1 PUSH0 MSTORE PUSH1 0x20 PUSH0 KECCAK256 SWAP1 PUSH0 SWAP1 JUMPDEST DUP3 DUP3 SWAP1 SLOAD SWAP1 PUSH2 0x100 EXP SWAP1 DIV PUSH1 0x1 PUSH1 0x1 PUSH1 0x80 SHL SUB AND PUSH1 0x1 PUSH1 0x1 PUSH1 0x80 SHL SUB AND DUP2 MSTORE PUSH1 0x20 ADD SWAP1 PUSH1 0x10 ADD SWAP1 PUSH1 0x20 DUP3 PUSH1 0xF ADD DIV SWAP3 DUP4 ADD SWAP3 PUSH1 0x1 SUB DUP3 MUL SWAP2 POP DUP1 DUP5 GT PUSH2 0x1BB9 JUMPI SWAP1 POP JUMPDEST POP POP POP SWAP2 DUP4 MSTORE POP POP PUSH1 0x5 DUP3 DUP2 ADD SLOAD PUSH1 0x1 PUSH1 0x1 PUSH1 0x80 SHL SUB DUP2 AND PUSH1 0x20 DUP5 ADD MSTORE PUSH1 0x40 SWAP1 SWAP3 ADD SWAP2 PUSH1 0x1 PUSH1 0x80 SHL SWAP1 DIV PUSH1 0xFF AND SWAP1 DUP2 GT ISZERO PUSH2 0x1C39 JUMPI PUSH2 0x1C39 PUSH2 0x4F7B JUMP JUMPDEST PUSH1 0x5 DUP2 GT ISZERO PUSH2 0x1C4A JUMPI PUSH2 0x1C4A PUSH2 0x4F7B JUMP JUMPDEST DUP2 MSTORE PUSH1 0x6 SWAP2 SWAP1 SWAP2 ADD SLOAD PUSH1 0x1 PUSH1 0x1 PUSH1 0x80 SHL SUB SWAP1 DUP2 AND PUSH1 0x20 SWAP3 DUP4 ADD MSTORE DUP8 AND PUSH0 SWAP1 DUP2 MSTORE PUSH1 0xC DUP3 MSTORE PUSH1 0x40 DUP1 DUP3 KECCAK256 DUP1 SLOAD DUP3 MLOAD DUP2 DUP7 MUL DUP2 ADD DUP7 ADD SWAP1 SWAP4 MSTORE DUP1 DUP4 MSTORE SWAP5 SWAP9 POP SWAP2 SWAP4 SWAP1 SWAP3 DUP5 SWAP1 DUP5 ADD JUMPDEST DUP3 DUP3 LT ISZERO PUSH2 0x1D86 JUMPI PUSH0 DUP5 DUP2 MSTORE PUSH1 0x20 SWAP1 DUP2 SWAP1 KECCAK256 PUSH1 0x40 DUP1 MLOAD PUSH1 0x80 DUP2 ADD DUP3 MSTORE PUSH1 0x3 DUP7 MUL SWAP1 SWAP3 ADD DUP1 SLOAD PUSH1 0x1 PUSH1 0x1 PUSH1 0x80 SHL SUB DUP1 DUP3 AND DUP6 MSTORE PUSH1 0x1 PUSH1 0x80 SHL SWAP1 SWAP2 DIV DUP2 AND SWAP5 DUP5 ADD SWAP5 SWAP1 SWAP5 MSTORE PUSH1 0x1 DUP2 ADD SLOAD SWAP1 SWAP4 AND SWAP1 DUP3 ADD MSTORE PUSH1 0x2 DUP3 ADD DUP1 SLOAD SWAP2 SWAP3 SWAP2 PUSH1 0x60 DUP5 ADD SWAP2 SWAP1 PUSH2 0x1CF7 SWAP1 PUSH2 0x59DA JUMP JUMPDEST DUP1 PUSH1 0x1F ADD PUSH1 0x20 DUP1 SWAP2 DIV MUL PUSH1 0x20 ADD PUSH1 0x40 MLOAD SWAP1 DUP2 ADD PUSH1 0x40 MSTORE DUP1 SWAP3 SWAP2 SWAP1 DUP2 DUP2 MSTORE PUSH1 0x20 ADD DUP3 DUP1 SLOAD PUSH2 0x1D23 SWAP1 PUSH2 0x59DA JUMP JUMPDEST DUP1 ISZERO PUSH2 0x1D6E JUMPI DUP1 PUSH1 0x1F LT PUSH2 0x1D45 JUMPI PUSH2 0x100 DUP1 DUP4 SLOAD DIV MUL DUP4 MSTORE SWAP2 PUSH1 0x20 ADD SWAP2 PUSH2 0x1D6E JUMP JUMPDEST DUP3 ADD SWAP2 SWAP1 PUSH0 MSTORE PUSH1 0x20 PUSH0 KECCAK256 SWAP1 JUMPDEST DUP2 SLOAD DUP2 MSTORE SWAP1 PUSH1 0x1 ADD SWAP1 PUSH1 0x20 ADD DUP1 DUP4 GT PUSH2 0x1D51 JUMPI DUP3 SWAP1 SUB PUSH1 0x1F AND DUP3 ADD SWAP2 JUMPDEST POP POP POP POP POP DUP2 MSTORE POP POP DUP2 MSTORE PUSH1 0x20 ADD SWAP1 PUSH1 0x1 ADD SWAP1 PUSH2 0x1C90 JUMP JUMPDEST POP POP POP POP SWAP1 POP DUP1 MLOAD PUSH1 0x1 PUSH1 0x1 PUSH1 0x40 SHL SUB DUP2 GT ISZERO PUSH2 0x1DA5 JUMPI PUSH2 0x1DA5 PUSH2 0x4D5A JUMP JUMPDEST PUSH1 0x40 MLOAD SWAP1 DUP1 DUP3 MSTORE DUP1 PUSH1 0x20 MUL PUSH1 0x20 ADD DUP3 ADD PUSH1 0x40 MSTORE DUP1 ISZERO PUSH2 0x1DDE JUMPI DUP2 PUSH1 0x20 ADD JUMPDEST PUSH2 0x1DCB PUSH2 0x4B1C JUMP JUMPDEST DUP2 MSTORE PUSH1 0x20 ADD SWAP1 PUSH1 0x1 SWAP1 SUB SWAP1 DUP2 PUSH2 0x1DC3 JUMPI SWAP1 POP JUMPDEST POP SWAP4 POP DUP1 MLOAD PUSH1 0x1 PUSH1 0x1 PUSH1 0x40 SHL SUB DUP2 GT ISZERO PUSH2 0x1DFA JUMPI PUSH2 0x1DFA PUSH2 0x4D5A JUMP JUMPDEST PUSH1 0x40 MLOAD SWAP1 DUP1 DUP3 MSTORE DUP1 PUSH1 0x20 MUL PUSH1 0x20 ADD DUP3 ADD PUSH1 0x40 MSTORE DUP1 ISZERO PUSH2 0x1E23 JUMPI DUP2 PUSH1 0x20 ADD PUSH1 0x20 DUP3 MUL DUP1 CALLDATASIZE DUP4 CALLDATACOPY ADD SWAP1 POP JUMPDEST POP SWAP3 POP PUSH0 JUMPDEST DUP2 MLOAD DUP2 LT ISZERO PUSH2 0x2245 JUMPI PUSH1 0x5 PUSH0 DUP8 PUSH1 0x40 ADD MLOAD PUSH1 0x1 PUSH1 0x1 PUSH1 0x80 SHL SUB AND PUSH1 0x1 PUSH1 0x1 PUSH1 0x80 SHL SUB AND DUP2 MSTORE PUSH1 0x20 ADD SWAP1 DUP2 MSTORE PUSH1 0x20 ADD PUSH0 KECCAK256 PUSH0 DUP4 DUP4 DUP2 MLOAD DUP2 LT PUSH2 0x1E6B JUMPI PUSH2 0x1E6B PUSH2 0x5C9C JUMP JUMPDEST PUSH1 0x20 SWAP1 DUP2 MUL SWAP2 SWAP1 SWAP2 ADD DUP2 ADD MLOAD MLOAD PUSH1 0x1 PUSH1 0x1 PUSH1 0x80 SHL SUB SWAP1 DUP2 AND DUP4 MSTORE DUP3 DUP3 ADD SWAP4 SWAP1 SWAP4 MSTORE PUSH1 0x40 SWAP2 DUP3 ADD PUSH0 KECCAK256 DUP3 MLOAD PUSH2 0x160 DUP2 ADD DUP5 MSTORE DUP2 SLOAD DUP1 DUP7 AND DUP3 MSTORE PUSH1 0x1 PUSH1 0x80 SHL SWAP1 DIV SWAP1 SWAP5 AND SWAP2 DUP5 ADD SWAP2 SWAP1 SWAP2 MSTORE PUSH1 0x1 DUP2 ADD DUP1 SLOAD SWAP2 SWAP3 DUP5 ADD SWAP2 PUSH2 0x1EC8 SWAP1 PUSH2 0x59DA JUMP JUMPDEST DUP1 PUSH1 0x1F ADD PUSH1 0x20 DUP1 SWAP2 DIV MUL PUSH1 0x20 ADD PUSH1 0x40 MLOAD SWAP1 DUP2 ADD PUSH1 0x40 MSTORE DUP1 SWAP3 SWAP2 SWAP1 DUP2 DUP2 MSTORE PUSH1 0x20 ADD DUP3 DUP1 SLOAD PUSH2 0x1EF4 SWAP1 PUSH2 0x59DA JUMP JUMPDEST DUP1 ISZERO PUSH2 0x1F3F JUMPI DUP1 PUSH1 0x1F LT PUSH2 0x1F16 JUMPI PUSH2 0x100 DUP1 DUP4 SLOAD DIV MUL DUP4 MSTORE SWAP2 PUSH1 0x20 ADD SWAP2 PUSH2 0x1F3F JUMP JUMPDEST DUP3 ADD SWAP2 SWAP1 PUSH0 MSTORE PUSH1 0x20 PUSH0 KECCAK256 SWAP1 JUMPDEST DUP2 SLOAD DUP2 MSTORE SWAP1 PUSH1 0x1 ADD SWAP1 PUSH1 0x20 ADD DUP1 DUP4 GT PUSH2 0x1F22 JUMPI DUP3 SWAP1 SUB PUSH1 0x1F AND DUP3 ADD SWAP2 JUMPDEST POP POP POP POP POP DUP2 MSTORE PUSH1 0x20 ADD PUSH1 0x2 DUP3 ADD DUP1 SLOAD PUSH2 0x1F58 SWAP1 PUSH2 0x59DA JUMP JUMPDEST DUP1 PUSH1 0x1F ADD PUSH1 0x20 DUP1 SWAP2 DIV MUL PUSH1 0x20 ADD PUSH1 0x40 MLOAD SWAP1 DUP2 ADD PUSH1 0x40 MSTORE DUP1 SWAP3 SWAP2 SWAP1 DUP2 DUP2 MSTORE PUSH1 0x20 ADD DUP3 DUP1 SLOAD PUSH2 0x1F84 SWAP1 PUSH2 0x59DA JUMP JUMPDEST DUP1 ISZERO PUSH2 0x1FCF JUMPI DUP1 PUSH1 0x1F LT PUSH2 0x1FA6 JUMPI PUSH2 0x100 DUP1 DUP4 SLOAD DIV MUL DUP4 MSTORE SWAP2 PUSH1 0x20 ADD SWAP2 PUSH2 0x1FCF JUMP JUMPDEST DUP3 ADD SWAP2 SWAP1 PUSH0 MSTORE PUSH1 0x20 PUSH0 KECCAK256 SWAP1 JUMPDEST DUP2 SLOAD DUP2 MSTORE SWAP1 PUSH1 0x1 ADD SWAP1 PUSH1 0x20 ADD DUP1 DUP4 GT PUSH2 0x1FB2 JUMPI DUP3 SWAP1 SUB PUSH1 0x1F AND DUP3 ADD SWAP2 JUMPDEST POP POP POP POP POP DUP2 MSTORE PUSH1 0x20 ADD PUSH1 0x3 DUP3 ADD DUP1 SLOAD PUSH2 0x1FE8 SWAP1 PUSH2 0x59DA JUMP JUMPDEST DUP1 PUSH1 0x1F ADD PUSH1 0x20 DUP1 SWAP2 DIV MUL PUSH1 0x20 ADD PUSH1 0x40 MLOAD SWAP1 DUP2 ADD PUSH1 0x40 MSTORE DUP1 SWAP3 SWAP2 SWAP1 DUP2 DUP2 MSTORE PUSH1 0x20 ADD DUP3 DUP1 SLOAD PUSH2 0x2014 SWAP1 PUSH2 0x59DA JUMP JUMPDEST DUP1 ISZERO PUSH2 0x205F JUMPI DUP1 PUSH1 0x1F LT PUSH2 0x2036 JUMPI PUSH2 0x100 DUP1 DUP4 SLOAD DIV MUL DUP4 MSTORE SWAP2 PUSH1 0x20 ADD SWAP2 PUSH2 0x205F JUMP JUMPDEST DUP3 ADD SWAP2 SWAP1 PUSH0 MSTORE PUSH1 0x20 PUSH0 KECCAK256 SWAP1 JUMPDEST DUP2 SLOAD DUP2 MSTORE SWAP1 PUSH1 0x1 ADD SWAP1 PUSH1 0x20 ADD DUP1 DUP4 GT PUSH2 0x2042 JUMPI DUP3 SWAP1 SUB PUSH1 0x1F AND DUP3 ADD SWAP2 JUMPDEST POP POP POP SWAP2 DUP4 MSTORE POP POP PUSH1 0x4 DUP3 ADD SLOAD PUSH1 0x1 PUSH1 0x1 PUSH1 0x80 SHL SUB DUP2 AND PUSH1 0x20 DUP4 ADD MSTORE PUSH1 0x1 PUSH1 0x80 SHL SWAP1 DIV PUSH1 0xFF AND ISZERO ISZERO PUSH1 0x40 DUP3 ADD MSTORE PUSH1 0x5 DUP3 ADD DUP1 SLOAD PUSH1 0x60 SWAP1 SWAP3 ADD SWAP2 PUSH2 0x20A1 SWAP1 PUSH2 0x59DA JUMP JUMPDEST DUP1 PUSH1 0x1F ADD PUSH1 0x20 DUP1 SWAP2 DIV MUL PUSH1 0x20 ADD PUSH1 0x40 MLOAD SWAP1 DUP2 ADD PUSH1 0x40 MSTORE DUP1 SWAP3 SWAP2 SWAP1 DUP2 DUP2 MSTORE PUSH1 0x20 ADD DUP3 DUP1 SLOAD PUSH2 0x20CD SWAP1 PUSH2 0x59DA JUMP JUMPDEST DUP1 ISZERO PUSH2 0x2118 JUMPI DUP1 PUSH1 0x1F LT PUSH2 0x20EF JUMPI PUSH2 0x100 DUP1 DUP4 SLOAD DIV MUL DUP4 MSTORE SWAP2 PUSH1 0x20 ADD SWAP2 PUSH2 0x2118 JUMP JUMPDEST DUP3 ADD SWAP2 SWAP1 PUSH0 MSTORE PUSH1 0x20 PUSH0 KECCAK256 SWAP1 JUMPDEST DUP2 SLOAD DUP2 MSTORE SWAP1 PUSH1 0x1 ADD SWAP1 PUSH1 0x20 ADD DUP1 DUP4 GT PUSH2 0x20FB JUMPI DUP3 SWAP1 SUB PUSH1 0x1F AND DUP3 ADD SWAP2 JUMPDEST POP POP POP POP POP DUP2 MSTORE PUSH1 0x20 ADD PUSH1 0x6 DUP3 ADD DUP1 SLOAD PUSH2 0x2131 SWAP1 PUSH2 0x59DA JUMP JUMPDEST DUP1 PUSH1 0x1F ADD PUSH1 0x20 DUP1 SWAP2 DIV MUL PUSH1 0x20 ADD PUSH1 0x40 MLOAD SWAP1 DUP2 ADD PUSH1 0x40 MSTORE DUP1 SWAP3 SWAP2 SWAP1 DUP2 DUP2 MSTORE PUSH1 0x20 ADD DUP3 DUP1 SLOAD PUSH2 0x215D SWAP1 PUSH2 0x59DA JUMP JUMPDEST DUP1 ISZERO PUSH2 0x21A8 JUMPI DUP1 PUSH1 0x1F LT PUSH2 0x217F JUMPI PUSH2 0x100 DUP1 DUP4 SLOAD DIV MUL DUP4 MSTORE SWAP2 PUSH1 0x20 ADD SWAP2 PUSH2 0x21A8 JUMP JUMPDEST DUP3 ADD SWAP2 SWAP1 PUSH0 MSTORE PUSH1 0x20 PUSH0 KECCAK256 SWAP1 JUMPDEST DUP2 SLOAD DUP2 MSTORE SWAP1 PUSH1 0x1 ADD SWAP1 PUSH1 0x20 ADD DUP1 DUP4 GT PUSH2 0x218B JUMPI DUP3 SWAP1 SUB PUSH1 0x1F AND DUP3 ADD SWAP2 JUMPDEST POP POP POP SWAP2 DUP4 MSTORE POP POP PUSH1 0x7 SWAP2 SWAP1 SWAP2 ADD SLOAD PUSH1 0x1 PUSH1 0x1 PUSH1 0x80 SHL SUB DUP1 DUP3 AND PUSH1 0x20 DUP5 ADD MSTORE PUSH1 0x1 PUSH1 0x80 SHL SWAP1 SWAP2 DIV AND PUSH1 0x40 SWAP1 SWAP2 ADD MSTORE DUP6 MLOAD DUP7 SWAP1 DUP4 SWAP1 DUP2 LT PUSH2 0x21EA JUMPI PUSH2 0x21EA PUSH2 0x5C9C JUMP JUMPDEST PUSH1 0x20 MUL PUSH1 0x20 ADD ADD DUP2 SWAP1 MSTORE POP DUP2 DUP2 DUP2 MLOAD DUP2 LT PUSH2 0x2207 JUMPI PUSH2 0x2207 PUSH2 0x5C9C JUMP JUMPDEST PUSH1 0x20 MUL PUSH1 0x20 ADD ADD MLOAD PUSH1 0x20 ADD MLOAD DUP5 DUP3 DUP2 MLOAD DUP2 LT PUSH2 0x2225 JUMPI PUSH2 0x2225 PUSH2 0x5C9C JUMP JUMPDEST PUSH1 0x1 PUSH1 0x1 PUSH1 0x80 SHL SUB SWAP1 SWAP3 AND PUSH1 0x20 SWAP3 DUP4 MUL SWAP2 SWAP1 SWAP2 ADD SWAP1 SWAP2 ADD MSTORE PUSH1 0x1 ADD PUSH2 0x1E28 JUMP JUMPDEST POP POP POP SWAP2 SWAP4 SWAP1 SWAP3 POP JUMP JUMPDEST PUSH1 0x1 PUSH1 0x1 PUSH1 0x80 SHL SUB DUP2 AND PUSH0 SWAP1 DUP2 MSTORE PUSH1 0x4 PUSH1 0x20 MSTORE PUSH1 0x40 SWAP1 KECCAK256 SLOAD PUSH1 0x60 SWAP1 PUSH1 0x1 PUSH1 0x1 PUSH1 0xA0 SHL SUB AND PUSH2 0x228F JUMPI PUSH1 0x40 MLOAD PUSH3 0x461BCD PUSH1 0xE5 SHL DUP2 MSTORE PUSH1 0x4 ADD PUSH2 0xA5D SWAP1 PUSH2 0x5A81 JUMP JUMPDEST PUSH1 0x1 PUSH1 0x1 PUSH1 0x80 SHL SUB DUP3 AND PUSH0 SWAP1 DUP2 MSTORE PUSH1 0x11 PUSH1 0x20 SWAP1 DUP2 MSTORE PUSH1 0x40 DUP1 DUP4 KECCAK256 DUP1 SLOAD DUP3 MLOAD DUP2 DUP6 MUL DUP2 ADD DUP6 ADD SWAP1 SWAP4 MSTORE DUP1 DUP4 MSTORE SWAP2 SWAP4 SWAP1 SWAP3 DUP5 ADD JUMPDEST DUP3 DUP3 LT ISZERO PUSH2 0x23D3 JUMPI PUSH0 DUP5 DUP2 MSTORE PUSH1 0x20 SWAP1 DUP2 SWAP1 KECCAK256 PUSH1 0x40 DUP1 MLOAD PUSH1 0xA0 DUP2 ADD DUP3 MSTORE PUSH1 0x4 DUP7 MUL SWAP1 SWAP3 ADD DUP1 SLOAD PUSH1 0x1 PUSH1 0x1 PUSH1 0xA0 SHL SUB AND DUP4 MSTORE PUSH1 0x1 DUP2 ADD SLOAD PUSH1 0x1 PUSH1 0x1 PUSH1 0x80 SHL SUB DUP2 AND SWAP5 DUP5 ADD SWAP5 SWAP1 SWAP5 MSTORE PUSH1 0x1 PUSH1 0x80 SHL SWAP1 SWAP4 DIV PUSH1 0xFF AND SWAP1 DUP3 ADD MSTORE PUSH1 0x2 DUP3 ADD DUP1 SLOAD SWAP2 SWAP3 SWAP2 PUSH1 0x60 DUP5 ADD SWAP2 SWAP1 PUSH2 0x232E SWAP1 PUSH2 0x59DA JUMP JUMPDEST DUP1 PUSH1 0x1F ADD PUSH1 0x20 DUP1 SWAP2 DIV MUL PUSH1 0x20 ADD PUSH1 0x40 MLOAD SWAP1 DUP2 ADD PUSH1 0x40 MSTORE DUP1 SWAP3 SWAP2 SWAP1 DUP2 DUP2 MSTORE PUSH1 0x20 ADD DUP3 DUP1 SLOAD PUSH2 0x235A SWAP1 PUSH2 0x59DA JUMP JUMPDEST DUP1 ISZERO PUSH2 0x23A5 JUMPI DUP1 PUSH1 0x1F LT PUSH2 0x237C JUMPI PUSH2 0x100 DUP1 DUP4 SLOAD DIV MUL DUP4 MSTORE SWAP2 PUSH1 0x20 ADD SWAP2 PUSH2 0x23A5 JUMP JUMPDEST DUP3 ADD SWAP2 SWAP1 PUSH0 MSTORE PUSH1 0x20 PUSH0 KECCAK256 SWAP1 JUMPDEST DUP2 SLOAD DUP2 MSTORE SWAP1 PUSH1 0x1 ADD SWAP1 PUSH1 0x20 ADD DUP1 DUP4 GT PUSH2 0x2388 JUMPI DUP3 SWAP1 SUB PUSH1 0x1F AND DUP3 ADD SWAP2 JUMPDEST POP POP POP SWAP2 DUP4 MSTORE POP POP PUSH1 0x3 SWAP2 SWAP1 SWAP2 ADD SLOAD PUSH1 0x1 PUSH1 0x1 PUSH1 0x80 SHL SUB AND PUSH1 0x20 SWAP2 DUP3 ADD MSTORE SWAP1 DUP3 MSTORE PUSH1 0x1 SWAP3 SWAP1 SWAP3 ADD SWAP2 ADD PUSH2 0x22C1 JUMP JUMPDEST POP POP POP POP SWAP1 POP SWAP2 SWAP1 POP JUMP JUMPDEST PUSH2 0x23E6 PUSH2 0x4965 JUMP JUMPDEST PUSH2 0x23EF PUSH0 PUSH2 0x4997 JUMP JUMPDEST JUMP JUMPDEST PUSH0 DUP3 DUP3 PUSH0 DUP2 PUSH1 0x1 PUSH1 0x1 PUSH1 0x80 SHL SUB AND GT DUP1 ISZERO PUSH2 0x2421 JUMPI POP PUSH1 0x6 SLOAD PUSH1 0x1 PUSH1 0x1 PUSH1 0x80 SHL SUB PUSH1 0x1 PUSH1 0x80 SHL SWAP1 SWAP2 DIV DUP2 AND SWAP1 DUP3 AND LT JUMPDEST PUSH2 0x243D JUMPI PUSH1 0x40 MLOAD PUSH3 0x461BCD PUSH1 0xE5 SHL DUP2 MSTORE PUSH1 0x4 ADD PUSH2 0xA5D SWAP1 PUSH2 0x5DF7 JUMP JUMPDEST PUSH1 0x1 PUSH1 0x1 PUSH1 0x80 SHL SUB DUP1 DUP4 AND PUSH0 SWAP1 DUP2 MSTORE PUSH1 0x5 PUSH1 0x20 SWAP1 DUP2 MSTORE PUSH1 0x40 DUP1 DUP4 KECCAK256 DUP6 DUP6 AND DUP5 MSTORE SWAP1 SWAP2 MSTORE DUP2 KECCAK256 SLOAD SWAP1 SWAP2 AND SWAP1 SUB PUSH2 0x2484 JUMPI PUSH1 0x40 MLOAD PUSH3 0x461BCD PUSH1 0xE5 SHL DUP2 MSTORE PUSH1 0x4 ADD PUSH2 0xA5D SWAP1 PUSH2 0x5E25 JUMP JUMPDEST PUSH1 0x1 PUSH1 0x1 PUSH1 0x80 SHL SUB DUP1 DUP7 AND PUSH0 SWAP1 DUP2 MSTORE PUSH1 0x5 PUSH1 0x20 SWAP1 DUP2 MSTORE PUSH1 0x40 DUP1 DUP4 KECCAK256 DUP9 DUP6 AND DUP5 MSTORE SWAP1 SWAP2 MSTORE DUP2 KECCAK256 PUSH1 0x7 DUP2 ADD SLOAD SWAP1 SWAP3 PUSH1 0x1 PUSH1 0x80 SHL SWAP1 SWAP2 DIV AND SWAP1 SUB PUSH2 0x24C8 JUMPI PUSH0 SWAP4 POP POP PUSH2 0x24ED JUMP JUMPDEST PUSH1 0x7 DUP2 ADD SLOAD PUSH2 0x24E9 SWAP1 PUSH1 0x1 PUSH1 0x1 PUSH1 0x80 SHL SUB PUSH1 0x1 PUSH1 0x80 SHL DUP3 DIV DUP2 AND SWAP2 AND PUSH2 0x5E71 JUMP JUMPDEST SWAP4 POP POP JUMPDEST POP POP SWAP3 SWAP2 POP POP JUMP JUMPDEST PUSH1 0x1 SLOAD PUSH1 0x1 PUSH1 0x1 PUSH1 0xA0 SHL SUB AND SWAP1 JUMP JUMPDEST PUSH1 0x1 PUSH1 0x1 PUSH1 0xA0 SHL SUB DUP2 AND PUSH0 SWAP1 DUP2 MSTORE PUSH1 0x10 PUSH1 0x20 SWAP1 DUP2 MSTORE PUSH1 0x40 DUP1 DUP4 KECCAK256 DUP1 SLOAD DUP3 MLOAD DUP2 DUP6 MUL DUP2 ADD DUP6 ADD SWAP1 SWAP4 MSTORE DUP1 DUP4 MSTORE PUSH1 0x60 SWAP5 SWAP3 SWAP4 SWAP2 SWAP3 SWAP1 SWAP2 DUP5 ADD JUMPDEST DUP3 DUP3 LT ISZERO PUSH2 0x23D3 JUMPI PUSH0 DUP5 DUP2 MSTORE PUSH1 0x20 SWAP1 DUP2 SWAP1 KECCAK256 PUSH1 0x40 DUP1 MLOAD PUSH1 0xC0 DUP2 ADD DUP3 MSTORE PUSH1 0x5 DUP7 MUL SWAP1 SWAP3 ADD DUP1 SLOAD PUSH1 0x1 PUSH1 0x1 PUSH1 0xA0 SHL SUB SWAP1 DUP2 AND DUP5 MSTORE PUSH1 0x1 DUP3 ADD SLOAD AND SWAP4 DUP4 ADD SWAP4 SWAP1 SWAP4 MSTORE PUSH1 0x2 DUP4 ADD SLOAD PUSH1 0x1 PUSH1 0x1 PUSH1 0x80 SHL SUB DUP2 AND SWAP2 DUP4 ADD SWAP2 SWAP1 SWAP2 MSTORE PUSH1 0x1 PUSH1 0x80 SHL SWAP1 DIV PUSH1 0xFF AND PUSH1 0x60 DUP3 ADD MSTORE PUSH1 0x3 DUP3 ADD DUP1 SLOAD SWAP2 SWAP3 SWAP2 PUSH1 0x80 DUP5 ADD SWAP2 SWAP1 PUSH2 0x25B7 SWAP1 PUSH2 0x59DA JUMP JUMPDEST DUP1 PUSH1 0x1F ADD PUSH1 0x20 DUP1 SWAP2 DIV MUL PUSH1 0x20 ADD PUSH1 0x40 MLOAD SWAP1 DUP2 ADD PUSH1 0x40 MSTORE DUP1 SWAP3 SWAP2 SWAP1 DUP2 DUP2 MSTORE PUSH1 0x20 ADD DUP3 DUP1 SLOAD PUSH2 0x25E3 SWAP1 PUSH2 0x59DA JUMP JUMPDEST DUP1 ISZERO PUSH2 0x262E JUMPI DUP1 PUSH1 0x1F LT PUSH2 0x2605 JUMPI PUSH2 0x100 DUP1 DUP4 SLOAD DIV MUL DUP4 MSTORE SWAP2 PUSH1 0x20 ADD SWAP2 PUSH2 0x262E JUMP JUMPDEST DUP3 ADD SWAP2 SWAP1 PUSH0 MSTORE PUSH1 0x20 PUSH0 KECCAK256 SWAP1 JUMPDEST DUP2 SLOAD DUP2 MSTORE SWAP1 PUSH1 0x1 ADD SWAP1 PUSH1 0x20 ADD DUP1 DUP4 GT PUSH2 0x2611 JUMPI DUP3 SWAP1 SUB PUSH1 0x1F AND DUP3 ADD SWAP2 JUMPDEST POP POP POP SWAP2 DUP4 MSTORE POP POP PUSH1 0x4 SWAP2 SWAP1 SWAP2 ADD SLOAD PUSH1 0x1 PUSH1 0x1 PUSH1 0x80 SHL SUB AND PUSH1 0x20 SWAP2 DUP3 ADD MSTORE SWAP1 DUP3 MSTORE PUSH1 0x1 SWAP3 SWAP1 SWAP3 ADD SWAP2 ADD PUSH2 0x253B JUMP JUMPDEST CALLER PUSH0 SWAP1 DUP2 MSTORE PUSH1 0x2 PUSH1 0x20 DUP2 SWAP1 MSTORE PUSH1 0x40 SWAP1 SWAP2 KECCAK256 SLOAD PUSH1 0xFF AND DUP2 DUP2 GT ISZERO PUSH2 0x2681 JUMPI PUSH2 0x2681 PUSH2 0x4F7B JUMP JUMPDEST EQ DUP1 PUSH2 0x26AE JUMPI POP CALLER PUSH0 SWAP1 DUP2 MSTORE PUSH1 0x2 PUSH1 0x20 DUP2 SWAP1 MSTORE PUSH1 0x40 DUP3 KECCAK256 SLOAD PUSH1 0xFF AND SWAP1 DUP2 GT ISZERO PUSH2 0x26AC JUMPI PUSH2 0x26AC PUSH2 0x4F7B JUMP JUMPDEST EQ JUMPDEST PUSH2 0x26CA JUMPI PUSH1 0x40 MLOAD PUSH3 0x461BCD PUSH1 0xE5 SHL DUP2 MSTORE PUSH1 0x4 ADD PUSH2 0xA5D SWAP1 PUSH2 0x5CB0 JUMP JUMPDEST PUSH2 0x26D2 PUSH2 0x490E JUMP JUMPDEST PUSH0 DUP3 MLOAD GT DUP1 ISZERO PUSH2 0x26E3 JUMPI POP DUP1 MLOAD DUP3 MLOAD EQ JUMPDEST PUSH2 0x271F JUMPI PUSH1 0x40 MLOAD PUSH3 0x461BCD PUSH1 0xE5 SHL DUP2 MSTORE PUSH1 0x20 PUSH1 0x4 DUP3 ADD MSTORE PUSH1 0xD PUSH1 0x24 DUP3 ADD MSTORE PUSH13 0x125B9D985B1A59081A5B9C1D5D PUSH1 0x9A SHL PUSH1 0x44 DUP3 ADD MSTORE PUSH1 0x64 ADD PUSH2 0xA5D JUMP JUMPDEST PUSH1 0x1 PUSH1 0x1 PUSH1 0x80 SHL SUB DUP4 AND PUSH0 SWAP1 DUP2 MSTORE PUSH1 0x4 PUSH1 0x20 MSTORE PUSH1 0x40 SWAP1 KECCAK256 SLOAD PUSH1 0x1 PUSH1 0x1 PUSH1 0xA0 SHL SUB AND PUSH2 0x275C JUMPI PUSH1 0x40 MLOAD PUSH3 0x461BCD PUSH1 0xE5 SHL DUP2 MSTORE PUSH1 0x4 ADD PUSH2 0xA5D SWAP1 PUSH2 0x5A81 JUMP JUMPDEST DUP2 MLOAD PUSH0 SWAP1 DUP2 SWAP1 PUSH1 0x1 PUSH1 0x1 PUSH1 0x40 SHL SUB DUP2 GT ISZERO PUSH2 0x2779 JUMPI PUSH2 0x2779 PUSH2 0x4D5A JUMP JUMPDEST PUSH1 0x40 MLOAD SWAP1 DUP1 DUP3 MSTORE DUP1 PUSH1 0x20 MUL PUSH1 0x20 ADD DUP3 ADD PUSH1 0x40 MSTORE DUP1 ISZERO PUSH2 0x27C8 JUMPI DUP2 PUSH1 0x20 ADD JUMPDEST PUSH1 0x40 DUP1 MLOAD PUSH1 0x80 DUP2 ADD DUP3 MSTORE PUSH0 DUP1 DUP3 MSTORE PUSH1 0x20 DUP1 DUP4 ADD DUP3 SWAP1 MSTORE SWAP3 DUP3 ADD MSTORE PUSH1 0x60 DUP1 DUP3 ADD MSTORE DUP3 MSTORE PUSH0 NOT SWAP1 SWAP3 ADD SWAP2 ADD DUP2 PUSH2 0x2797 JUMPI SWAP1 POP JUMPDEST POP SWAP1 POP PUSH0 JUMPDEST DUP5 MLOAD DUP2 LT ISZERO PUSH2 0x2AF9 JUMPI PUSH1 0x1 PUSH1 0x1 PUSH1 0x80 SHL SUB DUP7 AND PUSH0 SWAP1 DUP2 MSTORE PUSH1 0x5 PUSH1 0x20 MSTORE PUSH1 0x40 DUP2 KECCAK256 DUP7 MLOAD DUP3 SWAP1 DUP9 SWAP1 DUP6 SWAP1 DUP2 LT PUSH2 0x2803 JUMPI PUSH2 0x2803 PUSH2 0x5C9C JUMP JUMPDEST PUSH1 0x20 MUL PUSH1 0x20 ADD ADD MLOAD PUSH1 0x1 PUSH1 0x1 PUSH1 0x80 SHL SUB AND PUSH1 0x1 PUSH1 0x1 PUSH1 0x80 SHL SUB AND DUP2 MSTORE PUSH1 0x20 ADD SWAP1 DUP2 MSTORE PUSH1 0x20 ADD PUSH0 KECCAK256 SWAP1 POP DUP1 PUSH1 0x4 ADD PUSH1 0x10 SWAP1 SLOAD SWAP1 PUSH2 0x100 EXP SWAP1 DIV PUSH1 0xFF AND PUSH2 0x287D JUMPI PUSH1 0x40 MLOAD PUSH3 0x461BCD PUSH1 0xE5 SHL DUP2 MSTORE PUSH1 0x20 PUSH1 0x4 DUP3 ADD MSTORE PUSH1 0x10 PUSH1 0x24 DUP3 ADD MSTORE PUSH16 0x4974656D20756E617661696C61626C65 PUSH1 0x80 SHL PUSH1 0x44 DUP3 ADD MSTORE PUSH1 0x64 ADD PUSH2 0xA5D JUMP JUMPDEST DUP1 SLOAD PUSH1 0x1 PUSH1 0x1 PUSH1 0x80 SHL SUB DUP9 DUP2 AND PUSH1 0x1 PUSH1 0x80 SHL SWAP1 SWAP3 DIV AND EQ PUSH2 0x28EB JUMPI PUSH1 0x40 MLOAD PUSH3 0x461BCD PUSH1 0xE5 SHL DUP2 MSTORE PUSH1 0x20 PUSH1 0x4 DUP3 ADD MSTORE PUSH1 0x22 PUSH1 0x24 DUP3 ADD MSTORE PUSH32 0x4974656D20646F6573206E6F742062656C6F6E6720746F207265737461757261 PUSH1 0x44 DUP3 ADD MSTORE PUSH2 0x1B9D PUSH1 0xF2 SHL PUSH1 0x64 DUP3 ADD MSTORE PUSH1 0x84 ADD PUSH2 0xA5D JUMP JUMPDEST DUP5 DUP3 DUP2 MLOAD DUP2 LT PUSH2 0x28FD JUMPI PUSH2 0x28FD PUSH2 0x5C9C JUMP JUMPDEST PUSH1 0x20 SWAP1 DUP2 MUL SWAP2 SWAP1 SWAP2 ADD ADD MLOAD PUSH1 0x4 DUP3 ADD SLOAD PUSH2 0x2920 SWAP2 SWAP1 PUSH1 0x1 PUSH1 0x1 PUSH1 0x80 SHL SUB AND PUSH2 0x5EAB JUMP JUMPDEST PUSH2 0x292A SWAP1 DUP6 PUSH2 0x5C7D JUMP JUMPDEST SWAP4 POP DUP5 DUP3 DUP2 MLOAD DUP2 LT PUSH2 0x293E JUMPI PUSH2 0x293E PUSH2 0x5C9C JUMP JUMPDEST PUSH1 0x20 SWAP1 DUP2 MUL SWAP2 SWAP1 SWAP2 ADD DUP2 ADD MLOAD PUSH1 0x6 SLOAD PUSH1 0x1 PUSH1 0x1 PUSH1 0x80 SHL SUB AND PUSH0 SWAP1 DUP2 MSTORE PUSH1 0xD SWAP1 SWAP3 MSTORE PUSH1 0x40 DUP3 KECCAK256 DUP9 MLOAD SWAP2 SWAP3 SWAP1 SWAP2 DUP10 SWAP1 DUP7 SWAP1 DUP2 LT PUSH2 0x297B JUMPI PUSH2 0x297B PUSH2 0x5C9C JUMP JUMPDEST PUSH1 0x20 MUL PUSH1 0x20 ADD ADD MLOAD PUSH1 0x1 PUSH1 0x1 PUSH1 0x80 SHL SUB AND PUSH1 0x1 PUSH1 0x1 PUSH1 0x80 SHL SUB AND DUP2 MSTORE PUSH1 0x20 ADD SWAP1 DUP2 MSTORE PUSH1 0x20 ADD PUSH0 KECCAK256 PUSH0 PUSH2 0x100 EXP DUP2 SLOAD DUP2 PUSH1 0x1 PUSH1 0x1 PUSH1 0x80 SHL SUB MUL NOT AND SWAP1 DUP4 PUSH1 0x1 PUSH1 0x1 PUSH1 0x80 SHL SUB AND MUL OR SWAP1 SSTORE POP PUSH1 0x40 MLOAD DUP1 PUSH1 0x80 ADD PUSH1 0x40 MSTORE DUP1 DUP8 DUP5 DUP2 MLOAD DUP2 LT PUSH2 0x29E2 JUMPI PUSH2 0x29E2 PUSH2 0x5C9C JUMP JUMPDEST PUSH1 0x20 MUL PUSH1 0x20 ADD ADD MLOAD PUSH1 0x1 PUSH1 0x1 PUSH1 0x80 SHL SUB AND DUP2 MSTORE PUSH1 0x20 ADD DUP7 DUP5 DUP2 MLOAD DUP2 LT PUSH2 0x2A0A JUMPI PUSH2 0x2A0A PUSH2 0x5C9C JUMP JUMPDEST PUSH1 0x20 MUL PUSH1 0x20 ADD ADD MLOAD PUSH1 0x1 PUSH1 0x1 PUSH1 0x80 SHL SUB AND DUP2 MSTORE PUSH1 0x20 ADD DUP3 PUSH1 0x4 ADD PUSH0 SWAP1 SLOAD SWAP1 PUSH2 0x100 EXP SWAP1 DIV PUSH1 0x1 PUSH1 0x1 PUSH1 0x80 SHL SUB AND PUSH1 0x1 PUSH1 0x1 PUSH1 0x80 SHL SUB AND DUP2 MSTORE PUSH1 0x20 ADD DUP3 PUSH1 0x1 ADD DUP1 SLOAD PUSH2 0x2A54 SWAP1 PUSH2 0x59DA JUMP JUMPDEST DUP1 PUSH1 0x1F ADD PUSH1 0x20 DUP1 SWAP2 DIV MUL PUSH1 0x20 ADD PUSH1 0x40 MLOAD SWAP1 DUP2 ADD PUSH1 0x40 MSTORE DUP1 SWAP3 SWAP2 SWAP1 DUP2 DUP2 MSTORE PUSH1 0x20 ADD DUP3 DUP1 SLOAD PUSH2 0x2A80 SWAP1 PUSH2 0x59DA JUMP JUMPDEST DUP1 ISZERO PUSH2 0x2ACB JUMPI DUP1 PUSH1 0x1F LT PUSH2 0x2AA2 JUMPI PUSH2 0x100 DUP1 DUP4 SLOAD DIV MUL DUP4 MSTORE SWAP2 PUSH1 0x20 ADD SWAP2 PUSH2 0x2ACB JUMP JUMPDEST DUP3 ADD SWAP2 SWAP1 PUSH0 MSTORE PUSH1 0x20 PUSH0 KECCAK256 SWAP1 JUMPDEST DUP2 SLOAD DUP2 MSTORE SWAP1 PUSH1 0x1 ADD SWAP1 PUSH1 0x20 ADD DUP1 DUP4 GT PUSH2 0x2AAE JUMPI DUP3 SWAP1 SUB PUSH1 0x1F AND DUP3 ADD SWAP2 JUMPDEST POP POP POP POP POP DUP2 MSTORE POP DUP4 DUP4 DUP2 MLOAD DUP2 LT PUSH2 0x2AE5 JUMPI PUSH2 0x2AE5 PUSH2 0x5C9C JUMP JUMPDEST PUSH1 0x20 SWAP1 DUP2 MUL SWAP2 SWAP1 SWAP2 ADD ADD MSTORE POP PUSH1 0x1 ADD PUSH2 0x27CD JUMP JUMPDEST POP PUSH1 0x7 SLOAD PUSH0 SWAP1 PUSH1 0x64 SWAP1 PUSH2 0x2B16 SWAP1 PUSH1 0x1 PUSH1 0x80 SHL SWAP1 DIV PUSH1 0xFF AND DUP6 PUSH2 0x5EAB JUMP JUMPDEST PUSH2 0x2B20 SWAP2 SWAP1 PUSH2 0x5E71 JUMP JUMPDEST SWAP1 POP PUSH0 PUSH2 0x2B2D DUP3 DUP6 PUSH2 0x5C7D JUMP JUMPDEST SWAP1 POP DUP1 PUSH1 0x1 PUSH1 0x1 PUSH1 0x80 SHL SUB AND CALLVALUE LT ISZERO PUSH2 0x2B7F JUMPI PUSH1 0x40 MLOAD PUSH3 0x461BCD PUSH1 0xE5 SHL DUP2 MSTORE PUSH1 0x20 PUSH1 0x4 DUP3 ADD MSTORE PUSH1 0x14 PUSH1 0x24 DUP3 ADD MSTORE PUSH20 0x125B9CDD59999A58DA595B9D081C185E5B595B9D PUSH1 0x62 SHL PUSH1 0x44 DUP3 ADD MSTORE PUSH1 0x64 ADD PUSH2 0xA5D JUMP JUMPDEST DUP1 PUSH1 0x1 PUSH1 0x1 PUSH1 0x80 SHL SUB AND CALLVALUE GT ISZERO PUSH2 0x2BAD JUMPI PUSH2 0x2BAD PUSH2 0x2BA6 PUSH1 0x1 PUSH1 0x1 PUSH1 0x80 SHL SUB DUP4 AND CALLVALUE PUSH2 0x5ED4 JUMP JUMPDEST CALLER SWAP1 PUSH2 0x49E8 JUMP JUMPDEST PUSH1 0x40 DUP1 MLOAD PUSH2 0x100 DUP2 ADD DUP3 MSTORE PUSH1 0x6 SLOAD PUSH1 0x1 PUSH1 0x1 PUSH1 0x80 SHL SUB SWAP1 DUP2 AND DUP1 DUP4 MSTORE CALLER PUSH1 0x20 DUP1 DUP6 ADD SWAP2 DUP3 MSTORE DUP13 DUP5 AND DUP6 DUP8 ADD SWAP1 DUP2 MSTORE PUSH1 0x60 DUP7 ADD DUP14 DUP2 MSTORE PUSH1 0x80 DUP8 ADD DUP14 SWAP1 MSTORE DUP12 DUP7 AND PUSH1 0xA0 DUP9 ADD MSTORE PUSH0 PUSH1 0xC0 DUP9 ADD DUP2 SWAP1 MSTORE TIMESTAMP DUP8 AND PUSH1 0xE0 DUP10 ADD MSTORE SWAP5 DUP6 MSTORE PUSH1 0x8 DUP4 MSTORE SWAP7 SWAP1 SWAP4 KECCAK256 DUP6 MLOAD DUP2 SLOAD PUSH1 0x1 PUSH1 0x1 PUSH1 0x80 SHL SUB NOT SWAP1 DUP2 AND SWAP2 DUP8 AND SWAP2 SWAP1 SWAP2 OR DUP3 SSTORE SWAP3 MLOAD PUSH1 0x1 DUP3 ADD DUP1 SLOAD PUSH1 0x1 PUSH1 0x1 PUSH1 0xA0 SHL SUB NOT AND PUSH1 0x1 PUSH1 0x1 PUSH1 0xA0 SHL SUB SWAP1 SWAP3 AND SWAP2 SWAP1 SWAP2 OR SWAP1 SSTORE SWAP3 MLOAD PUSH1 0x2 DUP5 ADD DUP1 SLOAD SWAP1 SWAP4 AND SWAP5 AND SWAP4 SWAP1 SWAP4 OR SWAP1 SSTORE SWAP3 MLOAD DUP1 MLOAD SWAP3 SWAP4 SWAP3 PUSH2 0x2C72 SWAP3 PUSH1 0x3 DUP6 ADD SWAP3 ADD SWAP1 PUSH2 0x4B9F JUMP JUMPDEST POP PUSH1 0x80 DUP3 ADD MLOAD DUP1 MLOAD PUSH2 0x2C8E SWAP2 PUSH1 0x4 DUP5 ADD SWAP2 PUSH1 0x20 SWAP1 SWAP2 ADD SWAP1 PUSH2 0x4B9F JUMP JUMPDEST POP PUSH1 0xA0 DUP3 ADD MLOAD PUSH1 0x5 DUP1 DUP4 ADD DUP1 SLOAD PUSH1 0x1 PUSH1 0x1 PUSH1 0x80 SHL SUB SWAP1 SWAP4 AND PUSH1 0x1 PUSH1 0x1 PUSH1 0x80 SHL SUB NOT DUP5 AND DUP2 OR DUP3 SSTORE PUSH1 0xC0 DUP7 ADD MLOAD SWAP4 SWAP2 SWAP3 PUSH1 0x1 PUSH1 0x1 PUSH1 0x88 SHL SUB NOT SWAP1 SWAP3 AND OR SWAP1 PUSH1 0x1 PUSH1 0x80 SHL SWAP1 DUP5 SWAP1 DUP2 GT ISZERO PUSH2 0x2CE2 JUMPI PUSH2 0x2CE2 PUSH2 0x4F7B JUMP JUMPDEST MUL OR SWAP1 SSTORE POP PUSH1 0xE0 SWAP2 SWAP1 SWAP2 ADD MLOAD PUSH1 0x6 SWAP1 SWAP2 ADD DUP1 SLOAD PUSH1 0x1 PUSH1 0x1 PUSH1 0x80 SHL SUB NOT AND PUSH1 0x1 PUSH1 0x1 PUSH1 0x80 SHL SUB SWAP1 SWAP3 AND SWAP2 SWAP1 SWAP2 OR SWAP1 SSTORE PUSH0 JUMPDEST DUP4 MLOAD DUP2 LT ISZERO PUSH2 0x2DCD JUMPI PUSH1 0x6 SLOAD PUSH1 0x1 PUSH1 0x1 PUSH1 0x80 SHL SUB AND PUSH0 SWAP1 DUP2 MSTORE PUSH1 0xC PUSH1 0x20 MSTORE PUSH1 0x40 SWAP1 KECCAK256 DUP5 MLOAD DUP6 SWAP1 DUP4 SWAP1 DUP2 LT PUSH2 0x2D48 JUMPI PUSH2 0x2D48 PUSH2 0x5C9C JUMP JUMPDEST PUSH1 0x20 SWAP1 DUP2 MUL SWAP2 SWAP1 SWAP2 ADD DUP2 ADD MLOAD DUP3 SLOAD PUSH1 0x1 DUP1 DUP3 ADD DUP6 SSTORE PUSH0 SWAP5 DUP6 MSTORE SWAP4 DUP4 SWAP1 KECCAK256 DUP3 MLOAD SWAP4 DUP4 ADD MLOAD PUSH1 0x1 PUSH1 0x1 PUSH1 0x80 SHL SUB SWAP5 DUP6 AND PUSH1 0x1 PUSH1 0x80 SHL SWAP2 DUP7 AND SWAP2 SWAP1 SWAP2 MUL OR PUSH1 0x3 SWAP1 SWAP3 MUL ADD SWAP1 DUP2 SSTORE PUSH1 0x40 DUP3 ADD MLOAD SWAP4 DUP2 ADD DUP1 SLOAD PUSH1 0x1 PUSH1 0x1 PUSH1 0x80 SHL SUB NOT AND SWAP5 SWAP1 SWAP4 AND SWAP4 SWAP1 SWAP4 OR SWAP1 SWAP2 SSTORE PUSH1 0x60 DUP2 ADD MLOAD SWAP1 SWAP2 SWAP1 PUSH1 0x2 DUP3 ADD SWAP1 PUSH2 0x2DC2 SWAP1 DUP3 PUSH2 0x5AFF JUMP JUMPDEST POP POP POP PUSH1 0x1 ADD PUSH2 0x2D12 JUMP JUMPDEST POP CALLER PUSH0 SWAP1 DUP2 MSTORE PUSH1 0xA PUSH1 0x20 SWAP1 DUP2 MSTORE PUSH1 0x40 DUP3 KECCAK256 PUSH1 0x6 SLOAD DUP2 SLOAD PUSH1 0x1 DUP2 DUP2 ADD DUP5 SSTORE SWAP3 DUP6 MSTORE SWAP3 DUP5 KECCAK256 PUSH1 0x2 DUP5 DIV ADD DUP1 SLOAD PUSH1 0x10 SWAP5 SWAP1 SWAP4 AND SWAP4 SWAP1 SWAP4 MUL PUSH2 0x100 EXP PUSH1 0x1 PUSH1 0x1 PUSH1 0x80 SHL SUB SWAP2 DUP3 AND DUP2 MUL SWAP2 MUL NOT SWAP1 SWAP2 AND OR SWAP1 SSTORE DUP3 SWAP1 PUSH1 0x9 SWAP1 PUSH2 0x2E28 PUSH2 0x24F5 JUMP JUMPDEST PUSH1 0x1 PUSH1 0x1 PUSH1 0xA0 SHL SUB AND DUP2 MSTORE PUSH1 0x20 DUP2 ADD SWAP2 SWAP1 SWAP2 MSTORE PUSH1 0x40 ADD PUSH0 SWAP1 DUP2 KECCAK256 DUP1 SLOAD SWAP1 SWAP2 SWAP1 PUSH2 0x2E5B SWAP1 DUP5 SWAP1 PUSH1 0x1 PUSH1 0x1 PUSH1 0x80 SHL SUB AND PUSH2 0x5C7D JUMP JUMPDEST DUP3 SLOAD PUSH2 0x100 SWAP3 SWAP1 SWAP3 EXP PUSH1 0x1 PUSH1 0x1 PUSH1 0x80 SHL SUB DUP2 DUP2 MUL NOT SWAP1 SWAP4 AND SWAP2 DUP4 AND MUL OR SWAP1 SWAP2 SSTORE PUSH1 0x6 SLOAD PUSH1 0x40 DUP1 MLOAD SWAP2 DUP4 AND DUP3 MSTORE CALLER PUSH1 0x20 DUP4 ADD MSTORE SWAP2 DUP8 AND SWAP2 DUP2 ADD SWAP2 SWAP1 SWAP2 MSTORE PUSH32 0x705F23A83CF14E64BD1C38A913E0C43E880BBBF23A0DD3716EEACFB634CA814B SWAP2 POP PUSH1 0x60 ADD PUSH1 0x40 MLOAD DUP1 SWAP2 SUB SWAP1 LOG1 PUSH1 0x6 DUP1 SLOAD PUSH1 0x1 PUSH1 0x1 PUSH1 0x80 SHL SUB AND SWAP1 PUSH0 PUSH2 0x2EDD DUP4 PUSH2 0x5C01 JUMP JUMPDEST SWAP2 SWAP1 PUSH2 0x100 EXP DUP2 SLOAD DUP2 PUSH1 0x1 PUSH1 0x1 PUSH1 0x80 SHL SUB MUL NOT AND SWAP1 DUP4 PUSH1 0x1 PUSH1 0x1 PUSH1 0x80 SHL SUB AND MUL OR SWAP1 SSTORE POP POP POP POP POP POP PUSH2 0x2F0F PUSH1 0x1 PUSH0 SSTORE JUMP JUMPDEST POP POP POP JUMP JUMPDEST DUP9 PUSH1 0x1 CALLER PUSH0 SWAP1 DUP2 MSTORE PUSH1 0x2 PUSH1 0x20 DUP2 SWAP1 MSTORE PUSH1 0x40 SWAP1 SWAP2 KECCAK256 SLOAD PUSH1 0xFF AND SWAP1 DUP2 GT ISZERO PUSH2 0x2F3C JUMPI PUSH2 0x2F3C PUSH2 0x4F7B JUMP JUMPDEST EQ DUP1 ISZERO PUSH2 0x2F62 JUMPI POP CALLER PUSH0 SWAP1 DUP2 MSTORE PUSH1 0x3 PUSH1 0x20 MSTORE PUSH1 0x40 SWAP1 KECCAK256 SLOAD PUSH1 0x1 PUSH1 0x1 PUSH1 0x80 SHL SUB DUP3 DUP2 AND SWAP2 AND EQ JUMPDEST DUP1 PUSH2 0x2F8F JUMPI POP CALLER PUSH0 SWAP1 DUP2 MSTORE PUSH1 0x2 PUSH1 0x20 DUP2 SWAP1 MSTORE PUSH1 0x40 SWAP1 SWAP2 KECCAK256 SLOAD PUSH1 0xFF AND DUP2 DUP2 GT ISZERO PUSH2 0x2F8D JUMPI PUSH2 0x2F8D PUSH2 0x4F7B JUMP JUMPDEST EQ JUMPDEST DUP1 PUSH2 0x2FB9 JUMPI POP PUSH1 0x1 PUSH1 0x1 PUSH1 0x80 SHL SUB DUP2 AND PUSH0 SWAP1 DUP2 MSTORE PUSH1 0x4 PUSH1 0x20 MSTORE PUSH1 0x40 SWAP1 KECCAK256 SLOAD PUSH1 0x1 PUSH1 0x1 PUSH1 0xA0 SHL SUB AND CALLER EQ JUMPDEST PUSH2 0x2FD5 JUMPI PUSH1 0x40 MLOAD PUSH3 0x461BCD PUSH1 0xE5 SHL DUP2 MSTORE PUSH1 0x4 ADD PUSH2 0xA5D SWAP1 PUSH2 0x5A12 JUMP JUMPDEST DUP10 DUP10 PUSH0 DUP2 PUSH1 0x1 PUSH1 0x1 PUSH1 0x80 SHL SUB AND GT DUP1 ISZERO PUSH2 0x3004 JUMPI POP PUSH1 0x6 SLOAD PUSH1 0x1 PUSH1 0x1 PUSH1 0x80 SHL SUB PUSH1 0x1 PUSH1 0x80 SHL SWAP1 SWAP2 DIV DUP2 AND SWAP1 DUP3 AND LT JUMPDEST PUSH2 0x3020 JUMPI PUSH1 0x40 MLOAD PUSH3 0x461BCD PUSH1 0xE5 SHL DUP2 MSTORE PUSH1 0x4 ADD PUSH2 0xA5D SWAP1 PUSH2 0x5DF7 JUMP JUMPDEST PUSH1 0x1 PUSH1 0x1 PUSH1 0x80 SHL SUB DUP1 DUP4 AND PUSH0 SWAP1 DUP2 MSTORE PUSH1 0x5 PUSH1 0x20 SWAP1 DUP2 MSTORE PUSH1 0x40 DUP1 DUP4 KECCAK256 DUP6 DUP6 AND DUP5 MSTORE SWAP1 SWAP2 MSTORE DUP2 KECCAK256 SLOAD SWAP1 SWAP2 AND SWAP1 SUB PUSH2 0x3067 JUMPI PUSH1 0x40 MLOAD PUSH3 0x461BCD PUSH1 0xE5 SHL DUP2 MSTORE PUSH1 0x4 ADD PUSH2 0xA5D SWAP1 PUSH2 0x5E25 JUMP JUMPDEST PUSH0 DUP11 MLOAD GT DUP1 ISZERO PUSH2 0x307F JUMPI POP PUSH0 DUP8 PUSH1 0x1 PUSH1 0x1 PUSH1 0x80 SHL SUB AND GT JUMPDEST PUSH2 0x309B JUMPI PUSH1 0x40 MLOAD PUSH3 0x461BCD PUSH1 0xE5 SHL DUP2 MSTORE PUSH1 0x4 ADD PUSH2 0xA5D SWAP1 PUSH2 0x5A5B JUMP JUMPDEST PUSH1 0x1 PUSH1 0x1 PUSH1 0x80 SHL SUB DUP1 DUP14 AND PUSH0 SWAP1 DUP2 MSTORE PUSH1 0x5 PUSH1 0x20 SWAP1 DUP2 MSTORE PUSH1 0x40 DUP1 DUP4 KECCAK256 SWAP4 DUP16 AND DUP4 MSTORE SWAP3 SWAP1 MSTORE KECCAK256 PUSH1 0x1 DUP2 ADD PUSH2 0x30CD DUP13 DUP3 PUSH2 0x5AFF JUMP JUMPDEST POP PUSH1 0x2 DUP2 ADD PUSH2 0x30DC DUP12 DUP3 PUSH2 0x5AFF JUMP JUMPDEST POP PUSH1 0x3 DUP2 ADD PUSH2 0x30EB DUP11 DUP3 PUSH2 0x5AFF JUMP JUMPDEST POP PUSH1 0x4 DUP2 ADD DUP1 SLOAD DUP9 ISZERO ISZERO PUSH1 0x1 PUSH1 0x80 SHL MUL PUSH1 0x1 PUSH1 0x1 PUSH1 0x88 SHL SUB NOT SWAP1 SWAP2 AND PUSH1 0x1 PUSH1 0x1 PUSH1 0x80 SHL SUB DUP12 AND OR OR SWAP1 SSTORE PUSH1 0x5 DUP2 ADD PUSH2 0x3123 DUP8 DUP3 PUSH2 0x5AFF JUMP JUMPDEST POP PUSH1 0x6 DUP2 ADD PUSH2 0x3132 DUP7 DUP3 PUSH2 0x5AFF JUMP JUMPDEST POP PUSH32 0xCE43B91B59C691CDAC567984A49CE1B6001F3A8781EDE9D3F567CC3AB69F3CB0 DUP13 DUP15 PUSH1 0x40 MLOAD PUSH2 0x3164 SWAP3 SWAP2 SWAP1 PUSH2 0x5E57 JUMP JUMPDEST PUSH1 0x40 MLOAD DUP1 SWAP2 SUB SWAP1 LOG1 POP POP POP POP POP POP POP POP POP POP POP POP POP JUMP JUMPDEST PUSH1 0x1 PUSH1 0x1 PUSH1 0x80 SHL SUB DUP2 AND PUSH0 SWAP1 DUP2 MSTORE PUSH1 0x4 PUSH1 0x20 MSTORE PUSH1 0x40 SWAP1 KECCAK256 SLOAD DUP2 SWAP1 PUSH1 0x1 PUSH1 0x1 PUSH1 0xA0 SHL SUB AND CALLER EQ PUSH2 0x31E3 JUMPI PUSH1 0x40 MLOAD PUSH3 0x461BCD PUSH1 0xE5 SHL DUP2 MSTORE PUSH1 0x20 PUSH1 0x4 DUP3 ADD MSTORE PUSH1 0x14 PUSH1 0x24 DUP3 ADD MSTORE PUSH20 0x2737BA103932B9BA30BAB930B73A1037BBB732B9 PUSH1 0x61 SHL PUSH1 0x44 DUP3 ADD MSTORE PUSH1 0x64 ADD PUSH2 0xA5D JUMP JUMPDEST PUSH1 0x1 PUSH1 0x1 PUSH1 0xA0 SHL SUB DUP4 AND PUSH2 0x322B JUMPI PUSH1 0x40 MLOAD PUSH3 0x461BCD PUSH1 0xE5 SHL DUP2 MSTORE PUSH1 0x20 PUSH1 0x4 DUP3 ADD MSTORE PUSH1 0xF PUSH1 0x24 DUP3 ADD MSTORE PUSH15 0x496E76616C69642061646472657373 PUSH1 0x88 SHL PUSH1 0x44 DUP3 ADD MSTORE PUSH1 0x64 ADD PUSH2 0xA5D JUMP JUMPDEST PUSH1 0x1 PUSH1 0x1 PUSH1 0x80 SHL SUB DUP3 AND PUSH0 SWAP1 DUP2 MSTORE PUSH1 0x4 PUSH1 0x20 MSTORE PUSH1 0x40 SWAP1 KECCAK256 SLOAD PUSH1 0x1 PUSH1 0x1 PUSH1 0xA0 SHL SUB AND PUSH2 0x3268 JUMPI PUSH1 0x40 MLOAD PUSH3 0x461BCD PUSH1 0xE5 SHL DUP2 MSTORE PUSH1 0x4 ADD PUSH2 0xA5D SWAP1 PUSH2 0x5A81 JUMP JUMPDEST PUSH1 0x1 PUSH1 0x1 PUSH1 0xA0 SHL SUB DUP4 AND PUSH0 SWAP1 DUP2 MSTORE PUSH1 0x2 PUSH1 0x20 SWAP1 DUP2 MSTORE PUSH1 0x40 DUP1 DUP4 KECCAK256 DUP1 SLOAD PUSH1 0xFF NOT AND PUSH1 0x1 OR SWAP1 SSTORE PUSH1 0x3 SWAP1 SWAP2 MSTORE SWAP1 DUP2 SWAP1 KECCAK256 DUP1 SLOAD PUSH1 0x1 PUSH1 0x1 PUSH1 0x80 SHL SUB DUP6 AND PUSH1 0x1 PUSH1 0x1 PUSH1 0x80 SHL SUB NOT SWAP1 SWAP2 AND OR SWAP1 SSTORE MLOAD PUSH32 0x69A85D8F30649B59EEB2B4393EA9EB9C9ED001F6974226D94A7FA2DFD562F15B SWAP1 PUSH2 0x32E1 SWAP1 DUP6 SWAP1 DUP6 SWAP1 PUSH2 0x5EE7 JUMP JUMPDEST PUSH1 0x40 MLOAD DUP1 SWAP2 SUB SWAP1 LOG1 POP POP POP JUMP JUMPDEST PUSH1 0x60 PUSH1 0x2 CALLER PUSH0 SWAP1 DUP2 MSTORE PUSH1 0x2 PUSH1 0x20 DUP2 SWAP1 MSTORE PUSH1 0x40 SWAP1 SWAP2 KECCAK256 SLOAD PUSH1 0xFF AND SWAP1 DUP2 GT ISZERO PUSH2 0x3317 JUMPI PUSH2 0x3317 PUSH2 0x4F7B JUMP JUMPDEST EQ DUP1 PUSH2 0x3344 JUMPI POP CALLER PUSH0 SWAP1 DUP2 MSTORE PUSH1 0x2 PUSH1 0x20 DUP2 SWAP1 MSTORE PUSH1 0x40 DUP3 KECCAK256 SLOAD PUSH1 0xFF AND SWAP1 DUP2 GT ISZERO PUSH2 0x3342 JUMPI PUSH2 0x3342 PUSH2 0x4F7B JUMP JUMPDEST EQ JUMPDEST PUSH2 0x3360 JUMPI PUSH1 0x40 MLOAD PUSH3 0x461BCD PUSH1 0xE5 SHL DUP2 MSTORE PUSH1 0x4 ADD PUSH2 0xA5D SWAP1 PUSH2 0x5CB0 JUMP JUMPDEST CALLER PUSH0 SWAP1 DUP2 MSTORE PUSH1 0xA PUSH1 0x20 MSTORE PUSH1 0x40 DUP2 KECCAK256 DUP1 SLOAD SWAP1 SWAP2 SWAP1 PUSH1 0x1 PUSH1 0x1 PUSH1 0x40 SHL SUB DUP2 GT ISZERO PUSH2 0x338A JUMPI PUSH2 0x338A PUSH2 0x4D5A JUMP JUMPDEST PUSH1 0x40 MLOAD SWAP1 DUP1 DUP3 MSTORE DUP1 PUSH1 0x20 MUL PUSH1 0x20 ADD DUP3 ADD PUSH1 0x40 MSTORE DUP1 ISZERO PUSH2 0x33C3 JUMPI DUP2 PUSH1 0x20 ADD JUMPDEST PUSH2 0x33B0 PUSH2 0x4AA3 JUMP JUMPDEST DUP2 MSTORE PUSH1 0x20 ADD SWAP1 PUSH1 0x1 SWAP1 SUB SWAP1 DUP2 PUSH2 0x33A8 JUMPI SWAP1 POP JUMPDEST POP SWAP1 POP PUSH0 JUMPDEST DUP3 SLOAD DUP2 LT ISZERO PUSH2 0x35DE JUMPI PUSH1 0x8 PUSH0 DUP5 DUP4 DUP2 SLOAD DUP2 LT PUSH2 0x33E6 JUMPI PUSH2 0x33E6 PUSH2 0x5C9C JUMP JUMPDEST PUSH0 SWAP2 DUP3 MSTORE PUSH1 0x20 DUP1 DUP4 KECCAK256 PUSH1 0x2 DUP1 DUP5 DIV SWAP1 SWAP2 ADD SLOAD PUSH1 0x1 PUSH1 0x1 PUSH1 0x80 SHL SUB PUSH1 0x10 PUSH1 0x1 SWAP6 DUP7 AND MUL PUSH2 0x100 SWAP1 DUP2 EXP SWAP1 SWAP3 DIV DUP2 AND DUP8 MSTORE DUP7 DUP5 ADD SWAP8 SWAP1 SWAP8 MSTORE PUSH1 0x40 SWAP6 DUP7 ADD SWAP1 SWAP5 KECCAK256 DUP6 MLOAD SWAP5 DUP6 ADD DUP7 MSTORE DUP1 SLOAD DUP8 AND DUP6 MSTORE SWAP3 DUP4 ADD SLOAD PUSH1 0x1 PUSH1 0x1 PUSH1 0xA0 SHL SUB AND DUP5 DUP4 ADD MSTORE DUP3 ADD SLOAD SWAP1 SWAP5 AND DUP3 DUP5 ADD MSTORE PUSH1 0x3 DUP2 ADD DUP1 SLOAD DUP5 MLOAD DUP2 DUP8 MUL DUP2 ADD DUP8 ADD SWAP1 SWAP6 MSTORE DUP1 DUP6 MSTORE SWAP3 SWAP5 SWAP2 SWAP4 PUSH1 0x60 DUP7 ADD SWAP4 SWAP1 SWAP3 DUP4 ADD DUP3 DUP3 DUP1 ISZERO PUSH2 0x34CA JUMPI PUSH1 0x20 MUL DUP3 ADD SWAP2 SWAP1 PUSH0 MSTORE PUSH1 0x20 PUSH0 KECCAK256 SWAP1 PUSH0 SWAP1 JUMPDEST DUP3 DUP3 SWAP1 SLOAD SWAP1 PUSH2 0x100 EXP SWAP1 DIV PUSH1 0x1 PUSH1 0x1 PUSH1 0x80 SHL SUB AND PUSH1 0x1 PUSH1 0x1 PUSH1 0x80 SHL SUB AND DUP2 MSTORE PUSH1 0x20 ADD SWAP1 PUSH1 0x10 ADD SWAP1 PUSH1 0x20 DUP3 PUSH1 0xF ADD DIV SWAP3 DUP4 ADD SWAP3 PUSH1 0x1 SUB DUP3 MUL SWAP2 POP DUP1 DUP5 GT PUSH2 0x3487 JUMPI SWAP1 POP JUMPDEST POP POP POP POP POP DUP2 MSTORE PUSH1 0x20 ADD PUSH1 0x4 DUP3 ADD DUP1 SLOAD DUP1 PUSH1 0x20 MUL PUSH1 0x20 ADD PUSH1 0x40 MLOAD SWAP1 DUP2 ADD PUSH1 0x40 MSTORE DUP1 SWAP3 SWAP2 SWAP1 DUP2 DUP2 MSTORE PUSH1 0x20 ADD DUP3 DUP1 SLOAD DUP1 ISZERO PUSH2 0x3551 JUMPI PUSH1 0x20 MUL DUP3 ADD SWAP2 SWAP1 PUSH0 MSTORE PUSH1 0x20 PUSH0 KECCAK256 SWAP1 PUSH0 SWAP1 JUMPDEST DUP3 DUP3 SWAP1 SLOAD SWAP1 PUSH2 0x100 EXP SWAP1 DIV PUSH1 0x1 PUSH1 0x1 PUSH1 0x80 SHL SUB AND PUSH1 0x1 PUSH1 0x1 PUSH1 0x80 SHL SUB AND DUP2 MSTORE PUSH1 0x20 ADD SWAP1 PUSH1 0x10 ADD SWAP1 PUSH1 0x20 DUP3 PUSH1 0xF ADD DIV SWAP3 DUP4 ADD SWAP3 PUSH1 0x1 SUB DUP3 MUL SWAP2 POP DUP1 DUP5 GT PUSH2 0x350E JUMPI SWAP1 POP JUMPDEST POP POP POP SWAP2 DUP4 MSTORE POP POP PUSH1 0x5 DUP3 DUP2 ADD SLOAD PUSH1 0x1 PUSH1 0x1 PUSH1 0x80 SHL SUB DUP2 AND PUSH1 0x20 DUP5 ADD MSTORE PUSH1 0x40 SWAP1 SWAP3 ADD SWAP2 PUSH1 0x1 PUSH1 0x80 SHL SWAP1 DIV PUSH1 0xFF AND SWAP1 DUP2 GT ISZERO PUSH2 0x358E JUMPI PUSH2 0x358E PUSH2 0x4F7B JUMP JUMPDEST PUSH1 0x5 DUP2 GT ISZERO PUSH2 0x359F JUMPI PUSH2 0x359F PUSH2 0x4F7B JUMP JUMPDEST DUP2 MSTORE PUSH1 0x6 SWAP2 SWAP1 SWAP2 ADD SLOAD PUSH1 0x1 PUSH1 0x1 PUSH1 0x80 SHL SUB AND PUSH1 0x20 SWAP1 SWAP2 ADD MSTORE DUP3 MLOAD DUP4 SWAP1 DUP4 SWAP1 DUP2 LT PUSH2 0x35CB JUMPI PUSH2 0x35CB PUSH2 0x5C9C JUMP JUMPDEST PUSH1 0x20 SWAP1 DUP2 MUL SWAP2 SWAP1 SWAP2 ADD ADD MSTORE PUSH1 0x1 ADD PUSH2 0x33C8 JUMP JUMPDEST POP SWAP2 POP POP SWAP1 JUMP JUMPDEST PUSH1 0x60 PUSH0 DUP1 PUSH2 0x35F4 DUP6 PUSH1 0x1 PUSH2 0x5C7D JUMP JUMPDEST SWAP1 POP JUMPDEST PUSH1 0x6 SLOAD PUSH1 0x1 PUSH1 0x1 PUSH1 0x80 SHL SUB PUSH1 0x1 PUSH1 0x80 SHL SWAP1 SWAP2 DIV DUP2 AND SWAP1 DUP3 AND GT DUP1 ISZERO SWAP1 PUSH2 0x3638 JUMPI POP PUSH2 0x3622 DUP5 DUP7 PUSH2 0x5C7D JUMP JUMPDEST PUSH1 0x1 PUSH1 0x1 PUSH1 0x80 SHL SUB AND DUP2 PUSH1 0x1 PUSH1 0x1 PUSH1 0x80 SHL SUB AND GT ISZERO JUMPDEST ISZERO PUSH2 0x3689 JUMPI PUSH1 0x1 PUSH1 0x1 PUSH1 0x80 SHL SUB DUP1 DUP8 AND PUSH0 SWAP1 DUP2 MSTORE PUSH1 0x5 PUSH1 0x20 SWAP1 DUP2 MSTORE PUSH1 0x40 DUP1 DUP4 KECCAK256 DUP6 DUP6 AND DUP5 MSTORE SWAP1 SWAP2 MSTORE SWAP1 KECCAK256 SLOAD AND ISZERO PUSH2 0x3677 JUMPI DUP2 PUSH2 0x3673 DUP2 PUSH2 0x5C01 JUMP JUMPDEST SWAP3 POP POP JUMPDEST DUP1 PUSH2 0x3681 DUP2 PUSH2 0x5C01 JUMP JUMPDEST SWAP2 POP POP PUSH2 0x35F7 JUMP JUMPDEST POP PUSH0 DUP2 PUSH1 0x1 PUSH1 0x1 PUSH1 0x80 SHL SUB AND PUSH1 0x1 PUSH1 0x1 PUSH1 0x40 SHL SUB DUP2 GT ISZERO PUSH2 0x36AC JUMPI PUSH2 0x36AC PUSH2 0x4D5A JUMP JUMPDEST PUSH1 0x40 MLOAD SWAP1 DUP1 DUP3 MSTORE DUP1 PUSH1 0x20 MUL PUSH1 0x20 ADD DUP3 ADD PUSH1 0x40 MSTORE DUP1 ISZERO PUSH2 0x36E5 JUMPI DUP2 PUSH1 0x20 ADD JUMPDEST PUSH2 0x36D2 PUSH2 0x4B1C JUMP JUMPDEST DUP2 MSTORE PUSH1 0x20 ADD SWAP1 PUSH1 0x1 SWAP1 SUB SWAP1 DUP2 PUSH2 0x36CA JUMPI SWAP1 POP JUMPDEST POP SWAP1 POP PUSH0 DUP1 PUSH2 0x36F5 DUP8 PUSH1 0x1 PUSH2 0x5C7D JUMP JUMPDEST SWAP1 POP JUMPDEST PUSH1 0x6 SLOAD PUSH1 0x1 PUSH1 0x1 PUSH1 0x80 SHL SUB PUSH1 0x1 PUSH1 0x80 SHL SWAP1 SWAP2 DIV DUP2 AND SWAP1 DUP3 AND GT DUP1 ISZERO SWAP1 PUSH2 0x3739 JUMPI POP PUSH2 0x3723 DUP7 DUP9 PUSH2 0x5C7D JUMP JUMPDEST PUSH1 0x1 PUSH1 0x1 PUSH1 0x80 SHL SUB AND DUP2 PUSH1 0x1 PUSH1 0x1 PUSH1 0x80 SHL SUB AND GT ISZERO JUMPDEST ISZERO PUSH2 0x3B18 JUMPI PUSH1 0x1 PUSH1 0x1 PUSH1 0x80 SHL SUB DUP1 DUP10 AND PUSH0 SWAP1 DUP2 MSTORE PUSH1 0x5 PUSH1 0x20 SWAP1 DUP2 MSTORE PUSH1 0x40 DUP1 DUP4 KECCAK256 DUP6 DUP6 AND DUP5 MSTORE SWAP1 SWAP2 MSTORE SWAP1 KECCAK256 SLOAD AND ISZERO PUSH2 0x3B06 JUMPI PUSH1 0x1 PUSH1 0x1 PUSH1 0x80 SHL SUB DUP1 DUP10 AND PUSH0 SWAP1 DUP2 MSTORE PUSH1 0x5 PUSH1 0x20 SWAP1 DUP2 MSTORE PUSH1 0x40 DUP1 DUP4 KECCAK256 DUP6 DUP6 AND DUP5 MSTORE DUP3 MSTORE SWAP2 DUP3 SWAP1 KECCAK256 DUP3 MLOAD PUSH2 0x160 DUP2 ADD DUP5 MSTORE DUP2 SLOAD DUP1 DUP7 AND DUP3 MSTORE PUSH1 0x1 PUSH1 0x80 SHL SWAP1 DIV SWAP1 SWAP5 AND SWAP2 DUP5 ADD SWAP2 SWAP1 SWAP2 MSTORE PUSH1 0x1 DUP2 ADD DUP1 SLOAD SWAP2 SWAP3 DUP5 ADD SWAP2 PUSH2 0x37C5 SWAP1 PUSH2 0x59DA JUMP JUMPDEST DUP1 PUSH1 0x1F ADD PUSH1 0x20 DUP1 SWAP2 DIV MUL PUSH1 0x20 ADD PUSH1 0x40 MLOAD SWAP1 DUP2 ADD PUSH1 0x40 MSTORE DUP1 SWAP3 SWAP2 SWAP1 DUP2 DUP2 MSTORE PUSH1 0x20 ADD DUP3 DUP1 SLOAD PUSH2 0x37F1 SWAP1 PUSH2 0x59DA JUMP JUMPDEST DUP1 ISZERO PUSH2 0x383C JUMPI DUP1 PUSH1 0x1F LT PUSH2 0x3813 JUMPI PUSH2 0x100 DUP1 DUP4 SLOAD DIV MUL DUP4 MSTORE SWAP2 PUSH1 0x20 ADD SWAP2 PUSH2 0x383C JUMP JUMPDEST DUP3 ADD SWAP2 SWAP1 PUSH0 MSTORE PUSH1 0x20 PUSH0 KECCAK256 SWAP1 JUMPDEST DUP2 SLOAD DUP2 MSTORE SWAP1 PUSH1 0x1 ADD SWAP1 PUSH1 0x20 ADD DUP1 DUP4 GT PUSH2 0x381F JUMPI DUP3 SWAP1 SUB PUSH1 0x1F AND DUP3 ADD SWAP2 JUMPDEST POP POP POP POP POP DUP2 MSTORE PUSH1 0x20 ADD PUSH1 0x2 DUP3 ADD DUP1 SLOAD PUSH2 0x3855 SWAP1 PUSH2 0x59DA JUMP JUMPDEST DUP1 PUSH1 0x1F ADD PUSH1 0x20 DUP1 SWAP2 DIV MUL PUSH1 0x20 ADD PUSH1 0x40 MLOAD SWAP1 DUP2 ADD PUSH1 0x40 MSTORE DUP1 SWAP3 SWAP2 SWAP1 DUP2 DUP2 MSTORE PUSH1 0x20 ADD DUP3 DUP1 SLOAD PUSH2 0x3881 SWAP1 PUSH2 0x59DA JUMP JUMPDEST DUP1 ISZERO PUSH2 0x38CC JUMPI DUP1 PUSH1 0x1F LT PUSH2 0x38A3 JUMPI PUSH2 0x100 DUP1 DUP4 SLOAD DIV MUL DUP4 MSTORE SWAP2 PUSH1 0x20 ADD SWAP2 PUSH2 0x38CC JUMP JUMPDEST DUP3 ADD SWAP2 SWAP1 PUSH0 MSTORE PUSH1 0x20 PUSH0 KECCAK256 SWAP1 JUMPDEST DUP2 SLOAD DUP2 MSTORE SWAP1 PUSH1 0x1 ADD SWAP1 PUSH1 0x20 ADD DUP1 DUP4 GT PUSH2 0x38AF JUMPI DUP3 SWAP1 SUB PUSH1 0x1F AND DUP3 ADD SWAP2 JUMPDEST POP POP POP POP POP DUP2 MSTORE PUSH1 0x20 ADD PUSH1 0x3 DUP3 ADD DUP1 SLOAD PUSH2 0x38E5 SWAP1 PUSH2 0x59DA JUMP JUMPDEST DUP1 PUSH1 0x1F ADD PUSH1 0x20 DUP1 SWAP2 DIV MUL PUSH1 0x20 ADD PUSH1 0x40 MLOAD SWAP1 DUP2 ADD PUSH1 0x40 MSTORE DUP1 SWAP3 SWAP2 SWAP1 DUP2 DUP2 MSTORE PUSH1 0x20 ADD DUP3 DUP1 SLOAD PUSH2 0x3911 SWAP1 PUSH2 0x59DA JUMP JUMPDEST DUP1 ISZERO PUSH2 0x395C JUMPI DUP1 PUSH1 0x1F LT PUSH2 0x3933 JUMPI PUSH2 0x100 DUP1 DUP4 SLOAD DIV MUL DUP4 MSTORE SWAP2 PUSH1 0x20 ADD SWAP2 PUSH2 0x395C JUMP JUMPDEST DUP3 ADD SWAP2 SWAP1 PUSH0 MSTORE PUSH1 0x20 PUSH0 KECCAK256 SWAP1 JUMPDEST DUP2 SLOAD DUP2 MSTORE SWAP1 PUSH1 0x1 ADD SWAP1 PUSH1 0x20 ADD DUP1 DUP4 GT PUSH2 0x393F JUMPI DUP3 SWAP1 SUB PUSH1 0x1F AND DUP3 ADD SWAP2 JUMPDEST POP POP POP SWAP2 DUP4 MSTORE POP POP PUSH1 0x4 DUP3 ADD SLOAD PUSH1 0x1 PUSH1 0x1 PUSH1 0x80 SHL SUB DUP2 AND PUSH1 0x20 DUP4 ADD MSTORE PUSH1 0x1 PUSH1 0x80 SHL SWAP1 DIV PUSH1 0xFF AND ISZERO ISZERO PUSH1 0x40 DUP3 ADD MSTORE PUSH1 0x5 DUP3 ADD DUP1 SLOAD PUSH1 0x60 SWAP1 SWAP3 ADD SWAP2 PUSH2 0x399E SWAP1 PUSH2 0x59DA JUMP JUMPDEST DUP1 PUSH1 0x1F ADD PUSH1 0x20 DUP1 SWAP2 DIV MUL PUSH1 0x20 ADD PUSH1 0x40 MLOAD SWAP1 DUP2 ADD PUSH1 0x40 MSTORE DUP1 SWAP3 SWAP2 SWAP1 DUP2 DUP2 MSTORE PUSH1 0x20 ADD DUP3 DUP1 SLOAD PUSH2 0x39CA SWAP1 PUSH2 0x59DA JUMP JUMPDEST DUP1 ISZERO PUSH2 0x3A15 JUMPI DUP1 PUSH1 0x1F LT PUSH2 0x39EC JUMPI PUSH2 0x100 DUP1 DUP4 SLOAD DIV MUL DUP4 MSTORE SWAP2 PUSH1 0x20 ADD SWAP2 PUSH2 0x3A15 JUMP JUMPDEST DUP3 ADD SWAP2 SWAP1 PUSH0 MSTORE PUSH1 0x20 PUSH0 KECCAK256 SWAP1 JUMPDEST DUP2 SLOAD DUP2 MSTORE SWAP1 PUSH1 0x1 ADD SWAP1 PUSH1 0x20 ADD DUP1 DUP4 GT PUSH2 0x39F8 JUMPI DUP3 SWAP1 SUB PUSH1 0x1F AND DUP3 ADD SWAP2 JUMPDEST POP POP POP POP POP DUP2 MSTORE PUSH1 0x20 ADD PUSH1 0x6 DUP3 ADD DUP1 SLOAD PUSH2 0x3A2E SWAP1 PUSH2 0x59DA JUMP JUMPDEST DUP1 PUSH1 0x1F ADD PUSH1 0x20 DUP1 SWAP2 DIV MUL PUSH1 0x20 ADD PUSH1 0x40 MLOAD SWAP1 DUP2 ADD PUSH1 0x40 MSTORE DUP1 SWAP3 SWAP2 SWAP1 DUP2 DUP2 MSTORE PUSH1 0x20 ADD DUP3 DUP1 SLOAD PUSH2 0x3A5A SWAP1 PUSH2 0x59DA JUMP JUMPDEST DUP1 ISZERO PUSH2 0x3AA5 JUMPI DUP1 PUSH1 0x1F LT PUSH2 0x3A7C JUMPI PUSH2 0x100 DUP1 DUP4 SLOAD DIV MUL DUP4 MSTORE SWAP2 PUSH1 0x20 ADD SWAP2 PUSH2 0x3AA5 JUMP JUMPDEST DUP3 ADD SWAP2 SWAP1 PUSH0 MSTORE PUSH1 0x20 PUSH0 KECCAK256 SWAP1 JUMPDEST DUP2 SLOAD DUP2 MSTORE SWAP1 PUSH1 0x1 ADD SWAP1 PUSH1 0x20 ADD DUP1 DUP4 GT PUSH2 0x3A88 JUMPI DUP3 SWAP1 SUB PUSH1 0x1F AND DUP3 ADD SWAP2 JUMPDEST POP POP POP SWAP2 DUP4 MSTORE POP POP PUSH1 0x7 SWAP2 SWAP1 SWAP2 ADD SLOAD PUSH1 0x1 PUSH1 0x1 PUSH1 0x80 SHL SUB DUP1 DUP3 AND PUSH1 0x20 DUP5 ADD MSTORE PUSH1 0x1 PUSH1 0x80 SHL SWAP1 SWAP2 DIV DUP2 AND PUSH1 0x40 SWAP1 SWAP3 ADD SWAP2 SWAP1 SWAP2 MSTORE DUP5 MLOAD DUP6 SWAP2 DUP6 AND SWAP1 DUP2 LT PUSH2 0x3AEC JUMPI PUSH2 0x3AEC PUSH2 0x5C9C JUMP JUMPDEST PUSH1 0x20 MUL PUSH1 0x20 ADD ADD DUP2 SWAP1 MSTORE POP DUP2 DUP1 PUSH2 0x3B02 SWAP1 PUSH2 0x5C01 JUMP JUMPDEST SWAP3 POP POP JUMPDEST DUP1 PUSH2 0x3B10 DUP2 PUSH2 0x5C01 JUMP JUMPDEST SWAP2 POP POP PUSH2 0x36F8 JUMP JUMPDEST POP SWAP1 SWAP3 POP POP POP JUMPDEST SWAP4 SWAP3 POP POP POP JUMP JUMPDEST PUSH1 0xE PUSH1 0x20 MSTORE DUP2 PUSH0 MSTORE PUSH1 0x40 PUSH0 KECCAK256 DUP2 DUP2 SLOAD DUP2 LT PUSH2 0x96E JUMPI PUSH0 DUP1 REVERT JUMPDEST PUSH1 0x5 PUSH1 0x20 SWAP1 DUP2 MSTORE PUSH0 SWAP3 DUP4 MSTORE PUSH1 0x40 DUP1 DUP5 KECCAK256 SWAP1 SWAP2 MSTORE SWAP1 DUP3 MSTORE SWAP1 KECCAK256 DUP1 SLOAD PUSH1 0x1 DUP3 ADD DUP1 SLOAD PUSH1 0x1 PUSH1 0x1 PUSH1 0x80 SHL SUB DUP1 DUP5 AND SWAP5 PUSH1 0x1 PUSH1 0x80 SHL SWAP1 SWAP5 DIV AND SWAP3 SWAP2 SWAP1 PUSH2 0x3B80 SWAP1 PUSH2 0x59DA JUMP JUMPDEST DUP1 PUSH1 0x1F ADD PUSH1 0x20 DUP1 SWAP2 DIV MUL PUSH1 0x20 ADD PUSH1 0x40 MLOAD SWAP1 DUP2 ADD PUSH1 0x40 MSTORE DUP1 SWAP3 SWAP2 SWAP1 DUP2 DUP2 MSTORE PUSH1 0x20 ADD DUP3 DUP1 SLOAD PUSH2 0x3BAC SWAP1 PUSH2 0x59DA JUMP JUMPDEST DUP1 ISZERO PUSH2 0x3BF7 JUMPI DUP1 PUSH1 0x1F LT PUSH2 0x3BCE JUMPI PUSH2 0x100 DUP1 DUP4 SLOAD DIV MUL DUP4 MSTORE SWAP2 PUSH1 0x20 ADD SWAP2 PUSH2 0x3BF7 JUMP JUMPDEST DUP3 ADD SWAP2 SWAP1 PUSH0 MSTORE PUSH1 0x20 PUSH0 KECCAK256 SWAP1 JUMPDEST DUP2 SLOAD DUP2 MSTORE SWAP1 PUSH1 0x1 ADD SWAP1 PUSH1 0x20 ADD DUP1 DUP4 GT PUSH2 0x3BDA JUMPI DUP3 SWAP1 SUB PUSH1 0x1F AND DUP3 ADD SWAP2 JUMPDEST POP POP POP POP POP SWAP1 DUP1 PUSH1 0x2 ADD DUP1 SLOAD PUSH2 0x3C0C SWAP1 PUSH2 0x59DA JUMP JUMPDEST DUP1 PUSH1 0x1F ADD PUSH1 0x20 DUP1 SWAP2 DIV MUL PUSH1 0x20 ADD PUSH1 0x40 MLOAD SWAP1 DUP2 ADD PUSH1 0x40 MSTORE DUP1 SWAP3 SWAP2 SWAP1 DUP2 DUP2 MSTORE PUSH1 0x20 ADD DUP3 DUP1 SLOAD PUSH2 0x3C38 SWAP1 PUSH2 0x59DA JUMP JUMPDEST DUP1 ISZERO PUSH2 0x3C83 JUMPI DUP1 PUSH1 0x1F LT PUSH2 0x3C5A JUMPI PUSH2 0x100 DUP1 DUP4 SLOAD DIV MUL DUP4 MSTORE SWAP2 PUSH1 0x20 ADD SWAP2 PUSH2 0x3C83 JUMP JUMPDEST DUP3 ADD SWAP2 SWAP1 PUSH0 MSTORE PUSH1 0x20 PUSH0 KECCAK256 SWAP1 JUMPDEST DUP2 SLOAD DUP2 MSTORE SWAP1 PUSH1 0x1 ADD SWAP1 PUSH1 0x20 ADD DUP1 DUP4 GT PUSH2 0x3C66 JUMPI DUP3 SWAP1 SUB PUSH1 0x1F AND DUP3 ADD SWAP2 JUMPDEST POP POP POP POP POP SWAP1 DUP1 PUSH1 0x3 ADD DUP1 SLOAD PUSH2 0x3C98 SWAP1 PUSH2 0x59DA JUMP JUMPDEST DUP1 PUSH1 0x1F ADD PUSH1 0x20 DUP1 SWAP2 DIV MUL PUSH1 0x20 ADD PUSH1 0x40 MLOAD SWAP1 DUP2 ADD PUSH1 0x40 MSTORE DUP1 SWAP3 SWAP2 SWAP1 DUP2 DUP2 MSTORE PUSH1 0x20 ADD DUP3 DUP1 SLOAD PUSH2 0x3CC4 SWAP1 PUSH2 0x59DA JUMP JUMPDEST DUP1 ISZERO PUSH2 0x3D0F JUMPI DUP1 PUSH1 0x1F LT PUSH2 0x3CE6 JUMPI PUSH2 0x100 DUP1 DUP4 SLOAD DIV MUL DUP4 MSTORE SWAP2 PUSH1 0x20 ADD SWAP2 PUSH2 0x3D0F JUMP JUMPDEST DUP3 ADD SWAP2 SWAP1 PUSH0 MSTORE PUSH1 0x20 PUSH0 KECCAK256 SWAP1 JUMPDEST DUP2 SLOAD DUP2 MSTORE SWAP1 PUSH1 0x1 ADD SWAP1 PUSH1 0x20 ADD DUP1 DUP4 GT PUSH2 0x3CF2 JUMPI DUP3 SWAP1 SUB PUSH1 0x1F AND DUP3 ADD SWAP2 JUMPDEST POP POP POP POP PUSH1 0x4 DUP4 ADD SLOAD PUSH1 0x5 DUP5 ADD DUP1 SLOAD SWAP4 SWAP5 PUSH1 0x1 PUSH1 0x1 PUSH1 0x80 SHL SUB DUP4 AND SWAP5 PUSH1 0x1 PUSH1 0x80 SHL SWAP1 SWAP4 DIV PUSH1 0xFF AND SWAP4 POP SWAP2 PUSH2 0x3D42 SWAP1 PUSH2 0x59DA JUMP JUMPDEST DUP1 PUSH1 0x1F ADD PUSH1 0x20 DUP1 SWAP2 DIV MUL PUSH1 0x20 ADD PUSH1 0x40 MLOAD SWAP1 DUP2 ADD PUSH1 0x40 MSTORE DUP1 SWAP3 SWAP2 SWAP1 DUP2 DUP2 MSTORE PUSH1 0x20 ADD DUP3 DUP1 SLOAD PUSH2 0x3D6E SWAP1 PUSH2 0x59DA JUMP JUMPDEST DUP1 ISZERO PUSH2 0x3DB9 JUMPI DUP1 PUSH1 0x1F LT PUSH2 0x3D90 JUMPI PUSH2 0x100 DUP1 DUP4 SLOAD DIV MUL DUP4 MSTORE SWAP2 PUSH1 0x20 ADD SWAP2 PUSH2 0x3DB9 JUMP JUMPDEST DUP3 ADD SWAP2 SWAP1 PUSH0 MSTORE PUSH1 0x20 PUSH0 KECCAK256 SWAP1 JUMPDEST DUP2 SLOAD DUP2 MSTORE SWAP1 PUSH1 0x1 ADD SWAP1 PUSH1 0x20 ADD DUP1 DUP4 GT PUSH2 0x3D9C JUMPI DUP3 SWAP1 SUB PUSH1 0x1F AND DUP3 ADD SWAP2 JUMPDEST POP POP POP POP POP SWAP1 DUP1 PUSH1 0x6 ADD DUP1 SLOAD PUSH2 0x3DCE SWAP1 PUSH2 0x59DA JUMP JUMPDEST DUP1 PUSH1 0x1F ADD PUSH1 0x20 DUP1 SWAP2 DIV MUL PUSH1 0x20 ADD PUSH1 0x40 MLOAD SWAP1 DUP2 ADD PUSH1 0x40 MSTORE DUP1 SWAP3 SWAP2 SWAP1 DUP2 DUP2 MSTORE PUSH1 0x20 ADD DUP3 DUP1 SLOAD PUSH2 0x3DFA SWAP1 PUSH2 0x59DA JUMP JUMPDEST DUP1 ISZERO PUSH2 0x3E45 JUMPI DUP1 PUSH1 0x1F LT PUSH2 0x3E1C JUMPI PUSH2 0x100 DUP1 DUP4 SLOAD DIV MUL DUP4 MSTORE SWAP2 PUSH1 0x20 ADD SWAP2 PUSH2 0x3E45 JUMP JUMPDEST DUP3 ADD SWAP2 SWAP1 PUSH0 MSTORE PUSH1 0x20 PUSH0 KECCAK256 SWAP1 JUMPDEST DUP2 SLOAD DUP2 MSTORE SWAP1 PUSH1 0x1 ADD SWAP1 PUSH1 0x20 ADD DUP1 DUP4 GT PUSH2 0x3E28 JUMPI DUP3 SWAP1 SUB PUSH1 0x1F AND DUP3 ADD SWAP2 JUMPDEST POP POP POP PUSH1 0x7 SWAP1 SWAP4 ADD SLOAD SWAP2 SWAP3 POP POP PUSH1 0x1 PUSH1 0x1 PUSH1 0x80 SHL SUB DUP1 DUP3 AND SWAP2 PUSH1 0x1 PUSH1 0x80 SHL SWAP1 DIV AND DUP12 JUMP JUMPDEST DUP3 DUP3 PUSH0 DUP2 PUSH1 0x1 PUSH1 0x1 PUSH1 0x80 SHL SUB AND GT DUP1 ISZERO PUSH2 0x3E98 JUMPI POP PUSH1 0x6 SLOAD PUSH1 0x1 PUSH1 0x1 PUSH1 0x80 SHL SUB PUSH1 0x1 PUSH1 0x80 SHL SWAP1 SWAP2 DIV DUP2 AND SWAP1 DUP3 AND LT JUMPDEST PUSH2 0x3EB4 JUMPI PUSH1 0x40 MLOAD PUSH3 0x461BCD PUSH1 0xE5 SHL DUP2 MSTORE PUSH1 0x4 ADD PUSH2 0xA5D SWAP1 PUSH2 0x5DF7 JUMP JUMPDEST PUSH1 0x1 PUSH1 0x1 PUSH1 0x80 SHL SUB DUP1 DUP4 AND PUSH0 SWAP1 DUP2 MSTORE PUSH1 0x5 PUSH1 0x20 SWAP1 DUP2 MSTORE PUSH1 0x40 DUP1 DUP4 KECCAK256 DUP6 DUP6 AND DUP5 MSTORE SWAP1 SWAP2 MSTORE DUP2 KECCAK256 SLOAD SWAP1 SWAP2 AND SWAP1 SUB PUSH2 0x3EFB JUMPI PUSH1 0x40 MLOAD PUSH3 0x461BCD PUSH1 0xE5 SHL DUP2 MSTORE PUSH1 0x4 ADD PUSH2 0xA5D SWAP1 PUSH2 0x5E25 JUMP JUMPDEST PUSH1 0x1 DUP4 PUSH1 0xFF AND LT ISZERO DUP1 ISZERO PUSH2 0x3F13 JUMPI POP PUSH1 0x5 DUP4 PUSH1 0xFF AND GT ISZERO JUMPDEST PUSH2 0x3F50 JUMPI PUSH1 0x40 MLOAD PUSH3 0x461BCD PUSH1 0xE5 SHL DUP2 MSTORE PUSH1 0x20 PUSH1 0x4 DUP3 ADD MSTORE PUSH1 0xE PUSH1 0x24 DUP3 ADD MSTORE PUSH14 0x496E76616C696420726174696E67 PUSH1 0x90 SHL PUSH1 0x44 DUP3 ADD MSTORE PUSH1 0x64 ADD PUSH2 0xA5D JUMP JUMPDEST PUSH1 0x1 PUSH1 0x1 PUSH1 0x80 SHL SUB DUP1 DUP7 AND PUSH0 SWAP1 DUP2 MSTORE PUSH1 0x5 PUSH1 0x20 SWAP1 DUP2 MSTORE PUSH1 0x40 DUP1 DUP4 KECCAK256 DUP9 DUP6 AND DUP5 MSTORE SWAP1 SWAP2 MSTORE DUP2 KECCAK256 PUSH1 0x7 DUP2 ADD DUP1 SLOAD SWAP2 SWAP4 PUSH1 0xFF DUP9 AND SWAP4 SWAP2 SWAP3 PUSH2 0x3F90 SWAP2 DUP6 SWAP2 AND PUSH2 0x5C7D JUMP JUMPDEST SWAP3 POP PUSH2 0x100 EXP DUP2 SLOAD DUP2 PUSH1 0x1 PUSH1 0x1 PUSH1 0x80 SHL SUB MUL NOT AND SWAP1 DUP4 PUSH1 0x1 PUSH1 0x1 PUSH1 0x80 SHL SUB AND MUL OR SWAP1 SSTORE POP PUSH1 0x1 DUP2 PUSH1 0x7 ADD PUSH1 0x10 DUP3 DUP3 DUP3 SWAP1 SLOAD SWAP1 PUSH2 0x100 EXP SWAP1 DIV PUSH1 0x1 PUSH1 0x1 PUSH1 0x80 SHL SUB AND PUSH2 0x3FDB SWAP2 SWAP1 PUSH2 0x5C7D JUMP JUMPDEST SWAP3 POP PUSH2 0x100 EXP DUP2 SLOAD DUP2 PUSH1 0x1 PUSH1 0x1 PUSH1 0x80 SHL SUB MUL NOT AND SWAP1 DUP4 PUSH1 0x1 PUSH1 0x1 PUSH1 0x80 SHL SUB AND MUL OR SWAP1 SSTORE POP PUSH32 0xDB324F7FEF3C53DAE6FD57E82DFA6FC22235609F2039C48367051C6AD5B2FAEF DUP6 DUP6 PUSH1 0x40 MLOAD PUSH2 0x4047 SWAP3 SWAP2 SWAP1 PUSH1 0x1 PUSH1 0x1 PUSH1 0x80 SHL SUB SWAP3 SWAP1 SWAP3 AND DUP3 MSTORE PUSH1 0xFF AND PUSH1 0x20 DUP3 ADD MSTORE PUSH1 0x40 ADD SWAP1 JUMP JUMPDEST PUSH1 0x40 MLOAD DUP1 SWAP2 SUB SWAP1 LOG1 POP POP POP POP POP POP JUMP JUMPDEST CALLER PUSH0 SWAP1 DUP2 MSTORE PUSH1 0x2 PUSH1 0x20 DUP2 SWAP1 MSTORE PUSH1 0x40 DUP3 KECCAK256 SLOAD PUSH1 0xFF AND SWAP1 DUP2 GT ISZERO PUSH2 0x407B JUMPI PUSH2 0x407B PUSH2 0x4F7B JUMP JUMPDEST EQ PUSH2 0x40C6 JUMPI PUSH1 0x40 MLOAD PUSH3 0x461BCD PUSH1 0xE5 SHL DUP2 MSTORE PUSH1 0x20 PUSH1 0x4 DUP3 ADD MSTORE PUSH1 0x1B PUSH1 0x24 DUP3 ADD MSTORE PUSH27 0x556E617574686F72697A65643A20437573746F6D6572206F6E6C79 PUSH1 0x28 SHL PUSH1 0x44 DUP3 ADD MSTORE PUSH1 0x64 ADD PUSH2 0xA5D JUMP JUMPDEST PUSH2 0x40CE PUSH2 0x490E JUMP JUMPDEST DUP1 PUSH0 DUP2 PUSH1 0x1 PUSH1 0x1 PUSH1 0x80 SHL SUB AND GT DUP1 ISZERO PUSH2 0x40F5 JUMPI POP PUSH1 0x6 SLOAD PUSH1 0x1 PUSH1 0x1 PUSH1 0x80 SHL SUB SWAP1 DUP2 AND SWAP1 DUP3 AND LT JUMPDEST PUSH2 0x4111 JUMPI PUSH1 0x40 MLOAD PUSH3 0x461BCD PUSH1 0xE5 SHL DUP2 MSTORE PUSH1 0x4 ADD PUSH2 0xA5D SWAP1 PUSH2 0x5CE0 JUMP JUMPDEST PUSH1 0x1 PUSH1 0x1 PUSH1 0x80 SHL SUB DUP3 AND PUSH0 SWAP1 DUP2 MSTORE PUSH1 0x8 PUSH1 0x20 MSTORE PUSH1 0x40 SWAP1 KECCAK256 PUSH1 0x1 DUP2 ADD SLOAD PUSH1 0x1 PUSH1 0x1 PUSH1 0xA0 SHL SUB AND CALLER EQ PUSH2 0x4154 JUMPI PUSH1 0x40 MLOAD PUSH3 0x461BCD PUSH1 0xE5 SHL DUP2 MSTORE PUSH1 0x4 ADD PUSH2 0xA5D SWAP1 PUSH2 0x5D0A JUMP JUMPDEST PUSH0 PUSH1 0x5 DUP3 DUP2 ADD SLOAD PUSH1 0x1 PUSH1 0x80 SHL SWAP1 DIV PUSH1 0xFF AND SWAP1 DUP2 GT ISZERO PUSH2 0x4175 JUMPI PUSH2 0x4175 PUSH2 0x4F7B JUMP JUMPDEST EQ DUP1 PUSH2 0x41A0 JUMPI POP PUSH1 0x1 PUSH1 0x5 DUP3 DUP2 ADD SLOAD PUSH1 0x1 PUSH1 0x80 SHL SWAP1 DIV PUSH1 0xFF AND SWAP1 DUP2 GT ISZERO PUSH2 0x419E JUMPI PUSH2 0x419E PUSH2 0x4F7B JUMP JUMPDEST EQ JUMPDEST PUSH2 0x41EA JUMPI PUSH1 0x40 MLOAD PUSH3 0x461BCD PUSH1 0xE5 SHL DUP2 MSTORE PUSH1 0x20 PUSH1 0x4 DUP3 ADD MSTORE PUSH1 0x1B PUSH1 0x24 DUP3 ADD MSTORE PUSH27 0x43616E6E6F742063616E63656C2061742074686973207374616765 PUSH1 0x28 SHL PUSH1 0x44 DUP3 ADD MSTORE PUSH1 0x64 ADD PUSH2 0xA5D JUMP JUMPDEST PUSH1 0x5 DUP2 ADD DUP1 SLOAD PUSH1 0x1 PUSH1 0x82 SHL PUSH1 0xFF PUSH1 0x80 SHL NOT DUP3 AND OR SWAP1 SWAP2 SSTORE PUSH2 0x4215 SWAP1 CALLER SWAP1 PUSH1 0x1 PUSH1 0x1 PUSH1 0x80 SHL SUB AND PUSH2 0x49E8 JUMP JUMPDEST PUSH32 0x1912970D6B925634E2CCFAFF5EDB3A3FA0F2B9F36FC281EB8266688B89606AC1 DUP4 CALLER PUSH1 0x40 MLOAD PUSH2 0x4246 SWAP3 SWAP2 SWAP1 PUSH2 0x5D32 JUMP JUMPDEST PUSH1 0x40 MLOAD DUP1 SWAP2 SUB SWAP1 LOG1 PUSH1 0x5 DUP2 ADD SLOAD PUSH1 0x40 MLOAD PUSH32 0x1ACF2C59D6610CF0F250C9BC70ADB692B2319DE3640E791AB8A33A3B8931DF27 SWAP2 PUSH2 0x123E SWAP2 CALLER SWAP2 PUSH1 0x1 PUSH1 0x1 PUSH1 0x80 SHL SUB AND SWAP1 PUSH2 0x5EE7 JUMP JUMPDEST PUSH1 0x1 PUSH1 0x1 PUSH1 0x80 SHL SUB DUP1 DUP4 AND PUSH0 SWAP1 DUP2 MSTORE PUSH1 0x8 PUSH1 0x20 MSTORE PUSH1 0x40 SWAP1 KECCAK256 PUSH1 0x2 ADD SLOAD AND PUSH1 0x1 CALLER PUSH0 SWAP1 DUP2 MSTORE PUSH1 0x2 PUSH1 0x20 DUP2 SWAP1 MSTORE PUSH1 0x40 SWAP1 SWAP2 KECCAK256 SLOAD PUSH1 0xFF AND SWAP1 DUP2 GT ISZERO PUSH2 0x42D1 JUMPI PUSH2 0x42D1 PUSH2 0x4F7B JUMP JUMPDEST EQ DUP1 ISZERO PUSH2 0x42F7 JUMPI POP CALLER PUSH0 SWAP1 DUP2 MSTORE PUSH1 0x3 PUSH1 0x20 MSTORE PUSH1 0x40 SWAP1 KECCAK256 SLOAD PUSH1 0x1 PUSH1 0x1 PUSH1 0x80 SHL SUB DUP3 DUP2 AND SWAP2 AND EQ JUMPDEST DUP1 PUSH2 0x4324 JUMPI POP CALLER PUSH0 SWAP1 DUP2 MSTORE PUSH1 0x2 PUSH1 0x20 DUP2 SWAP1 MSTORE PUSH1 0x40 SWAP1 SWAP2 KECCAK256 SLOAD PUSH1 0xFF AND DUP2 DUP2 GT ISZERO PUSH2 0x4322 JUMPI PUSH2 0x4322 PUSH2 0x4F7B JUMP JUMPDEST EQ JUMPDEST DUP1 PUSH2 0x434E JUMPI POP PUSH1 0x1 PUSH1 0x1 PUSH1 0x80 SHL SUB DUP2 AND PUSH0 SWAP1 DUP2 MSTORE PUSH1 0x4 PUSH1 0x20 MSTORE PUSH1 0x40 SWAP1 KECCAK256 SLOAD PUSH1 0x1 PUSH1 0x1 PUSH1 0xA0 SHL SUB AND CALLER EQ JUMPDEST PUSH2 0x436A JUMPI PUSH1 0x40 MLOAD PUSH3 0x461BCD PUSH1 0xE5 SHL DUP2 MSTORE PUSH1 0x4 ADD PUSH2 0xA5D SWAP1 PUSH2 0x5A12 JUMP JUMPDEST PUSH2 0x4372 PUSH2 0x490E JUMP JUMPDEST DUP3 PUSH0 DUP2 PUSH1 0x1 PUSH1 0x1 PUSH1 0x80 SHL SUB AND GT DUP1 ISZERO PUSH2 0x4399 JUMPI POP PUSH1 0x6 SLOAD PUSH1 0x1 PUSH1 0x1 PUSH1 0x80 SHL SUB SWAP1 DUP2 AND SWAP1 DUP3 AND LT JUMPDEST PUSH2 0x43B5 JUMPI PUSH1 0x40 MLOAD PUSH3 0x461BCD PUSH1 0xE5 SHL DUP2 MSTORE PUSH1 0x4 ADD PUSH2 0xA5D SWAP1 PUSH2 0x5CE0 JUMP JUMPDEST PUSH1 0x1 PUSH1 0x1 PUSH1 0x80 SHL SUB DUP5 AND PUSH0 SWAP1 DUP2 MSTORE PUSH1 0x8 PUSH1 0x20 MSTORE PUSH1 0x40 SWAP1 KECCAK256 PUSH1 0x4 PUSH1 0x5 DUP3 DUP2 ADD SLOAD PUSH1 0x1 PUSH1 0x80 SHL SWAP1 DIV PUSH1 0xFF AND SWAP1 DUP2 GT ISZERO PUSH2 0x43EE JUMPI PUSH2 0x43EE PUSH2 0x4F7B JUMP JUMPDEST SUB PUSH2 0x4430 JUMPI PUSH1 0x40 MLOAD PUSH3 0x461BCD PUSH1 0xE5 SHL DUP2 MSTORE PUSH1 0x20 PUSH1 0x4 DUP3 ADD MSTORE PUSH1 0x12 PUSH1 0x24 DUP3 ADD MSTORE PUSH18 0x13DC99195C881A5CC818D85B98D95B1B1959 PUSH1 0x72 SHL PUSH1 0x44 DUP3 ADD MSTORE PUSH1 0x64 ADD PUSH2 0xA5D JUMP JUMPDEST PUSH1 0x5 DUP1 DUP3 DUP2 ADD SLOAD PUSH1 0x1 PUSH1 0x80 SHL SWAP1 DIV PUSH1 0xFF AND SWAP1 DUP2 GT ISZERO PUSH2 0x4451 JUMPI PUSH2 0x4451 PUSH2 0x4F7B JUMP JUMPDEST SUB PUSH2 0x4498 JUMPI PUSH1 0x40 MLOAD PUSH3 0x461BCD PUSH1 0xE5 SHL DUP2 MSTORE PUSH1 0x20 PUSH1 0x4 DUP3 ADD MSTORE PUSH1 0x17 PUSH1 0x24 DUP3 ADD MSTORE PUSH23 0x13DC99195C88185B1C9958591E4818DBDB5C1B195D1959 PUSH1 0x4A SHL PUSH1 0x44 DUP3 ADD MSTORE PUSH1 0x64 ADD PUSH2 0xA5D JUMP JUMPDEST PUSH1 0x1 DUP5 PUSH1 0x5 DUP2 GT ISZERO PUSH2 0x44AC JUMPI PUSH2 0x44AC PUSH2 0x4F7B JUMP JUMPDEST SUB PUSH2 0x44F5 JUMPI PUSH0 JUMPDEST PUSH1 0x5 DUP3 DUP2 ADD SLOAD PUSH1 0x1 PUSH1 0x80 SHL SWAP1 DIV PUSH1 0xFF AND SWAP1 DUP2 GT ISZERO PUSH2 0x44D3 JUMPI PUSH2 0x44D3 PUSH2 0x4F7B JUMP JUMPDEST EQ PUSH2 0x44F0 JUMPI PUSH1 0x40 MLOAD PUSH3 0x461BCD PUSH1 0xE5 SHL DUP2 MSTORE PUSH1 0x4 ADD PUSH2 0xA5D SWAP1 PUSH2 0x5F09 JUMP JUMPDEST PUSH2 0x45BA JUMP JUMPDEST PUSH1 0x2 DUP5 PUSH1 0x5 DUP2 GT ISZERO PUSH2 0x4509 JUMPI PUSH2 0x4509 PUSH2 0x4F7B JUMP JUMPDEST SUB PUSH2 0x455A JUMPI PUSH0 JUMPDEST PUSH1 0x5 DUP3 DUP2 ADD SLOAD PUSH1 0x1 PUSH1 0x80 SHL SWAP1 DIV PUSH1 0xFF AND SWAP1 DUP2 GT ISZERO PUSH2 0x4530 JUMPI PUSH2 0x4530 PUSH2 0x4F7B JUMP JUMPDEST EQ DUP1 PUSH2 0x453E JUMPI POP PUSH1 0x1 PUSH2 0x44B3 JUMP JUMPDEST PUSH2 0x44F0 JUMPI PUSH1 0x40 MLOAD PUSH3 0x461BCD PUSH1 0xE5 SHL DUP2 MSTORE PUSH1 0x4 ADD PUSH2 0xA5D SWAP1 PUSH2 0x5F09 JUMP JUMPDEST PUSH1 0x3 DUP5 PUSH1 0x5 DUP2 GT ISZERO PUSH2 0x456E JUMPI PUSH2 0x456E PUSH2 0x4F7B JUMP JUMPDEST SUB PUSH2 0x457A JUMPI PUSH1 0x2 PUSH2 0x4510 JUMP JUMPDEST PUSH1 0x40 MLOAD PUSH3 0x461BCD PUSH1 0xE5 SHL DUP2 MSTORE PUSH1 0x20 PUSH1 0x4 DUP3 ADD MSTORE PUSH1 0x15 PUSH1 0x24 DUP3 ADD MSTORE PUSH21 0x496E76616C69642073746174757320757064617465 PUSH1 0x58 SHL PUSH1 0x44 DUP3 ADD MSTORE PUSH1 0x64 ADD PUSH2 0xA5D JUMP JUMPDEST DUP4 DUP2 PUSH1 0x5 ADD PUSH1 0x10 PUSH2 0x100 EXP DUP2 SLOAD DUP2 PUSH1 0xFF MUL NOT AND SWAP1 DUP4 PUSH1 0x5 DUP2 GT ISZERO PUSH2 0x45E0 JUMPI PUSH2 0x45E0 PUSH2 0x4F7B JUMP JUMPDEST MUL OR SWAP1 SSTORE POP PUSH0 MLOAD PUSH1 0x20 PUSH2 0x5F3D PUSH0 CODECOPY PUSH0 MLOAD SWAP1 PUSH0 MSTORE DUP6 DUP6 PUSH1 0x40 MLOAD PUSH2 0x4603 SWAP3 SWAP2 SWAP1 PUSH2 0x5D54 JUMP JUMPDEST PUSH1 0x40 MLOAD DUP1 SWAP2 SUB SWAP1 LOG1 POP POP PUSH2 0x2F0F PUSH1 0x1 PUSH0 SSTORE JUMP JUMPDEST PUSH2 0x461E PUSH2 0x4965 JUMP JUMPDEST PUSH1 0x1 PUSH1 0x1 PUSH1 0xA0 SHL SUB DUP2 AND PUSH2 0x4647 JUMPI PUSH0 PUSH1 0x40 MLOAD PUSH4 0x1E4FBDF7 PUSH1 0xE0 SHL DUP2 MSTORE PUSH1 0x4 ADD PUSH2 0xA5D SWAP2 SWAP1 PUSH2 0x5465 JUMP JUMPDEST PUSH2 0x1251 DUP2 PUSH2 0x4997 JUMP JUMPDEST PUSH1 0x11 PUSH1 0x20 MSTORE DUP2 PUSH0 MSTORE PUSH1 0x40 PUSH0 KECCAK256 DUP2 DUP2 SLOAD DUP2 LT PUSH2 0x4669 JUMPI PUSH0 DUP1 REVERT JUMPDEST PUSH0 SWAP2 DUP3 MSTORE PUSH1 0x20 SWAP1 SWAP2 KECCAK256 PUSH1 0x4 SWAP1 SWAP2 MUL ADD DUP1 SLOAD PUSH1 0x1 DUP3 ADD SLOAD PUSH1 0x2 DUP4 ADD DUP1 SLOAD PUSH1 0x1 PUSH1 0x1 PUSH1 0xA0 SHL SUB SWAP1 SWAP4 AND SWAP6 POP PUSH1 0x1 PUSH1 0x1 PUSH1 0x80 SHL SUB DUP3 AND SWAP5 POP PUSH1 0x1 PUSH1 0x80 SHL SWAP1 SWAP2 DIV PUSH1 0xFF AND SWAP3 SWAP2 PUSH2 0x46B4 SWAP1 PUSH2 0x59DA JUMP JUMPDEST DUP1 PUSH1 0x1F ADD PUSH1 0x20 DUP1 SWAP2 DIV MUL PUSH1 0x20 ADD PUSH1 0x40 MLOAD SWAP1 DUP2 ADD PUSH1 0x40 MSTORE DUP1 SWAP3 SWAP2 SWAP1 DUP2 DUP2 MSTORE PUSH1 0x20 ADD DUP3 DUP1 SLOAD PUSH2 0x46E0 SWAP1 PUSH2 0x59DA JUMP JUMPDEST DUP1 ISZERO PUSH2 0x472B JUMPI DUP1 PUSH1 0x1F LT PUSH2 0x4702 JUMPI PUSH2 0x100 DUP1 DUP4 SLOAD DIV MUL DUP4 MSTORE SWAP2 PUSH1 0x20 ADD SWAP2 PUSH2 0x472B JUMP JUMPDEST DUP3 ADD SWAP2 SWAP1 PUSH0 MSTORE PUSH1 0x20 PUSH0 KECCAK256 SWAP1 JUMPDEST DUP2 SLOAD DUP2 MSTORE SWAP1 PUSH1 0x1 ADD SWAP1 PUSH1 0x20 ADD DUP1 DUP4 GT PUSH2 0x470E JUMPI DUP3 SWAP1 SUB PUSH1 0x1F AND DUP3 ADD SWAP2 JUMPDEST POP POP POP PUSH1 0x3 SWAP1 SWAP4 ADD SLOAD SWAP2 SWAP3 POP POP PUSH1 0x1 PUSH1 0x1 PUSH1 0x80 SHL SUB AND DUP6 JUMP JUMPDEST CALLER PUSH0 SWAP1 DUP2 MSTORE PUSH1 0x2 PUSH1 0x20 DUP2 SWAP1 MSTORE PUSH1 0x40 SWAP1 SWAP2 KECCAK256 SLOAD PUSH1 0xFF AND DUP2 DUP2 GT ISZERO PUSH2 0x4769 JUMPI PUSH2 0x4769 PUSH2 0x4F7B JUMP JUMPDEST EQ PUSH2 0x4786 JUMPI PUSH1 0x40 MLOAD PUSH3 0x461BCD PUSH1 0xE5 SHL DUP2 MSTORE PUSH1 0x4 ADD PUSH2 0xA5D SWAP1 PUSH2 0x5C2C JUMP JUMPDEST PUSH1 0x14 PUSH1 0xFF DUP3 AND GT ISZERO PUSH2 0x47D1 JUMPI PUSH1 0x40 MLOAD PUSH3 0x461BCD PUSH1 0xE5 SHL DUP2 MSTORE PUSH1 0x20 PUSH1 0x4 DUP3 ADD MSTORE PUSH1 0x14 PUSH1 0x24 DUP3 ADD MSTORE PUSH20 0xA6CAE4ECD2C6CA40CCCACA40E8DEDE40D0D2CED PUSH1 0x63 SHL PUSH1 0x44 DUP3 ADD MSTORE PUSH1 0x64 ADD PUSH2 0xA5D JUMP JUMPDEST PUSH1 0x7 DUP1 SLOAD PUSH1 0xFF PUSH1 0x80 SHL NOT AND PUSH1 0x1 PUSH1 0x80 SHL PUSH1 0xFF DUP5 AND SWAP1 DUP2 MUL SWAP2 SWAP1 SWAP2 OR SWAP1 SWAP2 SSTORE PUSH1 0x40 MLOAD SWAP1 DUP2 MSTORE PUSH32 0xC2E7293B347AC956898A90E36061EF247C8D3516F25E87A91009BE115CE27AC4 SWAP1 PUSH1 0x20 ADD PUSH1 0x40 MLOAD DUP1 SWAP2 SUB SWAP1 LOG1 POP JUMP JUMPDEST PUSH1 0x7 SLOAD PUSH1 0x1 PUSH1 0x1 PUSH1 0x80 SHL SUB SWAP1 DUP2 AND PUSH0 DUP2 DUP2 MSTORE PUSH1 0x4 PUSH1 0x20 SWAP1 DUP2 MSTORE PUSH1 0x40 DUP1 DUP4 KECCAK256 DUP1 SLOAD PUSH1 0x1 PUSH1 0x1 PUSH1 0xA0 SHL SUB NOT AND CALLER SWAP1 DUP2 OR SWAP1 SWAP2 SSTORE DUP1 DUP5 MSTORE PUSH1 0xE DUP4 MSTORE DUP2 DUP5 KECCAK256 DUP1 SLOAD PUSH1 0x1 DUP2 DUP2 ADD DUP4 SSTORE SWAP2 DUP7 MSTORE SWAP4 DUP6 KECCAK256 PUSH1 0x2 DUP6 DIV ADD DUP1 SLOAD PUSH1 0x10 SWAP6 SWAP1 SWAP3 AND SWAP5 SWAP1 SWAP5 MUL PUSH2 0x100 EXP DUP1 DUP8 MUL SWAP8 MUL NOT AND SWAP6 SWAP1 SWAP6 OR SWAP1 SWAP2 SSTORE MLOAD SWAP1 SWAP3 PUSH32 0xBAFBC0BFD4AFD8A222B8CD09B01CE310B06B0BEB42503EA91A76135E6A532E92 SWAP2 PUSH2 0x48C2 SWAP2 DUP5 SWAP2 PUSH2 0x5D32 JUMP JUMPDEST PUSH1 0x40 MLOAD DUP1 SWAP2 SUB SWAP1 LOG1 PUSH1 0x7 DUP1 SLOAD PUSH1 0x1 PUSH1 0x1 PUSH1 0x80 SHL SUB AND SWAP1 PUSH0 PUSH2 0x48E2 DUP4 PUSH2 0x5C01 JUMP JUMPDEST SWAP2 SWAP1 PUSH2 0x100 EXP DUP2 SLOAD DUP2 PUSH1 0x1 PUSH1 0x1 PUSH1 0x80 SHL SUB MUL NOT AND SWAP1 DUP4 PUSH1 0x1 PUSH1 0x1 PUSH1 0x80 SHL SUB AND MUL OR SWAP1 SSTORE POP POP DUP1 SWAP2 POP POP SWAP1 JUMP JUMPDEST PUSH1 0x2 PUSH0 SLOAD SUB PUSH2 0x495F JUMPI PUSH1 0x40 MLOAD PUSH3 0x461BCD PUSH1 0xE5 SHL DUP2 MSTORE PUSH1 0x20 PUSH1 0x4 DUP3 ADD MSTORE PUSH1 0x1F PUSH1 0x24 DUP3 ADD MSTORE PUSH32 0x5265656E7472616E637947756172643A207265656E7472616E742063616C6C00 PUSH1 0x44 DUP3 ADD MSTORE PUSH1 0x64 ADD PUSH2 0xA5D JUMP JUMPDEST PUSH1 0x2 PUSH0 SSTORE JUMP JUMPDEST CALLER PUSH2 0x496E PUSH2 0x24F5 JUMP JUMPDEST PUSH1 0x1 PUSH1 0x1 PUSH1 0xA0 SHL SUB AND EQ PUSH2 0x23EF JUMPI CALLER PUSH1 0x40 MLOAD PUSH4 0x118CDAA7 PUSH1 0xE0 SHL DUP2 MSTORE PUSH1 0x4 ADD PUSH2 0xA5D SWAP2 SWAP1 PUSH2 0x5465 JUMP JUMPDEST PUSH1 0x1 DUP1 SLOAD PUSH1 0x1 PUSH1 0x1 PUSH1 0xA0 SHL SUB DUP4 DUP2 AND PUSH1 0x1 PUSH1 0x1 PUSH1 0xA0 SHL SUB NOT DUP4 AND DUP2 OR SWAP1 SWAP4 SSTORE PUSH1 0x40 MLOAD SWAP2 AND SWAP2 SWAP1 DUP3 SWAP1 PUSH32 0x8BE0079C531659141344CD1FD0A4F28419497F9722A3DAAFE3B4186F6B6457E0 SWAP1 PUSH0 SWAP1 LOG3 POP POP JUMP JUMPDEST DUP1 SELFBALANCE LT ISZERO PUSH2 0x4A12 JUMPI PUSH1 0x40 MLOAD PUSH4 0xCF479181 PUSH1 0xE0 SHL DUP2 MSTORE SELFBALANCE PUSH1 0x4 DUP3 ADD MSTORE PUSH1 0x24 DUP2 ADD DUP3 SWAP1 MSTORE PUSH1 0x44 ADD PUSH2 0xA5D JUMP JUMPDEST PUSH0 PUSH0 DUP4 PUSH1 0x1 PUSH1 0x1 PUSH1 0xA0 SHL SUB AND DUP4 PUSH1 0x40 MLOAD PUSH0 PUSH1 0x40 MLOAD DUP1 DUP4 SUB DUP2 DUP6 DUP8 GAS CALL SWAP3 POP POP POP RETURNDATASIZE DUP1 PUSH0 DUP2 EQ PUSH2 0x4A5C JUMPI PUSH1 0x40 MLOAD SWAP2 POP PUSH1 0x1F NOT PUSH1 0x3F RETURNDATASIZE ADD AND DUP3 ADD PUSH1 0x40 MSTORE RETURNDATASIZE DUP3 MSTORE RETURNDATASIZE PUSH0 PUSH1 0x20 DUP5 ADD RETURNDATACOPY PUSH2 0x4A61 JUMP JUMPDEST PUSH1 0x60 SWAP2 POP JUMPDEST POP SWAP2 POP SWAP2 POP DUP2 PUSH2 0x4A74 JUMPI PUSH2 0x4A74 DUP2 PUSH2 0x4A7A JUMP JUMPDEST POP POP POP POP JUMP JUMPDEST DUP1 MLOAD ISZERO PUSH2 0x4A8A JUMPI DUP1 MLOAD DUP1 DUP3 PUSH1 0x20 ADD REVERT JUMPDEST PUSH1 0x40 MLOAD PUSH4 0xD6BDA275 PUSH1 0xE0 SHL DUP2 MSTORE PUSH1 0x4 ADD PUSH1 0x40 MLOAD DUP1 SWAP2 SUB SWAP1 REVERT JUMPDEST PUSH1 0x40 DUP1 MLOAD PUSH2 0x100 DUP2 ADD DUP3 MSTORE PUSH0 DUP1 DUP3 MSTORE PUSH1 0x20 DUP3 ADD DUP2 SWAP1 MSTORE SWAP2 DUP2 ADD DUP3 SWAP1 MSTORE PUSH1 0x60 DUP1 DUP3 ADD DUP2 SWAP1 MSTORE PUSH1 0x80 DUP3 ADD MSTORE PUSH1 0xA0 DUP2 ADD DUP3 SWAP1 MSTORE SWAP1 PUSH1 0xC0 DUP3 ADD SWAP1 DUP2 MSTORE PUSH0 PUSH1 0x20 SWAP1 SWAP2 ADD MSTORE SWAP1 JUMP JUMPDEST POP DUP1 SLOAD PUSH2 0x4AF1 SWAP1 PUSH2 0x59DA JUMP JUMPDEST PUSH0 DUP3 SSTORE DUP1 PUSH1 0x1F LT PUSH2 0x4B00 JUMPI POP POP JUMP JUMPDEST PUSH1 0x1F ADD PUSH1 0x20 SWAP1 DIV SWAP1 PUSH0 MSTORE PUSH1 0x20 PUSH0 KECCAK256 SWAP1 DUP2 ADD SWAP1 PUSH2 0x1251 SWAP2 SWAP1 PUSH2 0x4C54 JUMP JUMPDEST PUSH1 0x40 MLOAD DUP1 PUSH2 0x160 ADD PUSH1 0x40 MSTORE DUP1 PUSH0 PUSH1 0x1 PUSH1 0x1 PUSH1 0x80 SHL SUB AND DUP2 MSTORE PUSH1 0x20 ADD PUSH0 PUSH1 0x1 PUSH1 0x1 PUSH1 0x80 SHL SUB AND DUP2 MSTORE PUSH1 0x20 ADD PUSH1 0x60 DUP2 MSTORE PUSH1 0x20 ADD PUSH1 0x60 DUP2 MSTORE PUSH1 0x20 ADD PUSH1 0x60 DUP2 MSTORE PUSH1 0x20 ADD PUSH0 PUSH1 0x1 PUSH1 0x1 PUSH1 0x80 SHL SUB AND DUP2 MSTORE PUSH1 0x20 ADD PUSH0 ISZERO ISZERO DUP2 MSTORE PUSH1 0x20 ADD PUSH1 0x60 DUP2 MSTORE PUSH1 0x20 ADD PUSH1 0x60 DUP2 MSTORE PUSH1 0x20 ADD PUSH0 PUSH1 0x1 PUSH1 0x1 PUSH1 0x80 SHL SUB AND DUP2 MSTORE PUSH1 0x20 ADD PUSH0 PUSH1 0x1 PUSH1 0x1 PUSH1 0x80 SHL SUB AND DUP2 MSTORE POP SWAP1 JUMP JUMPDEST DUP3 DUP1 SLOAD DUP3 DUP3 SSTORE SWAP1 PUSH0 MSTORE PUSH1 0x20 PUSH0 KECCAK256 SWAP1 PUSH1 0x1 ADD PUSH1 0x2 SWAP1 DIV DUP2 ADD SWAP3 DUP3 ISZERO PUSH2 0x4C44 JUMPI SWAP2 PUSH1 0x20 MUL DUP3 ADD PUSH0 JUMPDEST DUP4 DUP3 GT ISZERO PUSH2 0x4C0F JUMPI DUP4 MLOAD DUP4 DUP3 PUSH2 0x100 EXP DUP2 SLOAD DUP2 PUSH1 0x1 PUSH1 0x1 PUSH1 0x80 SHL SUB MUL NOT AND SWAP1 DUP4 PUSH1 0x1 PUSH1 0x1 PUSH1 0x80 SHL SUB AND MUL OR SWAP1 SSTORE POP SWAP3 PUSH1 0x20 ADD SWAP3 PUSH1 0x10 ADD PUSH1 0x20 DUP2 PUSH1 0xF ADD DIV SWAP3 DUP4 ADD SWAP3 PUSH1 0x1 SUB MUL PUSH2 0x4BC5 JUMP JUMPDEST DUP1 ISZERO PUSH2 0x4C42 JUMPI DUP3 DUP2 PUSH2 0x100 EXP DUP2 SLOAD SWAP1 PUSH1 0x1 PUSH1 0x1 PUSH1 0x80 SHL SUB MUL NOT AND SWAP1 SSTORE PUSH1 0x10 ADD PUSH1 0x20 DUP2 PUSH1 0xF ADD DIV SWAP3 DUP4 ADD SWAP3 PUSH1 0x1 SUB MUL PUSH2 0x4C0F JUMP JUMPDEST POP JUMPDEST POP PUSH2 0x4C50 SWAP3 SWAP2 POP PUSH2 0x4C54 JUMP JUMPDEST POP SWAP1 JUMP JUMPDEST JUMPDEST DUP1 DUP3 GT ISZERO PUSH2 0x4C50 JUMPI PUSH0 DUP2 SSTORE PUSH1 0x1 ADD PUSH2 0x4C55 JUMP JUMPDEST DUP1 CALLDATALOAD PUSH1 0x1 PUSH1 0x1 PUSH1 0xA0 SHL SUB DUP2 AND DUP2 EQ PUSH2 0x4C7E JUMPI PUSH0 PUSH0 REVERT JUMPDEST SWAP2 SWAP1 POP JUMP JUMPDEST PUSH0 PUSH0 PUSH1 0x40 DUP4 DUP6 SUB SLT ISZERO PUSH2 0x4C94 JUMPI PUSH0 PUSH0 REVERT JUMPDEST PUSH2 0x4C9D DUP4 PUSH2 0x4C68 JUMP JUMPDEST SWAP5 PUSH1 0x20 SWAP4 SWAP1 SWAP4 ADD CALLDATALOAD SWAP4 POP POP POP JUMP JUMPDEST PUSH1 0x1 PUSH1 0x1 PUSH1 0x80 SHL SUB AND SWAP1 MSTORE JUMP JUMPDEST PUSH0 DUP2 MLOAD DUP1 DUP5 MSTORE DUP1 PUSH1 0x20 DUP5 ADD PUSH1 0x20 DUP7 ADD MCOPY PUSH0 PUSH1 0x20 DUP3 DUP7 ADD ADD MSTORE PUSH1 0x20 PUSH1 0x1F NOT PUSH1 0x1F DUP4 ADD AND DUP6 ADD ADD SWAP2 POP POP SWAP3 SWAP2 POP POP JUMP JUMPDEST PUSH1 0x1 PUSH1 0x1 PUSH1 0xA0 SHL SUB DUP8 DUP2 AND DUP3 MSTORE DUP7 AND PUSH1 0x20 DUP3 ADD MSTORE PUSH1 0x1 PUSH1 0x1 PUSH1 0x80 SHL SUB DUP6 AND PUSH1 0x40 DUP3 ADD MSTORE PUSH1 0xFF DUP5 AND PUSH1 0x60 DUP3 ADD MSTORE PUSH1 0xC0 PUSH1 0x80 DUP3 ADD DUP2 SWAP1 MSTORE PUSH0 SWAP1 PUSH2 0x4D29 SWAP1 DUP4 ADD DUP6 PUSH2 0x4CB8 JUMP JUMPDEST SWAP1 POP PUSH1 0x1 DUP1 PUSH1 0x80 SHL SUB DUP4 AND PUSH1 0xA0 DUP4 ADD MSTORE SWAP8 SWAP7 POP POP POP POP POP POP POP JUMP JUMPDEST DUP1 CALLDATALOAD PUSH1 0x1 PUSH1 0x1 PUSH1 0x80 SHL SUB DUP2 AND DUP2 EQ PUSH2 0x4C7E JUMPI PUSH0 PUSH0 REVERT JUMPDEST PUSH4 0x4E487B71 PUSH1 0xE0 SHL PUSH0 MSTORE PUSH1 0x41 PUSH1 0x4 MSTORE PUSH1 0x24 PUSH0 REVERT JUMPDEST PUSH1 0x40 MLOAD PUSH1 0x1F DUP3 ADD PUSH1 0x1F NOT AND DUP2 ADD PUSH1 0x1 PUSH1 0x1 PUSH1 0x40 SHL SUB DUP2 GT DUP3 DUP3 LT OR ISZERO PUSH2 0x4D96 JUMPI PUSH2 0x4D96 PUSH2 0x4D5A JUMP JUMPDEST PUSH1 0x40 MSTORE SWAP2 SWAP1 POP JUMP JUMPDEST PUSH0 DUP3 PUSH1 0x1F DUP4 ADD SLT PUSH2 0x4DAD JUMPI PUSH0 PUSH0 REVERT JUMPDEST DUP2 CALLDATALOAD PUSH1 0x1 PUSH1 0x1 PUSH1 0x40 SHL SUB DUP2 GT ISZERO PUSH2 0x4DC6 JUMPI PUSH2 0x4DC6 PUSH2 0x4D5A JUMP JUMPDEST PUSH2 0x4DD9 PUSH1 0x1F DUP3 ADD PUSH1 0x1F NOT AND PUSH1 0x20 ADD PUSH2 0x4D6E JUMP JUMPDEST DUP2 DUP2 MSTORE DUP5 PUSH1 0x20 DUP4 DUP7 ADD ADD GT ISZERO PUSH2 0x4DED JUMPI PUSH0 PUSH0 REVERT JUMPDEST DUP2 PUSH1 0x20 DUP6 ADD PUSH1 0x20 DUP4 ADD CALLDATACOPY PUSH0 SWAP2 DUP2 ADD PUSH1 0x20 ADD SWAP2 SWAP1 SWAP2 MSTORE SWAP4 SWAP3 POP POP POP JUMP JUMPDEST PUSH0 PUSH0 PUSH0 PUSH0 PUSH0 PUSH0 PUSH0 PUSH1 0xE0 DUP9 DUP11 SUB SLT ISZERO PUSH2 0x4E1F JUMPI PUSH0 PUSH0 REVERT JUMPDEST PUSH2 0x4E28 DUP9 PUSH2 0x4D44 JUMP JUMPDEST SWAP7 POP PUSH1 0x20 DUP9 ADD CALLDATALOAD PUSH1 0x1 PUSH1 0x1 PUSH1 0x40 SHL SUB DUP2 GT ISZERO PUSH2 0x4E42 JUMPI PUSH0 PUSH0 REVERT JUMPDEST PUSH2 0x4E4E DUP11 DUP3 DUP12 ADD PUSH2 0x4D9E JUMP JUMPDEST SWAP7 POP POP PUSH1 0x40 DUP9 ADD CALLDATALOAD PUSH1 0x1 PUSH1 0x1 PUSH1 0x40 SHL SUB DUP2 GT ISZERO PUSH2 0x4E69 JUMPI PUSH0 PUSH0 REVERT JUMPDEST PUSH2 0x4E75 DUP11 DUP3 DUP12 ADD PUSH2 0x4D9E JUMP JUMPDEST SWAP6 POP POP PUSH1 0x60 DUP9 ADD CALLDATALOAD PUSH1 0x1 PUSH1 0x1 PUSH1 0x40 SHL SUB DUP2 GT ISZERO PUSH2 0x4E90 JUMPI PUSH0 PUSH0 REVERT JUMPDEST PUSH2 0x4E9C DUP11 DUP3 DUP12 ADD PUSH2 0x4D9E JUMP JUMPDEST SWAP5 POP POP PUSH2 0x4EAB PUSH1 0x80 DUP10 ADD PUSH2 0x4D44 JUMP JUMPDEST SWAP3 POP PUSH1 0xA0 DUP9 ADD CALLDATALOAD PUSH1 0x1 PUSH1 0x1 PUSH1 0x40 SHL SUB DUP2 GT ISZERO PUSH2 0x4EC5 JUMPI PUSH0 PUSH0 REVERT JUMPDEST PUSH2 0x4ED1 DUP11 DUP3 DUP12 ADD PUSH2 0x4D9E JUMP JUMPDEST SWAP3 POP POP PUSH1 0xC0 DUP9 ADD CALLDATALOAD PUSH1 0x1 PUSH1 0x1 PUSH1 0x40 SHL SUB DUP2 GT ISZERO PUSH2 0x4EEC JUMPI PUSH0 PUSH0 REVERT JUMPDEST PUSH2 0x4EF8 DUP11 DUP3 DUP12 ADD PUSH2 0x4D9E JUMP JUMPDEST SWAP2 POP POP SWAP3 SWAP6 SWAP9 SWAP2 SWAP5 SWAP8 POP SWAP3 SWAP6 POP JUMP JUMPDEST PUSH0 PUSH0 PUSH1 0x40 DUP4 DUP6 SUB SLT ISZERO PUSH2 0x4F18 JUMPI PUSH0 PUSH0 REVERT JUMPDEST PUSH2 0x4F21 DUP4 PUSH2 0x4D44 JUMP JUMPDEST SWAP2 POP PUSH2 0x4F2F PUSH1 0x20 DUP5 ADD PUSH2 0x4D44 JUMP JUMPDEST SWAP1 POP SWAP3 POP SWAP3 SWAP1 POP JUMP JUMPDEST PUSH0 DUP2 MLOAD DUP1 DUP5 MSTORE PUSH1 0x20 DUP5 ADD SWAP4 POP PUSH1 0x20 DUP4 ADD PUSH0 JUMPDEST DUP3 DUP2 LT ISZERO PUSH2 0x4F71 JUMPI DUP2 MLOAD PUSH1 0x1 PUSH1 0x1 PUSH1 0x80 SHL SUB AND DUP7 MSTORE PUSH1 0x20 SWAP6 DUP7 ADD SWAP6 SWAP1 SWAP2 ADD SWAP1 PUSH1 0x1 ADD PUSH2 0x4F4A JUMP JUMPDEST POP SWAP4 SWAP5 SWAP4 POP POP POP POP JUMP JUMPDEST PUSH4 0x4E487B71 PUSH1 0xE0 SHL PUSH0 MSTORE PUSH1 0x21 PUSH1 0x4 MSTORE PUSH1 0x24 PUSH0 REVERT JUMPDEST PUSH1 0x6 DUP2 LT PUSH2 0x4F9F JUMPI PUSH2 0x4F9F PUSH2 0x4F7B JUMP JUMPDEST SWAP1 MSTORE JUMP JUMPDEST DUP1 MLOAD PUSH1 0x1 PUSH1 0x1 PUSH1 0x80 SHL SUB AND DUP3 MSTORE PUSH1 0x20 DUP1 DUP3 ADD MLOAD PUSH0 SWAP2 PUSH2 0x4FCC SWAP1 DUP6 ADD DUP3 PUSH1 0x1 PUSH1 0x1 PUSH1 0xA0 SHL SUB AND SWAP1 MSTORE JUMP JUMPDEST POP PUSH1 0x40 DUP3 ADD MLOAD PUSH2 0x4FDF PUSH1 0x40 DUP6 ADD DUP3 PUSH2 0x4CAB JUMP JUMPDEST POP PUSH1 0x60 DUP3 ADD MLOAD PUSH2 0x100 PUSH1 0x60 DUP6 ADD MSTORE PUSH2 0x4FFB PUSH2 0x100 DUP6 ADD DUP3 PUSH2 0x4F38 JUMP JUMPDEST SWAP1 POP PUSH1 0x80 DUP4 ADD MLOAD DUP5 DUP3 SUB PUSH1 0x80 DUP7 ADD MSTORE PUSH2 0x5014 DUP3 DUP3 PUSH2 0x4F38 JUMP JUMPDEST SWAP2 POP POP PUSH1 0xA0 DUP4 ADD MLOAD PUSH2 0x5029 PUSH1 0xA0 DUP7 ADD DUP3 PUSH2 0x4CAB JUMP JUMPDEST POP PUSH1 0xC0 DUP4 ADD MLOAD PUSH2 0x503C PUSH1 0xC0 DUP7 ADD DUP3 PUSH2 0x4F8F JUMP JUMPDEST POP PUSH1 0xE0 DUP4 ADD MLOAD PUSH2 0x504F PUSH1 0xE0 DUP7 ADD DUP3 PUSH2 0x4CAB JUMP JUMPDEST POP SWAP4 SWAP3 POP POP POP JUMP JUMPDEST PUSH0 PUSH1 0x20 DUP3 ADD PUSH1 0x20 DUP4 MSTORE DUP1 DUP5 MLOAD DUP1 DUP4 MSTORE PUSH1 0x40 DUP6 ADD SWAP2 POP PUSH1 0x40 DUP2 PUSH1 0x5 SHL DUP7 ADD ADD SWAP3 POP PUSH1 0x20 DUP7 ADD PUSH0 JUMPDEST DUP3 DUP2 LT ISZERO PUSH2 0x50AE JUMPI PUSH1 0x3F NOT DUP8 DUP7 SUB ADD DUP5 MSTORE PUSH2 0x5099 DUP6 DUP4 MLOAD PUSH2 0x4FA3 JUMP JUMPDEST SWAP5 POP PUSH1 0x20 SWAP4 DUP5 ADD SWAP4 SWAP2 SWAP1 SWAP2 ADD SWAP1 PUSH1 0x1 ADD PUSH2 0x507D JUMP JUMPDEST POP SWAP3 SWAP7 SWAP6 POP POP POP POP POP POP JUMP JUMPDEST PUSH0 PUSH0 PUSH1 0x40 DUP4 DUP6 SUB SLT ISZERO PUSH2 0x50CB JUMPI PUSH0 PUSH0 REVERT JUMPDEST PUSH2 0x4C9D DUP4 PUSH2 0x4D44 JUMP JUMPDEST PUSH0 PUSH1 0x20 DUP3 DUP5 SUB SLT ISZERO PUSH2 0x50E4 JUMPI PUSH0 PUSH0 REVERT JUMPDEST PUSH2 0x3B1F DUP3 PUSH2 0x4D44 JUMP JUMPDEST DUP1 CALLDATALOAD PUSH1 0xFF DUP2 AND DUP2 EQ PUSH2 0x4C7E JUMPI PUSH0 PUSH0 REVERT JUMPDEST PUSH0 PUSH0 PUSH0 PUSH0 PUSH1 0x80 DUP6 DUP8 SUB SLT ISZERO PUSH2 0x5110 JUMPI PUSH0 PUSH0 REVERT JUMPDEST PUSH2 0x5119 DUP6 PUSH2 0x4C68 JUMP JUMPDEST SWAP4 POP PUSH2 0x5127 PUSH1 0x20 DUP7 ADD PUSH2 0x4D44 JUMP JUMPDEST SWAP3 POP PUSH2 0x5135 PUSH1 0x40 DUP7 ADD PUSH2 0x50ED JUMP JUMPDEST SWAP2 POP PUSH1 0x60 DUP6 ADD CALLDATALOAD PUSH1 0x1 PUSH1 0x1 PUSH1 0x40 SHL SUB DUP2 GT ISZERO PUSH2 0x514F JUMPI PUSH0 PUSH0 REVERT JUMPDEST PUSH2 0x515B DUP8 DUP3 DUP9 ADD PUSH2 0x4D9E JUMP JUMPDEST SWAP2 POP POP SWAP3 SWAP6 SWAP2 SWAP5 POP SWAP3 POP JUMP JUMPDEST PUSH0 PUSH0 PUSH0 PUSH1 0x60 DUP5 DUP7 SUB SLT ISZERO PUSH2 0x5179 JUMPI PUSH0 PUSH0 REVERT JUMPDEST PUSH2 0x5182 DUP5 PUSH2 0x4D44 JUMP JUMPDEST SWAP3 POP PUSH2 0x5190 PUSH1 0x20 DUP6 ADD PUSH2 0x50ED JUMP JUMPDEST SWAP2 POP PUSH1 0x40 DUP5 ADD CALLDATALOAD PUSH1 0x1 PUSH1 0x1 PUSH1 0x40 SHL SUB DUP2 GT ISZERO PUSH2 0x51AA JUMPI PUSH0 PUSH0 REVERT JUMPDEST PUSH2 0x51B6 DUP7 DUP3 DUP8 ADD PUSH2 0x4D9E JUMP JUMPDEST SWAP2 POP POP SWAP3 POP SWAP3 POP SWAP3 JUMP JUMPDEST PUSH1 0x1 PUSH1 0x1 PUSH1 0x80 SHL SUB DUP6 DUP2 AND DUP3 MSTORE DUP5 DUP2 AND PUSH1 0x20 DUP4 ADD MSTORE DUP4 AND PUSH1 0x40 DUP3 ADD MSTORE PUSH1 0x80 PUSH1 0x60 DUP3 ADD DUP2 SWAP1 MSTORE PUSH0 SWAP1 PUSH2 0x51F3 SWAP1 DUP4 ADD DUP5 PUSH2 0x4CB8 JUMP JUMPDEST SWAP7 SWAP6 POP POP POP POP POP POP JUMP JUMPDEST PUSH0 DUP3 DUP3 MLOAD DUP1 DUP6 MSTORE PUSH1 0x20 DUP6 ADD SWAP5 POP PUSH1 0x20 DUP2 PUSH1 0x5 SHL DUP4 ADD ADD PUSH1 0x20 DUP6 ADD PUSH0 JUMPDEST DUP4 DUP2 LT ISZERO PUSH2 0x533A JUMPI PUSH1 0x1F NOT DUP6 DUP5 SUB ADD DUP9 MSTORE DUP2 MLOAD PUSH2 0x5237 DUP5 DUP3 MLOAD PUSH2 0x4CAB JUMP JUMPDEST PUSH1 0x20 DUP2 ADD MLOAD PUSH2 0x5249 PUSH1 0x20 DUP7 ADD DUP3 PUSH2 0x4CAB JUMP JUMPDEST POP PUSH1 0x40 DUP2 ADD MLOAD PUSH2 0x160 PUSH1 0x40 DUP7 ADD MSTORE PUSH2 0x5265 PUSH2 0x160 DUP7 ADD DUP3 PUSH2 0x4CB8 JUMP JUMPDEST SWAP1 POP PUSH1 0x60 DUP3 ADD MLOAD DUP6 DUP3 SUB PUSH1 0x60 DUP8 ADD MSTORE PUSH2 0x527E DUP3 DUP3 PUSH2 0x4CB8 JUMP JUMPDEST SWAP2 POP POP PUSH1 0x80 DUP3 ADD MLOAD DUP6 DUP3 SUB PUSH1 0x80 DUP8 ADD MSTORE PUSH2 0x5298 DUP3 DUP3 PUSH2 0x4CB8 JUMP JUMPDEST SWAP2 POP POP PUSH1 0xA0 DUP3 ADD MLOAD PUSH2 0x52AD PUSH1 0xA0 DUP8 ADD DUP3 PUSH2 0x4CAB JUMP JUMPDEST POP PUSH1 0xC0 DUP3 ADD MLOAD PUSH2 0x52C1 PUSH1 0xC0 DUP8 ADD DUP3 ISZERO ISZERO SWAP1 MSTORE JUMP JUMPDEST POP PUSH1 0xE0 DUP3 ADD MLOAD DUP6 DUP3 SUB PUSH1 0xE0 DUP8 ADD MSTORE PUSH2 0x52D9 DUP3 DUP3 PUSH2 0x4CB8 JUMP JUMPDEST SWAP2 POP POP PUSH2 0x100 DUP3 ADD MLOAD DUP6 DUP3 SUB PUSH2 0x100 DUP8 ADD MSTORE PUSH2 0x52F5 DUP3 DUP3 PUSH2 0x4CB8 JUMP JUMPDEST SWAP2 POP POP PUSH2 0x120 DUP3 ADD MLOAD PUSH2 0x530C PUSH2 0x120 DUP8 ADD DUP3 PUSH2 0x4CAB JUMP JUMPDEST POP PUSH2 0x140 DUP3 ADD MLOAD SWAP2 POP PUSH2 0x5323 PUSH2 0x140 DUP7 ADD DUP4 PUSH2 0x4CAB JUMP JUMPDEST PUSH1 0x20 SWAP10 DUP11 ADD SWAP10 SWAP1 SWAP5 POP SWAP3 SWAP1 SWAP3 ADD SWAP2 POP PUSH1 0x1 ADD PUSH2 0x5219 JUMP JUMPDEST POP SWAP1 SWAP7 SWAP6 POP POP POP POP POP POP JUMP JUMPDEST PUSH1 0x60 DUP2 MSTORE PUSH0 PUSH2 0x5358 PUSH1 0x60 DUP4 ADD DUP7 PUSH2 0x4FA3 JUMP JUMPDEST DUP3 DUP2 SUB PUSH1 0x20 DUP5 ADD MSTORE PUSH2 0x536A DUP2 DUP7 PUSH2 0x51FD JUMP JUMPDEST DUP4 DUP2 SUB PUSH1 0x40 DUP6 ADD MSTORE DUP5 MLOAD DUP1 DUP3 MSTORE PUSH1 0x20 DUP1 DUP8 ADD SWAP4 POP SWAP1 SWAP2 ADD SWAP1 PUSH0 JUMPDEST DUP2 DUP2 LT ISZERO PUSH2 0x53AB JUMPI DUP4 MLOAD PUSH1 0x1 PUSH1 0x1 PUSH1 0x80 SHL SUB AND DUP4 MSTORE PUSH1 0x20 SWAP4 DUP5 ADD SWAP4 SWAP1 SWAP3 ADD SWAP2 PUSH1 0x1 ADD PUSH2 0x5384 JUMP JUMPDEST POP SWAP1 SWAP8 SWAP7 POP POP POP POP POP POP POP JUMP JUMPDEST PUSH0 PUSH1 0x20 DUP3 ADD PUSH1 0x20 DUP4 MSTORE DUP1 DUP5 MLOAD DUP1 DUP4 MSTORE PUSH1 0x40 DUP6 ADD SWAP2 POP PUSH1 0x40 DUP2 PUSH1 0x5 SHL DUP7 ADD ADD SWAP3 POP PUSH1 0x20 DUP7 ADD PUSH0 JUMPDEST DUP3 DUP2 LT ISZERO PUSH2 0x50AE JUMPI DUP7 DUP6 SUB PUSH1 0x3F NOT ADD DUP5 MSTORE DUP2 MLOAD DUP1 MLOAD PUSH1 0x1 PUSH1 0x1 PUSH1 0xA0 SHL SUB AND DUP7 MSTORE PUSH1 0x20 DUP1 DUP3 ADD MLOAD PUSH1 0x1 PUSH1 0x1 PUSH1 0x80 SHL SUB AND SWAP1 DUP8 ADD MSTORE PUSH1 0x40 DUP1 DUP3 ADD MLOAD PUSH1 0xFF AND SWAP1 DUP8 ADD MSTORE PUSH1 0x60 DUP1 DUP3 ADD MLOAD PUSH1 0xA0 SWAP2 DUP9 ADD DUP3 SWAP1 MSTORE SWAP1 PUSH2 0x5439 SWAP1 DUP9 ADD DUP3 PUSH2 0x4CB8 JUMP JUMPDEST PUSH1 0x80 SWAP3 DUP4 ADD MLOAD PUSH1 0x1 PUSH1 0x1 PUSH1 0x80 SHL SUB AND SWAP8 SWAP1 SWAP3 ADD SWAP7 SWAP1 SWAP7 MSTORE SWAP5 POP PUSH1 0x20 SWAP4 DUP5 ADD SWAP4 SWAP2 SWAP1 SWAP2 ADD SWAP1 PUSH1 0x1 ADD PUSH2 0x53DE JUMP JUMPDEST PUSH1 0x1 PUSH1 0x1 PUSH1 0xA0 SHL SUB SWAP2 SWAP1 SWAP2 AND DUP2 MSTORE PUSH1 0x20 ADD SWAP1 JUMP JUMPDEST PUSH0 PUSH1 0x20 DUP3 DUP5 SUB SLT ISZERO PUSH2 0x5489 JUMPI PUSH0 PUSH0 REVERT JUMPDEST PUSH2 0x3B1F DUP3 PUSH2 0x4C68 JUMP JUMPDEST PUSH0 PUSH1 0x20 DUP3 ADD PUSH1 0x20 DUP4 MSTORE DUP1 DUP5 MLOAD DUP1 DUP4 MSTORE PUSH1 0x40 DUP6 ADD SWAP2 POP PUSH1 0x40 DUP2 PUSH1 0x5 SHL DUP7 ADD ADD SWAP3 POP PUSH1 0x20 DUP7 ADD PUSH0 JUMPDEST DUP3 DUP2 LT ISZERO PUSH2 0x50AE JUMPI DUP7 DUP6 SUB PUSH1 0x3F NOT ADD DUP5 MSTORE DUP2 MLOAD DUP1 MLOAD PUSH1 0x1 PUSH1 0x1 PUSH1 0xA0 SHL SUB SWAP1 DUP2 AND DUP8 MSTORE PUSH1 0x20 DUP1 DUP4 ADD MLOAD SWAP1 SWAP2 AND SWAP1 DUP8 ADD MSTORE PUSH1 0x40 DUP1 DUP3 ADD MLOAD PUSH1 0x1 PUSH1 0x1 PUSH1 0x80 SHL SUB AND SWAP1 DUP8 ADD MSTORE PUSH1 0x60 DUP1 DUP3 ADD MLOAD PUSH1 0xFF AND SWAP1 DUP8 ADD MSTORE PUSH1 0x80 DUP1 DUP3 ADD MLOAD PUSH1 0xC0 SWAP2 DUP9 ADD DUP3 SWAP1 MSTORE SWAP1 PUSH2 0x5522 SWAP1 DUP9 ADD DUP3 PUSH2 0x4CB8 JUMP JUMPDEST PUSH1 0xA0 SWAP3 DUP4 ADD MLOAD PUSH1 0x1 PUSH1 0x1 PUSH1 0x80 SHL SUB AND SWAP8 SWAP1 SWAP3 ADD SWAP7 SWAP1 SWAP7 MSTORE SWAP5 POP PUSH1 0x20 SWAP4 DUP5 ADD SWAP4 SWAP2 SWAP1 SWAP2 ADD SWAP1 PUSH1 0x1 ADD PUSH2 0x54B8 JUMP JUMPDEST PUSH0 DUP3 PUSH1 0x1F DUP4 ADD SLT PUSH2 0x555D JUMPI PUSH0 PUSH0 REVERT JUMPDEST DUP2 CALLDATALOAD PUSH1 0x1 PUSH1 0x1 PUSH1 0x40 SHL SUB DUP2 GT ISZERO PUSH2 0x5576 JUMPI PUSH2 0x5576 PUSH2 0x4D5A JUMP JUMPDEST DUP1 PUSH1 0x5 SHL PUSH2 0x5586 PUSH1 0x20 DUP3 ADD PUSH2 0x4D6E JUMP JUMPDEST SWAP2 DUP3 MSTORE PUSH1 0x20 DUP2 DUP6 ADD DUP2 ADD SWAP3 SWAP1 DUP2 ADD SWAP1 DUP7 DUP5 GT ISZERO PUSH2 0x55A1 JUMPI PUSH0 PUSH0 REVERT JUMPDEST PUSH1 0x20 DUP7 ADD SWAP3 POP JUMPDEST DUP4 DUP4 LT ISZERO PUSH2 0x51F3 JUMPI PUSH2 0x55B9 DUP4 PUSH2 0x4D44 JUMP JUMPDEST DUP3 MSTORE PUSH1 0x20 SWAP3 DUP4 ADD SWAP3 SWAP1 SWAP2 ADD SWAP1 PUSH2 0x55A8 JUMP JUMPDEST PUSH0 PUSH0 PUSH0 PUSH1 0x60 DUP5 DUP7 SUB SLT ISZERO PUSH2 0x55DC JUMPI PUSH0 PUSH0 REVERT JUMPDEST PUSH2 0x55E5 DUP5 PUSH2 0x4D44 JUMP JUMPDEST SWAP3 POP PUSH1 0x20 DUP5 ADD CALLDATALOAD PUSH1 0x1 PUSH1 0x1 PUSH1 0x40 SHL SUB DUP2 GT ISZERO PUSH2 0x55FF JUMPI PUSH0 PUSH0 REVERT JUMPDEST PUSH2 0x560B DUP7 DUP3 DUP8 ADD PUSH2 0x554E JUMP JUMPDEST SWAP3 POP POP PUSH1 0x40 DUP5 ADD CALLDATALOAD PUSH1 0x1 PUSH1 0x1 PUSH1 0x40 SHL SUB DUP2 GT ISZERO PUSH2 0x5626 JUMPI PUSH0 PUSH0 REVERT JUMPDEST PUSH2 0x51B6 DUP7 DUP3 DUP8 ADD PUSH2 0x554E JUMP JUMPDEST PUSH1 0x20 DUP2 ADD PUSH1 0x3 DUP4 LT PUSH2 0x5646 JUMPI PUSH2 0x5646 PUSH2 0x4F7B JUMP JUMPDEST SWAP2 SWAP1 MSTORE SWAP1 JUMP JUMPDEST DUP1 CALLDATALOAD DUP1 ISZERO ISZERO DUP2 EQ PUSH2 0x4C7E JUMPI PUSH0 PUSH0 REVERT JUMPDEST PUSH0 PUSH0 PUSH0 PUSH0 PUSH0 PUSH0 PUSH0 PUSH0 PUSH0 PUSH2 0x120 DUP11 DUP13 SUB SLT ISZERO PUSH2 0x5674 JUMPI PUSH0 PUSH0 REVERT JUMPDEST PUSH2 0x567D DUP11 PUSH2 0x4D44 JUMP JUMPDEST SWAP9 POP PUSH2 0x568B PUSH1 0x20 DUP12 ADD PUSH2 0x4D44 JUMP JUMPDEST SWAP8 POP PUSH1 0x40 DUP11 ADD CALLDATALOAD PUSH1 0x1 PUSH1 0x1 PUSH1 0x40 SHL SUB DUP2 GT ISZERO PUSH2 0x56A5 JUMPI PUSH0 PUSH0 REVERT JUMPDEST PUSH2 0x56B1 DUP13 DUP3 DUP14 ADD PUSH2 0x4D9E JUMP JUMPDEST SWAP8 POP POP PUSH1 0x60 DUP11 ADD CALLDATALOAD PUSH1 0x1 PUSH1 0x1 PUSH1 0x40 SHL SUB DUP2 GT ISZERO PUSH2 0x56CC JUMPI PUSH0 PUSH0 REVERT JUMPDEST PUSH2 0x56D8 DUP13 DUP3 DUP14 ADD PUSH2 0x4D9E JUMP JUMPDEST SWAP7 POP POP PUSH1 0x80 DUP11 ADD CALLDATALOAD PUSH1 0x1 PUSH1 0x1 PUSH1 0x40 SHL SUB DUP2 GT ISZERO PUSH2 0x56F3 JUMPI PUSH0 PUSH0 REVERT JUMPDEST PUSH2 0x56FF DUP13 DUP3 DUP14 ADD PUSH2 0x4D9E JUMP JUMPDEST SWAP6 POP POP PUSH2 0x570E PUSH1 0xA0 DUP12 ADD PUSH2 0x4D44 JUMP JUMPDEST SWAP4 POP PUSH2 0x571C PUSH1 0xC0 DUP12 ADD PUSH2 0x564C JUMP JUMPDEST SWAP3 POP PUSH1 0xE0 DUP11 ADD CALLDATALOAD PUSH1 0x1 PUSH1 0x1 PUSH1 0x40 SHL SUB DUP2 GT ISZERO PUSH2 0x5736 JUMPI PUSH0 PUSH0 REVERT JUMPDEST PUSH2 0x5742 DUP13 DUP3 DUP14 ADD PUSH2 0x4D9E JUMP JUMPDEST SWAP3 POP POP PUSH2 0x100 DUP11 ADD CALLDATALOAD PUSH1 0x1 PUSH1 0x1 PUSH1 0x40 SHL SUB DUP2 GT ISZERO PUSH2 0x575E JUMPI PUSH0 PUSH0 REVERT JUMPDEST PUSH2 0x576A DUP13 DUP3 DUP14 ADD PUSH2 0x4D9E JUMP JUMPDEST SWAP2 POP POP SWAP3 SWAP6 SWAP9 POP SWAP3 SWAP6 SWAP9 POP SWAP3 SWAP6 SWAP9 JUMP JUMPDEST PUSH0 PUSH0 PUSH1 0x40 DUP4 DUP6 SUB SLT ISZERO PUSH2 0x578B JUMPI PUSH0 PUSH0 REVERT JUMPDEST PUSH2 0x4F21 DUP4 PUSH2 0x4C68 JUMP JUMPDEST PUSH0 PUSH0 PUSH0 PUSH1 0x60 DUP5 DUP7 SUB SLT ISZERO PUSH2 0x57A6 JUMPI PUSH0 PUSH0 REVERT JUMPDEST PUSH2 0x57AF DUP5 PUSH2 0x4D44 JUMP JUMPDEST SWAP3 POP PUSH2 0x57BD PUSH1 0x20 DUP6 ADD PUSH2 0x4D44 JUMP JUMPDEST SWAP2 POP PUSH2 0x57CB PUSH1 0x40 DUP6 ADD PUSH2 0x4D44 JUMP JUMPDEST SWAP1 POP SWAP3 POP SWAP3 POP SWAP3 JUMP JUMPDEST PUSH1 0x20 DUP2 MSTORE PUSH0 PUSH2 0x3B1F PUSH1 0x20 DUP4 ADD DUP5 PUSH2 0x51FD JUMP JUMPDEST PUSH1 0x1 PUSH1 0x1 PUSH1 0x80 SHL SUB DUP13 DUP2 AND DUP3 MSTORE DUP12 AND PUSH1 0x20 DUP3 ADD MSTORE PUSH2 0x160 PUSH1 0x40 DUP3 ADD DUP2 SWAP1 MSTORE PUSH0 SWAP1 PUSH2 0x5812 SWAP1 DUP4 ADD DUP13 PUSH2 0x4CB8 JUMP JUMPDEST DUP3 DUP2 SUB PUSH1 0x60 DUP5 ADD MSTORE PUSH2 0x5824 DUP2 DUP13 PUSH2 0x4CB8 JUMP JUMPDEST SWAP1 POP DUP3 DUP2 SUB PUSH1 0x80 DUP5 ADD MSTORE PUSH2 0x5838 DUP2 DUP12 PUSH2 0x4CB8 JUMP JUMPDEST SWAP1 POP PUSH2 0x5847 PUSH1 0xA0 DUP5 ADD DUP11 PUSH2 0x4CAB JUMP JUMPDEST DUP8 ISZERO ISZERO PUSH1 0xC0 DUP5 ADD MSTORE DUP3 DUP2 SUB PUSH1 0xE0 DUP5 ADD MSTORE PUSH2 0x5861 DUP2 DUP9 PUSH2 0x4CB8 JUMP JUMPDEST SWAP1 POP DUP3 DUP2 SUB PUSH2 0x100 DUP5 ADD MSTORE PUSH2 0x5876 DUP2 DUP8 PUSH2 0x4CB8 JUMP JUMPDEST SWAP2 POP POP PUSH2 0x5887 PUSH2 0x120 DUP4 ADD DUP6 PUSH2 0x4CAB JUMP JUMPDEST PUSH2 0x5895 PUSH2 0x140 DUP4 ADD DUP5 PUSH2 0x4CAB JUMP JUMPDEST SWAP13 SWAP12 POP POP POP POP POP POP POP POP POP POP POP POP JUMP JUMPDEST PUSH0 PUSH0 PUSH0 PUSH1 0x60 DUP5 DUP7 SUB SLT ISZERO PUSH2 0x58B7 JUMPI PUSH0 PUSH0 REVERT JUMPDEST PUSH2 0x58C0 DUP5 PUSH2 0x4D44 JUMP JUMPDEST SWAP3 POP PUSH2 0x58CE PUSH1 0x20 DUP6 ADD PUSH2 0x4D44 JUMP JUMPDEST SWAP2 POP PUSH2 0x57CB PUSH1 0x40 DUP6 ADD PUSH2 0x50ED JUMP JUMPDEST PUSH0 PUSH0 PUSH1 0x40 DUP4 DUP6 SUB SLT ISZERO PUSH2 0x58ED JUMPI PUSH0 PUSH0 REVERT JUMPDEST PUSH2 0x58F6 DUP4 PUSH2 0x4D44 JUMP JUMPDEST SWAP2 POP PUSH1 0x20 DUP4 ADD CALLDATALOAD PUSH1 0x6 DUP2 LT PUSH2 0x5909 JUMPI PUSH0 PUSH0 REVERT JUMPDEST DUP1 SWAP2 POP POP SWAP3 POP SWAP3 SWAP1 POP JUMP JUMPDEST PUSH1 0x1 PUSH1 0x1 PUSH1 0xA0 SHL SUB DUP7 AND DUP2 MSTORE PUSH1 0x1 PUSH1 0x1 PUSH1 0x80 SHL SUB DUP6 AND PUSH1 0x20 DUP3 ADD MSTORE PUSH1 0xFF DUP5 AND PUSH1 0x40 DUP3 ADD MSTORE PUSH1 0xA0 PUSH1 0x60 DUP3 ADD DUP2 SWAP1 MSTORE PUSH0 SWAP1 PUSH2 0x594F SWAP1 DUP4 ADD DUP6 PUSH2 0x4CB8 JUMP JUMPDEST SWAP1 POP PUSH1 0x1 DUP1 PUSH1 0x80 SHL SUB DUP4 AND PUSH1 0x80 DUP4 ADD MSTORE SWAP7 SWAP6 POP POP POP POP POP POP JUMP JUMPDEST PUSH0 PUSH1 0x20 DUP3 DUP5 SUB SLT ISZERO PUSH2 0x5979 JUMPI PUSH0 PUSH0 REVERT JUMPDEST PUSH2 0x3B1F DUP3 PUSH2 0x50ED JUMP JUMPDEST PUSH1 0x1 PUSH1 0x1 PUSH1 0x80 SHL SUB DUP8 DUP2 AND DUP3 MSTORE PUSH1 0x1 PUSH1 0x1 PUSH1 0xA0 SHL SUB DUP8 AND PUSH1 0x20 DUP4 ADD MSTORE DUP6 DUP2 AND PUSH1 0x40 DUP4 ADD MSTORE DUP5 AND PUSH1 0x60 DUP3 ADD MSTORE PUSH1 0xC0 DUP2 ADD PUSH2 0x59BE PUSH1 0x80 DUP4 ADD DUP6 PUSH2 0x4F8F JUMP JUMPDEST PUSH1 0x1 PUSH1 0x1 PUSH1 0x80 SHL SUB SWAP3 SWAP1 SWAP3 AND PUSH1 0xA0 SWAP2 SWAP1 SWAP2 ADD MSTORE SWAP6 SWAP5 POP POP POP POP POP JUMP JUMPDEST PUSH1 0x1 DUP2 DUP2 SHR SWAP1 DUP3 AND DUP1 PUSH2 0x59EE JUMPI PUSH1 0x7F DUP3 AND SWAP2 POP JUMPDEST PUSH1 0x20 DUP3 LT DUP2 SUB PUSH2 0x5A0C JUMPI PUSH4 0x4E487B71 PUSH1 0xE0 SHL PUSH0 MSTORE PUSH1 0x22 PUSH1 0x4 MSTORE PUSH1 0x24 PUSH0 REVERT JUMPDEST POP SWAP2 SWAP1 POP JUMP JUMPDEST PUSH1 0x20 DUP1 DUP3 MSTORE PUSH1 0x29 SWAP1 DUP3 ADD MSTORE PUSH32 0x556E617574686F72697A65643A2053746166662C2041646D696E2C206F72204F PUSH1 0x40 DUP3 ADD MSTORE PUSH9 0x776E6572206F6E6C79 PUSH1 0xB8 SHL PUSH1 0x60 DUP3 ADD MSTORE PUSH1 0x80 ADD SWAP1 JUMP JUMPDEST PUSH1 0x20 DUP1 DUP3 MSTORE PUSH1 0xC SWAP1 DUP3 ADD MSTORE PUSH12 0x496E76616C69642064617461 PUSH1 0xA0 SHL PUSH1 0x40 DUP3 ADD MSTORE PUSH1 0x60 ADD SWAP1 JUMP JUMPDEST PUSH1 0x20 DUP1 DUP3 MSTORE PUSH1 0x19 SWAP1 DUP3 ADD MSTORE PUSH25 0x14995CDD185D5C985B9D08191BD95CC81B9BDD08195E1A5CDD PUSH1 0x3A SHL PUSH1 0x40 DUP3 ADD MSTORE PUSH1 0x60 ADD SWAP1 JUMP JUMPDEST PUSH1 0x1F DUP3 GT ISZERO PUSH2 0x2F0F JUMPI DUP1 PUSH0 MSTORE PUSH1 0x20 PUSH0 KECCAK256 PUSH1 0x1F DUP5 ADD PUSH1 0x5 SHR DUP2 ADD PUSH1 0x20 DUP6 LT ISZERO PUSH2 0x5AD9 JUMPI POP DUP1 JUMPDEST PUSH1 0x1F DUP5 ADD PUSH1 0x5 SHR DUP3 ADD SWAP2 POP JUMPDEST DUP2 DUP2 LT ISZERO PUSH2 0x5AF8 JUMPI PUSH0 DUP2 SSTORE PUSH1 0x1 ADD PUSH2 0x5AE5 JUMP JUMPDEST POP POP POP POP POP JUMP JUMPDEST DUP2 MLOAD PUSH1 0x1 PUSH1 0x1 PUSH1 0x40 SHL SUB DUP2 GT ISZERO PUSH2 0x5B18 JUMPI PUSH2 0x5B18 PUSH2 0x4D5A JUMP JUMPDEST PUSH2 0x5B2C DUP2 PUSH2 0x5B26 DUP5 SLOAD PUSH2 0x59DA JUMP JUMPDEST DUP5 PUSH2 0x5AB4 JUMP JUMPDEST PUSH1 0x20 PUSH1 0x1F DUP3 GT PUSH1 0x1 DUP2 EQ PUSH2 0x5B5E JUMPI PUSH0 DUP4 ISZERO PUSH2 0x5B47 JUMPI POP DUP5 DUP3 ADD MLOAD JUMPDEST PUSH0 NOT PUSH1 0x3 DUP6 SWAP1 SHL SHR NOT AND PUSH1 0x1 DUP5 SWAP1 SHL OR DUP5 SSTORE PUSH2 0x5AF8 JUMP JUMPDEST PUSH0 DUP5 DUP2 MSTORE PUSH1 0x20 DUP2 KECCAK256 PUSH1 0x1F NOT DUP6 AND SWAP2 JUMPDEST DUP3 DUP2 LT ISZERO PUSH2 0x5B8D JUMPI DUP8 DUP6 ADD MLOAD DUP3 SSTORE PUSH1 0x20 SWAP5 DUP6 ADD SWAP5 PUSH1 0x1 SWAP1 SWAP3 ADD SWAP2 ADD PUSH2 0x5B6D JUMP JUMPDEST POP DUP5 DUP3 LT ISZERO PUSH2 0x5BAA JUMPI DUP7 DUP5 ADD MLOAD PUSH0 NOT PUSH1 0x3 DUP8 SWAP1 SHL PUSH1 0xF8 AND SHR NOT AND DUP2 SSTORE JUMPDEST POP POP POP POP PUSH1 0x1 SWAP1 DUP2 SHL ADD SWAP1 SSTORE POP JUMP JUMPDEST PUSH1 0x1 PUSH1 0x1 PUSH1 0x80 SHL SUB DUP5 DUP2 AND DUP3 MSTORE DUP4 AND PUSH1 0x20 DUP3 ADD MSTORE PUSH1 0x60 PUSH1 0x40 DUP3 ADD DUP2 SWAP1 MSTORE PUSH0 SWAP1 PUSH2 0x5BE4 SWAP1 DUP4 ADD DUP5 PUSH2 0x4CB8 JUMP JUMPDEST SWAP6 SWAP5 POP POP POP POP POP JUMP JUMPDEST PUSH4 0x4E487B71 PUSH1 0xE0 SHL PUSH0 MSTORE PUSH1 0x11 PUSH1 0x4 MSTORE PUSH1 0x24 PUSH0 REVERT JUMPDEST PUSH0 PUSH1 0x1 PUSH1 0x1 PUSH1 0x80 SHL SUB DUP3 AND PUSH1 0x2 PUSH1 0x1 PUSH1 0x80 SHL SUB NOT DUP2 ADD PUSH2 0x5C23 JUMPI PUSH2 0x5C23 PUSH2 0x5BED JUMP JUMPDEST PUSH1 0x1 ADD SWAP3 SWAP2 POP POP JUMP JUMPDEST PUSH1 0x20 DUP1 DUP3 MSTORE PUSH1 0x18 SWAP1 DUP3 ADD MSTORE PUSH24 0x556E617574686F72697A65643A2041646D696E206F6E6C79 PUSH1 0x40 SHL PUSH1 0x40 DUP3 ADD MSTORE PUSH1 0x60 ADD SWAP1 JUMP JUMPDEST PUSH1 0x1 PUSH1 0x1 PUSH1 0x80 SHL SUB DUP3 DUP2 AND DUP3 DUP3 AND SUB SWAP1 DUP2 GT ISZERO PUSH2 0x1009 JUMPI PUSH2 0x1009 PUSH2 0x5BED JUMP JUMPDEST PUSH1 0x1 PUSH1 0x1 PUSH1 0x80 SHL SUB DUP2 DUP2 AND DUP4 DUP3 AND ADD SWAP1 DUP2 GT ISZERO PUSH2 0x1009 JUMPI PUSH2 0x1009 PUSH2 0x5BED JUMP JUMPDEST PUSH4 0x4E487B71 PUSH1 0xE0 SHL PUSH0 MSTORE PUSH1 0x32 PUSH1 0x4 MSTORE PUSH1 0x24 PUSH0 REVERT JUMPDEST PUSH1 0x20 DUP1 DUP3 MSTORE PUSH1 0x16 SWAP1 DUP3 ADD MSTORE PUSH22 0x27B7363C9030B236B4B71037B91031BAB9BA37B6B2B9 PUSH1 0x51 SHL PUSH1 0x40 DUP3 ADD MSTORE PUSH1 0x60 ADD SWAP1 JUMP JUMPDEST PUSH1 0x20 DUP1 DUP3 MSTORE PUSH1 0x10 SWAP1 DUP3 ADD MSTORE PUSH16 0x125B9D985B1A59081BDC99195C881251 PUSH1 0x82 SHL PUSH1 0x40 DUP3 ADD MSTORE PUSH1 0x60 ADD SWAP1 JUMP JUMPDEST PUSH1 0x20 DUP1 DUP3 MSTORE PUSH1 0xE SWAP1 DUP3 ADD MSTORE PUSH14 0x2737BA103CB7BAB91037B93232B9 PUSH1 0x91 SHL PUSH1 0x40 DUP3 ADD MSTORE PUSH1 0x60 ADD SWAP1 JUMP JUMPDEST PUSH1 0x1 PUSH1 0x1 PUSH1 0x80 SHL SUB SWAP3 SWAP1 SWAP3 AND DUP3 MSTORE PUSH1 0x1 PUSH1 0x1 PUSH1 0xA0 SHL SUB AND PUSH1 0x20 DUP3 ADD MSTORE PUSH1 0x40 ADD SWAP1 JUMP JUMPDEST PUSH1 0x1 PUSH1 0x1 PUSH1 0x80 SHL SUB DUP4 AND DUP2 MSTORE PUSH1 0x40 DUP2 ADD PUSH2 0x3B1F PUSH1 0x20 DUP4 ADD DUP5 PUSH2 0x4F8F JUMP JUMPDEST PUSH1 0x20 DUP1 DUP3 MSTORE PUSH1 0x1E SWAP1 DUP3 ADD MSTORE PUSH32 0x526174696E67206D757374206265206265747765656E203120616E6420350000 PUSH1 0x40 DUP3 ADD MSTORE PUSH1 0x60 ADD SWAP1 JUMP JUMPDEST PUSH1 0x1 PUSH1 0x1 PUSH1 0x80 SHL SUB DUP5 AND DUP2 MSTORE PUSH1 0xFF DUP4 AND PUSH1 0x20 DUP3 ADD MSTORE PUSH1 0x60 PUSH1 0x40 DUP3 ADD DUP2 SWAP1 MSTORE PUSH0 SWAP1 PUSH2 0x5BE4 SWAP1 DUP4 ADD DUP5 PUSH2 0x4CB8 JUMP JUMPDEST PUSH1 0xFF DUP4 AND DUP2 MSTORE PUSH1 0x40 PUSH1 0x20 DUP3 ADD MSTORE PUSH0 PUSH2 0x5DEF PUSH1 0x40 DUP4 ADD DUP5 PUSH2 0x4CB8 JUMP JUMPDEST SWAP5 SWAP4 POP POP POP POP JUMP JUMPDEST PUSH1 0x20 DUP1 DUP3 MSTORE PUSH1 0x14 SWAP1 DUP3 ADD MSTORE PUSH20 0x125B9D985B1A59081B595B9D481A5D195B481251 PUSH1 0x62 SHL PUSH1 0x40 DUP3 ADD MSTORE PUSH1 0x60 ADD SWAP1 JUMP JUMPDEST PUSH1 0x20 DUP1 DUP3 MSTORE PUSH1 0x18 SWAP1 DUP3 ADD MSTORE PUSH24 0x13595B9D481A5D195B48191BD95CC81B9BDD08195E1A5CDD PUSH1 0x42 SHL PUSH1 0x40 DUP3 ADD MSTORE PUSH1 0x60 ADD SWAP1 JUMP JUMPDEST PUSH1 0x1 PUSH1 0x1 PUSH1 0x80 SHL SUB SWAP3 DUP4 AND DUP2 MSTORE SWAP2 AND PUSH1 0x20 DUP3 ADD MSTORE PUSH1 0x40 ADD SWAP1 JUMP JUMPDEST PUSH0 PUSH1 0x1 PUSH1 0x1 PUSH1 0x80 SHL SUB DUP4 AND DUP1 PUSH2 0x5E95 JUMPI PUSH4 0x4E487B71 PUSH1 0xE0 SHL PUSH0 MSTORE PUSH1 0x12 PUSH1 0x4 MSTORE PUSH1 0x24 PUSH0 REVERT JUMPDEST PUSH1 0x1 PUSH1 0x1 PUSH1 0x80 SHL SUB SWAP3 SWAP1 SWAP3 AND SWAP2 SWAP1 SWAP2 DIV SWAP3 SWAP2 POP POP JUMP JUMPDEST PUSH1 0x1 PUSH1 0x1 PUSH1 0x80 SHL SUB DUP2 DUP2 AND DUP4 DUP3 AND MUL SWAP1 DUP2 AND SWAP1 DUP2 DUP2 EQ PUSH2 0x5ECD JUMPI PUSH2 0x5ECD PUSH2 0x5BED JUMP JUMPDEST POP SWAP3 SWAP2 POP POP JUMP JUMPDEST DUP2 DUP2 SUB DUP2 DUP2 GT ISZERO PUSH2 0x1009 JUMPI PUSH2 0x1009 PUSH2 0x5BED JUMP JUMPDEST PUSH1 0x1 PUSH1 0x1 PUSH1 0xA0 SHL SUB SWAP3 SWAP1 SWAP3 AND DUP3 MSTORE PUSH1 0x1 PUSH1 0x1 PUSH1 0x80 SHL SUB AND PUSH1 0x20 DUP3 ADD MSTORE PUSH1 0x40 ADD SWAP1 JUMP JUMPDEST PUSH1 0x20 DUP1 DUP3 MSTORE PUSH1 0x19 SWAP1 DUP3 ADD MSTORE PUSH25 0x24B73B30B634B21039BA30BA3AB9903A3930B739B4BA34B7B7 PUSH1 0x39 SHL PUSH1 0x40 DUP3 ADD MSTORE PUSH1 0x60 ADD SWAP1 JUMP INVALID CODECOPY DUP15 0x22 0x25 PUSH22 0x905CAECECB6CA7C365B9049ABF41CC7CC060EC170A71 SLT CALLER RETURN 0x2D ADDMOD LOG2 PUSH5 0x6970667358 0x22 SLT KECCAK256 DELEGATECALL SELFDESTRUCT MSTORE8 0xEB PUSH9 0x4887A56DB4724F55E PUSH1 0x2E LT ORIGIN CHAINID 0xC2 PUSH1 0x68 EXTCODEHASH 0xDE 0xB0 0xAD 0x26 CREATE2 0xED DELEGATECALL SWAP15 0xB1 PUSH5 0x736F6C6343 STOP ADDMOD 0x1E STOP CALLER "
		},
		"gasEstimates": {
			"creation": {
				"codeDepositCost": "4893200",
				"executionCost": "102291",
				"totalCost": "4995491"
			},
			"external": {
				"MAX_SERVICE_FEE()": "203",
				"addMenuItem(uint128,string,string,string,uint128,string,string)": "infinite",
				"assignStaff(address,uint128)": "infinite",
				"cancelOrder(uint128)": "infinite",
				"completeOrder(uint128)": "infinite",
				"customerOrders(address,uint256)": "6459",
				"employeeRatings(address,uint256)": "infinite",
				"getAllOrders(uint128,uint128)": "infinite",
				"getAverageRating(uint128,uint128)": "infinite",
				"getEmployeeRatings(address)": "infinite",
				"getMenuItems(uint128,uint128,uint128)": "infinite",
				"getMyOrders()": "infinite",
				"getOrderDetails(uint128)": "infinite",
				"getRestaurantRatings(uint128)": "infinite",
				"menuByRestaurant(uint128,uint128)": "infinite",
				"nextMenuId()": "3189",
				"nextOrderId()": "2424",
				"orderCountDetails(uint128,uint128)": "infinite",
				"orderDetails(uint128,uint256)": "infinite",
				"orders(uint128)": "12196",
				"owner()": "2743",
				"ownerRestaurants(address,uint256)": "7009",
				"pendingWithdrawals(address)": "3281",
				"placeOrder(uint128,uint128[],uint128[])": "infinite",
				"rateEmployee(address,uint128,uint8,string)": "infinite",
				"rateMenuItem(uint128,uint128,uint8)": "infinite",
				"rateRestaurant(uint128,uint8,string)": "infinite",
				"registerRestaurant()": "105656",
				"removeMenuItem(uint128,uint128)": "infinite",
				"renounceOwnership()": "infinite",
				"restaurantMenuIds(uint128,uint256)": "6547",
				"restaurantOwners(uint128)": "3063",
				"restaurantRatings(uint128,uint256)": "infinite",
				"roles(address)": "3009",
				"serviceFeePercentage()": "2549",
				"setServiceFeePercentage(uint8)": "28667",
				"staffRestaurant(address)": "3237",
				"transferOwnership(address)": "29082",
				"updateMenuItem(uint128,uint128,string,string,string,uint128,bool,string,string)": "infinite",
				"updateOrderStatus(uint128,uint8)": "infinite",
				"userPoints(address)": "3325"
			}
		},
		"methodIdentifiers": {
			"MAX_SERVICE_FEE()": "14d90e1b",
			"addMenuItem(uint128,string,string,string,uint128,string,string)": "21d1aae1",
			"assignStaff(address,uint128)": "ae9a4655",
			"cancelOrder(uint128)": "dbc91396",
			"completeOrder(uint128)": "388f20a8",
			"customerOrders(address,uint256)": "1600c6cd",
			"employeeRatings(address,uint256)": "0659ae68",
			"getAllOrders(uint128,uint128)": "26912883",
			"getAverageRating(uint128,uint128)": "7914d2fa",
			"getEmployeeRatings(address)": "90a815a9",
			"getMenuItems(uint128,uint128,uint128)": "d74b3c20",
			"getMyOrders()": "bab5933a",
			"getOrderDetails(uint128)": "6b813675",
			"getRestaurantRatings(uint128)": "6e1f4b75",
			"menuByRestaurant(uint128,uint128)": "d9a85e63",
			"nextMenuId()": "fb727088",
			"nextOrderId()": "2a58b330",
			"orderCountDetails(uint128,uint128)": "88ee189b",
			"orderDetails(uint128,uint256)": "6761dc8c",
			"orders(uint128)": "ff8ddee3",
			"owner()": "8da5cb5b",
			"ownerRestaurants(address,uint256)": "d76d571a",
			"pendingWithdrawals(address)": "f3f43703",
			"placeOrder(uint128,uint128[],uint128[])": "98d88075",
			"rateEmployee(address,uint128,uint8,string)": "49392b3d",
			"rateMenuItem(uint128,uint128,uint8)": "dac4a255",
			"rateRestaurant(uint128,uint8,string)": "515f72ce",
			"registerRestaurant()": "fa20fca7",
			"removeMenuItem(uint128,uint128)": "5b94ea5d",
			"renounceOwnership()": "715018a6",
			"restaurantMenuIds(uint128,uint256)": "2fb8229b",
			"restaurantOwners(uint128)": "abca88f0",
			"restaurantRatings(uint128,uint256)": "f4340e9c",
			"roles(address)": "99374642",
			"serviceFeePercentage()": "603ef649",
			"setServiceFeePercentage(uint8)": "f7937282",
			"staffRestaurant(address)": "e28d7a18",
			"transferOwnership(address)": "f2fde38b",
			"updateMenuItem(uint128,uint128,string,string,string,uint128,bool,string,string)": "aa620ce8",
			"updateOrderStatus(uint128,uint8)": "ddb0c22f",
			"userPoints(address)": "f50ddbc7"
		}
	},
	"abi": [
		{
			"inputs": [],
			"stateMutability": "nonpayable",
			"type": "constructor"
		},
		{
			"inputs": [],
			"name": "FailedCall",
			"type": "error"
		},
		{
			"inputs": [
				{
					"internalType": "uint256",
					"name": "balance",
					"type": "uint256"
				},
				{
					"internalType": "uint256",
					"name": "needed",
					"type": "uint256"
				}
			],
			"name": "InsufficientBalance",
			"type": "error"
		},
		{
			"inputs": [
				{
					"internalType": "address",
					"name": "owner",
					"type": "address"
				}
			],
			"name": "OwnableInvalidOwner",
			"type": "error"
		},
		{
			"inputs": [
				{
					"internalType": "address",
					"name": "account",
					"type": "address"
				}
			],
			"name": "OwnableUnauthorizedAccount",
			"type": "error"
		},
		{
			"anonymous": false,
			"inputs": [
				{
					"indexed": true,
					"internalType": "address",
					"name": "employee",
					"type": "address"
				},
				{
					"indexed": true,
					"internalType": "address",
					"name": "customer",
					"type": "address"
				},
				{
					"indexed": false,
					"internalType": "uint128",
					"name": "restaurantId",
					"type": "uint128"
				},
				{
					"indexed": false,
					"internalType": "uint8",
					"name": "rating",
					"type": "uint8"
				},
				{
					"indexed": false,
					"internalType": "string",
					"name": "comment",
					"type": "string"
				}
			],
			"name": "EmployeeRated",
			"type": "event"
		},
		{
			"anonymous": false,
			"inputs": [
				{
					"indexed": false,
					"internalType": "uint128",
					"name": "id",
					"type": "uint128"
				},
				{
					"indexed": false,
					"internalType": "uint128",
					"name": "restaurantId",
					"type": "uint128"
				},
				{
					"indexed": false,
					"internalType": "string",
					"name": "name",
					"type": "string"
				}
			],
			"name": "MenuItemAdded",
			"type": "event"
		},
		{
			"anonymous": false,
			"inputs": [
				{
					"indexed": false,
					"internalType": "uint128",
					"name": "menuId",
					"type": "uint128"
				},
				{
					"indexed": false,
					"internalType": "uint8",
					"name": "rating",
					"type": "uint8"
				}
			],
			"name": "MenuItemRated",
			"type": "event"
		},
		{
			"anonymous": false,
			"inputs": [
				{
					"indexed": false,
					"internalType": "uint128",
					"name": "id",
					"type": "uint128"
				},
				{
					"indexed": false,
					"internalType": "uint128",
					"name": "restaurantId",
					"type": "uint128"
				}
			],
			"name": "MenuItemRemoved",
			"type": "event"
		},
		{
			"anonymous": false,
			"inputs": [
				{
					"indexed": false,
					"internalType": "uint128",
					"name": "id",
					"type": "uint128"
				},
				{
					"indexed": false,
					"internalType": "uint128",
					"name": "restaurantId",
					"type": "uint128"
				}
			],
			"name": "MenuItemUpdated",
			"type": "event"
		},
		{
			"anonymous": false,
			"inputs": [
				{
					"indexed": false,
					"internalType": "uint128",
					"name": "id",
					"type": "uint128"
				},
				{
					"indexed": false,
					"internalType": "address",
					"name": "customer",
					"type": "address"
				}
			],
			"name": "OrderCancelled",
			"type": "event"
		},
		{
			"anonymous": false,
			"inputs": [
				{
					"indexed": false,
					"internalType": "uint128",
					"name": "orderId",
					"type": "uint128"
				},
				{
					"indexed": false,
					"internalType": "address",
					"name": "customer",
					"type": "address"
				}
			],
			"name": "OrderCompleted",
			"type": "event"
		},
		{
			"anonymous": false,
			"inputs": [
				{
					"indexed": false,
					"internalType": "uint128",
					"name": "id",
					"type": "uint128"
				},
				{
					"indexed": false,
					"internalType": "address",
					"name": "customer",
					"type": "address"
				},
				{
					"indexed": false,
					"internalType": "uint128",
					"name": "totalPrice",
					"type": "uint128"
				}
			],
			"name": "OrderPlaced",
			"type": "event"
		},
		{
			"anonymous": false,
			"inputs": [
				{
					"indexed": false,
					"internalType": "uint128",
					"name": "id",
					"type": "uint128"
				},
				{
					"indexed": false,
					"internalType": "enum BaseContract.OrderStatus",
					"name": "status",
					"type": "uint8"
				}
			],
			"name": "OrderStatusUpdated",
			"type": "event"
		},
		{
			"anonymous": false,
			"inputs": [
				{
					"indexed": true,
					"internalType": "address",
					"name": "previousOwner",
					"type": "address"
				},
				{
					"indexed": true,
					"internalType": "address",
					"name": "newOwner",
					"type": "address"
				}
			],
			"name": "OwnershipTransferred",
			"type": "event"
		},
		{
			"anonymous": false,
			"inputs": [
				{
					"indexed": false,
					"internalType": "address",
					"name": "recipient",
					"type": "address"
				},
				{
					"indexed": false,
					"internalType": "uint128",
					"name": "amount",
					"type": "uint128"
				}
			],
			"name": "PaymentReleased",
			"type": "event"
		},
		{
			"anonymous": false,
			"inputs": [
				{
					"indexed": false,
					"internalType": "address",
					"name": "customer",
					"type": "address"
				},
				{
					"indexed": false,
					"internalType": "uint128",
					"name": "totalPrice",
					"type": "uint128"
				}
			],
			"name": "RefundProcessed",
			"type": "event"
		},
		{
			"anonymous": false,
			"inputs": [
				{
					"indexed": true,
					"internalType": "uint128",
					"name": "restaurantId",
					"type": "uint128"
				},
				{
					"indexed": true,
					"internalType": "address",
					"name": "customer",
					"type": "address"
				},
				{
					"indexed": false,
					"internalType": "uint8",
					"name": "rating",
					"type": "uint8"
				},
				{
					"indexed": false,
					"internalType": "string",
					"name": "comment",
					"type": "string"
				}
			],
			"name": "RestaurantRated",
			"type": "event"
		},
		{
			"anonymous": false,
			"inputs": [
				{
					"indexed": false,
					"internalType": "uint128",
					"name": "restaurantId",
					"type": "uint128"
				},
				{
					"indexed": false,
					"internalType": "address",
					"name": "owner",
					"type": "address"
				}
			],
			"name": "RestaurantRegistered",
			"type": "event"
		},
		{
			"anonymous": false,
			"inputs": [
				{
					"indexed": false,
					"internalType": "address",
					"name": "user",
					"type": "address"
				},
				{
					"indexed": false,
					"internalType": "enum BaseContract.Role",
					"name": "role",
					"type": "uint8"
				}
			],
			"name": "RoleAssigned",
			"type": "event"
		},
		{
			"anonymous": false,
			"inputs": [
				{
					"indexed": false,
					"internalType": "uint8",
					"name": "newPercentage",
					"type": "uint8"
				}
			],
			"name": "ServiceFeeUpdated",
			"type": "event"
		},
		{
			"anonymous": false,
			"inputs": [
				{
					"indexed": false,
					"internalType": "address",
					"name": "staff",
					"type": "address"
				},
				{
					"indexed": false,
					"internalType": "uint128",
					"name": "restaurantId",
					"type": "uint128"
				}
			],
			"name": "StaffAssigned",
			"type": "event"
		},
		{
			"inputs": [],
			"name": "MAX_SERVICE_FEE",
			"outputs": [
				{
					"internalType": "uint8",
					"name": "",
					"type": "uint8"
				}
			],
			"stateMutability": "view",
			"type": "function"
		},
		{
			"inputs": [
				{
					"internalType": "uint128",
					"name": "restaurantId",
					"type": "uint128"
				},
				{
					"internalType": "string",
					"name": "name",
					"type": "string"
				},
				{
					"internalType": "string",
					"name": "imageUrl",
					"type": "string"
				},
				{
					"internalType": "string",
					"name": "videoUrl",
					"type": "string"
				},
				{
					"internalType": "uint128",
					"name": "price",
					"type": "uint128"
				},
				{
					"internalType": "string",
					"name": "description",
					"type": "string"
				},
				{
					"internalType": "string",
					"name": "category",
					"type": "string"
				}
			],
			"name": "addMenuItem",
			"outputs": [],
			"stateMutability": "nonpayable",
			"type": "function"
		},
		{
			"inputs": [
				{
					"internalType": "address",
					"name": "staff",
					"type": "address"
				},
				{
					"internalType": "uint128",
					"name": "restaurantId",
					"type": "uint128"
				}
			],
			"name": "assignStaff",
			"outputs": [],
			"stateMutability": "nonpayable",
			"type": "function"
		},
		{
			"inputs": [
				{
					"internalType": "uint128",
					"name": "orderId",
					"type": "uint128"
				}
			],
			"name": "cancelOrder",
			"outputs": [],
			"stateMutability": "nonpayable",
			"type": "function"
		},
		{
			"inputs": [
				{
					"internalType": "uint128",
					"name": "orderId",
					"type": "uint128"
				}
			],
			"name": "completeOrder",
			"outputs": [],
			"stateMutability": "nonpayable",
			"type": "function"
		},
		{
			"inputs": [
				{
					"internalType": "address",
					"name": "",
					"type": "address"
				},
				{
					"internalType": "uint256",
					"name": "",
					"type": "uint256"
				}
			],
			"name": "customerOrders",
			"outputs": [
				{
					"internalType": "uint128",
					"name": "",
					"type": "uint128"
				}
			],
			"stateMutability": "view",
			"type": "function"
		},
		{
			"inputs": [
				{
					"internalType": "address",
					"name": "",
					"type": "address"
				},
				{
					"internalType": "uint256",
					"name": "",
					"type": "uint256"
				}
			],
			"name": "employeeRatings",
			"outputs": [
				{
					"internalType": "address",
					"name": "customer",
					"type": "address"
				},
				{
					"internalType": "address",
					"name": "employee",
					"type": "address"
				},
				{
					"internalType": "uint128",
					"name": "restaurantId",
					"type": "uint128"
				},
				{
					"internalType": "uint8",
					"name": "rating",
					"type": "uint8"
				},
				{
					"internalType": "string",
					"name": "comment",
					"type": "string"
				},
				{
					"internalType": "uint128",
					"name": "timestamp",
					"type": "uint128"
				}
			],
			"stateMutability": "view",
			"type": "function"
		},
		{
			"inputs": [
				{
					"internalType": "uint128",
					"name": "start",
					"type": "uint128"
				},
				{
					"internalType": "uint128",
					"name": "limit",
					"type": "uint128"
				}
			],
			"name": "getAllOrders",
			"outputs": [
				{
					"components": [
						{
							"internalType": "uint128",
							"name": "id",
							"type": "uint128"
						},
						{
							"internalType": "address",
							"name": "customer",
							"type": "address"
						},
						{
							"internalType": "uint128",
							"name": "restaurantId",
							"type": "uint128"
						},
						{
							"internalType": "uint128[]",
							"name": "itemIds",
							"type": "uint128[]"
						},
						{
							"internalType": "uint128[]",
							"name": "quantities",
							"type": "uint128[]"
						},
						{
							"internalType": "uint128",
							"name": "totalPrice",
							"type": "uint128"
						},
						{
							"internalType": "enum BaseContract.OrderStatus",
							"name": "status",
							"type": "uint8"
						},
						{
							"internalType": "uint128",
							"name": "timestamp",
							"type": "uint128"
						}
					],
					"internalType": "struct BaseContract.Order[]",
					"name": "",
					"type": "tuple[]"
				}
			],
			"stateMutability": "view",
			"type": "function"
		},
		{
			"inputs": [
				{
					"internalType": "uint128",
					"name": "restaurantId",
					"type": "uint128"
				},
				{
					"internalType": "uint128",
					"name": "menuId",
					"type": "uint128"
				}
			],
			"name": "getAverageRating",
			"outputs": [
				{
					"internalType": "uint128",
					"name": "",
					"type": "uint128"
				}
			],
			"stateMutability": "view",
			"type": "function"
		},
		{
			"inputs": [
				{
					"internalType": "address",
					"name": "employee",
					"type": "address"
				}
			],
			"name": "getEmployeeRatings",
			"outputs": [
				{
					"components": [
						{
							"internalType": "address",
							"name": "customer",
							"type": "address"
						},
						{
							"internalType": "address",
							"name": "employee",
							"type": "address"
						},
						{
							"internalType": "uint128",
							"name": "restaurantId",
							"type": "uint128"
						},
						{
							"internalType": "uint8",
							"name": "rating",
							"type": "uint8"
						},
						{
							"internalType": "string",
							"name": "comment",
							"type": "string"
						},
						{
							"internalType": "uint128",
							"name": "timestamp",
							"type": "uint128"
						}
					],
					"internalType": "struct RatingManager.RatingForEmployee[]",
					"name": "",
					"type": "tuple[]"
				}
			],
			"stateMutability": "view",
			"type": "function"
		},
		{
			"inputs": [
				{
					"internalType": "uint128",
					"name": "restaurantId",
					"type": "uint128"
				},
				{
					"internalType": "uint128",
					"name": "start",
					"type": "uint128"
				},
				{
					"internalType": "uint128",
					"name": "limit",
					"type": "uint128"
				}
			],
			"name": "getMenuItems",
			"outputs": [
				{
					"components": [
						{
							"internalType": "uint128",
							"name": "id",
							"type": "uint128"
						},
						{
							"internalType": "uint128",
							"name": "restaurantId",
							"type": "uint128"
						},
						{
							"internalType": "string",
							"name": "name",
							"type": "string"
						},
						{
							"internalType": "string",
							"name": "imageUrl",
							"type": "string"
						},
						{
							"internalType": "string",
							"name": "videoUrl",
							"type": "string"
						},
						{
							"internalType": "uint128",
							"name": "price",
							"type": "uint128"
						},
						{
							"internalType": "bool",
							"name": "available",
							"type": "bool"
						},
						{
							"internalType": "string",
							"name": "description",
							"type": "string"
						},
						{
							"internalType": "string",
							"name": "category",
							"type": "string"
						},
						{
							"internalType": "uint128",
							"name": "totalRating",
							"type": "uint128"
						},
						{
							"internalType": "uint128",
							"name": "ratingCount",
							"type": "uint128"
						}
					],
					"internalType": "struct BaseContract.MenuItem[]",
					"name": "",
					"type": "tuple[]"
				}
			],
			"stateMutability": "view",
			"type": "function"
		},
		{
			"inputs": [],
			"name": "getMyOrders",
			"outputs": [
				{
					"components": [
						{
							"internalType": "uint128",
							"name": "id",
							"type": "uint128"
						},
						{
							"internalType": "address",
							"name": "customer",
							"type": "address"
						},
						{
							"internalType": "uint128",
							"name": "restaurantId",
							"type": "uint128"
						},
						{
							"internalType": "uint128[]",
							"name": "itemIds",
							"type": "uint128[]"
						},
						{
							"internalType": "uint128[]",
							"name": "quantities",
							"type": "uint128[]"
						},
						{
							"internalType": "uint128",
							"name": "totalPrice",
							"type": "uint128"
						},
						{
							"internalType": "enum BaseContract.OrderStatus",
							"name": "status",
							"type": "uint8"
						},
						{
							"internalType": "uint128",
							"name": "timestamp",
							"type": "uint128"
						}
					],
					"internalType": "struct BaseContract.Order[]",
					"name": "",
					"type": "tuple[]"
				}
			],
			"stateMutability": "view",
			"type": "function"
		},
		{
			"inputs": [
				{
					"internalType": "uint128",
					"name": "orderId",
					"type": "uint128"
				}
			],
			"name": "getOrderDetails",
			"outputs": [
				{
					"components": [
						{
							"internalType": "uint128",
							"name": "id",
							"type": "uint128"
						},
						{
							"internalType": "address",
							"name": "customer",
							"type": "address"
						},
						{
							"internalType": "uint128",
							"name": "restaurantId",
							"type": "uint128"
						},
						{
							"internalType": "uint128[]",
							"name": "itemIds",
							"type": "uint128[]"
						},
						{
							"internalType": "uint128[]",
							"name": "quantities",
							"type": "uint128[]"
						},
						{
							"internalType": "uint128",
							"name": "totalPrice",
							"type": "uint128"
						},
						{
							"internalType": "enum BaseContract.OrderStatus",
							"name": "status",
							"type": "uint8"
						},
						{
							"internalType": "uint128",
							"name": "timestamp",
							"type": "uint128"
						}
					],
					"internalType": "struct BaseContract.Order",
					"name": "order",
					"type": "tuple"
				},
				{
					"components": [
						{
							"internalType": "uint128",
							"name": "id",
							"type": "uint128"
						},
						{
							"internalType": "uint128",
							"name": "restaurantId",
							"type": "uint128"
						},
						{
							"internalType": "string",
							"name": "name",
							"type": "string"
						},
						{
							"internalType": "string",
							"name": "imageUrl",
							"type": "string"
						},
						{
							"internalType": "string",
							"name": "videoUrl",
							"type": "string"
						},
						{
							"internalType": "uint128",
							"name": "price",
							"type": "uint128"
						},
						{
							"internalType": "bool",
							"name": "available",
							"type": "bool"
						},
						{
							"internalType": "string",
							"name": "description",
							"type": "string"
						},
						{
							"internalType": "string",
							"name": "category",
							"type": "string"
						},
						{
							"internalType": "uint128",
							"name": "totalRating",
							"type": "uint128"
						},
						{
							"internalType": "uint128",
							"name": "ratingCount",
							"type": "uint128"
						}
					],
					"internalType": "struct BaseContract.MenuItem[]",
					"name": "items",
					"type": "tuple[]"
				},
				{
					"internalType": "uint128[]",
					"name": "quantities",
					"type": "uint128[]"
				}
			],
			"stateMutability": "view",
			"type": "function"
		},
		{
			"inputs": [
				{
					"internalType": "uint128",
					"name": "restaurantId",
					"type": "uint128"
				}
			],
			"name": "getRestaurantRatings",
			"outputs": [
				{
					"components": [
						{
							"internalType": "address",
							"name": "customer",
							"type": "address"
						},
						{
							"internalType": "uint128",
							"name": "restaurantId",
							"type": "uint128"
						},
						{
							"internalType": "uint8",
							"name": "rating",
							"type": "uint8"
						},
						{
							"internalType": "string",
							"name": "comment",
							"type": "string"
						},
						{
							"internalType": "uint128",
							"name": "timestamp",
							"type": "uint128"
						}
					],
					"internalType": "struct RatingManager.RatingForRestaurant[]",
					"name": "",
					"type": "tuple[]"
				}
			],
			"stateMutability": "view",
			"type": "function"
		},
		{
			"inputs": [
				{
					"internalType": "uint128",
					"name": "",
					"type": "uint128"
				},
				{
					"internalType": "uint128",
					"name": "",
					"type": "uint128"
				}
			],
			"name": "menuByRestaurant",
			"outputs": [
				{
					"internalType": "uint128",
					"name": "id",
					"type": "uint128"
				},
				{
					"internalType": "uint128",
					"name": "restaurantId",
					"type": "uint128"
				},
				{
					"internalType": "string",
					"name": "name",
					"type": "string"
				},
				{
					"internalType": "string",
					"name": "imageUrl",
					"type": "string"
				},
				{
					"internalType": "string",
					"name": "videoUrl",
					"type": "string"
				},
				{
					"internalType": "uint128",
					"name": "price",
					"type": "uint128"
				},
				{
					"internalType": "bool",
					"name": "available",
					"type": "bool"
				},
				{
					"internalType": "string",
					"name": "description",
					"type": "string"
				},
				{
					"internalType": "string",
					"name": "category",
					"type": "string"
				},
				{
					"internalType": "uint128",
					"name": "totalRating",
					"type": "uint128"
				},
				{
					"internalType": "uint128",
					"name": "ratingCount",
					"type": "uint128"
				}
			],
			"stateMutability": "view",
			"type": "function"
		},
		{
			"inputs": [],
			"name": "nextMenuId",
			"outputs": [
				{
					"internalType": "uint128",
					"name": "",
					"type": "uint128"
				}
			],
			"stateMutability": "view",
			"type": "function"
		},
		{
			"inputs": [],
			"name": "nextOrderId",
			"outputs": [
				{
					"internalType": "uint128",
					"name": "",
					"type": "uint128"
				}
			],
			"stateMutability": "view",
			"type": "function"
		},
		{
			"inputs": [
				{
					"internalType": "uint128",
					"name": "",
					"type": "uint128"
				},
				{
					"internalType": "uint128",
					"name": "",
					"type": "uint128"
				}
			],
			"name": "orderCountDetails",
			"outputs": [
				{
					"internalType": "uint128",
					"name": "",
					"type": "uint128"
				}
			],
			"stateMutability": "view",
			"type": "function"
		},
		{
			"inputs": [
				{
					"internalType": "uint128",
					"name": "",
					"type": "uint128"
				},
				{
					"internalType": "uint256",
					"name": "",
					"type": "uint256"
				}
			],
			"name": "orderDetails",
			"outputs": [
				{
					"internalType": "uint128",
					"name": "menuId",
					"type": "uint128"
				},
				{
					"internalType": "uint128",
					"name": "quantity",
					"type": "uint128"
				},
				{
					"internalType": "uint128",
					"name": "price",
					"type": "uint128"
				},
				{
					"internalType": "string",
					"name": "name",
					"type": "string"
				}
			],
			"stateMutability": "view",
			"type": "function"
		},
		{
			"inputs": [
				{
					"internalType": "uint128",
					"name": "",
					"type": "uint128"
				}
			],
			"name": "orders",
			"outputs": [
				{
					"internalType": "uint128",
					"name": "id",
					"type": "uint128"
				},
				{
					"internalType": "address",
					"name": "customer",
					"type": "address"
				},
				{
					"internalType": "uint128",
					"name": "restaurantId",
					"type": "uint128"
				},
				{
					"internalType": "uint128",
					"name": "totalPrice",
					"type": "uint128"
				},
				{
					"internalType": "enum BaseContract.OrderStatus",
					"name": "status",
					"type": "uint8"
				},
				{
					"internalType": "uint128",
					"name": "timestamp",
					"type": "uint128"
				}
			],
			"stateMutability": "view",
			"type": "function"
		},
		{
			"inputs": [],
			"name": "owner",
			"outputs": [
				{
					"internalType": "address",
					"name": "",
					"type": "address"
				}
			],
			"stateMutability": "view",
			"type": "function"
		},
		{
			"inputs": [
				{
					"internalType": "address",
					"name": "",
					"type": "address"
				},
				{
					"internalType": "uint256",
					"name": "",
					"type": "uint256"
				}
			],
			"name": "ownerRestaurants",
			"outputs": [
				{
					"internalType": "uint128",
					"name": "",
					"type": "uint128"
				}
			],
			"stateMutability": "view",
			"type": "function"
		},
		{
			"inputs": [
				{
					"internalType": "address",
					"name": "",
					"type": "address"
				}
			],
			"name": "pendingWithdrawals",
			"outputs": [
				{
					"internalType": "uint128",
					"name": "",
					"type": "uint128"
				}
			],
			"stateMutability": "view",
			"type": "function"
		},
		{
			"inputs": [
				{
					"internalType": "uint128",
					"name": "restaurantId",
					"type": "uint128"
				},
				{
					"internalType": "uint128[]",
					"name": "itemIds",
					"type": "uint128[]"
				},
				{
					"internalType": "uint128[]",
					"name": "quantities",
					"type": "uint128[]"
				}
			],
			"name": "placeOrder",
			"outputs": [],
			"stateMutability": "payable",
			"type": "function"
		},
		{
			"inputs": [
				{
					"internalType": "address",
					"name": "employee",
					"type": "address"
				},
				{
					"internalType": "uint128",
					"name": "restaurantId",
					"type": "uint128"
				},
				{
					"internalType": "uint8",
					"name": "rating",
					"type": "uint8"
				},
				{
					"internalType": "string",
					"name": "comment",
					"type": "string"
				}
			],
			"name": "rateEmployee",
			"outputs": [],
			"stateMutability": "nonpayable",
			"type": "function"
		},
		{
			"inputs": [
				{
					"internalType": "uint128",
					"name": "restaurantId",
					"type": "uint128"
				},
				{
					"internalType": "uint128",
					"name": "menuId",
					"type": "uint128"
				},
				{
					"internalType": "uint8",
					"name": "rating",
					"type": "uint8"
				}
			],
			"name": "rateMenuItem",
			"outputs": [],
			"stateMutability": "nonpayable",
			"type": "function"
		},
		{
			"inputs": [
				{
					"internalType": "uint128",
					"name": "restaurantId",
					"type": "uint128"
				},
				{
					"internalType": "uint8",
					"name": "rating",
					"type": "uint8"
				},
				{
					"internalType": "string",
					"name": "comment",
					"type": "string"
				}
			],
			"name": "rateRestaurant",
			"outputs": [],
			"stateMutability": "nonpayable",
			"type": "function"
		},
		{
			"inputs": [],
			"name": "registerRestaurant",
			"outputs": [
				{
					"internalType": "uint128",
					"name": "",
					"type": "uint128"
				}
			],
			"stateMutability": "nonpayable",
			"type": "function"
		},
		{
			"inputs": [
				{
					"internalType": "uint128",
					"name": "restaurantId",
					"type": "uint128"
				},
				{
					"internalType": "uint128",
					"name": "menuId",
					"type": "uint128"
				}
			],
			"name": "removeMenuItem",
			"outputs": [],
			"stateMutability": "nonpayable",
			"type": "function"
		},
		{
			"inputs": [],
			"name": "renounceOwnership",
			"outputs": [],
			"stateMutability": "nonpayable",
			"type": "function"
		},
		{
			"inputs": [
				{
					"internalType": "uint128",
					"name": "",
					"type": "uint128"
				},
				{
					"internalType": "uint256",
					"name": "",
					"type": "uint256"
				}
			],
			"name": "restaurantMenuIds",
			"outputs": [
				{
					"internalType": "uint128",
					"name": "",
					"type": "uint128"
				}
			],
			"stateMutability": "view",
			"type": "function"
		},
		{
			"inputs": [
				{
					"internalType": "uint128",
					"name": "",
					"type": "uint128"
				}
			],
			"name": "restaurantOwners",
			"outputs": [
				{
					"internalType": "address",
					"name": "",
					"type": "address"
				}
			],
			"stateMutability": "view",
			"type": "function"
		},
		{
			"inputs": [
				{
					"internalType": "uint128",
					"name": "",
					"type": "uint128"
				},
				{
					"internalType": "uint256",
					"name": "",
					"type": "uint256"
				}
			],
			"name": "restaurantRatings",
			"outputs": [
				{
					"internalType": "address",
					"name": "customer",
					"type": "address"
				},
				{
					"internalType": "uint128",
					"name": "restaurantId",
					"type": "uint128"
				},
				{
					"internalType": "uint8",
					"name": "rating",
					"type": "uint8"
				},
				{
					"internalType": "string",
					"name": "comment",
					"type": "string"
				},
				{
					"internalType": "uint128",
					"name": "timestamp",
					"type": "uint128"
				}
			],
			"stateMutability": "view",
			"type": "function"
		},
		{
			"inputs": [
				{
					"internalType": "address",
					"name": "",
					"type": "address"
				}
			],
			"name": "roles",
			"outputs": [
				{
					"internalType": "enum BaseContract.Role",
					"name": "",
					"type": "uint8"
				}
			],
			"stateMutability": "view",
			"type": "function"
		},
		{
			"inputs": [],
			"name": "serviceFeePercentage",
			"outputs": [
				{
					"internalType": "uint8",
					"name": "",
					"type": "uint8"
				}
			],
			"stateMutability": "view",
			"type": "function"
		},
		{
			"inputs": [
				{
					"internalType": "uint8",
					"name": "percentage",
					"type": "uint8"
				}
			],
			"name": "setServiceFeePercentage",
			"outputs": [],
			"stateMutability": "nonpayable",
			"type": "function"
		},
		{
			"inputs": [
				{
					"internalType": "address",
					"name": "",
					"type": "address"
				}
			],
			"name": "staffRestaurant",
			"outputs": [
				{
					"internalType": "uint128",
					"name": "",
					"type": "uint128"
				}
			],
			"stateMutability": "view",
			"type": "function"
		},
		{
			"inputs": [
				{
					"internalType": "address",
					"name": "newOwner",
					"type": "address"
				}
			],
			"name": "transferOwnership",
			"outputs": [],
			"stateMutability": "nonpayable",
			"type": "function"
		},
		{
			"inputs": [
				{
					"internalType": "uint128",
					"name": "restaurantId",
					"type": "uint128"
				},
				{
					"internalType": "uint128",
					"name": "menuId",
					"type": "uint128"
				},
				{
					"internalType": "string",
					"name": "name",
					"type": "string"
				},
				{
					"internalType": "string",
					"name": "imageUrl",
					"type": "string"
				},
				{
					"internalType": "string",
					"name": "videoUrl",
					"type": "string"
				},
				{
					"internalType": "uint128",
					"name": "price",
					"type": "uint128"
				},
				{
					"internalType": "bool",
					"name": "available",
					"type": "bool"
				},
				{
					"internalType": "string",
					"name": "description",
					"type": "string"
				},
				{
					"internalType": "string",
					"name": "category",
					"type": "string"
				}
			],
			"name": "updateMenuItem",
			"outputs": [],
			"stateMutability": "nonpayable",
			"type": "function"
		},
		{
			"inputs": [
				{
					"internalType": "uint128",
					"name": "orderId",
					"type": "uint128"
				},
				{
					"internalType": "enum BaseContract.OrderStatus",
					"name": "status",
					"type": "uint8"
				}
			],
			"name": "updateOrderStatus",
			"outputs": [],
			"stateMutability": "nonpayable",
			"type": "function"
		},
		{
			"inputs": [
				{
					"internalType": "address",
					"name": "",
					"type": "address"
				}
			],
			"name": "userPoints",
			"outputs": [
				{
					"internalType": "uint128",
					"name": "",
					"type": "uint128"
				}
			],
			"stateMutability": "view",
			"type": "function"
		}
	]
}