{
	"access/RoleAccess.sol": {
		"RoleAccess": {
			"abi": [
				{
					"inputs": [
						{
							"internalType": "address",
							"name": "account",
							"type": "address"
						},
						{
							"internalType": "enum Role",
							"name": "role",
							"type": "uint8"
						}
					],
					"name": "RoleAccess__AlreadyHasRole",
					"type": "error"
				},
				{
					"inputs": [],
					"name": "RoleAccess__InvalidRestaurantId",
					"type": "error"
				},
				{
					"inputs": [],
					"name": "RoleAccess__NotAdmin",
					"type": "error"
				},
				{
					"inputs": [],
					"name": "RoleAccess__NotFoodApp",
					"type": "error"
				},
				{
					"inputs": [
						{
							"internalType": "address",
							"name": "account",
							"type": "address"
						},
						{
							"internalType": "enum Role",
							"name": "requiredRole",
							"type": "uint8"
						}
					],
					"name": "RoleAccess__NotSpecificRole",
					"type": "error"
				},
				{
					"inputs": [
						{
							"internalType": "address",
							"name": "staff",
							"type": "address"
						},
						{
							"internalType": "uint128",
							"name": "restaurantId",
							"type": "uint128"
						}
					],
					"name": "RoleAccess__NotStaffOfRestaurant",
					"type": "error"
				},
				{
					"anonymous": false,
					"inputs": [
						{
							"indexed": true,
							"internalType": "address",
							"name": "account",
							"type": "address"
						},
						{
							"indexed": true,
							"internalType": "enum Role",
							"name": "role",
							"type": "uint8"
						}
					],
					"name": "RoleGranted",
					"type": "event"
				},
				{
					"anonymous": false,
					"inputs": [
						{
							"indexed": true,
							"internalType": "address",
							"name": "account",
							"type": "address"
						},
						{
							"indexed": true,
							"internalType": "enum Role",
							"name": "oldRole",
							"type": "uint8"
						}
					],
					"name": "RoleRevoked",
					"type": "event"
				},
				{
					"anonymous": false,
					"inputs": [
						{
							"indexed": true,
							"internalType": "address",
							"name": "staff",
							"type": "address"
						},
						{
							"indexed": true,
							"internalType": "uint128",
							"name": "restaurantId",
							"type": "uint128"
						}
					],
					"name": "StaffAssignedToRestaurant",
					"type": "event"
				},
				{
					"anonymous": false,
					"inputs": [
						{
							"indexed": true,
							"internalType": "address",
							"name": "staff",
							"type": "address"
						},
						{
							"indexed": true,
							"internalType": "uint128",
							"name": "restaurantId",
							"type": "uint128"
						}
					],
					"name": "StaffRemovedFromRestaurant",
					"type": "event"
				},
				{
					"inputs": [
						{
							"internalType": "address",
							"name": "staffAccount",
							"type": "address"
						},
						{
							"internalType": "uint128",
							"name": "restaurantId",
							"type": "uint128"
						},
						{
							"internalType": "enum Role",
							"name": "staffRole",
							"type": "uint8"
						}
					],
					"name": "assignStaffToRestaurant",
					"outputs": [],
					"stateMutability": "nonpayable",
					"type": "function"
				},
				{
					"inputs": [
						{
							"internalType": "address",
							"name": "staffAccount",
							"type": "address"
						},
						{
							"internalType": "uint128",
							"name": "restaurantId",
							"type": "uint128"
						}
					],
					"name": "removeStaffFromRestaurant",
					"outputs": [],
					"stateMutability": "nonpayable",
					"type": "function"
				},
				{
					"inputs": [
						{
							"internalType": "address",
							"name": "",
							"type": "address"
						}
					],
					"name": "roles",
					"outputs": [
						{
							"internalType": "enum Role",
							"name": "",
							"type": "uint8"
						}
					],
					"stateMutability": "view",
					"type": "function"
				},
				{
					"inputs": [
						{
							"internalType": "address",
							"name": "",
							"type": "address"
						},
						{
							"internalType": "uint128",
							"name": "",
							"type": "uint128"
						}
					],
					"name": "staffAssignmentDates",
					"outputs": [
						{
							"internalType": "uint128",
							"name": "",
							"type": "uint128"
						}
					],
					"stateMutability": "view",
					"type": "function"
				},
				{
					"inputs": [
						{
							"internalType": "address",
							"name": "",
							"type": "address"
						},
						{
							"internalType": "uint128",
							"name": "",
							"type": "uint128"
						}
					],
					"name": "staffAssignments",
					"outputs": [
						{
							"internalType": "bool",
							"name": "",
							"type": "bool"
						}
					],
					"stateMutability": "view",
					"type": "function"
				},
				{
					"inputs": [
						{
							"internalType": "uint128",
							"name": "",
							"type": "uint128"
						},
						{
							"internalType": "uint256",
							"name": "",
							"type": "uint256"
						}
					],
					"name": "staffListByRestaurant",
					"outputs": [
						{
							"internalType": "address",
							"name": "",
							"type": "address"
						}
					],
					"stateMutability": "view",
					"type": "function"
				}
			],
			"devdoc": {
				"kind": "dev",
				"methods": {},
				"version": 1
			},
			"evm": {
				"assembly": "    /* \"access/RoleAccess.sol\":97:5930  contract RoleAccess {... */\n  mstore(0x40, 0x80)\n  callvalue\n  dup1\n  iszero\n  tag_1\n  jumpi\n  revert(0x00, 0x00)\ntag_1:\n  pop\n  dataSize(sub_0)\n  dup1\n  dataOffset(sub_0)\n  0x00\n  codecopy\n  0x00\n  return\nstop\n\nsub_0: assembly {\n        /* \"access/RoleAccess.sol\":97:5930  contract RoleAccess {... */\n      mstore(0x40, 0x80)\n      callvalue\n      dup1\n      iszero\n      tag_1\n      jumpi\n      revert(0x00, 0x00)\n    tag_1:\n      pop\n      jumpi(tag_2, lt(calldatasize, 0x04))\n      shr(0xe0, calldataload(0x00))\n      dup1\n      0x9d2013\n      eq\n      tag_3\n      jumpi\n      dup1\n      0x0d889bfa\n      eq\n      tag_4\n      jumpi\n      dup1\n      0x2253e0f1\n      eq\n      tag_5\n      jumpi\n      dup1\n      0x99374642\n      eq\n      tag_6\n      jumpi\n      dup1\n      0xaddfa353\n      eq\n      tag_7\n      jumpi\n      dup1\n      0xce4cf9cb\n      eq\n      tag_8\n      jumpi\n    tag_2:\n      revert(0x00, 0x00)\n        /* \"access/RoleAccess.sol\":3287:4311  function removeStaffFromRestaurant(address staffAccount, uint128 restaurantId) public onlyRoleAdmin {... */\n    tag_3:\n      tag_9\n      0x04\n      dup1\n      calldatasize\n      sub\n      dup2\n      add\n      swap1\n      tag_10\n      swap2\n      swap1\n      tag_11\n      jump\t// in\n    tag_10:\n      tag_12\n      jump\t// in\n    tag_9:\n      stop\n        /* \"access/RoleAccess.sol\":673:748  mapping(address => mapping(uint128 => uint128)) public staffAssignmentDates */\n    tag_4:\n      tag_13\n      0x04\n      dup1\n      calldatasize\n      sub\n      dup2\n      add\n      swap1\n      tag_14\n      swap2\n      swap1\n      tag_11\n      jump\t// in\n    tag_14:\n      tag_15\n      jump\t// in\n    tag_13:\n      mload(0x40)\n      tag_16\n      swap2\n      swap1\n      tag_17\n      jump\t// in\n    tag_16:\n      mload(0x40)\n      dup1\n      swap2\n      sub\n      swap1\n      return\n        /* \"access/RoleAccess.sol\":755:813  mapping(uint128 => address[]) public staffListByRestaurant */\n    tag_5:\n      tag_18\n      0x04\n      dup1\n      calldatasize\n      sub\n      dup2\n      add\n      swap1\n      tag_19\n      swap2\n      swap1\n      tag_20\n      jump\t// in\n    tag_19:\n      tag_21\n      jump\t// in\n    tag_18:\n      mload(0x40)\n      tag_22\n      swap2\n      swap1\n      tag_23\n      jump\t// in\n    tag_22:\n      mload(0x40)\n      dup1\n      swap2\n      sub\n      swap1\n      return\n        /* \"access/RoleAccess.sol\":554:591  mapping(address => Role) public roles */\n    tag_6:\n      tag_24\n      0x04\n      dup1\n      calldatasize\n      sub\n      dup2\n      add\n      swap1\n      tag_25\n      swap2\n      swap1\n      tag_26\n      jump\t// in\n    tag_25:\n      tag_27\n      jump\t// in\n    tag_24:\n      mload(0x40)\n      tag_28\n      swap2\n      swap1\n      tag_29\n      jump\t// in\n    tag_28:\n      mload(0x40)\n      dup1\n      swap2\n      sub\n      swap1\n      return\n        /* \"access/RoleAccess.sol\":2041:3279  function assignStaffToRestaurant(address staffAccount, uint128 restaurantId, Role staffRole) public onlyRoleAdmin {... */\n    tag_7:\n      tag_30\n      0x04\n      dup1\n      calldatasize\n      sub\n      dup2\n      add\n      swap1\n      tag_31\n      swap2\n      swap1\n      tag_32\n      jump\t// in\n    tag_31:\n      tag_33\n      jump\t// in\n    tag_30:\n      stop\n        /* \"access/RoleAccess.sol\":598:666  mapping(address => mapping(uint128 => bool)) public staffAssignments */\n    tag_8:\n      tag_34\n      0x04\n      dup1\n      calldatasize\n      sub\n      dup2\n      add\n      swap1\n      tag_35\n      swap2\n      swap1\n      tag_11\n      jump\t// in\n    tag_35:\n      tag_36\n      jump\t// in\n    tag_34:\n      mload(0x40)\n      tag_37\n      swap2\n      swap1\n      tag_38\n      jump\t// in\n    tag_37:\n      mload(0x40)\n      dup1\n      swap2\n      sub\n      swap1\n      return\n        /* \"access/RoleAccess.sol\":3287:4311  function removeStaffFromRestaurant(address staffAccount, uint128 restaurantId) public onlyRoleAdmin {... */\n    tag_12:\n        /* \"access/RoleAccess.sol\":1356:1366  _roleAdmin */\n      0x05\n      0x00\n      swap1\n      sload\n      swap1\n      0x0100\n      exp\n      swap1\n      div\n      0xffffffffffffffffffffffffffffffffffffffff\n      and\n        /* \"access/RoleAccess.sol\":1342:1366  msg.sender != _roleAdmin */\n      0xffffffffffffffffffffffffffffffffffffffff\n      and\n        /* \"access/RoleAccess.sol\":1342:1352  msg.sender */\n      caller\n        /* \"access/RoleAccess.sol\":1342:1366  msg.sender != _roleAdmin */\n      0xffffffffffffffffffffffffffffffffffffffff\n      and\n      eq\n        /* \"access/RoleAccess.sol\":1338:1397  if (msg.sender != _roleAdmin) revert RoleAccess__NotAdmin() */\n      tag_40\n      jumpi\n        /* \"access/RoleAccess.sol\":1375:1397  RoleAccess__NotAdmin() */\n      mload(0x40)\n      0x34620a8200000000000000000000000000000000000000000000000000000000\n      dup2\n      mstore\n      0x04\n      add\n      mload(0x40)\n      dup1\n      swap2\n      sub\n      swap1\n      revert\n        /* \"access/RoleAccess.sol\":1338:1397  if (msg.sender != _roleAdmin) revert RoleAccess__NotAdmin() */\n    tag_40:\n        /* \"access/RoleAccess.sol\":3403:3419  staffAssignments */\n      0x01\n        /* \"access/RoleAccess.sol\":3403:3433  staffAssignments[staffAccount] */\n      0x00\n        /* \"access/RoleAccess.sol\":3420:3432  staffAccount */\n      dup4\n        /* \"access/RoleAccess.sol\":3403:3433  staffAssignments[staffAccount] */\n      0xffffffffffffffffffffffffffffffffffffffff\n      and\n      0xffffffffffffffffffffffffffffffffffffffff\n      and\n      dup2\n      mstore\n      0x20\n      add\n      swap1\n      dup2\n      mstore\n      0x20\n      add\n      0x00\n      keccak256\n        /* \"access/RoleAccess.sol\":3403:3447  staffAssignments[staffAccount][restaurantId] */\n      0x00\n        /* \"access/RoleAccess.sol\":3434:3446  restaurantId */\n      dup3\n        /* \"access/RoleAccess.sol\":3403:3447  staffAssignments[staffAccount][restaurantId] */\n      0xffffffffffffffffffffffffffffffff\n      and\n      0xffffffffffffffffffffffffffffffff\n      and\n      dup2\n      mstore\n      0x20\n      add\n      swap1\n      dup2\n      mstore\n      0x20\n      add\n      0x00\n      keccak256\n      0x00\n      swap1\n      sload\n      swap1\n      0x0100\n      exp\n      swap1\n      div\n      0xff\n      and\n        /* \"access/RoleAccess.sol\":3398:3544  if (!staffAssignments[staffAccount][restaurantId]) {... */\n      tag_42\n      jumpi\n        /* \"access/RoleAccess.sol\":3505:3517  staffAccount */\n      dup2\n        /* \"access/RoleAccess.sol\":3519:3531  restaurantId */\n      dup2\n        /* \"access/RoleAccess.sol\":3472:3532  RoleAccess__NotStaffOfRestaurant(staffAccount, restaurantId) */\n      mload(0x40)\n      0x58cce33700000000000000000000000000000000000000000000000000000000\n      dup2\n      mstore\n      0x04\n      add\n      tag_43\n      swap3\n      swap2\n      swap1\n      tag_44\n      jump\t// in\n    tag_43:\n      mload(0x40)\n      dup1\n      swap2\n      sub\n      swap1\n      revert\n        /* \"access/RoleAccess.sol\":3398:3544  if (!staffAssignments[staffAccount][restaurantId]) {... */\n    tag_42:\n        /* \"access/RoleAccess.sol\":3554:3571  uint indexPlusOne */\n      0x00\n        /* \"access/RoleAccess.sol\":3574:3600  staffIndexInRestaurantList */\n      0x04\n        /* \"access/RoleAccess.sol\":3574:3614  staffIndexInRestaurantList[restaurantId] */\n      0x00\n        /* \"access/RoleAccess.sol\":3601:3613  restaurantId */\n      dup4\n        /* \"access/RoleAccess.sol\":3574:3614  staffIndexInRestaurantList[restaurantId] */\n      0xffffffffffffffffffffffffffffffff\n      and\n      0xffffffffffffffffffffffffffffffff\n      and\n      dup2\n      mstore\n      0x20\n      add\n      swap1\n      dup2\n      mstore\n      0x20\n      add\n      0x00\n      keccak256\n        /* \"access/RoleAccess.sol\":3574:3628  staffIndexInRestaurantList[restaurantId][staffAccount] */\n      0x00\n        /* \"access/RoleAccess.sol\":3615:3627  staffAccount */\n      dup5\n        /* \"access/RoleAccess.sol\":3574:3628  staffIndexInRestaurantList[restaurantId][staffAccount] */\n      0xffffffffffffffffffffffffffffffffffffffff\n      and\n      0xffffffffffffffffffffffffffffffffffffffff\n      and\n      dup2\n      mstore\n      0x20\n      add\n      swap1\n      dup2\n      mstore\n      0x20\n      add\n      0x00\n      keccak256\n      sload\n        /* \"access/RoleAccess.sol\":3554:3628  uint indexPlusOne = staffIndexInRestaurantList[restaurantId][staffAccount] */\n      swap1\n      pop\n        /* \"access/RoleAccess.sol\":3654:3655  0 */\n      0x00\n        /* \"access/RoleAccess.sol\":3639:3651  indexPlusOne */\n      dup2\n        /* \"access/RoleAccess.sol\":3639:3655  indexPlusOne > 0 */\n      gt\n        /* \"access/RoleAccess.sol\":3635:4106  if (indexPlusOne > 0) { ... */\n      iszero\n      tag_45\n      jumpi\n        /* \"access/RoleAccess.sol\":3669:3687  uint indexToRemove */\n      0x00\n        /* \"access/RoleAccess.sol\":3705:3706  1 */\n      0x01\n        /* \"access/RoleAccess.sol\":3690:3702  indexPlusOne */\n      dup3\n        /* \"access/RoleAccess.sol\":3690:3706  indexPlusOne - 1 */\n      tag_46\n      swap2\n      swap1\n      tag_47\n      jump\t// in\n    tag_46:\n        /* \"access/RoleAccess.sol\":3669:3706  uint indexToRemove = indexPlusOne - 1 */\n      swap1\n      pop\n        /* \"access/RoleAccess.sol\":3717:3734  address lastStaff */\n      0x00\n        /* \"access/RoleAccess.sol\":3737:3758  staffListByRestaurant */\n      0x03\n        /* \"access/RoleAccess.sol\":3737:3772  staffListByRestaurant[restaurantId] */\n      0x00\n        /* \"access/RoleAccess.sol\":3759:3771  restaurantId */\n      dup6\n        /* \"access/RoleAccess.sol\":3737:3772  staffListByRestaurant[restaurantId] */\n      0xffffffffffffffffffffffffffffffff\n      and\n      0xffffffffffffffffffffffffffffffff\n      and\n      dup2\n      mstore\n      0x20\n      add\n      swap1\n      dup2\n      mstore\n      0x20\n      add\n      0x00\n      keccak256\n        /* \"access/RoleAccess.sol\":3818:3819  1 */\n      0x01\n        /* \"access/RoleAccess.sol\":3773:3794  staffListByRestaurant */\n      0x03\n        /* \"access/RoleAccess.sol\":3773:3808  staffListByRestaurant[restaurantId] */\n      0x00\n        /* \"access/RoleAccess.sol\":3795:3807  restaurantId */\n      dup8\n        /* \"access/RoleAccess.sol\":3773:3808  staffListByRestaurant[restaurantId] */\n      0xffffffffffffffffffffffffffffffff\n      and\n      0xffffffffffffffffffffffffffffffff\n      and\n      dup2\n      mstore\n      0x20\n      add\n      swap1\n      dup2\n      mstore\n      0x20\n      add\n      0x00\n      keccak256\n        /* \"access/RoleAccess.sol\":3773:3815  staffListByRestaurant[restaurantId].length */\n      dup1\n      sload\n      swap1\n      pop\n        /* \"access/RoleAccess.sol\":3773:3819  staffListByRestaurant[restaurantId].length - 1 */\n      tag_48\n      swap2\n      swap1\n      tag_47\n      jump\t// in\n    tag_48:\n        /* \"access/RoleAccess.sol\":3737:3820  staffListByRestaurant[restaurantId][staffListByRestaurant[restaurantId].length - 1] */\n      dup2\n      sload\n      dup2\n      lt\n      tag_49\n      jumpi\n      tag_50\n      tag_51\n      jump\t// in\n    tag_50:\n    tag_49:\n      swap1\n      0x00\n      mstore\n      keccak256(0x00, 0x20)\n      add\n      0x00\n      swap1\n      sload\n      swap1\n      0x0100\n      exp\n      swap1\n      div\n      0xffffffffffffffffffffffffffffffffffffffff\n      and\n        /* \"access/RoleAccess.sol\":3717:3820  address lastStaff = staffListByRestaurant[restaurantId][staffListByRestaurant[restaurantId].length - 1] */\n      swap1\n      pop\n        /* \"access/RoleAccess.sol\":3886:3895  lastStaff */\n      dup1\n        /* \"access/RoleAccess.sol\":3833:3854  staffListByRestaurant */\n      0x03\n        /* \"access/RoleAccess.sol\":3833:3868  staffListByRestaurant[restaurantId] */\n      0x00\n        /* \"access/RoleAccess.sol\":3855:3867  restaurantId */\n      dup7\n        /* \"access/RoleAccess.sol\":3833:3868  staffListByRestaurant[restaurantId] */\n      0xffffffffffffffffffffffffffffffff\n      and\n      0xffffffffffffffffffffffffffffffff\n      and\n      dup2\n      mstore\n      0x20\n      add\n      swap1\n      dup2\n      mstore\n      0x20\n      add\n      0x00\n      keccak256\n        /* \"access/RoleAccess.sol\":3869:3882  indexToRemove */\n      dup4\n        /* \"access/RoleAccess.sol\":3833:3883  staffListByRestaurant[restaurantId][indexToRemove] */\n      dup2\n      sload\n      dup2\n      lt\n      tag_53\n      jumpi\n      tag_54\n      tag_51\n      jump\t// in\n    tag_54:\n    tag_53:\n      swap1\n      0x00\n      mstore\n      keccak256(0x00, 0x20)\n      add\n      0x00\n        /* \"access/RoleAccess.sol\":3833:3895  staffListByRestaurant[restaurantId][indexToRemove] = lastStaff */\n      0x0100\n      exp\n      dup2\n      sload\n      dup2\n      0xffffffffffffffffffffffffffffffffffffffff\n      mul\n      not\n      and\n      swap1\n      dup4\n      0xffffffffffffffffffffffffffffffffffffffff\n      and\n      mul\n      or\n      swap1\n      sstore\n      pop\n        /* \"access/RoleAccess.sol\":3976:3977  1 */\n      0x01\n        /* \"access/RoleAccess.sol\":3960:3973  indexToRemove */\n      dup3\n        /* \"access/RoleAccess.sol\":3960:3977  indexToRemove + 1 */\n      tag_56\n      swap2\n      swap1\n      tag_57\n      jump\t// in\n    tag_56:\n        /* \"access/RoleAccess.sol\":3906:3932  staffIndexInRestaurantList */\n      0x04\n        /* \"access/RoleAccess.sol\":3906:3946  staffIndexInRestaurantList[restaurantId] */\n      0x00\n        /* \"access/RoleAccess.sol\":3933:3945  restaurantId */\n      dup7\n        /* \"access/RoleAccess.sol\":3906:3946  staffIndexInRestaurantList[restaurantId] */\n      0xffffffffffffffffffffffffffffffff\n      and\n      0xffffffffffffffffffffffffffffffff\n      and\n      dup2\n      mstore\n      0x20\n      add\n      swap1\n      dup2\n      mstore\n      0x20\n      add\n      0x00\n      keccak256\n        /* \"access/RoleAccess.sol\":3906:3957  staffIndexInRestaurantList[restaurantId][lastStaff] */\n      0x00\n        /* \"access/RoleAccess.sol\":3947:3956  lastStaff */\n      dup4\n        /* \"access/RoleAccess.sol\":3906:3957  staffIndexInRestaurantList[restaurantId][lastStaff] */\n      0xffffffffffffffffffffffffffffffffffffffff\n      and\n      0xffffffffffffffffffffffffffffffffffffffff\n      and\n      dup2\n      mstore\n      0x20\n      add\n      swap1\n      dup2\n      mstore\n      0x20\n      add\n      0x00\n      keccak256\n        /* \"access/RoleAccess.sol\":3906:3977  staffIndexInRestaurantList[restaurantId][lastStaff] = indexToRemove + 1 */\n      dup2\n      swap1\n      sstore\n      pop\n        /* \"access/RoleAccess.sol\":3988:4009  staffListByRestaurant */\n      0x03\n        /* \"access/RoleAccess.sol\":3988:4023  staffListByRestaurant[restaurantId] */\n      0x00\n        /* \"access/RoleAccess.sol\":4010:4022  restaurantId */\n      dup6\n        /* \"access/RoleAccess.sol\":3988:4023  staffListByRestaurant[restaurantId] */\n      0xffffffffffffffffffffffffffffffff\n      and\n      0xffffffffffffffffffffffffffffffff\n      and\n      dup2\n      mstore\n      0x20\n      add\n      swap1\n      dup2\n      mstore\n      0x20\n      add\n      0x00\n      keccak256\n        /* \"access/RoleAccess.sol\":3988:4029  staffListByRestaurant[restaurantId].pop() */\n      dup1\n      sload\n      dup1\n      tag_58\n      jumpi\n      tag_59\n      tag_60\n      jump\t// in\n    tag_59:\n    tag_58:\n      0x01\n      swap1\n      sub\n      dup2\n      dup2\n      swap1\n      0x00\n      mstore\n      keccak256(0x00, 0x20)\n      add\n      exp(0x0100, 0x00)\n      dup2\n      sload\n      swap1\n      0xffffffffffffffffffffffffffffffffffffffff\n      mul\n      not\n      and\n      swap1\n      sstore\n      swap1\n      sstore\n        /* \"access/RoleAccess.sol\":4097:4098  0 */\n      0x00\n        /* \"access/RoleAccess.sol\":4040:4066  staffIndexInRestaurantList */\n      0x04\n        /* \"access/RoleAccess.sol\":4040:4080  staffIndexInRestaurantList[restaurantId] */\n      0x00\n        /* \"access/RoleAccess.sol\":4067:4079  restaurantId */\n      dup7\n        /* \"access/RoleAccess.sol\":4040:4080  staffIndexInRestaurantList[restaurantId] */\n      0xffffffffffffffffffffffffffffffff\n      and\n      0xffffffffffffffffffffffffffffffff\n      and\n      dup2\n      mstore\n      0x20\n      add\n      swap1\n      dup2\n      mstore\n      0x20\n      add\n      0x00\n      keccak256\n        /* \"access/RoleAccess.sol\":4040:4094  staffIndexInRestaurantList[restaurantId][staffAccount] */\n      0x00\n        /* \"access/RoleAccess.sol\":4081:4093  staffAccount */\n      dup8\n        /* \"access/RoleAccess.sol\":4040:4094  staffIndexInRestaurantList[restaurantId][staffAccount] */\n      0xffffffffffffffffffffffffffffffffffffffff\n      and\n      0xffffffffffffffffffffffffffffffffffffffff\n      and\n      dup2\n      mstore\n      0x20\n      add\n      swap1\n      dup2\n      mstore\n      0x20\n      add\n      0x00\n      keccak256\n        /* \"access/RoleAccess.sol\":4040:4098  staffIndexInRestaurantList[restaurantId][staffAccount] = 0 */\n      dup2\n      swap1\n      sstore\n      pop\n        /* \"access/RoleAccess.sol\":3657:4106  { ... */\n      pop\n      pop\n        /* \"access/RoleAccess.sol\":3635:4106  if (indexPlusOne > 0) { ... */\n    tag_45:\n        /* \"access/RoleAccess.sol\":4123:4139  staffAssignments */\n      0x01\n        /* \"access/RoleAccess.sol\":4123:4153  staffAssignments[staffAccount] */\n      0x00\n        /* \"access/RoleAccess.sol\":4140:4152  staffAccount */\n      dup5\n        /* \"access/RoleAccess.sol\":4123:4153  staffAssignments[staffAccount] */\n      0xffffffffffffffffffffffffffffffffffffffff\n      and\n      0xffffffffffffffffffffffffffffffffffffffff\n      and\n      dup2\n      mstore\n      0x20\n      add\n      swap1\n      dup2\n      mstore\n      0x20\n      add\n      0x00\n      keccak256\n        /* \"access/RoleAccess.sol\":4123:4167  staffAssignments[staffAccount][restaurantId] */\n      0x00\n        /* \"access/RoleAccess.sol\":4154:4166  restaurantId */\n      dup4\n        /* \"access/RoleAccess.sol\":4123:4167  staffAssignments[staffAccount][restaurantId] */\n      0xffffffffffffffffffffffffffffffff\n      and\n      0xffffffffffffffffffffffffffffffff\n      and\n      dup2\n      mstore\n      0x20\n      add\n      swap1\n      dup2\n      mstore\n      0x20\n      add\n      0x00\n      keccak256\n      0x00\n        /* \"access/RoleAccess.sol\":4116:4167  delete staffAssignments[staffAccount][restaurantId] */\n      0x0100\n      exp\n      dup2\n      sload\n      swap1\n      0xff\n      mul\n      not\n      and\n      swap1\n      sstore\n        /* \"access/RoleAccess.sol\":4185:4205  staffAssignmentDates */\n      0x02\n        /* \"access/RoleAccess.sol\":4185:4219  staffAssignmentDates[staffAccount] */\n      0x00\n        /* \"access/RoleAccess.sol\":4206:4218  staffAccount */\n      dup5\n        /* \"access/RoleAccess.sol\":4185:4219  staffAssignmentDates[staffAccount] */\n      0xffffffffffffffffffffffffffffffffffffffff\n      and\n      0xffffffffffffffffffffffffffffffffffffffff\n      and\n      dup2\n      mstore\n      0x20\n      add\n      swap1\n      dup2\n      mstore\n      0x20\n      add\n      0x00\n      keccak256\n        /* \"access/RoleAccess.sol\":4185:4233  staffAssignmentDates[staffAccount][restaurantId] */\n      0x00\n        /* \"access/RoleAccess.sol\":4220:4232  restaurantId */\n      dup4\n        /* \"access/RoleAccess.sol\":4185:4233  staffAssignmentDates[staffAccount][restaurantId] */\n      0xffffffffffffffffffffffffffffffff\n      and\n      0xffffffffffffffffffffffffffffffff\n      and\n      dup2\n      mstore\n      0x20\n      add\n      swap1\n      dup2\n      mstore\n      0x20\n      add\n      0x00\n      keccak256\n      0x00\n        /* \"access/RoleAccess.sol\":4178:4233  delete staffAssignmentDates[staffAccount][restaurantId] */\n      0x0100\n      exp\n      dup2\n      sload\n      swap1\n      0xffffffffffffffffffffffffffffffff\n      mul\n      not\n      and\n      swap1\n      sstore\n        /* \"access/RoleAccess.sol\":4290:4302  restaurantId */\n      dup2\n        /* \"access/RoleAccess.sol\":4249:4303  StaffRemovedFromRestaurant(staffAccount, restaurantId) */\n      0xffffffffffffffffffffffffffffffff\n      and\n        /* \"access/RoleAccess.sol\":4276:4288  staffAccount */\n      dup4\n        /* \"access/RoleAccess.sol\":4249:4303  StaffRemovedFromRestaurant(staffAccount, restaurantId) */\n      0xffffffffffffffffffffffffffffffffffffffff\n      and\n      0x2091a7a9f4bd1d3537c45c3143a470b7c349709a4b0b9e9b2a8f3e37c9de0e25\n      mload(0x40)\n      mload(0x40)\n      dup1\n      swap2\n      sub\n      swap1\n      log3\n        /* \"access/RoleAccess.sol\":3387:4311  {... */\n      pop\n        /* \"access/RoleAccess.sol\":3287:4311  function removeStaffFromRestaurant(address staffAccount, uint128 restaurantId) public onlyRoleAdmin {... */\n      pop\n      pop\n      jump\t// out\n        /* \"access/RoleAccess.sol\":673:748  mapping(address => mapping(uint128 => uint128)) public staffAssignmentDates */\n    tag_15:\n      mstore(0x20, 0x02)\n      dup2\n      0x00\n      mstore\n      mstore(0x20, keccak256(0x00, 0x40))\n      dup1\n      0x00\n      mstore\n      keccak256(0x00, 0x40)\n      0x00\n      swap2\n      pop\n      swap2\n      pop\n      swap1\n      sload\n      swap1\n      0x0100\n      exp\n      swap1\n      div\n      0xffffffffffffffffffffffffffffffff\n      and\n      dup2\n      jump\t// out\n        /* \"access/RoleAccess.sol\":755:813  mapping(uint128 => address[]) public staffListByRestaurant */\n    tag_21:\n      mstore(0x20, 0x03)\n      dup2\n      0x00\n      mstore\n      keccak256(0x00, 0x40)\n      dup2\n      dup2\n      sload\n      dup2\n      lt\n      tag_62\n      jumpi\n      0x00\n      dup1\n      revert\n    tag_62:\n      swap1\n      0x00\n      mstore\n      keccak256(0x00, 0x20)\n      add\n      0x00\n      swap2\n      pop\n      swap2\n      pop\n      swap1\n      sload\n      swap1\n      0x0100\n      exp\n      swap1\n      div\n      0xffffffffffffffffffffffffffffffffffffffff\n      and\n      dup2\n      jump\t// out\n        /* \"access/RoleAccess.sol\":554:591  mapping(address => Role) public roles */\n    tag_27:\n      mstore(0x20, 0x00)\n      dup1\n      0x00\n      mstore\n      keccak256(0x00, 0x40)\n      0x00\n      swap2\n      pop\n      sload\n      swap1\n      0x0100\n      exp\n      swap1\n      div\n      0xff\n      and\n      dup2\n      jump\t// out\n        /* \"access/RoleAccess.sol\":2041:3279  function assignStaffToRestaurant(address staffAccount, uint128 restaurantId, Role staffRole) public onlyRoleAdmin {... */\n    tag_33:\n        /* \"access/RoleAccess.sol\":1356:1366  _roleAdmin */\n      0x05\n      0x00\n      swap1\n      sload\n      swap1\n      0x0100\n      exp\n      swap1\n      div\n      0xffffffffffffffffffffffffffffffffffffffff\n      and\n        /* \"access/RoleAccess.sol\":1342:1366  msg.sender != _roleAdmin */\n      0xffffffffffffffffffffffffffffffffffffffff\n      and\n        /* \"access/RoleAccess.sol\":1342:1352  msg.sender */\n      caller\n        /* \"access/RoleAccess.sol\":1342:1366  msg.sender != _roleAdmin */\n      0xffffffffffffffffffffffffffffffffffffffff\n      and\n      eq\n        /* \"access/RoleAccess.sol\":1338:1397  if (msg.sender != _roleAdmin) revert RoleAccess__NotAdmin() */\n      tag_65\n      jumpi\n        /* \"access/RoleAccess.sol\":1375:1397  RoleAccess__NotAdmin() */\n      mload(0x40)\n      0x34620a8200000000000000000000000000000000000000000000000000000000\n      dup2\n      mstore\n      0x04\n      add\n      mload(0x40)\n      dup1\n      swap2\n      sub\n      swap1\n      revert\n        /* \"access/RoleAccess.sol\":1338:1397  if (msg.sender != _roleAdmin) revert RoleAccess__NotAdmin() */\n    tag_65:\n        /* \"access/RoleAccess.sol\":2183:2191  Role.FOH */\n      0x03\n        /* \"access/RoleAccess.sol\":2170:2191  staffRole != Role.FOH */\n      0x04\n      dup2\n      gt\n      iszero\n      tag_67\n      jumpi\n      tag_68\n      tag_69\n      jump\t// in\n    tag_68:\n    tag_67:\n        /* \"access/RoleAccess.sol\":2170:2179  staffRole */\n      dup2\n        /* \"access/RoleAccess.sol\":2170:2191  staffRole != Role.FOH */\n      0x04\n      dup2\n      gt\n      iszero\n      tag_70\n      jumpi\n      tag_71\n      tag_69\n      jump\t// in\n    tag_71:\n    tag_70:\n      eq\n      iszero\n        /* \"access/RoleAccess.sol\":2170:2216  staffRole != Role.FOH && staffRole != Role.BOH */\n      dup1\n      iszero\n      tag_72\n      jumpi\n      pop\n        /* \"access/RoleAccess.sol\":2208:2216  Role.BOH */\n      0x04\n        /* \"access/RoleAccess.sol\":2195:2216  staffRole != Role.BOH */\n      dup1\n      dup2\n      gt\n      iszero\n      tag_73\n      jumpi\n      tag_74\n      tag_69\n      jump\t// in\n    tag_74:\n    tag_73:\n        /* \"access/RoleAccess.sol\":2195:2204  staffRole */\n      dup2\n        /* \"access/RoleAccess.sol\":2195:2216  staffRole != Role.BOH */\n      0x04\n      dup2\n      gt\n      iszero\n      tag_75\n      jumpi\n      tag_76\n      tag_69\n      jump\t// in\n    tag_76:\n    tag_75:\n      eq\n      iszero\n        /* \"access/RoleAccess.sol\":2170:2216  staffRole != Role.FOH && staffRole != Role.BOH */\n    tag_72:\n        /* \"access/RoleAccess.sol\":2166:2305  if (staffRole != Role.FOH && staffRole != Role.BOH) {... */\n      iszero\n      tag_77\n      jumpi\n        /* \"access/RoleAccess.sol\":2268:2280  staffAccount */\n      dup3\n        /* \"access/RoleAccess.sol\":2282:2291  staffRole */\n      dup2\n        /* \"access/RoleAccess.sol\":2240:2292  RoleAccess__NotSpecificRole(staffAccount, staffRole) */\n      mload(0x40)\n      0x8b83329200000000000000000000000000000000000000000000000000000000\n      dup2\n      mstore\n      0x04\n      add\n      tag_78\n      swap3\n      swap2\n      swap1\n      tag_79\n      jump\t// in\n    tag_78:\n      mload(0x40)\n      dup1\n      swap2\n      sub\n      swap1\n      revert\n        /* \"access/RoleAccess.sol\":2166:2305  if (staffRole != Role.FOH && staffRole != Role.BOH) {... */\n    tag_77:\n        /* \"access/RoleAccess.sol\":2335:2336  0 */\n      0x00\n        /* \"access/RoleAccess.sol\":2319:2331  restaurantId */\n      dup3\n        /* \"access/RoleAccess.sol\":2319:2336  restaurantId == 0 */\n      0xffffffffffffffffffffffffffffffff\n      and\n      sub\n        /* \"access/RoleAccess.sol\":2315:2378  if (restaurantId == 0) revert RoleAccess__InvalidRestaurantId() */\n      tag_80\n      jumpi\n        /* \"access/RoleAccess.sol\":2345:2378  RoleAccess__InvalidRestaurantId() */\n      mload(0x40)\n      0xd2aff19c00000000000000000000000000000000000000000000000000000000\n      dup2\n      mstore\n      0x04\n      add\n      mload(0x40)\n      dup1\n      swap2\n      sub\n      swap1\n      revert\n        /* \"access/RoleAccess.sol\":2315:2378  if (restaurantId == 0) revert RoleAccess__InvalidRestaurantId() */\n    tag_80:\n        /* \"access/RoleAccess.sol\":2419:2428  Role.None */\n      0x00\n        /* \"access/RoleAccess.sol\":2396:2428  roles[staffAccount] == Role.None */\n      0x04\n      dup2\n      gt\n      iszero\n      tag_81\n      jumpi\n      tag_82\n      tag_69\n      jump\t// in\n    tag_82:\n    tag_81:\n        /* \"access/RoleAccess.sol\":2396:2401  roles */\n      0x00\n        /* \"access/RoleAccess.sol\":2396:2415  roles[staffAccount] */\n      0x00\n        /* \"access/RoleAccess.sol\":2402:2414  staffAccount */\n      dup6\n        /* \"access/RoleAccess.sol\":2396:2415  roles[staffAccount] */\n      0xffffffffffffffffffffffffffffffffffffffff\n      and\n      0xffffffffffffffffffffffffffffffffffffffff\n      and\n      dup2\n      mstore\n      0x20\n      add\n      swap1\n      dup2\n      mstore\n      0x20\n      add\n      0x00\n      keccak256\n      0x00\n      swap1\n      sload\n      swap1\n      0x0100\n      exp\n      swap1\n      div\n      0xff\n      and\n        /* \"access/RoleAccess.sol\":2396:2428  roles[staffAccount] == Role.None */\n      0x04\n      dup2\n      gt\n      iszero\n      tag_83\n      jumpi\n      tag_84\n      tag_69\n      jump\t// in\n    tag_84:\n    tag_83:\n      eq\n        /* \"access/RoleAccess.sol\":2396:2500  roles[staffAccount] == Role.None || (roles[staffAccount] != Role.FOH && roles[staffAccount] != Role.BOH) */\n      dup1\n      tag_85\n      jumpi\n      pop\n        /* \"access/RoleAccess.sol\":2456:2464  Role.FOH */\n      0x03\n        /* \"access/RoleAccess.sol\":2433:2464  roles[staffAccount] != Role.FOH */\n      0x04\n      dup2\n      gt\n      iszero\n      tag_86\n      jumpi\n      tag_87\n      tag_69\n      jump\t// in\n    tag_87:\n    tag_86:\n        /* \"access/RoleAccess.sol\":2433:2438  roles */\n      0x00\n        /* \"access/RoleAccess.sol\":2433:2452  roles[staffAccount] */\n      0x00\n        /* \"access/RoleAccess.sol\":2439:2451  staffAccount */\n      dup6\n        /* \"access/RoleAccess.sol\":2433:2452  roles[staffAccount] */\n      0xffffffffffffffffffffffffffffffffffffffff\n      and\n      0xffffffffffffffffffffffffffffffffffffffff\n      and\n      dup2\n      mstore\n      0x20\n      add\n      swap1\n      dup2\n      mstore\n      0x20\n      add\n      0x00\n      keccak256\n      0x00\n      swap1\n      sload\n      swap1\n      0x0100\n      exp\n      swap1\n      div\n      0xff\n      and\n        /* \"access/RoleAccess.sol\":2433:2464  roles[staffAccount] != Role.FOH */\n      0x04\n      dup2\n      gt\n      iszero\n      tag_88\n      jumpi\n      tag_89\n      tag_69\n      jump\t// in\n    tag_89:\n    tag_88:\n      eq\n      iszero\n        /* \"access/RoleAccess.sol\":2433:2499  roles[staffAccount] != Role.FOH && roles[staffAccount] != Role.BOH */\n      dup1\n      iszero\n      tag_90\n      jumpi\n      pop\n        /* \"access/RoleAccess.sol\":2491:2499  Role.BOH */\n      0x04\n        /* \"access/RoleAccess.sol\":2468:2499  roles[staffAccount] != Role.BOH */\n      dup1\n      dup2\n      gt\n      iszero\n      tag_91\n      jumpi\n      tag_92\n      tag_69\n      jump\t// in\n    tag_92:\n    tag_91:\n        /* \"access/RoleAccess.sol\":2468:2473  roles */\n      0x00\n        /* \"access/RoleAccess.sol\":2468:2487  roles[staffAccount] */\n      0x00\n        /* \"access/RoleAccess.sol\":2474:2486  staffAccount */\n      dup6\n        /* \"access/RoleAccess.sol\":2468:2487  roles[staffAccount] */\n      0xffffffffffffffffffffffffffffffffffffffff\n      and\n      0xffffffffffffffffffffffffffffffffffffffff\n      and\n      dup2\n      mstore\n      0x20\n      add\n      swap1\n      dup2\n      mstore\n      0x20\n      add\n      0x00\n      keccak256\n      0x00\n      swap1\n      sload\n      swap1\n      0x0100\n      exp\n      swap1\n      div\n      0xff\n      and\n        /* \"access/RoleAccess.sol\":2468:2499  roles[staffAccount] != Role.BOH */\n      0x04\n      dup2\n      gt\n      iszero\n      tag_93\n      jumpi\n      tag_94\n      tag_69\n      jump\t// in\n    tag_94:\n    tag_93:\n      eq\n      iszero\n        /* \"access/RoleAccess.sol\":2433:2499  roles[staffAccount] != Role.FOH && roles[staffAccount] != Role.BOH */\n    tag_90:\n        /* \"access/RoleAccess.sol\":2396:2500  roles[staffAccount] == Role.None || (roles[staffAccount] != Role.FOH && roles[staffAccount] != Role.BOH) */\n    tag_85:\n        /* \"access/RoleAccess.sol\":2392:2778  if (roles[staffAccount] == Role.None || (roles[staffAccount] != Role.FOH && roles[staffAccount] != Role.BOH) ) {... */\n      iszero\n      tag_95\n      jumpi\n        /* \"access/RoleAccess.sol\":2540:2549  staffRole */\n      dup1\n        /* \"access/RoleAccess.sol\":2518:2523  roles */\n      0x00\n        /* \"access/RoleAccess.sol\":2518:2537  roles[staffAccount] */\n      0x00\n        /* \"access/RoleAccess.sol\":2524:2536  staffAccount */\n      dup6\n        /* \"access/RoleAccess.sol\":2518:2537  roles[staffAccount] */\n      0xffffffffffffffffffffffffffffffffffffffff\n      and\n      0xffffffffffffffffffffffffffffffffffffffff\n      and\n      dup2\n      mstore\n      0x20\n      add\n      swap1\n      dup2\n      mstore\n      0x20\n      add\n      0x00\n      keccak256\n      0x00\n        /* \"access/RoleAccess.sol\":2518:2549  roles[staffAccount] = staffRole */\n      0x0100\n      exp\n      dup2\n      sload\n      dup2\n      0xff\n      mul\n      not\n      and\n      swap1\n      dup4\n      0x04\n      dup2\n      gt\n      iszero\n      tag_96\n      jumpi\n      tag_97\n      tag_69\n      jump\t// in\n    tag_97:\n    tag_96:\n      mul\n      or\n      swap1\n      sstore\n      pop\n        /* \"access/RoleAccess.sol\":2596:2605  staffRole */\n      dup1\n        /* \"access/RoleAccess.sol\":2570:2606  RoleGranted(staffAccount, staffRole) */\n      0x04\n      dup2\n      gt\n      iszero\n      tag_98\n      jumpi\n      tag_99\n      tag_69\n      jump\t// in\n    tag_99:\n    tag_98:\n        /* \"access/RoleAccess.sol\":2582:2594  staffAccount */\n      dup4\n        /* \"access/RoleAccess.sol\":2570:2606  RoleGranted(staffAccount, staffRole) */\n      0xffffffffffffffffffffffffffffffffffffffff\n      and\n      0xaa259565575c834bc07e74dca784b4071676133ac78513b431afb6ee7edae121\n      mload(0x40)\n      mload(0x40)\n      dup1\n      swap2\n      sub\n      swap1\n      log3\n        /* \"access/RoleAccess.sol\":2392:2778  if (roles[staffAccount] == Role.None || (roles[staffAccount] != Role.FOH && roles[staffAccount] != Role.BOH) ) {... */\n      jump(tag_100)\n    tag_95:\n        /* \"access/RoleAccess.sol\":2651:2660  staffRole */\n      dup1\n        /* \"access/RoleAccess.sol\":2628:2660  roles[staffAccount] != staffRole */\n      0x04\n      dup2\n      gt\n      iszero\n      tag_101\n      jumpi\n      tag_102\n      tag_69\n      jump\t// in\n    tag_102:\n    tag_101:\n        /* \"access/RoleAccess.sol\":2628:2633  roles */\n      0x00\n        /* \"access/RoleAccess.sol\":2628:2647  roles[staffAccount] */\n      0x00\n        /* \"access/RoleAccess.sol\":2634:2646  staffAccount */\n      dup6\n        /* \"access/RoleAccess.sol\":2628:2647  roles[staffAccount] */\n      0xffffffffffffffffffffffffffffffffffffffff\n      and\n      0xffffffffffffffffffffffffffffffffffffffff\n      and\n      dup2\n      mstore\n      0x20\n      add\n      swap1\n      dup2\n      mstore\n      0x20\n      add\n      0x00\n      keccak256\n      0x00\n      swap1\n      sload\n      swap1\n      0x0100\n      exp\n      swap1\n      div\n      0xff\n      and\n        /* \"access/RoleAccess.sol\":2628:2660  roles[staffAccount] != staffRole */\n      0x04\n      dup2\n      gt\n      iszero\n      tag_103\n      jumpi\n      tag_104\n      tag_69\n      jump\t// in\n    tag_104:\n    tag_103:\n      eq\n        /* \"access/RoleAccess.sol\":2624:2778  if (roles[staffAccount] != staffRole) {... */\n      tag_105\n      jumpi\n        /* \"access/RoleAccess.sol\":2699:2708  staffRole */\n      dup1\n        /* \"access/RoleAccess.sol\":2677:2682  roles */\n      0x00\n        /* \"access/RoleAccess.sol\":2677:2696  roles[staffAccount] */\n      0x00\n        /* \"access/RoleAccess.sol\":2683:2695  staffAccount */\n      dup6\n        /* \"access/RoleAccess.sol\":2677:2696  roles[staffAccount] */\n      0xffffffffffffffffffffffffffffffffffffffff\n      and\n      0xffffffffffffffffffffffffffffffffffffffff\n      and\n      dup2\n      mstore\n      0x20\n      add\n      swap1\n      dup2\n      mstore\n      0x20\n      add\n      0x00\n      keccak256\n      0x00\n        /* \"access/RoleAccess.sol\":2677:2708  roles[staffAccount] = staffRole */\n      0x0100\n      exp\n      dup2\n      sload\n      dup2\n      0xff\n      mul\n      not\n      and\n      swap1\n      dup4\n      0x04\n      dup2\n      gt\n      iszero\n      tag_106\n      jumpi\n      tag_107\n      tag_69\n      jump\t// in\n    tag_107:\n    tag_106:\n      mul\n      or\n      swap1\n      sstore\n      pop\n        /* \"access/RoleAccess.sol\":2755:2764  staffRole */\n      dup1\n        /* \"access/RoleAccess.sol\":2729:2765  RoleGranted(staffAccount, staffRole) */\n      0x04\n      dup2\n      gt\n      iszero\n      tag_108\n      jumpi\n      tag_109\n      tag_69\n      jump\t// in\n    tag_109:\n    tag_108:\n        /* \"access/RoleAccess.sol\":2741:2753  staffAccount */\n      dup4\n        /* \"access/RoleAccess.sol\":2729:2765  RoleGranted(staffAccount, staffRole) */\n      0xffffffffffffffffffffffffffffffffffffffff\n      and\n      0xaa259565575c834bc07e74dca784b4071676133ac78513b431afb6ee7edae121\n      mload(0x40)\n      mload(0x40)\n      dup1\n      swap2\n      sub\n      swap1\n      log3\n        /* \"access/RoleAccess.sol\":2624:2778  if (roles[staffAccount] != staffRole) {... */\n    tag_105:\n        /* \"access/RoleAccess.sol\":2392:2778  if (roles[staffAccount] == Role.None || (roles[staffAccount] != Role.FOH && roles[staffAccount] != Role.BOH) ) {... */\n    tag_100:\n        /* \"access/RoleAccess.sol\":2850:2851  0 */\n      0x00\n        /* \"access/RoleAccess.sol\":2792:2818  staffIndexInRestaurantList */\n      0x04\n        /* \"access/RoleAccess.sol\":2792:2832  staffIndexInRestaurantList[restaurantId] */\n      0x00\n        /* \"access/RoleAccess.sol\":2819:2831  restaurantId */\n      dup5\n        /* \"access/RoleAccess.sol\":2792:2832  staffIndexInRestaurantList[restaurantId] */\n      0xffffffffffffffffffffffffffffffff\n      and\n      0xffffffffffffffffffffffffffffffff\n      and\n      dup2\n      mstore\n      0x20\n      add\n      swap1\n      dup2\n      mstore\n      0x20\n      add\n      0x00\n      keccak256\n        /* \"access/RoleAccess.sol\":2792:2846  staffIndexInRestaurantList[restaurantId][staffAccount] */\n      0x00\n        /* \"access/RoleAccess.sol\":2833:2845  staffAccount */\n      dup6\n        /* \"access/RoleAccess.sol\":2792:2846  staffIndexInRestaurantList[restaurantId][staffAccount] */\n      0xffffffffffffffffffffffffffffffffffffffff\n      and\n      0xffffffffffffffffffffffffffffffffffffffff\n      and\n      dup2\n      mstore\n      0x20\n      add\n      swap1\n      dup2\n      mstore\n      0x20\n      add\n      0x00\n      keccak256\n      sload\n        /* \"access/RoleAccess.sol\":2792:2851  staffIndexInRestaurantList[restaurantId][staffAccount] == 0 */\n      sub\n        /* \"access/RoleAccess.sol\":2788:3055  if (staffIndexInRestaurantList[restaurantId][staffAccount] == 0) { ... */\n      tag_110\n      jumpi\n        /* \"access/RoleAccess.sol\":2865:2886  staffListByRestaurant */\n      0x03\n        /* \"access/RoleAccess.sol\":2865:2900  staffListByRestaurant[restaurantId] */\n      0x00\n        /* \"access/RoleAccess.sol\":2887:2899  restaurantId */\n      dup4\n        /* \"access/RoleAccess.sol\":2865:2900  staffListByRestaurant[restaurantId] */\n      0xffffffffffffffffffffffffffffffff\n      and\n      0xffffffffffffffffffffffffffffffff\n      and\n      dup2\n      mstore\n      0x20\n      add\n      swap1\n      dup2\n      mstore\n      0x20\n      add\n      0x00\n      keccak256\n        /* \"access/RoleAccess.sol\":2906:2918  staffAccount */\n      dup4\n        /* \"access/RoleAccess.sol\":2865:2919  staffListByRestaurant[restaurantId].push(staffAccount) */\n      swap1\n      dup1\n      0x01\n      dup2\n      sload\n      add\n      dup1\n      dup3\n      sstore\n      dup1\n      swap2\n      pop\n      pop\n      0x01\n      swap1\n      sub\n      swap1\n      0x00\n      mstore\n      keccak256(0x00, 0x20)\n      add\n      0x00\n      swap1\n      swap2\n      swap1\n      swap2\n      swap1\n      swap2\n      0x0100\n      exp\n      dup2\n      sload\n      dup2\n      0xffffffffffffffffffffffffffffffffffffffff\n      mul\n      not\n      and\n      swap1\n      dup4\n      0xffffffffffffffffffffffffffffffffffffffff\n      and\n      mul\n      or\n      swap1\n      sstore\n      pop\n        /* \"access/RoleAccess.sol\":2987:3008  staffListByRestaurant */\n      0x03\n        /* \"access/RoleAccess.sol\":2987:3022  staffListByRestaurant[restaurantId] */\n      0x00\n        /* \"access/RoleAccess.sol\":3009:3021  restaurantId */\n      dup4\n        /* \"access/RoleAccess.sol\":2987:3022  staffListByRestaurant[restaurantId] */\n      0xffffffffffffffffffffffffffffffff\n      and\n      0xffffffffffffffffffffffffffffffff\n      and\n      dup2\n      mstore\n      0x20\n      add\n      swap1\n      dup2\n      mstore\n      0x20\n      add\n      0x00\n      keccak256\n        /* \"access/RoleAccess.sol\":2987:3029  staffListByRestaurant[restaurantId].length */\n      dup1\n      sload\n      swap1\n      pop\n        /* \"access/RoleAccess.sol\":2930:2956  staffIndexInRestaurantList */\n      0x04\n        /* \"access/RoleAccess.sol\":2930:2970  staffIndexInRestaurantList[restaurantId] */\n      0x00\n        /* \"access/RoleAccess.sol\":2957:2969  restaurantId */\n      dup5\n        /* \"access/RoleAccess.sol\":2930:2970  staffIndexInRestaurantList[restaurantId] */\n      0xffffffffffffffffffffffffffffffff\n      and\n      0xffffffffffffffffffffffffffffffff\n      and\n      dup2\n      mstore\n      0x20\n      add\n      swap1\n      dup2\n      mstore\n      0x20\n      add\n      0x00\n      keccak256\n        /* \"access/RoleAccess.sol\":2930:2984  staffIndexInRestaurantList[restaurantId][staffAccount] */\n      0x00\n        /* \"access/RoleAccess.sol\":2971:2983  staffAccount */\n      dup6\n        /* \"access/RoleAccess.sol\":2930:2984  staffIndexInRestaurantList[restaurantId][staffAccount] */\n      0xffffffffffffffffffffffffffffffffffffffff\n      and\n      0xffffffffffffffffffffffffffffffffffffffff\n      and\n      dup2\n      mstore\n      0x20\n      add\n      swap1\n      dup2\n      mstore\n      0x20\n      add\n      0x00\n      keccak256\n        /* \"access/RoleAccess.sol\":2930:3029  staffIndexInRestaurantList[restaurantId][staffAccount] = staffListByRestaurant[restaurantId].length */\n      dup2\n      swap1\n      sstore\n      pop\n        /* \"access/RoleAccess.sol\":2788:3055  if (staffIndexInRestaurantList[restaurantId][staffAccount] == 0) { ... */\n    tag_110:\n        /* \"access/RoleAccess.sol\":3112:3116  true */\n      0x01\n        /* \"access/RoleAccess.sol\":3065:3081  staffAssignments */\n      dup1\n        /* \"access/RoleAccess.sol\":3065:3095  staffAssignments[staffAccount] */\n      0x00\n        /* \"access/RoleAccess.sol\":3082:3094  staffAccount */\n      dup6\n        /* \"access/RoleAccess.sol\":3065:3095  staffAssignments[staffAccount] */\n      0xffffffffffffffffffffffffffffffffffffffff\n      and\n      0xffffffffffffffffffffffffffffffffffffffff\n      and\n      dup2\n      mstore\n      0x20\n      add\n      swap1\n      dup2\n      mstore\n      0x20\n      add\n      0x00\n      keccak256\n        /* \"access/RoleAccess.sol\":3065:3109  staffAssignments[staffAccount][restaurantId] */\n      0x00\n        /* \"access/RoleAccess.sol\":3096:3108  restaurantId */\n      dup5\n        /* \"access/RoleAccess.sol\":3065:3109  staffAssignments[staffAccount][restaurantId] */\n      0xffffffffffffffffffffffffffffffff\n      and\n      0xffffffffffffffffffffffffffffffff\n      and\n      dup2\n      mstore\n      0x20\n      add\n      swap1\n      dup2\n      mstore\n      0x20\n      add\n      0x00\n      keccak256\n      0x00\n        /* \"access/RoleAccess.sol\":3065:3116  staffAssignments[staffAccount][restaurantId] = true */\n      0x0100\n      exp\n      dup2\n      sload\n      dup2\n      0xff\n      mul\n      not\n      and\n      swap1\n      dup4\n      iszero\n      iszero\n      mul\n      or\n      swap1\n      sstore\n      pop\n        /* \"access/RoleAccess.sol\":3186:3201  block.timestamp */\n      timestamp\n        /* \"access/RoleAccess.sol\":3127:3147  staffAssignmentDates */\n      0x02\n        /* \"access/RoleAccess.sol\":3127:3161  staffAssignmentDates[staffAccount] */\n      0x00\n        /* \"access/RoleAccess.sol\":3148:3160  staffAccount */\n      dup6\n        /* \"access/RoleAccess.sol\":3127:3161  staffAssignmentDates[staffAccount] */\n      0xffffffffffffffffffffffffffffffffffffffff\n      and\n      0xffffffffffffffffffffffffffffffffffffffff\n      and\n      dup2\n      mstore\n      0x20\n      add\n      swap1\n      dup2\n      mstore\n      0x20\n      add\n      0x00\n      keccak256\n        /* \"access/RoleAccess.sol\":3127:3175  staffAssignmentDates[staffAccount][restaurantId] */\n      0x00\n        /* \"access/RoleAccess.sol\":3162:3174  restaurantId */\n      dup5\n        /* \"access/RoleAccess.sol\":3127:3175  staffAssignmentDates[staffAccount][restaurantId] */\n      0xffffffffffffffffffffffffffffffff\n      and\n      0xffffffffffffffffffffffffffffffff\n      and\n      dup2\n      mstore\n      0x20\n      add\n      swap1\n      dup2\n      mstore\n      0x20\n      add\n      0x00\n      keccak256\n      0x00\n        /* \"access/RoleAccess.sol\":3127:3202  staffAssignmentDates[staffAccount][restaurantId] = uint128(block.timestamp) */\n      0x0100\n      exp\n      dup2\n      sload\n      dup2\n      0xffffffffffffffffffffffffffffffff\n      mul\n      not\n      and\n      swap1\n      dup4\n      0xffffffffffffffffffffffffffffffff\n      and\n      mul\n      or\n      swap1\n      sstore\n      pop\n        /* \"access/RoleAccess.sol\":3258:3270  restaurantId */\n      dup2\n        /* \"access/RoleAccess.sol\":3218:3271  StaffAssignedToRestaurant(staffAccount, restaurantId) */\n      0xffffffffffffffffffffffffffffffff\n      and\n        /* \"access/RoleAccess.sol\":3244:3256  staffAccount */\n      dup4\n        /* \"access/RoleAccess.sol\":3218:3271  StaffAssignedToRestaurant(staffAccount, restaurantId) */\n      0xffffffffffffffffffffffffffffffffffffffff\n      and\n      0xa7a040419689ac3001a2b7e46b4cc55aa49833559239a3d51e72e097cd28a98f\n      mload(0x40)\n      mload(0x40)\n      dup1\n      swap2\n      sub\n      swap1\n      log3\n        /* \"access/RoleAccess.sol\":2041:3279  function assignStaffToRestaurant(address staffAccount, uint128 restaurantId, Role staffRole) public onlyRoleAdmin {... */\n      pop\n      pop\n      pop\n      jump\t// out\n        /* \"access/RoleAccess.sol\":598:666  mapping(address => mapping(uint128 => bool)) public staffAssignments */\n    tag_36:\n      mstore(0x20, 0x01)\n      dup2\n      0x00\n      mstore\n      mstore(0x20, keccak256(0x00, 0x40))\n      dup1\n      0x00\n      mstore\n      keccak256(0x00, 0x40)\n      0x00\n      swap2\n      pop\n      swap2\n      pop\n      swap1\n      sload\n      swap1\n      0x0100\n      exp\n      swap1\n      div\n      0xff\n      and\n      dup2\n      jump\t// out\n        /* \"#utility.yul\":88:205   */\n    tag_113:\n        /* \"#utility.yul\":197:198   */\n      0x00\n        /* \"#utility.yul\":194:195   */\n      0x00\n        /* \"#utility.yul\":187:199   */\n      revert\n        /* \"#utility.yul\":334:460   */\n    tag_115:\n        /* \"#utility.yul\":371:378   */\n      0x00\n        /* \"#utility.yul\":411:453   */\n      0xffffffffffffffffffffffffffffffffffffffff\n        /* \"#utility.yul\":404:409   */\n      dup3\n        /* \"#utility.yul\":400:454   */\n      and\n        /* \"#utility.yul\":389:454   */\n      swap1\n      pop\n        /* \"#utility.yul\":334:460   */\n      swap2\n      swap1\n      pop\n      jump\t// out\n        /* \"#utility.yul\":466:562   */\n    tag_116:\n        /* \"#utility.yul\":503:510   */\n      0x00\n        /* \"#utility.yul\":532:556   */\n      tag_142\n        /* \"#utility.yul\":550:555   */\n      dup3\n        /* \"#utility.yul\":532:556   */\n      tag_115\n      jump\t// in\n    tag_142:\n        /* \"#utility.yul\":521:556   */\n      swap1\n      pop\n        /* \"#utility.yul\":466:562   */\n      swap2\n      swap1\n      pop\n      jump\t// out\n        /* \"#utility.yul\":568:690   */\n    tag_117:\n        /* \"#utility.yul\":641:665   */\n      tag_144\n        /* \"#utility.yul\":659:664   */\n      dup2\n        /* \"#utility.yul\":641:665   */\n      tag_116\n      jump\t// in\n    tag_144:\n        /* \"#utility.yul\":634:639   */\n      dup2\n        /* \"#utility.yul\":631:666   */\n      eq\n        /* \"#utility.yul\":621:684   */\n      tag_145\n      jumpi\n        /* \"#utility.yul\":680:681   */\n      0x00\n        /* \"#utility.yul\":677:678   */\n      0x00\n        /* \"#utility.yul\":670:682   */\n      revert\n        /* \"#utility.yul\":621:684   */\n    tag_145:\n        /* \"#utility.yul\":568:690   */\n      pop\n      jump\t// out\n        /* \"#utility.yul\":696:835   */\n    tag_118:\n        /* \"#utility.yul\":742:747   */\n      0x00\n        /* \"#utility.yul\":780:786   */\n      dup2\n        /* \"#utility.yul\":767:787   */\n      calldataload\n        /* \"#utility.yul\":758:787   */\n      swap1\n      pop\n        /* \"#utility.yul\":796:829   */\n      tag_147\n        /* \"#utility.yul\":823:828   */\n      dup2\n        /* \"#utility.yul\":796:829   */\n      tag_117\n      jump\t// in\n    tag_147:\n        /* \"#utility.yul\":696:835   */\n      swap3\n      swap2\n      pop\n      pop\n      jump\t// out\n        /* \"#utility.yul\":841:959   */\n    tag_119:\n        /* \"#utility.yul\":878:885   */\n      0x00\n        /* \"#utility.yul\":918:952   */\n      0xffffffffffffffffffffffffffffffff\n        /* \"#utility.yul\":911:916   */\n      dup3\n        /* \"#utility.yul\":907:953   */\n      and\n        /* \"#utility.yul\":896:953   */\n      swap1\n      pop\n        /* \"#utility.yul\":841:959   */\n      swap2\n      swap1\n      pop\n      jump\t// out\n        /* \"#utility.yul\":965:1087   */\n    tag_120:\n        /* \"#utility.yul\":1038:1062   */\n      tag_150\n        /* \"#utility.yul\":1056:1061   */\n      dup2\n        /* \"#utility.yul\":1038:1062   */\n      tag_119\n      jump\t// in\n    tag_150:\n        /* \"#utility.yul\":1031:1036   */\n      dup2\n        /* \"#utility.yul\":1028:1063   */\n      eq\n        /* \"#utility.yul\":1018:1081   */\n      tag_151\n      jumpi\n        /* \"#utility.yul\":1077:1078   */\n      0x00\n        /* \"#utility.yul\":1074:1075   */\n      0x00\n        /* \"#utility.yul\":1067:1079   */\n      revert\n        /* \"#utility.yul\":1018:1081   */\n    tag_151:\n        /* \"#utility.yul\":965:1087   */\n      pop\n      jump\t// out\n        /* \"#utility.yul\":1093:1232   */\n    tag_121:\n        /* \"#utility.yul\":1139:1144   */\n      0x00\n        /* \"#utility.yul\":1177:1183   */\n      dup2\n        /* \"#utility.yul\":1164:1184   */\n      calldataload\n        /* \"#utility.yul\":1155:1184   */\n      swap1\n      pop\n        /* \"#utility.yul\":1193:1226   */\n      tag_153\n        /* \"#utility.yul\":1220:1225   */\n      dup2\n        /* \"#utility.yul\":1193:1226   */\n      tag_120\n      jump\t// in\n    tag_153:\n        /* \"#utility.yul\":1093:1232   */\n      swap3\n      swap2\n      pop\n      pop\n      jump\t// out\n        /* \"#utility.yul\":1238:1712   */\n    tag_11:\n        /* \"#utility.yul\":1306:1312   */\n      0x00\n        /* \"#utility.yul\":1314:1320   */\n      0x00\n        /* \"#utility.yul\":1363:1365   */\n      0x40\n        /* \"#utility.yul\":1351:1360   */\n      dup4\n        /* \"#utility.yul\":1342:1349   */\n      dup6\n        /* \"#utility.yul\":1338:1361   */\n      sub\n        /* \"#utility.yul\":1334:1366   */\n      slt\n        /* \"#utility.yul\":1331:1450   */\n      iszero\n      tag_155\n      jumpi\n        /* \"#utility.yul\":1369:1448   */\n      tag_156\n      tag_113\n      jump\t// in\n    tag_156:\n        /* \"#utility.yul\":1331:1450   */\n    tag_155:\n        /* \"#utility.yul\":1489:1490   */\n      0x00\n        /* \"#utility.yul\":1514:1567   */\n      tag_157\n        /* \"#utility.yul\":1559:1566   */\n      dup6\n        /* \"#utility.yul\":1550:1556   */\n      dup3\n        /* \"#utility.yul\":1539:1548   */\n      dup7\n        /* \"#utility.yul\":1535:1557   */\n      add\n        /* \"#utility.yul\":1514:1567   */\n      tag_118\n      jump\t// in\n    tag_157:\n        /* \"#utility.yul\":1504:1567   */\n      swap3\n      pop\n        /* \"#utility.yul\":1460:1577   */\n      pop\n        /* \"#utility.yul\":1616:1618   */\n      0x20\n        /* \"#utility.yul\":1642:1695   */\n      tag_158\n        /* \"#utility.yul\":1687:1694   */\n      dup6\n        /* \"#utility.yul\":1678:1684   */\n      dup3\n        /* \"#utility.yul\":1667:1676   */\n      dup7\n        /* \"#utility.yul\":1663:1685   */\n      add\n        /* \"#utility.yul\":1642:1695   */\n      tag_121\n      jump\t// in\n    tag_158:\n        /* \"#utility.yul\":1632:1695   */\n      swap2\n      pop\n        /* \"#utility.yul\":1587:1705   */\n      pop\n        /* \"#utility.yul\":1238:1712   */\n      swap3\n      pop\n      swap3\n      swap1\n      pop\n      jump\t// out\n        /* \"#utility.yul\":1718:1836   */\n    tag_122:\n        /* \"#utility.yul\":1805:1829   */\n      tag_160\n        /* \"#utility.yul\":1823:1828   */\n      dup2\n        /* \"#utility.yul\":1805:1829   */\n      tag_119\n      jump\t// in\n    tag_160:\n        /* \"#utility.yul\":1800:1803   */\n      dup3\n        /* \"#utility.yul\":1793:1830   */\n      mstore\n        /* \"#utility.yul\":1718:1836   */\n      pop\n      pop\n      jump\t// out\n        /* \"#utility.yul\":1842:2064   */\n    tag_17:\n        /* \"#utility.yul\":1935:1939   */\n      0x00\n        /* \"#utility.yul\":1973:1975   */\n      0x20\n        /* \"#utility.yul\":1962:1971   */\n      dup3\n        /* \"#utility.yul\":1958:1976   */\n      add\n        /* \"#utility.yul\":1950:1976   */\n      swap1\n      pop\n        /* \"#utility.yul\":1986:2057   */\n      tag_162\n        /* \"#utility.yul\":2054:2055   */\n      0x00\n        /* \"#utility.yul\":2043:2052   */\n      dup4\n        /* \"#utility.yul\":2039:2056   */\n      add\n        /* \"#utility.yul\":2030:2036   */\n      dup5\n        /* \"#utility.yul\":1986:2057   */\n      tag_122\n      jump\t// in\n    tag_162:\n        /* \"#utility.yul\":1842:2064   */\n      swap3\n      swap2\n      pop\n      pop\n      jump\t// out\n        /* \"#utility.yul\":2070:2147   */\n    tag_123:\n        /* \"#utility.yul\":2107:2114   */\n      0x00\n        /* \"#utility.yul\":2136:2141   */\n      dup2\n        /* \"#utility.yul\":2125:2141   */\n      swap1\n      pop\n        /* \"#utility.yul\":2070:2147   */\n      swap2\n      swap1\n      pop\n      jump\t// out\n        /* \"#utility.yul\":2153:2275   */\n    tag_124:\n        /* \"#utility.yul\":2226:2250   */\n      tag_165\n        /* \"#utility.yul\":2244:2249   */\n      dup2\n        /* \"#utility.yul\":2226:2250   */\n      tag_123\n      jump\t// in\n    tag_165:\n        /* \"#utility.yul\":2219:2224   */\n      dup2\n        /* \"#utility.yul\":2216:2251   */\n      eq\n        /* \"#utility.yul\":2206:2269   */\n      tag_166\n      jumpi\n        /* \"#utility.yul\":2265:2266   */\n      0x00\n        /* \"#utility.yul\":2262:2263   */\n      0x00\n        /* \"#utility.yul\":2255:2267   */\n      revert\n        /* \"#utility.yul\":2206:2269   */\n    tag_166:\n        /* \"#utility.yul\":2153:2275   */\n      pop\n      jump\t// out\n        /* \"#utility.yul\":2281:2420   */\n    tag_125:\n        /* \"#utility.yul\":2327:2332   */\n      0x00\n        /* \"#utility.yul\":2365:2371   */\n      dup2\n        /* \"#utility.yul\":2352:2372   */\n      calldataload\n        /* \"#utility.yul\":2343:2372   */\n      swap1\n      pop\n        /* \"#utility.yul\":2381:2414   */\n      tag_168\n        /* \"#utility.yul\":2408:2413   */\n      dup2\n        /* \"#utility.yul\":2381:2414   */\n      tag_124\n      jump\t// in\n    tag_168:\n        /* \"#utility.yul\":2281:2420   */\n      swap3\n      swap2\n      pop\n      pop\n      jump\t// out\n        /* \"#utility.yul\":2426:2900   */\n    tag_20:\n        /* \"#utility.yul\":2494:2500   */\n      0x00\n        /* \"#utility.yul\":2502:2508   */\n      0x00\n        /* \"#utility.yul\":2551:2553   */\n      0x40\n        /* \"#utility.yul\":2539:2548   */\n      dup4\n        /* \"#utility.yul\":2530:2537   */\n      dup6\n        /* \"#utility.yul\":2526:2549   */\n      sub\n        /* \"#utility.yul\":2522:2554   */\n      slt\n        /* \"#utility.yul\":2519:2638   */\n      iszero\n      tag_170\n      jumpi\n        /* \"#utility.yul\":2557:2636   */\n      tag_171\n      tag_113\n      jump\t// in\n    tag_171:\n        /* \"#utility.yul\":2519:2638   */\n    tag_170:\n        /* \"#utility.yul\":2677:2678   */\n      0x00\n        /* \"#utility.yul\":2702:2755   */\n      tag_172\n        /* \"#utility.yul\":2747:2754   */\n      dup6\n        /* \"#utility.yul\":2738:2744   */\n      dup3\n        /* \"#utility.yul\":2727:2736   */\n      dup7\n        /* \"#utility.yul\":2723:2745   */\n      add\n        /* \"#utility.yul\":2702:2755   */\n      tag_121\n      jump\t// in\n    tag_172:\n        /* \"#utility.yul\":2692:2755   */\n      swap3\n      pop\n        /* \"#utility.yul\":2648:2765   */\n      pop\n        /* \"#utility.yul\":2804:2806   */\n      0x20\n        /* \"#utility.yul\":2830:2883   */\n      tag_173\n        /* \"#utility.yul\":2875:2882   */\n      dup6\n        /* \"#utility.yul\":2866:2872   */\n      dup3\n        /* \"#utility.yul\":2855:2864   */\n      dup7\n        /* \"#utility.yul\":2851:2873   */\n      add\n        /* \"#utility.yul\":2830:2883   */\n      tag_125\n      jump\t// in\n    tag_173:\n        /* \"#utility.yul\":2820:2883   */\n      swap2\n      pop\n        /* \"#utility.yul\":2775:2893   */\n      pop\n        /* \"#utility.yul\":2426:2900   */\n      swap3\n      pop\n      swap3\n      swap1\n      pop\n      jump\t// out\n        /* \"#utility.yul\":2906:3024   */\n    tag_126:\n        /* \"#utility.yul\":2993:3017   */\n      tag_175\n        /* \"#utility.yul\":3011:3016   */\n      dup2\n        /* \"#utility.yul\":2993:3017   */\n      tag_116\n      jump\t// in\n    tag_175:\n        /* \"#utility.yul\":2988:2991   */\n      dup3\n        /* \"#utility.yul\":2981:3018   */\n      mstore\n        /* \"#utility.yul\":2906:3024   */\n      pop\n      pop\n      jump\t// out\n        /* \"#utility.yul\":3030:3252   */\n    tag_23:\n        /* \"#utility.yul\":3123:3127   */\n      0x00\n        /* \"#utility.yul\":3161:3163   */\n      0x20\n        /* \"#utility.yul\":3150:3159   */\n      dup3\n        /* \"#utility.yul\":3146:3164   */\n      add\n        /* \"#utility.yul\":3138:3164   */\n      swap1\n      pop\n        /* \"#utility.yul\":3174:3245   */\n      tag_177\n        /* \"#utility.yul\":3242:3243   */\n      0x00\n        /* \"#utility.yul\":3231:3240   */\n      dup4\n        /* \"#utility.yul\":3227:3244   */\n      add\n        /* \"#utility.yul\":3218:3224   */\n      dup5\n        /* \"#utility.yul\":3174:3245   */\n      tag_126\n      jump\t// in\n    tag_177:\n        /* \"#utility.yul\":3030:3252   */\n      swap3\n      swap2\n      pop\n      pop\n      jump\t// out\n        /* \"#utility.yul\":3258:3587   */\n    tag_26:\n        /* \"#utility.yul\":3317:3323   */\n      0x00\n        /* \"#utility.yul\":3366:3368   */\n      0x20\n        /* \"#utility.yul\":3354:3363   */\n      dup3\n        /* \"#utility.yul\":3345:3352   */\n      dup5\n        /* \"#utility.yul\":3341:3364   */\n      sub\n        /* \"#utility.yul\":3337:3369   */\n      slt\n        /* \"#utility.yul\":3334:3453   */\n      iszero\n      tag_179\n      jumpi\n        /* \"#utility.yul\":3372:3451   */\n      tag_180\n      tag_113\n      jump\t// in\n    tag_180:\n        /* \"#utility.yul\":3334:3453   */\n    tag_179:\n        /* \"#utility.yul\":3492:3493   */\n      0x00\n        /* \"#utility.yul\":3517:3570   */\n      tag_181\n        /* \"#utility.yul\":3562:3569   */\n      dup5\n        /* \"#utility.yul\":3553:3559   */\n      dup3\n        /* \"#utility.yul\":3542:3551   */\n      dup6\n        /* \"#utility.yul\":3538:3560   */\n      add\n        /* \"#utility.yul\":3517:3570   */\n      tag_118\n      jump\t// in\n    tag_181:\n        /* \"#utility.yul\":3507:3570   */\n      swap2\n      pop\n        /* \"#utility.yul\":3463:3580   */\n      pop\n        /* \"#utility.yul\":3258:3587   */\n      swap3\n      swap2\n      pop\n      pop\n      jump\t// out\n        /* \"#utility.yul\":3593:3773   */\n    tag_69:\n        /* \"#utility.yul\":3641:3718   */\n      0x4e487b7100000000000000000000000000000000000000000000000000000000\n        /* \"#utility.yul\":3638:3639   */\n      0x00\n        /* \"#utility.yul\":3631:3719   */\n      mstore\n        /* \"#utility.yul\":3738:3742   */\n      0x21\n        /* \"#utility.yul\":3735:3736   */\n      0x04\n        /* \"#utility.yul\":3728:3743   */\n      mstore\n        /* \"#utility.yul\":3762:3766   */\n      0x24\n        /* \"#utility.yul\":3759:3760   */\n      0x00\n        /* \"#utility.yul\":3752:3767   */\n      revert\n        /* \"#utility.yul\":3779:3892   */\n    tag_127:\n        /* \"#utility.yul\":3860:3861   */\n      0x05\n        /* \"#utility.yul\":3853:3858   */\n      dup2\n        /* \"#utility.yul\":3850:3862   */\n      lt\n        /* \"#utility.yul\":3840:3886   */\n      tag_184\n      jumpi\n        /* \"#utility.yul\":3866:3884   */\n      tag_185\n      tag_69\n      jump\t// in\n    tag_185:\n        /* \"#utility.yul\":3840:3886   */\n    tag_184:\n        /* \"#utility.yul\":3779:3892   */\n      pop\n      jump\t// out\n        /* \"#utility.yul\":3898:4025   */\n    tag_128:\n        /* \"#utility.yul\":3943:3950   */\n      0x00\n        /* \"#utility.yul\":3972:3977   */\n      dup2\n        /* \"#utility.yul\":3961:3977   */\n      swap1\n      pop\n        /* \"#utility.yul\":3978:4019   */\n      tag_187\n        /* \"#utility.yul\":4013:4018   */\n      dup3\n        /* \"#utility.yul\":3978:4019   */\n      tag_127\n      jump\t// in\n    tag_187:\n        /* \"#utility.yul\":3898:4025   */\n      swap2\n      swap1\n      pop\n      jump\t// out\n        /* \"#utility.yul\":4031:4158   */\n    tag_129:\n        /* \"#utility.yul\":4087:4096   */\n      0x00\n        /* \"#utility.yul\":4120:4152   */\n      tag_189\n        /* \"#utility.yul\":4146:4151   */\n      dup3\n        /* \"#utility.yul\":4120:4152   */\n      tag_128\n      jump\t// in\n    tag_189:\n        /* \"#utility.yul\":4107:4152   */\n      swap1\n      pop\n        /* \"#utility.yul\":4031:4158   */\n      swap2\n      swap1\n      pop\n      jump\t// out\n        /* \"#utility.yul\":4164:4307   */\n    tag_130:\n        /* \"#utility.yul\":4257:4300   */\n      tag_191\n        /* \"#utility.yul\":4294:4299   */\n      dup2\n        /* \"#utility.yul\":4257:4300   */\n      tag_129\n      jump\t// in\n    tag_191:\n        /* \"#utility.yul\":4252:4255   */\n      dup3\n        /* \"#utility.yul\":4245:4301   */\n      mstore\n        /* \"#utility.yul\":4164:4307   */\n      pop\n      pop\n      jump\t// out\n        /* \"#utility.yul\":4313:4547   */\n    tag_29:\n        /* \"#utility.yul\":4412:4416   */\n      0x00\n        /* \"#utility.yul\":4450:4452   */\n      0x20\n        /* \"#utility.yul\":4439:4448   */\n      dup3\n        /* \"#utility.yul\":4435:4453   */\n      add\n        /* \"#utility.yul\":4427:4453   */\n      swap1\n      pop\n        /* \"#utility.yul\":4463:4540   */\n      tag_193\n        /* \"#utility.yul\":4537:4538   */\n      0x00\n        /* \"#utility.yul\":4526:4535   */\n      dup4\n        /* \"#utility.yul\":4522:4539   */\n      add\n        /* \"#utility.yul\":4513:4519   */\n      dup5\n        /* \"#utility.yul\":4463:4540   */\n      tag_130\n      jump\t// in\n    tag_193:\n        /* \"#utility.yul\":4313:4547   */\n      swap3\n      swap2\n      pop\n      pop\n      jump\t// out\n        /* \"#utility.yul\":4553:4660   */\n    tag_131:\n        /* \"#utility.yul\":4634:4635   */\n      0x05\n        /* \"#utility.yul\":4627:4632   */\n      dup2\n        /* \"#utility.yul\":4624:4636   */\n      lt\n        /* \"#utility.yul\":4614:4654   */\n      tag_195\n      jumpi\n        /* \"#utility.yul\":4650:4651   */\n      0x00\n        /* \"#utility.yul\":4647:4648   */\n      0x00\n        /* \"#utility.yul\":4640:4652   */\n      revert\n        /* \"#utility.yul\":4614:4654   */\n    tag_195:\n        /* \"#utility.yul\":4553:4660   */\n      pop\n      jump\t// out\n        /* \"#utility.yul\":4666:4821   */\n    tag_132:\n        /* \"#utility.yul\":4720:4725   */\n      0x00\n        /* \"#utility.yul\":4758:4764   */\n      dup2\n        /* \"#utility.yul\":4745:4765   */\n      calldataload\n        /* \"#utility.yul\":4736:4765   */\n      swap1\n      pop\n        /* \"#utility.yul\":4774:4815   */\n      tag_197\n        /* \"#utility.yul\":4809:4814   */\n      dup2\n        /* \"#utility.yul\":4774:4815   */\n      tag_131\n      jump\t// in\n    tag_197:\n        /* \"#utility.yul\":4666:4821   */\n      swap3\n      swap2\n      pop\n      pop\n      jump\t// out\n        /* \"#utility.yul\":4827:5462   */\n    tag_32:\n        /* \"#utility.yul\":4912:4918   */\n      0x00\n        /* \"#utility.yul\":4920:4926   */\n      0x00\n        /* \"#utility.yul\":4928:4934   */\n      0x00\n        /* \"#utility.yul\":4977:4979   */\n      0x60\n        /* \"#utility.yul\":4965:4974   */\n      dup5\n        /* \"#utility.yul\":4956:4963   */\n      dup7\n        /* \"#utility.yul\":4952:4975   */\n      sub\n        /* \"#utility.yul\":4948:4980   */\n      slt\n        /* \"#utility.yul\":4945:5064   */\n      iszero\n      tag_199\n      jumpi\n        /* \"#utility.yul\":4983:5062   */\n      tag_200\n      tag_113\n      jump\t// in\n    tag_200:\n        /* \"#utility.yul\":4945:5064   */\n    tag_199:\n        /* \"#utility.yul\":5103:5104   */\n      0x00\n        /* \"#utility.yul\":5128:5181   */\n      tag_201\n        /* \"#utility.yul\":5173:5180   */\n      dup7\n        /* \"#utility.yul\":5164:5170   */\n      dup3\n        /* \"#utility.yul\":5153:5162   */\n      dup8\n        /* \"#utility.yul\":5149:5171   */\n      add\n        /* \"#utility.yul\":5128:5181   */\n      tag_118\n      jump\t// in\n    tag_201:\n        /* \"#utility.yul\":5118:5181   */\n      swap4\n      pop\n        /* \"#utility.yul\":5074:5191   */\n      pop\n        /* \"#utility.yul\":5230:5232   */\n      0x20\n        /* \"#utility.yul\":5256:5309   */\n      tag_202\n        /* \"#utility.yul\":5301:5308   */\n      dup7\n        /* \"#utility.yul\":5292:5298   */\n      dup3\n        /* \"#utility.yul\":5281:5290   */\n      dup8\n        /* \"#utility.yul\":5277:5299   */\n      add\n        /* \"#utility.yul\":5256:5309   */\n      tag_121\n      jump\t// in\n    tag_202:\n        /* \"#utility.yul\":5246:5309   */\n      swap3\n      pop\n        /* \"#utility.yul\":5201:5319   */\n      pop\n        /* \"#utility.yul\":5358:5360   */\n      0x40\n        /* \"#utility.yul\":5384:5445   */\n      tag_203\n        /* \"#utility.yul\":5437:5444   */\n      dup7\n        /* \"#utility.yul\":5428:5434   */\n      dup3\n        /* \"#utility.yul\":5417:5426   */\n      dup8\n        /* \"#utility.yul\":5413:5435   */\n      add\n        /* \"#utility.yul\":5384:5445   */\n      tag_132\n      jump\t// in\n    tag_203:\n        /* \"#utility.yul\":5374:5445   */\n      swap2\n      pop\n        /* \"#utility.yul\":5329:5455   */\n      pop\n        /* \"#utility.yul\":4827:5462   */\n      swap3\n      pop\n      swap3\n      pop\n      swap3\n      jump\t// out\n        /* \"#utility.yul\":5468:5558   */\n    tag_133:\n        /* \"#utility.yul\":5502:5509   */\n      0x00\n        /* \"#utility.yul\":5545:5550   */\n      dup2\n        /* \"#utility.yul\":5538:5551   */\n      iszero\n        /* \"#utility.yul\":5531:5552   */\n      iszero\n        /* \"#utility.yul\":5520:5552   */\n      swap1\n      pop\n        /* \"#utility.yul\":5468:5558   */\n      swap2\n      swap1\n      pop\n      jump\t// out\n        /* \"#utility.yul\":5564:5673   */\n    tag_134:\n        /* \"#utility.yul\":5645:5666   */\n      tag_206\n        /* \"#utility.yul\":5660:5665   */\n      dup2\n        /* \"#utility.yul\":5645:5666   */\n      tag_133\n      jump\t// in\n    tag_206:\n        /* \"#utility.yul\":5640:5643   */\n      dup3\n        /* \"#utility.yul\":5633:5667   */\n      mstore\n        /* \"#utility.yul\":5564:5673   */\n      pop\n      pop\n      jump\t// out\n        /* \"#utility.yul\":5679:5889   */\n    tag_38:\n        /* \"#utility.yul\":5766:5770   */\n      0x00\n        /* \"#utility.yul\":5804:5806   */\n      0x20\n        /* \"#utility.yul\":5793:5802   */\n      dup3\n        /* \"#utility.yul\":5789:5807   */\n      add\n        /* \"#utility.yul\":5781:5807   */\n      swap1\n      pop\n        /* \"#utility.yul\":5817:5882   */\n      tag_208\n        /* \"#utility.yul\":5879:5880   */\n      0x00\n        /* \"#utility.yul\":5868:5877   */\n      dup4\n        /* \"#utility.yul\":5864:5881   */\n      add\n        /* \"#utility.yul\":5855:5861   */\n      dup5\n        /* \"#utility.yul\":5817:5882   */\n      tag_134\n      jump\t// in\n    tag_208:\n        /* \"#utility.yul\":5679:5889   */\n      swap3\n      swap2\n      pop\n      pop\n      jump\t// out\n        /* \"#utility.yul\":5895:6227   */\n    tag_44:\n        /* \"#utility.yul\":6016:6020   */\n      0x00\n        /* \"#utility.yul\":6054:6056   */\n      0x40\n        /* \"#utility.yul\":6043:6052   */\n      dup3\n        /* \"#utility.yul\":6039:6057   */\n      add\n        /* \"#utility.yul\":6031:6057   */\n      swap1\n      pop\n        /* \"#utility.yul\":6067:6138   */\n      tag_210\n        /* \"#utility.yul\":6135:6136   */\n      0x00\n        /* \"#utility.yul\":6124:6133   */\n      dup4\n        /* \"#utility.yul\":6120:6137   */\n      add\n        /* \"#utility.yul\":6111:6117   */\n      dup6\n        /* \"#utility.yul\":6067:6138   */\n      tag_126\n      jump\t// in\n    tag_210:\n        /* \"#utility.yul\":6148:6220   */\n      tag_211\n        /* \"#utility.yul\":6216:6218   */\n      0x20\n        /* \"#utility.yul\":6205:6214   */\n      dup4\n        /* \"#utility.yul\":6201:6219   */\n      add\n        /* \"#utility.yul\":6192:6198   */\n      dup5\n        /* \"#utility.yul\":6148:6220   */\n      tag_122\n      jump\t// in\n    tag_211:\n        /* \"#utility.yul\":5895:6227   */\n      swap4\n      swap3\n      pop\n      pop\n      pop\n      jump\t// out\n        /* \"#utility.yul\":6233:6413   */\n    tag_135:\n        /* \"#utility.yul\":6281:6358   */\n      0x4e487b7100000000000000000000000000000000000000000000000000000000\n        /* \"#utility.yul\":6278:6279   */\n      0x00\n        /* \"#utility.yul\":6271:6359   */\n      mstore\n        /* \"#utility.yul\":6378:6382   */\n      0x11\n        /* \"#utility.yul\":6375:6376   */\n      0x04\n        /* \"#utility.yul\":6368:6383   */\n      mstore\n        /* \"#utility.yul\":6402:6406   */\n      0x24\n        /* \"#utility.yul\":6399:6400   */\n      0x00\n        /* \"#utility.yul\":6392:6407   */\n      revert\n        /* \"#utility.yul\":6419:6613   */\n    tag_47:\n        /* \"#utility.yul\":6459:6463   */\n      0x00\n        /* \"#utility.yul\":6479:6499   */\n      tag_214\n        /* \"#utility.yul\":6497:6498   */\n      dup3\n        /* \"#utility.yul\":6479:6499   */\n      tag_123\n      jump\t// in\n    tag_214:\n        /* \"#utility.yul\":6474:6499   */\n      swap2\n      pop\n        /* \"#utility.yul\":6513:6533   */\n      tag_215\n        /* \"#utility.yul\":6531:6532   */\n      dup4\n        /* \"#utility.yul\":6513:6533   */\n      tag_123\n      jump\t// in\n    tag_215:\n        /* \"#utility.yul\":6508:6533   */\n      swap3\n      pop\n        /* \"#utility.yul\":6557:6558   */\n      dup3\n        /* \"#utility.yul\":6554:6555   */\n      dup3\n        /* \"#utility.yul\":6550:6559   */\n      sub\n        /* \"#utility.yul\":6542:6559   */\n      swap1\n      pop\n        /* \"#utility.yul\":6581:6582   */\n      dup2\n        /* \"#utility.yul\":6575:6579   */\n      dup2\n        /* \"#utility.yul\":6572:6583   */\n      gt\n        /* \"#utility.yul\":6569:6606   */\n      iszero\n      tag_216\n      jumpi\n        /* \"#utility.yul\":6586:6604   */\n      tag_217\n      tag_135\n      jump\t// in\n    tag_217:\n        /* \"#utility.yul\":6569:6606   */\n    tag_216:\n        /* \"#utility.yul\":6419:6613   */\n      swap3\n      swap2\n      pop\n      pop\n      jump\t// out\n        /* \"#utility.yul\":6619:6799   */\n    tag_51:\n        /* \"#utility.yul\":6667:6744   */\n      0x4e487b7100000000000000000000000000000000000000000000000000000000\n        /* \"#utility.yul\":6664:6665   */\n      0x00\n        /* \"#utility.yul\":6657:6745   */\n      mstore\n        /* \"#utility.yul\":6764:6768   */\n      0x32\n        /* \"#utility.yul\":6761:6762   */\n      0x04\n        /* \"#utility.yul\":6754:6769   */\n      mstore\n        /* \"#utility.yul\":6788:6792   */\n      0x24\n        /* \"#utility.yul\":6785:6786   */\n      0x00\n        /* \"#utility.yul\":6778:6793   */\n      revert\n        /* \"#utility.yul\":6805:6996   */\n    tag_57:\n        /* \"#utility.yul\":6845:6848   */\n      0x00\n        /* \"#utility.yul\":6864:6884   */\n      tag_220\n        /* \"#utility.yul\":6882:6883   */\n      dup3\n        /* \"#utility.yul\":6864:6884   */\n      tag_123\n      jump\t// in\n    tag_220:\n        /* \"#utility.yul\":6859:6884   */\n      swap2\n      pop\n        /* \"#utility.yul\":6898:6918   */\n      tag_221\n        /* \"#utility.yul\":6916:6917   */\n      dup4\n        /* \"#utility.yul\":6898:6918   */\n      tag_123\n      jump\t// in\n    tag_221:\n        /* \"#utility.yul\":6893:6918   */\n      swap3\n      pop\n        /* \"#utility.yul\":6941:6942   */\n      dup3\n        /* \"#utility.yul\":6938:6939   */\n      dup3\n        /* \"#utility.yul\":6934:6943   */\n      add\n        /* \"#utility.yul\":6927:6943   */\n      swap1\n      pop\n        /* \"#utility.yul\":6962:6965   */\n      dup1\n        /* \"#utility.yul\":6959:6960   */\n      dup3\n        /* \"#utility.yul\":6956:6966   */\n      gt\n        /* \"#utility.yul\":6953:6989   */\n      iszero\n      tag_222\n      jumpi\n        /* \"#utility.yul\":6969:6987   */\n      tag_223\n      tag_135\n      jump\t// in\n    tag_223:\n        /* \"#utility.yul\":6953:6989   */\n    tag_222:\n        /* \"#utility.yul\":6805:6996   */\n      swap3\n      swap2\n      pop\n      pop\n      jump\t// out\n        /* \"#utility.yul\":7002:7182   */\n    tag_60:\n        /* \"#utility.yul\":7050:7127   */\n      0x4e487b7100000000000000000000000000000000000000000000000000000000\n        /* \"#utility.yul\":7047:7048   */\n      0x00\n        /* \"#utility.yul\":7040:7128   */\n      mstore\n        /* \"#utility.yul\":7147:7151   */\n      0x31\n        /* \"#utility.yul\":7144:7145   */\n      0x04\n        /* \"#utility.yul\":7137:7152   */\n      mstore\n        /* \"#utility.yul\":7171:7175   */\n      0x24\n        /* \"#utility.yul\":7168:7169   */\n      0x00\n        /* \"#utility.yul\":7161:7176   */\n      revert\n        /* \"#utility.yul\":7188:7532   */\n    tag_79:\n        /* \"#utility.yul\":7315:7319   */\n      0x00\n        /* \"#utility.yul\":7353:7355   */\n      0x40\n        /* \"#utility.yul\":7342:7351   */\n      dup3\n        /* \"#utility.yul\":7338:7356   */\n      add\n        /* \"#utility.yul\":7330:7356   */\n      swap1\n      pop\n        /* \"#utility.yul\":7366:7437   */\n      tag_226\n        /* \"#utility.yul\":7434:7435   */\n      0x00\n        /* \"#utility.yul\":7423:7432   */\n      dup4\n        /* \"#utility.yul\":7419:7436   */\n      add\n        /* \"#utility.yul\":7410:7416   */\n      dup6\n        /* \"#utility.yul\":7366:7437   */\n      tag_126\n      jump\t// in\n    tag_226:\n        /* \"#utility.yul\":7447:7525   */\n      tag_227\n        /* \"#utility.yul\":7521:7523   */\n      0x20\n        /* \"#utility.yul\":7510:7519   */\n      dup4\n        /* \"#utility.yul\":7506:7524   */\n      add\n        /* \"#utility.yul\":7497:7503   */\n      dup5\n        /* \"#utility.yul\":7447:7525   */\n      tag_130\n      jump\t// in\n    tag_227:\n        /* \"#utility.yul\":7188:7532   */\n      swap4\n      swap3\n      pop\n      pop\n      pop\n      jump\t// out\n\n    auxdata: 0xa2646970667358221220239f82d530ae4f497ff87438c37637bcc8daf07952aeb9d3033064ec4067aa2d64736f6c634300081e0033\n}\n",
				"bytecode": {
					"linkReferences": {},
					"object": "6080604052348015600e575f5ffd5b5061147d8061001c5f395ff3fe608060405234801561000f575f5ffd5b506004361061005f575f3560e01c80629d2013146100635780630d889bfa1461007f5780632253e0f1146100af57806399374642146100df578063addfa3531461010f578063ce4cf9cb1461012b575b5f5ffd5b61007d600480360381019061007891906110b0565b61015b565b005b610099600480360381019061009491906110b0565b610748565b6040516100a691906110fd565b60405180910390f35b6100c960048036038101906100c49190611149565b610781565b6040516100d69190611196565b60405180910390f35b6100f960048036038101906100f491906111af565b6107c9565b604051610106919061124d565b60405180910390f35b61012960048036038101906101249190611289565b6107e5565b005b610145600480360381019061014091906110b0565b610fe3565b60405161015291906112f3565b60405180910390f35b60055f9054906101000a900473ffffffffffffffffffffffffffffffffffffffff1673ffffffffffffffffffffffffffffffffffffffff163373ffffffffffffffffffffffffffffffffffffffff16146101e1576040517f34620a8200000000000000000000000000000000000000000000000000000000815260040160405180910390fd5b60015f8373ffffffffffffffffffffffffffffffffffffffff1673ffffffffffffffffffffffffffffffffffffffff1681526020019081526020015f205f826fffffffffffffffffffffffffffffffff166fffffffffffffffffffffffffffffffff1681526020019081526020015f205f9054906101000a900460ff166102a15781816040517f58cce33700000000000000000000000000000000000000000000000000000000815260040161029892919061130c565b60405180910390fd5b5f60045f836fffffffffffffffffffffffffffffffff166fffffffffffffffffffffffffffffffff1681526020019081526020015f205f8473ffffffffffffffffffffffffffffffffffffffff1673ffffffffffffffffffffffffffffffffffffffff1681526020019081526020015f205490505f8111156105e0575f60018261032b9190611360565b90505f60035f856fffffffffffffffffffffffffffffffff166fffffffffffffffffffffffffffffffff1681526020019081526020015f20600160035f876fffffffffffffffffffffffffffffffff166fffffffffffffffffffffffffffffffff1681526020019081526020015f20805490506103a89190611360565b815481106103b9576103b8611393565b5b905f5260205f20015f9054906101000a900473ffffffffffffffffffffffffffffffffffffffff1690508060035f866fffffffffffffffffffffffffffffffff166fffffffffffffffffffffffffffffffff1681526020019081526020015f20838154811061042b5761042a611393565b5b905f5260205f20015f6101000a81548173ffffffffffffffffffffffffffffffffffffffff021916908373ffffffffffffffffffffffffffffffffffffffff16021790555060018261047d91906113c0565b60045f866fffffffffffffffffffffffffffffffff166fffffffffffffffffffffffffffffffff1681526020019081526020015f205f8373ffffffffffffffffffffffffffffffffffffffff1673ffffffffffffffffffffffffffffffffffffffff1681526020019081526020015f208190555060035f856fffffffffffffffffffffffffffffffff166fffffffffffffffffffffffffffffffff1681526020019081526020015f20805480610536576105356113f3565b5b600190038181905f5260205f20015f6101000a81549073ffffffffffffffffffffffffffffffffffffffff021916905590555f60045f866fffffffffffffffffffffffffffffffff166fffffffffffffffffffffffffffffffff1681526020019081526020015f205f8773ffffffffffffffffffffffffffffffffffffffff1673ffffffffffffffffffffffffffffffffffffffff1681526020019081526020015f208190555050505b60015f8473ffffffffffffffffffffffffffffffffffffffff1673ffffffffffffffffffffffffffffffffffffffff1681526020019081526020015f205f836fffffffffffffffffffffffffffffffff166fffffffffffffffffffffffffffffffff1681526020019081526020015f205f6101000a81549060ff021916905560025f8473ffffffffffffffffffffffffffffffffffffffff1673ffffffffffffffffffffffffffffffffffffffff1681526020019081526020015f205f836fffffffffffffffffffffffffffffffff166fffffffffffffffffffffffffffffffff1681526020019081526020015f205f6101000a8154906fffffffffffffffffffffffffffffffff0219169055816fffffffffffffffffffffffffffffffff168373ffffffffffffffffffffffffffffffffffffffff167f2091a7a9f4bd1d3537c45c3143a470b7c349709a4b0b9e9b2a8f3e37c9de0e2560405160405180910390a3505050565b6002602052815f5260405f20602052805f5260405f205f915091509054906101000a90046fffffffffffffffffffffffffffffffff1681565b6003602052815f5260405f20818154811061079a575f80fd5b905f5260205f20015f915091509054906101000a900473ffffffffffffffffffffffffffffffffffffffff1681565b5f602052805f5260405f205f915054906101000a900460ff1681565b60055f9054906101000a900473ffffffffffffffffffffffffffffffffffffffff1673ffffffffffffffffffffffffffffffffffffffff163373ffffffffffffffffffffffffffffffffffffffff161461086b576040517f34620a8200000000000000000000000000000000000000000000000000000000815260040160405180910390fd5b6003600481111561087f5761087e6111da565b5b816004811115610892576108916111da565b5b141580156108c457506004808111156108ae576108ad6111da565b5b8160048111156108c1576108c06111da565b5b14155b156109085782816040517f8b8332920000000000000000000000000000000000000000000000000000000081526004016108ff929190611420565b60405180910390fd5b5f826fffffffffffffffffffffffffffffffff1603610953576040517fd2aff19c00000000000000000000000000000000000000000000000000000000815260040160405180910390fd5b5f6004811115610966576109656111da565b5b5f5f8573ffffffffffffffffffffffffffffffffffffffff1673ffffffffffffffffffffffffffffffffffffffff1681526020019081526020015f205f9054906101000a900460ff1660048111156109c1576109c06111da565b5b1480610ab25750600360048111156109dc576109db6111da565b5b5f5f8573ffffffffffffffffffffffffffffffffffffffff1673ffffffffffffffffffffffffffffffffffffffff1681526020019081526020015f205f9054906101000a900460ff166004811115610a3757610a366111da565b5b14158015610ab15750600480811115610a5357610a526111da565b5b5f5f8573ffffffffffffffffffffffffffffffffffffffff1673ffffffffffffffffffffffffffffffffffffffff1681526020019081526020015f205f9054906101000a900460ff166004811115610aae57610aad6111da565b5b14155b5b15610b7557805f5f8573ffffffffffffffffffffffffffffffffffffffff1673ffffffffffffffffffffffffffffffffffffffff1681526020019081526020015f205f6101000a81548160ff02191690836004811115610b1557610b146111da565b5b0217905550806004811115610b2d57610b2c6111da565b5b8373ffffffffffffffffffffffffffffffffffffffff167faa259565575c834bc07e74dca784b4071676133ac78513b431afb6ee7edae12160405160405180910390a3610ca3565b806004811115610b8857610b876111da565b5b5f5f8573ffffffffffffffffffffffffffffffffffffffff1673ffffffffffffffffffffffffffffffffffffffff1681526020019081526020015f205f9054906101000a900460ff166004811115610be357610be26111da565b5b14610ca257805f5f8573ffffffffffffffffffffffffffffffffffffffff1673ffffffffffffffffffffffffffffffffffffffff1681526020019081526020015f205f6101000a81548160ff02191690836004811115610c4657610c456111da565b5b0217905550806004811115610c5e57610c5d6111da565b5b8373ffffffffffffffffffffffffffffffffffffffff167faa259565575c834bc07e74dca784b4071676133ac78513b431afb6ee7edae12160405160405180910390a35b5b5f60045f846fffffffffffffffffffffffffffffffff166fffffffffffffffffffffffffffffffff1681526020019081526020015f205f8573ffffffffffffffffffffffffffffffffffffffff1673ffffffffffffffffffffffffffffffffffffffff1681526020019081526020015f205403610e5b5760035f836fffffffffffffffffffffffffffffffff166fffffffffffffffffffffffffffffffff1681526020019081526020015f2083908060018154018082558091505060019003905f5260205f20015f9091909190916101000a81548173ffffffffffffffffffffffffffffffffffffffff021916908373ffffffffffffffffffffffffffffffffffffffff16021790555060035f836fffffffffffffffffffffffffffffffff166fffffffffffffffffffffffffffffffff1681526020019081526020015f208054905060045f846fffffffffffffffffffffffffffffffff166fffffffffffffffffffffffffffffffff1681526020019081526020015f205f8573ffffffffffffffffffffffffffffffffffffffff1673ffffffffffffffffffffffffffffffffffffffff1681526020019081526020015f20819055505b6001805f8573ffffffffffffffffffffffffffffffffffffffff1673ffffffffffffffffffffffffffffffffffffffff1681526020019081526020015f205f846fffffffffffffffffffffffffffffffff166fffffffffffffffffffffffffffffffff1681526020019081526020015f205f6101000a81548160ff0219169083151502179055504260025f8573ffffffffffffffffffffffffffffffffffffffff1673ffffffffffffffffffffffffffffffffffffffff1681526020019081526020015f205f846fffffffffffffffffffffffffffffffff166fffffffffffffffffffffffffffffffff1681526020019081526020015f205f6101000a8154816fffffffffffffffffffffffffffffffff02191690836fffffffffffffffffffffffffffffffff160217905550816fffffffffffffffffffffffffffffffff168373ffffffffffffffffffffffffffffffffffffffff167fa7a040419689ac3001a2b7e46b4cc55aa49833559239a3d51e72e097cd28a98f60405160405180910390a3505050565b6001602052815f5260405f20602052805f5260405f205f915091509054906101000a900460ff1681565b5f5ffd5b5f73ffffffffffffffffffffffffffffffffffffffff82169050919050565b5f61103a82611011565b9050919050565b61104a81611030565b8114611054575f5ffd5b50565b5f8135905061106581611041565b92915050565b5f6fffffffffffffffffffffffffffffffff82169050919050565b61108f8161106b565b8114611099575f5ffd5b50565b5f813590506110aa81611086565b92915050565b5f5f604083850312156110c6576110c561100d565b5b5f6110d385828601611057565b92505060206110e48582860161109c565b9150509250929050565b6110f78161106b565b82525050565b5f6020820190506111105f8301846110ee565b92915050565b5f819050919050565b61112881611116565b8114611132575f5ffd5b50565b5f813590506111438161111f565b92915050565b5f5f6040838503121561115f5761115e61100d565b5b5f61116c8582860161109c565b925050602061117d85828601611135565b9150509250929050565b61119081611030565b82525050565b5f6020820190506111a95f830184611187565b92915050565b5f602082840312156111c4576111c361100d565b5b5f6111d184828501611057565b91505092915050565b7f4e487b71000000000000000000000000000000000000000000000000000000005f52602160045260245ffd5b60058110611218576112176111da565b5b50565b5f81905061122882611207565b919050565b5f6112378261121b565b9050919050565b6112478161122d565b82525050565b5f6020820190506112605f83018461123e565b92915050565b60058110611272575f5ffd5b50565b5f8135905061128381611266565b92915050565b5f5f5f606084860312156112a05761129f61100d565b5b5f6112ad86828701611057565b93505060206112be8682870161109c565b92505060406112cf86828701611275565b9150509250925092565b5f8115159050919050565b6112ed816112d9565b82525050565b5f6020820190506113065f8301846112e4565b92915050565b5f60408201905061131f5f830185611187565b61132c60208301846110ee565b9392505050565b7f4e487b71000000000000000000000000000000000000000000000000000000005f52601160045260245ffd5b5f61136a82611116565b915061137583611116565b925082820390508181111561138d5761138c611333565b5b92915050565b7f4e487b71000000000000000000000000000000000000000000000000000000005f52603260045260245ffd5b5f6113ca82611116565b91506113d583611116565b92508282019050808211156113ed576113ec611333565b5b92915050565b7f4e487b71000000000000000000000000000000000000000000000000000000005f52603160045260245ffd5b5f6040820190506114335f830185611187565b611440602083018461123e565b939250505056fea2646970667358221220239f82d530ae4f497ff87438c37637bcc8daf07952aeb9d3033064ec4067aa2d64736f6c634300081e0033",
					"opcodes": "PUSH1 0x80 PUSH1 0x40 MSTORE CALLVALUE DUP1 ISZERO PUSH1 0xE JUMPI PUSH0 PUSH0 REVERT JUMPDEST POP PUSH2 0x147D DUP1 PUSH2 0x1C PUSH0 CODECOPY PUSH0 RETURN INVALID PUSH1 0x80 PUSH1 0x40 MSTORE CALLVALUE DUP1 ISZERO PUSH2 0xF JUMPI PUSH0 PUSH0 REVERT JUMPDEST POP PUSH1 0x4 CALLDATASIZE LT PUSH2 0x5F JUMPI PUSH0 CALLDATALOAD PUSH1 0xE0 SHR DUP1 PUSH3 0x9D2013 EQ PUSH2 0x63 JUMPI DUP1 PUSH4 0xD889BFA EQ PUSH2 0x7F JUMPI DUP1 PUSH4 0x2253E0F1 EQ PUSH2 0xAF JUMPI DUP1 PUSH4 0x99374642 EQ PUSH2 0xDF JUMPI DUP1 PUSH4 0xADDFA353 EQ PUSH2 0x10F JUMPI DUP1 PUSH4 0xCE4CF9CB EQ PUSH2 0x12B JUMPI JUMPDEST PUSH0 PUSH0 REVERT JUMPDEST PUSH2 0x7D PUSH1 0x4 DUP1 CALLDATASIZE SUB DUP2 ADD SWAP1 PUSH2 0x78 SWAP2 SWAP1 PUSH2 0x10B0 JUMP JUMPDEST PUSH2 0x15B JUMP JUMPDEST STOP JUMPDEST PUSH2 0x99 PUSH1 0x4 DUP1 CALLDATASIZE SUB DUP2 ADD SWAP1 PUSH2 0x94 SWAP2 SWAP1 PUSH2 0x10B0 JUMP JUMPDEST PUSH2 0x748 JUMP JUMPDEST PUSH1 0x40 MLOAD PUSH2 0xA6 SWAP2 SWAP1 PUSH2 0x10FD JUMP JUMPDEST PUSH1 0x40 MLOAD DUP1 SWAP2 SUB SWAP1 RETURN JUMPDEST PUSH2 0xC9 PUSH1 0x4 DUP1 CALLDATASIZE SUB DUP2 ADD SWAP1 PUSH2 0xC4 SWAP2 SWAP1 PUSH2 0x1149 JUMP JUMPDEST PUSH2 0x781 JUMP JUMPDEST PUSH1 0x40 MLOAD PUSH2 0xD6 SWAP2 SWAP1 PUSH2 0x1196 JUMP JUMPDEST PUSH1 0x40 MLOAD DUP1 SWAP2 SUB SWAP1 RETURN JUMPDEST PUSH2 0xF9 PUSH1 0x4 DUP1 CALLDATASIZE SUB DUP2 ADD SWAP1 PUSH2 0xF4 SWAP2 SWAP1 PUSH2 0x11AF JUMP JUMPDEST PUSH2 0x7C9 JUMP JUMPDEST PUSH1 0x40 MLOAD PUSH2 0x106 SWAP2 SWAP1 PUSH2 0x124D JUMP JUMPDEST PUSH1 0x40 MLOAD DUP1 SWAP2 SUB SWAP1 RETURN JUMPDEST PUSH2 0x129 PUSH1 0x4 DUP1 CALLDATASIZE SUB DUP2 ADD SWAP1 PUSH2 0x124 SWAP2 SWAP1 PUSH2 0x1289 JUMP JUMPDEST PUSH2 0x7E5 JUMP JUMPDEST STOP JUMPDEST PUSH2 0x145 PUSH1 0x4 DUP1 CALLDATASIZE SUB DUP2 ADD SWAP1 PUSH2 0x140 SWAP2 SWAP1 PUSH2 0x10B0 JUMP JUMPDEST PUSH2 0xFE3 JUMP JUMPDEST PUSH1 0x40 MLOAD PUSH2 0x152 SWAP2 SWAP1 PUSH2 0x12F3 JUMP JUMPDEST PUSH1 0x40 MLOAD DUP1 SWAP2 SUB SWAP1 RETURN JUMPDEST PUSH1 0x5 PUSH0 SWAP1 SLOAD SWAP1 PUSH2 0x100 EXP SWAP1 DIV PUSH20 0xFFFFFFFFFFFFFFFFFFFFFFFFFFFFFFFFFFFFFFFF AND PUSH20 0xFFFFFFFFFFFFFFFFFFFFFFFFFFFFFFFFFFFFFFFF AND CALLER PUSH20 0xFFFFFFFFFFFFFFFFFFFFFFFFFFFFFFFFFFFFFFFF AND EQ PUSH2 0x1E1 JUMPI PUSH1 0x40 MLOAD PUSH32 0x34620A8200000000000000000000000000000000000000000000000000000000 DUP2 MSTORE PUSH1 0x4 ADD PUSH1 0x40 MLOAD DUP1 SWAP2 SUB SWAP1 REVERT JUMPDEST PUSH1 0x1 PUSH0 DUP4 PUSH20 0xFFFFFFFFFFFFFFFFFFFFFFFFFFFFFFFFFFFFFFFF AND PUSH20 0xFFFFFFFFFFFFFFFFFFFFFFFFFFFFFFFFFFFFFFFF AND DUP2 MSTORE PUSH1 0x20 ADD SWAP1 DUP2 MSTORE PUSH1 0x20 ADD PUSH0 KECCAK256 PUSH0 DUP3 PUSH16 0xFFFFFFFFFFFFFFFFFFFFFFFFFFFFFFFF AND PUSH16 0xFFFFFFFFFFFFFFFFFFFFFFFFFFFFFFFF AND DUP2 MSTORE PUSH1 0x20 ADD SWAP1 DUP2 MSTORE PUSH1 0x20 ADD PUSH0 KECCAK256 PUSH0 SWAP1 SLOAD SWAP1 PUSH2 0x100 EXP SWAP1 DIV PUSH1 0xFF AND PUSH2 0x2A1 JUMPI DUP2 DUP2 PUSH1 0x40 MLOAD PUSH32 0x58CCE33700000000000000000000000000000000000000000000000000000000 DUP2 MSTORE PUSH1 0x4 ADD PUSH2 0x298 SWAP3 SWAP2 SWAP1 PUSH2 0x130C JUMP JUMPDEST PUSH1 0x40 MLOAD DUP1 SWAP2 SUB SWAP1 REVERT JUMPDEST PUSH0 PUSH1 0x4 PUSH0 DUP4 PUSH16 0xFFFFFFFFFFFFFFFFFFFFFFFFFFFFFFFF AND PUSH16 0xFFFFFFFFFFFFFFFFFFFFFFFFFFFFFFFF AND DUP2 MSTORE PUSH1 0x20 ADD SWAP1 DUP2 MSTORE PUSH1 0x20 ADD PUSH0 KECCAK256 PUSH0 DUP5 PUSH20 0xFFFFFFFFFFFFFFFFFFFFFFFFFFFFFFFFFFFFFFFF AND PUSH20 0xFFFFFFFFFFFFFFFFFFFFFFFFFFFFFFFFFFFFFFFF AND DUP2 MSTORE PUSH1 0x20 ADD SWAP1 DUP2 MSTORE PUSH1 0x20 ADD PUSH0 KECCAK256 SLOAD SWAP1 POP PUSH0 DUP2 GT ISZERO PUSH2 0x5E0 JUMPI PUSH0 PUSH1 0x1 DUP3 PUSH2 0x32B SWAP2 SWAP1 PUSH2 0x1360 JUMP JUMPDEST SWAP1 POP PUSH0 PUSH1 0x3 PUSH0 DUP6 PUSH16 0xFFFFFFFFFFFFFFFFFFFFFFFFFFFFFFFF AND PUSH16 0xFFFFFFFFFFFFFFFFFFFFFFFFFFFFFFFF AND DUP2 MSTORE PUSH1 0x20 ADD SWAP1 DUP2 MSTORE PUSH1 0x20 ADD PUSH0 KECCAK256 PUSH1 0x1 PUSH1 0x3 PUSH0 DUP8 PUSH16 0xFFFFFFFFFFFFFFFFFFFFFFFFFFFFFFFF AND PUSH16 0xFFFFFFFFFFFFFFFFFFFFFFFFFFFFFFFF AND DUP2 MSTORE PUSH1 0x20 ADD SWAP1 DUP2 MSTORE PUSH1 0x20 ADD PUSH0 KECCAK256 DUP1 SLOAD SWAP1 POP PUSH2 0x3A8 SWAP2 SWAP1 PUSH2 0x1360 JUMP JUMPDEST DUP2 SLOAD DUP2 LT PUSH2 0x3B9 JUMPI PUSH2 0x3B8 PUSH2 0x1393 JUMP JUMPDEST JUMPDEST SWAP1 PUSH0 MSTORE PUSH1 0x20 PUSH0 KECCAK256 ADD PUSH0 SWAP1 SLOAD SWAP1 PUSH2 0x100 EXP SWAP1 DIV PUSH20 0xFFFFFFFFFFFFFFFFFFFFFFFFFFFFFFFFFFFFFFFF AND SWAP1 POP DUP1 PUSH1 0x3 PUSH0 DUP7 PUSH16 0xFFFFFFFFFFFFFFFFFFFFFFFFFFFFFFFF AND PUSH16 0xFFFFFFFFFFFFFFFFFFFFFFFFFFFFFFFF AND DUP2 MSTORE PUSH1 0x20 ADD SWAP1 DUP2 MSTORE PUSH1 0x20 ADD PUSH0 KECCAK256 DUP4 DUP2 SLOAD DUP2 LT PUSH2 0x42B JUMPI PUSH2 0x42A PUSH2 0x1393 JUMP JUMPDEST JUMPDEST SWAP1 PUSH0 MSTORE PUSH1 0x20 PUSH0 KECCAK256 ADD PUSH0 PUSH2 0x100 EXP DUP2 SLOAD DUP2 PUSH20 0xFFFFFFFFFFFFFFFFFFFFFFFFFFFFFFFFFFFFFFFF MUL NOT AND SWAP1 DUP4 PUSH20 0xFFFFFFFFFFFFFFFFFFFFFFFFFFFFFFFFFFFFFFFF AND MUL OR SWAP1 SSTORE POP PUSH1 0x1 DUP3 PUSH2 0x47D SWAP2 SWAP1 PUSH2 0x13C0 JUMP JUMPDEST PUSH1 0x4 PUSH0 DUP7 PUSH16 0xFFFFFFFFFFFFFFFFFFFFFFFFFFFFFFFF AND PUSH16 0xFFFFFFFFFFFFFFFFFFFFFFFFFFFFFFFF AND DUP2 MSTORE PUSH1 0x20 ADD SWAP1 DUP2 MSTORE PUSH1 0x20 ADD PUSH0 KECCAK256 PUSH0 DUP4 PUSH20 0xFFFFFFFFFFFFFFFFFFFFFFFFFFFFFFFFFFFFFFFF AND PUSH20 0xFFFFFFFFFFFFFFFFFFFFFFFFFFFFFFFFFFFFFFFF AND DUP2 MSTORE PUSH1 0x20 ADD SWAP1 DUP2 MSTORE PUSH1 0x20 ADD PUSH0 KECCAK256 DUP2 SWAP1 SSTORE POP PUSH1 0x3 PUSH0 DUP6 PUSH16 0xFFFFFFFFFFFFFFFFFFFFFFFFFFFFFFFF AND PUSH16 0xFFFFFFFFFFFFFFFFFFFFFFFFFFFFFFFF AND DUP2 MSTORE PUSH1 0x20 ADD SWAP1 DUP2 MSTORE PUSH1 0x20 ADD PUSH0 KECCAK256 DUP1 SLOAD DUP1 PUSH2 0x536 JUMPI PUSH2 0x535 PUSH2 0x13F3 JUMP JUMPDEST JUMPDEST PUSH1 0x1 SWAP1 SUB DUP2 DUP2 SWAP1 PUSH0 MSTORE PUSH1 0x20 PUSH0 KECCAK256 ADD PUSH0 PUSH2 0x100 EXP DUP2 SLOAD SWAP1 PUSH20 0xFFFFFFFFFFFFFFFFFFFFFFFFFFFFFFFFFFFFFFFF MUL NOT AND SWAP1 SSTORE SWAP1 SSTORE PUSH0 PUSH1 0x4 PUSH0 DUP7 PUSH16 0xFFFFFFFFFFFFFFFFFFFFFFFFFFFFFFFF AND PUSH16 0xFFFFFFFFFFFFFFFFFFFFFFFFFFFFFFFF AND DUP2 MSTORE PUSH1 0x20 ADD SWAP1 DUP2 MSTORE PUSH1 0x20 ADD PUSH0 KECCAK256 PUSH0 DUP8 PUSH20 0xFFFFFFFFFFFFFFFFFFFFFFFFFFFFFFFFFFFFFFFF AND PUSH20 0xFFFFFFFFFFFFFFFFFFFFFFFFFFFFFFFFFFFFFFFF AND DUP2 MSTORE PUSH1 0x20 ADD SWAP1 DUP2 MSTORE PUSH1 0x20 ADD PUSH0 KECCAK256 DUP2 SWAP1 SSTORE POP POP POP JUMPDEST PUSH1 0x1 PUSH0 DUP5 PUSH20 0xFFFFFFFFFFFFFFFFFFFFFFFFFFFFFFFFFFFFFFFF AND PUSH20 0xFFFFFFFFFFFFFFFFFFFFFFFFFFFFFFFFFFFFFFFF AND DUP2 MSTORE PUSH1 0x20 ADD SWAP1 DUP2 MSTORE PUSH1 0x20 ADD PUSH0 KECCAK256 PUSH0 DUP4 PUSH16 0xFFFFFFFFFFFFFFFFFFFFFFFFFFFFFFFF AND PUSH16 0xFFFFFFFFFFFFFFFFFFFFFFFFFFFFFFFF AND DUP2 MSTORE PUSH1 0x20 ADD SWAP1 DUP2 MSTORE PUSH1 0x20 ADD PUSH0 KECCAK256 PUSH0 PUSH2 0x100 EXP DUP2 SLOAD SWAP1 PUSH1 0xFF MUL NOT AND SWAP1 SSTORE PUSH1 0x2 PUSH0 DUP5 PUSH20 0xFFFFFFFFFFFFFFFFFFFFFFFFFFFFFFFFFFFFFFFF AND PUSH20 0xFFFFFFFFFFFFFFFFFFFFFFFFFFFFFFFFFFFFFFFF AND DUP2 MSTORE PUSH1 0x20 ADD SWAP1 DUP2 MSTORE PUSH1 0x20 ADD PUSH0 KECCAK256 PUSH0 DUP4 PUSH16 0xFFFFFFFFFFFFFFFFFFFFFFFFFFFFFFFF AND PUSH16 0xFFFFFFFFFFFFFFFFFFFFFFFFFFFFFFFF AND DUP2 MSTORE PUSH1 0x20 ADD SWAP1 DUP2 MSTORE PUSH1 0x20 ADD PUSH0 KECCAK256 PUSH0 PUSH2 0x100 EXP DUP2 SLOAD SWAP1 PUSH16 0xFFFFFFFFFFFFFFFFFFFFFFFFFFFFFFFF MUL NOT AND SWAP1 SSTORE DUP2 PUSH16 0xFFFFFFFFFFFFFFFFFFFFFFFFFFFFFFFF AND DUP4 PUSH20 0xFFFFFFFFFFFFFFFFFFFFFFFFFFFFFFFFFFFFFFFF AND PUSH32 0x2091A7A9F4BD1D3537C45C3143A470B7C349709A4B0B9E9B2A8F3E37C9DE0E25 PUSH1 0x40 MLOAD PUSH1 0x40 MLOAD DUP1 SWAP2 SUB SWAP1 LOG3 POP POP POP JUMP JUMPDEST PUSH1 0x2 PUSH1 0x20 MSTORE DUP2 PUSH0 MSTORE PUSH1 0x40 PUSH0 KECCAK256 PUSH1 0x20 MSTORE DUP1 PUSH0 MSTORE PUSH1 0x40 PUSH0 KECCAK256 PUSH0 SWAP2 POP SWAP2 POP SWAP1 SLOAD SWAP1 PUSH2 0x100 EXP SWAP1 DIV PUSH16 0xFFFFFFFFFFFFFFFFFFFFFFFFFFFFFFFF AND DUP2 JUMP JUMPDEST PUSH1 0x3 PUSH1 0x20 MSTORE DUP2 PUSH0 MSTORE PUSH1 0x40 PUSH0 KECCAK256 DUP2 DUP2 SLOAD DUP2 LT PUSH2 0x79A JUMPI PUSH0 DUP1 REVERT JUMPDEST SWAP1 PUSH0 MSTORE PUSH1 0x20 PUSH0 KECCAK256 ADD PUSH0 SWAP2 POP SWAP2 POP SWAP1 SLOAD SWAP1 PUSH2 0x100 EXP SWAP1 DIV PUSH20 0xFFFFFFFFFFFFFFFFFFFFFFFFFFFFFFFFFFFFFFFF AND DUP2 JUMP JUMPDEST PUSH0 PUSH1 0x20 MSTORE DUP1 PUSH0 MSTORE PUSH1 0x40 PUSH0 KECCAK256 PUSH0 SWAP2 POP SLOAD SWAP1 PUSH2 0x100 EXP SWAP1 DIV PUSH1 0xFF AND DUP2 JUMP JUMPDEST PUSH1 0x5 PUSH0 SWAP1 SLOAD SWAP1 PUSH2 0x100 EXP SWAP1 DIV PUSH20 0xFFFFFFFFFFFFFFFFFFFFFFFFFFFFFFFFFFFFFFFF AND PUSH20 0xFFFFFFFFFFFFFFFFFFFFFFFFFFFFFFFFFFFFFFFF AND CALLER PUSH20 0xFFFFFFFFFFFFFFFFFFFFFFFFFFFFFFFFFFFFFFFF AND EQ PUSH2 0x86B JUMPI PUSH1 0x40 MLOAD PUSH32 0x34620A8200000000000000000000000000000000000000000000000000000000 DUP2 MSTORE PUSH1 0x4 ADD PUSH1 0x40 MLOAD DUP1 SWAP2 SUB SWAP1 REVERT JUMPDEST PUSH1 0x3 PUSH1 0x4 DUP2 GT ISZERO PUSH2 0x87F JUMPI PUSH2 0x87E PUSH2 0x11DA JUMP JUMPDEST JUMPDEST DUP2 PUSH1 0x4 DUP2 GT ISZERO PUSH2 0x892 JUMPI PUSH2 0x891 PUSH2 0x11DA JUMP JUMPDEST JUMPDEST EQ ISZERO DUP1 ISZERO PUSH2 0x8C4 JUMPI POP PUSH1 0x4 DUP1 DUP2 GT ISZERO PUSH2 0x8AE JUMPI PUSH2 0x8AD PUSH2 0x11DA JUMP JUMPDEST JUMPDEST DUP2 PUSH1 0x4 DUP2 GT ISZERO PUSH2 0x8C1 JUMPI PUSH2 0x8C0 PUSH2 0x11DA JUMP JUMPDEST JUMPDEST EQ ISZERO JUMPDEST ISZERO PUSH2 0x908 JUMPI DUP3 DUP2 PUSH1 0x40 MLOAD PUSH32 0x8B83329200000000000000000000000000000000000000000000000000000000 DUP2 MSTORE PUSH1 0x4 ADD PUSH2 0x8FF SWAP3 SWAP2 SWAP1 PUSH2 0x1420 JUMP JUMPDEST PUSH1 0x40 MLOAD DUP1 SWAP2 SUB SWAP1 REVERT JUMPDEST PUSH0 DUP3 PUSH16 0xFFFFFFFFFFFFFFFFFFFFFFFFFFFFFFFF AND SUB PUSH2 0x953 JUMPI PUSH1 0x40 MLOAD PUSH32 0xD2AFF19C00000000000000000000000000000000000000000000000000000000 DUP2 MSTORE PUSH1 0x4 ADD PUSH1 0x40 MLOAD DUP1 SWAP2 SUB SWAP1 REVERT JUMPDEST PUSH0 PUSH1 0x4 DUP2 GT ISZERO PUSH2 0x966 JUMPI PUSH2 0x965 PUSH2 0x11DA JUMP JUMPDEST JUMPDEST PUSH0 PUSH0 DUP6 PUSH20 0xFFFFFFFFFFFFFFFFFFFFFFFFFFFFFFFFFFFFFFFF AND PUSH20 0xFFFFFFFFFFFFFFFFFFFFFFFFFFFFFFFFFFFFFFFF AND DUP2 MSTORE PUSH1 0x20 ADD SWAP1 DUP2 MSTORE PUSH1 0x20 ADD PUSH0 KECCAK256 PUSH0 SWAP1 SLOAD SWAP1 PUSH2 0x100 EXP SWAP1 DIV PUSH1 0xFF AND PUSH1 0x4 DUP2 GT ISZERO PUSH2 0x9C1 JUMPI PUSH2 0x9C0 PUSH2 0x11DA JUMP JUMPDEST JUMPDEST EQ DUP1 PUSH2 0xAB2 JUMPI POP PUSH1 0x3 PUSH1 0x4 DUP2 GT ISZERO PUSH2 0x9DC JUMPI PUSH2 0x9DB PUSH2 0x11DA JUMP JUMPDEST JUMPDEST PUSH0 PUSH0 DUP6 PUSH20 0xFFFFFFFFFFFFFFFFFFFFFFFFFFFFFFFFFFFFFFFF AND PUSH20 0xFFFFFFFFFFFFFFFFFFFFFFFFFFFFFFFFFFFFFFFF AND DUP2 MSTORE PUSH1 0x20 ADD SWAP1 DUP2 MSTORE PUSH1 0x20 ADD PUSH0 KECCAK256 PUSH0 SWAP1 SLOAD SWAP1 PUSH2 0x100 EXP SWAP1 DIV PUSH1 0xFF AND PUSH1 0x4 DUP2 GT ISZERO PUSH2 0xA37 JUMPI PUSH2 0xA36 PUSH2 0x11DA JUMP JUMPDEST JUMPDEST EQ ISZERO DUP1 ISZERO PUSH2 0xAB1 JUMPI POP PUSH1 0x4 DUP1 DUP2 GT ISZERO PUSH2 0xA53 JUMPI PUSH2 0xA52 PUSH2 0x11DA JUMP JUMPDEST JUMPDEST PUSH0 PUSH0 DUP6 PUSH20 0xFFFFFFFFFFFFFFFFFFFFFFFFFFFFFFFFFFFFFFFF AND PUSH20 0xFFFFFFFFFFFFFFFFFFFFFFFFFFFFFFFFFFFFFFFF AND DUP2 MSTORE PUSH1 0x20 ADD SWAP1 DUP2 MSTORE PUSH1 0x20 ADD PUSH0 KECCAK256 PUSH0 SWAP1 SLOAD SWAP1 PUSH2 0x100 EXP SWAP1 DIV PUSH1 0xFF AND PUSH1 0x4 DUP2 GT ISZERO PUSH2 0xAAE JUMPI PUSH2 0xAAD PUSH2 0x11DA JUMP JUMPDEST JUMPDEST EQ ISZERO JUMPDEST JUMPDEST ISZERO PUSH2 0xB75 JUMPI DUP1 PUSH0 PUSH0 DUP6 PUSH20 0xFFFFFFFFFFFFFFFFFFFFFFFFFFFFFFFFFFFFFFFF AND PUSH20 0xFFFFFFFFFFFFFFFFFFFFFFFFFFFFFFFFFFFFFFFF AND DUP2 MSTORE PUSH1 0x20 ADD SWAP1 DUP2 MSTORE PUSH1 0x20 ADD PUSH0 KECCAK256 PUSH0 PUSH2 0x100 EXP DUP2 SLOAD DUP2 PUSH1 0xFF MUL NOT AND SWAP1 DUP4 PUSH1 0x4 DUP2 GT ISZERO PUSH2 0xB15 JUMPI PUSH2 0xB14 PUSH2 0x11DA JUMP JUMPDEST JUMPDEST MUL OR SWAP1 SSTORE POP DUP1 PUSH1 0x4 DUP2 GT ISZERO PUSH2 0xB2D JUMPI PUSH2 0xB2C PUSH2 0x11DA JUMP JUMPDEST JUMPDEST DUP4 PUSH20 0xFFFFFFFFFFFFFFFFFFFFFFFFFFFFFFFFFFFFFFFF AND PUSH32 0xAA259565575C834BC07E74DCA784B4071676133AC78513B431AFB6EE7EDAE121 PUSH1 0x40 MLOAD PUSH1 0x40 MLOAD DUP1 SWAP2 SUB SWAP1 LOG3 PUSH2 0xCA3 JUMP JUMPDEST DUP1 PUSH1 0x4 DUP2 GT ISZERO PUSH2 0xB88 JUMPI PUSH2 0xB87 PUSH2 0x11DA JUMP JUMPDEST JUMPDEST PUSH0 PUSH0 DUP6 PUSH20 0xFFFFFFFFFFFFFFFFFFFFFFFFFFFFFFFFFFFFFFFF AND PUSH20 0xFFFFFFFFFFFFFFFFFFFFFFFFFFFFFFFFFFFFFFFF AND DUP2 MSTORE PUSH1 0x20 ADD SWAP1 DUP2 MSTORE PUSH1 0x20 ADD PUSH0 KECCAK256 PUSH0 SWAP1 SLOAD SWAP1 PUSH2 0x100 EXP SWAP1 DIV PUSH1 0xFF AND PUSH1 0x4 DUP2 GT ISZERO PUSH2 0xBE3 JUMPI PUSH2 0xBE2 PUSH2 0x11DA JUMP JUMPDEST JUMPDEST EQ PUSH2 0xCA2 JUMPI DUP1 PUSH0 PUSH0 DUP6 PUSH20 0xFFFFFFFFFFFFFFFFFFFFFFFFFFFFFFFFFFFFFFFF AND PUSH20 0xFFFFFFFFFFFFFFFFFFFFFFFFFFFFFFFFFFFFFFFF AND DUP2 MSTORE PUSH1 0x20 ADD SWAP1 DUP2 MSTORE PUSH1 0x20 ADD PUSH0 KECCAK256 PUSH0 PUSH2 0x100 EXP DUP2 SLOAD DUP2 PUSH1 0xFF MUL NOT AND SWAP1 DUP4 PUSH1 0x4 DUP2 GT ISZERO PUSH2 0xC46 JUMPI PUSH2 0xC45 PUSH2 0x11DA JUMP JUMPDEST JUMPDEST MUL OR SWAP1 SSTORE POP DUP1 PUSH1 0x4 DUP2 GT ISZERO PUSH2 0xC5E JUMPI PUSH2 0xC5D PUSH2 0x11DA JUMP JUMPDEST JUMPDEST DUP4 PUSH20 0xFFFFFFFFFFFFFFFFFFFFFFFFFFFFFFFFFFFFFFFF AND PUSH32 0xAA259565575C834BC07E74DCA784B4071676133AC78513B431AFB6EE7EDAE121 PUSH1 0x40 MLOAD PUSH1 0x40 MLOAD DUP1 SWAP2 SUB SWAP1 LOG3 JUMPDEST JUMPDEST PUSH0 PUSH1 0x4 PUSH0 DUP5 PUSH16 0xFFFFFFFFFFFFFFFFFFFFFFFFFFFFFFFF AND PUSH16 0xFFFFFFFFFFFFFFFFFFFFFFFFFFFFFFFF AND DUP2 MSTORE PUSH1 0x20 ADD SWAP1 DUP2 MSTORE PUSH1 0x20 ADD PUSH0 KECCAK256 PUSH0 DUP6 PUSH20 0xFFFFFFFFFFFFFFFFFFFFFFFFFFFFFFFFFFFFFFFF AND PUSH20 0xFFFFFFFFFFFFFFFFFFFFFFFFFFFFFFFFFFFFFFFF AND DUP2 MSTORE PUSH1 0x20 ADD SWAP1 DUP2 MSTORE PUSH1 0x20 ADD PUSH0 KECCAK256 SLOAD SUB PUSH2 0xE5B JUMPI PUSH1 0x3 PUSH0 DUP4 PUSH16 0xFFFFFFFFFFFFFFFFFFFFFFFFFFFFFFFF AND PUSH16 0xFFFFFFFFFFFFFFFFFFFFFFFFFFFFFFFF AND DUP2 MSTORE PUSH1 0x20 ADD SWAP1 DUP2 MSTORE PUSH1 0x20 ADD PUSH0 KECCAK256 DUP4 SWAP1 DUP1 PUSH1 0x1 DUP2 SLOAD ADD DUP1 DUP3 SSTORE DUP1 SWAP2 POP POP PUSH1 0x1 SWAP1 SUB SWAP1 PUSH0 MSTORE PUSH1 0x20 PUSH0 KECCAK256 ADD PUSH0 SWAP1 SWAP2 SWAP1 SWAP2 SWAP1 SWAP2 PUSH2 0x100 EXP DUP2 SLOAD DUP2 PUSH20 0xFFFFFFFFFFFFFFFFFFFFFFFFFFFFFFFFFFFFFFFF MUL NOT AND SWAP1 DUP4 PUSH20 0xFFFFFFFFFFFFFFFFFFFFFFFFFFFFFFFFFFFFFFFF AND MUL OR SWAP1 SSTORE POP PUSH1 0x3 PUSH0 DUP4 PUSH16 0xFFFFFFFFFFFFFFFFFFFFFFFFFFFFFFFF AND PUSH16 0xFFFFFFFFFFFFFFFFFFFFFFFFFFFFFFFF AND DUP2 MSTORE PUSH1 0x20 ADD SWAP1 DUP2 MSTORE PUSH1 0x20 ADD PUSH0 KECCAK256 DUP1 SLOAD SWAP1 POP PUSH1 0x4 PUSH0 DUP5 PUSH16 0xFFFFFFFFFFFFFFFFFFFFFFFFFFFFFFFF AND PUSH16 0xFFFFFFFFFFFFFFFFFFFFFFFFFFFFFFFF AND DUP2 MSTORE PUSH1 0x20 ADD SWAP1 DUP2 MSTORE PUSH1 0x20 ADD PUSH0 KECCAK256 PUSH0 DUP6 PUSH20 0xFFFFFFFFFFFFFFFFFFFFFFFFFFFFFFFFFFFFFFFF AND PUSH20 0xFFFFFFFFFFFFFFFFFFFFFFFFFFFFFFFFFFFFFFFF AND DUP2 MSTORE PUSH1 0x20 ADD SWAP1 DUP2 MSTORE PUSH1 0x20 ADD PUSH0 KECCAK256 DUP2 SWAP1 SSTORE POP JUMPDEST PUSH1 0x1 DUP1 PUSH0 DUP6 PUSH20 0xFFFFFFFFFFFFFFFFFFFFFFFFFFFFFFFFFFFFFFFF AND PUSH20 0xFFFFFFFFFFFFFFFFFFFFFFFFFFFFFFFFFFFFFFFF AND DUP2 MSTORE PUSH1 0x20 ADD SWAP1 DUP2 MSTORE PUSH1 0x20 ADD PUSH0 KECCAK256 PUSH0 DUP5 PUSH16 0xFFFFFFFFFFFFFFFFFFFFFFFFFFFFFFFF AND PUSH16 0xFFFFFFFFFFFFFFFFFFFFFFFFFFFFFFFF AND DUP2 MSTORE PUSH1 0x20 ADD SWAP1 DUP2 MSTORE PUSH1 0x20 ADD PUSH0 KECCAK256 PUSH0 PUSH2 0x100 EXP DUP2 SLOAD DUP2 PUSH1 0xFF MUL NOT AND SWAP1 DUP4 ISZERO ISZERO MUL OR SWAP1 SSTORE POP TIMESTAMP PUSH1 0x2 PUSH0 DUP6 PUSH20 0xFFFFFFFFFFFFFFFFFFFFFFFFFFFFFFFFFFFFFFFF AND PUSH20 0xFFFFFFFFFFFFFFFFFFFFFFFFFFFFFFFFFFFFFFFF AND DUP2 MSTORE PUSH1 0x20 ADD SWAP1 DUP2 MSTORE PUSH1 0x20 ADD PUSH0 KECCAK256 PUSH0 DUP5 PUSH16 0xFFFFFFFFFFFFFFFFFFFFFFFFFFFFFFFF AND PUSH16 0xFFFFFFFFFFFFFFFFFFFFFFFFFFFFFFFF AND DUP2 MSTORE PUSH1 0x20 ADD SWAP1 DUP2 MSTORE PUSH1 0x20 ADD PUSH0 KECCAK256 PUSH0 PUSH2 0x100 EXP DUP2 SLOAD DUP2 PUSH16 0xFFFFFFFFFFFFFFFFFFFFFFFFFFFFFFFF MUL NOT AND SWAP1 DUP4 PUSH16 0xFFFFFFFFFFFFFFFFFFFFFFFFFFFFFFFF AND MUL OR SWAP1 SSTORE POP DUP2 PUSH16 0xFFFFFFFFFFFFFFFFFFFFFFFFFFFFFFFF AND DUP4 PUSH20 0xFFFFFFFFFFFFFFFFFFFFFFFFFFFFFFFFFFFFFFFF AND PUSH32 0xA7A040419689AC3001A2B7E46B4CC55AA49833559239A3D51E72E097CD28A98F PUSH1 0x40 MLOAD PUSH1 0x40 MLOAD DUP1 SWAP2 SUB SWAP1 LOG3 POP POP POP JUMP JUMPDEST PUSH1 0x1 PUSH1 0x20 MSTORE DUP2 PUSH0 MSTORE PUSH1 0x40 PUSH0 KECCAK256 PUSH1 0x20 MSTORE DUP1 PUSH0 MSTORE PUSH1 0x40 PUSH0 KECCAK256 PUSH0 SWAP2 POP SWAP2 POP SWAP1 SLOAD SWAP1 PUSH2 0x100 EXP SWAP1 DIV PUSH1 0xFF AND DUP2 JUMP JUMPDEST PUSH0 PUSH0 REVERT JUMPDEST PUSH0 PUSH20 0xFFFFFFFFFFFFFFFFFFFFFFFFFFFFFFFFFFFFFFFF DUP3 AND SWAP1 POP SWAP2 SWAP1 POP JUMP JUMPDEST PUSH0 PUSH2 0x103A DUP3 PUSH2 0x1011 JUMP JUMPDEST SWAP1 POP SWAP2 SWAP1 POP JUMP JUMPDEST PUSH2 0x104A DUP2 PUSH2 0x1030 JUMP JUMPDEST DUP2 EQ PUSH2 0x1054 JUMPI PUSH0 PUSH0 REVERT JUMPDEST POP JUMP JUMPDEST PUSH0 DUP2 CALLDATALOAD SWAP1 POP PUSH2 0x1065 DUP2 PUSH2 0x1041 JUMP JUMPDEST SWAP3 SWAP2 POP POP JUMP JUMPDEST PUSH0 PUSH16 0xFFFFFFFFFFFFFFFFFFFFFFFFFFFFFFFF DUP3 AND SWAP1 POP SWAP2 SWAP1 POP JUMP JUMPDEST PUSH2 0x108F DUP2 PUSH2 0x106B JUMP JUMPDEST DUP2 EQ PUSH2 0x1099 JUMPI PUSH0 PUSH0 REVERT JUMPDEST POP JUMP JUMPDEST PUSH0 DUP2 CALLDATALOAD SWAP1 POP PUSH2 0x10AA DUP2 PUSH2 0x1086 JUMP JUMPDEST SWAP3 SWAP2 POP POP JUMP JUMPDEST PUSH0 PUSH0 PUSH1 0x40 DUP4 DUP6 SUB SLT ISZERO PUSH2 0x10C6 JUMPI PUSH2 0x10C5 PUSH2 0x100D JUMP JUMPDEST JUMPDEST PUSH0 PUSH2 0x10D3 DUP6 DUP3 DUP7 ADD PUSH2 0x1057 JUMP JUMPDEST SWAP3 POP POP PUSH1 0x20 PUSH2 0x10E4 DUP6 DUP3 DUP7 ADD PUSH2 0x109C JUMP JUMPDEST SWAP2 POP POP SWAP3 POP SWAP3 SWAP1 POP JUMP JUMPDEST PUSH2 0x10F7 DUP2 PUSH2 0x106B JUMP JUMPDEST DUP3 MSTORE POP POP JUMP JUMPDEST PUSH0 PUSH1 0x20 DUP3 ADD SWAP1 POP PUSH2 0x1110 PUSH0 DUP4 ADD DUP5 PUSH2 0x10EE JUMP JUMPDEST SWAP3 SWAP2 POP POP JUMP JUMPDEST PUSH0 DUP2 SWAP1 POP SWAP2 SWAP1 POP JUMP JUMPDEST PUSH2 0x1128 DUP2 PUSH2 0x1116 JUMP JUMPDEST DUP2 EQ PUSH2 0x1132 JUMPI PUSH0 PUSH0 REVERT JUMPDEST POP JUMP JUMPDEST PUSH0 DUP2 CALLDATALOAD SWAP1 POP PUSH2 0x1143 DUP2 PUSH2 0x111F JUMP JUMPDEST SWAP3 SWAP2 POP POP JUMP JUMPDEST PUSH0 PUSH0 PUSH1 0x40 DUP4 DUP6 SUB SLT ISZERO PUSH2 0x115F JUMPI PUSH2 0x115E PUSH2 0x100D JUMP JUMPDEST JUMPDEST PUSH0 PUSH2 0x116C DUP6 DUP3 DUP7 ADD PUSH2 0x109C JUMP JUMPDEST SWAP3 POP POP PUSH1 0x20 PUSH2 0x117D DUP6 DUP3 DUP7 ADD PUSH2 0x1135 JUMP JUMPDEST SWAP2 POP POP SWAP3 POP SWAP3 SWAP1 POP JUMP JUMPDEST PUSH2 0x1190 DUP2 PUSH2 0x1030 JUMP JUMPDEST DUP3 MSTORE POP POP JUMP JUMPDEST PUSH0 PUSH1 0x20 DUP3 ADD SWAP1 POP PUSH2 0x11A9 PUSH0 DUP4 ADD DUP5 PUSH2 0x1187 JUMP JUMPDEST SWAP3 SWAP2 POP POP JUMP JUMPDEST PUSH0 PUSH1 0x20 DUP3 DUP5 SUB SLT ISZERO PUSH2 0x11C4 JUMPI PUSH2 0x11C3 PUSH2 0x100D JUMP JUMPDEST JUMPDEST PUSH0 PUSH2 0x11D1 DUP5 DUP3 DUP6 ADD PUSH2 0x1057 JUMP JUMPDEST SWAP2 POP POP SWAP3 SWAP2 POP POP JUMP JUMPDEST PUSH32 0x4E487B7100000000000000000000000000000000000000000000000000000000 PUSH0 MSTORE PUSH1 0x21 PUSH1 0x4 MSTORE PUSH1 0x24 PUSH0 REVERT JUMPDEST PUSH1 0x5 DUP2 LT PUSH2 0x1218 JUMPI PUSH2 0x1217 PUSH2 0x11DA JUMP JUMPDEST JUMPDEST POP JUMP JUMPDEST PUSH0 DUP2 SWAP1 POP PUSH2 0x1228 DUP3 PUSH2 0x1207 JUMP JUMPDEST SWAP2 SWAP1 POP JUMP JUMPDEST PUSH0 PUSH2 0x1237 DUP3 PUSH2 0x121B JUMP JUMPDEST SWAP1 POP SWAP2 SWAP1 POP JUMP JUMPDEST PUSH2 0x1247 DUP2 PUSH2 0x122D JUMP JUMPDEST DUP3 MSTORE POP POP JUMP JUMPDEST PUSH0 PUSH1 0x20 DUP3 ADD SWAP1 POP PUSH2 0x1260 PUSH0 DUP4 ADD DUP5 PUSH2 0x123E JUMP JUMPDEST SWAP3 SWAP2 POP POP JUMP JUMPDEST PUSH1 0x5 DUP2 LT PUSH2 0x1272 JUMPI PUSH0 PUSH0 REVERT JUMPDEST POP JUMP JUMPDEST PUSH0 DUP2 CALLDATALOAD SWAP1 POP PUSH2 0x1283 DUP2 PUSH2 0x1266 JUMP JUMPDEST SWAP3 SWAP2 POP POP JUMP JUMPDEST PUSH0 PUSH0 PUSH0 PUSH1 0x60 DUP5 DUP7 SUB SLT ISZERO PUSH2 0x12A0 JUMPI PUSH2 0x129F PUSH2 0x100D JUMP JUMPDEST JUMPDEST PUSH0 PUSH2 0x12AD DUP7 DUP3 DUP8 ADD PUSH2 0x1057 JUMP JUMPDEST SWAP4 POP POP PUSH1 0x20 PUSH2 0x12BE DUP7 DUP3 DUP8 ADD PUSH2 0x109C JUMP JUMPDEST SWAP3 POP POP PUSH1 0x40 PUSH2 0x12CF DUP7 DUP3 DUP8 ADD PUSH2 0x1275 JUMP JUMPDEST SWAP2 POP POP SWAP3 POP SWAP3 POP SWAP3 JUMP JUMPDEST PUSH0 DUP2 ISZERO ISZERO SWAP1 POP SWAP2 SWAP1 POP JUMP JUMPDEST PUSH2 0x12ED DUP2 PUSH2 0x12D9 JUMP JUMPDEST DUP3 MSTORE POP POP JUMP JUMPDEST PUSH0 PUSH1 0x20 DUP3 ADD SWAP1 POP PUSH2 0x1306 PUSH0 DUP4 ADD DUP5 PUSH2 0x12E4 JUMP JUMPDEST SWAP3 SWAP2 POP POP JUMP JUMPDEST PUSH0 PUSH1 0x40 DUP3 ADD SWAP1 POP PUSH2 0x131F PUSH0 DUP4 ADD DUP6 PUSH2 0x1187 JUMP JUMPDEST PUSH2 0x132C PUSH1 0x20 DUP4 ADD DUP5 PUSH2 0x10EE JUMP JUMPDEST SWAP4 SWAP3 POP POP POP JUMP JUMPDEST PUSH32 0x4E487B7100000000000000000000000000000000000000000000000000000000 PUSH0 MSTORE PUSH1 0x11 PUSH1 0x4 MSTORE PUSH1 0x24 PUSH0 REVERT JUMPDEST PUSH0 PUSH2 0x136A DUP3 PUSH2 0x1116 JUMP JUMPDEST SWAP2 POP PUSH2 0x1375 DUP4 PUSH2 0x1116 JUMP JUMPDEST SWAP3 POP DUP3 DUP3 SUB SWAP1 POP DUP2 DUP2 GT ISZERO PUSH2 0x138D JUMPI PUSH2 0x138C PUSH2 0x1333 JUMP JUMPDEST JUMPDEST SWAP3 SWAP2 POP POP JUMP JUMPDEST PUSH32 0x4E487B7100000000000000000000000000000000000000000000000000000000 PUSH0 MSTORE PUSH1 0x32 PUSH1 0x4 MSTORE PUSH1 0x24 PUSH0 REVERT JUMPDEST PUSH0 PUSH2 0x13CA DUP3 PUSH2 0x1116 JUMP JUMPDEST SWAP2 POP PUSH2 0x13D5 DUP4 PUSH2 0x1116 JUMP JUMPDEST SWAP3 POP DUP3 DUP3 ADD SWAP1 POP DUP1 DUP3 GT ISZERO PUSH2 0x13ED JUMPI PUSH2 0x13EC PUSH2 0x1333 JUMP JUMPDEST JUMPDEST SWAP3 SWAP2 POP POP JUMP JUMPDEST PUSH32 0x4E487B7100000000000000000000000000000000000000000000000000000000 PUSH0 MSTORE PUSH1 0x31 PUSH1 0x4 MSTORE PUSH1 0x24 PUSH0 REVERT JUMPDEST PUSH0 PUSH1 0x40 DUP3 ADD SWAP1 POP PUSH2 0x1433 PUSH0 DUP4 ADD DUP6 PUSH2 0x1187 JUMP JUMPDEST PUSH2 0x1440 PUSH1 0x20 DUP4 ADD DUP5 PUSH2 0x123E JUMP JUMPDEST SWAP4 SWAP3 POP POP POP JUMP INVALID LOG2 PUSH5 0x6970667358 0x22 SLT KECCAK256 0x23 SWAP16 DUP3 0xD5 ADDRESS 0xAE 0x4F BLOBHASH PUSH32 0xF87438C37637BCC8DAF07952AEB9D3033064EC4067AA2D64736F6C634300081E STOP CALLER "
				},
				"gasEstimates": {
					"creation": {
						"codeDepositCost": "1049000",
						"executionCost": "1085",
						"totalCost": "1050085"
					},
					"external": {
						"assignStaffToRestaurant(address,uint128,uint8)": "infinite",
						"removeStaffFromRestaurant(address,uint128)": "infinite",
						"roles(address)": "2964",
						"staffAssignmentDates(address,uint128)": "infinite",
						"staffAssignments(address,uint128)": "3164",
						"staffListByRestaurant(uint128,uint256)": "5209"
					},
					"internal": {
						"_getStaffAddressesForRestaurantInternal(uint128)": "infinite",
						"_getStaffAssignmentDateInternal(address,uint128)": "infinite",
						"_grantRoleInternal(address,enum Role)": "infinite",
						"_isStaffOfRestaurant(address,uint128)": "infinite",
						"_revokeRoleInternal(address)": "infinite",
						"initializeRoles(address)": "infinite"
					}
				},
				"methodIdentifiers": {
					"assignStaffToRestaurant(address,uint128,uint8)": "addfa353",
					"removeStaffFromRestaurant(address,uint128)": "009d2013",
					"roles(address)": "99374642",
					"staffAssignmentDates(address,uint128)": "0d889bfa",
					"staffAssignments(address,uint128)": "ce4cf9cb",
					"staffListByRestaurant(uint128,uint256)": "2253e0f1"
				}
			},
			"storageLayout": {
				"storage": [
					{
						"astId": 33,
						"contract": "access/RoleAccess.sol:RoleAccess",
						"label": "roles",
						"offset": 0,
						"slot": "0",
						"type": "t_mapping(t_address,t_enum(Role)544)"
					},
					{
						"astId": 39,
						"contract": "access/RoleAccess.sol:RoleAccess",
						"label": "staffAssignments",
						"offset": 0,
						"slot": "1",
						"type": "t_mapping(t_address,t_mapping(t_uint128,t_bool))"
					},
					{
						"astId": 45,
						"contract": "access/RoleAccess.sol:RoleAccess",
						"label": "staffAssignmentDates",
						"offset": 0,
						"slot": "2",
						"type": "t_mapping(t_address,t_mapping(t_uint128,t_uint128))"
					},
					{
						"astId": 50,
						"contract": "access/RoleAccess.sol:RoleAccess",
						"label": "staffListByRestaurant",
						"offset": 0,
						"slot": "3",
						"type": "t_mapping(t_uint128,t_array(t_address)dyn_storage)"
					},
					{
						"astId": 56,
						"contract": "access/RoleAccess.sol:RoleAccess",
						"label": "staffIndexInRestaurantList",
						"offset": 0,
						"slot": "4",
						"type": "t_mapping(t_uint128,t_mapping(t_address,t_uint256))"
					},
					{
						"astId": 58,
						"contract": "access/RoleAccess.sol:RoleAccess",
						"label": "_roleAdmin",
						"offset": 0,
						"slot": "5",
						"type": "t_address"
					}
				],
				"types": {
					"t_address": {
						"encoding": "inplace",
						"label": "address",
						"numberOfBytes": "20"
					},
					"t_array(t_address)dyn_storage": {
						"base": "t_address",
						"encoding": "dynamic_array",
						"label": "address[]",
						"numberOfBytes": "32"
					},
					"t_bool": {
						"encoding": "inplace",
						"label": "bool",
						"numberOfBytes": "1"
					},
					"t_enum(Role)544": {
						"encoding": "inplace",
						"label": "enum Role",
						"numberOfBytes": "1"
					},
					"t_mapping(t_address,t_enum(Role)544)": {
						"encoding": "mapping",
						"key": "t_address",
						"label": "mapping(address => enum Role)",
						"numberOfBytes": "32",
						"value": "t_enum(Role)544"
					},
					"t_mapping(t_address,t_mapping(t_uint128,t_bool))": {
						"encoding": "mapping",
						"key": "t_address",
						"label": "mapping(address => mapping(uint128 => bool))",
						"numberOfBytes": "32",
						"value": "t_mapping(t_uint128,t_bool)"
					},
					"t_mapping(t_address,t_mapping(t_uint128,t_uint128))": {
						"encoding": "mapping",
						"key": "t_address",
						"label": "mapping(address => mapping(uint128 => uint128))",
						"numberOfBytes": "32",
						"value": "t_mapping(t_uint128,t_uint128)"
					},
					"t_mapping(t_address,t_uint256)": {
						"encoding": "mapping",
						"key": "t_address",
						"label": "mapping(address => uint256)",
						"numberOfBytes": "32",
						"value": "t_uint256"
					},
					"t_mapping(t_uint128,t_array(t_address)dyn_storage)": {
						"encoding": "mapping",
						"key": "t_uint128",
						"label": "mapping(uint128 => address[])",
						"numberOfBytes": "32",
						"value": "t_array(t_address)dyn_storage"
					},
					"t_mapping(t_uint128,t_bool)": {
						"encoding": "mapping",
						"key": "t_uint128",
						"label": "mapping(uint128 => bool)",
						"numberOfBytes": "32",
						"value": "t_bool"
					},
					"t_mapping(t_uint128,t_mapping(t_address,t_uint256))": {
						"encoding": "mapping",
						"key": "t_uint128",
						"label": "mapping(uint128 => mapping(address => uint256))",
						"numberOfBytes": "32",
						"value": "t_mapping(t_address,t_uint256)"
					},
					"t_mapping(t_uint128,t_uint128)": {
						"encoding": "mapping",
						"key": "t_uint128",
						"label": "mapping(uint128 => uint128)",
						"numberOfBytes": "32",
						"value": "t_uint128"
					},
					"t_uint128": {
						"encoding": "inplace",
						"label": "uint128",
						"numberOfBytes": "16"
					},
					"t_uint256": {
						"encoding": "inplace",
						"label": "uint256",
						"numberOfBytes": "32"
					}
				}
			},
			"userdoc": {
				"kind": "user",
				"methods": {},
				"version": 1
			}
		}
	}
}