{
	"access/RoleAccess.sol": {
		"RoleAccess": {
			"abi": [
				{
					"inputs": [
						{
							"internalType": "address",
							"name": "account",
							"type": "address"
						},
						{
							"internalType": "enum Role",
							"name": "role",
							"type": "uint8"
						}
					],
					"name": "RoleAccess__AlreadyHasRole",
					"type": "error"
				},
				{
					"inputs": [],
					"name": "RoleAccess__InvalidRestaurantId",
					"type": "error"
				},
				{
					"inputs": [],
					"name": "RoleAccess__NotAdmin",
					"type": "error"
				},
				{
					"inputs": [],
					"name": "RoleAccess__NotFoodApp",
					"type": "error"
				},
				{
					"inputs": [
						{
							"internalType": "address",
							"name": "account",
							"type": "address"
						},
						{
							"internalType": "enum Role",
							"name": "requiredRole",
							"type": "uint8"
						}
					],
					"name": "RoleAccess__NotSpecificRole",
					"type": "error"
				},
				{
					"inputs": [
						{
							"internalType": "address",
							"name": "staff",
							"type": "address"
						},
						{
							"internalType": "uint128",
							"name": "restaurantId",
							"type": "uint128"
						}
					],
					"name": "RoleAccess__NotStaffOfRestaurant",
					"type": "error"
				},
				{
					"anonymous": false,
					"inputs": [
						{
							"indexed": true,
							"internalType": "address",
							"name": "account",
							"type": "address"
						},
						{
							"indexed": true,
							"internalType": "enum Role",
							"name": "role",
							"type": "uint8"
						}
					],
					"name": "RoleGranted",
					"type": "event"
				},
				{
					"anonymous": false,
					"inputs": [
						{
							"indexed": true,
							"internalType": "address",
							"name": "account",
							"type": "address"
						},
						{
							"indexed": true,
							"internalType": "enum Role",
							"name": "oldRole",
							"type": "uint8"
						}
					],
					"name": "RoleRevoked",
					"type": "event"
				},
				{
					"anonymous": false,
					"inputs": [
						{
							"indexed": true,
							"internalType": "address",
							"name": "staff",
							"type": "address"
						},
						{
							"indexed": true,
							"internalType": "uint128",
							"name": "restaurantId",
							"type": "uint128"
						}
					],
					"name": "StaffAssignedToRestaurant",
					"type": "event"
				},
				{
					"anonymous": false,
					"inputs": [
						{
							"indexed": true,
							"internalType": "address",
							"name": "staff",
							"type": "address"
						},
						{
							"indexed": true,
							"internalType": "uint128",
							"name": "restaurantId",
							"type": "uint128"
						}
					],
					"name": "StaffRemovedFromRestaurant",
					"type": "event"
				},
				{
					"inputs": [
						{
							"internalType": "address",
							"name": "staffAccount",
							"type": "address"
						},
						{
							"internalType": "uint128",
							"name": "restaurantId",
							"type": "uint128"
						},
						{
							"internalType": "enum Role",
							"name": "staffRole",
							"type": "uint8"
						}
					],
					"name": "assignStaffToRestaurant",
					"outputs": [],
					"stateMutability": "nonpayable",
					"type": "function"
				},
				{
					"inputs": [
						{
							"internalType": "address",
							"name": "staffAccount",
							"type": "address"
						},
						{
							"internalType": "uint128",
							"name": "restaurantId",
							"type": "uint128"
						}
					],
					"name": "removeStaffFromRestaurant",
					"outputs": [],
					"stateMutability": "nonpayable",
					"type": "function"
				},
				{
					"inputs": [
						{
							"internalType": "address",
							"name": "",
							"type": "address"
						}
					],
					"name": "roles",
					"outputs": [
						{
							"internalType": "enum Role",
							"name": "",
							"type": "uint8"
						}
					],
					"stateMutability": "view",
					"type": "function"
				},
				{
					"inputs": [
						{
							"internalType": "address",
							"name": "",
							"type": "address"
						},
						{
							"internalType": "uint128",
							"name": "",
							"type": "uint128"
						}
					],
					"name": "staffAssignmentDates",
					"outputs": [
						{
							"internalType": "uint128",
							"name": "",
							"type": "uint128"
						}
					],
					"stateMutability": "view",
					"type": "function"
				},
				{
					"inputs": [
						{
							"internalType": "address",
							"name": "",
							"type": "address"
						},
						{
							"internalType": "uint128",
							"name": "",
							"type": "uint128"
						}
					],
					"name": "staffAssignments",
					"outputs": [
						{
							"internalType": "bool",
							"name": "",
							"type": "bool"
						}
					],
					"stateMutability": "view",
					"type": "function"
				},
				{
					"inputs": [
						{
							"internalType": "uint128",
							"name": "",
							"type": "uint128"
						},
						{
							"internalType": "uint256",
							"name": "",
							"type": "uint256"
						}
					],
					"name": "staffListByRestaurant",
					"outputs": [
						{
							"internalType": "address",
							"name": "",
							"type": "address"
						}
					],
					"stateMutability": "view",
					"type": "function"
				}
			],
			"devdoc": {
				"kind": "dev",
				"methods": {},
				"version": 1
			},
			"evm": {
				"assembly": "    /* \"access/RoleAccess.sol\":97:5930  contract RoleAccess {... */\n  mstore(0x40, 0x80)\n  callvalue\n  dup1\n  iszero\n  tag_1\n  jumpi\n  revert(0x00, 0x00)\ntag_1:\n  pop\n  dataSize(sub_0)\n  dup1\n  dataOffset(sub_0)\n  0x00\n  codecopy\n  0x00\n  return\nstop\n\nsub_0: assembly {\n        /* \"access/RoleAccess.sol\":97:5930  contract RoleAccess {... */\n      mstore(0x40, 0x80)\n      callvalue\n      dup1\n      iszero\n      tag_1\n      jumpi\n      revert(0x00, 0x00)\n    tag_1:\n      pop\n      jumpi(tag_2, lt(calldatasize, 0x04))\n      shr(0xe0, calldataload(0x00))\n      dup1\n      0x99374642\n      gt\n      tag_9\n      jumpi\n      dup1\n      0x99374642\n      eq\n      tag_6\n      jumpi\n      dup1\n      0xaddfa353\n      eq\n      tag_7\n      jumpi\n      dup1\n      0xce4cf9cb\n      eq\n      tag_8\n      jumpi\n      revert(0x00, 0x00)\n    tag_9:\n      dup1\n      0x9d2013\n      eq\n      tag_3\n      jumpi\n      dup1\n      0x0d889bfa\n      eq\n      tag_4\n      jumpi\n      dup1\n      0x2253e0f1\n      eq\n      tag_5\n      jumpi\n    tag_2:\n      revert(0x00, 0x00)\n        /* \"access/RoleAccess.sol\":3287:4311  function removeStaffFromRestaurant(address staffAccount, uint128 restaurantId) public onlyRoleAdmin {... */\n    tag_3:\n      tag_10\n      tag_11\n      calldatasize\n      0x04\n      tag_12\n      jump\t// in\n    tag_11:\n      tag_13\n      jump\t// in\n    tag_10:\n      stop\n        /* \"access/RoleAccess.sol\":673:748  mapping(address => mapping(uint128 => uint128)) public staffAssignmentDates */\n    tag_4:\n      tag_14\n      tag_15\n      calldatasize\n      0x04\n      tag_12\n      jump\t// in\n    tag_15:\n      0x02\n      0x20\n      swap1\n      dup2\n      mstore\n      0x00\n      swap3\n      dup4\n      mstore\n      0x40\n      dup1\n      dup5\n      keccak256\n      swap1\n      swap2\n      mstore\n      swap1\n      dup3\n      mstore\n      swap1\n      keccak256\n      sload\n      sub(shl(0x80, 0x01), 0x01)\n      and\n      dup2\n      jump\n    tag_14:\n      mload(0x40)\n      sub(shl(0x80, 0x01), 0x01)\n        /* \"#utility.yul\":837:884   */\n      swap1\n      swap2\n      and\n        /* \"#utility.yul\":819:885   */\n      dup2\n      mstore\n        /* \"#utility.yul\":807:809   */\n      0x20\n        /* \"#utility.yul\":792:810   */\n      add\n        /* \"access/RoleAccess.sol\":673:748  mapping(address => mapping(uint128 => uint128)) public staffAssignmentDates */\n    tag_17:\n      mload(0x40)\n      dup1\n      swap2\n      sub\n      swap1\n      return\n        /* \"access/RoleAccess.sol\":755:813  mapping(uint128 => address[]) public staffListByRestaurant */\n    tag_5:\n      tag_19\n      tag_20\n      calldatasize\n      0x04\n      tag_21\n      jump\t// in\n    tag_20:\n      tag_22\n      jump\t// in\n    tag_19:\n      mload(0x40)\n      sub(shl(0xa0, 0x01), 0x01)\n        /* \"#utility.yul\":1319:1374   */\n      swap1\n      swap2\n      and\n        /* \"#utility.yul\":1301:1375   */\n      dup2\n      mstore\n        /* \"#utility.yul\":1289:1291   */\n      0x20\n        /* \"#utility.yul\":1274:1292   */\n      add\n        /* \"access/RoleAccess.sol\":755:813  mapping(uint128 => address[]) public staffListByRestaurant */\n      tag_17\n        /* \"#utility.yul\":1155:1381   */\n      jump\n        /* \"access/RoleAccess.sol\":554:591  mapping(address => Role) public roles */\n    tag_6:\n      tag_25\n      tag_26\n      calldatasize\n      0x04\n      tag_27\n      jump\t// in\n    tag_26:\n      0x00\n      0x20\n      dup2\n      swap1\n      mstore\n      swap1\n      dup2\n      mstore\n      0x40\n      swap1\n      keccak256\n      sload\n      0xff\n      and\n      dup2\n      jump\n    tag_25:\n      mload(0x40)\n      tag_17\n      swap2\n      swap1\n      tag_30\n      jump\t// in\n        /* \"access/RoleAccess.sol\":2041:3279  function assignStaffToRestaurant(address staffAccount, uint128 restaurantId, Role staffRole) public onlyRoleAdmin {... */\n    tag_7:\n      tag_10\n      tag_32\n      calldatasize\n      0x04\n      tag_33\n      jump\t// in\n    tag_32:\n      tag_34\n      jump\t// in\n        /* \"access/RoleAccess.sol\":598:666  mapping(address => mapping(uint128 => bool)) public staffAssignments */\n    tag_8:\n      tag_35\n      tag_36\n      calldatasize\n      0x04\n      tag_12\n      jump\t// in\n    tag_36:\n      0x01\n      0x20\n      swap1\n      dup2\n      mstore\n      0x00\n      swap3\n      dup4\n      mstore\n      0x40\n      dup1\n      dup5\n      keccak256\n      swap1\n      swap2\n      mstore\n      swap1\n      dup3\n      mstore\n      swap1\n      keccak256\n      sload\n      0xff\n      and\n      dup2\n      jump\n    tag_35:\n      mload(0x40)\n        /* \"#utility.yul\":2730:2744   */\n      swap1\n      iszero\n        /* \"#utility.yul\":2723:2745   */\n      iszero\n        /* \"#utility.yul\":2705:2746   */\n      dup2\n      mstore\n        /* \"#utility.yul\":2693:2695   */\n      0x20\n        /* \"#utility.yul\":2678:2696   */\n      add\n        /* \"access/RoleAccess.sol\":598:666  mapping(address => mapping(uint128 => bool)) public staffAssignments */\n      tag_17\n        /* \"#utility.yul\":2565:2752   */\n      jump\n        /* \"access/RoleAccess.sol\":3287:4311  function removeStaffFromRestaurant(address staffAccount, uint128 restaurantId) public onlyRoleAdmin {... */\n    tag_13:\n        /* \"access/RoleAccess.sol\":1356:1366  _roleAdmin */\n      and(sub(shl(0xa0, 0x01), 0x01), sload(0x05))\n        /* \"access/RoleAccess.sol\":1342:1352  msg.sender */\n      caller\n        /* \"access/RoleAccess.sol\":1342:1366  msg.sender != _roleAdmin */\n      eq\n        /* \"access/RoleAccess.sol\":1338:1397  if (msg.sender != _roleAdmin) revert RoleAccess__NotAdmin() */\n      tag_41\n      jumpi\n        /* \"access/RoleAccess.sol\":1375:1397  RoleAccess__NotAdmin() */\n      mload(0x40)\n      shl(0xe1, 0x1a310541)\n      dup2\n      mstore\n      0x04\n      add\n      mload(0x40)\n      dup1\n      swap2\n      sub\n      swap1\n      revert\n        /* \"access/RoleAccess.sol\":1338:1397  if (msg.sender != _roleAdmin) revert RoleAccess__NotAdmin() */\n    tag_41:\n      sub(shl(0xa0, 0x01), 0x01)\n        /* \"access/RoleAccess.sol\":3403:3433  staffAssignments[staffAccount] */\n      dup3\n      and\n      0x00\n      swap1\n      dup2\n      mstore\n        /* \"access/RoleAccess.sol\":3403:3419  staffAssignments */\n      0x01\n        /* \"access/RoleAccess.sol\":3403:3433  staffAssignments[staffAccount] */\n      0x20\n      swap1\n      dup2\n      mstore\n      0x40\n      dup1\n      dup4\n      keccak256\n      sub(shl(0x80, 0x01), 0x01)\n        /* \"access/RoleAccess.sol\":3403:3447  staffAssignments[staffAccount][restaurantId] */\n      dup6\n      and\n      dup5\n      mstore\n      swap1\n      swap2\n      mstore\n      swap1\n      keccak256\n      sload\n      0xff\n      and\n        /* \"access/RoleAccess.sol\":3398:3544  if (!staffAssignments[staffAccount][restaurantId]) {... */\n      tag_43\n      jumpi\n        /* \"access/RoleAccess.sol\":3472:3532  RoleAccess__NotStaffOfRestaurant(staffAccount, restaurantId) */\n      mload(0x40)\n      shl(0xe0, 0x58cce337)\n      dup2\n      mstore\n      sub(shl(0xa0, 0x01), 0x01)\n        /* \"#utility.yul\":2949:3004   */\n      dup4\n      and\n        /* \"access/RoleAccess.sol\":3472:3532  RoleAccess__NotStaffOfRestaurant(staffAccount, restaurantId) */\n      0x04\n      dup3\n      add\n        /* \"#utility.yul\":2931:3005   */\n      mstore\n      sub(shl(0x80, 0x01), 0x01)\n        /* \"#utility.yul\":3041:3088   */\n      dup3\n      and\n        /* \"#utility.yul\":3021:3039   */\n      0x24\n      dup3\n      add\n        /* \"#utility.yul\":3014:3089   */\n      mstore\n        /* \"#utility.yul\":2904:2922   */\n      0x44\n      add\n        /* \"access/RoleAccess.sol\":3472:3532  RoleAccess__NotStaffOfRestaurant(staffAccount, restaurantId) */\n    tag_44:\n      mload(0x40)\n      dup1\n      swap2\n      sub\n      swap1\n      revert\n        /* \"access/RoleAccess.sol\":3398:3544  if (!staffAssignments[staffAccount][restaurantId]) {... */\n    tag_43:\n      sub(shl(0x80, 0x01), 0x01)\n        /* \"access/RoleAccess.sol\":3574:3614  staffIndexInRestaurantList[restaurantId] */\n      dup2\n      and\n        /* \"access/RoleAccess.sol\":3554:3571  uint indexPlusOne */\n      0x00\n        /* \"access/RoleAccess.sol\":3574:3614  staffIndexInRestaurantList[restaurantId] */\n      swap1\n      dup2\n      mstore\n        /* \"access/RoleAccess.sol\":3574:3600  staffIndexInRestaurantList */\n      0x04\n        /* \"access/RoleAccess.sol\":3574:3614  staffIndexInRestaurantList[restaurantId] */\n      0x20\n      swap1\n      dup2\n      mstore\n      0x40\n      dup1\n      dup4\n      keccak256\n      sub(shl(0xa0, 0x01), 0x01)\n        /* \"access/RoleAccess.sol\":3574:3628  staffIndexInRestaurantList[restaurantId][staffAccount] */\n      dup7\n      and\n      dup5\n      mstore\n      swap1\n      swap2\n      mstore\n      swap1\n      keccak256\n      sload\n        /* \"access/RoleAccess.sol\":3639:3655  indexPlusOne > 0 */\n      dup1\n      iszero\n        /* \"access/RoleAccess.sol\":3635:4106  if (indexPlusOne > 0) { ... */\n      tag_46\n      jumpi\n        /* \"access/RoleAccess.sol\":3669:3687  uint indexToRemove */\n      0x00\n        /* \"access/RoleAccess.sol\":3690:3706  indexPlusOne - 1 */\n      tag_47\n        /* \"access/RoleAccess.sol\":3705:3706  1 */\n      0x01\n        /* \"access/RoleAccess.sol\":3690:3702  indexPlusOne */\n      dup4\n        /* \"access/RoleAccess.sol\":3690:3706  indexPlusOne - 1 */\n      tag_48\n      jump\t// in\n    tag_47:\n      sub(shl(0x80, 0x01), 0x01)\n        /* \"access/RoleAccess.sol\":3737:3772  staffListByRestaurant[restaurantId] */\n      dup5\n      and\n        /* \"access/RoleAccess.sol\":3717:3734  address lastStaff */\n      0x00\n        /* \"access/RoleAccess.sol\":3737:3772  staffListByRestaurant[restaurantId] */\n      swap1\n      dup2\n      mstore\n        /* \"access/RoleAccess.sol\":3737:3758  staffListByRestaurant */\n      0x03\n        /* \"access/RoleAccess.sol\":3737:3772  staffListByRestaurant[restaurantId] */\n      0x20\n      mstore\n      0x40\n      dup2\n      keccak256\n        /* \"access/RoleAccess.sol\":3773:3815  staffListByRestaurant[restaurantId].length */\n      dup1\n      sload\n        /* \"access/RoleAccess.sol\":3669:3706  uint indexToRemove = indexPlusOne - 1 */\n      swap3\n      swap4\n      pop\n        /* \"access/RoleAccess.sol\":3717:3734  address lastStaff */\n      swap1\n      swap2\n        /* \"access/RoleAccess.sol\":3773:3819  staffListByRestaurant[restaurantId].length - 1 */\n      tag_49\n      swap1\n        /* \"access/RoleAccess.sol\":3818:3819  1 */\n      0x01\n      swap1\n        /* \"access/RoleAccess.sol\":3773:3819  staffListByRestaurant[restaurantId].length - 1 */\n      tag_48\n      jump\t// in\n    tag_49:\n        /* \"access/RoleAccess.sol\":3737:3820  staffListByRestaurant[restaurantId][staffListByRestaurant[restaurantId].length - 1] */\n      dup2\n      sload\n      dup2\n      lt\n      tag_51\n      jumpi\n      tag_51\n      tag_52\n      jump\t// in\n    tag_51:\n      0x00\n      swap2\n      dup3\n      mstore\n      0x20\n      dup1\n      dup4\n      keccak256\n      swap1\n      swap2\n      add\n      sload\n      sub(shl(0x80, 0x01), 0x01)\n        /* \"access/RoleAccess.sol\":3833:3868  staffListByRestaurant[restaurantId] */\n      dup8\n      and\n      dup4\n      mstore\n        /* \"access/RoleAccess.sol\":3833:3854  staffListByRestaurant */\n      0x03\n        /* \"access/RoleAccess.sol\":3833:3868  staffListByRestaurant[restaurantId] */\n      swap1\n      swap2\n      mstore\n      0x40\n      swap1\n      swap2\n      keccak256\n        /* \"access/RoleAccess.sol\":3833:3883  staffListByRestaurant[restaurantId][indexToRemove] */\n      dup1\n      sload\n      sub(shl(0xa0, 0x01), 0x01)\n        /* \"access/RoleAccess.sol\":3737:3820  staffListByRestaurant[restaurantId][staffListByRestaurant[restaurantId].length - 1] */\n      swap1\n      swap3\n      and\n      swap3\n      pop\n      dup3\n      swap2\n        /* \"access/RoleAccess.sol\":3869:3882  indexToRemove */\n      dup5\n      swap1\n        /* \"access/RoleAccess.sol\":3833:3883  staffListByRestaurant[restaurantId][indexToRemove] */\n      dup2\n      lt\n      tag_55\n      jumpi\n      tag_55\n      tag_52\n      jump\t// in\n    tag_55:\n      0x00\n      swap2\n      dup3\n      mstore\n      0x20\n      swap1\n      swap2\n      keccak256\n      add\n        /* \"access/RoleAccess.sol\":3833:3895  staffListByRestaurant[restaurantId][indexToRemove] = lastStaff */\n      dup1\n      sload\n      not(sub(shl(0xa0, 0x01), 0x01))\n      and\n      sub(shl(0xa0, 0x01), 0x01)\n      swap3\n      swap1\n      swap3\n      and\n      swap2\n      swap1\n      swap2\n      or\n      swap1\n      sstore\n        /* \"access/RoleAccess.sol\":3960:3977  indexToRemove + 1 */\n      tag_57\n        /* \"access/RoleAccess.sol\":3960:3973  indexToRemove */\n      dup3\n      0x01\n        /* \"access/RoleAccess.sol\":3960:3977  indexToRemove + 1 */\n      tag_58\n      jump\t// in\n    tag_57:\n      sub(shl(0x80, 0x01), 0x01)\n        /* \"access/RoleAccess.sol\":3906:3946  staffIndexInRestaurantList[restaurantId] */\n      dup6\n      and\n      0x00\n      dup2\n      dup2\n      mstore\n        /* \"access/RoleAccess.sol\":3906:3932  staffIndexInRestaurantList */\n      0x04\n        /* \"access/RoleAccess.sol\":3906:3946  staffIndexInRestaurantList[restaurantId] */\n      0x20\n      swap1\n      dup2\n      mstore\n      0x40\n      dup1\n      dup4\n      keccak256\n      sub(shl(0xa0, 0x01), 0x01)\n        /* \"access/RoleAccess.sol\":3906:3957  staffIndexInRestaurantList[restaurantId][lastStaff] */\n      dup8\n      and\n      dup5\n      mstore\n      dup3\n      mstore\n      dup1\n      dup4\n      keccak256\n        /* \"access/RoleAccess.sol\":3906:3977  staffIndexInRestaurantList[restaurantId][lastStaff] = indexToRemove + 1 */\n      swap5\n      swap1\n      swap5\n      sstore\n        /* \"access/RoleAccess.sol\":3988:4023  staffListByRestaurant[restaurantId] */\n      swap2\n      dup2\n      mstore\n        /* \"access/RoleAccess.sol\":3988:4009  staffListByRestaurant */\n      0x03\n        /* \"access/RoleAccess.sol\":3988:4023  staffListByRestaurant[restaurantId] */\n      swap1\n      swap2\n      mstore\n      keccak256\n        /* \"access/RoleAccess.sol\":3988:4029  staffListByRestaurant[restaurantId].pop() */\n      dup1\n      sload\n      dup1\n      tag_60\n      jumpi\n      tag_60\n      tag_61\n      jump\t// in\n    tag_60:\n      0x00\n      dup3\n      dup2\n      mstore\n      0x20\n      dup1\n      dup3\n      keccak256\n      dup4\n      add\n      not(0x00)\n      swap1\n      dup2\n      add\n      dup1\n      sload\n      not(sub(shl(0xa0, 0x01), 0x01))\n      and\n      swap1\n      sstore\n      swap1\n      swap3\n      add\n      swap1\n      swap3\n      sstore\n      sub(shl(0x80, 0x01), 0x01)\n        /* \"access/RoleAccess.sol\":4040:4080  staffIndexInRestaurantList[restaurantId] */\n      dup7\n      and\n      dup3\n      mstore\n        /* \"access/RoleAccess.sol\":4040:4066  staffIndexInRestaurantList */\n      0x04\n        /* \"access/RoleAccess.sol\":4040:4080  staffIndexInRestaurantList[restaurantId] */\n      dup2\n      mstore\n      0x40\n      dup1\n      dup4\n      keccak256\n      sub(shl(0xa0, 0x01), 0x01)\n        /* \"access/RoleAccess.sol\":4040:4094  staffIndexInRestaurantList[restaurantId][staffAccount] */\n      dup10\n      and\n      dup5\n      mstore\n      swap1\n      swap2\n      mstore\n      dup2\n      keccak256\n        /* \"access/RoleAccess.sol\":4040:4098  staffIndexInRestaurantList[restaurantId][staffAccount] = 0 */\n      sstore\n      pop\n      pop\n        /* \"access/RoleAccess.sol\":3635:4106  if (indexPlusOne > 0) { ... */\n    tag_46:\n      sub(shl(0xa0, 0x01), 0x01)\n        /* \"access/RoleAccess.sol\":4123:4153  staffAssignments[staffAccount] */\n      dup4\n      and\n      0x00\n      dup2\n      dup2\n      mstore\n        /* \"access/RoleAccess.sol\":4123:4139  staffAssignments */\n      0x01\n        /* \"access/RoleAccess.sol\":4123:4153  staffAssignments[staffAccount] */\n      0x20\n      swap1\n      dup2\n      mstore\n      0x40\n      dup1\n      dup4\n      keccak256\n      sub(shl(0x80, 0x01), 0x01)\n        /* \"access/RoleAccess.sol\":4123:4167  staffAssignments[staffAccount][restaurantId] */\n      dup8\n      and\n      dup1\n      dup6\n      mstore\n      swap1\n      dup4\n      mstore\n      dup2\n      dup5\n      keccak256\n        /* \"access/RoleAccess.sol\":4116:4167  delete staffAssignments[staffAccount][restaurantId] */\n      dup1\n      sload\n      not(0xff)\n      and\n      swap1\n      sstore\n        /* \"access/RoleAccess.sol\":4185:4219  staffAssignmentDates[staffAccount] */\n      dup5\n      dup5\n      mstore\n        /* \"access/RoleAccess.sol\":4185:4205  staffAssignmentDates */\n      0x02\n        /* \"access/RoleAccess.sol\":4185:4219  staffAssignmentDates[staffAccount] */\n      dup4\n      mstore\n      dup2\n      dup5\n      keccak256\n        /* \"access/RoleAccess.sol\":4185:4233  staffAssignmentDates[staffAccount][restaurantId] */\n      dup2\n      dup6\n      mstore\n      swap1\n      swap3\n      mstore\n      dup1\n      dup4\n      keccak256\n        /* \"access/RoleAccess.sol\":4178:4233  delete staffAssignmentDates[staffAccount][restaurantId] */\n      dup1\n      sload\n      not(0xffffffffffffffffffffffffffffffff)\n      and\n      swap1\n      sstore\n        /* \"access/RoleAccess.sol\":4249:4303  StaffRemovedFromRestaurant(staffAccount, restaurantId) */\n      mload\n        /* \"access/RoleAccess.sol\":4123:4167  staffAssignments[staffAccount][restaurantId] */\n      swap1\n      swap3\n        /* \"access/RoleAccess.sol\":4123:4153  staffAssignments[staffAccount] */\n      swap2\n        /* \"access/RoleAccess.sol\":4249:4303  StaffRemovedFromRestaurant(staffAccount, restaurantId) */\n      0x2091a7a9f4bd1d3537c45c3143a470b7c349709a4b0b9e9b2a8f3e37c9de0e25\n      swap2\n      log3\n        /* \"access/RoleAccess.sol\":3387:4311  {... */\n      pop\n        /* \"access/RoleAccess.sol\":3287:4311  function removeStaffFromRestaurant(address staffAccount, uint128 restaurantId) public onlyRoleAdmin {... */\n      pop\n      pop\n      jump\t// out\n        /* \"access/RoleAccess.sol\":755:813  mapping(uint128 => address[]) public staffListByRestaurant */\n    tag_22:\n      mstore(0x20, 0x03)\n      dup2\n      0x00\n      mstore\n      keccak256(0x00, 0x40)\n      dup2\n      dup2\n      sload\n      dup2\n      lt\n      tag_63\n      jumpi\n      0x00\n      dup1\n      revert\n    tag_63:\n      0x00\n      swap2\n      dup3\n      mstore\n      0x20\n      swap1\n      swap2\n      keccak256\n      add\n      sload\n      sub(shl(0xa0, 0x01), 0x01)\n      and\n      swap2\n      pop\n      dup3\n      swap1\n      pop\n      jump\t// out\n        /* \"access/RoleAccess.sol\":2041:3279  function assignStaffToRestaurant(address staffAccount, uint128 restaurantId, Role staffRole) public onlyRoleAdmin {... */\n    tag_34:\n        /* \"access/RoleAccess.sol\":1356:1366  _roleAdmin */\n      and(sub(shl(0xa0, 0x01), 0x01), sload(0x05))\n        /* \"access/RoleAccess.sol\":1342:1352  msg.sender */\n      caller\n        /* \"access/RoleAccess.sol\":1342:1366  msg.sender != _roleAdmin */\n      eq\n        /* \"access/RoleAccess.sol\":1338:1397  if (msg.sender != _roleAdmin) revert RoleAccess__NotAdmin() */\n      tag_66\n      jumpi\n        /* \"access/RoleAccess.sol\":1375:1397  RoleAccess__NotAdmin() */\n      mload(0x40)\n      shl(0xe1, 0x1a310541)\n      dup2\n      mstore\n      0x04\n      add\n      mload(0x40)\n      dup1\n      swap2\n      sub\n      swap1\n      revert\n        /* \"access/RoleAccess.sol\":1338:1397  if (msg.sender != _roleAdmin) revert RoleAccess__NotAdmin() */\n    tag_66:\n        /* \"access/RoleAccess.sol\":2183:2191  Role.FOH */\n      0x03\n        /* \"access/RoleAccess.sol\":2170:2179  staffRole */\n      dup2\n        /* \"access/RoleAccess.sol\":2170:2191  staffRole != Role.FOH */\n      0x04\n      dup2\n      gt\n      iszero\n      tag_72\n      jumpi\n      tag_72\n      tag_70\n      jump\t// in\n    tag_72:\n      eq\n      iszero\n        /* \"access/RoleAccess.sol\":2170:2216  staffRole != Role.FOH && staffRole != Role.BOH */\n      dup1\n      iszero\n      tag_73\n      jumpi\n      pop\n        /* \"access/RoleAccess.sol\":2208:2216  Role.BOH */\n      0x04\n        /* \"access/RoleAccess.sol\":2195:2204  staffRole */\n      dup2\n        /* \"access/RoleAccess.sol\":2195:2216  staffRole != Role.BOH */\n      0x04\n      dup2\n      gt\n      iszero\n      tag_77\n      jumpi\n      tag_77\n      tag_70\n      jump\t// in\n    tag_77:\n      eq\n      iszero\n        /* \"access/RoleAccess.sol\":2170:2216  staffRole != Role.FOH && staffRole != Role.BOH */\n    tag_73:\n        /* \"access/RoleAccess.sol\":2166:2305  if (staffRole != Role.FOH && staffRole != Role.BOH) {... */\n      iszero\n      tag_78\n      jumpi\n        /* \"access/RoleAccess.sol\":2268:2280  staffAccount */\n      dup3\n        /* \"access/RoleAccess.sol\":2282:2291  staffRole */\n      dup2\n        /* \"access/RoleAccess.sol\":2240:2292  RoleAccess__NotSpecificRole(staffAccount, staffRole) */\n      mload(0x40)\n      shl(0xe1, 0x45c19949)\n      dup2\n      mstore\n      0x04\n      add\n      tag_44\n      swap3\n      swap2\n      swap1\n      tag_80\n      jump\t// in\n        /* \"access/RoleAccess.sol\":2166:2305  if (staffRole != Role.FOH && staffRole != Role.BOH) {... */\n    tag_78:\n        /* \"access/RoleAccess.sol\":2319:2331  restaurantId */\n      dup2\n      sub(shl(0x80, 0x01), 0x01)\n        /* \"access/RoleAccess.sol\":2319:2336  restaurantId == 0 */\n      and\n        /* \"access/RoleAccess.sol\":2335:2336  0 */\n      0x00\n        /* \"access/RoleAccess.sol\":2319:2336  restaurantId == 0 */\n      sub\n        /* \"access/RoleAccess.sol\":2315:2378  if (restaurantId == 0) revert RoleAccess__InvalidRestaurantId() */\n      tag_81\n      jumpi\n        /* \"access/RoleAccess.sol\":2345:2378  RoleAccess__InvalidRestaurantId() */\n      mload(0x40)\n      shl(0xe2, 0x34abfc67)\n      dup2\n      mstore\n      0x04\n      add\n      mload(0x40)\n      dup1\n      swap2\n      sub\n      swap1\n      revert\n        /* \"access/RoleAccess.sol\":2315:2378  if (restaurantId == 0) revert RoleAccess__InvalidRestaurantId() */\n    tag_81:\n      sub(shl(0xa0, 0x01), 0x01)\n        /* \"access/RoleAccess.sol\":2396:2415  roles[staffAccount] */\n      dup4\n      and\n        /* \"access/RoleAccess.sol\":2419:2428  Role.None */\n      0x00\n        /* \"access/RoleAccess.sol\":2396:2415  roles[staffAccount] */\n      swap1\n      dup2\n      mstore\n      0x20\n      dup2\n      swap1\n      mstore\n      0x40\n      dup2\n      keccak256\n      sload\n      0xff\n      and\n        /* \"access/RoleAccess.sol\":2396:2428  roles[staffAccount] == Role.None */\n      0x04\n      dup2\n      gt\n      iszero\n      tag_85\n      jumpi\n      tag_85\n      tag_70\n      jump\t// in\n    tag_85:\n      eq\n        /* \"access/RoleAccess.sol\":2396:2500  roles[staffAccount] == Role.None || (roles[staffAccount] != Role.FOH && roles[staffAccount] != Role.BOH) */\n      dup1\n      tag_91\n      jumpi\n      pop\n        /* \"access/RoleAccess.sol\":2456:2464  Role.FOH */\n      0x03\n      sub(shl(0xa0, 0x01), 0x01)\n        /* \"access/RoleAccess.sol\":2433:2452  roles[staffAccount] */\n      dup5\n      and\n        /* \"access/RoleAccess.sol\":2433:2438  roles */\n      0x00\n        /* \"access/RoleAccess.sol\":2433:2452  roles[staffAccount] */\n      swap1\n      dup2\n      mstore\n      0x20\n      dup2\n      swap1\n      mstore\n      0x40\n      swap1\n      keccak256\n      sload\n      0xff\n      and\n        /* \"access/RoleAccess.sol\":2433:2464  roles[staffAccount] != Role.FOH */\n      0x04\n      dup2\n      gt\n      iszero\n      tag_90\n      jumpi\n      tag_90\n      tag_70\n      jump\t// in\n    tag_90:\n      eq\n      iszero\n        /* \"access/RoleAccess.sol\":2433:2499  roles[staffAccount] != Role.FOH && roles[staffAccount] != Role.BOH */\n      dup1\n      iszero\n      tag_91\n      jumpi\n      pop\n        /* \"access/RoleAccess.sol\":2491:2499  Role.BOH */\n      0x04\n      sub(shl(0xa0, 0x01), 0x01)\n        /* \"access/RoleAccess.sol\":2468:2487  roles[staffAccount] */\n      dup5\n      and\n        /* \"access/RoleAccess.sol\":2468:2473  roles */\n      0x00\n        /* \"access/RoleAccess.sol\":2468:2487  roles[staffAccount] */\n      swap1\n      dup2\n      mstore\n      0x20\n      dup2\n      swap1\n      mstore\n      0x40\n      swap1\n      keccak256\n      sload\n      0xff\n      and\n        /* \"access/RoleAccess.sol\":2468:2499  roles[staffAccount] != Role.BOH */\n      0x04\n      dup2\n      gt\n      iszero\n      tag_95\n      jumpi\n      tag_95\n      tag_70\n      jump\t// in\n    tag_95:\n      eq\n      iszero\n        /* \"access/RoleAccess.sol\":2433:2499  roles[staffAccount] != Role.FOH && roles[staffAccount] != Role.BOH */\n    tag_91:\n        /* \"access/RoleAccess.sol\":2392:2778  if (roles[staffAccount] == Role.None || (roles[staffAccount] != Role.FOH && roles[staffAccount] != Role.BOH) ) {... */\n      iszero\n      tag_96\n      jumpi\n      sub(shl(0xa0, 0x01), 0x01)\n        /* \"access/RoleAccess.sol\":2518:2537  roles[staffAccount] */\n      dup4\n      and\n        /* \"access/RoleAccess.sol\":2518:2523  roles */\n      0x00\n        /* \"access/RoleAccess.sol\":2518:2537  roles[staffAccount] */\n      swap1\n      dup2\n      mstore\n      0x20\n      dup2\n      swap1\n      mstore\n      0x40\n      swap1\n      keccak256\n        /* \"access/RoleAccess.sol\":2518:2549  roles[staffAccount] = staffRole */\n      dup1\n      sload\n        /* \"access/RoleAccess.sol\":2540:2549  staffRole */\n      dup3\n      swap2\n        /* \"access/RoleAccess.sol\":2518:2537  roles[staffAccount] */\n      swap1\n      not(0xff)\n        /* \"access/RoleAccess.sol\":2518:2549  roles[staffAccount] = staffRole */\n      and\n      0x01\n        /* \"access/RoleAccess.sol\":2540:2549  staffRole */\n      dup4\n        /* \"access/RoleAccess.sol\":2518:2549  roles[staffAccount] = staffRole */\n      0x04\n      dup2\n      gt\n      iszero\n      tag_98\n      jumpi\n      tag_98\n      tag_70\n      jump\t// in\n    tag_98:\n      mul\n      or\n      swap1\n      sstore\n      pop\n        /* \"access/RoleAccess.sol\":2596:2605  staffRole */\n      dup1\n        /* \"access/RoleAccess.sol\":2570:2606  RoleGranted(staffAccount, staffRole) */\n      0x04\n      dup2\n      gt\n      iszero\n      tag_100\n      jumpi\n      tag_100\n      tag_70\n      jump\t// in\n    tag_100:\n      mload(0x40)\n      sub(shl(0xa0, 0x01), 0x01)\n      dup6\n      and\n      swap1\n      0xaa259565575c834bc07e74dca784b4071676133ac78513b431afb6ee7edae121\n      swap1\n      0x00\n      swap1\n      log3\n        /* \"access/RoleAccess.sol\":2392:2778  if (roles[staffAccount] == Role.None || (roles[staffAccount] != Role.FOH && roles[staffAccount] != Role.BOH) ) {... */\n      jump(tag_106)\n    tag_96:\n        /* \"access/RoleAccess.sol\":2651:2660  staffRole */\n      dup1\n        /* \"access/RoleAccess.sol\":2628:2660  roles[staffAccount] != staffRole */\n      0x04\n      dup2\n      gt\n      iszero\n      tag_103\n      jumpi\n      tag_103\n      tag_70\n      jump\t// in\n    tag_103:\n      sub(shl(0xa0, 0x01), 0x01)\n        /* \"access/RoleAccess.sol\":2628:2647  roles[staffAccount] */\n      dup5\n      and\n        /* \"access/RoleAccess.sol\":2628:2633  roles */\n      0x00\n        /* \"access/RoleAccess.sol\":2628:2647  roles[staffAccount] */\n      swap1\n      dup2\n      mstore\n      0x20\n      dup2\n      swap1\n      mstore\n      0x40\n      swap1\n      keccak256\n      sload\n      0xff\n      and\n        /* \"access/RoleAccess.sol\":2628:2660  roles[staffAccount] != staffRole */\n      0x04\n      dup2\n      gt\n      iszero\n      tag_105\n      jumpi\n      tag_105\n      tag_70\n      jump\t// in\n    tag_105:\n      eq\n        /* \"access/RoleAccess.sol\":2624:2778  if (roles[staffAccount] != staffRole) {... */\n      tag_106\n      jumpi\n      sub(shl(0xa0, 0x01), 0x01)\n        /* \"access/RoleAccess.sol\":2677:2696  roles[staffAccount] */\n      dup4\n      and\n        /* \"access/RoleAccess.sol\":2677:2682  roles */\n      0x00\n        /* \"access/RoleAccess.sol\":2677:2696  roles[staffAccount] */\n      swap1\n      dup2\n      mstore\n      0x20\n      dup2\n      swap1\n      mstore\n      0x40\n      swap1\n      keccak256\n        /* \"access/RoleAccess.sol\":2677:2708  roles[staffAccount] = staffRole */\n      dup1\n      sload\n        /* \"access/RoleAccess.sol\":2699:2708  staffRole */\n      dup3\n      swap2\n        /* \"access/RoleAccess.sol\":2677:2696  roles[staffAccount] */\n      swap1\n      not(0xff)\n        /* \"access/RoleAccess.sol\":2677:2708  roles[staffAccount] = staffRole */\n      and\n      0x01\n        /* \"access/RoleAccess.sol\":2699:2708  staffRole */\n      dup4\n        /* \"access/RoleAccess.sol\":2677:2708  roles[staffAccount] = staffRole */\n      0x04\n      dup2\n      gt\n      iszero\n      tag_108\n      jumpi\n      tag_108\n      tag_70\n      jump\t// in\n    tag_108:\n      mul\n      or\n      swap1\n      sstore\n      pop\n        /* \"access/RoleAccess.sol\":2755:2764  staffRole */\n      dup1\n        /* \"access/RoleAccess.sol\":2729:2765  RoleGranted(staffAccount, staffRole) */\n      0x04\n      dup2\n      gt\n      iszero\n      tag_110\n      jumpi\n      tag_110\n      tag_70\n      jump\t// in\n    tag_110:\n      mload(0x40)\n      sub(shl(0xa0, 0x01), 0x01)\n      dup6\n      and\n      swap1\n      0xaa259565575c834bc07e74dca784b4071676133ac78513b431afb6ee7edae121\n      swap1\n      0x00\n      swap1\n      log3\n        /* \"access/RoleAccess.sol\":2624:2778  if (roles[staffAccount] != staffRole) {... */\n    tag_106:\n      sub(shl(0x80, 0x01), 0x01)\n        /* \"access/RoleAccess.sol\":2792:2832  staffIndexInRestaurantList[restaurantId] */\n      dup3\n      and\n      0x00\n      swap1\n      dup2\n      mstore\n        /* \"access/RoleAccess.sol\":2792:2818  staffIndexInRestaurantList */\n      0x04\n        /* \"access/RoleAccess.sol\":2792:2832  staffIndexInRestaurantList[restaurantId] */\n      0x20\n      swap1\n      dup2\n      mstore\n      0x40\n      dup1\n      dup4\n      keccak256\n      sub(shl(0xa0, 0x01), 0x01)\n        /* \"access/RoleAccess.sol\":2792:2846  staffIndexInRestaurantList[restaurantId][staffAccount] */\n      dup8\n      and\n      dup5\n      mstore\n      swap1\n      swap2\n      mstore\n      dup2\n      keccak256\n      sload\n        /* \"access/RoleAccess.sol\":2792:2851  staffIndexInRestaurantList[restaurantId][staffAccount] == 0 */\n      swap1\n      sub\n        /* \"access/RoleAccess.sol\":2788:3055  if (staffIndexInRestaurantList[restaurantId][staffAccount] == 0) { ... */\n      tag_111\n      jumpi\n      sub(shl(0x80, 0x01), 0x01)\n        /* \"access/RoleAccess.sol\":2865:2900  staffListByRestaurant[restaurantId] */\n      dup3\n      and\n      0x00\n      dup2\n      dup2\n      mstore\n        /* \"access/RoleAccess.sol\":2865:2886  staffListByRestaurant */\n      0x03\n        /* \"access/RoleAccess.sol\":2865:2900  staffListByRestaurant[restaurantId] */\n      0x20\n      swap1\n      dup2\n      mstore\n      0x40\n      dup1\n      dup4\n      keccak256\n        /* \"access/RoleAccess.sol\":2865:2919  staffListByRestaurant[restaurantId].push(staffAccount) */\n      dup1\n      sload\n      0x01\n      dup2\n      add\n      dup3\n      sstore\n      dup2\n      dup6\n      mstore\n      dup4\n      dup6\n      keccak256\n      add\n      dup1\n      sload\n      not(sub(shl(0xa0, 0x01), 0x01))\n      and\n      sub(shl(0xa0, 0x01), 0x01)\n      dup11\n      and\n      swap1\n      dup2\n      or\n      swap1\n      swap2\n      sstore\n        /* \"access/RoleAccess.sol\":2987:3022  staffListByRestaurant[restaurantId] */\n      swap5\n      dup5\n      mstore\n        /* \"access/RoleAccess.sol\":2987:3029  staffListByRestaurant[restaurantId].length */\n      sload\n        /* \"access/RoleAccess.sol\":2930:2956  staffIndexInRestaurantList */\n      0x04\n        /* \"access/RoleAccess.sol\":2930:2970  staffIndexInRestaurantList[restaurantId] */\n      dup4\n      mstore\n      dup2\n      dup5\n      keccak256\n        /* \"access/RoleAccess.sol\":2930:2984  staffIndexInRestaurantList[restaurantId][staffAccount] */\n      swap5\n      dup5\n      mstore\n      swap4\n      swap1\n      swap2\n      mstore\n      swap1\n      keccak256\n        /* \"access/RoleAccess.sol\":2930:3029  staffIndexInRestaurantList[restaurantId][staffAccount] = staffListByRestaurant[restaurantId].length */\n      sstore\n        /* \"access/RoleAccess.sol\":2788:3055  if (staffIndexInRestaurantList[restaurantId][staffAccount] == 0) { ... */\n    tag_111:\n      sub(shl(0xa0, 0x01), 0x01)\n        /* \"access/RoleAccess.sol\":3065:3095  staffAssignments[staffAccount] */\n      dup4\n      and\n      0x00\n      dup2\n      dup2\n      mstore\n        /* \"access/RoleAccess.sol\":3112:3116  true */\n      0x01\n        /* \"access/RoleAccess.sol\":3065:3095  staffAssignments[staffAccount] */\n      0x20\n      dup2\n      dup2\n      mstore\n      0x40\n      dup1\n      dup5\n      keccak256\n      sub(shl(0x80, 0x01), 0x01)\n        /* \"access/RoleAccess.sol\":3065:3109  staffAssignments[staffAccount][restaurantId] */\n      dup9\n      dup2\n      and\n      dup1\n      dup8\n      mstore\n      swap2\n      dup5\n      mstore\n      dup3\n      dup7\n      keccak256\n        /* \"access/RoleAccess.sol\":3065:3116  staffAssignments[staffAccount][restaurantId] = true */\n      dup1\n      sload\n      not(0xff)\n      and\n      swap1\n      swap6\n      or\n      swap1\n      swap5\n      sstore\n        /* \"access/RoleAccess.sol\":3127:3161  staffAssignmentDates[staffAccount] */\n      dup6\n      dup6\n      mstore\n        /* \"access/RoleAccess.sol\":3127:3147  staffAssignmentDates */\n      0x02\n        /* \"access/RoleAccess.sol\":3127:3161  staffAssignmentDates[staffAccount] */\n      dup4\n      mstore\n      dup2\n      dup6\n      keccak256\n        /* \"access/RoleAccess.sol\":3127:3175  staffAssignmentDates[staffAccount][restaurantId] */\n      dup2\n      dup7\n      mstore\n      swap1\n      swap3\n      mstore\n      dup1\n      dup5\n      keccak256\n        /* \"access/RoleAccess.sol\":3127:3202  staffAssignmentDates[staffAccount][restaurantId] = uint128(block.timestamp) */\n      dup1\n      sload\n      not(0xffffffffffffffffffffffffffffffff)\n      and\n        /* \"access/RoleAccess.sol\":3186:3201  block.timestamp */\n      timestamp\n        /* \"access/RoleAccess.sol\":3127:3202  staffAssignmentDates[staffAccount][restaurantId] = uint128(block.timestamp) */\n      swap1\n      swap5\n      and\n      swap4\n      swap1\n      swap4\n      or\n      swap1\n      swap3\n      sstore\n        /* \"access/RoleAccess.sol\":3218:3271  StaffAssignedToRestaurant(staffAccount, restaurantId) */\n      swap1\n      mload\n        /* \"access/RoleAccess.sol\":3065:3109  staffAssignments[staffAccount][restaurantId] */\n      swap1\n      swap3\n        /* \"access/RoleAccess.sol\":3065:3095  staffAssignments[staffAccount] */\n      swap2\n        /* \"access/RoleAccess.sol\":3218:3271  StaffAssignedToRestaurant(staffAccount, restaurantId) */\n      0xa7a040419689ac3001a2b7e46b4cc55aa49833559239a3d51e72e097cd28a98f\n      swap2\n      log3\n        /* \"access/RoleAccess.sol\":2041:3279  function assignStaffToRestaurant(address staffAccount, uint128 restaurantId, Role staffRole) public onlyRoleAdmin {... */\n      pop\n      pop\n      pop\n      jump\t// out\n        /* \"#utility.yul\":14:210   */\n    tag_113:\n        /* \"#utility.yul\":82:102   */\n      dup1\n      calldataload\n      sub(shl(0xa0, 0x01), 0x01)\n        /* \"#utility.yul\":131:185   */\n      dup2\n      and\n        /* \"#utility.yul\":121:186   */\n      dup2\n      eq\n        /* \"#utility.yul\":111:204   */\n      tag_119\n      jumpi\n        /* \"#utility.yul\":200:201   */\n      0x00\n        /* \"#utility.yul\":197:198   */\n      0x00\n        /* \"#utility.yul\":190:202   */\n      revert\n        /* \"#utility.yul\":111:204   */\n    tag_119:\n        /* \"#utility.yul\":14:210   */\n      swap2\n      swap1\n      pop\n      jump\t// out\n        /* \"#utility.yul\":215:403   */\n    tag_114:\n        /* \"#utility.yul\":283:303   */\n      dup1\n      calldataload\n      sub(shl(0x80, 0x01), 0x01)\n        /* \"#utility.yul\":332:378   */\n      dup2\n      and\n        /* \"#utility.yul\":322:379   */\n      dup2\n      eq\n        /* \"#utility.yul\":312:397   */\n      tag_119\n      jumpi\n        /* \"#utility.yul\":393:394   */\n      0x00\n        /* \"#utility.yul\":390:391   */\n      0x00\n        /* \"#utility.yul\":383:395   */\n      revert\n        /* \"#utility.yul\":408:668   */\n    tag_12:\n        /* \"#utility.yul\":476:482   */\n      0x00\n        /* \"#utility.yul\":484:490   */\n      0x00\n        /* \"#utility.yul\":537:539   */\n      0x40\n        /* \"#utility.yul\":525:534   */\n      dup4\n        /* \"#utility.yul\":516:523   */\n      dup6\n        /* \"#utility.yul\":512:535   */\n      sub\n        /* \"#utility.yul\":508:540   */\n      slt\n        /* \"#utility.yul\":505:557   */\n      iszero\n      tag_123\n      jumpi\n        /* \"#utility.yul\":553:554   */\n      0x00\n        /* \"#utility.yul\":550:551   */\n      0x00\n        /* \"#utility.yul\":543:555   */\n      revert\n        /* \"#utility.yul\":505:557   */\n    tag_123:\n        /* \"#utility.yul\":576:605   */\n      tag_124\n        /* \"#utility.yul\":595:604   */\n      dup4\n        /* \"#utility.yul\":576:605   */\n      tag_113\n      jump\t// in\n    tag_124:\n        /* \"#utility.yul\":566:605   */\n      swap2\n      pop\n        /* \"#utility.yul\":624:662   */\n      tag_125\n        /* \"#utility.yul\":658:660   */\n      0x20\n        /* \"#utility.yul\":647:656   */\n      dup5\n        /* \"#utility.yul\":643:661   */\n      add\n        /* \"#utility.yul\":624:662   */\n      tag_114\n      jump\t// in\n    tag_125:\n        /* \"#utility.yul\":614:662   */\n      swap1\n      pop\n        /* \"#utility.yul\":408:668   */\n      swap3\n      pop\n      swap3\n      swap1\n      pop\n      jump\t// out\n        /* \"#utility.yul\":896:1150   */\n    tag_21:\n        /* \"#utility.yul\":964:970   */\n      0x00\n        /* \"#utility.yul\":972:978   */\n      0x00\n        /* \"#utility.yul\":1025:1027   */\n      0x40\n        /* \"#utility.yul\":1013:1022   */\n      dup4\n        /* \"#utility.yul\":1004:1011   */\n      dup6\n        /* \"#utility.yul\":1000:1023   */\n      sub\n        /* \"#utility.yul\":996:1028   */\n      slt\n        /* \"#utility.yul\":993:1045   */\n      iszero\n      tag_128\n      jumpi\n        /* \"#utility.yul\":1041:1042   */\n      0x00\n        /* \"#utility.yul\":1038:1039   */\n      0x00\n        /* \"#utility.yul\":1031:1043   */\n      revert\n        /* \"#utility.yul\":993:1045   */\n    tag_128:\n        /* \"#utility.yul\":1064:1093   */\n      tag_129\n        /* \"#utility.yul\":1083:1092   */\n      dup4\n        /* \"#utility.yul\":1064:1093   */\n      tag_114\n      jump\t// in\n    tag_129:\n        /* \"#utility.yul\":1054:1093   */\n      swap5\n        /* \"#utility.yul\":1140:1142   */\n      0x20\n        /* \"#utility.yul\":1125:1143   */\n      swap4\n      swap1\n      swap4\n      add\n        /* \"#utility.yul\":1112:1144   */\n      calldataload\n      swap4\n      pop\n      pop\n      pop\n        /* \"#utility.yul\":896:1150   */\n      jump\t// out\n        /* \"#utility.yul\":1386:1572   */\n    tag_27:\n        /* \"#utility.yul\":1445:1451   */\n      0x00\n        /* \"#utility.yul\":1498:1500   */\n      0x20\n        /* \"#utility.yul\":1486:1495   */\n      dup3\n        /* \"#utility.yul\":1477:1484   */\n      dup5\n        /* \"#utility.yul\":1473:1496   */\n      sub\n        /* \"#utility.yul\":1469:1501   */\n      slt\n        /* \"#utility.yul\":1466:1518   */\n      iszero\n      tag_132\n      jumpi\n        /* \"#utility.yul\":1514:1515   */\n      0x00\n        /* \"#utility.yul\":1511:1512   */\n      0x00\n        /* \"#utility.yul\":1504:1516   */\n      revert\n        /* \"#utility.yul\":1466:1518   */\n    tag_132:\n        /* \"#utility.yul\":1537:1566   */\n      tag_133\n        /* \"#utility.yul\":1556:1565   */\n      dup3\n        /* \"#utility.yul\":1537:1566   */\n      tag_113\n      jump\t// in\n    tag_133:\n        /* \"#utility.yul\":1527:1566   */\n      swap4\n        /* \"#utility.yul\":1386:1572   */\n      swap3\n      pop\n      pop\n      pop\n      jump\t// out\n        /* \"#utility.yul\":1577:1704   */\n    tag_70:\n        /* \"#utility.yul\":1638:1648   */\n      0x4e487b71\n        /* \"#utility.yul\":1633:1636   */\n      0xe0\n        /* \"#utility.yul\":1629:1649   */\n      shl\n        /* \"#utility.yul\":1626:1627   */\n      0x00\n        /* \"#utility.yul\":1619:1650   */\n      mstore\n        /* \"#utility.yul\":1669:1673   */\n      0x21\n        /* \"#utility.yul\":1666:1667   */\n      0x04\n        /* \"#utility.yul\":1659:1674   */\n      mstore\n        /* \"#utility.yul\":1693:1697   */\n      0x24\n        /* \"#utility.yul\":1690:1691   */\n      0x00\n        /* \"#utility.yul\":1683:1698   */\n      revert\n        /* \"#utility.yul\":1709:1941   */\n    tag_115:\n        /* \"#utility.yul\":1785:1786   */\n      0x05\n        /* \"#utility.yul\":1778:1783   */\n      dup2\n        /* \"#utility.yul\":1775:1787   */\n      lt\n        /* \"#utility.yul\":1765:1908   */\n      tag_136\n      jumpi\n        /* \"#utility.yul\":1830:1840   */\n      0x4e487b71\n        /* \"#utility.yul\":1825:1828   */\n      0xe0\n        /* \"#utility.yul\":1821:1841   */\n      shl\n        /* \"#utility.yul\":1818:1819   */\n      0x00\n        /* \"#utility.yul\":1811:1842   */\n      mstore\n        /* \"#utility.yul\":1865:1869   */\n      0x21\n        /* \"#utility.yul\":1862:1863   */\n      0x04\n        /* \"#utility.yul\":1855:1870   */\n      mstore\n        /* \"#utility.yul\":1893:1897   */\n      0x24\n        /* \"#utility.yul\":1890:1891   */\n      0x00\n        /* \"#utility.yul\":1883:1898   */\n      revert\n        /* \"#utility.yul\":1765:1908   */\n    tag_136:\n        /* \"#utility.yul\":1917:1935   */\n      swap1\n      mstore\n        /* \"#utility.yul\":1709:1941   */\n      jump\t// out\n        /* \"#utility.yul\":1946:2143   */\n    tag_30:\n        /* \"#utility.yul\":2086:2088   */\n      0x20\n        /* \"#utility.yul\":2071:2089   */\n      dup2\n      add\n        /* \"#utility.yul\":2098:2137   */\n      tag_138\n        /* \"#utility.yul\":2075:2084   */\n      dup3\n        /* \"#utility.yul\":2119:2125   */\n      dup5\n        /* \"#utility.yul\":2098:2137   */\n      tag_115\n      jump\t// in\n    tag_138:\n        /* \"#utility.yul\":1946:2143   */\n      swap3\n      swap2\n      pop\n      pop\n      jump\t// out\n        /* \"#utility.yul\":2148:2560   */\n    tag_33:\n        /* \"#utility.yul\":2233:2239   */\n      0x00\n        /* \"#utility.yul\":2241:2247   */\n      0x00\n        /* \"#utility.yul\":2249:2255   */\n      0x00\n        /* \"#utility.yul\":2302:2304   */\n      0x60\n        /* \"#utility.yul\":2290:2299   */\n      dup5\n        /* \"#utility.yul\":2281:2288   */\n      dup7\n        /* \"#utility.yul\":2277:2300   */\n      sub\n        /* \"#utility.yul\":2273:2305   */\n      slt\n        /* \"#utility.yul\":2270:2322   */\n      iszero\n      tag_140\n      jumpi\n        /* \"#utility.yul\":2318:2319   */\n      0x00\n        /* \"#utility.yul\":2315:2316   */\n      0x00\n        /* \"#utility.yul\":2308:2320   */\n      revert\n        /* \"#utility.yul\":2270:2322   */\n    tag_140:\n        /* \"#utility.yul\":2341:2370   */\n      tag_141\n        /* \"#utility.yul\":2360:2369   */\n      dup5\n        /* \"#utility.yul\":2341:2370   */\n      tag_113\n      jump\t// in\n    tag_141:\n        /* \"#utility.yul\":2331:2370   */\n      swap3\n      pop\n        /* \"#utility.yul\":2389:2427   */\n      tag_142\n        /* \"#utility.yul\":2423:2425   */\n      0x20\n        /* \"#utility.yul\":2412:2421   */\n      dup6\n        /* \"#utility.yul\":2408:2426   */\n      add\n        /* \"#utility.yul\":2389:2427   */\n      tag_114\n      jump\t// in\n    tag_142:\n        /* \"#utility.yul\":2379:2427   */\n      swap2\n      pop\n        /* \"#utility.yul\":2477:2479   */\n      0x40\n        /* \"#utility.yul\":2466:2475   */\n      dup5\n        /* \"#utility.yul\":2462:2480   */\n      add\n        /* \"#utility.yul\":2449:2481   */\n      calldataload\n        /* \"#utility.yul\":2510:2511   */\n      0x05\n        /* \"#utility.yul\":2503:2508   */\n      dup2\n        /* \"#utility.yul\":2500:2512   */\n      lt\n        /* \"#utility.yul\":2490:2530   */\n      tag_143\n      jumpi\n        /* \"#utility.yul\":2526:2527   */\n      0x00\n        /* \"#utility.yul\":2523:2524   */\n      0x00\n        /* \"#utility.yul\":2516:2528   */\n      revert\n        /* \"#utility.yul\":2490:2530   */\n    tag_143:\n        /* \"#utility.yul\":2549:2554   */\n      dup1\n        /* \"#utility.yul\":2539:2554   */\n      swap2\n      pop\n      pop\n        /* \"#utility.yul\":2148:2560   */\n      swap3\n      pop\n      swap3\n      pop\n      swap3\n      jump\t// out\n        /* \"#utility.yul\":3100:3227   */\n    tag_116:\n        /* \"#utility.yul\":3161:3171   */\n      0x4e487b71\n        /* \"#utility.yul\":3156:3159   */\n      0xe0\n        /* \"#utility.yul\":3152:3172   */\n      shl\n        /* \"#utility.yul\":3149:3150   */\n      0x00\n        /* \"#utility.yul\":3142:3173   */\n      mstore\n        /* \"#utility.yul\":3192:3196   */\n      0x11\n        /* \"#utility.yul\":3189:3190   */\n      0x04\n        /* \"#utility.yul\":3182:3197   */\n      mstore\n        /* \"#utility.yul\":3216:3220   */\n      0x24\n        /* \"#utility.yul\":3213:3214   */\n      0x00\n        /* \"#utility.yul\":3206:3221   */\n      revert\n        /* \"#utility.yul\":3232:3360   */\n    tag_48:\n        /* \"#utility.yul\":3299:3308   */\n      dup2\n      dup2\n      sub\n        /* \"#utility.yul\":3320:3331   */\n      dup2\n      dup2\n      gt\n        /* \"#utility.yul\":3317:3354   */\n      iszero\n      tag_138\n      jumpi\n        /* \"#utility.yul\":3334:3352   */\n      tag_138\n      tag_116\n      jump\t// in\n        /* \"#utility.yul\":3365:3492   */\n    tag_52:\n        /* \"#utility.yul\":3426:3436   */\n      0x4e487b71\n        /* \"#utility.yul\":3421:3424   */\n      0xe0\n        /* \"#utility.yul\":3417:3437   */\n      shl\n        /* \"#utility.yul\":3414:3415   */\n      0x00\n        /* \"#utility.yul\":3407:3438   */\n      mstore\n        /* \"#utility.yul\":3457:3461   */\n      0x32\n        /* \"#utility.yul\":3454:3455   */\n      0x04\n        /* \"#utility.yul\":3447:3462   */\n      mstore\n        /* \"#utility.yul\":3481:3485   */\n      0x24\n        /* \"#utility.yul\":3478:3479   */\n      0x00\n        /* \"#utility.yul\":3471:3486   */\n      revert\n        /* \"#utility.yul\":3497:3622   */\n    tag_58:\n        /* \"#utility.yul\":3562:3571   */\n      dup1\n      dup3\n      add\n        /* \"#utility.yul\":3583:3593   */\n      dup1\n      dup3\n      gt\n        /* \"#utility.yul\":3580:3616   */\n      iszero\n      tag_138\n      jumpi\n        /* \"#utility.yul\":3596:3614   */\n      tag_138\n      tag_116\n      jump\t// in\n        /* \"#utility.yul\":3627:3754   */\n    tag_61:\n        /* \"#utility.yul\":3688:3698   */\n      0x4e487b71\n        /* \"#utility.yul\":3683:3686   */\n      0xe0\n        /* \"#utility.yul\":3679:3699   */\n      shl\n        /* \"#utility.yul\":3676:3677   */\n      0x00\n        /* \"#utility.yul\":3669:3700   */\n      mstore\n        /* \"#utility.yul\":3719:3723   */\n      0x31\n        /* \"#utility.yul\":3716:3717   */\n      0x04\n        /* \"#utility.yul\":3709:3724   */\n      mstore\n        /* \"#utility.yul\":3743:3747   */\n      0x24\n        /* \"#utility.yul\":3740:3741   */\n      0x00\n        /* \"#utility.yul\":3733:3748   */\n      revert\n        /* \"#utility.yul\":3759:4076   */\n    tag_80:\n      sub(shl(0xa0, 0x01), 0x01)\n        /* \"#utility.yul\":3957:4012   */\n      dup4\n      and\n        /* \"#utility.yul\":3939:4013   */\n      dup2\n      mstore\n        /* \"#utility.yul\":3927:3929   */\n      0x40\n        /* \"#utility.yul\":3912:3930   */\n      dup2\n      add\n        /* \"#utility.yul\":4022:4070   */\n      tag_133\n        /* \"#utility.yul\":4066:4068   */\n      0x20\n        /* \"#utility.yul\":4051:4069   */\n      dup4\n      add\n        /* \"#utility.yul\":4043:4049   */\n      dup5\n        /* \"#utility.yul\":4022:4070   */\n      tag_115\n      jump\t// in\n\n    auxdata: 0xa2646970667358221220b1439e4fe750f093d68cf5f736bd7150d846307c4fafea96c1061784d8e6bb2d64736f6c634300081e0033\n}\n",
				"bytecode": {
					"linkReferences": {},
					"object": "6080604052348015600e575f5ffd5b506109fe8061001c5f395ff3fe608060405234801561000f575f5ffd5b506004361061006e575f3560e01c8063993746421161004d5780639937464214610102578063addfa35314610131578063ce4cf9cb14610144575f5ffd5b80629d2013146100725780630d889bfa146100875780632253e0f1146100d7575b5f5ffd5b610085610080366004610841565b610181565b005b6100ba610095366004610841565b600260209081525f92835260408084209091529082529020546001600160801b031681565b6040516001600160801b0390911681526020015b60405180910390f35b6100ea6100e5366004610872565b610426565b6040516001600160a01b0390911681526020016100ce565b61012461011036600461089a565b5f6020819052908152604090205460ff1681565b6040516100ce91906108ee565b61008561013f366004610902565b61045a565b610171610152366004610841565b600160209081525f928352604080842090915290825290205460ff1681565b60405190151581526020016100ce565b6005546001600160a01b031633146101ac57604051631a31054160e11b815260040160405180910390fd5b6001600160a01b0382165f9081526001602090815260408083206001600160801b038516845290915290205460ff16610217576040516358cce33760e01b81526001600160a01b03831660048201526001600160801b03821660248201526044015b60405180910390fd5b6001600160801b0381165f9081526004602090815260408083206001600160a01b0386168452909152902054801561039b575f61025560018361095d565b6001600160801b0384165f9081526003602052604081208054929350909161027f9060019061095d565b8154811061028f5761028f610970565b5f9182526020808320909101546001600160801b03871683526003909152604090912080546001600160a01b0390921692508291849081106102d3576102d3610970565b5f91825260209091200180546001600160a01b0319166001600160a01b0392909216919091179055610306826001610984565b6001600160801b0385165f8181526004602090815260408083206001600160a01b038716845282528083209490945591815260039091522080548061034d5761034d610997565b5f828152602080822083015f1990810180546001600160a01b03191690559092019092556001600160801b03861682526004815260408083206001600160a01b038916845290915281205550505b6001600160a01b0383165f8181526001602090815260408083206001600160801b038716808552908352818420805460ff191690558484526002835281842081855290925280832080546fffffffffffffffffffffffffffffffff19169055519092917f2091a7a9f4bd1d3537c45c3143a470b7c349709a4b0b9e9b2a8f3e37c9de0e2591a3505050565b6003602052815f5260405f20818154811061043f575f80fd5b5f918252602090912001546001600160a01b03169150829050565b6005546001600160a01b0316331461048557604051631a31054160e11b815260040160405180910390fd5b6003816004811115610499576104996108ba565b141580156104b9575060048160048111156104b6576104b66108ba565b14155b156104db5782816040516345c1994960e11b815260040161020e9291906109ab565b816001600160801b03165f03610504576040516334abfc6760e21b815260040160405180910390fd5b6001600160a01b0383165f9081526020819052604081205460ff166004811115610530576105306108ba565b148061059f575060036001600160a01b0384165f9081526020819052604090205460ff166004811115610565576105656108ba565b1415801561059f575060046001600160a01b0384165f9081526020819052604090205460ff16600481111561059c5761059c6108ba565b14155b15610627576001600160a01b0383165f908152602081905260409020805482919060ff191660018360048111156105d8576105d86108ba565b02179055508060048111156105ef576105ef6108ba565b6040516001600160a01b038516907faa259565575c834bc07e74dca784b4071676133ac78513b431afb6ee7edae121905f90a36106e9565b806004811115610639576106396108ba565b6001600160a01b0384165f9081526020819052604090205460ff166004811115610665576106656108ba565b146106e9576001600160a01b0383165f908152602081905260409020805482919060ff1916600183600481111561069e5761069e6108ba565b02179055508060048111156106b5576106b56108ba565b6040516001600160a01b038516907faa259565575c834bc07e74dca784b4071676133ac78513b431afb6ee7edae121905f90a35b6001600160801b0382165f9081526004602090815260408083206001600160a01b03871684529091528120549003610776576001600160801b0382165f81815260036020908152604080832080546001810182558185528385200180546001600160a01b0319166001600160a01b038a169081179091559484525460048352818420948452939091529020555b6001600160a01b0383165f8181526001602081815260408084206001600160801b03888116808752918452828620805460ff19169095179094558585526002835281852081865290925280842080546fffffffffffffffffffffffffffffffff1916429094169390931790925590519092917fa7a040419689ac3001a2b7e46b4cc55aa49833559239a3d51e72e097cd28a98f91a3505050565b80356001600160a01b0381168114610826575f5ffd5b919050565b80356001600160801b0381168114610826575f5ffd5b5f5f60408385031215610852575f5ffd5b61085b83610810565b91506108696020840161082b565b90509250929050565b5f5f60408385031215610883575f5ffd5b61088c8361082b565b946020939093013593505050565b5f602082840312156108aa575f5ffd5b6108b382610810565b9392505050565b634e487b7160e01b5f52602160045260245ffd5b600581106108ea57634e487b7160e01b5f52602160045260245ffd5b9052565b602081016108fc82846108ce565b92915050565b5f5f5f60608486031215610914575f5ffd5b61091d84610810565b925061092b6020850161082b565b915060408401356005811061093e575f5ffd5b809150509250925092565b634e487b7160e01b5f52601160045260245ffd5b818103818111156108fc576108fc610949565b634e487b7160e01b5f52603260045260245ffd5b808201808211156108fc576108fc610949565b634e487b7160e01b5f52603160045260245ffd5b6001600160a01b0383168152604081016108b360208301846108ce56fea2646970667358221220b1439e4fe750f093d68cf5f736bd7150d846307c4fafea96c1061784d8e6bb2d64736f6c634300081e0033",
					"opcodes": "PUSH1 0x80 PUSH1 0x40 MSTORE CALLVALUE DUP1 ISZERO PUSH1 0xE JUMPI PUSH0 PUSH0 REVERT JUMPDEST POP PUSH2 0x9FE DUP1 PUSH2 0x1C PUSH0 CODECOPY PUSH0 RETURN INVALID PUSH1 0x80 PUSH1 0x40 MSTORE CALLVALUE DUP1 ISZERO PUSH2 0xF JUMPI PUSH0 PUSH0 REVERT JUMPDEST POP PUSH1 0x4 CALLDATASIZE LT PUSH2 0x6E JUMPI PUSH0 CALLDATALOAD PUSH1 0xE0 SHR DUP1 PUSH4 0x99374642 GT PUSH2 0x4D JUMPI DUP1 PUSH4 0x99374642 EQ PUSH2 0x102 JUMPI DUP1 PUSH4 0xADDFA353 EQ PUSH2 0x131 JUMPI DUP1 PUSH4 0xCE4CF9CB EQ PUSH2 0x144 JUMPI PUSH0 PUSH0 REVERT JUMPDEST DUP1 PUSH3 0x9D2013 EQ PUSH2 0x72 JUMPI DUP1 PUSH4 0xD889BFA EQ PUSH2 0x87 JUMPI DUP1 PUSH4 0x2253E0F1 EQ PUSH2 0xD7 JUMPI JUMPDEST PUSH0 PUSH0 REVERT JUMPDEST PUSH2 0x85 PUSH2 0x80 CALLDATASIZE PUSH1 0x4 PUSH2 0x841 JUMP JUMPDEST PUSH2 0x181 JUMP JUMPDEST STOP JUMPDEST PUSH2 0xBA PUSH2 0x95 CALLDATASIZE PUSH1 0x4 PUSH2 0x841 JUMP JUMPDEST PUSH1 0x2 PUSH1 0x20 SWAP1 DUP2 MSTORE PUSH0 SWAP3 DUP4 MSTORE PUSH1 0x40 DUP1 DUP5 KECCAK256 SWAP1 SWAP2 MSTORE SWAP1 DUP3 MSTORE SWAP1 KECCAK256 SLOAD PUSH1 0x1 PUSH1 0x1 PUSH1 0x80 SHL SUB AND DUP2 JUMP JUMPDEST PUSH1 0x40 MLOAD PUSH1 0x1 PUSH1 0x1 PUSH1 0x80 SHL SUB SWAP1 SWAP2 AND DUP2 MSTORE PUSH1 0x20 ADD JUMPDEST PUSH1 0x40 MLOAD DUP1 SWAP2 SUB SWAP1 RETURN JUMPDEST PUSH2 0xEA PUSH2 0xE5 CALLDATASIZE PUSH1 0x4 PUSH2 0x872 JUMP JUMPDEST PUSH2 0x426 JUMP JUMPDEST PUSH1 0x40 MLOAD PUSH1 0x1 PUSH1 0x1 PUSH1 0xA0 SHL SUB SWAP1 SWAP2 AND DUP2 MSTORE PUSH1 0x20 ADD PUSH2 0xCE JUMP JUMPDEST PUSH2 0x124 PUSH2 0x110 CALLDATASIZE PUSH1 0x4 PUSH2 0x89A JUMP JUMPDEST PUSH0 PUSH1 0x20 DUP2 SWAP1 MSTORE SWAP1 DUP2 MSTORE PUSH1 0x40 SWAP1 KECCAK256 SLOAD PUSH1 0xFF AND DUP2 JUMP JUMPDEST PUSH1 0x40 MLOAD PUSH2 0xCE SWAP2 SWAP1 PUSH2 0x8EE JUMP JUMPDEST PUSH2 0x85 PUSH2 0x13F CALLDATASIZE PUSH1 0x4 PUSH2 0x902 JUMP JUMPDEST PUSH2 0x45A JUMP JUMPDEST PUSH2 0x171 PUSH2 0x152 CALLDATASIZE PUSH1 0x4 PUSH2 0x841 JUMP JUMPDEST PUSH1 0x1 PUSH1 0x20 SWAP1 DUP2 MSTORE PUSH0 SWAP3 DUP4 MSTORE PUSH1 0x40 DUP1 DUP5 KECCAK256 SWAP1 SWAP2 MSTORE SWAP1 DUP3 MSTORE SWAP1 KECCAK256 SLOAD PUSH1 0xFF AND DUP2 JUMP JUMPDEST PUSH1 0x40 MLOAD SWAP1 ISZERO ISZERO DUP2 MSTORE PUSH1 0x20 ADD PUSH2 0xCE JUMP JUMPDEST PUSH1 0x5 SLOAD PUSH1 0x1 PUSH1 0x1 PUSH1 0xA0 SHL SUB AND CALLER EQ PUSH2 0x1AC JUMPI PUSH1 0x40 MLOAD PUSH4 0x1A310541 PUSH1 0xE1 SHL DUP2 MSTORE PUSH1 0x4 ADD PUSH1 0x40 MLOAD DUP1 SWAP2 SUB SWAP1 REVERT JUMPDEST PUSH1 0x1 PUSH1 0x1 PUSH1 0xA0 SHL SUB DUP3 AND PUSH0 SWAP1 DUP2 MSTORE PUSH1 0x1 PUSH1 0x20 SWAP1 DUP2 MSTORE PUSH1 0x40 DUP1 DUP4 KECCAK256 PUSH1 0x1 PUSH1 0x1 PUSH1 0x80 SHL SUB DUP6 AND DUP5 MSTORE SWAP1 SWAP2 MSTORE SWAP1 KECCAK256 SLOAD PUSH1 0xFF AND PUSH2 0x217 JUMPI PUSH1 0x40 MLOAD PUSH4 0x58CCE337 PUSH1 0xE0 SHL DUP2 MSTORE PUSH1 0x1 PUSH1 0x1 PUSH1 0xA0 SHL SUB DUP4 AND PUSH1 0x4 DUP3 ADD MSTORE PUSH1 0x1 PUSH1 0x1 PUSH1 0x80 SHL SUB DUP3 AND PUSH1 0x24 DUP3 ADD MSTORE PUSH1 0x44 ADD JUMPDEST PUSH1 0x40 MLOAD DUP1 SWAP2 SUB SWAP1 REVERT JUMPDEST PUSH1 0x1 PUSH1 0x1 PUSH1 0x80 SHL SUB DUP2 AND PUSH0 SWAP1 DUP2 MSTORE PUSH1 0x4 PUSH1 0x20 SWAP1 DUP2 MSTORE PUSH1 0x40 DUP1 DUP4 KECCAK256 PUSH1 0x1 PUSH1 0x1 PUSH1 0xA0 SHL SUB DUP7 AND DUP5 MSTORE SWAP1 SWAP2 MSTORE SWAP1 KECCAK256 SLOAD DUP1 ISZERO PUSH2 0x39B JUMPI PUSH0 PUSH2 0x255 PUSH1 0x1 DUP4 PUSH2 0x95D JUMP JUMPDEST PUSH1 0x1 PUSH1 0x1 PUSH1 0x80 SHL SUB DUP5 AND PUSH0 SWAP1 DUP2 MSTORE PUSH1 0x3 PUSH1 0x20 MSTORE PUSH1 0x40 DUP2 KECCAK256 DUP1 SLOAD SWAP3 SWAP4 POP SWAP1 SWAP2 PUSH2 0x27F SWAP1 PUSH1 0x1 SWAP1 PUSH2 0x95D JUMP JUMPDEST DUP2 SLOAD DUP2 LT PUSH2 0x28F JUMPI PUSH2 0x28F PUSH2 0x970 JUMP JUMPDEST PUSH0 SWAP2 DUP3 MSTORE PUSH1 0x20 DUP1 DUP4 KECCAK256 SWAP1 SWAP2 ADD SLOAD PUSH1 0x1 PUSH1 0x1 PUSH1 0x80 SHL SUB DUP8 AND DUP4 MSTORE PUSH1 0x3 SWAP1 SWAP2 MSTORE PUSH1 0x40 SWAP1 SWAP2 KECCAK256 DUP1 SLOAD PUSH1 0x1 PUSH1 0x1 PUSH1 0xA0 SHL SUB SWAP1 SWAP3 AND SWAP3 POP DUP3 SWAP2 DUP5 SWAP1 DUP2 LT PUSH2 0x2D3 JUMPI PUSH2 0x2D3 PUSH2 0x970 JUMP JUMPDEST PUSH0 SWAP2 DUP3 MSTORE PUSH1 0x20 SWAP1 SWAP2 KECCAK256 ADD DUP1 SLOAD PUSH1 0x1 PUSH1 0x1 PUSH1 0xA0 SHL SUB NOT AND PUSH1 0x1 PUSH1 0x1 PUSH1 0xA0 SHL SUB SWAP3 SWAP1 SWAP3 AND SWAP2 SWAP1 SWAP2 OR SWAP1 SSTORE PUSH2 0x306 DUP3 PUSH1 0x1 PUSH2 0x984 JUMP JUMPDEST PUSH1 0x1 PUSH1 0x1 PUSH1 0x80 SHL SUB DUP6 AND PUSH0 DUP2 DUP2 MSTORE PUSH1 0x4 PUSH1 0x20 SWAP1 DUP2 MSTORE PUSH1 0x40 DUP1 DUP4 KECCAK256 PUSH1 0x1 PUSH1 0x1 PUSH1 0xA0 SHL SUB DUP8 AND DUP5 MSTORE DUP3 MSTORE DUP1 DUP4 KECCAK256 SWAP5 SWAP1 SWAP5 SSTORE SWAP2 DUP2 MSTORE PUSH1 0x3 SWAP1 SWAP2 MSTORE KECCAK256 DUP1 SLOAD DUP1 PUSH2 0x34D JUMPI PUSH2 0x34D PUSH2 0x997 JUMP JUMPDEST PUSH0 DUP3 DUP2 MSTORE PUSH1 0x20 DUP1 DUP3 KECCAK256 DUP4 ADD PUSH0 NOT SWAP1 DUP2 ADD DUP1 SLOAD PUSH1 0x1 PUSH1 0x1 PUSH1 0xA0 SHL SUB NOT AND SWAP1 SSTORE SWAP1 SWAP3 ADD SWAP1 SWAP3 SSTORE PUSH1 0x1 PUSH1 0x1 PUSH1 0x80 SHL SUB DUP7 AND DUP3 MSTORE PUSH1 0x4 DUP2 MSTORE PUSH1 0x40 DUP1 DUP4 KECCAK256 PUSH1 0x1 PUSH1 0x1 PUSH1 0xA0 SHL SUB DUP10 AND DUP5 MSTORE SWAP1 SWAP2 MSTORE DUP2 KECCAK256 SSTORE POP POP JUMPDEST PUSH1 0x1 PUSH1 0x1 PUSH1 0xA0 SHL SUB DUP4 AND PUSH0 DUP2 DUP2 MSTORE PUSH1 0x1 PUSH1 0x20 SWAP1 DUP2 MSTORE PUSH1 0x40 DUP1 DUP4 KECCAK256 PUSH1 0x1 PUSH1 0x1 PUSH1 0x80 SHL SUB DUP8 AND DUP1 DUP6 MSTORE SWAP1 DUP4 MSTORE DUP2 DUP5 KECCAK256 DUP1 SLOAD PUSH1 0xFF NOT AND SWAP1 SSTORE DUP5 DUP5 MSTORE PUSH1 0x2 DUP4 MSTORE DUP2 DUP5 KECCAK256 DUP2 DUP6 MSTORE SWAP1 SWAP3 MSTORE DUP1 DUP4 KECCAK256 DUP1 SLOAD PUSH16 0xFFFFFFFFFFFFFFFFFFFFFFFFFFFFFFFF NOT AND SWAP1 SSTORE MLOAD SWAP1 SWAP3 SWAP2 PUSH32 0x2091A7A9F4BD1D3537C45C3143A470B7C349709A4B0B9E9B2A8F3E37C9DE0E25 SWAP2 LOG3 POP POP POP JUMP JUMPDEST PUSH1 0x3 PUSH1 0x20 MSTORE DUP2 PUSH0 MSTORE PUSH1 0x40 PUSH0 KECCAK256 DUP2 DUP2 SLOAD DUP2 LT PUSH2 0x43F JUMPI PUSH0 DUP1 REVERT JUMPDEST PUSH0 SWAP2 DUP3 MSTORE PUSH1 0x20 SWAP1 SWAP2 KECCAK256 ADD SLOAD PUSH1 0x1 PUSH1 0x1 PUSH1 0xA0 SHL SUB AND SWAP2 POP DUP3 SWAP1 POP JUMP JUMPDEST PUSH1 0x5 SLOAD PUSH1 0x1 PUSH1 0x1 PUSH1 0xA0 SHL SUB AND CALLER EQ PUSH2 0x485 JUMPI PUSH1 0x40 MLOAD PUSH4 0x1A310541 PUSH1 0xE1 SHL DUP2 MSTORE PUSH1 0x4 ADD PUSH1 0x40 MLOAD DUP1 SWAP2 SUB SWAP1 REVERT JUMPDEST PUSH1 0x3 DUP2 PUSH1 0x4 DUP2 GT ISZERO PUSH2 0x499 JUMPI PUSH2 0x499 PUSH2 0x8BA JUMP JUMPDEST EQ ISZERO DUP1 ISZERO PUSH2 0x4B9 JUMPI POP PUSH1 0x4 DUP2 PUSH1 0x4 DUP2 GT ISZERO PUSH2 0x4B6 JUMPI PUSH2 0x4B6 PUSH2 0x8BA JUMP JUMPDEST EQ ISZERO JUMPDEST ISZERO PUSH2 0x4DB JUMPI DUP3 DUP2 PUSH1 0x40 MLOAD PUSH4 0x45C19949 PUSH1 0xE1 SHL DUP2 MSTORE PUSH1 0x4 ADD PUSH2 0x20E SWAP3 SWAP2 SWAP1 PUSH2 0x9AB JUMP JUMPDEST DUP2 PUSH1 0x1 PUSH1 0x1 PUSH1 0x80 SHL SUB AND PUSH0 SUB PUSH2 0x504 JUMPI PUSH1 0x40 MLOAD PUSH4 0x34ABFC67 PUSH1 0xE2 SHL DUP2 MSTORE PUSH1 0x4 ADD PUSH1 0x40 MLOAD DUP1 SWAP2 SUB SWAP1 REVERT JUMPDEST PUSH1 0x1 PUSH1 0x1 PUSH1 0xA0 SHL SUB DUP4 AND PUSH0 SWAP1 DUP2 MSTORE PUSH1 0x20 DUP2 SWAP1 MSTORE PUSH1 0x40 DUP2 KECCAK256 SLOAD PUSH1 0xFF AND PUSH1 0x4 DUP2 GT ISZERO PUSH2 0x530 JUMPI PUSH2 0x530 PUSH2 0x8BA JUMP JUMPDEST EQ DUP1 PUSH2 0x59F JUMPI POP PUSH1 0x3 PUSH1 0x1 PUSH1 0x1 PUSH1 0xA0 SHL SUB DUP5 AND PUSH0 SWAP1 DUP2 MSTORE PUSH1 0x20 DUP2 SWAP1 MSTORE PUSH1 0x40 SWAP1 KECCAK256 SLOAD PUSH1 0xFF AND PUSH1 0x4 DUP2 GT ISZERO PUSH2 0x565 JUMPI PUSH2 0x565 PUSH2 0x8BA JUMP JUMPDEST EQ ISZERO DUP1 ISZERO PUSH2 0x59F JUMPI POP PUSH1 0x4 PUSH1 0x1 PUSH1 0x1 PUSH1 0xA0 SHL SUB DUP5 AND PUSH0 SWAP1 DUP2 MSTORE PUSH1 0x20 DUP2 SWAP1 MSTORE PUSH1 0x40 SWAP1 KECCAK256 SLOAD PUSH1 0xFF AND PUSH1 0x4 DUP2 GT ISZERO PUSH2 0x59C JUMPI PUSH2 0x59C PUSH2 0x8BA JUMP JUMPDEST EQ ISZERO JUMPDEST ISZERO PUSH2 0x627 JUMPI PUSH1 0x1 PUSH1 0x1 PUSH1 0xA0 SHL SUB DUP4 AND PUSH0 SWAP1 DUP2 MSTORE PUSH1 0x20 DUP2 SWAP1 MSTORE PUSH1 0x40 SWAP1 KECCAK256 DUP1 SLOAD DUP3 SWAP2 SWAP1 PUSH1 0xFF NOT AND PUSH1 0x1 DUP4 PUSH1 0x4 DUP2 GT ISZERO PUSH2 0x5D8 JUMPI PUSH2 0x5D8 PUSH2 0x8BA JUMP JUMPDEST MUL OR SWAP1 SSTORE POP DUP1 PUSH1 0x4 DUP2 GT ISZERO PUSH2 0x5EF JUMPI PUSH2 0x5EF PUSH2 0x8BA JUMP JUMPDEST PUSH1 0x40 MLOAD PUSH1 0x1 PUSH1 0x1 PUSH1 0xA0 SHL SUB DUP6 AND SWAP1 PUSH32 0xAA259565575C834BC07E74DCA784B4071676133AC78513B431AFB6EE7EDAE121 SWAP1 PUSH0 SWAP1 LOG3 PUSH2 0x6E9 JUMP JUMPDEST DUP1 PUSH1 0x4 DUP2 GT ISZERO PUSH2 0x639 JUMPI PUSH2 0x639 PUSH2 0x8BA JUMP JUMPDEST PUSH1 0x1 PUSH1 0x1 PUSH1 0xA0 SHL SUB DUP5 AND PUSH0 SWAP1 DUP2 MSTORE PUSH1 0x20 DUP2 SWAP1 MSTORE PUSH1 0x40 SWAP1 KECCAK256 SLOAD PUSH1 0xFF AND PUSH1 0x4 DUP2 GT ISZERO PUSH2 0x665 JUMPI PUSH2 0x665 PUSH2 0x8BA JUMP JUMPDEST EQ PUSH2 0x6E9 JUMPI PUSH1 0x1 PUSH1 0x1 PUSH1 0xA0 SHL SUB DUP4 AND PUSH0 SWAP1 DUP2 MSTORE PUSH1 0x20 DUP2 SWAP1 MSTORE PUSH1 0x40 SWAP1 KECCAK256 DUP1 SLOAD DUP3 SWAP2 SWAP1 PUSH1 0xFF NOT AND PUSH1 0x1 DUP4 PUSH1 0x4 DUP2 GT ISZERO PUSH2 0x69E JUMPI PUSH2 0x69E PUSH2 0x8BA JUMP JUMPDEST MUL OR SWAP1 SSTORE POP DUP1 PUSH1 0x4 DUP2 GT ISZERO PUSH2 0x6B5 JUMPI PUSH2 0x6B5 PUSH2 0x8BA JUMP JUMPDEST PUSH1 0x40 MLOAD PUSH1 0x1 PUSH1 0x1 PUSH1 0xA0 SHL SUB DUP6 AND SWAP1 PUSH32 0xAA259565575C834BC07E74DCA784B4071676133AC78513B431AFB6EE7EDAE121 SWAP1 PUSH0 SWAP1 LOG3 JUMPDEST PUSH1 0x1 PUSH1 0x1 PUSH1 0x80 SHL SUB DUP3 AND PUSH0 SWAP1 DUP2 MSTORE PUSH1 0x4 PUSH1 0x20 SWAP1 DUP2 MSTORE PUSH1 0x40 DUP1 DUP4 KECCAK256 PUSH1 0x1 PUSH1 0x1 PUSH1 0xA0 SHL SUB DUP8 AND DUP5 MSTORE SWAP1 SWAP2 MSTORE DUP2 KECCAK256 SLOAD SWAP1 SUB PUSH2 0x776 JUMPI PUSH1 0x1 PUSH1 0x1 PUSH1 0x80 SHL SUB DUP3 AND PUSH0 DUP2 DUP2 MSTORE PUSH1 0x3 PUSH1 0x20 SWAP1 DUP2 MSTORE PUSH1 0x40 DUP1 DUP4 KECCAK256 DUP1 SLOAD PUSH1 0x1 DUP2 ADD DUP3 SSTORE DUP2 DUP6 MSTORE DUP4 DUP6 KECCAK256 ADD DUP1 SLOAD PUSH1 0x1 PUSH1 0x1 PUSH1 0xA0 SHL SUB NOT AND PUSH1 0x1 PUSH1 0x1 PUSH1 0xA0 SHL SUB DUP11 AND SWAP1 DUP2 OR SWAP1 SWAP2 SSTORE SWAP5 DUP5 MSTORE SLOAD PUSH1 0x4 DUP4 MSTORE DUP2 DUP5 KECCAK256 SWAP5 DUP5 MSTORE SWAP4 SWAP1 SWAP2 MSTORE SWAP1 KECCAK256 SSTORE JUMPDEST PUSH1 0x1 PUSH1 0x1 PUSH1 0xA0 SHL SUB DUP4 AND PUSH0 DUP2 DUP2 MSTORE PUSH1 0x1 PUSH1 0x20 DUP2 DUP2 MSTORE PUSH1 0x40 DUP1 DUP5 KECCAK256 PUSH1 0x1 PUSH1 0x1 PUSH1 0x80 SHL SUB DUP9 DUP2 AND DUP1 DUP8 MSTORE SWAP2 DUP5 MSTORE DUP3 DUP7 KECCAK256 DUP1 SLOAD PUSH1 0xFF NOT AND SWAP1 SWAP6 OR SWAP1 SWAP5 SSTORE DUP6 DUP6 MSTORE PUSH1 0x2 DUP4 MSTORE DUP2 DUP6 KECCAK256 DUP2 DUP7 MSTORE SWAP1 SWAP3 MSTORE DUP1 DUP5 KECCAK256 DUP1 SLOAD PUSH16 0xFFFFFFFFFFFFFFFFFFFFFFFFFFFFFFFF NOT AND TIMESTAMP SWAP1 SWAP5 AND SWAP4 SWAP1 SWAP4 OR SWAP1 SWAP3 SSTORE SWAP1 MLOAD SWAP1 SWAP3 SWAP2 PUSH32 0xA7A040419689AC3001A2B7E46B4CC55AA49833559239A3D51E72E097CD28A98F SWAP2 LOG3 POP POP POP JUMP JUMPDEST DUP1 CALLDATALOAD PUSH1 0x1 PUSH1 0x1 PUSH1 0xA0 SHL SUB DUP2 AND DUP2 EQ PUSH2 0x826 JUMPI PUSH0 PUSH0 REVERT JUMPDEST SWAP2 SWAP1 POP JUMP JUMPDEST DUP1 CALLDATALOAD PUSH1 0x1 PUSH1 0x1 PUSH1 0x80 SHL SUB DUP2 AND DUP2 EQ PUSH2 0x826 JUMPI PUSH0 PUSH0 REVERT JUMPDEST PUSH0 PUSH0 PUSH1 0x40 DUP4 DUP6 SUB SLT ISZERO PUSH2 0x852 JUMPI PUSH0 PUSH0 REVERT JUMPDEST PUSH2 0x85B DUP4 PUSH2 0x810 JUMP JUMPDEST SWAP2 POP PUSH2 0x869 PUSH1 0x20 DUP5 ADD PUSH2 0x82B JUMP JUMPDEST SWAP1 POP SWAP3 POP SWAP3 SWAP1 POP JUMP JUMPDEST PUSH0 PUSH0 PUSH1 0x40 DUP4 DUP6 SUB SLT ISZERO PUSH2 0x883 JUMPI PUSH0 PUSH0 REVERT JUMPDEST PUSH2 0x88C DUP4 PUSH2 0x82B JUMP JUMPDEST SWAP5 PUSH1 0x20 SWAP4 SWAP1 SWAP4 ADD CALLDATALOAD SWAP4 POP POP POP JUMP JUMPDEST PUSH0 PUSH1 0x20 DUP3 DUP5 SUB SLT ISZERO PUSH2 0x8AA JUMPI PUSH0 PUSH0 REVERT JUMPDEST PUSH2 0x8B3 DUP3 PUSH2 0x810 JUMP JUMPDEST SWAP4 SWAP3 POP POP POP JUMP JUMPDEST PUSH4 0x4E487B71 PUSH1 0xE0 SHL PUSH0 MSTORE PUSH1 0x21 PUSH1 0x4 MSTORE PUSH1 0x24 PUSH0 REVERT JUMPDEST PUSH1 0x5 DUP2 LT PUSH2 0x8EA JUMPI PUSH4 0x4E487B71 PUSH1 0xE0 SHL PUSH0 MSTORE PUSH1 0x21 PUSH1 0x4 MSTORE PUSH1 0x24 PUSH0 REVERT JUMPDEST SWAP1 MSTORE JUMP JUMPDEST PUSH1 0x20 DUP2 ADD PUSH2 0x8FC DUP3 DUP5 PUSH2 0x8CE JUMP JUMPDEST SWAP3 SWAP2 POP POP JUMP JUMPDEST PUSH0 PUSH0 PUSH0 PUSH1 0x60 DUP5 DUP7 SUB SLT ISZERO PUSH2 0x914 JUMPI PUSH0 PUSH0 REVERT JUMPDEST PUSH2 0x91D DUP5 PUSH2 0x810 JUMP JUMPDEST SWAP3 POP PUSH2 0x92B PUSH1 0x20 DUP6 ADD PUSH2 0x82B JUMP JUMPDEST SWAP2 POP PUSH1 0x40 DUP5 ADD CALLDATALOAD PUSH1 0x5 DUP2 LT PUSH2 0x93E JUMPI PUSH0 PUSH0 REVERT JUMPDEST DUP1 SWAP2 POP POP SWAP3 POP SWAP3 POP SWAP3 JUMP JUMPDEST PUSH4 0x4E487B71 PUSH1 0xE0 SHL PUSH0 MSTORE PUSH1 0x11 PUSH1 0x4 MSTORE PUSH1 0x24 PUSH0 REVERT JUMPDEST DUP2 DUP2 SUB DUP2 DUP2 GT ISZERO PUSH2 0x8FC JUMPI PUSH2 0x8FC PUSH2 0x949 JUMP JUMPDEST PUSH4 0x4E487B71 PUSH1 0xE0 SHL PUSH0 MSTORE PUSH1 0x32 PUSH1 0x4 MSTORE PUSH1 0x24 PUSH0 REVERT JUMPDEST DUP1 DUP3 ADD DUP1 DUP3 GT ISZERO PUSH2 0x8FC JUMPI PUSH2 0x8FC PUSH2 0x949 JUMP JUMPDEST PUSH4 0x4E487B71 PUSH1 0xE0 SHL PUSH0 MSTORE PUSH1 0x31 PUSH1 0x4 MSTORE PUSH1 0x24 PUSH0 REVERT JUMPDEST PUSH1 0x1 PUSH1 0x1 PUSH1 0xA0 SHL SUB DUP4 AND DUP2 MSTORE PUSH1 0x40 DUP2 ADD PUSH2 0x8B3 PUSH1 0x20 DUP4 ADD DUP5 PUSH2 0x8CE JUMP INVALID LOG2 PUSH5 0x6970667358 0x22 SLT KECCAK256 0xB1 NUMBER SWAP15 0x4F SWAPN 0x50 CREATE SWAP4 0xD6 DUP13 CREATE2 0xF7 CALLDATASIZE 0xBD PUSH18 0x50D846307C4FAFEA96C1061784D8E6BB2D64 PUSH20 0x6F6C634300081E00330000000000000000000000 "
				},
				"gasEstimates": {
					"creation": {
						"codeDepositCost": "511600",
						"executionCost": "541",
						"totalCost": "512141"
					},
					"external": {
						"assignStaffToRestaurant(address,uint128,uint8)": "infinite",
						"removeStaffFromRestaurant(address,uint128)": "infinite",
						"roles(address)": "2606",
						"staffAssignmentDates(address,uint128)": "infinite",
						"staffAssignments(address,uint128)": "infinite",
						"staffListByRestaurant(uint128,uint256)": "4823"
					},
					"internal": {
						"_getStaffAddressesForRestaurantInternal(uint128)": "infinite",
						"_getStaffAssignmentDateInternal(address,uint128)": "infinite",
						"_grantRoleInternal(address,enum Role)": "infinite",
						"_isStaffOfRestaurant(address,uint128)": "infinite",
						"_revokeRoleInternal(address)": "infinite",
						"initializeRoles(address)": "infinite"
					}
				},
				"methodIdentifiers": {
					"assignStaffToRestaurant(address,uint128,uint8)": "addfa353",
					"removeStaffFromRestaurant(address,uint128)": "009d2013",
					"roles(address)": "99374642",
					"staffAssignmentDates(address,uint128)": "0d889bfa",
					"staffAssignments(address,uint128)": "ce4cf9cb",
					"staffListByRestaurant(uint128,uint256)": "2253e0f1"
				}
			},
			"storageLayout": {
				"storage": [
					{
						"astId": 33,
						"contract": "access/RoleAccess.sol:RoleAccess",
						"label": "roles",
						"offset": 0,
						"slot": "0",
						"type": "t_mapping(t_address,t_enum(Role)544)"
					},
					{
						"astId": 39,
						"contract": "access/RoleAccess.sol:RoleAccess",
						"label": "staffAssignments",
						"offset": 0,
						"slot": "1",
						"type": "t_mapping(t_address,t_mapping(t_uint128,t_bool))"
					},
					{
						"astId": 45,
						"contract": "access/RoleAccess.sol:RoleAccess",
						"label": "staffAssignmentDates",
						"offset": 0,
						"slot": "2",
						"type": "t_mapping(t_address,t_mapping(t_uint128,t_uint128))"
					},
					{
						"astId": 50,
						"contract": "access/RoleAccess.sol:RoleAccess",
						"label": "staffListByRestaurant",
						"offset": 0,
						"slot": "3",
						"type": "t_mapping(t_uint128,t_array(t_address)dyn_storage)"
					},
					{
						"astId": 56,
						"contract": "access/RoleAccess.sol:RoleAccess",
						"label": "staffIndexInRestaurantList",
						"offset": 0,
						"slot": "4",
						"type": "t_mapping(t_uint128,t_mapping(t_address,t_uint256))"
					},
					{
						"astId": 58,
						"contract": "access/RoleAccess.sol:RoleAccess",
						"label": "_roleAdmin",
						"offset": 0,
						"slot": "5",
						"type": "t_address"
					}
				],
				"types": {
					"t_address": {
						"encoding": "inplace",
						"label": "address",
						"numberOfBytes": "20"
					},
					"t_array(t_address)dyn_storage": {
						"base": "t_address",
						"encoding": "dynamic_array",
						"label": "address[]",
						"numberOfBytes": "32"
					},
					"t_bool": {
						"encoding": "inplace",
						"label": "bool",
						"numberOfBytes": "1"
					},
					"t_enum(Role)544": {
						"encoding": "inplace",
						"label": "enum Role",
						"numberOfBytes": "1"
					},
					"t_mapping(t_address,t_enum(Role)544)": {
						"encoding": "mapping",
						"key": "t_address",
						"label": "mapping(address => enum Role)",
						"numberOfBytes": "32",
						"value": "t_enum(Role)544"
					},
					"t_mapping(t_address,t_mapping(t_uint128,t_bool))": {
						"encoding": "mapping",
						"key": "t_address",
						"label": "mapping(address => mapping(uint128 => bool))",
						"numberOfBytes": "32",
						"value": "t_mapping(t_uint128,t_bool)"
					},
					"t_mapping(t_address,t_mapping(t_uint128,t_uint128))": {
						"encoding": "mapping",
						"key": "t_address",
						"label": "mapping(address => mapping(uint128 => uint128))",
						"numberOfBytes": "32",
						"value": "t_mapping(t_uint128,t_uint128)"
					},
					"t_mapping(t_address,t_uint256)": {
						"encoding": "mapping",
						"key": "t_address",
						"label": "mapping(address => uint256)",
						"numberOfBytes": "32",
						"value": "t_uint256"
					},
					"t_mapping(t_uint128,t_array(t_address)dyn_storage)": {
						"encoding": "mapping",
						"key": "t_uint128",
						"label": "mapping(uint128 => address[])",
						"numberOfBytes": "32",
						"value": "t_array(t_address)dyn_storage"
					},
					"t_mapping(t_uint128,t_bool)": {
						"encoding": "mapping",
						"key": "t_uint128",
						"label": "mapping(uint128 => bool)",
						"numberOfBytes": "32",
						"value": "t_bool"
					},
					"t_mapping(t_uint128,t_mapping(t_address,t_uint256))": {
						"encoding": "mapping",
						"key": "t_uint128",
						"label": "mapping(uint128 => mapping(address => uint256))",
						"numberOfBytes": "32",
						"value": "t_mapping(t_address,t_uint256)"
					},
					"t_mapping(t_uint128,t_uint128)": {
						"encoding": "mapping",
						"key": "t_uint128",
						"label": "mapping(uint128 => uint128)",
						"numberOfBytes": "32",
						"value": "t_uint128"
					},
					"t_uint128": {
						"encoding": "inplace",
						"label": "uint128",
						"numberOfBytes": "16"
					},
					"t_uint256": {
						"encoding": "inplace",
						"label": "uint256",
						"numberOfBytes": "32"
					}
				}
			},
			"userdoc": {
				"kind": "user",
				"methods": {},
				"version": 1
			}
		}
	}
}