{
	"access/RoleAccess.sol": {
		"RoleAccess": {
			"abi": [
				{
					"inputs": [
						{
							"internalType": "address",
							"name": "account",
							"type": "address"
						},
						{
							"internalType": "enum RoleAccess.Role",
							"name": "role",
							"type": "uint8"
						}
					],
					"name": "RoleAccess__AlreadyHasRole",
					"type": "error"
				},
				{
					"inputs": [],
					"name": "RoleAccess__InvalidRestaurantId",
					"type": "error"
				},
				{
					"inputs": [],
					"name": "RoleAccess__NotAdmin",
					"type": "error"
				},
				{
					"inputs": [
						{
							"internalType": "address",
							"name": "account",
							"type": "address"
						},
						{
							"internalType": "enum RoleAccess.Role",
							"name": "requiredRole",
							"type": "uint8"
						}
					],
					"name": "RoleAccess__NotSpecificRole",
					"type": "error"
				},
				{
					"inputs": [
						{
							"internalType": "address",
							"name": "staff",
							"type": "address"
						},
						{
							"internalType": "uint128",
							"name": "restaurantId",
							"type": "uint128"
						}
					],
					"name": "RoleAccess__NotStaffOfRestaurant",
					"type": "error"
				},
				{
					"anonymous": false,
					"inputs": [
						{
							"indexed": true,
							"internalType": "address",
							"name": "account",
							"type": "address"
						},
						{
							"indexed": true,
							"internalType": "enum RoleAccess.Role",
							"name": "role",
							"type": "uint8"
						}
					],
					"name": "RoleGranted",
					"type": "event"
				},
				{
					"anonymous": false,
					"inputs": [
						{
							"indexed": true,
							"internalType": "address",
							"name": "account",
							"type": "address"
						},
						{
							"indexed": true,
							"internalType": "enum RoleAccess.Role",
							"name": "oldRole",
							"type": "uint8"
						}
					],
					"name": "RoleRevoked",
					"type": "event"
				},
				{
					"anonymous": false,
					"inputs": [
						{
							"indexed": true,
							"internalType": "address",
							"name": "staff",
							"type": "address"
						},
						{
							"indexed": true,
							"internalType": "uint128",
							"name": "restaurantId",
							"type": "uint128"
						}
					],
					"name": "StaffAssignedToRestaurant",
					"type": "event"
				},
				{
					"anonymous": false,
					"inputs": [
						{
							"indexed": true,
							"internalType": "address",
							"name": "staff",
							"type": "address"
						},
						{
							"indexed": true,
							"internalType": "uint128",
							"name": "restaurantId",
							"type": "uint128"
						}
					],
					"name": "StaffRemovedFromRestaurant",
					"type": "event"
				},
				{
					"inputs": [
						{
							"internalType": "address",
							"name": "staffAccount",
							"type": "address"
						},
						{
							"internalType": "uint128",
							"name": "restaurantId",
							"type": "uint128"
						},
						{
							"internalType": "enum RoleAccess.Role",
							"name": "staffRole",
							"type": "uint8"
						}
					],
					"name": "assignStaffToRestaurant",
					"outputs": [],
					"stateMutability": "nonpayable",
					"type": "function"
				},
				{
					"inputs": [
						{
							"internalType": "address",
							"name": "account",
							"type": "address"
						},
						{
							"internalType": "enum RoleAccess.Role",
							"name": "role",
							"type": "uint8"
						}
					],
					"name": "grantRole",
					"outputs": [],
					"stateMutability": "nonpayable",
					"type": "function"
				},
				{
					"inputs": [
						{
							"internalType": "address",
							"name": "staffAccount",
							"type": "address"
						},
						{
							"internalType": "uint128",
							"name": "restaurantId",
							"type": "uint128"
						}
					],
					"name": "removeStaffFromRestaurant",
					"outputs": [],
					"stateMutability": "nonpayable",
					"type": "function"
				},
				{
					"inputs": [
						{
							"internalType": "address",
							"name": "account",
							"type": "address"
						}
					],
					"name": "revokeRole",
					"outputs": [],
					"stateMutability": "nonpayable",
					"type": "function"
				},
				{
					"inputs": [
						{
							"internalType": "address",
							"name": "",
							"type": "address"
						}
					],
					"name": "roles",
					"outputs": [
						{
							"internalType": "enum RoleAccess.Role",
							"name": "",
							"type": "uint8"
						}
					],
					"stateMutability": "view",
					"type": "function"
				},
				{
					"inputs": [
						{
							"internalType": "address",
							"name": "",
							"type": "address"
						},
						{
							"internalType": "uint128",
							"name": "",
							"type": "uint128"
						}
					],
					"name": "staffAssignments",
					"outputs": [
						{
							"internalType": "bool",
							"name": "",
							"type": "bool"
						}
					],
					"stateMutability": "view",
					"type": "function"
				}
			],
			"devdoc": {
				"kind": "dev",
				"methods": {},
				"version": 1
			},
			"evm": {
				"assembly": "    /* \"access/RoleAccess.sol\":61:5136  contract RoleAccess {... */\n  mstore(0x40, 0x80)\n  callvalue\n  dup1\n  iszero\n  tag_1\n  jumpi\n  revert(0x00, 0x00)\ntag_1:\n  pop\n  dataSize(sub_0)\n  dup1\n  dataOffset(sub_0)\n  0x00\n  codecopy\n  0x00\n  return\nstop\n\nsub_0: assembly {\n        /* \"access/RoleAccess.sol\":61:5136  contract RoleAccess {... */\n      mstore(0x40, 0x80)\n      callvalue\n      dup1\n      iszero\n      tag_1\n      jumpi\n      revert(0x00, 0x00)\n    tag_1:\n      pop\n      jumpi(tag_2, lt(calldatasize, 0x04))\n      shr(0xe0, calldataload(0x00))\n      dup1\n      0x9d2013\n      eq\n      tag_3\n      jumpi\n      dup1\n      0x3e840236\n      eq\n      tag_4\n      jumpi\n      dup1\n      0x80e52e3f\n      eq\n      tag_5\n      jumpi\n      dup1\n      0x99374642\n      eq\n      tag_6\n      jumpi\n      dup1\n      0xaddfa353\n      eq\n      tag_7\n      jumpi\n      dup1\n      0xce4cf9cb\n      eq\n      tag_8\n      jumpi\n    tag_2:\n      revert(0x00, 0x00)\n        /* \"access/RoleAccess.sol\":3323:3929  function removeStaffFromRestaurant(address staffAccount, uint128 restaurantId) public onlyRoleAdmin {... */\n    tag_3:\n      tag_9\n      tag_10\n      calldatasize\n      0x04\n      tag_11\n      jump\t// in\n    tag_10:\n      tag_12\n      jump\t// in\n    tag_9:\n      stop\n        /* \"access/RoleAccess.sol\":1532:1838  function grantRole(address account, Role role) public onlyRoleAdmin {... */\n    tag_4:\n      tag_9\n      tag_14\n      calldatasize\n      0x04\n      tag_15\n      jump\t// in\n    tag_14:\n      tag_16\n      jump\t// in\n        /* \"access/RoleAccess.sol\":1846:2320  function revokeRole(address account) public onlyRoleAdmin {... */\n    tag_5:\n      tag_9\n      tag_18\n      calldatasize\n      0x04\n      tag_19\n      jump\t// in\n    tag_18:\n      tag_20\n      jump\t// in\n        /* \"access/RoleAccess.sol\":478:515  mapping(address => Role) public roles */\n    tag_6:\n      tag_21\n      tag_22\n      calldatasize\n      0x04\n      tag_19\n      jump\t// in\n    tag_22:\n      0x00\n      0x20\n      dup2\n      swap1\n      mstore\n      swap1\n      dup2\n      mstore\n      0x40\n      swap1\n      keccak256\n      sload\n      0xff\n      and\n      dup2\n      jump\n    tag_21:\n      mload(0x40)\n      tag_24\n      swap2\n      swap1\n      tag_25\n      jump\t// in\n    tag_24:\n      mload(0x40)\n      dup1\n      swap2\n      sub\n      swap1\n      return\n        /* \"access/RoleAccess.sol\":2392:3315  function assignStaffToRestaurant(address staffAccount, uint128 restaurantId, Role staffRole) public onlyRoleAdmin {... */\n    tag_7:\n      tag_9\n      tag_27\n      calldatasize\n      0x04\n      tag_28\n      jump\t// in\n    tag_27:\n      tag_29\n      jump\t// in\n        /* \"access/RoleAccess.sol\":522:590  mapping(address => mapping(uint128 => bool)) public staffAssignments */\n    tag_8:\n      tag_30\n      tag_31\n      calldatasize\n      0x04\n      tag_11\n      jump\t// in\n    tag_31:\n      0x01\n      0x20\n      swap1\n      dup2\n      mstore\n      0x00\n      swap3\n      dup4\n      mstore\n      0x40\n      dup1\n      dup5\n      keccak256\n      swap1\n      swap2\n      mstore\n      swap1\n      dup3\n      mstore\n      swap1\n      keccak256\n      sload\n      0xff\n      and\n      dup2\n      jump\n    tag_30:\n      mload(0x40)\n        /* \"#utility.yul\":2330:2344   */\n      swap1\n      iszero\n        /* \"#utility.yul\":2323:2345   */\n      iszero\n        /* \"#utility.yul\":2305:2346   */\n      dup2\n      mstore\n        /* \"#utility.yul\":2293:2295   */\n      0x20\n        /* \"#utility.yul\":2278:2296   */\n      add\n        /* \"access/RoleAccess.sol\":522:590  mapping(address => mapping(uint128 => bool)) public staffAssignments */\n      tag_24\n        /* \"#utility.yul\":2165:2352   */\n      jump\n        /* \"access/RoleAccess.sol\":3323:3929  function removeStaffFromRestaurant(address staffAccount, uint128 restaurantId) public onlyRoleAdmin {... */\n    tag_12:\n        /* \"access/RoleAccess.sol\":1045:1055  _roleAdmin */\n      and(sub(shl(0xa0, 0x01), 0x01), sload(0x02))\n        /* \"access/RoleAccess.sol\":1031:1041  msg.sender */\n      caller\n        /* \"access/RoleAccess.sol\":1031:1055  msg.sender != _roleAdmin */\n      eq\n        /* \"access/RoleAccess.sol\":1027:1086  if (msg.sender != _roleAdmin) revert RoleAccess__NotAdmin() */\n      tag_36\n      jumpi\n        /* \"access/RoleAccess.sol\":1064:1086  RoleAccess__NotAdmin() */\n      mload(0x40)\n      shl(0xe1, 0x1a310541)\n      dup2\n      mstore\n      0x04\n      add\n      mload(0x40)\n      dup1\n      swap2\n      sub\n      swap1\n      revert\n        /* \"access/RoleAccess.sol\":1027:1086  if (msg.sender != _roleAdmin) revert RoleAccess__NotAdmin() */\n    tag_36:\n      sub(shl(0xa0, 0x01), 0x01)\n        /* \"access/RoleAccess.sol\":3516:3546  staffAssignments[staffAccount] */\n      dup3\n      and\n      0x00\n      swap1\n      dup2\n      mstore\n        /* \"access/RoleAccess.sol\":3516:3532  staffAssignments */\n      0x01\n        /* \"access/RoleAccess.sol\":3516:3546  staffAssignments[staffAccount] */\n      0x20\n      swap1\n      dup2\n      mstore\n      0x40\n      dup1\n      dup4\n      keccak256\n      sub(shl(0x80, 0x01), 0x01)\n        /* \"access/RoleAccess.sol\":3516:3560  staffAssignments[staffAccount][restaurantId] */\n      dup6\n      and\n      dup5\n      mstore\n      swap1\n      swap2\n      mstore\n      swap1\n      keccak256\n      sload\n      0xff\n      and\n        /* \"access/RoleAccess.sol\":3511:3657  if (!staffAssignments[staffAccount][restaurantId]) {... */\n      tag_38\n      jumpi\n        /* \"access/RoleAccess.sol\":3585:3645  RoleAccess__NotStaffOfRestaurant(staffAccount, restaurantId) */\n      mload(0x40)\n      shl(0xe0, 0x58cce337)\n      dup2\n      mstore\n      sub(shl(0xa0, 0x01), 0x01)\n        /* \"#utility.yul\":2549:2581   */\n      dup4\n      and\n        /* \"access/RoleAccess.sol\":3585:3645  RoleAccess__NotStaffOfRestaurant(staffAccount, restaurantId) */\n      0x04\n      dup3\n      add\n        /* \"#utility.yul\":2531:2582   */\n      mstore\n      sub(shl(0x80, 0x01), 0x01)\n        /* \"#utility.yul\":2618:2650   */\n      dup3\n      and\n        /* \"#utility.yul\":2598:2616   */\n      0x24\n      dup3\n      add\n        /* \"#utility.yul\":2591:2651   */\n      mstore\n        /* \"#utility.yul\":2504:2522   */\n      0x44\n      add\n        /* \"access/RoleAccess.sol\":3585:3645  RoleAccess__NotStaffOfRestaurant(staffAccount, restaurantId) */\n    tag_39:\n      mload(0x40)\n      dup1\n      swap2\n      sub\n      swap1\n      revert\n        /* \"access/RoleAccess.sol\":3511:3657  if (!staffAssignments[staffAccount][restaurantId]) {... */\n    tag_38:\n      sub(shl(0xa0, 0x01), 0x01)\n        /* \"access/RoleAccess.sol\":3674:3704  staffAssignments[staffAccount] */\n      dup3\n      and\n      0x00\n      dup2\n      dup2\n      mstore\n        /* \"access/RoleAccess.sol\":3674:3690  staffAssignments */\n      0x01\n        /* \"access/RoleAccess.sol\":3674:3704  staffAssignments[staffAccount] */\n      0x20\n      swap1\n      dup2\n      mstore\n      0x40\n      dup1\n      dup4\n      keccak256\n      sub(shl(0x80, 0x01), 0x01)\n        /* \"access/RoleAccess.sol\":3674:3718  staffAssignments[staffAccount][restaurantId] */\n      dup7\n      and\n      dup1\n      dup6\n      mstore\n      swap3\n      mstore\n      dup1\n      dup4\n      keccak256\n        /* \"access/RoleAccess.sol\":3667:3718  delete staffAssignments[staffAccount][restaurantId] */\n      dup1\n      sload\n      not(0xff)\n      and\n      swap1\n      sstore\n        /* \"access/RoleAccess.sol\":3734:3788  StaffRemovedFromRestaurant(staffAccount, restaurantId) */\n      mload\n        /* \"access/RoleAccess.sol\":3674:3718  staffAssignments[staffAccount][restaurantId] */\n      swap1\n      swap3\n        /* \"access/RoleAccess.sol\":3674:3704  staffAssignments[staffAccount] */\n      swap2\n        /* \"access/RoleAccess.sol\":3734:3788  StaffRemovedFromRestaurant(staffAccount, restaurantId) */\n      0x2091a7a9f4bd1d3537c45c3143a470b7c349709a4b0b9e9b2a8f3e37c9de0e25\n      swap2\n      log3\n        /* \"access/RoleAccess.sol\":3323:3929  function removeStaffFromRestaurant(address staffAccount, uint128 restaurantId) public onlyRoleAdmin {... */\n      pop\n      pop\n      jump\t// out\n        /* \"access/RoleAccess.sol\":1532:1838  function grantRole(address account, Role role) public onlyRoleAdmin {... */\n    tag_16:\n        /* \"access/RoleAccess.sol\":1045:1055  _roleAdmin */\n      and(sub(shl(0xa0, 0x01), 0x01), sload(0x02))\n        /* \"access/RoleAccess.sol\":1031:1041  msg.sender */\n      caller\n        /* \"access/RoleAccess.sol\":1031:1055  msg.sender != _roleAdmin */\n      eq\n        /* \"access/RoleAccess.sol\":1027:1086  if (msg.sender != _roleAdmin) revert RoleAccess__NotAdmin() */\n      tag_42\n      jumpi\n        /* \"access/RoleAccess.sol\":1064:1086  RoleAccess__NotAdmin() */\n      mload(0x40)\n      shl(0xe1, 0x1a310541)\n      dup2\n      mstore\n      0x04\n      add\n      mload(0x40)\n      dup1\n      swap2\n      sub\n      swap1\n      revert\n        /* \"access/RoleAccess.sol\":1027:1086  if (msg.sender != _roleAdmin) revert RoleAccess__NotAdmin() */\n    tag_42:\n      sub(shl(0xa0, 0x01), 0x01)\n        /* \"access/RoleAccess.sol\":1767:1781  roles[account] */\n      dup3\n      and\n        /* \"access/RoleAccess.sol\":1767:1772  roles */\n      0x00\n        /* \"access/RoleAccess.sol\":1767:1781  roles[account] */\n      swap1\n      dup2\n      mstore\n      0x20\n      dup2\n      swap1\n      mstore\n      0x40\n      swap1\n      keccak256\n        /* \"access/RoleAccess.sol\":1767:1788  roles[account] = role */\n      dup1\n      sload\n        /* \"access/RoleAccess.sol\":1784:1788  role */\n      dup3\n      swap2\n        /* \"access/RoleAccess.sol\":1767:1781  roles[account] */\n      swap1\n      not(0xff)\n        /* \"access/RoleAccess.sol\":1767:1788  roles[account] = role */\n      and\n      0x01\n        /* \"access/RoleAccess.sol\":1784:1788  role */\n      dup4\n        /* \"access/RoleAccess.sol\":1767:1788  roles[account] = role */\n      0x04\n      dup2\n      gt\n      iszero\n      tag_45\n      jumpi\n      tag_45\n      tag_46\n      jump\t// in\n    tag_45:\n      mul\n      or\n      swap1\n      sstore\n      pop\n        /* \"access/RoleAccess.sol\":1825:1829  role */\n      dup1\n        /* \"access/RoleAccess.sol\":1804:1830  RoleGranted(account, role) */\n      0x04\n      dup2\n      gt\n      iszero\n      tag_48\n      jumpi\n      tag_48\n      tag_46\n      jump\t// in\n    tag_48:\n      mload(0x40)\n      sub(shl(0xa0, 0x01), 0x01)\n      dup5\n      and\n      swap1\n      mload(0x00)\n      codecopy(0x00, data_9c234a93f5066922bb52bbaca3443a3c53b3cb3b1324437f447fd2424d73a0bf, 0x20)\n      mload(0x00)\n      swap1\n      0x00\n      mstore\n      swap1\n      0x00\n      swap1\n      log3\n        /* \"access/RoleAccess.sol\":1532:1838  function grantRole(address account, Role role) public onlyRoleAdmin {... */\n      pop\n      pop\n      jump\t// out\n        /* \"access/RoleAccess.sol\":1846:2320  function revokeRole(address account) public onlyRoleAdmin {... */\n    tag_20:\n        /* \"access/RoleAccess.sol\":1045:1055  _roleAdmin */\n      and(sub(shl(0xa0, 0x01), 0x01), sload(0x02))\n        /* \"access/RoleAccess.sol\":1031:1041  msg.sender */\n      caller\n        /* \"access/RoleAccess.sol\":1031:1055  msg.sender != _roleAdmin */\n      eq\n        /* \"access/RoleAccess.sol\":1027:1086  if (msg.sender != _roleAdmin) revert RoleAccess__NotAdmin() */\n      tag_50\n      jumpi\n        /* \"access/RoleAccess.sol\":1064:1086  RoleAccess__NotAdmin() */\n      mload(0x40)\n      shl(0xe1, 0x1a310541)\n      dup2\n      mstore\n      0x04\n      add\n      mload(0x40)\n      dup1\n      swap2\n      sub\n      swap1\n      revert\n        /* \"access/RoleAccess.sol\":1027:1086  if (msg.sender != _roleAdmin) revert RoleAccess__NotAdmin() */\n    tag_50:\n      sub(shl(0xa0, 0x01), 0x01)\n        /* \"access/RoleAccess.sol\":1930:1944  roles[account] */\n      dup2\n      and\n        /* \"access/RoleAccess.sol\":1915:1927  Role oldRole */\n      0x00\n        /* \"access/RoleAccess.sol\":1930:1944  roles[account] */\n      swap1\n      dup2\n      mstore\n      0x20\n      dup2\n      swap1\n      mstore\n      0x40\n      swap1\n      keccak256\n      dup1\n      sload\n      not(0xff)\n        /* \"access/RoleAccess.sol\":1955:1981  roles[account] = Role.None */\n      dup2\n      and\n      swap1\n      swap2\n      sstore\n        /* \"access/RoleAccess.sol\":1930:1944  roles[account] */\n      0xff\n      and\n      dup1\n        /* \"access/RoleAccess.sol\":2283:2312  RoleRevoked(account, oldRole) */\n      0x04\n      dup2\n      gt\n      iszero\n      tag_55\n      jumpi\n      tag_55\n      tag_46\n      jump\t// in\n    tag_55:\n      mload(0x40)\n      sub(shl(0xa0, 0x01), 0x01)\n      dup5\n      and\n      swap1\n      0x34a1009b84e077aee5bc8197faf7105e54f9ba6879e2a51a716e4156ea9ad769\n      swap1\n      0x00\n      swap1\n      log3\n        /* \"access/RoleAccess.sol\":1904:2320  {... */\n      pop\n        /* \"access/RoleAccess.sol\":1846:2320  function revokeRole(address account) public onlyRoleAdmin {... */\n      pop\n      jump\t// out\n        /* \"access/RoleAccess.sol\":2392:3315  function assignStaffToRestaurant(address staffAccount, uint128 restaurantId, Role staffRole) public onlyRoleAdmin {... */\n    tag_29:\n        /* \"access/RoleAccess.sol\":1045:1055  _roleAdmin */\n      and(sub(shl(0xa0, 0x01), 0x01), sload(0x02))\n        /* \"access/RoleAccess.sol\":1031:1041  msg.sender */\n      caller\n        /* \"access/RoleAccess.sol\":1031:1055  msg.sender != _roleAdmin */\n      eq\n        /* \"access/RoleAccess.sol\":1027:1086  if (msg.sender != _roleAdmin) revert RoleAccess__NotAdmin() */\n      tag_57\n      jumpi\n        /* \"access/RoleAccess.sol\":1064:1086  RoleAccess__NotAdmin() */\n      mload(0x40)\n      shl(0xe1, 0x1a310541)\n      dup2\n      mstore\n      0x04\n      add\n      mload(0x40)\n      dup1\n      swap2\n      sub\n      swap1\n      revert\n        /* \"access/RoleAccess.sol\":1027:1086  if (msg.sender != _roleAdmin) revert RoleAccess__NotAdmin() */\n    tag_57:\n        /* \"access/RoleAccess.sol\":2534:2542  Role.FOH */\n      0x03\n        /* \"access/RoleAccess.sol\":2521:2530  staffRole */\n      dup2\n        /* \"access/RoleAccess.sol\":2521:2542  staffRole != Role.FOH */\n      0x04\n      dup2\n      gt\n      iszero\n      tag_62\n      jumpi\n      tag_62\n      tag_46\n      jump\t// in\n    tag_62:\n      eq\n      iszero\n        /* \"access/RoleAccess.sol\":2521:2567  staffRole != Role.FOH && staffRole != Role.BOH */\n      dup1\n      iszero\n      tag_63\n      jumpi\n      pop\n        /* \"access/RoleAccess.sol\":2559:2567  Role.BOH */\n      0x04\n        /* \"access/RoleAccess.sol\":2546:2555  staffRole */\n      dup2\n        /* \"access/RoleAccess.sol\":2546:2567  staffRole != Role.BOH */\n      0x04\n      dup2\n      gt\n      iszero\n      tag_67\n      jumpi\n      tag_67\n      tag_46\n      jump\t// in\n    tag_67:\n      eq\n      iszero\n        /* \"access/RoleAccess.sol\":2521:2567  staffRole != Role.FOH && staffRole != Role.BOH */\n    tag_63:\n        /* \"access/RoleAccess.sol\":2517:2656  if (staffRole != Role.FOH && staffRole != Role.BOH) {... */\n      iszero\n      tag_68\n      jumpi\n        /* \"access/RoleAccess.sol\":2619:2631  staffAccount */\n      dup3\n        /* \"access/RoleAccess.sol\":2633:2642  staffRole */\n      dup2\n        /* \"access/RoleAccess.sol\":2591:2643  RoleAccess__NotSpecificRole(staffAccount, staffRole) */\n      mload(0x40)\n      shl(0xe1, 0x45c19949)\n      dup2\n      mstore\n      0x04\n      add\n      tag_39\n      swap3\n      swap2\n      swap1\n      tag_70\n      jump\t// in\n        /* \"access/RoleAccess.sol\":2517:2656  if (staffRole != Role.FOH && staffRole != Role.BOH) {... */\n    tag_68:\n        /* \"access/RoleAccess.sol\":2670:2682  restaurantId */\n      dup2\n      sub(shl(0x80, 0x01), 0x01)\n        /* \"access/RoleAccess.sol\":2670:2687  restaurantId == 0 */\n      and\n        /* \"access/RoleAccess.sol\":2686:2687  0 */\n      0x00\n        /* \"access/RoleAccess.sol\":2670:2687  restaurantId == 0 */\n      sub\n        /* \"access/RoleAccess.sol\":2666:2729  if (restaurantId == 0) revert RoleAccess__InvalidRestaurantId() */\n      tag_71\n      jumpi\n        /* \"access/RoleAccess.sol\":2696:2729  RoleAccess__InvalidRestaurantId() */\n      mload(0x40)\n      shl(0xe2, 0x34abfc67)\n      dup2\n      mstore\n      0x04\n      add\n      mload(0x40)\n      dup1\n      swap2\n      sub\n      swap1\n      revert\n        /* \"access/RoleAccess.sol\":2666:2729  if (restaurantId == 0) revert RoleAccess__InvalidRestaurantId() */\n    tag_71:\n      sub(shl(0xa0, 0x01), 0x01)\n        /* \"access/RoleAccess.sol\":2791:2810  roles[staffAccount] */\n      dup4\n      and\n        /* \"access/RoleAccess.sol\":2814:2823  Role.None */\n      0x00\n        /* \"access/RoleAccess.sol\":2791:2810  roles[staffAccount] */\n      swap1\n      dup2\n      mstore\n      0x20\n      dup2\n      swap1\n      mstore\n      0x40\n      dup2\n      keccak256\n      sload\n      0xff\n      and\n        /* \"access/RoleAccess.sol\":2791:2823  roles[staffAccount] == Role.None */\n      0x04\n      dup2\n      gt\n      iszero\n      tag_75\n      jumpi\n      tag_75\n      tag_46\n      jump\t// in\n    tag_75:\n      eq\n        /* \"access/RoleAccess.sol\":2791:2895  roles[staffAccount] == Role.None || (roles[staffAccount] != Role.FOH && roles[staffAccount] != Role.BOH) */\n      dup1\n      tag_81\n      jumpi\n      pop\n        /* \"access/RoleAccess.sol\":2851:2859  Role.FOH */\n      0x03\n      sub(shl(0xa0, 0x01), 0x01)\n        /* \"access/RoleAccess.sol\":2828:2847  roles[staffAccount] */\n      dup5\n      and\n        /* \"access/RoleAccess.sol\":2828:2833  roles */\n      0x00\n        /* \"access/RoleAccess.sol\":2828:2847  roles[staffAccount] */\n      swap1\n      dup2\n      mstore\n      0x20\n      dup2\n      swap1\n      mstore\n      0x40\n      swap1\n      keccak256\n      sload\n      0xff\n      and\n        /* \"access/RoleAccess.sol\":2828:2859  roles[staffAccount] != Role.FOH */\n      0x04\n      dup2\n      gt\n      iszero\n      tag_80\n      jumpi\n      tag_80\n      tag_46\n      jump\t// in\n    tag_80:\n      eq\n      iszero\n        /* \"access/RoleAccess.sol\":2828:2894  roles[staffAccount] != Role.FOH && roles[staffAccount] != Role.BOH */\n      dup1\n      iszero\n      tag_81\n      jumpi\n      pop\n        /* \"access/RoleAccess.sol\":2886:2894  Role.BOH */\n      0x04\n      sub(shl(0xa0, 0x01), 0x01)\n        /* \"access/RoleAccess.sol\":2863:2882  roles[staffAccount] */\n      dup5\n      and\n        /* \"access/RoleAccess.sol\":2863:2868  roles */\n      0x00\n        /* \"access/RoleAccess.sol\":2863:2882  roles[staffAccount] */\n      swap1\n      dup2\n      mstore\n      0x20\n      dup2\n      swap1\n      mstore\n      0x40\n      swap1\n      keccak256\n      sload\n      0xff\n      and\n        /* \"access/RoleAccess.sol\":2863:2894  roles[staffAccount] != Role.BOH */\n      0x04\n      dup2\n      gt\n      iszero\n      tag_85\n      jumpi\n      tag_85\n      tag_46\n      jump\t// in\n    tag_85:\n      eq\n      iszero\n        /* \"access/RoleAccess.sol\":2828:2894  roles[staffAccount] != Role.FOH && roles[staffAccount] != Role.BOH */\n    tag_81:\n        /* \"access/RoleAccess.sol\":2787:3173  if (roles[staffAccount] == Role.None || (roles[staffAccount] != Role.FOH && roles[staffAccount] != Role.BOH) ) {... */\n      iszero\n      tag_86\n      jumpi\n      sub(shl(0xa0, 0x01), 0x01)\n        /* \"access/RoleAccess.sol\":2913:2932  roles[staffAccount] */\n      dup4\n      and\n        /* \"access/RoleAccess.sol\":2913:2918  roles */\n      0x00\n        /* \"access/RoleAccess.sol\":2913:2932  roles[staffAccount] */\n      swap1\n      dup2\n      mstore\n      0x20\n      dup2\n      swap1\n      mstore\n      0x40\n      swap1\n      keccak256\n        /* \"access/RoleAccess.sol\":2913:2944  roles[staffAccount] = staffRole */\n      dup1\n      sload\n        /* \"access/RoleAccess.sol\":2935:2944  staffRole */\n      dup3\n      swap2\n        /* \"access/RoleAccess.sol\":2913:2932  roles[staffAccount] */\n      swap1\n      not(0xff)\n        /* \"access/RoleAccess.sol\":2913:2944  roles[staffAccount] = staffRole */\n      and\n      0x01\n        /* \"access/RoleAccess.sol\":2935:2944  staffRole */\n      dup4\n        /* \"access/RoleAccess.sol\":2913:2944  roles[staffAccount] = staffRole */\n      0x04\n      dup2\n      gt\n      iszero\n      tag_88\n      jumpi\n      tag_88\n      tag_46\n      jump\t// in\n    tag_88:\n      mul\n      or\n      swap1\n      sstore\n      pop\n        /* \"access/RoleAccess.sol\":2991:3000  staffRole */\n      dup1\n        /* \"access/RoleAccess.sol\":2965:3001  RoleGranted(staffAccount, staffRole) */\n      0x04\n      dup2\n      gt\n      iszero\n      tag_90\n      jumpi\n      tag_90\n      tag_46\n      jump\t// in\n    tag_90:\n      mload(0x40)\n      sub(shl(0xa0, 0x01), 0x01)\n      dup6\n      and\n      swap1\n      mload(0x00)\n      codecopy(0x00, data_9c234a93f5066922bb52bbaca3443a3c53b3cb3b1324437f447fd2424d73a0bf, 0x20)\n      mload(0x00)\n      swap1\n      0x00\n      mstore\n      swap1\n      0x00\n      swap1\n      log3\n        /* \"access/RoleAccess.sol\":2787:3173  if (roles[staffAccount] == Role.None || (roles[staffAccount] != Role.FOH && roles[staffAccount] != Role.BOH) ) {... */\n      jump(tag_96)\n    tag_86:\n        /* \"access/RoleAccess.sol\":3046:3055  staffRole */\n      dup1\n        /* \"access/RoleAccess.sol\":3023:3055  roles[staffAccount] != staffRole */\n      0x04\n      dup2\n      gt\n      iszero\n      tag_93\n      jumpi\n      tag_93\n      tag_46\n      jump\t// in\n    tag_93:\n      sub(shl(0xa0, 0x01), 0x01)\n        /* \"access/RoleAccess.sol\":3023:3042  roles[staffAccount] */\n      dup5\n      and\n        /* \"access/RoleAccess.sol\":3023:3028  roles */\n      0x00\n        /* \"access/RoleAccess.sol\":3023:3042  roles[staffAccount] */\n      swap1\n      dup2\n      mstore\n      0x20\n      dup2\n      swap1\n      mstore\n      0x40\n      swap1\n      keccak256\n      sload\n      0xff\n      and\n        /* \"access/RoleAccess.sol\":3023:3055  roles[staffAccount] != staffRole */\n      0x04\n      dup2\n      gt\n      iszero\n      tag_95\n      jumpi\n      tag_95\n      tag_46\n      jump\t// in\n    tag_95:\n      eq\n        /* \"access/RoleAccess.sol\":3019:3173  if (roles[staffAccount] != staffRole) {... */\n      tag_96\n      jumpi\n      sub(shl(0xa0, 0x01), 0x01)\n        /* \"access/RoleAccess.sol\":3072:3091  roles[staffAccount] */\n      dup4\n      and\n        /* \"access/RoleAccess.sol\":3072:3077  roles */\n      0x00\n        /* \"access/RoleAccess.sol\":3072:3091  roles[staffAccount] */\n      swap1\n      dup2\n      mstore\n      0x20\n      dup2\n      swap1\n      mstore\n      0x40\n      swap1\n      keccak256\n        /* \"access/RoleAccess.sol\":3072:3103  roles[staffAccount] = staffRole */\n      dup1\n      sload\n        /* \"access/RoleAccess.sol\":3094:3103  staffRole */\n      dup3\n      swap2\n        /* \"access/RoleAccess.sol\":3072:3091  roles[staffAccount] */\n      swap1\n      not(0xff)\n        /* \"access/RoleAccess.sol\":3072:3103  roles[staffAccount] = staffRole */\n      and\n      0x01\n        /* \"access/RoleAccess.sol\":3094:3103  staffRole */\n      dup4\n        /* \"access/RoleAccess.sol\":3072:3103  roles[staffAccount] = staffRole */\n      0x04\n      dup2\n      gt\n      iszero\n      tag_98\n      jumpi\n      tag_98\n      tag_46\n      jump\t// in\n    tag_98:\n      mul\n      or\n      swap1\n      sstore\n      pop\n        /* \"access/RoleAccess.sol\":3150:3159  staffRole */\n      dup1\n        /* \"access/RoleAccess.sol\":3124:3160  RoleGranted(staffAccount, staffRole) */\n      0x04\n      dup2\n      gt\n      iszero\n      tag_100\n      jumpi\n      tag_100\n      tag_46\n      jump\t// in\n    tag_100:\n      mload(0x40)\n      sub(shl(0xa0, 0x01), 0x01)\n      dup6\n      and\n      swap1\n      mload(0x00)\n      codecopy(0x00, data_9c234a93f5066922bb52bbaca3443a3c53b3cb3b1324437f447fd2424d73a0bf, 0x20)\n      mload(0x00)\n      swap1\n      0x00\n      mstore\n      swap1\n      0x00\n      swap1\n      log3\n        /* \"access/RoleAccess.sol\":3019:3173  if (roles[staffAccount] != staffRole) {... */\n    tag_96:\n      sub(shl(0xa0, 0x01), 0x01)\n        /* \"access/RoleAccess.sol\":3187:3217  staffAssignments[staffAccount] */\n      dup4\n      and\n      0x00\n      dup2\n      dup2\n      mstore\n        /* \"access/RoleAccess.sol\":3234:3238  true */\n      0x01\n        /* \"access/RoleAccess.sol\":3187:3217  staffAssignments[staffAccount] */\n      0x20\n      dup2\n      dup2\n      mstore\n      0x40\n      dup1\n      dup5\n      keccak256\n      sub(shl(0x80, 0x01), 0x01)\n        /* \"access/RoleAccess.sol\":3187:3231  staffAssignments[staffAccount][restaurantId] */\n      dup9\n      and\n      dup1\n      dup7\n      mstore\n      swap3\n      mstore\n      dup1\n      dup5\n      keccak256\n        /* \"access/RoleAccess.sol\":3187:3238  staffAssignments[staffAccount][restaurantId] = true */\n      dup1\n      sload\n      not(0xff)\n      and\n      swap1\n      swap4\n      or\n      swap1\n      swap3\n      sstore\n        /* \"access/RoleAccess.sol\":3254:3307  StaffAssignedToRestaurant(staffAccount, restaurantId) */\n      swap1\n      mload\n        /* \"access/RoleAccess.sol\":3187:3231  staffAssignments[staffAccount][restaurantId] */\n      swap1\n      swap3\n        /* \"access/RoleAccess.sol\":3187:3217  staffAssignments[staffAccount] */\n      swap2\n        /* \"access/RoleAccess.sol\":3254:3307  StaffAssignedToRestaurant(staffAccount, restaurantId) */\n      0xa7a040419689ac3001a2b7e46b4cc55aa49833559239a3d51e72e097cd28a98f\n      swap2\n      log3\n        /* \"access/RoleAccess.sol\":2392:3315  function assignStaffToRestaurant(address staffAccount, uint128 restaurantId, Role staffRole) public onlyRoleAdmin {... */\n      pop\n      pop\n      pop\n      jump\t// out\n        /* \"#utility.yul\":14:187   */\n    tag_101:\n        /* \"#utility.yul\":82:102   */\n      dup1\n      calldataload\n      sub(shl(0xa0, 0x01), 0x01)\n        /* \"#utility.yul\":131:162   */\n      dup2\n      and\n        /* \"#utility.yul\":121:163   */\n      dup2\n      eq\n        /* \"#utility.yul\":111:181   */\n      tag_107\n      jumpi\n        /* \"#utility.yul\":177:178   */\n      0x00\n        /* \"#utility.yul\":174:175   */\n      0x00\n        /* \"#utility.yul\":167:179   */\n      revert\n        /* \"#utility.yul\":111:181   */\n    tag_107:\n        /* \"#utility.yul\":14:187   */\n      swap2\n      swap1\n      pop\n      jump\t// out\n        /* \"#utility.yul\":192:365   */\n    tag_102:\n        /* \"#utility.yul\":260:280   */\n      dup1\n      calldataload\n      sub(shl(0x80, 0x01), 0x01)\n        /* \"#utility.yul\":309:340   */\n      dup2\n      and\n        /* \"#utility.yul\":299:341   */\n      dup2\n      eq\n        /* \"#utility.yul\":289:359   */\n      tag_107\n      jumpi\n        /* \"#utility.yul\":355:356   */\n      0x00\n        /* \"#utility.yul\":352:353   */\n      0x00\n        /* \"#utility.yul\":345:357   */\n      revert\n        /* \"#utility.yul\":370:630   */\n    tag_11:\n        /* \"#utility.yul\":438:444   */\n      0x00\n        /* \"#utility.yul\":446:452   */\n      0x00\n        /* \"#utility.yul\":499:501   */\n      0x40\n        /* \"#utility.yul\":487:496   */\n      dup4\n        /* \"#utility.yul\":478:485   */\n      dup6\n        /* \"#utility.yul\":474:497   */\n      sub\n        /* \"#utility.yul\":470:502   */\n      slt\n        /* \"#utility.yul\":467:519   */\n      iszero\n      tag_111\n      jumpi\n        /* \"#utility.yul\":515:516   */\n      0x00\n        /* \"#utility.yul\":512:513   */\n      0x00\n        /* \"#utility.yul\":505:517   */\n      revert\n        /* \"#utility.yul\":467:519   */\n    tag_111:\n        /* \"#utility.yul\":538:567   */\n      tag_112\n        /* \"#utility.yul\":557:566   */\n      dup4\n        /* \"#utility.yul\":538:567   */\n      tag_101\n      jump\t// in\n    tag_112:\n        /* \"#utility.yul\":528:567   */\n      swap2\n      pop\n        /* \"#utility.yul\":586:624   */\n      tag_113\n        /* \"#utility.yul\":620:622   */\n      0x20\n        /* \"#utility.yul\":609:618   */\n      dup5\n        /* \"#utility.yul\":605:623   */\n      add\n        /* \"#utility.yul\":586:624   */\n      tag_102\n      jump\t// in\n    tag_113:\n        /* \"#utility.yul\":576:624   */\n      swap1\n      pop\n        /* \"#utility.yul\":370:630   */\n      swap3\n      pop\n      swap3\n      swap1\n      pop\n      jump\t// out\n        /* \"#utility.yul\":635:780   */\n    tag_103:\n        /* \"#utility.yul\":705:725   */\n      dup1\n      calldataload\n        /* \"#utility.yul\":754:755   */\n      0x05\n        /* \"#utility.yul\":744:756   */\n      dup2\n      lt\n        /* \"#utility.yul\":734:774   */\n      tag_107\n      jumpi\n        /* \"#utility.yul\":770:771   */\n      0x00\n        /* \"#utility.yul\":767:768   */\n      0x00\n        /* \"#utility.yul\":760:772   */\n      revert\n        /* \"#utility.yul\":785:1053   */\n    tag_15:\n        /* \"#utility.yul\":859:865   */\n      0x00\n        /* \"#utility.yul\":867:873   */\n      0x00\n        /* \"#utility.yul\":920:922   */\n      0x40\n        /* \"#utility.yul\":908:917   */\n      dup4\n        /* \"#utility.yul\":899:906   */\n      dup6\n        /* \"#utility.yul\":895:918   */\n      sub\n        /* \"#utility.yul\":891:923   */\n      slt\n        /* \"#utility.yul\":888:940   */\n      iszero\n      tag_117\n      jumpi\n        /* \"#utility.yul\":936:937   */\n      0x00\n        /* \"#utility.yul\":933:934   */\n      0x00\n        /* \"#utility.yul\":926:938   */\n      revert\n        /* \"#utility.yul\":888:940   */\n    tag_117:\n        /* \"#utility.yul\":959:988   */\n      tag_118\n        /* \"#utility.yul\":978:987   */\n      dup4\n        /* \"#utility.yul\":959:988   */\n      tag_101\n      jump\t// in\n    tag_118:\n        /* \"#utility.yul\":949:988   */\n      swap2\n      pop\n        /* \"#utility.yul\":1007:1047   */\n      tag_113\n        /* \"#utility.yul\":1043:1045   */\n      0x20\n        /* \"#utility.yul\":1032:1041   */\n      dup5\n        /* \"#utility.yul\":1028:1046   */\n      add\n        /* \"#utility.yul\":1007:1047   */\n      tag_103\n      jump\t// in\n        /* \"#utility.yul\":1058:1244   */\n    tag_19:\n        /* \"#utility.yul\":1117:1123   */\n      0x00\n        /* \"#utility.yul\":1170:1172   */\n      0x20\n        /* \"#utility.yul\":1158:1167   */\n      dup3\n        /* \"#utility.yul\":1149:1156   */\n      dup5\n        /* \"#utility.yul\":1145:1168   */\n      sub\n        /* \"#utility.yul\":1141:1173   */\n      slt\n        /* \"#utility.yul\":1138:1190   */\n      iszero\n      tag_121\n      jumpi\n        /* \"#utility.yul\":1186:1187   */\n      0x00\n        /* \"#utility.yul\":1183:1184   */\n      0x00\n        /* \"#utility.yul\":1176:1188   */\n      revert\n        /* \"#utility.yul\":1138:1190   */\n    tag_121:\n        /* \"#utility.yul\":1209:1238   */\n      tag_122\n        /* \"#utility.yul\":1228:1237   */\n      dup3\n        /* \"#utility.yul\":1209:1238   */\n      tag_101\n      jump\t// in\n    tag_122:\n        /* \"#utility.yul\":1199:1238   */\n      swap4\n        /* \"#utility.yul\":1058:1244   */\n      swap3\n      pop\n      pop\n      pop\n      jump\t// out\n        /* \"#utility.yul\":1249:1376   */\n    tag_46:\n        /* \"#utility.yul\":1310:1320   */\n      0x4e487b71\n        /* \"#utility.yul\":1305:1308   */\n      0xe0\n        /* \"#utility.yul\":1301:1321   */\n      shl\n        /* \"#utility.yul\":1298:1299   */\n      0x00\n        /* \"#utility.yul\":1291:1322   */\n      mstore\n        /* \"#utility.yul\":1341:1345   */\n      0x21\n        /* \"#utility.yul\":1338:1339   */\n      0x04\n        /* \"#utility.yul\":1331:1346   */\n      mstore\n        /* \"#utility.yul\":1365:1369   */\n      0x24\n        /* \"#utility.yul\":1362:1363   */\n      0x00\n        /* \"#utility.yul\":1355:1370   */\n      revert\n        /* \"#utility.yul\":1381:1613   */\n    tag_104:\n        /* \"#utility.yul\":1457:1458   */\n      0x05\n        /* \"#utility.yul\":1450:1455   */\n      dup2\n        /* \"#utility.yul\":1447:1459   */\n      lt\n        /* \"#utility.yul\":1437:1580   */\n      tag_125\n      jumpi\n        /* \"#utility.yul\":1502:1512   */\n      0x4e487b71\n        /* \"#utility.yul\":1497:1500   */\n      0xe0\n        /* \"#utility.yul\":1493:1513   */\n      shl\n        /* \"#utility.yul\":1490:1491   */\n      0x00\n        /* \"#utility.yul\":1483:1514   */\n      mstore\n        /* \"#utility.yul\":1537:1541   */\n      0x21\n        /* \"#utility.yul\":1534:1535   */\n      0x04\n        /* \"#utility.yul\":1527:1542   */\n      mstore\n        /* \"#utility.yul\":1565:1569   */\n      0x24\n        /* \"#utility.yul\":1562:1563   */\n      0x00\n        /* \"#utility.yul\":1555:1570   */\n      revert\n        /* \"#utility.yul\":1437:1580   */\n    tag_125:\n        /* \"#utility.yul\":1589:1607   */\n      swap1\n      mstore\n        /* \"#utility.yul\":1381:1613   */\n      jump\t// out\n        /* \"#utility.yul\":1618:1813   */\n    tag_25:\n        /* \"#utility.yul\":1756:1758   */\n      0x20\n        /* \"#utility.yul\":1741:1759   */\n      dup2\n      add\n        /* \"#utility.yul\":1768:1807   */\n      tag_127\n        /* \"#utility.yul\":1745:1754   */\n      dup3\n        /* \"#utility.yul\":1789:1795   */\n      dup5\n        /* \"#utility.yul\":1768:1807   */\n      tag_104\n      jump\t// in\n    tag_127:\n        /* \"#utility.yul\":1618:1813   */\n      swap3\n      swap2\n      pop\n      pop\n      jump\t// out\n        /* \"#utility.yul\":1818:2160   */\n    tag_28:\n        /* \"#utility.yul\":1901:1907   */\n      0x00\n        /* \"#utility.yul\":1909:1915   */\n      0x00\n        /* \"#utility.yul\":1917:1923   */\n      0x00\n        /* \"#utility.yul\":1970:1972   */\n      0x60\n        /* \"#utility.yul\":1958:1967   */\n      dup5\n        /* \"#utility.yul\":1949:1956   */\n      dup7\n        /* \"#utility.yul\":1945:1968   */\n      sub\n        /* \"#utility.yul\":1941:1973   */\n      slt\n        /* \"#utility.yul\":1938:1990   */\n      iszero\n      tag_129\n      jumpi\n        /* \"#utility.yul\":1986:1987   */\n      0x00\n        /* \"#utility.yul\":1983:1984   */\n      0x00\n        /* \"#utility.yul\":1976:1988   */\n      revert\n        /* \"#utility.yul\":1938:1990   */\n    tag_129:\n        /* \"#utility.yul\":2009:2038   */\n      tag_130\n        /* \"#utility.yul\":2028:2037   */\n      dup5\n        /* \"#utility.yul\":2009:2038   */\n      tag_101\n      jump\t// in\n    tag_130:\n        /* \"#utility.yul\":1999:2038   */\n      swap3\n      pop\n        /* \"#utility.yul\":2057:2095   */\n      tag_131\n        /* \"#utility.yul\":2091:2093   */\n      0x20\n        /* \"#utility.yul\":2080:2089   */\n      dup6\n        /* \"#utility.yul\":2076:2094   */\n      add\n        /* \"#utility.yul\":2057:2095   */\n      tag_102\n      jump\t// in\n    tag_131:\n        /* \"#utility.yul\":2047:2095   */\n      swap2\n      pop\n        /* \"#utility.yul\":2114:2154   */\n      tag_132\n        /* \"#utility.yul\":2150:2152   */\n      0x40\n        /* \"#utility.yul\":2139:2148   */\n      dup6\n        /* \"#utility.yul\":2135:2153   */\n      add\n        /* \"#utility.yul\":2114:2154   */\n      tag_103\n      jump\t// in\n    tag_132:\n        /* \"#utility.yul\":2104:2154   */\n      swap1\n      pop\n        /* \"#utility.yul\":1818:2160   */\n      swap3\n      pop\n      swap3\n      pop\n      swap3\n      jump\t// out\n        /* \"#utility.yul\":2662:2954   */\n    tag_70:\n      sub(shl(0xa0, 0x01), 0x01)\n        /* \"#utility.yul\":2858:2890   */\n      dup4\n      and\n        /* \"#utility.yul\":2840:2891   */\n      dup2\n      mstore\n        /* \"#utility.yul\":2828:2830   */\n      0x40\n        /* \"#utility.yul\":2813:2831   */\n      dup2\n      add\n        /* \"#utility.yul\":2900:2948   */\n      tag_122\n        /* \"#utility.yul\":2944:2946   */\n      0x20\n        /* \"#utility.yul\":2929:2947   */\n      dup4\n      add\n        /* \"#utility.yul\":2921:2927   */\n      dup5\n        /* \"#utility.yul\":2900:2948   */\n      tag_104\n      jump\t// in\n    stop\n    data_9c234a93f5066922bb52bbaca3443a3c53b3cb3b1324437f447fd2424d73a0bf aa259565575c834bc07e74dca784b4071676133ac78513b431afb6ee7edae121\n\n    auxdata: 0xa26469706673582212207593b3e82bd27c1668f8df3db56d5b066f16656f3b0b5d939578eb7ae99b7cdb64736f6c634300081e0033\n}\n",
				"bytecode": {
					"linkReferences": {},
					"object": "6080604052348015600e575f5ffd5b506107ce8061001c5f395ff3fe608060405234801561000f575f5ffd5b506004361061005f575f3560e01c80629d2013146100635780633e8402361461007857806380e52e3f1461008b578063993746421461009e578063addfa353146100d6578063ce4cf9cb146100e9575b5f5ffd5b61007661007136600461064c565b610126565b005b61007661008636600461068b565b61021b565b6100766100993660046106b3565b6102b5565b6100c06100ac3660046106b3565b5f6020819052908152604090205460ff1681565b6040516100cd9190610707565b60405180910390f35b6100766100e436600461071b565b61034d565b6101166100f736600461064c565b600160209081525f928352604080842090915290825290205460ff1681565b60405190151581526020016100cd565b6002546001600160a01b0316331461015157604051631a31054160e11b815260040160405180910390fd5b6001600160a01b0382165f9081526001602090815260408083206001600160801b038516845290915290205460ff166101bc576040516358cce33760e01b81526001600160a01b03831660048201526001600160801b03821660248201526044015b60405180910390fd5b6001600160a01b0382165f8181526001602090815260408083206001600160801b0386168085529252808320805460ff19169055519092917f2091a7a9f4bd1d3537c45c3143a470b7c349709a4b0b9e9b2a8f3e37c9de0e2591a35050565b6002546001600160a01b0316331461024657604051631a31054160e11b815260040160405180910390fd5b6001600160a01b0382165f908152602081905260409020805482919060ff1916600183600481111561027a5761027a6106d3565b0217905550806004811115610291576102916106d3565b6040516001600160a01b038416905f5160206107795f395f51905f52905f90a35050565b6002546001600160a01b031633146102e057604051631a31054160e11b815260040160405180910390fd5b6001600160a01b0381165f908152602081905260409020805460ff19811690915560ff16806004811115610316576103166106d3565b6040516001600160a01b038416907f34a1009b84e077aee5bc8197faf7105e54f9ba6879e2a51a716e4156ea9ad769905f90a35050565b6002546001600160a01b0316331461037857604051631a31054160e11b815260040160405180910390fd5b600381600481111561038c5761038c6106d3565b141580156103ac575060048160048111156103a9576103a96106d3565b14155b156103ce5782816040516345c1994960e11b81526004016101b392919061075b565b816001600160801b03165f036103f7576040516334abfc6760e21b815260040160405180910390fd5b6001600160a01b0383165f9081526020819052604081205460ff166004811115610423576104236106d3565b1480610492575060036001600160a01b0384165f9081526020819052604090205460ff166004811115610458576104586106d3565b14158015610492575060046001600160a01b0384165f9081526020819052604090205460ff16600481111561048f5761048f6106d3565b14155b15610507576001600160a01b0383165f908152602081905260409020805482919060ff191660018360048111156104cb576104cb6106d3565b02179055508060048111156104e2576104e26106d3565b6040516001600160a01b038516905f5160206107795f395f51905f52905f90a36105b6565b806004811115610519576105196106d3565b6001600160a01b0384165f9081526020819052604090205460ff166004811115610545576105456106d3565b146105b6576001600160a01b0383165f908152602081905260409020805482919060ff1916600183600481111561057e5761057e6106d3565b0217905550806004811115610595576105956106d3565b6040516001600160a01b038516905f5160206107795f395f51905f52905f90a35b6001600160a01b0383165f8181526001602081815260408084206001600160801b0388168086529252808420805460ff191690931790925590519092917fa7a040419689ac3001a2b7e46b4cc55aa49833559239a3d51e72e097cd28a98f91a3505050565b80356001600160a01b0381168114610631575f5ffd5b919050565b80356001600160801b0381168114610631575f5ffd5b5f5f6040838503121561065d575f5ffd5b6106668361061b565b915061067460208401610636565b90509250929050565b803560058110610631575f5ffd5b5f5f6040838503121561069c575f5ffd5b6106a58361061b565b91506106746020840161067d565b5f602082840312156106c3575f5ffd5b6106cc8261061b565b9392505050565b634e487b7160e01b5f52602160045260245ffd5b6005811061070357634e487b7160e01b5f52602160045260245ffd5b9052565b6020810161071582846106e7565b92915050565b5f5f5f6060848603121561072d575f5ffd5b6107368461061b565b925061074460208501610636565b91506107526040850161067d565b90509250925092565b6001600160a01b0383168152604081016106cc60208301846106e756feaa259565575c834bc07e74dca784b4071676133ac78513b431afb6ee7edae121a26469706673582212207593b3e82bd27c1668f8df3db56d5b066f16656f3b0b5d939578eb7ae99b7cdb64736f6c634300081e0033",
					"opcodes": "PUSH1 0x80 PUSH1 0x40 MSTORE CALLVALUE DUP1 ISZERO PUSH1 0xE JUMPI PUSH0 PUSH0 REVERT JUMPDEST POP PUSH2 0x7CE DUP1 PUSH2 0x1C PUSH0 CODECOPY PUSH0 RETURN INVALID PUSH1 0x80 PUSH1 0x40 MSTORE CALLVALUE DUP1 ISZERO PUSH2 0xF JUMPI PUSH0 PUSH0 REVERT JUMPDEST POP PUSH1 0x4 CALLDATASIZE LT PUSH2 0x5F JUMPI PUSH0 CALLDATALOAD PUSH1 0xE0 SHR DUP1 PUSH3 0x9D2013 EQ PUSH2 0x63 JUMPI DUP1 PUSH4 0x3E840236 EQ PUSH2 0x78 JUMPI DUP1 PUSH4 0x80E52E3F EQ PUSH2 0x8B JUMPI DUP1 PUSH4 0x99374642 EQ PUSH2 0x9E JUMPI DUP1 PUSH4 0xADDFA353 EQ PUSH2 0xD6 JUMPI DUP1 PUSH4 0xCE4CF9CB EQ PUSH2 0xE9 JUMPI JUMPDEST PUSH0 PUSH0 REVERT JUMPDEST PUSH2 0x76 PUSH2 0x71 CALLDATASIZE PUSH1 0x4 PUSH2 0x64C JUMP JUMPDEST PUSH2 0x126 JUMP JUMPDEST STOP JUMPDEST PUSH2 0x76 PUSH2 0x86 CALLDATASIZE PUSH1 0x4 PUSH2 0x68B JUMP JUMPDEST PUSH2 0x21B JUMP JUMPDEST PUSH2 0x76 PUSH2 0x99 CALLDATASIZE PUSH1 0x4 PUSH2 0x6B3 JUMP JUMPDEST PUSH2 0x2B5 JUMP JUMPDEST PUSH2 0xC0 PUSH2 0xAC CALLDATASIZE PUSH1 0x4 PUSH2 0x6B3 JUMP JUMPDEST PUSH0 PUSH1 0x20 DUP2 SWAP1 MSTORE SWAP1 DUP2 MSTORE PUSH1 0x40 SWAP1 KECCAK256 SLOAD PUSH1 0xFF AND DUP2 JUMP JUMPDEST PUSH1 0x40 MLOAD PUSH2 0xCD SWAP2 SWAP1 PUSH2 0x707 JUMP JUMPDEST PUSH1 0x40 MLOAD DUP1 SWAP2 SUB SWAP1 RETURN JUMPDEST PUSH2 0x76 PUSH2 0xE4 CALLDATASIZE PUSH1 0x4 PUSH2 0x71B JUMP JUMPDEST PUSH2 0x34D JUMP JUMPDEST PUSH2 0x116 PUSH2 0xF7 CALLDATASIZE PUSH1 0x4 PUSH2 0x64C JUMP JUMPDEST PUSH1 0x1 PUSH1 0x20 SWAP1 DUP2 MSTORE PUSH0 SWAP3 DUP4 MSTORE PUSH1 0x40 DUP1 DUP5 KECCAK256 SWAP1 SWAP2 MSTORE SWAP1 DUP3 MSTORE SWAP1 KECCAK256 SLOAD PUSH1 0xFF AND DUP2 JUMP JUMPDEST PUSH1 0x40 MLOAD SWAP1 ISZERO ISZERO DUP2 MSTORE PUSH1 0x20 ADD PUSH2 0xCD JUMP JUMPDEST PUSH1 0x2 SLOAD PUSH1 0x1 PUSH1 0x1 PUSH1 0xA0 SHL SUB AND CALLER EQ PUSH2 0x151 JUMPI PUSH1 0x40 MLOAD PUSH4 0x1A310541 PUSH1 0xE1 SHL DUP2 MSTORE PUSH1 0x4 ADD PUSH1 0x40 MLOAD DUP1 SWAP2 SUB SWAP1 REVERT JUMPDEST PUSH1 0x1 PUSH1 0x1 PUSH1 0xA0 SHL SUB DUP3 AND PUSH0 SWAP1 DUP2 MSTORE PUSH1 0x1 PUSH1 0x20 SWAP1 DUP2 MSTORE PUSH1 0x40 DUP1 DUP4 KECCAK256 PUSH1 0x1 PUSH1 0x1 PUSH1 0x80 SHL SUB DUP6 AND DUP5 MSTORE SWAP1 SWAP2 MSTORE SWAP1 KECCAK256 SLOAD PUSH1 0xFF AND PUSH2 0x1BC JUMPI PUSH1 0x40 MLOAD PUSH4 0x58CCE337 PUSH1 0xE0 SHL DUP2 MSTORE PUSH1 0x1 PUSH1 0x1 PUSH1 0xA0 SHL SUB DUP4 AND PUSH1 0x4 DUP3 ADD MSTORE PUSH1 0x1 PUSH1 0x1 PUSH1 0x80 SHL SUB DUP3 AND PUSH1 0x24 DUP3 ADD MSTORE PUSH1 0x44 ADD JUMPDEST PUSH1 0x40 MLOAD DUP1 SWAP2 SUB SWAP1 REVERT JUMPDEST PUSH1 0x1 PUSH1 0x1 PUSH1 0xA0 SHL SUB DUP3 AND PUSH0 DUP2 DUP2 MSTORE PUSH1 0x1 PUSH1 0x20 SWAP1 DUP2 MSTORE PUSH1 0x40 DUP1 DUP4 KECCAK256 PUSH1 0x1 PUSH1 0x1 PUSH1 0x80 SHL SUB DUP7 AND DUP1 DUP6 MSTORE SWAP3 MSTORE DUP1 DUP4 KECCAK256 DUP1 SLOAD PUSH1 0xFF NOT AND SWAP1 SSTORE MLOAD SWAP1 SWAP3 SWAP2 PUSH32 0x2091A7A9F4BD1D3537C45C3143A470B7C349709A4B0B9E9B2A8F3E37C9DE0E25 SWAP2 LOG3 POP POP JUMP JUMPDEST PUSH1 0x2 SLOAD PUSH1 0x1 PUSH1 0x1 PUSH1 0xA0 SHL SUB AND CALLER EQ PUSH2 0x246 JUMPI PUSH1 0x40 MLOAD PUSH4 0x1A310541 PUSH1 0xE1 SHL DUP2 MSTORE PUSH1 0x4 ADD PUSH1 0x40 MLOAD DUP1 SWAP2 SUB SWAP1 REVERT JUMPDEST PUSH1 0x1 PUSH1 0x1 PUSH1 0xA0 SHL SUB DUP3 AND PUSH0 SWAP1 DUP2 MSTORE PUSH1 0x20 DUP2 SWAP1 MSTORE PUSH1 0x40 SWAP1 KECCAK256 DUP1 SLOAD DUP3 SWAP2 SWAP1 PUSH1 0xFF NOT AND PUSH1 0x1 DUP4 PUSH1 0x4 DUP2 GT ISZERO PUSH2 0x27A JUMPI PUSH2 0x27A PUSH2 0x6D3 JUMP JUMPDEST MUL OR SWAP1 SSTORE POP DUP1 PUSH1 0x4 DUP2 GT ISZERO PUSH2 0x291 JUMPI PUSH2 0x291 PUSH2 0x6D3 JUMP JUMPDEST PUSH1 0x40 MLOAD PUSH1 0x1 PUSH1 0x1 PUSH1 0xA0 SHL SUB DUP5 AND SWAP1 PUSH0 MLOAD PUSH1 0x20 PUSH2 0x779 PUSH0 CODECOPY PUSH0 MLOAD SWAP1 PUSH0 MSTORE SWAP1 PUSH0 SWAP1 LOG3 POP POP JUMP JUMPDEST PUSH1 0x2 SLOAD PUSH1 0x1 PUSH1 0x1 PUSH1 0xA0 SHL SUB AND CALLER EQ PUSH2 0x2E0 JUMPI PUSH1 0x40 MLOAD PUSH4 0x1A310541 PUSH1 0xE1 SHL DUP2 MSTORE PUSH1 0x4 ADD PUSH1 0x40 MLOAD DUP1 SWAP2 SUB SWAP1 REVERT JUMPDEST PUSH1 0x1 PUSH1 0x1 PUSH1 0xA0 SHL SUB DUP2 AND PUSH0 SWAP1 DUP2 MSTORE PUSH1 0x20 DUP2 SWAP1 MSTORE PUSH1 0x40 SWAP1 KECCAK256 DUP1 SLOAD PUSH1 0xFF NOT DUP2 AND SWAP1 SWAP2 SSTORE PUSH1 0xFF AND DUP1 PUSH1 0x4 DUP2 GT ISZERO PUSH2 0x316 JUMPI PUSH2 0x316 PUSH2 0x6D3 JUMP JUMPDEST PUSH1 0x40 MLOAD PUSH1 0x1 PUSH1 0x1 PUSH1 0xA0 SHL SUB DUP5 AND SWAP1 PUSH32 0x34A1009B84E077AEE5BC8197FAF7105E54F9BA6879E2A51A716E4156EA9AD769 SWAP1 PUSH0 SWAP1 LOG3 POP POP JUMP JUMPDEST PUSH1 0x2 SLOAD PUSH1 0x1 PUSH1 0x1 PUSH1 0xA0 SHL SUB AND CALLER EQ PUSH2 0x378 JUMPI PUSH1 0x40 MLOAD PUSH4 0x1A310541 PUSH1 0xE1 SHL DUP2 MSTORE PUSH1 0x4 ADD PUSH1 0x40 MLOAD DUP1 SWAP2 SUB SWAP1 REVERT JUMPDEST PUSH1 0x3 DUP2 PUSH1 0x4 DUP2 GT ISZERO PUSH2 0x38C JUMPI PUSH2 0x38C PUSH2 0x6D3 JUMP JUMPDEST EQ ISZERO DUP1 ISZERO PUSH2 0x3AC JUMPI POP PUSH1 0x4 DUP2 PUSH1 0x4 DUP2 GT ISZERO PUSH2 0x3A9 JUMPI PUSH2 0x3A9 PUSH2 0x6D3 JUMP JUMPDEST EQ ISZERO JUMPDEST ISZERO PUSH2 0x3CE JUMPI DUP3 DUP2 PUSH1 0x40 MLOAD PUSH4 0x45C19949 PUSH1 0xE1 SHL DUP2 MSTORE PUSH1 0x4 ADD PUSH2 0x1B3 SWAP3 SWAP2 SWAP1 PUSH2 0x75B JUMP JUMPDEST DUP2 PUSH1 0x1 PUSH1 0x1 PUSH1 0x80 SHL SUB AND PUSH0 SUB PUSH2 0x3F7 JUMPI PUSH1 0x40 MLOAD PUSH4 0x34ABFC67 PUSH1 0xE2 SHL DUP2 MSTORE PUSH1 0x4 ADD PUSH1 0x40 MLOAD DUP1 SWAP2 SUB SWAP1 REVERT JUMPDEST PUSH1 0x1 PUSH1 0x1 PUSH1 0xA0 SHL SUB DUP4 AND PUSH0 SWAP1 DUP2 MSTORE PUSH1 0x20 DUP2 SWAP1 MSTORE PUSH1 0x40 DUP2 KECCAK256 SLOAD PUSH1 0xFF AND PUSH1 0x4 DUP2 GT ISZERO PUSH2 0x423 JUMPI PUSH2 0x423 PUSH2 0x6D3 JUMP JUMPDEST EQ DUP1 PUSH2 0x492 JUMPI POP PUSH1 0x3 PUSH1 0x1 PUSH1 0x1 PUSH1 0xA0 SHL SUB DUP5 AND PUSH0 SWAP1 DUP2 MSTORE PUSH1 0x20 DUP2 SWAP1 MSTORE PUSH1 0x40 SWAP1 KECCAK256 SLOAD PUSH1 0xFF AND PUSH1 0x4 DUP2 GT ISZERO PUSH2 0x458 JUMPI PUSH2 0x458 PUSH2 0x6D3 JUMP JUMPDEST EQ ISZERO DUP1 ISZERO PUSH2 0x492 JUMPI POP PUSH1 0x4 PUSH1 0x1 PUSH1 0x1 PUSH1 0xA0 SHL SUB DUP5 AND PUSH0 SWAP1 DUP2 MSTORE PUSH1 0x20 DUP2 SWAP1 MSTORE PUSH1 0x40 SWAP1 KECCAK256 SLOAD PUSH1 0xFF AND PUSH1 0x4 DUP2 GT ISZERO PUSH2 0x48F JUMPI PUSH2 0x48F PUSH2 0x6D3 JUMP JUMPDEST EQ ISZERO JUMPDEST ISZERO PUSH2 0x507 JUMPI PUSH1 0x1 PUSH1 0x1 PUSH1 0xA0 SHL SUB DUP4 AND PUSH0 SWAP1 DUP2 MSTORE PUSH1 0x20 DUP2 SWAP1 MSTORE PUSH1 0x40 SWAP1 KECCAK256 DUP1 SLOAD DUP3 SWAP2 SWAP1 PUSH1 0xFF NOT AND PUSH1 0x1 DUP4 PUSH1 0x4 DUP2 GT ISZERO PUSH2 0x4CB JUMPI PUSH2 0x4CB PUSH2 0x6D3 JUMP JUMPDEST MUL OR SWAP1 SSTORE POP DUP1 PUSH1 0x4 DUP2 GT ISZERO PUSH2 0x4E2 JUMPI PUSH2 0x4E2 PUSH2 0x6D3 JUMP JUMPDEST PUSH1 0x40 MLOAD PUSH1 0x1 PUSH1 0x1 PUSH1 0xA0 SHL SUB DUP6 AND SWAP1 PUSH0 MLOAD PUSH1 0x20 PUSH2 0x779 PUSH0 CODECOPY PUSH0 MLOAD SWAP1 PUSH0 MSTORE SWAP1 PUSH0 SWAP1 LOG3 PUSH2 0x5B6 JUMP JUMPDEST DUP1 PUSH1 0x4 DUP2 GT ISZERO PUSH2 0x519 JUMPI PUSH2 0x519 PUSH2 0x6D3 JUMP JUMPDEST PUSH1 0x1 PUSH1 0x1 PUSH1 0xA0 SHL SUB DUP5 AND PUSH0 SWAP1 DUP2 MSTORE PUSH1 0x20 DUP2 SWAP1 MSTORE PUSH1 0x40 SWAP1 KECCAK256 SLOAD PUSH1 0xFF AND PUSH1 0x4 DUP2 GT ISZERO PUSH2 0x545 JUMPI PUSH2 0x545 PUSH2 0x6D3 JUMP JUMPDEST EQ PUSH2 0x5B6 JUMPI PUSH1 0x1 PUSH1 0x1 PUSH1 0xA0 SHL SUB DUP4 AND PUSH0 SWAP1 DUP2 MSTORE PUSH1 0x20 DUP2 SWAP1 MSTORE PUSH1 0x40 SWAP1 KECCAK256 DUP1 SLOAD DUP3 SWAP2 SWAP1 PUSH1 0xFF NOT AND PUSH1 0x1 DUP4 PUSH1 0x4 DUP2 GT ISZERO PUSH2 0x57E JUMPI PUSH2 0x57E PUSH2 0x6D3 JUMP JUMPDEST MUL OR SWAP1 SSTORE POP DUP1 PUSH1 0x4 DUP2 GT ISZERO PUSH2 0x595 JUMPI PUSH2 0x595 PUSH2 0x6D3 JUMP JUMPDEST PUSH1 0x40 MLOAD PUSH1 0x1 PUSH1 0x1 PUSH1 0xA0 SHL SUB DUP6 AND SWAP1 PUSH0 MLOAD PUSH1 0x20 PUSH2 0x779 PUSH0 CODECOPY PUSH0 MLOAD SWAP1 PUSH0 MSTORE SWAP1 PUSH0 SWAP1 LOG3 JUMPDEST PUSH1 0x1 PUSH1 0x1 PUSH1 0xA0 SHL SUB DUP4 AND PUSH0 DUP2 DUP2 MSTORE PUSH1 0x1 PUSH1 0x20 DUP2 DUP2 MSTORE PUSH1 0x40 DUP1 DUP5 KECCAK256 PUSH1 0x1 PUSH1 0x1 PUSH1 0x80 SHL SUB DUP9 AND DUP1 DUP7 MSTORE SWAP3 MSTORE DUP1 DUP5 KECCAK256 DUP1 SLOAD PUSH1 0xFF NOT AND SWAP1 SWAP4 OR SWAP1 SWAP3 SSTORE SWAP1 MLOAD SWAP1 SWAP3 SWAP2 PUSH32 0xA7A040419689AC3001A2B7E46B4CC55AA49833559239A3D51E72E097CD28A98F SWAP2 LOG3 POP POP POP JUMP JUMPDEST DUP1 CALLDATALOAD PUSH1 0x1 PUSH1 0x1 PUSH1 0xA0 SHL SUB DUP2 AND DUP2 EQ PUSH2 0x631 JUMPI PUSH0 PUSH0 REVERT JUMPDEST SWAP2 SWAP1 POP JUMP JUMPDEST DUP1 CALLDATALOAD PUSH1 0x1 PUSH1 0x1 PUSH1 0x80 SHL SUB DUP2 AND DUP2 EQ PUSH2 0x631 JUMPI PUSH0 PUSH0 REVERT JUMPDEST PUSH0 PUSH0 PUSH1 0x40 DUP4 DUP6 SUB SLT ISZERO PUSH2 0x65D JUMPI PUSH0 PUSH0 REVERT JUMPDEST PUSH2 0x666 DUP4 PUSH2 0x61B JUMP JUMPDEST SWAP2 POP PUSH2 0x674 PUSH1 0x20 DUP5 ADD PUSH2 0x636 JUMP JUMPDEST SWAP1 POP SWAP3 POP SWAP3 SWAP1 POP JUMP JUMPDEST DUP1 CALLDATALOAD PUSH1 0x5 DUP2 LT PUSH2 0x631 JUMPI PUSH0 PUSH0 REVERT JUMPDEST PUSH0 PUSH0 PUSH1 0x40 DUP4 DUP6 SUB SLT ISZERO PUSH2 0x69C JUMPI PUSH0 PUSH0 REVERT JUMPDEST PUSH2 0x6A5 DUP4 PUSH2 0x61B JUMP JUMPDEST SWAP2 POP PUSH2 0x674 PUSH1 0x20 DUP5 ADD PUSH2 0x67D JUMP JUMPDEST PUSH0 PUSH1 0x20 DUP3 DUP5 SUB SLT ISZERO PUSH2 0x6C3 JUMPI PUSH0 PUSH0 REVERT JUMPDEST PUSH2 0x6CC DUP3 PUSH2 0x61B JUMP JUMPDEST SWAP4 SWAP3 POP POP POP JUMP JUMPDEST PUSH4 0x4E487B71 PUSH1 0xE0 SHL PUSH0 MSTORE PUSH1 0x21 PUSH1 0x4 MSTORE PUSH1 0x24 PUSH0 REVERT JUMPDEST PUSH1 0x5 DUP2 LT PUSH2 0x703 JUMPI PUSH4 0x4E487B71 PUSH1 0xE0 SHL PUSH0 MSTORE PUSH1 0x21 PUSH1 0x4 MSTORE PUSH1 0x24 PUSH0 REVERT JUMPDEST SWAP1 MSTORE JUMP JUMPDEST PUSH1 0x20 DUP2 ADD PUSH2 0x715 DUP3 DUP5 PUSH2 0x6E7 JUMP JUMPDEST SWAP3 SWAP2 POP POP JUMP JUMPDEST PUSH0 PUSH0 PUSH0 PUSH1 0x60 DUP5 DUP7 SUB SLT ISZERO PUSH2 0x72D JUMPI PUSH0 PUSH0 REVERT JUMPDEST PUSH2 0x736 DUP5 PUSH2 0x61B JUMP JUMPDEST SWAP3 POP PUSH2 0x744 PUSH1 0x20 DUP6 ADD PUSH2 0x636 JUMP JUMPDEST SWAP2 POP PUSH2 0x752 PUSH1 0x40 DUP6 ADD PUSH2 0x67D JUMP JUMPDEST SWAP1 POP SWAP3 POP SWAP3 POP SWAP3 JUMP JUMPDEST PUSH1 0x1 PUSH1 0x1 PUSH1 0xA0 SHL SUB DUP4 AND DUP2 MSTORE PUSH1 0x40 DUP2 ADD PUSH2 0x6CC PUSH1 0x20 DUP4 ADD DUP5 PUSH2 0x6E7 JUMP INVALID 0xAA 0x25 SWAP6 PUSH6 0x575C834BC07E PUSH21 0xDCA784B4071676133AC78513B431AFB6EE7EDAE121 LOG2 PUSH5 0x6970667358 0x22 SLT KECCAK256 PUSH22 0x93B3E82BD27C1668F8DF3DB56D5B066F16656F3B0B5D SWAP4 SWAP6 PUSH25 0xEB7AE99B7CDB64736F6C634300081E00330000000000000000 "
				},
				"gasEstimates": {
					"creation": {
						"codeDepositCost": "399600",
						"executionCost": "434",
						"totalCost": "400034"
					},
					"external": {
						"assignStaffToRestaurant(address,uint128,uint8)": "infinite",
						"grantRole(address,uint8)": "infinite",
						"removeStaffFromRestaurant(address,uint128)": "infinite",
						"revokeRole(address)": "28355",
						"roles(address)": "2650",
						"staffAssignments(address,uint128)": "infinite"
					},
					"internal": {
						"_isStaffOfRestaurant(address,uint128)": "infinite",
						"initializeRoles(address)": "infinite"
					}
				},
				"methodIdentifiers": {
					"assignStaffToRestaurant(address,uint128,uint8)": "addfa353",
					"grantRole(address,uint8)": "3e840236",
					"removeStaffFromRestaurant(address,uint128)": "009d2013",
					"revokeRole(address)": "80e52e3f",
					"roles(address)": "99374642",
					"staffAssignments(address,uint128)": "ce4cf9cb"
				}
			},
			"storageLayout": {
				"storage": [
					{
						"astId": 36,
						"contract": "access/RoleAccess.sol:RoleAccess",
						"label": "roles",
						"offset": 0,
						"slot": "0",
						"type": "t_mapping(t_address,t_enum(Role)7)"
					},
					{
						"astId": 42,
						"contract": "access/RoleAccess.sol:RoleAccess",
						"label": "staffAssignments",
						"offset": 0,
						"slot": "1",
						"type": "t_mapping(t_address,t_mapping(t_uint128,t_bool))"
					},
					{
						"astId": 44,
						"contract": "access/RoleAccess.sol:RoleAccess",
						"label": "_roleAdmin",
						"offset": 0,
						"slot": "2",
						"type": "t_address"
					}
				],
				"types": {
					"t_address": {
						"encoding": "inplace",
						"label": "address",
						"numberOfBytes": "20"
					},
					"t_bool": {
						"encoding": "inplace",
						"label": "bool",
						"numberOfBytes": "1"
					},
					"t_enum(Role)7": {
						"encoding": "inplace",
						"label": "enum RoleAccess.Role",
						"numberOfBytes": "1"
					},
					"t_mapping(t_address,t_enum(Role)7)": {
						"encoding": "mapping",
						"key": "t_address",
						"label": "mapping(address => enum RoleAccess.Role)",
						"numberOfBytes": "32",
						"value": "t_enum(Role)7"
					},
					"t_mapping(t_address,t_mapping(t_uint128,t_bool))": {
						"encoding": "mapping",
						"key": "t_address",
						"label": "mapping(address => mapping(uint128 => bool))",
						"numberOfBytes": "32",
						"value": "t_mapping(t_uint128,t_bool)"
					},
					"t_mapping(t_uint128,t_bool)": {
						"encoding": "mapping",
						"key": "t_uint128",
						"label": "mapping(uint128 => bool)",
						"numberOfBytes": "32",
						"value": "t_bool"
					},
					"t_uint128": {
						"encoding": "inplace",
						"label": "uint128",
						"numberOfBytes": "16"
					}
				}
			},
			"userdoc": {
				"kind": "user",
				"methods": {},
				"version": 1
			}
		}
	}
}